{"abi":[{"inputs":[],"stateMutability":"nonpayable","type":"constructor","name":"constructor"},{"anonymous":false,"inputs":[{"indexed":false,"internalType":"address","name":"_user","type":"address"},{"indexed":false,"internalType":"uint256","name":"_borrowed","type":"uint256"},{"indexed":false,"internalType":"address","name":"_borrowedAsset","type":"address"},{"indexed":false,"internalType":"uint256","name":"_collateral","type":"uint256"},{"indexed":false,"internalType":"address","name":"_collateralAsset","type":"address"}],"name":"borrowEvent","type":"event"},{"anonymous":false,"inputs":[{"indexed":false,"internalType":"address","name":"_user","type":"address"},{"indexed":false,"internalType":"uint256","name":"_quantity","type":"uint256"},{"indexed":false,"internalType":"address","name":"_asset","type":"address"}],"name":"depositEvent","type":"event"},{"inputs":[{"internalType":"uint256","name":"_borrowQuantity","type":"uint256"},{"internalType":"address","name":"_asset","type":"address"},{"internalType":"uint256","name":"_collateralQuantity","type":"uint256"},{"internalType":"address","name":"_collateral","type":"address"}],"name":"Borrow","outputs":[],"stateMutability":"nonpayable","type":"function"},{"inputs":[{"internalType":"uint256","name":"_quantity","type":"uint256"},{"internalType":"address","name":"_asset","type":"address"}],"name":"Deposit","outputs":[],"stateMutability":"nonpayable","type":"function"},{"inputs":[{"internalType":"address","name":"_desiredAsset","type":"address"},{"internalType":"uint256","name":"amountToRemove","type":"uint256"}],"name":"Withdraw","outputs":[],"stateMutability":"nonpayable","type":"function"},{"inputs":[],"name":"collateral","outputs":[{"internalType":"contract Collateral","name":"","type":"address"}],"stateMutability":"view","type":"function"},{"inputs":[{"internalType":"address","name":"user","type":"address"}],"name":"getBalanceOf","outputs":[{"internalType":"uint256","name":"","type":"uint256"}],"stateMutability":"view","type":"function"},{"inputs":[],"name":"getCollAddr","outputs":[{"internalType":"address","name":"","type":"address"}],"stateMutability":"view","type":"function"},{"inputs":[{"internalType":"address","name":"_token","type":"address"}],"name":"getCollBalance","outputs":[{"internalType":"uint256","name":"","type":"uint256"}],"stateMutability":"view","type":"function"},{"inputs":[{"internalType":"address","name":"_token","type":"address"}],"name":"getLiquidPct","outputs":[{"internalType":"uint256","name":"","type":"uint256"}],"stateMutability":"view","type":"function"},{"inputs":[{"internalType":"address","name":"_token","type":"address"}],"name":"getLiquidity","outputs":[{"internalType":"uint256","name":"","type":"uint256"}],"stateMutability":"view","type":"function"},{"inputs":[{"internalType":"address","name":"_token","type":"address"}],"name":"getLockedCollateral","outputs":[{"internalType":"uint256","name":"","type":"uint256"}],"stateMutability":"view","type":"function"},{"inputs":[],"name":"getPoolAddr","outputs":[{"internalType":"address","name":"","type":"address"}],"stateMutability":"view","type":"function"},{"inputs":[{"internalType":"address","name":"_token","type":"address"}],"name":"getPoolBalance","outputs":[{"internalType":"uint256","name":"","type":"uint256"}],"stateMutability":"view","type":"function"},{"inputs":[],"name":"getPoolValue","outputs":[{"internalType":"uint256","name":"","type":"uint256"}],"stateMutability":"view","type":"function"},{"inputs":[],"name":"getTokenAddr","outputs":[{"internalType":"address","name":"","type":"address"}],"stateMutability":"view","type":"function"},{"inputs":[],"name":"getTokenDollarValue","outputs":[{"internalType":"uint256","name":"","type":"uint256"}],"stateMutability":"view","type":"function"},{"inputs":[],"name":"getTotalSupply","outputs":[{"internalType":"uint256","name":"","type":"uint256"}],"stateMutability":"view","type":"function"},{"inputs":[],"name":"offerCollateralAssets","outputs":[],"stateMutability":"nonpayable","type":"function"},{"inputs":[],"name":"pool","outputs":[{"internalType":"contract Pool","name":"","type":"address"}],"stateMutability":"view","type":"function"},{"inputs":[],"name":"token","outputs":[{"internalType":"contract LVRToken","name":"","type":"address"}],"stateMutability":"view","type":"function"}],"bytecode":"608060405234801561001057600080fd5b5060405161001d90610148565b604051809103906000f080158015610039573d6000803e3d6000fd5b50600080546001600160a01b0319166001600160a01b039290921691909117905560405161006690610155565b604051809103906000f080158015610082573d6000803e3d6000fd5b50600180546001600160a01b0319166001600160a01b039283161790556000546040519116906100b190610162565b6060808252600990820152682a32b9ba2a37b5b2b760b91b608082015260a060208201819052600390820152621514d560ea1b60c08201526001600160a01b03909116604082015260e001604051809103906000f080158015610118573d6000803e3d6000fd5b50600380546001600160a01b03929092166001600160a01b0319928316179055600280549091163317905561016f565b610db280610dd183390190565b6103c680611b8383390190565b611eaf80611f4983390190565b610c538061017e6000396000f3fe608060405234801561001057600080fd5b50600436106101215760003560e01c8063884edad9116100ad578063d49ab22c11610071578063d49ab22c14610225578063d8dfeb4514610238578063de2592421461024b578063de30f97d1461025c578063fc0c546a1461026f57600080fd5b8063884edad9146101d15780639b96eece146101e4578063a747b93b146101f7578063c4e41b221461020a578063d28682ea1461021257600080fd5b806346c928fc116100f457806346c928fc146101815780634bcc170914610194578063582b2720146101a757806363e36dac146101b85780636db18093146101c957600080fd5b8063057393c01461012657806316f0115b1461014c5780631ba2f53114610177578063243d8e051461017f575b600080fd5b610139610134366004610b19565b610282565b6040519081526020015b60405180910390f35b60005461015f906001600160a01b031681565b6040516001600160a01b039091168152602001610143565b6101396102f8565b005b61017f61018f366004610b3b565b61036b565b61017f6101a2366004610b81565b61056e565b6003546001600160a01b031661015f565b6001546001600160a01b031661015f565b6101396106ac565b61017f6101df366004610bad565b6106f6565b6101396101f2366004610b19565b6109b4565b610139610205366004610b19565b6109e7565b610139610a1a565b610139610220366004610b19565b610a64565b610139610233366004610b19565b610a97565b60015461015f906001600160a01b031681565b6000546001600160a01b031661015f565b61013961026a366004610b19565b610aca565b60035461015f906001600160a01b031681565b60015460405163f8b2cb4f60e01b81526001600160a01b038381166004830152600092169063f8b2cb4f906024015b602060405180830381865afa1580156102ce573d6000803e3d6000fd5b505050506040513d601f19601f820116820180604052508101906102f29190610bd7565b92915050565b60035460408051638a02775b60e01b815290516000926001600160a01b031691638a02775b9160048083019260209291908290030181865afa158015610342573d6000803e3d6000fd5b505050506040513d601f19601f820116820180604052508101906103669190610bd7565b905090565b600160009054906101000a90046001600160a01b03166001600160a01b031663094049546040518163ffffffff1660e01b8152600401602060405180830381865afa1580156103be573d6000803e3d6000fd5b505050506040513d601f19601f820116820180604052508101906103e29190610bd7565b6103ec9085610bf0565b8210156104385760405162461bcd60e51b81526020600482015260156024820152741b9bdd08195b9bdd59da0818dbdb1b185d195c985b605a1b60448201526064015b60405180910390fd5b60015460405163f970c3b760e01b81523360048201526001600160a01b038381166024830152604482018590529091169063f970c3b790606401600060405180830381600087803b15801561048c57600080fd5b505af11580156104a0573d6000803e3d6000fd5b505060005460405163fc4f78b960e01b81523360048201526001600160a01b03878116602483015260448201899052909116925063fc4f78b99150606401600060405180830381600087803b1580156104f857600080fd5b505af115801561050c573d6000803e3d6000fd5b505060408051338152602081018890526001600160a01b0387811682840152606082018790528516608082015290517fea8631408d071cdc565dfa37dcb32450c4c85ee9a4142ed14df1387d7c2a432793509081900360a0019150a150505050565b600082116105be5760405162461bcd60e51b815260206004820152601860248201527f6465706f736974206d75737420626520706f7369746976650000000000000000604482015260640161042f565b600354604051630d4d151360e01b8152336004820152602481018490526001600160a01b03838116604483015290911690630d4d1513906064016020604051808303816000875af1158015610617573d6000803e3d6000fd5b505050506040513d601f19601f8201168201806040525081019061063b9190610bd7565b50600054604051631740ecaf60e11b81523360048201526001600160a01b0383811660248301526044820185905290911690632e81d95e90606401600060405180830381600087803b15801561069057600080fd5b505af11580156106a4573d6000803e3d6000fd5b505050505050565b60035460408051630cf55f3760e21b815290516000926001600160a01b0316916333d57cdc9160048083019260209291908290030181865afa158015610342573d6000803e3d6000fd5b60005460405163fce3e8e760e01b81526001600160a01b0384811660048301529091169063fce3e8e790602401602060405180830381865afa158015610740573d6000803e3d6000fd5b505050506040513d601f19601f820116820180604052508101906107649190610bd7565b8111156107ce5760405162461bcd60e51b815260206004820152603260248201527f557365722063616e6e6f742072656465656d206d6f7265207468616e2074686560448201527120617661696c61626c652062616c616e636560701b606482015260840161042f565b600080546003546040516370a0823160e01b815233600482018190526001600160a01b0393841693630272a8e09391928892889216906370a0823190602401602060405180830381865afa15801561082a573d6000803e3d6000fd5b505050506040513d601f19601f8201168201806040525081019061084e9190610bd7565b600360009054906101000a90046001600160a01b03166001600160a01b03166333d57cdc6040518163ffffffff1660e01b8152600401602060405180830381865afa1580156108a1573d6000803e3d6000fd5b505050506040513d601f19601f820116820180604052508101906108c59190610bd7565b6040516001600160e01b031960e088901b1681526001600160a01b03958616600482015294909316602485015260448401919091526064830152608482015260a4016020604051808303816000875af1158015610926573d6000803e3d6000fd5b505050506040513d601f19601f8201168201806040525081019061094a9190610bd7565b600354604051632770a7eb60e21b8152336004820152602481018390529192506001600160a01b031690639dc29fac90604401600060405180830381600087803b15801561099757600080fd5b505af11580156109ab573d6000803e3d6000fd5b50505050505050565b6003546040516370a0823160e01b81526001600160a01b03838116600483015260009216906370a08231906024016102b1565b6000805460405163fce3e8e760e01b81526001600160a01b0384811660048301529091169063fce3e8e7906024016102b1565b600354604080516318160ddd60e01b815290516000926001600160a01b0316916318160ddd9160048083019260209291908290030181865afa158015610342573d6000803e3d6000fd5b6000805460405163f8b2cb4f60e01b81526001600160a01b0384811660048301529091169063f8b2cb4f906024016102b1565b6001546040516328d1f89360e21b81526001600160a01b038381166004830152600092169063a347e24c906024016102b1565b6000805460405163de30f97d60e01b81526001600160a01b0384811660048301529091169063de30f97d906024016102b1565b80356001600160a01b0381168114610b1457600080fd5b919050565b600060208284031215610b2b57600080fd5b610b3482610afd565b9392505050565b60008060008060808587031215610b5157600080fd5b84359350610b6160208601610afd565b925060408501359150610b7660608601610afd565b905092959194509250565b60008060408385031215610b9457600080fd5b82359150610ba460208401610afd565b90509250929050565b60008060408385031215610bc057600080fd5b610bc983610afd565b946020939093013593505050565b600060208284031215610be957600080fd5b5051919050565b6000816000190483118215151615610c1857634e487b7160e01b600052601160045260246000fd5b50029056fea26469706673582212204f9d67de407c4180c029e1d6ff1b33b577a2a36d75f10bb3a73a844b57a7ac6a64736f6c634300080b0033608060405234801561001057600080fd5b5060026003819055604080518082018252600080825260208083018281527301be23585060835e02b77ef475b0cc51aa1e07098084529183905292517f4e2753d238f0f4cb8962490717ab551b4c023808c7bc37aed6e8760bfc3a92d55591517f4e2753d238f0f4cb8962490717ab551b4c023808c7bc37aed6e8760bfc3a92d65583546001810185559390527f405787fa12a823e0f2b7631cc41b3ba8828b3321ca811111fa75cd3aa3bb5ace90920180546001600160a01b03191683179055516100db9061011e565b604051809103906000f0801580156100f7573d6000803e3d6000fd5b50600180546001600160a01b0319166001600160a01b03929092169190911790555061012b565b61037680610a3c83390190565b6109028061013a6000396000f3fe608060405234801561001057600080fd5b506004361061009e5760003560e01c8063de30f97d11610066578063de30f97d1461014d578063edf26d9b14610160578063f8b2cb4f14610173578063fc4f78b914610186578063fce3e8e71461019957600080fd5b80630272a8e0146100a35780632e81d95e146100c957806375f4d677146100de5780639311ca69146100e6578063b8c876b114610111575b600080fd5b6100b66100b136600461070f565b6101c2565b6040519081526020015b60405180910390f35b6100dc6100d736600461075c565b610380565b005b6100b6610437565b6001546100f9906001600160a01b031681565b6040516001600160a01b0390911681526020016100c0565b61013861011f366004610798565b6000602081905290815260409020805460019091015482565b604080519283526020830191909152016100c0565b6100b661015b366004610798565b61056f565b6100f961016e3660046107ba565b6105cc565b6100b6610181366004610798565b6105f6565b6100dc61019436600461075c565b610661565b6100b66101a7366004610798565b6001600160a01b031660009081526020819052604090205490565b6001546040516341976e0960e01b81526001600160a01b03868116600483015260009283929116906341976e0990602401602060405180830381865afa158015610210573d6000803e3d6000fd5b505050506040513d601f19601f8201168201806040525081019061023491906107d3565b90506000816102438587610802565b61024d9190610821565b9050858110156102b75760405162461bcd60e51b815260206004820152602b60248201527f43616e6e6f742072656465656d206d6f726520746f6b656e73207468616e206e60448201526a1d5b58995c881bdddb995960aa1b606482015260840160405180910390fd5b6000846102c48885610802565b6102ce9190610821565b6001600160a01b0389166000908152602081905260408120805492935089929091906102fb908490610843565b909155505060405163a9059cbb60e01b81526001600160a01b038a811660048301526024820189905289169063a9059cbb906044016020604051808303816000875af115801561034f573d6000803e3d6000fd5b505050506040513d601f19601f82011682018060405250810190610373919061085a565b5098975050505050505050565b6001600160a01b0382166000908152602081905260409020546103a490829061087c565b6001600160a01b03838116600081815260208190526040908190209390935591516323b872dd60e01b81529085166004820152306024820152604481018390526323b872dd906064015b6020604051808303816000875af115801561040d573d6000803e3d6000fd5b505050506040513d601f19601f82011682018060405250810190610431919061085a565b50505050565b6002546000908190815b818161ffff1610156105675760015460028054670de0b6b3a7640000926001600160a01b0316916341976e099161ffff861690811061048257610482610894565b60009182526020909120015460405160e083901b6001600160e01b03191681526001600160a01b039091166004820152602401602060405180830381865afa1580156104d2573d6000803e3d6000fd5b505050506040513d601f19601f820116820180604052508101906104f691906107d3565b60008060028561ffff168154811061051057610510610894565b60009182526020808320909101546001600160a01b0316835282019290925260400190205461053f9190610802565b6105499190610821565b610553908461087c565b92508061055f816108aa565b915050610441565b509092915050565b6001600160a01b038116600090815260208190526040812060018101549054610598919061087c565b6001600160a01b0383166000908152602081905260409020546105bc906001610802565b6105c69190610821565b92915050565b600281815481106105dc57600080fd5b6000918252602090912001546001600160a01b0316905081565b6040516370a0823160e01b81523060048201526000906001600160a01b038316906370a0823190602401602060405180830381865afa15801561063d573d6000803e3d6000fd5b505050506040513d601f19601f820116820180604052508101906105c691906107d3565b6001600160a01b03821660009081526020819052604081208054839290610689908490610843565b90915550506001600160a01b038216600090815260208190526040812060010180548392906106b990849061087c565b909155505060405163a9059cbb60e01b81526001600160a01b0384811660048301526024820183905283169063a9059cbb906044016103ee565b80356001600160a01b038116811461070a57600080fd5b919050565b600080600080600060a0868803121561072757600080fd5b610730866106f3565b945061073e602087016106f3565b94979496505050506040830135926060810135926080909101359150565b60008060006060848603121561077157600080fd5b61077a846106f3565b9250610788602085016106f3565b9150604084013590509250925092565b6000602082840312156107aa57600080fd5b6107b3826106f3565b9392505050565b6000602082840312156107cc57600080fd5b5035919050565b6000602082840312156107e557600080fd5b5051919050565b634e487b7160e01b600052601160045260246000fd5b600081600019048311821515161561081c5761081c6107ec565b500290565b60008261083e57634e487b7160e01b600052601260045260246000fd5b500490565b600082821015610855576108556107ec565b500390565b60006020828403121561086c57600080fd5b815180151581146107b357600080fd5b6000821982111561088f5761088f6107ec565b500190565b634e487b7160e01b600052603260045260246000fd5b600061ffff808316818114156108c2576108c26107ec565b600101939250505056fea2646970667358221220ec575cbfe4c4f1716fde75b936b9d54019307ff9e13140bc7f8b47db75a779ed64736f6c634300080b0033608060405234801561001057600080fd5b50600060208190527f4e2753d238f0f4cb8962490717ab551b4c023808c7bc37aed6e8760bfc3a92d580546001600160a01b031990811673d8bd0a1cb028a31aa859a21a3758685a95de462317909155735592ec0cfb4dbc12d3ab100b257153436a1f0fea9091527ff4e9730789baae4355b7b087afa1a57a24c222e690ce50ce909b525e8495925b8054909116732ba49aaa16e6afd2a993473cfb70fa8559b523cf1790556102b1806100c56000396000f3fe608060405234801561001057600080fd5b50600436106100365760003560e01c806341976e091461003b5780634238dc4714610061575b600080fd5b61004e610049366004610141565b6100a2565b6040519081526020015b60405180910390f35b61008a61006f366004610141565b6000602081905290815260409020546001600160a01b031681565b6040516001600160a01b039091168152602001610058565b6001600160a01b03808216600090815260208190526040808220548151633fabe5a360e21b81529151929316918391839163feaf968c9160048082019260a0929091908290030181865afa1580156100fe573d6000803e3d6000fd5b505050506040513d601f19601f820116820180604052508101906101229190610190565b505050915050806402540be40061013991906101f6565b949350505050565b60006020828403121561015357600080fd5b81356001600160a01b038116811461016a57600080fd5b9392505050565b805169ffffffffffffffffffff8116811461018b57600080fd5b919050565b600080600080600060a086880312156101a857600080fd5b6101b186610171565b94506020860151935060408601519250606086015191506101d460808701610171565b90509295509295909350565b634e487b7160e01b600052601160045260246000fd5b60006001600160ff1b038184138284138082168684048611161561021c5761021c6101e0565b600160ff1b600087128281168783058912161561023b5761023b6101e0565b60008712925087820587128484161615610257576102576101e0565b8785058712818416161561026d5761026d6101e0565b50505092909302939250505056fea264697066735822122072c48f6e00c5a52cb863487a9419bc6a66d0f63d77321e88f47fe70ef4f6aac064736f6c634300080b00336080604052600260005534801561001557600080fd5b50600260009081556040805160208082019092528281527301be23585060835e02b77ef475b0cc51aa1e070990925260019052517fe539f5536278cb22339893811e6a9f04c719f63cc90966a4f1b05b9f4ec17a6f5561034c8061007a6000396000f3fe608060405234801561001057600080fd5b506004361061004c5760003560e01c80630940495414610051578063a347e24c1461006c578063f8b2cb4f14610095578063f970c3b7146100a8575b600080fd5b61005a60005481565b60405190815260200160405180910390f35b61005a61007a366004610257565b6001600160a01b031660009081526001602052604090205490565b61005a6100a3366004610257565b6100bd565b6100bb6100b6366004610279565b61012e565b005b6040516370a0823160e01b81523060048201526000906001600160a01b038316906370a0823190602401602060405180830381865afa158015610104573d6000803e3d6000fd5b505050506040513d601f19601f8201168201806040525081019061012891906102b5565b92915050565b6040516323b872dd60e01b81526001600160a01b038481166004830152306024830152604482018390528316906323b872dd906064016020604051808303816000875af1158015610183573d6000803e3d6000fd5b505050506040513d601f19601f820116820180604052508101906101a791906102ce565b506001600160a01b0382166000908152600160205260409020546101cc9082906102f0565b6001600160a01b038084166000818152600160209081526040808320959095559287168152600283528381209181529152205461020a9082906102f0565b6001600160a01b03938416600090815260026020908152604080832095909616825293909352929091209190915550565b80356001600160a01b038116811461025257600080fd5b919050565b60006020828403121561026957600080fd5b6102728261023b565b9392505050565b60008060006060848603121561028e57600080fd5b6102978461023b565b92506102a56020850161023b565b9150604084013590509250925092565b6000602082840312156102c757600080fd5b5051919050565b6000602082840312156102e057600080fd5b8151801515811461027257600080fd5b6000821982111561031157634e487b7160e01b600052601160045260246000fd5b50019056fea26469706673582212209d21e3cd8e5a8191bc78da2f86667a812179fb7c0a8dd766fd697b5536ac011164736f6c634300080b003360806040523480156200001157600080fd5b5060405162001eaf38038062001eaf83398101604081905262000034916200024b565b8251839083906200004d906005906020850190620000ca565b50805162000063906006906020840190620000ca565b505050604051620000749062000159565b604051809103906000f08015801562000091573d6000803e3d6000fd5b50600780546001600160a01b039283166001600160a01b0319918216179091556008805493909216921691909117905550620003159050565b828054620000d890620002d8565b90600052602060002090601f016020900481019282620000fc576000855562000147565b82601f106200011757805160ff191683800117855562000147565b8280016001018555821562000147579182015b82811115620001475782518255916020019190600101906200012a565b506200015592915062000167565b5090565b6103768062001b3983390190565b5b8082111562000155576000815560010162000168565b634e487b7160e01b600052604160045260246000fd5b600082601f830112620001a657600080fd5b81516001600160401b0380821115620001c357620001c36200017e565b604051601f8301601f19908116603f01168101908282118183101715620001ee57620001ee6200017e565b816040528381526020925086838588010111156200020b57600080fd5b600091505b838210156200022f578582018301518183018401529082019062000210565b83821115620002415760008385830101525b9695505050505050565b6000806000606084860312156200026157600080fd5b83516001600160401b03808211156200027957600080fd5b620002878783880162000194565b945060208601519150808211156200029e57600080fd5b50620002ad8682870162000194565b604086015190935090506001600160a01b0381168114620002cd57600080fd5b809150509250925092565b600181811c90821680620002ed57607f821691505b602082108114156200030f57634e487b7160e01b600052602260045260246000fd5b50919050565b61181480620003256000396000f3fe608060405234801561001057600080fd5b50600436106101c45760003560e01c80636b3e22fc116100f95780639dc29fac11610097578063a9059cbb11610071578063a9059cbb146103bb578063ca15c873146103ce578063d547741f146103e1578063dd62ed3e146103f457600080fd5b80639dc29fac1461038d578063a217fddf146103a0578063a457c2d7146103a857600080fd5b80639010d07c116100d35780639010d07c1461034c57806391d148541461035f5780639311ca691461037257806395d89b411461038557600080fd5b80636b3e22fc1461030857806370a082311461031b5780638a02775b1461034457600080fd5b8063248a9ca3116101665780633287acee116101405780633287acee146102c757806333d57cdc146102da57806336568abe146102e257806339509351146102f557600080fd5b8063248a9ca3146102805780632f2ff15d146102a3578063313ce567146102b857600080fd5b80630d4d1513116101a25780630d4d15131461021957806316f0115b1461023a57806318160ddd1461026557806323b872dd1461026d57600080fd5b806301ffc9a7146101c957806306fdde03146101f1578063095ea7b314610206575b600080fd5b6101dc6101d7366004611449565b61042d565b60405190151581526020015b60405180910390f35b6101f9610458565b6040516101e8919061149f565b6101dc6102143660046114ee565b6104ea565b61022c610227366004611518565b610500565b6040519081526020016101e8565b60085461024d906001600160a01b031681565b6040516001600160a01b0390911681526020016101e8565b60045461022c565b6101dc61027b366004611554565b61052f565b61022c61028e366004611590565b60009081526020819052604090206001015490565b6102b66102b13660046115a9565b6105de565b005b604051601281526020016101e8565b61022c6102d5366004611590565b610609565b61022c610656565b6102b66102f03660046115a9565b6106cc565b6101dc6103033660046114ee565b61074a565b61022c6103163660046114ee565b610786565b61022c6103293660046115d5565b6001600160a01b031660009081526002602052604090205490565b61022c61081f565b61024d61035a3660046115f0565b61088d565b6101dc61036d3660046115a9565b6108a5565b60075461024d906001600160a01b031681565b6101f96108ce565b6102b661039b3660046114ee565b6108dd565b61022c600081565b6101dc6103b63660046114ee565b610937565b6101dc6103c93660046114ee565b6109d0565b61022c6103dc366004611590565b6109dd565b6102b66103ef3660046115a9565b6109f4565b61022c610402366004611612565b6001600160a01b03918216600090815260036020908152604080832093909416825291909152205490565b60006001600160e01b03198216635a05180f60e01b1480610452575061045282610a1a565b92915050565b6060600580546104679061163c565b80601f01602080910402602001604051908101604052809291908181526020018280546104939061163c565b80156104e05780601f106104b5576101008083540402835291602001916104e0565b820191906000526020600020905b8154815290600101906020018083116104c357829003601f168201915b5050505050905090565b60006104f7338484610a4f565b50600192915050565b60008061050d8385610786565b9050600061051a82610609565b90506105268682610b73565b95945050505050565b600061053c848484610c52565b6001600160a01b0384166000908152600360209081526040808320338452909152902054828110156105c65760405162461bcd60e51b815260206004820152602860248201527f45524332303a207472616e7366657220616d6f756e74206578636565647320616044820152676c6c6f77616e636560c01b60648201526084015b60405180910390fd5b6105d38533858403610a4f565b506001949350505050565b6000828152602081905260409020600101546105fa8133610e22565b6106048383610e86565b505050565b60008061061461081f565b905061061f60045490565b61062a575090919050565b808361063560045490565b61063f9190611687565b61064991906116a6565b9392505050565b50919050565b60008061066260045490565b116106a05760405162461bcd60e51b815260206004820152600e60248201526d737570706c79206973207a65726f60901b60448201526064016105bd565b6004546106ab61081f565b6106bd90670de0b6b3a7640000611687565b6106c791906116a6565b905090565b6001600160a01b038116331461073c5760405162461bcd60e51b815260206004820152602f60248201527f416363657373436f6e74726f6c3a2063616e206f6e6c792072656e6f756e636560448201526e103937b632b9903337b91039b2b63360891b60648201526084016105bd565b6107468282610ea8565b5050565b3360008181526003602090815260408083206001600160a01b038716845290915281205490916104f79185906107819086906116c8565b610a4f565b6007546040516341976e0960e01b81526001600160a01b03848116600483015260009283929116906341976e0990602401602060405180830381865afa1580156107d4573d6000803e3d6000fd5b505050506040513d601f19601f820116820180604052508101906107f891906116e0565b9050670de0b6b3a764000061080d8483611687565b61081791906116a6565b949350505050565b600854604080516375f4d67760e01b815290516000926001600160a01b0316916375f4d6779160048083019260209291908290030181865afa158015610869573d6000803e3d6000fd5b505050506040513d601f19601f820116820180604052508101906106c791906116e0565b60008281526001602052604081206106499083610eca565b6000918252602082815260408084206001600160a01b0393909316845291905290205460ff1690565b6060600680546104679061163c565b6000811161092d5760405162461bcd60e51b815260206004820181905260248201527f416d6f756e7420746f2072656465656d206e6565647320746f206265203e203060448201526064016105bd565b6107468282610ed6565b3360009081526003602090815260408083206001600160a01b0386168452909152812054828110156109b95760405162461bcd60e51b815260206004820152602560248201527f45524332303a2064656372656173656420616c6c6f77616e63652062656c6f77604482015264207a65726f60d81b60648201526084016105bd565b6109c63385858403610a4f565b5060019392505050565b60006104f7338484610c52565b600081815260016020526040812061045290611024565b600082815260208190526040902060010154610a108133610e22565b6106048383610ea8565b60006001600160e01b03198216637965db0b60e01b148061045257506301ffc9a760e01b6001600160e01b0319831614610452565b6001600160a01b038316610ab15760405162461bcd60e51b8152602060048201526024808201527f45524332303a20617070726f76652066726f6d20746865207a65726f206164646044820152637265737360e01b60648201526084016105bd565b6001600160a01b038216610b125760405162461bcd60e51b815260206004820152602260248201527f45524332303a20617070726f766520746f20746865207a65726f206164647265604482015261737360f01b60648201526084016105bd565b6001600160a01b0383811660008181526003602090815260408083209487168084529482529182902085905590518481527f8c5be1e5ebec7d5bd14f71427d1e84f3dd0314c0f7b2291e5b200ac8c7c3b925910160405180910390a3505050565b6001600160a01b038216610bc95760405162461bcd60e51b815260206004820152601f60248201527f45524332303a206d696e7420746f20746865207a65726f20616464726573730060448201526064016105bd565b8060046000828254610bdb91906116c8565b90915550506001600160a01b03821660009081526002602052604081208054839290610c089084906116c8565b90915550506040518181526001600160a01b038316906000907fddf252ad1be2c89b69c2b068fc378daa952ba7f163c4a11628f55a4df523b3ef9060200160405180910390a35050565b6001600160a01b038316610cb65760405162461bcd60e51b815260206004820152602560248201527f45524332303a207472616e736665722066726f6d20746865207a65726f206164604482015264647265737360d81b60648201526084016105bd565b6001600160a01b038216610d185760405162461bcd60e51b815260206004820152602360248201527f45524332303a207472616e7366657220746f20746865207a65726f206164647260448201526265737360e81b60648201526084016105bd565b6001600160a01b03831660009081526002602052604090205481811015610d905760405162461bcd60e51b815260206004820152602660248201527f45524332303a207472616e7366657220616d6f756e7420657863656564732062604482015265616c616e636560d01b60648201526084016105bd565b6001600160a01b03808516600090815260026020526040808220858503905591851681529081208054849290610dc79084906116c8565b92505081905550826001600160a01b0316846001600160a01b03167fddf252ad1be2c89b69c2b068fc378daa952ba7f163c4a11628f55a4df523b3ef84604051610e1391815260200190565b60405180910390a35b50505050565b610e2c82826108a5565b61074657610e44816001600160a01b0316601461102e565b610e4f83602061102e565b604051602001610e609291906116f9565b60408051601f198184030181529082905262461bcd60e51b82526105bd9160040161149f565b610e9082826111ca565b6000828152600160205260409020610604908261124e565b610eb28282611263565b600082815260016020526040902061060490826112c8565b600061064983836112dd565b6001600160a01b038216610f365760405162461bcd60e51b815260206004820152602160248201527f45524332303a206275726e2066726f6d20746865207a65726f206164647265736044820152607360f81b60648201526084016105bd565b6001600160a01b03821660009081526002602052604090205481811015610faa5760405162461bcd60e51b815260206004820152602260248201527f45524332303a206275726e20616d6f756e7420657863656564732062616c616e604482015261636560f01b60648201526084016105bd565b6001600160a01b0383166000908152600260205260408120838303905560048054849290610fd990849061176e565b90915550506040518281526000906001600160a01b038516907fddf252ad1be2c89b69c2b068fc378daa952ba7f163c4a11628f55a4df523b3ef9060200160405180910390a3505050565b6000610452825490565b6060600061103d836002611687565b6110489060026116c8565b67ffffffffffffffff81111561106057611060611785565b6040519080825280601f01601f19166020018201604052801561108a576020820181803683370190505b509050600360fc1b816000815181106110a5576110a561179b565b60200101906001600160f81b031916908160001a905350600f60fb1b816001815181106110d4576110d461179b565b60200101906001600160f81b031916908160001a90535060006110f8846002611687565b6111039060016116c8565b90505b600181111561117b576f181899199a1a9b1b9c1cb0b131b232b360811b85600f16601081106111375761113761179b565b1a60f81b82828151811061114d5761114d61179b565b60200101906001600160f81b031916908160001a90535060049490941c93611174816117b1565b9050611106565b5083156106495760405162461bcd60e51b815260206004820181905260248201527f537472696e67733a20686578206c656e67746820696e73756666696369656e7460448201526064016105bd565b6111d482826108a5565b610746576000828152602081815260408083206001600160a01b03851684529091529020805460ff1916600117905561120a3390565b6001600160a01b0316816001600160a01b0316837f2f8788117e7eff1d82e926ec794901d17c78024a50270940304540a733656f0d60405160405180910390a45050565b6000610649836001600160a01b038416611307565b61126d82826108a5565b15610746576000828152602081815260408083206001600160a01b0385168085529252808320805460ff1916905551339285917ff6391f5c32d9c69d2a47ea670b442974b53935d1edc7fd64eb21e047a839171b9190a45050565b6000610649836001600160a01b038416611356565b60008260000182815481106112f4576112f461179b565b9060005260206000200154905092915050565b600081815260018301602052604081205461134e57508154600181810184556000848152602080822090930184905584548482528286019093526040902091909155610452565b506000610452565b6000818152600183016020526040812054801561143f57600061137a60018361176e565b855490915060009061138e9060019061176e565b90508181146113f35760008660000182815481106113ae576113ae61179b565b90600052602060002001549050808760000184815481106113d1576113d161179b565b6000918252602080832090910192909255918252600188019052604090208390555b8554869080611404576114046117c8565b600190038181906000526020600020016000905590558560010160008681526020019081526020016000206000905560019350505050610452565b6000915050610452565b60006020828403121561145b57600080fd5b81356001600160e01b03198116811461064957600080fd5b60005b8381101561148e578181015183820152602001611476565b83811115610e1c5750506000910152565b60208152600082518060208401526114be816040850160208701611473565b601f01601f19169190910160400192915050565b80356001600160a01b03811681146114e957600080fd5b919050565b6000806040838503121561150157600080fd5b61150a836114d2565b946020939093013593505050565b60008060006060848603121561152d57600080fd5b611536846114d2565b92506020840135915061154b604085016114d2565b90509250925092565b60008060006060848603121561156957600080fd5b611572846114d2565b9250611580602085016114d2565b9150604084013590509250925092565b6000602082840312156115a257600080fd5b5035919050565b600080604083850312156115bc57600080fd5b823591506115cc602084016114d2565b90509250929050565b6000602082840312156115e757600080fd5b610649826114d2565b6000806040838503121561160357600080fd5b50508035926020909101359150565b6000806040838503121561162557600080fd5b61162e836114d2565b91506115cc602084016114d2565b600181811c9082168061165057607f821691505b6020821081141561065057634e487b7160e01b600052602260045260246000fd5b634e487b7160e01b600052601160045260246000fd5b60008160001904831182151516156116a1576116a1611671565b500290565b6000826116c357634e487b7160e01b600052601260045260246000fd5b500490565b600082198211156116db576116db611671565b500190565b6000602082840312156116f257600080fd5b5051919050565b7f416363657373436f6e74726f6c3a206163636f756e7420000000000000000000815260008351611731816017850160208801611473565b7001034b99036b4b9b9b4b733903937b6329607d1b6017918401918201528351611762816028840160208801611473565b01602801949350505050565b60008282101561178057611780611671565b500390565b634e487b7160e01b600052604160045260246000fd5b634e487b7160e01b600052603260045260246000fd5b6000816117c0576117c0611671565b506000190190565b634e487b7160e01b600052603160045260246000fdfea26469706673582212203bffbf508f9fb33aa147f93e63c4698fd78f0b2b8f177839dca01e691f024c8164736f6c634300080b0033608060405234801561001057600080fd5b50600060208190527f4e2753d238f0f4cb8962490717ab551b4c023808c7bc37aed6e8760bfc3a92d580546001600160a01b031990811673d8bd0a1cb028a31aa859a21a3758685a95de462317909155735592ec0cfb4dbc12d3ab100b257153436a1f0fea9091527ff4e9730789baae4355b7b087afa1a57a24c222e690ce50ce909b525e8495925b8054909116732ba49aaa16e6afd2a993473cfb70fa8559b523cf1790556102b1806100c56000396000f3fe608060405234801561001057600080fd5b50600436106100365760003560e01c806341976e091461003b5780634238dc4714610061575b600080fd5b61004e610049366004610141565b6100a2565b6040519081526020015b60405180910390f35b61008a61006f366004610141565b6000602081905290815260409020546001600160a01b031681565b6040516001600160a01b039091168152602001610058565b6001600160a01b03808216600090815260208190526040808220548151633fabe5a360e21b81529151929316918391839163feaf968c9160048082019260a0929091908290030181865afa1580156100fe573d6000803e3d6000fd5b505050506040513d601f19601f820116820180604052508101906101229190610190565b505050915050806402540be40061013991906101f6565b949350505050565b60006020828403121561015357600080fd5b81356001600160a01b038116811461016a57600080fd5b9392505050565b805169ffffffffffffffffffff8116811461018b57600080fd5b919050565b600080600080600060a086880312156101a857600080fd5b6101b186610171565b94506020860151935060408601519250606086015191506101d460808701610171565b90509295509295909350565b634e487b7160e01b600052601160045260246000fd5b60006001600160ff1b038184138284138082168684048611161561021c5761021c6101e0565b600160ff1b600087128281168783058912161561023b5761023b6101e0565b60008712925087820587128484161615610257576102576101e0565b8785058712818416161561026d5761026d6101e0565b50505092909302939250505056fea264697066735822122072c48f6e00c5a52cb863487a9419bc6a66d0f63d77321e88f47fe70ef4f6aac064736f6c634300080b0033","bytecodeSha1":"68ad515de5c3489073f8480628d73a9bf7273329","compiler":{"evm_version":"istanbul","optimizer":{"enabled":true,"runs":200},"version":"0.8.11+commit.d7f03943"},"contractName":"LendingPool","language":"Solidity","natspec":{"kind":"dev","methods":{},"version":1},"opcodes":"PUSH1 0x80 PUSH1 0x40 MSTORE CALLVALUE DUP1 ISZERO PUSH2 0x10 JUMPI PUSH1 0x0 DUP1 REVERT JUMPDEST POP PUSH1 0x4 CALLDATASIZE LT PUSH2 0x121 JUMPI PUSH1 0x0 CALLDATALOAD PUSH1 0xE0 SHR DUP1 PUSH4 0x884EDAD9 GT PUSH2 0xAD JUMPI DUP1 PUSH4 0xD49AB22C GT PUSH2 0x71 JUMPI DUP1 PUSH4 0xD49AB22C EQ PUSH2 0x225 JUMPI DUP1 PUSH4 0xD8DFEB45 EQ PUSH2 0x238 JUMPI DUP1 PUSH4 0xDE259242 EQ PUSH2 0x24B JUMPI DUP1 PUSH4 0xDE30F97D EQ PUSH2 0x25C JUMPI DUP1 PUSH4 0xFC0C546A EQ PUSH2 0x26F JUMPI PUSH1 0x0 DUP1 REVERT JUMPDEST DUP1 PUSH4 0x884EDAD9 EQ PUSH2 0x1D1 JUMPI DUP1 PUSH4 0x9B96EECE EQ PUSH2 0x1E4 JUMPI DUP1 PUSH4 0xA747B93B EQ PUSH2 0x1F7 JUMPI DUP1 PUSH4 0xC4E41B22 EQ PUSH2 0x20A JUMPI DUP1 PUSH4 0xD28682EA EQ PUSH2 0x212 JUMPI PUSH1 0x0 DUP1 REVERT JUMPDEST DUP1 PUSH4 0x46C928FC GT PUSH2 0xF4 JUMPI DUP1 PUSH4 0x46C928FC EQ PUSH2 0x181 JUMPI DUP1 PUSH4 0x4BCC1709 EQ PUSH2 0x194 JUMPI DUP1 PUSH4 0x582B2720 EQ PUSH2 0x1A7 JUMPI DUP1 PUSH4 0x63E36DAC EQ PUSH2 0x1B8 JUMPI DUP1 PUSH4 0x6DB18093 EQ PUSH2 0x1C9 JUMPI PUSH1 0x0 DUP1 REVERT JUMPDEST DUP1 PUSH4 0x57393C0 EQ PUSH2 0x126 JUMPI DUP1 PUSH4 0x16F0115B EQ PUSH2 0x14C JUMPI DUP1 PUSH4 0x1BA2F531 EQ PUSH2 0x177 JUMPI DUP1 PUSH4 0x243D8E05 EQ PUSH2 0x17F JUMPI JUMPDEST PUSH1 0x0 DUP1 REVERT JUMPDEST PUSH2 0x139 PUSH2 0x134 CALLDATASIZE PUSH1 0x4 PUSH2 0xB19 JUMP JUMPDEST PUSH2 0x282 JUMP JUMPDEST PUSH1 0x40 MLOAD SWAP1 DUP2 MSTORE PUSH1 0x20 ADD JUMPDEST PUSH1 0x40 MLOAD DUP1 SWAP2 SUB SWAP1 RETURN JUMPDEST PUSH1 0x0 SLOAD PUSH2 0x15F SWAP1 PUSH1 0x1 PUSH1 0x1 PUSH1 0xA0 SHL SUB AND DUP2 JUMP JUMPDEST PUSH1 0x40 MLOAD PUSH1 0x1 PUSH1 0x1 PUSH1 0xA0 SHL SUB SWAP1 SWAP2 AND DUP2 MSTORE PUSH1 0x20 ADD PUSH2 0x143 JUMP JUMPDEST PUSH2 0x139 PUSH2 0x2F8 JUMP JUMPDEST STOP JUMPDEST PUSH2 0x17F PUSH2 0x18F CALLDATASIZE PUSH1 0x4 PUSH2 0xB3B JUMP JUMPDEST PUSH2 0x36B JUMP JUMPDEST PUSH2 0x17F PUSH2 0x1A2 CALLDATASIZE PUSH1 0x4 PUSH2 0xB81 JUMP JUMPDEST PUSH2 0x56E JUMP JUMPDEST PUSH1 0x3 SLOAD PUSH1 0x1 PUSH1 0x1 PUSH1 0xA0 SHL SUB AND PUSH2 0x15F JUMP JUMPDEST PUSH1 0x1 SLOAD PUSH1 0x1 PUSH1 0x1 PUSH1 0xA0 SHL SUB AND PUSH2 0x15F JUMP JUMPDEST PUSH2 0x139 PUSH2 0x6AC JUMP JUMPDEST PUSH2 0x17F PUSH2 0x1DF CALLDATASIZE PUSH1 0x4 PUSH2 0xBAD JUMP JUMPDEST PUSH2 0x6F6 JUMP JUMPDEST PUSH2 0x139 PUSH2 0x1F2 CALLDATASIZE PUSH1 0x4 PUSH2 0xB19 JUMP JUMPDEST PUSH2 0x9B4 JUMP JUMPDEST PUSH2 0x139 PUSH2 0x205 CALLDATASIZE PUSH1 0x4 PUSH2 0xB19 JUMP JUMPDEST PUSH2 0x9E7 JUMP JUMPDEST PUSH2 0x139 PUSH2 0xA1A JUMP JUMPDEST PUSH2 0x139 PUSH2 0x220 CALLDATASIZE PUSH1 0x4 PUSH2 0xB19 JUMP JUMPDEST PUSH2 0xA64 JUMP JUMPDEST PUSH2 0x139 PUSH2 0x233 CALLDATASIZE PUSH1 0x4 PUSH2 0xB19 JUMP JUMPDEST PUSH2 0xA97 JUMP JUMPDEST PUSH1 0x1 SLOAD PUSH2 0x15F SWAP1 PUSH1 0x1 PUSH1 0x1 PUSH1 0xA0 SHL SUB AND DUP2 JUMP JUMPDEST PUSH1 0x0 SLOAD PUSH1 0x1 PUSH1 0x1 PUSH1 0xA0 SHL SUB AND PUSH2 0x15F JUMP JUMPDEST PUSH2 0x139 PUSH2 0x26A CALLDATASIZE PUSH1 0x4 PUSH2 0xB19 JUMP JUMPDEST PUSH2 0xACA JUMP JUMPDEST PUSH1 0x3 SLOAD PUSH2 0x15F SWAP1 PUSH1 0x1 PUSH1 0x1 PUSH1 0xA0 SHL SUB AND DUP2 JUMP JUMPDEST PUSH1 0x1 SLOAD PUSH1 0x40 MLOAD PUSH4 0xF8B2CB4F PUSH1 0xE0 SHL DUP2 MSTORE PUSH1 0x1 PUSH1 0x1 PUSH1 0xA0 SHL SUB DUP4 DUP2 AND PUSH1 0x4 DUP4 ADD MSTORE PUSH1 0x0 SWAP3 AND SWAP1 PUSH4 0xF8B2CB4F SWAP1 PUSH1 0x24 ADD JUMPDEST PUSH1 0x20 PUSH1 0x40 MLOAD DUP1 DUP4 SUB DUP2 DUP7 GAS STATICCALL ISZERO DUP1 ISZERO PUSH2 0x2CE JUMPI RETURNDATASIZE PUSH1 0x0 DUP1 RETURNDATACOPY RETURNDATASIZE PUSH1 0x0 REVERT JUMPDEST POP POP POP POP PUSH1 0x40 MLOAD RETURNDATASIZE PUSH1 0x1F NOT PUSH1 0x1F DUP3 ADD AND DUP3 ADD DUP1 PUSH1 0x40 MSTORE POP DUP2 ADD SWAP1 PUSH2 0x2F2 SWAP2 SWAP1 PUSH2 0xBD7 JUMP JUMPDEST SWAP3 SWAP2 POP POP JUMP JUMPDEST PUSH1 0x3 SLOAD PUSH1 0x40 DUP1 MLOAD PUSH4 0x8A02775B PUSH1 0xE0 SHL DUP2 MSTORE SWAP1 MLOAD PUSH1 0x0 SWAP3 PUSH1 0x1 PUSH1 0x1 PUSH1 0xA0 SHL SUB AND SWAP2 PUSH4 0x8A02775B SWAP2 PUSH1 0x4 DUP1 DUP4 ADD SWAP3 PUSH1 0x20 SWAP3 SWAP2 SWAP1 DUP3 SWAP1 SUB ADD DUP2 DUP7 GAS STATICCALL ISZERO DUP1 ISZERO PUSH2 0x342 JUMPI RETURNDATASIZE PUSH1 0x0 DUP1 RETURNDATACOPY RETURNDATASIZE PUSH1 0x0 REVERT JUMPDEST POP POP POP POP PUSH1 0x40 MLOAD RETURNDATASIZE PUSH1 0x1F NOT PUSH1 0x1F DUP3 ADD AND DUP3 ADD DUP1 PUSH1 0x40 MSTORE POP DUP2 ADD SWAP1 PUSH2 0x366 SWAP2 SWAP1 PUSH2 0xBD7 JUMP JUMPDEST SWAP1 POP SWAP1 JUMP JUMPDEST PUSH1 0x1 PUSH1 0x0 SWAP1 SLOAD SWAP1 PUSH2 0x100 EXP SWAP1 DIV PUSH1 0x1 PUSH1 0x1 PUSH1 0xA0 SHL SUB AND PUSH1 0x1 PUSH1 0x1 PUSH1 0xA0 SHL SUB AND PUSH4 0x9404954 PUSH1 0x40 MLOAD DUP2 PUSH4 0xFFFFFFFF AND PUSH1 0xE0 SHL DUP2 MSTORE PUSH1 0x4 ADD PUSH1 0x20 PUSH1 0x40 MLOAD DUP1 DUP4 SUB DUP2 DUP7 GAS STATICCALL ISZERO DUP1 ISZERO PUSH2 0x3BE JUMPI RETURNDATASIZE PUSH1 0x0 DUP1 RETURNDATACOPY RETURNDATASIZE PUSH1 0x0 REVERT JUMPDEST POP POP POP POP PUSH1 0x40 MLOAD RETURNDATASIZE PUSH1 0x1F NOT PUSH1 0x1F DUP3 ADD AND DUP3 ADD DUP1 PUSH1 0x40 MSTORE POP DUP2 ADD SWAP1 PUSH2 0x3E2 SWAP2 SWAP1 PUSH2 0xBD7 JUMP JUMPDEST PUSH2 0x3EC SWAP1 DUP6 PUSH2 0xBF0 JUMP JUMPDEST DUP3 LT ISZERO PUSH2 0x438 JUMPI PUSH1 0x40 MLOAD PUSH3 0x461BCD PUSH1 0xE5 SHL DUP2 MSTORE PUSH1 0x20 PUSH1 0x4 DUP3 ADD MSTORE PUSH1 0x15 PUSH1 0x24 DUP3 ADD MSTORE PUSH21 0x1B9BDD08195B9BDD59DA0818DBDB1B185D195C985B PUSH1 0x5A SHL PUSH1 0x44 DUP3 ADD MSTORE PUSH1 0x64 ADD JUMPDEST PUSH1 0x40 MLOAD DUP1 SWAP2 SUB SWAP1 REVERT JUMPDEST PUSH1 0x1 SLOAD PUSH1 0x40 MLOAD PUSH4 0xF970C3B7 PUSH1 0xE0 SHL DUP2 MSTORE CALLER PUSH1 0x4 DUP3 ADD MSTORE PUSH1 0x1 PUSH1 0x1 PUSH1 0xA0 SHL SUB DUP4 DUP2 AND PUSH1 0x24 DUP4 ADD MSTORE PUSH1 0x44 DUP3 ADD DUP6 SWAP1 MSTORE SWAP1 SWAP2 AND SWAP1 PUSH4 0xF970C3B7 SWAP1 PUSH1 0x64 ADD PUSH1 0x0 PUSH1 0x40 MLOAD DUP1 DUP4 SUB DUP2 PUSH1 0x0 DUP8 DUP1 EXTCODESIZE ISZERO DUP1 ISZERO PUSH2 0x48C JUMPI PUSH1 0x0 DUP1 REVERT JUMPDEST POP GAS CALL ISZERO DUP1 ISZERO PUSH2 0x4A0 JUMPI RETURNDATASIZE PUSH1 0x0 DUP1 RETURNDATACOPY RETURNDATASIZE PUSH1 0x0 REVERT JUMPDEST POP POP PUSH1 0x0 SLOAD PUSH1 0x40 MLOAD PUSH4 0xFC4F78B9 PUSH1 0xE0 SHL DUP2 MSTORE CALLER PUSH1 0x4 DUP3 ADD MSTORE PUSH1 0x1 PUSH1 0x1 PUSH1 0xA0 SHL SUB DUP8 DUP2 AND PUSH1 0x24 DUP4 ADD MSTORE PUSH1 0x44 DUP3 ADD DUP10 SWAP1 MSTORE SWAP1 SWAP2 AND SWAP3 POP PUSH4 0xFC4F78B9 SWAP2 POP PUSH1 0x64 ADD PUSH1 0x0 PUSH1 0x40 MLOAD DUP1 DUP4 SUB DUP2 PUSH1 0x0 DUP8 DUP1 EXTCODESIZE ISZERO DUP1 ISZERO PUSH2 0x4F8 JUMPI PUSH1 0x0 DUP1 REVERT JUMPDEST POP GAS CALL ISZERO DUP1 ISZERO PUSH2 0x50C JUMPI RETURNDATASIZE PUSH1 0x0 DUP1 RETURNDATACOPY RETURNDATASIZE PUSH1 0x0 REVERT JUMPDEST POP POP PUSH1 0x40 DUP1 MLOAD CALLER DUP2 MSTORE PUSH1 0x20 DUP2 ADD DUP9 SWAP1 MSTORE PUSH1 0x1 PUSH1 0x1 PUSH1 0xA0 SHL SUB DUP8 DUP2 AND DUP3 DUP5 ADD MSTORE PUSH1 0x60 DUP3 ADD DUP8 SWAP1 MSTORE DUP6 AND PUSH1 0x80 DUP3 ADD MSTORE SWAP1 MLOAD PUSH32 0xEA8631408D071CDC565DFA37DCB32450C4C85EE9A4142ED14DF1387D7C2A4327 SWAP4 POP SWAP1 DUP2 SWAP1 SUB PUSH1 0xA0 ADD SWAP2 POP LOG1 POP POP POP POP JUMP JUMPDEST PUSH1 0x0 DUP3 GT PUSH2 0x5BE JUMPI PUSH1 0x40 MLOAD PUSH3 0x461BCD PUSH1 0xE5 SHL DUP2 MSTORE PUSH1 0x20 PUSH1 0x4 DUP3 ADD MSTORE PUSH1 0x18 PUSH1 0x24 DUP3 ADD MSTORE PUSH32 0x6465706F736974206D75737420626520706F7369746976650000000000000000 PUSH1 0x44 DUP3 ADD MSTORE PUSH1 0x64 ADD PUSH2 0x42F JUMP JUMPDEST PUSH1 0x3 SLOAD PUSH1 0x40 MLOAD PUSH4 0xD4D1513 PUSH1 0xE0 SHL DUP2 MSTORE CALLER PUSH1 0x4 DUP3 ADD MSTORE PUSH1 0x24 DUP2 ADD DUP5 SWAP1 MSTORE PUSH1 0x1 PUSH1 0x1 PUSH1 0xA0 SHL SUB DUP4 DUP2 AND PUSH1 0x44 DUP4 ADD MSTORE SWAP1 SWAP2 AND SWAP1 PUSH4 0xD4D1513 SWAP1 PUSH1 0x64 ADD PUSH1 0x20 PUSH1 0x40 MLOAD DUP1 DUP4 SUB DUP2 PUSH1 0x0 DUP8 GAS CALL ISZERO DUP1 ISZERO PUSH2 0x617 JUMPI RETURNDATASIZE PUSH1 0x0 DUP1 RETURNDATACOPY RETURNDATASIZE PUSH1 0x0 REVERT JUMPDEST POP POP POP POP PUSH1 0x40 MLOAD RETURNDATASIZE PUSH1 0x1F NOT PUSH1 0x1F DUP3 ADD AND DUP3 ADD DUP1 PUSH1 0x40 MSTORE POP DUP2 ADD SWAP1 PUSH2 0x63B SWAP2 SWAP1 PUSH2 0xBD7 JUMP JUMPDEST POP PUSH1 0x0 SLOAD PUSH1 0x40 MLOAD PUSH4 0x1740ECAF PUSH1 0xE1 SHL DUP2 MSTORE CALLER PUSH1 0x4 DUP3 ADD MSTORE PUSH1 0x1 PUSH1 0x1 PUSH1 0xA0 SHL SUB DUP4 DUP2 AND PUSH1 0x24 DUP4 ADD MSTORE PUSH1 0x44 DUP3 ADD DUP6 SWAP1 MSTORE SWAP1 SWAP2 AND SWAP1 PUSH4 0x2E81D95E SWAP1 PUSH1 0x64 ADD PUSH1 0x0 PUSH1 0x40 MLOAD DUP1 DUP4 SUB DUP2 PUSH1 0x0 DUP8 DUP1 EXTCODESIZE ISZERO DUP1 ISZERO PUSH2 0x690 JUMPI PUSH1 0x0 DUP1 REVERT JUMPDEST POP GAS CALL ISZERO DUP1 ISZERO PUSH2 0x6A4 JUMPI RETURNDATASIZE PUSH1 0x0 DUP1 RETURNDATACOPY RETURNDATASIZE PUSH1 0x0 REVERT JUMPDEST POP POP POP POP POP POP JUMP JUMPDEST PUSH1 0x3 SLOAD PUSH1 0x40 DUP1 MLOAD PUSH4 0xCF55F37 PUSH1 0xE2 SHL DUP2 MSTORE SWAP1 MLOAD PUSH1 0x0 SWAP3 PUSH1 0x1 PUSH1 0x1 PUSH1 0xA0 SHL SUB AND SWAP2 PUSH4 0x33D57CDC SWAP2 PUSH1 0x4 DUP1 DUP4 ADD SWAP3 PUSH1 0x20 SWAP3 SWAP2 SWAP1 DUP3 SWAP1 SUB ADD DUP2 DUP7 GAS STATICCALL ISZERO DUP1 ISZERO PUSH2 0x342 JUMPI RETURNDATASIZE PUSH1 0x0 DUP1 RETURNDATACOPY RETURNDATASIZE PUSH1 0x0 REVERT JUMPDEST PUSH1 0x0 SLOAD PUSH1 0x40 MLOAD PUSH4 0xFCE3E8E7 PUSH1 0xE0 SHL DUP2 MSTORE PUSH1 0x1 PUSH1 0x1 PUSH1 0xA0 SHL SUB DUP5 DUP2 AND PUSH1 0x4 DUP4 ADD MSTORE SWAP1 SWAP2 AND SWAP1 PUSH4 0xFCE3E8E7 SWAP1 PUSH1 0x24 ADD PUSH1 0x20 PUSH1 0x40 MLOAD DUP1 DUP4 SUB DUP2 DUP7 GAS STATICCALL ISZERO DUP1 ISZERO PUSH2 0x740 JUMPI RETURNDATASIZE PUSH1 0x0 DUP1 RETURNDATACOPY RETURNDATASIZE PUSH1 0x0 REVERT JUMPDEST POP POP POP POP PUSH1 0x40 MLOAD RETURNDATASIZE PUSH1 0x1F NOT PUSH1 0x1F DUP3 ADD AND DUP3 ADD DUP1 PUSH1 0x40 MSTORE POP DUP2 ADD SWAP1 PUSH2 0x764 SWAP2 SWAP1 PUSH2 0xBD7 JUMP JUMPDEST DUP2 GT ISZERO PUSH2 0x7CE JUMPI PUSH1 0x40 MLOAD PUSH3 0x461BCD PUSH1 0xE5 SHL DUP2 MSTORE PUSH1 0x20 PUSH1 0x4 DUP3 ADD MSTORE PUSH1 0x32 PUSH1 0x24 DUP3 ADD MSTORE PUSH32 0x557365722063616E6E6F742072656465656D206D6F7265207468616E20746865 PUSH1 0x44 DUP3 ADD MSTORE PUSH18 0x20617661696C61626C652062616C616E6365 PUSH1 0x70 SHL PUSH1 0x64 DUP3 ADD MSTORE PUSH1 0x84 ADD PUSH2 0x42F JUMP JUMPDEST PUSH1 0x0 DUP1 SLOAD PUSH1 0x3 SLOAD PUSH1 0x40 MLOAD PUSH4 0x70A08231 PUSH1 0xE0 SHL DUP2 MSTORE CALLER PUSH1 0x4 DUP3 ADD DUP2 SWAP1 MSTORE PUSH1 0x1 PUSH1 0x1 PUSH1 0xA0 SHL SUB SWAP4 DUP5 AND SWAP4 PUSH4 0x272A8E0 SWAP4 SWAP2 SWAP3 DUP9 SWAP3 DUP9 SWAP3 AND SWAP1 PUSH4 0x70A08231 SWAP1 PUSH1 0x24 ADD PUSH1 0x20 PUSH1 0x40 MLOAD DUP1 DUP4 SUB DUP2 DUP7 GAS STATICCALL ISZERO DUP1 ISZERO PUSH2 0x82A JUMPI RETURNDATASIZE PUSH1 0x0 DUP1 RETURNDATACOPY RETURNDATASIZE PUSH1 0x0 REVERT JUMPDEST POP POP POP POP PUSH1 0x40 MLOAD RETURNDATASIZE PUSH1 0x1F NOT PUSH1 0x1F DUP3 ADD AND DUP3 ADD DUP1 PUSH1 0x40 MSTORE POP DUP2 ADD SWAP1 PUSH2 0x84E SWAP2 SWAP1 PUSH2 0xBD7 JUMP JUMPDEST PUSH1 0x3 PUSH1 0x0 SWAP1 SLOAD SWAP1 PUSH2 0x100 EXP SWAP1 DIV PUSH1 0x1 PUSH1 0x1 PUSH1 0xA0 SHL SUB AND PUSH1 0x1 PUSH1 0x1 PUSH1 0xA0 SHL SUB AND PUSH4 0x33D57CDC PUSH1 0x40 MLOAD DUP2 PUSH4 0xFFFFFFFF AND PUSH1 0xE0 SHL DUP2 MSTORE PUSH1 0x4 ADD PUSH1 0x20 PUSH1 0x40 MLOAD DUP1 DUP4 SUB DUP2 DUP7 GAS STATICCALL ISZERO DUP1 ISZERO PUSH2 0x8A1 JUMPI RETURNDATASIZE PUSH1 0x0 DUP1 RETURNDATACOPY RETURNDATASIZE PUSH1 0x0 REVERT JUMPDEST POP POP POP POP PUSH1 0x40 MLOAD RETURNDATASIZE PUSH1 0x1F NOT PUSH1 0x1F DUP3 ADD AND DUP3 ADD DUP1 PUSH1 0x40 MSTORE POP DUP2 ADD SWAP1 PUSH2 0x8C5 SWAP2 SWAP1 PUSH2 0xBD7 JUMP JUMPDEST PUSH1 0x40 MLOAD PUSH1 0x1 PUSH1 0x1 PUSH1 0xE0 SHL SUB NOT PUSH1 0xE0 DUP9 SWAP1 SHL AND DUP2 MSTORE PUSH1 0x1 PUSH1 0x1 PUSH1 0xA0 SHL SUB SWAP6 DUP7 AND PUSH1 0x4 DUP3 ADD MSTORE SWAP5 SWAP1 SWAP4 AND PUSH1 0x24 DUP6 ADD MSTORE PUSH1 0x44 DUP5 ADD SWAP2 SWAP1 SWAP2 MSTORE PUSH1 0x64 DUP4 ADD MSTORE PUSH1 0x84 DUP3 ADD MSTORE PUSH1 0xA4 ADD PUSH1 0x20 PUSH1 0x40 MLOAD DUP1 DUP4 SUB DUP2 PUSH1 0x0 DUP8 GAS CALL ISZERO DUP1 ISZERO PUSH2 0x926 JUMPI RETURNDATASIZE PUSH1 0x0 DUP1 RETURNDATACOPY RETURNDATASIZE PUSH1 0x0 REVERT JUMPDEST POP POP POP POP PUSH1 0x40 MLOAD RETURNDATASIZE PUSH1 0x1F NOT PUSH1 0x1F DUP3 ADD AND DUP3 ADD DUP1 PUSH1 0x40 MSTORE POP DUP2 ADD SWAP1 PUSH2 0x94A SWAP2 SWAP1 PUSH2 0xBD7 JUMP JUMPDEST PUSH1 0x3 SLOAD PUSH1 0x40 MLOAD PUSH4 0x2770A7EB PUSH1 0xE2 SHL DUP2 MSTORE CALLER PUSH1 0x4 DUP3 ADD MSTORE PUSH1 0x24 DUP2 ADD DUP4 SWAP1 MSTORE SWAP2 SWAP3 POP PUSH1 0x1 PUSH1 0x1 PUSH1 0xA0 SHL SUB AND SWAP1 PUSH4 0x9DC29FAC SWAP1 PUSH1 0x44 ADD PUSH1 0x0 PUSH1 0x40 MLOAD DUP1 DUP4 SUB DUP2 PUSH1 0x0 DUP8 DUP1 EXTCODESIZE ISZERO DUP1 ISZERO PUSH2 0x997 JUMPI PUSH1 0x0 DUP1 REVERT JUMPDEST POP GAS CALL ISZERO DUP1 ISZERO PUSH2 0x9AB JUMPI RETURNDATASIZE PUSH1 0x0 DUP1 RETURNDATACOPY RETURNDATASIZE PUSH1 0x0 REVERT JUMPDEST POP POP POP POP POP POP POP JUMP JUMPDEST PUSH1 0x3 SLOAD PUSH1 0x40 MLOAD PUSH4 0x70A08231 PUSH1 0xE0 SHL DUP2 MSTORE PUSH1 0x1 PUSH1 0x1 PUSH1 0xA0 SHL SUB DUP4 DUP2 AND PUSH1 0x4 DUP4 ADD MSTORE PUSH1 0x0 SWAP3 AND SWAP1 PUSH4 0x70A08231 SWAP1 PUSH1 0x24 ADD PUSH2 0x2B1 JUMP JUMPDEST PUSH1 0x0 DUP1 SLOAD PUSH1 0x40 MLOAD PUSH4 0xFCE3E8E7 PUSH1 0xE0 SHL DUP2 MSTORE PUSH1 0x1 PUSH1 0x1 PUSH1 0xA0 SHL SUB DUP5 DUP2 AND PUSH1 0x4 DUP4 ADD MSTORE SWAP1 SWAP2 AND SWAP1 PUSH4 0xFCE3E8E7 SWAP1 PUSH1 0x24 ADD PUSH2 0x2B1 JUMP JUMPDEST PUSH1 0x3 SLOAD PUSH1 0x40 DUP1 MLOAD PUSH4 0x18160DDD PUSH1 0xE0 SHL DUP2 MSTORE SWAP1 MLOAD PUSH1 0x0 SWAP3 PUSH1 0x1 PUSH1 0x1 PUSH1 0xA0 SHL SUB AND SWAP2 PUSH4 0x18160DDD SWAP2 PUSH1 0x4 DUP1 DUP4 ADD SWAP3 PUSH1 0x20 SWAP3 SWAP2 SWAP1 DUP3 SWAP1 SUB ADD DUP2 DUP7 GAS STATICCALL ISZERO DUP1 ISZERO PUSH2 0x342 JUMPI RETURNDATASIZE PUSH1 0x0 DUP1 RETURNDATACOPY RETURNDATASIZE PUSH1 0x0 REVERT JUMPDEST PUSH1 0x0 DUP1 SLOAD PUSH1 0x40 MLOAD PUSH4 0xF8B2CB4F PUSH1 0xE0 SHL DUP2 MSTORE PUSH1 0x1 PUSH1 0x1 PUSH1 0xA0 SHL SUB DUP5 DUP2 AND PUSH1 0x4 DUP4 ADD MSTORE SWAP1 SWAP2 AND SWAP1 PUSH4 0xF8B2CB4F SWAP1 PUSH1 0x24 ADD PUSH2 0x2B1 JUMP JUMPDEST PUSH1 0x1 SLOAD PUSH1 0x40 MLOAD PUSH4 0x28D1F893 PUSH1 0xE2 SHL DUP2 MSTORE PUSH1 0x1 PUSH1 0x1 PUSH1 0xA0 SHL SUB DUP4 DUP2 AND PUSH1 0x4 DUP4 ADD MSTORE PUSH1 0x0 SWAP3 AND SWAP1 PUSH4 0xA347E24C SWAP1 PUSH1 0x24 ADD PUSH2 0x2B1 JUMP JUMPDEST PUSH1 0x0 DUP1 SLOAD PUSH1 0x40 MLOAD PUSH4 0xDE30F97D PUSH1 0xE0 SHL DUP2 MSTORE PUSH1 0x1 PUSH1 0x1 PUSH1 0xA0 SHL SUB DUP5 DUP2 AND PUSH1 0x4 DUP4 ADD MSTORE SWAP1 SWAP2 AND SWAP1 PUSH4 0xDE30F97D SWAP1 PUSH1 0x24 ADD PUSH2 0x2B1 JUMP JUMPDEST DUP1 CALLDATALOAD PUSH1 0x1 PUSH1 0x1 PUSH1 0xA0 SHL SUB DUP2 AND DUP2 EQ PUSH2 0xB14 JUMPI PUSH1 0x0 DUP1 REVERT JUMPDEST SWAP2 SWAP1 POP JUMP JUMPDEST PUSH1 0x0 PUSH1 0x20 DUP3 DUP5 SUB SLT ISZERO PUSH2 0xB2B JUMPI PUSH1 0x0 DUP1 REVERT JUMPDEST PUSH2 0xB34 DUP3 PUSH2 0xAFD JUMP JUMPDEST SWAP4 SWAP3 POP POP POP JUMP JUMPDEST PUSH1 0x0 DUP1 PUSH1 0x0 DUP1 PUSH1 0x80 DUP6 DUP8 SUB SLT ISZERO PUSH2 0xB51 JUMPI PUSH1 0x0 DUP1 REVERT JUMPDEST DUP5 CALLDATALOAD SWAP4 POP PUSH2 0xB61 PUSH1 0x20 DUP7 ADD PUSH2 0xAFD JUMP JUMPDEST SWAP3 POP PUSH1 0x40 DUP6 ADD CALLDATALOAD SWAP2 POP PUSH2 0xB76 PUSH1 0x60 DUP7 ADD PUSH2 0xAFD JUMP JUMPDEST SWAP1 POP SWAP3 SWAP6 SWAP2 SWAP5 POP SWAP3 POP JUMP JUMPDEST PUSH1 0x0 DUP1 PUSH1 0x40 DUP4 DUP6 SUB SLT ISZERO PUSH2 0xB94 JUMPI PUSH1 0x0 DUP1 REVERT JUMPDEST DUP3 CALLDATALOAD SWAP2 POP PUSH2 0xBA4 PUSH1 0x20 DUP5 ADD PUSH2 0xAFD JUMP JUMPDEST SWAP1 POP SWAP3 POP SWAP3 SWAP1 POP JUMP JUMPDEST PUSH1 0x0 DUP1 PUSH1 0x40 DUP4 DUP6 SUB SLT ISZERO PUSH2 0xBC0 JUMPI PUSH1 0x0 DUP1 REVERT JUMPDEST PUSH2 0xBC9 DUP4 PUSH2 0xAFD JUMP JUMPDEST SWAP5 PUSH1 0x20 SWAP4 SWAP1 SWAP4 ADD CALLDATALOAD SWAP4 POP POP POP JUMP JUMPDEST PUSH1 0x0 PUSH1 0x20 DUP3 DUP5 SUB SLT ISZERO PUSH2 0xBE9 JUMPI PUSH1 0x0 DUP1 REVERT JUMPDEST POP MLOAD SWAP2 SWAP1 POP JUMP JUMPDEST PUSH1 0x0 DUP2 PUSH1 0x0 NOT DIV DUP4 GT DUP3 ISZERO ISZERO AND ISZERO PUSH2 0xC18 JUMPI PUSH4 0x4E487B71 PUSH1 0xE0 SHL PUSH1 0x0 MSTORE PUSH1 0x11 PUSH1 0x4 MSTORE PUSH1 0x24 PUSH1 0x0 REVERT JUMPDEST POP MUL SWAP1 JUMP INVALID LOG2 PUSH5 0x6970667358 0x22 SLT KECCAK256 0x4F SWAP14 PUSH8 0xDE407C4180C029E1 0xD6 SELFDESTRUCT SHL CALLER 0xB5 PUSH24 0xA2A36D75F10BB3A73A844B57A7AC6A64736F6C634300080B STOP CALLER ","sha1":"6fd10e8313f25ee5e049fa4c554d4f3c15b6aed1","source":"// SPDX-License-Identifier: MIT\n\npragma solidity ^0.8.0;\n\n//import \"./ierc20token.sol\";\n//import \"@openzeppelin/contracts/utils/math/SafeMath.sol\";\nimport \"@openzeppelin/contracts/token/ERC20/IERC20.sol\";\nimport \"./2_Pool.sol\";\nimport \"./3_Collateral.sol\";\nimport \"./LVRToken.sol\";\n\n// derive this from OpenZeppelin's Ownable contract?\ncontract LendingPool {\n    //    using SafeMath for uint256;\n\n    event depositEvent(address _user, uint256 _quantity, address _asset);\n    event borrowEvent(\n        address _user,\n        uint256 _borrowed,\n        address _borrowedAsset,\n        uint256 _collateral,\n        address _collateralAsset\n    );\n\n    // not sure the public keyword should be used here\n    Pool public pool;\n    Collateral public collateral;\n    address owner;\n    LVRToken public token;\n\n    constructor() {\n        pool = new Pool();\n        collateral = new Collateral();\n        token = new LVRToken(\"TestToken\", \"TST\", address(pool));\n        //token = LVRToken(tokenAddress);\n\n        owner = msg.sender;\n    }\n\n    modifier onlyOwner() {\n        require(msg.sender == owner);\n        _;\n    }\n\n    function Deposit(uint256 _quantity, address _asset) public {\n        // uint256 _borrowNow? why not bool?\n        require(_quantity > 0, \"deposit must be positive\");\n        token.mint(msg.sender, _quantity, _asset);\n        pool.depositTransfer(msg.sender, _asset, _quantity);\n        // now need to mint LVR\n\n        //token.mint(msg.sender, _quantity, _asset);\n\n        // // borrowNow should be amount borrowed\n        // if (_borrowNow > 0) {\n        //     uint256 usedCollateral = _quantity - collateral.collReq()*_borrowNow;\n        //     Borrow(_borrowNow, address)\n        // }\n\n        //emit depositEvent(msg.sender, _quantity, _asset);\n    }\n\n    function Withdraw(address _desiredAsset, uint256 amountToRemove) public {\n        //\n        //\n        //how to make sure contract sends to people- ie approve and stuff\n        //\n        //enough liquid to send\n        require(\n            amountToRemove <= pool.getLiquidQuantity(_desiredAsset),\n            \"User cannot redeem more than the available balance\"\n        );\n\n        // this is amount of LVR but token is a USD thing\n        // so burning amountToRemove will not be correct amount of tokens\n        // maybe have withdraw trasnfer return number of tokens? or find a differnt way to\n        // but pool value also did not change correctly\n\n        uint256 burnNumber = pool.withdrawTransfer(\n            msg.sender,\n            _desiredAsset,\n            amountToRemove,\n            token.balanceOf(msg.sender),\n            token.tokenDollarValue()\n        );\n        token.burn(msg.sender, burnNumber);\n\n        //transfer to user and pull from pool\n        //maybe they need to deposit LVR instead, cuz idt burn will work\n    }\n\n    /* withdraw funtcion: \n    check to see if they have lever, \n    specify whihc asset to withdraw, \n    burn lvr,\n    pull from pool,\n    send to msg.sender,\n    */\n\n    /* repay funtcion: \n    stuff\n    pay interest- how to track that\n    repay will either call withdraw or deposit\n    */\n\n    //this iwll have to also transfer LVR if they wont to borrow against that\n    // what about choosing collateral to borrrow against.\n    function Borrow(\n        uint256 _borrowQuantity,\n        address _asset,\n        uint256 _collateralQuantity,\n        address _collateral\n    ) public {\n        require(\n            _collateralQuantity >= _borrowQuantity * collateral.collReq(),\n            \"not enough collateral\"\n        );\n        collateral.depositCollateral(\n            msg.sender,\n            _collateral,\n            _collateralQuantity\n        );\n        pool.borrowTransfer(msg.sender, _asset, _borrowQuantity);\n\n        emit borrowEvent(\n            msg.sender,\n            _borrowQuantity,\n            _asset,\n            _collateralQuantity,\n            _collateral\n        );\n    }\n\n    function offerCollateralAssets() public {\n        // just needs to check with the pool to see what assets we can offer\n        //users to use as collateral - called when borrowing (if they deposit\n        //LVR and want to use something else)\n        // to do this we probably need to come up with some reserve rules, etc\n    }\n\n    function getLiquidity(address _token) public view returns (uint256) {\n        return pool.getLiquidQuantity(_token);\n    }\n\n    function getPoolBalance(address _token) public view returns (uint256) {\n        return pool.getBalance(_token);\n    }\n\n    function getLiquidPct(address _token) public view returns (uint256) {\n        return pool.getLiquidPct(_token);\n    }\n\n    function getLockedCollateral(address _token) public view returns (uint256) {\n        return collateral.getCollateralQuantity(_token);\n    }\n\n    function getCollBalance(address _token) public view returns (uint256) {\n        return collateral.getBalance(_token);\n    }\n\n    function getPoolAddr() public view returns (address) {\n        return address(pool);\n    }\n\n    function getCollAddr() public view returns (address) {\n        return address(collateral);\n    }\n\n    function getTokenAddr() public view returns (address) {\n        return address(token);\n    }\n\n    function getTokenDollarValue() public view returns (uint256) {\n        return token.tokenDollarValue();\n    }\n\n    function getPoolValue() public view returns (uint256) {\n        return token.totalPoolValue();\n    }\n\n    function getTotalSupply() public view returns (uint256) {\n        return token.totalSupply();\n    }\n\n    function getBalanceOf(address user) public view returns (uint256) {\n        return token.balanceOf(user);\n    }\n}\n","sourcePath":"contracts/1_LendingPool.sol","type":"contract","deployment":{"address":"0x4cF562c44103B3E4eBd1909D5E48e25c436DD80e","chainid":"4","blockHeight":10084715}}