{"bytecode":"60806040523480156200001157600080fd5b506040516200002090620001b8565b604051809103906000f0801580156200003d573d6000803e3d6000fd5b50600180546001600160a01b0319166001600160a01b039290921691821790556040516200006b90620001c6565b6060808252600990820152682a32b9ba2a37b5b2b760b91b608082015260a060208201819052600390820152621514d560ea1b60c08201526001600160a01b03909116604082015260e001604051809103906000f080158015620000d3573d6000803e3d6000fd5b50600480546001600160a01b0319166001600160a01b039283169081179091556001546040519216916200010790620001d4565b6001600160a01b03928316815291166020820152604001604051809103906000f0801580156200013b573d6000803e3d6000fd5b50600280546001600160a01b0319166001600160a01b03929092169190911790556040516200016a90620001e2565b604051809103906000f08015801562000187573d6000803e3d6000fd5b50600080546001600160a01b03929092166001600160a01b03199283161790556003805490911633179055620001f0565b610e1e806200179383390190565b6120f080620025b183390190565b610e8880620046a183390190565b610376806200552983390190565b61159380620002006000396000f3fe608060405234801561001057600080fd5b50600436106101a95760003560e01c806397904e42116100f9578063d28682ea11610097578063de25924211610071578063de25924214610396578063de30f97d146103a7578063f2df757b146103ba578063fc0c546a146103cd57600080fd5b8063d28682ea1461035d578063d49ab22c14610370578063d8dfeb451461038357600080fd5b8063a747b93b116100d3578063a747b93b146102f6578063a78e404614610309578063b9e037e614610342578063c4e41b221461035557600080fd5b806397904e42146102bd5780639b96eece146102d0578063a55e8668146102e357600080fd5b8063582b2720116101665780636aaa434e116101405780636aaa434e146102645780636db180931461028f578063884edad9146102975780639311ca69146102aa57600080fd5b8063582b27201461022f5780635c16de4f1461024057806363e36dac1461025357600080fd5b8063057393c0146101ae57806316f0115b146101d45780631ba2f531146101ff578063243d8e051461020757806346c928fc146102095780634bcc17091461021c575b600080fd5b6101c16101bc366004611360565b6103e0565b6040519081526020015b60405180910390f35b6001546101e7906001600160a01b031681565b6040516001600160a01b0390911681526020016101cb565b6101c1610456565b005b61020761021736600461137b565b6104d4565b61020761022a3660046113c1565b6108be565b6004546001600160a01b03166101e7565b61020761024e3660046113ed565b6109f2565b6002546001600160a01b03166101e7565b6101c1610272366004611417565b600760209081526000928352604080842090915290825290205481565b6101c1610b63565b6102076102a53660046113ed565b610bb8565b6000546101e7906001600160a01b031681565b6101c16102cb366004611360565b610fbc565b6101c16102de366004611360565b610fef565b6101c16102f1366004611417565b611027565b6101c1610304366004611360565b6110a5565b6101c1610317366004611417565b6001600160a01b03918216600090815260076020908152604080832093909416825291909152205490565b610207610350366004611441565b505050565b6101c16110d8565b6101c161036b366004611360565b61112d565b6101c161037e366004611360565b611160565b6002546101e7906001600160a01b031681565b6001546001600160a01b03166101e7565b6101c16103b5366004611360565b611193565b6101c16103c8366004611360565b6111c6565b6004546101e7906001600160a01b031681565b60025460405163f8b2cb4f60e01b81526001600160a01b038381166004830152600092169063f8b2cb4f906024015b602060405180830381865afa15801561042c573d6000803e3d6000fd5b505050506040513d601f19601f820116820180604052508101906104509190611486565b92915050565b6000600460009054906101000a90046001600160a01b03166001600160a01b0316638a02775b6040518163ffffffff1660e01b8152600401602060405180830381865afa1580156104ab573d6000803e3d6000fd5b505050506040513d601f19601f820116820180604052508101906104cf9190611486565b905090565b600254604051631d512a9160e21b81523360048201526000916001600160a01b031690637544aa4490602401602060405180830381865afa15801561051d573d6000803e3d6000fd5b505050506040513d601f19601f820116820180604052508101906105419190611486565b6000546040516341976e0960e01b81526001600160a01b038581166004830152869216906341976e0990602401602060405180830381865afa15801561058b573d6000803e3d6000fd5b505050506040513d601f19601f820116820180604052508101906105af9190611486565b6105b991906114b5565b6105c391906114d4565b600080546040516341976e0960e01b81526001600160a01b038881166004830152939450919288929116906341976e0990602401602060405180830381865afa158015610614573d6000803e3d6000fd5b505050506040513d601f19601f820116820180604052508101906106389190611486565b61064291906114b5565b9050600260009054906101000a90046001600160a01b03166001600160a01b031663094049546040518163ffffffff1660e01b8152600401602060405180830381865afa158015610697573d6000803e3d6000fd5b505050506040513d601f19601f820116820180604052508101906106bb9190611486565b6106c590826114b5565b8210156107115760405162461bcd60e51b81526020600482015260156024820152741b9bdd08195b9bdd59da0818dbdb1b185d195c985b605a1b60448201526064015b60405180910390fd5b60025460405163f970c3b760e01b81523360048201526001600160a01b038581166024830152604482018790529091169063f970c3b790606401600060405180830381600087803b15801561076557600080fd5b505af1158015610779573d6000803e3d6000fd5b505060015460405163fc4f78b960e01b81523360048201526001600160a01b038981166024830152604482018b9052909116925063fc4f78b99150606401600060405180830381600087803b1580156107d157600080fd5b505af11580156107e5573d6000803e3d6000fd5b505060408051338152602081018a90526001600160a01b0389811682840152606082018990528716608082015290517fea8631408d071cdc565dfa37dcb32450c4c85ee9a4142ed14df1387d7c2a432793509081900360a0019150a13360009081526007602090815260408083206001600160a01b0389168452909152812080548892906108749084906114d4565b90915550503360009081526006602090815260408220805460018101825590835291200180546001600160a01b0319166001600160a01b0396909616959095179094555050505050565b6000821161090e5760405162461bcd60e51b815260206004820152601860248201527f6465706f736974206d75737420626520706f73697469766500000000000000006044820152606401610708565b60048054604051630d4d151360e01b81523392810192909252602482018490526001600160a01b0383811660448401521690630d4d151390606401600060405180830381600087803b15801561096357600080fd5b505af1158015610977573d6000803e3d6000fd5b5050600154604051632c3d285560e01b81523360048201526001600160a01b03858116602483015260448201879052600060648301529091169250632c3d28559150608401600060405180830381600087803b1580156109d657600080fd5b505af11580156109ea573d6000803e3d6000fd5b505050505050565b3360009081526007602090815260408083206001600160a01b0386168452909152902054811115610a655760405162461bcd60e51b815260206004820152601b60248201527f52657475726e6564206d6f7265207468616e20626f72726f77656400000000006044820152606401610708565b60018054604051632c3d285560e01b81523360048201526001600160a01b038581166024830152604482018590526064820193909352911690632c3d285590608401600060405180830381600087803b158015610ac157600080fd5b505af1158015610ad5573d6000803e3d6000fd5b50503360009081526007602090815260408083206001600160a01b038816845290915281208054859450909250610b0d9084906114ec565b90915550503360009081526007602090815260408083206001600160a01b0386168452909152902054610b5f573360009081526007602090815260408083206001600160a01b03861684529091528120555b5050565b6000600460009054906101000a90046001600160a01b03166001600160a01b03166333d57cdc6040518163ffffffff1660e01b8152600401602060405180830381865afa1580156104ab573d6000803e3d6000fd5b600080546040516341976e0960e01b81526001600160a01b038581166004830152909116906341976e0990602401602060405180830381865afa158015610c03573d6000803e3d6000fd5b505050506040513d601f19601f82011682018060405250810190610c279190611486565b60015460405163fce3e8e760e01b81526001600160a01b03868116600483015292935091169063fce3e8e790602401602060405180830381865afa158015610c73573d6000803e3d6000fd5b505050506040513d601f19601f82011682018060405250810190610c979190611486565b821115610d015760405162461bcd60e51b815260206004820152603260248201527f557365722063616e6e6f742072656465656d206d6f7265207468616e2074686560448201527120617661696c61626c652062616c616e636560701b6064820152608401610708565b6004805460408051630cf55f3760e21b8152905160009385936001600160a01b0316926333d57cdc92818301926020928290030181865afa158015610d4a573d6000803e3d6000fd5b505050506040513d601f19601f82011682018060405250810190610d6e9190611486565b600480546040516370a0823160e01b815233928101929092526001600160a01b0316906370a0823190602401602060405180830381865afa158015610db7573d6000803e3d6000fd5b505050506040513d601f19601f82011682018060405250810190610ddb9190611486565b610de591906114b5565b610def9190611503565b905082811015610e555760405162461bcd60e51b815260206004820152602b60248201527f43616e6e6f742072656465656d206d6f726520746f6b656e73207468616e206e60448201526a1d5b58995c881bdddb995960aa1b6064820152608401610708565b6000600460009054906101000a90046001600160a01b03166001600160a01b03166333d57cdc6040518163ffffffff1660e01b8152600401602060405180830381865afa158015610eaa573d6000803e3d6000fd5b505050506040513d601f19601f82011682018060405250810190610ece9190611486565b610ed885856114b5565b610ee29190611503565b600154604051631f97f85960e31b81523360048201526001600160a01b0388811660248301526044820188905292935091169063fcbfc2c890606401600060405180830381600087803b158015610f3857600080fd5b505af1158015610f4c573d6000803e3d6000fd5b505060048054604051632770a7eb60e21b81523392810192909252602482018590526001600160a01b03169250639dc29fac9150604401600060405180830381600087803b158015610f9d57600080fd5b505af1158015610fb1573d6000803e3d6000fd5b505050505050505050565b600254604051631d512a9160e21b81526001600160a01b0383811660048301526000921690637544aa449060240161040f565b600480546040516370a0823160e01b81526001600160a01b0384811693820193909352600092909116906370a082319060240161040f565b600254604051632b92a07d60e01b81526001600160a01b03848116600483015283811660248301526000921690632b92a07d90604401602060405180830381865afa15801561107a573d6000803e3d6000fd5b505050506040513d601f19601f8201168201806040525081019061109e9190611486565b9392505050565b60015460405163fce3e8e760e01b81526001600160a01b038381166004830152600092169063fce3e8e79060240161040f565b6000600460009054906101000a90046001600160a01b03166001600160a01b03166318160ddd6040518163ffffffff1660e01b8152600401602060405180830381865afa1580156104ab573d6000803e3d6000fd5b60015460405163f8b2cb4f60e01b81526001600160a01b038381166004830152600092169063f8b2cb4f9060240161040f565b6002546040516328d1f89360e21b81526001600160a01b038381166004830152600092169063a347e24c9060240161040f565b60015460405163de30f97d60e01b81526001600160a01b038381166004830152600092169063de30f97d9060240161040f565b6001600160a01b0381166000908152600660205260408120548190815b818161ffff16101561133b57600080546001600160a01b038781168352600660205260409092208054670de0b6b3a764000093909216916341976e09919061ffff861690811061123557611235611525565b60009182526020909120015460405160e083901b6001600160e01b03191681526001600160a01b039091166004820152602401602060405180830381865afa158015611285573d6000803e3d6000fd5b505050506040513d601f19601f820116820180604052508101906112a99190611486565b6001600160a01b038716600090815260076020908152604080832060069092528220805491929161ffff87169081106112e4576112e4611525565b60009182526020808320909101546001600160a01b0316835282019290925260400190205461131391906114b5565b61131d9190611503565b61132790846114d4565b9250806113338161153b565b9150506111e3565b50909392505050565b80356001600160a01b038116811461135b57600080fd5b919050565b60006020828403121561137257600080fd5b61109e82611344565b6000806000806080858703121561139157600080fd5b843593506113a160208601611344565b9250604085013591506113b660608601611344565b905092959194509250565b600080604083850312156113d457600080fd5b823591506113e460208401611344565b90509250929050565b6000806040838503121561140057600080fd5b61140983611344565b946020939093013593505050565b6000806040838503121561142a57600080fd5b61143383611344565b91506113e460208401611344565b60008060006060848603121561145657600080fd5b61145f84611344565b9250602084013591506040840135801515811461147b57600080fd5b809150509250925092565b60006020828403121561149857600080fd5b5051919050565b634e487b7160e01b600052601160045260246000fd5b60008160001904831182151516156114cf576114cf61149f565b500290565b600082198211156114e7576114e761149f565b500190565b6000828210156114fe576114fe61149f565b500390565b60008261152057634e487b7160e01b600052601260045260246000fd5b500490565b634e487b7160e01b600052603260045260246000fd5b600061ffff808316818114156115535761155361149f565b600101939250505056fea2646970667358221220b09255a289b1e747fbfc0020ea4b7aa63f16105ced9a8aec6836d2d3b5b8aefa64736f6c634300080b0033608060405234801561001057600080fd5b5060026003819055604080518082018252600080825260208083018281527301be23585060835e02b77ef475b0cc51aa1e070980845283835293517f4e2753d238f0f4cb8962490717ab551b4c023808c7bc37aed6e8760bfc3a92d555517f4e2753d238f0f4cb8962490717ab551b4c023808c7bc37aed6e8760bfc3a92d6558454600181810187557f405787fa12a823e0f2b7631cc41b3ba8828b3321ca811111fa75cd3aa3bb5ace91820180546001600160a01b0319908116871790915586518088018852858152808501868152735592ec0cfb4dbc12d3ab100b257153436a1f0fea8088529587905290517ff4e9730789baae4355b7b087afa1a57a24c222e690ce50ce909b525e8495925b55517ff4e9730789baae4355b7b087afa1a57a24c222e690ce50ce909b525e8495925c5587549182018855969093529190910180549094168117909355905190919061016a906101af565b604051809103906000f080158015610186573d6000803e3d6000fd5b50600180546001600160a01b0319166001600160a01b0392909216919091179055506101bc9050565b61037680610aa883390190565b6108dd806101cb6000396000f3fe608060405234801561001057600080fd5b50600436106100a95760003560e01c8063de30f97d11610071578063de30f97d146101cd578063edf26d9b146101e0578063f8b2cb4f146101f3578063fc4f78b914610206578063fcbfc2c814610219578063fce3e8e71461022c57600080fd5b80632c3d2855146100ae5780636efb8b62146100c357806375f4d6771461014b5780639311ca6914610166578063b8c876b114610191575b600080fd5b6100c16100bc3660046106ed565b610255565b005b6100c16100d136600461073c565b604080518082018252600080825260208083018281526001600160a01b03909516808352908290529281209151825592516001918201556002805491820181559092527f405787fa12a823e0f2b7631cc41b3ba8828b3321ca811111fa75cd3aa3bb5ace90910180546001600160a01b0319169091179055565b61015361034e565b6040519081526020015b60405180910390f35b600154610179906001600160a01b031681565b6040516001600160a01b03909116815260200161015d565b6101b861019f36600461073c565b6000602081905290815260409020805460019091015482565b6040805192835260208301919091520161015d565b6101536101db36600461073c565b6104d6565b6101796101ee36600461075e565b610533565b61015361020136600461073c565b61055d565b6100c1610214366004610777565b6105c8565b6100c1610227366004610777565b610698565b61015361023a36600461073c565b6001600160a01b031660009081526020819052604090205490565b6040516323b872dd60e01b81526001600160a01b038581166004830152306024830152604482018490528416906323b872dd906064016020604051808303816000875af11580156102aa573d6000803e3d6000fd5b505050506040513d601f19601f820116820180604052508101906102ce91906107b3565b506001600160a01b0383166000908152602081905260409020546102f39083906107e6565b6001600160a01b03841660009081526020819052604090205560018115151415610348576001600160a01b038316600090815260208190526040812060010180548492906103429084906107fe565b90915550505b50505050565b6002546000908190815b818161ffff1610156104ce5760015460028054670de0b6b3a7640000926001600160a01b0316916341976e099161ffff861690811061039957610399610815565b60009182526020909120015460405160e083901b6001600160e01b03191681526001600160a01b039091166004820152602401602060405180830381865afa1580156103e9573d6000803e3d6000fd5b505050506040513d601f19601f8201168201806040525081019061040d919061082b565b60008060028561ffff168154811061042757610427610815565b60009182526020808320909101546001600160a01b031683528201929092526040018120600101546002805491929182919061ffff881690811061046d5761046d610815565b60009182526020808320909101546001600160a01b0316835282019290925260400190205461049c91906107e6565b6104a69190610844565b6104b09190610863565b6104ba90846107e6565b9250806104c681610885565b915050610358565b509092915050565b6001600160a01b0381166000908152602081905260408120600181015490546104ff91906107e6565b6001600160a01b038316600090815260208190526040902054610523906001610844565b61052d9190610863565b92915050565b6002818154811061054357600080fd5b6000918252602090912001546001600160a01b0316905081565b6040516370a0823160e01b81523060048201526000906001600160a01b038316906370a0823190602401602060405180830381865afa1580156105a4573d6000803e3d6000fd5b505050506040513d601f19601f8201168201806040525081019061052d919061082b565b6001600160a01b038216600090815260208190526040812080548392906105f09084906107fe565b90915550506001600160a01b038216600090815260208190526040812060010180548392906106209084906107e6565b909155505060405163a9059cbb60e01b81526001600160a01b0384811660048301526024820183905283169063a9059cbb906044016020604051808303816000875af1158015610674573d6000803e3d6000fd5b505050506040513d601f19601f8201168201806040525081019061034891906107b3565b6001600160a01b038216600090815260208190526040812080548392906106209084906107fe565b80356001600160a01b03811681146106d757600080fd5b919050565b80151581146106ea57600080fd5b50565b6000806000806080858703121561070357600080fd5b61070c856106c0565b935061071a602086016106c0565b9250604085013591506060850135610731816106dc565b939692955090935050565b60006020828403121561074e57600080fd5b610757826106c0565b9392505050565b60006020828403121561077057600080fd5b5035919050565b60008060006060848603121561078c57600080fd5b610795846106c0565b92506107a3602085016106c0565b9150604084013590509250925092565b6000602082840312156107c557600080fd5b8151610757816106dc565b634e487b7160e01b600052601160045260246000fd5b600082198211156107f9576107f96107d0565b500190565b600082821015610810576108106107d0565b500390565b634e487b7160e01b600052603260045260246000fd5b60006020828403121561083d57600080fd5b5051919050565b600081600019048311821515161561085e5761085e6107d0565b500290565b60008261088057634e487b7160e01b600052601260045260246000fd5b500490565b600061ffff8083168181141561089d5761089d6107d0565b600101939250505056fea26469706673582212206ad097af9bb46e3fa2d707ee1dbec5f26ca08ce2203d2ca85ce81cb858aee9c164736f6c634300080b0033608060405234801561001057600080fd5b50600060208190527f4e2753d238f0f4cb8962490717ab551b4c023808c7bc37aed6e8760bfc3a92d580546001600160a01b031990811673d8bd0a1cb028a31aa859a21a3758685a95de462317909155735592ec0cfb4dbc12d3ab100b257153436a1f0fea9091527ff4e9730789baae4355b7b087afa1a57a24c222e690ce50ce909b525e8495925b8054909116732ba49aaa16e6afd2a993473cfb70fa8559b523cf1790556102b1806100c56000396000f3fe608060405234801561001057600080fd5b50600436106100365760003560e01c806341976e091461003b5780634238dc4714610061575b600080fd5b61004e610049366004610141565b6100a2565b6040519081526020015b60405180910390f35b61008a61006f366004610141565b6000602081905290815260409020546001600160a01b031681565b6040516001600160a01b039091168152602001610058565b6001600160a01b03808216600090815260208190526040808220548151633fabe5a360e21b81529151929316918391839163feaf968c9160048082019260a0929091908290030181865afa1580156100fe573d6000803e3d6000fd5b505050506040513d601f19601f820116820180604052508101906101229190610190565b505050915050806402540be40061013991906101f6565b949350505050565b60006020828403121561015357600080fd5b81356001600160a01b038116811461016a57600080fd5b9392505050565b805169ffffffffffffffffffff8116811461018b57600080fd5b919050565b600080600080600060a086880312156101a857600080fd5b6101b186610171565b94506020860151935060408601519250606086015191506101d460808701610171565b90509295509295909350565b634e487b7160e01b600052601160045260246000fd5b60006001600160ff1b038184138284138082168684048611161561021c5761021c6101e0565b600160ff1b600087128281168783058912161561023b5761023b6101e0565b60008712925087820587128484161615610257576102576101e0565b8785058712818416161561026d5761026d6101e0565b50505092909302939250505056fea264697066735822122072c48f6e00c5a52cb863487a9419bc6a66d0f63d77321e88f47fe70ef4f6aac064736f6c634300080b003360806040523480156200001157600080fd5b50604051620020f0380380620020f08339810160408190526200003491620003eb565b8251839083906200004d9060059060208501906200026a565b508051620000639060069060208401906200026a565b50620000759150600090503362000105565b620000a17f9f2df0fed2c77648de5860a4cc508cd0818c85b8b8a1ab4ceeef8d981c8956a63362000105565b604051620000af90620002f9565b604051809103906000f080158015620000cc573d6000803e3d6000fd5b50600780546001600160a01b039283166001600160a01b0319918216179091556008805493909216921691909117905550620004b59050565b62000111828262000115565b5050565b6200012c82826200015860201b62000abb1760201c565b60008281526001602090815260409091206200015391839062000b3f620001f8821b17901c565b505050565b6000828152602081815260408083206001600160a01b038516845290915290205460ff1662000111576000828152602081815260408083206001600160a01b03851684529091529020805460ff19166001179055620001b43390565b6001600160a01b0316816001600160a01b0316837f2f8788117e7eff1d82e926ec794901d17c78024a50270940304540a733656f0d60405160405180910390a45050565b60006200020f836001600160a01b03841662000218565b90505b92915050565b6000818152600183016020526040812054620002615750815460018181018455600084815260208082209093018490558454848252828601909352604090209190915562000212565b50600062000212565b828054620002789062000478565b90600052602060002090601f0160209004810192826200029c5760008555620002e7565b82601f10620002b757805160ff1916838001178555620002e7565b82800160010185558215620002e7579182015b82811115620002e7578251825591602001919060010190620002ca565b50620002f592915062000307565b5090565b6103768062001d7a83390190565b5b80821115620002f5576000815560010162000308565b634e487b7160e01b600052604160045260246000fd5b600082601f8301126200034657600080fd5b81516001600160401b03808211156200036357620003636200031e565b604051601f8301601f19908116603f011681019082821181831017156200038e576200038e6200031e565b81604052838152602092508683858801011115620003ab57600080fd5b600091505b83821015620003cf5785820183015181830184015290820190620003b0565b83821115620003e15760008385830101525b9695505050505050565b6000806000606084860312156200040157600080fd5b83516001600160401b03808211156200041957600080fd5b620004278783880162000334565b945060208601519150808211156200043e57600080fd5b506200044d8682870162000334565b604086015190935090506001600160a01b03811681146200046d57600080fd5b809150509250925092565b600181811c908216806200048d57607f821691505b60208210811415620004af57634e487b7160e01b600052602260045260246000fd5b50919050565b6118b580620004c56000396000f3fe608060405234801561001057600080fd5b50600436106101cf5760003560e01c80636b3e22fc116101045780639dc29fac116100a2578063ca15c87311610071578063ca15c873146103d5578063d5391393146103e8578063d547741f1461040f578063dd62ed3e1461042257600080fd5b80639dc29fac14610394578063a217fddf146103a7578063a457c2d7146103af578063a9059cbb146103c257600080fd5b80639010d07c116100de5780639010d07c1461035357806391d14854146103665780639311ca691461037957806395d89b411461038c57600080fd5b80636b3e22fc1461030f57806370a08231146103225780638a02775b1461034b57600080fd5b8063248a9ca3116101715780633287acee1161014b5780633287acee146102ce57806333d57cdc146102e157806336568abe146102e957806339509351146102fc57600080fd5b8063248a9ca3146102895780632f2ff15d146102ac578063313ce567146102bf57600080fd5b80630d4d1513116101ad5780630d4d15131461022457806316f0115b1461023957806318160ddd1461026457806323b872dd1461027657600080fd5b806301ffc9a7146101d457806306fdde03146101fc578063095ea7b314610211575b600080fd5b6101e76101e23660046114ea565b61045b565b60405190151581526020015b60405180910390f35b610204610486565b6040516101f39190611540565b6101e761021f36600461158f565b610518565b6102376102323660046115b9565b61052e565b005b60085461024c906001600160a01b031681565b6040516001600160a01b0390911681526020016101f3565b6004545b6040519081526020016101f3565b6101e76102843660046115f5565b6105d5565b610268610297366004611631565b60009081526020819052604090206001015490565b6102376102ba36600461164a565b61067f565b604051601281526020016101f3565b6102686102dc366004611631565b6106aa565b6102686106f7565b6102376102f736600461164a565b61076d565b6101e761030a36600461158f565b6107eb565b61026861031d36600461158f565b610827565b610268610330366004611676565b6001600160a01b031660009081526002602052604090205490565b6102686108c0565b61024c610361366004611691565b61092e565b6101e761037436600461164a565b610946565b60075461024c906001600160a01b031681565b61020461096f565b6102376103a236600461158f565b61097e565b610268600081565b6101e76103bd36600461158f565b6109d8565b6101e76103d036600461158f565b610a71565b6102686103e3366004611631565b610a7e565b6102687f9f2df0fed2c77648de5860a4cc508cd0818c85b8b8a1ab4ceeef8d981c8956a681565b61023761041d36600461164a565b610a95565b6102686104303660046116b3565b6001600160a01b03918216600090815260036020908152604080832093909416825291909152205490565b60006001600160e01b03198216635a05180f60e01b1480610480575061048082610b54565b92915050565b606060058054610495906116dd565b80601f01602080910402602001604051908101604052809291908181526020018280546104c1906116dd565b801561050e5780601f106104e35761010080835404028352916020019161050e565b820191906000526020600020905b8154815290600101906020018083116104f157829003601f168201915b5050505050905090565b6000610525338484610b89565b50600192915050565b6105587f9f2df0fed2c77648de5860a4cc508cd0818c85b8b8a1ab4ceeef8d981c8956a633610946565b6105a95760405162461bcd60e51b815260206004820152601d60248201527f6d7573742068617665206d696e74657220726f6c6520746f206d696e7400000060448201526064015b60405180910390fd5b60006105b58284610827565b905060006105c2826106aa565b90506105ce8582610cad565b5050505050565b60006105e2848484610d8c565b6001600160a01b0384166000908152600360209081526040808320338452909152902054828110156106675760405162461bcd60e51b815260206004820152602860248201527f45524332303a207472616e7366657220616d6f756e74206578636565647320616044820152676c6c6f77616e636560c01b60648201526084016105a0565b6106748533858403610b89565b506001949350505050565b60008281526020819052604090206001015461069b8133610f5c565b6106a58383610fc0565b505050565b6000806106b56108c0565b90506106c060045490565b6106cb575090919050565b80836106d660045490565b6106e09190611728565b6106ea9190611747565b9392505050565b50919050565b60008061070360045490565b116107415760405162461bcd60e51b815260206004820152600e60248201526d737570706c79206973207a65726f60901b60448201526064016105a0565b60045461074c6108c0565b61075e90670de0b6b3a7640000611728565b6107689190611747565b905090565b6001600160a01b03811633146107dd5760405162461bcd60e51b815260206004820152602f60248201527f416363657373436f6e74726f6c3a2063616e206f6e6c792072656e6f756e636560448201526e103937b632b9903337b91039b2b63360891b60648201526084016105a0565b6107e78282610fe2565b5050565b3360008181526003602090815260408083206001600160a01b03871684529091528120549091610525918590610822908690611769565b610b89565b6007546040516341976e0960e01b81526001600160a01b03848116600483015260009283929116906341976e0990602401602060405180830381865afa158015610875573d6000803e3d6000fd5b505050506040513d601f19601f820116820180604052508101906108999190611781565b9050670de0b6b3a76400006108ae8483611728565b6108b89190611747565b949350505050565b600854604080516375f4d67760e01b815290516000926001600160a01b0316916375f4d6779160048083019260209291908290030181865afa15801561090a573d6000803e3d6000fd5b505050506040513d601f19601f820116820180604052508101906107689190611781565b60008281526001602052604081206106ea9083611004565b6000918252602082815260408084206001600160a01b0393909316845291905290205460ff1690565b606060068054610495906116dd565b600081116109ce5760405162461bcd60e51b815260206004820181905260248201527f416d6f756e7420746f2072656465656d206e6565647320746f206265203e203060448201526064016105a0565b6107e78282611010565b3360009081526003602090815260408083206001600160a01b038616845290915281205482811015610a5a5760405162461bcd60e51b815260206004820152602560248201527f45524332303a2064656372656173656420616c6c6f77616e63652062656c6f77604482015264207a65726f60d81b60648201526084016105a0565b610a673385858403610b89565b5060019392505050565b6000610525338484610d8c565b60008181526001602052604081206104809061115e565b600082815260208190526040902060010154610ab18133610f5c565b6106a58383610fe2565b610ac58282610946565b6107e7576000828152602081815260408083206001600160a01b03851684529091529020805460ff19166001179055610afb3390565b6001600160a01b0316816001600160a01b0316837f2f8788117e7eff1d82e926ec794901d17c78024a50270940304540a733656f0d60405160405180910390a45050565b60006106ea836001600160a01b038416611168565b60006001600160e01b03198216637965db0b60e01b148061048057506301ffc9a760e01b6001600160e01b0319831614610480565b6001600160a01b038316610beb5760405162461bcd60e51b8152602060048201526024808201527f45524332303a20617070726f76652066726f6d20746865207a65726f206164646044820152637265737360e01b60648201526084016105a0565b6001600160a01b038216610c4c5760405162461bcd60e51b815260206004820152602260248201527f45524332303a20617070726f766520746f20746865207a65726f206164647265604482015261737360f01b60648201526084016105a0565b6001600160a01b0383811660008181526003602090815260408083209487168084529482529182902085905590518481527f8c5be1e5ebec7d5bd14f71427d1e84f3dd0314c0f7b2291e5b200ac8c7c3b925910160405180910390a3505050565b6001600160a01b038216610d035760405162461bcd60e51b815260206004820152601f60248201527f45524332303a206d696e7420746f20746865207a65726f20616464726573730060448201526064016105a0565b8060046000828254610d159190611769565b90915550506001600160a01b03821660009081526002602052604081208054839290610d42908490611769565b90915550506040518181526001600160a01b038316906000907fddf252ad1be2c89b69c2b068fc378daa952ba7f163c4a11628f55a4df523b3ef9060200160405180910390a35050565b6001600160a01b038316610df05760405162461bcd60e51b815260206004820152602560248201527f45524332303a207472616e736665722066726f6d20746865207a65726f206164604482015264647265737360d81b60648201526084016105a0565b6001600160a01b038216610e525760405162461bcd60e51b815260206004820152602360248201527f45524332303a207472616e7366657220746f20746865207a65726f206164647260448201526265737360e81b60648201526084016105a0565b6001600160a01b03831660009081526002602052604090205481811015610eca5760405162461bcd60e51b815260206004820152602660248201527f45524332303a207472616e7366657220616d6f756e7420657863656564732062604482015265616c616e636560d01b60648201526084016105a0565b6001600160a01b03808516600090815260026020526040808220858503905591851681529081208054849290610f01908490611769565b92505081905550826001600160a01b0316846001600160a01b03167fddf252ad1be2c89b69c2b068fc378daa952ba7f163c4a11628f55a4df523b3ef84604051610f4d91815260200190565b60405180910390a35b50505050565b610f668282610946565b6107e757610f7e816001600160a01b031660146111b7565b610f898360206111b7565b604051602001610f9a92919061179a565b60408051601f198184030181529082905262461bcd60e51b82526105a091600401611540565b610fca8282610abb565b60008281526001602052604090206106a59082610b3f565b610fec8282611353565b60008281526001602052604090206106a590826113b8565b60006106ea83836113cd565b6001600160a01b0382166110705760405162461bcd60e51b815260206004820152602160248201527f45524332303a206275726e2066726f6d20746865207a65726f206164647265736044820152607360f81b60648201526084016105a0565b6001600160a01b038216600090815260026020526040902054818110156110e45760405162461bcd60e51b815260206004820152602260248201527f45524332303a206275726e20616d6f756e7420657863656564732062616c616e604482015261636560f01b60648201526084016105a0565b6001600160a01b038316600090815260026020526040812083830390556004805484929061111390849061180f565b90915550506040518281526000906001600160a01b038516907fddf252ad1be2c89b69c2b068fc378daa952ba7f163c4a11628f55a4df523b3ef9060200160405180910390a3505050565b6000610480825490565b60008181526001830160205260408120546111af57508154600181810184556000848152602080822090930184905584548482528286019093526040902091909155610480565b506000610480565b606060006111c6836002611728565b6111d1906002611769565b67ffffffffffffffff8111156111e9576111e9611826565b6040519080825280601f01601f191660200182016040528015611213576020820181803683370190505b509050600360fc1b8160008151811061122e5761122e61183c565b60200101906001600160f81b031916908160001a905350600f60fb1b8160018151811061125d5761125d61183c565b60200101906001600160f81b031916908160001a9053506000611281846002611728565b61128c906001611769565b90505b6001811115611304576f181899199a1a9b1b9c1cb0b131b232b360811b85600f16601081106112c0576112c061183c565b1a60f81b8282815181106112d6576112d661183c565b60200101906001600160f81b031916908160001a90535060049490941c936112fd81611852565b905061128f565b5083156106ea5760405162461bcd60e51b815260206004820181905260248201527f537472696e67733a20686578206c656e67746820696e73756666696369656e7460448201526064016105a0565b61135d8282610946565b156107e7576000828152602081815260408083206001600160a01b0385168085529252808320805460ff1916905551339285917ff6391f5c32d9c69d2a47ea670b442974b53935d1edc7fd64eb21e047a839171b9190a45050565b60006106ea836001600160a01b0384166113f7565b60008260000182815481106113e4576113e461183c565b9060005260206000200154905092915050565b600081815260018301602052604081205480156114e057600061141b60018361180f565b855490915060009061142f9060019061180f565b905081811461149457600086600001828154811061144f5761144f61183c565b90600052602060002001549050808760000184815481106114725761147261183c565b6000918252602080832090910192909255918252600188019052604090208390555b85548690806114a5576114a5611869565b600190038181906000526020600020016000905590558560010160008681526020019081526020016000206000905560019350505050610480565b6000915050610480565b6000602082840312156114fc57600080fd5b81356001600160e01b0319811681146106ea57600080fd5b60005b8381101561152f578181015183820152602001611517565b83811115610f565750506000910152565b602081526000825180602084015261155f816040850160208701611514565b601f01601f19169190910160400192915050565b80356001600160a01b038116811461158a57600080fd5b919050565b600080604083850312156115a257600080fd5b6115ab83611573565b946020939093013593505050565b6000806000606084860312156115ce57600080fd5b6115d784611573565b9250602084013591506115ec60408501611573565b90509250925092565b60008060006060848603121561160a57600080fd5b61161384611573565b925061162160208501611573565b9150604084013590509250925092565b60006020828403121561164357600080fd5b5035919050565b6000806040838503121561165d57600080fd5b8235915061166d60208401611573565b90509250929050565b60006020828403121561168857600080fd5b6106ea82611573565b600080604083850312156116a457600080fd5b50508035926020909101359150565b600080604083850312156116c657600080fd5b6116cf83611573565b915061166d60208401611573565b600181811c908216806116f157607f821691505b602082108114156106f157634e487b7160e01b600052602260045260246000fd5b634e487b7160e01b600052601160045260246000fd5b600081600019048311821515161561174257611742611712565b500290565b60008261176457634e487b7160e01b600052601260045260246000fd5b500490565b6000821982111561177c5761177c611712565b500190565b60006020828403121561179357600080fd5b5051919050565b7f416363657373436f6e74726f6c3a206163636f756e74200000000000000000008152600083516117d2816017850160208801611514565b7001034b99036b4b9b9b4b733903937b6329607d1b6017918401918201528351611803816028840160208801611514565b01602801949350505050565b60008282101561182157611821611712565b500390565b634e487b7160e01b600052604160045260246000fd5b634e487b7160e01b600052603260045260246000fd5b60008161186157611861611712565b506000190190565b634e487b7160e01b600052603160045260246000fdfea26469706673582212208b31f84e00418a8a20d11a37161fc2ee445f17da09bf88bdff3cafb46dceef8764736f6c634300080b0033608060405234801561001057600080fd5b50600060208190527f4e2753d238f0f4cb8962490717ab551b4c023808c7bc37aed6e8760bfc3a92d580546001600160a01b031990811673d8bd0a1cb028a31aa859a21a3758685a95de462317909155735592ec0cfb4dbc12d3ab100b257153436a1f0fea9091527ff4e9730789baae4355b7b087afa1a57a24c222e690ce50ce909b525e8495925b8054909116732ba49aaa16e6afd2a993473cfb70fa8559b523cf1790556102b1806100c56000396000f3fe608060405234801561001057600080fd5b50600436106100365760003560e01c806341976e091461003b5780634238dc4714610061575b600080fd5b61004e610049366004610141565b6100a2565b6040519081526020015b60405180910390f35b61008a61006f366004610141565b6000602081905290815260409020546001600160a01b031681565b6040516001600160a01b039091168152602001610058565b6001600160a01b03808216600090815260208190526040808220548151633fabe5a360e21b81529151929316918391839163feaf968c9160048082019260a0929091908290030181865afa1580156100fe573d6000803e3d6000fd5b505050506040513d601f19601f820116820180604052508101906101229190610190565b505050915050806402540be40061013991906101f6565b949350505050565b60006020828403121561015357600080fd5b81356001600160a01b038116811461016a57600080fd5b9392505050565b805169ffffffffffffffffffff8116811461018b57600080fd5b919050565b600080600080600060a086880312156101a857600080fd5b6101b186610171565b94506020860151935060408601519250606086015191506101d460808701610171565b90509295509295909350565b634e487b7160e01b600052601160045260246000fd5b60006001600160ff1b038184138284138082168684048611161561021c5761021c6101e0565b600160ff1b600087128281168783058912161561023b5761023b6101e0565b60008712925087820587128484161615610257576102576101e0565b8785058712818416161561026d5761026d6101e0565b50505092909302939250505056fea264697066735822122072c48f6e00c5a52cb863487a9419bc6a66d0f63d77321e88f47fe70ef4f6aac064736f6c634300080b00336080604052600260015534801561001557600080fd5b50604051610e88380380610e8883398101604081905261003491610130565b600580546001600160a01b038085166001600160a01b031992831617909255600680549284169290911691909117905560405161007090610107565b604051809103906000f08015801561008c573d6000803e3d6000fd5b50600080546001600160a01b0319166001600160a01b0392909216919091178155600260018190556040805160208082019092528381527301be23585060835e02b77ef475b0cc51aa1e070990935252517fed3674b09469bf4c18c58b5c17b6619c2db43f90b5389a6501b1af546f40b64a55506101639050565b61037680610b1283390190565b80516001600160a01b038116811461012b57600080fd5b919050565b6000806040838503121561014357600080fd5b61014c83610114565b915061015a60208401610114565b90509250929050565b6109a0806101726000396000f3fe608060405234801561001057600080fd5b506004361061009e5760003560e01c80639311ca69116100665780639311ca691461014b578063a347e24c1461015e578063f8b2cb4f14610187578063f970c3b71461019a578063fc0c546a146101ad57600080fd5b806309404954146100a357806316f0115b146100bf5780632b92a07d146100ea5780637544aa44146101235780638eabd4fe14610136575b600080fd5b6100ac60015481565b6040519081526020015b60405180910390f35b6005546100d2906001600160a01b031681565b6040516001600160a01b0390911681526020016100b6565b6100ac6100f8366004610785565b6001600160a01b03918216600090815260036020908152604080832093909416825291909152205490565b6100ac6101313660046107b8565b6101c0565b6101496101443660046107eb565b61033e565b005b6000546100d2906001600160a01b031681565b6100ac61016c3660046107b8565b6001600160a01b031660009081526002602052604090205490565b6100ac6101953660046107b8565b6105c1565b6101496101a836600461083a565b610632565b6006546100d2906001600160a01b031681565b6001600160a01b0381166000908152600460205260408120548190815b818161ffff16101561033557600080546001600160a01b038781168352600460205260409092208054670de0b6b3a764000093909216916341976e09919061ffff861690811061022f5761022f610876565b60009182526020909120015460405160e083901b6001600160e01b03191681526001600160a01b039091166004820152602401602060405180830381865afa15801561027f573d6000803e3d6000fd5b505050506040513d601f19601f820116820180604052508101906102a3919061088c565b6001600160a01b038716600090815260036020908152604080832060049092528220805491929161ffff87169081106102de576102de610876565b60009182526020808320909101546001600160a01b0316835282019290925260400190205461030d91906108bb565b61031791906108da565b61032190846108fc565b92508061032d81610914565b9150506101dd565b50909392505050565b3360009081526003602090815260408083206001600160a01b03871684529091529020548211156103c65760405162461bcd60e51b815260206004820152602860248201527f52656465656d696e67206d6f726520636f6c6c61746572616c207468616e2064604482015267195c1bdcda5d195960c21b606482015260840160405180910390fd5b600181151514156104c15760055460405163095ea7b360e01b81526001600160a01b039182166004820152602481018490529084169063095ea7b3906044016020604051808303816000875af1158015610424573d6000803e3d6000fd5b505050506040513d601f19601f820116820180604052508101906104489190610936565b50600554604051632c3d285560e01b81523060048201526001600160a01b038581166024830152604482018590526000606483015290911690632c3d285590608401600060405180830381600087803b1580156104a457600080fd5b505af11580156104b8573d6000803e3d6000fd5b50505050610536565b60405163a9059cbb60e01b81526001600160a01b0385811660048301526024820184905284169063a9059cbb906044016020604051808303816000875af1158015610510573d6000803e3d6000fd5b505050506040513d601f19601f820116820180604052508101906105349190610936565b505b3360009081526003602090815260408083206001600160a01b038716845290915281208054849290610569908490610953565b90915550503360009081526003602090815260408083206001600160a01b03871684529091529020546105bb573360009081526003602090815260408083206001600160a01b03871684529091528120555b50505050565b6040516370a0823160e01b81523060048201526000906001600160a01b038316906370a0823190602401602060405180830381865afa158015610608573d6000803e3d6000fd5b505050506040513d601f19601f8201168201806040525081019061062c919061088c565b92915050565b6040516323b872dd60e01b81526001600160a01b038481166004830152306024830152604482018390528316906323b872dd906064016020604051808303816000875af1158015610687573d6000803e3d6000fd5b505050506040513d601f19601f820116820180604052508101906106ab9190610936565b506001600160a01b0382166000908152600260205260409020546106d09082906108fc565b6001600160a01b038084166000818152600260209081526040808320959095559287168152600383528381209181529152205461070e9082906108fc565b6001600160a01b0393841660008181526003602090815260408083209690971680835295815286822093909355908152600482529384208054600181018255908552932090920180546001600160a01b031916909117905550565b80356001600160a01b038116811461078057600080fd5b919050565b6000806040838503121561079857600080fd5b6107a183610769565b91506107af60208401610769565b90509250929050565b6000602082840312156107ca57600080fd5b6107d382610769565b9392505050565b80151581146107e857600080fd5b50565b6000806000806080858703121561080157600080fd5b61080a85610769565b935061081860208601610769565b925060408501359150606085013561082f816107da565b939692955090935050565b60008060006060848603121561084f57600080fd5b61085884610769565b925061086660208501610769565b9150604084013590509250925092565b634e487b7160e01b600052603260045260246000fd5b60006020828403121561089e57600080fd5b5051919050565b634e487b7160e01b600052601160045260246000fd5b60008160001904831182151516156108d5576108d56108a5565b500290565b6000826108f757634e487b7160e01b600052601260045260246000fd5b500490565b6000821982111561090f5761090f6108a5565b500190565b600061ffff8083168181141561092c5761092c6108a5565b6001019392505050565b60006020828403121561094857600080fd5b81516107d3816107da565b600082821015610965576109656108a5565b50039056fea2646970667358221220068bbe03bb7507cb82c4f72a2c5198394f83f6e8f7db6c1c4b9e2afa215c22d064736f6c634300080b0033608060405234801561001057600080fd5b50600060208190527f4e2753d238f0f4cb8962490717ab551b4c023808c7bc37aed6e8760bfc3a92d580546001600160a01b031990811673d8bd0a1cb028a31aa859a21a3758685a95de462317909155735592ec0cfb4dbc12d3ab100b257153436a1f0fea9091527ff4e9730789baae4355b7b087afa1a57a24c222e690ce50ce909b525e8495925b8054909116732ba49aaa16e6afd2a993473cfb70fa8559b523cf1790556102b1806100c56000396000f3fe608060405234801561001057600080fd5b50600436106100365760003560e01c806341976e091461003b5780634238dc4714610061575b600080fd5b61004e610049366004610141565b6100a2565b6040519081526020015b60405180910390f35b61008a61006f366004610141565b6000602081905290815260409020546001600160a01b031681565b6040516001600160a01b039091168152602001610058565b6001600160a01b03808216600090815260208190526040808220548151633fabe5a360e21b81529151929316918391839163feaf968c9160048082019260a0929091908290030181865afa1580156100fe573d6000803e3d6000fd5b505050506040513d601f19601f820116820180604052508101906101229190610190565b505050915050806402540be40061013991906101f6565b949350505050565b60006020828403121561015357600080fd5b81356001600160a01b038116811461016a57600080fd5b9392505050565b805169ffffffffffffffffffff8116811461018b57600080fd5b919050565b600080600080600060a086880312156101a857600080fd5b6101b186610171565b94506020860151935060408601519250606086015191506101d460808701610171565b90509295509295909350565b634e487b7160e01b600052601160045260246000fd5b60006001600160ff1b038184138284138082168684048611161561021c5761021c6101e0565b600160ff1b600087128281168783058912161561023b5761023b6101e0565b60008712925087820587128484161615610257576102576101e0565b8785058712818416161561026d5761026d6101e0565b50505092909302939250505056fea264697066735822122072c48f6e00c5a52cb863487a9419bc6a66d0f63d77321e88f47fe70ef4f6aac064736f6c634300080b0033608060405234801561001057600080fd5b50600060208190527f4e2753d238f0f4cb8962490717ab551b4c023808c7bc37aed6e8760bfc3a92d580546001600160a01b031990811673d8bd0a1cb028a31aa859a21a3758685a95de462317909155735592ec0cfb4dbc12d3ab100b257153436a1f0fea9091527ff4e9730789baae4355b7b087afa1a57a24c222e690ce50ce909b525e8495925b8054909116732ba49aaa16e6afd2a993473cfb70fa8559b523cf1790556102b1806100c56000396000f3fe608060405234801561001057600080fd5b50600436106100365760003560e01c806341976e091461003b5780634238dc4714610061575b600080fd5b61004e610049366004610141565b6100a2565b6040519081526020015b60405180910390f35b61008a61006f366004610141565b6000602081905290815260409020546001600160a01b031681565b6040516001600160a01b039091168152602001610058565b6001600160a01b03808216600090815260208190526040808220548151633fabe5a360e21b81529151929316918391839163feaf968c9160048082019260a0929091908290030181865afa1580156100fe573d6000803e3d6000fd5b505050506040513d601f19601f820116820180604052508101906101229190610190565b505050915050806402540be40061013991906101f6565b949350505050565b60006020828403121561015357600080fd5b81356001600160a01b038116811461016a57600080fd5b9392505050565b805169ffffffffffffffffffff8116811461018b57600080fd5b919050565b600080600080600060a086880312156101a857600080fd5b6101b186610171565b94506020860151935060408601519250606086015191506101d460808701610171565b90509295509295909350565b634e487b7160e01b600052601160045260246000fd5b60006001600160ff1b038184138284138082168684048611161561021c5761021c6101e0565b600160ff1b600087128281168783058912161561023b5761023b6101e0565b60008712925087820587128484161615610257576102576101e0565b8785058712818416161561026d5761026d6101e0565b50505092909302939250505056fea264697066735822122072c48f6e00c5a52cb863487a9419bc6a66d0f63d77321e88f47fe70ef4f6aac064736f6c634300080b0033","bytecodeSha1":"875d076d90194febfde5a67db3b37af521432a6f","type":"contract","abi":[{"inputs":[],"stateMutability":"nonpayable","type":"constructor","name":"constructor"},{"anonymous":false,"inputs":[{"indexed":false,"internalType":"address","name":"_user","type":"address"},{"indexed":false,"internalType":"uint256","name":"_borrowed","type":"uint256"},{"indexed":false,"internalType":"address","name":"_borrowedAsset","type":"address"},{"indexed":false,"internalType":"uint256","name":"_collateral","type":"uint256"},{"indexed":false,"internalType":"address","name":"_collateralAsset","type":"address"}],"name":"borrowEvent","type":"event"},{"anonymous":false,"inputs":[{"indexed":false,"internalType":"address","name":"_user","type":"address"},{"indexed":false,"internalType":"uint256","name":"_quantity","type":"uint256"},{"indexed":false,"internalType":"address","name":"_asset","type":"address"}],"name":"depositEvent","type":"event"},{"inputs":[{"internalType":"uint256","name":"_borrowQuantity","type":"uint256"},{"internalType":"address","name":"_asset","type":"address"},{"internalType":"uint256","name":"_collateralQuantity","type":"uint256"},{"internalType":"address","name":"_collateral","type":"address"}],"name":"Borrow","outputs":[],"stateMutability":"nonpayable","type":"function"},{"inputs":[{"internalType":"uint256","name":"_quantity","type":"uint256"},{"internalType":"address","name":"_asset","type":"address"}],"name":"Deposit","outputs":[],"stateMutability":"nonpayable","type":"function"},{"inputs":[{"internalType":"address","name":"_asset","type":"address"},{"internalType":"uint256","name":"_repayQuantity","type":"uint256"}],"name":"Repay","outputs":[],"stateMutability":"nonpayable","type":"function"},{"inputs":[{"internalType":"address","name":"_desiredAsset","type":"address"},{"internalType":"uint256","name":"_amountToRemove","type":"uint256"}],"name":"Withdraw","outputs":[],"stateMutability":"nonpayable","type":"function"},{"inputs":[{"internalType":"address","name":"","type":"address"},{"internalType":"address","name":"","type":"address"}],"name":"borrowTracker","outputs":[{"internalType":"uint256","name":"","type":"uint256"}],"stateMutability":"view","type":"function"},{"inputs":[],"name":"collateral","outputs":[{"internalType":"contract Collateral","name":"","type":"address"}],"stateMutability":"view","type":"function"},{"inputs":[],"name":"conversion","outputs":[{"internalType":"contract Conversion","name":"","type":"address"}],"stateMutability":"view","type":"function"},{"inputs":[{"internalType":"address","name":"_user","type":"address"}],"name":"getBalanceOf","outputs":[{"internalType":"uint256","name":"","type":"uint256"}],"stateMutability":"view","type":"function"},{"inputs":[],"name":"getCollAddr","outputs":[{"internalType":"address","name":"","type":"address"}],"stateMutability":"view","type":"function"},{"inputs":[{"internalType":"address","name":"_token","type":"address"}],"name":"getCollBalance","outputs":[{"internalType":"uint256","name":"","type":"uint256"}],"stateMutability":"view","type":"function"},{"inputs":[{"internalType":"address","name":"_user","type":"address"}],"name":"getCollateralValue","outputs":[{"internalType":"uint256","name":"","type":"uint256"}],"stateMutability":"view","type":"function"},{"inputs":[{"internalType":"address","name":"_token","type":"address"}],"name":"getLiquidPct","outputs":[{"internalType":"uint256","name":"","type":"uint256"}],"stateMutability":"view","type":"function"},{"inputs":[{"internalType":"address","name":"_token","type":"address"}],"name":"getLiquidity","outputs":[{"internalType":"uint256","name":"","type":"uint256"}],"stateMutability":"view","type":"function"},{"inputs":[{"internalType":"address","name":"_token","type":"address"}],"name":"getLockedCollateral","outputs":[{"internalType":"uint256","name":"","type":"uint256"}],"stateMutability":"view","type":"function"},{"inputs":[{"internalType":"address","name":"_user","type":"address"},{"internalType":"address","name":"_asset","type":"address"}],"name":"getOutstandingLoan","outputs":[{"internalType":"uint256","name":"","type":"uint256"}],"stateMutability":"view","type":"function"},{"inputs":[],"name":"getPoolAddr","outputs":[{"internalType":"address","name":"","type":"address"}],"stateMutability":"view","type":"function"},{"inputs":[{"internalType":"address","name":"_token","type":"address"}],"name":"getPoolBalance","outputs":[{"internalType":"uint256","name":"","type":"uint256"}],"stateMutability":"view","type":"function"},{"inputs":[],"name":"getPoolValue","outputs":[{"internalType":"uint256","name":"","type":"uint256"}],"stateMutability":"view","type":"function"},{"inputs":[],"name":"getTokenAddr","outputs":[{"internalType":"address","name":"","type":"address"}],"stateMutability":"view","type":"function"},{"inputs":[],"name":"getTokenDollarValue","outputs":[{"internalType":"uint256","name":"","type":"uint256"}],"stateMutability":"view","type":"function"},{"inputs":[],"name":"getTotalSupply","outputs":[{"internalType":"uint256","name":"","type":"uint256"}],"stateMutability":"view","type":"function"},{"inputs":[{"internalType":"address","name":"_user","type":"address"},{"internalType":"address","name":"_asset","type":"address"}],"name":"getUserCollateral","outputs":[{"internalType":"uint256","name":"","type":"uint256"}],"stateMutability":"view","type":"function"},{"inputs":[],"name":"offerCollateralAssets","outputs":[],"stateMutability":"nonpayable","type":"function"},{"inputs":[],"name":"pool","outputs":[{"internalType":"contract Pool","name":"","type":"address"}],"stateMutability":"view","type":"function"},{"inputs":[],"name":"token","outputs":[{"internalType":"contract LVRToken","name":"","type":"address"}],"stateMutability":"view","type":"function"},{"inputs":[{"internalType":"address","name":"_borrower","type":"address"}],"name":"totalValueBorrowed","outputs":[{"internalType":"uint256","name":"","type":"uint256"}],"stateMutability":"view","type":"function"},{"inputs":[{"internalType":"address","name":"_asset","type":"address"},{"internalType":"uint256","name":"_quantity","type":"uint256"},{"internalType":"bool","name":"_toPool","type":"bool"}],"name":"unlockCollateral","outputs":[],"stateMutability":"nonpayable","type":"function"}],"compiler":{"version":"0.8.11+commit.d7f03943","evm_version":"istanbul","optimizer":{"enabled":true,"runs":200}},"contractName":"LendingPool","language":"Solidity","natspec":{"methods":{},"kind":"dev","version":1},"opcodes":"PUSH1 0x80 PUSH1 0x40 MSTORE CALLVALUE DUP1 ISZERO PUSH2 0x10 JUMPI PUSH1 0x0 DUP1 REVERT JUMPDEST POP PUSH1 0x4 CALLDATASIZE LT PUSH2 0x1A9 JUMPI PUSH1 0x0 CALLDATALOAD PUSH1 0xE0 SHR DUP1 PUSH4 0x97904E42 GT PUSH2 0xF9 JUMPI DUP1 PUSH4 0xD28682EA GT PUSH2 0x97 JUMPI DUP1 PUSH4 0xDE259242 GT PUSH2 0x71 JUMPI DUP1 PUSH4 0xDE259242 EQ PUSH2 0x396 JUMPI DUP1 PUSH4 0xDE30F97D EQ PUSH2 0x3A7 JUMPI DUP1 PUSH4 0xF2DF757B EQ PUSH2 0x3BA JUMPI DUP1 PUSH4 0xFC0C546A EQ PUSH2 0x3CD JUMPI PUSH1 0x0 DUP1 REVERT JUMPDEST DUP1 PUSH4 0xD28682EA EQ PUSH2 0x35D JUMPI DUP1 PUSH4 0xD49AB22C EQ PUSH2 0x370 JUMPI DUP1 PUSH4 0xD8DFEB45 EQ PUSH2 0x383 JUMPI PUSH1 0x0 DUP1 REVERT JUMPDEST DUP1 PUSH4 0xA747B93B GT PUSH2 0xD3 JUMPI DUP1 PUSH4 0xA747B93B EQ PUSH2 0x2F6 JUMPI DUP1 PUSH4 0xA78E4046 EQ PUSH2 0x309 JUMPI DUP1 PUSH4 0xB9E037E6 EQ PUSH2 0x342 JUMPI DUP1 PUSH4 0xC4E41B22 EQ PUSH2 0x355 JUMPI PUSH1 0x0 DUP1 REVERT JUMPDEST DUP1 PUSH4 0x97904E42 EQ PUSH2 0x2BD JUMPI DUP1 PUSH4 0x9B96EECE EQ PUSH2 0x2D0 JUMPI DUP1 PUSH4 0xA55E8668 EQ PUSH2 0x2E3 JUMPI PUSH1 0x0 DUP1 REVERT JUMPDEST DUP1 PUSH4 0x582B2720 GT PUSH2 0x166 JUMPI DUP1 PUSH4 0x6AAA434E GT PUSH2 0x140 JUMPI DUP1 PUSH4 0x6AAA434E EQ PUSH2 0x264 JUMPI DUP1 PUSH4 0x6DB18093 EQ PUSH2 0x28F JUMPI DUP1 PUSH4 0x884EDAD9 EQ PUSH2 0x297 JUMPI DUP1 PUSH4 0x9311CA69 EQ PUSH2 0x2AA JUMPI PUSH1 0x0 DUP1 REVERT JUMPDEST DUP1 PUSH4 0x582B2720 EQ PUSH2 0x22F JUMPI DUP1 PUSH4 0x5C16DE4F EQ PUSH2 0x240 JUMPI DUP1 PUSH4 0x63E36DAC EQ PUSH2 0x253 JUMPI PUSH1 0x0 DUP1 REVERT JUMPDEST DUP1 PUSH4 0x57393C0 EQ PUSH2 0x1AE JUMPI DUP1 PUSH4 0x16F0115B EQ PUSH2 0x1D4 JUMPI DUP1 PUSH4 0x1BA2F531 EQ PUSH2 0x1FF JUMPI DUP1 PUSH4 0x243D8E05 EQ PUSH2 0x207 JUMPI DUP1 PUSH4 0x46C928FC EQ PUSH2 0x209 JUMPI DUP1 PUSH4 0x4BCC1709 EQ PUSH2 0x21C JUMPI JUMPDEST PUSH1 0x0 DUP1 REVERT JUMPDEST PUSH2 0x1C1 PUSH2 0x1BC CALLDATASIZE PUSH1 0x4 PUSH2 0x1360 JUMP JUMPDEST PUSH2 0x3E0 JUMP JUMPDEST PUSH1 0x40 MLOAD SWAP1 DUP2 MSTORE PUSH1 0x20 ADD JUMPDEST PUSH1 0x40 MLOAD DUP1 SWAP2 SUB SWAP1 RETURN JUMPDEST PUSH1 0x1 SLOAD PUSH2 0x1E7 SWAP1 PUSH1 0x1 PUSH1 0x1 PUSH1 0xA0 SHL SUB AND DUP2 JUMP JUMPDEST PUSH1 0x40 MLOAD PUSH1 0x1 PUSH1 0x1 PUSH1 0xA0 SHL SUB SWAP1 SWAP2 AND DUP2 MSTORE PUSH1 0x20 ADD PUSH2 0x1CB JUMP JUMPDEST PUSH2 0x1C1 PUSH2 0x456 JUMP JUMPDEST STOP JUMPDEST PUSH2 0x207 PUSH2 0x217 CALLDATASIZE PUSH1 0x4 PUSH2 0x137B JUMP JUMPDEST PUSH2 0x4D4 JUMP JUMPDEST PUSH2 0x207 PUSH2 0x22A CALLDATASIZE PUSH1 0x4 PUSH2 0x13C1 JUMP JUMPDEST PUSH2 0x8BE JUMP JUMPDEST PUSH1 0x4 SLOAD PUSH1 0x1 PUSH1 0x1 PUSH1 0xA0 SHL SUB AND PUSH2 0x1E7 JUMP JUMPDEST PUSH2 0x207 PUSH2 0x24E CALLDATASIZE PUSH1 0x4 PUSH2 0x13ED JUMP JUMPDEST PUSH2 0x9F2 JUMP JUMPDEST PUSH1 0x2 SLOAD PUSH1 0x1 PUSH1 0x1 PUSH1 0xA0 SHL SUB AND PUSH2 0x1E7 JUMP JUMPDEST PUSH2 0x1C1 PUSH2 0x272 CALLDATASIZE PUSH1 0x4 PUSH2 0x1417 JUMP JUMPDEST PUSH1 0x7 PUSH1 0x20 SWAP1 DUP2 MSTORE PUSH1 0x0 SWAP3 DUP4 MSTORE PUSH1 0x40 DUP1 DUP5 KECCAK256 SWAP1 SWAP2 MSTORE SWAP1 DUP3 MSTORE SWAP1 KECCAK256 SLOAD DUP2 JUMP JUMPDEST PUSH2 0x1C1 PUSH2 0xB63 JUMP JUMPDEST PUSH2 0x207 PUSH2 0x2A5 CALLDATASIZE PUSH1 0x4 PUSH2 0x13ED JUMP JUMPDEST PUSH2 0xBB8 JUMP JUMPDEST PUSH1 0x0 SLOAD PUSH2 0x1E7 SWAP1 PUSH1 0x1 PUSH1 0x1 PUSH1 0xA0 SHL SUB AND DUP2 JUMP JUMPDEST PUSH2 0x1C1 PUSH2 0x2CB CALLDATASIZE PUSH1 0x4 PUSH2 0x1360 JUMP JUMPDEST PUSH2 0xFBC JUMP JUMPDEST PUSH2 0x1C1 PUSH2 0x2DE CALLDATASIZE PUSH1 0x4 PUSH2 0x1360 JUMP JUMPDEST PUSH2 0xFEF JUMP JUMPDEST PUSH2 0x1C1 PUSH2 0x2F1 CALLDATASIZE PUSH1 0x4 PUSH2 0x1417 JUMP JUMPDEST PUSH2 0x1027 JUMP JUMPDEST PUSH2 0x1C1 PUSH2 0x304 CALLDATASIZE PUSH1 0x4 PUSH2 0x1360 JUMP JUMPDEST PUSH2 0x10A5 JUMP JUMPDEST PUSH2 0x1C1 PUSH2 0x317 CALLDATASIZE PUSH1 0x4 PUSH2 0x1417 JUMP JUMPDEST PUSH1 0x1 PUSH1 0x1 PUSH1 0xA0 SHL SUB SWAP2 DUP3 AND PUSH1 0x0 SWAP1 DUP2 MSTORE PUSH1 0x7 PUSH1 0x20 SWAP1 DUP2 MSTORE PUSH1 0x40 DUP1 DUP4 KECCAK256 SWAP4 SWAP1 SWAP5 AND DUP3 MSTORE SWAP2 SWAP1 SWAP2 MSTORE KECCAK256 SLOAD SWAP1 JUMP JUMPDEST PUSH2 0x207 PUSH2 0x350 CALLDATASIZE PUSH1 0x4 PUSH2 0x1441 JUMP JUMPDEST POP POP POP JUMP JUMPDEST PUSH2 0x1C1 PUSH2 0x10D8 JUMP JUMPDEST PUSH2 0x1C1 PUSH2 0x36B CALLDATASIZE PUSH1 0x4 PUSH2 0x1360 JUMP JUMPDEST PUSH2 0x112D JUMP JUMPDEST PUSH2 0x1C1 PUSH2 0x37E CALLDATASIZE PUSH1 0x4 PUSH2 0x1360 JUMP JUMPDEST PUSH2 0x1160 JUMP JUMPDEST PUSH1 0x2 SLOAD PUSH2 0x1E7 SWAP1 PUSH1 0x1 PUSH1 0x1 PUSH1 0xA0 SHL SUB AND DUP2 JUMP JUMPDEST PUSH1 0x1 SLOAD PUSH1 0x1 PUSH1 0x1 PUSH1 0xA0 SHL SUB AND PUSH2 0x1E7 JUMP JUMPDEST PUSH2 0x1C1 PUSH2 0x3B5 CALLDATASIZE PUSH1 0x4 PUSH2 0x1360 JUMP JUMPDEST PUSH2 0x1193 JUMP JUMPDEST PUSH2 0x1C1 PUSH2 0x3C8 CALLDATASIZE PUSH1 0x4 PUSH2 0x1360 JUMP JUMPDEST PUSH2 0x11C6 JUMP JUMPDEST PUSH1 0x4 SLOAD PUSH2 0x1E7 SWAP1 PUSH1 0x1 PUSH1 0x1 PUSH1 0xA0 SHL SUB AND DUP2 JUMP JUMPDEST PUSH1 0x2 SLOAD PUSH1 0x40 MLOAD PUSH4 0xF8B2CB4F PUSH1 0xE0 SHL DUP2 MSTORE PUSH1 0x1 PUSH1 0x1 PUSH1 0xA0 SHL SUB DUP4 DUP2 AND PUSH1 0x4 DUP4 ADD MSTORE PUSH1 0x0 SWAP3 AND SWAP1 PUSH4 0xF8B2CB4F SWAP1 PUSH1 0x24 ADD JUMPDEST PUSH1 0x20 PUSH1 0x40 MLOAD DUP1 DUP4 SUB DUP2 DUP7 GAS STATICCALL ISZERO DUP1 ISZERO PUSH2 0x42C JUMPI RETURNDATASIZE PUSH1 0x0 DUP1 RETURNDATACOPY RETURNDATASIZE PUSH1 0x0 REVERT JUMPDEST POP POP POP POP PUSH1 0x40 MLOAD RETURNDATASIZE PUSH1 0x1F NOT PUSH1 0x1F DUP3 ADD AND DUP3 ADD DUP1 PUSH1 0x40 MSTORE POP DUP2 ADD SWAP1 PUSH2 0x450 SWAP2 SWAP1 PUSH2 0x1486 JUMP JUMPDEST SWAP3 SWAP2 POP POP JUMP JUMPDEST PUSH1 0x0 PUSH1 0x4 PUSH1 0x0 SWAP1 SLOAD SWAP1 PUSH2 0x100 EXP SWAP1 DIV PUSH1 0x1 PUSH1 0x1 PUSH1 0xA0 SHL SUB AND PUSH1 0x1 PUSH1 0x1 PUSH1 0xA0 SHL SUB AND PUSH4 0x8A02775B PUSH1 0x40 MLOAD DUP2 PUSH4 0xFFFFFFFF AND PUSH1 0xE0 SHL DUP2 MSTORE PUSH1 0x4 ADD PUSH1 0x20 PUSH1 0x40 MLOAD DUP1 DUP4 SUB DUP2 DUP7 GAS STATICCALL ISZERO DUP1 ISZERO PUSH2 0x4AB JUMPI RETURNDATASIZE PUSH1 0x0 DUP1 RETURNDATACOPY RETURNDATASIZE PUSH1 0x0 REVERT JUMPDEST POP POP POP POP PUSH1 0x40 MLOAD RETURNDATASIZE PUSH1 0x1F NOT PUSH1 0x1F DUP3 ADD AND DUP3 ADD DUP1 PUSH1 0x40 MSTORE POP DUP2 ADD SWAP1 PUSH2 0x4CF SWAP2 SWAP1 PUSH2 0x1486 JUMP JUMPDEST SWAP1 POP SWAP1 JUMP JUMPDEST PUSH1 0x2 SLOAD PUSH1 0x40 MLOAD PUSH4 0x1D512A91 PUSH1 0xE2 SHL DUP2 MSTORE CALLER PUSH1 0x4 DUP3 ADD MSTORE PUSH1 0x0 SWAP2 PUSH1 0x1 PUSH1 0x1 PUSH1 0xA0 SHL SUB AND SWAP1 PUSH4 0x7544AA44 SWAP1 PUSH1 0x24 ADD PUSH1 0x20 PUSH1 0x40 MLOAD DUP1 DUP4 SUB DUP2 DUP7 GAS STATICCALL ISZERO DUP1 ISZERO PUSH2 0x51D JUMPI RETURNDATASIZE PUSH1 0x0 DUP1 RETURNDATACOPY RETURNDATASIZE PUSH1 0x0 REVERT JUMPDEST POP POP POP POP PUSH1 0x40 MLOAD RETURNDATASIZE PUSH1 0x1F NOT PUSH1 0x1F DUP3 ADD AND DUP3 ADD DUP1 PUSH1 0x40 MSTORE POP DUP2 ADD SWAP1 PUSH2 0x541 SWAP2 SWAP1 PUSH2 0x1486 JUMP JUMPDEST PUSH1 0x0 SLOAD PUSH1 0x40 MLOAD PUSH4 0x41976E09 PUSH1 0xE0 SHL DUP2 MSTORE PUSH1 0x1 PUSH1 0x1 PUSH1 0xA0 SHL SUB DUP6 DUP2 AND PUSH1 0x4 DUP4 ADD MSTORE DUP7 SWAP3 AND SWAP1 PUSH4 0x41976E09 SWAP1 PUSH1 0x24 ADD PUSH1 0x20 PUSH1 0x40 MLOAD DUP1 DUP4 SUB DUP2 DUP7 GAS STATICCALL ISZERO DUP1 ISZERO PUSH2 0x58B JUMPI RETURNDATASIZE PUSH1 0x0 DUP1 RETURNDATACOPY RETURNDATASIZE PUSH1 0x0 REVERT JUMPDEST POP POP POP POP PUSH1 0x40 MLOAD RETURNDATASIZE PUSH1 0x1F NOT PUSH1 0x1F DUP3 ADD AND DUP3 ADD DUP1 PUSH1 0x40 MSTORE POP DUP2 ADD SWAP1 PUSH2 0x5AF SWAP2 SWAP1 PUSH2 0x1486 JUMP JUMPDEST PUSH2 0x5B9 SWAP2 SWAP1 PUSH2 0x14B5 JUMP JUMPDEST PUSH2 0x5C3 SWAP2 SWAP1 PUSH2 0x14D4 JUMP JUMPDEST PUSH1 0x0 DUP1 SLOAD PUSH1 0x40 MLOAD PUSH4 0x41976E09 PUSH1 0xE0 SHL DUP2 MSTORE PUSH1 0x1 PUSH1 0x1 PUSH1 0xA0 SHL SUB DUP9 DUP2 AND PUSH1 0x4 DUP4 ADD MSTORE SWAP4 SWAP5 POP SWAP2 SWAP3 DUP9 SWAP3 SWAP2 AND SWAP1 PUSH4 0x41976E09 SWAP1 PUSH1 0x24 ADD PUSH1 0x20 PUSH1 0x40 MLOAD DUP1 DUP4 SUB DUP2 DUP7 GAS STATICCALL ISZERO DUP1 ISZERO PUSH2 0x614 JUMPI RETURNDATASIZE PUSH1 0x0 DUP1 RETURNDATACOPY RETURNDATASIZE PUSH1 0x0 REVERT JUMPDEST POP POP POP POP PUSH1 0x40 MLOAD RETURNDATASIZE PUSH1 0x1F NOT PUSH1 0x1F DUP3 ADD AND DUP3 ADD DUP1 PUSH1 0x40 MSTORE POP DUP2 ADD SWAP1 PUSH2 0x638 SWAP2 SWAP1 PUSH2 0x1486 JUMP JUMPDEST PUSH2 0x642 SWAP2 SWAP1 PUSH2 0x14B5 JUMP JUMPDEST SWAP1 POP PUSH1 0x2 PUSH1 0x0 SWAP1 SLOAD SWAP1 PUSH2 0x100 EXP SWAP1 DIV PUSH1 0x1 PUSH1 0x1 PUSH1 0xA0 SHL SUB AND PUSH1 0x1 PUSH1 0x1 PUSH1 0xA0 SHL SUB AND PUSH4 0x9404954 PUSH1 0x40 MLOAD DUP2 PUSH4 0xFFFFFFFF AND PUSH1 0xE0 SHL DUP2 MSTORE PUSH1 0x4 ADD PUSH1 0x20 PUSH1 0x40 MLOAD DUP1 DUP4 SUB DUP2 DUP7 GAS STATICCALL ISZERO DUP1 ISZERO PUSH2 0x697 JUMPI RETURNDATASIZE PUSH1 0x0 DUP1 RETURNDATACOPY RETURNDATASIZE PUSH1 0x0 REVERT JUMPDEST POP POP POP POP PUSH1 0x40 MLOAD RETURNDATASIZE PUSH1 0x1F NOT PUSH1 0x1F DUP3 ADD AND DUP3 ADD DUP1 PUSH1 0x40 MSTORE POP DUP2 ADD SWAP1 PUSH2 0x6BB SWAP2 SWAP1 PUSH2 0x1486 JUMP JUMPDEST PUSH2 0x6C5 SWAP1 DUP3 PUSH2 0x14B5 JUMP JUMPDEST DUP3 LT ISZERO PUSH2 0x711 JUMPI PUSH1 0x40 MLOAD PUSH3 0x461BCD PUSH1 0xE5 SHL DUP2 MSTORE PUSH1 0x20 PUSH1 0x4 DUP3 ADD MSTORE PUSH1 0x15 PUSH1 0x24 DUP3 ADD MSTORE PUSH21 0x1B9BDD08195B9BDD59DA0818DBDB1B185D195C985B PUSH1 0x5A SHL PUSH1 0x44 DUP3 ADD MSTORE PUSH1 0x64 ADD JUMPDEST PUSH1 0x40 MLOAD DUP1 SWAP2 SUB SWAP1 REVERT JUMPDEST PUSH1 0x2 SLOAD PUSH1 0x40 MLOAD PUSH4 0xF970C3B7 PUSH1 0xE0 SHL DUP2 MSTORE CALLER PUSH1 0x4 DUP3 ADD MSTORE PUSH1 0x1 PUSH1 0x1 PUSH1 0xA0 SHL SUB DUP6 DUP2 AND PUSH1 0x24 DUP4 ADD MSTORE PUSH1 0x44 DUP3 ADD DUP8 SWAP1 MSTORE SWAP1 SWAP2 AND SWAP1 PUSH4 0xF970C3B7 SWAP1 PUSH1 0x64 ADD PUSH1 0x0 PUSH1 0x40 MLOAD DUP1 DUP4 SUB DUP2 PUSH1 0x0 DUP8 DUP1 EXTCODESIZE ISZERO DUP1 ISZERO PUSH2 0x765 JUMPI PUSH1 0x0 DUP1 REVERT JUMPDEST POP GAS CALL ISZERO DUP1 ISZERO PUSH2 0x779 JUMPI RETURNDATASIZE PUSH1 0x0 DUP1 RETURNDATACOPY RETURNDATASIZE PUSH1 0x0 REVERT JUMPDEST POP POP PUSH1 0x1 SLOAD PUSH1 0x40 MLOAD PUSH4 0xFC4F78B9 PUSH1 0xE0 SHL DUP2 MSTORE CALLER PUSH1 0x4 DUP3 ADD MSTORE PUSH1 0x1 PUSH1 0x1 PUSH1 0xA0 SHL SUB DUP10 DUP2 AND PUSH1 0x24 DUP4 ADD MSTORE PUSH1 0x44 DUP3 ADD DUP12 SWAP1 MSTORE SWAP1 SWAP2 AND SWAP3 POP PUSH4 0xFC4F78B9 SWAP2 POP PUSH1 0x64 ADD PUSH1 0x0 PUSH1 0x40 MLOAD DUP1 DUP4 SUB DUP2 PUSH1 0x0 DUP8 DUP1 EXTCODESIZE ISZERO DUP1 ISZERO PUSH2 0x7D1 JUMPI PUSH1 0x0 DUP1 REVERT JUMPDEST POP GAS CALL ISZERO DUP1 ISZERO PUSH2 0x7E5 JUMPI RETURNDATASIZE PUSH1 0x0 DUP1 RETURNDATACOPY RETURNDATASIZE PUSH1 0x0 REVERT JUMPDEST POP POP PUSH1 0x40 DUP1 MLOAD CALLER DUP2 MSTORE PUSH1 0x20 DUP2 ADD DUP11 SWAP1 MSTORE PUSH1 0x1 PUSH1 0x1 PUSH1 0xA0 SHL SUB DUP10 DUP2 AND DUP3 DUP5 ADD MSTORE PUSH1 0x60 DUP3 ADD DUP10 SWAP1 MSTORE DUP8 AND PUSH1 0x80 DUP3 ADD MSTORE SWAP1 MLOAD PUSH32 0xEA8631408D071CDC565DFA37DCB32450C4C85EE9A4142ED14DF1387D7C2A4327 SWAP4 POP SWAP1 DUP2 SWAP1 SUB PUSH1 0xA0 ADD SWAP2 POP LOG1 CALLER PUSH1 0x0 SWAP1 DUP2 MSTORE PUSH1 0x7 PUSH1 0x20 SWAP1 DUP2 MSTORE PUSH1 0x40 DUP1 DUP4 KECCAK256 PUSH1 0x1 PUSH1 0x1 PUSH1 0xA0 SHL SUB DUP10 AND DUP5 MSTORE SWAP1 SWAP2 MSTORE DUP2 KECCAK256 DUP1 SLOAD DUP9 SWAP3 SWAP1 PUSH2 0x874 SWAP1 DUP5 SWAP1 PUSH2 0x14D4 JUMP JUMPDEST SWAP1 SWAP2 SSTORE POP POP CALLER PUSH1 0x0 SWAP1 DUP2 MSTORE PUSH1 0x6 PUSH1 0x20 SWAP1 DUP2 MSTORE PUSH1 0x40 DUP3 KECCAK256 DUP1 SLOAD PUSH1 0x1 DUP2 ADD DUP3 SSTORE SWAP1 DUP4 MSTORE SWAP2 KECCAK256 ADD DUP1 SLOAD PUSH1 0x1 PUSH1 0x1 PUSH1 0xA0 SHL SUB NOT AND PUSH1 0x1 PUSH1 0x1 PUSH1 0xA0 SHL SUB SWAP7 SWAP1 SWAP7 AND SWAP6 SWAP1 SWAP6 OR SWAP1 SWAP5 SSTORE POP POP POP POP POP JUMP JUMPDEST PUSH1 0x0 DUP3 GT PUSH2 0x90E JUMPI PUSH1 0x40 MLOAD PUSH3 0x461BCD PUSH1 0xE5 SHL DUP2 MSTORE PUSH1 0x20 PUSH1 0x4 DUP3 ADD MSTORE PUSH1 0x18 PUSH1 0x24 DUP3 ADD MSTORE PUSH32 0x6465706F736974206D75737420626520706F7369746976650000000000000000 PUSH1 0x44 DUP3 ADD MSTORE PUSH1 0x64 ADD PUSH2 0x708 JUMP JUMPDEST PUSH1 0x4 DUP1 SLOAD PUSH1 0x40 MLOAD PUSH4 0xD4D1513 PUSH1 0xE0 SHL DUP2 MSTORE CALLER SWAP3 DUP2 ADD SWAP3 SWAP1 SWAP3 MSTORE PUSH1 0x24 DUP3 ADD DUP5 SWAP1 MSTORE PUSH1 0x1 PUSH1 0x1 PUSH1 0xA0 SHL SUB DUP4 DUP2 AND PUSH1 0x44 DUP5 ADD MSTORE AND SWAP1 PUSH4 0xD4D1513 SWAP1 PUSH1 0x64 ADD PUSH1 0x0 PUSH1 0x40 MLOAD DUP1 DUP4 SUB DUP2 PUSH1 0x0 DUP8 DUP1 EXTCODESIZE ISZERO DUP1 ISZERO PUSH2 0x963 JUMPI PUSH1 0x0 DUP1 REVERT JUMPDEST POP GAS CALL ISZERO DUP1 ISZERO PUSH2 0x977 JUMPI RETURNDATASIZE PUSH1 0x0 DUP1 RETURNDATACOPY RETURNDATASIZE PUSH1 0x0 REVERT JUMPDEST POP POP PUSH1 0x1 SLOAD PUSH1 0x40 MLOAD PUSH4 0x2C3D2855 PUSH1 0xE0 SHL DUP2 MSTORE CALLER PUSH1 0x4 DUP3 ADD MSTORE PUSH1 0x1 PUSH1 0x1 PUSH1 0xA0 SHL SUB DUP6 DUP2 AND PUSH1 0x24 DUP4 ADD MSTORE PUSH1 0x44 DUP3 ADD DUP8 SWAP1 MSTORE PUSH1 0x0 PUSH1 0x64 DUP4 ADD MSTORE SWAP1 SWAP2 AND SWAP3 POP PUSH4 0x2C3D2855 SWAP2 POP PUSH1 0x84 ADD PUSH1 0x0 PUSH1 0x40 MLOAD DUP1 DUP4 SUB DUP2 PUSH1 0x0 DUP8 DUP1 EXTCODESIZE ISZERO DUP1 ISZERO PUSH2 0x9D6 JUMPI PUSH1 0x0 DUP1 REVERT JUMPDEST POP GAS CALL ISZERO DUP1 ISZERO PUSH2 0x9EA JUMPI RETURNDATASIZE PUSH1 0x0 DUP1 RETURNDATACOPY RETURNDATASIZE PUSH1 0x0 REVERT JUMPDEST POP POP POP POP POP POP JUMP JUMPDEST CALLER PUSH1 0x0 SWAP1 DUP2 MSTORE PUSH1 0x7 PUSH1 0x20 SWAP1 DUP2 MSTORE PUSH1 0x40 DUP1 DUP4 KECCAK256 PUSH1 0x1 PUSH1 0x1 PUSH1 0xA0 SHL SUB DUP7 AND DUP5 MSTORE SWAP1 SWAP2 MSTORE SWAP1 KECCAK256 SLOAD DUP2 GT ISZERO PUSH2 0xA65 JUMPI PUSH1 0x40 MLOAD PUSH3 0x461BCD PUSH1 0xE5 SHL DUP2 MSTORE PUSH1 0x20 PUSH1 0x4 DUP3 ADD MSTORE PUSH1 0x1B PUSH1 0x24 DUP3 ADD MSTORE PUSH32 0x52657475726E6564206D6F7265207468616E20626F72726F7765640000000000 PUSH1 0x44 DUP3 ADD MSTORE PUSH1 0x64 ADD PUSH2 0x708 JUMP JUMPDEST PUSH1 0x1 DUP1 SLOAD PUSH1 0x40 MLOAD PUSH4 0x2C3D2855 PUSH1 0xE0 SHL DUP2 MSTORE CALLER PUSH1 0x4 DUP3 ADD MSTORE PUSH1 0x1 PUSH1 0x1 PUSH1 0xA0 SHL SUB DUP6 DUP2 AND PUSH1 0x24 DUP4 ADD MSTORE PUSH1 0x44 DUP3 ADD DUP6 SWAP1 MSTORE PUSH1 0x64 DUP3 ADD SWAP4 SWAP1 SWAP4 MSTORE SWAP2 AND SWAP1 PUSH4 0x2C3D2855 SWAP1 PUSH1 0x84 ADD PUSH1 0x0 PUSH1 0x40 MLOAD DUP1 DUP4 SUB DUP2 PUSH1 0x0 DUP8 DUP1 EXTCODESIZE ISZERO DUP1 ISZERO PUSH2 0xAC1 JUMPI PUSH1 0x0 DUP1 REVERT JUMPDEST POP GAS CALL ISZERO DUP1 ISZERO PUSH2 0xAD5 JUMPI RETURNDATASIZE PUSH1 0x0 DUP1 RETURNDATACOPY RETURNDATASIZE PUSH1 0x0 REVERT JUMPDEST POP POP CALLER PUSH1 0x0 SWAP1 DUP2 MSTORE PUSH1 0x7 PUSH1 0x20 SWAP1 DUP2 MSTORE PUSH1 0x40 DUP1 DUP4 KECCAK256 PUSH1 0x1 PUSH1 0x1 PUSH1 0xA0 SHL SUB DUP9 AND DUP5 MSTORE SWAP1 SWAP2 MSTORE DUP2 KECCAK256 DUP1 SLOAD DUP6 SWAP5 POP SWAP1 SWAP3 POP PUSH2 0xB0D SWAP1 DUP5 SWAP1 PUSH2 0x14EC JUMP JUMPDEST SWAP1 SWAP2 SSTORE POP POP CALLER PUSH1 0x0 SWAP1 DUP2 MSTORE PUSH1 0x7 PUSH1 0x20 SWAP1 DUP2 MSTORE PUSH1 0x40 DUP1 DUP4 KECCAK256 PUSH1 0x1 PUSH1 0x1 PUSH1 0xA0 SHL SUB DUP7 AND DUP5 MSTORE SWAP1 SWAP2 MSTORE SWAP1 KECCAK256 SLOAD PUSH2 0xB5F JUMPI CALLER PUSH1 0x0 SWAP1 DUP2 MSTORE PUSH1 0x7 PUSH1 0x20 SWAP1 DUP2 MSTORE PUSH1 0x40 DUP1 DUP4 KECCAK256 PUSH1 0x1 PUSH1 0x1 PUSH1 0xA0 SHL SUB DUP7 AND DUP5 MSTORE SWAP1 SWAP2 MSTORE DUP2 KECCAK256 SSTORE JUMPDEST POP POP JUMP JUMPDEST PUSH1 0x0 PUSH1 0x4 PUSH1 0x0 SWAP1 SLOAD SWAP1 PUSH2 0x100 EXP SWAP1 DIV PUSH1 0x1 PUSH1 0x1 PUSH1 0xA0 SHL SUB AND PUSH1 0x1 PUSH1 0x1 PUSH1 0xA0 SHL SUB AND PUSH4 0x33D57CDC PUSH1 0x40 MLOAD DUP2 PUSH4 0xFFFFFFFF AND PUSH1 0xE0 SHL DUP2 MSTORE PUSH1 0x4 ADD PUSH1 0x20 PUSH1 0x40 MLOAD DUP1 DUP4 SUB DUP2 DUP7 GAS STATICCALL ISZERO DUP1 ISZERO PUSH2 0x4AB JUMPI RETURNDATASIZE PUSH1 0x0 DUP1 RETURNDATACOPY RETURNDATASIZE PUSH1 0x0 REVERT JUMPDEST PUSH1 0x0 DUP1 SLOAD PUSH1 0x40 MLOAD PUSH4 0x41976E09 PUSH1 0xE0 SHL DUP2 MSTORE PUSH1 0x1 PUSH1 0x1 PUSH1 0xA0 SHL SUB DUP6 DUP2 AND PUSH1 0x4 DUP4 ADD MSTORE SWAP1 SWAP2 AND SWAP1 PUSH4 0x41976E09 SWAP1 PUSH1 0x24 ADD PUSH1 0x20 PUSH1 0x40 MLOAD DUP1 DUP4 SUB DUP2 DUP7 GAS STATICCALL ISZERO DUP1 ISZERO PUSH2 0xC03 JUMPI RETURNDATASIZE PUSH1 0x0 DUP1 RETURNDATACOPY RETURNDATASIZE PUSH1 0x0 REVERT JUMPDEST POP POP POP POP PUSH1 0x40 MLOAD RETURNDATASIZE PUSH1 0x1F NOT PUSH1 0x1F DUP3 ADD AND DUP3 ADD DUP1 PUSH1 0x40 MSTORE POP DUP2 ADD SWAP1 PUSH2 0xC27 SWAP2 SWAP1 PUSH2 0x1486 JUMP JUMPDEST PUSH1 0x1 SLOAD PUSH1 0x40 MLOAD PUSH4 0xFCE3E8E7 PUSH1 0xE0 SHL DUP2 MSTORE PUSH1 0x1 PUSH1 0x1 PUSH1 0xA0 SHL SUB DUP7 DUP2 AND PUSH1 0x4 DUP4 ADD MSTORE SWAP3 SWAP4 POP SWAP2 AND SWAP1 PUSH4 0xFCE3E8E7 SWAP1 PUSH1 0x24 ADD PUSH1 0x20 PUSH1 0x40 MLOAD DUP1 DUP4 SUB DUP2 DUP7 GAS STATICCALL ISZERO DUP1 ISZERO PUSH2 0xC73 JUMPI RETURNDATASIZE PUSH1 0x0 DUP1 RETURNDATACOPY RETURNDATASIZE PUSH1 0x0 REVERT JUMPDEST POP POP POP POP PUSH1 0x40 MLOAD RETURNDATASIZE PUSH1 0x1F NOT PUSH1 0x1F DUP3 ADD AND DUP3 ADD DUP1 PUSH1 0x40 MSTORE POP DUP2 ADD SWAP1 PUSH2 0xC97 SWAP2 SWAP1 PUSH2 0x1486 JUMP JUMPDEST DUP3 GT ISZERO PUSH2 0xD01 JUMPI PUSH1 0x40 MLOAD PUSH3 0x461BCD PUSH1 0xE5 SHL DUP2 MSTORE PUSH1 0x20 PUSH1 0x4 DUP3 ADD MSTORE PUSH1 0x32 PUSH1 0x24 DUP3 ADD MSTORE PUSH32 0x557365722063616E6E6F742072656465656D206D6F7265207468616E20746865 PUSH1 0x44 DUP3 ADD MSTORE PUSH18 0x20617661696C61626C652062616C616E6365 PUSH1 0x70 SHL PUSH1 0x64 DUP3 ADD MSTORE PUSH1 0x84 ADD PUSH2 0x708 JUMP JUMPDEST PUSH1 0x4 DUP1 SLOAD PUSH1 0x40 DUP1 MLOAD PUSH4 0xCF55F37 PUSH1 0xE2 SHL DUP2 MSTORE SWAP1 MLOAD PUSH1 0x0 SWAP4 DUP6 SWAP4 PUSH1 0x1 PUSH1 0x1 PUSH1 0xA0 SHL SUB AND SWAP3 PUSH4 0x33D57CDC SWAP3 DUP2 DUP4 ADD SWAP3 PUSH1 0x20 SWAP3 DUP3 SWAP1 SUB ADD DUP2 DUP7 GAS STATICCALL ISZERO DUP1 ISZERO PUSH2 0xD4A JUMPI RETURNDATASIZE PUSH1 0x0 DUP1 RETURNDATACOPY RETURNDATASIZE PUSH1 0x0 REVERT JUMPDEST POP POP POP POP PUSH1 0x40 MLOAD RETURNDATASIZE PUSH1 0x1F NOT PUSH1 0x1F DUP3 ADD AND DUP3 ADD DUP1 PUSH1 0x40 MSTORE POP DUP2 ADD SWAP1 PUSH2 0xD6E SWAP2 SWAP1 PUSH2 0x1486 JUMP JUMPDEST PUSH1 0x4 DUP1 SLOAD PUSH1 0x40 MLOAD PUSH4 0x70A08231 PUSH1 0xE0 SHL DUP2 MSTORE CALLER SWAP3 DUP2 ADD SWAP3 SWAP1 SWAP3 MSTORE PUSH1 0x1 PUSH1 0x1 PUSH1 0xA0 SHL SUB AND SWAP1 PUSH4 0x70A08231 SWAP1 PUSH1 0x24 ADD PUSH1 0x20 PUSH1 0x40 MLOAD DUP1 DUP4 SUB DUP2 DUP7 GAS STATICCALL ISZERO DUP1 ISZERO PUSH2 0xDB7 JUMPI RETURNDATASIZE PUSH1 0x0 DUP1 RETURNDATACOPY RETURNDATASIZE PUSH1 0x0 REVERT JUMPDEST POP POP POP POP PUSH1 0x40 MLOAD RETURNDATASIZE PUSH1 0x1F NOT PUSH1 0x1F DUP3 ADD AND DUP3 ADD DUP1 PUSH1 0x40 MSTORE POP DUP2 ADD SWAP1 PUSH2 0xDDB SWAP2 SWAP1 PUSH2 0x1486 JUMP JUMPDEST PUSH2 0xDE5 SWAP2 SWAP1 PUSH2 0x14B5 JUMP JUMPDEST PUSH2 0xDEF SWAP2 SWAP1 PUSH2 0x1503 JUMP JUMPDEST SWAP1 POP DUP3 DUP2 LT ISZERO PUSH2 0xE55 JUMPI PUSH1 0x40 MLOAD PUSH3 0x461BCD PUSH1 0xE5 SHL DUP2 MSTORE PUSH1 0x20 PUSH1 0x4 DUP3 ADD MSTORE PUSH1 0x2B PUSH1 0x24 DUP3 ADD MSTORE PUSH32 0x43616E6E6F742072656465656D206D6F726520746F6B656E73207468616E206E PUSH1 0x44 DUP3 ADD MSTORE PUSH11 0x1D5B58995C881BDDDB9959 PUSH1 0xAA SHL PUSH1 0x64 DUP3 ADD MSTORE PUSH1 0x84 ADD PUSH2 0x708 JUMP JUMPDEST PUSH1 0x0 PUSH1 0x4 PUSH1 0x0 SWAP1 SLOAD SWAP1 PUSH2 0x100 EXP SWAP1 DIV PUSH1 0x1 PUSH1 0x1 PUSH1 0xA0 SHL SUB AND PUSH1 0x1 PUSH1 0x1 PUSH1 0xA0 SHL SUB AND PUSH4 0x33D57CDC PUSH1 0x40 MLOAD DUP2 PUSH4 0xFFFFFFFF AND PUSH1 0xE0 SHL DUP2 MSTORE PUSH1 0x4 ADD PUSH1 0x20 PUSH1 0x40 MLOAD DUP1 DUP4 SUB DUP2 DUP7 GAS STATICCALL ISZERO DUP1 ISZERO PUSH2 0xEAA JUMPI RETURNDATASIZE PUSH1 0x0 DUP1 RETURNDATACOPY RETURNDATASIZE PUSH1 0x0 REVERT JUMPDEST POP POP POP POP PUSH1 0x40 MLOAD RETURNDATASIZE PUSH1 0x1F NOT PUSH1 0x1F DUP3 ADD AND DUP3 ADD DUP1 PUSH1 0x40 MSTORE POP DUP2 ADD SWAP1 PUSH2 0xECE SWAP2 SWAP1 PUSH2 0x1486 JUMP JUMPDEST PUSH2 0xED8 DUP6 DUP6 PUSH2 0x14B5 JUMP JUMPDEST PUSH2 0xEE2 SWAP2 SWAP1 PUSH2 0x1503 JUMP JUMPDEST PUSH1 0x1 SLOAD PUSH1 0x40 MLOAD PUSH4 0x1F97F859 PUSH1 0xE3 SHL DUP2 MSTORE CALLER PUSH1 0x4 DUP3 ADD MSTORE PUSH1 0x1 PUSH1 0x1 PUSH1 0xA0 SHL SUB DUP9 DUP2 AND PUSH1 0x24 DUP4 ADD MSTORE PUSH1 0x44 DUP3 ADD DUP9 SWAP1 MSTORE SWAP3 SWAP4 POP SWAP2 AND SWAP1 PUSH4 0xFCBFC2C8 SWAP1 PUSH1 0x64 ADD PUSH1 0x0 PUSH1 0x40 MLOAD DUP1 DUP4 SUB DUP2 PUSH1 0x0 DUP8 DUP1 EXTCODESIZE ISZERO DUP1 ISZERO PUSH2 0xF38 JUMPI PUSH1 0x0 DUP1 REVERT JUMPDEST POP GAS CALL ISZERO DUP1 ISZERO PUSH2 0xF4C JUMPI RETURNDATASIZE PUSH1 0x0 DUP1 RETURNDATACOPY RETURNDATASIZE PUSH1 0x0 REVERT JUMPDEST POP POP PUSH1 0x4 DUP1 SLOAD PUSH1 0x40 MLOAD PUSH4 0x2770A7EB PUSH1 0xE2 SHL DUP2 MSTORE CALLER SWAP3 DUP2 ADD SWAP3 SWAP1 SWAP3 MSTORE PUSH1 0x24 DUP3 ADD DUP6 SWAP1 MSTORE PUSH1 0x1 PUSH1 0x1 PUSH1 0xA0 SHL SUB AND SWAP3 POP PUSH4 0x9DC29FAC SWAP2 POP PUSH1 0x44 ADD PUSH1 0x0 PUSH1 0x40 MLOAD DUP1 DUP4 SUB DUP2 PUSH1 0x0 DUP8 DUP1 EXTCODESIZE ISZERO DUP1 ISZERO PUSH2 0xF9D JUMPI PUSH1 0x0 DUP1 REVERT JUMPDEST POP GAS CALL ISZERO DUP1 ISZERO PUSH2 0xFB1 JUMPI RETURNDATASIZE PUSH1 0x0 DUP1 RETURNDATACOPY RETURNDATASIZE PUSH1 0x0 REVERT JUMPDEST POP POP POP POP POP POP POP POP POP JUMP JUMPDEST PUSH1 0x2 SLOAD PUSH1 0x40 MLOAD PUSH4 0x1D512A91 PUSH1 0xE2 SHL DUP2 MSTORE PUSH1 0x1 PUSH1 0x1 PUSH1 0xA0 SHL SUB DUP4 DUP2 AND PUSH1 0x4 DUP4 ADD MSTORE PUSH1 0x0 SWAP3 AND SWAP1 PUSH4 0x7544AA44 SWAP1 PUSH1 0x24 ADD PUSH2 0x40F JUMP JUMPDEST PUSH1 0x4 DUP1 SLOAD PUSH1 0x40 MLOAD PUSH4 0x70A08231 PUSH1 0xE0 SHL DUP2 MSTORE PUSH1 0x1 PUSH1 0x1 PUSH1 0xA0 SHL SUB DUP5 DUP2 AND SWAP4 DUP3 ADD SWAP4 SWAP1 SWAP4 MSTORE PUSH1 0x0 SWAP3 SWAP1 SWAP2 AND SWAP1 PUSH4 0x70A08231 SWAP1 PUSH1 0x24 ADD PUSH2 0x40F JUMP JUMPDEST PUSH1 0x2 SLOAD PUSH1 0x40 MLOAD PUSH4 0x2B92A07D PUSH1 0xE0 SHL DUP2 MSTORE PUSH1 0x1 PUSH1 0x1 PUSH1 0xA0 SHL SUB DUP5 DUP2 AND PUSH1 0x4 DUP4 ADD MSTORE DUP4 DUP2 AND PUSH1 0x24 DUP4 ADD MSTORE PUSH1 0x0 SWAP3 AND SWAP1 PUSH4 0x2B92A07D SWAP1 PUSH1 0x44 ADD PUSH1 0x20 PUSH1 0x40 MLOAD DUP1 DUP4 SUB DUP2 DUP7 GAS STATICCALL ISZERO DUP1 ISZERO PUSH2 0x107A JUMPI RETURNDATASIZE PUSH1 0x0 DUP1 RETURNDATACOPY RETURNDATASIZE PUSH1 0x0 REVERT JUMPDEST POP POP POP POP PUSH1 0x40 MLOAD RETURNDATASIZE PUSH1 0x1F NOT PUSH1 0x1F DUP3 ADD AND DUP3 ADD DUP1 PUSH1 0x40 MSTORE POP DUP2 ADD SWAP1 PUSH2 0x109E SWAP2 SWAP1 PUSH2 0x1486 JUMP JUMPDEST SWAP4 SWAP3 POP POP POP JUMP JUMPDEST PUSH1 0x1 SLOAD PUSH1 0x40 MLOAD PUSH4 0xFCE3E8E7 PUSH1 0xE0 SHL DUP2 MSTORE PUSH1 0x1 PUSH1 0x1 PUSH1 0xA0 SHL SUB DUP4 DUP2 AND PUSH1 0x4 DUP4 ADD MSTORE PUSH1 0x0 SWAP3 AND SWAP1 PUSH4 0xFCE3E8E7 SWAP1 PUSH1 0x24 ADD PUSH2 0x40F JUMP JUMPDEST PUSH1 0x0 PUSH1 0x4 PUSH1 0x0 SWAP1 SLOAD SWAP1 PUSH2 0x100 EXP SWAP1 DIV PUSH1 0x1 PUSH1 0x1 PUSH1 0xA0 SHL SUB AND PUSH1 0x1 PUSH1 0x1 PUSH1 0xA0 SHL SUB AND PUSH4 0x18160DDD PUSH1 0x40 MLOAD DUP2 PUSH4 0xFFFFFFFF AND PUSH1 0xE0 SHL DUP2 MSTORE PUSH1 0x4 ADD PUSH1 0x20 PUSH1 0x40 MLOAD DUP1 DUP4 SUB DUP2 DUP7 GAS STATICCALL ISZERO DUP1 ISZERO PUSH2 0x4AB JUMPI RETURNDATASIZE PUSH1 0x0 DUP1 RETURNDATACOPY RETURNDATASIZE PUSH1 0x0 REVERT JUMPDEST PUSH1 0x1 SLOAD PUSH1 0x40 MLOAD PUSH4 0xF8B2CB4F PUSH1 0xE0 SHL DUP2 MSTORE PUSH1 0x1 PUSH1 0x1 PUSH1 0xA0 SHL SUB DUP4 DUP2 AND PUSH1 0x4 DUP4 ADD MSTORE PUSH1 0x0 SWAP3 AND SWAP1 PUSH4 0xF8B2CB4F SWAP1 PUSH1 0x24 ADD PUSH2 0x40F JUMP JUMPDEST PUSH1 0x2 SLOAD PUSH1 0x40 MLOAD PUSH4 0x28D1F893 PUSH1 0xE2 SHL DUP2 MSTORE PUSH1 0x1 PUSH1 0x1 PUSH1 0xA0 SHL SUB DUP4 DUP2 AND PUSH1 0x4 DUP4 ADD MSTORE PUSH1 0x0 SWAP3 AND SWAP1 PUSH4 0xA347E24C SWAP1 PUSH1 0x24 ADD PUSH2 0x40F JUMP JUMPDEST PUSH1 0x1 SLOAD PUSH1 0x40 MLOAD PUSH4 0xDE30F97D PUSH1 0xE0 SHL DUP2 MSTORE PUSH1 0x1 PUSH1 0x1 PUSH1 0xA0 SHL SUB DUP4 DUP2 AND PUSH1 0x4 DUP4 ADD MSTORE PUSH1 0x0 SWAP3 AND SWAP1 PUSH4 0xDE30F97D SWAP1 PUSH1 0x24 ADD PUSH2 0x40F JUMP JUMPDEST PUSH1 0x1 PUSH1 0x1 PUSH1 0xA0 SHL SUB DUP2 AND PUSH1 0x0 SWAP1 DUP2 MSTORE PUSH1 0x6 PUSH1 0x20 MSTORE PUSH1 0x40 DUP2 KECCAK256 SLOAD DUP2 SWAP1 DUP2 JUMPDEST DUP2 DUP2 PUSH2 0xFFFF AND LT ISZERO PUSH2 0x133B JUMPI PUSH1 0x0 DUP1 SLOAD PUSH1 0x1 PUSH1 0x1 PUSH1 0xA0 SHL SUB DUP8 DUP2 AND DUP4 MSTORE PUSH1 0x6 PUSH1 0x20 MSTORE PUSH1 0x40 SWAP1 SWAP3 KECCAK256 DUP1 SLOAD PUSH8 0xDE0B6B3A7640000 SWAP4 SWAP1 SWAP3 AND SWAP2 PUSH4 0x41976E09 SWAP2 SWAP1 PUSH2 0xFFFF DUP7 AND SWAP1 DUP2 LT PUSH2 0x1235 JUMPI PUSH2 0x1235 PUSH2 0x1525 JUMP JUMPDEST PUSH1 0x0 SWAP2 DUP3 MSTORE PUSH1 0x20 SWAP1 SWAP2 KECCAK256 ADD SLOAD PUSH1 0x40 MLOAD PUSH1 0xE0 DUP4 SWAP1 SHL PUSH1 0x1 PUSH1 0x1 PUSH1 0xE0 SHL SUB NOT AND DUP2 MSTORE PUSH1 0x1 PUSH1 0x1 PUSH1 0xA0 SHL SUB SWAP1 SWAP2 AND PUSH1 0x4 DUP3 ADD MSTORE PUSH1 0x24 ADD PUSH1 0x20 PUSH1 0x40 MLOAD DUP1 DUP4 SUB DUP2 DUP7 GAS STATICCALL ISZERO DUP1 ISZERO PUSH2 0x1285 JUMPI RETURNDATASIZE PUSH1 0x0 DUP1 RETURNDATACOPY RETURNDATASIZE PUSH1 0x0 REVERT JUMPDEST POP POP POP POP PUSH1 0x40 MLOAD RETURNDATASIZE PUSH1 0x1F NOT PUSH1 0x1F DUP3 ADD AND DUP3 ADD DUP1 PUSH1 0x40 MSTORE POP DUP2 ADD SWAP1 PUSH2 0x12A9 SWAP2 SWAP1 PUSH2 0x1486 JUMP JUMPDEST PUSH1 0x1 PUSH1 0x1 PUSH1 0xA0 SHL SUB DUP8 AND PUSH1 0x0 SWAP1 DUP2 MSTORE PUSH1 0x7 PUSH1 0x20 SWAP1 DUP2 MSTORE PUSH1 0x40 DUP1 DUP4 KECCAK256 PUSH1 0x6 SWAP1 SWAP3 MSTORE DUP3 KECCAK256 DUP1 SLOAD SWAP2 SWAP3 SWAP2 PUSH2 0xFFFF DUP8 AND SWAP1 DUP2 LT PUSH2 0x12E4 JUMPI PUSH2 0x12E4 PUSH2 0x1525 JUMP JUMPDEST PUSH1 0x0 SWAP2 DUP3 MSTORE PUSH1 0x20 DUP1 DUP4 KECCAK256 SWAP1 SWAP2 ADD SLOAD PUSH1 0x1 PUSH1 0x1 PUSH1 0xA0 SHL SUB AND DUP4 MSTORE DUP3 ADD SWAP3 SWAP1 SWAP3 MSTORE PUSH1 0x40 ADD SWAP1 KECCAK256 SLOAD PUSH2 0x1313 SWAP2 SWAP1 PUSH2 0x14B5 JUMP JUMPDEST PUSH2 0x131D SWAP2 SWAP1 PUSH2 0x1503 JUMP JUMPDEST PUSH2 0x1327 SWAP1 DUP5 PUSH2 0x14D4 JUMP JUMPDEST SWAP3 POP DUP1 PUSH2 0x1333 DUP2 PUSH2 0x153B JUMP JUMPDEST SWAP2 POP POP PUSH2 0x11E3 JUMP JUMPDEST POP SWAP1 SWAP4 SWAP3 POP POP POP JUMP JUMPDEST DUP1 CALLDATALOAD PUSH1 0x1 PUSH1 0x1 PUSH1 0xA0 SHL SUB DUP2 AND DUP2 EQ PUSH2 0x135B JUMPI PUSH1 0x0 DUP1 REVERT JUMPDEST SWAP2 SWAP1 POP JUMP JUMPDEST PUSH1 0x0 PUSH1 0x20 DUP3 DUP5 SUB SLT ISZERO PUSH2 0x1372 JUMPI PUSH1 0x0 DUP1 REVERT JUMPDEST PUSH2 0x109E DUP3 PUSH2 0x1344 JUMP JUMPDEST PUSH1 0x0 DUP1 PUSH1 0x0 DUP1 PUSH1 0x80 DUP6 DUP8 SUB SLT ISZERO PUSH2 0x1391 JUMPI PUSH1 0x0 DUP1 REVERT JUMPDEST DUP5 CALLDATALOAD SWAP4 POP PUSH2 0x13A1 PUSH1 0x20 DUP7 ADD PUSH2 0x1344 JUMP JUMPDEST SWAP3 POP PUSH1 0x40 DUP6 ADD CALLDATALOAD SWAP2 POP PUSH2 0x13B6 PUSH1 0x60 DUP7 ADD PUSH2 0x1344 JUMP JUMPDEST SWAP1 POP SWAP3 SWAP6 SWAP2 SWAP5 POP SWAP3 POP JUMP JUMPDEST PUSH1 0x0 DUP1 PUSH1 0x40 DUP4 DUP6 SUB SLT ISZERO PUSH2 0x13D4 JUMPI PUSH1 0x0 DUP1 REVERT JUMPDEST DUP3 CALLDATALOAD SWAP2 POP PUSH2 0x13E4 PUSH1 0x20 DUP5 ADD PUSH2 0x1344 JUMP JUMPDEST SWAP1 POP SWAP3 POP SWAP3 SWAP1 POP JUMP JUMPDEST PUSH1 0x0 DUP1 PUSH1 0x40 DUP4 DUP6 SUB SLT ISZERO PUSH2 0x1400 JUMPI PUSH1 0x0 DUP1 REVERT JUMPDEST PUSH2 0x1409 DUP4 PUSH2 0x1344 JUMP JUMPDEST SWAP5 PUSH1 0x20 SWAP4 SWAP1 SWAP4 ADD CALLDATALOAD SWAP4 POP POP POP JUMP JUMPDEST PUSH1 0x0 DUP1 PUSH1 0x40 DUP4 DUP6 SUB SLT ISZERO PUSH2 0x142A JUMPI PUSH1 0x0 DUP1 REVERT JUMPDEST PUSH2 0x1433 DUP4 PUSH2 0x1344 JUMP JUMPDEST SWAP2 POP PUSH2 0x13E4 PUSH1 0x20 DUP5 ADD PUSH2 0x1344 JUMP JUMPDEST PUSH1 0x0 DUP1 PUSH1 0x0 PUSH1 0x60 DUP5 DUP7 SUB SLT ISZERO PUSH2 0x1456 JUMPI PUSH1 0x0 DUP1 REVERT JUMPDEST PUSH2 0x145F DUP5 PUSH2 0x1344 JUMP JUMPDEST SWAP3 POP PUSH1 0x20 DUP5 ADD CALLDATALOAD SWAP2 POP PUSH1 0x40 DUP5 ADD CALLDATALOAD DUP1 ISZERO ISZERO DUP2 EQ PUSH2 0x147B JUMPI PUSH1 0x0 DUP1 REVERT JUMPDEST DUP1 SWAP2 POP POP SWAP3 POP SWAP3 POP SWAP3 JUMP JUMPDEST PUSH1 0x0 PUSH1 0x20 DUP3 DUP5 SUB SLT ISZERO PUSH2 0x1498 JUMPI PUSH1 0x0 DUP1 REVERT JUMPDEST POP MLOAD SWAP2 SWAP1 POP JUMP JUMPDEST PUSH4 0x4E487B71 PUSH1 0xE0 SHL PUSH1 0x0 MSTORE PUSH1 0x11 PUSH1 0x4 MSTORE PUSH1 0x24 PUSH1 0x0 REVERT JUMPDEST PUSH1 0x0 DUP2 PUSH1 0x0 NOT DIV DUP4 GT DUP3 ISZERO ISZERO AND ISZERO PUSH2 0x14CF JUMPI PUSH2 0x14CF PUSH2 0x149F JUMP JUMPDEST POP MUL SWAP1 JUMP JUMPDEST PUSH1 0x0 DUP3 NOT DUP3 GT ISZERO PUSH2 0x14E7 JUMPI PUSH2 0x14E7 PUSH2 0x149F JUMP JUMPDEST POP ADD SWAP1 JUMP JUMPDEST PUSH1 0x0 DUP3 DUP3 LT ISZERO PUSH2 0x14FE JUMPI PUSH2 0x14FE PUSH2 0x149F JUMP JUMPDEST POP SUB SWAP1 JUMP JUMPDEST PUSH1 0x0 DUP3 PUSH2 0x1520 JUMPI PUSH4 0x4E487B71 PUSH1 0xE0 SHL PUSH1 0x0 MSTORE PUSH1 0x12 PUSH1 0x4 MSTORE PUSH1 0x24 PUSH1 0x0 REVERT JUMPDEST POP DIV SWAP1 JUMP JUMPDEST PUSH4 0x4E487B71 PUSH1 0xE0 SHL PUSH1 0x0 MSTORE PUSH1 0x32 PUSH1 0x4 MSTORE PUSH1 0x24 PUSH1 0x0 REVERT JUMPDEST PUSH1 0x0 PUSH2 0xFFFF DUP1 DUP4 AND DUP2 DUP2 EQ ISZERO PUSH2 0x1553 JUMPI PUSH2 0x1553 PUSH2 0x149F JUMP JUMPDEST PUSH1 0x1 ADD SWAP4 SWAP3 POP POP POP JUMP INVALID LOG2 PUSH5 0x6970667358 0x22 SLT KECCAK256 0xB0 SWAP3 SSTORE LOG2 DUP10 0xB1 0xE7 SELFBALANCE 0xFB 0xFC STOP KECCAK256 0xEA 0x4B PUSH27 0xA63F16105CED9A8AEC6836D2D3B5B8AEFA64736F6C634300080B00 CALLER ","sha1":"f89dbee7fb24b9a2f4e8aefc6da3ac3e3365b0ce","source":"// SPDX-License-Identifier: MIT\n\npragma solidity ^0.8.0;\n\nimport \"@openzeppelin/contracts/utils/math/SafeMath.sol\";\nimport \"@openzeppelin/contracts/token/ERC20/IERC20.sol\";\nimport \"./2_Pool.sol\";\nimport \"./3_Collateral.sol\";\nimport \"./LVRToken.sol\";\nimport \"./Conversion.sol\";\n\ncontract LendingPool {\n    using SafeMath for uint256;\n    Conversion public conversion;\n    //uint256 public collReq = 2;\n\n    event depositEvent(address _user, uint256 _quantity, address _asset);\n    event borrowEvent(\n        address _user,\n        uint256 _borrowed,\n        address _borrowedAsset,\n        uint256 _collateral,\n        address _collateralAsset\n    );\n\n    //public keyword??\n    Pool public pool;\n    Collateral public collateral;\n    address owner;\n    LVRToken public token;\n    // mapping of userAddress to mapping(collatContractAddress -> struct(amount borrowed, time since borrow))\n    // right now only mapping to amount borrowed and in what currency\n\n    mapping(address => mapping(address => uint256)) userColl;\n\n    //array to track what asset addresses user depositied as collateral\n    //mapping to map user to thier array\n    //address[] public addresses;\n    mapping(address => address[]) userBorrowCurrencies;\n    mapping(address => mapping(address => uint256)) public borrowTracker; // check if needed same type of thing in collateral\n\n    constructor() {\n        pool = new Pool();\n        token = new LVRToken(\"TestToken\", \"TST\", address(pool));\n        collateral = new Collateral(address(pool), address(token));\n        conversion = new Conversion();\n        owner = msg.sender;\n    }\n\n    modifier onlyOwner() {\n        require(msg.sender == owner);\n        _;\n    }\n\n    function Deposit(uint256 _quantity, address _asset) public {\n        // uint256 _borrowNow? why not bool?\n        require(_quantity > 0, \"deposit must be positive\");\n        token.mint(msg.sender, _quantity, _asset);\n        pool.depositTransfer(msg.sender, _asset, _quantity, false);\n\n        // // borrowNow should be amount borrowed\n        // if (_borrowNow > 0) {\n        //     uint256 usedCollateral = _quantity - collateral.collReq()*_borrowNow;\n        //     Borrow(_borrowNow, address)\n        // }\n\n        //emit depositEvent(msg.sender, _quantity, _asset);\n    }\n\n    function Withdraw(address _desiredAsset, uint256 _amountToRemove) public {\n        uint256 assetPriceUSD = conversion.getPrice(_desiredAsset);\n\n        //check if enough liquid to send\n        require(\n            _amountToRemove <= pool.getLiquidQuantity(_desiredAsset),\n            \"User cannot redeem more than the available balance\"\n        ); // future this will only check to see if we have any liquid - engine will swap currencies to allow user to withdraw anything they want.\n\n        // total value of currency redeemable by user\n        uint256 totalAssetValueFromOwnedTokens = ((token.balanceOf(msg.sender) *\n            token.tokenDollarValue()) / assetPriceUSD); // Units: N token * USD/token / USD/currency = N currency\n\n        // check that the user is allowed to redeem the amount\n        // seems to be some precision errors\n        require(\n            (totalAssetValueFromOwnedTokens >= _amountToRemove),\n            \"Cannot redeem more tokens than number owned\"\n        );\n\n        uint256 burnNumber = ((assetPriceUSD * _amountToRemove) /\n            token.tokenDollarValue()); // Units: USD/currecny * N currency / (USD/token) = N token\n\n        pool.withdrawTransfer(msg.sender, _desiredAsset, _amountToRemove);\n        token.burn(msg.sender, burnNumber);\n    }\n\n    //this will have to also transfer LVR if they wont to borrow against that.\n    // what about choosing collateral to borrrow against.\n    function Borrow(\n        uint256 _borrowQuantity,\n        address _asset,\n        uint256 _collateralQuantity,\n        address _collateral\n    ) public {\n        // check if deposited collateral + outstanding collateral is enough to cover thier borrow request\n        uint256 usdCollateralValue = (conversion.getPrice(_collateral) *\n            _collateralQuantity) + collateral.collateralValue(msg.sender);\n        uint256 usdBorrowValue = conversion.getPrice(_asset) * _borrowQuantity;\n\n        require(\n            usdCollateralValue >= usdBorrowValue * collateral.collReq(),\n            \"not enough collateral\"\n        );\n        collateral.depositCollateral(\n            msg.sender,\n            _collateral,\n            _collateralQuantity\n        );\n        pool.borrowTransfer(msg.sender, _asset, _borrowQuantity);\n\n        emit borrowEvent(\n            msg.sender,\n            _borrowQuantity,\n            _asset,\n            _collateralQuantity,\n            _collateral\n        );\n        // ledger here or in Pool contract?? there is one in collat, so maybe here just track amount borrowed\n        borrowTracker[msg.sender][_asset] += _borrowQuantity;\n        userBorrowCurrencies[msg.sender].push(_asset);\n    }\n\n    // User repays loan by specifying the asset they are giving back and how much\n    function Repay(address _asset, uint256 _repayQuantity) public {\n        //cant return more than borrowed\n        require(\n            borrowTracker[msg.sender][_asset] >= _repayQuantity,\n            \"Returned more than borrowed\"\n        );\n\n        pool.depositTransfer(msg.sender, _asset, _repayQuantity, true);\n        //Then keep track of how much they ow and subtract that from collateral return?\n\n        /*\nhow lending works: \n-repaying loan involves returning borrowed asset quantity\n-interest still needs to be figured out; \n    -interst valued in USD and translated to coin?\n    -percent of coin borrowed?\n-paying interest will be keeping a piece of thier collat\n-paying out to lenders will involve minting LVR and giving them lvr while adding asset to pool\n\n*/\n\n        borrowTracker[msg.sender][_asset] -= _repayQuantity;\n        if (borrowTracker[msg.sender][_asset] == 0) {\n            delete borrowTracker[msg.sender][_asset];\n        }\n    }\n\n    function unlockCollateral(\n        address _asset,\n        uint256 _quantity,\n        bool _toPool\n    ) public {\n        //check if they have loan value less than collat value/collatQtyReq\n        // require(\n        //     (collateral.collateralValue(msg.sender) -\n        //         (((conversion.getPrice(_asset) * _quantity) / 1) * 10**18)) >=\n        //         collateral.collReq() * totalValueBorrowed(msg.sender),\n        //     \"Cannot withdraw collateral before paying back loan\"\n        // );\n        //integrate fees here- trasnfer collateral minus how much they owe us\n        // collateral.removeCollateral(msg.sender, _asset, _quantity, _toPool);\n        // if (_toPool == true) {\n        //     //Deposit(_quantity, _asset); // will this use msg.sender? or do we need to add a parameter\n        //     //^ wrong- have to just mint instead\n        // }\n    }\n\n    function totalValueBorrowed(address _borrower)\n        public\n        view\n        returns (uint256)\n    {\n        uint256 totalBorrowValue = 0;\n\n        // make this less bits?\n        uint256 numberAddresses = userBorrowCurrencies[_borrower].length;\n        //loop to calculate the value of the pool liquid + borrowed\n        for (uint16 i = 0; i < numberAddresses; i++) {\n            totalBorrowValue =\n                totalBorrowValue +\n                ((borrowTracker[_borrower][userBorrowCurrencies[_borrower][i]] *\n                    conversion.getPrice(userBorrowCurrencies[_borrower][i])) /\n                    (1 * 10**18));\n        }\n\n        return totalBorrowValue;\n\n        //userBorrowCurrencies[msg.sender]\n    }\n\n    // need a ledger of lender tokens so that we can track how much interst hey shoudl get and if they trade away a\n    //  few tokens we dont pay 100% interst, but if they burn them we tske them off thier ledger\n\n    function offerCollateralAssets() public {\n        // just needs to check with the pool to see what assets we can offer\n        //users to use as collateral - called when borrowing (if they deposit\n        //LVR and want to use something else)\n        // to do this we probably need to come up with some reserve rules, etc\n    }\n\n    function getLiquidity(address _token) public view returns (uint256) {\n        return pool.getLiquidQuantity(_token);\n    }\n\n    function getPoolBalance(address _token) public view returns (uint256) {\n        return pool.getBalance(_token);\n    }\n\n    function getLiquidPct(address _token) public view returns (uint256) {\n        return pool.getLiquidPct(_token);\n    }\n\n    function getLockedCollateral(address _token) public view returns (uint256) {\n        return collateral.getCollateralQuantity(_token);\n    }\n\n    function getCollBalance(address _token) public view returns (uint256) {\n        return collateral.getBalance(_token);\n    }\n\n    function getPoolAddr() public view returns (address) {\n        return address(pool);\n    }\n\n    function getCollAddr() public view returns (address) {\n        return address(collateral);\n    }\n\n    function getTokenAddr() public view returns (address) {\n        return address(token);\n    }\n\n    function getTokenDollarValue() public view returns (uint256) {\n        return token.tokenDollarValue();\n    }\n\n    function getPoolValue() public view returns (uint256) {\n        return token.totalPoolValue();\n    }\n\n    function getTotalSupply() public view returns (uint256) {\n        return token.totalSupply();\n    }\n\n    function getBalanceOf(address _user) public view returns (uint256) {\n        return token.balanceOf(_user);\n    }\n\n    function getCollateralValue(address _user) public view returns (uint256) {\n        return collateral.collateralValue(_user);\n    }\n\n    function getOutstandingLoan(address _user, address _asset)\n        public\n        view\n        returns (uint256)\n    {\n        return borrowTracker[_user][_asset];\n    }\n\n    function getUserCollateral(address _user, address _asset)\n        public\n        view\n        returns (uint256)\n    {\n        return collateral.userCollateral(_user, _asset);\n    }\n}\n","sourcePath":"contracts/1_LendingPool.sol","deployment":{"address":"0x778Ce7f8ecBe074590CcA5B15B1E4F54269EcE1c","chainid":"4","blockHeight":10106081}}