{"abi":[{"inputs":[],"stateMutability":"nonpayable","type":"constructor","name":"constructor"},{"anonymous":false,"inputs":[{"indexed":true,"internalType":"bytes32","name":"role","type":"bytes32"},{"indexed":true,"internalType":"bytes32","name":"previousAdminRole","type":"bytes32"},{"indexed":true,"internalType":"bytes32","name":"newAdminRole","type":"bytes32"}],"name":"RoleAdminChanged","type":"event"},{"anonymous":false,"inputs":[{"indexed":true,"internalType":"bytes32","name":"role","type":"bytes32"},{"indexed":true,"internalType":"address","name":"account","type":"address"},{"indexed":true,"internalType":"address","name":"sender","type":"address"}],"name":"RoleGranted","type":"event"},{"anonymous":false,"inputs":[{"indexed":true,"internalType":"bytes32","name":"role","type":"bytes32"},{"indexed":true,"internalType":"address","name":"account","type":"address"},{"indexed":true,"internalType":"address","name":"sender","type":"address"}],"name":"RoleRevoked","type":"event"},{"anonymous":false,"inputs":[{"indexed":false,"internalType":"address","name":"_user","type":"address"},{"indexed":false,"internalType":"uint256","name":"_borrowed","type":"uint256"},{"indexed":false,"internalType":"address","name":"_borrowedAsset","type":"address"},{"indexed":false,"internalType":"uint256","name":"_collateral","type":"uint256"},{"indexed":false,"internalType":"address","name":"_collateralAsset","type":"address"}],"name":"borrowEvent","type":"event"},{"anonymous":false,"inputs":[{"indexed":false,"internalType":"address","name":"_user","type":"address"},{"indexed":false,"internalType":"address","name":"_asset","type":"address"},{"indexed":false,"internalType":"uint256","name":"_quantity","type":"uint256"},{"indexed":false,"internalType":"uint256","name":"_tokensMinted","type":"uint256"}],"name":"depositEvent","type":"event"},{"anonymous":false,"inputs":[{"indexed":false,"internalType":"address","name":"_user","type":"address"},{"indexed":false,"internalType":"address","name":"_asset","type":"address"},{"indexed":false,"internalType":"uint256","name":"_tokensBurned","type":"uint256"}],"name":"redeemEvent","type":"event"},{"anonymous":false,"inputs":[{"indexed":false,"internalType":"address","name":"_user","type":"address"},{"indexed":false,"internalType":"address","name":"_asset","type":"address"},{"indexed":false,"internalType":"uint256","name":"_quantity","type":"uint256"}],"name":"repayEvent","type":"event"},{"anonymous":false,"inputs":[{"indexed":false,"internalType":"address","name":"_user","type":"address"},{"indexed":false,"internalType":"address","name":"_asset","type":"address"},{"indexed":false,"internalType":"uint256","name":"_quantity","type":"uint256"}],"name":"withdrawCollateralEvent","type":"event"},{"inputs":[],"name":"ADMIN_ROLE","outputs":[{"internalType":"bytes32","name":"","type":"bytes32"}],"stateMutability":"view","type":"function"},{"inputs":[{"internalType":"uint256","name":"_borrowQuantity","type":"uint256"},{"internalType":"address","name":"_asset","type":"address"},{"internalType":"uint256","name":"_collateralQuantity","type":"uint256"},{"internalType":"address","name":"_collateral","type":"address"}],"name":"Borrow","outputs":[],"stateMutability":"nonpayable","type":"function"},{"inputs":[],"name":"DEFAULT_ADMIN_ROLE","outputs":[{"internalType":"bytes32","name":"","type":"bytes32"}],"stateMutability":"view","type":"function"},{"inputs":[{"internalType":"uint256","name":"_quantity","type":"uint256"},{"internalType":"address","name":"_asset","type":"address"}],"name":"Deposit","outputs":[],"stateMutability":"nonpayable","type":"function"},{"inputs":[{"internalType":"address","name":"_asset","type":"address"},{"internalType":"uint256","name":"_repayQuantity","type":"uint256"}],"name":"Repay","outputs":[],"stateMutability":"nonpayable","type":"function"},{"inputs":[{"internalType":"address","name":"_asset","type":"address"},{"internalType":"uint256","name":"_tokenQuantity","type":"uint256"}],"name":"Withdraw","outputs":[],"stateMutability":"nonpayable","type":"function"},{"inputs":[{"internalType":"address","name":"","type":"address"},{"internalType":"address","name":"","type":"address"}],"name":"borrowTracker","outputs":[{"internalType":"uint256","name":"principal","type":"uint256"},{"internalType":"uint256","name":"interest","type":"uint256"}],"stateMutability":"view","type":"function"},{"inputs":[{"internalType":"address","name":"_user","type":"address"}],"name":"getBalanceOf","outputs":[{"internalType":"uint256","name":"","type":"uint256"}],"stateMutability":"view","type":"function"},{"inputs":[],"name":"getCollAddr","outputs":[{"internalType":"address","name":"","type":"address"}],"stateMutability":"view","type":"function"},{"inputs":[{"internalType":"address","name":"_token","type":"address"}],"name":"getCollBalance","outputs":[{"internalType":"uint256","name":"","type":"uint256"}],"stateMutability":"view","type":"function"},{"inputs":[{"internalType":"address","name":"_user","type":"address"}],"name":"getCollateralValue","outputs":[{"internalType":"uint256","name":"","type":"uint256"}],"stateMutability":"view","type":"function"},{"inputs":[{"internalType":"address","name":"_asset","type":"address"}],"name":"getInterestQuantity","outputs":[{"internalType":"uint256","name":"","type":"uint256"}],"stateMutability":"view","type":"function"},{"inputs":[{"internalType":"address","name":"_asset","type":"address"}],"name":"getInterestRate","outputs":[{"internalType":"uint256","name":"","type":"uint256"}],"stateMutability":"view","type":"function"},{"inputs":[{"internalType":"address","name":"_user","type":"address"}],"name":"getLentAmount","outputs":[{"internalType":"uint256","name":"","type":"uint256"}],"stateMutability":"view","type":"function"},{"inputs":[{"internalType":"address","name":"_token","type":"address"}],"name":"getLiquidPct","outputs":[{"internalType":"uint256","name":"","type":"uint256"}],"stateMutability":"view","type":"function"},{"inputs":[{"internalType":"address","name":"_token","type":"address"}],"name":"getLiquidity","outputs":[{"internalType":"uint256","name":"","type":"uint256"}],"stateMutability":"view","type":"function"},{"inputs":[{"internalType":"address","name":"_token","type":"address"}],"name":"getLockedCollateral","outputs":[{"internalType":"uint256","name":"","type":"uint256"}],"stateMutability":"view","type":"function"},{"inputs":[{"internalType":"address","name":"_user","type":"address"},{"internalType":"address","name":"_asset","type":"address"}],"name":"getOutstandingLoan","outputs":[{"internalType":"uint256","name":"","type":"uint256"}],"stateMutability":"view","type":"function"},{"inputs":[],"name":"getPoolAddr","outputs":[{"internalType":"address","name":"","type":"address"}],"stateMutability":"view","type":"function"},{"inputs":[{"internalType":"address","name":"_token","type":"address"}],"name":"getPoolBalance","outputs":[{"internalType":"uint256","name":"","type":"uint256"}],"stateMutability":"view","type":"function"},{"inputs":[],"name":"getPoolValue","outputs":[{"internalType":"uint256","name":"","type":"uint256"}],"stateMutability":"view","type":"function"},{"inputs":[],"name":"getReserveAddr","outputs":[{"internalType":"address","name":"","type":"address"}],"stateMutability":"view","type":"function"},{"inputs":[{"internalType":"address","name":"_asset","type":"address"}],"name":"getReserveBalance","outputs":[{"internalType":"uint256","name":"","type":"uint256"}],"stateMutability":"view","type":"function"},{"inputs":[{"internalType":"bytes32","name":"role","type":"bytes32"}],"name":"getRoleAdmin","outputs":[{"internalType":"bytes32","name":"","type":"bytes32"}],"stateMutability":"view","type":"function"},{"inputs":[{"internalType":"bytes32","name":"role","type":"bytes32"},{"internalType":"uint256","name":"index","type":"uint256"}],"name":"getRoleMember","outputs":[{"internalType":"address","name":"","type":"address"}],"stateMutability":"view","type":"function"},{"inputs":[{"internalType":"bytes32","name":"role","type":"bytes32"}],"name":"getRoleMemberCount","outputs":[{"internalType":"uint256","name":"","type":"uint256"}],"stateMutability":"view","type":"function"},{"inputs":[],"name":"getTimeDelta","outputs":[{"internalType":"uint256","name":"","type":"uint256"}],"stateMutability":"view","type":"function"},{"inputs":[],"name":"getTokenAddr","outputs":[{"internalType":"address","name":"","type":"address"}],"stateMutability":"view","type":"function"},{"inputs":[],"name":"getTokenDollarValue","outputs":[{"internalType":"uint256","name":"","type":"uint256"}],"stateMutability":"view","type":"function"},{"inputs":[{"internalType":"address","name":"_asset","type":"address"}],"name":"getTotalInterest","outputs":[{"internalType":"uint256","name":"","type":"uint256"}],"stateMutability":"view","type":"function"},{"inputs":[],"name":"getTotalSupply","outputs":[{"internalType":"uint256","name":"","type":"uint256"}],"stateMutability":"view","type":"function"},{"inputs":[{"internalType":"address","name":"_user","type":"address"},{"internalType":"address","name":"_asset","type":"address"}],"name":"getUserCollateral","outputs":[{"internalType":"uint256","name":"","type":"uint256"}],"stateMutability":"view","type":"function"},{"inputs":[{"internalType":"bytes32","name":"role","type":"bytes32"},{"internalType":"address","name":"account","type":"address"}],"name":"grantRole","outputs":[],"stateMutability":"nonpayable","type":"function"},{"inputs":[{"internalType":"bytes32","name":"role","type":"bytes32"},{"internalType":"address","name":"account","type":"address"}],"name":"hasRole","outputs":[{"internalType":"bool","name":"","type":"bool"}],"stateMutability":"view","type":"function"},{"inputs":[{"internalType":"address","name":"_user","type":"address"},{"internalType":"address","name":"_asset","type":"address"}],"name":"interestQuantity","outputs":[{"internalType":"uint256","name":"","type":"uint256"}],"stateMutability":"view","type":"function"},{"inputs":[],"name":"liquidationManager","outputs":[{"internalType":"string","name":"","type":"string"}],"stateMutability":"nonpayable","type":"function"},{"inputs":[{"internalType":"address","name":"_user","type":"address"}],"name":"maxLoanValue","outputs":[{"internalType":"uint256","name":"","type":"uint256"}],"stateMutability":"view","type":"function"},{"inputs":[],"name":"offerCollateralAssets","outputs":[],"stateMutability":"nonpayable","type":"function"},{"inputs":[],"name":"payoutInterest","outputs":[],"stateMutability":"nonpayable","type":"function"},{"inputs":[{"internalType":"bytes32","name":"role","type":"bytes32"},{"internalType":"address","name":"account","type":"address"}],"name":"renounceRole","outputs":[],"stateMutability":"nonpayable","type":"function"},{"inputs":[{"internalType":"bytes32","name":"role","type":"bytes32"},{"internalType":"address","name":"account","type":"address"}],"name":"revokeRole","outputs":[],"stateMutability":"nonpayable","type":"function"},{"inputs":[{"internalType":"bytes4","name":"interfaceId","type":"bytes4"}],"name":"supportsInterface","outputs":[{"internalType":"bool","name":"","type":"bool"}],"stateMutability":"view","type":"function"},{"inputs":[{"internalType":"address","name":"_borrower","type":"address"}],"name":"totalValueBorrowed","outputs":[{"internalType":"uint256","name":"","type":"uint256"}],"stateMutability":"view","type":"function"},{"inputs":[{"internalType":"address","name":"_asset","type":"address"},{"internalType":"uint256","name":"_quantity","type":"uint256"},{"internalType":"bool","name":"_toPool","type":"bool"}],"name":"unlockCollateral","outputs":[],"stateMutability":"nonpayable","type":"function"},{"inputs":[{"internalType":"address","name":"_asset","type":"address"},{"internalType":"uint256","name":"_updated_threshold","type":"uint256"}],"name":"updateCollReqByAsset","outputs":[],"stateMutability":"nonpayable","type":"function"},{"inputs":[{"internalType":"address","name":"_asset","type":"address"}],"name":"updateSupportedAssets","outputs":[],"stateMutability":"nonpayable","type":"function"}],"bytecode":"6080604052426002553480156200001557600080fd5b50604051620000249062000610565b604051809103906000f08015801562000041573d6000803e3d6000fd5b50600480546001600160a01b0319166001600160a01b039290921691821790556040516200006f906200061e565b6060808252600a90820152692632bb32b92a37b5b2b760b11b608082015260a060208201819052600490820152632622ab2960e11b60c08201526001600160a01b03909116604082015260e001604051809103906000f080158015620000d9573d6000803e3d6000fd5b50600680546001600160a01b0319166001600160a01b039283161790556004546040519116906200010a906200062c565b6001600160a01b039091168152602001604051809103906000f08015801562000137573d6000803e3d6000fd5b50600780546001600160a01b0319166001600160a01b039283169081179091556004546040519216916200016b906200063a565b6001600160a01b03928316815291166020820152604001604051809103906000f0801580156200019f573d6000803e3d6000fd5b50600580546001600160a01b0319166001600160a01b0392909216919091179055604051620001ce9062000648565b604051809103906000f080158015620001eb573d6000803e3d6000fd5b50600380546001600160a01b03929092166001600160a01b031992831617905560088054821633908117909155600a8054600181810183557fc65a7bb8d6351c1cf70c95a316cc6a92839c986682d98bc35f958f4883f9d2a8918201805486167301be23585060835e02b77ef475b0cc51aa1e0709908117909155600b6020527f5031574008602f13c71c38717e9caec80079d2376bdf10470dbc5e0deaf825c2805460ff19908116841790915584548084018655840180548816735592ec0cfb4dbc12d3ab100b257153436a1f0fea9081179091557fb891a9083792da4173603de9b70a8edc50b3411207659260207d16f9931e7e338054831685179055855480850190965594909301805490961673c778417e063141139fce010982780140aa0cd5ab90811790965560008690527f552f7b3353d757e346d312c5033ec5a2130d41345d3150f7944ac0ef4c3c42d580549093169091179091559162000375907fa49807205ce4d355092ef5a8a18f56e8913cf4a201fbe287825b095693c2177590620004ab565b60048054600754604051630e0cb96960e31b81526001600160a01b03918216938101939093521690637065cb4890602401600060405180830381600087803b158015620003c157600080fd5b505af1158015620003d6573d6000803e3d6000fd5b505060048054600554604051630e0cb96960e31b81526001600160a01b0391821693810193909352169250637065cb489150602401600060405180830381600087803b1580156200042657600080fd5b505af11580156200043b573d6000803e3d6000fd5b5050600754600554604051630e0cb96960e31b81526001600160a01b03918216600482015291169250637065cb489150602401600060405180830381600087803b1580156200048957600080fd5b505af11580156200049e573d6000803e3d6000fd5b5050505050505062000656565b620004b78282620004bb565b5050565b620004d28282620004fe60201b620034901760201c565b6000828152600160209081526040909120620004f9918390620035146200059e821b17901c565b505050565b6000828152602081815260408083206001600160a01b038516845290915290205460ff16620004b7576000828152602081815260408083206001600160a01b03851684529091529020805460ff191660011790556200055a3390565b6001600160a01b0316816001600160a01b0316837f2f8788117e7eff1d82e926ec794901d17c78024a50270940304540a733656f0d60405160405180910390a45050565b6000620005b5836001600160a01b038416620005be565b90505b92915050565b60008181526001830160205260408120546200060757508154600181810184556000848152602080822090930184905584548482528286019093526040902091909155620005b8565b506000620005b8565b612282806200479783390190565b6121178062006a1983390190565b6117938062008b3083390190565b612048806200a2c383390190565b6103b3806200c30b83390190565b61413180620006666000396000f3fe608060405234801561001057600080fd5b506004361061028a5760003560e01c8063884edad91161015c578063c0f2b1cf116100ce578063d49ab22c11610087578063d49ab22c146105d7578063d547741f146105ea578063de259242146105fd578063de30f97d1461060e578063f2df757b14610621578063fac8aff81461063457600080fd5b8063c0f2b1cf14610546578063c4e41b2214610583578063ca15c8731461058b578063cda03c291461059e578063d28682ea146105b1578063d3ea0f89146105c457600080fd5b80639feea54f116101205780639feea54f146104df578063a217fddf146104f2578063a55e8668146104fa578063a747b93b1461050d578063a78e404614610520578063b9e037e61461053357600080fd5b8063884edad9146104805780639010d07c1461049357806391d14854146104a657806397904e42146104b95780639b96eece146104cc57600080fd5b806346c928fc1161020057806363e36dac116101b957806363e36dac146103e75780636858ea07146103f857806369ebdf8f1461040b5780636aaa434e1461041c5780636db180931461046357806375b238fc1461046b57600080fd5b806346c928fc146103635780634bcc170914610376578063511c566114610389578063582b27201461039c5780635c16de4f146103c15780635c88f5a5146103d457600080fd5b80632273323f116102525780632273323f14610308578063243d8e0514610310578063248a9ca3146103125780632d5562a0146103355780632f2ff15d1461033d57806336568abe1461035057600080fd5b806301ffc9a71461028f578063057393c0146102b757806315226b54146102d85780631ba2f531146102eb5780631ef3a04c146102f3575b600080fd5b6102a261029d366004613c85565b61065d565b60405190151581526020015b60405180910390f35b6102ca6102c5366004613ccb565b610688565b6040519081526020016102ae565b6102ca6102e6366004613ccb565b6106f8565b6102ca61072b565b6102fb61079e565b6040516102ae9190613d16565b610310610d6f565b005b6102ca610320366004613d49565b60009081526020819052604090206001015490565b6102ca61128c565b61031061034b366004613d62565b6112d9565b61031061035e366004613d62565b611304565b610310610371366004613d8e565b61137e565b610310610384366004613d62565b611b1e565b6102ca610397366004613ccb565b611dd4565b6006546001600160a01b03165b6040516001600160a01b0390911681526020016102ae565b6103106103cf366004613dd4565b611e0c565b6102ca6103e2366004613ccb565b6120fa565b6005546001600160a01b03166103a9565b610310610406366004613dd4565b612132565b6007546001600160a01b03166103a9565b61044e61042a366004613dfe565b600c6020908152600092835260408084209091529082529020805460019091015482565b604080519283526020830191909152016102ae565b6102ca6121d0565b6102ca6000805160206140dc83398151915281565b61031061048e366004613dd4565b61221a565b6103a96104a1366004613e28565b612920565b6102a26104b4366004613d62565b61293f565b6102ca6104c7366004613ccb565b612968565b6102ca6104da366004613ccb565b61299b565b6103106104ed366004613ccb565b6129ce565b6102ca600081565b6102ca610508366004613dfe565b612b68565b6102ca61051b366004613ccb565b612bdf565b6102ca61052e366004613dfe565b612c17565b610310610541366004613e4a565b612c4f565b6102ca610554366004613dfe565b6001600160a01b038082166000908152600c602090815260408083209386168352929052206001015492915050565b6102ca6131bd565b6102ca610599366004613d49565b613207565b6102ca6105ac366004613ccb565b61321e565b6102ca6105bf366004613ccb565b613251565b6102ca6105d2366004613ccb565b613289565b6102ca6105e5366004613ccb565b6132d2565b6103106105f8366004613d62565b613305565b6004546001600160a01b03166103a9565b6102ca61061c366004613ccb565b61332b565b6102ca61062f366004613ccb565b613363565b6102ca610642366004613ccb565b6001600160a01b031660009081526009602052604090205490565b60006001600160e01b03198216635a05180f60e01b1480610682575061068282613529565b92915050565b60055460405163f8b2cb4f60e01b81526001600160a01b038381166004830152600092169063f8b2cb4f906024015b602060405180830381865afa1580156106d4573d6000803e3d6000fd5b505050506040513d601f19601f820116820180604052508101906106829190613e8f565b6007546040516305489ad560e21b81526001600160a01b03838116600483015260009216906315226b54906024016106b7565b60065460408051638a02775b60e01b815290516000926001600160a01b031691638a02775b9160048083019260209291908290030181865afa158015610775573d6000803e3d6000fd5b505050506040513d601f19601f820116820180604052508101906107999190613e8f565b905090565b60606107b86000805160206140dc8339815191523361293f565b6107dd5760405162461bcd60e51b81526004016107d490613ea8565b60405180910390fd5b601054600a5460005b828161ffff161015610d6957600060108261ffff168154811061080b5761080b613ed6565b60009182526020822001546005546040516301fcd2d560e01b81526001600160a01b039283166004820181905294509116906301fcd2d590602401602060405180830381865afa158015610863573d6000803e3d6000fd5b505050506040513d601f19601f820116820180604052508101906108879190613e8f565b9050600061089483613363565b905080821015610d115760005b858161ffff161015610ccf576000600a8261ffff16815481106108c6576108c6613ed6565b60009182526020822001546005546040516306829f1b60e31b81526001600160a01b03928316600482018190529450911690633414f8d890602401602060405180830381865afa15801561091e573d6000803e3d6000fd5b505050506040513d601f19601f820116820180604052508101906109429190613e8f565b9050600061095185838861355e565b905060006109608684896135ea565b6001600160a01b038086166000908152600c60209081526040808320938d16835292905220549091501515806109bd57506001600160a01b038085166000908152600c60209081526040808320938c168352929052206001015415155b15610b39576001600160a01b038481166000908152600c60209081526040808320938c16835292905290812080546001909101546109fb9190613f02565b610a0d84670de0b6b3a7640000613f1a565b610a179190613f31565b6001600160a01b038087166000908152600c60209081526040808320938e1683529290522060010154909150670de0b6b3a764000090610a58908590613f31565b610a629190613f50565b6001600160a01b038681166000908152600c60209081526040808320938e16835292905220600181019190915554670de0b6b3a764000090610aa5908590613f31565b610aaf9190613f50565b6001600160a01b038681166000818152600c602090815260408083208f8616845290915290819020939093556007549251635ea5801760e11b815260048101919091526024810184905291169063bd4b002e90604401600060405180830381600087803b158015610b1f57600080fd5b505af1158015610b33573d6000803e3d6000fd5b50505050505b600554604051632b92a07d60e01b81526001600160a01b038a8116600483015286811660248301526000921690632b92a07d90604401602060405180830381865afa158015610b8c573d6000803e3d6000fd5b505050506040513d601f19601f82011682018060405250810190610bb09190613e8f565b1115610cb857600554604051632b92a07d60e01b81526001600160a01b038a811660048301528681166024830152600092670de0b6b3a764000092859290911690632b92a07d90604401602060405180830381865afa158015610c17573d6000803e3d6000fd5b505050506040513d601f19601f82011682018060405250810190610c3b9190613e8f565b610c459190613f31565b610c4f9190613f50565b60055460405163012772bb60e51b81529192506001600160a01b0316906324ee576090610c84908c9089908690600401613f72565b600060405180830381600087803b158015610c9e57600080fd5b505af1158015610cb2573d6000803e3d6000fd5b50505050505b505050508080610cc790613f96565b9150506108a1565b506040518060400160405280601981526020017f4c6f616e205061727469616c6c79204c69717569646174656400000000000000815250965050505050505090565b6064610d1e826069613f31565b610d289190613f50565b821015610d53576040518060600160405280603e815260200161409e603e9139965050505050505090565b5050508080610d6190613f96565b9150506107e6565b50505090565b610d876000805160206140dc8339815191523361293f565b610da35760405162461bcd60e51b81526004016107d490613ea8565b610dab613659565b600a5460005b818161ffff161015611288576000600a8261ffff1681548110610dd657610dd6613ed6565b60009182526020822001546004805460405163662128f360e11b81526001600160a01b03938416928101839052919450919091169063cc4251e690602401602060405180830381865afa158015610e31573d6000803e3d6000fd5b505050506040513d601f19601f82011682018060405250810190610e559190613e8f565b60048054604051635c88f5a560e01b81526001600160a01b0386811693820193909352929350600092911690635c88f5a590602401602060405180830381865afa158015610ea7573d6000803e3d6000fd5b505050506040513d601f19601f82011682018060405250810190610ecb9190613e8f565b6001600160a01b0384166000908152601260205260408120549192505b818161ffff16101561120f576001600160a01b0385166000908152601260205260408120805461ffff8416908110610f2257610f22613ed6565b6000918252602090912001546006546040516370a0823160e01b81526001600160a01b03928316600482018190529350662386f26fc1000092909116906370a0823190602401602060405180830381865afa158015610f85573d6000803e3d6000fd5b505050506040513d601f19601f82011682018060405250810190610fa99190613e8f565b1015610fe8576001600160a01b0380821660009081526009602090815260408083208390559289168252600d81528282203383529052908120556111fc565b6001600160a01b038181166000818152600960205260408082205460065491516370a0823160e01b81526004810194909452919391929116906370a0823190602401602060405180830381865afa158015611047573d6000803e3d6000fd5b505050506040513d601f19601f8201168201806040525081019061106b9190613e8f565b61107d90670de0b6b3a7640000613f31565b6110879190613f50565b6001600160a01b038089166000908152600d602090815260408083209387168352929052908120549192509087906110c790670de0b6b3a7640000613f31565b6110d19190613f50565b905060006ec097ce7bc90715b34b9f1000000000876110f08486613f31565b6110fa9190613f31565b6111049190613f50565b600654604051630d4d151360e01b81526001600160a01b038781166004830152602482018490528c8116604483015292935060009290911690630d4d1513906064016020604051808303816000875af1158015611165573d6000803e3d6000fd5b505050506040513d601f19601f820116820180604052508101906111899190613e8f565b6001600160a01b0386166000908152600960205260408120805492935083929091906111b6908490613f02565b90915550506001600160a01b03808b166000908152600d60209081526040808320938916835292905290812080548492906111f2908490613f02565b9091555050505050505b508061120781613f96565b915050610ee8565b50600480546040516323d0aab160e01b81526001600160a01b03878116938201939093529116906323d0aab190602401600060405180830381600087803b15801561125957600080fd5b505af115801561126d573d6000803e3d6000fd5b5050505050505050808061128090613f96565b915050610db1565b5050565b6004805460025460405163a150fb5f60e01b8152928301526000916001600160a01b039091169063a150fb5f90602401602060405180830381865afa158015610775573d6000803e3d6000fd5b6000828152602081905260409020600101546112f58133613823565b6112ff8383613887565b505050565b6001600160a01b03811633146113745760405162461bcd60e51b815260206004820152602f60248201527f416363657373436f6e74726f6c3a2063616e206f6e6c792072656e6f756e636560448201526e103937b632b9903337b91039b2b63360891b60648201526084016107d4565b61128882826138a9565b6001600160a01b0383166000908152600b602052604090205460ff166113b65760405162461bcd60e51b81526004016107d490613fb8565b6001600160a01b0381166000908152600b602052604090205460ff166113ee5760405162461bcd60e51b81526004016107d490613fb8565b6004805460405163fce3e8e760e01b81526001600160a01b038681169382019390935291169063fce3e8e790602401602060405180830381865afa15801561143a573d6000803e3d6000fd5b505050506040513d601f19601f8201168201806040525081019061145e9190613e8f565b841115806114d857506007546040516305489ad560e21b81526001600160a01b038581166004830152869216906315226b5490602401602060405180830381865afa1580156114b1573d6000803e3d6000fd5b505050506040513d601f19601f820116820180604052508101906114d59190613e8f565b10155b6115245760405162461bcd60e51b815260206004820152601e60248201527f6e6f7420656e6f756768206c697175696469747920746f20626f72726f77000060448201526064016107d4565b61152c613659565b6005546040516301fcd2d560e01b81523360048201526000916001600160a01b0316906301fcd2d590602401602060405180830381865afa158015611575573d6000803e3d6000fd5b505050506040513d601f19601f820116820180604052508101906115999190613e8f565b6005546040516306829f1b60e31b81526001600160a01b03858116600483015290911690633414f8d890602401602060405180830381865afa1580156115e3573d6000803e3d6000fd5b505050506040513d601f19601f820116820180604052508101906116079190613e8f565b6003546040516341976e0960e01b81526001600160a01b038681166004830152879216906341976e0990602401602060405180830381865afa158015611651573d6000803e3d6000fd5b505050506040513d601f19601f820116820180604052508101906116759190613e8f565b61167f9190613f31565b6116899190613f50565b6116939190613f02565b905060006116a033613363565b6003546040516341976e0960e01b81526001600160a01b038881166004830152670de0b6b3a7640000928a929116906341976e0990602401602060405180830381865afa1580156116f5573d6000803e3d6000fd5b505050506040513d601f19601f820116820180604052508101906117199190613e8f565b6117239190613f31565b61172d9190613f50565b6117379190613f02565b9050808210156117895760405162461bcd60e51b815260206004820152601f60248201527f6e6f7420656e6f75676820636f6c6c61746572616c20746f20626f72726f770060448201526064016107d4565b60055460405163f970c3b760e01b81526001600160a01b039091169063f970c3b7906117bd90339087908990600401613f72565b600060405180830381600087803b1580156117d757600080fd5b505af11580156117eb573d6000803e3d6000fd5b50506004805460405163fce3e8e760e01b81526001600160a01b038a8116938201939093529116925063fce3e8e79150602401602060405180830381865afa15801561183b573d6000803e3d6000fd5b505050506040513d601f19601f8201168201806040525081019061185f9190613e8f565b86116118cf576004805460405163fc4f78b960e01b81526001600160a01b039091169163fc4f78b9916118989133918a918c9101613f72565b600060405180830381600087803b1580156118b257600080fd5b505af11580156118c6573d6000803e3d6000fd5b50505050611936565b600754604051632049eaeb60e11b81526001600160a01b0390911690634093d5d69061190390339089908b90600401613f72565b600060405180830381600087803b15801561191d57600080fd5b505af1158015611931573d6000803e3d6000fd5b505050505b60408051338152602081018890526001600160a01b0387811682840152606082018790528516608082015290517fea8631408d071cdc565dfa37dcb32450c4c85ee9a4142ed14df1387d7c2a43279181900360a00190a16001600160a01b0385166000908152600c60209081526040808320338452909152812080548892906119c0908490613f02565b90915550506001600160a01b0385166000908152600f6020908152604080832033845290915290205460ff16611a4d576001600160a01b0385166000818152600e602090815260408083208054600181810183559185528385200180546001600160a01b03191633908117909155948452600f8352818420948452939091529020805460ff191690911790555b3360009081526011602052604090205460ff16611abf576010805460018181019092557f1b6847dc741a1b0cd08d278845f9d819d87b734759afb55fe2de5cb82a9ae6720180546001600160a01b031916339081179091556000908152601160205260409020805460ff191690911790555b60408051338152602081018890526001600160a01b0387811682840152606082018790528516608082015290517fea8631408d071cdc565dfa37dcb32450c4c85ee9a4142ed14df1387d7c2a43279181900360a00190a1505050505050565b6001600160a01b0381166000908152600b602052604090205460ff161515600114611b5b5760405162461bcd60e51b81526004016107d490613fb8565b611b63613659565b60008211611bb35760405162461bcd60e51b815260206004820152601860248201527f6465706f736974206d75737420626520706f736974697665000000000000000060448201526064016107d4565b600654604051630d4d151360e01b8152336004820152602481018490526001600160a01b0383811660448301526000921690630d4d1513906064016020604051808303816000875af1158015611c0d573d6000803e3d6000fd5b505050506040513d601f19601f82011682018060405250810190611c319190613e8f565b33600090815260096020526040812080549293508392909190611c55908490613f02565b909155505060048054604051631740ecaf60e11b81526001600160a01b0390911691632e81d95e91611c8d9133918791899101613f72565b600060405180830381600087803b158015611ca757600080fd5b505af1158015611cbb573d6000803e3d6000fd5b505050506001600160a01b038216600090815260136020908152604080832033845290915290205460ff16611d47576001600160a01b03821660008181526012602090815260408083208054600181810183559185528385200180546001600160a01b0319163390811790915594845260138352818420948452939091529020805460ff191690911790555b6001600160a01b0382166000908152600d6020908152604080832033845290915281208054859290611d7a908490613f02565b9091555050604080513381526001600160a01b0384166020820152908101849052606081018290527fd2d0080ed70ceb7ce39856d34a5727b439ec7c7919425087ed35ed68687915569060800160405180910390a1505050565b6004805460405163c0d7eec160e01b81526001600160a01b03848116938201939093526000929091169063c0d7eec1906024016106b7565b6001600160a01b0382166000908152600b602052604090205460ff16611e445760405162461bcd60e51b81526004016107d490613fb8565b611e4c613659565b8060011415611e6257611e5f3383612c17565b90505b6001600160a01b0382166000908152600c602090815260408083203384529091529020600181015490548291611e9791613f02565b1015611ee55760405162461bcd60e51b815260206004820152601b60248201527f52657475726e6564206d6f7265207468616e20626f72726f776564000000000060448201526064016107d4565b6001600160a01b0382166000908152600c60209081526040808320338452909152812060010154611f179083906138cb565b90506000611f258284613f1a565b600480546040516327709e4760e11b815233928101929092526001600160a01b0387811660248401526044830187905260648301849052608483018690529293509190911690634ee13c8e9060a401600060405180830381600087803b158015611f8e57600080fd5b505af1158015611fa2573d6000803e3d6000fd5b505050506001600160a01b0384166000908152600c6020908152604080832033845290915281208054839290611fd9908490613f1a565b90915550506001600160a01b0384166000908152600c6020908152604080832033845290915281206001018054849290612014908490613f1a565b90915550506001600160a01b0384166000908152600c60209081526040808320338452909152902054612066576001600160a01b0384166000908152600c602090815260408083203384529091528120555b6001600160a01b0384166000908152600c602090815260408083203384529091529020600101546120b9576001600160a01b0384166000908152600c602090815260408083203384529091528120600101555b7f2bb7c63eb15a05ebc1a5643f6d064397b45f326816b607769bf52fd7bd03951a3385856040516120ec93929190613f72565b60405180910390a150505050565b60048054604051635c88f5a560e01b81526001600160a01b038481169382019390935260009290911690635c88f5a5906024016106b7565b61214a6000805160206140dc8339815191523361293f565b6121665760405162461bcd60e51b81526004016107d490613ea8565b600554604051636858ea0760e01b81526001600160a01b0384811660048301526024820184905290911690636858ea0790604401600060405180830381600087803b1580156121b457600080fd5b505af11580156121c8573d6000803e3d6000fd5b505050505050565b60065460408051630cf55f3760e21b815290516000926001600160a01b0316916333d57cdc9160048083019260209291908290030181865afa158015610775573d6000803e3d6000fd5b6001600160a01b0382166000908152600b602052604090205460ff166122525760405162461bcd60e51b81526004016107d490613fb8565b6006546040516370a0823160e01b815233600482015282916001600160a01b0316906370a0823190602401602060405180830381865afa15801561229a573d6000803e3d6000fd5b505050506040513d601f19601f820116820180604052508101906122be9190613e8f565b10156123205760405162461bcd60e51b815260206004820152602b60248201527f43616e6e6f742072656465656d206d6f726520746f6b656e73207468616e206e60448201526a1d5b58995c881bdddb995960aa1b60648201526084016107d4565b612328613659565b6003546040516341976e0960e01b81526001600160a01b03848116600483015260009216906341976e0990602401602060405180830381865afa158015612373573d6000803e3d6000fd5b505050506040513d601f19601f820116820180604052508101906123979190613e8f565b9050600081600660009054906101000a90046001600160a01b03166001600160a01b03166333d57cdc6040518163ffffffff1660e01b8152600401602060405180830381865afa1580156123ef573d6000803e3d6000fd5b505050506040513d601f19601f820116820180604052508101906124139190613e8f565b61241d9085613f31565b6124279190613f50565b600654604051632770a7eb60e21b8152336004820152602481018690529192506001600160a01b031690639dc29fac90604401600060405180830381600087803b15801561247457600080fd5b505af1158015612488573d6000803e3d6000fd5b505033600090815260096020526040812080548794509092506124ac908490613f1a565b9091555050336000908152600960205260409020546124d657336000908152600960205260408120555b6001600160a01b0384166000908152600d602090815260408083203384529091529020546125695760075460405163aa44e43f60e01b81526001600160a01b039091169063aa44e43f9061253290339088908690600401613f72565b600060405180830381600087803b15801561254c57600080fd5b505af1158015612560573d6000803e3d6000fd5b505050506128ed565b6001600160a01b0384166000908152600d602090815260408083203384529091529020548111156127a5576001600160a01b0384166000908152600d602090815260408083203384529091528120546125c39083906138cb565b905060006125d18284613f1a565b6001600160a01b038781166000818152600d602090815260408083203384529091528082209190915560048054915163fce3e8e760e01b81529081019290925292935091169063fce3e8e790602401602060405180830381865afa15801561263d573d6000803e3d6000fd5b505050506040513d601f19601f820116820180604052508101906126619190613e8f565b82106126d25760075460405163aa44e43f60e01b81526001600160a01b039091169063aa44e43f9061269b9033908a908890600401613f72565b600060405180830381600087803b1580156126b557600080fd5b505af11580156126c9573d6000803e3d6000fd5b5050505061279e565b60048054604051631f97f85960e31b81526001600160a01b039091169163fcbfc2c8916127059133918b91889101613f72565b600060405180830381600087803b15801561271f57600080fd5b505af1158015612733573d6000803e3d6000fd5b505060075460405163aa44e43f60e01b81526001600160a01b03909116925063aa44e43f915061276b9033908a908690600401613f72565b600060405180830381600087803b15801561278557600080fd5b505af1158015612799573d6000803e3d6000fd5b505050505b50506128ed565b6001600160a01b0384166000908152600d60209081526040808320338452909152812080548392906127d8908490613f1a565b90915550506004805460405163fce3e8e760e01b81526001600160a01b038781169382019390935291169063fce3e8e790602401602060405180830381865afa158015612829573d6000803e3d6000fd5b505050506040513d601f19601f8201168201806040525081019061284d9190613e8f565b81106128875760075460405163aa44e43f60e01b81526001600160a01b039091169063aa44e43f9061253290339088908690600401613f72565b60048054604051631f97f85960e31b81526001600160a01b039091169163fcbfc2c8916128ba9133918991879101613f72565b600060405180830381600087803b1580156128d457600080fd5b505af11580156128e8573d6000803e3d6000fd5b505050505b7f9a2c2e027b0e93d2bab8a1db6764850faf19c3f41ec55c77e319131fa38176e63385856040516120ec93929190613f72565b600082815260016020526040812061293890836138d7565b9392505050565b6000918252602082815260408084206001600160a01b0393909316845291905290205460ff1690565b600554604051631d512a9160e21b81526001600160a01b0383811660048301526000921690637544aa44906024016106b7565b6006546040516370a0823160e01b81526001600160a01b03838116600483015260009216906370a08231906024016106b7565b6129e66000805160206140dc8339815191523361293f565b612a025760405162461bcd60e51b81526004016107d490613ea8565b600a80546001810182556000919091527fc65a7bb8d6351c1cf70c95a316cc6a92839c986682d98bc35f958f4883f9d2a80180546001600160a01b0319166001600160a01b038381169182179092556004805460405163fac09e8760e01b81529182019290925291169063fac09e8790602401600060405180830381600087803b158015612a8f57600080fd5b505af1158015612aa3573d6000803e3d6000fd5b505060055460405163fac09e8760e01b81526001600160a01b038581166004830152909116925063fac09e879150602401600060405180830381600087803b158015612aee57600080fd5b505af1158015612b02573d6000803e3d6000fd5b505060075460405163fac09e8760e01b81526001600160a01b038581166004830152909116925063fac09e879150602401600060405180830381600087803b158015612b4d57600080fd5b505af1158015612b61573d6000803e3d6000fd5b5050505050565b600554604051632b92a07d60e01b81526001600160a01b03838116600483015284811660248301526000921690632b92a07d90604401602060405180830381865afa158015612bbb573d6000803e3d6000fd5b505050506040513d601f19601f820116820180604052508101906129389190613e8f565b6004805460405163fce3e8e760e01b81526001600160a01b03848116938201939093526000929091169063fce3e8e7906024016106b7565b6001600160a01b038181166000908152600c602090815260408083209386168352929052908120600181015490546129389190613f02565b6001600160a01b0383166000908152600b602052604090205460ff16612c875760405162461bcd60e51b81526004016107d490613fb8565b612c8f613659565b612c9833613363565b6005546040516306829f1b60e31b81526001600160a01b03868116600483015290911690633414f8d890602401602060405180830381865afa158015612ce2573d6000803e3d6000fd5b505050506040513d601f19601f82011682018060405250810190612d069190613e8f565b6003546040516341976e0960e01b81526001600160a01b038781166004830152869216906341976e0990602401602060405180830381865afa158015612d50573d6000803e3d6000fd5b505050506040513d601f19601f82011682018060405250810190612d749190613e8f565b612d7e9190613f31565b612d889190613f50565b6005546040516301fcd2d560e01b81523360048201526001600160a01b03909116906301fcd2d590602401602060405180830381865afa158015612dd0573d6000803e3d6000fd5b505050506040513d601f19601f82011682018060405250810190612df49190613e8f565b612dfe9190613f1a565b1015612e675760405162461bcd60e51b815260206004820152603260248201527f43616e6e6f7420776974686472617720636f6c6c61746572616c206265666f7260448201527132903830bcb4b733903130b1b5903637b0b760711b60648201526084016107d4565b600554604051632b92a07d60e01b81526001600160a01b0385811660048301523360248301526000921690632b92a07d90604401602060405180830381865afa158015612eb8573d6000803e3d6000fd5b505050506040513d601f19601f82011682018060405250810190612edc9190613e8f565b905080831115612f3f5760405162461bcd60e51b815260206004820152602860248201527f52656465656d696e67206d6f726520636f6c6c61746572616c207468616e2064604482015267195c1bdcda5d195960c21b60648201526084016107d4565b6001821515141561310757600654604051630d4d151360e01b8152336004820152602481018590526001600160a01b0386811660448301526000921690630d4d1513906064016020604051808303816000875af1158015612fa4573d6000803e3d6000fd5b505050506040513d601f19601f82011682018060405250810190612fc89190613e8f565b33600090815260096020526040812080549293508392909190612fec908490613f02565b90915550506001600160a01b038516600090815260136020908152604080832033845290915290205460ff16613079576001600160a01b03851660008181526012602090815260408083208054600181810183559185528385200180546001600160a01b0319163390811790915594845260138352818420948452939091529020805460ff191690911790555b6001600160a01b0385166000908152600d60209081526040808320338452909152812080548692906130ac908490613f02565b9091555050604080513381526001600160a01b0387166020820152908101859052606081018290527fd2d0080ed70ceb7ce39856d34a5727b439ec7c7919425087ed35ed68687915569060800160405180910390a150613143565b7f03ff0c85f880c6a1f943c2c36ebbb2cb1b93959479db451b2acb7b1e06f4e36933858560405161313a93929190613f72565b60405180910390a15b600554604051634755ea7f60e11b81523360048201526001600160a01b03868116602483015260448201869052841515606483015290911690638eabd4fe90608401600060405180830381600087803b15801561319f57600080fd5b505af11580156131b3573d6000803e3d6000fd5b5050505050505050565b600654604080516318160ddd60e01b815290516000926001600160a01b0316916318160ddd9160048083019260209291908290030181865afa158015610775573d6000803e3d6000fd5b6000818152600160205260408120610682906138e3565b6005546040516301fcd2d560e01b81526001600160a01b03838116600483015260009216906301fcd2d5906024016106b7565b6004805460405163f8b2cb4f60e01b81526001600160a01b03848116938201939093526000929091169063f8b2cb4f906024016106b7565b600480546002546040516306448fd360e51b81526000936001600160a01b039093169263c891fa60926106b7928792016001600160a01b03929092168252602082015260400190565b6005546040516328d1f89360e21b81526001600160a01b038381166004830152600092169063a347e24c906024016106b7565b6000828152602081905260409020600101546133218133613823565b6112ff83836138a9565b6004805460405163de30f97d60e01b81526001600160a01b03848116938201939093526000929091169063de30f97d906024016106b7565b600a546000908190815b818161ffff161015613487576000600a8261ffff168154811061339257613392613ed6565b60009182526020822001546003546040516341976e0960e01b81526001600160a01b039283166004820181905294509116906341976e0990602401602060405180830381865afa1580156133ea573d6000803e3d6000fd5b505050506040513d601f19601f8201168201806040525081019061340e9190613e8f565b6001600160a01b038381166000908152600c60209081526040808320938c1683529290522060018101549054919250670de0b6b3a764000091839161345291613f02565b61345c9190613f31565b6134669190613f50565b6134709086613f02565b94505050808061347f90613f96565b91505061336d565b50909392505050565b61349a828261293f565b611288576000828152602081815260408083206001600160a01b03851684529091529020805460ff191660011790556134d03390565b6001600160a01b0316816001600160a01b0316837f2f8788117e7eff1d82e926ec794901d17c78024a50270940304540a733656f0d60405160405180910390a45050565b6000612938836001600160a01b0384166138ed565b60006001600160e01b03198216637965db0b60e01b148061068257506301ffc9a760e01b6001600160e01b0319831614610682565b600080670de0b6b3a7640000856135758287613f1a565b61357f9190613f31565b6135899190613f50565b83670de0b6b3a764000061359d8789613f31565b6135a79190613f50565b6135b19190613f1a565b6135c3906716345785d8a00000613f31565b6135cd9190613f50565b90506135e181670de0b6b3a7640000613f1a565b95945050505050565b600080670de0b6b3a7640000836136018287613f1a565b61360b9190613f31565b6136159190613f50565b83670de0b6b3a76400006136298789613f31565b6136339190613f50565b61363d9190613f1a565b61364f906716345785d8a00000613f31565b6135e19190613f50565b600a5460005b818161ffff16101561381b576000600a8261ffff168154811061368457613684613ed6565b6000918252602080832091909101546001600160a01b03908116808452600e9092526040808420546004805460025493516306448fd360e51b81529182018690526024820193909352939550939291169063c891fa6090604401602060405180830381865afa1580156136fb573d6000803e3d6000fd5b505050506040513d601f19601f8201168201806040525081019061371f9190613e8f565b905060005b828161ffff161015613804576001600160a01b0384166000908152600e60205260408120805461ffff841690811061375e5761375e613ed6565b60009182526020808320909101546001600160a01b038881168452600c8352604080852091909216808552925290912054909150670de0b6b3a7640000906137a69085613f31565b6137b09190613f50565b6001600160a01b038087166000908152600c60209081526040808320938616835292905290812060010180549091906137ea908490613f02565b909155508291506137fc905081613f96565b915050613724565b50505050808061381390613f96565b91505061365f565b505042600255565b61382d828261293f565b61128857613845816001600160a01b0316601461393c565b61385083602061393c565b604051602001613861929190613fe5565b60408051601f198184030181529082905262461bcd60e51b82526107d491600401613d16565b6138918282613490565b60008281526001602052604090206112ff9082613514565b6138b38282613ad8565b60008281526001602052604090206112ff9082613b3d565b60006129388383613b52565b60006129388383613b68565b6000610682825490565b600081815260018301602052604081205461393457508154600181810184556000848152602080822090930184905584548482528286019093526040902091909155610682565b506000610682565b6060600061394b836002613f31565b613956906002613f02565b67ffffffffffffffff81111561396e5761396e61405a565b6040519080825280601f01601f191660200182016040528015613998576020820181803683370190505b509050600360fc1b816000815181106139b3576139b3613ed6565b60200101906001600160f81b031916908160001a905350600f60fb1b816001815181106139e2576139e2613ed6565b60200101906001600160f81b031916908160001a9053506000613a06846002613f31565b613a11906001613f02565b90505b6001811115613a89576f181899199a1a9b1b9c1cb0b131b232b360811b85600f1660108110613a4557613a45613ed6565b1a60f81b828281518110613a5b57613a5b613ed6565b60200101906001600160f81b031916908160001a90535060049490941c93613a8281614070565b9050613a14565b5083156129385760405162461bcd60e51b815260206004820181905260248201527f537472696e67733a20686578206c656e67746820696e73756666696369656e7460448201526064016107d4565b613ae2828261293f565b15611288576000828152602081815260408083206001600160a01b0385168085529252808320805460ff1916905551339285917ff6391f5c32d9c69d2a47ea670b442974b53935d1edc7fd64eb21e047a839171b9190a45050565b6000612938836001600160a01b038416613b92565b6000818310613b615781612938565b5090919050565b6000826000018281548110613b7f57613b7f613ed6565b9060005260206000200154905092915050565b60008181526001830160205260408120548015613c7b576000613bb6600183613f1a565b8554909150600090613bca90600190613f1a565b9050818114613c2f576000866000018281548110613bea57613bea613ed6565b9060005260206000200154905080876000018481548110613c0d57613c0d613ed6565b6000918252602080832090910192909255918252600188019052604090208390555b8554869080613c4057613c40614087565b600190038181906000526020600020016000905590558560010160008681526020019081526020016000206000905560019350505050610682565b6000915050610682565b600060208284031215613c9757600080fd5b81356001600160e01b03198116811461293857600080fd5b80356001600160a01b0381168114613cc657600080fd5b919050565b600060208284031215613cdd57600080fd5b61293882613caf565b60005b83811015613d01578181015183820152602001613ce9565b83811115613d10576000848401525b50505050565b6020815260008251806020840152613d35816040850160208701613ce6565b601f01601f19169190910160400192915050565b600060208284031215613d5b57600080fd5b5035919050565b60008060408385031215613d7557600080fd5b82359150613d8560208401613caf565b90509250929050565b60008060008060808587031215613da457600080fd5b84359350613db460208601613caf565b925060408501359150613dc960608601613caf565b905092959194509250565b60008060408385031215613de757600080fd5b613df083613caf565b946020939093013593505050565b60008060408385031215613e1157600080fd5b613e1a83613caf565b9150613d8560208401613caf565b60008060408385031215613e3b57600080fd5b50508035926020909101359150565b600080600060608486031215613e5f57600080fd5b613e6884613caf565b92506020840135915060408401358015158114613e8457600080fd5b809150509250925092565b600060208284031215613ea157600080fd5b5051919050565b6020808252601490820152736d75737420686176652061646d696e20726f6c6560601b604082015260600190565b634e487b7160e01b600052603260045260246000fd5b634e487b7160e01b600052601160045260246000fd5b60008219821115613f1557613f15613eec565b500190565b600082821015613f2c57613f2c613eec565b500390565b6000816000190483118215151615613f4b57613f4b613eec565b500290565b600082613f6d57634e487b7160e01b600052601260045260246000fd5b500490565b6001600160a01b039384168152919092166020820152604081019190915260600190565b600061ffff80831681811415613fae57613fae613eec565b6001019392505050565b602080825260139082015272185cdcd95d081b9bdd081cdd5c1c1bdc9d1959606a1b604082015260600190565b7f416363657373436f6e74726f6c3a206163636f756e742000000000000000000081526000835161401d816017850160208801613ce6565b7001034b99036b4b9b9b4b733903937b6329607d1b601791840191820152835161404e816028840160208801613ce6565b01602801949350505050565b634e487b7160e01b600052604160045260246000fd5b60008161407f5761407f613eec565b506000190190565b634e487b7160e01b600052603160045260246000fdfe4c69717569646174696f6e205269736b3a20436f6c6c61746572616c2076616c756520617070726f616368696e67204c545620726571756972656d656e74a49807205ce4d355092ef5a8a18f56e8913cf4a201fbe287825b095693c21775a2646970667358221220c6f9a626bef4e47a9b0f8a0ab2ef3947301008ae1d37e02127276a42adc6418b64736f6c634300080b003360806040523480156200001157600080fd5b506040805160608082018352600080835260208084018281528486018381527301be23585060835e02b77ef475b0cc51aa1e0709808552600280855296517fed3674b09469bf4c18c58b5c17b6619c2db43f90b5389a6501b1af546f40b64a5591517fed3674b09469bf4c18c58b5c17b6619c2db43f90b5389a6501b1af546f40b64b55517fed3674b09469bf4c18c58b5c17b6619c2db43f90b5389a6501b1af546f40b64c5560048054600181810183557f8a35acfbc15ff81a39ae7d344fd709f28e8600b4aa8c65c6b64bfe7fe36bd19b91820180546001600160a01b0319908116861790915589518089018b52878152808701888152818c01898152735592ec0cfb4dbc12d3ab100b257153436a1f0fea808b528c8a5292517f350e7dc47375535dbbaa844f05f768ffe58fc0c7f59c294c184aa966f4bac71a5590517f350e7dc47375535dbbaa844f05f768ffe58fc0c7f59c294c184aa966f4bac71b55517f350e7dc47375535dbbaa844f05f768ffe58fc0c7f59c294c184aa966f4bac71c5584548084018655840180548316821790558a519889018b52878952888701888152898c0189815273c778417e063141139fce010982780140aa0cd5ab808b529b90985298517f1a4e087dbd68c74cb0888bc0d429e64857661530ba71b8a04d03d6e54890a9a75597517f1a4e087dbd68c74cb0888bc0d429e64857661530ba71b8a04d03d6e54890a9a85594517f1a4e087dbd68c74cb0888bc0d429e64857661530ba71b8a04d03d6e54890a9a955825490810183559190945290920180549091168417905592519192916200026c9062000444565b604051809103906000f08015801562000289573d6000803e3d6000fd5b50600380546001600160a01b0319166001600160a01b0392909216919091179055620002d67fa49807205ce4d355092ef5a8a18f56e8913cf4a201fbe287825b095693c2177533620002df565b50505062000452565b620002eb8282620002ef565b5050565b6200030682826200033260201b62000fbd1760201c565b60008281526001602090815260409091206200032d91839062001041620003d2821b17901c565b505050565b6000828152602081815260408083206001600160a01b038516845290915290205460ff16620002eb576000828152602081815260408083206001600160a01b03851684529091529020805460ff191660011790556200038e3390565b6001600160a01b0316816001600160a01b0316837f2f8788117e7eff1d82e926ec794901d17c78024a50270940304540a733656f0d60405160405180910390a45050565b6000620003e9836001600160a01b038416620003f2565b90505b92915050565b60008181526001830160205260408120546200043b57508154600181810184556000848152602080822090930184905584548482528286019093526040902091909155620003ec565b506000620003ec565b6103b38062001ecf83390190565b611a6d80620004626000396000f3fe608060405234801561001057600080fd5b50600436106101c45760003560e01c8063a150fb5f116100f9578063de30f97d11610097578063fac09e8711610071578063fac09e87146103cf578063fc4f78b9146103e2578063fcbfc2c8146103f5578063fce3e8e71461040857600080fd5b8063de30f97d14610394578063e4ebd601146103a7578063f8b2cb4f146103bc57600080fd5b8063c891fa60116100d3578063c891fa6014610348578063ca15c8731461035b578063cc4251e61461036e578063d547741f1461038157600080fd5b8063a150fb5f1461032d578063a217fddf14610340578063c0d7eec11461029657600080fd5b80634ee13c8e1161016657806375b238fc1161014057806375b238fc146102d257806375f4d677146102e75780639010d07c146102ef57806391d148541461031a57600080fd5b80634ee13c8e146102835780635c88f5a5146102965780637065cb48146102bf57600080fd5b80632a36634d116101a25780632a36634d146102375780632e81d95e1461024a5780632f2ff15d1461025d57806336568abe1461027057600080fd5b806301ffc9a7146101c957806323d0aab1146101f1578063248a9ca314610206575b600080fd5b6101dc6101d73660046114d5565b610434565b60405190151581526020015b60405180910390f35b6102046101ff366004611516565b61045f565b005b610229610214366004611531565b60009081526020819052604090206001015490565b6040519081526020016101e8565b61020461024536600461154a565b6104eb565b61020461025836600461154a565b610580565b61020461026b366004611586565b610682565b61020461027e366004611586565b6106ad565b6102046102913660046115b2565b61072b565b6102296102a4366004611516565b6001600160a01b031660009081526002602052604090205490565b6102046102cd366004611516565b610899565b610229600080516020611a1883398151915281565b6102296108e8565b6103026102fd3660046115ff565b610a0a565b6040516001600160a01b0390911681526020016101e8565b6101dc610328366004611586565b610a29565b61022961033b366004611531565b610a52565b610229600081565b610229610356366004611621565b610a5e565b610229610369366004611531565b610b03565b61022961037c366004611516565b610b1a565b61020461038f366004611586565b610b48565b6102296103a2366004611516565b610b6e565b6103af610c32565b6040516101e8919061164b565b6102296103ca366004611516565b610c94565b6102046103dd366004611516565b610cff565b6102046103f036600461154a565b610dbf565b61020461040336600461154a565b610ec2565b610229610416366004611516565b6001600160a01b031660009081526002602052604090206001015490565b60006001600160e01b03198216635a05180f60e01b1480610459575061045982611056565b92915050565b610477600080516020611a1883398151915233610a29565b61049c5760405162461bcd60e51b815260040161049390611698565b60405180910390fd5b6001600160a01b0381166000908152600260205260408120805460019091018054919290916104cc9084906116dc565b90915550506001600160a01b0316600090815260026020526040812055565b610503600080516020611a1883398151915233610a29565b61051f5760405162461bcd60e51b815260040161049390611698565b6001600160a01b0382166000908152600260208190526040822001805483929061054a9084906116dc565b90915550506040516000805160206119f8833981519152906105739030908690869086906116f4565b60405180910390a1505050565b610598600080516020611a1883398151915233610a29565b6105b45760405162461bcd60e51b815260040161049390611698565b6040516323b872dd60e01b81526001600160a01b038481166004830152306024830152604482018390528316906323b872dd906064016020604051808303816000875af1158015610609573d6000803e3d6000fd5b505050506040513d601f19601f8201168201806040525081019061062d919061171e565b506001600160a01b038216600090815260026020526040812060010180548392906106599084906116dc565b90915550506040516000805160206119f8833981519152906105739085903090869086906116f4565b60008281526020819052604090206001015461069e813361108b565b6106a883836110ef565b505050565b6001600160a01b038116331461071d5760405162461bcd60e51b815260206004820152602f60248201527f416363657373436f6e74726f6c3a2063616e206f6e6c792072656e6f756e636560448201526e103937b632b9903337b91039b2b63360891b6064820152608401610493565b6107278282611111565b5050565b610743600080516020611a1883398151915233610a29565b61075f5760405162461bcd60e51b815260040161049390611698565b6040516323b872dd60e01b81526001600160a01b038681166004830152306024830152604482018590528516906323b872dd906064016020604051808303816000875af11580156107b4573d6000803e3d6000fd5b505050506040513d601f19601f820116820180604052508101906107d8919061171e565b506001600160a01b038416600090815260026020526040812060010180548492906108049084906116dc565b90915550506001600160a01b03841660009081526002602081905260408220018054849290610834908490611740565b90915550506001600160a01b038416600090815260026020526040812080548392906108619084906116dc565b90915550506040516000805160206119f88339815191529061088a9087903090889088906116f4565b60405180910390a15050505050565b6108b1600080516020611a1883398151915233610a29565b6108cd5760405162461bcd60e51b815260040161049390611698565b6108e5600080516020611a1883398151915282611133565b50565b6004546000908190815b818161ffff161015610a0257600060048261ffff168154811061091757610917611757565b6000918252602090912001546003546040516341976e0960e01b81526001600160a01b03928316600482018190529350670de0b6b3a764000092909116906341976e0990602401602060405180830381865afa15801561097b573d6000803e3d6000fd5b505050506040513d601f19601f8201168201806040525081019061099f919061176d565b6001600160a01b0383166000908152600260208190526040909120908101546001909101546109ce91906116dc565b6109d89190611786565b6109e291906117a5565b6109ec90856116dc565b93505080806109fa906117c7565b9150506108f2565b509092915050565b6000828152600160205260408120610a22908361113d565b9392505050565b6000918252602082815260408084206001600160a01b0393909316845291905290205460ff1690565b60006104598242611740565b600080610a6a84610b6e565b610a7c90670de0b6b3a7640000611740565b90506000610a8a8442611740565b90506301e1855868056bc75e2d631000006ec097ce7bc90715b34b9f1000000000610ab66004866118cd565b610ac091906117a5565b610acb906008611786565b610ad591906117a5565b610ae69066354a6ba7a180006116dc565b610af09083611786565b610afa91906117a5565b95945050505050565b600081815260016020526040812061045990611149565b6001600160a01b038116600090815260026020819052604082209081015460019091015461045991906116dc565b600082815260208190526040902060010154610b64813361108b565b6106a88383611111565b6001600160a01b038116600090815260026020526040812060010154151580610bb257506001600160a01b0382166000908152600260208190526040909120015415155b15610c1e576001600160a01b038216600090815260026020819052604090912090810154600190910154610be691906116dc565b6001600160a01b038316600090815260026020526040902060010154610c1490670de0b6b3a7640000611786565b61045991906117a5565b50670de0b6b3a7640000919050565b919050565b60606004805480602002602001604051908101604052809291908181526020018280548015610c8a57602002820191906000526020600020905b81546001600160a01b03168152600190910190602001808311610c6c575b5050505050905090565b6040516370a0823160e01b81523060048201526000906001600160a01b038316906370a0823190602401602060405180830381865afa158015610cdb573d6000803e3d6000fd5b505050506040513d601f19601f82011682018060405250810190610459919061176d565b610d17600080516020611a1883398151915233610a29565b610d335760405162461bcd60e51b815260040161049390611698565b60408051606081018252600080825260208083018281528385018381526001600160a01b039096168084526002928390529483209351845551600180850191909155945192019190915560048054938401815590527f8a35acfbc15ff81a39ae7d344fd709f28e8600b4aa8c65c6b64bfe7fe36bd19b90910180546001600160a01b0319169091179055565b610dd7600080516020611a1883398151915233610a29565b610df35760405162461bcd60e51b815260040161049390611698565b60405163a9059cbb60e01b81526001600160a01b0384811660048301526024820183905283169063a9059cbb906044016020604051808303816000875af1158015610e42573d6000803e3d6000fd5b505050506040513d601f19601f82011682018060405250810190610e66919061171e565b506001600160a01b03821660009081526002602052604081206001018054839290610e92908490611740565b90915550506001600160a01b0382166000908152600260208190526040822001805483929061054a9084906116dc565b610eda600080516020611a1883398151915233610a29565b610ef65760405162461bcd60e51b815260040161049390611698565b6001600160a01b03821660009081526002602052604081206001018054839290610f21908490611740565b909155505060405163a9059cbb60e01b81526001600160a01b0384811660048301526024820183905283169063a9059cbb906044016020604051808303816000875af1158015610f75573d6000803e3d6000fd5b505050506040513d601f19601f82011682018060405250810190610f99919061171e565b506000805160206119f88339815191523084848460405161057394939291906116f4565b610fc78282610a29565b610727576000828152602081815260408083206001600160a01b03851684529091529020805460ff19166001179055610ffd3390565b6001600160a01b0316816001600160a01b0316837f2f8788117e7eff1d82e926ec794901d17c78024a50270940304540a733656f0d60405160405180910390a45050565b6000610a22836001600160a01b038416611153565b60006001600160e01b03198216637965db0b60e01b148061045957506301ffc9a760e01b6001600160e01b0319831614610459565b6110958282610a29565b610727576110ad816001600160a01b031660146111a2565b6110b88360206111a2565b6040516020016110c992919061190c565b60408051601f198184030181529082905262461bcd60e51b825261049391600401611981565b6110f98282610fbd565b60008281526001602052604090206106a89082611041565b61111b828261133e565b60008281526001602052604090206106a890826113a3565b61072782826110ef565b6000610a2283836113b8565b6000610459825490565b600081815260018301602052604081205461119a57508154600181810184556000848152602080822090930184905584548482528286019093526040902091909155610459565b506000610459565b606060006111b1836002611786565b6111bc9060026116dc565b67ffffffffffffffff8111156111d4576111d46119b4565b6040519080825280601f01601f1916602001820160405280156111fe576020820181803683370190505b509050600360fc1b8160008151811061121957611219611757565b60200101906001600160f81b031916908160001a905350600f60fb1b8160018151811061124857611248611757565b60200101906001600160f81b031916908160001a905350600061126c846002611786565b6112779060016116dc565b90505b60018111156112ef576f181899199a1a9b1b9c1cb0b131b232b360811b85600f16601081106112ab576112ab611757565b1a60f81b8282815181106112c1576112c1611757565b60200101906001600160f81b031916908160001a90535060049490941c936112e8816119ca565b905061127a565b508315610a225760405162461bcd60e51b815260206004820181905260248201527f537472696e67733a20686578206c656e67746820696e73756666696369656e746044820152606401610493565b6113488282610a29565b15610727576000828152602081815260408083206001600160a01b0385168085529252808320805460ff1916905551339285917ff6391f5c32d9c69d2a47ea670b442974b53935d1edc7fd64eb21e047a839171b9190a45050565b6000610a22836001600160a01b0384166113e2565b60008260000182815481106113cf576113cf611757565b9060005260206000200154905092915050565b600081815260018301602052604081205480156114cb576000611406600183611740565b855490915060009061141a90600190611740565b905081811461147f57600086600001828154811061143a5761143a611757565b906000526020600020015490508087600001848154811061145d5761145d611757565b6000918252602080832090910192909255918252600188019052604090208390555b8554869080611490576114906119e1565b600190038181906000526020600020016000905590558560010160008681526020019081526020016000206000905560019350505050610459565b6000915050610459565b6000602082840312156114e757600080fd5b81356001600160e01b031981168114610a2257600080fd5b80356001600160a01b0381168114610c2d57600080fd5b60006020828403121561152857600080fd5b610a22826114ff565b60006020828403121561154357600080fd5b5035919050565b60008060006060848603121561155f57600080fd5b611568846114ff565b9250611576602085016114ff565b9150604084013590509250925092565b6000806040838503121561159957600080fd5b823591506115a9602084016114ff565b90509250929050565b600080600080600060a086880312156115ca57600080fd5b6115d3866114ff565b94506115e1602087016114ff565b94979496505050506040830135926060810135926080909101359150565b6000806040838503121561161257600080fd5b50508035926020909101359150565b6000806040838503121561163457600080fd5b61163d836114ff565b946020939093013593505050565b6020808252825182820181905260009190848201906040850190845b8181101561168c5783516001600160a01b031683529284019291840191600101611667565b50909695505050505050565b6020808252601490820152736d75737420686176652061646d696e20726f6c6560601b604082015260600190565b634e487b7160e01b600052601160045260246000fd5b600082198211156116ef576116ef6116c6565b500190565b6001600160a01b039485168152928416602084015292166040820152606081019190915260800190565b60006020828403121561173057600080fd5b81518015158114610a2257600080fd5b600082821015611752576117526116c6565b500390565b634e487b7160e01b600052603260045260246000fd5b60006020828403121561177f57600080fd5b5051919050565b60008160001904831182151516156117a0576117a06116c6565b500290565b6000826117c257634e487b7160e01b600052601260045260246000fd5b500490565b600061ffff808316818114156117df576117df6116c6565b6001019392505050565b600181815b8085111561182457816000190482111561180a5761180a6116c6565b8085161561181757918102915b93841c93908002906117ee565b509250929050565b60008261183b57506001610459565b8161184857506000610459565b816001811461185e576002811461186857611884565b6001915050610459565b60ff841115611879576118796116c6565b50506001821b610459565b5060208310610133831016604e8410600b84101617156118a7575081810a610459565b6118b183836117e9565b80600019048211156118c5576118c56116c6565b029392505050565b6000610a2260ff84168361182c565b60005b838110156118f75781810151838201526020016118df565b83811115611906576000848401525b50505050565b7f416363657373436f6e74726f6c3a206163636f756e74200000000000000000008152600083516119448160178501602088016118dc565b7001034b99036b4b9b9b4b733903937b6329607d1b60179184019182015283516119758160288401602088016118dc565b01602801949350505050565b60208152600082518060208401526119a08160408501602087016118dc565b601f01601f19169190910160400192915050565b634e487b7160e01b600052604160045260246000fd5b6000816119d9576119d96116c6565b506000190190565b634e487b7160e01b600052603160045260246000fdfe724dd111d8b4c66b0043d7e6eb223c3a7567ec1641110e6d5a71cb0dc7ffaf70a49807205ce4d355092ef5a8a18f56e8913cf4a201fbe287825b095693c21775a2646970667358221220035647102be67f1c40458fc4feb673207b6105ed30759194478341c7584b448764736f6c634300080b0033608060405234801561001057600080fd5b50600060208190527f4e2753d238f0f4cb8962490717ab551b4c023808c7bc37aed6e8760bfc3a92d580546001600160a01b031990811673d8bd0a1cb028a31aa859a21a3758685a95de4623179091557ff4e9730789baae4355b7b087afa1a57a24c222e690ce50ce909b525e8495925b80548216732ba49aaa16e6afd2a993473cfb70fa8559b523cf17905573c778417e063141139fce010982780140aa0cd5ab9091527f02e9d230142cd2a2518ca1eebf58e2b95f971add66b06973a2b3e55bb9e440f98054909116738a753747a1fa494ec906ce90e9f37563a8af630e1790556102b1806101026000396000f3fe608060405234801561001057600080fd5b50600436106100365760003560e01c806341976e091461003b5780634238dc4714610061575b600080fd5b61004e610049366004610141565b6100a2565b6040519081526020015b60405180910390f35b61008a61006f366004610141565b6000602081905290815260409020546001600160a01b031681565b6040516001600160a01b039091168152602001610058565b6001600160a01b03808216600090815260208190526040808220548151633fabe5a360e21b81529151929316918391839163feaf968c9160048082019260a0929091908290030181865afa1580156100fe573d6000803e3d6000fd5b505050506040513d601f19601f820116820180604052508101906101229190610190565b505050915050806402540be40061013991906101f6565b949350505050565b60006020828403121561015357600080fd5b81356001600160a01b038116811461016a57600080fd5b9392505050565b805169ffffffffffffffffffff8116811461018b57600080fd5b919050565b600080600080600060a086880312156101a857600080fd5b6101b186610171565b94506020860151935060408601519250606086015191506101d460808701610171565b90509295509295909350565b634e487b7160e01b600052601160045260246000fd5b60006001600160ff1b038184138284138082168684048611161561021c5761021c6101e0565b600160ff1b600087128281168783058912161561023b5761023b6101e0565b60008712925087820587128484161615610257576102576101e0565b8785058712818416161561026d5761026d6101e0565b50505092909302939250505056fea264697066735822122096845bc61a9da0796fff35ddde335ef618164120a98e6b6dbcb9e1022566754164736f6c634300080b003360806040523480156200001157600080fd5b5060405162002117380380620021178339810160408190526200003491620003eb565b8251839083906200004d9060059060208501906200026a565b508051620000639060069060208401906200026a565b50620000759150600090503362000105565b620000a17f9f2df0fed2c77648de5860a4cc508cd0818c85b8b8a1ab4ceeef8d981c8956a63362000105565b604051620000af90620002f9565b604051809103906000f080158015620000cc573d6000803e3d6000fd5b50600780546001600160a01b039283166001600160a01b0319918216179091556008805493909216921691909117905550620004b59050565b62000111828262000115565b5050565b6200012c82826200015860201b62000a5f1760201c565b60008281526001602090815260409091206200015391839062000ae3620001f8821b17901c565b505050565b6000828152602081815260408083206001600160a01b038516845290915290205460ff1662000111576000828152602081815260408083206001600160a01b03851684529091529020805460ff19166001179055620001b43390565b6001600160a01b0316816001600160a01b0316837f2f8788117e7eff1d82e926ec794901d17c78024a50270940304540a733656f0d60405160405180910390a45050565b60006200020f836001600160a01b03841662000218565b90505b92915050565b6000818152600183016020526040812054620002615750815460018181018455600084815260208082209093018490558454848252828601909352604090209190915562000212565b50600062000212565b828054620002789062000478565b90600052602060002090601f0160209004810192826200029c5760008555620002e7565b82601f10620002b757805160ff1916838001178555620002e7565b82800160010185558215620002e7579182015b82811115620002e7578251825591602001919060010190620002ca565b50620002f592915062000307565b5090565b6103b38062001d6483390190565b5b80821115620002f5576000815560010162000308565b634e487b7160e01b600052604160045260246000fd5b600082601f8301126200034657600080fd5b81516001600160401b03808211156200036357620003636200031e565b604051601f8301601f19908116603f011681019082821181831017156200038e576200038e6200031e565b81604052838152602092508683858801011115620003ab57600080fd5b600091505b83821015620003cf5785820183015181830184015290820190620003b0565b83821115620003e15760008385830101525b9695505050505050565b6000806000606084860312156200040157600080fd5b83516001600160401b03808211156200041957600080fd5b620004278783880162000334565b945060208601519150808211156200043e57600080fd5b506200044d8682870162000334565b604086015190935090506001600160a01b03811681146200046d57600080fd5b809150509250925092565b600181811c908216806200048d57607f821691505b60208210811415620004af57634e487b7160e01b600052602260045260246000fd5b50919050565b61189f80620004c56000396000f3fe608060405234801561001057600080fd5b50600436106101c45760003560e01c806370a08231116100f9578063a217fddf11610097578063ca15c87311610071578063ca15c873146103bb578063d5391393146103ce578063d547741f146103f5578063dd62ed3e1461040857600080fd5b8063a217fddf1461038d578063a457c2d714610395578063a9059cbb146103a857600080fd5b806391d14854116100d357806391d148541461034c5780639311ca691461035f57806395d89b41146103725780639dc29fac1461037a57600080fd5b806370a08231146103085780638a02775b146103315780639010d07c1461033957600080fd5b8063248a9ca31161016657806333d57cdc1161014057806333d57cdc146102c757806336568abe146102cf57806339509351146102e25780636b3e22fc146102f557600080fd5b8063248a9ca3146102805780632f2ff15d146102a3578063313ce567146102b857600080fd5b80630d4d1513116101a25780630d4d15131461021957806316f0115b1461023a57806318160ddd1461026557806323b872dd1461026d57600080fd5b806301ffc9a7146101c957806306fdde03146101f1578063095ea7b314610206575b600080fd5b6101dc6101d73660046114d4565b610441565b60405190151581526020015b60405180910390f35b6101f961046c565b6040516101e8919061152a565b6101dc610214366004611579565b6104fe565b61022c6102273660046115a3565b610514565b6040519081526020016101e8565b60085461024d906001600160a01b031681565b6040516001600160a01b0390911681526020016101e8565b60045461022c565b6101dc61027b3660046115df565b6105bf565b61022c61028e36600461161b565b60009081526020819052604090206001015490565b6102b66102b1366004611634565b610669565b005b604051601281526020016101e8565b61022c610694565b6102b66102dd366004611634565b61070a565b6101dc6102f0366004611579565b610788565b61022c610303366004611579565b6107c4565b61022c610316366004611660565b6001600160a01b031660009081526002602052604090205490565b61022c61085d565b61024d61034736600461167b565b6108cb565b6101dc61035a366004611634565b6108ea565b60075461024d906001600160a01b031681565b6101f9610913565b6102b6610388366004611579565b610922565b61022c600081565b6101dc6103a3366004611579565b61097c565b6101dc6103b6366004611579565b610a15565b61022c6103c936600461161b565b610a22565b61022c7f9f2df0fed2c77648de5860a4cc508cd0818c85b8b8a1ab4ceeef8d981c8956a681565b6102b6610403366004611634565b610a39565b61022c61041636600461169d565b6001600160a01b03918216600090815260036020908152604080832093909416825291909152205490565b60006001600160e01b03198216635a05180f60e01b1480610466575061046682610af8565b92915050565b60606005805461047b906116c7565b80601f01602080910402602001604051908101604052809291908181526020018280546104a7906116c7565b80156104f45780601f106104c9576101008083540402835291602001916104f4565b820191906000526020600020905b8154815290600101906020018083116104d757829003601f168201915b5050505050905090565b600061050b338484610b2d565b50600192915050565b60006105407f9f2df0fed2c77648de5860a4cc508cd0818c85b8b8a1ab4ceeef8d981c8956a6336108ea565b6105915760405162461bcd60e51b815260206004820152601d60248201527f6d7573742068617665206d696e74657220726f6c6520746f206d696e7400000060448201526064015b60405180910390fd5b600061059d83856107c4565b905060006105aa82610c51565b90506105b68682610c97565b95945050505050565b60006105cc848484610d76565b6001600160a01b0384166000908152600360209081526040808320338452909152902054828110156106515760405162461bcd60e51b815260206004820152602860248201527f45524332303a207472616e7366657220616d6f756e74206578636565647320616044820152676c6c6f77616e636560c01b6064820152608401610588565b61065e8533858403610b2d565b506001949350505050565b6000828152602081905260409020600101546106858133610f46565b61068f8383610faa565b505050565b6000806106a060045490565b116106de5760405162461bcd60e51b815260206004820152600e60248201526d737570706c79206973207a65726f60901b6044820152606401610588565b6004546106e961085d565b6106fb90670de0b6b3a7640000611712565b6107059190611731565b905090565b6001600160a01b038116331461077a5760405162461bcd60e51b815260206004820152602f60248201527f416363657373436f6e74726f6c3a2063616e206f6e6c792072656e6f756e636560448201526e103937b632b9903337b91039b2b63360891b6064820152608401610588565b6107848282610fcc565b5050565b3360008181526003602090815260408083206001600160a01b0387168452909152812054909161050b9185906107bf908690611753565b610b2d565b6007546040516341976e0960e01b81526001600160a01b03848116600483015260009283929116906341976e0990602401602060405180830381865afa158015610812573d6000803e3d6000fd5b505050506040513d601f19601f82011682018060405250810190610836919061176b565b9050670de0b6b3a764000061084b8483611712565b6108559190611731565b949350505050565b600854604080516375f4d67760e01b815290516000926001600160a01b0316916375f4d6779160048083019260209291908290030181865afa1580156108a7573d6000803e3d6000fd5b505050506040513d601f19601f82011682018060405250810190610705919061176b565b60008281526001602052604081206108e39083610fee565b9392505050565b6000918252602082815260408084206001600160a01b0393909316845291905290205460ff1690565b60606006805461047b906116c7565b600081116109725760405162461bcd60e51b815260206004820181905260248201527f416d6f756e7420746f2072656465656d206e6565647320746f206265203e20306044820152606401610588565b6107848282610ffa565b3360009081526003602090815260408083206001600160a01b0386168452909152812054828110156109fe5760405162461bcd60e51b815260206004820152602560248201527f45524332303a2064656372656173656420616c6c6f77616e63652062656c6f77604482015264207a65726f60d81b6064820152608401610588565b610a0b3385858403610b2d565b5060019392505050565b600061050b338484610d76565b600081815260016020526040812061046690611148565b600082815260208190526040902060010154610a558133610f46565b61068f8383610fcc565b610a6982826108ea565b610784576000828152602081815260408083206001600160a01b03851684529091529020805460ff19166001179055610a9f3390565b6001600160a01b0316816001600160a01b0316837f2f8788117e7eff1d82e926ec794901d17c78024a50270940304540a733656f0d60405160405180910390a45050565b60006108e3836001600160a01b038416611152565b60006001600160e01b03198216637965db0b60e01b148061046657506301ffc9a760e01b6001600160e01b0319831614610466565b6001600160a01b038316610b8f5760405162461bcd60e51b8152602060048201526024808201527f45524332303a20617070726f76652066726f6d20746865207a65726f206164646044820152637265737360e01b6064820152608401610588565b6001600160a01b038216610bf05760405162461bcd60e51b815260206004820152602260248201527f45524332303a20617070726f766520746f20746865207a65726f206164647265604482015261737360f01b6064820152608401610588565b6001600160a01b0383811660008181526003602090815260408083209487168084529482529182902085905590518481527f8c5be1e5ebec7d5bd14f71427d1e84f3dd0314c0f7b2291e5b200ac8c7c3b925910160405180910390a3505050565b600080610c5c61085d565b9050610c6760045490565b610c72575090919050565b8083610c7d60045490565b610c879190611712565b6108e39190611731565b50919050565b6001600160a01b038216610ced5760405162461bcd60e51b815260206004820152601f60248201527f45524332303a206d696e7420746f20746865207a65726f2061646472657373006044820152606401610588565b8060046000828254610cff9190611753565b90915550506001600160a01b03821660009081526002602052604081208054839290610d2c908490611753565b90915550506040518181526001600160a01b038316906000907fddf252ad1be2c89b69c2b068fc378daa952ba7f163c4a11628f55a4df523b3ef9060200160405180910390a35050565b6001600160a01b038316610dda5760405162461bcd60e51b815260206004820152602560248201527f45524332303a207472616e736665722066726f6d20746865207a65726f206164604482015264647265737360d81b6064820152608401610588565b6001600160a01b038216610e3c5760405162461bcd60e51b815260206004820152602360248201527f45524332303a207472616e7366657220746f20746865207a65726f206164647260448201526265737360e81b6064820152608401610588565b6001600160a01b03831660009081526002602052604090205481811015610eb45760405162461bcd60e51b815260206004820152602660248201527f45524332303a207472616e7366657220616d6f756e7420657863656564732062604482015265616c616e636560d01b6064820152608401610588565b6001600160a01b03808516600090815260026020526040808220858503905591851681529081208054849290610eeb908490611753565b92505081905550826001600160a01b0316846001600160a01b03167fddf252ad1be2c89b69c2b068fc378daa952ba7f163c4a11628f55a4df523b3ef84604051610f3791815260200190565b60405180910390a35b50505050565b610f5082826108ea565b61078457610f68816001600160a01b031660146111a1565b610f738360206111a1565b604051602001610f84929190611784565b60408051601f198184030181529082905262461bcd60e51b82526105889160040161152a565b610fb48282610a5f565b600082815260016020526040902061068f9082610ae3565b610fd6828261133d565b600082815260016020526040902061068f90826113a2565b60006108e383836113b7565b6001600160a01b03821661105a5760405162461bcd60e51b815260206004820152602160248201527f45524332303a206275726e2066726f6d20746865207a65726f206164647265736044820152607360f81b6064820152608401610588565b6001600160a01b038216600090815260026020526040902054818110156110ce5760405162461bcd60e51b815260206004820152602260248201527f45524332303a206275726e20616d6f756e7420657863656564732062616c616e604482015261636560f01b6064820152608401610588565b6001600160a01b03831660009081526002602052604081208383039055600480548492906110fd9084906117f9565b90915550506040518281526000906001600160a01b038516907fddf252ad1be2c89b69c2b068fc378daa952ba7f163c4a11628f55a4df523b3ef9060200160405180910390a3505050565b6000610466825490565b600081815260018301602052604081205461119957508154600181810184556000848152602080822090930184905584548482528286019093526040902091909155610466565b506000610466565b606060006111b0836002611712565b6111bb906002611753565b67ffffffffffffffff8111156111d3576111d3611810565b6040519080825280601f01601f1916602001820160405280156111fd576020820181803683370190505b509050600360fc1b8160008151811061121857611218611826565b60200101906001600160f81b031916908160001a905350600f60fb1b8160018151811061124757611247611826565b60200101906001600160f81b031916908160001a905350600061126b846002611712565b611276906001611753565b90505b60018111156112ee576f181899199a1a9b1b9c1cb0b131b232b360811b85600f16601081106112aa576112aa611826565b1a60f81b8282815181106112c0576112c0611826565b60200101906001600160f81b031916908160001a90535060049490941c936112e78161183c565b9050611279565b5083156108e35760405162461bcd60e51b815260206004820181905260248201527f537472696e67733a20686578206c656e67746820696e73756666696369656e746044820152606401610588565b61134782826108ea565b15610784576000828152602081815260408083206001600160a01b0385168085529252808320805460ff1916905551339285917ff6391f5c32d9c69d2a47ea670b442974b53935d1edc7fd64eb21e047a839171b9190a45050565b60006108e3836001600160a01b0384166113e1565b60008260000182815481106113ce576113ce611826565b9060005260206000200154905092915050565b600081815260018301602052604081205480156114ca5760006114056001836117f9565b8554909150600090611419906001906117f9565b905081811461147e57600086600001828154811061143957611439611826565b906000526020600020015490508087600001848154811061145c5761145c611826565b6000918252602080832090910192909255918252600188019052604090208390555b855486908061148f5761148f611853565b600190038181906000526020600020016000905590558560010160008681526020019081526020016000206000905560019350505050610466565b6000915050610466565b6000602082840312156114e657600080fd5b81356001600160e01b0319811681146108e357600080fd5b60005b83811015611519578181015183820152602001611501565b83811115610f405750506000910152565b60208152600082518060208401526115498160408501602087016114fe565b601f01601f19169190910160400192915050565b80356001600160a01b038116811461157457600080fd5b919050565b6000806040838503121561158c57600080fd5b6115958361155d565b946020939093013593505050565b6000806000606084860312156115b857600080fd5b6115c18461155d565b9250602084013591506115d66040850161155d565b90509250925092565b6000806000606084860312156115f457600080fd5b6115fd8461155d565b925061160b6020850161155d565b9150604084013590509250925092565b60006020828403121561162d57600080fd5b5035919050565b6000806040838503121561164757600080fd5b823591506116576020840161155d565b90509250929050565b60006020828403121561167257600080fd5b6108e38261155d565b6000806040838503121561168e57600080fd5b50508035926020909101359150565b600080604083850312156116b057600080fd5b6116b98361155d565b91506116576020840161155d565b600181811c908216806116db57607f821691505b60208210811415610c9157634e487b7160e01b600052602260045260246000fd5b634e487b7160e01b600052601160045260246000fd5b600081600019048311821515161561172c5761172c6116fc565b500290565b60008261174e57634e487b7160e01b600052601260045260246000fd5b500490565b60008219821115611766576117666116fc565b500190565b60006020828403121561177d57600080fd5b5051919050565b7f416363657373436f6e74726f6c3a206163636f756e74200000000000000000008152600083516117bc8160178501602088016114fe565b7001034b99036b4b9b9b4b733903937b6329607d1b60179184019182015283516117ed8160288401602088016114fe565b01602801949350505050565b60008282101561180b5761180b6116fc565b500390565b634e487b7160e01b600052604160045260246000fd5b634e487b7160e01b600052603260045260246000fd5b60008161184b5761184b6116fc565b506000190190565b634e487b7160e01b600052603160045260246000fdfea2646970667358221220dcd0832cc754dd344e5b1d4cb37bddccaf6e51f5d40b07885cae253d7a74d92564736f6c634300080b0033608060405234801561001057600080fd5b50600060208190527f4e2753d238f0f4cb8962490717ab551b4c023808c7bc37aed6e8760bfc3a92d580546001600160a01b031990811673d8bd0a1cb028a31aa859a21a3758685a95de4623179091557ff4e9730789baae4355b7b087afa1a57a24c222e690ce50ce909b525e8495925b80548216732ba49aaa16e6afd2a993473cfb70fa8559b523cf17905573c778417e063141139fce010982780140aa0cd5ab9091527f02e9d230142cd2a2518ca1eebf58e2b95f971add66b06973a2b3e55bb9e440f98054909116738a753747a1fa494ec906ce90e9f37563a8af630e1790556102b1806101026000396000f3fe608060405234801561001057600080fd5b50600436106100365760003560e01c806341976e091461003b5780634238dc4714610061575b600080fd5b61004e610049366004610141565b6100a2565b6040519081526020015b60405180910390f35b61008a61006f366004610141565b6000602081905290815260409020546001600160a01b031681565b6040516001600160a01b039091168152602001610058565b6001600160a01b03808216600090815260208190526040808220548151633fabe5a360e21b81529151929316918391839163feaf968c9160048082019260a0929091908290030181865afa1580156100fe573d6000803e3d6000fd5b505050506040513d601f19601f820116820180604052508101906101229190610190565b505050915050806402540be40061013991906101f6565b949350505050565b60006020828403121561015357600080fd5b81356001600160a01b038116811461016a57600080fd5b9392505050565b805169ffffffffffffffffffff8116811461018b57600080fd5b919050565b600080600080600060a086880312156101a857600080fd5b6101b186610171565b94506020860151935060408601519250606086015191506101d460808701610171565b90509295509295909350565b634e487b7160e01b600052601160045260246000fd5b60006001600160ff1b038184138284138082168684048611161561021c5761021c6101e0565b600160ff1b600087128281168783058912161561023b5761023b6101e0565b60008712925087820587128484161615610257576102576101e0565b8785058712818416161561026d5761026d6101e0565b50505092909302939250505056fea264697066735822122096845bc61a9da0796fff35ddde335ef618164120a98e6b6dbcb9e1022566754164736f6c634300080b003360806040523480156200001157600080fd5b5060405162001793380380620017938339810160408190526200003491620002eb565b600380546001600160a01b0319166001600160a01b0383161790556040516200005d90620002dd565b604051809103906000f0801580156200007a573d6000803e3d6000fd5b50600480546001600160a01b03929092166001600160a01b0319928316179055600280546001818101835560008390527f405787fa12a823e0f2b7631cc41b3ba8828b3321ca811111fa75cd3aa3bb5ace91820180548516735592ec0cfb4dbc12d3ab100b257153436a1f0fea9081179091558354808301855583018054861673c778417e063141139fce010982780140aa0cd5ab9081179091558454928301909455910180549093167301be23585060835e02b77ef475b0cc51aa1e07099081179093559091906200016e7fa49807205ce4d355092ef5a8a18f56e8913cf4a201fbe287825b095693c217753362000178565b505050506200031d565b62000184828262000188565b5050565b6200019f8282620001cb60201b6200081d1760201c565b6000828152600160209081526040909120620001c6918390620008a16200026b821b17901c565b505050565b6000828152602081815260408083206001600160a01b038516845290915290205460ff1662000184576000828152602081815260408083206001600160a01b03851684529091529020805460ff19166001179055620002273390565b6001600160a01b0316816001600160a01b0316837f2f8788117e7eff1d82e926ec794901d17c78024a50270940304540a733656f0d60405160405180910390a45050565b600062000282836001600160a01b0384166200028b565b90505b92915050565b6000818152600183016020526040812054620002d45750815460018181018455600084815260208082209093018490558454848252828601909352604090209190915562000285565b50600062000285565b6103b380620013e083390190565b600060208284031215620002fe57600080fd5b81516001600160a01b03811681146200031657600080fd5b9392505050565b6110b3806200032d6000396000f3fe608060405234801561001057600080fd5b50600436106101165760003560e01c806375b238fc116100a2578063aa44e43f11610071578063aa44e43f14610243578063bd4b002e14610256578063ca15c87314610269578063d547741f1461027c578063fac09e871461028f57600080fd5b806375b238fc146101e85780639010d07c146101fd57806391d1485414610228578063a217fddf1461023b57600080fd5b806336568abe116100e957806336568abe1461019c5780634093d5d6146101af57806346eb60d51461019a57806351b39b0f146101c25780637065cb48146101d557600080fd5b806301ffc9a71461011b57806315226b5414610143578063248a9ca3146101645780632f2ff15d14610187575b600080fd5b61012e610129366004610d35565b6102ef565b60405190151581526020015b60405180910390f35b610156610151366004610d7b565b61031a565b60405190815260200161013a565b610156610172366004610d96565b60009081526020819052604090206001015490565b61019a610195366004610daf565b61038b565b005b61019a6101aa366004610daf565b6103b6565b61019a6101bd366004610ddb565b610439565b61019a6101d0366004610ddb565b610555565b61019a6101e3366004610d7b565b6105c4565b61015660008051602061105e83398151915281565b61021061020b366004610e17565b610613565b6040516001600160a01b03909116815260200161013a565b61012e610236366004610daf565b610632565b610156600081565b61019a610251366004610ddb565b61065b565b61019a610264366004610e39565b6106c4565b610156610277366004610d96565b6107e0565b61019a61028a366004610daf565b6107f7565b61019a61029d366004610d7b565b600280546001810182556000919091527f405787fa12a823e0f2b7631cc41b3ba8828b3321ca811111fa75cd3aa3bb5ace0180546001600160a01b0319166001600160a01b0392909216919091179055565b60006001600160e01b03198216635a05180f60e01b14806103145750610314826108b6565b92915050565b6040516370a0823160e01b81523060048201526000906001600160a01b038316906370a0823190602401602060405180830381865afa158015610361573d6000803e3d6000fd5b505050506040513d601f19601f820116820180604052508101906103859190610e63565b50919050565b6000828152602081905260409020600101546103a781336108eb565b6103b1838361094f565b505050565b6001600160a01b038116331461042b5760405162461bcd60e51b815260206004820152602f60248201527f416363657373436f6e74726f6c3a2063616e206f6e6c792072656e6f756e636560448201526e103937b632b9903337b91039b2b63360891b60648201526084015b60405180910390fd5b6104358282610971565b5050565b61045160008051602061105e83398151915233610632565b61046d5760405162461bcd60e51b815260040161042290610e7c565b600354604051632a36634d60e01b81526001600160a01b03858116600483015284811660248301526044820184905290911690632a36634d90606401600060405180830381600087803b1580156104c357600080fd5b505af11580156104d7573d6000803e3d6000fd5b505060405163a9059cbb60e01b81526001600160a01b038681166004830152602482018590528516925063a9059cbb91506044015b6020604051808303816000875af115801561052b573d6000803e3d6000fd5b505050506040513d601f19601f8201168201806040525081019061054f9190610eaa565b50505050565b61056d60008051602061105e83398151915233610632565b6105895760405162461bcd60e51b815260040161042290610e7c565b6040516323b872dd60e01b81526001600160a01b038481166004830152306024830152604482018390528316906323b872dd9060640161050c565b6105dc60008051602061105e83398151915233610632565b6105f85760405162461bcd60e51b815260040161042290610e7c565b61061060008051602061105e83398151915282610993565b50565b600082815260016020526040812061062b908361099d565b9392505050565b6000918252602082815260408084206001600160a01b0393909316845291905290205460ff1690565b61067360008051602061105e83398151915233610632565b61068f5760405162461bcd60e51b815260040161042290610e7c565b60405163a9059cbb60e01b81526001600160a01b0384811660048301526024820183905283169063a9059cbb9060440161050c565b6106dc60008051602061105e83398151915233610632565b6106f85760405162461bcd60e51b815260040161042290610e7c565b60035460405163095ea7b360e01b81526001600160a01b039182166004820152602481018390529083169063095ea7b3906044016020604051808303816000875af115801561074b573d6000803e3d6000fd5b505050506040513d601f19601f8201168201806040525081019061076f9190610eaa565b50600354604051631740ecaf60e11b81523060048201526001600160a01b0384811660248301526044820184905290911690632e81d95e90606401600060405180830381600087803b1580156107c457600080fd5b505af11580156107d8573d6000803e3d6000fd5b505050505050565b6000818152600160205260408120610314906109a9565b60008281526020819052604090206001015461081381336108eb565b6103b18383610971565b6108278282610632565b610435576000828152602081815260408083206001600160a01b03851684529091529020805460ff1916600117905561085d3390565b6001600160a01b0316816001600160a01b0316837f2f8788117e7eff1d82e926ec794901d17c78024a50270940304540a733656f0d60405160405180910390a45050565b600061062b836001600160a01b0384166109b3565b60006001600160e01b03198216637965db0b60e01b148061031457506301ffc9a760e01b6001600160e01b0319831614610314565b6108f58282610632565b6104355761090d816001600160a01b03166014610a02565b610918836020610a02565b604051602001610929929190610ef8565b60408051601f198184030181529082905262461bcd60e51b825261042291600401610f6d565b610959828261081d565b60008281526001602052604090206103b190826108a1565b61097b8282610b9e565b60008281526001602052604090206103b19082610c03565b610435828261094f565b600061062b8383610c18565b6000610314825490565b60008181526001830160205260408120546109fa57508154600181810184556000848152602080822090930184905584548482528286019093526040902091909155610314565b506000610314565b60606000610a11836002610fb6565b610a1c906002610fd5565b67ffffffffffffffff811115610a3457610a34610fed565b6040519080825280601f01601f191660200182016040528015610a5e576020820181803683370190505b509050600360fc1b81600081518110610a7957610a79611003565b60200101906001600160f81b031916908160001a905350600f60fb1b81600181518110610aa857610aa8611003565b60200101906001600160f81b031916908160001a9053506000610acc846002610fb6565b610ad7906001610fd5565b90505b6001811115610b4f576f181899199a1a9b1b9c1cb0b131b232b360811b85600f1660108110610b0b57610b0b611003565b1a60f81b828281518110610b2157610b21611003565b60200101906001600160f81b031916908160001a90535060049490941c93610b4881611019565b9050610ada565b50831561062b5760405162461bcd60e51b815260206004820181905260248201527f537472696e67733a20686578206c656e67746820696e73756666696369656e746044820152606401610422565b610ba88282610632565b15610435576000828152602081815260408083206001600160a01b0385168085529252808320805460ff1916905551339285917ff6391f5c32d9c69d2a47ea670b442974b53935d1edc7fd64eb21e047a839171b9190a45050565b600061062b836001600160a01b038416610c42565b6000826000018281548110610c2f57610c2f611003565b9060005260206000200154905092915050565b60008181526001830160205260408120548015610d2b576000610c66600183611030565b8554909150600090610c7a90600190611030565b9050818114610cdf576000866000018281548110610c9a57610c9a611003565b9060005260206000200154905080876000018481548110610cbd57610cbd611003565b6000918252602080832090910192909255918252600188019052604090208390555b8554869080610cf057610cf0611047565b600190038181906000526020600020016000905590558560010160008681526020019081526020016000206000905560019350505050610314565b6000915050610314565b600060208284031215610d4757600080fd5b81356001600160e01b03198116811461062b57600080fd5b80356001600160a01b0381168114610d7657600080fd5b919050565b600060208284031215610d8d57600080fd5b61062b82610d5f565b600060208284031215610da857600080fd5b5035919050565b60008060408385031215610dc257600080fd5b82359150610dd260208401610d5f565b90509250929050565b600080600060608486031215610df057600080fd5b610df984610d5f565b9250610e0760208501610d5f565b9150604084013590509250925092565b60008060408385031215610e2a57600080fd5b50508035926020909101359150565b60008060408385031215610e4c57600080fd5b610e5583610d5f565b946020939093013593505050565b600060208284031215610e7557600080fd5b5051919050565b6020808252601490820152736d75737420686176652061646d696e20726f6c6560601b604082015260600190565b600060208284031215610ebc57600080fd5b8151801515811461062b57600080fd5b60005b83811015610ee7578181015183820152602001610ecf565b8381111561054f5750506000910152565b7f416363657373436f6e74726f6c3a206163636f756e7420000000000000000000815260008351610f30816017850160208801610ecc565b7001034b99036b4b9b9b4b733903937b6329607d1b6017918401918201528351610f61816028840160208801610ecc565b01602801949350505050565b6020815260008251806020840152610f8c816040850160208701610ecc565b601f01601f19169190910160400192915050565b634e487b7160e01b600052601160045260246000fd5b6000816000190483118215151615610fd057610fd0610fa0565b500290565b60008219821115610fe857610fe8610fa0565b500190565b634e487b7160e01b600052604160045260246000fd5b634e487b7160e01b600052603260045260246000fd5b60008161102857611028610fa0565b506000190190565b60008282101561104257611042610fa0565b500390565b634e487b7160e01b600052603160045260246000fdfea49807205ce4d355092ef5a8a18f56e8913cf4a201fbe287825b095693c21775a2646970667358221220e29e09a8a41550a06bac7f7fe8337757aa86b92a8981ef3f616fc727bba4ecd164736f6c634300080b0033608060405234801561001057600080fd5b50600060208190527f4e2753d238f0f4cb8962490717ab551b4c023808c7bc37aed6e8760bfc3a92d580546001600160a01b031990811673d8bd0a1cb028a31aa859a21a3758685a95de4623179091557ff4e9730789baae4355b7b087afa1a57a24c222e690ce50ce909b525e8495925b80548216732ba49aaa16e6afd2a993473cfb70fa8559b523cf17905573c778417e063141139fce010982780140aa0cd5ab9091527f02e9d230142cd2a2518ca1eebf58e2b95f971add66b06973a2b3e55bb9e440f98054909116738a753747a1fa494ec906ce90e9f37563a8af630e1790556102b1806101026000396000f3fe608060405234801561001057600080fd5b50600436106100365760003560e01c806341976e091461003b5780634238dc4714610061575b600080fd5b61004e610049366004610141565b6100a2565b6040519081526020015b60405180910390f35b61008a61006f366004610141565b6000602081905290815260409020546001600160a01b031681565b6040516001600160a01b039091168152602001610058565b6001600160a01b03808216600090815260208190526040808220548151633fabe5a360e21b81529151929316918391839163feaf968c9160048082019260a0929091908290030181865afa1580156100fe573d6000803e3d6000fd5b505050506040513d601f19601f820116820180604052508101906101229190610190565b505050915050806402540be40061013991906101f6565b949350505050565b60006020828403121561015357600080fd5b81356001600160a01b038116811461016a57600080fd5b9392505050565b805169ffffffffffffffffffff8116811461018b57600080fd5b919050565b600080600080600060a086880312156101a857600080fd5b6101b186610171565b94506020860151935060408601519250606086015191506101d460808701610171565b90509295509295909350565b634e487b7160e01b600052601160045260246000fd5b60006001600160ff1b038184138284138082168684048611161561021c5761021c6101e0565b600160ff1b600087128281168783058912161561023b5761023b6101e0565b60008712925087820587128484161615610257576102576101e0565b8785058712818416161561026d5761026d6101e0565b50505092909302939250505056fea264697066735822122096845bc61a9da0796fff35ddde335ef618164120a98e6b6dbcb9e1022566754164736f6c634300080b003360806040523480156200001157600080fd5b50604051620020483803806200204883398101604081905262000034916200039d565b600780546001600160a01b038085166001600160a01b0319928316179092556008805492841692909116919091179055604051620000729062000372565b604051809103906000f0801580156200008f573d6000803e3d6000fd5b50600280546001600160a01b03929092166001600160a01b03199283161790556004602052671158e460913d00007f12bc7a9befd42dc50515e64a09b588f85591f7c2f29aaae76fd28ee02f6cc59b556717098134772600007f4f71ea03a32efa61b07c37162397523765a18648b1eeaf303ac9be899f99d5e28190557ff1007cd9f0c617b521055afba720533e6dc12fd98fe400eba276c955293022e055600680546001818101835560008390527ff652222313e28459528d920b65115c16c04f3efc82aaedc97be59f3f377c0d3f91820180548516735592ec0cfb4dbc12d3ab100b257153436a1f0fea9081179091558354808301855583018054861673c778417e063141139fce010982780140aa0cd5ab9081179091558454928301909455910180549093167301be23585060835e02b77ef475b0cc51aa1e0709908117909355909190620002027fa49807205ce4d355092ef5a8a18f56e8913cf4a201fbe287825b095693c21775336200020d565b5050505050620003d5565b6200021982826200021d565b5050565b6200023482826200026060201b62000f0a1760201c565b60008281526001602090815260409091206200025b91839062000f8e62000300821b17901c565b505050565b6000828152602081815260408083206001600160a01b038516845290915290205460ff1662000219576000828152602081815260408083206001600160a01b03851684529091529020805460ff19166001179055620002bc3390565b6001600160a01b0316816001600160a01b0316837f2f8788117e7eff1d82e926ec794901d17c78024a50270940304540a733656f0d60405160405180910390a45050565b600062000317836001600160a01b03841662000320565b90505b92915050565b600081815260018301602052604081205462000369575081546001818101845560008481526020808220909301849055845484825282860190935260409020919091556200031a565b5060006200031a565b6103b38062001c9583390190565b80516001600160a01b03811681146200039857600080fd5b919050565b60008060408385031215620003b157600080fd5b620003bc8362000380565b9150620003cc6020840162000380565b90509250929050565b6118b080620003e56000396000f3fe608060405234801561001057600080fd5b50600436106101735760003560e01c806375b238fc116100de578063a347e24c11610097578063d547741f11610071578063d547741f1461039d578063f8b2cb4f146103b0578063f970c3b7146103c3578063fac09e87146103d657600080fd5b8063a347e24c1461034e578063ca15c87314610377578063cd3293de1461038a57600080fd5b806375b238fc146102e55780638eabd4fe146102fa5780639010d07c1461030d57806391d14854146103205780639311ca6914610333578063a217fddf1461034657600080fd5b80632f2ff15d116101305780632f2ff15d1461025d5780633414f8d81461027057806336568abe146102995780636858ea07146102ac5780637065cb48146102bf5780637544aa44146102d257600080fd5b806301fcd2d51461017857806301ffc9a71461019e57806316f0115b146101c1578063248a9ca3146101ec57806324ee57601461020f5780632b92a07d14610224575b600080fd5b61018b61018636600461143e565b6103e9565b6040519081526020015b60405180910390f35b6101b16101ac366004611459565b61050a565b6040519015158152602001610195565b6007546101d4906001600160a01b031681565b6040516001600160a01b039091168152602001610195565b61018b6101fa366004611483565b60009081526020819052604090206001015490565b61022261021d36600461149c565b610535565b005b61018b6102323660046114d8565b6001600160a01b03918216600090815260056020908152604080832093909416825291909152205490565b61022261026b36600461150b565b610721565b61018b61027e36600461143e565b6001600160a01b031660009081526004602052604090205490565b6102226102a736600461150b565b610747565b6102226102ba36600461152e565b6107c5565b6102226102cd36600461143e565b610815565b61018b6102e036600461143e565b610864565b61018b60008051602061185b83398151915281565b610222610308366004611566565b6109a5565b6101d461031b3660046115b5565b610c39565b6101b161032e36600461150b565b610c58565b6002546101d4906001600160a01b031681565b61018b600081565b61018b61035c36600461143e565b6001600160a01b031660009081526003602052604090205490565b61018b610385366004611483565b610c81565b6008546101d4906001600160a01b031681565b6102226103ab36600461150b565b610c98565b61018b6103be36600461143e565b610cbe565b6102226103d136600461149c565b610d29565b6102226103e436600461143e565b610e71565b6006546000908190815b818161ffff16101561050157600060068261ffff1681548110610418576104186115d7565b6000918252602080832091909101546001600160a01b039081168084526004928390526040938490205460025494516341976e0960e01b81529384018290529094509216906341976e0990602401602060405180830381865afa158015610483573d6000803e3d6000fd5b505050506040513d601f19601f820116820180604052508101906104a791906115ed565b6001600160a01b038084166000908152600560209081526040808320938c16835292905220546104d7919061161c565b6104e1919061163b565b6104eb908561165d565b93505080806104f990611675565b9150506103f3565b50909392505050565b60006001600160e01b03198216635a05180f60e01b148061052f575061052f82610fa3565b92915050565b61054d60008051602061185b83398151915233610c58565b6105725760405162461bcd60e51b815260040161056990611697565b60405180910390fd5b60085460405163095ea7b360e01b81526001600160a01b039182166004820152602481018390529083169063095ea7b3906044016020604051808303816000875af11580156105c5573d6000803e3d6000fd5b505050506040513d601f19601f820116820180604052508101906105e991906116c5565b506008546040516351b39b0f60e01b81523060048201526001600160a01b03848116602483015260448201849052909116906351b39b0f90606401600060405180830381600087803b15801561063e57600080fd5b505af1158015610652573d6000803e3d6000fd5b505060085460405160008051602061183b8339815191529350610685925030916001600160a01b031690869086906116e2565b60405180910390a16001600160a01b038083166000908152600560209081526040808320938716835292905290812080548392906106c490849061170c565b90915550506001600160a01b0380831660009081526005602090815260408083209387168352929052205461071c576001600160a01b0380831660009081526005602090815260408083209387168352929052908120555b505050565b60008281526020819052604090206001015461073d8133610fd8565b61071c838361103c565b6001600160a01b03811633146107b75760405162461bcd60e51b815260206004820152602f60248201527f416363657373436f6e74726f6c3a2063616e206f6e6c792072656e6f756e636560448201526e103937b632b9903337b91039b2b63360891b6064820152608401610569565b6107c1828261105e565b5050565b6107dd60008051602061185b83398151915233610c58565b6107f95760405162461bcd60e51b815260040161056990611697565b6001600160a01b03909116600090815260046020526040902055565b61082d60008051602061185b83398151915233610c58565b6108495760405162461bcd60e51b815260040161056990611697565b61086160008051602061185b83398151915282611080565b50565b6006546000908190815b818161ffff1610156105015760025460068054670de0b6b3a7640000926001600160a01b0316916341976e099161ffff86169081106108af576108af6115d7565b60009182526020909120015460405160e083901b6001600160e01b03191681526001600160a01b039091166004820152602401602060405180830381865afa1580156108ff573d6000803e3d6000fd5b505050506040513d601f19601f8201168201806040525081019061092391906115ed565b6005600060068561ffff168154811061093e5761093e6115d7565b60009182526020808320909101546001600160a01b0390811684528382019490945260409283018220938b1682529290925290205461097d919061161c565b610987919061163b565b610991908461165d565b92508061099d81611675565b91505061086e565b6109bd60008051602061185b83398151915233610c58565b6109d95760405162461bcd60e51b815260040161056990611697565b60018115151415610b045760075460405163095ea7b360e01b81526001600160a01b039182166004820152602481018490529084169063095ea7b3906044016020604051808303816000875af1158015610a37573d6000803e3d6000fd5b505050506040513d601f19601f82011682018060405250810190610a5b91906116c5565b50600754604051631740ecaf60e11b81523060048201526001600160a01b0385811660248301526044820185905290911690632e81d95e90606401600060405180830381600087803b158015610ab057600080fd5b505af1158015610ac4573d6000803e3d6000fd5b505060075460405160008051602061183b8339815191529350610af7925030916001600160a01b031690879087906116e2565b60405180910390a1610ba4565b60405163a9059cbb60e01b81526001600160a01b0385811660048301526024820184905284169063a9059cbb906044016020604051808303816000875af1158015610b53573d6000803e3d6000fd5b505050506040513d601f19601f82011682018060405250810190610b7791906116c5565b5060008051602061183b83398151915230858585604051610b9b94939291906116e2565b60405180910390a15b6001600160a01b03808416600090815260056020908152604080832093881683529290529081208054849290610bdb90849061170c565b90915550506001600160a01b03808416600090815260056020908152604080832093881683529290522054610c33576001600160a01b0380841660009081526005602090815260408083209388168352929052908120555b50505050565b6000828152600160205260408120610c51908361108a565b9392505050565b6000918252602082815260408084206001600160a01b0393909316845291905290205460ff1690565b600081815260016020526040812061052f90611096565b600082815260208190526040902060010154610cb48133610fd8565b61071c838361105e565b6040516370a0823160e01b81523060048201526000906001600160a01b038316906370a0823190602401602060405180830381865afa158015610d05573d6000803e3d6000fd5b505050506040513d601f19601f8201168201806040525081019061052f91906115ed565b610d4160008051602061185b83398151915233610c58565b610d5d5760405162461bcd60e51b815260040161056990611697565b6040516323b872dd60e01b81526001600160a01b038481166004830152306024830152604482018390528316906323b872dd906064016020604051808303816000875af1158015610db2573d6000803e3d6000fd5b505050506040513d601f19601f82011682018060405250810190610dd691906116c5565b506001600160a01b03821660009081526003602052604081208054839290610dff90849061165d565b90915550506001600160a01b03808316600090815260056020908152604080832093871683529290529081208054839290610e3b90849061165d565b909155505060405160008051602061183b83398151915290610e649085903090869086906116e2565b60405180910390a1505050565b610e8960008051602061185b83398151915233610c58565b610ea55760405162461bcd60e51b815260040161056990611697565b60068054600181019091557ff652222313e28459528d920b65115c16c04f3efc82aaedc97be59f3f377c0d3f0180546001600160a01b039092166001600160a01b03199092168217905560009081526004602052604090206717098134772600009055565b610f148282610c58565b6107c1576000828152602081815260408083206001600160a01b03851684529091529020805460ff19166001179055610f4a3390565b6001600160a01b0316816001600160a01b0316837f2f8788117e7eff1d82e926ec794901d17c78024a50270940304540a733656f0d60405160405180910390a45050565b6000610c51836001600160a01b0384166110a0565b60006001600160e01b03198216637965db0b60e01b148061052f57506301ffc9a760e01b6001600160e01b031983161461052f565b610fe28282610c58565b6107c157610ffa816001600160a01b031660146110ef565b6110058360206110ef565b60405160200161101692919061174f565b60408051601f198184030181529082905262461bcd60e51b8252610569916004016117c4565b6110468282610f0a565b600082815260016020526040902061071c9082610f8e565b611068828261128b565b600082815260016020526040902061071c90826112f0565b6107c1828261103c565b6000610c518383611305565b600061052f825490565b60008181526001830160205260408120546110e75750815460018181018455600084815260208082209093018490558454848252828601909352604090209190915561052f565b50600061052f565b606060006110fe83600261161c565b61110990600261165d565b67ffffffffffffffff811115611121576111216117f7565b6040519080825280601f01601f19166020018201604052801561114b576020820181803683370190505b509050600360fc1b81600081518110611166576111666115d7565b60200101906001600160f81b031916908160001a905350600f60fb1b81600181518110611195576111956115d7565b60200101906001600160f81b031916908160001a90535060006111b984600261161c565b6111c490600161165d565b90505b600181111561123c576f181899199a1a9b1b9c1cb0b131b232b360811b85600f16601081106111f8576111f86115d7565b1a60f81b82828151811061120e5761120e6115d7565b60200101906001600160f81b031916908160001a90535060049490941c936112358161180d565b90506111c7565b508315610c515760405162461bcd60e51b815260206004820181905260248201527f537472696e67733a20686578206c656e67746820696e73756666696369656e746044820152606401610569565b6112958282610c58565b156107c1576000828152602081815260408083206001600160a01b0385168085529252808320805460ff1916905551339285917ff6391f5c32d9c69d2a47ea670b442974b53935d1edc7fd64eb21e047a839171b9190a45050565b6000610c51836001600160a01b03841661132f565b600082600001828154811061131c5761131c6115d7565b9060005260206000200154905092915050565b6000818152600183016020526040812054801561141857600061135360018361170c565b85549091506000906113679060019061170c565b90508181146113cc576000866000018281548110611387576113876115d7565b90600052602060002001549050808760000184815481106113aa576113aa6115d7565b6000918252602080832090910192909255918252600188019052604090208390555b85548690806113dd576113dd611824565b60019003818190600052602060002001600090559055856001016000868152602001908152602001600020600090556001935050505061052f565b600091505061052f565b80356001600160a01b038116811461143957600080fd5b919050565b60006020828403121561145057600080fd5b610c5182611422565b60006020828403121561146b57600080fd5b81356001600160e01b031981168114610c5157600080fd5b60006020828403121561149557600080fd5b5035919050565b6000806000606084860312156114b157600080fd5b6114ba84611422565b92506114c860208501611422565b9150604084013590509250925092565b600080604083850312156114eb57600080fd5b6114f483611422565b915061150260208401611422565b90509250929050565b6000806040838503121561151e57600080fd5b8235915061150260208401611422565b6000806040838503121561154157600080fd5b61154a83611422565b946020939093013593505050565b801515811461086157600080fd5b6000806000806080858703121561157c57600080fd5b61158585611422565b935061159360208601611422565b92506040850135915060608501356115aa81611558565b939692955090935050565b600080604083850312156115c857600080fd5b50508035926020909101359150565b634e487b7160e01b600052603260045260246000fd5b6000602082840312156115ff57600080fd5b5051919050565b634e487b7160e01b600052601160045260246000fd5b600081600019048311821515161561163657611636611606565b500290565b60008261165857634e487b7160e01b600052601260045260246000fd5b500490565b6000821982111561167057611670611606565b500190565b600061ffff8083168181141561168d5761168d611606565b6001019392505050565b6020808252601490820152736d75737420686176652061646d696e20726f6c6560601b604082015260600190565b6000602082840312156116d757600080fd5b8151610c5181611558565b6001600160a01b039485168152928416602084015292166040820152606081019190915260800190565b60008282101561171e5761171e611606565b500390565b60005b8381101561173e578181015183820152602001611726565b83811115610c335750506000910152565b7f416363657373436f6e74726f6c3a206163636f756e7420000000000000000000815260008351611787816017850160208801611723565b7001034b99036b4b9b9b4b733903937b6329607d1b60179184019182015283516117b8816028840160208801611723565b01602801949350505050565b60208152600082518060208401526117e3816040850160208701611723565b601f01601f19169190910160400192915050565b634e487b7160e01b600052604160045260246000fd5b60008161181c5761181c611606565b506000190190565b634e487b7160e01b600052603160045260246000fdfe2b9fbe1f74bf284e62c93e9be9e1922974988a700ec26ada4c1899f842088df5a49807205ce4d355092ef5a8a18f56e8913cf4a201fbe287825b095693c21775a2646970667358221220f3652e1a8f88156e0ccac4f8142396c9cf8246b30d60bc395f1aeaf1413d094564736f6c634300080b0033608060405234801561001057600080fd5b50600060208190527f4e2753d238f0f4cb8962490717ab551b4c023808c7bc37aed6e8760bfc3a92d580546001600160a01b031990811673d8bd0a1cb028a31aa859a21a3758685a95de4623179091557ff4e9730789baae4355b7b087afa1a57a24c222e690ce50ce909b525e8495925b80548216732ba49aaa16e6afd2a993473cfb70fa8559b523cf17905573c778417e063141139fce010982780140aa0cd5ab9091527f02e9d230142cd2a2518ca1eebf58e2b95f971add66b06973a2b3e55bb9e440f98054909116738a753747a1fa494ec906ce90e9f37563a8af630e1790556102b1806101026000396000f3fe608060405234801561001057600080fd5b50600436106100365760003560e01c806341976e091461003b5780634238dc4714610061575b600080fd5b61004e610049366004610141565b6100a2565b6040519081526020015b60405180910390f35b61008a61006f366004610141565b6000602081905290815260409020546001600160a01b031681565b6040516001600160a01b039091168152602001610058565b6001600160a01b03808216600090815260208190526040808220548151633fabe5a360e21b81529151929316918391839163feaf968c9160048082019260a0929091908290030181865afa1580156100fe573d6000803e3d6000fd5b505050506040513d601f19601f820116820180604052508101906101229190610190565b505050915050806402540be40061013991906101f6565b949350505050565b60006020828403121561015357600080fd5b81356001600160a01b038116811461016a57600080fd5b9392505050565b805169ffffffffffffffffffff8116811461018b57600080fd5b919050565b600080600080600060a086880312156101a857600080fd5b6101b186610171565b94506020860151935060408601519250606086015191506101d460808701610171565b90509295509295909350565b634e487b7160e01b600052601160045260246000fd5b60006001600160ff1b038184138284138082168684048611161561021c5761021c6101e0565b600160ff1b600087128281168783058912161561023b5761023b6101e0565b60008712925087820587128484161615610257576102576101e0565b8785058712818416161561026d5761026d6101e0565b50505092909302939250505056fea264697066735822122096845bc61a9da0796fff35ddde335ef618164120a98e6b6dbcb9e1022566754164736f6c634300080b0033608060405234801561001057600080fd5b50600060208190527f4e2753d238f0f4cb8962490717ab551b4c023808c7bc37aed6e8760bfc3a92d580546001600160a01b031990811673d8bd0a1cb028a31aa859a21a3758685a95de4623179091557ff4e9730789baae4355b7b087afa1a57a24c222e690ce50ce909b525e8495925b80548216732ba49aaa16e6afd2a993473cfb70fa8559b523cf17905573c778417e063141139fce010982780140aa0cd5ab9091527f02e9d230142cd2a2518ca1eebf58e2b95f971add66b06973a2b3e55bb9e440f98054909116738a753747a1fa494ec906ce90e9f37563a8af630e1790556102b1806101026000396000f3fe608060405234801561001057600080fd5b50600436106100365760003560e01c806341976e091461003b5780634238dc4714610061575b600080fd5b61004e610049366004610141565b6100a2565b6040519081526020015b60405180910390f35b61008a61006f366004610141565b6000602081905290815260409020546001600160a01b031681565b6040516001600160a01b039091168152602001610058565b6001600160a01b03808216600090815260208190526040808220548151633fabe5a360e21b81529151929316918391839163feaf968c9160048082019260a0929091908290030181865afa1580156100fe573d6000803e3d6000fd5b505050506040513d601f19601f820116820180604052508101906101229190610190565b505050915050806402540be40061013991906101f6565b949350505050565b60006020828403121561015357600080fd5b81356001600160a01b038116811461016a57600080fd5b9392505050565b805169ffffffffffffffffffff8116811461018b57600080fd5b919050565b600080600080600060a086880312156101a857600080fd5b6101b186610171565b94506020860151935060408601519250606086015191506101d460808701610171565b90509295509295909350565b634e487b7160e01b600052601160045260246000fd5b60006001600160ff1b038184138284138082168684048611161561021c5761021c6101e0565b600160ff1b600087128281168783058912161561023b5761023b6101e0565b60008712925087820587128484161615610257576102576101e0565b8785058712818416161561026d5761026d6101e0565b50505092909302939250505056fea264697066735822122096845bc61a9da0796fff35ddde335ef618164120a98e6b6dbcb9e1022566754164736f6c634300080b0033","bytecodeSha1":"0d5bfba8dbea6cbc266b4e3e34ffefaf084ad9ce","compiler":{"evm_version":"istanbul","optimizer":{"enabled":true,"runs":200},"version":"0.8.11+commit.d7f03943"},"contractName":"LendingPool","language":"Solidity","natspec":{"kind":"dev","methods":{"getRoleAdmin(bytes32)":{"details":"Returns the admin role that controls `role`. See {grantRole} and {revokeRole}. To change a role's admin, use {_setRoleAdmin}."},"getRoleMember(bytes32,uint256)":{"details":"Returns one of the accounts that have `role`. `index` must be a value between 0 and {getRoleMemberCount}, non-inclusive. Role bearers are not sorted in any particular way, and their ordering may change at any point. WARNING: When using {getRoleMember} and {getRoleMemberCount}, make sure you perform all queries on the same block. See the following https://forum.openzeppelin.com/t/iterating-over-elements-on-enumerableset-in-openzeppelin-contracts/2296[forum post] for more information."},"getRoleMemberCount(bytes32)":{"details":"Returns the number of accounts that have `role`. Can be used together with {getRoleMember} to enumerate all bearers of a role."},"grantRole(bytes32,address)":{"details":"Grants `role` to `account`. If `account` had not been already granted `role`, emits a {RoleGranted} event. Requirements: - the caller must have ``role``'s admin role."},"hasRole(bytes32,address)":{"details":"Returns `true` if `account` has been granted `role`."},"renounceRole(bytes32,address)":{"details":"Revokes `role` from the calling account. Roles are often managed via {grantRole} and {revokeRole}: this function's purpose is to provide a mechanism for accounts to lose their privileges if they are compromised (such as when a trusted device is misplaced). If the calling account had been revoked `role`, emits a {RoleRevoked} event. Requirements: - the caller must be `account`."},"revokeRole(bytes32,address)":{"details":"Revokes `role` from `account`. If `account` had been granted `role`, emits a {RoleRevoked} event. Requirements: - the caller must have ``role``'s admin role."},"supportsInterface(bytes4)":{"details":"See {IERC165-supportsInterface}."}},"version":1},"opcodes":"PUSH1 0x80 PUSH1 0x40 MSTORE CALLVALUE DUP1 ISZERO PUSH2 0x10 JUMPI PUSH1 0x0 DUP1 REVERT JUMPDEST POP PUSH1 0x4 CALLDATASIZE LT PUSH2 0x28A JUMPI PUSH1 0x0 CALLDATALOAD PUSH1 0xE0 SHR DUP1 PUSH4 0x884EDAD9 GT PUSH2 0x15C JUMPI DUP1 PUSH4 0xC0F2B1CF GT PUSH2 0xCE JUMPI DUP1 PUSH4 0xD49AB22C GT PUSH2 0x87 JUMPI DUP1 PUSH4 0xD49AB22C EQ PUSH2 0x5D7 JUMPI DUP1 PUSH4 0xD547741F EQ PUSH2 0x5EA JUMPI DUP1 PUSH4 0xDE259242 EQ PUSH2 0x5FD JUMPI DUP1 PUSH4 0xDE30F97D EQ PUSH2 0x60E JUMPI DUP1 PUSH4 0xF2DF757B EQ PUSH2 0x621 JUMPI DUP1 PUSH4 0xFAC8AFF8 EQ PUSH2 0x634 JUMPI PUSH1 0x0 DUP1 REVERT JUMPDEST DUP1 PUSH4 0xC0F2B1CF EQ PUSH2 0x546 JUMPI DUP1 PUSH4 0xC4E41B22 EQ PUSH2 0x583 JUMPI DUP1 PUSH4 0xCA15C873 EQ PUSH2 0x58B JUMPI DUP1 PUSH4 0xCDA03C29 EQ PUSH2 0x59E JUMPI DUP1 PUSH4 0xD28682EA EQ PUSH2 0x5B1 JUMPI DUP1 PUSH4 0xD3EA0F89 EQ PUSH2 0x5C4 JUMPI PUSH1 0x0 DUP1 REVERT JUMPDEST DUP1 PUSH4 0x9FEEA54F GT PUSH2 0x120 JUMPI DUP1 PUSH4 0x9FEEA54F EQ PUSH2 0x4DF JUMPI DUP1 PUSH4 0xA217FDDF EQ PUSH2 0x4F2 JUMPI DUP1 PUSH4 0xA55E8668 EQ PUSH2 0x4FA JUMPI DUP1 PUSH4 0xA747B93B EQ PUSH2 0x50D JUMPI DUP1 PUSH4 0xA78E4046 EQ PUSH2 0x520 JUMPI DUP1 PUSH4 0xB9E037E6 EQ PUSH2 0x533 JUMPI PUSH1 0x0 DUP1 REVERT JUMPDEST DUP1 PUSH4 0x884EDAD9 EQ PUSH2 0x480 JUMPI DUP1 PUSH4 0x9010D07C EQ PUSH2 0x493 JUMPI DUP1 PUSH4 0x91D14854 EQ PUSH2 0x4A6 JUMPI DUP1 PUSH4 0x97904E42 EQ PUSH2 0x4B9 JUMPI DUP1 PUSH4 0x9B96EECE EQ PUSH2 0x4CC JUMPI PUSH1 0x0 DUP1 REVERT JUMPDEST DUP1 PUSH4 0x46C928FC GT PUSH2 0x200 JUMPI DUP1 PUSH4 0x63E36DAC GT PUSH2 0x1B9 JUMPI DUP1 PUSH4 0x63E36DAC EQ PUSH2 0x3E7 JUMPI DUP1 PUSH4 0x6858EA07 EQ PUSH2 0x3F8 JUMPI DUP1 PUSH4 0x69EBDF8F EQ PUSH2 0x40B JUMPI DUP1 PUSH4 0x6AAA434E EQ PUSH2 0x41C JUMPI DUP1 PUSH4 0x6DB18093 EQ PUSH2 0x463 JUMPI DUP1 PUSH4 0x75B238FC EQ PUSH2 0x46B JUMPI PUSH1 0x0 DUP1 REVERT JUMPDEST DUP1 PUSH4 0x46C928FC EQ PUSH2 0x363 JUMPI DUP1 PUSH4 0x4BCC1709 EQ PUSH2 0x376 JUMPI DUP1 PUSH4 0x511C5661 EQ PUSH2 0x389 JUMPI DUP1 PUSH4 0x582B2720 EQ PUSH2 0x39C JUMPI DUP1 PUSH4 0x5C16DE4F EQ PUSH2 0x3C1 JUMPI DUP1 PUSH4 0x5C88F5A5 EQ PUSH2 0x3D4 JUMPI PUSH1 0x0 DUP1 REVERT JUMPDEST DUP1 PUSH4 0x2273323F GT PUSH2 0x252 JUMPI DUP1 PUSH4 0x2273323F EQ PUSH2 0x308 JUMPI DUP1 PUSH4 0x243D8E05 EQ PUSH2 0x310 JUMPI DUP1 PUSH4 0x248A9CA3 EQ PUSH2 0x312 JUMPI DUP1 PUSH4 0x2D5562A0 EQ PUSH2 0x335 JUMPI DUP1 PUSH4 0x2F2FF15D EQ PUSH2 0x33D JUMPI DUP1 PUSH4 0x36568ABE EQ PUSH2 0x350 JUMPI PUSH1 0x0 DUP1 REVERT JUMPDEST DUP1 PUSH4 0x1FFC9A7 EQ PUSH2 0x28F JUMPI DUP1 PUSH4 0x57393C0 EQ PUSH2 0x2B7 JUMPI DUP1 PUSH4 0x15226B54 EQ PUSH2 0x2D8 JUMPI DUP1 PUSH4 0x1BA2F531 EQ PUSH2 0x2EB JUMPI DUP1 PUSH4 0x1EF3A04C EQ PUSH2 0x2F3 JUMPI JUMPDEST PUSH1 0x0 DUP1 REVERT JUMPDEST PUSH2 0x2A2 PUSH2 0x29D CALLDATASIZE PUSH1 0x4 PUSH2 0x3C85 JUMP JUMPDEST PUSH2 0x65D JUMP JUMPDEST PUSH1 0x40 MLOAD SWAP1 ISZERO ISZERO DUP2 MSTORE PUSH1 0x20 ADD JUMPDEST PUSH1 0x40 MLOAD DUP1 SWAP2 SUB SWAP1 RETURN JUMPDEST PUSH2 0x2CA PUSH2 0x2C5 CALLDATASIZE PUSH1 0x4 PUSH2 0x3CCB JUMP JUMPDEST PUSH2 0x688 JUMP JUMPDEST PUSH1 0x40 MLOAD SWAP1 DUP2 MSTORE PUSH1 0x20 ADD PUSH2 0x2AE JUMP JUMPDEST PUSH2 0x2CA PUSH2 0x2E6 CALLDATASIZE PUSH1 0x4 PUSH2 0x3CCB JUMP JUMPDEST PUSH2 0x6F8 JUMP JUMPDEST PUSH2 0x2CA PUSH2 0x72B JUMP JUMPDEST PUSH2 0x2FB PUSH2 0x79E JUMP JUMPDEST PUSH1 0x40 MLOAD PUSH2 0x2AE SWAP2 SWAP1 PUSH2 0x3D16 JUMP JUMPDEST PUSH2 0x310 PUSH2 0xD6F JUMP JUMPDEST STOP JUMPDEST PUSH2 0x2CA PUSH2 0x320 CALLDATASIZE PUSH1 0x4 PUSH2 0x3D49 JUMP JUMPDEST PUSH1 0x0 SWAP1 DUP2 MSTORE PUSH1 0x20 DUP2 SWAP1 MSTORE PUSH1 0x40 SWAP1 KECCAK256 PUSH1 0x1 ADD SLOAD SWAP1 JUMP JUMPDEST PUSH2 0x2CA PUSH2 0x128C JUMP JUMPDEST PUSH2 0x310 PUSH2 0x34B CALLDATASIZE PUSH1 0x4 PUSH2 0x3D62 JUMP JUMPDEST PUSH2 0x12D9 JUMP JUMPDEST PUSH2 0x310 PUSH2 0x35E CALLDATASIZE PUSH1 0x4 PUSH2 0x3D62 JUMP JUMPDEST PUSH2 0x1304 JUMP JUMPDEST PUSH2 0x310 PUSH2 0x371 CALLDATASIZE PUSH1 0x4 PUSH2 0x3D8E JUMP JUMPDEST PUSH2 0x137E JUMP JUMPDEST PUSH2 0x310 PUSH2 0x384 CALLDATASIZE PUSH1 0x4 PUSH2 0x3D62 JUMP JUMPDEST PUSH2 0x1B1E JUMP JUMPDEST PUSH2 0x2CA PUSH2 0x397 CALLDATASIZE PUSH1 0x4 PUSH2 0x3CCB JUMP JUMPDEST PUSH2 0x1DD4 JUMP JUMPDEST PUSH1 0x6 SLOAD PUSH1 0x1 PUSH1 0x1 PUSH1 0xA0 SHL SUB AND JUMPDEST PUSH1 0x40 MLOAD PUSH1 0x1 PUSH1 0x1 PUSH1 0xA0 SHL SUB SWAP1 SWAP2 AND DUP2 MSTORE PUSH1 0x20 ADD PUSH2 0x2AE JUMP JUMPDEST PUSH2 0x310 PUSH2 0x3CF CALLDATASIZE PUSH1 0x4 PUSH2 0x3DD4 JUMP JUMPDEST PUSH2 0x1E0C JUMP JUMPDEST PUSH2 0x2CA PUSH2 0x3E2 CALLDATASIZE PUSH1 0x4 PUSH2 0x3CCB JUMP JUMPDEST PUSH2 0x20FA JUMP JUMPDEST PUSH1 0x5 SLOAD PUSH1 0x1 PUSH1 0x1 PUSH1 0xA0 SHL SUB AND PUSH2 0x3A9 JUMP JUMPDEST PUSH2 0x310 PUSH2 0x406 CALLDATASIZE PUSH1 0x4 PUSH2 0x3DD4 JUMP JUMPDEST PUSH2 0x2132 JUMP JUMPDEST PUSH1 0x7 SLOAD PUSH1 0x1 PUSH1 0x1 PUSH1 0xA0 SHL SUB AND PUSH2 0x3A9 JUMP JUMPDEST PUSH2 0x44E PUSH2 0x42A CALLDATASIZE PUSH1 0x4 PUSH2 0x3DFE JUMP JUMPDEST PUSH1 0xC PUSH1 0x20 SWAP1 DUP2 MSTORE PUSH1 0x0 SWAP3 DUP4 MSTORE PUSH1 0x40 DUP1 DUP5 KECCAK256 SWAP1 SWAP2 MSTORE SWAP1 DUP3 MSTORE SWAP1 KECCAK256 DUP1 SLOAD PUSH1 0x1 SWAP1 SWAP2 ADD SLOAD DUP3 JUMP JUMPDEST PUSH1 0x40 DUP1 MLOAD SWAP3 DUP4 MSTORE PUSH1 0x20 DUP4 ADD SWAP2 SWAP1 SWAP2 MSTORE ADD PUSH2 0x2AE JUMP JUMPDEST PUSH2 0x2CA PUSH2 0x21D0 JUMP JUMPDEST PUSH2 0x2CA PUSH1 0x0 DUP1 MLOAD PUSH1 0x20 PUSH2 0x40DC DUP4 CODECOPY DUP2 MLOAD SWAP2 MSTORE DUP2 JUMP JUMPDEST PUSH2 0x310 PUSH2 0x48E CALLDATASIZE PUSH1 0x4 PUSH2 0x3DD4 JUMP JUMPDEST PUSH2 0x221A JUMP JUMPDEST PUSH2 0x3A9 PUSH2 0x4A1 CALLDATASIZE PUSH1 0x4 PUSH2 0x3E28 JUMP JUMPDEST PUSH2 0x2920 JUMP JUMPDEST PUSH2 0x2A2 PUSH2 0x4B4 CALLDATASIZE PUSH1 0x4 PUSH2 0x3D62 JUMP JUMPDEST PUSH2 0x293F JUMP JUMPDEST PUSH2 0x2CA PUSH2 0x4C7 CALLDATASIZE PUSH1 0x4 PUSH2 0x3CCB JUMP JUMPDEST PUSH2 0x2968 JUMP JUMPDEST PUSH2 0x2CA PUSH2 0x4DA CALLDATASIZE PUSH1 0x4 PUSH2 0x3CCB JUMP JUMPDEST PUSH2 0x299B JUMP JUMPDEST PUSH2 0x310 PUSH2 0x4ED CALLDATASIZE PUSH1 0x4 PUSH2 0x3CCB JUMP JUMPDEST PUSH2 0x29CE JUMP JUMPDEST PUSH2 0x2CA PUSH1 0x0 DUP2 JUMP JUMPDEST PUSH2 0x2CA PUSH2 0x508 CALLDATASIZE PUSH1 0x4 PUSH2 0x3DFE JUMP JUMPDEST PUSH2 0x2B68 JUMP JUMPDEST PUSH2 0x2CA PUSH2 0x51B CALLDATASIZE PUSH1 0x4 PUSH2 0x3CCB JUMP JUMPDEST PUSH2 0x2BDF JUMP JUMPDEST PUSH2 0x2CA PUSH2 0x52E CALLDATASIZE PUSH1 0x4 PUSH2 0x3DFE JUMP JUMPDEST PUSH2 0x2C17 JUMP JUMPDEST PUSH2 0x310 PUSH2 0x541 CALLDATASIZE PUSH1 0x4 PUSH2 0x3E4A JUMP JUMPDEST PUSH2 0x2C4F JUMP JUMPDEST PUSH2 0x2CA PUSH2 0x554 CALLDATASIZE PUSH1 0x4 PUSH2 0x3DFE JUMP JUMPDEST PUSH1 0x1 PUSH1 0x1 PUSH1 0xA0 SHL SUB DUP1 DUP3 AND PUSH1 0x0 SWAP1 DUP2 MSTORE PUSH1 0xC PUSH1 0x20 SWAP1 DUP2 MSTORE PUSH1 0x40 DUP1 DUP4 KECCAK256 SWAP4 DUP7 AND DUP4 MSTORE SWAP3 SWAP1 MSTORE KECCAK256 PUSH1 0x1 ADD SLOAD SWAP3 SWAP2 POP POP JUMP JUMPDEST PUSH2 0x2CA PUSH2 0x31BD JUMP JUMPDEST PUSH2 0x2CA PUSH2 0x599 CALLDATASIZE PUSH1 0x4 PUSH2 0x3D49 JUMP JUMPDEST PUSH2 0x3207 JUMP JUMPDEST PUSH2 0x2CA PUSH2 0x5AC CALLDATASIZE PUSH1 0x4 PUSH2 0x3CCB JUMP JUMPDEST PUSH2 0x321E JUMP JUMPDEST PUSH2 0x2CA PUSH2 0x5BF CALLDATASIZE PUSH1 0x4 PUSH2 0x3CCB JUMP JUMPDEST PUSH2 0x3251 JUMP JUMPDEST PUSH2 0x2CA PUSH2 0x5D2 CALLDATASIZE PUSH1 0x4 PUSH2 0x3CCB JUMP JUMPDEST PUSH2 0x3289 JUMP JUMPDEST PUSH2 0x2CA PUSH2 0x5E5 CALLDATASIZE PUSH1 0x4 PUSH2 0x3CCB JUMP JUMPDEST PUSH2 0x32D2 JUMP JUMPDEST PUSH2 0x310 PUSH2 0x5F8 CALLDATASIZE PUSH1 0x4 PUSH2 0x3D62 JUMP JUMPDEST PUSH2 0x3305 JUMP JUMPDEST PUSH1 0x4 SLOAD PUSH1 0x1 PUSH1 0x1 PUSH1 0xA0 SHL SUB AND PUSH2 0x3A9 JUMP JUMPDEST PUSH2 0x2CA PUSH2 0x61C CALLDATASIZE PUSH1 0x4 PUSH2 0x3CCB JUMP JUMPDEST PUSH2 0x332B JUMP JUMPDEST PUSH2 0x2CA PUSH2 0x62F CALLDATASIZE PUSH1 0x4 PUSH2 0x3CCB JUMP JUMPDEST PUSH2 0x3363 JUMP JUMPDEST PUSH2 0x2CA PUSH2 0x642 CALLDATASIZE PUSH1 0x4 PUSH2 0x3CCB JUMP JUMPDEST PUSH1 0x1 PUSH1 0x1 PUSH1 0xA0 SHL SUB AND PUSH1 0x0 SWAP1 DUP2 MSTORE PUSH1 0x9 PUSH1 0x20 MSTORE PUSH1 0x40 SWAP1 KECCAK256 SLOAD SWAP1 JUMP JUMPDEST PUSH1 0x0 PUSH1 0x1 PUSH1 0x1 PUSH1 0xE0 SHL SUB NOT DUP3 AND PUSH4 0x5A05180F PUSH1 0xE0 SHL EQ DUP1 PUSH2 0x682 JUMPI POP PUSH2 0x682 DUP3 PUSH2 0x3529 JUMP JUMPDEST SWAP3 SWAP2 POP POP JUMP JUMPDEST PUSH1 0x5 SLOAD PUSH1 0x40 MLOAD PUSH4 0xF8B2CB4F PUSH1 0xE0 SHL DUP2 MSTORE PUSH1 0x1 PUSH1 0x1 PUSH1 0xA0 SHL SUB DUP4 DUP2 AND PUSH1 0x4 DUP4 ADD MSTORE PUSH1 0x0 SWAP3 AND SWAP1 PUSH4 0xF8B2CB4F SWAP1 PUSH1 0x24 ADD JUMPDEST PUSH1 0x20 PUSH1 0x40 MLOAD DUP1 DUP4 SUB DUP2 DUP7 GAS STATICCALL ISZERO DUP1 ISZERO PUSH2 0x6D4 JUMPI RETURNDATASIZE PUSH1 0x0 DUP1 RETURNDATACOPY RETURNDATASIZE PUSH1 0x0 REVERT JUMPDEST POP POP POP POP PUSH1 0x40 MLOAD RETURNDATASIZE PUSH1 0x1F NOT PUSH1 0x1F DUP3 ADD AND DUP3 ADD DUP1 PUSH1 0x40 MSTORE POP DUP2 ADD SWAP1 PUSH2 0x682 SWAP2 SWAP1 PUSH2 0x3E8F JUMP JUMPDEST PUSH1 0x7 SLOAD PUSH1 0x40 MLOAD PUSH4 0x5489AD5 PUSH1 0xE2 SHL DUP2 MSTORE PUSH1 0x1 PUSH1 0x1 PUSH1 0xA0 SHL SUB DUP4 DUP2 AND PUSH1 0x4 DUP4 ADD MSTORE PUSH1 0x0 SWAP3 AND SWAP1 PUSH4 0x15226B54 SWAP1 PUSH1 0x24 ADD PUSH2 0x6B7 JUMP JUMPDEST PUSH1 0x6 SLOAD PUSH1 0x40 DUP1 MLOAD PUSH4 0x8A02775B PUSH1 0xE0 SHL DUP2 MSTORE SWAP1 MLOAD PUSH1 0x0 SWAP3 PUSH1 0x1 PUSH1 0x1 PUSH1 0xA0 SHL SUB AND SWAP2 PUSH4 0x8A02775B SWAP2 PUSH1 0x4 DUP1 DUP4 ADD SWAP3 PUSH1 0x20 SWAP3 SWAP2 SWAP1 DUP3 SWAP1 SUB ADD DUP2 DUP7 GAS STATICCALL ISZERO DUP1 ISZERO PUSH2 0x775 JUMPI RETURNDATASIZE PUSH1 0x0 DUP1 RETURNDATACOPY RETURNDATASIZE PUSH1 0x0 REVERT JUMPDEST POP POP POP POP PUSH1 0x40 MLOAD RETURNDATASIZE PUSH1 0x1F NOT PUSH1 0x1F DUP3 ADD AND DUP3 ADD DUP1 PUSH1 0x40 MSTORE POP DUP2 ADD SWAP1 PUSH2 0x799 SWAP2 SWAP1 PUSH2 0x3E8F JUMP JUMPDEST SWAP1 POP SWAP1 JUMP JUMPDEST PUSH1 0x60 PUSH2 0x7B8 PUSH1 0x0 DUP1 MLOAD PUSH1 0x20 PUSH2 0x40DC DUP4 CODECOPY DUP2 MLOAD SWAP2 MSTORE CALLER PUSH2 0x293F JUMP JUMPDEST PUSH2 0x7DD JUMPI PUSH1 0x40 MLOAD PUSH3 0x461BCD PUSH1 0xE5 SHL DUP2 MSTORE PUSH1 0x4 ADD PUSH2 0x7D4 SWAP1 PUSH2 0x3EA8 JUMP JUMPDEST PUSH1 0x40 MLOAD DUP1 SWAP2 SUB SWAP1 REVERT JUMPDEST PUSH1 0x10 SLOAD PUSH1 0xA SLOAD PUSH1 0x0 JUMPDEST DUP3 DUP2 PUSH2 0xFFFF AND LT ISZERO PUSH2 0xD69 JUMPI PUSH1 0x0 PUSH1 0x10 DUP3 PUSH2 0xFFFF AND DUP2 SLOAD DUP2 LT PUSH2 0x80B JUMPI PUSH2 0x80B PUSH2 0x3ED6 JUMP JUMPDEST PUSH1 0x0 SWAP2 DUP3 MSTORE PUSH1 0x20 DUP3 KECCAK256 ADD SLOAD PUSH1 0x5 SLOAD PUSH1 0x40 MLOAD PUSH4 0x1FCD2D5 PUSH1 0xE0 SHL DUP2 MSTORE PUSH1 0x1 PUSH1 0x1 PUSH1 0xA0 SHL SUB SWAP3 DUP4 AND PUSH1 0x4 DUP3 ADD DUP2 SWAP1 MSTORE SWAP5 POP SWAP2 AND SWAP1 PUSH4 0x1FCD2D5 SWAP1 PUSH1 0x24 ADD PUSH1 0x20 PUSH1 0x40 MLOAD DUP1 DUP4 SUB DUP2 DUP7 GAS STATICCALL ISZERO DUP1 ISZERO PUSH2 0x863 JUMPI RETURNDATASIZE PUSH1 0x0 DUP1 RETURNDATACOPY RETURNDATASIZE PUSH1 0x0 REVERT JUMPDEST POP POP POP POP PUSH1 0x40 MLOAD RETURNDATASIZE PUSH1 0x1F NOT PUSH1 0x1F DUP3 ADD AND DUP3 ADD DUP1 PUSH1 0x40 MSTORE POP DUP2 ADD SWAP1 PUSH2 0x887 SWAP2 SWAP1 PUSH2 0x3E8F JUMP JUMPDEST SWAP1 POP PUSH1 0x0 PUSH2 0x894 DUP4 PUSH2 0x3363 JUMP JUMPDEST SWAP1 POP DUP1 DUP3 LT ISZERO PUSH2 0xD11 JUMPI PUSH1 0x0 JUMPDEST DUP6 DUP2 PUSH2 0xFFFF AND LT ISZERO PUSH2 0xCCF JUMPI PUSH1 0x0 PUSH1 0xA DUP3 PUSH2 0xFFFF AND DUP2 SLOAD DUP2 LT PUSH2 0x8C6 JUMPI PUSH2 0x8C6 PUSH2 0x3ED6 JUMP JUMPDEST PUSH1 0x0 SWAP2 DUP3 MSTORE PUSH1 0x20 DUP3 KECCAK256 ADD SLOAD PUSH1 0x5 SLOAD PUSH1 0x40 MLOAD PUSH4 0x6829F1B PUSH1 0xE3 SHL DUP2 MSTORE PUSH1 0x1 PUSH1 0x1 PUSH1 0xA0 SHL SUB SWAP3 DUP4 AND PUSH1 0x4 DUP3 ADD DUP2 SWAP1 MSTORE SWAP5 POP SWAP2 AND SWAP1 PUSH4 0x3414F8D8 SWAP1 PUSH1 0x24 ADD PUSH1 0x20 PUSH1 0x40 MLOAD DUP1 DUP4 SUB DUP2 DUP7 GAS STATICCALL ISZERO DUP1 ISZERO PUSH2 0x91E JUMPI RETURNDATASIZE PUSH1 0x0 DUP1 RETURNDATACOPY RETURNDATASIZE PUSH1 0x0 REVERT JUMPDEST POP POP POP POP PUSH1 0x40 MLOAD RETURNDATASIZE PUSH1 0x1F NOT PUSH1 0x1F DUP3 ADD AND DUP3 ADD DUP1 PUSH1 0x40 MSTORE POP DUP2 ADD SWAP1 PUSH2 0x942 SWAP2 SWAP1 PUSH2 0x3E8F JUMP JUMPDEST SWAP1 POP PUSH1 0x0 PUSH2 0x951 DUP6 DUP4 DUP9 PUSH2 0x355E JUMP JUMPDEST SWAP1 POP PUSH1 0x0 PUSH2 0x960 DUP7 DUP5 DUP10 PUSH2 0x35EA JUMP JUMPDEST PUSH1 0x1 PUSH1 0x1 PUSH1 0xA0 SHL SUB DUP1 DUP7 AND PUSH1 0x0 SWAP1 DUP2 MSTORE PUSH1 0xC PUSH1 0x20 SWAP1 DUP2 MSTORE PUSH1 0x40 DUP1 DUP4 KECCAK256 SWAP4 DUP14 AND DUP4 MSTORE SWAP3 SWAP1 MSTORE KECCAK256 SLOAD SWAP1 SWAP2 POP ISZERO ISZERO DUP1 PUSH2 0x9BD JUMPI POP PUSH1 0x1 PUSH1 0x1 PUSH1 0xA0 SHL SUB DUP1 DUP6 AND PUSH1 0x0 SWAP1 DUP2 MSTORE PUSH1 0xC PUSH1 0x20 SWAP1 DUP2 MSTORE PUSH1 0x40 DUP1 DUP4 KECCAK256 SWAP4 DUP13 AND DUP4 MSTORE SWAP3 SWAP1 MSTORE KECCAK256 PUSH1 0x1 ADD SLOAD ISZERO ISZERO JUMPDEST ISZERO PUSH2 0xB39 JUMPI PUSH1 0x1 PUSH1 0x1 PUSH1 0xA0 SHL SUB DUP5 DUP2 AND PUSH1 0x0 SWAP1 DUP2 MSTORE PUSH1 0xC PUSH1 0x20 SWAP1 DUP2 MSTORE PUSH1 0x40 DUP1 DUP4 KECCAK256 SWAP4 DUP13 AND DUP4 MSTORE SWAP3 SWAP1 MSTORE SWAP1 DUP2 KECCAK256 DUP1 SLOAD PUSH1 0x1 SWAP1 SWAP2 ADD SLOAD PUSH2 0x9FB SWAP2 SWAP1 PUSH2 0x3F02 JUMP JUMPDEST PUSH2 0xA0D DUP5 PUSH8 0xDE0B6B3A7640000 PUSH2 0x3F1A JUMP JUMPDEST PUSH2 0xA17 SWAP2 SWAP1 PUSH2 0x3F31 JUMP JUMPDEST PUSH1 0x1 PUSH1 0x1 PUSH1 0xA0 SHL SUB DUP1 DUP8 AND PUSH1 0x0 SWAP1 DUP2 MSTORE PUSH1 0xC PUSH1 0x20 SWAP1 DUP2 MSTORE PUSH1 0x40 DUP1 DUP4 KECCAK256 SWAP4 DUP15 AND DUP4 MSTORE SWAP3 SWAP1 MSTORE KECCAK256 PUSH1 0x1 ADD SLOAD SWAP1 SWAP2 POP PUSH8 0xDE0B6B3A7640000 SWAP1 PUSH2 0xA58 SWAP1 DUP6 SWAP1 PUSH2 0x3F31 JUMP JUMPDEST PUSH2 0xA62 SWAP2 SWAP1 PUSH2 0x3F50 JUMP JUMPDEST PUSH1 0x1 PUSH1 0x1 PUSH1 0xA0 SHL SUB DUP7 DUP2 AND PUSH1 0x0 SWAP1 DUP2 MSTORE PUSH1 0xC PUSH1 0x20 SWAP1 DUP2 MSTORE PUSH1 0x40 DUP1 DUP4 KECCAK256 SWAP4 DUP15 AND DUP4 MSTORE SWAP3 SWAP1 MSTORE KECCAK256 PUSH1 0x1 DUP2 ADD SWAP2 SWAP1 SWAP2 SSTORE SLOAD PUSH8 0xDE0B6B3A7640000 SWAP1 PUSH2 0xAA5 SWAP1 DUP6 SWAP1 PUSH2 0x3F31 JUMP JUMPDEST PUSH2 0xAAF SWAP2 SWAP1 PUSH2 0x3F50 JUMP JUMPDEST PUSH1 0x1 PUSH1 0x1 PUSH1 0xA0 SHL SUB DUP7 DUP2 AND PUSH1 0x0 DUP2 DUP2 MSTORE PUSH1 0xC PUSH1 0x20 SWAP1 DUP2 MSTORE PUSH1 0x40 DUP1 DUP4 KECCAK256 DUP16 DUP7 AND DUP5 MSTORE SWAP1 SWAP2 MSTORE SWAP1 DUP2 SWAP1 KECCAK256 SWAP4 SWAP1 SWAP4 SSTORE PUSH1 0x7 SLOAD SWAP3 MLOAD PUSH4 0x5EA58017 PUSH1 0xE1 SHL DUP2 MSTORE PUSH1 0x4 DUP2 ADD SWAP2 SWAP1 SWAP2 MSTORE PUSH1 0x24 DUP2 ADD DUP5 SWAP1 MSTORE SWAP2 AND SWAP1 PUSH4 0xBD4B002E SWAP1 PUSH1 0x44 ADD PUSH1 0x0 PUSH1 0x40 MLOAD DUP1 DUP4 SUB DUP2 PUSH1 0x0 DUP8 DUP1 EXTCODESIZE ISZERO DUP1 ISZERO PUSH2 0xB1F JUMPI PUSH1 0x0 DUP1 REVERT JUMPDEST POP GAS CALL ISZERO DUP1 ISZERO PUSH2 0xB33 JUMPI RETURNDATASIZE PUSH1 0x0 DUP1 RETURNDATACOPY RETURNDATASIZE PUSH1 0x0 REVERT JUMPDEST POP POP POP POP POP JUMPDEST PUSH1 0x5 SLOAD PUSH1 0x40 MLOAD PUSH4 0x2B92A07D PUSH1 0xE0 SHL DUP2 MSTORE PUSH1 0x1 PUSH1 0x1 PUSH1 0xA0 SHL SUB DUP11 DUP2 AND PUSH1 0x4 DUP4 ADD MSTORE DUP7 DUP2 AND PUSH1 0x24 DUP4 ADD MSTORE PUSH1 0x0 SWAP3 AND SWAP1 PUSH4 0x2B92A07D SWAP1 PUSH1 0x44 ADD PUSH1 0x20 PUSH1 0x40 MLOAD DUP1 DUP4 SUB DUP2 DUP7 GAS STATICCALL ISZERO DUP1 ISZERO PUSH2 0xB8C JUMPI RETURNDATASIZE PUSH1 0x0 DUP1 RETURNDATACOPY RETURNDATASIZE PUSH1 0x0 REVERT JUMPDEST POP POP POP POP PUSH1 0x40 MLOAD RETURNDATASIZE PUSH1 0x1F NOT PUSH1 0x1F DUP3 ADD AND DUP3 ADD DUP1 PUSH1 0x40 MSTORE POP DUP2 ADD SWAP1 PUSH2 0xBB0 SWAP2 SWAP1 PUSH2 0x3E8F JUMP JUMPDEST GT ISZERO PUSH2 0xCB8 JUMPI PUSH1 0x5 SLOAD PUSH1 0x40 MLOAD PUSH4 0x2B92A07D PUSH1 0xE0 SHL DUP2 MSTORE PUSH1 0x1 PUSH1 0x1 PUSH1 0xA0 SHL SUB DUP11 DUP2 AND PUSH1 0x4 DUP4 ADD MSTORE DUP7 DUP2 AND PUSH1 0x24 DUP4 ADD MSTORE PUSH1 0x0 SWAP3 PUSH8 0xDE0B6B3A7640000 SWAP3 DUP6 SWAP3 SWAP1 SWAP2 AND SWAP1 PUSH4 0x2B92A07D SWAP1 PUSH1 0x44 ADD PUSH1 0x20 PUSH1 0x40 MLOAD DUP1 DUP4 SUB DUP2 DUP7 GAS STATICCALL ISZERO DUP1 ISZERO PUSH2 0xC17 JUMPI RETURNDATASIZE PUSH1 0x0 DUP1 RETURNDATACOPY RETURNDATASIZE PUSH1 0x0 REVERT JUMPDEST POP POP POP POP PUSH1 0x40 MLOAD RETURNDATASIZE PUSH1 0x1F NOT PUSH1 0x1F DUP3 ADD AND DUP3 ADD DUP1 PUSH1 0x40 MSTORE POP DUP2 ADD SWAP1 PUSH2 0xC3B SWAP2 SWAP1 PUSH2 0x3E8F JUMP JUMPDEST PUSH2 0xC45 SWAP2 SWAP1 PUSH2 0x3F31 JUMP JUMPDEST PUSH2 0xC4F SWAP2 SWAP1 PUSH2 0x3F50 JUMP JUMPDEST PUSH1 0x5 SLOAD PUSH1 0x40 MLOAD PUSH4 0x12772BB PUSH1 0xE5 SHL DUP2 MSTORE SWAP2 SWAP3 POP PUSH1 0x1 PUSH1 0x1 PUSH1 0xA0 SHL SUB AND SWAP1 PUSH4 0x24EE5760 SWAP1 PUSH2 0xC84 SWAP1 DUP13 SWAP1 DUP10 SWAP1 DUP7 SWAP1 PUSH1 0x4 ADD PUSH2 0x3F72 JUMP JUMPDEST PUSH1 0x0 PUSH1 0x40 MLOAD DUP1 DUP4 SUB DUP2 PUSH1 0x0 DUP8 DUP1 EXTCODESIZE ISZERO DUP1 ISZERO PUSH2 0xC9E JUMPI PUSH1 0x0 DUP1 REVERT JUMPDEST POP GAS CALL ISZERO DUP1 ISZERO PUSH2 0xCB2 JUMPI RETURNDATASIZE PUSH1 0x0 DUP1 RETURNDATACOPY RETURNDATASIZE PUSH1 0x0 REVERT JUMPDEST POP POP POP POP POP JUMPDEST POP POP POP POP DUP1 DUP1 PUSH2 0xCC7 SWAP1 PUSH2 0x3F96 JUMP JUMPDEST SWAP2 POP POP PUSH2 0x8A1 JUMP JUMPDEST POP PUSH1 0x40 MLOAD DUP1 PUSH1 0x40 ADD PUSH1 0x40 MSTORE DUP1 PUSH1 0x19 DUP2 MSTORE PUSH1 0x20 ADD PUSH32 0x4C6F616E205061727469616C6C79204C69717569646174656400000000000000 DUP2 MSTORE POP SWAP7 POP POP POP POP POP POP POP SWAP1 JUMP JUMPDEST PUSH1 0x64 PUSH2 0xD1E DUP3 PUSH1 0x69 PUSH2 0x3F31 JUMP JUMPDEST PUSH2 0xD28 SWAP2 SWAP1 PUSH2 0x3F50 JUMP JUMPDEST DUP3 LT ISZERO PUSH2 0xD53 JUMPI PUSH1 0x40 MLOAD DUP1 PUSH1 0x60 ADD PUSH1 0x40 MSTORE DUP1 PUSH1 0x3E DUP2 MSTORE PUSH1 0x20 ADD PUSH2 0x409E PUSH1 0x3E SWAP2 CODECOPY SWAP7 POP POP POP POP POP POP POP SWAP1 JUMP JUMPDEST POP POP POP DUP1 DUP1 PUSH2 0xD61 SWAP1 PUSH2 0x3F96 JUMP JUMPDEST SWAP2 POP POP PUSH2 0x7E6 JUMP JUMPDEST POP POP POP SWAP1 JUMP JUMPDEST PUSH2 0xD87 PUSH1 0x0 DUP1 MLOAD PUSH1 0x20 PUSH2 0x40DC DUP4 CODECOPY DUP2 MLOAD SWAP2 MSTORE CALLER PUSH2 0x293F JUMP JUMPDEST PUSH2 0xDA3 JUMPI PUSH1 0x40 MLOAD PUSH3 0x461BCD PUSH1 0xE5 SHL DUP2 MSTORE PUSH1 0x4 ADD PUSH2 0x7D4 SWAP1 PUSH2 0x3EA8 JUMP JUMPDEST PUSH2 0xDAB PUSH2 0x3659 JUMP JUMPDEST PUSH1 0xA SLOAD PUSH1 0x0 JUMPDEST DUP2 DUP2 PUSH2 0xFFFF AND LT ISZERO PUSH2 0x1288 JUMPI PUSH1 0x0 PUSH1 0xA DUP3 PUSH2 0xFFFF AND DUP2 SLOAD DUP2 LT PUSH2 0xDD6 JUMPI PUSH2 0xDD6 PUSH2 0x3ED6 JUMP JUMPDEST PUSH1 0x0 SWAP2 DUP3 MSTORE PUSH1 0x20 DUP3 KECCAK256 ADD SLOAD PUSH1 0x4 DUP1 SLOAD PUSH1 0x40 MLOAD PUSH4 0x662128F3 PUSH1 0xE1 SHL DUP2 MSTORE PUSH1 0x1 PUSH1 0x1 PUSH1 0xA0 SHL SUB SWAP4 DUP5 AND SWAP3 DUP2 ADD DUP4 SWAP1 MSTORE SWAP2 SWAP5 POP SWAP2 SWAP1 SWAP2 AND SWAP1 PUSH4 0xCC4251E6 SWAP1 PUSH1 0x24 ADD PUSH1 0x20 PUSH1 0x40 MLOAD DUP1 DUP4 SUB DUP2 DUP7 GAS STATICCALL ISZERO DUP1 ISZERO PUSH2 0xE31 JUMPI RETURNDATASIZE PUSH1 0x0 DUP1 RETURNDATACOPY RETURNDATASIZE PUSH1 0x0 REVERT JUMPDEST POP POP POP POP PUSH1 0x40 MLOAD RETURNDATASIZE PUSH1 0x1F NOT PUSH1 0x1F DUP3 ADD AND DUP3 ADD DUP1 PUSH1 0x40 MSTORE POP DUP2 ADD SWAP1 PUSH2 0xE55 SWAP2 SWAP1 PUSH2 0x3E8F JUMP JUMPDEST PUSH1 0x4 DUP1 SLOAD PUSH1 0x40 MLOAD PUSH4 0x5C88F5A5 PUSH1 0xE0 SHL DUP2 MSTORE PUSH1 0x1 PUSH1 0x1 PUSH1 0xA0 SHL SUB DUP7 DUP2 AND SWAP4 DUP3 ADD SWAP4 SWAP1 SWAP4 MSTORE SWAP3 SWAP4 POP PUSH1 0x0 SWAP3 SWAP2 AND SWAP1 PUSH4 0x5C88F5A5 SWAP1 PUSH1 0x24 ADD PUSH1 0x20 PUSH1 0x40 MLOAD DUP1 DUP4 SUB DUP2 DUP7 GAS STATICCALL ISZERO DUP1 ISZERO PUSH2 0xEA7 JUMPI RETURNDATASIZE PUSH1 0x0 DUP1 RETURNDATACOPY RETURNDATASIZE PUSH1 0x0 REVERT JUMPDEST POP POP POP POP PUSH1 0x40 MLOAD RETURNDATASIZE PUSH1 0x1F NOT PUSH1 0x1F DUP3 ADD AND DUP3 ADD DUP1 PUSH1 0x40 MSTORE POP DUP2 ADD SWAP1 PUSH2 0xECB SWAP2 SWAP1 PUSH2 0x3E8F JUMP JUMPDEST PUSH1 0x1 PUSH1 0x1 PUSH1 0xA0 SHL SUB DUP5 AND PUSH1 0x0 SWAP1 DUP2 MSTORE PUSH1 0x12 PUSH1 0x20 MSTORE PUSH1 0x40 DUP2 KECCAK256 SLOAD SWAP2 SWAP3 POP JUMPDEST DUP2 DUP2 PUSH2 0xFFFF AND LT ISZERO PUSH2 0x120F JUMPI PUSH1 0x1 PUSH1 0x1 PUSH1 0xA0 SHL SUB DUP6 AND PUSH1 0x0 SWAP1 DUP2 MSTORE PUSH1 0x12 PUSH1 0x20 MSTORE PUSH1 0x40 DUP2 KECCAK256 DUP1 SLOAD PUSH2 0xFFFF DUP5 AND SWAP1 DUP2 LT PUSH2 0xF22 JUMPI PUSH2 0xF22 PUSH2 0x3ED6 JUMP JUMPDEST PUSH1 0x0 SWAP2 DUP3 MSTORE PUSH1 0x20 SWAP1 SWAP2 KECCAK256 ADD SLOAD PUSH1 0x6 SLOAD PUSH1 0x40 MLOAD PUSH4 0x70A08231 PUSH1 0xE0 SHL DUP2 MSTORE PUSH1 0x1 PUSH1 0x1 PUSH1 0xA0 SHL SUB SWAP3 DUP4 AND PUSH1 0x4 DUP3 ADD DUP2 SWAP1 MSTORE SWAP4 POP PUSH7 0x2386F26FC10000 SWAP3 SWAP1 SWAP2 AND SWAP1 PUSH4 0x70A08231 SWAP1 PUSH1 0x24 ADD PUSH1 0x20 PUSH1 0x40 MLOAD DUP1 DUP4 SUB DUP2 DUP7 GAS STATICCALL ISZERO DUP1 ISZERO PUSH2 0xF85 JUMPI RETURNDATASIZE PUSH1 0x0 DUP1 RETURNDATACOPY RETURNDATASIZE PUSH1 0x0 REVERT JUMPDEST POP POP POP POP PUSH1 0x40 MLOAD RETURNDATASIZE PUSH1 0x1F NOT PUSH1 0x1F DUP3 ADD AND DUP3 ADD DUP1 PUSH1 0x40 MSTORE POP DUP2 ADD SWAP1 PUSH2 0xFA9 SWAP2 SWAP1 PUSH2 0x3E8F JUMP JUMPDEST LT ISZERO PUSH2 0xFE8 JUMPI PUSH1 0x1 PUSH1 0x1 PUSH1 0xA0 SHL SUB DUP1 DUP3 AND PUSH1 0x0 SWAP1 DUP2 MSTORE PUSH1 0x9 PUSH1 0x20 SWAP1 DUP2 MSTORE PUSH1 0x40 DUP1 DUP4 KECCAK256 DUP4 SWAP1 SSTORE SWAP3 DUP10 AND DUP3 MSTORE PUSH1 0xD DUP2 MSTORE DUP3 DUP3 KECCAK256 CALLER DUP4 MSTORE SWAP1 MSTORE SWAP1 DUP2 KECCAK256 SSTORE PUSH2 0x11FC JUMP JUMPDEST PUSH1 0x1 PUSH1 0x1 PUSH1 0xA0 SHL SUB DUP2 DUP2 AND PUSH1 0x0 DUP2 DUP2 MSTORE PUSH1 0x9 PUSH1 0x20 MSTORE PUSH1 0x40 DUP1 DUP3 KECCAK256 SLOAD PUSH1 0x6 SLOAD SWAP2 MLOAD PUSH4 0x70A08231 PUSH1 0xE0 SHL DUP2 MSTORE PUSH1 0x4 DUP2 ADD SWAP5 SWAP1 SWAP5 MSTORE SWAP2 SWAP4 SWAP2 SWAP3 SWAP2 AND SWAP1 PUSH4 0x70A08231 SWAP1 PUSH1 0x24 ADD PUSH1 0x20 PUSH1 0x40 MLOAD DUP1 DUP4 SUB DUP2 DUP7 GAS STATICCALL ISZERO DUP1 ISZERO PUSH2 0x1047 JUMPI RETURNDATASIZE PUSH1 0x0 DUP1 RETURNDATACOPY RETURNDATASIZE PUSH1 0x0 REVERT JUMPDEST POP POP POP POP PUSH1 0x40 MLOAD RETURNDATASIZE PUSH1 0x1F NOT PUSH1 0x1F DUP3 ADD AND DUP3 ADD DUP1 PUSH1 0x40 MSTORE POP DUP2 ADD SWAP1 PUSH2 0x106B SWAP2 SWAP1 PUSH2 0x3E8F JUMP JUMPDEST PUSH2 0x107D SWAP1 PUSH8 0xDE0B6B3A7640000 PUSH2 0x3F31 JUMP JUMPDEST PUSH2 0x1087 SWAP2 SWAP1 PUSH2 0x3F50 JUMP JUMPDEST PUSH1 0x1 PUSH1 0x1 PUSH1 0xA0 SHL SUB DUP1 DUP10 AND PUSH1 0x0 SWAP1 DUP2 MSTORE PUSH1 0xD PUSH1 0x20 SWAP1 DUP2 MSTORE PUSH1 0x40 DUP1 DUP4 KECCAK256 SWAP4 DUP8 AND DUP4 MSTORE SWAP3 SWAP1 MSTORE SWAP1 DUP2 KECCAK256 SLOAD SWAP2 SWAP3 POP SWAP1 DUP8 SWAP1 PUSH2 0x10C7 SWAP1 PUSH8 0xDE0B6B3A7640000 PUSH2 0x3F31 JUMP JUMPDEST PUSH2 0x10D1 SWAP2 SWAP1 PUSH2 0x3F50 JUMP JUMPDEST SWAP1 POP PUSH1 0x0 PUSH15 0xC097CE7BC90715B34B9F1000000000 DUP8 PUSH2 0x10F0 DUP5 DUP7 PUSH2 0x3F31 JUMP JUMPDEST PUSH2 0x10FA SWAP2 SWAP1 PUSH2 0x3F31 JUMP JUMPDEST PUSH2 0x1104 SWAP2 SWAP1 PUSH2 0x3F50 JUMP JUMPDEST PUSH1 0x6 SLOAD PUSH1 0x40 MLOAD PUSH4 0xD4D1513 PUSH1 0xE0 SHL DUP2 MSTORE PUSH1 0x1 PUSH1 0x1 PUSH1 0xA0 SHL SUB DUP8 DUP2 AND PUSH1 0x4 DUP4 ADD MSTORE PUSH1 0x24 DUP3 ADD DUP5 SWAP1 MSTORE DUP13 DUP2 AND PUSH1 0x44 DUP4 ADD MSTORE SWAP3 SWAP4 POP PUSH1 0x0 SWAP3 SWAP1 SWAP2 AND SWAP1 PUSH4 0xD4D1513 SWAP1 PUSH1 0x64 ADD PUSH1 0x20 PUSH1 0x40 MLOAD DUP1 DUP4 SUB DUP2 PUSH1 0x0 DUP8 GAS CALL ISZERO DUP1 ISZERO PUSH2 0x1165 JUMPI RETURNDATASIZE PUSH1 0x0 DUP1 RETURNDATACOPY RETURNDATASIZE PUSH1 0x0 REVERT JUMPDEST POP POP POP POP PUSH1 0x40 MLOAD RETURNDATASIZE PUSH1 0x1F NOT PUSH1 0x1F DUP3 ADD AND DUP3 ADD DUP1 PUSH1 0x40 MSTORE POP DUP2 ADD SWAP1 PUSH2 0x1189 SWAP2 SWAP1 PUSH2 0x3E8F JUMP JUMPDEST PUSH1 0x1 PUSH1 0x1 PUSH1 0xA0 SHL SUB DUP7 AND PUSH1 0x0 SWAP1 DUP2 MSTORE PUSH1 0x9 PUSH1 0x20 MSTORE PUSH1 0x40 DUP2 KECCAK256 DUP1 SLOAD SWAP3 SWAP4 POP DUP4 SWAP3 SWAP1 SWAP2 SWAP1 PUSH2 0x11B6 SWAP1 DUP5 SWAP1 PUSH2 0x3F02 JUMP JUMPDEST SWAP1 SWAP2 SSTORE POP POP PUSH1 0x1 PUSH1 0x1 PUSH1 0xA0 SHL SUB DUP1 DUP12 AND PUSH1 0x0 SWAP1 DUP2 MSTORE PUSH1 0xD PUSH1 0x20 SWAP1 DUP2 MSTORE PUSH1 0x40 DUP1 DUP4 KECCAK256 SWAP4 DUP10 AND DUP4 MSTORE SWAP3 SWAP1 MSTORE SWAP1 DUP2 KECCAK256 DUP1 SLOAD DUP5 SWAP3 SWAP1 PUSH2 0x11F2 SWAP1 DUP5 SWAP1 PUSH2 0x3F02 JUMP JUMPDEST SWAP1 SWAP2 SSTORE POP POP POP POP POP POP JUMPDEST POP DUP1 PUSH2 0x1207 DUP2 PUSH2 0x3F96 JUMP JUMPDEST SWAP2 POP POP PUSH2 0xEE8 JUMP JUMPDEST POP PUSH1 0x4 DUP1 SLOAD PUSH1 0x40 MLOAD PUSH4 0x23D0AAB1 PUSH1 0xE0 SHL DUP2 MSTORE PUSH1 0x1 PUSH1 0x1 PUSH1 0xA0 SHL SUB DUP8 DUP2 AND SWAP4 DUP3 ADD SWAP4 SWAP1 SWAP4 MSTORE SWAP2 AND SWAP1 PUSH4 0x23D0AAB1 SWAP1 PUSH1 0x24 ADD PUSH1 0x0 PUSH1 0x40 MLOAD DUP1 DUP4 SUB DUP2 PUSH1 0x0 DUP8 DUP1 EXTCODESIZE ISZERO DUP1 ISZERO PUSH2 0x1259 JUMPI PUSH1 0x0 DUP1 REVERT JUMPDEST POP GAS CALL ISZERO DUP1 ISZERO PUSH2 0x126D JUMPI RETURNDATASIZE PUSH1 0x0 DUP1 RETURNDATACOPY RETURNDATASIZE PUSH1 0x0 REVERT JUMPDEST POP POP POP POP POP POP POP POP DUP1 DUP1 PUSH2 0x1280 SWAP1 PUSH2 0x3F96 JUMP JUMPDEST SWAP2 POP POP PUSH2 0xDB1 JUMP JUMPDEST POP POP JUMP JUMPDEST PUSH1 0x4 DUP1 SLOAD PUSH1 0x2 SLOAD PUSH1 0x40 MLOAD PUSH4 0xA150FB5F PUSH1 0xE0 SHL DUP2 MSTORE SWAP3 DUP4 ADD MSTORE PUSH1 0x0 SWAP2 PUSH1 0x1 PUSH1 0x1 PUSH1 0xA0 SHL SUB SWAP1 SWAP2 AND SWAP1 PUSH4 0xA150FB5F SWAP1 PUSH1 0x24 ADD PUSH1 0x20 PUSH1 0x40 MLOAD DUP1 DUP4 SUB DUP2 DUP7 GAS STATICCALL ISZERO DUP1 ISZERO PUSH2 0x775 JUMPI RETURNDATASIZE PUSH1 0x0 DUP1 RETURNDATACOPY RETURNDATASIZE PUSH1 0x0 REVERT JUMPDEST PUSH1 0x0 DUP3 DUP2 MSTORE PUSH1 0x20 DUP2 SWAP1 MSTORE PUSH1 0x40 SWAP1 KECCAK256 PUSH1 0x1 ADD SLOAD PUSH2 0x12F5 DUP2 CALLER PUSH2 0x3823 JUMP JUMPDEST PUSH2 0x12FF DUP4 DUP4 PUSH2 0x3887 JUMP JUMPDEST POP POP POP JUMP JUMPDEST PUSH1 0x1 PUSH1 0x1 PUSH1 0xA0 SHL SUB DUP2 AND CALLER EQ PUSH2 0x1374 JUMPI PUSH1 0x40 MLOAD PUSH3 0x461BCD PUSH1 0xE5 SHL DUP2 MSTORE PUSH1 0x20 PUSH1 0x4 DUP3 ADD MSTORE PUSH1 0x2F PUSH1 0x24 DUP3 ADD MSTORE PUSH32 0x416363657373436F6E74726F6C3A2063616E206F6E6C792072656E6F756E6365 PUSH1 0x44 DUP3 ADD MSTORE PUSH15 0x103937B632B9903337B91039B2B633 PUSH1 0x89 SHL PUSH1 0x64 DUP3 ADD MSTORE PUSH1 0x84 ADD PUSH2 0x7D4 JUMP JUMPDEST PUSH2 0x1288 DUP3 DUP3 PUSH2 0x38A9 JUMP JUMPDEST PUSH1 0x1 PUSH1 0x1 PUSH1 0xA0 SHL SUB DUP4 AND PUSH1 0x0 SWAP1 DUP2 MSTORE PUSH1 0xB PUSH1 0x20 MSTORE PUSH1 0x40 SWAP1 KECCAK256 SLOAD PUSH1 0xFF AND PUSH2 0x13B6 JUMPI PUSH1 0x40 MLOAD PUSH3 0x461BCD PUSH1 0xE5 SHL DUP2 MSTORE PUSH1 0x4 ADD PUSH2 0x7D4 SWAP1 PUSH2 0x3FB8 JUMP JUMPDEST PUSH1 0x1 PUSH1 0x1 PUSH1 0xA0 SHL SUB DUP2 AND PUSH1 0x0 SWAP1 DUP2 MSTORE PUSH1 0xB PUSH1 0x20 MSTORE PUSH1 0x40 SWAP1 KECCAK256 SLOAD PUSH1 0xFF AND PUSH2 0x13EE JUMPI PUSH1 0x40 MLOAD PUSH3 0x461BCD PUSH1 0xE5 SHL DUP2 MSTORE PUSH1 0x4 ADD PUSH2 0x7D4 SWAP1 PUSH2 0x3FB8 JUMP JUMPDEST PUSH1 0x4 DUP1 SLOAD PUSH1 0x40 MLOAD PUSH4 0xFCE3E8E7 PUSH1 0xE0 SHL DUP2 MSTORE PUSH1 0x1 PUSH1 0x1 PUSH1 0xA0 SHL SUB DUP7 DUP2 AND SWAP4 DUP3 ADD SWAP4 SWAP1 SWAP4 MSTORE SWAP2 AND SWAP1 PUSH4 0xFCE3E8E7 SWAP1 PUSH1 0x24 ADD PUSH1 0x20 PUSH1 0x40 MLOAD DUP1 DUP4 SUB DUP2 DUP7 GAS STATICCALL ISZERO DUP1 ISZERO PUSH2 0x143A JUMPI RETURNDATASIZE PUSH1 0x0 DUP1 RETURNDATACOPY RETURNDATASIZE PUSH1 0x0 REVERT JUMPDEST POP POP POP POP PUSH1 0x40 MLOAD RETURNDATASIZE PUSH1 0x1F NOT PUSH1 0x1F DUP3 ADD AND DUP3 ADD DUP1 PUSH1 0x40 MSTORE POP DUP2 ADD SWAP1 PUSH2 0x145E SWAP2 SWAP1 PUSH2 0x3E8F JUMP JUMPDEST DUP5 GT ISZERO DUP1 PUSH2 0x14D8 JUMPI POP PUSH1 0x7 SLOAD PUSH1 0x40 MLOAD PUSH4 0x5489AD5 PUSH1 0xE2 SHL DUP2 MSTORE PUSH1 0x1 PUSH1 0x1 PUSH1 0xA0 SHL SUB DUP6 DUP2 AND PUSH1 0x4 DUP4 ADD MSTORE DUP7 SWAP3 AND SWAP1 PUSH4 0x15226B54 SWAP1 PUSH1 0x24 ADD PUSH1 0x20 PUSH1 0x40 MLOAD DUP1 DUP4 SUB DUP2 DUP7 GAS STATICCALL ISZERO DUP1 ISZERO PUSH2 0x14B1 JUMPI RETURNDATASIZE PUSH1 0x0 DUP1 RETURNDATACOPY RETURNDATASIZE PUSH1 0x0 REVERT JUMPDEST POP POP POP POP PUSH1 0x40 MLOAD RETURNDATASIZE PUSH1 0x1F NOT PUSH1 0x1F DUP3 ADD AND DUP3 ADD DUP1 PUSH1 0x40 MSTORE POP DUP2 ADD SWAP1 PUSH2 0x14D5 SWAP2 SWAP1 PUSH2 0x3E8F JUMP JUMPDEST LT ISZERO JUMPDEST PUSH2 0x1524 JUMPI PUSH1 0x40 MLOAD PUSH3 0x461BCD PUSH1 0xE5 SHL DUP2 MSTORE PUSH1 0x20 PUSH1 0x4 DUP3 ADD MSTORE PUSH1 0x1E PUSH1 0x24 DUP3 ADD MSTORE PUSH32 0x6E6F7420656E6F756768206C697175696469747920746F20626F72726F770000 PUSH1 0x44 DUP3 ADD MSTORE PUSH1 0x64 ADD PUSH2 0x7D4 JUMP JUMPDEST PUSH2 0x152C PUSH2 0x3659 JUMP JUMPDEST PUSH1 0x5 SLOAD PUSH1 0x40 MLOAD PUSH4 0x1FCD2D5 PUSH1 0xE0 SHL DUP2 MSTORE CALLER PUSH1 0x4 DUP3 ADD MSTORE PUSH1 0x0 SWAP2 PUSH1 0x1 PUSH1 0x1 PUSH1 0xA0 SHL SUB AND SWAP1 PUSH4 0x1FCD2D5 SWAP1 PUSH1 0x24 ADD PUSH1 0x20 PUSH1 0x40 MLOAD DUP1 DUP4 SUB DUP2 DUP7 GAS STATICCALL ISZERO DUP1 ISZERO PUSH2 0x1575 JUMPI RETURNDATASIZE PUSH1 0x0 DUP1 RETURNDATACOPY RETURNDATASIZE PUSH1 0x0 REVERT JUMPDEST POP POP POP POP PUSH1 0x40 MLOAD RETURNDATASIZE PUSH1 0x1F NOT PUSH1 0x1F DUP3 ADD AND DUP3 ADD DUP1 PUSH1 0x40 MSTORE POP DUP2 ADD SWAP1 PUSH2 0x1599 SWAP2 SWAP1 PUSH2 0x3E8F JUMP JUMPDEST PUSH1 0x5 SLOAD PUSH1 0x40 MLOAD PUSH4 0x6829F1B PUSH1 0xE3 SHL DUP2 MSTORE PUSH1 0x1 PUSH1 0x1 PUSH1 0xA0 SHL SUB DUP6 DUP2 AND PUSH1 0x4 DUP4 ADD MSTORE SWAP1 SWAP2 AND SWAP1 PUSH4 0x3414F8D8 SWAP1 PUSH1 0x24 ADD PUSH1 0x20 PUSH1 0x40 MLOAD DUP1 DUP4 SUB DUP2 DUP7 GAS STATICCALL ISZERO DUP1 ISZERO PUSH2 0x15E3 JUMPI RETURNDATASIZE PUSH1 0x0 DUP1 RETURNDATACOPY RETURNDATASIZE PUSH1 0x0 REVERT JUMPDEST POP POP POP POP PUSH1 0x40 MLOAD RETURNDATASIZE PUSH1 0x1F NOT PUSH1 0x1F DUP3 ADD AND DUP3 ADD DUP1 PUSH1 0x40 MSTORE POP DUP2 ADD SWAP1 PUSH2 0x1607 SWAP2 SWAP1 PUSH2 0x3E8F JUMP JUMPDEST PUSH1 0x3 SLOAD PUSH1 0x40 MLOAD PUSH4 0x41976E09 PUSH1 0xE0 SHL DUP2 MSTORE PUSH1 0x1 PUSH1 0x1 PUSH1 0xA0 SHL SUB DUP7 DUP2 AND PUSH1 0x4 DUP4 ADD MSTORE DUP8 SWAP3 AND SWAP1 PUSH4 0x41976E09 SWAP1 PUSH1 0x24 ADD PUSH1 0x20 PUSH1 0x40 MLOAD DUP1 DUP4 SUB DUP2 DUP7 GAS STATICCALL ISZERO DUP1 ISZERO PUSH2 0x1651 JUMPI RETURNDATASIZE PUSH1 0x0 DUP1 RETURNDATACOPY RETURNDATASIZE PUSH1 0x0 REVERT JUMPDEST POP POP POP POP PUSH1 0x40 MLOAD RETURNDATASIZE PUSH1 0x1F NOT PUSH1 0x1F DUP3 ADD AND DUP3 ADD DUP1 PUSH1 0x40 MSTORE POP DUP2 ADD SWAP1 PUSH2 0x1675 SWAP2 SWAP1 PUSH2 0x3E8F JUMP JUMPDEST PUSH2 0x167F SWAP2 SWAP1 PUSH2 0x3F31 JUMP JUMPDEST PUSH2 0x1689 SWAP2 SWAP1 PUSH2 0x3F50 JUMP JUMPDEST PUSH2 0x1693 SWAP2 SWAP1 PUSH2 0x3F02 JUMP JUMPDEST SWAP1 POP PUSH1 0x0 PUSH2 0x16A0 CALLER PUSH2 0x3363 JUMP JUMPDEST PUSH1 0x3 SLOAD PUSH1 0x40 MLOAD PUSH4 0x41976E09 PUSH1 0xE0 SHL DUP2 MSTORE PUSH1 0x1 PUSH1 0x1 PUSH1 0xA0 SHL SUB DUP9 DUP2 AND PUSH1 0x4 DUP4 ADD MSTORE PUSH8 0xDE0B6B3A7640000 SWAP3 DUP11 SWAP3 SWAP2 AND SWAP1 PUSH4 0x41976E09 SWAP1 PUSH1 0x24 ADD PUSH1 0x20 PUSH1 0x40 MLOAD DUP1 DUP4 SUB DUP2 DUP7 GAS STATICCALL ISZERO DUP1 ISZERO PUSH2 0x16F5 JUMPI RETURNDATASIZE PUSH1 0x0 DUP1 RETURNDATACOPY RETURNDATASIZE PUSH1 0x0 REVERT JUMPDEST POP POP POP POP PUSH1 0x40 MLOAD RETURNDATASIZE PUSH1 0x1F NOT PUSH1 0x1F DUP3 ADD AND DUP3 ADD DUP1 PUSH1 0x40 MSTORE POP DUP2 ADD SWAP1 PUSH2 0x1719 SWAP2 SWAP1 PUSH2 0x3E8F JUMP JUMPDEST PUSH2 0x1723 SWAP2 SWAP1 PUSH2 0x3F31 JUMP JUMPDEST PUSH2 0x172D SWAP2 SWAP1 PUSH2 0x3F50 JUMP JUMPDEST PUSH2 0x1737 SWAP2 SWAP1 PUSH2 0x3F02 JUMP JUMPDEST SWAP1 POP DUP1 DUP3 LT ISZERO PUSH2 0x1789 JUMPI PUSH1 0x40 MLOAD PUSH3 0x461BCD PUSH1 0xE5 SHL DUP2 MSTORE PUSH1 0x20 PUSH1 0x4 DUP3 ADD MSTORE PUSH1 0x1F PUSH1 0x24 DUP3 ADD MSTORE PUSH32 0x6E6F7420656E6F75676820636F6C6C61746572616C20746F20626F72726F7700 PUSH1 0x44 DUP3 ADD MSTORE PUSH1 0x64 ADD PUSH2 0x7D4 JUMP JUMPDEST PUSH1 0x5 SLOAD PUSH1 0x40 MLOAD PUSH4 0xF970C3B7 PUSH1 0xE0 SHL DUP2 MSTORE PUSH1 0x1 PUSH1 0x1 PUSH1 0xA0 SHL SUB SWAP1 SWAP2 AND SWAP1 PUSH4 0xF970C3B7 SWAP1 PUSH2 0x17BD SWAP1 CALLER SWAP1 DUP8 SWAP1 DUP10 SWAP1 PUSH1 0x4 ADD PUSH2 0x3F72 JUMP JUMPDEST PUSH1 0x0 PUSH1 0x40 MLOAD DUP1 DUP4 SUB DUP2 PUSH1 0x0 DUP8 DUP1 EXTCODESIZE ISZERO DUP1 ISZERO PUSH2 0x17D7 JUMPI PUSH1 0x0 DUP1 REVERT JUMPDEST POP GAS CALL ISZERO DUP1 ISZERO PUSH2 0x17EB JUMPI RETURNDATASIZE PUSH1 0x0 DUP1 RETURNDATACOPY RETURNDATASIZE PUSH1 0x0 REVERT JUMPDEST POP POP PUSH1 0x4 DUP1 SLOAD PUSH1 0x40 MLOAD PUSH4 0xFCE3E8E7 PUSH1 0xE0 SHL DUP2 MSTORE PUSH1 0x1 PUSH1 0x1 PUSH1 0xA0 SHL SUB DUP11 DUP2 AND SWAP4 DUP3 ADD SWAP4 SWAP1 SWAP4 MSTORE SWAP2 AND SWAP3 POP PUSH4 0xFCE3E8E7 SWAP2 POP PUSH1 0x24 ADD PUSH1 0x20 PUSH1 0x40 MLOAD DUP1 DUP4 SUB DUP2 DUP7 GAS STATICCALL ISZERO DUP1 ISZERO PUSH2 0x183B JUMPI RETURNDATASIZE PUSH1 0x0 DUP1 RETURNDATACOPY RETURNDATASIZE PUSH1 0x0 REVERT JUMPDEST POP POP POP POP PUSH1 0x40 MLOAD RETURNDATASIZE PUSH1 0x1F NOT PUSH1 0x1F DUP3 ADD AND DUP3 ADD DUP1 PUSH1 0x40 MSTORE POP DUP2 ADD SWAP1 PUSH2 0x185F SWAP2 SWAP1 PUSH2 0x3E8F JUMP JUMPDEST DUP7 GT PUSH2 0x18CF JUMPI PUSH1 0x4 DUP1 SLOAD PUSH1 0x40 MLOAD PUSH4 0xFC4F78B9 PUSH1 0xE0 SHL DUP2 MSTORE PUSH1 0x1 PUSH1 0x1 PUSH1 0xA0 SHL SUB SWAP1 SWAP2 AND SWAP2 PUSH4 0xFC4F78B9 SWAP2 PUSH2 0x1898 SWAP2 CALLER SWAP2 DUP11 SWAP2 DUP13 SWAP2 ADD PUSH2 0x3F72 JUMP JUMPDEST PUSH1 0x0 PUSH1 0x40 MLOAD DUP1 DUP4 SUB DUP2 PUSH1 0x0 DUP8 DUP1 EXTCODESIZE ISZERO DUP1 ISZERO PUSH2 0x18B2 JUMPI PUSH1 0x0 DUP1 REVERT JUMPDEST POP GAS CALL ISZERO DUP1 ISZERO PUSH2 0x18C6 JUMPI RETURNDATASIZE PUSH1 0x0 DUP1 RETURNDATACOPY RETURNDATASIZE PUSH1 0x0 REVERT JUMPDEST POP POP POP POP PUSH2 0x1936 JUMP JUMPDEST PUSH1 0x7 SLOAD PUSH1 0x40 MLOAD PUSH4 0x2049EAEB PUSH1 0xE1 SHL DUP2 MSTORE PUSH1 0x1 PUSH1 0x1 PUSH1 0xA0 SHL SUB SWAP1 SWAP2 AND SWAP1 PUSH4 0x4093D5D6 SWAP1 PUSH2 0x1903 SWAP1 CALLER SWAP1 DUP10 SWAP1 DUP12 SWAP1 PUSH1 0x4 ADD PUSH2 0x3F72 JUMP JUMPDEST PUSH1 0x0 PUSH1 0x40 MLOAD DUP1 DUP4 SUB DUP2 PUSH1 0x0 DUP8 DUP1 EXTCODESIZE ISZERO DUP1 ISZERO PUSH2 0x191D JUMPI PUSH1 0x0 DUP1 REVERT JUMPDEST POP GAS CALL ISZERO DUP1 ISZERO PUSH2 0x1931 JUMPI RETURNDATASIZE PUSH1 0x0 DUP1 RETURNDATACOPY RETURNDATASIZE PUSH1 0x0 REVERT JUMPDEST POP POP POP POP JUMPDEST PUSH1 0x40 DUP1 MLOAD CALLER DUP2 MSTORE PUSH1 0x20 DUP2 ADD DUP9 SWAP1 MSTORE PUSH1 0x1 PUSH1 0x1 PUSH1 0xA0 SHL SUB DUP8 DUP2 AND DUP3 DUP5 ADD MSTORE PUSH1 0x60 DUP3 ADD DUP8 SWAP1 MSTORE DUP6 AND PUSH1 0x80 DUP3 ADD MSTORE SWAP1 MLOAD PUSH32 0xEA8631408D071CDC565DFA37DCB32450C4C85EE9A4142ED14DF1387D7C2A4327 SWAP2 DUP2 SWAP1 SUB PUSH1 0xA0 ADD SWAP1 LOG1 PUSH1 0x1 PUSH1 0x1 PUSH1 0xA0 SHL SUB DUP6 AND PUSH1 0x0 SWAP1 DUP2 MSTORE PUSH1 0xC PUSH1 0x20 SWAP1 DUP2 MSTORE PUSH1 0x40 DUP1 DUP4 KECCAK256 CALLER DUP5 MSTORE SWAP1 SWAP2 MSTORE DUP2 KECCAK256 DUP1 SLOAD DUP9 SWAP3 SWAP1 PUSH2 0x19C0 SWAP1 DUP5 SWAP1 PUSH2 0x3F02 JUMP JUMPDEST SWAP1 SWAP2 SSTORE POP POP PUSH1 0x1 PUSH1 0x1 PUSH1 0xA0 SHL SUB DUP6 AND PUSH1 0x0 SWAP1 DUP2 MSTORE PUSH1 0xF PUSH1 0x20 SWAP1 DUP2 MSTORE PUSH1 0x40 DUP1 DUP4 KECCAK256 CALLER DUP5 MSTORE SWAP1 SWAP2 MSTORE SWAP1 KECCAK256 SLOAD PUSH1 0xFF AND PUSH2 0x1A4D JUMPI PUSH1 0x1 PUSH1 0x1 PUSH1 0xA0 SHL SUB DUP6 AND PUSH1 0x0 DUP2 DUP2 MSTORE PUSH1 0xE PUSH1 0x20 SWAP1 DUP2 MSTORE PUSH1 0x40 DUP1 DUP4 KECCAK256 DUP1 SLOAD PUSH1 0x1 DUP2 DUP2 ADD DUP4 SSTORE SWAP2 DUP6 MSTORE DUP4 DUP6 KECCAK256 ADD DUP1 SLOAD PUSH1 0x1 PUSH1 0x1 PUSH1 0xA0 SHL SUB NOT AND CALLER SWAP1 DUP2 OR SWAP1 SWAP2 SSTORE SWAP5 DUP5 MSTORE PUSH1 0xF DUP4 MSTORE DUP2 DUP5 KECCAK256 SWAP5 DUP5 MSTORE SWAP4 SWAP1 SWAP2 MSTORE SWAP1 KECCAK256 DUP1 SLOAD PUSH1 0xFF NOT AND SWAP1 SWAP2 OR SWAP1 SSTORE JUMPDEST CALLER PUSH1 0x0 SWAP1 DUP2 MSTORE PUSH1 0x11 PUSH1 0x20 MSTORE PUSH1 0x40 SWAP1 KECCAK256 SLOAD PUSH1 0xFF AND PUSH2 0x1ABF JUMPI PUSH1 0x10 DUP1 SLOAD PUSH1 0x1 DUP2 DUP2 ADD SWAP1 SWAP3 SSTORE PUSH32 0x1B6847DC741A1B0CD08D278845F9D819D87B734759AFB55FE2DE5CB82A9AE672 ADD DUP1 SLOAD PUSH1 0x1 PUSH1 0x1 PUSH1 0xA0 SHL SUB NOT AND CALLER SWAP1 DUP2 OR SWAP1 SWAP2 SSTORE PUSH1 0x0 SWAP1 DUP2 MSTORE PUSH1 0x11 PUSH1 0x20 MSTORE PUSH1 0x40 SWAP1 KECCAK256 DUP1 SLOAD PUSH1 0xFF NOT AND SWAP1 SWAP2 OR SWAP1 SSTORE JUMPDEST PUSH1 0x40 DUP1 MLOAD CALLER DUP2 MSTORE PUSH1 0x20 DUP2 ADD DUP9 SWAP1 MSTORE PUSH1 0x1 PUSH1 0x1 PUSH1 0xA0 SHL SUB DUP8 DUP2 AND DUP3 DUP5 ADD MSTORE PUSH1 0x60 DUP3 ADD DUP8 SWAP1 MSTORE DUP6 AND PUSH1 0x80 DUP3 ADD MSTORE SWAP1 MLOAD PUSH32 0xEA8631408D071CDC565DFA37DCB32450C4C85EE9A4142ED14DF1387D7C2A4327 SWAP2 DUP2 SWAP1 SUB PUSH1 0xA0 ADD SWAP1 LOG1 POP POP POP POP POP POP JUMP JUMPDEST PUSH1 0x1 PUSH1 0x1 PUSH1 0xA0 SHL SUB DUP2 AND PUSH1 0x0 SWAP1 DUP2 MSTORE PUSH1 0xB PUSH1 0x20 MSTORE PUSH1 0x40 SWAP1 KECCAK256 SLOAD PUSH1 0xFF AND ISZERO ISZERO PUSH1 0x1 EQ PUSH2 0x1B5B JUMPI PUSH1 0x40 MLOAD PUSH3 0x461BCD PUSH1 0xE5 SHL DUP2 MSTORE PUSH1 0x4 ADD PUSH2 0x7D4 SWAP1 PUSH2 0x3FB8 JUMP JUMPDEST PUSH2 0x1B63 PUSH2 0x3659 JUMP JUMPDEST PUSH1 0x0 DUP3 GT PUSH2 0x1BB3 JUMPI PUSH1 0x40 MLOAD PUSH3 0x461BCD PUSH1 0xE5 SHL DUP2 MSTORE PUSH1 0x20 PUSH1 0x4 DUP3 ADD MSTORE PUSH1 0x18 PUSH1 0x24 DUP3 ADD MSTORE PUSH32 0x6465706F736974206D75737420626520706F7369746976650000000000000000 PUSH1 0x44 DUP3 ADD MSTORE PUSH1 0x64 ADD PUSH2 0x7D4 JUMP JUMPDEST PUSH1 0x6 SLOAD PUSH1 0x40 MLOAD PUSH4 0xD4D1513 PUSH1 0xE0 SHL DUP2 MSTORE CALLER PUSH1 0x4 DUP3 ADD MSTORE PUSH1 0x24 DUP2 ADD DUP5 SWAP1 MSTORE PUSH1 0x1 PUSH1 0x1 PUSH1 0xA0 SHL SUB DUP4 DUP2 AND PUSH1 0x44 DUP4 ADD MSTORE PUSH1 0x0 SWAP3 AND SWAP1 PUSH4 0xD4D1513 SWAP1 PUSH1 0x64 ADD PUSH1 0x20 PUSH1 0x40 MLOAD DUP1 DUP4 SUB DUP2 PUSH1 0x0 DUP8 GAS CALL ISZERO DUP1 ISZERO PUSH2 0x1C0D JUMPI RETURNDATASIZE PUSH1 0x0 DUP1 RETURNDATACOPY RETURNDATASIZE PUSH1 0x0 REVERT JUMPDEST POP POP POP POP PUSH1 0x40 MLOAD RETURNDATASIZE PUSH1 0x1F NOT PUSH1 0x1F DUP3 ADD AND DUP3 ADD DUP1 PUSH1 0x40 MSTORE POP DUP2 ADD SWAP1 PUSH2 0x1C31 SWAP2 SWAP1 PUSH2 0x3E8F JUMP JUMPDEST CALLER PUSH1 0x0 SWAP1 DUP2 MSTORE PUSH1 0x9 PUSH1 0x20 MSTORE PUSH1 0x40 DUP2 KECCAK256 DUP1 SLOAD SWAP3 SWAP4 POP DUP4 SWAP3 SWAP1 SWAP2 SWAP1 PUSH2 0x1C55 SWAP1 DUP5 SWAP1 PUSH2 0x3F02 JUMP JUMPDEST SWAP1 SWAP2 SSTORE POP POP PUSH1 0x4 DUP1 SLOAD PUSH1 0x40 MLOAD PUSH4 0x1740ECAF PUSH1 0xE1 SHL DUP2 MSTORE PUSH1 0x1 PUSH1 0x1 PUSH1 0xA0 SHL SUB SWAP1 SWAP2 AND SWAP2 PUSH4 0x2E81D95E SWAP2 PUSH2 0x1C8D SWAP2 CALLER SWAP2 DUP8 SWAP2 DUP10 SWAP2 ADD PUSH2 0x3F72 JUMP JUMPDEST PUSH1 0x0 PUSH1 0x40 MLOAD DUP1 DUP4 SUB DUP2 PUSH1 0x0 DUP8 DUP1 EXTCODESIZE ISZERO DUP1 ISZERO PUSH2 0x1CA7 JUMPI PUSH1 0x0 DUP1 REVERT JUMPDEST POP GAS CALL ISZERO DUP1 ISZERO PUSH2 0x1CBB JUMPI RETURNDATASIZE PUSH1 0x0 DUP1 RETURNDATACOPY RETURNDATASIZE PUSH1 0x0 REVERT JUMPDEST POP POP POP POP PUSH1 0x1 PUSH1 0x1 PUSH1 0xA0 SHL SUB DUP3 AND PUSH1 0x0 SWAP1 DUP2 MSTORE PUSH1 0x13 PUSH1 0x20 SWAP1 DUP2 MSTORE PUSH1 0x40 DUP1 DUP4 KECCAK256 CALLER DUP5 MSTORE SWAP1 SWAP2 MSTORE SWAP1 KECCAK256 SLOAD PUSH1 0xFF AND PUSH2 0x1D47 JUMPI PUSH1 0x1 PUSH1 0x1 PUSH1 0xA0 SHL SUB DUP3 AND PUSH1 0x0 DUP2 DUP2 MSTORE PUSH1 0x12 PUSH1 0x20 SWAP1 DUP2 MSTORE PUSH1 0x40 DUP1 DUP4 KECCAK256 DUP1 SLOAD PUSH1 0x1 DUP2 DUP2 ADD DUP4 SSTORE SWAP2 DUP6 MSTORE DUP4 DUP6 KECCAK256 ADD DUP1 SLOAD PUSH1 0x1 PUSH1 0x1 PUSH1 0xA0 SHL SUB NOT AND CALLER SWAP1 DUP2 OR SWAP1 SWAP2 SSTORE SWAP5 DUP5 MSTORE PUSH1 0x13 DUP4 MSTORE DUP2 DUP5 KECCAK256 SWAP5 DUP5 MSTORE SWAP4 SWAP1 SWAP2 MSTORE SWAP1 KECCAK256 DUP1 SLOAD PUSH1 0xFF NOT AND SWAP1 SWAP2 OR SWAP1 SSTORE JUMPDEST PUSH1 0x1 PUSH1 0x1 PUSH1 0xA0 SHL SUB DUP3 AND PUSH1 0x0 SWAP1 DUP2 MSTORE PUSH1 0xD PUSH1 0x20 SWAP1 DUP2 MSTORE PUSH1 0x40 DUP1 DUP4 KECCAK256 CALLER DUP5 MSTORE SWAP1 SWAP2 MSTORE DUP2 KECCAK256 DUP1 SLOAD DUP6 SWAP3 SWAP1 PUSH2 0x1D7A SWAP1 DUP5 SWAP1 PUSH2 0x3F02 JUMP JUMPDEST SWAP1 SWAP2 SSTORE POP POP PUSH1 0x40 DUP1 MLOAD CALLER DUP2 MSTORE PUSH1 0x1 PUSH1 0x1 PUSH1 0xA0 SHL SUB DUP5 AND PUSH1 0x20 DUP3 ADD MSTORE SWAP1 DUP2 ADD DUP5 SWAP1 MSTORE PUSH1 0x60 DUP2 ADD DUP3 SWAP1 MSTORE PUSH32 0xD2D0080ED70CEB7CE39856D34A5727B439EC7C7919425087ED35ED6868791556 SWAP1 PUSH1 0x80 ADD PUSH1 0x40 MLOAD DUP1 SWAP2 SUB SWAP1 LOG1 POP POP POP JUMP JUMPDEST PUSH1 0x4 DUP1 SLOAD PUSH1 0x40 MLOAD PUSH4 0xC0D7EEC1 PUSH1 0xE0 SHL DUP2 MSTORE PUSH1 0x1 PUSH1 0x1 PUSH1 0xA0 SHL SUB DUP5 DUP2 AND SWAP4 DUP3 ADD SWAP4 SWAP1 SWAP4 MSTORE PUSH1 0x0 SWAP3 SWAP1 SWAP2 AND SWAP1 PUSH4 0xC0D7EEC1 SWAP1 PUSH1 0x24 ADD PUSH2 0x6B7 JUMP JUMPDEST PUSH1 0x1 PUSH1 0x1 PUSH1 0xA0 SHL SUB DUP3 AND PUSH1 0x0 SWAP1 DUP2 MSTORE PUSH1 0xB PUSH1 0x20 MSTORE PUSH1 0x40 SWAP1 KECCAK256 SLOAD PUSH1 0xFF AND PUSH2 0x1E44 JUMPI PUSH1 0x40 MLOAD PUSH3 0x461BCD PUSH1 0xE5 SHL DUP2 MSTORE PUSH1 0x4 ADD PUSH2 0x7D4 SWAP1 PUSH2 0x3FB8 JUMP JUMPDEST PUSH2 0x1E4C PUSH2 0x3659 JUMP JUMPDEST DUP1 PUSH1 0x1 EQ ISZERO PUSH2 0x1E62 JUMPI PUSH2 0x1E5F CALLER DUP4 PUSH2 0x2C17 JUMP JUMPDEST SWAP1 POP JUMPDEST PUSH1 0x1 PUSH1 0x1 PUSH1 0xA0 SHL SUB DUP3 AND PUSH1 0x0 SWAP1 DUP2 MSTORE PUSH1 0xC PUSH1 0x20 SWAP1 DUP2 MSTORE PUSH1 0x40 DUP1 DUP4 KECCAK256 CALLER DUP5 MSTORE SWAP1 SWAP2 MSTORE SWAP1 KECCAK256 PUSH1 0x1 DUP2 ADD SLOAD SWAP1 SLOAD DUP3 SWAP2 PUSH2 0x1E97 SWAP2 PUSH2 0x3F02 JUMP JUMPDEST LT ISZERO PUSH2 0x1EE5 JUMPI PUSH1 0x40 MLOAD PUSH3 0x461BCD PUSH1 0xE5 SHL DUP2 MSTORE PUSH1 0x20 PUSH1 0x4 DUP3 ADD MSTORE PUSH1 0x1B PUSH1 0x24 DUP3 ADD MSTORE PUSH32 0x52657475726E6564206D6F7265207468616E20626F72726F7765640000000000 PUSH1 0x44 DUP3 ADD MSTORE PUSH1 0x64 ADD PUSH2 0x7D4 JUMP JUMPDEST PUSH1 0x1 PUSH1 0x1 PUSH1 0xA0 SHL SUB DUP3 AND PUSH1 0x0 SWAP1 DUP2 MSTORE PUSH1 0xC PUSH1 0x20 SWAP1 DUP2 MSTORE PUSH1 0x40 DUP1 DUP4 KECCAK256 CALLER DUP5 MSTORE SWAP1 SWAP2 MSTORE DUP2 KECCAK256 PUSH1 0x1 ADD SLOAD PUSH2 0x1F17 SWAP1 DUP4 SWAP1 PUSH2 0x38CB JUMP JUMPDEST SWAP1 POP PUSH1 0x0 PUSH2 0x1F25 DUP3 DUP5 PUSH2 0x3F1A JUMP JUMPDEST PUSH1 0x4 DUP1 SLOAD PUSH1 0x40 MLOAD PUSH4 0x27709E47 PUSH1 0xE1 SHL DUP2 MSTORE CALLER SWAP3 DUP2 ADD SWAP3 SWAP1 SWAP3 MSTORE PUSH1 0x1 PUSH1 0x1 PUSH1 0xA0 SHL SUB DUP8 DUP2 AND PUSH1 0x24 DUP5 ADD MSTORE PUSH1 0x44 DUP4 ADD DUP8 SWAP1 MSTORE PUSH1 0x64 DUP4 ADD DUP5 SWAP1 MSTORE PUSH1 0x84 DUP4 ADD DUP7 SWAP1 MSTORE SWAP3 SWAP4 POP SWAP2 SWAP1 SWAP2 AND SWAP1 PUSH4 0x4EE13C8E SWAP1 PUSH1 0xA4 ADD PUSH1 0x0 PUSH1 0x40 MLOAD DUP1 DUP4 SUB DUP2 PUSH1 0x0 DUP8 DUP1 EXTCODESIZE ISZERO DUP1 ISZERO PUSH2 0x1F8E JUMPI PUSH1 0x0 DUP1 REVERT JUMPDEST POP GAS CALL ISZERO DUP1 ISZERO PUSH2 0x1FA2 JUMPI RETURNDATASIZE PUSH1 0x0 DUP1 RETURNDATACOPY RETURNDATASIZE PUSH1 0x0 REVERT JUMPDEST POP POP POP POP PUSH1 0x1 PUSH1 0x1 PUSH1 0xA0 SHL SUB DUP5 AND PUSH1 0x0 SWAP1 DUP2 MSTORE PUSH1 0xC PUSH1 0x20 SWAP1 DUP2 MSTORE PUSH1 0x40 DUP1 DUP4 KECCAK256 CALLER DUP5 MSTORE SWAP1 SWAP2 MSTORE DUP2 KECCAK256 DUP1 SLOAD DUP4 SWAP3 SWAP1 PUSH2 0x1FD9 SWAP1 DUP5 SWAP1 PUSH2 0x3F1A JUMP JUMPDEST SWAP1 SWAP2 SSTORE POP POP PUSH1 0x1 PUSH1 0x1 PUSH1 0xA0 SHL SUB DUP5 AND PUSH1 0x0 SWAP1 DUP2 MSTORE PUSH1 0xC PUSH1 0x20 SWAP1 DUP2 MSTORE PUSH1 0x40 DUP1 DUP4 KECCAK256 CALLER DUP5 MSTORE SWAP1 SWAP2 MSTORE DUP2 KECCAK256 PUSH1 0x1 ADD DUP1 SLOAD DUP5 SWAP3 SWAP1 PUSH2 0x2014 SWAP1 DUP5 SWAP1 PUSH2 0x3F1A JUMP JUMPDEST SWAP1 SWAP2 SSTORE POP POP PUSH1 0x1 PUSH1 0x1 PUSH1 0xA0 SHL SUB DUP5 AND PUSH1 0x0 SWAP1 DUP2 MSTORE PUSH1 0xC PUSH1 0x20 SWAP1 DUP2 MSTORE PUSH1 0x40 DUP1 DUP4 KECCAK256 CALLER DUP5 MSTORE SWAP1 SWAP2 MSTORE SWAP1 KECCAK256 SLOAD PUSH2 0x2066 JUMPI PUSH1 0x1 PUSH1 0x1 PUSH1 0xA0 SHL SUB DUP5 AND PUSH1 0x0 SWAP1 DUP2 MSTORE PUSH1 0xC PUSH1 0x20 SWAP1 DUP2 MSTORE PUSH1 0x40 DUP1 DUP4 KECCAK256 CALLER DUP5 MSTORE SWAP1 SWAP2 MSTORE DUP2 KECCAK256 SSTORE JUMPDEST PUSH1 0x1 PUSH1 0x1 PUSH1 0xA0 SHL SUB DUP5 AND PUSH1 0x0 SWAP1 DUP2 MSTORE PUSH1 0xC PUSH1 0x20 SWAP1 DUP2 MSTORE PUSH1 0x40 DUP1 DUP4 KECCAK256 CALLER DUP5 MSTORE SWAP1 SWAP2 MSTORE SWAP1 KECCAK256 PUSH1 0x1 ADD SLOAD PUSH2 0x20B9 JUMPI PUSH1 0x1 PUSH1 0x1 PUSH1 0xA0 SHL SUB DUP5 AND PUSH1 0x0 SWAP1 DUP2 MSTORE PUSH1 0xC PUSH1 0x20 SWAP1 DUP2 MSTORE PUSH1 0x40 DUP1 DUP4 KECCAK256 CALLER DUP5 MSTORE SWAP1 SWAP2 MSTORE DUP2 KECCAK256 PUSH1 0x1 ADD SSTORE JUMPDEST PUSH32 0x2BB7C63EB15A05EBC1A5643F6D064397B45F326816B607769BF52FD7BD03951A CALLER DUP6 DUP6 PUSH1 0x40 MLOAD PUSH2 0x20EC SWAP4 SWAP3 SWAP2 SWAP1 PUSH2 0x3F72 JUMP JUMPDEST PUSH1 0x40 MLOAD DUP1 SWAP2 SUB SWAP1 LOG1 POP POP POP POP JUMP JUMPDEST PUSH1 0x4 DUP1 SLOAD PUSH1 0x40 MLOAD PUSH4 0x5C88F5A5 PUSH1 0xE0 SHL DUP2 MSTORE PUSH1 0x1 PUSH1 0x1 PUSH1 0xA0 SHL SUB DUP5 DUP2 AND SWAP4 DUP3 ADD SWAP4 SWAP1 SWAP4 MSTORE PUSH1 0x0 SWAP3 SWAP1 SWAP2 AND SWAP1 PUSH4 0x5C88F5A5 SWAP1 PUSH1 0x24 ADD PUSH2 0x6B7 JUMP JUMPDEST PUSH2 0x214A PUSH1 0x0 DUP1 MLOAD PUSH1 0x20 PUSH2 0x40DC DUP4 CODECOPY DUP2 MLOAD SWAP2 MSTORE CALLER PUSH2 0x293F JUMP JUMPDEST PUSH2 0x2166 JUMPI PUSH1 0x40 MLOAD PUSH3 0x461BCD PUSH1 0xE5 SHL DUP2 MSTORE PUSH1 0x4 ADD PUSH2 0x7D4 SWAP1 PUSH2 0x3EA8 JUMP JUMPDEST PUSH1 0x5 SLOAD PUSH1 0x40 MLOAD PUSH4 0x6858EA07 PUSH1 0xE0 SHL DUP2 MSTORE PUSH1 0x1 PUSH1 0x1 PUSH1 0xA0 SHL SUB DUP5 DUP2 AND PUSH1 0x4 DUP4 ADD MSTORE PUSH1 0x24 DUP3 ADD DUP5 SWAP1 MSTORE SWAP1 SWAP2 AND SWAP1 PUSH4 0x6858EA07 SWAP1 PUSH1 0x44 ADD PUSH1 0x0 PUSH1 0x40 MLOAD DUP1 DUP4 SUB DUP2 PUSH1 0x0 DUP8 DUP1 EXTCODESIZE ISZERO DUP1 ISZERO PUSH2 0x21B4 JUMPI PUSH1 0x0 DUP1 REVERT JUMPDEST POP GAS CALL ISZERO DUP1 ISZERO PUSH2 0x21C8 JUMPI RETURNDATASIZE PUSH1 0x0 DUP1 RETURNDATACOPY RETURNDATASIZE PUSH1 0x0 REVERT JUMPDEST POP POP POP POP POP POP JUMP JUMPDEST PUSH1 0x6 SLOAD PUSH1 0x40 DUP1 MLOAD PUSH4 0xCF55F37 PUSH1 0xE2 SHL DUP2 MSTORE SWAP1 MLOAD PUSH1 0x0 SWAP3 PUSH1 0x1 PUSH1 0x1 PUSH1 0xA0 SHL SUB AND SWAP2 PUSH4 0x33D57CDC SWAP2 PUSH1 0x4 DUP1 DUP4 ADD SWAP3 PUSH1 0x20 SWAP3 SWAP2 SWAP1 DUP3 SWAP1 SUB ADD DUP2 DUP7 GAS STATICCALL ISZERO DUP1 ISZERO PUSH2 0x775 JUMPI RETURNDATASIZE PUSH1 0x0 DUP1 RETURNDATACOPY RETURNDATASIZE PUSH1 0x0 REVERT JUMPDEST PUSH1 0x1 PUSH1 0x1 PUSH1 0xA0 SHL SUB DUP3 AND PUSH1 0x0 SWAP1 DUP2 MSTORE PUSH1 0xB PUSH1 0x20 MSTORE PUSH1 0x40 SWAP1 KECCAK256 SLOAD PUSH1 0xFF AND PUSH2 0x2252 JUMPI PUSH1 0x40 MLOAD PUSH3 0x461BCD PUSH1 0xE5 SHL DUP2 MSTORE PUSH1 0x4 ADD PUSH2 0x7D4 SWAP1 PUSH2 0x3FB8 JUMP JUMPDEST PUSH1 0x6 SLOAD PUSH1 0x40 MLOAD PUSH4 0x70A08231 PUSH1 0xE0 SHL DUP2 MSTORE CALLER PUSH1 0x4 DUP3 ADD MSTORE DUP3 SWAP2 PUSH1 0x1 PUSH1 0x1 PUSH1 0xA0 SHL SUB AND SWAP1 PUSH4 0x70A08231 SWAP1 PUSH1 0x24 ADD PUSH1 0x20 PUSH1 0x40 MLOAD DUP1 DUP4 SUB DUP2 DUP7 GAS STATICCALL ISZERO DUP1 ISZERO PUSH2 0x229A JUMPI RETURNDATASIZE PUSH1 0x0 DUP1 RETURNDATACOPY RETURNDATASIZE PUSH1 0x0 REVERT JUMPDEST POP POP POP POP PUSH1 0x40 MLOAD RETURNDATASIZE PUSH1 0x1F NOT PUSH1 0x1F DUP3 ADD AND DUP3 ADD DUP1 PUSH1 0x40 MSTORE POP DUP2 ADD SWAP1 PUSH2 0x22BE SWAP2 SWAP1 PUSH2 0x3E8F JUMP JUMPDEST LT ISZERO PUSH2 0x2320 JUMPI PUSH1 0x40 MLOAD PUSH3 0x461BCD PUSH1 0xE5 SHL DUP2 MSTORE PUSH1 0x20 PUSH1 0x4 DUP3 ADD MSTORE PUSH1 0x2B PUSH1 0x24 DUP3 ADD MSTORE PUSH32 0x43616E6E6F742072656465656D206D6F726520746F6B656E73207468616E206E PUSH1 0x44 DUP3 ADD MSTORE PUSH11 0x1D5B58995C881BDDDB9959 PUSH1 0xAA SHL PUSH1 0x64 DUP3 ADD MSTORE PUSH1 0x84 ADD PUSH2 0x7D4 JUMP JUMPDEST PUSH2 0x2328 PUSH2 0x3659 JUMP JUMPDEST PUSH1 0x3 SLOAD PUSH1 0x40 MLOAD PUSH4 0x41976E09 PUSH1 0xE0 SHL DUP2 MSTORE PUSH1 0x1 PUSH1 0x1 PUSH1 0xA0 SHL SUB DUP5 DUP2 AND PUSH1 0x4 DUP4 ADD MSTORE PUSH1 0x0 SWAP3 AND SWAP1 PUSH4 0x41976E09 SWAP1 PUSH1 0x24 ADD PUSH1 0x20 PUSH1 0x40 MLOAD DUP1 DUP4 SUB DUP2 DUP7 GAS STATICCALL ISZERO DUP1 ISZERO PUSH2 0x2373 JUMPI RETURNDATASIZE PUSH1 0x0 DUP1 RETURNDATACOPY RETURNDATASIZE PUSH1 0x0 REVERT JUMPDEST POP POP POP POP PUSH1 0x40 MLOAD RETURNDATASIZE PUSH1 0x1F NOT PUSH1 0x1F DUP3 ADD AND DUP3 ADD DUP1 PUSH1 0x40 MSTORE POP DUP2 ADD SWAP1 PUSH2 0x2397 SWAP2 SWAP1 PUSH2 0x3E8F JUMP JUMPDEST SWAP1 POP PUSH1 0x0 DUP2 PUSH1 0x6 PUSH1 0x0 SWAP1 SLOAD SWAP1 PUSH2 0x100 EXP SWAP1 DIV PUSH1 0x1 PUSH1 0x1 PUSH1 0xA0 SHL SUB AND PUSH1 0x1 PUSH1 0x1 PUSH1 0xA0 SHL SUB AND PUSH4 0x33D57CDC PUSH1 0x40 MLOAD DUP2 PUSH4 0xFFFFFFFF AND PUSH1 0xE0 SHL DUP2 MSTORE PUSH1 0x4 ADD PUSH1 0x20 PUSH1 0x40 MLOAD DUP1 DUP4 SUB DUP2 DUP7 GAS STATICCALL ISZERO DUP1 ISZERO PUSH2 0x23EF JUMPI RETURNDATASIZE PUSH1 0x0 DUP1 RETURNDATACOPY RETURNDATASIZE PUSH1 0x0 REVERT JUMPDEST POP POP POP POP PUSH1 0x40 MLOAD RETURNDATASIZE PUSH1 0x1F NOT PUSH1 0x1F DUP3 ADD AND DUP3 ADD DUP1 PUSH1 0x40 MSTORE POP DUP2 ADD SWAP1 PUSH2 0x2413 SWAP2 SWAP1 PUSH2 0x3E8F JUMP JUMPDEST PUSH2 0x241D SWAP1 DUP6 PUSH2 0x3F31 JUMP JUMPDEST PUSH2 0x2427 SWAP2 SWAP1 PUSH2 0x3F50 JUMP JUMPDEST PUSH1 0x6 SLOAD PUSH1 0x40 MLOAD PUSH4 0x2770A7EB PUSH1 0xE2 SHL DUP2 MSTORE CALLER PUSH1 0x4 DUP3 ADD MSTORE PUSH1 0x24 DUP2 ADD DUP7 SWAP1 MSTORE SWAP2 SWAP3 POP PUSH1 0x1 PUSH1 0x1 PUSH1 0xA0 SHL SUB AND SWAP1 PUSH4 0x9DC29FAC SWAP1 PUSH1 0x44 ADD PUSH1 0x0 PUSH1 0x40 MLOAD DUP1 DUP4 SUB DUP2 PUSH1 0x0 DUP8 DUP1 EXTCODESIZE ISZERO DUP1 ISZERO PUSH2 0x2474 JUMPI PUSH1 0x0 DUP1 REVERT JUMPDEST POP GAS CALL ISZERO DUP1 ISZERO PUSH2 0x2488 JUMPI RETURNDATASIZE PUSH1 0x0 DUP1 RETURNDATACOPY RETURNDATASIZE PUSH1 0x0 REVERT JUMPDEST POP POP CALLER PUSH1 0x0 SWAP1 DUP2 MSTORE PUSH1 0x9 PUSH1 0x20 MSTORE PUSH1 0x40 DUP2 KECCAK256 DUP1 SLOAD DUP8 SWAP5 POP SWAP1 SWAP3 POP PUSH2 0x24AC SWAP1 DUP5 SWAP1 PUSH2 0x3F1A JUMP JUMPDEST SWAP1 SWAP2 SSTORE POP POP CALLER PUSH1 0x0 SWAP1 DUP2 MSTORE PUSH1 0x9 PUSH1 0x20 MSTORE PUSH1 0x40 SWAP1 KECCAK256 SLOAD PUSH2 0x24D6 JUMPI CALLER PUSH1 0x0 SWAP1 DUP2 MSTORE PUSH1 0x9 PUSH1 0x20 MSTORE PUSH1 0x40 DUP2 KECCAK256 SSTORE JUMPDEST PUSH1 0x1 PUSH1 0x1 PUSH1 0xA0 SHL SUB DUP5 AND PUSH1 0x0 SWAP1 DUP2 MSTORE PUSH1 0xD PUSH1 0x20 SWAP1 DUP2 MSTORE PUSH1 0x40 DUP1 DUP4 KECCAK256 CALLER DUP5 MSTORE SWAP1 SWAP2 MSTORE SWAP1 KECCAK256 SLOAD PUSH2 0x2569 JUMPI PUSH1 0x7 SLOAD PUSH1 0x40 MLOAD PUSH4 0xAA44E43F PUSH1 0xE0 SHL DUP2 MSTORE PUSH1 0x1 PUSH1 0x1 PUSH1 0xA0 SHL SUB SWAP1 SWAP2 AND SWAP1 PUSH4 0xAA44E43F SWAP1 PUSH2 0x2532 SWAP1 CALLER SWAP1 DUP9 SWAP1 DUP7 SWAP1 PUSH1 0x4 ADD PUSH2 0x3F72 JUMP JUMPDEST PUSH1 0x0 PUSH1 0x40 MLOAD DUP1 DUP4 SUB DUP2 PUSH1 0x0 DUP8 DUP1 EXTCODESIZE ISZERO DUP1 ISZERO PUSH2 0x254C JUMPI PUSH1 0x0 DUP1 REVERT JUMPDEST POP GAS CALL ISZERO DUP1 ISZERO PUSH2 0x2560 JUMPI RETURNDATASIZE PUSH1 0x0 DUP1 RETURNDATACOPY RETURNDATASIZE PUSH1 0x0 REVERT JUMPDEST POP POP POP POP PUSH2 0x28ED JUMP JUMPDEST PUSH1 0x1 PUSH1 0x1 PUSH1 0xA0 SHL SUB DUP5 AND PUSH1 0x0 SWAP1 DUP2 MSTORE PUSH1 0xD PUSH1 0x20 SWAP1 DUP2 MSTORE PUSH1 0x40 DUP1 DUP4 KECCAK256 CALLER DUP5 MSTORE SWAP1 SWAP2 MSTORE SWAP1 KECCAK256 SLOAD DUP2 GT ISZERO PUSH2 0x27A5 JUMPI PUSH1 0x1 PUSH1 0x1 PUSH1 0xA0 SHL SUB DUP5 AND PUSH1 0x0 SWAP1 DUP2 MSTORE PUSH1 0xD PUSH1 0x20 SWAP1 DUP2 MSTORE PUSH1 0x40 DUP1 DUP4 KECCAK256 CALLER DUP5 MSTORE SWAP1 SWAP2 MSTORE DUP2 KECCAK256 SLOAD PUSH2 0x25C3 SWAP1 DUP4 SWAP1 PUSH2 0x38CB JUMP JUMPDEST SWAP1 POP PUSH1 0x0 PUSH2 0x25D1 DUP3 DUP5 PUSH2 0x3F1A JUMP JUMPDEST PUSH1 0x1 PUSH1 0x1 PUSH1 0xA0 SHL SUB DUP8 DUP2 AND PUSH1 0x0 DUP2 DUP2 MSTORE PUSH1 0xD PUSH1 0x20 SWAP1 DUP2 MSTORE PUSH1 0x40 DUP1 DUP4 KECCAK256 CALLER DUP5 MSTORE SWAP1 SWAP2 MSTORE DUP1 DUP3 KECCAK256 SWAP2 SWAP1 SWAP2 SSTORE PUSH1 0x4 DUP1 SLOAD SWAP2 MLOAD PUSH4 0xFCE3E8E7 PUSH1 0xE0 SHL DUP2 MSTORE SWAP1 DUP2 ADD SWAP3 SWAP1 SWAP3 MSTORE SWAP3 SWAP4 POP SWAP2 AND SWAP1 PUSH4 0xFCE3E8E7 SWAP1 PUSH1 0x24 ADD PUSH1 0x20 PUSH1 0x40 MLOAD DUP1 DUP4 SUB DUP2 DUP7 GAS STATICCALL ISZERO DUP1 ISZERO PUSH2 0x263D JUMPI RETURNDATASIZE PUSH1 0x0 DUP1 RETURNDATACOPY RETURNDATASIZE PUSH1 0x0 REVERT JUMPDEST POP POP POP POP PUSH1 0x40 MLOAD RETURNDATASIZE PUSH1 0x1F NOT PUSH1 0x1F DUP3 ADD AND DUP3 ADD DUP1 PUSH1 0x40 MSTORE POP DUP2 ADD SWAP1 PUSH2 0x2661 SWAP2 SWAP1 PUSH2 0x3E8F JUMP JUMPDEST DUP3 LT PUSH2 0x26D2 JUMPI PUSH1 0x7 SLOAD PUSH1 0x40 MLOAD PUSH4 0xAA44E43F PUSH1 0xE0 SHL DUP2 MSTORE PUSH1 0x1 PUSH1 0x1 PUSH1 0xA0 SHL SUB SWAP1 SWAP2 AND SWAP1 PUSH4 0xAA44E43F SWAP1 PUSH2 0x269B SWAP1 CALLER SWAP1 DUP11 SWAP1 DUP9 SWAP1 PUSH1 0x4 ADD PUSH2 0x3F72 JUMP JUMPDEST PUSH1 0x0 PUSH1 0x40 MLOAD DUP1 DUP4 SUB DUP2 PUSH1 0x0 DUP8 DUP1 EXTCODESIZE ISZERO DUP1 ISZERO PUSH2 0x26B5 JUMPI PUSH1 0x0 DUP1 REVERT JUMPDEST POP GAS CALL ISZERO DUP1 ISZERO PUSH2 0x26C9 JUMPI RETURNDATASIZE PUSH1 0x0 DUP1 RETURNDATACOPY RETURNDATASIZE PUSH1 0x0 REVERT JUMPDEST POP POP POP POP PUSH2 0x279E JUMP JUMPDEST PUSH1 0x4 DUP1 SLOAD PUSH1 0x40 MLOAD PUSH4 0x1F97F859 PUSH1 0xE3 SHL DUP2 MSTORE PUSH1 0x1 PUSH1 0x1 PUSH1 0xA0 SHL SUB SWAP1 SWAP2 AND SWAP2 PUSH4 0xFCBFC2C8 SWAP2 PUSH2 0x2705 SWAP2 CALLER SWAP2 DUP12 SWAP2 DUP9 SWAP2 ADD PUSH2 0x3F72 JUMP JUMPDEST PUSH1 0x0 PUSH1 0x40 MLOAD DUP1 DUP4 SUB DUP2 PUSH1 0x0 DUP8 DUP1 EXTCODESIZE ISZERO DUP1 ISZERO PUSH2 0x271F JUMPI PUSH1 0x0 DUP1 REVERT JUMPDEST POP GAS CALL ISZERO DUP1 ISZERO PUSH2 0x2733 JUMPI RETURNDATASIZE PUSH1 0x0 DUP1 RETURNDATACOPY RETURNDATASIZE PUSH1 0x0 REVERT JUMPDEST POP POP PUSH1 0x7 SLOAD PUSH1 0x40 MLOAD PUSH4 0xAA44E43F PUSH1 0xE0 SHL DUP2 MSTORE PUSH1 0x1 PUSH1 0x1 PUSH1 0xA0 SHL SUB SWAP1 SWAP2 AND SWAP3 POP PUSH4 0xAA44E43F SWAP2 POP PUSH2 0x276B SWAP1 CALLER SWAP1 DUP11 SWAP1 DUP7 SWAP1 PUSH1 0x4 ADD PUSH2 0x3F72 JUMP JUMPDEST PUSH1 0x0 PUSH1 0x40 MLOAD DUP1 DUP4 SUB DUP2 PUSH1 0x0 DUP8 DUP1 EXTCODESIZE ISZERO DUP1 ISZERO PUSH2 0x2785 JUMPI PUSH1 0x0 DUP1 REVERT JUMPDEST POP GAS CALL ISZERO DUP1 ISZERO PUSH2 0x2799 JUMPI RETURNDATASIZE PUSH1 0x0 DUP1 RETURNDATACOPY RETURNDATASIZE PUSH1 0x0 REVERT JUMPDEST POP POP POP POP JUMPDEST POP POP PUSH2 0x28ED JUMP JUMPDEST PUSH1 0x1 PUSH1 0x1 PUSH1 0xA0 SHL SUB DUP5 AND PUSH1 0x0 SWAP1 DUP2 MSTORE PUSH1 0xD PUSH1 0x20 SWAP1 DUP2 MSTORE PUSH1 0x40 DUP1 DUP4 KECCAK256 CALLER DUP5 MSTORE SWAP1 SWAP2 MSTORE DUP2 KECCAK256 DUP1 SLOAD DUP4 SWAP3 SWAP1 PUSH2 0x27D8 SWAP1 DUP5 SWAP1 PUSH2 0x3F1A JUMP JUMPDEST SWAP1 SWAP2 SSTORE POP POP PUSH1 0x4 DUP1 SLOAD PUSH1 0x40 MLOAD PUSH4 0xFCE3E8E7 PUSH1 0xE0 SHL DUP2 MSTORE PUSH1 0x1 PUSH1 0x1 PUSH1 0xA0 SHL SUB DUP8 DUP2 AND SWAP4 DUP3 ADD SWAP4 SWAP1 SWAP4 MSTORE SWAP2 AND SWAP1 PUSH4 0xFCE3E8E7 SWAP1 PUSH1 0x24 ADD PUSH1 0x20 PUSH1 0x40 MLOAD DUP1 DUP4 SUB DUP2 DUP7 GAS STATICCALL ISZERO DUP1 ISZERO PUSH2 0x2829 JUMPI RETURNDATASIZE PUSH1 0x0 DUP1 RETURNDATACOPY RETURNDATASIZE PUSH1 0x0 REVERT JUMPDEST POP POP POP POP PUSH1 0x40 MLOAD RETURNDATASIZE PUSH1 0x1F NOT PUSH1 0x1F DUP3 ADD AND DUP3 ADD DUP1 PUSH1 0x40 MSTORE POP DUP2 ADD SWAP1 PUSH2 0x284D SWAP2 SWAP1 PUSH2 0x3E8F JUMP JUMPDEST DUP2 LT PUSH2 0x2887 JUMPI PUSH1 0x7 SLOAD PUSH1 0x40 MLOAD PUSH4 0xAA44E43F PUSH1 0xE0 SHL DUP2 MSTORE PUSH1 0x1 PUSH1 0x1 PUSH1 0xA0 SHL SUB SWAP1 SWAP2 AND SWAP1 PUSH4 0xAA44E43F SWAP1 PUSH2 0x2532 SWAP1 CALLER SWAP1 DUP9 SWAP1 DUP7 SWAP1 PUSH1 0x4 ADD PUSH2 0x3F72 JUMP JUMPDEST PUSH1 0x4 DUP1 SLOAD PUSH1 0x40 MLOAD PUSH4 0x1F97F859 PUSH1 0xE3 SHL DUP2 MSTORE PUSH1 0x1 PUSH1 0x1 PUSH1 0xA0 SHL SUB SWAP1 SWAP2 AND SWAP2 PUSH4 0xFCBFC2C8 SWAP2 PUSH2 0x28BA SWAP2 CALLER SWAP2 DUP10 SWAP2 DUP8 SWAP2 ADD PUSH2 0x3F72 JUMP JUMPDEST PUSH1 0x0 PUSH1 0x40 MLOAD DUP1 DUP4 SUB DUP2 PUSH1 0x0 DUP8 DUP1 EXTCODESIZE ISZERO DUP1 ISZERO PUSH2 0x28D4 JUMPI PUSH1 0x0 DUP1 REVERT JUMPDEST POP GAS CALL ISZERO DUP1 ISZERO PUSH2 0x28E8 JUMPI RETURNDATASIZE PUSH1 0x0 DUP1 RETURNDATACOPY RETURNDATASIZE PUSH1 0x0 REVERT JUMPDEST POP POP POP POP JUMPDEST PUSH32 0x9A2C2E027B0E93D2BAB8A1DB6764850FAF19C3F41EC55C77E319131FA38176E6 CALLER DUP6 DUP6 PUSH1 0x40 MLOAD PUSH2 0x20EC SWAP4 SWAP3 SWAP2 SWAP1 PUSH2 0x3F72 JUMP JUMPDEST PUSH1 0x0 DUP3 DUP2 MSTORE PUSH1 0x1 PUSH1 0x20 MSTORE PUSH1 0x40 DUP2 KECCAK256 PUSH2 0x2938 SWAP1 DUP4 PUSH2 0x38D7 JUMP JUMPDEST SWAP4 SWAP3 POP POP POP JUMP JUMPDEST PUSH1 0x0 SWAP2 DUP3 MSTORE PUSH1 0x20 DUP3 DUP2 MSTORE PUSH1 0x40 DUP1 DUP5 KECCAK256 PUSH1 0x1 PUSH1 0x1 PUSH1 0xA0 SHL SUB SWAP4 SWAP1 SWAP4 AND DUP5 MSTORE SWAP2 SWAP1 MSTORE SWAP1 KECCAK256 SLOAD PUSH1 0xFF AND SWAP1 JUMP JUMPDEST PUSH1 0x5 SLOAD PUSH1 0x40 MLOAD PUSH4 0x1D512A91 PUSH1 0xE2 SHL DUP2 MSTORE PUSH1 0x1 PUSH1 0x1 PUSH1 0xA0 SHL SUB DUP4 DUP2 AND PUSH1 0x4 DUP4 ADD MSTORE PUSH1 0x0 SWAP3 AND SWAP1 PUSH4 0x7544AA44 SWAP1 PUSH1 0x24 ADD PUSH2 0x6B7 JUMP JUMPDEST PUSH1 0x6 SLOAD PUSH1 0x40 MLOAD PUSH4 0x70A08231 PUSH1 0xE0 SHL DUP2 MSTORE PUSH1 0x1 PUSH1 0x1 PUSH1 0xA0 SHL SUB DUP4 DUP2 AND PUSH1 0x4 DUP4 ADD MSTORE PUSH1 0x0 SWAP3 AND SWAP1 PUSH4 0x70A08231 SWAP1 PUSH1 0x24 ADD PUSH2 0x6B7 JUMP JUMPDEST PUSH2 0x29E6 PUSH1 0x0 DUP1 MLOAD PUSH1 0x20 PUSH2 0x40DC DUP4 CODECOPY DUP2 MLOAD SWAP2 MSTORE CALLER PUSH2 0x293F JUMP JUMPDEST PUSH2 0x2A02 JUMPI PUSH1 0x40 MLOAD PUSH3 0x461BCD PUSH1 0xE5 SHL DUP2 MSTORE PUSH1 0x4 ADD PUSH2 0x7D4 SWAP1 PUSH2 0x3EA8 JUMP JUMPDEST PUSH1 0xA DUP1 SLOAD PUSH1 0x1 DUP2 ADD DUP3 SSTORE PUSH1 0x0 SWAP2 SWAP1 SWAP2 MSTORE PUSH32 0xC65A7BB8D6351C1CF70C95A316CC6A92839C986682D98BC35F958F4883F9D2A8 ADD DUP1 SLOAD PUSH1 0x1 PUSH1 0x1 PUSH1 0xA0 SHL SUB NOT AND PUSH1 0x1 PUSH1 0x1 PUSH1 0xA0 SHL SUB DUP4 DUP2 AND SWAP2 DUP3 OR SWAP1 SWAP3 SSTORE PUSH1 0x4 DUP1 SLOAD PUSH1 0x40 MLOAD PUSH4 0xFAC09E87 PUSH1 0xE0 SHL DUP2 MSTORE SWAP2 DUP3 ADD SWAP3 SWAP1 SWAP3 MSTORE SWAP2 AND SWAP1 PUSH4 0xFAC09E87 SWAP1 PUSH1 0x24 ADD PUSH1 0x0 PUSH1 0x40 MLOAD DUP1 DUP4 SUB DUP2 PUSH1 0x0 DUP8 DUP1 EXTCODESIZE ISZERO DUP1 ISZERO PUSH2 0x2A8F JUMPI PUSH1 0x0 DUP1 REVERT JUMPDEST POP GAS CALL ISZERO DUP1 ISZERO PUSH2 0x2AA3 JUMPI RETURNDATASIZE PUSH1 0x0 DUP1 RETURNDATACOPY RETURNDATASIZE PUSH1 0x0 REVERT JUMPDEST POP POP PUSH1 0x5 SLOAD PUSH1 0x40 MLOAD PUSH4 0xFAC09E87 PUSH1 0xE0 SHL DUP2 MSTORE PUSH1 0x1 PUSH1 0x1 PUSH1 0xA0 SHL SUB DUP6 DUP2 AND PUSH1 0x4 DUP4 ADD MSTORE SWAP1 SWAP2 AND SWAP3 POP PUSH4 0xFAC09E87 SWAP2 POP PUSH1 0x24 ADD PUSH1 0x0 PUSH1 0x40 MLOAD DUP1 DUP4 SUB DUP2 PUSH1 0x0 DUP8 DUP1 EXTCODESIZE ISZERO DUP1 ISZERO PUSH2 0x2AEE JUMPI PUSH1 0x0 DUP1 REVERT JUMPDEST POP GAS CALL ISZERO DUP1 ISZERO PUSH2 0x2B02 JUMPI RETURNDATASIZE PUSH1 0x0 DUP1 RETURNDATACOPY RETURNDATASIZE PUSH1 0x0 REVERT JUMPDEST POP POP PUSH1 0x7 SLOAD PUSH1 0x40 MLOAD PUSH4 0xFAC09E87 PUSH1 0xE0 SHL DUP2 MSTORE PUSH1 0x1 PUSH1 0x1 PUSH1 0xA0 SHL SUB DUP6 DUP2 AND PUSH1 0x4 DUP4 ADD MSTORE SWAP1 SWAP2 AND SWAP3 POP PUSH4 0xFAC09E87 SWAP2 POP PUSH1 0x24 ADD PUSH1 0x0 PUSH1 0x40 MLOAD DUP1 DUP4 SUB DUP2 PUSH1 0x0 DUP8 DUP1 EXTCODESIZE ISZERO DUP1 ISZERO PUSH2 0x2B4D JUMPI PUSH1 0x0 DUP1 REVERT JUMPDEST POP GAS CALL ISZERO DUP1 ISZERO PUSH2 0x2B61 JUMPI RETURNDATASIZE PUSH1 0x0 DUP1 RETURNDATACOPY RETURNDATASIZE PUSH1 0x0 REVERT JUMPDEST POP POP POP POP POP JUMP JUMPDEST PUSH1 0x5 SLOAD PUSH1 0x40 MLOAD PUSH4 0x2B92A07D PUSH1 0xE0 SHL DUP2 MSTORE PUSH1 0x1 PUSH1 0x1 PUSH1 0xA0 SHL SUB DUP4 DUP2 AND PUSH1 0x4 DUP4 ADD MSTORE DUP5 DUP2 AND PUSH1 0x24 DUP4 ADD MSTORE PUSH1 0x0 SWAP3 AND SWAP1 PUSH4 0x2B92A07D SWAP1 PUSH1 0x44 ADD PUSH1 0x20 PUSH1 0x40 MLOAD DUP1 DUP4 SUB DUP2 DUP7 GAS STATICCALL ISZERO DUP1 ISZERO PUSH2 0x2BBB JUMPI RETURNDATASIZE PUSH1 0x0 DUP1 RETURNDATACOPY RETURNDATASIZE PUSH1 0x0 REVERT JUMPDEST POP POP POP POP PUSH1 0x40 MLOAD RETURNDATASIZE PUSH1 0x1F NOT PUSH1 0x1F DUP3 ADD AND DUP3 ADD DUP1 PUSH1 0x40 MSTORE POP DUP2 ADD SWAP1 PUSH2 0x2938 SWAP2 SWAP1 PUSH2 0x3E8F JUMP JUMPDEST PUSH1 0x4 DUP1 SLOAD PUSH1 0x40 MLOAD PUSH4 0xFCE3E8E7 PUSH1 0xE0 SHL DUP2 MSTORE PUSH1 0x1 PUSH1 0x1 PUSH1 0xA0 SHL SUB DUP5 DUP2 AND SWAP4 DUP3 ADD SWAP4 SWAP1 SWAP4 MSTORE PUSH1 0x0 SWAP3 SWAP1 SWAP2 AND SWAP1 PUSH4 0xFCE3E8E7 SWAP1 PUSH1 0x24 ADD PUSH2 0x6B7 JUMP JUMPDEST PUSH1 0x1 PUSH1 0x1 PUSH1 0xA0 SHL SUB DUP2 DUP2 AND PUSH1 0x0 SWAP1 DUP2 MSTORE PUSH1 0xC PUSH1 0x20 SWAP1 DUP2 MSTORE PUSH1 0x40 DUP1 DUP4 KECCAK256 SWAP4 DUP7 AND DUP4 MSTORE SWAP3 SWAP1 MSTORE SWAP1 DUP2 KECCAK256 PUSH1 0x1 DUP2 ADD SLOAD SWAP1 SLOAD PUSH2 0x2938 SWAP2 SWAP1 PUSH2 0x3F02 JUMP JUMPDEST PUSH1 0x1 PUSH1 0x1 PUSH1 0xA0 SHL SUB DUP4 AND PUSH1 0x0 SWAP1 DUP2 MSTORE PUSH1 0xB PUSH1 0x20 MSTORE PUSH1 0x40 SWAP1 KECCAK256 SLOAD PUSH1 0xFF AND PUSH2 0x2C87 JUMPI PUSH1 0x40 MLOAD PUSH3 0x461BCD PUSH1 0xE5 SHL DUP2 MSTORE PUSH1 0x4 ADD PUSH2 0x7D4 SWAP1 PUSH2 0x3FB8 JUMP JUMPDEST PUSH2 0x2C8F PUSH2 0x3659 JUMP JUMPDEST PUSH2 0x2C98 CALLER PUSH2 0x3363 JUMP JUMPDEST PUSH1 0x5 SLOAD PUSH1 0x40 MLOAD PUSH4 0x6829F1B PUSH1 0xE3 SHL DUP2 MSTORE PUSH1 0x1 PUSH1 0x1 PUSH1 0xA0 SHL SUB DUP7 DUP2 AND PUSH1 0x4 DUP4 ADD MSTORE SWAP1 SWAP2 AND SWAP1 PUSH4 0x3414F8D8 SWAP1 PUSH1 0x24 ADD PUSH1 0x20 PUSH1 0x40 MLOAD DUP1 DUP4 SUB DUP2 DUP7 GAS STATICCALL ISZERO DUP1 ISZERO PUSH2 0x2CE2 JUMPI RETURNDATASIZE PUSH1 0x0 DUP1 RETURNDATACOPY RETURNDATASIZE PUSH1 0x0 REVERT JUMPDEST POP POP POP POP PUSH1 0x40 MLOAD RETURNDATASIZE PUSH1 0x1F NOT PUSH1 0x1F DUP3 ADD AND DUP3 ADD DUP1 PUSH1 0x40 MSTORE POP DUP2 ADD SWAP1 PUSH2 0x2D06 SWAP2 SWAP1 PUSH2 0x3E8F JUMP JUMPDEST PUSH1 0x3 SLOAD PUSH1 0x40 MLOAD PUSH4 0x41976E09 PUSH1 0xE0 SHL DUP2 MSTORE PUSH1 0x1 PUSH1 0x1 PUSH1 0xA0 SHL SUB DUP8 DUP2 AND PUSH1 0x4 DUP4 ADD MSTORE DUP7 SWAP3 AND SWAP1 PUSH4 0x41976E09 SWAP1 PUSH1 0x24 ADD PUSH1 0x20 PUSH1 0x40 MLOAD DUP1 DUP4 SUB DUP2 DUP7 GAS STATICCALL ISZERO DUP1 ISZERO PUSH2 0x2D50 JUMPI RETURNDATASIZE PUSH1 0x0 DUP1 RETURNDATACOPY RETURNDATASIZE PUSH1 0x0 REVERT JUMPDEST POP POP POP POP PUSH1 0x40 MLOAD RETURNDATASIZE PUSH1 0x1F NOT PUSH1 0x1F DUP3 ADD AND DUP3 ADD DUP1 PUSH1 0x40 MSTORE POP DUP2 ADD SWAP1 PUSH2 0x2D74 SWAP2 SWAP1 PUSH2 0x3E8F JUMP JUMPDEST PUSH2 0x2D7E SWAP2 SWAP1 PUSH2 0x3F31 JUMP JUMPDEST PUSH2 0x2D88 SWAP2 SWAP1 PUSH2 0x3F50 JUMP JUMPDEST PUSH1 0x5 SLOAD PUSH1 0x40 MLOAD PUSH4 0x1FCD2D5 PUSH1 0xE0 SHL DUP2 MSTORE CALLER PUSH1 0x4 DUP3 ADD MSTORE PUSH1 0x1 PUSH1 0x1 PUSH1 0xA0 SHL SUB SWAP1 SWAP2 AND SWAP1 PUSH4 0x1FCD2D5 SWAP1 PUSH1 0x24 ADD PUSH1 0x20 PUSH1 0x40 MLOAD DUP1 DUP4 SUB DUP2 DUP7 GAS STATICCALL ISZERO DUP1 ISZERO PUSH2 0x2DD0 JUMPI RETURNDATASIZE PUSH1 0x0 DUP1 RETURNDATACOPY RETURNDATASIZE PUSH1 0x0 REVERT JUMPDEST POP POP POP POP PUSH1 0x40 MLOAD RETURNDATASIZE PUSH1 0x1F NOT PUSH1 0x1F DUP3 ADD AND DUP3 ADD DUP1 PUSH1 0x40 MSTORE POP DUP2 ADD SWAP1 PUSH2 0x2DF4 SWAP2 SWAP1 PUSH2 0x3E8F JUMP JUMPDEST PUSH2 0x2DFE SWAP2 SWAP1 PUSH2 0x3F1A JUMP JUMPDEST LT ISZERO PUSH2 0x2E67 JUMPI PUSH1 0x40 MLOAD PUSH3 0x461BCD PUSH1 0xE5 SHL DUP2 MSTORE PUSH1 0x20 PUSH1 0x4 DUP3 ADD MSTORE PUSH1 0x32 PUSH1 0x24 DUP3 ADD MSTORE PUSH32 0x43616E6E6F7420776974686472617720636F6C6C61746572616C206265666F72 PUSH1 0x44 DUP3 ADD MSTORE PUSH18 0x32903830BCB4B733903130B1B5903637B0B7 PUSH1 0x71 SHL PUSH1 0x64 DUP3 ADD MSTORE PUSH1 0x84 ADD PUSH2 0x7D4 JUMP JUMPDEST PUSH1 0x5 SLOAD PUSH1 0x40 MLOAD PUSH4 0x2B92A07D PUSH1 0xE0 SHL DUP2 MSTORE PUSH1 0x1 PUSH1 0x1 PUSH1 0xA0 SHL SUB DUP6 DUP2 AND PUSH1 0x4 DUP4 ADD MSTORE CALLER PUSH1 0x24 DUP4 ADD MSTORE PUSH1 0x0 SWAP3 AND SWAP1 PUSH4 0x2B92A07D SWAP1 PUSH1 0x44 ADD PUSH1 0x20 PUSH1 0x40 MLOAD DUP1 DUP4 SUB DUP2 DUP7 GAS STATICCALL ISZERO DUP1 ISZERO PUSH2 0x2EB8 JUMPI RETURNDATASIZE PUSH1 0x0 DUP1 RETURNDATACOPY RETURNDATASIZE PUSH1 0x0 REVERT JUMPDEST POP POP POP POP PUSH1 0x40 MLOAD RETURNDATASIZE PUSH1 0x1F NOT PUSH1 0x1F DUP3 ADD AND DUP3 ADD DUP1 PUSH1 0x40 MSTORE POP DUP2 ADD SWAP1 PUSH2 0x2EDC SWAP2 SWAP1 PUSH2 0x3E8F JUMP JUMPDEST SWAP1 POP DUP1 DUP4 GT ISZERO PUSH2 0x2F3F JUMPI PUSH1 0x40 MLOAD PUSH3 0x461BCD PUSH1 0xE5 SHL DUP2 MSTORE PUSH1 0x20 PUSH1 0x4 DUP3 ADD MSTORE PUSH1 0x28 PUSH1 0x24 DUP3 ADD MSTORE PUSH32 0x52656465656D696E67206D6F726520636F6C6C61746572616C207468616E2064 PUSH1 0x44 DUP3 ADD MSTORE PUSH8 0x195C1BDCDA5D1959 PUSH1 0xC2 SHL PUSH1 0x64 DUP3 ADD MSTORE PUSH1 0x84 ADD PUSH2 0x7D4 JUMP JUMPDEST PUSH1 0x1 DUP3 ISZERO ISZERO EQ ISZERO PUSH2 0x3107 JUMPI PUSH1 0x6 SLOAD PUSH1 0x40 MLOAD PUSH4 0xD4D1513 PUSH1 0xE0 SHL DUP2 MSTORE CALLER PUSH1 0x4 DUP3 ADD MSTORE PUSH1 0x24 DUP2 ADD DUP6 SWAP1 MSTORE PUSH1 0x1 PUSH1 0x1 PUSH1 0xA0 SHL SUB DUP7 DUP2 AND PUSH1 0x44 DUP4 ADD MSTORE PUSH1 0x0 SWAP3 AND SWAP1 PUSH4 0xD4D1513 SWAP1 PUSH1 0x64 ADD PUSH1 0x20 PUSH1 0x40 MLOAD DUP1 DUP4 SUB DUP2 PUSH1 0x0 DUP8 GAS CALL ISZERO DUP1 ISZERO PUSH2 0x2FA4 JUMPI RETURNDATASIZE PUSH1 0x0 DUP1 RETURNDATACOPY RETURNDATASIZE PUSH1 0x0 REVERT JUMPDEST POP POP POP POP PUSH1 0x40 MLOAD RETURNDATASIZE PUSH1 0x1F NOT PUSH1 0x1F DUP3 ADD AND DUP3 ADD DUP1 PUSH1 0x40 MSTORE POP DUP2 ADD SWAP1 PUSH2 0x2FC8 SWAP2 SWAP1 PUSH2 0x3E8F JUMP JUMPDEST CALLER PUSH1 0x0 SWAP1 DUP2 MSTORE PUSH1 0x9 PUSH1 0x20 MSTORE PUSH1 0x40 DUP2 KECCAK256 DUP1 SLOAD SWAP3 SWAP4 POP DUP4 SWAP3 SWAP1 SWAP2 SWAP1 PUSH2 0x2FEC SWAP1 DUP5 SWAP1 PUSH2 0x3F02 JUMP JUMPDEST SWAP1 SWAP2 SSTORE POP POP PUSH1 0x1 PUSH1 0x1 PUSH1 0xA0 SHL SUB DUP6 AND PUSH1 0x0 SWAP1 DUP2 MSTORE PUSH1 0x13 PUSH1 0x20 SWAP1 DUP2 MSTORE PUSH1 0x40 DUP1 DUP4 KECCAK256 CALLER DUP5 MSTORE SWAP1 SWAP2 MSTORE SWAP1 KECCAK256 SLOAD PUSH1 0xFF AND PUSH2 0x3079 JUMPI PUSH1 0x1 PUSH1 0x1 PUSH1 0xA0 SHL SUB DUP6 AND PUSH1 0x0 DUP2 DUP2 MSTORE PUSH1 0x12 PUSH1 0x20 SWAP1 DUP2 MSTORE PUSH1 0x40 DUP1 DUP4 KECCAK256 DUP1 SLOAD PUSH1 0x1 DUP2 DUP2 ADD DUP4 SSTORE SWAP2 DUP6 MSTORE DUP4 DUP6 KECCAK256 ADD DUP1 SLOAD PUSH1 0x1 PUSH1 0x1 PUSH1 0xA0 SHL SUB NOT AND CALLER SWAP1 DUP2 OR SWAP1 SWAP2 SSTORE SWAP5 DUP5 MSTORE PUSH1 0x13 DUP4 MSTORE DUP2 DUP5 KECCAK256 SWAP5 DUP5 MSTORE SWAP4 SWAP1 SWAP2 MSTORE SWAP1 KECCAK256 DUP1 SLOAD PUSH1 0xFF NOT AND SWAP1 SWAP2 OR SWAP1 SSTORE JUMPDEST PUSH1 0x1 PUSH1 0x1 PUSH1 0xA0 SHL SUB DUP6 AND PUSH1 0x0 SWAP1 DUP2 MSTORE PUSH1 0xD PUSH1 0x20 SWAP1 DUP2 MSTORE PUSH1 0x40 DUP1 DUP4 KECCAK256 CALLER DUP5 MSTORE SWAP1 SWAP2 MSTORE DUP2 KECCAK256 DUP1 SLOAD DUP7 SWAP3 SWAP1 PUSH2 0x30AC SWAP1 DUP5 SWAP1 PUSH2 0x3F02 JUMP JUMPDEST SWAP1 SWAP2 SSTORE POP POP PUSH1 0x40 DUP1 MLOAD CALLER DUP2 MSTORE PUSH1 0x1 PUSH1 0x1 PUSH1 0xA0 SHL SUB DUP8 AND PUSH1 0x20 DUP3 ADD MSTORE SWAP1 DUP2 ADD DUP6 SWAP1 MSTORE PUSH1 0x60 DUP2 ADD DUP3 SWAP1 MSTORE PUSH32 0xD2D0080ED70CEB7CE39856D34A5727B439EC7C7919425087ED35ED6868791556 SWAP1 PUSH1 0x80 ADD PUSH1 0x40 MLOAD DUP1 SWAP2 SUB SWAP1 LOG1 POP PUSH2 0x3143 JUMP JUMPDEST PUSH32 0x3FF0C85F880C6A1F943C2C36EBBB2CB1B93959479DB451B2ACB7B1E06F4E369 CALLER DUP6 DUP6 PUSH1 0x40 MLOAD PUSH2 0x313A SWAP4 SWAP3 SWAP2 SWAP1 PUSH2 0x3F72 JUMP JUMPDEST PUSH1 0x40 MLOAD DUP1 SWAP2 SUB SWAP1 LOG1 JUMPDEST PUSH1 0x5 SLOAD PUSH1 0x40 MLOAD PUSH4 0x4755EA7F PUSH1 0xE1 SHL DUP2 MSTORE CALLER PUSH1 0x4 DUP3 ADD MSTORE PUSH1 0x1 PUSH1 0x1 PUSH1 0xA0 SHL SUB DUP7 DUP2 AND PUSH1 0x24 DUP4 ADD MSTORE PUSH1 0x44 DUP3 ADD DUP7 SWAP1 MSTORE DUP5 ISZERO ISZERO PUSH1 0x64 DUP4 ADD MSTORE SWAP1 SWAP2 AND SWAP1 PUSH4 0x8EABD4FE SWAP1 PUSH1 0x84 ADD PUSH1 0x0 PUSH1 0x40 MLOAD DUP1 DUP4 SUB DUP2 PUSH1 0x0 DUP8 DUP1 EXTCODESIZE ISZERO DUP1 ISZERO PUSH2 0x319F JUMPI PUSH1 0x0 DUP1 REVERT JUMPDEST POP GAS CALL ISZERO DUP1 ISZERO PUSH2 0x31B3 JUMPI RETURNDATASIZE PUSH1 0x0 DUP1 RETURNDATACOPY RETURNDATASIZE PUSH1 0x0 REVERT JUMPDEST POP POP POP POP POP POP POP POP JUMP JUMPDEST PUSH1 0x6 SLOAD PUSH1 0x40 DUP1 MLOAD PUSH4 0x18160DDD PUSH1 0xE0 SHL DUP2 MSTORE SWAP1 MLOAD PUSH1 0x0 SWAP3 PUSH1 0x1 PUSH1 0x1 PUSH1 0xA0 SHL SUB AND SWAP2 PUSH4 0x18160DDD SWAP2 PUSH1 0x4 DUP1 DUP4 ADD SWAP3 PUSH1 0x20 SWAP3 SWAP2 SWAP1 DUP3 SWAP1 SUB ADD DUP2 DUP7 GAS STATICCALL ISZERO DUP1 ISZERO PUSH2 0x775 JUMPI RETURNDATASIZE PUSH1 0x0 DUP1 RETURNDATACOPY RETURNDATASIZE PUSH1 0x0 REVERT JUMPDEST PUSH1 0x0 DUP2 DUP2 MSTORE PUSH1 0x1 PUSH1 0x20 MSTORE PUSH1 0x40 DUP2 KECCAK256 PUSH2 0x682 SWAP1 PUSH2 0x38E3 JUMP JUMPDEST PUSH1 0x5 SLOAD PUSH1 0x40 MLOAD PUSH4 0x1FCD2D5 PUSH1 0xE0 SHL DUP2 MSTORE PUSH1 0x1 PUSH1 0x1 PUSH1 0xA0 SHL SUB DUP4 DUP2 AND PUSH1 0x4 DUP4 ADD MSTORE PUSH1 0x0 SWAP3 AND SWAP1 PUSH4 0x1FCD2D5 SWAP1 PUSH1 0x24 ADD PUSH2 0x6B7 JUMP JUMPDEST PUSH1 0x4 DUP1 SLOAD PUSH1 0x40 MLOAD PUSH4 0xF8B2CB4F PUSH1 0xE0 SHL DUP2 MSTORE PUSH1 0x1 PUSH1 0x1 PUSH1 0xA0 SHL SUB DUP5 DUP2 AND SWAP4 DUP3 ADD SWAP4 SWAP1 SWAP4 MSTORE PUSH1 0x0 SWAP3 SWAP1 SWAP2 AND SWAP1 PUSH4 0xF8B2CB4F SWAP1 PUSH1 0x24 ADD PUSH2 0x6B7 JUMP JUMPDEST PUSH1 0x4 DUP1 SLOAD PUSH1 0x2 SLOAD PUSH1 0x40 MLOAD PUSH4 0x6448FD3 PUSH1 0xE5 SHL DUP2 MSTORE PUSH1 0x0 SWAP4 PUSH1 0x1 PUSH1 0x1 PUSH1 0xA0 SHL SUB SWAP1 SWAP4 AND SWAP3 PUSH4 0xC891FA60 SWAP3 PUSH2 0x6B7 SWAP3 DUP8 SWAP3 ADD PUSH1 0x1 PUSH1 0x1 PUSH1 0xA0 SHL SUB SWAP3 SWAP1 SWAP3 AND DUP3 MSTORE PUSH1 0x20 DUP3 ADD MSTORE PUSH1 0x40 ADD SWAP1 JUMP JUMPDEST PUSH1 0x5 SLOAD PUSH1 0x40 MLOAD PUSH4 0x28D1F893 PUSH1 0xE2 SHL DUP2 MSTORE PUSH1 0x1 PUSH1 0x1 PUSH1 0xA0 SHL SUB DUP4 DUP2 AND PUSH1 0x4 DUP4 ADD MSTORE PUSH1 0x0 SWAP3 AND SWAP1 PUSH4 0xA347E24C SWAP1 PUSH1 0x24 ADD PUSH2 0x6B7 JUMP JUMPDEST PUSH1 0x0 DUP3 DUP2 MSTORE PUSH1 0x20 DUP2 SWAP1 MSTORE PUSH1 0x40 SWAP1 KECCAK256 PUSH1 0x1 ADD SLOAD PUSH2 0x3321 DUP2 CALLER PUSH2 0x3823 JUMP JUMPDEST PUSH2 0x12FF DUP4 DUP4 PUSH2 0x38A9 JUMP JUMPDEST PUSH1 0x4 DUP1 SLOAD PUSH1 0x40 MLOAD PUSH4 0xDE30F97D PUSH1 0xE0 SHL DUP2 MSTORE PUSH1 0x1 PUSH1 0x1 PUSH1 0xA0 SHL SUB DUP5 DUP2 AND SWAP4 DUP3 ADD SWAP4 SWAP1 SWAP4 MSTORE PUSH1 0x0 SWAP3 SWAP1 SWAP2 AND SWAP1 PUSH4 0xDE30F97D SWAP1 PUSH1 0x24 ADD PUSH2 0x6B7 JUMP JUMPDEST PUSH1 0xA SLOAD PUSH1 0x0 SWAP1 DUP2 SWAP1 DUP2 JUMPDEST DUP2 DUP2 PUSH2 0xFFFF AND LT ISZERO PUSH2 0x3487 JUMPI PUSH1 0x0 PUSH1 0xA DUP3 PUSH2 0xFFFF AND DUP2 SLOAD DUP2 LT PUSH2 0x3392 JUMPI PUSH2 0x3392 PUSH2 0x3ED6 JUMP JUMPDEST PUSH1 0x0 SWAP2 DUP3 MSTORE PUSH1 0x20 DUP3 KECCAK256 ADD SLOAD PUSH1 0x3 SLOAD PUSH1 0x40 MLOAD PUSH4 0x41976E09 PUSH1 0xE0 SHL DUP2 MSTORE PUSH1 0x1 PUSH1 0x1 PUSH1 0xA0 SHL SUB SWAP3 DUP4 AND PUSH1 0x4 DUP3 ADD DUP2 SWAP1 MSTORE SWAP5 POP SWAP2 AND SWAP1 PUSH4 0x41976E09 SWAP1 PUSH1 0x24 ADD PUSH1 0x20 PUSH1 0x40 MLOAD DUP1 DUP4 SUB DUP2 DUP7 GAS STATICCALL ISZERO DUP1 ISZERO PUSH2 0x33EA JUMPI RETURNDATASIZE PUSH1 0x0 DUP1 RETURNDATACOPY RETURNDATASIZE PUSH1 0x0 REVERT JUMPDEST POP POP POP POP PUSH1 0x40 MLOAD RETURNDATASIZE PUSH1 0x1F NOT PUSH1 0x1F DUP3 ADD AND DUP3 ADD DUP1 PUSH1 0x40 MSTORE POP DUP2 ADD SWAP1 PUSH2 0x340E SWAP2 SWAP1 PUSH2 0x3E8F JUMP JUMPDEST PUSH1 0x1 PUSH1 0x1 PUSH1 0xA0 SHL SUB DUP4 DUP2 AND PUSH1 0x0 SWAP1 DUP2 MSTORE PUSH1 0xC PUSH1 0x20 SWAP1 DUP2 MSTORE PUSH1 0x40 DUP1 DUP4 KECCAK256 SWAP4 DUP13 AND DUP4 MSTORE SWAP3 SWAP1 MSTORE KECCAK256 PUSH1 0x1 DUP2 ADD SLOAD SWAP1 SLOAD SWAP2 SWAP3 POP PUSH8 0xDE0B6B3A7640000 SWAP2 DUP4 SWAP2 PUSH2 0x3452 SWAP2 PUSH2 0x3F02 JUMP JUMPDEST PUSH2 0x345C SWAP2 SWAP1 PUSH2 0x3F31 JUMP JUMPDEST PUSH2 0x3466 SWAP2 SWAP1 PUSH2 0x3F50 JUMP JUMPDEST PUSH2 0x3470 SWAP1 DUP7 PUSH2 0x3F02 JUMP JUMPDEST SWAP5 POP POP POP DUP1 DUP1 PUSH2 0x347F SWAP1 PUSH2 0x3F96 JUMP JUMPDEST SWAP2 POP POP PUSH2 0x336D JUMP JUMPDEST POP SWAP1 SWAP4 SWAP3 POP POP POP JUMP JUMPDEST PUSH2 0x349A DUP3 DUP3 PUSH2 0x293F JUMP JUMPDEST PUSH2 0x1288 JUMPI PUSH1 0x0 DUP3 DUP2 MSTORE PUSH1 0x20 DUP2 DUP2 MSTORE PUSH1 0x40 DUP1 DUP4 KECCAK256 PUSH1 0x1 PUSH1 0x1 PUSH1 0xA0 SHL SUB DUP6 AND DUP5 MSTORE SWAP1 SWAP2 MSTORE SWAP1 KECCAK256 DUP1 SLOAD PUSH1 0xFF NOT AND PUSH1 0x1 OR SWAP1 SSTORE PUSH2 0x34D0 CALLER SWAP1 JUMP JUMPDEST PUSH1 0x1 PUSH1 0x1 PUSH1 0xA0 SHL SUB AND DUP2 PUSH1 0x1 PUSH1 0x1 PUSH1 0xA0 SHL SUB AND DUP4 PUSH32 0x2F8788117E7EFF1D82E926EC794901D17C78024A50270940304540A733656F0D PUSH1 0x40 MLOAD PUSH1 0x40 MLOAD DUP1 SWAP2 SUB SWAP1 LOG4 POP POP JUMP JUMPDEST PUSH1 0x0 PUSH2 0x2938 DUP4 PUSH1 0x1 PUSH1 0x1 PUSH1 0xA0 SHL SUB DUP5 AND PUSH2 0x38ED JUMP JUMPDEST PUSH1 0x0 PUSH1 0x1 PUSH1 0x1 PUSH1 0xE0 SHL SUB NOT DUP3 AND PUSH4 0x7965DB0B PUSH1 0xE0 SHL EQ DUP1 PUSH2 0x682 JUMPI POP PUSH4 0x1FFC9A7 PUSH1 0xE0 SHL PUSH1 0x1 PUSH1 0x1 PUSH1 0xE0 SHL SUB NOT DUP4 AND EQ PUSH2 0x682 JUMP JUMPDEST PUSH1 0x0 DUP1 PUSH8 0xDE0B6B3A7640000 DUP6 PUSH2 0x3575 DUP3 DUP8 PUSH2 0x3F1A JUMP JUMPDEST PUSH2 0x357F SWAP2 SWAP1 PUSH2 0x3F31 JUMP JUMPDEST PUSH2 0x3589 SWAP2 SWAP1 PUSH2 0x3F50 JUMP JUMPDEST DUP4 PUSH8 0xDE0B6B3A7640000 PUSH2 0x359D DUP8 DUP10 PUSH2 0x3F31 JUMP JUMPDEST PUSH2 0x35A7 SWAP2 SWAP1 PUSH2 0x3F50 JUMP JUMPDEST PUSH2 0x35B1 SWAP2 SWAP1 PUSH2 0x3F1A JUMP JUMPDEST PUSH2 0x35C3 SWAP1 PUSH8 0x16345785D8A00000 PUSH2 0x3F31 JUMP JUMPDEST PUSH2 0x35CD SWAP2 SWAP1 PUSH2 0x3F50 JUMP JUMPDEST SWAP1 POP PUSH2 0x35E1 DUP2 PUSH8 0xDE0B6B3A7640000 PUSH2 0x3F1A JUMP JUMPDEST SWAP6 SWAP5 POP POP POP POP POP JUMP JUMPDEST PUSH1 0x0 DUP1 PUSH8 0xDE0B6B3A7640000 DUP4 PUSH2 0x3601 DUP3 DUP8 PUSH2 0x3F1A JUMP JUMPDEST PUSH2 0x360B SWAP2 SWAP1 PUSH2 0x3F31 JUMP JUMPDEST PUSH2 0x3615 SWAP2 SWAP1 PUSH2 0x3F50 JUMP JUMPDEST DUP4 PUSH8 0xDE0B6B3A7640000 PUSH2 0x3629 DUP8 DUP10 PUSH2 0x3F31 JUMP JUMPDEST PUSH2 0x3633 SWAP2 SWAP1 PUSH2 0x3F50 JUMP JUMPDEST PUSH2 0x363D SWAP2 SWAP1 PUSH2 0x3F1A JUMP JUMPDEST PUSH2 0x364F SWAP1 PUSH8 0x16345785D8A00000 PUSH2 0x3F31 JUMP JUMPDEST PUSH2 0x35E1 SWAP2 SWAP1 PUSH2 0x3F50 JUMP JUMPDEST PUSH1 0xA SLOAD PUSH1 0x0 JUMPDEST DUP2 DUP2 PUSH2 0xFFFF AND LT ISZERO PUSH2 0x381B JUMPI PUSH1 0x0 PUSH1 0xA DUP3 PUSH2 0xFFFF AND DUP2 SLOAD DUP2 LT PUSH2 0x3684 JUMPI PUSH2 0x3684 PUSH2 0x3ED6 JUMP JUMPDEST PUSH1 0x0 SWAP2 DUP3 MSTORE PUSH1 0x20 DUP1 DUP4 KECCAK256 SWAP2 SWAP1 SWAP2 ADD SLOAD PUSH1 0x1 PUSH1 0x1 PUSH1 0xA0 SHL SUB SWAP1 DUP2 AND DUP1 DUP5 MSTORE PUSH1 0xE SWAP1 SWAP3 MSTORE PUSH1 0x40 DUP1 DUP5 KECCAK256 SLOAD PUSH1 0x4 DUP1 SLOAD PUSH1 0x2 SLOAD SWAP4 MLOAD PUSH4 0x6448FD3 PUSH1 0xE5 SHL DUP2 MSTORE SWAP2 DUP3 ADD DUP7 SWAP1 MSTORE PUSH1 0x24 DUP3 ADD SWAP4 SWAP1 SWAP4 MSTORE SWAP4 SWAP6 POP SWAP4 SWAP3 SWAP2 AND SWAP1 PUSH4 0xC891FA60 SWAP1 PUSH1 0x44 ADD PUSH1 0x20 PUSH1 0x40 MLOAD DUP1 DUP4 SUB DUP2 DUP7 GAS STATICCALL ISZERO DUP1 ISZERO PUSH2 0x36FB JUMPI RETURNDATASIZE PUSH1 0x0 DUP1 RETURNDATACOPY RETURNDATASIZE PUSH1 0x0 REVERT JUMPDEST POP POP POP POP PUSH1 0x40 MLOAD RETURNDATASIZE PUSH1 0x1F NOT PUSH1 0x1F DUP3 ADD AND DUP3 ADD DUP1 PUSH1 0x40 MSTORE POP DUP2 ADD SWAP1 PUSH2 0x371F SWAP2 SWAP1 PUSH2 0x3E8F JUMP JUMPDEST SWAP1 POP PUSH1 0x0 JUMPDEST DUP3 DUP2 PUSH2 0xFFFF AND LT ISZERO PUSH2 0x3804 JUMPI PUSH1 0x1 PUSH1 0x1 PUSH1 0xA0 SHL SUB DUP5 AND PUSH1 0x0 SWAP1 DUP2 MSTORE PUSH1 0xE PUSH1 0x20 MSTORE PUSH1 0x40 DUP2 KECCAK256 DUP1 SLOAD PUSH2 0xFFFF DUP5 AND SWAP1 DUP2 LT PUSH2 0x375E JUMPI PUSH2 0x375E PUSH2 0x3ED6 JUMP JUMPDEST PUSH1 0x0 SWAP2 DUP3 MSTORE PUSH1 0x20 DUP1 DUP4 KECCAK256 SWAP1 SWAP2 ADD SLOAD PUSH1 0x1 PUSH1 0x1 PUSH1 0xA0 SHL SUB DUP9 DUP2 AND DUP5 MSTORE PUSH1 0xC DUP4 MSTORE PUSH1 0x40 DUP1 DUP6 KECCAK256 SWAP2 SWAP1 SWAP3 AND DUP1 DUP6 MSTORE SWAP3 MSTORE SWAP1 SWAP2 KECCAK256 SLOAD SWAP1 SWAP2 POP PUSH8 0xDE0B6B3A7640000 SWAP1 PUSH2 0x37A6 SWAP1 DUP6 PUSH2 0x3F31 JUMP JUMPDEST PUSH2 0x37B0 SWAP2 SWAP1 PUSH2 0x3F50 JUMP JUMPDEST PUSH1 0x1 PUSH1 0x1 PUSH1 0xA0 SHL SUB DUP1 DUP8 AND PUSH1 0x0 SWAP1 DUP2 MSTORE PUSH1 0xC PUSH1 0x20 SWAP1 DUP2 MSTORE PUSH1 0x40 DUP1 DUP4 KECCAK256 SWAP4 DUP7 AND DUP4 MSTORE SWAP3 SWAP1 MSTORE SWAP1 DUP2 KECCAK256 PUSH1 0x1 ADD DUP1 SLOAD SWAP1 SWAP2 SWAP1 PUSH2 0x37EA SWAP1 DUP5 SWAP1 PUSH2 0x3F02 JUMP JUMPDEST SWAP1 SWAP2 SSTORE POP DUP3 SWAP2 POP PUSH2 0x37FC SWAP1 POP DUP2 PUSH2 0x3F96 JUMP JUMPDEST SWAP2 POP POP PUSH2 0x3724 JUMP JUMPDEST POP POP POP POP DUP1 DUP1 PUSH2 0x3813 SWAP1 PUSH2 0x3F96 JUMP JUMPDEST SWAP2 POP POP PUSH2 0x365F JUMP JUMPDEST POP POP TIMESTAMP PUSH1 0x2 SSTORE JUMP JUMPDEST PUSH2 0x382D DUP3 DUP3 PUSH2 0x293F JUMP JUMPDEST PUSH2 0x1288 JUMPI PUSH2 0x3845 DUP2 PUSH1 0x1 PUSH1 0x1 PUSH1 0xA0 SHL SUB AND PUSH1 0x14 PUSH2 0x393C JUMP JUMPDEST PUSH2 0x3850 DUP4 PUSH1 0x20 PUSH2 0x393C JUMP JUMPDEST PUSH1 0x40 MLOAD PUSH1 0x20 ADD PUSH2 0x3861 SWAP3 SWAP2 SWAP1 PUSH2 0x3FE5 JUMP JUMPDEST PUSH1 0x40 DUP1 MLOAD PUSH1 0x1F NOT DUP2 DUP5 SUB ADD DUP2 MSTORE SWAP1 DUP3 SWAP1 MSTORE PUSH3 0x461BCD PUSH1 0xE5 SHL DUP3 MSTORE PUSH2 0x7D4 SWAP2 PUSH1 0x4 ADD PUSH2 0x3D16 JUMP JUMPDEST PUSH2 0x3891 DUP3 DUP3 PUSH2 0x3490 JUMP JUMPDEST PUSH1 0x0 DUP3 DUP2 MSTORE PUSH1 0x1 PUSH1 0x20 MSTORE PUSH1 0x40 SWAP1 KECCAK256 PUSH2 0x12FF SWAP1 DUP3 PUSH2 0x3514 JUMP JUMPDEST PUSH2 0x38B3 DUP3 DUP3 PUSH2 0x3AD8 JUMP JUMPDEST PUSH1 0x0 DUP3 DUP2 MSTORE PUSH1 0x1 PUSH1 0x20 MSTORE PUSH1 0x40 SWAP1 KECCAK256 PUSH2 0x12FF SWAP1 DUP3 PUSH2 0x3B3D JUMP JUMPDEST PUSH1 0x0 PUSH2 0x2938 DUP4 DUP4 PUSH2 0x3B52 JUMP JUMPDEST PUSH1 0x0 PUSH2 0x2938 DUP4 DUP4 PUSH2 0x3B68 JUMP JUMPDEST PUSH1 0x0 PUSH2 0x682 DUP3 SLOAD SWAP1 JUMP JUMPDEST PUSH1 0x0 DUP2 DUP2 MSTORE PUSH1 0x1 DUP4 ADD PUSH1 0x20 MSTORE PUSH1 0x40 DUP2 KECCAK256 SLOAD PUSH2 0x3934 JUMPI POP DUP2 SLOAD PUSH1 0x1 DUP2 DUP2 ADD DUP5 SSTORE PUSH1 0x0 DUP5 DUP2 MSTORE PUSH1 0x20 DUP1 DUP3 KECCAK256 SWAP1 SWAP4 ADD DUP5 SWAP1 SSTORE DUP5 SLOAD DUP5 DUP3 MSTORE DUP3 DUP7 ADD SWAP1 SWAP4 MSTORE PUSH1 0x40 SWAP1 KECCAK256 SWAP2 SWAP1 SWAP2 SSTORE PUSH2 0x682 JUMP JUMPDEST POP PUSH1 0x0 PUSH2 0x682 JUMP JUMPDEST PUSH1 0x60 PUSH1 0x0 PUSH2 0x394B DUP4 PUSH1 0x2 PUSH2 0x3F31 JUMP JUMPDEST PUSH2 0x3956 SWAP1 PUSH1 0x2 PUSH2 0x3F02 JUMP JUMPDEST PUSH8 0xFFFFFFFFFFFFFFFF DUP2 GT ISZERO PUSH2 0x396E JUMPI PUSH2 0x396E PUSH2 0x405A JUMP JUMPDEST PUSH1 0x40 MLOAD SWAP1 DUP1 DUP3 MSTORE DUP1 PUSH1 0x1F ADD PUSH1 0x1F NOT AND PUSH1 0x20 ADD DUP3 ADD PUSH1 0x40 MSTORE DUP1 ISZERO PUSH2 0x3998 JUMPI PUSH1 0x20 DUP3 ADD DUP2 DUP1 CALLDATASIZE DUP4 CALLDATACOPY ADD SWAP1 POP JUMPDEST POP SWAP1 POP PUSH1 0x3 PUSH1 0xFC SHL DUP2 PUSH1 0x0 DUP2 MLOAD DUP2 LT PUSH2 0x39B3 JUMPI PUSH2 0x39B3 PUSH2 0x3ED6 JUMP JUMPDEST PUSH1 0x20 ADD ADD SWAP1 PUSH1 0x1 PUSH1 0x1 PUSH1 0xF8 SHL SUB NOT AND SWAP1 DUP2 PUSH1 0x0 BYTE SWAP1 MSTORE8 POP PUSH1 0xF PUSH1 0xFB SHL DUP2 PUSH1 0x1 DUP2 MLOAD DUP2 LT PUSH2 0x39E2 JUMPI PUSH2 0x39E2 PUSH2 0x3ED6 JUMP JUMPDEST PUSH1 0x20 ADD ADD SWAP1 PUSH1 0x1 PUSH1 0x1 PUSH1 0xF8 SHL SUB NOT AND SWAP1 DUP2 PUSH1 0x0 BYTE SWAP1 MSTORE8 POP PUSH1 0x0 PUSH2 0x3A06 DUP5 PUSH1 0x2 PUSH2 0x3F31 JUMP JUMPDEST PUSH2 0x3A11 SWAP1 PUSH1 0x1 PUSH2 0x3F02 JUMP JUMPDEST SWAP1 POP JUMPDEST PUSH1 0x1 DUP2 GT ISZERO PUSH2 0x3A89 JUMPI PUSH16 0x181899199A1A9B1B9C1CB0B131B232B3 PUSH1 0x81 SHL DUP6 PUSH1 0xF AND PUSH1 0x10 DUP2 LT PUSH2 0x3A45 JUMPI PUSH2 0x3A45 PUSH2 0x3ED6 JUMP JUMPDEST BYTE PUSH1 0xF8 SHL DUP3 DUP3 DUP2 MLOAD DUP2 LT PUSH2 0x3A5B JUMPI PUSH2 0x3A5B PUSH2 0x3ED6 JUMP JUMPDEST PUSH1 0x20 ADD ADD SWAP1 PUSH1 0x1 PUSH1 0x1 PUSH1 0xF8 SHL SUB NOT AND SWAP1 DUP2 PUSH1 0x0 BYTE SWAP1 MSTORE8 POP PUSH1 0x4 SWAP5 SWAP1 SWAP5 SHR SWAP4 PUSH2 0x3A82 DUP2 PUSH2 0x4070 JUMP JUMPDEST SWAP1 POP PUSH2 0x3A14 JUMP JUMPDEST POP DUP4 ISZERO PUSH2 0x2938 JUMPI PUSH1 0x40 MLOAD PUSH3 0x461BCD PUSH1 0xE5 SHL DUP2 MSTORE PUSH1 0x20 PUSH1 0x4 DUP3 ADD DUP2 SWAP1 MSTORE PUSH1 0x24 DUP3 ADD MSTORE PUSH32 0x537472696E67733A20686578206C656E67746820696E73756666696369656E74 PUSH1 0x44 DUP3 ADD MSTORE PUSH1 0x64 ADD PUSH2 0x7D4 JUMP JUMPDEST PUSH2 0x3AE2 DUP3 DUP3 PUSH2 0x293F JUMP JUMPDEST ISZERO PUSH2 0x1288 JUMPI PUSH1 0x0 DUP3 DUP2 MSTORE PUSH1 0x20 DUP2 DUP2 MSTORE PUSH1 0x40 DUP1 DUP4 KECCAK256 PUSH1 0x1 PUSH1 0x1 PUSH1 0xA0 SHL SUB DUP6 AND DUP1 DUP6 MSTORE SWAP3 MSTORE DUP1 DUP4 KECCAK256 DUP1 SLOAD PUSH1 0xFF NOT AND SWAP1 SSTORE MLOAD CALLER SWAP3 DUP6 SWAP2 PUSH32 0xF6391F5C32D9C69D2A47EA670B442974B53935D1EDC7FD64EB21E047A839171B SWAP2 SWAP1 LOG4 POP POP JUMP JUMPDEST PUSH1 0x0 PUSH2 0x2938 DUP4 PUSH1 0x1 PUSH1 0x1 PUSH1 0xA0 SHL SUB DUP5 AND PUSH2 0x3B92 JUMP JUMPDEST PUSH1 0x0 DUP2 DUP4 LT PUSH2 0x3B61 JUMPI DUP2 PUSH2 0x2938 JUMP JUMPDEST POP SWAP1 SWAP2 SWAP1 POP JUMP JUMPDEST PUSH1 0x0 DUP3 PUSH1 0x0 ADD DUP3 DUP2 SLOAD DUP2 LT PUSH2 0x3B7F JUMPI PUSH2 0x3B7F PUSH2 0x3ED6 JUMP JUMPDEST SWAP1 PUSH1 0x0 MSTORE PUSH1 0x20 PUSH1 0x0 KECCAK256 ADD SLOAD SWAP1 POP SWAP3 SWAP2 POP POP JUMP JUMPDEST PUSH1 0x0 DUP2 DUP2 MSTORE PUSH1 0x1 DUP4 ADD PUSH1 0x20 MSTORE PUSH1 0x40 DUP2 KECCAK256 SLOAD DUP1 ISZERO PUSH2 0x3C7B JUMPI PUSH1 0x0 PUSH2 0x3BB6 PUSH1 0x1 DUP4 PUSH2 0x3F1A JUMP JUMPDEST DUP6 SLOAD SWAP1 SWAP2 POP PUSH1 0x0 SWAP1 PUSH2 0x3BCA SWAP1 PUSH1 0x1 SWAP1 PUSH2 0x3F1A JUMP JUMPDEST SWAP1 POP DUP2 DUP2 EQ PUSH2 0x3C2F JUMPI PUSH1 0x0 DUP7 PUSH1 0x0 ADD DUP3 DUP2 SLOAD DUP2 LT PUSH2 0x3BEA JUMPI PUSH2 0x3BEA PUSH2 0x3ED6 JUMP JUMPDEST SWAP1 PUSH1 0x0 MSTORE PUSH1 0x20 PUSH1 0x0 KECCAK256 ADD SLOAD SWAP1 POP DUP1 DUP8 PUSH1 0x0 ADD DUP5 DUP2 SLOAD DUP2 LT PUSH2 0x3C0D JUMPI PUSH2 0x3C0D PUSH2 0x3ED6 JUMP JUMPDEST PUSH1 0x0 SWAP2 DUP3 MSTORE PUSH1 0x20 DUP1 DUP4 KECCAK256 SWAP1 SWAP2 ADD SWAP3 SWAP1 SWAP3 SSTORE SWAP2 DUP3 MSTORE PUSH1 0x1 DUP9 ADD SWAP1 MSTORE PUSH1 0x40 SWAP1 KECCAK256 DUP4 SWAP1 SSTORE JUMPDEST DUP6 SLOAD DUP7 SWAP1 DUP1 PUSH2 0x3C40 JUMPI PUSH2 0x3C40 PUSH2 0x4087 JUMP JUMPDEST PUSH1 0x1 SWAP1 SUB DUP2 DUP2 SWAP1 PUSH1 0x0 MSTORE PUSH1 0x20 PUSH1 0x0 KECCAK256 ADD PUSH1 0x0 SWAP1 SSTORE SWAP1 SSTORE DUP6 PUSH1 0x1 ADD PUSH1 0x0 DUP7 DUP2 MSTORE PUSH1 0x20 ADD SWAP1 DUP2 MSTORE PUSH1 0x20 ADD PUSH1 0x0 KECCAK256 PUSH1 0x0 SWAP1 SSTORE PUSH1 0x1 SWAP4 POP POP POP POP PUSH2 0x682 JUMP JUMPDEST PUSH1 0x0 SWAP2 POP POP PUSH2 0x682 JUMP JUMPDEST PUSH1 0x0 PUSH1 0x20 DUP3 DUP5 SUB SLT ISZERO PUSH2 0x3C97 JUMPI PUSH1 0x0 DUP1 REVERT JUMPDEST DUP2 CALLDATALOAD PUSH1 0x1 PUSH1 0x1 PUSH1 0xE0 SHL SUB NOT DUP2 AND DUP2 EQ PUSH2 0x2938 JUMPI PUSH1 0x0 DUP1 REVERT JUMPDEST DUP1 CALLDATALOAD PUSH1 0x1 PUSH1 0x1 PUSH1 0xA0 SHL SUB DUP2 AND DUP2 EQ PUSH2 0x3CC6 JUMPI PUSH1 0x0 DUP1 REVERT JUMPDEST SWAP2 SWAP1 POP JUMP JUMPDEST PUSH1 0x0 PUSH1 0x20 DUP3 DUP5 SUB SLT ISZERO PUSH2 0x3CDD JUMPI PUSH1 0x0 DUP1 REVERT JUMPDEST PUSH2 0x2938 DUP3 PUSH2 0x3CAF JUMP JUMPDEST PUSH1 0x0 JUMPDEST DUP4 DUP2 LT ISZERO PUSH2 0x3D01 JUMPI DUP2 DUP2 ADD MLOAD DUP4 DUP3 ADD MSTORE PUSH1 0x20 ADD PUSH2 0x3CE9 JUMP JUMPDEST DUP4 DUP2 GT ISZERO PUSH2 0x3D10 JUMPI PUSH1 0x0 DUP5 DUP5 ADD MSTORE JUMPDEST POP POP POP POP JUMP JUMPDEST PUSH1 0x20 DUP2 MSTORE PUSH1 0x0 DUP3 MLOAD DUP1 PUSH1 0x20 DUP5 ADD MSTORE PUSH2 0x3D35 DUP2 PUSH1 0x40 DUP6 ADD PUSH1 0x20 DUP8 ADD PUSH2 0x3CE6 JUMP JUMPDEST PUSH1 0x1F ADD PUSH1 0x1F NOT AND SWAP2 SWAP1 SWAP2 ADD PUSH1 0x40 ADD SWAP3 SWAP2 POP POP JUMP JUMPDEST PUSH1 0x0 PUSH1 0x20 DUP3 DUP5 SUB SLT ISZERO PUSH2 0x3D5B JUMPI PUSH1 0x0 DUP1 REVERT JUMPDEST POP CALLDATALOAD SWAP2 SWAP1 POP JUMP JUMPDEST PUSH1 0x0 DUP1 PUSH1 0x40 DUP4 DUP6 SUB SLT ISZERO PUSH2 0x3D75 JUMPI PUSH1 0x0 DUP1 REVERT JUMPDEST DUP3 CALLDATALOAD SWAP2 POP PUSH2 0x3D85 PUSH1 0x20 DUP5 ADD PUSH2 0x3CAF JUMP JUMPDEST SWAP1 POP SWAP3 POP SWAP3 SWAP1 POP JUMP JUMPDEST PUSH1 0x0 DUP1 PUSH1 0x0 DUP1 PUSH1 0x80 DUP6 DUP8 SUB SLT ISZERO PUSH2 0x3DA4 JUMPI PUSH1 0x0 DUP1 REVERT JUMPDEST DUP5 CALLDATALOAD SWAP4 POP PUSH2 0x3DB4 PUSH1 0x20 DUP7 ADD PUSH2 0x3CAF JUMP JUMPDEST SWAP3 POP PUSH1 0x40 DUP6 ADD CALLDATALOAD SWAP2 POP PUSH2 0x3DC9 PUSH1 0x60 DUP7 ADD PUSH2 0x3CAF JUMP JUMPDEST SWAP1 POP SWAP3 SWAP6 SWAP2 SWAP5 POP SWAP3 POP JUMP JUMPDEST PUSH1 0x0 DUP1 PUSH1 0x40 DUP4 DUP6 SUB SLT ISZERO PUSH2 0x3DE7 JUMPI PUSH1 0x0 DUP1 REVERT JUMPDEST PUSH2 0x3DF0 DUP4 PUSH2 0x3CAF JUMP JUMPDEST SWAP5 PUSH1 0x20 SWAP4 SWAP1 SWAP4 ADD CALLDATALOAD SWAP4 POP POP POP JUMP JUMPDEST PUSH1 0x0 DUP1 PUSH1 0x40 DUP4 DUP6 SUB SLT ISZERO PUSH2 0x3E11 JUMPI PUSH1 0x0 DUP1 REVERT JUMPDEST PUSH2 0x3E1A DUP4 PUSH2 0x3CAF JUMP JUMPDEST SWAP2 POP PUSH2 0x3D85 PUSH1 0x20 DUP5 ADD PUSH2 0x3CAF JUMP JUMPDEST PUSH1 0x0 DUP1 PUSH1 0x40 DUP4 DUP6 SUB SLT ISZERO PUSH2 0x3E3B JUMPI PUSH1 0x0 DUP1 REVERT JUMPDEST POP POP DUP1 CALLDATALOAD SWAP3 PUSH1 0x20 SWAP1 SWAP2 ADD CALLDATALOAD SWAP2 POP JUMP JUMPDEST PUSH1 0x0 DUP1 PUSH1 0x0 PUSH1 0x60 DUP5 DUP7 SUB SLT ISZERO PUSH2 0x3E5F JUMPI PUSH1 0x0 DUP1 REVERT JUMPDEST PUSH2 0x3E68 DUP5 PUSH2 0x3CAF JUMP JUMPDEST SWAP3 POP PUSH1 0x20 DUP5 ADD CALLDATALOAD SWAP2 POP PUSH1 0x40 DUP5 ADD CALLDATALOAD DUP1 ISZERO ISZERO DUP2 EQ PUSH2 0x3E84 JUMPI PUSH1 0x0 DUP1 REVERT JUMPDEST DUP1 SWAP2 POP POP SWAP3 POP SWAP3 POP SWAP3 JUMP JUMPDEST PUSH1 0x0 PUSH1 0x20 DUP3 DUP5 SUB SLT ISZERO PUSH2 0x3EA1 JUMPI PUSH1 0x0 DUP1 REVERT JUMPDEST POP MLOAD SWAP2 SWAP1 POP JUMP JUMPDEST PUSH1 0x20 DUP1 DUP3 MSTORE PUSH1 0x14 SWAP1 DUP3 ADD MSTORE PUSH20 0x6D75737420686176652061646D696E20726F6C65 PUSH1 0x60 SHL PUSH1 0x40 DUP3 ADD MSTORE PUSH1 0x60 ADD SWAP1 JUMP JUMPDEST PUSH4 0x4E487B71 PUSH1 0xE0 SHL PUSH1 0x0 MSTORE PUSH1 0x32 PUSH1 0x4 MSTORE PUSH1 0x24 PUSH1 0x0 REVERT JUMPDEST PUSH4 0x4E487B71 PUSH1 0xE0 SHL PUSH1 0x0 MSTORE PUSH1 0x11 PUSH1 0x4 MSTORE PUSH1 0x24 PUSH1 0x0 REVERT JUMPDEST PUSH1 0x0 DUP3 NOT DUP3 GT ISZERO PUSH2 0x3F15 JUMPI PUSH2 0x3F15 PUSH2 0x3EEC JUMP JUMPDEST POP ADD SWAP1 JUMP JUMPDEST PUSH1 0x0 DUP3 DUP3 LT ISZERO PUSH2 0x3F2C JUMPI PUSH2 0x3F2C PUSH2 0x3EEC JUMP JUMPDEST POP SUB SWAP1 JUMP JUMPDEST PUSH1 0x0 DUP2 PUSH1 0x0 NOT DIV DUP4 GT DUP3 ISZERO ISZERO AND ISZERO PUSH2 0x3F4B JUMPI PUSH2 0x3F4B PUSH2 0x3EEC JUMP JUMPDEST POP MUL SWAP1 JUMP JUMPDEST PUSH1 0x0 DUP3 PUSH2 0x3F6D JUMPI PUSH4 0x4E487B71 PUSH1 0xE0 SHL PUSH1 0x0 MSTORE PUSH1 0x12 PUSH1 0x4 MSTORE PUSH1 0x24 PUSH1 0x0 REVERT JUMPDEST POP DIV SWAP1 JUMP JUMPDEST PUSH1 0x1 PUSH1 0x1 PUSH1 0xA0 SHL SUB SWAP4 DUP5 AND DUP2 MSTORE SWAP2 SWAP1 SWAP3 AND PUSH1 0x20 DUP3 ADD MSTORE PUSH1 0x40 DUP2 ADD SWAP2 SWAP1 SWAP2 MSTORE PUSH1 0x60 ADD SWAP1 JUMP JUMPDEST PUSH1 0x0 PUSH2 0xFFFF DUP1 DUP4 AND DUP2 DUP2 EQ ISZERO PUSH2 0x3FAE JUMPI PUSH2 0x3FAE PUSH2 0x3EEC JUMP JUMPDEST PUSH1 0x1 ADD SWAP4 SWAP3 POP POP POP JUMP JUMPDEST PUSH1 0x20 DUP1 DUP3 MSTORE PUSH1 0x13 SWAP1 DUP3 ADD MSTORE PUSH19 0x185CDCD95D081B9BDD081CDD5C1C1BDC9D1959 PUSH1 0x6A SHL PUSH1 0x40 DUP3 ADD MSTORE PUSH1 0x60 ADD SWAP1 JUMP JUMPDEST PUSH32 0x416363657373436F6E74726F6C3A206163636F756E7420000000000000000000 DUP2 MSTORE PUSH1 0x0 DUP4 MLOAD PUSH2 0x401D DUP2 PUSH1 0x17 DUP6 ADD PUSH1 0x20 DUP9 ADD PUSH2 0x3CE6 JUMP JUMPDEST PUSH17 0x1034B99036B4B9B9B4B733903937B6329 PUSH1 0x7D SHL PUSH1 0x17 SWAP2 DUP5 ADD SWAP2 DUP3 ADD MSTORE DUP4 MLOAD PUSH2 0x404E DUP2 PUSH1 0x28 DUP5 ADD PUSH1 0x20 DUP9 ADD PUSH2 0x3CE6 JUMP JUMPDEST ADD PUSH1 0x28 ADD SWAP5 SWAP4 POP POP POP POP JUMP JUMPDEST PUSH4 0x4E487B71 PUSH1 0xE0 SHL PUSH1 0x0 MSTORE PUSH1 0x41 PUSH1 0x4 MSTORE PUSH1 0x24 PUSH1 0x0 REVERT JUMPDEST PUSH1 0x0 DUP2 PUSH2 0x407F JUMPI PUSH2 0x407F PUSH2 0x3EEC JUMP JUMPDEST POP PUSH1 0x0 NOT ADD SWAP1 JUMP JUMPDEST PUSH4 0x4E487B71 PUSH1 0xE0 SHL PUSH1 0x0 MSTORE PUSH1 0x31 PUSH1 0x4 MSTORE PUSH1 0x24 PUSH1 0x0 REVERT INVALID 0x4C PUSH10 0x717569646174696F6E20 MSTORE PUSH10 0x736B3A20436F6C6C6174 PUSH6 0x72616C207661 PUSH13 0x756520617070726F616368696E PUSH8 0x204C545620726571 PUSH22 0x6972656D656E74A49807205CE4D355092EF5A8A18F56 0xE8 SWAP2 EXTCODECOPY DELEGATECALL LOG2 ADD 0xFB 0xE2 DUP8 DUP3 JUMPDEST MULMOD JUMP SWAP4 0xC2 OR PUSH22 0xA2646970667358221220C6F9A626BEF4E47A9B0F8A0A 0xB2 0xEF CODECOPY SELFBALANCE ADDRESS LT ADDMOD 0xAE SAR CALLDATACOPY 0xE0 0x21 0x27 0x27 PUSH11 0x42ADC6418B64736F6C6343 STOP ADDMOD SIGNEXTEND STOP CALLER ","sha1":"f7821b4609b3ec64469d788101a4c317346764b5","source":"// SPDX-License-Identifier: MIT\n\npragma solidity ^0.8.0;\n\nimport \"@openzeppelin/contracts/utils/math/SafeMath.sol\";\nimport \"@openzeppelin/contracts/token/ERC20/IERC20.sol\";\nimport \"@openzeppelin/contracts/access/AccessControlEnumerable.sol\";\nimport \"../interfaces/InterfaceLendingPool.sol\";\nimport \"./Math.sol\";\nimport \"./2_Pool.sol\";\nimport \"./3_Collateral.sol\";\nimport \"./LVRToken.sol\";\nimport \"./Conversion.sol\";\nimport \"./Reserve.sol\";\n\ncontract LendingPool is InterfaceLendingPool, AccessControlEnumerable {\n    using SafeMath for uint256;\n    using Math for uint256;\n\n    event depositEvent(\n        address _user,\n        address _asset,\n        uint256 _quantity,\n        uint256 _tokensMinted\n    );\n    event borrowEvent(\n        address _user,\n        uint256 _borrowed,\n        address _borrowedAsset,\n        uint256 _collateral,\n        address _collateralAsset\n    );\n    event redeemEvent(address _user, address _asset, uint256 _tokensBurned);\n    event repayEvent(address _user, address _asset, uint256 _quantity);\n    event withdrawCollateralEvent(\n        address _user,\n        address _asset,\n        uint256 _quantity\n    );\n\n    //time to track last interest accruel\n    uint256 interestTime = block.timestamp;\n\n    //public keyword??\n    Conversion conversion;\n    Pool pool;\n    Collateral collateral;\n    LVRToken token;\n    Reserve reserve;\n    address owner;\n\n    mapping(address => uint256) lenderTokenTracker;\n\n    address[] supportedAssets;\n    mapping(address => bool) supportedAssetTracker;\n\n    struct borrowAmountTracker {\n        uint256 principal;\n        uint256 interest;\n    }\n    //asset -> user -> amount\n    mapping(address => mapping(address => borrowAmountTracker))\n        public borrowTracker;\n\n    //asset -> user -> amount lent\n    mapping(address => mapping(address => uint256)) LentAmountTracker;\n\n    //asset -> list of borrowers\n    mapping(address => address[]) borrowersByAsset;\n    //mapping to make sure no double adding:\n    mapping(address => mapping(address => bool)) initializedBorrowerTracker;\n\n    //total list of borrowers\n    address[] borrowers; //Note new\n    //mapping to make sure no double adding:\n    mapping(address => bool) initializedBorrowers; //Note new\n\n    //asset -> list of borrowers\n    mapping(address => address[]) lendersByAsset;\n    //mapping to make sure no double adding:\n    mapping(address => mapping(address => bool)) initializedLenderTracker;\n\n    bytes32 public constant ADMIN_ROLE = keccak256(\"ADMIN_ROLE\");\n\n    constructor() {\n        pool = new Pool();\n        token = new LVRToken(\"LeverToken\", \"LEVR\", address(pool));\n        reserve = new Reserve(address(pool)); //removed token address\n        collateral = new Collateral( //removed token address\n            address(pool),\n            //address(token),\n            address(reserve)\n        );\n\n        conversion = new Conversion();\n        owner = msg.sender;\n\n        //set up supported currencies\n        /*\n         *rinkeby LINK contract location: 0x01BE23585060835E02B77ef475b0Cc51aA1e0709\n         *rinkeby DAI  contract location: 0x5592EC0cfb4dbc12D3aB100b257153436a1f0FEa\n         *rinkeby WETH contract location: 0xc778417E063141139Fce010982780140Aa0cD5Ab\n         */\n        address WETH = 0xc778417E063141139Fce010982780140Aa0cD5Ab;\n        address LINK = 0x01BE23585060835E02B77ef475b0Cc51aA1e0709;\n        address DAI = 0x5592EC0cfb4dbc12D3aB100b257153436a1f0FEa;\n\n        supportedAssets.push(LINK);\n        supportedAssetTracker[LINK] = true;\n        supportedAssets.push(DAI);\n        supportedAssetTracker[DAI] = true;\n        supportedAssets.push(WETH);\n        supportedAssetTracker[WETH] = true;\n\n        _setupRole(ADMIN_ROLE, msg.sender);\n        pool.addOwner(address(reserve));\n        pool.addOwner(address(collateral));\n        reserve.addOwner(address(collateral));\n    }\n\n    modifier onlyOwner() {\n        require(hasRole(ADMIN_ROLE, msg.sender), \"must have admin role\");\n        _;\n    }\n\n    function Deposit(uint256 _quantity, address _asset) public {\n        require(supportedAssetTracker[_asset] == true, \"asset not supported\");\n        accrueInterest();\n        //uint256 _borrowNow? why not bool?\n        require(_quantity > 0, \"deposit must be positive\");\n        uint256 tokenQuantity = token.mint(msg.sender, _quantity, _asset);\n        lenderTokenTracker[msg.sender] += tokenQuantity;\n        pool.depositTransfer(msg.sender, _asset, _quantity);\n\n        if (!initializedLenderTracker[_asset][msg.sender]) {\n            lendersByAsset[_asset].push(msg.sender);\n            initializedLenderTracker[_asset][msg.sender] = true;\n        }\n        LentAmountTracker[_asset][msg.sender] += _quantity;\n\n        // // borrowNow should be amount borrowed\n        // if (_borrowNow > 0) {\n        //     uint256 usedCollateral = _quantity - collateral.collReq()*_borrowNow;\n        //     Borrow(_borrowNow, address)\n        // }\n\n        emit depositEvent(msg.sender, _asset, _quantity, tokenQuantity);\n    }\n\n    // //withdraw based on asset quantity desired\n    // function Withdraw(address _desiredAsset, uint256 _amountToRemove) public {\n    //     uint256 assetPriceUSD = conversion.getPrice(_desiredAsset);\n\n    //     //check if enough liquid to send\n    //     require(\n    //         _amountToRemove <= pool.getLiquidQuantity(_desiredAsset),\n    //         \"User cannot redeem more than the available balance\"\n    //     ); // future this will only check to see if we have any liquid - engine will swap currencies to allow user to withdraw anything they want.\n\n    //     // total value of currency redeemable by user\n    //     uint256 totalAssetValueFromOwnedTokens = ((token.balanceOf(msg.sender) *\n    //         token.tokenDollarValue()) / assetPriceUSD); // Units: N token * USD/token / USD/currency = N currency\n\n    //     // check that the user is allowed to redeem the amount\n    //     // seems to be some precision errors\n    //     require(\n    //         (totalAssetValueFromOwnedTokens >= _amountToRemove),\n    //         \"Cannot redeem more tokens than number owned\"\n    //     );\n\n    //     uint256 burnNumber = ((assetPriceUSD * _amountToRemove) /\n    //         token.tokenDollarValue()); // Units: USD/currecny * N currency / (USD/token) = N token\n\n    //     lenderTokenTracker[msg.sender] -= burnNumber;\n    //     if (lenderTokenTracker[msg.sender] == 0) {\n    //         delete lenderTokenTracker[msg.sender];\n    //     }\n    //     pool.withdrawTransfer(msg.sender, _desiredAsset, _amountToRemove);\n    //     token.burn(msg.sender, burnNumber);\n    // }\n\n    //////////////// function if we want to withdraw based on LVR token quanitity//////////////////\n    function Withdraw(address _asset, uint256 _tokenQuantity) public {\n        require(supportedAssetTracker[_asset], \"asset not supported\");\n        // check that the user is allowed to redeem the amount\n        require(\n            (token.balanceOf(msg.sender) >= _tokenQuantity),\n            \"Cannot redeem more tokens than number owned\"\n        );\n\n        accrueInterest();\n        uint256 assetPriceUSD = conversion.getPrice(_asset);\n\n        // total value of currency redeemable by user\n        uint256 totalAssetFromTokens = ((_tokenQuantity *\n            token.tokenDollarValue()) / assetPriceUSD); // Units: N token * USD/token / USD/currency = N currency\n\n        token.burn(msg.sender, _tokenQuantity);\n\n        lenderTokenTracker[msg.sender] -= _tokenQuantity;\n        if (lenderTokenTracker[msg.sender] == 0) {\n            delete lenderTokenTracker[msg.sender];\n        }\n\n        if (LentAmountTracker[_asset][msg.sender] == 0) {\n            //if they didnt lend the asset, withraw comes from reserve\n            reserve.redeemAsset(msg.sender, _asset, totalAssetFromTokens);\n        } else if (\n            LentAmountTracker[_asset][msg.sender] < totalAssetFromTokens\n        ) {\n            uint256 quantityLent = minimum(\n                totalAssetFromTokens,\n                LentAmountTracker[_asset][msg.sender]\n            );\n            uint256 quantityFromReserves = totalAssetFromTokens - quantityLent;\n\n            LentAmountTracker[_asset][msg.sender] = 0; //-=  quantityLent //amount lent goes to 0 if theyre redeeming more than lent in that asset\n\n            if (quantityLent >= pool.getLiquidQuantity(_asset)) {\n                //transfer from reserve if pool doesnt have enough liquidity\n                reserve.redeemAsset(msg.sender, _asset, totalAssetFromTokens);\n            } else {\n                pool.withdrawTransfer(msg.sender, _asset, quantityLent);\n\n                reserve.redeemAsset(msg.sender, _asset, quantityFromReserves);\n            }\n        } else {\n            LentAmountTracker[_asset][msg.sender] -= totalAssetFromTokens;\n            if (totalAssetFromTokens >= pool.getLiquidQuantity(_asset)) {\n                //transfer from reserve if pool doesnt have enough liquidity, not need to subtract from pool liquidity because its coming from reserve\n                reserve.redeemAsset(msg.sender, _asset, totalAssetFromTokens);\n            } else {\n                pool.withdrawTransfer(msg.sender, _asset, totalAssetFromTokens);\n            }\n            //If they lent more than withdrawing, subtract total withdraw from amount lent\n        }\n\n        emit redeemEvent(msg.sender, _asset, _tokenQuantity);\n    }\n\n    //this will have to also transfer LVR if they wont to borrow against that.\n    // what about choosing collateral to borrrow against.\n    function Borrow(\n        uint256 _borrowQuantity,\n        address _asset,\n        uint256 _collateralQuantity,\n        address _collateral\n    ) public {\n        require(supportedAssetTracker[_asset], \"asset not supported\");\n        require(supportedAssetTracker[_collateral], \"asset not supported\");\n\n        require( // check if pool has funds, if not pull from reserves, and make sure that amount if assed to pool.borrow quantity\n            ((_borrowQuantity <= pool.getLiquidQuantity(_asset)) ||\n                (reserve.getReserveBalance(_asset) >= _borrowQuantity)),\n            \"not enough liquidity to borrow\"\n        );\n\n        accrueInterest();\n        // check if deposited collateral + outstanding collateral is enough to cover thier borrow request\n        uint256 usdCollateralValue = ((conversion.getPrice(_collateral) *\n            _collateralQuantity) / collateral.collReqByAsset(_collateral)) +\n            collateral.scaledCollateralValue(msg.sender);\n        uint256 usdBorrowValue = (conversion.getPrice(_asset) *\n            _borrowQuantity) /\n            (10**18) +\n            totalValueBorrowed(msg.sender);\n\n        require(\n            usdCollateralValue >= usdBorrowValue,\n            \"not enough collateral to borrow\"\n        );\n        collateral.depositCollateral(\n            msg.sender,\n            _collateral,\n            _collateralQuantity\n        );\n\n        if (_borrowQuantity <= pool.getLiquidQuantity(_asset)) {\n            //use pool\n            pool.borrowTransfer(msg.sender, _asset, _borrowQuantity);\n        } else {\n            //use reserve\n            reserve.borrowOverflowTransfer(msg.sender, _asset, _borrowQuantity);\n        }\n\n        emit borrowEvent(\n            msg.sender,\n            _borrowQuantity,\n            _asset,\n            _collateralQuantity,\n            _collateral\n        );\n\n        borrowTracker[_asset][msg.sender].principal += _borrowQuantity;\n\n        //only add to array if user doesnt exist already\n        if (!initializedBorrowerTracker[_asset][msg.sender]) {\n            borrowersByAsset[_asset].push(msg.sender);\n            initializedBorrowerTracker[_asset][msg.sender] = true;\n        }\n\n        //only add user if it doesnt exist there already\n        if (!initializedBorrowers[msg.sender]) {\n            borrowers.push(msg.sender);\n            initializedBorrowers[msg.sender] = true;\n        }\n\n        emit borrowEvent(\n            msg.sender,\n            _borrowQuantity,\n            _asset,\n            _collateralQuantity,\n            _collateral\n        );\n    }\n\n    // User repays loan by specifying the asset they are giving back and how much\n    //repaying loan involves returning borrowed asset quantity\n    function Repay(address _asset, uint256 _repayQuantity) public {\n        require(supportedAssetTracker[_asset], \"asset not supported\");\n\n        //cant return more than borrowed\n        accrueInterest();\n        if (_repayQuantity == 1) {\n            _repayQuantity = getOutstandingLoan(msg.sender, _asset);\n        }\n        require(\n            (borrowTracker[_asset][msg.sender].principal +\n                borrowTracker[_asset][msg.sender].interest) >= _repayQuantity,\n            \"Returned more than borrowed\"\n        );\n\n        //remove interest first, then principal balance upon repayment\n        uint256 interest_portion = minimum(\n            _repayQuantity,\n            borrowTracker[_asset][msg.sender].interest\n        ); //  sub1 = min(repayment, interest)\n        uint256 principal_portion = (_repayQuantity - interest_portion); //  principal_portion  = repayment - sub1\n        //this after interest_portion and principal_portion so we can subtract this from brwQty in Pool.sol\n        pool.repayTransfer(\n            msg.sender,\n            _asset,\n            _repayQuantity,\n            principal_portion,\n            interest_portion\n        );\n\n        borrowTracker[_asset][msg.sender].principal -= principal_portion; //  subtract that from principal so that it goes to zero\n        borrowTracker[_asset][msg.sender].interest -= interest_portion; //  subtract interest_portion from interest\n\n        if (borrowTracker[_asset][msg.sender].principal == 0) {\n            delete borrowTracker[_asset][msg.sender].principal;\n        }\n        if (borrowTracker[_asset][msg.sender].interest == 0) {\n            delete borrowTracker[_asset][msg.sender].interest;\n        }\n        emit repayEvent(msg.sender, _asset, _repayQuantity);\n    }\n\n    function unlockCollateral(\n        address _asset,\n        uint256 _quantity,\n        bool _toPool\n    ) public {\n        require(supportedAssetTracker[_asset], \"asset not supported\");\n        accrueInterest();\n        //check if they have loan value less than collat value/collatQtyReq\n        //all require checks must happen here first because we have to update our internal strcutures first before transfering\n        //so that means transfer of collateral must go through.\n        require(\n            (collateral.scaledCollateralValue(msg.sender) -\n                ((conversion.getPrice(_asset) * _quantity) /\n                    collateral.collReqByAsset(_asset))) >=\n                totalValueBorrowed(msg.sender),\n            \"Cannot withdraw collateral before paying back loan\"\n        );\n        uint256 collateralDeposited = collateral.userCollateral(\n            _asset,\n            msg.sender\n        );\n\n        require(\n            _quantity <= collateralDeposited,\n            \"Redeeming more collateral than deposited\"\n        );\n        if (_toPool == true) {\n            uint256 tokenQuantity = token.mint(msg.sender, _quantity, _asset);\n            lenderTokenTracker[msg.sender] += tokenQuantity;\n\n            if (!initializedLenderTracker[_asset][msg.sender]) {\n                lendersByAsset[_asset].push(msg.sender);\n                initializedLenderTracker[_asset][msg.sender] = true;\n            }\n            LentAmountTracker[_asset][msg.sender] += _quantity;\n            emit depositEvent(msg.sender, _asset, _quantity, tokenQuantity);\n        } else {\n            emit withdrawCollateralEvent(msg.sender, _asset, _quantity);\n        }\n        collateral.removeCollateral(msg.sender, _asset, _quantity, _toPool);\n    }\n\n    function accrueInterest() internal {\n        uint256 numAssets = supportedAssets.length;\n        for (uint16 i = 0; i < numAssets; i++) {\n            address asset = supportedAssets[i];\n            uint256 numBorrowers = borrowersByAsset[asset].length;\n            uint256 assetInterestRate = pool.InterestRate(asset, interestTime);\n            for (uint16 j = 0; j < numBorrowers; j++) {\n                address user = borrowersByAsset[asset][j];\n                borrowTracker[asset][user].interest += ((assetInterestRate *\n                    borrowTracker[asset][user].principal) / (1 * 10**18));\n            }\n        }\n        interestTime = block.timestamp;\n    }\n\n    function payoutInterest() public onlyOwner {\n        //accrueInterest(); should this be here?\n        /*\n        Note:  when calculating pool value, liquidity should be used, not balance of contract itself. \n`       For each asset\n        1) total amount of asset lent\n        2) how much each person lent of that asset\n        3) ratio of those (call it r1) is how much of interest they get\n        For each person:\n        1) list of lenders\n        2) how much they lent in lVR\n        3) current number of LVR\n        4) ratio of those(call it r2) is what they get of thier cut\n        5) multiply r1*r2 to get total asset receiving \n        6) mint LVR for the value of r1*r2*totalInterest to payout\n                if user withdraws, delete old lending stats, so if they redposit they start fresh\n         */\n        accrueInterest();\n        uint256 numAssets = supportedAssets.length;\n        for (uint16 i = 0; i < numAssets; i++) {\n            address asset = supportedAssets[i];\n            uint256 totalAsset = pool.getTotalLend(asset);\n            uint256 interest = pool.getInterestQuantity(asset);\n            uint256 numLenders = lendersByAsset[asset].length;\n            for (uint16 j = 0; j < numLenders; j++) {\n                address user = lendersByAsset[asset][j];\n                if (token.balanceOf(user) < 1 * 10**16) {\n                    //arbitrary cutoff^- should it be lower?\n                    lenderTokenTracker[user] = 0;\n                    LentAmountTracker[asset][msg.sender] = 0;\n                } else {\n                    uint256 retainedTokenRatio = (token.balanceOf(user) *\n                        (10**18)) / lenderTokenTracker[user];\n                    uint256 percentOfPool = (LentAmountTracker[asset][user] *\n                        (10**18)) / totalAsset;\n                    uint256 userInterestQuantity = (retainedTokenRatio *\n                        percentOfPool *\n                        interest) / ((10**18)**2);\n                    uint256 tokenQuantity = token.mint(\n                        user,\n                        userInterestQuantity,\n                        asset\n                    ); //mint token since interest is in pool, then\n                    lenderTokenTracker[user] += tokenQuantity; //update how much lvr user has, then\n                    LentAmountTracker[asset][user] += userInterestQuantity; //update how much they lent\n                }\n            }\n            pool.resetInterest(asset);\n        }\n    }\n\n    function liquidationManager() public onlyOwner returns (string memory) {\n        //Note new\n        /*\n        -loop maybe once per hour or day\n        1) loop through users, make sure collat value > collreq*loanValue\n        2) if it is close, alert the user\n        3) if below, scale thier loan value, transfer part of collat to pool, dont mint tokens\n        */\n        uint256 numBorrowers = borrowers.length;\n        uint256 numAssets = supportedAssets.length;\n\n        for (uint16 i = 0; i < numBorrowers; i++) {\n            address user = borrowers[i];\n            uint256 usdCollateralValue = collateral.scaledCollateralValue(user);\n            uint256 usdBorrowValue = totalValueBorrowed(user);\n\n            if (usdCollateralValue < usdBorrowValue) {\n                for (uint16 j = 0; j < numAssets; j++) {\n                    address asset = supportedAssets[j];\n                    uint256 mult = collateral.collReqByAsset(asset);\n                    //set loan value lower\n                    //transfer to pool without minting tokens\n\n                    uint256 loanScalar = loanLiquidationFactor(\n                        usdBorrowValue,\n                        mult,\n                        usdCollateralValue\n                    );\n                    uint256 collScalar = collateralLiquidationFactor(\n                        usdBorrowValue,\n                        mult,\n                        usdCollateralValue\n                    );\n                    if (\n                        borrowTracker[asset][user].principal > 0 ||\n                        borrowTracker[asset][user].interest > 0\n                    ) {\n                        uint256 amountToReplenish = ((1 * 10**18) -\n                            loanScalar) *\n                            (borrowTracker[asset][user].interest +\n                                borrowTracker[asset][user].principal);\n                        borrowTracker[asset][user].interest =\n                            (borrowTracker[asset][user].interest * loanScalar) /\n                            (10**18);\n                        borrowTracker[asset][user].principal =\n                            (borrowTracker[asset][user].principal *\n                                loanScalar) /\n                            (10**18);\n                        //send equal reserve to pool\n                        reserve.replenishPoolOnDefault(\n                            asset,\n                            amountToReplenish\n                        );\n                    }\n                    if (collateral.userCollateral(user, asset) > 0) {\n                        uint256 collatQuantity = (collateral.userCollateral(\n                            user,\n                            asset\n                        ) * collScalar) / (10**18);\n                        /*\n                         * collat to reserve\n                         * borrow asset to pool from reserve\n                         */\n\n                        collateral.defaultCollateralTransfer(\n                            user,\n                            asset,\n                            collatQuantity\n                        );\n                    }\n                }\n\n                return (\"Loan Partially Liquidated\");\n            } else if (usdCollateralValue < (105 * usdBorrowValue) / 100) {\n                return (\n                    \"Liquidation Risk: Collateral value approaching LTV requirement\"\n                );\n            }\n        }\n\n        //delete borrower if they repayed all- how?\n        // if (totalValueBorrowed(msg.sender) == 0) {\n        //     borrowers :remove (msg.sender);\n        //     initializedBorrowers[msg.sender] = false;\n        // }\n    }\n\n    function loanLiquidationFactor(\n        uint256 _loan,\n        uint256 _multiplier,\n        uint256 _collateral\n    ) internal pure returns (uint256) {\n        uint256 scale = (16 *\n            10**17 *\n            (((_loan * _multiplier) / 10**18) - _collateral)) /\n            ((((_multiplier - 1 * 10**18) * _loan) / (1 * 10**18)));\n        return (1 * 10**18 - scale); //multiply loan value by this\n    }\n\n    function collateralLiquidationFactor(\n        uint256 _loan,\n        uint256 _multiplier,\n        uint256 _collateral\n    ) internal pure returns (uint256) {\n        uint256 scale = (16 *\n            10**17 *\n            (((_loan * _multiplier) / 10**18) - _collateral)) /\n            ((((_multiplier - 1 * 10**18) * _collateral) / (1 * 10**18)));\n        return (scale); //take this much from collat\n    }\n\n    function totalValueBorrowed(address _borrower)\n        public\n        view\n        returns (uint256)\n    {\n        uint256 totalBorrowValue = 0;\n\n        // make this less bits?\n        uint256 numAssets = supportedAssets.length;\n\n        //loop to calculate the value of the pool liquid + borrowed\n        for (uint16 i = 0; i < numAssets; i++) {\n            address asset = supportedAssets[i];\n            uint256 assetPrice = conversion.getPrice(asset);\n            totalBorrowValue += (((borrowTracker[asset][_borrower].principal +\n                borrowTracker[asset][_borrower].interest) * assetPrice) /\n                (1 * 10**18));\n        }\n        return totalBorrowValue;\n    }\n\n    function interestQuantity(address _user, address _asset)\n        public\n        view\n        returns (uint256)\n    {\n        return borrowTracker[_asset][_user].interest;\n    }\n\n    function offerCollateralAssets() public {\n        // just needs to check with the pool to see what assets we can offer\n        //users to use as collateral - called when borrowing (if they deposit\n        //LVR and want to use something else)\n        // to do this we probably need to come up with some reserve rules, etc\n    }\n\n    function getInterestRate(address _asset) public view returns (uint256) {\n        return pool.InterestRate(_asset, interestTime);\n    }\n\n    function minimum(uint256 a, uint256 b) internal pure returns (uint256) {\n        return a.min(b);\n    }\n\n    function getLiquidity(address _token) public view returns (uint256) {\n        return pool.getLiquidQuantity(_token);\n    }\n\n    function getPoolBalance(address _token) public view returns (uint256) {\n        return pool.getBalance(_token);\n    }\n\n    function getLiquidPct(address _token) public view returns (uint256) {\n        return pool.getLiquidPct(_token);\n    }\n\n    function getLockedCollateral(address _token) public view returns (uint256) {\n        return collateral.getCollateralQuantity(_token);\n    }\n\n    function getCollBalance(address _token) public view returns (uint256) {\n        return collateral.getBalance(_token);\n    }\n\n    function getPoolAddr() public view returns (address) {\n        return address(pool);\n    }\n\n    function getCollAddr() public view returns (address) {\n        return address(collateral);\n    }\n\n    function getTokenAddr() public view returns (address) {\n        return address(token);\n    }\n\n    function getReserveAddr() public view returns (address) {\n        return address(reserve);\n    }\n\n    function getTokenDollarValue() public view returns (uint256) {\n        return token.tokenDollarValue();\n    }\n\n    function getPoolValue() public view returns (uint256) {\n        return token.totalPoolValue();\n    }\n\n    function getTotalSupply() public view returns (uint256) {\n        return token.totalSupply();\n    }\n\n    function getBalanceOf(address _user) public view returns (uint256) {\n        return token.balanceOf(_user);\n    }\n\n    function getCollateralValue(address _user) public view returns (uint256) {\n        return collateral.collateralValue(_user);\n    }\n\n    function getOutstandingLoan(address _user, address _asset)\n        public\n        view\n        returns (uint256)\n    {\n        return (borrowTracker[_asset][_user].principal +\n            borrowTracker[_asset][_user].interest);\n    }\n\n    function getUserCollateral(address _user, address _asset)\n        public\n        view\n        returns (uint256)\n    {\n        return collateral.userCollateral(_asset, _user);\n    }\n\n    function getTotalInterest(address _asset) public view returns (uint256) {\n        return pool.totalInterest(_asset);\n    }\n\n    function getLentAmount(address _user) public view returns (uint256) {\n        return lenderTokenTracker[_user];\n    }\n\n    function getTimeDelta() public view returns (uint256) {\n        return pool.getTimeDelta(interestTime);\n    }\n\n    function getInterestQuantity(address _asset) public view returns (uint256) {\n        return pool.getInterestQuantity(_asset);\n    }\n\n    function updateCollReqByAsset(address _asset, uint256 _updated_threshold)\n        public\n        onlyOwner\n    {\n        //Note new\n        collateral.updateCollReqByAsset(_asset, _updated_threshold);\n    }\n\n    function updateSupportedAssets(address _asset) public onlyOwner {\n        //Note new\n        supportedAssets.push(_asset);\n        pool.addSupportedAsset(_asset);\n        collateral.addSupportedAsset(_asset);\n        reserve.addSupportedAsset(_asset);\n    }\n\n    function maxLoanValue(address _user) public view returns (uint256) {\n        return collateral.scaledCollateralValue(_user);\n    }\n\n    function getReserveBalance(address _asset) public view returns (uint256) {\n        return reserve.getReserveBalance(_asset);\n    }\n}\n","sourcePath":"contracts/1_LendingPool.sol","type":"contract","deployment":{"address":"0x956d8a79343aCfa02c9Cec4Bf5A6d39933E1358b","chainid":"4","blockHeight":10173465}}