{"bytecode":"60806040523480156200001157600080fd5b506040516200002090620001b8565b604051809103906000f0801580156200003d573d6000803e3d6000fd5b50600180546001600160a01b0319166001600160a01b039290921691821790556040516200006b90620001c6565b6060808252600990820152682a32b9ba2a37b5b2b760b91b608082015260a060208201819052600390820152621514d560ea1b60c08201526001600160a01b03909116604082015260e001604051809103906000f080158015620000d3573d6000803e3d6000fd5b50600480546001600160a01b0319166001600160a01b039283169081179091556001546040519216916200010790620001d4565b6001600160a01b03928316815291166020820152604001604051809103906000f0801580156200013b573d6000803e3d6000fd5b50600280546001600160a01b0319166001600160a01b03929092169190911790556040516200016a90620001e2565b604051809103906000f08015801562000187573d6000803e3d6000fd5b50600080546001600160a01b03929092166001600160a01b03199283161790556003805490911633179055620001f0565b6112ec80620027b083390190565b6120f88062003a9c83390190565b610e048062005b9483390190565b610376806200699883390190565b6125b080620002006000396000f3fe608060405234801561001057600080fd5b50600436106102065760003560e01c80639b96eece1161011a578063d28682ea116100ad578063dd2d2a121161007c578063dd2d2a121461045c578063de2592421461046f578063de30f97d14610480578063f2df757b14610493578063fc0c546a146104a657600080fd5b8063d28682ea14610410578063d3ea0f8914610423578063d49ab22c14610436578063d8dfeb451461044957600080fd5b8063a78e4046116100e9578063a78e4046146103a5578063b9e037e6146103b8578063c0f2b1cf146103cb578063c4e41b221461040857600080fd5b80639b96eece14610364578063a55e866814610377578063a6afed951461038a578063a747b93b1461039257600080fd5b8063511c56611161019d5780636aaa434e1161016c5780636aaa434e146102dc5780636db1809314610323578063884edad91461032b5780639311ca691461033e57806397904e421461035157600080fd5b8063511c566114610294578063582b2720146102a75780635c16de4f146102b857806363e36dac146102cb57600080fd5b8063243d8e05116101d9578063243d8e051461026c578063338274381461026c57806346c928fc1461026e5780634bcc17091461028157600080fd5b8063057393c01461020b57806316f0115b146102315780631ba2f5311461025c5780632273323f14610264575b600080fd5b61021e610219366004612337565b6104b9565b6040519081526020015b60405180910390f35b600154610244906001600160a01b031681565b6040516001600160a01b039091168152602001610228565b61021e61052f565b61026c6105ad565b005b61026c61027c366004612352565b610a88565b61026c61028f366004612398565b610f62565b61021e6102a2366004612337565b61120c565b6004546001600160a01b0316610244565b61026c6102c63660046123c4565b61123f565b6002546001600160a01b0316610244565b61030e6102ea3660046123ee565b600a6020908152600092835260408084209091529082529020805460019091015482565b60408051928352602083019190915201610228565b61021e611494565b61026c6103393660046123c4565b6114e9565b600054610244906001600160a01b031681565b61021e61035f366004612337565b6118af565b61021e610372366004612337565b6118e2565b61021e6103853660046123ee565b61191a565b61026c611998565b61021e6103a0366004612337565b611b82565b61021e6103b33660046123ee565b611bb5565b61026c6103c6366004612418565b611bed565b61021e6103d93660046123ee565b6001600160a01b038082166000908152600a602090815260408083209386168352929052206001015492915050565b61021e6120ac565b61021e61041e366004612337565b612101565b61021e610431366004612337565b612134565b61021e610444366004612337565b612167565b600254610244906001600160a01b031681565b61021e61046a36600461245d565b61219a565b6001546001600160a01b0316610244565b61021e61048e366004612337565b6121a6565b61021e6104a1366004612337565b6121d9565b600454610244906001600160a01b031681565b60025460405163f8b2cb4f60e01b81526001600160a01b038381166004830152600092169063f8b2cb4f906024015b602060405180830381865afa158015610505573d6000803e3d6000fd5b505050506040513d601f19601f82011682018060405250810190610529919061247f565b92915050565b6000600460009054906101000a90046001600160a01b03166001600160a01b0316638a02775b6040518163ffffffff1660e01b8152600401602060405180830381865afa158015610584573d6000803e3d6000fd5b505050506040513d601f19601f820116820180604052508101906105a8919061247f565b905090565b60085460005b818161ffff161015610a8457600060088261ffff16815481106105d8576105d8612498565b600091825260208220015460015460405163662128f360e11b81526001600160a01b0392831660048201819052945091169063cc4251e690602401602060405180830381865afa158015610630573d6000803e3d6000fd5b505050506040513d601f19601f82011682018060405250810190610654919061247f565b600154604051635c88f5a560e01b81526001600160a01b03858116600483015292935060009290911690635c88f5a590602401602060405180830381865afa1580156106a4573d6000803e3d6000fd5b505050506040513d601f19601f820116820180604052508101906106c8919061247f565b6001600160a01b0384166000908152600e60205260408120549192505b818161ffff161015610a0d576001600160a01b0385166000908152600e60205260408120805461ffff841690811061071f5761071f612498565b600091825260209091200154600480546040516370a0823160e01b81526001600160a01b03938416928101839052919350662386f26fc100009216906370a0823190602401602060405180830381865afa158015610781573d6000803e3d6000fd5b505050506040513d601f19601f820116820180604052508101906107a5919061247f565b10156107e4576001600160a01b0380821660009081526005602090815260408083208390559289168252600b81528282203383529052908120556109fa565b6001600160a01b03818116600081815260056020526040808220546004805492516370a0823160e01b815290810194909452919391929116906370a0823190602401602060405180830381865afa158015610843573d6000803e3d6000fd5b505050506040513d601f19601f82011682018060405250810190610867919061247f565b61087990670de0b6b3a76400006124c4565b61088391906124e3565b6001600160a01b038089166000908152600b602090815260408083209387168352929052908120549192509087906108c390670de0b6b3a76400006124c4565b6108cd91906124e3565b905060006ec097ce7bc90715b34b9f1000000000876108ec84866124c4565b6108f691906124c4565b61090091906124e3565b60048054604051630d4d151360e01b81526001600160a01b0388811693820193909352602481018490528c83166044820152929350600092911690630d4d1513906064016020604051808303816000875af1158015610963573d6000803e3d6000fd5b505050506040513d601f19601f82011682018060405250810190610987919061247f565b6001600160a01b0386166000908152600560205260408120805492935083929091906109b4908490612505565b90915550506001600160a01b03808b166000908152600b60209081526040808320938916835292905290812080548492906109f0908490612505565b9091555050505050505b5080610a058161251d565b9150506106e5565b506001546040516323d0aab160e01b81526001600160a01b038681166004830152909116906323d0aab190602401600060405180830381600087803b158015610a5557600080fd5b505af1158015610a69573d6000803e3d6000fd5b50505050505050508080610a7c9061251d565b9150506105b3565b5050565b600254604051631d512a9160e21b81523360048201526000916001600160a01b031690637544aa4490602401602060405180830381865afa158015610ad1573d6000803e3d6000fd5b505050506040513d601f19601f82011682018060405250810190610af5919061247f565b6000546040516341976e0960e01b81526001600160a01b038581166004830152869216906341976e0990602401602060405180830381865afa158015610b3f573d6000803e3d6000fd5b505050506040513d601f19601f82011682018060405250810190610b63919061247f565b610b6d91906124c4565b610b779190612505565b90506000610b84336121d9565b6000546040516341976e0960e01b81526001600160a01b038881166004830152670de0b6b3a7640000928a929116906341976e0990602401602060405180830381865afa158015610bd9573d6000803e3d6000fd5b505050506040513d601f19601f82011682018060405250810190610bfd919061247f565b610c0791906124c4565b610c1191906124e3565b610c1b9190612505565b9050600260009054906101000a90046001600160a01b03166001600160a01b031663094049546040518163ffffffff1660e01b8152600401602060405180830381865afa158015610c70573d6000803e3d6000fd5b505050506040513d601f19601f82011682018060405250810190610c94919061247f565b610c9e90826124c4565b821015610cf25760405162461bcd60e51b815260206004820152601f60248201527f6e6f7420656e6f75676820636f6c6c61746572616c20746f20626f72726f770060448201526064015b60405180910390fd5b60025460405163f970c3b760e01b81526001600160a01b039091169063f970c3b790610d269033908790899060040161253f565b600060405180830381600087803b158015610d4057600080fd5b505af1158015610d54573d6000803e3d6000fd5b505060015460405163fc4f78b960e01b81526001600160a01b03909116925063fc4f78b99150610d8c90339089908b9060040161253f565b600060405180830381600087803b158015610da657600080fd5b505af1158015610dba573d6000803e3d6000fd5b505060408051338152602081018a90526001600160a01b0389811682840152606082018990528716608082015290517fea8631408d071cdc565dfa37dcb32450c4c85ee9a4142ed14df1387d7c2a432793509081900360a0019150a16001600160a01b0385166000908152600a6020908152604080832033845290915281208054889290610e49908490612505565b90915550506001600160a01b03851660009081526007602052604090205460ff16610ed2576006805460018082019092557ff652222313e28459528d920b65115c16c04f3efc82aaedc97be59f3f377c0d3f0180546001600160a01b0319166001600160a01b0388169081179091556000908152600760205260409020805460ff191690911790555b6001600160a01b0385166000908152600d6020908152604080832033845290915290205460ff16610f5a576001600160a01b0385166000818152600c602090815260408083208054600181810183559185528385200180546001600160a01b03191633908117909155948452600d8352818420948452939091529020805460ff191690911790555b505050505050565b60008211610fb25760405162461bcd60e51b815260206004820152601860248201527f6465706f736974206d75737420626520706f73697469766500000000000000006044820152606401610ce9565b60048054604051630d4d151360e01b81523392810192909252602482018490526001600160a01b038381166044840152600092911690630d4d1513906064016020604051808303816000875af1158015611010573d6000803e3d6000fd5b505050506040513d601f19601f82011682018060405250810190611034919061247f565b33600090815260056020526040812080549293508392909190611058908490612505565b9091555050600154604051631740ecaf60e11b81526001600160a01b0390911690632e81d95e906110919033908690889060040161253f565b600060405180830381600087803b1580156110ab57600080fd5b505af11580156110bf573d6000803e3d6000fd5b505050506001600160a01b03821660009081526009602052604090205460ff16611147576008805460018082019092557ff3f7a9fe364faab93b216da50a3214154f22a0a2b415b23a84c8169e8b636ee30180546001600160a01b0319166001600160a01b0385169081179091556000908152600960205260409020805460ff191690911790555b6001600160a01b0382166000908152600f6020908152604080832033845290915290205460ff166111cf576001600160a01b0382166000818152600e602090815260408083208054600181810183559185528385200180546001600160a01b03191633908117909155948452600f8352818420948452939091529020805460ff191690911790555b6001600160a01b0382166000908152600b6020908152604080832033845290915281208054859290611202908490612505565b9091555050505050565b60015460405163c0d7eec160e01b81526001600160a01b038381166004830152600092169063c0d7eec1906024016104e8565b6001600160a01b0382166000908152600a60209081526040808320338452909152902060018101549054829161127491612505565b10156112c25760405162461bcd60e51b815260206004820152601b60248201527f52657475726e6564206d6f7265207468616e20626f72726f77656400000000006044820152606401610ce9565b6001600160a01b0382166000908152600a602090815260408083203384529091528120546112f190839061219a565b905060006112ff8284612563565b6001546040516327709e4760e11b81523360048201526001600160a01b038781166024830152604482018790526064820186905260848201849052929350911690634ee13c8e9060a401600060405180830381600087803b15801561136357600080fd5b505af1158015611377573d6000803e3d6000fd5b505050506001600160a01b0384166000908152600a60209081526040808320338452909152812080548492906113ae908490612563565b90915550506001600160a01b0384166000908152600a60209081526040808320338452909152812060010180548392906113e9908490612563565b90915550506001600160a01b0384166000908152600a6020908152604080832033845290915290205461143b576001600160a01b0384166000908152600a602090815260408083203384529091528120555b6001600160a01b0384166000908152600a6020908152604080832033845290915290206001015461148e576001600160a01b0384166000908152600a602090815260408083203384529091528120600101555b50505050565b6000600460009054906101000a90046001600160a01b03166001600160a01b03166333d57cdc6040518163ffffffff1660e01b8152600401602060405180830381865afa158015610584573d6000803e3d6000fd5b600080546040516341976e0960e01b81526001600160a01b038581166004830152909116906341976e0990602401602060405180830381865afa158015611534573d6000803e3d6000fd5b505050506040513d601f19601f82011682018060405250810190611558919061247f565b9050600081600460009054906101000a90046001600160a01b03166001600160a01b03166333d57cdc6040518163ffffffff1660e01b8152600401602060405180830381865afa1580156115b0573d6000803e3d6000fd5b505050506040513d601f19601f820116820180604052508101906115d4919061247f565b6115de90856124c4565b6115e891906124e3565b60015460405163fce3e8e760e01b81526001600160a01b03878116600483015292935091169063fce3e8e790602401602060405180830381865afa158015611634573d6000803e3d6000fd5b505050506040513d601f19601f82011682018060405250810190611658919061247f565b8111156116c25760405162461bcd60e51b815260206004820152603260248201527f557365722063616e6e6f742072656465656d206d6f7265207468616e2074686560448201527120617661696c61626c652062616c616e636560701b6064820152608401610ce9565b600480546040516370a0823160e01b8152339281019290925284916001600160a01b03909116906370a0823190602401602060405180830381865afa15801561170f573d6000803e3d6000fd5b505050506040513d601f19601f82011682018060405250810190611733919061247f565b10156117955760405162461bcd60e51b815260206004820152602b60248201527f43616e6e6f742072656465656d206d6f726520746f6b656e73207468616e206e60448201526a1d5b58995c881bdddb995960aa1b6064820152608401610ce9565b33600090815260056020526040812080548592906117b4908490612563565b9091555050336000908152600560205260409020546117de57336000908152600560205260408120555b600154604051631f97f85960e31b81526001600160a01b039091169063fcbfc2c8906118129033908890869060040161253f565b600060405180830381600087803b15801561182c57600080fd5b505af1158015611840573d6000803e3d6000fd5b505060048054604051632770a7eb60e21b81523392810192909252602482018790526001600160a01b03169250639dc29fac9150604401600060405180830381600087803b15801561189157600080fd5b505af11580156118a5573d6000803e3d6000fd5b5050505050505050565b600254604051631d512a9160e21b81526001600160a01b0383811660048301526000921690637544aa44906024016104e8565b600480546040516370a0823160e01b81526001600160a01b0384811693820193909352600092909116906370a08231906024016104e8565b600254604051632b92a07d60e01b81526001600160a01b03838116600483015284811660248301526000921690632b92a07d90604401602060405180830381865afa15801561196d573d6000803e3d6000fd5b505050506040513d601f19601f82011682018060405250810190611991919061247f565b9392505050565b60065460005b818161ffff161015610a8457600060068261ffff16815481106119c3576119c3612498565b6000918252602080832091909101546001600160a01b03908116808452600c9092526040808420546001549151631230a06760e11b815260048101859052939550939291169063246140ce90602401602060405180830381865afa158015611a2f573d6000803e3d6000fd5b505050506040513d601f19601f82011682018060405250810190611a53919061247f565b905060005b828161ffff161015611b6b576001600160a01b0384166000908152600a60209081526040808320600c90925282208054670de0b6b3a764000093919061ffff8616908110611aa857611aa8612498565b60009182526020808320909101546001600160a01b03168352820192909252604001902054611ad790846124c4565b611ae191906124e3565b6001600160a01b0385166000908152600a60209081526040808320600c9092528220805491929161ffff8616908110611b1c57611b1c612498565b60009182526020808320909101546001600160a01b0316835282019290925260400181206001018054909190611b53908490612505565b90915550819050611b638161251d565b915050611a58565b505050508080611b7a9061251d565b91505061199e565b60015460405163fce3e8e760e01b81526001600160a01b038381166004830152600092169063fce3e8e7906024016104e8565b6001600160a01b038181166000908152600a602090815260408083209386168352929052908120600181015490546119919190612505565b611bf6336121d9565b600260009054906101000a90046001600160a01b03166001600160a01b031663094049546040518163ffffffff1660e01b8152600401602060405180830381865afa158015611c49573d6000803e3d6000fd5b505050506040513d601f19601f82011682018060405250810190611c6d919061247f565b611c7791906124c4565b6000546040516341976e0960e01b81526001600160a01b038681166004830152670de0b6b3a76400009286929116906341976e0990602401602060405180830381865afa158015611ccc573d6000803e3d6000fd5b505050506040513d601f19601f82011682018060405250810190611cf0919061247f565b611cfa91906124c4565b611d0491906124e3565b600254604051631d512a9160e21b81523360048201526001600160a01b0390911690637544aa4490602401602060405180830381865afa158015611d4c573d6000803e3d6000fd5b505050506040513d601f19601f82011682018060405250810190611d70919061247f565b611d7a9190612563565b1015611de35760405162461bcd60e51b815260206004820152603260248201527f43616e6e6f7420776974686472617720636f6c6c61746572616c206265666f7260448201527132903830bcb4b733903130b1b5903637b0b760711b6064820152608401610ce9565b600254604051632b92a07d60e01b81526001600160a01b0385811660048301523360248301526000921690632b92a07d90604401602060405180830381865afa158015611e34573d6000803e3d6000fd5b505050506040513d601f19601f82011682018060405250810190611e58919061247f565b905080831115611ebb5760405162461bcd60e51b815260206004820152602860248201527f52656465656d696e67206d6f726520636f6c6c61746572616c207468616e2064604482015267195c1bdcda5d195960c21b6064820152608401610ce9565b600254604051634755ea7f60e11b81523360048201526001600160a01b03868116602483015260448201869052841515606483015290911690638eabd4fe90608401600060405180830381600087803b158015611f1757600080fd5b505af1158015611f2b573d6000803e3d6000fd5b505050508115156001141561148e5760048054604051630d4d151360e01b81523392810192909252602482018590526001600160a01b038681166044840152600092911690630d4d1513906064016020604051808303816000875af1158015611f98573d6000803e3d6000fd5b505050506040513d601f19601f82011682018060405250810190611fbc919061247f565b33600090815260056020526040812080549293508392909190611fe0908490612505565b90915550506001600160a01b0385166000908152600f6020908152604080832033845290915290205460ff1661206d576001600160a01b0385166000818152600e602090815260408083208054600181810183559185528385200180546001600160a01b03191633908117909155948452600f8352818420948452939091529020805460ff191690911790555b6001600160a01b0385166000908152600b60209081526040808320338452909152812080548692906120a0908490612505565b90915550505050505050565b6000600460009054906101000a90046001600160a01b03166001600160a01b03166318160ddd6040518163ffffffff1660e01b8152600401602060405180830381865afa158015610584573d6000803e3d6000fd5b60015460405163f8b2cb4f60e01b81526001600160a01b038381166004830152600092169063f8b2cb4f906024016104e8565b600154604051631230a06760e11b81526001600160a01b038381166004830152600092169063246140ce906024016104e8565b6002546040516328d1f89360e21b81526001600160a01b038381166004830152600092169063a347e24c906024016104e8565b60006119918383612305565b60015460405163de30f97d60e01b81526001600160a01b038381166004830152600092169063de30f97d906024016104e8565b6006546000908190815b818161ffff1610156122fc57600060068261ffff168154811061220857612208612498565b600091825260208220015481546040516341976e0960e01b81526001600160a01b039283166004820181905294509116906341976e0990602401602060405180830381865afa15801561225f573d6000803e3d6000fd5b505050506040513d601f19601f82011682018060405250810190612283919061247f565b6001600160a01b038381166000908152600a60209081526040808320938c1683529290522060018101549054919250670de0b6b3a76400009183916122c791612505565b6122d191906124c4565b6122db91906124e3565b6122e59086612505565b9450505080806122f49061251d565b9150506121e3565b50909392505050565b60008183106123145781611991565b5090919050565b80356001600160a01b038116811461233257600080fd5b919050565b60006020828403121561234957600080fd5b6119918261231b565b6000806000806080858703121561236857600080fd5b843593506123786020860161231b565b92506040850135915061238d6060860161231b565b905092959194509250565b600080604083850312156123ab57600080fd5b823591506123bb6020840161231b565b90509250929050565b600080604083850312156123d757600080fd5b6123e08361231b565b946020939093013593505050565b6000806040838503121561240157600080fd5b61240a8361231b565b91506123bb6020840161231b565b60008060006060848603121561242d57600080fd5b6124368461231b565b9250602084013591506040840135801515811461245257600080fd5b809150509250925092565b6000806040838503121561247057600080fd5b50508035926020909101359150565b60006020828403121561249157600080fd5b5051919050565b634e487b7160e01b600052603260045260246000fd5b634e487b7160e01b600052601160045260246000fd5b60008160001904831182151516156124de576124de6124ae565b500290565b60008261250057634e487b7160e01b600052601260045260246000fd5b500490565b60008219821115612518576125186124ae565b500190565b600061ffff80831681811415612535576125356124ae565b6001019392505050565b6001600160a01b039384168152919092166020820152604081019190915260600190565b600082821015612575576125756124ae565b50039056fea2646970667358221220924faa97f87330a7c0a4ed006e111c6ad0c85b80340bbf5d05af822238d03e8f64736f6c634300080b0033608060405234801561001057600080fd5b50600260038190556040805160608082018352600080835260208084018281528486018381527301be23585060835e02b77ef475b0cc51aa1e070980855284845295517f4e2753d238f0f4cb8962490717ab551b4c023808c7bc37aed6e8760bfc3a92d55590517f4e2753d238f0f4cb8962490717ab551b4c023808c7bc37aed6e8760bfc3a92d655517f4e2753d238f0f4cb8962490717ab551b4c023808c7bc37aed6e8760bfc3a92d7558554600181810188557f405787fa12a823e0f2b7631cc41b3ba8828b3321ca811111fa75cd3aa3bb5ace91820180546001600160a01b0319908116881790915587519586018852848652858401858152868901868152735592ec0cfb4dbc12d3ab100b257153436a1f0fea8088529587905296517ff4e9730789baae4355b7b087afa1a57a24c222e690ce50ce909b525e8495925b55517ff4e9730789baae4355b7b087afa1a57a24c222e690ce50ce909b525e8495925c5594517ff4e9730789baae4355b7b087afa1a57a24c222e690ce50ce909b525e8495925d558754908101885596909252940180549091168417905590519091906101bd90610202565b604051809103906000f0801580156101d9573d6000803e3d6000fd5b50600180546001600160a01b0319166001600160a01b03929092169190911790555061020f9050565b61037680610f7683390190565b610d588061021e6000396000f3fe608060405234801561001057600080fd5b50600436106101165760003560e01c8063c0d7eec1116100a2578063edf26d9b11610071578063edf26d9b146102f3578063f8b2cb4f14610306578063fc4f78b914610319578063fcbfc2c81461032c578063fce3e8e71461033f57600080fd5b8063c0d7eec11461017c578063cc4251e6146102b8578063de30f97d146102cb578063e4ebd601146102de57600080fd5b80635c88f5a5116100e95780635c88f5a51461017c5780636efb8b62146101a557806375f4d6771461023b5780639311ca6914610243578063b8c876b11461026e57600080fd5b806323d0aab11461011b578063246140ce146101305780632e81d95e146101565780634ee13c8e14610169575b600080fd5b61012e610129366004610a2c565b61036b565b005b61014361013e366004610a2c565b6103ba565b6040519081526020015b60405180910390f35b61012e610164366004610a47565b610436565b61012e610177366004610a83565b6104e5565b61014361018a366004610a2c565b6001600160a01b031660009081526020819052604090205490565b61012e6101b3366004610a2c565b60408051606081018252600080825260208083018281528385018381526001600160a01b0390961680845291839052938220925183559251600180840191909155935160029283015581549384018255527f405787fa12a823e0f2b7631cc41b3ba8828b3321ca811111fa75cd3aa3bb5ace90910180546001600160a01b0319169091179055565b6101436105f3565b600154610256906001600160a01b031681565b6040516001600160a01b03909116815260200161014d565b61029d61027c366004610a2c565b60006020819052908152604090208054600182015460029092015490919083565b6040805193845260208401929092529082015260600161014d565b6101436102c6366004610a2c565b61077d565b6101436102d9366004610a2c565b6107b0565b6102e6610815565b60405161014d9190610ad0565b610256610301366004610b1d565b610877565b610143610314366004610a2c565b6108a1565b61012e610327366004610a47565b61090c565b61012e61033a366004610a47565b6109e5565b61014361034d366004610a2c565b6001600160a01b031660009081526020819052604090206001015490565b6001600160a01b03811660009081526020819052604081208054600190910180549192909161039b908490610b4c565b90915550506001600160a01b0316600090815260208190526040812055565b6000806103c6836107b0565b6103d890670de0b6b3a7640000610b64565b905068056bc75e2d631000006ec097ce7bc90715b34b9f10000000006103ff600484610c5f565b6104099190610c6e565b610414906008610c90565b61041e9190610c6e565b61042f9066354a6ba7a18000610b4c565b9392505050565b6040516323b872dd60e01b81526001600160a01b038481166004830152306024830152604482018390528316906323b872dd906064016020604051808303816000875af115801561048b573d6000803e3d6000fd5b505050506040513d601f19601f820116820180604052508101906104af9190610caf565b506001600160a01b038216600090815260208190526040812060010180548392906104db908490610b4c565b9091555050505050565b6040516323b872dd60e01b81526001600160a01b038681166004830152306024830152604482018590528516906323b872dd906064016020604051808303816000875af115801561053a573d6000803e3d6000fd5b505050506040513d601f19601f8201168201806040525081019061055e9190610caf565b506001600160a01b0384166000908152602081905260408120600101805484929061058a908490610b4c565b90915550506001600160a01b038416600090815260208190526040812060020180548492906105ba908490610b64565b90915550506001600160a01b038416600090815260208190526040812080548392906105e7908490610b4c565b90915550505050505050565b6002546000908190815b818161ffff1610156107755760015460028054670de0b6b3a7640000926001600160a01b0316916341976e099161ffff861690811061063e5761063e610cd1565b60009182526020909120015460405160e083901b6001600160e01b03191681526001600160a01b039091166004820152602401602060405180830381865afa15801561068e573d6000803e3d6000fd5b505050506040513d601f19601f820116820180604052508101906106b29190610ce7565b60008060028561ffff16815481106106cc576106cc610cd1565b60009182526020808320909101546001600160a01b0316835282019290925260400181206002908101548154909291829161ffff881690811061071157610711610cd1565b60009182526020808320909101546001600160a01b031683528201929092526040019020600101546107439190610b4c565b61074d9190610c90565b6107579190610c6e565b6107619084610b4c565b92508061076d81610d00565b9150506105fd565b509092915050565b6001600160a01b038116600090815260208190526040812060028101546001909101546107aa9190610b4c565b92915050565b6001600160a01b038116600090815260208190526040812060028101546001909101546107dd9190610b4c565b6001600160a01b03831660009081526020819052604090206001015461080b90670de0b6b3a7640000610c90565b6107aa9190610c6e565b6060600280548060200260200160405190810160405280929190818152602001828054801561086d57602002820191906000526020600020905b81546001600160a01b0316815260019091019060200180831161084f575b5050505050905090565b6002818154811061088757600080fd5b6000918252602090912001546001600160a01b0316905081565b6040516370a0823160e01b81523060048201526000906001600160a01b038316906370a0823190602401602060405180830381865afa1580156108e8573d6000803e3d6000fd5b505050506040513d601f19601f820116820180604052508101906107aa9190610ce7565b6001600160a01b03821660009081526020819052604081206001018054839290610937908490610b64565b90915550506001600160a01b03821660009081526020819052604081206002018054839290610967908490610b4c565b909155505060405163a9059cbb60e01b81526001600160a01b0384811660048301526024820183905283169063a9059cbb906044016020604051808303816000875af11580156109bb573d6000803e3d6000fd5b505050506040513d601f19601f820116820180604052508101906109df9190610caf565b50505050565b6001600160a01b03821660009081526020819052604081206001018054839290610967908490610b64565b80356001600160a01b0381168114610a2757600080fd5b919050565b600060208284031215610a3e57600080fd5b61042f82610a10565b600080600060608486031215610a5c57600080fd5b610a6584610a10565b9250610a7360208501610a10565b9150604084013590509250925092565b600080600080600060a08688031215610a9b57600080fd5b610aa486610a10565b9450610ab260208701610a10565b94979496505050506040830135926060810135926080909101359150565b6020808252825182820181905260009190848201906040850190845b81811015610b115783516001600160a01b031683529284019291840191600101610aec565b50909695505050505050565b600060208284031215610b2f57600080fd5b5035919050565b634e487b7160e01b600052601160045260246000fd5b60008219821115610b5f57610b5f610b36565b500190565b600082821015610b7657610b76610b36565b500390565b600181815b80851115610bb6578160001904821115610b9c57610b9c610b36565b80851615610ba957918102915b93841c9390800290610b80565b509250929050565b600082610bcd575060016107aa565b81610bda575060006107aa565b8160018114610bf05760028114610bfa57610c16565b60019150506107aa565b60ff841115610c0b57610c0b610b36565b50506001821b6107aa565b5060208310610133831016604e8410600b8410161715610c39575081810a6107aa565b610c438383610b7b565b8060001904821115610c5757610c57610b36565b029392505050565b600061042f60ff841683610bbe565b600082610c8b57634e487b7160e01b600052601260045260246000fd5b500490565b6000816000190483118215151615610caa57610caa610b36565b500290565b600060208284031215610cc157600080fd5b8151801515811461042f57600080fd5b634e487b7160e01b600052603260045260246000fd5b600060208284031215610cf957600080fd5b5051919050565b600061ffff80831681811415610d1857610d18610b36565b600101939250505056fea2646970667358221220ce541e8a0a500ab66394f8cc41f9cda3a7068f8be518b272ddd309ff3a31e0e364736f6c634300080b0033608060405234801561001057600080fd5b50600060208190527f4e2753d238f0f4cb8962490717ab551b4c023808c7bc37aed6e8760bfc3a92d580546001600160a01b031990811673d8bd0a1cb028a31aa859a21a3758685a95de462317909155735592ec0cfb4dbc12d3ab100b257153436a1f0fea9091527ff4e9730789baae4355b7b087afa1a57a24c222e690ce50ce909b525e8495925b8054909116732ba49aaa16e6afd2a993473cfb70fa8559b523cf1790556102b1806100c56000396000f3fe608060405234801561001057600080fd5b50600436106100365760003560e01c806341976e091461003b5780634238dc4714610061575b600080fd5b61004e610049366004610141565b6100a2565b6040519081526020015b60405180910390f35b61008a61006f366004610141565b6000602081905290815260409020546001600160a01b031681565b6040516001600160a01b039091168152602001610058565b6001600160a01b03808216600090815260208190526040808220548151633fabe5a360e21b81529151929316918391839163feaf968c9160048082019260a0929091908290030181865afa1580156100fe573d6000803e3d6000fd5b505050506040513d601f19601f820116820180604052508101906101229190610190565b505050915050806402540be40061013991906101f6565b949350505050565b60006020828403121561015357600080fd5b81356001600160a01b038116811461016a57600080fd5b9392505050565b805169ffffffffffffffffffff8116811461018b57600080fd5b919050565b600080600080600060a086880312156101a857600080fd5b6101b186610171565b94506020860151935060408601519250606086015191506101d460808701610171565b90509295509295909350565b634e487b7160e01b600052601160045260246000fd5b60006001600160ff1b038184138284138082168684048611161561021c5761021c6101e0565b600160ff1b600087128281168783058912161561023b5761023b6101e0565b60008712925087820587128484161615610257576102576101e0565b8785058712818416161561026d5761026d6101e0565b50505092909302939250505056fea264697066735822122072c48f6e00c5a52cb863487a9419bc6a66d0f63d77321e88f47fe70ef4f6aac064736f6c634300080b003360806040523480156200001157600080fd5b50604051620020f8380380620020f88339810160408190526200003491620003eb565b8251839083906200004d9060059060208501906200026a565b508051620000639060069060208401906200026a565b50620000759150600090503362000105565b620000a17f9f2df0fed2c77648de5860a4cc508cd0818c85b8b8a1ab4ceeef8d981c8956a63362000105565b604051620000af90620002f9565b604051809103906000f080158015620000cc573d6000803e3d6000fd5b50600780546001600160a01b039283166001600160a01b0319918216179091556008805493909216921691909117905550620004b59050565b62000111828262000115565b5050565b6200012c82826200015860201b62000ac31760201c565b60008281526001602090815260409091206200015391839062000b47620001f8821b17901c565b505050565b6000828152602081815260408083206001600160a01b038516845290915290205460ff1662000111576000828152602081815260408083206001600160a01b03851684529091529020805460ff19166001179055620001b43390565b6001600160a01b0316816001600160a01b0316837f2f8788117e7eff1d82e926ec794901d17c78024a50270940304540a733656f0d60405160405180910390a45050565b60006200020f836001600160a01b03841662000218565b90505b92915050565b6000818152600183016020526040812054620002615750815460018181018455600084815260208082209093018490558454848252828601909352604090209190915562000212565b50600062000212565b828054620002789062000478565b90600052602060002090601f0160209004810192826200029c5760008555620002e7565b82601f10620002b757805160ff1916838001178555620002e7565b82800160010185558215620002e7579182015b82811115620002e7578251825591602001919060010190620002ca565b50620002f592915062000307565b5090565b6103768062001d8283390190565b5b80821115620002f5576000815560010162000308565b634e487b7160e01b600052604160045260246000fd5b600082601f8301126200034657600080fd5b81516001600160401b03808211156200036357620003636200031e565b604051601f8301601f19908116603f011681019082821181831017156200038e576200038e6200031e565b81604052838152602092508683858801011115620003ab57600080fd5b600091505b83821015620003cf5785820183015181830184015290820190620003b0565b83821115620003e15760008385830101525b9695505050505050565b6000806000606084860312156200040157600080fd5b83516001600160401b03808211156200041957600080fd5b620004278783880162000334565b945060208601519150808211156200043e57600080fd5b506200044d8682870162000334565b604086015190935090506001600160a01b03811681146200046d57600080fd5b809150509250925092565b600181811c908216806200048d57607f821691505b60208210811415620004af57634e487b7160e01b600052602260045260246000fd5b50919050565b6118bd80620004c56000396000f3fe608060405234801561001057600080fd5b50600436106101cf5760003560e01c80636b3e22fc116101045780639dc29fac116100a2578063ca15c87311610071578063ca15c873146103d9578063d5391393146103ec578063d547741f14610413578063dd62ed3e1461042657600080fd5b80639dc29fac14610398578063a217fddf146103ab578063a457c2d7146103b3578063a9059cbb146103c657600080fd5b80639010d07c116100de5780639010d07c1461035757806391d148541461036a5780639311ca691461037d57806395d89b411461039057600080fd5b80636b3e22fc1461031357806370a08231146103265780638a02775b1461034f57600080fd5b8063248a9ca3116101715780633287acee1161014b5780633287acee146102d257806333d57cdc146102e557806336568abe146102ed578063395093511461030057600080fd5b8063248a9ca31461028b5780632f2ff15d146102ae578063313ce567146102c357600080fd5b80630d4d1513116101ad5780630d4d15131461022457806316f0115b1461024557806318160ddd1461027057806323b872dd1461027857600080fd5b806301ffc9a7146101d457806306fdde03146101fc578063095ea7b314610211575b600080fd5b6101e76101e23660046114f2565b61045f565b60405190151581526020015b60405180910390f35b61020461048a565b6040516101f39190611548565b6101e761021f366004611597565b61051c565b6102376102323660046115c1565b610532565b6040519081526020016101f3565b600854610258906001600160a01b031681565b6040516001600160a01b0390911681526020016101f3565b600454610237565b6101e76102863660046115fd565b6105dd565b610237610299366004611639565b60009081526020819052604090206001015490565b6102c16102bc366004611652565b610687565b005b604051601281526020016101f3565b6102376102e0366004611639565b6106b2565b6102376106ff565b6102c16102fb366004611652565b610775565b6101e761030e366004611597565b6107f3565b610237610321366004611597565b61082f565b61023761033436600461167e565b6001600160a01b031660009081526002602052604090205490565b6102376108c8565b610258610365366004611699565b610936565b6101e7610378366004611652565b61094e565b600754610258906001600160a01b031681565b610204610977565b6102c16103a6366004611597565b610986565b610237600081565b6101e76103c1366004611597565b6109e0565b6101e76103d4366004611597565b610a79565b6102376103e7366004611639565b610a86565b6102377f9f2df0fed2c77648de5860a4cc508cd0818c85b8b8a1ab4ceeef8d981c8956a681565b6102c1610421366004611652565b610a9d565b6102376104343660046116bb565b6001600160a01b03918216600090815260036020908152604080832093909416825291909152205490565b60006001600160e01b03198216635a05180f60e01b1480610484575061048482610b5c565b92915050565b606060058054610499906116e5565b80601f01602080910402602001604051908101604052809291908181526020018280546104c5906116e5565b80156105125780601f106104e757610100808354040283529160200191610512565b820191906000526020600020905b8154815290600101906020018083116104f557829003601f168201915b5050505050905090565b6000610529338484610b91565b50600192915050565b600061055e7f9f2df0fed2c77648de5860a4cc508cd0818c85b8b8a1ab4ceeef8d981c8956a63361094e565b6105af5760405162461bcd60e51b815260206004820152601d60248201527f6d7573742068617665206d696e74657220726f6c6520746f206d696e7400000060448201526064015b60405180910390fd5b60006105bb838561082f565b905060006105c8826106b2565b90506105d48682610cb5565b95945050505050565b60006105ea848484610d94565b6001600160a01b03841660009081526003602090815260408083203384529091529020548281101561066f5760405162461bcd60e51b815260206004820152602860248201527f45524332303a207472616e7366657220616d6f756e74206578636565647320616044820152676c6c6f77616e636560c01b60648201526084016105a6565b61067c8533858403610b91565b506001949350505050565b6000828152602081905260409020600101546106a38133610f64565b6106ad8383610fc8565b505050565b6000806106bd6108c8565b90506106c860045490565b6106d3575090919050565b80836106de60045490565b6106e89190611730565b6106f2919061174f565b9392505050565b50919050565b60008061070b60045490565b116107495760405162461bcd60e51b815260206004820152600e60248201526d737570706c79206973207a65726f60901b60448201526064016105a6565b6004546107546108c8565b61076690670de0b6b3a7640000611730565b610770919061174f565b905090565b6001600160a01b03811633146107e55760405162461bcd60e51b815260206004820152602f60248201527f416363657373436f6e74726f6c3a2063616e206f6e6c792072656e6f756e636560448201526e103937b632b9903337b91039b2b63360891b60648201526084016105a6565b6107ef8282610fea565b5050565b3360008181526003602090815260408083206001600160a01b0387168452909152812054909161052991859061082a908690611771565b610b91565b6007546040516341976e0960e01b81526001600160a01b03848116600483015260009283929116906341976e0990602401602060405180830381865afa15801561087d573d6000803e3d6000fd5b505050506040513d601f19601f820116820180604052508101906108a19190611789565b9050670de0b6b3a76400006108b68483611730565b6108c0919061174f565b949350505050565b600854604080516375f4d67760e01b815290516000926001600160a01b0316916375f4d6779160048083019260209291908290030181865afa158015610912573d6000803e3d6000fd5b505050506040513d601f19601f820116820180604052508101906107709190611789565b60008281526001602052604081206106f2908361100c565b6000918252602082815260408084206001600160a01b0393909316845291905290205460ff1690565b606060068054610499906116e5565b600081116109d65760405162461bcd60e51b815260206004820181905260248201527f416d6f756e7420746f2072656465656d206e6565647320746f206265203e203060448201526064016105a6565b6107ef8282611018565b3360009081526003602090815260408083206001600160a01b038616845290915281205482811015610a625760405162461bcd60e51b815260206004820152602560248201527f45524332303a2064656372656173656420616c6c6f77616e63652062656c6f77604482015264207a65726f60d81b60648201526084016105a6565b610a6f3385858403610b91565b5060019392505050565b6000610529338484610d94565b600081815260016020526040812061048490611166565b600082815260208190526040902060010154610ab98133610f64565b6106ad8383610fea565b610acd828261094e565b6107ef576000828152602081815260408083206001600160a01b03851684529091529020805460ff19166001179055610b033390565b6001600160a01b0316816001600160a01b0316837f2f8788117e7eff1d82e926ec794901d17c78024a50270940304540a733656f0d60405160405180910390a45050565b60006106f2836001600160a01b038416611170565b60006001600160e01b03198216637965db0b60e01b148061048457506301ffc9a760e01b6001600160e01b0319831614610484565b6001600160a01b038316610bf35760405162461bcd60e51b8152602060048201526024808201527f45524332303a20617070726f76652066726f6d20746865207a65726f206164646044820152637265737360e01b60648201526084016105a6565b6001600160a01b038216610c545760405162461bcd60e51b815260206004820152602260248201527f45524332303a20617070726f766520746f20746865207a65726f206164647265604482015261737360f01b60648201526084016105a6565b6001600160a01b0383811660008181526003602090815260408083209487168084529482529182902085905590518481527f8c5be1e5ebec7d5bd14f71427d1e84f3dd0314c0f7b2291e5b200ac8c7c3b925910160405180910390a3505050565b6001600160a01b038216610d0b5760405162461bcd60e51b815260206004820152601f60248201527f45524332303a206d696e7420746f20746865207a65726f20616464726573730060448201526064016105a6565b8060046000828254610d1d9190611771565b90915550506001600160a01b03821660009081526002602052604081208054839290610d4a908490611771565b90915550506040518181526001600160a01b038316906000907fddf252ad1be2c89b69c2b068fc378daa952ba7f163c4a11628f55a4df523b3ef9060200160405180910390a35050565b6001600160a01b038316610df85760405162461bcd60e51b815260206004820152602560248201527f45524332303a207472616e736665722066726f6d20746865207a65726f206164604482015264647265737360d81b60648201526084016105a6565b6001600160a01b038216610e5a5760405162461bcd60e51b815260206004820152602360248201527f45524332303a207472616e7366657220746f20746865207a65726f206164647260448201526265737360e81b60648201526084016105a6565b6001600160a01b03831660009081526002602052604090205481811015610ed25760405162461bcd60e51b815260206004820152602660248201527f45524332303a207472616e7366657220616d6f756e7420657863656564732062604482015265616c616e636560d01b60648201526084016105a6565b6001600160a01b03808516600090815260026020526040808220858503905591851681529081208054849290610f09908490611771565b92505081905550826001600160a01b0316846001600160a01b03167fddf252ad1be2c89b69c2b068fc378daa952ba7f163c4a11628f55a4df523b3ef84604051610f5591815260200190565b60405180910390a35b50505050565b610f6e828261094e565b6107ef57610f86816001600160a01b031660146111bf565b610f918360206111bf565b604051602001610fa29291906117a2565b60408051601f198184030181529082905262461bcd60e51b82526105a691600401611548565b610fd28282610ac3565b60008281526001602052604090206106ad9082610b47565b610ff4828261135b565b60008281526001602052604090206106ad90826113c0565b60006106f283836113d5565b6001600160a01b0382166110785760405162461bcd60e51b815260206004820152602160248201527f45524332303a206275726e2066726f6d20746865207a65726f206164647265736044820152607360f81b60648201526084016105a6565b6001600160a01b038216600090815260026020526040902054818110156110ec5760405162461bcd60e51b815260206004820152602260248201527f45524332303a206275726e20616d6f756e7420657863656564732062616c616e604482015261636560f01b60648201526084016105a6565b6001600160a01b038316600090815260026020526040812083830390556004805484929061111b908490611817565b90915550506040518281526000906001600160a01b038516907fddf252ad1be2c89b69c2b068fc378daa952ba7f163c4a11628f55a4df523b3ef9060200160405180910390a3505050565b6000610484825490565b60008181526001830160205260408120546111b757508154600181810184556000848152602080822090930184905584548482528286019093526040902091909155610484565b506000610484565b606060006111ce836002611730565b6111d9906002611771565b67ffffffffffffffff8111156111f1576111f161182e565b6040519080825280601f01601f19166020018201604052801561121b576020820181803683370190505b509050600360fc1b8160008151811061123657611236611844565b60200101906001600160f81b031916908160001a905350600f60fb1b8160018151811061126557611265611844565b60200101906001600160f81b031916908160001a9053506000611289846002611730565b611294906001611771565b90505b600181111561130c576f181899199a1a9b1b9c1cb0b131b232b360811b85600f16601081106112c8576112c8611844565b1a60f81b8282815181106112de576112de611844565b60200101906001600160f81b031916908160001a90535060049490941c936113058161185a565b9050611297565b5083156106f25760405162461bcd60e51b815260206004820181905260248201527f537472696e67733a20686578206c656e67746820696e73756666696369656e7460448201526064016105a6565b611365828261094e565b156107ef576000828152602081815260408083206001600160a01b0385168085529252808320805460ff1916905551339285917ff6391f5c32d9c69d2a47ea670b442974b53935d1edc7fd64eb21e047a839171b9190a45050565b60006106f2836001600160a01b0384166113ff565b60008260000182815481106113ec576113ec611844565b9060005260206000200154905092915050565b600081815260018301602052604081205480156114e8576000611423600183611817565b855490915060009061143790600190611817565b905081811461149c57600086600001828154811061145757611457611844565b906000526020600020015490508087600001848154811061147a5761147a611844565b6000918252602080832090910192909255918252600188019052604090208390555b85548690806114ad576114ad611871565b600190038181906000526020600020016000905590558560010160008681526020019081526020016000206000905560019350505050610484565b6000915050610484565b60006020828403121561150457600080fd5b81356001600160e01b0319811681146106f257600080fd5b60005b8381101561153757818101518382015260200161151f565b83811115610f5e5750506000910152565b602081526000825180602084015261156781604085016020870161151c565b601f01601f19169190910160400192915050565b80356001600160a01b038116811461159257600080fd5b919050565b600080604083850312156115aa57600080fd5b6115b38361157b565b946020939093013593505050565b6000806000606084860312156115d657600080fd5b6115df8461157b565b9250602084013591506115f46040850161157b565b90509250925092565b60008060006060848603121561161257600080fd5b61161b8461157b565b92506116296020850161157b565b9150604084013590509250925092565b60006020828403121561164b57600080fd5b5035919050565b6000806040838503121561166557600080fd5b823591506116756020840161157b565b90509250929050565b60006020828403121561169057600080fd5b6106f28261157b565b600080604083850312156116ac57600080fd5b50508035926020909101359150565b600080604083850312156116ce57600080fd5b6116d78361157b565b91506116756020840161157b565b600181811c908216806116f957607f821691505b602082108114156106f957634e487b7160e01b600052602260045260246000fd5b634e487b7160e01b600052601160045260246000fd5b600081600019048311821515161561174a5761174a61171a565b500290565b60008261176c57634e487b7160e01b600052601260045260246000fd5b500490565b600082198211156117845761178461171a565b500190565b60006020828403121561179b57600080fd5b5051919050565b7f416363657373436f6e74726f6c3a206163636f756e74200000000000000000008152600083516117da81601785016020880161151c565b7001034b99036b4b9b9b4b733903937b6329607d1b601791840191820152835161180b81602884016020880161151c565b01602801949350505050565b6000828210156118295761182961171a565b500390565b634e487b7160e01b600052604160045260246000fd5b634e487b7160e01b600052603260045260246000fd5b6000816118695761186961171a565b506000190190565b634e487b7160e01b600052603160045260246000fdfea2646970667358221220853f37444294b3b57c53c7a6af14a6eb3ebc79fb870f92391d3d90e4b8cd255464736f6c634300080b0033608060405234801561001057600080fd5b50600060208190527f4e2753d238f0f4cb8962490717ab551b4c023808c7bc37aed6e8760bfc3a92d580546001600160a01b031990811673d8bd0a1cb028a31aa859a21a3758685a95de462317909155735592ec0cfb4dbc12d3ab100b257153436a1f0fea9091527ff4e9730789baae4355b7b087afa1a57a24c222e690ce50ce909b525e8495925b8054909116732ba49aaa16e6afd2a993473cfb70fa8559b523cf1790556102b1806100c56000396000f3fe608060405234801561001057600080fd5b50600436106100365760003560e01c806341976e091461003b5780634238dc4714610061575b600080fd5b61004e610049366004610141565b6100a2565b6040519081526020015b60405180910390f35b61008a61006f366004610141565b6000602081905290815260409020546001600160a01b031681565b6040516001600160a01b039091168152602001610058565b6001600160a01b03808216600090815260208190526040808220548151633fabe5a360e21b81529151929316918391839163feaf968c9160048082019260a0929091908290030181865afa1580156100fe573d6000803e3d6000fd5b505050506040513d601f19601f820116820180604052508101906101229190610190565b505050915050806402540be40061013991906101f6565b949350505050565b60006020828403121561015357600080fd5b81356001600160a01b038116811461016a57600080fd5b9392505050565b805169ffffffffffffffffffff8116811461018b57600080fd5b919050565b600080600080600060a086880312156101a857600080fd5b6101b186610171565b94506020860151935060408601519250606086015191506101d460808701610171565b90509295509295909350565b634e487b7160e01b600052601160045260246000fd5b60006001600160ff1b038184138284138082168684048611161561021c5761021c6101e0565b600160ff1b600087128281168783058912161561023b5761023b6101e0565b60008712925087820587128484161615610257576102576101e0565b8785058712818416161561026d5761026d6101e0565b50505092909302939250505056fea264697066735822122072c48f6e00c5a52cb863487a9419bc6a66d0f63d77321e88f47fe70ef4f6aac064736f6c634300080b00336080604052600260015534801561001557600080fd5b50604051610e04380380610e0483398101604081905261003491610130565b600680546001600160a01b038085166001600160a01b031992831617909255600780549284169290911691909117905560405161007090610107565b604051809103906000f08015801561008c573d6000803e3d6000fd5b50600080546001600160a01b0319166001600160a01b0392909216919091178155600260018190556040805160208082019092528381527301be23585060835e02b77ef475b0cc51aa1e070990935252517fed3674b09469bf4c18c58b5c17b6619c2db43f90b5389a6501b1af546f40b64a55506101639050565b61037680610a8e83390190565b80516001600160a01b038116811461012b57600080fd5b919050565b6000806040838503121561014357600080fd5b61014c83610114565b915061015a60208401610114565b90509250929050565b61091c806101726000396000f3fe608060405234801561001057600080fd5b506004361061009e5760003560e01c80639311ca69116100665780639311ca691461014b578063a347e24c1461015e578063f8b2cb4f14610187578063f970c3b71461019a578063fc0c546a146101ad57600080fd5b806309404954146100a357806316f0115b146100bf5780632b92a07d146100ea5780637544aa44146101235780638eabd4fe14610136575b600080fd5b6100ac60015481565b6040519081526020015b60405180910390f35b6006546100d2906001600160a01b031681565b6040516001600160a01b0390911681526020016100b6565b6100ac6100f8366004610701565b6001600160a01b03918216600090815260036020908152604080832093909416825291909152205490565b6100ac610131366004610734565b6101c0565b610149610144366004610767565b61030a565b005b6000546100d2906001600160a01b031681565b6100ac61016c366004610734565b6001600160a01b031660009081526002602052604090205490565b6100ac610195366004610734565b610508565b6101496101a83660046107b6565b610579565b6007546100d2906001600160a01b031681565b6005546000908190815b818161ffff1610156103015760005460058054670de0b6b3a7640000926001600160a01b0316916341976e099161ffff861690811061020b5761020b6107f2565b60009182526020909120015460405160e083901b6001600160e01b03191681526001600160a01b039091166004820152602401602060405180830381865afa15801561025b573d6000803e3d6000fd5b505050506040513d601f19601f8201168201806040525081019061027f9190610808565b6003600060058561ffff168154811061029a5761029a6107f2565b60009182526020808320909101546001600160a01b0390811684528382019490945260409283018220938b168252929092529020546102d99190610837565b6102e39190610856565b6102ed9084610878565b9250806102f981610890565b9150506101ca565b50909392505050565b600181151514156103fe5760065460405163095ea7b360e01b81526001600160a01b039182166004820152602481018490529084169063095ea7b3906044016020604051808303816000875af1158015610368573d6000803e3d6000fd5b505050506040513d601f19601f8201168201806040525081019061038c91906108b2565b50600654604051631740ecaf60e11b81523060048201526001600160a01b0385811660248301526044820185905290911690632e81d95e90606401600060405180830381600087803b1580156103e157600080fd5b505af11580156103f5573d6000803e3d6000fd5b50505050610473565b60405163a9059cbb60e01b81526001600160a01b0385811660048301526024820184905284169063a9059cbb906044016020604051808303816000875af115801561044d573d6000803e3d6000fd5b505050506040513d601f19601f8201168201806040525081019061047191906108b2565b505b6001600160a01b038084166000908152600360209081526040808320938816835292905290812080548492906104aa9084906108cf565b90915550506001600160a01b03808416600090815260036020908152604080832093881683529290522054610502576001600160a01b0380841660009081526003602090815260408083209388168352929052908120555b50505050565b6040516370a0823160e01b81523060048201526000906001600160a01b038316906370a0823190602401602060405180830381865afa15801561054f573d6000803e3d6000fd5b505050506040513d601f19601f820116820180604052508101906105739190610808565b92915050565b6040516323b872dd60e01b81526001600160a01b038481166004830152306024830152604482018390528316906323b872dd906064016020604051808303816000875af11580156105ce573d6000803e3d6000fd5b505050506040513d601f19601f820116820180604052508101906105f291906108b2565b506001600160a01b0382166000908152600260205260408120805483929061061b908490610878565b90915550506001600160a01b03808316600090815260036020908152604080832093871683529290529081208054839290610657908490610878565b90915550506001600160a01b03821660009081526004602052604090205460ff166106e0576005805460018082019092557f036b6384b5eca791c62761152d0c79bb0604c104a5fb6f4eb0703f3154bb3db00180546001600160a01b0319166001600160a01b0385169081179091556000908152600460205260409020805460ff191690911790555b505050565b80356001600160a01b03811681146106fc57600080fd5b919050565b6000806040838503121561071457600080fd5b61071d836106e5565b915061072b602084016106e5565b90509250929050565b60006020828403121561074657600080fd5b61074f826106e5565b9392505050565b801515811461076457600080fd5b50565b6000806000806080858703121561077d57600080fd5b610786856106e5565b9350610794602086016106e5565b92506040850135915060608501356107ab81610756565b939692955090935050565b6000806000606084860312156107cb57600080fd5b6107d4846106e5565b92506107e2602085016106e5565b9150604084013590509250925092565b634e487b7160e01b600052603260045260246000fd5b60006020828403121561081a57600080fd5b5051919050565b634e487b7160e01b600052601160045260246000fd5b600081600019048311821515161561085157610851610821565b500290565b60008261087357634e487b7160e01b600052601260045260246000fd5b500490565b6000821982111561088b5761088b610821565b500190565b600061ffff808316818114156108a8576108a8610821565b6001019392505050565b6000602082840312156108c457600080fd5b815161074f81610756565b6000828210156108e1576108e1610821565b50039056fea26469706673582212203d05f2a21c4abb5c80ace3da7c83cea559c6162bbdf69cb77459fb57176dcf3c64736f6c634300080b0033608060405234801561001057600080fd5b50600060208190527f4e2753d238f0f4cb8962490717ab551b4c023808c7bc37aed6e8760bfc3a92d580546001600160a01b031990811673d8bd0a1cb028a31aa859a21a3758685a95de462317909155735592ec0cfb4dbc12d3ab100b257153436a1f0fea9091527ff4e9730789baae4355b7b087afa1a57a24c222e690ce50ce909b525e8495925b8054909116732ba49aaa16e6afd2a993473cfb70fa8559b523cf1790556102b1806100c56000396000f3fe608060405234801561001057600080fd5b50600436106100365760003560e01c806341976e091461003b5780634238dc4714610061575b600080fd5b61004e610049366004610141565b6100a2565b6040519081526020015b60405180910390f35b61008a61006f366004610141565b6000602081905290815260409020546001600160a01b031681565b6040516001600160a01b039091168152602001610058565b6001600160a01b03808216600090815260208190526040808220548151633fabe5a360e21b81529151929316918391839163feaf968c9160048082019260a0929091908290030181865afa1580156100fe573d6000803e3d6000fd5b505050506040513d601f19601f820116820180604052508101906101229190610190565b505050915050806402540be40061013991906101f6565b949350505050565b60006020828403121561015357600080fd5b81356001600160a01b038116811461016a57600080fd5b9392505050565b805169ffffffffffffffffffff8116811461018b57600080fd5b919050565b600080600080600060a086880312156101a857600080fd5b6101b186610171565b94506020860151935060408601519250606086015191506101d460808701610171565b90509295509295909350565b634e487b7160e01b600052601160045260246000fd5b60006001600160ff1b038184138284138082168684048611161561021c5761021c6101e0565b600160ff1b600087128281168783058912161561023b5761023b6101e0565b60008712925087820587128484161615610257576102576101e0565b8785058712818416161561026d5761026d6101e0565b50505092909302939250505056fea264697066735822122072c48f6e00c5a52cb863487a9419bc6a66d0f63d77321e88f47fe70ef4f6aac064736f6c634300080b0033608060405234801561001057600080fd5b50600060208190527f4e2753d238f0f4cb8962490717ab551b4c023808c7bc37aed6e8760bfc3a92d580546001600160a01b031990811673d8bd0a1cb028a31aa859a21a3758685a95de462317909155735592ec0cfb4dbc12d3ab100b257153436a1f0fea9091527ff4e9730789baae4355b7b087afa1a57a24c222e690ce50ce909b525e8495925b8054909116732ba49aaa16e6afd2a993473cfb70fa8559b523cf1790556102b1806100c56000396000f3fe608060405234801561001057600080fd5b50600436106100365760003560e01c806341976e091461003b5780634238dc4714610061575b600080fd5b61004e610049366004610141565b6100a2565b6040519081526020015b60405180910390f35b61008a61006f366004610141565b6000602081905290815260409020546001600160a01b031681565b6040516001600160a01b039091168152602001610058565b6001600160a01b03808216600090815260208190526040808220548151633fabe5a360e21b81529151929316918391839163feaf968c9160048082019260a0929091908290030181865afa1580156100fe573d6000803e3d6000fd5b505050506040513d601f19601f820116820180604052508101906101229190610190565b505050915050806402540be40061013991906101f6565b949350505050565b60006020828403121561015357600080fd5b81356001600160a01b038116811461016a57600080fd5b9392505050565b805169ffffffffffffffffffff8116811461018b57600080fd5b919050565b600080600080600060a086880312156101a857600080fd5b6101b186610171565b94506020860151935060408601519250606086015191506101d460808701610171565b90509295509295909350565b634e487b7160e01b600052601160045260246000fd5b60006001600160ff1b038184138284138082168684048611161561021c5761021c6101e0565b600160ff1b600087128281168783058912161561023b5761023b6101e0565b60008712925087820587128484161615610257576102576101e0565b8785058712818416161561026d5761026d6101e0565b50505092909302939250505056fea264697066735822122072c48f6e00c5a52cb863487a9419bc6a66d0f63d77321e88f47fe70ef4f6aac064736f6c634300080b0033","bytecodeSha1":"b2b1eebdeeae859b94720dd554aae95a99f781f5","type":"contract","abi":[{"inputs":[],"stateMutability":"nonpayable","type":"constructor","name":"constructor"},{"anonymous":false,"inputs":[{"indexed":false,"internalType":"address","name":"_user","type":"address"},{"indexed":false,"internalType":"uint256","name":"_borrowed","type":"uint256"},{"indexed":false,"internalType":"address","name":"_borrowedAsset","type":"address"},{"indexed":false,"internalType":"uint256","name":"_collateral","type":"uint256"},{"indexed":false,"internalType":"address","name":"_collateralAsset","type":"address"}],"name":"borrowEvent","type":"event"},{"anonymous":false,"inputs":[{"indexed":false,"internalType":"address","name":"_user","type":"address"},{"indexed":false,"internalType":"uint256","name":"_quantity","type":"uint256"},{"indexed":false,"internalType":"address","name":"_asset","type":"address"}],"name":"depositEvent","type":"event"},{"inputs":[{"internalType":"uint256","name":"_borrowQuantity","type":"uint256"},{"internalType":"address","name":"_asset","type":"address"},{"internalType":"uint256","name":"_collateralQuantity","type":"uint256"},{"internalType":"address","name":"_collateral","type":"address"}],"name":"Borrow","outputs":[],"stateMutability":"nonpayable","type":"function"},{"inputs":[{"internalType":"uint256","name":"_quantity","type":"uint256"},{"internalType":"address","name":"_asset","type":"address"}],"name":"Deposit","outputs":[],"stateMutability":"nonpayable","type":"function"},{"inputs":[{"internalType":"address","name":"_asset","type":"address"},{"internalType":"uint256","name":"_repayQuantity","type":"uint256"}],"name":"Repay","outputs":[],"stateMutability":"nonpayable","type":"function"},{"inputs":[{"internalType":"address","name":"_desiredAsset","type":"address"},{"internalType":"uint256","name":"_tokenQuantity","type":"uint256"}],"name":"Withdraw","outputs":[],"stateMutability":"nonpayable","type":"function"},{"inputs":[],"name":"accrueInterest","outputs":[],"stateMutability":"nonpayable","type":"function"},{"inputs":[{"internalType":"address","name":"","type":"address"},{"internalType":"address","name":"","type":"address"}],"name":"borrowTracker","outputs":[{"internalType":"uint256","name":"principal","type":"uint256"},{"internalType":"uint256","name":"interest","type":"uint256"}],"stateMutability":"view","type":"function"},{"inputs":[],"name":"collateral","outputs":[{"internalType":"contract Collateral","name":"","type":"address"}],"stateMutability":"view","type":"function"},{"inputs":[],"name":"conversion","outputs":[{"internalType":"contract Conversion","name":"","type":"address"}],"stateMutability":"view","type":"function"},{"inputs":[{"internalType":"address","name":"_user","type":"address"}],"name":"getBalanceOf","outputs":[{"internalType":"uint256","name":"","type":"uint256"}],"stateMutability":"view","type":"function"},{"inputs":[],"name":"getCollAddr","outputs":[{"internalType":"address","name":"","type":"address"}],"stateMutability":"view","type":"function"},{"inputs":[{"internalType":"address","name":"_token","type":"address"}],"name":"getCollBalance","outputs":[{"internalType":"uint256","name":"","type":"uint256"}],"stateMutability":"view","type":"function"},{"inputs":[{"internalType":"address","name":"_user","type":"address"}],"name":"getCollateralValue","outputs":[{"internalType":"uint256","name":"","type":"uint256"}],"stateMutability":"view","type":"function"},{"inputs":[{"internalType":"address","name":"_asset","type":"address"}],"name":"getInterestRate","outputs":[{"internalType":"uint256","name":"","type":"uint256"}],"stateMutability":"view","type":"function"},{"inputs":[{"internalType":"address","name":"_token","type":"address"}],"name":"getLiquidPct","outputs":[{"internalType":"uint256","name":"","type":"uint256"}],"stateMutability":"view","type":"function"},{"inputs":[{"internalType":"address","name":"_token","type":"address"}],"name":"getLiquidity","outputs":[{"internalType":"uint256","name":"","type":"uint256"}],"stateMutability":"view","type":"function"},{"inputs":[{"internalType":"address","name":"_token","type":"address"}],"name":"getLockedCollateral","outputs":[{"internalType":"uint256","name":"","type":"uint256"}],"stateMutability":"view","type":"function"},{"inputs":[{"internalType":"address","name":"_user","type":"address"},{"internalType":"address","name":"_asset","type":"address"}],"name":"getOutstandingLoan","outputs":[{"internalType":"uint256","name":"","type":"uint256"}],"stateMutability":"view","type":"function"},{"inputs":[],"name":"getPoolAddr","outputs":[{"internalType":"address","name":"","type":"address"}],"stateMutability":"view","type":"function"},{"inputs":[{"internalType":"address","name":"_token","type":"address"}],"name":"getPoolBalance","outputs":[{"internalType":"uint256","name":"","type":"uint256"}],"stateMutability":"view","type":"function"},{"inputs":[],"name":"getPoolValue","outputs":[{"internalType":"uint256","name":"","type":"uint256"}],"stateMutability":"view","type":"function"},{"inputs":[],"name":"getTokenAddr","outputs":[{"internalType":"address","name":"","type":"address"}],"stateMutability":"view","type":"function"},{"inputs":[],"name":"getTokenDollarValue","outputs":[{"internalType":"uint256","name":"","type":"uint256"}],"stateMutability":"view","type":"function"},{"inputs":[{"internalType":"address","name":"_asset","type":"address"}],"name":"getTotalInterest","outputs":[{"internalType":"uint256","name":"","type":"uint256"}],"stateMutability":"view","type":"function"},{"inputs":[],"name":"getTotalSupply","outputs":[{"internalType":"uint256","name":"","type":"uint256"}],"stateMutability":"view","type":"function"},{"inputs":[{"internalType":"address","name":"_user","type":"address"},{"internalType":"address","name":"_asset","type":"address"}],"name":"getUserCollateral","outputs":[{"internalType":"uint256","name":"","type":"uint256"}],"stateMutability":"view","type":"function"},{"inputs":[{"internalType":"address","name":"_user","type":"address"},{"internalType":"address","name":"_asset","type":"address"}],"name":"interestQuantity","outputs":[{"internalType":"uint256","name":"","type":"uint256"}],"stateMutability":"view","type":"function"},{"inputs":[],"name":"liquidityManager","outputs":[],"stateMutability":"nonpayable","type":"function"},{"inputs":[{"internalType":"uint256","name":"a","type":"uint256"},{"internalType":"uint256","name":"b","type":"uint256"}],"name":"minimum","outputs":[{"internalType":"uint256","name":"","type":"uint256"}],"stateMutability":"pure","type":"function"},{"inputs":[],"name":"offerCollateralAssets","outputs":[],"stateMutability":"nonpayable","type":"function"},{"inputs":[],"name":"payoutInterest","outputs":[],"stateMutability":"nonpayable","type":"function"},{"inputs":[],"name":"pool","outputs":[{"internalType":"contract Pool","name":"","type":"address"}],"stateMutability":"view","type":"function"},{"inputs":[],"name":"token","outputs":[{"internalType":"contract LVRToken","name":"","type":"address"}],"stateMutability":"view","type":"function"},{"inputs":[{"internalType":"address","name":"_borrower","type":"address"}],"name":"totalValueBorrowed","outputs":[{"internalType":"uint256","name":"","type":"uint256"}],"stateMutability":"view","type":"function"},{"inputs":[{"internalType":"address","name":"_asset","type":"address"},{"internalType":"uint256","name":"_quantity","type":"uint256"},{"internalType":"bool","name":"_toPool","type":"bool"}],"name":"unlockCollateral","outputs":[],"stateMutability":"nonpayable","type":"function"}],"compiler":{"version":"0.8.11+commit.d7f03943","evm_version":"istanbul","optimizer":{"enabled":true,"runs":200}},"contractName":"LendingPool","language":"Solidity","natspec":{"methods":{},"kind":"dev","version":1},"opcodes":"PUSH1 0x80 PUSH1 0x40 MSTORE CALLVALUE DUP1 ISZERO PUSH2 0x10 JUMPI PUSH1 0x0 DUP1 REVERT JUMPDEST POP PUSH1 0x4 CALLDATASIZE LT PUSH2 0x206 JUMPI PUSH1 0x0 CALLDATALOAD PUSH1 0xE0 SHR DUP1 PUSH4 0x9B96EECE GT PUSH2 0x11A JUMPI DUP1 PUSH4 0xD28682EA GT PUSH2 0xAD JUMPI DUP1 PUSH4 0xDD2D2A12 GT PUSH2 0x7C JUMPI DUP1 PUSH4 0xDD2D2A12 EQ PUSH2 0x45C JUMPI DUP1 PUSH4 0xDE259242 EQ PUSH2 0x46F JUMPI DUP1 PUSH4 0xDE30F97D EQ PUSH2 0x480 JUMPI DUP1 PUSH4 0xF2DF757B EQ PUSH2 0x493 JUMPI DUP1 PUSH4 0xFC0C546A EQ PUSH2 0x4A6 JUMPI PUSH1 0x0 DUP1 REVERT JUMPDEST DUP1 PUSH4 0xD28682EA EQ PUSH2 0x410 JUMPI DUP1 PUSH4 0xD3EA0F89 EQ PUSH2 0x423 JUMPI DUP1 PUSH4 0xD49AB22C EQ PUSH2 0x436 JUMPI DUP1 PUSH4 0xD8DFEB45 EQ PUSH2 0x449 JUMPI PUSH1 0x0 DUP1 REVERT JUMPDEST DUP1 PUSH4 0xA78E4046 GT PUSH2 0xE9 JUMPI DUP1 PUSH4 0xA78E4046 EQ PUSH2 0x3A5 JUMPI DUP1 PUSH4 0xB9E037E6 EQ PUSH2 0x3B8 JUMPI DUP1 PUSH4 0xC0F2B1CF EQ PUSH2 0x3CB JUMPI DUP1 PUSH4 0xC4E41B22 EQ PUSH2 0x408 JUMPI PUSH1 0x0 DUP1 REVERT JUMPDEST DUP1 PUSH4 0x9B96EECE EQ PUSH2 0x364 JUMPI DUP1 PUSH4 0xA55E8668 EQ PUSH2 0x377 JUMPI DUP1 PUSH4 0xA6AFED95 EQ PUSH2 0x38A JUMPI DUP1 PUSH4 0xA747B93B EQ PUSH2 0x392 JUMPI PUSH1 0x0 DUP1 REVERT JUMPDEST DUP1 PUSH4 0x511C5661 GT PUSH2 0x19D JUMPI DUP1 PUSH4 0x6AAA434E GT PUSH2 0x16C JUMPI DUP1 PUSH4 0x6AAA434E EQ PUSH2 0x2DC JUMPI DUP1 PUSH4 0x6DB18093 EQ PUSH2 0x323 JUMPI DUP1 PUSH4 0x884EDAD9 EQ PUSH2 0x32B JUMPI DUP1 PUSH4 0x9311CA69 EQ PUSH2 0x33E JUMPI DUP1 PUSH4 0x97904E42 EQ PUSH2 0x351 JUMPI PUSH1 0x0 DUP1 REVERT JUMPDEST DUP1 PUSH4 0x511C5661 EQ PUSH2 0x294 JUMPI DUP1 PUSH4 0x582B2720 EQ PUSH2 0x2A7 JUMPI DUP1 PUSH4 0x5C16DE4F EQ PUSH2 0x2B8 JUMPI DUP1 PUSH4 0x63E36DAC EQ PUSH2 0x2CB JUMPI PUSH1 0x0 DUP1 REVERT JUMPDEST DUP1 PUSH4 0x243D8E05 GT PUSH2 0x1D9 JUMPI DUP1 PUSH4 0x243D8E05 EQ PUSH2 0x26C JUMPI DUP1 PUSH4 0x33827438 EQ PUSH2 0x26C JUMPI DUP1 PUSH4 0x46C928FC EQ PUSH2 0x26E JUMPI DUP1 PUSH4 0x4BCC1709 EQ PUSH2 0x281 JUMPI PUSH1 0x0 DUP1 REVERT JUMPDEST DUP1 PUSH4 0x57393C0 EQ PUSH2 0x20B JUMPI DUP1 PUSH4 0x16F0115B EQ PUSH2 0x231 JUMPI DUP1 PUSH4 0x1BA2F531 EQ PUSH2 0x25C JUMPI DUP1 PUSH4 0x2273323F EQ PUSH2 0x264 JUMPI JUMPDEST PUSH1 0x0 DUP1 REVERT JUMPDEST PUSH2 0x21E PUSH2 0x219 CALLDATASIZE PUSH1 0x4 PUSH2 0x2337 JUMP JUMPDEST PUSH2 0x4B9 JUMP JUMPDEST PUSH1 0x40 MLOAD SWAP1 DUP2 MSTORE PUSH1 0x20 ADD JUMPDEST PUSH1 0x40 MLOAD DUP1 SWAP2 SUB SWAP1 RETURN JUMPDEST PUSH1 0x1 SLOAD PUSH2 0x244 SWAP1 PUSH1 0x1 PUSH1 0x1 PUSH1 0xA0 SHL SUB AND DUP2 JUMP JUMPDEST PUSH1 0x40 MLOAD PUSH1 0x1 PUSH1 0x1 PUSH1 0xA0 SHL SUB SWAP1 SWAP2 AND DUP2 MSTORE PUSH1 0x20 ADD PUSH2 0x228 JUMP JUMPDEST PUSH2 0x21E PUSH2 0x52F JUMP JUMPDEST PUSH2 0x26C PUSH2 0x5AD JUMP JUMPDEST STOP JUMPDEST PUSH2 0x26C PUSH2 0x27C CALLDATASIZE PUSH1 0x4 PUSH2 0x2352 JUMP JUMPDEST PUSH2 0xA88 JUMP JUMPDEST PUSH2 0x26C PUSH2 0x28F CALLDATASIZE PUSH1 0x4 PUSH2 0x2398 JUMP JUMPDEST PUSH2 0xF62 JUMP JUMPDEST PUSH2 0x21E PUSH2 0x2A2 CALLDATASIZE PUSH1 0x4 PUSH2 0x2337 JUMP JUMPDEST PUSH2 0x120C JUMP JUMPDEST PUSH1 0x4 SLOAD PUSH1 0x1 PUSH1 0x1 PUSH1 0xA0 SHL SUB AND PUSH2 0x244 JUMP JUMPDEST PUSH2 0x26C PUSH2 0x2C6 CALLDATASIZE PUSH1 0x4 PUSH2 0x23C4 JUMP JUMPDEST PUSH2 0x123F JUMP JUMPDEST PUSH1 0x2 SLOAD PUSH1 0x1 PUSH1 0x1 PUSH1 0xA0 SHL SUB AND PUSH2 0x244 JUMP JUMPDEST PUSH2 0x30E PUSH2 0x2EA CALLDATASIZE PUSH1 0x4 PUSH2 0x23EE JUMP JUMPDEST PUSH1 0xA PUSH1 0x20 SWAP1 DUP2 MSTORE PUSH1 0x0 SWAP3 DUP4 MSTORE PUSH1 0x40 DUP1 DUP5 KECCAK256 SWAP1 SWAP2 MSTORE SWAP1 DUP3 MSTORE SWAP1 KECCAK256 DUP1 SLOAD PUSH1 0x1 SWAP1 SWAP2 ADD SLOAD DUP3 JUMP JUMPDEST PUSH1 0x40 DUP1 MLOAD SWAP3 DUP4 MSTORE PUSH1 0x20 DUP4 ADD SWAP2 SWAP1 SWAP2 MSTORE ADD PUSH2 0x228 JUMP JUMPDEST PUSH2 0x21E PUSH2 0x1494 JUMP JUMPDEST PUSH2 0x26C PUSH2 0x339 CALLDATASIZE PUSH1 0x4 PUSH2 0x23C4 JUMP JUMPDEST PUSH2 0x14E9 JUMP JUMPDEST PUSH1 0x0 SLOAD PUSH2 0x244 SWAP1 PUSH1 0x1 PUSH1 0x1 PUSH1 0xA0 SHL SUB AND DUP2 JUMP JUMPDEST PUSH2 0x21E PUSH2 0x35F CALLDATASIZE PUSH1 0x4 PUSH2 0x2337 JUMP JUMPDEST PUSH2 0x18AF JUMP JUMPDEST PUSH2 0x21E PUSH2 0x372 CALLDATASIZE PUSH1 0x4 PUSH2 0x2337 JUMP JUMPDEST PUSH2 0x18E2 JUMP JUMPDEST PUSH2 0x21E PUSH2 0x385 CALLDATASIZE PUSH1 0x4 PUSH2 0x23EE JUMP JUMPDEST PUSH2 0x191A JUMP JUMPDEST PUSH2 0x26C PUSH2 0x1998 JUMP JUMPDEST PUSH2 0x21E PUSH2 0x3A0 CALLDATASIZE PUSH1 0x4 PUSH2 0x2337 JUMP JUMPDEST PUSH2 0x1B82 JUMP JUMPDEST PUSH2 0x21E PUSH2 0x3B3 CALLDATASIZE PUSH1 0x4 PUSH2 0x23EE JUMP JUMPDEST PUSH2 0x1BB5 JUMP JUMPDEST PUSH2 0x26C PUSH2 0x3C6 CALLDATASIZE PUSH1 0x4 PUSH2 0x2418 JUMP JUMPDEST PUSH2 0x1BED JUMP JUMPDEST PUSH2 0x21E PUSH2 0x3D9 CALLDATASIZE PUSH1 0x4 PUSH2 0x23EE JUMP JUMPDEST PUSH1 0x1 PUSH1 0x1 PUSH1 0xA0 SHL SUB DUP1 DUP3 AND PUSH1 0x0 SWAP1 DUP2 MSTORE PUSH1 0xA PUSH1 0x20 SWAP1 DUP2 MSTORE PUSH1 0x40 DUP1 DUP4 KECCAK256 SWAP4 DUP7 AND DUP4 MSTORE SWAP3 SWAP1 MSTORE KECCAK256 PUSH1 0x1 ADD SLOAD SWAP3 SWAP2 POP POP JUMP JUMPDEST PUSH2 0x21E PUSH2 0x20AC JUMP JUMPDEST PUSH2 0x21E PUSH2 0x41E CALLDATASIZE PUSH1 0x4 PUSH2 0x2337 JUMP JUMPDEST PUSH2 0x2101 JUMP JUMPDEST PUSH2 0x21E PUSH2 0x431 CALLDATASIZE PUSH1 0x4 PUSH2 0x2337 JUMP JUMPDEST PUSH2 0x2134 JUMP JUMPDEST PUSH2 0x21E PUSH2 0x444 CALLDATASIZE PUSH1 0x4 PUSH2 0x2337 JUMP JUMPDEST PUSH2 0x2167 JUMP JUMPDEST PUSH1 0x2 SLOAD PUSH2 0x244 SWAP1 PUSH1 0x1 PUSH1 0x1 PUSH1 0xA0 SHL SUB AND DUP2 JUMP JUMPDEST PUSH2 0x21E PUSH2 0x46A CALLDATASIZE PUSH1 0x4 PUSH2 0x245D JUMP JUMPDEST PUSH2 0x219A JUMP JUMPDEST PUSH1 0x1 SLOAD PUSH1 0x1 PUSH1 0x1 PUSH1 0xA0 SHL SUB AND PUSH2 0x244 JUMP JUMPDEST PUSH2 0x21E PUSH2 0x48E CALLDATASIZE PUSH1 0x4 PUSH2 0x2337 JUMP JUMPDEST PUSH2 0x21A6 JUMP JUMPDEST PUSH2 0x21E PUSH2 0x4A1 CALLDATASIZE PUSH1 0x4 PUSH2 0x2337 JUMP JUMPDEST PUSH2 0x21D9 JUMP JUMPDEST PUSH1 0x4 SLOAD PUSH2 0x244 SWAP1 PUSH1 0x1 PUSH1 0x1 PUSH1 0xA0 SHL SUB AND DUP2 JUMP JUMPDEST PUSH1 0x2 SLOAD PUSH1 0x40 MLOAD PUSH4 0xF8B2CB4F PUSH1 0xE0 SHL DUP2 MSTORE PUSH1 0x1 PUSH1 0x1 PUSH1 0xA0 SHL SUB DUP4 DUP2 AND PUSH1 0x4 DUP4 ADD MSTORE PUSH1 0x0 SWAP3 AND SWAP1 PUSH4 0xF8B2CB4F SWAP1 PUSH1 0x24 ADD JUMPDEST PUSH1 0x20 PUSH1 0x40 MLOAD DUP1 DUP4 SUB DUP2 DUP7 GAS STATICCALL ISZERO DUP1 ISZERO PUSH2 0x505 JUMPI RETURNDATASIZE PUSH1 0x0 DUP1 RETURNDATACOPY RETURNDATASIZE PUSH1 0x0 REVERT JUMPDEST POP POP POP POP PUSH1 0x40 MLOAD RETURNDATASIZE PUSH1 0x1F NOT PUSH1 0x1F DUP3 ADD AND DUP3 ADD DUP1 PUSH1 0x40 MSTORE POP DUP2 ADD SWAP1 PUSH2 0x529 SWAP2 SWAP1 PUSH2 0x247F JUMP JUMPDEST SWAP3 SWAP2 POP POP JUMP JUMPDEST PUSH1 0x0 PUSH1 0x4 PUSH1 0x0 SWAP1 SLOAD SWAP1 PUSH2 0x100 EXP SWAP1 DIV PUSH1 0x1 PUSH1 0x1 PUSH1 0xA0 SHL SUB AND PUSH1 0x1 PUSH1 0x1 PUSH1 0xA0 SHL SUB AND PUSH4 0x8A02775B PUSH1 0x40 MLOAD DUP2 PUSH4 0xFFFFFFFF AND PUSH1 0xE0 SHL DUP2 MSTORE PUSH1 0x4 ADD PUSH1 0x20 PUSH1 0x40 MLOAD DUP1 DUP4 SUB DUP2 DUP7 GAS STATICCALL ISZERO DUP1 ISZERO PUSH2 0x584 JUMPI RETURNDATASIZE PUSH1 0x0 DUP1 RETURNDATACOPY RETURNDATASIZE PUSH1 0x0 REVERT JUMPDEST POP POP POP POP PUSH1 0x40 MLOAD RETURNDATASIZE PUSH1 0x1F NOT PUSH1 0x1F DUP3 ADD AND DUP3 ADD DUP1 PUSH1 0x40 MSTORE POP DUP2 ADD SWAP1 PUSH2 0x5A8 SWAP2 SWAP1 PUSH2 0x247F JUMP JUMPDEST SWAP1 POP SWAP1 JUMP JUMPDEST PUSH1 0x8 SLOAD PUSH1 0x0 JUMPDEST DUP2 DUP2 PUSH2 0xFFFF AND LT ISZERO PUSH2 0xA84 JUMPI PUSH1 0x0 PUSH1 0x8 DUP3 PUSH2 0xFFFF AND DUP2 SLOAD DUP2 LT PUSH2 0x5D8 JUMPI PUSH2 0x5D8 PUSH2 0x2498 JUMP JUMPDEST PUSH1 0x0 SWAP2 DUP3 MSTORE PUSH1 0x20 DUP3 KECCAK256 ADD SLOAD PUSH1 0x1 SLOAD PUSH1 0x40 MLOAD PUSH4 0x662128F3 PUSH1 0xE1 SHL DUP2 MSTORE PUSH1 0x1 PUSH1 0x1 PUSH1 0xA0 SHL SUB SWAP3 DUP4 AND PUSH1 0x4 DUP3 ADD DUP2 SWAP1 MSTORE SWAP5 POP SWAP2 AND SWAP1 PUSH4 0xCC4251E6 SWAP1 PUSH1 0x24 ADD PUSH1 0x20 PUSH1 0x40 MLOAD DUP1 DUP4 SUB DUP2 DUP7 GAS STATICCALL ISZERO DUP1 ISZERO PUSH2 0x630 JUMPI RETURNDATASIZE PUSH1 0x0 DUP1 RETURNDATACOPY RETURNDATASIZE PUSH1 0x0 REVERT JUMPDEST POP POP POP POP PUSH1 0x40 MLOAD RETURNDATASIZE PUSH1 0x1F NOT PUSH1 0x1F DUP3 ADD AND DUP3 ADD DUP1 PUSH1 0x40 MSTORE POP DUP2 ADD SWAP1 PUSH2 0x654 SWAP2 SWAP1 PUSH2 0x247F JUMP JUMPDEST PUSH1 0x1 SLOAD PUSH1 0x40 MLOAD PUSH4 0x5C88F5A5 PUSH1 0xE0 SHL DUP2 MSTORE PUSH1 0x1 PUSH1 0x1 PUSH1 0xA0 SHL SUB DUP6 DUP2 AND PUSH1 0x4 DUP4 ADD MSTORE SWAP3 SWAP4 POP PUSH1 0x0 SWAP3 SWAP1 SWAP2 AND SWAP1 PUSH4 0x5C88F5A5 SWAP1 PUSH1 0x24 ADD PUSH1 0x20 PUSH1 0x40 MLOAD DUP1 DUP4 SUB DUP2 DUP7 GAS STATICCALL ISZERO DUP1 ISZERO PUSH2 0x6A4 JUMPI RETURNDATASIZE PUSH1 0x0 DUP1 RETURNDATACOPY RETURNDATASIZE PUSH1 0x0 REVERT JUMPDEST POP POP POP POP PUSH1 0x40 MLOAD RETURNDATASIZE PUSH1 0x1F NOT PUSH1 0x1F DUP3 ADD AND DUP3 ADD DUP1 PUSH1 0x40 MSTORE POP DUP2 ADD SWAP1 PUSH2 0x6C8 SWAP2 SWAP1 PUSH2 0x247F JUMP JUMPDEST PUSH1 0x1 PUSH1 0x1 PUSH1 0xA0 SHL SUB DUP5 AND PUSH1 0x0 SWAP1 DUP2 MSTORE PUSH1 0xE PUSH1 0x20 MSTORE PUSH1 0x40 DUP2 KECCAK256 SLOAD SWAP2 SWAP3 POP JUMPDEST DUP2 DUP2 PUSH2 0xFFFF AND LT ISZERO PUSH2 0xA0D JUMPI PUSH1 0x1 PUSH1 0x1 PUSH1 0xA0 SHL SUB DUP6 AND PUSH1 0x0 SWAP1 DUP2 MSTORE PUSH1 0xE PUSH1 0x20 MSTORE PUSH1 0x40 DUP2 KECCAK256 DUP1 SLOAD PUSH2 0xFFFF DUP5 AND SWAP1 DUP2 LT PUSH2 0x71F JUMPI PUSH2 0x71F PUSH2 0x2498 JUMP JUMPDEST PUSH1 0x0 SWAP2 DUP3 MSTORE PUSH1 0x20 SWAP1 SWAP2 KECCAK256 ADD SLOAD PUSH1 0x4 DUP1 SLOAD PUSH1 0x40 MLOAD PUSH4 0x70A08231 PUSH1 0xE0 SHL DUP2 MSTORE PUSH1 0x1 PUSH1 0x1 PUSH1 0xA0 SHL SUB SWAP4 DUP5 AND SWAP3 DUP2 ADD DUP4 SWAP1 MSTORE SWAP2 SWAP4 POP PUSH7 0x2386F26FC10000 SWAP3 AND SWAP1 PUSH4 0x70A08231 SWAP1 PUSH1 0x24 ADD PUSH1 0x20 PUSH1 0x40 MLOAD DUP1 DUP4 SUB DUP2 DUP7 GAS STATICCALL ISZERO DUP1 ISZERO PUSH2 0x781 JUMPI RETURNDATASIZE PUSH1 0x0 DUP1 RETURNDATACOPY RETURNDATASIZE PUSH1 0x0 REVERT JUMPDEST POP POP POP POP PUSH1 0x40 MLOAD RETURNDATASIZE PUSH1 0x1F NOT PUSH1 0x1F DUP3 ADD AND DUP3 ADD DUP1 PUSH1 0x40 MSTORE POP DUP2 ADD SWAP1 PUSH2 0x7A5 SWAP2 SWAP1 PUSH2 0x247F JUMP JUMPDEST LT ISZERO PUSH2 0x7E4 JUMPI PUSH1 0x1 PUSH1 0x1 PUSH1 0xA0 SHL SUB DUP1 DUP3 AND PUSH1 0x0 SWAP1 DUP2 MSTORE PUSH1 0x5 PUSH1 0x20 SWAP1 DUP2 MSTORE PUSH1 0x40 DUP1 DUP4 KECCAK256 DUP4 SWAP1 SSTORE SWAP3 DUP10 AND DUP3 MSTORE PUSH1 0xB DUP2 MSTORE DUP3 DUP3 KECCAK256 CALLER DUP4 MSTORE SWAP1 MSTORE SWAP1 DUP2 KECCAK256 SSTORE PUSH2 0x9FA JUMP JUMPDEST PUSH1 0x1 PUSH1 0x1 PUSH1 0xA0 SHL SUB DUP2 DUP2 AND PUSH1 0x0 DUP2 DUP2 MSTORE PUSH1 0x5 PUSH1 0x20 MSTORE PUSH1 0x40 DUP1 DUP3 KECCAK256 SLOAD PUSH1 0x4 DUP1 SLOAD SWAP3 MLOAD PUSH4 0x70A08231 PUSH1 0xE0 SHL DUP2 MSTORE SWAP1 DUP2 ADD SWAP5 SWAP1 SWAP5 MSTORE SWAP2 SWAP4 SWAP2 SWAP3 SWAP2 AND SWAP1 PUSH4 0x70A08231 SWAP1 PUSH1 0x24 ADD PUSH1 0x20 PUSH1 0x40 MLOAD DUP1 DUP4 SUB DUP2 DUP7 GAS STATICCALL ISZERO DUP1 ISZERO PUSH2 0x843 JUMPI RETURNDATASIZE PUSH1 0x0 DUP1 RETURNDATACOPY RETURNDATASIZE PUSH1 0x0 REVERT JUMPDEST POP POP POP POP PUSH1 0x40 MLOAD RETURNDATASIZE PUSH1 0x1F NOT PUSH1 0x1F DUP3 ADD AND DUP3 ADD DUP1 PUSH1 0x40 MSTORE POP DUP2 ADD SWAP1 PUSH2 0x867 SWAP2 SWAP1 PUSH2 0x247F JUMP JUMPDEST PUSH2 0x879 SWAP1 PUSH8 0xDE0B6B3A7640000 PUSH2 0x24C4 JUMP JUMPDEST PUSH2 0x883 SWAP2 SWAP1 PUSH2 0x24E3 JUMP JUMPDEST PUSH1 0x1 PUSH1 0x1 PUSH1 0xA0 SHL SUB DUP1 DUP10 AND PUSH1 0x0 SWAP1 DUP2 MSTORE PUSH1 0xB PUSH1 0x20 SWAP1 DUP2 MSTORE PUSH1 0x40 DUP1 DUP4 KECCAK256 SWAP4 DUP8 AND DUP4 MSTORE SWAP3 SWAP1 MSTORE SWAP1 DUP2 KECCAK256 SLOAD SWAP2 SWAP3 POP SWAP1 DUP8 SWAP1 PUSH2 0x8C3 SWAP1 PUSH8 0xDE0B6B3A7640000 PUSH2 0x24C4 JUMP JUMPDEST PUSH2 0x8CD SWAP2 SWAP1 PUSH2 0x24E3 JUMP JUMPDEST SWAP1 POP PUSH1 0x0 PUSH15 0xC097CE7BC90715B34B9F1000000000 DUP8 PUSH2 0x8EC DUP5 DUP7 PUSH2 0x24C4 JUMP JUMPDEST PUSH2 0x8F6 SWAP2 SWAP1 PUSH2 0x24C4 JUMP JUMPDEST PUSH2 0x900 SWAP2 SWAP1 PUSH2 0x24E3 JUMP JUMPDEST PUSH1 0x4 DUP1 SLOAD PUSH1 0x40 MLOAD PUSH4 0xD4D1513 PUSH1 0xE0 SHL DUP2 MSTORE PUSH1 0x1 PUSH1 0x1 PUSH1 0xA0 SHL SUB DUP9 DUP2 AND SWAP4 DUP3 ADD SWAP4 SWAP1 SWAP4 MSTORE PUSH1 0x24 DUP2 ADD DUP5 SWAP1 MSTORE DUP13 DUP4 AND PUSH1 0x44 DUP3 ADD MSTORE SWAP3 SWAP4 POP PUSH1 0x0 SWAP3 SWAP2 AND SWAP1 PUSH4 0xD4D1513 SWAP1 PUSH1 0x64 ADD PUSH1 0x20 PUSH1 0x40 MLOAD DUP1 DUP4 SUB DUP2 PUSH1 0x0 DUP8 GAS CALL ISZERO DUP1 ISZERO PUSH2 0x963 JUMPI RETURNDATASIZE PUSH1 0x0 DUP1 RETURNDATACOPY RETURNDATASIZE PUSH1 0x0 REVERT JUMPDEST POP POP POP POP PUSH1 0x40 MLOAD RETURNDATASIZE PUSH1 0x1F NOT PUSH1 0x1F DUP3 ADD AND DUP3 ADD DUP1 PUSH1 0x40 MSTORE POP DUP2 ADD SWAP1 PUSH2 0x987 SWAP2 SWAP1 PUSH2 0x247F JUMP JUMPDEST PUSH1 0x1 PUSH1 0x1 PUSH1 0xA0 SHL SUB DUP7 AND PUSH1 0x0 SWAP1 DUP2 MSTORE PUSH1 0x5 PUSH1 0x20 MSTORE PUSH1 0x40 DUP2 KECCAK256 DUP1 SLOAD SWAP3 SWAP4 POP DUP4 SWAP3 SWAP1 SWAP2 SWAP1 PUSH2 0x9B4 SWAP1 DUP5 SWAP1 PUSH2 0x2505 JUMP JUMPDEST SWAP1 SWAP2 SSTORE POP POP PUSH1 0x1 PUSH1 0x1 PUSH1 0xA0 SHL SUB DUP1 DUP12 AND PUSH1 0x0 SWAP1 DUP2 MSTORE PUSH1 0xB PUSH1 0x20 SWAP1 DUP2 MSTORE PUSH1 0x40 DUP1 DUP4 KECCAK256 SWAP4 DUP10 AND DUP4 MSTORE SWAP3 SWAP1 MSTORE SWAP1 DUP2 KECCAK256 DUP1 SLOAD DUP5 SWAP3 SWAP1 PUSH2 0x9F0 SWAP1 DUP5 SWAP1 PUSH2 0x2505 JUMP JUMPDEST SWAP1 SWAP2 SSTORE POP POP POP POP POP POP JUMPDEST POP DUP1 PUSH2 0xA05 DUP2 PUSH2 0x251D JUMP JUMPDEST SWAP2 POP POP PUSH2 0x6E5 JUMP JUMPDEST POP PUSH1 0x1 SLOAD PUSH1 0x40 MLOAD PUSH4 0x23D0AAB1 PUSH1 0xE0 SHL DUP2 MSTORE PUSH1 0x1 PUSH1 0x1 PUSH1 0xA0 SHL SUB DUP7 DUP2 AND PUSH1 0x4 DUP4 ADD MSTORE SWAP1 SWAP2 AND SWAP1 PUSH4 0x23D0AAB1 SWAP1 PUSH1 0x24 ADD PUSH1 0x0 PUSH1 0x40 MLOAD DUP1 DUP4 SUB DUP2 PUSH1 0x0 DUP8 DUP1 EXTCODESIZE ISZERO DUP1 ISZERO PUSH2 0xA55 JUMPI PUSH1 0x0 DUP1 REVERT JUMPDEST POP GAS CALL ISZERO DUP1 ISZERO PUSH2 0xA69 JUMPI RETURNDATASIZE PUSH1 0x0 DUP1 RETURNDATACOPY RETURNDATASIZE PUSH1 0x0 REVERT JUMPDEST POP POP POP POP POP POP POP POP DUP1 DUP1 PUSH2 0xA7C SWAP1 PUSH2 0x251D JUMP JUMPDEST SWAP2 POP POP PUSH2 0x5B3 JUMP JUMPDEST POP POP JUMP JUMPDEST PUSH1 0x2 SLOAD PUSH1 0x40 MLOAD PUSH4 0x1D512A91 PUSH1 0xE2 SHL DUP2 MSTORE CALLER PUSH1 0x4 DUP3 ADD MSTORE PUSH1 0x0 SWAP2 PUSH1 0x1 PUSH1 0x1 PUSH1 0xA0 SHL SUB AND SWAP1 PUSH4 0x7544AA44 SWAP1 PUSH1 0x24 ADD PUSH1 0x20 PUSH1 0x40 MLOAD DUP1 DUP4 SUB DUP2 DUP7 GAS STATICCALL ISZERO DUP1 ISZERO PUSH2 0xAD1 JUMPI RETURNDATASIZE PUSH1 0x0 DUP1 RETURNDATACOPY RETURNDATASIZE PUSH1 0x0 REVERT JUMPDEST POP POP POP POP PUSH1 0x40 MLOAD RETURNDATASIZE PUSH1 0x1F NOT PUSH1 0x1F DUP3 ADD AND DUP3 ADD DUP1 PUSH1 0x40 MSTORE POP DUP2 ADD SWAP1 PUSH2 0xAF5 SWAP2 SWAP1 PUSH2 0x247F JUMP JUMPDEST PUSH1 0x0 SLOAD PUSH1 0x40 MLOAD PUSH4 0x41976E09 PUSH1 0xE0 SHL DUP2 MSTORE PUSH1 0x1 PUSH1 0x1 PUSH1 0xA0 SHL SUB DUP6 DUP2 AND PUSH1 0x4 DUP4 ADD MSTORE DUP7 SWAP3 AND SWAP1 PUSH4 0x41976E09 SWAP1 PUSH1 0x24 ADD PUSH1 0x20 PUSH1 0x40 MLOAD DUP1 DUP4 SUB DUP2 DUP7 GAS STATICCALL ISZERO DUP1 ISZERO PUSH2 0xB3F JUMPI RETURNDATASIZE PUSH1 0x0 DUP1 RETURNDATACOPY RETURNDATASIZE PUSH1 0x0 REVERT JUMPDEST POP POP POP POP PUSH1 0x40 MLOAD RETURNDATASIZE PUSH1 0x1F NOT PUSH1 0x1F DUP3 ADD AND DUP3 ADD DUP1 PUSH1 0x40 MSTORE POP DUP2 ADD SWAP1 PUSH2 0xB63 SWAP2 SWAP1 PUSH2 0x247F JUMP JUMPDEST PUSH2 0xB6D SWAP2 SWAP1 PUSH2 0x24C4 JUMP JUMPDEST PUSH2 0xB77 SWAP2 SWAP1 PUSH2 0x2505 JUMP JUMPDEST SWAP1 POP PUSH1 0x0 PUSH2 0xB84 CALLER PUSH2 0x21D9 JUMP JUMPDEST PUSH1 0x0 SLOAD PUSH1 0x40 MLOAD PUSH4 0x41976E09 PUSH1 0xE0 SHL DUP2 MSTORE PUSH1 0x1 PUSH1 0x1 PUSH1 0xA0 SHL SUB DUP9 DUP2 AND PUSH1 0x4 DUP4 ADD MSTORE PUSH8 0xDE0B6B3A7640000 SWAP3 DUP11 SWAP3 SWAP2 AND SWAP1 PUSH4 0x41976E09 SWAP1 PUSH1 0x24 ADD PUSH1 0x20 PUSH1 0x40 MLOAD DUP1 DUP4 SUB DUP2 DUP7 GAS STATICCALL ISZERO DUP1 ISZERO PUSH2 0xBD9 JUMPI RETURNDATASIZE PUSH1 0x0 DUP1 RETURNDATACOPY RETURNDATASIZE PUSH1 0x0 REVERT JUMPDEST POP POP POP POP PUSH1 0x40 MLOAD RETURNDATASIZE PUSH1 0x1F NOT PUSH1 0x1F DUP3 ADD AND DUP3 ADD DUP1 PUSH1 0x40 MSTORE POP DUP2 ADD SWAP1 PUSH2 0xBFD SWAP2 SWAP1 PUSH2 0x247F JUMP JUMPDEST PUSH2 0xC07 SWAP2 SWAP1 PUSH2 0x24C4 JUMP JUMPDEST PUSH2 0xC11 SWAP2 SWAP1 PUSH2 0x24E3 JUMP JUMPDEST PUSH2 0xC1B SWAP2 SWAP1 PUSH2 0x2505 JUMP JUMPDEST SWAP1 POP PUSH1 0x2 PUSH1 0x0 SWAP1 SLOAD SWAP1 PUSH2 0x100 EXP SWAP1 DIV PUSH1 0x1 PUSH1 0x1 PUSH1 0xA0 SHL SUB AND PUSH1 0x1 PUSH1 0x1 PUSH1 0xA0 SHL SUB AND PUSH4 0x9404954 PUSH1 0x40 MLOAD DUP2 PUSH4 0xFFFFFFFF AND PUSH1 0xE0 SHL DUP2 MSTORE PUSH1 0x4 ADD PUSH1 0x20 PUSH1 0x40 MLOAD DUP1 DUP4 SUB DUP2 DUP7 GAS STATICCALL ISZERO DUP1 ISZERO PUSH2 0xC70 JUMPI RETURNDATASIZE PUSH1 0x0 DUP1 RETURNDATACOPY RETURNDATASIZE PUSH1 0x0 REVERT JUMPDEST POP POP POP POP PUSH1 0x40 MLOAD RETURNDATASIZE PUSH1 0x1F NOT PUSH1 0x1F DUP3 ADD AND DUP3 ADD DUP1 PUSH1 0x40 MSTORE POP DUP2 ADD SWAP1 PUSH2 0xC94 SWAP2 SWAP1 PUSH2 0x247F JUMP JUMPDEST PUSH2 0xC9E SWAP1 DUP3 PUSH2 0x24C4 JUMP JUMPDEST DUP3 LT ISZERO PUSH2 0xCF2 JUMPI PUSH1 0x40 MLOAD PUSH3 0x461BCD PUSH1 0xE5 SHL DUP2 MSTORE PUSH1 0x20 PUSH1 0x4 DUP3 ADD MSTORE PUSH1 0x1F PUSH1 0x24 DUP3 ADD MSTORE PUSH32 0x6E6F7420656E6F75676820636F6C6C61746572616C20746F20626F72726F7700 PUSH1 0x44 DUP3 ADD MSTORE PUSH1 0x64 ADD JUMPDEST PUSH1 0x40 MLOAD DUP1 SWAP2 SUB SWAP1 REVERT JUMPDEST PUSH1 0x2 SLOAD PUSH1 0x40 MLOAD PUSH4 0xF970C3B7 PUSH1 0xE0 SHL DUP2 MSTORE PUSH1 0x1 PUSH1 0x1 PUSH1 0xA0 SHL SUB SWAP1 SWAP2 AND SWAP1 PUSH4 0xF970C3B7 SWAP1 PUSH2 0xD26 SWAP1 CALLER SWAP1 DUP8 SWAP1 DUP10 SWAP1 PUSH1 0x4 ADD PUSH2 0x253F JUMP JUMPDEST PUSH1 0x0 PUSH1 0x40 MLOAD DUP1 DUP4 SUB DUP2 PUSH1 0x0 DUP8 DUP1 EXTCODESIZE ISZERO DUP1 ISZERO PUSH2 0xD40 JUMPI PUSH1 0x0 DUP1 REVERT JUMPDEST POP GAS CALL ISZERO DUP1 ISZERO PUSH2 0xD54 JUMPI RETURNDATASIZE PUSH1 0x0 DUP1 RETURNDATACOPY RETURNDATASIZE PUSH1 0x0 REVERT JUMPDEST POP POP PUSH1 0x1 SLOAD PUSH1 0x40 MLOAD PUSH4 0xFC4F78B9 PUSH1 0xE0 SHL DUP2 MSTORE PUSH1 0x1 PUSH1 0x1 PUSH1 0xA0 SHL SUB SWAP1 SWAP2 AND SWAP3 POP PUSH4 0xFC4F78B9 SWAP2 POP PUSH2 0xD8C SWAP1 CALLER SWAP1 DUP10 SWAP1 DUP12 SWAP1 PUSH1 0x4 ADD PUSH2 0x253F JUMP JUMPDEST PUSH1 0x0 PUSH1 0x40 MLOAD DUP1 DUP4 SUB DUP2 PUSH1 0x0 DUP8 DUP1 EXTCODESIZE ISZERO DUP1 ISZERO PUSH2 0xDA6 JUMPI PUSH1 0x0 DUP1 REVERT JUMPDEST POP GAS CALL ISZERO DUP1 ISZERO PUSH2 0xDBA JUMPI RETURNDATASIZE PUSH1 0x0 DUP1 RETURNDATACOPY RETURNDATASIZE PUSH1 0x0 REVERT JUMPDEST POP POP PUSH1 0x40 DUP1 MLOAD CALLER DUP2 MSTORE PUSH1 0x20 DUP2 ADD DUP11 SWAP1 MSTORE PUSH1 0x1 PUSH1 0x1 PUSH1 0xA0 SHL SUB DUP10 DUP2 AND DUP3 DUP5 ADD MSTORE PUSH1 0x60 DUP3 ADD DUP10 SWAP1 MSTORE DUP8 AND PUSH1 0x80 DUP3 ADD MSTORE SWAP1 MLOAD PUSH32 0xEA8631408D071CDC565DFA37DCB32450C4C85EE9A4142ED14DF1387D7C2A4327 SWAP4 POP SWAP1 DUP2 SWAP1 SUB PUSH1 0xA0 ADD SWAP2 POP LOG1 PUSH1 0x1 PUSH1 0x1 PUSH1 0xA0 SHL SUB DUP6 AND PUSH1 0x0 SWAP1 DUP2 MSTORE PUSH1 0xA PUSH1 0x20 SWAP1 DUP2 MSTORE PUSH1 0x40 DUP1 DUP4 KECCAK256 CALLER DUP5 MSTORE SWAP1 SWAP2 MSTORE DUP2 KECCAK256 DUP1 SLOAD DUP9 SWAP3 SWAP1 PUSH2 0xE49 SWAP1 DUP5 SWAP1 PUSH2 0x2505 JUMP JUMPDEST SWAP1 SWAP2 SSTORE POP POP PUSH1 0x1 PUSH1 0x1 PUSH1 0xA0 SHL SUB DUP6 AND PUSH1 0x0 SWAP1 DUP2 MSTORE PUSH1 0x7 PUSH1 0x20 MSTORE PUSH1 0x40 SWAP1 KECCAK256 SLOAD PUSH1 0xFF AND PUSH2 0xED2 JUMPI PUSH1 0x6 DUP1 SLOAD PUSH1 0x1 DUP1 DUP3 ADD SWAP1 SWAP3 SSTORE PUSH32 0xF652222313E28459528D920B65115C16C04F3EFC82AAEDC97BE59F3F377C0D3F ADD DUP1 SLOAD PUSH1 0x1 PUSH1 0x1 PUSH1 0xA0 SHL SUB NOT AND PUSH1 0x1 PUSH1 0x1 PUSH1 0xA0 SHL SUB DUP9 AND SWAP1 DUP2 OR SWAP1 SWAP2 SSTORE PUSH1 0x0 SWAP1 DUP2 MSTORE PUSH1 0x7 PUSH1 0x20 MSTORE PUSH1 0x40 SWAP1 KECCAK256 DUP1 SLOAD PUSH1 0xFF NOT AND SWAP1 SWAP2 OR SWAP1 SSTORE JUMPDEST PUSH1 0x1 PUSH1 0x1 PUSH1 0xA0 SHL SUB DUP6 AND PUSH1 0x0 SWAP1 DUP2 MSTORE PUSH1 0xD PUSH1 0x20 SWAP1 DUP2 MSTORE PUSH1 0x40 DUP1 DUP4 KECCAK256 CALLER DUP5 MSTORE SWAP1 SWAP2 MSTORE SWAP1 KECCAK256 SLOAD PUSH1 0xFF AND PUSH2 0xF5A JUMPI PUSH1 0x1 PUSH1 0x1 PUSH1 0xA0 SHL SUB DUP6 AND PUSH1 0x0 DUP2 DUP2 MSTORE PUSH1 0xC PUSH1 0x20 SWAP1 DUP2 MSTORE PUSH1 0x40 DUP1 DUP4 KECCAK256 DUP1 SLOAD PUSH1 0x1 DUP2 DUP2 ADD DUP4 SSTORE SWAP2 DUP6 MSTORE DUP4 DUP6 KECCAK256 ADD DUP1 SLOAD PUSH1 0x1 PUSH1 0x1 PUSH1 0xA0 SHL SUB NOT AND CALLER SWAP1 DUP2 OR SWAP1 SWAP2 SSTORE SWAP5 DUP5 MSTORE PUSH1 0xD DUP4 MSTORE DUP2 DUP5 KECCAK256 SWAP5 DUP5 MSTORE SWAP4 SWAP1 SWAP2 MSTORE SWAP1 KECCAK256 DUP1 SLOAD PUSH1 0xFF NOT AND SWAP1 SWAP2 OR SWAP1 SSTORE JUMPDEST POP POP POP POP POP POP JUMP JUMPDEST PUSH1 0x0 DUP3 GT PUSH2 0xFB2 JUMPI PUSH1 0x40 MLOAD PUSH3 0x461BCD PUSH1 0xE5 SHL DUP2 MSTORE PUSH1 0x20 PUSH1 0x4 DUP3 ADD MSTORE PUSH1 0x18 PUSH1 0x24 DUP3 ADD MSTORE PUSH32 0x6465706F736974206D75737420626520706F7369746976650000000000000000 PUSH1 0x44 DUP3 ADD MSTORE PUSH1 0x64 ADD PUSH2 0xCE9 JUMP JUMPDEST PUSH1 0x4 DUP1 SLOAD PUSH1 0x40 MLOAD PUSH4 0xD4D1513 PUSH1 0xE0 SHL DUP2 MSTORE CALLER SWAP3 DUP2 ADD SWAP3 SWAP1 SWAP3 MSTORE PUSH1 0x24 DUP3 ADD DUP5 SWAP1 MSTORE PUSH1 0x1 PUSH1 0x1 PUSH1 0xA0 SHL SUB DUP4 DUP2 AND PUSH1 0x44 DUP5 ADD MSTORE PUSH1 0x0 SWAP3 SWAP2 AND SWAP1 PUSH4 0xD4D1513 SWAP1 PUSH1 0x64 ADD PUSH1 0x20 PUSH1 0x40 MLOAD DUP1 DUP4 SUB DUP2 PUSH1 0x0 DUP8 GAS CALL ISZERO DUP1 ISZERO PUSH2 0x1010 JUMPI RETURNDATASIZE PUSH1 0x0 DUP1 RETURNDATACOPY RETURNDATASIZE PUSH1 0x0 REVERT JUMPDEST POP POP POP POP PUSH1 0x40 MLOAD RETURNDATASIZE PUSH1 0x1F NOT PUSH1 0x1F DUP3 ADD AND DUP3 ADD DUP1 PUSH1 0x40 MSTORE POP DUP2 ADD SWAP1 PUSH2 0x1034 SWAP2 SWAP1 PUSH2 0x247F JUMP JUMPDEST CALLER PUSH1 0x0 SWAP1 DUP2 MSTORE PUSH1 0x5 PUSH1 0x20 MSTORE PUSH1 0x40 DUP2 KECCAK256 DUP1 SLOAD SWAP3 SWAP4 POP DUP4 SWAP3 SWAP1 SWAP2 SWAP1 PUSH2 0x1058 SWAP1 DUP5 SWAP1 PUSH2 0x2505 JUMP JUMPDEST SWAP1 SWAP2 SSTORE POP POP PUSH1 0x1 SLOAD PUSH1 0x40 MLOAD PUSH4 0x1740ECAF PUSH1 0xE1 SHL DUP2 MSTORE PUSH1 0x1 PUSH1 0x1 PUSH1 0xA0 SHL SUB SWAP1 SWAP2 AND SWAP1 PUSH4 0x2E81D95E SWAP1 PUSH2 0x1091 SWAP1 CALLER SWAP1 DUP7 SWAP1 DUP9 SWAP1 PUSH1 0x4 ADD PUSH2 0x253F JUMP JUMPDEST PUSH1 0x0 PUSH1 0x40 MLOAD DUP1 DUP4 SUB DUP2 PUSH1 0x0 DUP8 DUP1 EXTCODESIZE ISZERO DUP1 ISZERO PUSH2 0x10AB JUMPI PUSH1 0x0 DUP1 REVERT JUMPDEST POP GAS CALL ISZERO DUP1 ISZERO PUSH2 0x10BF JUMPI RETURNDATASIZE PUSH1 0x0 DUP1 RETURNDATACOPY RETURNDATASIZE PUSH1 0x0 REVERT JUMPDEST POP POP POP POP PUSH1 0x1 PUSH1 0x1 PUSH1 0xA0 SHL SUB DUP3 AND PUSH1 0x0 SWAP1 DUP2 MSTORE PUSH1 0x9 PUSH1 0x20 MSTORE PUSH1 0x40 SWAP1 KECCAK256 SLOAD PUSH1 0xFF AND PUSH2 0x1147 JUMPI PUSH1 0x8 DUP1 SLOAD PUSH1 0x1 DUP1 DUP3 ADD SWAP1 SWAP3 SSTORE PUSH32 0xF3F7A9FE364FAAB93B216DA50A3214154F22A0A2B415B23A84C8169E8B636EE3 ADD DUP1 SLOAD PUSH1 0x1 PUSH1 0x1 PUSH1 0xA0 SHL SUB NOT AND PUSH1 0x1 PUSH1 0x1 PUSH1 0xA0 SHL SUB DUP6 AND SWAP1 DUP2 OR SWAP1 SWAP2 SSTORE PUSH1 0x0 SWAP1 DUP2 MSTORE PUSH1 0x9 PUSH1 0x20 MSTORE PUSH1 0x40 SWAP1 KECCAK256 DUP1 SLOAD PUSH1 0xFF NOT AND SWAP1 SWAP2 OR SWAP1 SSTORE JUMPDEST PUSH1 0x1 PUSH1 0x1 PUSH1 0xA0 SHL SUB DUP3 AND PUSH1 0x0 SWAP1 DUP2 MSTORE PUSH1 0xF PUSH1 0x20 SWAP1 DUP2 MSTORE PUSH1 0x40 DUP1 DUP4 KECCAK256 CALLER DUP5 MSTORE SWAP1 SWAP2 MSTORE SWAP1 KECCAK256 SLOAD PUSH1 0xFF AND PUSH2 0x11CF JUMPI PUSH1 0x1 PUSH1 0x1 PUSH1 0xA0 SHL SUB DUP3 AND PUSH1 0x0 DUP2 DUP2 MSTORE PUSH1 0xE PUSH1 0x20 SWAP1 DUP2 MSTORE PUSH1 0x40 DUP1 DUP4 KECCAK256 DUP1 SLOAD PUSH1 0x1 DUP2 DUP2 ADD DUP4 SSTORE SWAP2 DUP6 MSTORE DUP4 DUP6 KECCAK256 ADD DUP1 SLOAD PUSH1 0x1 PUSH1 0x1 PUSH1 0xA0 SHL SUB NOT AND CALLER SWAP1 DUP2 OR SWAP1 SWAP2 SSTORE SWAP5 DUP5 MSTORE PUSH1 0xF DUP4 MSTORE DUP2 DUP5 KECCAK256 SWAP5 DUP5 MSTORE SWAP4 SWAP1 SWAP2 MSTORE SWAP1 KECCAK256 DUP1 SLOAD PUSH1 0xFF NOT AND SWAP1 SWAP2 OR SWAP1 SSTORE JUMPDEST PUSH1 0x1 PUSH1 0x1 PUSH1 0xA0 SHL SUB DUP3 AND PUSH1 0x0 SWAP1 DUP2 MSTORE PUSH1 0xB PUSH1 0x20 SWAP1 DUP2 MSTORE PUSH1 0x40 DUP1 DUP4 KECCAK256 CALLER DUP5 MSTORE SWAP1 SWAP2 MSTORE DUP2 KECCAK256 DUP1 SLOAD DUP6 SWAP3 SWAP1 PUSH2 0x1202 SWAP1 DUP5 SWAP1 PUSH2 0x2505 JUMP JUMPDEST SWAP1 SWAP2 SSTORE POP POP POP POP POP JUMP JUMPDEST PUSH1 0x1 SLOAD PUSH1 0x40 MLOAD PUSH4 0xC0D7EEC1 PUSH1 0xE0 SHL DUP2 MSTORE PUSH1 0x1 PUSH1 0x1 PUSH1 0xA0 SHL SUB DUP4 DUP2 AND PUSH1 0x4 DUP4 ADD MSTORE PUSH1 0x0 SWAP3 AND SWAP1 PUSH4 0xC0D7EEC1 SWAP1 PUSH1 0x24 ADD PUSH2 0x4E8 JUMP JUMPDEST PUSH1 0x1 PUSH1 0x1 PUSH1 0xA0 SHL SUB DUP3 AND PUSH1 0x0 SWAP1 DUP2 MSTORE PUSH1 0xA PUSH1 0x20 SWAP1 DUP2 MSTORE PUSH1 0x40 DUP1 DUP4 KECCAK256 CALLER DUP5 MSTORE SWAP1 SWAP2 MSTORE SWAP1 KECCAK256 PUSH1 0x1 DUP2 ADD SLOAD SWAP1 SLOAD DUP3 SWAP2 PUSH2 0x1274 SWAP2 PUSH2 0x2505 JUMP JUMPDEST LT ISZERO PUSH2 0x12C2 JUMPI PUSH1 0x40 MLOAD PUSH3 0x461BCD PUSH1 0xE5 SHL DUP2 MSTORE PUSH1 0x20 PUSH1 0x4 DUP3 ADD MSTORE PUSH1 0x1B PUSH1 0x24 DUP3 ADD MSTORE PUSH32 0x52657475726E6564206D6F7265207468616E20626F72726F7765640000000000 PUSH1 0x44 DUP3 ADD MSTORE PUSH1 0x64 ADD PUSH2 0xCE9 JUMP JUMPDEST PUSH1 0x1 PUSH1 0x1 PUSH1 0xA0 SHL SUB DUP3 AND PUSH1 0x0 SWAP1 DUP2 MSTORE PUSH1 0xA PUSH1 0x20 SWAP1 DUP2 MSTORE PUSH1 0x40 DUP1 DUP4 KECCAK256 CALLER DUP5 MSTORE SWAP1 SWAP2 MSTORE DUP2 KECCAK256 SLOAD PUSH2 0x12F1 SWAP1 DUP4 SWAP1 PUSH2 0x219A JUMP JUMPDEST SWAP1 POP PUSH1 0x0 PUSH2 0x12FF DUP3 DUP5 PUSH2 0x2563 JUMP JUMPDEST PUSH1 0x1 SLOAD PUSH1 0x40 MLOAD PUSH4 0x27709E47 PUSH1 0xE1 SHL DUP2 MSTORE CALLER PUSH1 0x4 DUP3 ADD MSTORE PUSH1 0x1 PUSH1 0x1 PUSH1 0xA0 SHL SUB DUP8 DUP2 AND PUSH1 0x24 DUP4 ADD MSTORE PUSH1 0x44 DUP3 ADD DUP8 SWAP1 MSTORE PUSH1 0x64 DUP3 ADD DUP7 SWAP1 MSTORE PUSH1 0x84 DUP3 ADD DUP5 SWAP1 MSTORE SWAP3 SWAP4 POP SWAP2 AND SWAP1 PUSH4 0x4EE13C8E SWAP1 PUSH1 0xA4 ADD PUSH1 0x0 PUSH1 0x40 MLOAD DUP1 DUP4 SUB DUP2 PUSH1 0x0 DUP8 DUP1 EXTCODESIZE ISZERO DUP1 ISZERO PUSH2 0x1363 JUMPI PUSH1 0x0 DUP1 REVERT JUMPDEST POP GAS CALL ISZERO DUP1 ISZERO PUSH2 0x1377 JUMPI RETURNDATASIZE PUSH1 0x0 DUP1 RETURNDATACOPY RETURNDATASIZE PUSH1 0x0 REVERT JUMPDEST POP POP POP POP PUSH1 0x1 PUSH1 0x1 PUSH1 0xA0 SHL SUB DUP5 AND PUSH1 0x0 SWAP1 DUP2 MSTORE PUSH1 0xA PUSH1 0x20 SWAP1 DUP2 MSTORE PUSH1 0x40 DUP1 DUP4 KECCAK256 CALLER DUP5 MSTORE SWAP1 SWAP2 MSTORE DUP2 KECCAK256 DUP1 SLOAD DUP5 SWAP3 SWAP1 PUSH2 0x13AE SWAP1 DUP5 SWAP1 PUSH2 0x2563 JUMP JUMPDEST SWAP1 SWAP2 SSTORE POP POP PUSH1 0x1 PUSH1 0x1 PUSH1 0xA0 SHL SUB DUP5 AND PUSH1 0x0 SWAP1 DUP2 MSTORE PUSH1 0xA PUSH1 0x20 SWAP1 DUP2 MSTORE PUSH1 0x40 DUP1 DUP4 KECCAK256 CALLER DUP5 MSTORE SWAP1 SWAP2 MSTORE DUP2 KECCAK256 PUSH1 0x1 ADD DUP1 SLOAD DUP4 SWAP3 SWAP1 PUSH2 0x13E9 SWAP1 DUP5 SWAP1 PUSH2 0x2563 JUMP JUMPDEST SWAP1 SWAP2 SSTORE POP POP PUSH1 0x1 PUSH1 0x1 PUSH1 0xA0 SHL SUB DUP5 AND PUSH1 0x0 SWAP1 DUP2 MSTORE PUSH1 0xA PUSH1 0x20 SWAP1 DUP2 MSTORE PUSH1 0x40 DUP1 DUP4 KECCAK256 CALLER DUP5 MSTORE SWAP1 SWAP2 MSTORE SWAP1 KECCAK256 SLOAD PUSH2 0x143B JUMPI PUSH1 0x1 PUSH1 0x1 PUSH1 0xA0 SHL SUB DUP5 AND PUSH1 0x0 SWAP1 DUP2 MSTORE PUSH1 0xA PUSH1 0x20 SWAP1 DUP2 MSTORE PUSH1 0x40 DUP1 DUP4 KECCAK256 CALLER DUP5 MSTORE SWAP1 SWAP2 MSTORE DUP2 KECCAK256 SSTORE JUMPDEST PUSH1 0x1 PUSH1 0x1 PUSH1 0xA0 SHL SUB DUP5 AND PUSH1 0x0 SWAP1 DUP2 MSTORE PUSH1 0xA PUSH1 0x20 SWAP1 DUP2 MSTORE PUSH1 0x40 DUP1 DUP4 KECCAK256 CALLER DUP5 MSTORE SWAP1 SWAP2 MSTORE SWAP1 KECCAK256 PUSH1 0x1 ADD SLOAD PUSH2 0x148E JUMPI PUSH1 0x1 PUSH1 0x1 PUSH1 0xA0 SHL SUB DUP5 AND PUSH1 0x0 SWAP1 DUP2 MSTORE PUSH1 0xA PUSH1 0x20 SWAP1 DUP2 MSTORE PUSH1 0x40 DUP1 DUP4 KECCAK256 CALLER DUP5 MSTORE SWAP1 SWAP2 MSTORE DUP2 KECCAK256 PUSH1 0x1 ADD SSTORE JUMPDEST POP POP POP POP JUMP JUMPDEST PUSH1 0x0 PUSH1 0x4 PUSH1 0x0 SWAP1 SLOAD SWAP1 PUSH2 0x100 EXP SWAP1 DIV PUSH1 0x1 PUSH1 0x1 PUSH1 0xA0 SHL SUB AND PUSH1 0x1 PUSH1 0x1 PUSH1 0xA0 SHL SUB AND PUSH4 0x33D57CDC PUSH1 0x40 MLOAD DUP2 PUSH4 0xFFFFFFFF AND PUSH1 0xE0 SHL DUP2 MSTORE PUSH1 0x4 ADD PUSH1 0x20 PUSH1 0x40 MLOAD DUP1 DUP4 SUB DUP2 DUP7 GAS STATICCALL ISZERO DUP1 ISZERO PUSH2 0x584 JUMPI RETURNDATASIZE PUSH1 0x0 DUP1 RETURNDATACOPY RETURNDATASIZE PUSH1 0x0 REVERT JUMPDEST PUSH1 0x0 DUP1 SLOAD PUSH1 0x40 MLOAD PUSH4 0x41976E09 PUSH1 0xE0 SHL DUP2 MSTORE PUSH1 0x1 PUSH1 0x1 PUSH1 0xA0 SHL SUB DUP6 DUP2 AND PUSH1 0x4 DUP4 ADD MSTORE SWAP1 SWAP2 AND SWAP1 PUSH4 0x41976E09 SWAP1 PUSH1 0x24 ADD PUSH1 0x20 PUSH1 0x40 MLOAD DUP1 DUP4 SUB DUP2 DUP7 GAS STATICCALL ISZERO DUP1 ISZERO PUSH2 0x1534 JUMPI RETURNDATASIZE PUSH1 0x0 DUP1 RETURNDATACOPY RETURNDATASIZE PUSH1 0x0 REVERT JUMPDEST POP POP POP POP PUSH1 0x40 MLOAD RETURNDATASIZE PUSH1 0x1F NOT PUSH1 0x1F DUP3 ADD AND DUP3 ADD DUP1 PUSH1 0x40 MSTORE POP DUP2 ADD SWAP1 PUSH2 0x1558 SWAP2 SWAP1 PUSH2 0x247F JUMP JUMPDEST SWAP1 POP PUSH1 0x0 DUP2 PUSH1 0x4 PUSH1 0x0 SWAP1 SLOAD SWAP1 PUSH2 0x100 EXP SWAP1 DIV PUSH1 0x1 PUSH1 0x1 PUSH1 0xA0 SHL SUB AND PUSH1 0x1 PUSH1 0x1 PUSH1 0xA0 SHL SUB AND PUSH4 0x33D57CDC PUSH1 0x40 MLOAD DUP2 PUSH4 0xFFFFFFFF AND PUSH1 0xE0 SHL DUP2 MSTORE PUSH1 0x4 ADD PUSH1 0x20 PUSH1 0x40 MLOAD DUP1 DUP4 SUB DUP2 DUP7 GAS STATICCALL ISZERO DUP1 ISZERO PUSH2 0x15B0 JUMPI RETURNDATASIZE PUSH1 0x0 DUP1 RETURNDATACOPY RETURNDATASIZE PUSH1 0x0 REVERT JUMPDEST POP POP POP POP PUSH1 0x40 MLOAD RETURNDATASIZE PUSH1 0x1F NOT PUSH1 0x1F DUP3 ADD AND DUP3 ADD DUP1 PUSH1 0x40 MSTORE POP DUP2 ADD SWAP1 PUSH2 0x15D4 SWAP2 SWAP1 PUSH2 0x247F JUMP JUMPDEST PUSH2 0x15DE SWAP1 DUP6 PUSH2 0x24C4 JUMP JUMPDEST PUSH2 0x15E8 SWAP2 SWAP1 PUSH2 0x24E3 JUMP JUMPDEST PUSH1 0x1 SLOAD PUSH1 0x40 MLOAD PUSH4 0xFCE3E8E7 PUSH1 0xE0 SHL DUP2 MSTORE PUSH1 0x1 PUSH1 0x1 PUSH1 0xA0 SHL SUB DUP8 DUP2 AND PUSH1 0x4 DUP4 ADD MSTORE SWAP3 SWAP4 POP SWAP2 AND SWAP1 PUSH4 0xFCE3E8E7 SWAP1 PUSH1 0x24 ADD PUSH1 0x20 PUSH1 0x40 MLOAD DUP1 DUP4 SUB DUP2 DUP7 GAS STATICCALL ISZERO DUP1 ISZERO PUSH2 0x1634 JUMPI RETURNDATASIZE PUSH1 0x0 DUP1 RETURNDATACOPY RETURNDATASIZE PUSH1 0x0 REVERT JUMPDEST POP POP POP POP PUSH1 0x40 MLOAD RETURNDATASIZE PUSH1 0x1F NOT PUSH1 0x1F DUP3 ADD AND DUP3 ADD DUP1 PUSH1 0x40 MSTORE POP DUP2 ADD SWAP1 PUSH2 0x1658 SWAP2 SWAP1 PUSH2 0x247F JUMP JUMPDEST DUP2 GT ISZERO PUSH2 0x16C2 JUMPI PUSH1 0x40 MLOAD PUSH3 0x461BCD PUSH1 0xE5 SHL DUP2 MSTORE PUSH1 0x20 PUSH1 0x4 DUP3 ADD MSTORE PUSH1 0x32 PUSH1 0x24 DUP3 ADD MSTORE PUSH32 0x557365722063616E6E6F742072656465656D206D6F7265207468616E20746865 PUSH1 0x44 DUP3 ADD MSTORE PUSH18 0x20617661696C61626C652062616C616E6365 PUSH1 0x70 SHL PUSH1 0x64 DUP3 ADD MSTORE PUSH1 0x84 ADD PUSH2 0xCE9 JUMP JUMPDEST PUSH1 0x4 DUP1 SLOAD PUSH1 0x40 MLOAD PUSH4 0x70A08231 PUSH1 0xE0 SHL DUP2 MSTORE CALLER SWAP3 DUP2 ADD SWAP3 SWAP1 SWAP3 MSTORE DUP5 SWAP2 PUSH1 0x1 PUSH1 0x1 PUSH1 0xA0 SHL SUB SWAP1 SWAP2 AND SWAP1 PUSH4 0x70A08231 SWAP1 PUSH1 0x24 ADD PUSH1 0x20 PUSH1 0x40 MLOAD DUP1 DUP4 SUB DUP2 DUP7 GAS STATICCALL ISZERO DUP1 ISZERO PUSH2 0x170F JUMPI RETURNDATASIZE PUSH1 0x0 DUP1 RETURNDATACOPY RETURNDATASIZE PUSH1 0x0 REVERT JUMPDEST POP POP POP POP PUSH1 0x40 MLOAD RETURNDATASIZE PUSH1 0x1F NOT PUSH1 0x1F DUP3 ADD AND DUP3 ADD DUP1 PUSH1 0x40 MSTORE POP DUP2 ADD SWAP1 PUSH2 0x1733 SWAP2 SWAP1 PUSH2 0x247F JUMP JUMPDEST LT ISZERO PUSH2 0x1795 JUMPI PUSH1 0x40 MLOAD PUSH3 0x461BCD PUSH1 0xE5 SHL DUP2 MSTORE PUSH1 0x20 PUSH1 0x4 DUP3 ADD MSTORE PUSH1 0x2B PUSH1 0x24 DUP3 ADD MSTORE PUSH32 0x43616E6E6F742072656465656D206D6F726520746F6B656E73207468616E206E PUSH1 0x44 DUP3 ADD MSTORE PUSH11 0x1D5B58995C881BDDDB9959 PUSH1 0xAA SHL PUSH1 0x64 DUP3 ADD MSTORE PUSH1 0x84 ADD PUSH2 0xCE9 JUMP JUMPDEST CALLER PUSH1 0x0 SWAP1 DUP2 MSTORE PUSH1 0x5 PUSH1 0x20 MSTORE PUSH1 0x40 DUP2 KECCAK256 DUP1 SLOAD DUP6 SWAP3 SWAP1 PUSH2 0x17B4 SWAP1 DUP5 SWAP1 PUSH2 0x2563 JUMP JUMPDEST SWAP1 SWAP2 SSTORE POP POP CALLER PUSH1 0x0 SWAP1 DUP2 MSTORE PUSH1 0x5 PUSH1 0x20 MSTORE PUSH1 0x40 SWAP1 KECCAK256 SLOAD PUSH2 0x17DE JUMPI CALLER PUSH1 0x0 SWAP1 DUP2 MSTORE PUSH1 0x5 PUSH1 0x20 MSTORE PUSH1 0x40 DUP2 KECCAK256 SSTORE JUMPDEST PUSH1 0x1 SLOAD PUSH1 0x40 MLOAD PUSH4 0x1F97F859 PUSH1 0xE3 SHL DUP2 MSTORE PUSH1 0x1 PUSH1 0x1 PUSH1 0xA0 SHL SUB SWAP1 SWAP2 AND SWAP1 PUSH4 0xFCBFC2C8 SWAP1 PUSH2 0x1812 SWAP1 CALLER SWAP1 DUP9 SWAP1 DUP7 SWAP1 PUSH1 0x4 ADD PUSH2 0x253F JUMP JUMPDEST PUSH1 0x0 PUSH1 0x40 MLOAD DUP1 DUP4 SUB DUP2 PUSH1 0x0 DUP8 DUP1 EXTCODESIZE ISZERO DUP1 ISZERO PUSH2 0x182C JUMPI PUSH1 0x0 DUP1 REVERT JUMPDEST POP GAS CALL ISZERO DUP1 ISZERO PUSH2 0x1840 JUMPI RETURNDATASIZE PUSH1 0x0 DUP1 RETURNDATACOPY RETURNDATASIZE PUSH1 0x0 REVERT JUMPDEST POP POP PUSH1 0x4 DUP1 SLOAD PUSH1 0x40 MLOAD PUSH4 0x2770A7EB PUSH1 0xE2 SHL DUP2 MSTORE CALLER SWAP3 DUP2 ADD SWAP3 SWAP1 SWAP3 MSTORE PUSH1 0x24 DUP3 ADD DUP8 SWAP1 MSTORE PUSH1 0x1 PUSH1 0x1 PUSH1 0xA0 SHL SUB AND SWAP3 POP PUSH4 0x9DC29FAC SWAP2 POP PUSH1 0x44 ADD PUSH1 0x0 PUSH1 0x40 MLOAD DUP1 DUP4 SUB DUP2 PUSH1 0x0 DUP8 DUP1 EXTCODESIZE ISZERO DUP1 ISZERO PUSH2 0x1891 JUMPI PUSH1 0x0 DUP1 REVERT JUMPDEST POP GAS CALL ISZERO DUP1 ISZERO PUSH2 0x18A5 JUMPI RETURNDATASIZE PUSH1 0x0 DUP1 RETURNDATACOPY RETURNDATASIZE PUSH1 0x0 REVERT JUMPDEST POP POP POP POP POP POP POP POP JUMP JUMPDEST PUSH1 0x2 SLOAD PUSH1 0x40 MLOAD PUSH4 0x1D512A91 PUSH1 0xE2 SHL DUP2 MSTORE PUSH1 0x1 PUSH1 0x1 PUSH1 0xA0 SHL SUB DUP4 DUP2 AND PUSH1 0x4 DUP4 ADD MSTORE PUSH1 0x0 SWAP3 AND SWAP1 PUSH4 0x7544AA44 SWAP1 PUSH1 0x24 ADD PUSH2 0x4E8 JUMP JUMPDEST PUSH1 0x4 DUP1 SLOAD PUSH1 0x40 MLOAD PUSH4 0x70A08231 PUSH1 0xE0 SHL DUP2 MSTORE PUSH1 0x1 PUSH1 0x1 PUSH1 0xA0 SHL SUB DUP5 DUP2 AND SWAP4 DUP3 ADD SWAP4 SWAP1 SWAP4 MSTORE PUSH1 0x0 SWAP3 SWAP1 SWAP2 AND SWAP1 PUSH4 0x70A08231 SWAP1 PUSH1 0x24 ADD PUSH2 0x4E8 JUMP JUMPDEST PUSH1 0x2 SLOAD PUSH1 0x40 MLOAD PUSH4 0x2B92A07D PUSH1 0xE0 SHL DUP2 MSTORE PUSH1 0x1 PUSH1 0x1 PUSH1 0xA0 SHL SUB DUP4 DUP2 AND PUSH1 0x4 DUP4 ADD MSTORE DUP5 DUP2 AND PUSH1 0x24 DUP4 ADD MSTORE PUSH1 0x0 SWAP3 AND SWAP1 PUSH4 0x2B92A07D SWAP1 PUSH1 0x44 ADD PUSH1 0x20 PUSH1 0x40 MLOAD DUP1 DUP4 SUB DUP2 DUP7 GAS STATICCALL ISZERO DUP1 ISZERO PUSH2 0x196D JUMPI RETURNDATASIZE PUSH1 0x0 DUP1 RETURNDATACOPY RETURNDATASIZE PUSH1 0x0 REVERT JUMPDEST POP POP POP POP PUSH1 0x40 MLOAD RETURNDATASIZE PUSH1 0x1F NOT PUSH1 0x1F DUP3 ADD AND DUP3 ADD DUP1 PUSH1 0x40 MSTORE POP DUP2 ADD SWAP1 PUSH2 0x1991 SWAP2 SWAP1 PUSH2 0x247F JUMP JUMPDEST SWAP4 SWAP3 POP POP POP JUMP JUMPDEST PUSH1 0x6 SLOAD PUSH1 0x0 JUMPDEST DUP2 DUP2 PUSH2 0xFFFF AND LT ISZERO PUSH2 0xA84 JUMPI PUSH1 0x0 PUSH1 0x6 DUP3 PUSH2 0xFFFF AND DUP2 SLOAD DUP2 LT PUSH2 0x19C3 JUMPI PUSH2 0x19C3 PUSH2 0x2498 JUMP JUMPDEST PUSH1 0x0 SWAP2 DUP3 MSTORE PUSH1 0x20 DUP1 DUP4 KECCAK256 SWAP2 SWAP1 SWAP2 ADD SLOAD PUSH1 0x1 PUSH1 0x1 PUSH1 0xA0 SHL SUB SWAP1 DUP2 AND DUP1 DUP5 MSTORE PUSH1 0xC SWAP1 SWAP3 MSTORE PUSH1 0x40 DUP1 DUP5 KECCAK256 SLOAD PUSH1 0x1 SLOAD SWAP2 MLOAD PUSH4 0x1230A067 PUSH1 0xE1 SHL DUP2 MSTORE PUSH1 0x4 DUP2 ADD DUP6 SWAP1 MSTORE SWAP4 SWAP6 POP SWAP4 SWAP3 SWAP2 AND SWAP1 PUSH4 0x246140CE SWAP1 PUSH1 0x24 ADD PUSH1 0x20 PUSH1 0x40 MLOAD DUP1 DUP4 SUB DUP2 DUP7 GAS STATICCALL ISZERO DUP1 ISZERO PUSH2 0x1A2F JUMPI RETURNDATASIZE PUSH1 0x0 DUP1 RETURNDATACOPY RETURNDATASIZE PUSH1 0x0 REVERT JUMPDEST POP POP POP POP PUSH1 0x40 MLOAD RETURNDATASIZE PUSH1 0x1F NOT PUSH1 0x1F DUP3 ADD AND DUP3 ADD DUP1 PUSH1 0x40 MSTORE POP DUP2 ADD SWAP1 PUSH2 0x1A53 SWAP2 SWAP1 PUSH2 0x247F JUMP JUMPDEST SWAP1 POP PUSH1 0x0 JUMPDEST DUP3 DUP2 PUSH2 0xFFFF AND LT ISZERO PUSH2 0x1B6B JUMPI PUSH1 0x1 PUSH1 0x1 PUSH1 0xA0 SHL SUB DUP5 AND PUSH1 0x0 SWAP1 DUP2 MSTORE PUSH1 0xA PUSH1 0x20 SWAP1 DUP2 MSTORE PUSH1 0x40 DUP1 DUP4 KECCAK256 PUSH1 0xC SWAP1 SWAP3 MSTORE DUP3 KECCAK256 DUP1 SLOAD PUSH8 0xDE0B6B3A7640000 SWAP4 SWAP2 SWAP1 PUSH2 0xFFFF DUP7 AND SWAP1 DUP2 LT PUSH2 0x1AA8 JUMPI PUSH2 0x1AA8 PUSH2 0x2498 JUMP JUMPDEST PUSH1 0x0 SWAP2 DUP3 MSTORE PUSH1 0x20 DUP1 DUP4 KECCAK256 SWAP1 SWAP2 ADD SLOAD PUSH1 0x1 PUSH1 0x1 PUSH1 0xA0 SHL SUB AND DUP4 MSTORE DUP3 ADD SWAP3 SWAP1 SWAP3 MSTORE PUSH1 0x40 ADD SWAP1 KECCAK256 SLOAD PUSH2 0x1AD7 SWAP1 DUP5 PUSH2 0x24C4 JUMP JUMPDEST PUSH2 0x1AE1 SWAP2 SWAP1 PUSH2 0x24E3 JUMP JUMPDEST PUSH1 0x1 PUSH1 0x1 PUSH1 0xA0 SHL SUB DUP6 AND PUSH1 0x0 SWAP1 DUP2 MSTORE PUSH1 0xA PUSH1 0x20 SWAP1 DUP2 MSTORE PUSH1 0x40 DUP1 DUP4 KECCAK256 PUSH1 0xC SWAP1 SWAP3 MSTORE DUP3 KECCAK256 DUP1 SLOAD SWAP2 SWAP3 SWAP2 PUSH2 0xFFFF DUP7 AND SWAP1 DUP2 LT PUSH2 0x1B1C JUMPI PUSH2 0x1B1C PUSH2 0x2498 JUMP JUMPDEST PUSH1 0x0 SWAP2 DUP3 MSTORE PUSH1 0x20 DUP1 DUP4 KECCAK256 SWAP1 SWAP2 ADD SLOAD PUSH1 0x1 PUSH1 0x1 PUSH1 0xA0 SHL SUB AND DUP4 MSTORE DUP3 ADD SWAP3 SWAP1 SWAP3 MSTORE PUSH1 0x40 ADD DUP2 KECCAK256 PUSH1 0x1 ADD DUP1 SLOAD SWAP1 SWAP2 SWAP1 PUSH2 0x1B53 SWAP1 DUP5 SWAP1 PUSH2 0x2505 JUMP JUMPDEST SWAP1 SWAP2 SSTORE POP DUP2 SWAP1 POP PUSH2 0x1B63 DUP2 PUSH2 0x251D JUMP JUMPDEST SWAP2 POP POP PUSH2 0x1A58 JUMP JUMPDEST POP POP POP POP DUP1 DUP1 PUSH2 0x1B7A SWAP1 PUSH2 0x251D JUMP JUMPDEST SWAP2 POP POP PUSH2 0x199E JUMP JUMPDEST PUSH1 0x1 SLOAD PUSH1 0x40 MLOAD PUSH4 0xFCE3E8E7 PUSH1 0xE0 SHL DUP2 MSTORE PUSH1 0x1 PUSH1 0x1 PUSH1 0xA0 SHL SUB DUP4 DUP2 AND PUSH1 0x4 DUP4 ADD MSTORE PUSH1 0x0 SWAP3 AND SWAP1 PUSH4 0xFCE3E8E7 SWAP1 PUSH1 0x24 ADD PUSH2 0x4E8 JUMP JUMPDEST PUSH1 0x1 PUSH1 0x1 PUSH1 0xA0 SHL SUB DUP2 DUP2 AND PUSH1 0x0 SWAP1 DUP2 MSTORE PUSH1 0xA PUSH1 0x20 SWAP1 DUP2 MSTORE PUSH1 0x40 DUP1 DUP4 KECCAK256 SWAP4 DUP7 AND DUP4 MSTORE SWAP3 SWAP1 MSTORE SWAP1 DUP2 KECCAK256 PUSH1 0x1 DUP2 ADD SLOAD SWAP1 SLOAD PUSH2 0x1991 SWAP2 SWAP1 PUSH2 0x2505 JUMP JUMPDEST PUSH2 0x1BF6 CALLER PUSH2 0x21D9 JUMP JUMPDEST PUSH1 0x2 PUSH1 0x0 SWAP1 SLOAD SWAP1 PUSH2 0x100 EXP SWAP1 DIV PUSH1 0x1 PUSH1 0x1 PUSH1 0xA0 SHL SUB AND PUSH1 0x1 PUSH1 0x1 PUSH1 0xA0 SHL SUB AND PUSH4 0x9404954 PUSH1 0x40 MLOAD DUP2 PUSH4 0xFFFFFFFF AND PUSH1 0xE0 SHL DUP2 MSTORE PUSH1 0x4 ADD PUSH1 0x20 PUSH1 0x40 MLOAD DUP1 DUP4 SUB DUP2 DUP7 GAS STATICCALL ISZERO DUP1 ISZERO PUSH2 0x1C49 JUMPI RETURNDATASIZE PUSH1 0x0 DUP1 RETURNDATACOPY RETURNDATASIZE PUSH1 0x0 REVERT JUMPDEST POP POP POP POP PUSH1 0x40 MLOAD RETURNDATASIZE PUSH1 0x1F NOT PUSH1 0x1F DUP3 ADD AND DUP3 ADD DUP1 PUSH1 0x40 MSTORE POP DUP2 ADD SWAP1 PUSH2 0x1C6D SWAP2 SWAP1 PUSH2 0x247F JUMP JUMPDEST PUSH2 0x1C77 SWAP2 SWAP1 PUSH2 0x24C4 JUMP JUMPDEST PUSH1 0x0 SLOAD PUSH1 0x40 MLOAD PUSH4 0x41976E09 PUSH1 0xE0 SHL DUP2 MSTORE PUSH1 0x1 PUSH1 0x1 PUSH1 0xA0 SHL SUB DUP7 DUP2 AND PUSH1 0x4 DUP4 ADD MSTORE PUSH8 0xDE0B6B3A7640000 SWAP3 DUP7 SWAP3 SWAP2 AND SWAP1 PUSH4 0x41976E09 SWAP1 PUSH1 0x24 ADD PUSH1 0x20 PUSH1 0x40 MLOAD DUP1 DUP4 SUB DUP2 DUP7 GAS STATICCALL ISZERO DUP1 ISZERO PUSH2 0x1CCC JUMPI RETURNDATASIZE PUSH1 0x0 DUP1 RETURNDATACOPY RETURNDATASIZE PUSH1 0x0 REVERT JUMPDEST POP POP POP POP PUSH1 0x40 MLOAD RETURNDATASIZE PUSH1 0x1F NOT PUSH1 0x1F DUP3 ADD AND DUP3 ADD DUP1 PUSH1 0x40 MSTORE POP DUP2 ADD SWAP1 PUSH2 0x1CF0 SWAP2 SWAP1 PUSH2 0x247F JUMP JUMPDEST PUSH2 0x1CFA SWAP2 SWAP1 PUSH2 0x24C4 JUMP JUMPDEST PUSH2 0x1D04 SWAP2 SWAP1 PUSH2 0x24E3 JUMP JUMPDEST PUSH1 0x2 SLOAD PUSH1 0x40 MLOAD PUSH4 0x1D512A91 PUSH1 0xE2 SHL DUP2 MSTORE CALLER PUSH1 0x4 DUP3 ADD MSTORE PUSH1 0x1 PUSH1 0x1 PUSH1 0xA0 SHL SUB SWAP1 SWAP2 AND SWAP1 PUSH4 0x7544AA44 SWAP1 PUSH1 0x24 ADD PUSH1 0x20 PUSH1 0x40 MLOAD DUP1 DUP4 SUB DUP2 DUP7 GAS STATICCALL ISZERO DUP1 ISZERO PUSH2 0x1D4C JUMPI RETURNDATASIZE PUSH1 0x0 DUP1 RETURNDATACOPY RETURNDATASIZE PUSH1 0x0 REVERT JUMPDEST POP POP POP POP PUSH1 0x40 MLOAD RETURNDATASIZE PUSH1 0x1F NOT PUSH1 0x1F DUP3 ADD AND DUP3 ADD DUP1 PUSH1 0x40 MSTORE POP DUP2 ADD SWAP1 PUSH2 0x1D70 SWAP2 SWAP1 PUSH2 0x247F JUMP JUMPDEST PUSH2 0x1D7A SWAP2 SWAP1 PUSH2 0x2563 JUMP JUMPDEST LT ISZERO PUSH2 0x1DE3 JUMPI PUSH1 0x40 MLOAD PUSH3 0x461BCD PUSH1 0xE5 SHL DUP2 MSTORE PUSH1 0x20 PUSH1 0x4 DUP3 ADD MSTORE PUSH1 0x32 PUSH1 0x24 DUP3 ADD MSTORE PUSH32 0x43616E6E6F7420776974686472617720636F6C6C61746572616C206265666F72 PUSH1 0x44 DUP3 ADD MSTORE PUSH18 0x32903830BCB4B733903130B1B5903637B0B7 PUSH1 0x71 SHL PUSH1 0x64 DUP3 ADD MSTORE PUSH1 0x84 ADD PUSH2 0xCE9 JUMP JUMPDEST PUSH1 0x2 SLOAD PUSH1 0x40 MLOAD PUSH4 0x2B92A07D PUSH1 0xE0 SHL DUP2 MSTORE PUSH1 0x1 PUSH1 0x1 PUSH1 0xA0 SHL SUB DUP6 DUP2 AND PUSH1 0x4 DUP4 ADD MSTORE CALLER PUSH1 0x24 DUP4 ADD MSTORE PUSH1 0x0 SWAP3 AND SWAP1 PUSH4 0x2B92A07D SWAP1 PUSH1 0x44 ADD PUSH1 0x20 PUSH1 0x40 MLOAD DUP1 DUP4 SUB DUP2 DUP7 GAS STATICCALL ISZERO DUP1 ISZERO PUSH2 0x1E34 JUMPI RETURNDATASIZE PUSH1 0x0 DUP1 RETURNDATACOPY RETURNDATASIZE PUSH1 0x0 REVERT JUMPDEST POP POP POP POP PUSH1 0x40 MLOAD RETURNDATASIZE PUSH1 0x1F NOT PUSH1 0x1F DUP3 ADD AND DUP3 ADD DUP1 PUSH1 0x40 MSTORE POP DUP2 ADD SWAP1 PUSH2 0x1E58 SWAP2 SWAP1 PUSH2 0x247F JUMP JUMPDEST SWAP1 POP DUP1 DUP4 GT ISZERO PUSH2 0x1EBB JUMPI PUSH1 0x40 MLOAD PUSH3 0x461BCD PUSH1 0xE5 SHL DUP2 MSTORE PUSH1 0x20 PUSH1 0x4 DUP3 ADD MSTORE PUSH1 0x28 PUSH1 0x24 DUP3 ADD MSTORE PUSH32 0x52656465656D696E67206D6F726520636F6C6C61746572616C207468616E2064 PUSH1 0x44 DUP3 ADD MSTORE PUSH8 0x195C1BDCDA5D1959 PUSH1 0xC2 SHL PUSH1 0x64 DUP3 ADD MSTORE PUSH1 0x84 ADD PUSH2 0xCE9 JUMP JUMPDEST PUSH1 0x2 SLOAD PUSH1 0x40 MLOAD PUSH4 0x4755EA7F PUSH1 0xE1 SHL DUP2 MSTORE CALLER PUSH1 0x4 DUP3 ADD MSTORE PUSH1 0x1 PUSH1 0x1 PUSH1 0xA0 SHL SUB DUP7 DUP2 AND PUSH1 0x24 DUP4 ADD MSTORE PUSH1 0x44 DUP3 ADD DUP7 SWAP1 MSTORE DUP5 ISZERO ISZERO PUSH1 0x64 DUP4 ADD MSTORE SWAP1 SWAP2 AND SWAP1 PUSH4 0x8EABD4FE SWAP1 PUSH1 0x84 ADD PUSH1 0x0 PUSH1 0x40 MLOAD DUP1 DUP4 SUB DUP2 PUSH1 0x0 DUP8 DUP1 EXTCODESIZE ISZERO DUP1 ISZERO PUSH2 0x1F17 JUMPI PUSH1 0x0 DUP1 REVERT JUMPDEST POP GAS CALL ISZERO DUP1 ISZERO PUSH2 0x1F2B JUMPI RETURNDATASIZE PUSH1 0x0 DUP1 RETURNDATACOPY RETURNDATASIZE PUSH1 0x0 REVERT JUMPDEST POP POP POP POP DUP2 ISZERO ISZERO PUSH1 0x1 EQ ISZERO PUSH2 0x148E JUMPI PUSH1 0x4 DUP1 SLOAD PUSH1 0x40 MLOAD PUSH4 0xD4D1513 PUSH1 0xE0 SHL DUP2 MSTORE CALLER SWAP3 DUP2 ADD SWAP3 SWAP1 SWAP3 MSTORE PUSH1 0x24 DUP3 ADD DUP6 SWAP1 MSTORE PUSH1 0x1 PUSH1 0x1 PUSH1 0xA0 SHL SUB DUP7 DUP2 AND PUSH1 0x44 DUP5 ADD MSTORE PUSH1 0x0 SWAP3 SWAP2 AND SWAP1 PUSH4 0xD4D1513 SWAP1 PUSH1 0x64 ADD PUSH1 0x20 PUSH1 0x40 MLOAD DUP1 DUP4 SUB DUP2 PUSH1 0x0 DUP8 GAS CALL ISZERO DUP1 ISZERO PUSH2 0x1F98 JUMPI RETURNDATASIZE PUSH1 0x0 DUP1 RETURNDATACOPY RETURNDATASIZE PUSH1 0x0 REVERT JUMPDEST POP POP POP POP PUSH1 0x40 MLOAD RETURNDATASIZE PUSH1 0x1F NOT PUSH1 0x1F DUP3 ADD AND DUP3 ADD DUP1 PUSH1 0x40 MSTORE POP DUP2 ADD SWAP1 PUSH2 0x1FBC SWAP2 SWAP1 PUSH2 0x247F JUMP JUMPDEST CALLER PUSH1 0x0 SWAP1 DUP2 MSTORE PUSH1 0x5 PUSH1 0x20 MSTORE PUSH1 0x40 DUP2 KECCAK256 DUP1 SLOAD SWAP3 SWAP4 POP DUP4 SWAP3 SWAP1 SWAP2 SWAP1 PUSH2 0x1FE0 SWAP1 DUP5 SWAP1 PUSH2 0x2505 JUMP JUMPDEST SWAP1 SWAP2 SSTORE POP POP PUSH1 0x1 PUSH1 0x1 PUSH1 0xA0 SHL SUB DUP6 AND PUSH1 0x0 SWAP1 DUP2 MSTORE PUSH1 0xF PUSH1 0x20 SWAP1 DUP2 MSTORE PUSH1 0x40 DUP1 DUP4 KECCAK256 CALLER DUP5 MSTORE SWAP1 SWAP2 MSTORE SWAP1 KECCAK256 SLOAD PUSH1 0xFF AND PUSH2 0x206D JUMPI PUSH1 0x1 PUSH1 0x1 PUSH1 0xA0 SHL SUB DUP6 AND PUSH1 0x0 DUP2 DUP2 MSTORE PUSH1 0xE PUSH1 0x20 SWAP1 DUP2 MSTORE PUSH1 0x40 DUP1 DUP4 KECCAK256 DUP1 SLOAD PUSH1 0x1 DUP2 DUP2 ADD DUP4 SSTORE SWAP2 DUP6 MSTORE DUP4 DUP6 KECCAK256 ADD DUP1 SLOAD PUSH1 0x1 PUSH1 0x1 PUSH1 0xA0 SHL SUB NOT AND CALLER SWAP1 DUP2 OR SWAP1 SWAP2 SSTORE SWAP5 DUP5 MSTORE PUSH1 0xF DUP4 MSTORE DUP2 DUP5 KECCAK256 SWAP5 DUP5 MSTORE SWAP4 SWAP1 SWAP2 MSTORE SWAP1 KECCAK256 DUP1 SLOAD PUSH1 0xFF NOT AND SWAP1 SWAP2 OR SWAP1 SSTORE JUMPDEST PUSH1 0x1 PUSH1 0x1 PUSH1 0xA0 SHL SUB DUP6 AND PUSH1 0x0 SWAP1 DUP2 MSTORE PUSH1 0xB PUSH1 0x20 SWAP1 DUP2 MSTORE PUSH1 0x40 DUP1 DUP4 KECCAK256 CALLER DUP5 MSTORE SWAP1 SWAP2 MSTORE DUP2 KECCAK256 DUP1 SLOAD DUP7 SWAP3 SWAP1 PUSH2 0x20A0 SWAP1 DUP5 SWAP1 PUSH2 0x2505 JUMP JUMPDEST SWAP1 SWAP2 SSTORE POP POP POP POP POP POP POP JUMP JUMPDEST PUSH1 0x0 PUSH1 0x4 PUSH1 0x0 SWAP1 SLOAD SWAP1 PUSH2 0x100 EXP SWAP1 DIV PUSH1 0x1 PUSH1 0x1 PUSH1 0xA0 SHL SUB AND PUSH1 0x1 PUSH1 0x1 PUSH1 0xA0 SHL SUB AND PUSH4 0x18160DDD PUSH1 0x40 MLOAD DUP2 PUSH4 0xFFFFFFFF AND PUSH1 0xE0 SHL DUP2 MSTORE PUSH1 0x4 ADD PUSH1 0x20 PUSH1 0x40 MLOAD DUP1 DUP4 SUB DUP2 DUP7 GAS STATICCALL ISZERO DUP1 ISZERO PUSH2 0x584 JUMPI RETURNDATASIZE PUSH1 0x0 DUP1 RETURNDATACOPY RETURNDATASIZE PUSH1 0x0 REVERT JUMPDEST PUSH1 0x1 SLOAD PUSH1 0x40 MLOAD PUSH4 0xF8B2CB4F PUSH1 0xE0 SHL DUP2 MSTORE PUSH1 0x1 PUSH1 0x1 PUSH1 0xA0 SHL SUB DUP4 DUP2 AND PUSH1 0x4 DUP4 ADD MSTORE PUSH1 0x0 SWAP3 AND SWAP1 PUSH4 0xF8B2CB4F SWAP1 PUSH1 0x24 ADD PUSH2 0x4E8 JUMP JUMPDEST PUSH1 0x1 SLOAD PUSH1 0x40 MLOAD PUSH4 0x1230A067 PUSH1 0xE1 SHL DUP2 MSTORE PUSH1 0x1 PUSH1 0x1 PUSH1 0xA0 SHL SUB DUP4 DUP2 AND PUSH1 0x4 DUP4 ADD MSTORE PUSH1 0x0 SWAP3 AND SWAP1 PUSH4 0x246140CE SWAP1 PUSH1 0x24 ADD PUSH2 0x4E8 JUMP JUMPDEST PUSH1 0x2 SLOAD PUSH1 0x40 MLOAD PUSH4 0x28D1F893 PUSH1 0xE2 SHL DUP2 MSTORE PUSH1 0x1 PUSH1 0x1 PUSH1 0xA0 SHL SUB DUP4 DUP2 AND PUSH1 0x4 DUP4 ADD MSTORE PUSH1 0x0 SWAP3 AND SWAP1 PUSH4 0xA347E24C SWAP1 PUSH1 0x24 ADD PUSH2 0x4E8 JUMP JUMPDEST PUSH1 0x0 PUSH2 0x1991 DUP4 DUP4 PUSH2 0x2305 JUMP JUMPDEST PUSH1 0x1 SLOAD PUSH1 0x40 MLOAD PUSH4 0xDE30F97D PUSH1 0xE0 SHL DUP2 MSTORE PUSH1 0x1 PUSH1 0x1 PUSH1 0xA0 SHL SUB DUP4 DUP2 AND PUSH1 0x4 DUP4 ADD MSTORE PUSH1 0x0 SWAP3 AND SWAP1 PUSH4 0xDE30F97D SWAP1 PUSH1 0x24 ADD PUSH2 0x4E8 JUMP JUMPDEST PUSH1 0x6 SLOAD PUSH1 0x0 SWAP1 DUP2 SWAP1 DUP2 JUMPDEST DUP2 DUP2 PUSH2 0xFFFF AND LT ISZERO PUSH2 0x22FC JUMPI PUSH1 0x0 PUSH1 0x6 DUP3 PUSH2 0xFFFF AND DUP2 SLOAD DUP2 LT PUSH2 0x2208 JUMPI PUSH2 0x2208 PUSH2 0x2498 JUMP JUMPDEST PUSH1 0x0 SWAP2 DUP3 MSTORE PUSH1 0x20 DUP3 KECCAK256 ADD SLOAD DUP2 SLOAD PUSH1 0x40 MLOAD PUSH4 0x41976E09 PUSH1 0xE0 SHL DUP2 MSTORE PUSH1 0x1 PUSH1 0x1 PUSH1 0xA0 SHL SUB SWAP3 DUP4 AND PUSH1 0x4 DUP3 ADD DUP2 SWAP1 MSTORE SWAP5 POP SWAP2 AND SWAP1 PUSH4 0x41976E09 SWAP1 PUSH1 0x24 ADD PUSH1 0x20 PUSH1 0x40 MLOAD DUP1 DUP4 SUB DUP2 DUP7 GAS STATICCALL ISZERO DUP1 ISZERO PUSH2 0x225F JUMPI RETURNDATASIZE PUSH1 0x0 DUP1 RETURNDATACOPY RETURNDATASIZE PUSH1 0x0 REVERT JUMPDEST POP POP POP POP PUSH1 0x40 MLOAD RETURNDATASIZE PUSH1 0x1F NOT PUSH1 0x1F DUP3 ADD AND DUP3 ADD DUP1 PUSH1 0x40 MSTORE POP DUP2 ADD SWAP1 PUSH2 0x2283 SWAP2 SWAP1 PUSH2 0x247F JUMP JUMPDEST PUSH1 0x1 PUSH1 0x1 PUSH1 0xA0 SHL SUB DUP4 DUP2 AND PUSH1 0x0 SWAP1 DUP2 MSTORE PUSH1 0xA PUSH1 0x20 SWAP1 DUP2 MSTORE PUSH1 0x40 DUP1 DUP4 KECCAK256 SWAP4 DUP13 AND DUP4 MSTORE SWAP3 SWAP1 MSTORE KECCAK256 PUSH1 0x1 DUP2 ADD SLOAD SWAP1 SLOAD SWAP2 SWAP3 POP PUSH8 0xDE0B6B3A7640000 SWAP2 DUP4 SWAP2 PUSH2 0x22C7 SWAP2 PUSH2 0x2505 JUMP JUMPDEST PUSH2 0x22D1 SWAP2 SWAP1 PUSH2 0x24C4 JUMP JUMPDEST PUSH2 0x22DB SWAP2 SWAP1 PUSH2 0x24E3 JUMP JUMPDEST PUSH2 0x22E5 SWAP1 DUP7 PUSH2 0x2505 JUMP JUMPDEST SWAP5 POP POP POP DUP1 DUP1 PUSH2 0x22F4 SWAP1 PUSH2 0x251D JUMP JUMPDEST SWAP2 POP POP PUSH2 0x21E3 JUMP JUMPDEST POP SWAP1 SWAP4 SWAP3 POP POP POP JUMP JUMPDEST PUSH1 0x0 DUP2 DUP4 LT PUSH2 0x2314 JUMPI DUP2 PUSH2 0x1991 JUMP JUMPDEST POP SWAP1 SWAP2 SWAP1 POP JUMP JUMPDEST DUP1 CALLDATALOAD PUSH1 0x1 PUSH1 0x1 PUSH1 0xA0 SHL SUB DUP2 AND DUP2 EQ PUSH2 0x2332 JUMPI PUSH1 0x0 DUP1 REVERT JUMPDEST SWAP2 SWAP1 POP JUMP JUMPDEST PUSH1 0x0 PUSH1 0x20 DUP3 DUP5 SUB SLT ISZERO PUSH2 0x2349 JUMPI PUSH1 0x0 DUP1 REVERT JUMPDEST PUSH2 0x1991 DUP3 PUSH2 0x231B JUMP JUMPDEST PUSH1 0x0 DUP1 PUSH1 0x0 DUP1 PUSH1 0x80 DUP6 DUP8 SUB SLT ISZERO PUSH2 0x2368 JUMPI PUSH1 0x0 DUP1 REVERT JUMPDEST DUP5 CALLDATALOAD SWAP4 POP PUSH2 0x2378 PUSH1 0x20 DUP7 ADD PUSH2 0x231B JUMP JUMPDEST SWAP3 POP PUSH1 0x40 DUP6 ADD CALLDATALOAD SWAP2 POP PUSH2 0x238D PUSH1 0x60 DUP7 ADD PUSH2 0x231B JUMP JUMPDEST SWAP1 POP SWAP3 SWAP6 SWAP2 SWAP5 POP SWAP3 POP JUMP JUMPDEST PUSH1 0x0 DUP1 PUSH1 0x40 DUP4 DUP6 SUB SLT ISZERO PUSH2 0x23AB JUMPI PUSH1 0x0 DUP1 REVERT JUMPDEST DUP3 CALLDATALOAD SWAP2 POP PUSH2 0x23BB PUSH1 0x20 DUP5 ADD PUSH2 0x231B JUMP JUMPDEST SWAP1 POP SWAP3 POP SWAP3 SWAP1 POP JUMP JUMPDEST PUSH1 0x0 DUP1 PUSH1 0x40 DUP4 DUP6 SUB SLT ISZERO PUSH2 0x23D7 JUMPI PUSH1 0x0 DUP1 REVERT JUMPDEST PUSH2 0x23E0 DUP4 PUSH2 0x231B JUMP JUMPDEST SWAP5 PUSH1 0x20 SWAP4 SWAP1 SWAP4 ADD CALLDATALOAD SWAP4 POP POP POP JUMP JUMPDEST PUSH1 0x0 DUP1 PUSH1 0x40 DUP4 DUP6 SUB SLT ISZERO PUSH2 0x2401 JUMPI PUSH1 0x0 DUP1 REVERT JUMPDEST PUSH2 0x240A DUP4 PUSH2 0x231B JUMP JUMPDEST SWAP2 POP PUSH2 0x23BB PUSH1 0x20 DUP5 ADD PUSH2 0x231B JUMP JUMPDEST PUSH1 0x0 DUP1 PUSH1 0x0 PUSH1 0x60 DUP5 DUP7 SUB SLT ISZERO PUSH2 0x242D JUMPI PUSH1 0x0 DUP1 REVERT JUMPDEST PUSH2 0x2436 DUP5 PUSH2 0x231B JUMP JUMPDEST SWAP3 POP PUSH1 0x20 DUP5 ADD CALLDATALOAD SWAP2 POP PUSH1 0x40 DUP5 ADD CALLDATALOAD DUP1 ISZERO ISZERO DUP2 EQ PUSH2 0x2452 JUMPI PUSH1 0x0 DUP1 REVERT JUMPDEST DUP1 SWAP2 POP POP SWAP3 POP SWAP3 POP SWAP3 JUMP JUMPDEST PUSH1 0x0 DUP1 PUSH1 0x40 DUP4 DUP6 SUB SLT ISZERO PUSH2 0x2470 JUMPI PUSH1 0x0 DUP1 REVERT JUMPDEST POP POP DUP1 CALLDATALOAD SWAP3 PUSH1 0x20 SWAP1 SWAP2 ADD CALLDATALOAD SWAP2 POP JUMP JUMPDEST PUSH1 0x0 PUSH1 0x20 DUP3 DUP5 SUB SLT ISZERO PUSH2 0x2491 JUMPI PUSH1 0x0 DUP1 REVERT JUMPDEST POP MLOAD SWAP2 SWAP1 POP JUMP JUMPDEST PUSH4 0x4E487B71 PUSH1 0xE0 SHL PUSH1 0x0 MSTORE PUSH1 0x32 PUSH1 0x4 MSTORE PUSH1 0x24 PUSH1 0x0 REVERT JUMPDEST PUSH4 0x4E487B71 PUSH1 0xE0 SHL PUSH1 0x0 MSTORE PUSH1 0x11 PUSH1 0x4 MSTORE PUSH1 0x24 PUSH1 0x0 REVERT JUMPDEST PUSH1 0x0 DUP2 PUSH1 0x0 NOT DIV DUP4 GT DUP3 ISZERO ISZERO AND ISZERO PUSH2 0x24DE JUMPI PUSH2 0x24DE PUSH2 0x24AE JUMP JUMPDEST POP MUL SWAP1 JUMP JUMPDEST PUSH1 0x0 DUP3 PUSH2 0x2500 JUMPI PUSH4 0x4E487B71 PUSH1 0xE0 SHL PUSH1 0x0 MSTORE PUSH1 0x12 PUSH1 0x4 MSTORE PUSH1 0x24 PUSH1 0x0 REVERT JUMPDEST POP DIV SWAP1 JUMP JUMPDEST PUSH1 0x0 DUP3 NOT DUP3 GT ISZERO PUSH2 0x2518 JUMPI PUSH2 0x2518 PUSH2 0x24AE JUMP JUMPDEST POP ADD SWAP1 JUMP JUMPDEST PUSH1 0x0 PUSH2 0xFFFF DUP1 DUP4 AND DUP2 DUP2 EQ ISZERO PUSH2 0x2535 JUMPI PUSH2 0x2535 PUSH2 0x24AE JUMP JUMPDEST PUSH1 0x1 ADD SWAP4 SWAP3 POP POP POP JUMP JUMPDEST PUSH1 0x1 PUSH1 0x1 PUSH1 0xA0 SHL SUB SWAP4 DUP5 AND DUP2 MSTORE SWAP2 SWAP1 SWAP3 AND PUSH1 0x20 DUP3 ADD MSTORE PUSH1 0x40 DUP2 ADD SWAP2 SWAP1 SWAP2 MSTORE PUSH1 0x60 ADD SWAP1 JUMP JUMPDEST PUSH1 0x0 DUP3 DUP3 LT ISZERO PUSH2 0x2575 JUMPI PUSH2 0x2575 PUSH2 0x24AE JUMP JUMPDEST POP SUB SWAP1 JUMP INVALID LOG2 PUSH5 0x6970667358 0x22 SLT KECCAK256 SWAP3 0x4F 0xAA SWAP8 0xF8 PUSH20 0x30A7C0A4ED006E111C6AD0C85B80340BBF5D05AF DUP3 0x22 CODESIZE 0xD0 RETURNDATACOPY DUP16 PUSH5 0x736F6C6343 STOP ADDMOD SIGNEXTEND STOP CALLER ","sha1":"54c07204682a57f78aa76b1b8fd13ca0b4c14388","source":"// SPDX-License-Identifier: MIT\n\npragma solidity ^0.8.0;\n\nimport \"@openzeppelin/contracts/utils/math/SafeMath.sol\";\nimport \"@openzeppelin/contracts/token/ERC20/IERC20.sol\";\nimport \"./Math.sol\";\nimport \"./2_Pool.sol\";\nimport \"./3_Collateral.sol\";\nimport \"./LVRToken.sol\";\nimport \"./Conversion.sol\";\n\ncontract LendingPool {\n    using SafeMath for uint256;\n    using Math for uint256;\n    Conversion public conversion;\n\n    event depositEvent(address _user, uint256 _quantity, address _asset);\n    event borrowEvent(\n        address _user,\n        uint256 _borrowed,\n        address _borrowedAsset,\n        uint256 _collateral,\n        address _collateralAsset\n    );\n\n    //public keyword??\n    Pool public pool;\n    Collateral public collateral;\n    address owner;\n    LVRToken public token;\n    // right now only mapping to amount borrowed and in what currency\n\n    mapping(address => uint256) lenderTokenTracker;\n\n    //array to track what asset addresses have been borrowed\n    address[] BorrowedCurrencies;\n    // account for double borrrow\n    mapping(address => bool) initializedBorrowedCurrency;\n\n    address[] lentCurrencies;\n    // account for double borrrow\n    mapping(address => bool) initializedLentCurrency;\n\n    struct borrowAmountTracker {\n        uint256 principal;\n        uint256 interest;\n    }\n    //asset -> user -> amount\n    mapping(address => mapping(address => borrowAmountTracker))\n        public borrowTracker;\n\n    //asset -> user -> amount lent\n    mapping(address => mapping(address => uint256)) LentAmountTracker;\n\n    //asset -> list of borrowers\n    mapping(address => address[]) borrowersByAsset;\n    //mapping to make sure no double adding:\n    mapping(address => mapping(address => bool)) initializedBorrowerTracker;\n\n    //asset -> list of borrowers\n    mapping(address => address[]) lendersByAsset;\n    //mapping to make sure no double adding:\n    mapping(address => mapping(address => bool)) initializedLenderTracker;\n\n    constructor() {\n        pool = new Pool();\n        token = new LVRToken(\"TestToken\", \"TST\", address(pool));\n        collateral = new Collateral(address(pool), address(token));\n        conversion = new Conversion();\n        owner = msg.sender;\n    }\n\n    modifier onlyOwner() {\n        require(msg.sender == owner);\n        _;\n    }\n\n    function Deposit(uint256 _quantity, address _asset) public {\n        // uint256 _borrowNow? why not bool?\n        require(_quantity > 0, \"deposit must be positive\");\n        uint256 tokenQuantity = token.mint(msg.sender, _quantity, _asset);\n        lenderTokenTracker[msg.sender] += tokenQuantity;\n        pool.depositTransfer(msg.sender, _asset, _quantity);\n\n        if (!initializedLentCurrency[_asset]) {\n            lentCurrencies.push(_asset);\n            initializedLentCurrency[_asset] = true;\n        }\n        if (!initializedLenderTracker[_asset][msg.sender]) {\n            lendersByAsset[_asset].push(msg.sender);\n            initializedLenderTracker[_asset][msg.sender] = true;\n        }\n        LentAmountTracker[_asset][msg.sender] += _quantity;\n\n        // // borrowNow should be amount borrowed\n        // if (_borrowNow > 0) {\n        //     uint256 usedCollateral = _quantity - collateral.collReq()*_borrowNow;\n        //     Borrow(_borrowNow, address)\n        // }\n\n        //emit depositEvent(msg.sender, _quantity, _asset);\n    }\n\n    // //withdraw based on asset quantity desired\n    // function Withdraw(address _desiredAsset, uint256 _amountToRemove) public {\n    //     uint256 assetPriceUSD = conversion.getPrice(_desiredAsset);\n\n    //     //check if enough liquid to send\n    //     require(\n    //         _amountToRemove <= pool.getLiquidQuantity(_desiredAsset),\n    //         \"User cannot redeem more than the available balance\"\n    //     ); // future this will only check to see if we have any liquid - engine will swap currencies to allow user to withdraw anything they want.\n\n    //     // total value of currency redeemable by user\n    //     uint256 totalAssetValueFromOwnedTokens = ((token.balanceOf(msg.sender) *\n    //         token.tokenDollarValue()) / assetPriceUSD); // Units: N token * USD/token / USD/currency = N currency\n\n    //     // check that the user is allowed to redeem the amount\n    //     // seems to be some precision errors\n    //     require(\n    //         (totalAssetValueFromOwnedTokens >= _amountToRemove),\n    //         \"Cannot redeem more tokens than number owned\"\n    //     );\n\n    //     uint256 burnNumber = ((assetPriceUSD * _amountToRemove) /\n    //         token.tokenDollarValue()); // Units: USD/currecny * N currency / (USD/token) = N token\n\n    //     lenderTokenTracker[msg.sender] -= burnNumber;\n    //     if (lenderTokenTracker[msg.sender] == 0) {\n    //         delete lenderTokenTracker[msg.sender];\n    //     }\n    //     pool.withdrawTransfer(msg.sender, _desiredAsset, _amountToRemove);\n    //     token.burn(msg.sender, burnNumber);\n    // }\n\n    //////////////// function if we want to withdraw based on LVR token quanitity//////////////////\n    function Withdraw(address _desiredAsset, uint256 _tokenQuantity) public {\n        uint256 assetPriceUSD = conversion.getPrice(_desiredAsset);\n\n        // total value of currency redeemable by user\n        uint256 totalAssetFromTokens = ((_tokenQuantity *\n            token.tokenDollarValue()) / assetPriceUSD); // Units: N token * USD/token / USD/currency = N currency\n\n        //check if enough liquid to send\n        require(\n            totalAssetFromTokens <= pool.getLiquidQuantity(_desiredAsset),\n            \"User cannot redeem more than the available balance\"\n        ); // future this will only check to see if we have any liquid - engine will swap currencies to allow user to withdraw anything they want.\n\n        // check that the user is allowed to redeem the amount\n        require(\n            (token.balanceOf(msg.sender) >= _tokenQuantity),\n            \"Cannot redeem more tokens than number owned\"\n        );\n\n        lenderTokenTracker[msg.sender] -= _tokenQuantity;\n        if (lenderTokenTracker[msg.sender] == 0) {\n            delete lenderTokenTracker[msg.sender];\n        }\n        pool.withdrawTransfer(msg.sender, _desiredAsset, totalAssetFromTokens);\n        token.burn(msg.sender, _tokenQuantity);\n        //lendertracker here- deos it need to be, since we just have to check if they still have LVR?\n    }\n\n    //this will have to also transfer LVR if they wont to borrow against that.\n    // what about choosing collateral to borrrow against.\n    function Borrow(\n        uint256 _borrowQuantity,\n        address _asset,\n        uint256 _collateralQuantity,\n        address _collateral\n    ) public {\n        // check if deposited collateral + outstanding collateral is enough to cover thier borrow request\n        uint256 usdCollateralValue = (conversion.getPrice(_collateral) *\n            _collateralQuantity) + collateral.collateralValue(msg.sender);\n        uint256 usdBorrowValue = (conversion.getPrice(_asset) *\n            _borrowQuantity) /\n            (10**18) +\n            totalValueBorrowed(msg.sender);\n\n        require(\n            usdCollateralValue >= usdBorrowValue * collateral.collReq(),\n            \"not enough collateral to borrow\"\n        );\n        collateral.depositCollateral(\n            msg.sender,\n            _collateral,\n            _collateralQuantity\n        );\n        pool.borrowTransfer(msg.sender, _asset, _borrowQuantity);\n\n        emit borrowEvent(\n            msg.sender,\n            _borrowQuantity,\n            _asset,\n            _collateralQuantity,\n            _collateral\n        );\n\n        borrowTracker[_asset][msg.sender].principal += _borrowQuantity;\n\n        //only add asset if it doesnt exist there already\n        if (!initializedBorrowedCurrency[_asset]) {\n            BorrowedCurrencies.push(_asset);\n            initializedBorrowedCurrency[_asset] = true;\n        }\n\n        //only add to array if user doesnt exist already\n        //////////////////////////// might not need anymore\n        if (!initializedBorrowerTracker[_asset][msg.sender]) {\n            borrowersByAsset[_asset].push(msg.sender);\n            initializedBorrowerTracker[_asset][msg.sender] = true;\n        }\n    }\n\n    // User repays loan by specifying the asset they are giving back and how much\n    //repaying loan involves returning borrowed asset quantity\n    function Repay(address _asset, uint256 _repayQuantity) public {\n        //cant return more than borrowed\n        require(\n            (borrowTracker[_asset][msg.sender].principal +\n                borrowTracker[_asset][msg.sender].interest) >= _repayQuantity,\n            \"Returned more than borrowed\"\n        );\n\n        //remove principal first, then interest balance upose repayment\n        uint256 principal_portion = minimum(\n            _repayQuantity,\n            borrowTracker[_asset][msg.sender].principal\n        ); //  sub1 = min(repayment, principal)\n        uint256 interest_portion = (_repayQuantity - principal_portion); //  interest_portion  = repayment - sub1\n        //this after principal_portion and interest_portion so we can subtract this from brwQty in Pool.sol\n        pool.repayTransfer(\n            msg.sender,\n            _asset,\n            _repayQuantity,\n            principal_portion,\n            interest_portion\n        );\n\n        borrowTracker[_asset][msg.sender].principal -= principal_portion; //  subtract that from principal so that it goes to zero\n        borrowTracker[_asset][msg.sender].interest -= interest_portion; //  subtract interest_portion from interest\n\n        if (borrowTracker[_asset][msg.sender].principal == 0) {\n            delete borrowTracker[_asset][msg.sender].principal;\n        }\n        if (borrowTracker[_asset][msg.sender].interest == 0) {\n            delete borrowTracker[_asset][msg.sender].interest;\n        }\n    }\n\n    function unlockCollateral(\n        address _asset,\n        uint256 _quantity,\n        bool _toPool\n    ) public {\n        //check if they have loan value less than collat value/collatQtyReq\n        require(\n            (collateral.collateralValue(msg.sender) -\n                ((conversion.getPrice(_asset) * _quantity) / (1 * 10**18))) >=\n                collateral.collReq() * totalValueBorrowed(msg.sender),\n            \"Cannot withdraw collateral before paying back loan\"\n        );\n        uint256 collateralDeposited = collateral.userCollateral(\n            _asset,\n            msg.sender\n        );\n\n        require(\n            _quantity <= collateralDeposited,\n            \"Redeeming more collateral than deposited\"\n        );\n\n        collateral.removeCollateral(msg.sender, _asset, _quantity, _toPool);\n        if (_toPool == true) {\n            uint256 tokenQuantity = token.mint(msg.sender, _quantity, _asset);\n            lenderTokenTracker[msg.sender] += tokenQuantity;\n            if (!initializedLenderTracker[_asset][msg.sender]) {\n                lendersByAsset[_asset].push(msg.sender);\n                initializedLenderTracker[_asset][msg.sender] = true;\n            }\n            LentAmountTracker[_asset][msg.sender] += _quantity;\n        }\n    }\n\n    function accrueInterest() public {\n        uint256 numAssets = BorrowedCurrencies.length;\n        for (uint16 i = 0; i < numAssets; i++) {\n            address asset = BorrowedCurrencies[i];\n            uint256 numBorrowers = borrowersByAsset[asset].length;\n            uint256 assetInterestRate = pool.InterestRate(asset);\n            for (uint16 j = 0; j < numBorrowers; j++) {\n                borrowTracker[asset][borrowersByAsset[asset][j]]\n                    .interest += ((assetInterestRate *\n                    borrowTracker[asset][borrowersByAsset[asset][j]]\n                        .principal) / (1 * 10**18));\n            }\n        }\n    }\n\n    function payoutInterest() public {\n        /*\n        Note:  when calculating pool value, liquidity should be used, not balance of contract itself. \n\n        1) total amount of asset lent\n        2) how much each person lent of that asset\n        3) ratio of those (call it r1) is how much of interest they get\n\n        For each person:\n        1) list of lenders\n        2) how much they lent in lVR\n        3) current number of LVR\n        4) ratio of those(call it r2) is what they get of thier cut\n        5) multiply r1*r2 to get total asset receiving \n        6) mint LVR for the value of r1*r2*totalInterest to payout\n\n        pseudocode\n        for each lent asset:\n            t = total asset lent // borrowQ + liquidQ\n            for lenders of [asset]:\n                num= r2 * amount lent[lender]/t //new variable \n                mint(user, num, asset)\n                add interest to liquidity, which convers case where people trade away tokens\n                add amount of interest to amount lent by user\n                if user trades, too bad they still recieive ratio,\n                if user withdraws, delete old lending stats, so if they redposit they start fresh\n         */\n        uint256 numAssets = lentCurrencies.length;\n        for (uint16 i = 0; i < numAssets; i++) {\n            address asset = lentCurrencies[i];\n            uint256 totalAsset = pool.getTotalLend(asset);\n            uint256 interest = pool.getInterestQuantity(asset);\n            uint256 numLenders = lendersByAsset[asset].length;\n            for (uint16 j = 0; j < numLenders; j++) {\n                address user = lendersByAsset[asset][j];\n                if (token.balanceOf(user) < 1 * 10**16) {\n                    // should this be lower?\n                    lenderTokenTracker[user] = 0;\n                    LentAmountTracker[asset][msg.sender] = 0; //set to 0? if we dont, user can buy back LVR and continue to receive interest\n                } else {\n                    uint256 retainedTokenRatio = (token.balanceOf(user) *\n                        (10**18)) / lenderTokenTracker[user]; // what about case where they bought more LVR-  overpay interest?  only if ^ isnt 0\n                    uint256 percentOfPool = (LentAmountTracker[asset][user] *\n                        (10**18)) / totalAsset;\n                    uint256 interestQuantity = (retainedTokenRatio *\n                        percentOfPool *\n                        interest) / ((10**18)**2);\n                    uint256 tokenQuantity = token.mint(\n                        user,\n                        interestQuantity,\n                        asset\n                    ); //mint token since interest is in pool, then\n                    lenderTokenTracker[user] += tokenQuantity; //update how much lvr user has, then\n                    LentAmountTracker[asset][user] += interestQuantity; //update how much they lent\n                }\n            }\n            pool.resetInterest(asset);\n        }\n    }\n\n    function liquidityManager() public {\n        /*\n        -loop maybe once per day and check evryones collateral against thier borrow amount\n        -also check liquidity in each asset pool and swap?\n         */\n    }\n\n    function totalValueBorrowed(address _borrower)\n        public\n        view\n        returns (uint256)\n    {\n        uint256 totalBorrowValue = 0;\n\n        // make this less bits?\n        //////uint256 numberAddresses = userBorrowCurrencies[_borrower].length;\n        uint256 numAssets = BorrowedCurrencies.length;\n\n        //loop to calculate the value of the pool liquid + borrowed\n        for (uint16 i = 0; i < numAssets; i++) {\n            address asset = BorrowedCurrencies[i];\n            uint256 assetPrice = conversion.getPrice(asset);\n            totalBorrowValue += (((borrowTracker[asset][_borrower].principal +\n                borrowTracker[asset][_borrower].interest) * assetPrice) /\n                (1 * 10**18));\n        }\n        return totalBorrowValue;\n    }\n\n    function interestQuantity(address _user, address _asset)\n        public\n        view\n        returns (uint256)\n    {\n        return borrowTracker[_asset][_user].interest;\n    }\n\n    function offerCollateralAssets() public {\n        // just needs to check with the pool to see what assets we can offer\n        //users to use as collateral - called when borrowing (if they deposit\n        //LVR and want to use something else)\n        // to do this we probably need to come up with some reserve rules, etc\n    }\n\n    function getInterestRate(address _asset) public view returns (uint256) {\n        return pool.InterestRate(_asset);\n    }\n\n    function minimum(uint256 a, uint256 b) public pure returns (uint256) {\n        return a.min(b);\n    }\n\n    function getLiquidity(address _token) public view returns (uint256) {\n        return pool.getLiquidQuantity(_token);\n    }\n\n    function getPoolBalance(address _token) public view returns (uint256) {\n        return pool.getBalance(_token);\n    }\n\n    function getLiquidPct(address _token) public view returns (uint256) {\n        return pool.getLiquidPct(_token);\n    }\n\n    function getLockedCollateral(address _token) public view returns (uint256) {\n        return collateral.getCollateralQuantity(_token);\n    }\n\n    function getCollBalance(address _token) public view returns (uint256) {\n        return collateral.getBalance(_token);\n    }\n\n    function getPoolAddr() public view returns (address) {\n        return address(pool);\n    }\n\n    function getCollAddr() public view returns (address) {\n        return address(collateral);\n    }\n\n    function getTokenAddr() public view returns (address) {\n        return address(token);\n    }\n\n    function getTokenDollarValue() public view returns (uint256) {\n        return token.tokenDollarValue();\n    }\n\n    function getPoolValue() public view returns (uint256) {\n        return token.totalPoolValue();\n    }\n\n    function getTotalSupply() public view returns (uint256) {\n        return token.totalSupply();\n    }\n\n    function getBalanceOf(address _user) public view returns (uint256) {\n        return token.balanceOf(_user);\n    }\n\n    function getCollateralValue(address _user) public view returns (uint256) {\n        return collateral.collateralValue(_user);\n    }\n\n    function getOutstandingLoan(address _user, address _asset)\n        public\n        view\n        returns (uint256)\n    {\n        return (borrowTracker[_asset][_user].principal +\n            borrowTracker[_asset][_user].interest);\n    }\n\n    function getUserCollateral(address _user, address _asset)\n        public\n        view\n        returns (uint256)\n    {\n        return collateral.userCollateral(_asset, _user);\n    }\n\n    function getTotalInterest(address _asset) public view returns (uint256) {\n        return pool.totalInterest(_asset);\n    }\n}\n","sourcePath":"contracts/1_LendingPool.sol","deployment":{"address":"0xb86293de4C13F856119E84c807040b91e1DaAFCa","chainid":"4","blockHeight":10130873}}