{"abi":[{"inputs":[],"stateMutability":"nonpayable","type":"constructor","name":"constructor"},{"anonymous":false,"inputs":[{"indexed":true,"internalType":"bytes32","name":"role","type":"bytes32"},{"indexed":true,"internalType":"bytes32","name":"previousAdminRole","type":"bytes32"},{"indexed":true,"internalType":"bytes32","name":"newAdminRole","type":"bytes32"}],"name":"RoleAdminChanged","type":"event"},{"anonymous":false,"inputs":[{"indexed":true,"internalType":"bytes32","name":"role","type":"bytes32"},{"indexed":true,"internalType":"address","name":"account","type":"address"},{"indexed":true,"internalType":"address","name":"sender","type":"address"}],"name":"RoleGranted","type":"event"},{"anonymous":false,"inputs":[{"indexed":true,"internalType":"bytes32","name":"role","type":"bytes32"},{"indexed":true,"internalType":"address","name":"account","type":"address"},{"indexed":true,"internalType":"address","name":"sender","type":"address"}],"name":"RoleRevoked","type":"event"},{"anonymous":false,"inputs":[{"indexed":false,"internalType":"address","name":"_user","type":"address"},{"indexed":false,"internalType":"uint256","name":"_borrowed","type":"uint256"},{"indexed":false,"internalType":"address","name":"_borrowedAsset","type":"address"},{"indexed":false,"internalType":"uint256","name":"_collateral","type":"uint256"},{"indexed":false,"internalType":"address","name":"_collateralAsset","type":"address"}],"name":"borrowEvent","type":"event"},{"anonymous":false,"inputs":[{"indexed":false,"internalType":"address","name":"_user","type":"address"},{"indexed":false,"internalType":"address","name":"_asset","type":"address"},{"indexed":false,"internalType":"uint256","name":"_quantity","type":"uint256"},{"indexed":false,"internalType":"uint256","name":"_tokensMinted","type":"uint256"}],"name":"depositEvent","type":"event"},{"anonymous":false,"inputs":[{"indexed":false,"internalType":"address","name":"_user","type":"address"},{"indexed":false,"internalType":"address","name":"_asset","type":"address"},{"indexed":false,"internalType":"uint256","name":"_tokensBurned","type":"uint256"}],"name":"redeemEvent","type":"event"},{"anonymous":false,"inputs":[{"indexed":false,"internalType":"address","name":"_user","type":"address"},{"indexed":false,"internalType":"address","name":"_asset","type":"address"},{"indexed":false,"internalType":"uint256","name":"_quantity","type":"uint256"}],"name":"repayEvent","type":"event"},{"anonymous":false,"inputs":[{"indexed":false,"internalType":"address","name":"_user","type":"address"},{"indexed":false,"internalType":"address","name":"_asset","type":"address"},{"indexed":false,"internalType":"uint256","name":"_quantity","type":"uint256"}],"name":"withdrawCollateralEvent","type":"event"},{"inputs":[],"name":"ADMIN_ROLE","outputs":[{"internalType":"bytes32","name":"","type":"bytes32"}],"stateMutability":"view","type":"function"},{"inputs":[{"internalType":"uint256","name":"_borrowQuantity","type":"uint256"},{"internalType":"address","name":"_asset","type":"address"},{"internalType":"uint256","name":"_collateralQuantity","type":"uint256"},{"internalType":"address","name":"_collateral","type":"address"}],"name":"Borrow","outputs":[],"stateMutability":"nonpayable","type":"function"},{"inputs":[],"name":"DEFAULT_ADMIN_ROLE","outputs":[{"internalType":"bytes32","name":"","type":"bytes32"}],"stateMutability":"view","type":"function"},{"inputs":[{"internalType":"uint256","name":"_quantity","type":"uint256"},{"internalType":"address","name":"_asset","type":"address"}],"name":"Deposit","outputs":[],"stateMutability":"nonpayable","type":"function"},{"inputs":[{"internalType":"address","name":"_asset","type":"address"},{"internalType":"uint256","name":"_repayQuantity","type":"uint256"}],"name":"Repay","outputs":[],"stateMutability":"nonpayable","type":"function"},{"inputs":[{"internalType":"address","name":"_asset","type":"address"},{"internalType":"uint256","name":"_tokenQuantity","type":"uint256"}],"name":"Withdraw","outputs":[],"stateMutability":"nonpayable","type":"function"},{"inputs":[{"internalType":"address","name":"","type":"address"},{"internalType":"address","name":"","type":"address"}],"name":"borrowTracker","outputs":[{"internalType":"uint256","name":"principal","type":"uint256"},{"internalType":"uint256","name":"interest","type":"uint256"}],"stateMutability":"view","type":"function"},{"inputs":[{"internalType":"address","name":"_asset","type":"address"},{"internalType":"uint256","name":"_quantity","type":"uint256"}],"name":"getAssetFromTokens","outputs":[{"internalType":"uint256","name":"","type":"uint256"}],"stateMutability":"view","type":"function"},{"inputs":[{"internalType":"address","name":"_user","type":"address"}],"name":"getBalanceOf","outputs":[{"internalType":"uint256","name":"","type":"uint256"}],"stateMutability":"view","type":"function"},{"inputs":[],"name":"getCollAddr","outputs":[{"internalType":"address","name":"","type":"address"}],"stateMutability":"view","type":"function"},{"inputs":[{"internalType":"address","name":"_token","type":"address"}],"name":"getCollBalance","outputs":[{"internalType":"uint256","name":"","type":"uint256"}],"stateMutability":"view","type":"function"},{"inputs":[{"internalType":"address","name":"_user","type":"address"}],"name":"getCollateralValue","outputs":[{"internalType":"uint256","name":"","type":"uint256"}],"stateMutability":"view","type":"function"},{"inputs":[{"internalType":"address","name":"_asset","type":"address"}],"name":"getInterestQuantity","outputs":[{"internalType":"uint256","name":"","type":"uint256"}],"stateMutability":"view","type":"function"},{"inputs":[{"internalType":"address","name":"_asset","type":"address"}],"name":"getInterestRate","outputs":[{"internalType":"uint256","name":"","type":"uint256"}],"stateMutability":"view","type":"function"},{"inputs":[{"internalType":"address","name":"_user","type":"address"}],"name":"getLentAmount","outputs":[{"internalType":"uint256","name":"","type":"uint256"}],"stateMutability":"view","type":"function"},{"inputs":[{"internalType":"address","name":"_token","type":"address"}],"name":"getLiquidPct","outputs":[{"internalType":"uint256","name":"","type":"uint256"}],"stateMutability":"view","type":"function"},{"inputs":[{"internalType":"address","name":"_token","type":"address"}],"name":"getLiquidity","outputs":[{"internalType":"uint256","name":"","type":"uint256"}],"stateMutability":"view","type":"function"},{"inputs":[{"internalType":"address","name":"_token","type":"address"}],"name":"getLockedCollateral","outputs":[{"internalType":"uint256","name":"","type":"uint256"}],"stateMutability":"view","type":"function"},{"inputs":[{"internalType":"address","name":"_user","type":"address"},{"internalType":"address","name":"_asset","type":"address"}],"name":"getOutstandingLoan","outputs":[{"internalType":"uint256","name":"","type":"uint256"}],"stateMutability":"view","type":"function"},{"inputs":[],"name":"getPoolAddr","outputs":[{"internalType":"address","name":"","type":"address"}],"stateMutability":"view","type":"function"},{"inputs":[{"internalType":"address","name":"_token","type":"address"}],"name":"getPoolBalance","outputs":[{"internalType":"uint256","name":"","type":"uint256"}],"stateMutability":"view","type":"function"},{"inputs":[],"name":"getPoolValue","outputs":[{"internalType":"uint256","name":"","type":"uint256"}],"stateMutability":"view","type":"function"},{"inputs":[{"internalType":"address","name":"_asset","type":"address"}],"name":"getReserveBalance","outputs":[{"internalType":"uint256","name":"","type":"uint256"}],"stateMutability":"view","type":"function"},{"inputs":[{"internalType":"bytes32","name":"role","type":"bytes32"}],"name":"getRoleAdmin","outputs":[{"internalType":"bytes32","name":"","type":"bytes32"}],"stateMutability":"view","type":"function"},{"inputs":[{"internalType":"bytes32","name":"role","type":"bytes32"},{"internalType":"uint256","name":"index","type":"uint256"}],"name":"getRoleMember","outputs":[{"internalType":"address","name":"","type":"address"}],"stateMutability":"view","type":"function"},{"inputs":[{"internalType":"bytes32","name":"role","type":"bytes32"}],"name":"getRoleMemberCount","outputs":[{"internalType":"uint256","name":"","type":"uint256"}],"stateMutability":"view","type":"function"},{"inputs":[],"name":"getTimeDelta","outputs":[{"internalType":"uint256","name":"","type":"uint256"}],"stateMutability":"view","type":"function"},{"inputs":[],"name":"getTokenAddr","outputs":[{"internalType":"address","name":"","type":"address"}],"stateMutability":"view","type":"function"},{"inputs":[],"name":"getTokenDollarValue","outputs":[{"internalType":"uint256","name":"","type":"uint256"}],"stateMutability":"view","type":"function"},{"inputs":[{"internalType":"address","name":"_token","type":"address"}],"name":"getTotalBorrow","outputs":[{"internalType":"uint256","name":"","type":"uint256"}],"stateMutability":"view","type":"function"},{"inputs":[{"internalType":"address","name":"_asset","type":"address"}],"name":"getTotalInterest","outputs":[{"internalType":"uint256","name":"","type":"uint256"}],"stateMutability":"view","type":"function"},{"inputs":[],"name":"getTotalSupply","outputs":[{"internalType":"uint256","name":"","type":"uint256"}],"stateMutability":"view","type":"function"},{"inputs":[{"internalType":"address","name":"_user","type":"address"},{"internalType":"address","name":"_asset","type":"address"}],"name":"getUserCollateral","outputs":[{"internalType":"uint256","name":"","type":"uint256"}],"stateMutability":"view","type":"function"},{"inputs":[{"internalType":"bytes32","name":"role","type":"bytes32"},{"internalType":"address","name":"account","type":"address"}],"name":"grantRole","outputs":[],"stateMutability":"nonpayable","type":"function"},{"inputs":[{"internalType":"bytes32","name":"role","type":"bytes32"},{"internalType":"address","name":"account","type":"address"}],"name":"hasRole","outputs":[{"internalType":"bool","name":"","type":"bool"}],"stateMutability":"view","type":"function"},{"inputs":[{"internalType":"address","name":"_user","type":"address"},{"internalType":"address","name":"_asset","type":"address"}],"name":"interestQuantity","outputs":[{"internalType":"uint256","name":"","type":"uint256"}],"stateMutability":"view","type":"function"},{"inputs":[],"name":"liquidationManager","outputs":[{"internalType":"string","name":"","type":"string"}],"stateMutability":"nonpayable","type":"function"},{"inputs":[{"internalType":"address","name":"_user","type":"address"}],"name":"maxLoanValue","outputs":[{"internalType":"uint256","name":"","type":"uint256"}],"stateMutability":"view","type":"function"},{"inputs":[],"name":"offerCollateralAssets","outputs":[],"stateMutability":"nonpayable","type":"function"},{"inputs":[],"name":"payoutInterest","outputs":[],"stateMutability":"nonpayable","type":"function"},{"inputs":[{"internalType":"bytes32","name":"role","type":"bytes32"},{"internalType":"address","name":"account","type":"address"}],"name":"renounceRole","outputs":[],"stateMutability":"nonpayable","type":"function"},{"inputs":[{"internalType":"bytes32","name":"role","type":"bytes32"},{"internalType":"address","name":"account","type":"address"}],"name":"revokeRole","outputs":[],"stateMutability":"nonpayable","type":"function"},{"inputs":[{"internalType":"bytes4","name":"interfaceId","type":"bytes4"}],"name":"supportsInterface","outputs":[{"internalType":"bool","name":"","type":"bool"}],"stateMutability":"view","type":"function"},{"inputs":[{"internalType":"address","name":"_borrower","type":"address"}],"name":"totalValueBorrowed","outputs":[{"internalType":"uint256","name":"","type":"uint256"}],"stateMutability":"view","type":"function"},{"inputs":[{"internalType":"address","name":"_asset","type":"address"},{"internalType":"uint256","name":"_quantity","type":"uint256"},{"internalType":"bool","name":"_toPool","type":"bool"}],"name":"unlockCollateral","outputs":[],"stateMutability":"nonpayable","type":"function"},{"inputs":[{"internalType":"address","name":"_asset","type":"address"},{"internalType":"uint256","name":"_updated_threshold","type":"uint256"}],"name":"updateCollReqByAsset","outputs":[],"stateMutability":"nonpayable","type":"function"},{"inputs":[{"internalType":"address","name":"_asset","type":"address"}],"name":"updateSupportedAssets","outputs":[],"stateMutability":"nonpayable","type":"function"}],"bytecode":"6080604052426002553480156200001557600080fd5b506040516200002490620004d1565b604051809103906000f08015801562000041573d6000803e3d6000fd5b50600480546001600160a01b0319166001600160a01b039290921691821790556040516200006f90620004df565b6060808252600a90820152692632bb32b92a37b5b2b760b11b608082015260a06020820181905260039082015262262b2960e91b60c08201526001600160a01b03909116604082015260e001604051809103906000f080158015620000d8573d6000803e3d6000fd5b50600680546001600160a01b0319166001600160a01b039283161790556004546040519116906200010990620004ed565b6001600160a01b039091168152602001604051809103906000f08015801562000136573d6000803e3d6000fd5b50600580546001600160a01b0319166001600160a01b03929092169190911790556040516200016590620004fb565b604051809103906000f08015801562000182573d6000803e3d6000fd5b50600380546001600160a01b03929092166001600160a01b031992831617905560098054600181810183557f6e1540171b6c0c960b71a7020d9f60077f6af931a8bbf590da0223dacf75c7af918201805485167301be23585060835e02b77ef475b0cc51aa1e0709908117909155600a6020527faa6312e0d07910ba72aeb9c59038c2eb7f2103f210f0c776d3fde5b0385b183b805460ff19908116841790915584548084018655840180548716735592ec0cfb4dbc12d3ab100b257153436a1f0fea9081179091557f87bb8387b4f0a71d5b80500a87f78dcfbd1b6865b2e76da3412029bba07cf7a08054831685179055855480850190965594909301805490951673c778417e063141139fce010982780140aa0cd5ab90811790955560008590527fb3d8b5cc08e55a792ce5758f706c9ff44194ff294c0ccc43d120c913cc913b18805490931690911790915590620002fe7fa49807205ce4d355092ef5a8a18f56e8913cf4a201fbe287825b095693c21775336200036c565b60048054600554604051630e0cb96960e31b81526001600160a01b03918216938101939093521690637065cb4890602401600060405180830381600087803b1580156200034a57600080fd5b505af11580156200035f573d6000803e3d6000fd5b5050505050505062000509565b6200037882826200037c565b5050565b620003938282620003bf60201b620039391760201c565b6000828152600160209081526040909120620003ba918390620039bd6200045f821b17901c565b505050565b6000828152602081815260408083206001600160a01b038516845290915290205460ff1662000378576000828152602081815260408083206001600160a01b03851684529091529020805460ff191660011790556200041b3390565b6001600160a01b0316816001600160a01b0316837f2f8788117e7eff1d82e926ec794901d17c78024a50270940304540a733656f0d60405160405180910390a45050565b600062000476836001600160a01b0384166200047f565b90505b92915050565b6000818152600183016020526040812054620004c85750815460018181018455600084815260208082209093018490558454848252828601909352604090209190915562000479565b50600062000479565b6127e38062004b9d83390190565b61210e806200738083390190565b611f75806200948e83390190565b6103b3806200b40383390190565b61468480620005196000396000f3fe608060405234801561001057600080fd5b50600436106102955760003560e01c8063884edad911610167578063c0f2b1cf116100ce578063d49ab22c11610087578063d49ab22c146105f7578063d547741f1461060a578063de2592421461061d578063de30f97d1461062e578063f2df757b14610641578063fac8aff81461065457600080fd5b8063c0f2b1cf14610566578063c4e41b22146105a3578063ca15c873146105ab578063cda03c29146105be578063d28682ea146105d1578063d3ea0f89146105e457600080fd5b8063a217fddf11610120578063a217fddf146104ff578063a55e866814610507578063a747b93b1461051a578063a78e40461461052d578063b447999b14610540578063b9e037e61461055357600080fd5b8063884edad91461048d5780639010d07c146104a057806391d14854146104b357806397904e42146104c65780639b96eece146104d95780639feea54f146104ec57600080fd5b806346c928fc1161020b57806363e36dac116101c457806363e36dac146103f25780636858ea07146104035780636aaa434e146104165780636db180931461045d57806375b238fc146104655780638538d14e1461047a57600080fd5b806346c928fc1461036e5780634bcc170914610381578063511c566114610394578063582b2720146103a75780635c16de4f146103cc5780635c88f5a5146103df57600080fd5b80632273323f1161025d5780632273323f14610313578063243d8e051461031b578063248a9ca31461031d5780632d5562a0146103405780632f2ff15d1461034857806336568abe1461035b57600080fd5b806301ffc9a71461029a578063057393c0146102c257806315226b54146102e35780631ba2f531146102f65780631ef3a04c146102fe575b600080fd5b6102ad6102a83660046141dc565b61067d565b60405190151581526020015b60405180910390f35b6102d56102d0366004614222565b6106a8565b6040519081526020016102b9565b6102d56102f1366004614222565b610718565b6102d5610750565b6103066107ce565b6040516102b99190614269565b61031b610e68565b005b6102d561032b36600461429c565b60009081526020819052604090206001015490565b6102d5611335565b61031b6103563660046142b5565b611382565b61031b6103693660046142b5565b6113ad565b61031b61037c3660046142e1565b611427565b61031b61038f3660046142b5565b611ad1565b6102d56103a2366004614222565b611d87565b6006546001600160a01b03165b6040516001600160a01b0390911681526020016102b9565b61031b6103da366004614327565b611dbf565b6102d56103ed366004614222565b612116565b6005546001600160a01b03166103b4565b61031b610411366004614327565b61214e565b610448610424366004614351565b600b6020908152600092835260408084209091529082529020805460019091015482565b604080519283526020830191909152016102b9565b6102d56121ec565b6102d560008051602061462f83398151915281565b6102d5610488366004614222565b612236565b61031b61049b366004614327565b61226e565b6103b46104ae36600461437b565b612d20565b6102ad6104c13660046142b5565b612d3f565b6102d56104d4366004614222565b612d68565b6102d56104e7366004614222565b612d9b565b61031b6104fa366004614222565b612dce565b6102d5600081565b6102d5610515366004614351565b612f09565b6102d5610528366004614222565b612f80565b6102d561053b366004614351565b612fb8565b6102d561054e366004614327565b612ff0565b61031b61056136600461439d565b6130f8565b6102d5610574366004614351565b6001600160a01b038082166000908152600b602090815260408083209386168352929052206001015492915050565b6102d5613666565b6102d56105b936600461429c565b6136b0565b6102d56105cc366004614222565b6136c7565b6102d56105df366004614222565b6136fa565b6102d56105f2366004614222565b613732565b6102d5610605366004614222565b61377b565b61031b6106183660046142b5565b6137ae565b6004546001600160a01b03166103b4565b6102d561063c366004614222565b6137d4565b6102d561064f366004614222565b61380c565b6102d5610662366004614222565b6001600160a01b031660009081526008602052604090205490565b60006001600160e01b03198216635a05180f60e01b14806106a257506106a2826139d2565b92915050565b60055460405163f8b2cb4f60e01b81526001600160a01b038381166004830152600092169063f8b2cb4f906024015b602060405180830381865afa1580156106f4573d6000803e3d6000fd5b505050506040513d601f19601f820116820180604052508101906106a291906143e2565b600480546040516330e311a160e01b81526001600160a01b0384811693820193909352600092909116906330e311a1906024016106d7565b6000600460009054906101000a90046001600160a01b03166001600160a01b03166375f4d6776040518163ffffffff1660e01b8152600401602060405180830381865afa1580156107a5573d6000803e3d6000fd5b505050506040513d601f19601f820116820180604052508101906107c991906143e2565b905090565b60606107e860008051602061462f83398151915233612d3f565b61080d5760405162461bcd60e51b8152600401610804906143fb565b60405180910390fd5b600f5460095460005b828161ffff161015610e62576000600f8261ffff168154811061083b5761083b614429565b60009182526020822001546005546040516301fcd2d560e01b81526001600160a01b039283166004820181905294509116906301fcd2d590602401602060405180830381865afa158015610893573d6000803e3d6000fd5b505050506040513d601f19601f820116820180604052508101906108b791906143e2565b905060006108c48361380c565b905080821015610e0a5760005b858161ffff161015610dc857600060098261ffff16815481106108f6576108f6614429565b60009182526020822001546005546040516306829f1b60e31b81526001600160a01b03928316600482018190529450911690633414f8d890602401602060405180830381865afa15801561094e573d6000803e3d6000fd5b505050506040513d601f19601f8201168201806040525081019061097291906143e2565b90506000610981858388613a07565b90506000610990868489613a93565b6001600160a01b038086166000908152600b60209081526040808320938d16835292905220549091501515806109ed57506001600160a01b038085166000908152600b60209081526040808320938c168352929052206001015415155b15610b69576001600160a01b038481166000908152600b60209081526040808320938c1683529290529081208054600190910154610a2b9190614455565b610a3d84670de0b6b3a764000061446d565b610a479190614484565b6001600160a01b038087166000908152600b60209081526040808320938e1683529290522060010154909150670de0b6b3a764000090610a88908590614484565b610a9291906144a3565b6001600160a01b038681166000908152600b60209081526040808320938e16835292905220600181019190915554670de0b6b3a764000090610ad5908590614484565b610adf91906144a3565b6001600160a01b038681166000818152600b602090815260408083208f861684529091529081902093909355600480549351635ea5801760e11b8152908101919091526024810184905291169063bd4b002e90604401600060405180830381600087803b158015610b4f57600080fd5b505af1158015610b63573d6000803e3d6000fd5b50505050505b600554604051632b92a07d60e01b81526001600160a01b038a8116600483015286811660248301526000921690632b92a07d90604401602060405180830381865afa158015610bbc573d6000803e3d6000fd5b505050506040513d601f19601f82011682018060405250810190610be091906143e2565b1115610d5057600554604051632b92a07d60e01b81526001600160a01b038a811660048301528681166024830152600092670de0b6b3a764000092859290911690632b92a07d90604401602060405180830381865afa158015610c47573d6000803e3d6000fd5b505050506040513d601f19601f82011682018060405250810190610c6b91906143e2565b610c759190614484565b610c7f91906144a3565b60055460405163012772bb60e51b81529192506001600160a01b0316906324ee576090610cb4908c90899086906004016144c5565b600060405180830381600087803b158015610cce57600080fd5b505af1158015610ce2573d6000803e3d6000fd5b50506004805460405163176fa51b60e31b81526001600160a01b038a811693820193909352602481018690529116925063bb7d28d89150604401600060405180830381600087803b158015610d3657600080fd5b505af1158015610d4a573d6000803e3d6000fd5b50505050505b60048054604051637e6e1dd960e01b81526001600160a01b0387811693820193909352911690637e6e1dd990602401600060405180830381600087803b158015610d9957600080fd5b505af1158015610dad573d6000803e3d6000fd5b50505050505050508080610dc0906144e9565b9150506108d1565b506040518060400160405280601981526020017f4c6f616e205061727469616c6c79204c69717569646174656400000000000000815250965050505050505090565b6064610e17826069614484565b610e2191906144a3565b821015610e4c576040518060600160405280603e81526020016145f1603e9139965050505050505090565b5050508080610e5a906144e9565b915050610816565b50505090565b610e8060008051602061462f83398151915233612d3f565b610e9c5760405162461bcd60e51b8152600401610804906143fb565b610ea4613b02565b60095460005b818161ffff16101561133157600060098261ffff1681548110610ecf57610ecf614429565b60009182526020822001546001600160a01b03169150610eee82613ccc565b60048054604051635c88f5a560e01b81526001600160a01b0386811693820193909352929350600092911690635c88f5a590602401602060405180830381865afa158015610f40573d6000803e3d6000fd5b505050506040513d601f19601f82011682018060405250810190610f6491906143e2565b6001600160a01b0384166000908152601160205260408120549192505b818161ffff1610156112b8576001600160a01b0385166000908152601160205260408120805461ffff8416908110610fbb57610fbb614429565b6000918252602090912001546006546040516370a0823160e01b81526001600160a01b03928316600482018190529350662386f26fc1000092909116906370a0823190602401602060405180830381865afa15801561101e573d6000803e3d6000fd5b505050506040513d601f19601f8201168201806040525081019061104291906143e2565b1015611091576001600160a01b038082166000818152600860209081526040808320839055938a168252600c81528382209282529190915290812081905561108987613ccc565b9050506112a5565b6001600160a01b038181166000818152600860205260408082205460065491516370a0823160e01b81526004810194909452919391929116906370a0823190602401602060405180830381865afa1580156110f0573d6000803e3d6000fd5b505050506040513d601f19601f8201168201806040525081019061111491906143e2565b61112690670de0b6b3a7640000614484565b61113091906144a3565b6001600160a01b038089166000908152600c6020908152604080832093871683529290529081205491925090879061117090670de0b6b3a7640000614484565b61117a91906144a3565b905060006ec097ce7bc90715b34b9f1000000000876111998486614484565b6111a39190614484565b6111ad91906144a3565b600654604051630d4d151360e01b81526001600160a01b038781166004830152602482018490528c8116604483015292935060009290911690630d4d1513906064016020604051808303816000875af115801561120e573d6000803e3d6000fd5b505050506040513d601f19601f8201168201806040525081019061123291906143e2565b6001600160a01b03861660009081526008602052604081208054929350839290919061125f908490614455565b90915550506001600160a01b03808b166000908152600c602090815260408083209389168352929052908120805484929061129b908490614455565b9091555050505050505b50806112b0816144e9565b915050610f81565b50600480546040516323d0aab160e01b81526001600160a01b03878116938201939093529116906323d0aab190602401600060405180830381600087803b15801561130257600080fd5b505af1158015611316573d6000803e3d6000fd5b50505050505050508080611329906144e9565b915050610eaa565b5050565b6004805460025460405163a150fb5f60e01b8152928301526000916001600160a01b039091169063a150fb5f90602401602060405180830381865afa1580156107a5573d6000803e3d6000fd5b60008281526020819052604090206001015461139e8133613d7a565b6113a88383613dde565b505050565b6001600160a01b038116331461141d5760405162461bcd60e51b815260206004820152602f60248201527f416363657373436f6e74726f6c3a2063616e206f6e6c792072656e6f756e636560448201526e103937b632b9903337b91039b2b63360891b6064820152608401610804565b6113318282613e00565b6001600160a01b0383166000908152600a602052604090205460ff1661145f5760405162461bcd60e51b81526004016108049061450b565b6001600160a01b0381166000908152600a602052604090205460ff166114975760405162461bcd60e51b81526004016108049061450b565b6004805460405163fce3e8e760e01b81526001600160a01b038681169382019390935291169063fce3e8e790602401602060405180830381865afa1580156114e3573d6000803e3d6000fd5b505050506040513d601f19601f8201168201806040525081019061150791906143e2565b8411156115565760405162461bcd60e51b815260206004820152601e60248201527f6e6f7420656e6f756768206c697175696469747920746f20626f72726f7700006044820152606401610804565b61155e613b02565b6005546040516301fcd2d560e01b81523360048201526000916001600160a01b0316906301fcd2d590602401602060405180830381865afa1580156115a7573d6000803e3d6000fd5b505050506040513d601f19601f820116820180604052508101906115cb91906143e2565b6005546040516306829f1b60e31b81526001600160a01b03858116600483015290911690633414f8d890602401602060405180830381865afa158015611615573d6000803e3d6000fd5b505050506040513d601f19601f8201168201806040525081019061163991906143e2565b6003546040516341976e0960e01b81526001600160a01b038681166004830152879216906341976e0990602401602060405180830381865afa158015611683573d6000803e3d6000fd5b505050506040513d601f19601f820116820180604052508101906116a791906143e2565b6116b19190614484565b6116bb91906144a3565b6116c59190614455565b905060006116d23361380c565b6003546040516341976e0960e01b81526001600160a01b038881166004830152670de0b6b3a7640000928a929116906341976e0990602401602060405180830381865afa158015611727573d6000803e3d6000fd5b505050506040513d601f19601f8201168201806040525081019061174b91906143e2565b6117559190614484565b61175f91906144a3565b6117699190614455565b9050808210156117bb5760405162461bcd60e51b815260206004820152601f60248201527f6e6f7420656e6f75676820636f6c6c61746572616c20746f20626f72726f77006044820152606401610804565b60055460405163f970c3b760e01b81526001600160a01b039091169063f970c3b7906117ef903390879089906004016144c5565b600060405180830381600087803b15801561180957600080fd5b505af115801561181d573d6000803e3d6000fd5b50506004805460405163fc4f78b960e01b81526001600160a01b03909116935063fc4f78b992506118549133918a918c91016144c5565b600060405180830381600087803b15801561186e57600080fd5b505af1158015611882573d6000803e3d6000fd5b505060408051338152602081018a90526001600160a01b0389811682840152606082018990528716608082015290517fea8631408d071cdc565dfa37dcb32450c4c85ee9a4142ed14df1387d7c2a432793509081900360a0019150a16001600160a01b0385166000908152600b6020908152604080832033845290915281208054889290611911908490614455565b90915550506001600160a01b0385166000908152600e6020908152604080832033845290915290205460ff1661199e576001600160a01b0385166000818152600d602090815260408083208054600181810183559185528385200180546001600160a01b03191633908117909155948452600e8352818420948452939091529020805460ff191690911790555b3360009081526010602052604090205460ff16611a1057600f805460018181019092557f8d1108e10bcb7c27dddfc02ed9d693a074039d026cf4ea4240b40f7d581ac8020180546001600160a01b031916339081179091556000908152601060205260409020805460ff191690911790555b60048054604051637e6e1dd960e01b81526001600160a01b0388811693820193909352911690637e6e1dd990602401600060405180830381600087803b158015611a5957600080fd5b505af1158015611a6d573d6000803e3d6000fd5b505060408051338152602081018a90526001600160a01b0389811682840152606082018990528716608082015290517fea8631408d071cdc565dfa37dcb32450c4c85ee9a4142ed14df1387d7c2a432793509081900360a0019150a1505050505050565b6001600160a01b0381166000908152600a602052604090205460ff161515600114611b0e5760405162461bcd60e51b81526004016108049061450b565b611b16613b02565b60008211611b665760405162461bcd60e51b815260206004820152601860248201527f6465706f736974206d75737420626520706f73697469766500000000000000006044820152606401610804565b600654604051630d4d151360e01b8152336004820152602481018490526001600160a01b0383811660448301526000921690630d4d1513906064016020604051808303816000875af1158015611bc0573d6000803e3d6000fd5b505050506040513d601f19601f82011682018060405250810190611be491906143e2565b33600090815260086020526040812080549293508392909190611c08908490614455565b909155505060048054604051631740ecaf60e11b81526001600160a01b0390911691632e81d95e91611c4091339187918991016144c5565b600060405180830381600087803b158015611c5a57600080fd5b505af1158015611c6e573d6000803e3d6000fd5b505050506001600160a01b038216600090815260126020908152604080832033845290915290205460ff16611cfa576001600160a01b03821660008181526011602090815260408083208054600181810183559185528385200180546001600160a01b0319163390811790915594845260128352818420948452939091529020805460ff191690911790555b6001600160a01b0382166000908152600c6020908152604080832033845290915281208054859290611d2d908490614455565b9091555050604080513381526001600160a01b0384166020820152908101849052606081018290527fd2d0080ed70ceb7ce39856d34a5727b439ec7c7919425087ed35ed68687915569060800160405180910390a1505050565b6004805460405163c0d7eec160e01b81526001600160a01b03848116938201939093526000929091169063c0d7eec1906024016106d7565b6001600160a01b0382166000908152600a602052604090205460ff16611df75760405162461bcd60e51b81526004016108049061450b565b611dff613b02565b8060011415611e1557611e123383612fb8565b90505b6001600160a01b0382166000908152600b602090815260408083203384529091529020600181015490548291611e4a91614455565b1015611e985760405162461bcd60e51b815260206004820152601b60248201527f52657475726e6564206d6f7265207468616e20626f72726f77656400000000006044820152606401610804565b6001600160a01b0382166000908152600b60209081526040808320338452909152812060010154611eca908390613e22565b90506000611ed8828461446d565b600480546040516327709e4760e11b815233928101929092526001600160a01b0387811660248401526044830187905260648301849052608483018690529293509190911690634ee13c8e9060a401600060405180830381600087803b158015611f4157600080fd5b505af1158015611f55573d6000803e3d6000fd5b505050506001600160a01b0384166000908152600b6020908152604080832033845290915281208054839290611f8c90849061446d565b90915550506001600160a01b0384166000908152600b6020908152604080832033845290915281206001018054849290611fc790849061446d565b90915550506001600160a01b0384166000908152600b60209081526040808320338452909152902054612019576001600160a01b0384166000908152600b602090815260408083203384529091528120555b6001600160a01b0384166000908152600b6020908152604080832033845290915290206001015461206c576001600160a01b0384166000908152600b602090815260408083203384529091528120600101555b60048054604051637e6e1dd960e01b81526001600160a01b0387811693820193909352911690637e6e1dd990602401600060405180830381600087803b1580156120b557600080fd5b505af11580156120c9573d6000803e3d6000fd5b505050507f2bb7c63eb15a05ebc1a5643f6d064397b45f326816b607769bf52fd7bd03951a338585604051612100939291906144c5565b60405180910390a1612110610e68565b50505050565b60048054604051635c88f5a560e01b81526001600160a01b038481169382019390935260009290911690635c88f5a5906024016106d7565b61216660008051602061462f83398151915233612d3f565b6121825760405162461bcd60e51b8152600401610804906143fb565b600554604051636858ea0760e01b81526001600160a01b0384811660048301526024820184905290911690636858ea0790604401600060405180830381600087803b1580156121d057600080fd5b505af11580156121e4573d6000803e3d6000fd5b505050505050565b60065460408051630cf55f3760e21b815290516000926001600160a01b0316916333d57cdc9160048083019260209291908290030181865afa1580156107a5573d6000803e3d6000fd5b6004805460405163680c815d60e11b81526001600160a01b03848116938201939093526000929091169063d01902ba906024016106d7565b6001600160a01b0382166000908152600a602052604090205460ff166122a65760405162461bcd60e51b81526004016108049061450b565b6006546040516370a0823160e01b815233600482015282916001600160a01b0316906370a0823190602401602060405180830381865afa1580156122ee573d6000803e3d6000fd5b505050506040513d601f19601f8201168201806040525081019061231291906143e2565b10156123745760405162461bcd60e51b815260206004820152602b60248201527f43616e6e6f742072656465656d206d6f726520746f6b656e73207468616e206e60448201526a1d5b58995c881bdddb995960aa1b6064820152608401610804565b61237c613b02565b6003546040516341976e0960e01b81526001600160a01b03848116600483015260009216906341976e0990602401602060405180830381865afa1580156123c7573d6000803e3d6000fd5b505050506040513d601f19601f820116820180604052508101906123eb91906143e2565b9050600081600660009054906101000a90046001600160a01b03166001600160a01b03166333d57cdc6040518163ffffffff1660e01b8152600401602060405180830381865afa158015612443573d6000803e3d6000fd5b505050506040513d601f19601f8201168201806040525081019061246791906143e2565b6124719085614484565b61247b91906144a3565b600654604051632770a7eb60e21b8152336004820152602481018690529192506001600160a01b031690639dc29fac90604401600060405180830381600087803b1580156124c857600080fd5b505af11580156124dc573d6000803e3d6000fd5b5050336000908152600860205260408120805487945090925061250090849061446d565b90915550503360009081526008602052604090205461252a57336000908152600860205260408120555b6001600160a01b0384166000908152600c602090815260408083203384529091529020546125bc576004805460405163995e995b60e01b81526001600160a01b039091169163995e995b9161258591339189918791016144c5565b600060405180830381600087803b15801561259f57600080fd5b505af11580156125b3573d6000803e3d6000fd5b50505050612c7e565b6001600160a01b0384166000908152600c6020908152604080832033845290915290205481111561297c576001600160a01b0384166000908152600c60209081526040808320338452909152812054612615908361446d565b6004805460405163fce3e8e760e01b81526001600160a01b0389811693820193909352929350169063fce3e8e790602401602060405180830381865afa158015612663573d6000803e3d6000fd5b505050506040513d601f19601f8201168201806040525081019061268791906143e2565b6001600160a01b0386166000908152600c602090815260408083203384529091529020541115612868576004805460405163fce3e8e760e01b81526001600160a01b03888116938201939093526000929091169063fce3e8e790602401602060405180830381865afa158015612701573d6000803e3d6000fd5b505050506040513d601f19601f8201168201806040525081019061272591906143e2565b61272f908461446d565b6004805460405163fce3e8e760e01b81526001600160a01b038a811693820193909352929350169063fcbfc2c89033908990849063fce3e8e790602401602060405180830381865afa158015612789573d6000803e3d6000fd5b505050506040513d601f19601f820116820180604052508101906127ad91906143e2565b6040518463ffffffff1660e01b81526004016127cb939291906144c5565b600060405180830381600087803b1580156127e557600080fd5b505af11580156127f9573d6000803e3d6000fd5b50506004805460405163995e995b60e01b81526001600160a01b03909116935063995e995b92506128309133918b918791016144c5565b600060405180830381600087803b15801561284a57600080fd5b505af115801561285e573d6000803e3d6000fd5b5050505050612952565b600480546001600160a01b038781166000908152600c6020908152604080832033808552925291829020549151631f97f85960e31b8152929093169363fcbfc2c8936128ba9390928b929091016144c5565b600060405180830381600087803b1580156128d457600080fd5b505af11580156128e8573d6000803e3d6000fd5b50506004805460405163995e995b60e01b81526001600160a01b03909116935063995e995b925061291f9133918a918791016144c5565b600060405180830381600087803b15801561293957600080fd5b505af115801561294d573d6000803e3d6000fd5b505050505b506001600160a01b0384166000908152600c60209081526040808320338452909152812055612c7e565b6001600160a01b0384166000908152600c602090815260408083203384529091528120546129ab908390613e22565b6001600160a01b0386166000908152600c602090815260408083203384529091528120805492935083929091906129e390849061446d565b90915550506004805460405163fce3e8e760e01b81526001600160a01b038881169382019390935291169063fce3e8e790602401602060405180830381865afa158015612a34573d6000803e3d6000fd5b505050506040513d601f19601f82011682018060405250810190612a5891906143e2565b811115612c16576004805460405163fce3e8e760e01b81526001600160a01b03888116938201939093526000929091169063fce3e8e790602401602060405180830381865afa158015612aaf573d6000803e3d6000fd5b505050506040513d601f19601f82011682018060405250810190612ad391906143e2565b612add908361446d565b6004805460405163fce3e8e760e01b81526001600160a01b038a811693820193909352929350169063fcbfc2c89033908990849063fce3e8e790602401602060405180830381865afa158015612b37573d6000803e3d6000fd5b505050506040513d601f19601f82011682018060405250810190612b5b91906143e2565b6040518463ffffffff1660e01b8152600401612b79939291906144c5565b600060405180830381600087803b158015612b9357600080fd5b505af1158015612ba7573d6000803e3d6000fd5b50506004805460405163995e995b60e01b81526001600160a01b03909116935063995e995b9250612bde9133918b918791016144c5565b600060405180830381600087803b158015612bf857600080fd5b505af1158015612c0c573d6000803e3d6000fd5b5050505050612c7c565b60048054604051631f97f85960e31b81526001600160a01b039091169163fcbfc2c891612c499133918a918891016144c5565b600060405180830381600087803b158015612c6357600080fd5b505af1158015612c77573d6000803e3d6000fd5b505050505b505b60048054604051637e6e1dd960e01b81526001600160a01b0387811693820193909352911690637e6e1dd990602401600060405180830381600087803b158015612cc757600080fd5b505af1158015612cdb573d6000803e3d6000fd5b505050507f9a2c2e027b0e93d2bab8a1db6764850faf19c3f41ec55c77e319131fa38176e6338585604051612d12939291906144c5565b60405180910390a150505050565b6000828152600160205260408120612d389083613e2e565b9392505050565b6000918252602082815260408084206001600160a01b0393909316845291905290205460ff1690565b600554604051631d512a9160e21b81526001600160a01b0383811660048301526000921690637544aa44906024016106d7565b6006546040516370a0823160e01b81526001600160a01b03838116600483015260009216906370a08231906024016106d7565b612de660008051602061462f83398151915233612d3f565b612e025760405162461bcd60e51b8152600401610804906143fb565b600980546001810182556000919091527f6e1540171b6c0c960b71a7020d9f60077f6af931a8bbf590da0223dacf75c7af0180546001600160a01b0319166001600160a01b038381169182179092556004805460405163fac09e8760e01b81529182019290925291169063fac09e8790602401600060405180830381600087803b158015612e8f57600080fd5b505af1158015612ea3573d6000803e3d6000fd5b505060055460405163fac09e8760e01b81526001600160a01b038581166004830152909116925063fac09e879150602401600060405180830381600087803b158015612eee57600080fd5b505af1158015612f02573d6000803e3d6000fd5b5050505050565b600554604051632b92a07d60e01b81526001600160a01b03838116600483015284811660248301526000921690632b92a07d90604401602060405180830381865afa158015612f5c573d6000803e3d6000fd5b505050506040513d601f19601f82011682018060405250810190612d3891906143e2565b6004805460405163fce3e8e760e01b81526001600160a01b03848116938201939093526000929091169063fce3e8e7906024016106d7565b6001600160a01b038181166000908152600b60209081526040808320938616835292905290812060018101549054612d389190614455565b6003546040516341976e0960e01b81526001600160a01b03848116600483015260009283929116906341976e0990602401602060405180830381865afa15801561303e573d6000803e3d6000fd5b505050506040513d601f19601f8201168201806040525081019061306291906143e2565b905080600660009054906101000a90046001600160a01b03166001600160a01b03166333d57cdc6040518163ffffffff1660e01b8152600401602060405180830381865afa1580156130b8573d6000803e3d6000fd5b505050506040513d601f19601f820116820180604052508101906130dc91906143e2565b6130e69085614484565b6130f091906144a3565b949350505050565b6001600160a01b0383166000908152600a602052604090205460ff166131305760405162461bcd60e51b81526004016108049061450b565b613138613b02565b6131413361380c565b6005546040516306829f1b60e31b81526001600160a01b03868116600483015290911690633414f8d890602401602060405180830381865afa15801561318b573d6000803e3d6000fd5b505050506040513d601f19601f820116820180604052508101906131af91906143e2565b6003546040516341976e0960e01b81526001600160a01b038781166004830152869216906341976e0990602401602060405180830381865afa1580156131f9573d6000803e3d6000fd5b505050506040513d601f19601f8201168201806040525081019061321d91906143e2565b6132279190614484565b61323191906144a3565b6005546040516301fcd2d560e01b81523360048201526001600160a01b03909116906301fcd2d590602401602060405180830381865afa158015613279573d6000803e3d6000fd5b505050506040513d601f19601f8201168201806040525081019061329d91906143e2565b6132a7919061446d565b10156133105760405162461bcd60e51b815260206004820152603260248201527f43616e6e6f7420776974686472617720636f6c6c61746572616c206265666f7260448201527132903830bcb4b733903130b1b5903637b0b760711b6064820152608401610804565b600554604051632b92a07d60e01b81526001600160a01b0385811660048301523360248301526000921690632b92a07d90604401602060405180830381865afa158015613361573d6000803e3d6000fd5b505050506040513d601f19601f8201168201806040525081019061338591906143e2565b9050808311156133e85760405162461bcd60e51b815260206004820152602860248201527f52656465656d696e67206d6f726520636f6c6c61746572616c207468616e2064604482015267195c1bdcda5d195960c21b6064820152608401610804565b600182151514156135b057600654604051630d4d151360e01b8152336004820152602481018590526001600160a01b0386811660448301526000921690630d4d1513906064016020604051808303816000875af115801561344d573d6000803e3d6000fd5b505050506040513d601f19601f8201168201806040525081019061347191906143e2565b33600090815260086020526040812080549293508392909190613495908490614455565b90915550506001600160a01b038516600090815260126020908152604080832033845290915290205460ff16613522576001600160a01b03851660008181526011602090815260408083208054600181810183559185528385200180546001600160a01b0319163390811790915594845260128352818420948452939091529020805460ff191690911790555b6001600160a01b0385166000908152600c6020908152604080832033845290915281208054869290613555908490614455565b9091555050604080513381526001600160a01b0387166020820152908101859052606081018290527fd2d0080ed70ceb7ce39856d34a5727b439ec7c7919425087ed35ed68687915569060800160405180910390a1506135ec565b7f03ff0c85f880c6a1f943c2c36ebbb2cb1b93959479db451b2acb7b1e06f4e3693385856040516135e3939291906144c5565b60405180910390a15b600554604051634755ea7f60e11b81523360048201526001600160a01b03868116602483015260448201869052841515606483015290911690638eabd4fe90608401600060405180830381600087803b15801561364857600080fd5b505af115801561365c573d6000803e3d6000fd5b5050505050505050565b600654604080516318160ddd60e01b815290516000926001600160a01b0316916318160ddd9160048083019260209291908290030181865afa1580156107a5573d6000803e3d6000fd5b60008181526001602052604081206106a290613e3a565b6005546040516301fcd2d560e01b81526001600160a01b03838116600483015260009216906301fcd2d5906024016106d7565b6004805460405163f8b2cb4f60e01b81526001600160a01b03848116938201939093526000929091169063f8b2cb4f906024016106d7565b600480546002546040516306448fd360e51b81526000936001600160a01b039093169263c891fa60926106d7928792016001600160a01b03929092168252602082015260400190565b6005546040516328d1f89360e21b81526001600160a01b038381166004830152600092169063a347e24c906024016106d7565b6000828152602081905260409020600101546137ca8133613d7a565b6113a88383613e00565b6004805460405163de30f97d60e01b81526001600160a01b03848116938201939093526000929091169063de30f97d906024016106d7565b6009546000908190815b818161ffff16101561393057600060098261ffff168154811061383b5761383b614429565b60009182526020822001546003546040516341976e0960e01b81526001600160a01b039283166004820181905294509116906341976e0990602401602060405180830381865afa158015613893573d6000803e3d6000fd5b505050506040513d601f19601f820116820180604052508101906138b791906143e2565b6001600160a01b038381166000908152600b60209081526040808320938c1683529290522060018101549054919250670de0b6b3a76400009183916138fb91614455565b6139059190614484565b61390f91906144a3565b6139199086614455565b945050508080613928906144e9565b915050613816565b50909392505050565b6139438282612d3f565b611331576000828152602081815260408083206001600160a01b03851684529091529020805460ff191660011790556139793390565b6001600160a01b0316816001600160a01b0316837f2f8788117e7eff1d82e926ec794901d17c78024a50270940304540a733656f0d60405160405180910390a45050565b6000612d38836001600160a01b038416613e44565b60006001600160e01b03198216637965db0b60e01b14806106a257506301ffc9a760e01b6001600160e01b03198316146106a2565b600080670de0b6b3a764000085613a1e828761446d565b613a289190614484565b613a3291906144a3565b83670de0b6b3a7640000613a468789614484565b613a5091906144a3565b613a5a919061446d565b613a6c906716345785d8a00000614484565b613a7691906144a3565b9050613a8a81670de0b6b3a764000061446d565b95945050505050565b600080670de0b6b3a764000083613aaa828761446d565b613ab49190614484565b613abe91906144a3565b83670de0b6b3a7640000613ad28789614484565b613adc91906144a3565b613ae6919061446d565b613af8906716345785d8a00000614484565b613a8a91906144a3565b60095460005b818161ffff161015613cc457600060098261ffff1681548110613b2d57613b2d614429565b6000918252602080832091909101546001600160a01b03908116808452600d9092526040808420546004805460025493516306448fd360e51b81529182018690526024820193909352939550939291169063c891fa6090604401602060405180830381865afa158015613ba4573d6000803e3d6000fd5b505050506040513d601f19601f82011682018060405250810190613bc891906143e2565b905060005b828161ffff161015613cad576001600160a01b0384166000908152600d60205260408120805461ffff8416908110613c0757613c07614429565b60009182526020808320909101546001600160a01b038881168452600b8352604080852091909216808552925290912054909150670de0b6b3a764000090613c4f9085614484565b613c5991906144a3565b6001600160a01b038087166000908152600b6020908152604080832093861683529290529081206001018054909190613c93908490614455565b90915550829150613ca59050816144e9565b915050613bcd565b505050508080613cbc906144e9565b915050613b08565b505042600255565b6001600160a01b03811660009081526011602052604081205481805b828161ffff161015613d72576001600160a01b0385166000908152600c6020908152604080832060119092528220805491929161ffff8516908110613d2f57613d2f614429565b60009182526020808320909101546001600160a01b03168352820192909252604001902054613d5e9083614455565b915080613d6a816144e9565b915050613ce8565b509392505050565b613d848282612d3f565b61133157613d9c816001600160a01b03166014613e93565b613da7836020613e93565b604051602001613db8929190614538565b60408051601f198184030181529082905262461bcd60e51b825261080491600401614269565b613de88282613939565b60008281526001602052604090206113a890826139bd565b613e0a828261402f565b60008281526001602052604090206113a89082614094565b6000612d3883836140a9565b6000612d3883836140bf565b60006106a2825490565b6000818152600183016020526040812054613e8b575081546001818101845560008481526020808220909301849055845484825282860190935260409020919091556106a2565b5060006106a2565b60606000613ea2836002614484565b613ead906002614455565b67ffffffffffffffff811115613ec557613ec56145ad565b6040519080825280601f01601f191660200182016040528015613eef576020820181803683370190505b509050600360fc1b81600081518110613f0a57613f0a614429565b60200101906001600160f81b031916908160001a905350600f60fb1b81600181518110613f3957613f39614429565b60200101906001600160f81b031916908160001a9053506000613f5d846002614484565b613f68906001614455565b90505b6001811115613fe0576f181899199a1a9b1b9c1cb0b131b232b360811b85600f1660108110613f9c57613f9c614429565b1a60f81b828281518110613fb257613fb2614429565b60200101906001600160f81b031916908160001a90535060049490941c93613fd9816145c3565b9050613f6b565b508315612d385760405162461bcd60e51b815260206004820181905260248201527f537472696e67733a20686578206c656e67746820696e73756666696369656e746044820152606401610804565b6140398282612d3f565b15611331576000828152602081815260408083206001600160a01b0385168085529252808320805460ff1916905551339285917ff6391f5c32d9c69d2a47ea670b442974b53935d1edc7fd64eb21e047a839171b9190a45050565b6000612d38836001600160a01b0384166140e9565b60008183106140b85781612d38565b5090919050565b60008260000182815481106140d6576140d6614429565b9060005260206000200154905092915050565b600081815260018301602052604081205480156141d257600061410d60018361446d565b85549091506000906141219060019061446d565b905081811461418657600086600001828154811061414157614141614429565b906000526020600020015490508087600001848154811061416457614164614429565b6000918252602080832090910192909255918252600188019052604090208390555b8554869080614197576141976145da565b6001900381819060005260206000200160009055905585600101600086815260200190815260200160002060009055600193505050506106a2565b60009150506106a2565b6000602082840312156141ee57600080fd5b81356001600160e01b031981168114612d3857600080fd5b80356001600160a01b038116811461421d57600080fd5b919050565b60006020828403121561423457600080fd5b612d3882614206565b60005b83811015614258578181015183820152602001614240565b838111156121105750506000910152565b602081526000825180602084015261428881604085016020870161423d565b601f01601f19169190910160400192915050565b6000602082840312156142ae57600080fd5b5035919050565b600080604083850312156142c857600080fd5b823591506142d860208401614206565b90509250929050565b600080600080608085870312156142f757600080fd5b8435935061430760208601614206565b92506040850135915061431c60608601614206565b905092959194509250565b6000806040838503121561433a57600080fd5b61434383614206565b946020939093013593505050565b6000806040838503121561436457600080fd5b61436d83614206565b91506142d860208401614206565b6000806040838503121561438e57600080fd5b50508035926020909101359150565b6000806000606084860312156143b257600080fd5b6143bb84614206565b925060208401359150604084013580151581146143d757600080fd5b809150509250925092565b6000602082840312156143f457600080fd5b5051919050565b6020808252601490820152736d75737420686176652061646d696e20726f6c6560601b604082015260600190565b634e487b7160e01b600052603260045260246000fd5b634e487b7160e01b600052601160045260246000fd5b600082198211156144685761446861443f565b500190565b60008282101561447f5761447f61443f565b500390565b600081600019048311821515161561449e5761449e61443f565b500290565b6000826144c057634e487b7160e01b600052601260045260246000fd5b500490565b6001600160a01b039384168152919092166020820152604081019190915260600190565b600061ffff808316818114156145015761450161443f565b6001019392505050565b602080825260139082015272185cdcd95d081b9bdd081cdd5c1c1bdc9d1959606a1b604082015260600190565b7f416363657373436f6e74726f6c3a206163636f756e742000000000000000000081526000835161457081601785016020880161423d565b7001034b99036b4b9b9b4b733903937b6329607d1b60179184019182015283516145a181602884016020880161423d565b01602801949350505050565b634e487b7160e01b600052604160045260246000fd5b6000816145d2576145d261443f565b506000190190565b634e487b7160e01b600052603160045260246000fdfe4c69717569646174696f6e205269736b3a20436f6c6c61746572616c2076616c756520617070726f616368696e67204c545620726571756972656d656e74a49807205ce4d355092ef5a8a18f56e8913cf4a201fbe287825b095693c21775a26469706673582212206cf18a0820f60de8a8a0050e92ed905db6a09ed898a0761b971e6732575422bb64736f6c634300080b003360806040523480156200001157600080fd5b5060408051608080820183526000808352602080840182815284860183815260608087018581527301be23585060835e02b77ef475b0cc51aa1e0709808752600280875298517fed3674b09469bf4c18c58b5c17b6619c2db43f90b5389a6501b1af546f40b64a5593517fed3674b09469bf4c18c58b5c17b6619c2db43f90b5389a6501b1af546f40b64b5591517fed3674b09469bf4c18c58b5c17b6619c2db43f90b5389a6501b1af546f40b64c5590517fed3674b09469bf4c18c58b5c17b6619c2db43f90b5389a6501b1af546f40b64d5560048054600181810183557f8a35acfbc15ff81a39ae7d344fd709f28e8600b4aa8c65c6b64bfe7fe36bd19b91820180546001600160a01b031990811687179091558a51808a018c52888152808801898152818d018a81528288018b8152735592ec0cfb4dbc12d3ab100b257153436a1f0fea808d528e8c5293517f350e7dc47375535dbbaa844f05f768ffe58fc0c7f59c294c184aa966f4bac71a5591517f350e7dc47375535dbbaa844f05f768ffe58fc0c7f59c294c184aa966f4bac71b55517f350e7dc47375535dbbaa844f05f768ffe58fc0c7f59c294c184aa966f4bac71c55517f350e7dc47375535dbbaa844f05f768ffe58fc0c7f59c294c184aa966f4bac71d5584548084018655840180548316821790558b51998a018c52888a528988018981528a8d018a8152968b018a815273c778417e063141139fce010982780140aa0cd5ab808c529c90995299517f1a4e087dbd68c74cb0888bc0d429e64857661530ba71b8a04d03d6e54890a9a75598517f1a4e087dbd68c74cb0888bc0d429e64857661530ba71b8a04d03d6e54890a9a85593517f1a4e087dbd68c74cb0888bc0d429e64857661530ba71b8a04d03d6e54890a9a95594517f1a4e087dbd68c74cb0888bc0d429e64857661530ba71b8a04d03d6e54890a9aa55815494850182559452919092018054909116841790559251919291620002eb90620004c3565b604051809103906000f08015801562000308573d6000803e3d6000fd5b50600380546001600160a01b0319166001600160a01b0392909216919091179055620003557fa49807205ce4d355092ef5a8a18f56e8913cf4a201fbe287825b095693c21775336200035e565b505050620004d1565b6200036a82826200036e565b5050565b620003858282620003b160201b6200149f1760201c565b6000828152600160209081526040909120620003ac9183906200152362000451821b17901c565b505050565b6000828152602081815260408083206001600160a01b038516845290915290205460ff166200036a576000828152602081815260408083206001600160a01b03851684529091529020805460ff191660011790556200040d3390565b6001600160a01b0316816001600160a01b0316837f2f8788117e7eff1d82e926ec794901d17c78024a50270940304540a733656f0d60405160405180910390a45050565b600062000468836001600160a01b03841662000471565b90505b92915050565b6000818152600183016020526040812054620004ba575081546001818101845560008481526020808220909301849055845484825282860190935260409020919091556200046b565b5060006200046b565b6103b3806200243083390190565b611f4f80620004e16000396000f3fe608060405234801561001057600080fd5b50600436106101fb5760003560e01c8063a150fb5f1161011a578063d01902ba116100ad578063f8b2cb4f1161007c578063f8b2cb4f14610485578063fac09e8714610498578063fc4f78b9146104ab578063fcbfc2c8146104be578063fce3e8e7146104d157600080fd5b8063d01902ba1461041d578063d547741f1461044a578063de30f97d1461045d578063e4ebd6011461047057600080fd5b8063c0d7eec1116100e9578063c0d7eec1146102e6578063c891fa60146103e4578063ca15c873146103f7578063cc4251e61461040a57600080fd5b8063a150fb5f146103a3578063a217fddf146103b6578063bb7d28d8146103be578063bd4b002e146103d157600080fd5b80635c88f5a5116101925780637e6e1dd9116101615780637e6e1dd91461033f5780639010d07c1461035257806391d148541461037d578063995e995b1461039057600080fd5b80635c88f5a5146102e65780637065cb481461030f57806375b238fc1461032257806375f4d6771461033757600080fd5b80632f2ff15d116101ce5780632f2ff15d1461028157806330e311a11461029457806336568abe146102c05780634ee13c8e146102d357600080fd5b806301ffc9a71461020057806323d0aab114610228578063248a9ca31461023d5780632e81d95e1461026e575b600080fd5b61021361020e3660046119b7565b6104fd565b60405190151581526020015b60405180910390f35b61023b6102363660046119f8565b610528565b005b61026061024b366004611a13565b60009081526020819052604090206001015490565b60405190815260200161021f565b61023b61027c366004611a2c565b6105b4565b61023b61028f366004611a68565b61073e565b6102606102a23660046119f8565b6001600160a01b031660009081526002602052604090206003015490565b61023b6102ce366004611a68565b610769565b61023b6102e1366004611a94565b6107e7565b6102606102f43660046119f8565b6001600160a01b031660009081526002602052604090205490565b61023b61031d3660046119f8565b610955565b610260600080516020611efa83398151915281565b6102606109a4565b61023b61034d3660046119f8565b610ad5565b610365610360366004611ae1565b610d08565b6040516001600160a01b03909116815260200161021f565b61021361038b366004611a68565b610d27565b61023b61039e366004611a2c565b610d50565b6102606103b1366004611a13565b610e4b565b610260600081565b61023b6103cc366004611b03565b610e57565b61023b6103df366004611b03565b610eb6565b6102606103f2366004611b03565b610f90565b610260610405366004611a13565b611035565b6102606104183660046119f8565b61104c565b61026061042b3660046119f8565b6001600160a01b03166000908152600260208190526040909120015490565b61023b610458366004611a68565b611089565b61026061046b3660046119f8565b6110af565b610478611173565b60405161021f9190611b2d565b6102606104933660046119f8565b6111d5565b61023b6104a63660046119f8565b611240565b61023b6104b9366004611a2c565b611314565b61023b6104cc366004611a2c565b611440565b6102606104df3660046119f8565b6001600160a01b031660009081526002602052604090206001015490565b60006001600160e01b03198216635a05180f60e01b1480610522575061052282611538565b92915050565b610540600080516020611efa83398151915233610d27565b6105655760405162461bcd60e51b815260040161055c90611b7a565b60405180910390fd5b6001600160a01b038116600090815260026020526040812080546001909101805491929091610595908490611bbe565b90915550506001600160a01b0316600090815260026020526040812055565b6105cc600080516020611efa83398151915233610d27565b6105e85760405162461bcd60e51b815260040161055c90611b7a565b6040516323b872dd60e01b81526001600160a01b038481166004830152306024830152604482018390528316906323b872dd906064016020604051808303816000875af115801561063d573d6000803e3d6000fd5b505050506040513d601f19601f820116820180604052508101906106619190611bd6565b50670de0b6b3a764000061067d82670b1a2bc2ec500000611bf8565b6106879190611c17565b6001600160a01b038316600090815260026020526040812060010180549091906106b2908490611bbe565b90915550670de0b6b3a764000090506106d3826702c68af0bb140000611bf8565b6106dd9190611c17565b6001600160a01b03831660009081526002602052604081206003018054909190610708908490611bbe565b9091555050604051600080516020611eda83398151915290610731908590309086908690611c39565b60405180910390a1505050565b60008281526020819052604090206001015461075a813361156d565b61076483836115d1565b505050565b6001600160a01b03811633146107d95760405162461bcd60e51b815260206004820152602f60248201527f416363657373436f6e74726f6c3a2063616e206f6e6c792072656e6f756e636560448201526e103937b632b9903337b91039b2b63360891b606482015260840161055c565b6107e382826115f3565b5050565b6107ff600080516020611efa83398151915233610d27565b61081b5760405162461bcd60e51b815260040161055c90611b7a565b6040516323b872dd60e01b81526001600160a01b038681166004830152306024830152604482018590528516906323b872dd906064016020604051808303816000875af1158015610870573d6000803e3d6000fd5b505050506040513d601f19601f820116820180604052508101906108949190611bd6565b506001600160a01b038416600090815260026020526040812060010180548492906108c0908490611bbe565b90915550506001600160a01b038416600090815260026020819052604082200180548492906108f0908490611c63565b90915550506001600160a01b0384166000908152600260205260408120805483929061091d908490611bbe565b9091555050604051600080516020611eda83398151915290610946908790309088908890611c39565b60405180910390a15050505050565b61096d600080516020611efa83398151915233610d27565b6109895760405162461bcd60e51b815260040161055c90611b7a565b6109a1600080516020611efa83398151915282611615565b50565b6004546000908190815b818161ffff161015610acd57600060048261ffff16815481106109d3576109d3611c7a565b6000918252602090912001546003546040516341976e0960e01b81526001600160a01b03928316600482018190529350670de0b6b3a764000092909116906341976e0990602401602060405180830381865afa158015610a37573d6000803e3d6000fd5b505050506040513d601f19601f82011682018060405250810190610a5b9190611c90565b6001600160a01b0383166000908152600260208190526040909120600381015491810154600190910154610a8f9190611bbe565b610a999190611bbe565b610aa39190611bf8565b610aad9190611c17565b610ab79085611bbe565b9350508080610ac590611ca9565b9150506109ae565b509092915050565b610aed600080516020611efa83398151915233610d27565b610b095760405162461bcd60e51b815260040161055c90611b7a565b6001600160a01b03811660009081526002602052604081206003810154600190910154670de0b6b3a764000091610b3f91611bbe565b610b51906702c68af0bb140000611bf8565b610b5b9190611c17565b6001600160a01b038316600090815260026020526040902060030154909150811015610c35576001600160a01b038216600090815260026020526040902060030154610ba8908290611c63565b6001600160a01b03831660009081526002602052604081206001018054909190610bd3908490611bbe565b90915550506001600160a01b038216600090815260026020526040902060030154610bff908290611c63565b6001600160a01b03831660009081526002602052604081206003018054909190610c2a908490611c63565b909155506107e39050565b6001600160a01b0382166000908152600260205260409020600301548111156107e3576001600160a01b038216600090815260026020526040902060030154610c7e9082611c63565b6001600160a01b03831660009081526002602052604081206001018054909190610ca9908490611c63565b90915550506001600160a01b038216600090815260026020526040902060030154610cd49082611c63565b6001600160a01b03831660009081526002602052604081206003018054909190610cff908490611bbe565b90915550505050565b6000828152600160205260408120610d20908361161f565b9392505050565b6000918252602082815260408084206001600160a01b0393909316845291905290205460ff1690565b610d68600080516020611efa83398151915233610d27565b610d845760405162461bcd60e51b815260040161055c90611b7a565b6001600160a01b03821660009081526002602052604081206003018054839290610daf908490611c63565b909155505060405163a9059cbb60e01b81526001600160a01b0384811660048301526024820183905283169063a9059cbb906044016020604051808303816000875af1158015610e03573d6000803e3d6000fd5b505050506040513d601f19601f82011682018060405250810190610e279190611bd6565b50600080516020611eda833981519152308484846040516107319493929190611c39565b60006105228242611c63565b610e6f600080516020611efa83398151915233610d27565b610e8b5760405162461bcd60e51b815260040161055c90611b7a565b6001600160a01b03821660009081526002602052604081206003018054839290610cff908490611bbe565b610ece600080516020611efa83398151915233610d27565b610eea5760405162461bcd60e51b815260040161055c90611b7a565b670de0b6b3a7640000610f0582670b1a2bc2ec500000611bf8565b610f0f9190611c17565b6001600160a01b03831660009081526002602052604081206003018054909190610f3a908490611c63565b90915550670de0b6b3a76400009050610f5b82670b1a2bc2ec500000611bf8565b610f659190611c17565b6001600160a01b03831660009081526002602052604081206001018054909190610cff908490611bbe565b600080610f9c846110af565b610fae90670de0b6b3a7640000611c63565b90506000610fbc8442611c63565b90506301e1855868056bc75e2d631000006ec097ce7bc90715b34b9f1000000000610fe8600486611daf565b610ff29190611c17565b610ffd906008611bf8565b6110079190611c17565b6110189066354a6ba7a18000611bbe565b6110229083611bf8565b61102c9190611c17565b95945050505050565b60008181526001602052604081206105229061162b565b6001600160a01b0381166000908152600260208190526040822060038101549181015460019091015461107f9190611bbe565b6105229190611bbe565b6000828152602081905260409020600101546110a5813361156d565b61076483836115f3565b6001600160a01b0381166000908152600260205260408120600101541515806110f357506001600160a01b0382166000908152600260208190526040909120015415155b1561115f576001600160a01b0382166000908152600260208190526040909120908101546001909101546111279190611bbe565b6001600160a01b03831660009081526002602052604090206001015461115590670de0b6b3a7640000611bf8565b6105229190611c17565b50670de0b6b3a7640000919050565b919050565b606060048054806020026020016040519081016040528092919081815260200182805480156111cb57602002820191906000526020600020905b81546001600160a01b031681526001909101906020018083116111ad575b5050505050905090565b6040516370a0823160e01b81523060048201526000906001600160a01b038316906370a0823190602401602060405180830381865afa15801561121c573d6000803e3d6000fd5b505050506040513d601f19601f820116820180604052508101906105229190611c90565b611258600080516020611efa83398151915233610d27565b6112745760405162461bcd60e51b815260040161055c90611b7a565b6040805160808101825260008082526020808301828152838501838152606085018481526001600160a01b03909716808552600293849052958420945185559051600180860191909155905191840191909155935160039092019190915560048054938401815590527f8a35acfbc15ff81a39ae7d344fd709f28e8600b4aa8c65c6b64bfe7fe36bd19b90910180546001600160a01b0319169091179055565b61132c600080516020611efa83398151915233610d27565b6113485760405162461bcd60e51b815260040161055c90611b7a565b60405163a9059cbb60e01b81526001600160a01b0384811660048301526024820183905283169063a9059cbb906044016020604051808303816000875af1158015611397573d6000803e3d6000fd5b505050506040513d601f19601f820116820180604052508101906113bb9190611bd6565b506001600160a01b038216600090815260026020526040812060010180548392906113e7908490611c63565b90915550506001600160a01b03821660009081526002602081905260408220018054839290611417908490611bbe565b9091555050604051600080516020611eda83398151915290610731903090869086908690611c39565b611458600080516020611efa83398151915233610d27565b6114745760405162461bcd60e51b815260040161055c90611b7a565b6001600160a01b03821660009081526002602052604081206001018054839290610daf908490611c63565b6114a98282610d27565b6107e3576000828152602081815260408083206001600160a01b03851684529091529020805460ff191660011790556114df3390565b6001600160a01b0316816001600160a01b0316837f2f8788117e7eff1d82e926ec794901d17c78024a50270940304540a733656f0d60405160405180910390a45050565b6000610d20836001600160a01b038416611635565b60006001600160e01b03198216637965db0b60e01b148061052257506301ffc9a760e01b6001600160e01b0319831614610522565b6115778282610d27565b6107e35761158f816001600160a01b03166014611684565b61159a836020611684565b6040516020016115ab929190611dee565b60408051601f198184030181529082905262461bcd60e51b825261055c91600401611e63565b6115db828261149f565b60008281526001602052604090206107649082611523565b6115fd8282611820565b60008281526001602052604090206107649082611885565b6107e382826115d1565b6000610d20838361189a565b6000610522825490565b600081815260018301602052604081205461167c57508154600181810184556000848152602080822090930184905584548482528286019093526040902091909155610522565b506000610522565b60606000611693836002611bf8565b61169e906002611bbe565b67ffffffffffffffff8111156116b6576116b6611e96565b6040519080825280601f01601f1916602001820160405280156116e0576020820181803683370190505b509050600360fc1b816000815181106116fb576116fb611c7a565b60200101906001600160f81b031916908160001a905350600f60fb1b8160018151811061172a5761172a611c7a565b60200101906001600160f81b031916908160001a905350600061174e846002611bf8565b611759906001611bbe565b90505b60018111156117d1576f181899199a1a9b1b9c1cb0b131b232b360811b85600f166010811061178d5761178d611c7a565b1a60f81b8282815181106117a3576117a3611c7a565b60200101906001600160f81b031916908160001a90535060049490941c936117ca81611eac565b905061175c565b508315610d205760405162461bcd60e51b815260206004820181905260248201527f537472696e67733a20686578206c656e67746820696e73756666696369656e74604482015260640161055c565b61182a8282610d27565b156107e3576000828152602081815260408083206001600160a01b0385168085529252808320805460ff1916905551339285917ff6391f5c32d9c69d2a47ea670b442974b53935d1edc7fd64eb21e047a839171b9190a45050565b6000610d20836001600160a01b0384166118c4565b60008260000182815481106118b1576118b1611c7a565b9060005260206000200154905092915050565b600081815260018301602052604081205480156119ad5760006118e8600183611c63565b85549091506000906118fc90600190611c63565b905081811461196157600086600001828154811061191c5761191c611c7a565b906000526020600020015490508087600001848154811061193f5761193f611c7a565b6000918252602080832090910192909255918252600188019052604090208390555b855486908061197257611972611ec3565b600190038181906000526020600020016000905590558560010160008681526020019081526020016000206000905560019350505050610522565b6000915050610522565b6000602082840312156119c957600080fd5b81356001600160e01b031981168114610d2057600080fd5b80356001600160a01b038116811461116e57600080fd5b600060208284031215611a0a57600080fd5b610d20826119e1565b600060208284031215611a2557600080fd5b5035919050565b600080600060608486031215611a4157600080fd5b611a4a846119e1565b9250611a58602085016119e1565b9150604084013590509250925092565b60008060408385031215611a7b57600080fd5b82359150611a8b602084016119e1565b90509250929050565b600080600080600060a08688031215611aac57600080fd5b611ab5866119e1565b9450611ac3602087016119e1565b94979496505050506040830135926060810135926080909101359150565b60008060408385031215611af457600080fd5b50508035926020909101359150565b60008060408385031215611b1657600080fd5b611b1f836119e1565b946020939093013593505050565b6020808252825182820181905260009190848201906040850190845b81811015611b6e5783516001600160a01b031683529284019291840191600101611b49565b50909695505050505050565b6020808252601490820152736d75737420686176652061646d696e20726f6c6560601b604082015260600190565b634e487b7160e01b600052601160045260246000fd5b60008219821115611bd157611bd1611ba8565b500190565b600060208284031215611be857600080fd5b81518015158114610d2057600080fd5b6000816000190483118215151615611c1257611c12611ba8565b500290565b600082611c3457634e487b7160e01b600052601260045260246000fd5b500490565b6001600160a01b039485168152928416602084015292166040820152606081019190915260800190565b600082821015611c7557611c75611ba8565b500390565b634e487b7160e01b600052603260045260246000fd5b600060208284031215611ca257600080fd5b5051919050565b600061ffff80831681811415611cc157611cc1611ba8565b6001019392505050565b600181815b80851115611d06578160001904821115611cec57611cec611ba8565b80851615611cf957918102915b93841c9390800290611cd0565b509250929050565b600082611d1d57506001610522565b81611d2a57506000610522565b8160018114611d405760028114611d4a57611d66565b6001915050610522565b60ff841115611d5b57611d5b611ba8565b50506001821b610522565b5060208310610133831016604e8410600b8410161715611d89575081810a610522565b611d938383611ccb565b8060001904821115611da757611da7611ba8565b029392505050565b6000610d2060ff841683611d0e565b60005b83811015611dd9578181015183820152602001611dc1565b83811115611de8576000848401525b50505050565b7f416363657373436f6e74726f6c3a206163636f756e7420000000000000000000815260008351611e26816017850160208801611dbe565b7001034b99036b4b9b9b4b733903937b6329607d1b6017918401918201528351611e57816028840160208801611dbe565b01602801949350505050565b6020815260008251806020840152611e82816040850160208701611dbe565b601f01601f19169190910160400192915050565b634e487b7160e01b600052604160045260246000fd5b600081611ebb57611ebb611ba8565b506000190190565b634e487b7160e01b600052603160045260246000fdfe724dd111d8b4c66b0043d7e6eb223c3a7567ec1641110e6d5a71cb0dc7ffaf70a49807205ce4d355092ef5a8a18f56e8913cf4a201fbe287825b095693c21775a26469706673582212208c640466ac85cba6672a9d9436a89809cbb9b543d699f6dbd90629523595eb0764736f6c634300080b0033608060405234801561001057600080fd5b50600060208190527f4e2753d238f0f4cb8962490717ab551b4c023808c7bc37aed6e8760bfc3a92d580546001600160a01b031990811673d8bd0a1cb028a31aa859a21a3758685a95de4623179091557ff4e9730789baae4355b7b087afa1a57a24c222e690ce50ce909b525e8495925b80548216732ba49aaa16e6afd2a993473cfb70fa8559b523cf17905573c778417e063141139fce010982780140aa0cd5ab9091527f02e9d230142cd2a2518ca1eebf58e2b95f971add66b06973a2b3e55bb9e440f98054909116738a753747a1fa494ec906ce90e9f37563a8af630e1790556102b1806101026000396000f3fe608060405234801561001057600080fd5b50600436106100365760003560e01c806341976e091461003b5780634238dc4714610061575b600080fd5b61004e610049366004610141565b6100a2565b6040519081526020015b60405180910390f35b61008a61006f366004610141565b6000602081905290815260409020546001600160a01b031681565b6040516001600160a01b039091168152602001610058565b6001600160a01b03808216600090815260208190526040808220548151633fabe5a360e21b81529151929316918391839163feaf968c9160048082019260a0929091908290030181865afa1580156100fe573d6000803e3d6000fd5b505050506040513d601f19601f820116820180604052508101906101229190610190565b505050915050806402540be40061013991906101f6565b949350505050565b60006020828403121561015357600080fd5b81356001600160a01b038116811461016a57600080fd5b9392505050565b805169ffffffffffffffffffff8116811461018b57600080fd5b919050565b600080600080600060a086880312156101a857600080fd5b6101b186610171565b94506020860151935060408601519250606086015191506101d460808701610171565b90509295509295909350565b634e487b7160e01b600052601160045260246000fd5b60006001600160ff1b038184138284138082168684048611161561021c5761021c6101e0565b600160ff1b600087128281168783058912161561023b5761023b6101e0565b60008712925087820587128484161615610257576102576101e0565b8785058712818416161561026d5761026d6101e0565b50505092909302939250505056fea264697066735822122096845bc61a9da0796fff35ddde335ef618164120a98e6b6dbcb9e1022566754164736f6c634300080b003360806040523480156200001157600080fd5b506040516200210e3803806200210e8339810160408190526200003491620003e2565b8251839083906200004d90600590602085019062000261565b5080516200006390600690602084019062000261565b505050620000987f9f2df0fed2c77648de5860a4cc508cd0818c85b8b8a1ab4ceeef8d981c8956a633620000fc60201b60201c565b604051620000a690620002f0565b604051809103906000f080158015620000c3573d6000803e3d6000fd5b50600780546001600160a01b039283166001600160a01b0319918216179091556008805493909216921691909117905550620004ac9050565b6200010882826200010c565b5050565b6200012382826200014f60201b62000a5f1760201c565b60008281526001602090815260409091206200014a91839062000ae3620001ef821b17901c565b505050565b6000828152602081815260408083206001600160a01b038516845290915290205460ff1662000108576000828152602081815260408083206001600160a01b03851684529091529020805460ff19166001179055620001ab3390565b6001600160a01b0316816001600160a01b0316837f2f8788117e7eff1d82e926ec794901d17c78024a50270940304540a733656f0d60405160405180910390a45050565b600062000206836001600160a01b0384166200020f565b90505b92915050565b6000818152600183016020526040812054620002585750815460018181018455600084815260208082209093018490558454848252828601909352604090209190915562000209565b50600062000209565b8280546200026f906200046f565b90600052602060002090601f016020900481019282620002935760008555620002de565b82601f10620002ae57805160ff1916838001178555620002de565b82800160010185558215620002de579182015b82811115620002de578251825591602001919060010190620002c1565b50620002ec929150620002fe565b5090565b6103b38062001d5b83390190565b5b80821115620002ec5760008155600101620002ff565b634e487b7160e01b600052604160045260246000fd5b600082601f8301126200033d57600080fd5b81516001600160401b03808211156200035a576200035a62000315565b604051601f8301601f19908116603f0116810190828211818310171562000385576200038562000315565b81604052838152602092508683858801011115620003a257600080fd5b600091505b83821015620003c65785820183015181830184015290820190620003a7565b83821115620003d85760008385830101525b9695505050505050565b600080600060608486031215620003f857600080fd5b83516001600160401b03808211156200041057600080fd5b6200041e878388016200032b565b945060208601519150808211156200043557600080fd5b5062000444868287016200032b565b604086015190935090506001600160a01b03811681146200046457600080fd5b809150509250925092565b600181811c908216806200048457607f821691505b60208210811415620004a657634e487b7160e01b600052602260045260246000fd5b50919050565b61189f80620004bc6000396000f3fe608060405234801561001057600080fd5b50600436106101c45760003560e01c806370a08231116100f9578063a217fddf11610097578063ca15c87311610071578063ca15c873146103bb578063d5391393146103ce578063d547741f146103f5578063dd62ed3e1461040857600080fd5b8063a217fddf1461038d578063a457c2d714610395578063a9059cbb146103a857600080fd5b806391d14854116100d357806391d148541461034c5780639311ca691461035f57806395d89b41146103725780639dc29fac1461037a57600080fd5b806370a08231146103085780638a02775b146103315780639010d07c1461033957600080fd5b8063248a9ca31161016657806333d57cdc1161014057806333d57cdc146102c757806336568abe146102cf57806339509351146102e25780636b3e22fc146102f557600080fd5b8063248a9ca3146102805780632f2ff15d146102a3578063313ce567146102b857600080fd5b80630d4d1513116101a25780630d4d15131461021957806316f0115b1461023a57806318160ddd1461026557806323b872dd1461026d57600080fd5b806301ffc9a7146101c957806306fdde03146101f1578063095ea7b314610206575b600080fd5b6101dc6101d73660046114d4565b610441565b60405190151581526020015b60405180910390f35b6101f961046c565b6040516101e8919061152a565b6101dc610214366004611579565b6104fe565b61022c6102273660046115a3565b610514565b6040519081526020016101e8565b60085461024d906001600160a01b031681565b6040516001600160a01b0390911681526020016101e8565b60045461022c565b6101dc61027b3660046115df565b6105bf565b61022c61028e36600461161b565b60009081526020819052604090206001015490565b6102b66102b1366004611634565b610669565b005b604051601281526020016101e8565b61022c610694565b6102b66102dd366004611634565b61070a565b6101dc6102f0366004611579565b610788565b61022c610303366004611579565b6107c4565b61022c610316366004611660565b6001600160a01b031660009081526002602052604090205490565b61022c61085d565b61024d61034736600461167b565b6108cb565b6101dc61035a366004611634565b6108ea565b60075461024d906001600160a01b031681565b6101f9610913565b6102b6610388366004611579565b610922565b61022c600081565b6101dc6103a3366004611579565b61097c565b6101dc6103b6366004611579565b610a15565b61022c6103c936600461161b565b610a22565b61022c7f9f2df0fed2c77648de5860a4cc508cd0818c85b8b8a1ab4ceeef8d981c8956a681565b6102b6610403366004611634565b610a39565b61022c61041636600461169d565b6001600160a01b03918216600090815260036020908152604080832093909416825291909152205490565b60006001600160e01b03198216635a05180f60e01b1480610466575061046682610af8565b92915050565b60606005805461047b906116c7565b80601f01602080910402602001604051908101604052809291908181526020018280546104a7906116c7565b80156104f45780601f106104c9576101008083540402835291602001916104f4565b820191906000526020600020905b8154815290600101906020018083116104d757829003601f168201915b5050505050905090565b600061050b338484610b2d565b50600192915050565b60006105407f9f2df0fed2c77648de5860a4cc508cd0818c85b8b8a1ab4ceeef8d981c8956a6336108ea565b6105915760405162461bcd60e51b815260206004820152601d60248201527f6d7573742068617665206d696e74657220726f6c6520746f206d696e7400000060448201526064015b60405180910390fd5b600061059d83856107c4565b905060006105aa82610c51565b90506105b68682610c97565b95945050505050565b60006105cc848484610d76565b6001600160a01b0384166000908152600360209081526040808320338452909152902054828110156106515760405162461bcd60e51b815260206004820152602860248201527f45524332303a207472616e7366657220616d6f756e74206578636565647320616044820152676c6c6f77616e636560c01b6064820152608401610588565b61065e8533858403610b2d565b506001949350505050565b6000828152602081905260409020600101546106858133610f46565b61068f8383610faa565b505050565b6000806106a060045490565b116106de5760405162461bcd60e51b815260206004820152600e60248201526d737570706c79206973207a65726f60901b6044820152606401610588565b6004546106e961085d565b6106fb90670de0b6b3a7640000611712565b6107059190611731565b905090565b6001600160a01b038116331461077a5760405162461bcd60e51b815260206004820152602f60248201527f416363657373436f6e74726f6c3a2063616e206f6e6c792072656e6f756e636560448201526e103937b632b9903337b91039b2b63360891b6064820152608401610588565b6107848282610fcc565b5050565b3360008181526003602090815260408083206001600160a01b0387168452909152812054909161050b9185906107bf908690611753565b610b2d565b6007546040516341976e0960e01b81526001600160a01b03848116600483015260009283929116906341976e0990602401602060405180830381865afa158015610812573d6000803e3d6000fd5b505050506040513d601f19601f82011682018060405250810190610836919061176b565b9050670de0b6b3a764000061084b8483611712565b6108559190611731565b949350505050565b600854604080516375f4d67760e01b815290516000926001600160a01b0316916375f4d6779160048083019260209291908290030181865afa1580156108a7573d6000803e3d6000fd5b505050506040513d601f19601f82011682018060405250810190610705919061176b565b60008281526001602052604081206108e39083610fee565b9392505050565b6000918252602082815260408084206001600160a01b0393909316845291905290205460ff1690565b60606006805461047b906116c7565b600081116109725760405162461bcd60e51b815260206004820181905260248201527f416d6f756e7420746f2072656465656d206e6565647320746f206265203e20306044820152606401610588565b6107848282610ffa565b3360009081526003602090815260408083206001600160a01b0386168452909152812054828110156109fe5760405162461bcd60e51b815260206004820152602560248201527f45524332303a2064656372656173656420616c6c6f77616e63652062656c6f77604482015264207a65726f60d81b6064820152608401610588565b610a0b3385858403610b2d565b5060019392505050565b600061050b338484610d76565b600081815260016020526040812061046690611148565b600082815260208190526040902060010154610a558133610f46565b61068f8383610fcc565b610a6982826108ea565b610784576000828152602081815260408083206001600160a01b03851684529091529020805460ff19166001179055610a9f3390565b6001600160a01b0316816001600160a01b0316837f2f8788117e7eff1d82e926ec794901d17c78024a50270940304540a733656f0d60405160405180910390a45050565b60006108e3836001600160a01b038416611152565b60006001600160e01b03198216637965db0b60e01b148061046657506301ffc9a760e01b6001600160e01b0319831614610466565b6001600160a01b038316610b8f5760405162461bcd60e51b8152602060048201526024808201527f45524332303a20617070726f76652066726f6d20746865207a65726f206164646044820152637265737360e01b6064820152608401610588565b6001600160a01b038216610bf05760405162461bcd60e51b815260206004820152602260248201527f45524332303a20617070726f766520746f20746865207a65726f206164647265604482015261737360f01b6064820152608401610588565b6001600160a01b0383811660008181526003602090815260408083209487168084529482529182902085905590518481527f8c5be1e5ebec7d5bd14f71427d1e84f3dd0314c0f7b2291e5b200ac8c7c3b925910160405180910390a3505050565b600080610c5c61085d565b9050610c6760045490565b610c72575090919050565b8083610c7d60045490565b610c879190611712565b6108e39190611731565b50919050565b6001600160a01b038216610ced5760405162461bcd60e51b815260206004820152601f60248201527f45524332303a206d696e7420746f20746865207a65726f2061646472657373006044820152606401610588565b8060046000828254610cff9190611753565b90915550506001600160a01b03821660009081526002602052604081208054839290610d2c908490611753565b90915550506040518181526001600160a01b038316906000907fddf252ad1be2c89b69c2b068fc378daa952ba7f163c4a11628f55a4df523b3ef9060200160405180910390a35050565b6001600160a01b038316610dda5760405162461bcd60e51b815260206004820152602560248201527f45524332303a207472616e736665722066726f6d20746865207a65726f206164604482015264647265737360d81b6064820152608401610588565b6001600160a01b038216610e3c5760405162461bcd60e51b815260206004820152602360248201527f45524332303a207472616e7366657220746f20746865207a65726f206164647260448201526265737360e81b6064820152608401610588565b6001600160a01b03831660009081526002602052604090205481811015610eb45760405162461bcd60e51b815260206004820152602660248201527f45524332303a207472616e7366657220616d6f756e7420657863656564732062604482015265616c616e636560d01b6064820152608401610588565b6001600160a01b03808516600090815260026020526040808220858503905591851681529081208054849290610eeb908490611753565b92505081905550826001600160a01b0316846001600160a01b03167fddf252ad1be2c89b69c2b068fc378daa952ba7f163c4a11628f55a4df523b3ef84604051610f3791815260200190565b60405180910390a35b50505050565b610f5082826108ea565b61078457610f68816001600160a01b031660146111a1565b610f738360206111a1565b604051602001610f84929190611784565b60408051601f198184030181529082905262461bcd60e51b82526105889160040161152a565b610fb48282610a5f565b600082815260016020526040902061068f9082610ae3565b610fd6828261133d565b600082815260016020526040902061068f90826113a2565b60006108e383836113b7565b6001600160a01b03821661105a5760405162461bcd60e51b815260206004820152602160248201527f45524332303a206275726e2066726f6d20746865207a65726f206164647265736044820152607360f81b6064820152608401610588565b6001600160a01b038216600090815260026020526040902054818110156110ce5760405162461bcd60e51b815260206004820152602260248201527f45524332303a206275726e20616d6f756e7420657863656564732062616c616e604482015261636560f01b6064820152608401610588565b6001600160a01b03831660009081526002602052604081208383039055600480548492906110fd9084906117f9565b90915550506040518281526000906001600160a01b038516907fddf252ad1be2c89b69c2b068fc378daa952ba7f163c4a11628f55a4df523b3ef9060200160405180910390a3505050565b6000610466825490565b600081815260018301602052604081205461119957508154600181810184556000848152602080822090930184905584548482528286019093526040902091909155610466565b506000610466565b606060006111b0836002611712565b6111bb906002611753565b67ffffffffffffffff8111156111d3576111d3611810565b6040519080825280601f01601f1916602001820160405280156111fd576020820181803683370190505b509050600360fc1b8160008151811061121857611218611826565b60200101906001600160f81b031916908160001a905350600f60fb1b8160018151811061124757611247611826565b60200101906001600160f81b031916908160001a905350600061126b846002611712565b611276906001611753565b90505b60018111156112ee576f181899199a1a9b1b9c1cb0b131b232b360811b85600f16601081106112aa576112aa611826565b1a60f81b8282815181106112c0576112c0611826565b60200101906001600160f81b031916908160001a90535060049490941c936112e78161183c565b9050611279565b5083156108e35760405162461bcd60e51b815260206004820181905260248201527f537472696e67733a20686578206c656e67746820696e73756666696369656e746044820152606401610588565b61134782826108ea565b15610784576000828152602081815260408083206001600160a01b0385168085529252808320805460ff1916905551339285917ff6391f5c32d9c69d2a47ea670b442974b53935d1edc7fd64eb21e047a839171b9190a45050565b60006108e3836001600160a01b0384166113e1565b60008260000182815481106113ce576113ce611826565b9060005260206000200154905092915050565b600081815260018301602052604081205480156114ca5760006114056001836117f9565b8554909150600090611419906001906117f9565b905081811461147e57600086600001828154811061143957611439611826565b906000526020600020015490508087600001848154811061145c5761145c611826565b6000918252602080832090910192909255918252600188019052604090208390555b855486908061148f5761148f611853565b600190038181906000526020600020016000905590558560010160008681526020019081526020016000206000905560019350505050610466565b6000915050610466565b6000602082840312156114e657600080fd5b81356001600160e01b0319811681146108e357600080fd5b60005b83811015611519578181015183820152602001611501565b83811115610f405750506000910152565b60208152600082518060208401526115498160408501602087016114fe565b601f01601f19169190910160400192915050565b80356001600160a01b038116811461157457600080fd5b919050565b6000806040838503121561158c57600080fd5b6115958361155d565b946020939093013593505050565b6000806000606084860312156115b857600080fd5b6115c18461155d565b9250602084013591506115d66040850161155d565b90509250925092565b6000806000606084860312156115f457600080fd5b6115fd8461155d565b925061160b6020850161155d565b9150604084013590509250925092565b60006020828403121561162d57600080fd5b5035919050565b6000806040838503121561164757600080fd5b823591506116576020840161155d565b90509250929050565b60006020828403121561167257600080fd5b6108e38261155d565b6000806040838503121561168e57600080fd5b50508035926020909101359150565b600080604083850312156116b057600080fd5b6116b98361155d565b91506116576020840161155d565b600181811c908216806116db57607f821691505b60208210811415610c9157634e487b7160e01b600052602260045260246000fd5b634e487b7160e01b600052601160045260246000fd5b600081600019048311821515161561172c5761172c6116fc565b500290565b60008261174e57634e487b7160e01b600052601260045260246000fd5b500490565b60008219821115611766576117666116fc565b500190565b60006020828403121561177d57600080fd5b5051919050565b7f416363657373436f6e74726f6c3a206163636f756e74200000000000000000008152600083516117bc8160178501602088016114fe565b7001034b99036b4b9b9b4b733903937b6329607d1b60179184019182015283516117ed8160288401602088016114fe565b01602801949350505050565b60008282101561180b5761180b6116fc565b500390565b634e487b7160e01b600052604160045260246000fd5b634e487b7160e01b600052603260045260246000fd5b60008161184b5761184b6116fc565b506000190190565b634e487b7160e01b600052603160045260246000fdfea2646970667358221220cd1361a25364929155d1b667e3d80b7f64a11e91e8a8837361cfaebf2a3a4a1964736f6c634300080b0033608060405234801561001057600080fd5b50600060208190527f4e2753d238f0f4cb8962490717ab551b4c023808c7bc37aed6e8760bfc3a92d580546001600160a01b031990811673d8bd0a1cb028a31aa859a21a3758685a95de4623179091557ff4e9730789baae4355b7b087afa1a57a24c222e690ce50ce909b525e8495925b80548216732ba49aaa16e6afd2a993473cfb70fa8559b523cf17905573c778417e063141139fce010982780140aa0cd5ab9091527f02e9d230142cd2a2518ca1eebf58e2b95f971add66b06973a2b3e55bb9e440f98054909116738a753747a1fa494ec906ce90e9f37563a8af630e1790556102b1806101026000396000f3fe608060405234801561001057600080fd5b50600436106100365760003560e01c806341976e091461003b5780634238dc4714610061575b600080fd5b61004e610049366004610141565b6100a2565b6040519081526020015b60405180910390f35b61008a61006f366004610141565b6000602081905290815260409020546001600160a01b031681565b6040516001600160a01b039091168152602001610058565b6001600160a01b03808216600090815260208190526040808220548151633fabe5a360e21b81529151929316918391839163feaf968c9160048082019260a0929091908290030181865afa1580156100fe573d6000803e3d6000fd5b505050506040513d601f19601f820116820180604052508101906101229190610190565b505050915050806402540be40061013991906101f6565b949350505050565b60006020828403121561015357600080fd5b81356001600160a01b038116811461016a57600080fd5b9392505050565b805169ffffffffffffffffffff8116811461018b57600080fd5b919050565b600080600080600060a086880312156101a857600080fd5b6101b186610171565b94506020860151935060408601519250606086015191506101d460808701610171565b90509295509295909350565b634e487b7160e01b600052601160045260246000fd5b60006001600160ff1b038184138284138082168684048611161561021c5761021c6101e0565b600160ff1b600087128281168783058912161561023b5761023b6101e0565b60008712925087820587128484161615610257576102576101e0565b8785058712818416161561026d5761026d6101e0565b50505092909302939250505056fea264697066735822122096845bc61a9da0796fff35ddde335ef618164120a98e6b6dbcb9e1022566754164736f6c634300080b003360806040523480156200001157600080fd5b5060405162001f7538038062001f7583398101604081905262000034916200036a565b600780546001600160a01b0319166001600160a01b0383161790556040516200005d906200035c565b604051809103906000f0801580156200007a573d6000803e3d6000fd5b50600280546001600160a01b03929092166001600160a01b03199283161790556004602052671158e460913d00007f12bc7a9befd42dc50515e64a09b588f85591f7c2f29aaae76fd28ee02f6cc59b556717098134772600007f4f71ea03a32efa61b07c37162397523765a18648b1eeaf303ac9be899f99d5e28190557ff1007cd9f0c617b521055afba720533e6dc12fd98fe400eba276c955293022e055600680546001818101835560008390527ff652222313e28459528d920b65115c16c04f3efc82aaedc97be59f3f377c0d3f91820180548516735592ec0cfb4dbc12d3ab100b257153436a1f0fea9081179091558354808301855583018054861673c778417e063141139fce010982780140aa0cd5ab9081179091558454928301909455910180549093167301be23585060835e02b77ef475b0cc51aa1e0709908117909355909190620001ed7fa49807205ce4d355092ef5a8a18f56e8913cf4a201fbe287825b095693c2177533620001f7565b505050506200039c565b62000203828262000207565b5050565b6200021e82826200024a60201b62000e701760201c565b60008281526001602090815260409091206200024591839062000ef4620002ea821b17901c565b505050565b6000828152602081815260408083206001600160a01b038516845290915290205460ff1662000203576000828152602081815260408083206001600160a01b03851684529091529020805460ff19166001179055620002a63390565b6001600160a01b0316816001600160a01b0316837f2f8788117e7eff1d82e926ec794901d17c78024a50270940304540a733656f0d60405160405180910390a45050565b600062000301836001600160a01b0384166200030a565b90505b92915050565b6000818152600183016020526040812054620003535750815460018181018455600084815260208082209093018490558454848252828601909352604090209190915562000304565b50600062000304565b6103b38062001bc283390190565b6000602082840312156200037d57600080fd5b81516001600160a01b03811681146200039557600080fd5b9392505050565b61181680620003ac6000396000f3fe608060405234801561001057600080fd5b50600436106101585760003560e01c806375b238fc116100c3578063a347e24c1161007c578063a347e24c14610333578063ca15c8731461035c578063d547741f1461036f578063f8b2cb4f14610382578063f970c3b714610395578063fac09e87146103a857600080fd5b806375b238fc146102ca5780638eabd4fe146102df5780639010d07c146102f257806391d14854146103055780639311ca6914610318578063a217fddf1461032b57600080fd5b80632f2ff15d116101155780632f2ff15d146102425780633414f8d81461025557806336568abe1461027e5780636858ea07146102915780637065cb48146102a45780637544aa44146102b757600080fd5b806301fcd2d51461015d57806301ffc9a71461018357806316f0115b146101a6578063248a9ca3146101d157806324ee5760146101f45780632b92a07d14610209575b600080fd5b61017061016b3660046113a4565b6103bb565b6040519081526020015b60405180910390f35b6101966101913660046113bf565b6104dc565b604051901515815260200161017a565b6007546101b9906001600160a01b031681565b6040516001600160a01b03909116815260200161017a565b6101706101df3660046113e9565b60009081526020819052604090206001015490565b610207610202366004611402565b610507565b005b61017061021736600461143e565b6001600160a01b03918216600090815260056020908152604080832093909416825291909152205490565b610207610250366004611471565b610687565b6101706102633660046113a4565b6001600160a01b031660009081526004602052604090205490565b61020761028c366004611471565b6106ad565b61020761029f366004611494565b61072b565b6102076102b23660046113a4565b61077b565b6101706102c53660046113a4565b6107ca565b6101706000805160206117c183398151915281565b6102076102ed3660046114cc565b61090b565b6101b961030036600461151b565b610b9f565b610196610313366004611471565b610bbe565b6002546101b9906001600160a01b031681565b610170600081565b6101706103413660046113a4565b6001600160a01b031660009081526003602052604090205490565b61017061036a3660046113e9565b610be7565b61020761037d366004611471565b610bfe565b6101706103903660046113a4565b610c24565b6102076103a3366004611402565b610c8f565b6102076103b63660046113a4565b610dd7565b6006546000908190815b818161ffff1610156104d357600060068261ffff16815481106103ea576103ea61153d565b6000918252602080832091909101546001600160a01b039081168084526004928390526040938490205460025494516341976e0960e01b81529384018290529094509216906341976e0990602401602060405180830381865afa158015610455573d6000803e3d6000fd5b505050506040513d601f19601f820116820180604052508101906104799190611553565b6001600160a01b038084166000908152600560209081526040808320938c16835292905220546104a99190611582565b6104b391906115a1565b6104bd90856115c3565b93505080806104cb906115db565b9150506103c5565b50909392505050565b60006001600160e01b03198216635a05180f60e01b1480610501575061050182610f09565b92915050565b61051f6000805160206117c183398151915233610bbe565b6105445760405162461bcd60e51b815260040161053b906115fd565b60405180910390fd5b60075460405163a9059cbb60e01b81526001600160a01b039182166004820152602481018390529083169063a9059cbb906044016020604051808303816000875af1158015610597573d6000803e3d6000fd5b505050506040513d601f19601f820116820180604052508101906105bb919061162b565b506007546040516000805160206117a1833981519152916105eb9130916001600160a01b03169086908690611648565b60405180910390a16001600160a01b0380831660009081526005602090815260408083209387168352929052908120805483929061062a908490611672565b90915550506001600160a01b03808316600090815260056020908152604080832093871683529290522054610682576001600160a01b0380831660009081526005602090815260408083209387168352929052908120555b505050565b6000828152602081905260409020600101546106a38133610f3e565b6106828383610fa2565b6001600160a01b038116331461071d5760405162461bcd60e51b815260206004820152602f60248201527f416363657373436f6e74726f6c3a2063616e206f6e6c792072656e6f756e636560448201526e103937b632b9903337b91039b2b63360891b606482015260840161053b565b6107278282610fc4565b5050565b6107436000805160206117c183398151915233610bbe565b61075f5760405162461bcd60e51b815260040161053b906115fd565b6001600160a01b03909116600090815260046020526040902055565b6107936000805160206117c183398151915233610bbe565b6107af5760405162461bcd60e51b815260040161053b906115fd565b6107c76000805160206117c183398151915282610fe6565b50565b6006546000908190815b818161ffff1610156104d35760025460068054670de0b6b3a7640000926001600160a01b0316916341976e099161ffff86169081106108155761081561153d565b60009182526020909120015460405160e083901b6001600160e01b03191681526001600160a01b039091166004820152602401602060405180830381865afa158015610865573d6000803e3d6000fd5b505050506040513d601f19601f820116820180604052508101906108899190611553565b6005600060068561ffff16815481106108a4576108a461153d565b60009182526020808320909101546001600160a01b0390811684528382019490945260409283018220938b168252929092529020546108e39190611582565b6108ed91906115a1565b6108f790846115c3565b925080610903816115db565b9150506107d4565b6109236000805160206117c183398151915233610bbe565b61093f5760405162461bcd60e51b815260040161053b906115fd565b60018115151415610a6a5760075460405163095ea7b360e01b81526001600160a01b039182166004820152602481018490529084169063095ea7b3906044016020604051808303816000875af115801561099d573d6000803e3d6000fd5b505050506040513d601f19601f820116820180604052508101906109c1919061162b565b50600754604051631740ecaf60e11b81523060048201526001600160a01b0385811660248301526044820185905290911690632e81d95e90606401600060405180830381600087803b158015610a1657600080fd5b505af1158015610a2a573d6000803e3d6000fd5b50506007546040516000805160206117a18339815191529350610a5d925030916001600160a01b03169087908790611648565b60405180910390a1610b0a565b60405163a9059cbb60e01b81526001600160a01b0385811660048301526024820184905284169063a9059cbb906044016020604051808303816000875af1158015610ab9573d6000803e3d6000fd5b505050506040513d601f19601f82011682018060405250810190610add919061162b565b506000805160206117a183398151915230858585604051610b019493929190611648565b60405180910390a15b6001600160a01b03808416600090815260056020908152604080832093881683529290529081208054849290610b41908490611672565b90915550506001600160a01b03808416600090815260056020908152604080832093881683529290522054610b99576001600160a01b0380841660009081526005602090815260408083209388168352929052908120555b50505050565b6000828152600160205260408120610bb79083610ff0565b9392505050565b6000918252602082815260408084206001600160a01b0393909316845291905290205460ff1690565b600081815260016020526040812061050190610ffc565b600082815260208190526040902060010154610c1a8133610f3e565b6106828383610fc4565b6040516370a0823160e01b81523060048201526000906001600160a01b038316906370a0823190602401602060405180830381865afa158015610c6b573d6000803e3d6000fd5b505050506040513d601f19601f820116820180604052508101906105019190611553565b610ca76000805160206117c183398151915233610bbe565b610cc35760405162461bcd60e51b815260040161053b906115fd565b6040516323b872dd60e01b81526001600160a01b038481166004830152306024830152604482018390528316906323b872dd906064016020604051808303816000875af1158015610d18573d6000803e3d6000fd5b505050506040513d601f19601f82011682018060405250810190610d3c919061162b565b506001600160a01b03821660009081526003602052604081208054839290610d659084906115c3565b90915550506001600160a01b03808316600090815260056020908152604080832093871683529290529081208054839290610da19084906115c3565b90915550506040516000805160206117a183398151915290610dca908590309086908690611648565b60405180910390a1505050565b610def6000805160206117c183398151915233610bbe565b610e0b5760405162461bcd60e51b815260040161053b906115fd565b60068054600181019091557ff652222313e28459528d920b65115c16c04f3efc82aaedc97be59f3f377c0d3f0180546001600160a01b039092166001600160a01b03199092168217905560009081526004602052604090206717098134772600009055565b610e7a8282610bbe565b610727576000828152602081815260408083206001600160a01b03851684529091529020805460ff19166001179055610eb03390565b6001600160a01b0316816001600160a01b0316837f2f8788117e7eff1d82e926ec794901d17c78024a50270940304540a733656f0d60405160405180910390a45050565b6000610bb7836001600160a01b038416611006565b60006001600160e01b03198216637965db0b60e01b148061050157506301ffc9a760e01b6001600160e01b0319831614610501565b610f488282610bbe565b61072757610f60816001600160a01b03166014611055565b610f6b836020611055565b604051602001610f7c9291906116b5565b60408051601f198184030181529082905262461bcd60e51b825261053b9160040161172a565b610fac8282610e70565b60008281526001602052604090206106829082610ef4565b610fce82826111f1565b60008281526001602052604090206106829082611256565b6107278282610fa2565b6000610bb7838361126b565b6000610501825490565b600081815260018301602052604081205461104d57508154600181810184556000848152602080822090930184905584548482528286019093526040902091909155610501565b506000610501565b60606000611064836002611582565b61106f9060026115c3565b67ffffffffffffffff8111156110875761108761175d565b6040519080825280601f01601f1916602001820160405280156110b1576020820181803683370190505b509050600360fc1b816000815181106110cc576110cc61153d565b60200101906001600160f81b031916908160001a905350600f60fb1b816001815181106110fb576110fb61153d565b60200101906001600160f81b031916908160001a905350600061111f846002611582565b61112a9060016115c3565b90505b60018111156111a2576f181899199a1a9b1b9c1cb0b131b232b360811b85600f166010811061115e5761115e61153d565b1a60f81b8282815181106111745761117461153d565b60200101906001600160f81b031916908160001a90535060049490941c9361119b81611773565b905061112d565b508315610bb75760405162461bcd60e51b815260206004820181905260248201527f537472696e67733a20686578206c656e67746820696e73756666696369656e74604482015260640161053b565b6111fb8282610bbe565b15610727576000828152602081815260408083206001600160a01b0385168085529252808320805460ff1916905551339285917ff6391f5c32d9c69d2a47ea670b442974b53935d1edc7fd64eb21e047a839171b9190a45050565b6000610bb7836001600160a01b038416611295565b60008260000182815481106112825761128261153d565b9060005260206000200154905092915050565b6000818152600183016020526040812054801561137e5760006112b9600183611672565b85549091506000906112cd90600190611672565b90508181146113325760008660000182815481106112ed576112ed61153d565b90600052602060002001549050808760000184815481106113105761131061153d565b6000918252602080832090910192909255918252600188019052604090208390555b85548690806113435761134361178a565b600190038181906000526020600020016000905590558560010160008681526020019081526020016000206000905560019350505050610501565b6000915050610501565b80356001600160a01b038116811461139f57600080fd5b919050565b6000602082840312156113b657600080fd5b610bb782611388565b6000602082840312156113d157600080fd5b81356001600160e01b031981168114610bb757600080fd5b6000602082840312156113fb57600080fd5b5035919050565b60008060006060848603121561141757600080fd5b61142084611388565b925061142e60208501611388565b9150604084013590509250925092565b6000806040838503121561145157600080fd5b61145a83611388565b915061146860208401611388565b90509250929050565b6000806040838503121561148457600080fd5b8235915061146860208401611388565b600080604083850312156114a757600080fd5b6114b083611388565b946020939093013593505050565b80151581146107c757600080fd5b600080600080608085870312156114e257600080fd5b6114eb85611388565b93506114f960208601611388565b9250604085013591506060850135611510816114be565b939692955090935050565b6000806040838503121561152e57600080fd5b50508035926020909101359150565b634e487b7160e01b600052603260045260246000fd5b60006020828403121561156557600080fd5b5051919050565b634e487b7160e01b600052601160045260246000fd5b600081600019048311821515161561159c5761159c61156c565b500290565b6000826115be57634e487b7160e01b600052601260045260246000fd5b500490565b600082198211156115d6576115d661156c565b500190565b600061ffff808316818114156115f3576115f361156c565b6001019392505050565b6020808252601490820152736d75737420686176652061646d696e20726f6c6560601b604082015260600190565b60006020828403121561163d57600080fd5b8151610bb7816114be565b6001600160a01b039485168152928416602084015292166040820152606081019190915260800190565b6000828210156116845761168461156c565b500390565b60005b838110156116a457818101518382015260200161168c565b83811115610b995750506000910152565b7f416363657373436f6e74726f6c3a206163636f756e74200000000000000000008152600083516116ed816017850160208801611689565b7001034b99036b4b9b9b4b733903937b6329607d1b601791840191820152835161171e816028840160208801611689565b01602801949350505050565b6020815260008251806020840152611749816040850160208701611689565b601f01601f19169190910160400192915050565b634e487b7160e01b600052604160045260246000fd5b6000816117825761178261156c565b506000190190565b634e487b7160e01b600052603160045260246000fdfe2b9fbe1f74bf284e62c93e9be9e1922974988a700ec26ada4c1899f842088df5a49807205ce4d355092ef5a8a18f56e8913cf4a201fbe287825b095693c21775a2646970667358221220f39ffbd9edbdabfed89968fb52428a88c6b990912c99541a66b4d36232ddedfe64736f6c634300080b0033608060405234801561001057600080fd5b50600060208190527f4e2753d238f0f4cb8962490717ab551b4c023808c7bc37aed6e8760bfc3a92d580546001600160a01b031990811673d8bd0a1cb028a31aa859a21a3758685a95de4623179091557ff4e9730789baae4355b7b087afa1a57a24c222e690ce50ce909b525e8495925b80548216732ba49aaa16e6afd2a993473cfb70fa8559b523cf17905573c778417e063141139fce010982780140aa0cd5ab9091527f02e9d230142cd2a2518ca1eebf58e2b95f971add66b06973a2b3e55bb9e440f98054909116738a753747a1fa494ec906ce90e9f37563a8af630e1790556102b1806101026000396000f3fe608060405234801561001057600080fd5b50600436106100365760003560e01c806341976e091461003b5780634238dc4714610061575b600080fd5b61004e610049366004610141565b6100a2565b6040519081526020015b60405180910390f35b61008a61006f366004610141565b6000602081905290815260409020546001600160a01b031681565b6040516001600160a01b039091168152602001610058565b6001600160a01b03808216600090815260208190526040808220548151633fabe5a360e21b81529151929316918391839163feaf968c9160048082019260a0929091908290030181865afa1580156100fe573d6000803e3d6000fd5b505050506040513d601f19601f820116820180604052508101906101229190610190565b505050915050806402540be40061013991906101f6565b949350505050565b60006020828403121561015357600080fd5b81356001600160a01b038116811461016a57600080fd5b9392505050565b805169ffffffffffffffffffff8116811461018b57600080fd5b919050565b600080600080600060a086880312156101a857600080fd5b6101b186610171565b94506020860151935060408601519250606086015191506101d460808701610171565b90509295509295909350565b634e487b7160e01b600052601160045260246000fd5b60006001600160ff1b038184138284138082168684048611161561021c5761021c6101e0565b600160ff1b600087128281168783058912161561023b5761023b6101e0565b60008712925087820587128484161615610257576102576101e0565b8785058712818416161561026d5761026d6101e0565b50505092909302939250505056fea264697066735822122096845bc61a9da0796fff35ddde335ef618164120a98e6b6dbcb9e1022566754164736f6c634300080b0033608060405234801561001057600080fd5b50600060208190527f4e2753d238f0f4cb8962490717ab551b4c023808c7bc37aed6e8760bfc3a92d580546001600160a01b031990811673d8bd0a1cb028a31aa859a21a3758685a95de4623179091557ff4e9730789baae4355b7b087afa1a57a24c222e690ce50ce909b525e8495925b80548216732ba49aaa16e6afd2a993473cfb70fa8559b523cf17905573c778417e063141139fce010982780140aa0cd5ab9091527f02e9d230142cd2a2518ca1eebf58e2b95f971add66b06973a2b3e55bb9e440f98054909116738a753747a1fa494ec906ce90e9f37563a8af630e1790556102b1806101026000396000f3fe608060405234801561001057600080fd5b50600436106100365760003560e01c806341976e091461003b5780634238dc4714610061575b600080fd5b61004e610049366004610141565b6100a2565b6040519081526020015b60405180910390f35b61008a61006f366004610141565b6000602081905290815260409020546001600160a01b031681565b6040516001600160a01b039091168152602001610058565b6001600160a01b03808216600090815260208190526040808220548151633fabe5a360e21b81529151929316918391839163feaf968c9160048082019260a0929091908290030181865afa1580156100fe573d6000803e3d6000fd5b505050506040513d601f19601f820116820180604052508101906101229190610190565b505050915050806402540be40061013991906101f6565b949350505050565b60006020828403121561015357600080fd5b81356001600160a01b038116811461016a57600080fd5b9392505050565b805169ffffffffffffffffffff8116811461018b57600080fd5b919050565b600080600080600060a086880312156101a857600080fd5b6101b186610171565b94506020860151935060408601519250606086015191506101d460808701610171565b90509295509295909350565b634e487b7160e01b600052601160045260246000fd5b60006001600160ff1b038184138284138082168684048611161561021c5761021c6101e0565b600160ff1b600087128281168783058912161561023b5761023b6101e0565b60008712925087820587128484161615610257576102576101e0565b8785058712818416161561026d5761026d6101e0565b50505092909302939250505056fea264697066735822122096845bc61a9da0796fff35ddde335ef618164120a98e6b6dbcb9e1022566754164736f6c634300080b0033","bytecodeSha1":"8fc8bb1bc07171667cc499fc0145639589522bdc","compiler":{"evm_version":"istanbul","optimizer":{"enabled":true,"runs":200},"version":"0.8.11+commit.d7f03943"},"contractName":"LendingPool","language":"Solidity","natspec":{"kind":"dev","methods":{"getRoleAdmin(bytes32)":{"details":"Returns the admin role that controls `role`. See {grantRole} and {revokeRole}. To change a role's admin, use {_setRoleAdmin}."},"getRoleMember(bytes32,uint256)":{"details":"Returns one of the accounts that have `role`. `index` must be a value between 0 and {getRoleMemberCount}, non-inclusive. Role bearers are not sorted in any particular way, and their ordering may change at any point. WARNING: When using {getRoleMember} and {getRoleMemberCount}, make sure you perform all queries on the same block. See the following https://forum.openzeppelin.com/t/iterating-over-elements-on-enumerableset-in-openzeppelin-contracts/2296[forum post] for more information."},"getRoleMemberCount(bytes32)":{"details":"Returns the number of accounts that have `role`. Can be used together with {getRoleMember} to enumerate all bearers of a role."},"grantRole(bytes32,address)":{"details":"Grants `role` to `account`. If `account` had not been already granted `role`, emits a {RoleGranted} event. Requirements: - the caller must have ``role``'s admin role."},"hasRole(bytes32,address)":{"details":"Returns `true` if `account` has been granted `role`."},"renounceRole(bytes32,address)":{"details":"Revokes `role` from the calling account. Roles are often managed via {grantRole} and {revokeRole}: this function's purpose is to provide a mechanism for accounts to lose their privileges if they are compromised (such as when a trusted device is misplaced). If the calling account had been revoked `role`, emits a {RoleRevoked} event. Requirements: - the caller must be `account`."},"revokeRole(bytes32,address)":{"details":"Revokes `role` from `account`. If `account` had been granted `role`, emits a {RoleRevoked} event. Requirements: - the caller must have ``role``'s admin role."},"supportsInterface(bytes4)":{"details":"See {IERC165-supportsInterface}."}},"version":1},"opcodes":"PUSH1 0x80 PUSH1 0x40 MSTORE CALLVALUE DUP1 ISZERO PUSH2 0x10 JUMPI PUSH1 0x0 DUP1 REVERT JUMPDEST POP PUSH1 0x4 CALLDATASIZE LT PUSH2 0x295 JUMPI PUSH1 0x0 CALLDATALOAD PUSH1 0xE0 SHR DUP1 PUSH4 0x884EDAD9 GT PUSH2 0x167 JUMPI DUP1 PUSH4 0xC0F2B1CF GT PUSH2 0xCE JUMPI DUP1 PUSH4 0xD49AB22C GT PUSH2 0x87 JUMPI DUP1 PUSH4 0xD49AB22C EQ PUSH2 0x5F7 JUMPI DUP1 PUSH4 0xD547741F EQ PUSH2 0x60A JUMPI DUP1 PUSH4 0xDE259242 EQ PUSH2 0x61D JUMPI DUP1 PUSH4 0xDE30F97D EQ PUSH2 0x62E JUMPI DUP1 PUSH4 0xF2DF757B EQ PUSH2 0x641 JUMPI DUP1 PUSH4 0xFAC8AFF8 EQ PUSH2 0x654 JUMPI PUSH1 0x0 DUP1 REVERT JUMPDEST DUP1 PUSH4 0xC0F2B1CF EQ PUSH2 0x566 JUMPI DUP1 PUSH4 0xC4E41B22 EQ PUSH2 0x5A3 JUMPI DUP1 PUSH4 0xCA15C873 EQ PUSH2 0x5AB JUMPI DUP1 PUSH4 0xCDA03C29 EQ PUSH2 0x5BE JUMPI DUP1 PUSH4 0xD28682EA EQ PUSH2 0x5D1 JUMPI DUP1 PUSH4 0xD3EA0F89 EQ PUSH2 0x5E4 JUMPI PUSH1 0x0 DUP1 REVERT JUMPDEST DUP1 PUSH4 0xA217FDDF GT PUSH2 0x120 JUMPI DUP1 PUSH4 0xA217FDDF EQ PUSH2 0x4FF JUMPI DUP1 PUSH4 0xA55E8668 EQ PUSH2 0x507 JUMPI DUP1 PUSH4 0xA747B93B EQ PUSH2 0x51A JUMPI DUP1 PUSH4 0xA78E4046 EQ PUSH2 0x52D JUMPI DUP1 PUSH4 0xB447999B EQ PUSH2 0x540 JUMPI DUP1 PUSH4 0xB9E037E6 EQ PUSH2 0x553 JUMPI PUSH1 0x0 DUP1 REVERT JUMPDEST DUP1 PUSH4 0x884EDAD9 EQ PUSH2 0x48D JUMPI DUP1 PUSH4 0x9010D07C EQ PUSH2 0x4A0 JUMPI DUP1 PUSH4 0x91D14854 EQ PUSH2 0x4B3 JUMPI DUP1 PUSH4 0x97904E42 EQ PUSH2 0x4C6 JUMPI DUP1 PUSH4 0x9B96EECE EQ PUSH2 0x4D9 JUMPI DUP1 PUSH4 0x9FEEA54F EQ PUSH2 0x4EC JUMPI PUSH1 0x0 DUP1 REVERT JUMPDEST DUP1 PUSH4 0x46C928FC GT PUSH2 0x20B JUMPI DUP1 PUSH4 0x63E36DAC GT PUSH2 0x1C4 JUMPI DUP1 PUSH4 0x63E36DAC EQ PUSH2 0x3F2 JUMPI DUP1 PUSH4 0x6858EA07 EQ PUSH2 0x403 JUMPI DUP1 PUSH4 0x6AAA434E EQ PUSH2 0x416 JUMPI DUP1 PUSH4 0x6DB18093 EQ PUSH2 0x45D JUMPI DUP1 PUSH4 0x75B238FC EQ PUSH2 0x465 JUMPI DUP1 PUSH4 0x8538D14E EQ PUSH2 0x47A JUMPI PUSH1 0x0 DUP1 REVERT JUMPDEST DUP1 PUSH4 0x46C928FC EQ PUSH2 0x36E JUMPI DUP1 PUSH4 0x4BCC1709 EQ PUSH2 0x381 JUMPI DUP1 PUSH4 0x511C5661 EQ PUSH2 0x394 JUMPI DUP1 PUSH4 0x582B2720 EQ PUSH2 0x3A7 JUMPI DUP1 PUSH4 0x5C16DE4F EQ PUSH2 0x3CC JUMPI DUP1 PUSH4 0x5C88F5A5 EQ PUSH2 0x3DF JUMPI PUSH1 0x0 DUP1 REVERT JUMPDEST DUP1 PUSH4 0x2273323F GT PUSH2 0x25D JUMPI DUP1 PUSH4 0x2273323F EQ PUSH2 0x313 JUMPI DUP1 PUSH4 0x243D8E05 EQ PUSH2 0x31B JUMPI DUP1 PUSH4 0x248A9CA3 EQ PUSH2 0x31D JUMPI DUP1 PUSH4 0x2D5562A0 EQ PUSH2 0x340 JUMPI DUP1 PUSH4 0x2F2FF15D EQ PUSH2 0x348 JUMPI DUP1 PUSH4 0x36568ABE EQ PUSH2 0x35B JUMPI PUSH1 0x0 DUP1 REVERT JUMPDEST DUP1 PUSH4 0x1FFC9A7 EQ PUSH2 0x29A JUMPI DUP1 PUSH4 0x57393C0 EQ PUSH2 0x2C2 JUMPI DUP1 PUSH4 0x15226B54 EQ PUSH2 0x2E3 JUMPI DUP1 PUSH4 0x1BA2F531 EQ PUSH2 0x2F6 JUMPI DUP1 PUSH4 0x1EF3A04C EQ PUSH2 0x2FE JUMPI JUMPDEST PUSH1 0x0 DUP1 REVERT JUMPDEST PUSH2 0x2AD PUSH2 0x2A8 CALLDATASIZE PUSH1 0x4 PUSH2 0x41DC JUMP JUMPDEST PUSH2 0x67D JUMP JUMPDEST PUSH1 0x40 MLOAD SWAP1 ISZERO ISZERO DUP2 MSTORE PUSH1 0x20 ADD JUMPDEST PUSH1 0x40 MLOAD DUP1 SWAP2 SUB SWAP1 RETURN JUMPDEST PUSH2 0x2D5 PUSH2 0x2D0 CALLDATASIZE PUSH1 0x4 PUSH2 0x4222 JUMP JUMPDEST PUSH2 0x6A8 JUMP JUMPDEST PUSH1 0x40 MLOAD SWAP1 DUP2 MSTORE PUSH1 0x20 ADD PUSH2 0x2B9 JUMP JUMPDEST PUSH2 0x2D5 PUSH2 0x2F1 CALLDATASIZE PUSH1 0x4 PUSH2 0x4222 JUMP JUMPDEST PUSH2 0x718 JUMP JUMPDEST PUSH2 0x2D5 PUSH2 0x750 JUMP JUMPDEST PUSH2 0x306 PUSH2 0x7CE JUMP JUMPDEST PUSH1 0x40 MLOAD PUSH2 0x2B9 SWAP2 SWAP1 PUSH2 0x4269 JUMP JUMPDEST PUSH2 0x31B PUSH2 0xE68 JUMP JUMPDEST STOP JUMPDEST PUSH2 0x2D5 PUSH2 0x32B CALLDATASIZE PUSH1 0x4 PUSH2 0x429C JUMP JUMPDEST PUSH1 0x0 SWAP1 DUP2 MSTORE PUSH1 0x20 DUP2 SWAP1 MSTORE PUSH1 0x40 SWAP1 KECCAK256 PUSH1 0x1 ADD SLOAD SWAP1 JUMP JUMPDEST PUSH2 0x2D5 PUSH2 0x1335 JUMP JUMPDEST PUSH2 0x31B PUSH2 0x356 CALLDATASIZE PUSH1 0x4 PUSH2 0x42B5 JUMP JUMPDEST PUSH2 0x1382 JUMP JUMPDEST PUSH2 0x31B PUSH2 0x369 CALLDATASIZE PUSH1 0x4 PUSH2 0x42B5 JUMP JUMPDEST PUSH2 0x13AD JUMP JUMPDEST PUSH2 0x31B PUSH2 0x37C CALLDATASIZE PUSH1 0x4 PUSH2 0x42E1 JUMP JUMPDEST PUSH2 0x1427 JUMP JUMPDEST PUSH2 0x31B PUSH2 0x38F CALLDATASIZE PUSH1 0x4 PUSH2 0x42B5 JUMP JUMPDEST PUSH2 0x1AD1 JUMP JUMPDEST PUSH2 0x2D5 PUSH2 0x3A2 CALLDATASIZE PUSH1 0x4 PUSH2 0x4222 JUMP JUMPDEST PUSH2 0x1D87 JUMP JUMPDEST PUSH1 0x6 SLOAD PUSH1 0x1 PUSH1 0x1 PUSH1 0xA0 SHL SUB AND JUMPDEST PUSH1 0x40 MLOAD PUSH1 0x1 PUSH1 0x1 PUSH1 0xA0 SHL SUB SWAP1 SWAP2 AND DUP2 MSTORE PUSH1 0x20 ADD PUSH2 0x2B9 JUMP JUMPDEST PUSH2 0x31B PUSH2 0x3DA CALLDATASIZE PUSH1 0x4 PUSH2 0x4327 JUMP JUMPDEST PUSH2 0x1DBF JUMP JUMPDEST PUSH2 0x2D5 PUSH2 0x3ED CALLDATASIZE PUSH1 0x4 PUSH2 0x4222 JUMP JUMPDEST PUSH2 0x2116 JUMP JUMPDEST PUSH1 0x5 SLOAD PUSH1 0x1 PUSH1 0x1 PUSH1 0xA0 SHL SUB AND PUSH2 0x3B4 JUMP JUMPDEST PUSH2 0x31B PUSH2 0x411 CALLDATASIZE PUSH1 0x4 PUSH2 0x4327 JUMP JUMPDEST PUSH2 0x214E JUMP JUMPDEST PUSH2 0x448 PUSH2 0x424 CALLDATASIZE PUSH1 0x4 PUSH2 0x4351 JUMP JUMPDEST PUSH1 0xB PUSH1 0x20 SWAP1 DUP2 MSTORE PUSH1 0x0 SWAP3 DUP4 MSTORE PUSH1 0x40 DUP1 DUP5 KECCAK256 SWAP1 SWAP2 MSTORE SWAP1 DUP3 MSTORE SWAP1 KECCAK256 DUP1 SLOAD PUSH1 0x1 SWAP1 SWAP2 ADD SLOAD DUP3 JUMP JUMPDEST PUSH1 0x40 DUP1 MLOAD SWAP3 DUP4 MSTORE PUSH1 0x20 DUP4 ADD SWAP2 SWAP1 SWAP2 MSTORE ADD PUSH2 0x2B9 JUMP JUMPDEST PUSH2 0x2D5 PUSH2 0x21EC JUMP JUMPDEST PUSH2 0x2D5 PUSH1 0x0 DUP1 MLOAD PUSH1 0x20 PUSH2 0x462F DUP4 CODECOPY DUP2 MLOAD SWAP2 MSTORE DUP2 JUMP JUMPDEST PUSH2 0x2D5 PUSH2 0x488 CALLDATASIZE PUSH1 0x4 PUSH2 0x4222 JUMP JUMPDEST PUSH2 0x2236 JUMP JUMPDEST PUSH2 0x31B PUSH2 0x49B CALLDATASIZE PUSH1 0x4 PUSH2 0x4327 JUMP JUMPDEST PUSH2 0x226E JUMP JUMPDEST PUSH2 0x3B4 PUSH2 0x4AE CALLDATASIZE PUSH1 0x4 PUSH2 0x437B JUMP JUMPDEST PUSH2 0x2D20 JUMP JUMPDEST PUSH2 0x2AD PUSH2 0x4C1 CALLDATASIZE PUSH1 0x4 PUSH2 0x42B5 JUMP JUMPDEST PUSH2 0x2D3F JUMP JUMPDEST PUSH2 0x2D5 PUSH2 0x4D4 CALLDATASIZE PUSH1 0x4 PUSH2 0x4222 JUMP JUMPDEST PUSH2 0x2D68 JUMP JUMPDEST PUSH2 0x2D5 PUSH2 0x4E7 CALLDATASIZE PUSH1 0x4 PUSH2 0x4222 JUMP JUMPDEST PUSH2 0x2D9B JUMP JUMPDEST PUSH2 0x31B PUSH2 0x4FA CALLDATASIZE PUSH1 0x4 PUSH2 0x4222 JUMP JUMPDEST PUSH2 0x2DCE JUMP JUMPDEST PUSH2 0x2D5 PUSH1 0x0 DUP2 JUMP JUMPDEST PUSH2 0x2D5 PUSH2 0x515 CALLDATASIZE PUSH1 0x4 PUSH2 0x4351 JUMP JUMPDEST PUSH2 0x2F09 JUMP JUMPDEST PUSH2 0x2D5 PUSH2 0x528 CALLDATASIZE PUSH1 0x4 PUSH2 0x4222 JUMP JUMPDEST PUSH2 0x2F80 JUMP JUMPDEST PUSH2 0x2D5 PUSH2 0x53B CALLDATASIZE PUSH1 0x4 PUSH2 0x4351 JUMP JUMPDEST PUSH2 0x2FB8 JUMP JUMPDEST PUSH2 0x2D5 PUSH2 0x54E CALLDATASIZE PUSH1 0x4 PUSH2 0x4327 JUMP JUMPDEST PUSH2 0x2FF0 JUMP JUMPDEST PUSH2 0x31B PUSH2 0x561 CALLDATASIZE PUSH1 0x4 PUSH2 0x439D JUMP JUMPDEST PUSH2 0x30F8 JUMP JUMPDEST PUSH2 0x2D5 PUSH2 0x574 CALLDATASIZE PUSH1 0x4 PUSH2 0x4351 JUMP JUMPDEST PUSH1 0x1 PUSH1 0x1 PUSH1 0xA0 SHL SUB DUP1 DUP3 AND PUSH1 0x0 SWAP1 DUP2 MSTORE PUSH1 0xB PUSH1 0x20 SWAP1 DUP2 MSTORE PUSH1 0x40 DUP1 DUP4 KECCAK256 SWAP4 DUP7 AND DUP4 MSTORE SWAP3 SWAP1 MSTORE KECCAK256 PUSH1 0x1 ADD SLOAD SWAP3 SWAP2 POP POP JUMP JUMPDEST PUSH2 0x2D5 PUSH2 0x3666 JUMP JUMPDEST PUSH2 0x2D5 PUSH2 0x5B9 CALLDATASIZE PUSH1 0x4 PUSH2 0x429C JUMP JUMPDEST PUSH2 0x36B0 JUMP JUMPDEST PUSH2 0x2D5 PUSH2 0x5CC CALLDATASIZE PUSH1 0x4 PUSH2 0x4222 JUMP JUMPDEST PUSH2 0x36C7 JUMP JUMPDEST PUSH2 0x2D5 PUSH2 0x5DF CALLDATASIZE PUSH1 0x4 PUSH2 0x4222 JUMP JUMPDEST PUSH2 0x36FA JUMP JUMPDEST PUSH2 0x2D5 PUSH2 0x5F2 CALLDATASIZE PUSH1 0x4 PUSH2 0x4222 JUMP JUMPDEST PUSH2 0x3732 JUMP JUMPDEST PUSH2 0x2D5 PUSH2 0x605 CALLDATASIZE PUSH1 0x4 PUSH2 0x4222 JUMP JUMPDEST PUSH2 0x377B JUMP JUMPDEST PUSH2 0x31B PUSH2 0x618 CALLDATASIZE PUSH1 0x4 PUSH2 0x42B5 JUMP JUMPDEST PUSH2 0x37AE JUMP JUMPDEST PUSH1 0x4 SLOAD PUSH1 0x1 PUSH1 0x1 PUSH1 0xA0 SHL SUB AND PUSH2 0x3B4 JUMP JUMPDEST PUSH2 0x2D5 PUSH2 0x63C CALLDATASIZE PUSH1 0x4 PUSH2 0x4222 JUMP JUMPDEST PUSH2 0x37D4 JUMP JUMPDEST PUSH2 0x2D5 PUSH2 0x64F CALLDATASIZE PUSH1 0x4 PUSH2 0x4222 JUMP JUMPDEST PUSH2 0x380C JUMP JUMPDEST PUSH2 0x2D5 PUSH2 0x662 CALLDATASIZE PUSH1 0x4 PUSH2 0x4222 JUMP JUMPDEST PUSH1 0x1 PUSH1 0x1 PUSH1 0xA0 SHL SUB AND PUSH1 0x0 SWAP1 DUP2 MSTORE PUSH1 0x8 PUSH1 0x20 MSTORE PUSH1 0x40 SWAP1 KECCAK256 SLOAD SWAP1 JUMP JUMPDEST PUSH1 0x0 PUSH1 0x1 PUSH1 0x1 PUSH1 0xE0 SHL SUB NOT DUP3 AND PUSH4 0x5A05180F PUSH1 0xE0 SHL EQ DUP1 PUSH2 0x6A2 JUMPI POP PUSH2 0x6A2 DUP3 PUSH2 0x39D2 JUMP JUMPDEST SWAP3 SWAP2 POP POP JUMP JUMPDEST PUSH1 0x5 SLOAD PUSH1 0x40 MLOAD PUSH4 0xF8B2CB4F PUSH1 0xE0 SHL DUP2 MSTORE PUSH1 0x1 PUSH1 0x1 PUSH1 0xA0 SHL SUB DUP4 DUP2 AND PUSH1 0x4 DUP4 ADD MSTORE PUSH1 0x0 SWAP3 AND SWAP1 PUSH4 0xF8B2CB4F SWAP1 PUSH1 0x24 ADD JUMPDEST PUSH1 0x20 PUSH1 0x40 MLOAD DUP1 DUP4 SUB DUP2 DUP7 GAS STATICCALL ISZERO DUP1 ISZERO PUSH2 0x6F4 JUMPI RETURNDATASIZE PUSH1 0x0 DUP1 RETURNDATACOPY RETURNDATASIZE PUSH1 0x0 REVERT JUMPDEST POP POP POP POP PUSH1 0x40 MLOAD RETURNDATASIZE PUSH1 0x1F NOT PUSH1 0x1F DUP3 ADD AND DUP3 ADD DUP1 PUSH1 0x40 MSTORE POP DUP2 ADD SWAP1 PUSH2 0x6A2 SWAP2 SWAP1 PUSH2 0x43E2 JUMP JUMPDEST PUSH1 0x4 DUP1 SLOAD PUSH1 0x40 MLOAD PUSH4 0x30E311A1 PUSH1 0xE0 SHL DUP2 MSTORE PUSH1 0x1 PUSH1 0x1 PUSH1 0xA0 SHL SUB DUP5 DUP2 AND SWAP4 DUP3 ADD SWAP4 SWAP1 SWAP4 MSTORE PUSH1 0x0 SWAP3 SWAP1 SWAP2 AND SWAP1 PUSH4 0x30E311A1 SWAP1 PUSH1 0x24 ADD PUSH2 0x6D7 JUMP JUMPDEST PUSH1 0x0 PUSH1 0x4 PUSH1 0x0 SWAP1 SLOAD SWAP1 PUSH2 0x100 EXP SWAP1 DIV PUSH1 0x1 PUSH1 0x1 PUSH1 0xA0 SHL SUB AND PUSH1 0x1 PUSH1 0x1 PUSH1 0xA0 SHL SUB AND PUSH4 0x75F4D677 PUSH1 0x40 MLOAD DUP2 PUSH4 0xFFFFFFFF AND PUSH1 0xE0 SHL DUP2 MSTORE PUSH1 0x4 ADD PUSH1 0x20 PUSH1 0x40 MLOAD DUP1 DUP4 SUB DUP2 DUP7 GAS STATICCALL ISZERO DUP1 ISZERO PUSH2 0x7A5 JUMPI RETURNDATASIZE PUSH1 0x0 DUP1 RETURNDATACOPY RETURNDATASIZE PUSH1 0x0 REVERT JUMPDEST POP POP POP POP PUSH1 0x40 MLOAD RETURNDATASIZE PUSH1 0x1F NOT PUSH1 0x1F DUP3 ADD AND DUP3 ADD DUP1 PUSH1 0x40 MSTORE POP DUP2 ADD SWAP1 PUSH2 0x7C9 SWAP2 SWAP1 PUSH2 0x43E2 JUMP JUMPDEST SWAP1 POP SWAP1 JUMP JUMPDEST PUSH1 0x60 PUSH2 0x7E8 PUSH1 0x0 DUP1 MLOAD PUSH1 0x20 PUSH2 0x462F DUP4 CODECOPY DUP2 MLOAD SWAP2 MSTORE CALLER PUSH2 0x2D3F JUMP JUMPDEST PUSH2 0x80D JUMPI PUSH1 0x40 MLOAD PUSH3 0x461BCD PUSH1 0xE5 SHL DUP2 MSTORE PUSH1 0x4 ADD PUSH2 0x804 SWAP1 PUSH2 0x43FB JUMP JUMPDEST PUSH1 0x40 MLOAD DUP1 SWAP2 SUB SWAP1 REVERT JUMPDEST PUSH1 0xF SLOAD PUSH1 0x9 SLOAD PUSH1 0x0 JUMPDEST DUP3 DUP2 PUSH2 0xFFFF AND LT ISZERO PUSH2 0xE62 JUMPI PUSH1 0x0 PUSH1 0xF DUP3 PUSH2 0xFFFF AND DUP2 SLOAD DUP2 LT PUSH2 0x83B JUMPI PUSH2 0x83B PUSH2 0x4429 JUMP JUMPDEST PUSH1 0x0 SWAP2 DUP3 MSTORE PUSH1 0x20 DUP3 KECCAK256 ADD SLOAD PUSH1 0x5 SLOAD PUSH1 0x40 MLOAD PUSH4 0x1FCD2D5 PUSH1 0xE0 SHL DUP2 MSTORE PUSH1 0x1 PUSH1 0x1 PUSH1 0xA0 SHL SUB SWAP3 DUP4 AND PUSH1 0x4 DUP3 ADD DUP2 SWAP1 MSTORE SWAP5 POP SWAP2 AND SWAP1 PUSH4 0x1FCD2D5 SWAP1 PUSH1 0x24 ADD PUSH1 0x20 PUSH1 0x40 MLOAD DUP1 DUP4 SUB DUP2 DUP7 GAS STATICCALL ISZERO DUP1 ISZERO PUSH2 0x893 JUMPI RETURNDATASIZE PUSH1 0x0 DUP1 RETURNDATACOPY RETURNDATASIZE PUSH1 0x0 REVERT JUMPDEST POP POP POP POP PUSH1 0x40 MLOAD RETURNDATASIZE PUSH1 0x1F NOT PUSH1 0x1F DUP3 ADD AND DUP3 ADD DUP1 PUSH1 0x40 MSTORE POP DUP2 ADD SWAP1 PUSH2 0x8B7 SWAP2 SWAP1 PUSH2 0x43E2 JUMP JUMPDEST SWAP1 POP PUSH1 0x0 PUSH2 0x8C4 DUP4 PUSH2 0x380C JUMP JUMPDEST SWAP1 POP DUP1 DUP3 LT ISZERO PUSH2 0xE0A JUMPI PUSH1 0x0 JUMPDEST DUP6 DUP2 PUSH2 0xFFFF AND LT ISZERO PUSH2 0xDC8 JUMPI PUSH1 0x0 PUSH1 0x9 DUP3 PUSH2 0xFFFF AND DUP2 SLOAD DUP2 LT PUSH2 0x8F6 JUMPI PUSH2 0x8F6 PUSH2 0x4429 JUMP JUMPDEST PUSH1 0x0 SWAP2 DUP3 MSTORE PUSH1 0x20 DUP3 KECCAK256 ADD SLOAD PUSH1 0x5 SLOAD PUSH1 0x40 MLOAD PUSH4 0x6829F1B PUSH1 0xE3 SHL DUP2 MSTORE PUSH1 0x1 PUSH1 0x1 PUSH1 0xA0 SHL SUB SWAP3 DUP4 AND PUSH1 0x4 DUP3 ADD DUP2 SWAP1 MSTORE SWAP5 POP SWAP2 AND SWAP1 PUSH4 0x3414F8D8 SWAP1 PUSH1 0x24 ADD PUSH1 0x20 PUSH1 0x40 MLOAD DUP1 DUP4 SUB DUP2 DUP7 GAS STATICCALL ISZERO DUP1 ISZERO PUSH2 0x94E JUMPI RETURNDATASIZE PUSH1 0x0 DUP1 RETURNDATACOPY RETURNDATASIZE PUSH1 0x0 REVERT JUMPDEST POP POP POP POP PUSH1 0x40 MLOAD RETURNDATASIZE PUSH1 0x1F NOT PUSH1 0x1F DUP3 ADD AND DUP3 ADD DUP1 PUSH1 0x40 MSTORE POP DUP2 ADD SWAP1 PUSH2 0x972 SWAP2 SWAP1 PUSH2 0x43E2 JUMP JUMPDEST SWAP1 POP PUSH1 0x0 PUSH2 0x981 DUP6 DUP4 DUP9 PUSH2 0x3A07 JUMP JUMPDEST SWAP1 POP PUSH1 0x0 PUSH2 0x990 DUP7 DUP5 DUP10 PUSH2 0x3A93 JUMP JUMPDEST PUSH1 0x1 PUSH1 0x1 PUSH1 0xA0 SHL SUB DUP1 DUP7 AND PUSH1 0x0 SWAP1 DUP2 MSTORE PUSH1 0xB PUSH1 0x20 SWAP1 DUP2 MSTORE PUSH1 0x40 DUP1 DUP4 KECCAK256 SWAP4 DUP14 AND DUP4 MSTORE SWAP3 SWAP1 MSTORE KECCAK256 SLOAD SWAP1 SWAP2 POP ISZERO ISZERO DUP1 PUSH2 0x9ED JUMPI POP PUSH1 0x1 PUSH1 0x1 PUSH1 0xA0 SHL SUB DUP1 DUP6 AND PUSH1 0x0 SWAP1 DUP2 MSTORE PUSH1 0xB PUSH1 0x20 SWAP1 DUP2 MSTORE PUSH1 0x40 DUP1 DUP4 KECCAK256 SWAP4 DUP13 AND DUP4 MSTORE SWAP3 SWAP1 MSTORE KECCAK256 PUSH1 0x1 ADD SLOAD ISZERO ISZERO JUMPDEST ISZERO PUSH2 0xB69 JUMPI PUSH1 0x1 PUSH1 0x1 PUSH1 0xA0 SHL SUB DUP5 DUP2 AND PUSH1 0x0 SWAP1 DUP2 MSTORE PUSH1 0xB PUSH1 0x20 SWAP1 DUP2 MSTORE PUSH1 0x40 DUP1 DUP4 KECCAK256 SWAP4 DUP13 AND DUP4 MSTORE SWAP3 SWAP1 MSTORE SWAP1 DUP2 KECCAK256 DUP1 SLOAD PUSH1 0x1 SWAP1 SWAP2 ADD SLOAD PUSH2 0xA2B SWAP2 SWAP1 PUSH2 0x4455 JUMP JUMPDEST PUSH2 0xA3D DUP5 PUSH8 0xDE0B6B3A7640000 PUSH2 0x446D JUMP JUMPDEST PUSH2 0xA47 SWAP2 SWAP1 PUSH2 0x4484 JUMP JUMPDEST PUSH1 0x1 PUSH1 0x1 PUSH1 0xA0 SHL SUB DUP1 DUP8 AND PUSH1 0x0 SWAP1 DUP2 MSTORE PUSH1 0xB PUSH1 0x20 SWAP1 DUP2 MSTORE PUSH1 0x40 DUP1 DUP4 KECCAK256 SWAP4 DUP15 AND DUP4 MSTORE SWAP3 SWAP1 MSTORE KECCAK256 PUSH1 0x1 ADD SLOAD SWAP1 SWAP2 POP PUSH8 0xDE0B6B3A7640000 SWAP1 PUSH2 0xA88 SWAP1 DUP6 SWAP1 PUSH2 0x4484 JUMP JUMPDEST PUSH2 0xA92 SWAP2 SWAP1 PUSH2 0x44A3 JUMP JUMPDEST PUSH1 0x1 PUSH1 0x1 PUSH1 0xA0 SHL SUB DUP7 DUP2 AND PUSH1 0x0 SWAP1 DUP2 MSTORE PUSH1 0xB PUSH1 0x20 SWAP1 DUP2 MSTORE PUSH1 0x40 DUP1 DUP4 KECCAK256 SWAP4 DUP15 AND DUP4 MSTORE SWAP3 SWAP1 MSTORE KECCAK256 PUSH1 0x1 DUP2 ADD SWAP2 SWAP1 SWAP2 SSTORE SLOAD PUSH8 0xDE0B6B3A7640000 SWAP1 PUSH2 0xAD5 SWAP1 DUP6 SWAP1 PUSH2 0x4484 JUMP JUMPDEST PUSH2 0xADF SWAP2 SWAP1 PUSH2 0x44A3 JUMP JUMPDEST PUSH1 0x1 PUSH1 0x1 PUSH1 0xA0 SHL SUB DUP7 DUP2 AND PUSH1 0x0 DUP2 DUP2 MSTORE PUSH1 0xB PUSH1 0x20 SWAP1 DUP2 MSTORE PUSH1 0x40 DUP1 DUP4 KECCAK256 DUP16 DUP7 AND DUP5 MSTORE SWAP1 SWAP2 MSTORE SWAP1 DUP2 SWAP1 KECCAK256 SWAP4 SWAP1 SWAP4 SSTORE PUSH1 0x4 DUP1 SLOAD SWAP4 MLOAD PUSH4 0x5EA58017 PUSH1 0xE1 SHL DUP2 MSTORE SWAP1 DUP2 ADD SWAP2 SWAP1 SWAP2 MSTORE PUSH1 0x24 DUP2 ADD DUP5 SWAP1 MSTORE SWAP2 AND SWAP1 PUSH4 0xBD4B002E SWAP1 PUSH1 0x44 ADD PUSH1 0x0 PUSH1 0x40 MLOAD DUP1 DUP4 SUB DUP2 PUSH1 0x0 DUP8 DUP1 EXTCODESIZE ISZERO DUP1 ISZERO PUSH2 0xB4F JUMPI PUSH1 0x0 DUP1 REVERT JUMPDEST POP GAS CALL ISZERO DUP1 ISZERO PUSH2 0xB63 JUMPI RETURNDATASIZE PUSH1 0x0 DUP1 RETURNDATACOPY RETURNDATASIZE PUSH1 0x0 REVERT JUMPDEST POP POP POP POP POP JUMPDEST PUSH1 0x5 SLOAD PUSH1 0x40 MLOAD PUSH4 0x2B92A07D PUSH1 0xE0 SHL DUP2 MSTORE PUSH1 0x1 PUSH1 0x1 PUSH1 0xA0 SHL SUB DUP11 DUP2 AND PUSH1 0x4 DUP4 ADD MSTORE DUP7 DUP2 AND PUSH1 0x24 DUP4 ADD MSTORE PUSH1 0x0 SWAP3 AND SWAP1 PUSH4 0x2B92A07D SWAP1 PUSH1 0x44 ADD PUSH1 0x20 PUSH1 0x40 MLOAD DUP1 DUP4 SUB DUP2 DUP7 GAS STATICCALL ISZERO DUP1 ISZERO PUSH2 0xBBC JUMPI RETURNDATASIZE PUSH1 0x0 DUP1 RETURNDATACOPY RETURNDATASIZE PUSH1 0x0 REVERT JUMPDEST POP POP POP POP PUSH1 0x40 MLOAD RETURNDATASIZE PUSH1 0x1F NOT PUSH1 0x1F DUP3 ADD AND DUP3 ADD DUP1 PUSH1 0x40 MSTORE POP DUP2 ADD SWAP1 PUSH2 0xBE0 SWAP2 SWAP1 PUSH2 0x43E2 JUMP JUMPDEST GT ISZERO PUSH2 0xD50 JUMPI PUSH1 0x5 SLOAD PUSH1 0x40 MLOAD PUSH4 0x2B92A07D PUSH1 0xE0 SHL DUP2 MSTORE PUSH1 0x1 PUSH1 0x1 PUSH1 0xA0 SHL SUB DUP11 DUP2 AND PUSH1 0x4 DUP4 ADD MSTORE DUP7 DUP2 AND PUSH1 0x24 DUP4 ADD MSTORE PUSH1 0x0 SWAP3 PUSH8 0xDE0B6B3A7640000 SWAP3 DUP6 SWAP3 SWAP1 SWAP2 AND SWAP1 PUSH4 0x2B92A07D SWAP1 PUSH1 0x44 ADD PUSH1 0x20 PUSH1 0x40 MLOAD DUP1 DUP4 SUB DUP2 DUP7 GAS STATICCALL ISZERO DUP1 ISZERO PUSH2 0xC47 JUMPI RETURNDATASIZE PUSH1 0x0 DUP1 RETURNDATACOPY RETURNDATASIZE PUSH1 0x0 REVERT JUMPDEST POP POP POP POP PUSH1 0x40 MLOAD RETURNDATASIZE PUSH1 0x1F NOT PUSH1 0x1F DUP3 ADD AND DUP3 ADD DUP1 PUSH1 0x40 MSTORE POP DUP2 ADD SWAP1 PUSH2 0xC6B SWAP2 SWAP1 PUSH2 0x43E2 JUMP JUMPDEST PUSH2 0xC75 SWAP2 SWAP1 PUSH2 0x4484 JUMP JUMPDEST PUSH2 0xC7F SWAP2 SWAP1 PUSH2 0x44A3 JUMP JUMPDEST PUSH1 0x5 SLOAD PUSH1 0x40 MLOAD PUSH4 0x12772BB PUSH1 0xE5 SHL DUP2 MSTORE SWAP2 SWAP3 POP PUSH1 0x1 PUSH1 0x1 PUSH1 0xA0 SHL SUB AND SWAP1 PUSH4 0x24EE5760 SWAP1 PUSH2 0xCB4 SWAP1 DUP13 SWAP1 DUP10 SWAP1 DUP7 SWAP1 PUSH1 0x4 ADD PUSH2 0x44C5 JUMP JUMPDEST PUSH1 0x0 PUSH1 0x40 MLOAD DUP1 DUP4 SUB DUP2 PUSH1 0x0 DUP8 DUP1 EXTCODESIZE ISZERO DUP1 ISZERO PUSH2 0xCCE JUMPI PUSH1 0x0 DUP1 REVERT JUMPDEST POP GAS CALL ISZERO DUP1 ISZERO PUSH2 0xCE2 JUMPI RETURNDATASIZE PUSH1 0x0 DUP1 RETURNDATACOPY RETURNDATASIZE PUSH1 0x0 REVERT JUMPDEST POP POP PUSH1 0x4 DUP1 SLOAD PUSH1 0x40 MLOAD PUSH4 0x176FA51B PUSH1 0xE3 SHL DUP2 MSTORE PUSH1 0x1 PUSH1 0x1 PUSH1 0xA0 SHL SUB DUP11 DUP2 AND SWAP4 DUP3 ADD SWAP4 SWAP1 SWAP4 MSTORE PUSH1 0x24 DUP2 ADD DUP7 SWAP1 MSTORE SWAP2 AND SWAP3 POP PUSH4 0xBB7D28D8 SWAP2 POP PUSH1 0x44 ADD PUSH1 0x0 PUSH1 0x40 MLOAD DUP1 DUP4 SUB DUP2 PUSH1 0x0 DUP8 DUP1 EXTCODESIZE ISZERO DUP1 ISZERO PUSH2 0xD36 JUMPI PUSH1 0x0 DUP1 REVERT JUMPDEST POP GAS CALL ISZERO DUP1 ISZERO PUSH2 0xD4A JUMPI RETURNDATASIZE PUSH1 0x0 DUP1 RETURNDATACOPY RETURNDATASIZE PUSH1 0x0 REVERT JUMPDEST POP POP POP POP POP JUMPDEST PUSH1 0x4 DUP1 SLOAD PUSH1 0x40 MLOAD PUSH4 0x7E6E1DD9 PUSH1 0xE0 SHL DUP2 MSTORE PUSH1 0x1 PUSH1 0x1 PUSH1 0xA0 SHL SUB DUP8 DUP2 AND SWAP4 DUP3 ADD SWAP4 SWAP1 SWAP4 MSTORE SWAP2 AND SWAP1 PUSH4 0x7E6E1DD9 SWAP1 PUSH1 0x24 ADD PUSH1 0x0 PUSH1 0x40 MLOAD DUP1 DUP4 SUB DUP2 PUSH1 0x0 DUP8 DUP1 EXTCODESIZE ISZERO DUP1 ISZERO PUSH2 0xD99 JUMPI PUSH1 0x0 DUP1 REVERT JUMPDEST POP GAS CALL ISZERO DUP1 ISZERO PUSH2 0xDAD JUMPI RETURNDATASIZE PUSH1 0x0 DUP1 RETURNDATACOPY RETURNDATASIZE PUSH1 0x0 REVERT JUMPDEST POP POP POP POP POP POP POP POP DUP1 DUP1 PUSH2 0xDC0 SWAP1 PUSH2 0x44E9 JUMP JUMPDEST SWAP2 POP POP PUSH2 0x8D1 JUMP JUMPDEST POP PUSH1 0x40 MLOAD DUP1 PUSH1 0x40 ADD PUSH1 0x40 MSTORE DUP1 PUSH1 0x19 DUP2 MSTORE PUSH1 0x20 ADD PUSH32 0x4C6F616E205061727469616C6C79204C69717569646174656400000000000000 DUP2 MSTORE POP SWAP7 POP POP POP POP POP POP POP SWAP1 JUMP JUMPDEST PUSH1 0x64 PUSH2 0xE17 DUP3 PUSH1 0x69 PUSH2 0x4484 JUMP JUMPDEST PUSH2 0xE21 SWAP2 SWAP1 PUSH2 0x44A3 JUMP JUMPDEST DUP3 LT ISZERO PUSH2 0xE4C JUMPI PUSH1 0x40 MLOAD DUP1 PUSH1 0x60 ADD PUSH1 0x40 MSTORE DUP1 PUSH1 0x3E DUP2 MSTORE PUSH1 0x20 ADD PUSH2 0x45F1 PUSH1 0x3E SWAP2 CODECOPY SWAP7 POP POP POP POP POP POP POP SWAP1 JUMP JUMPDEST POP POP POP DUP1 DUP1 PUSH2 0xE5A SWAP1 PUSH2 0x44E9 JUMP JUMPDEST SWAP2 POP POP PUSH2 0x816 JUMP JUMPDEST POP POP POP SWAP1 JUMP JUMPDEST PUSH2 0xE80 PUSH1 0x0 DUP1 MLOAD PUSH1 0x20 PUSH2 0x462F DUP4 CODECOPY DUP2 MLOAD SWAP2 MSTORE CALLER PUSH2 0x2D3F JUMP JUMPDEST PUSH2 0xE9C JUMPI PUSH1 0x40 MLOAD PUSH3 0x461BCD PUSH1 0xE5 SHL DUP2 MSTORE PUSH1 0x4 ADD PUSH2 0x804 SWAP1 PUSH2 0x43FB JUMP JUMPDEST PUSH2 0xEA4 PUSH2 0x3B02 JUMP JUMPDEST PUSH1 0x9 SLOAD PUSH1 0x0 JUMPDEST DUP2 DUP2 PUSH2 0xFFFF AND LT ISZERO PUSH2 0x1331 JUMPI PUSH1 0x0 PUSH1 0x9 DUP3 PUSH2 0xFFFF AND DUP2 SLOAD DUP2 LT PUSH2 0xECF JUMPI PUSH2 0xECF PUSH2 0x4429 JUMP JUMPDEST PUSH1 0x0 SWAP2 DUP3 MSTORE PUSH1 0x20 DUP3 KECCAK256 ADD SLOAD PUSH1 0x1 PUSH1 0x1 PUSH1 0xA0 SHL SUB AND SWAP2 POP PUSH2 0xEEE DUP3 PUSH2 0x3CCC JUMP JUMPDEST PUSH1 0x4 DUP1 SLOAD PUSH1 0x40 MLOAD PUSH4 0x5C88F5A5 PUSH1 0xE0 SHL DUP2 MSTORE PUSH1 0x1 PUSH1 0x1 PUSH1 0xA0 SHL SUB DUP7 DUP2 AND SWAP4 DUP3 ADD SWAP4 SWAP1 SWAP4 MSTORE SWAP3 SWAP4 POP PUSH1 0x0 SWAP3 SWAP2 AND SWAP1 PUSH4 0x5C88F5A5 SWAP1 PUSH1 0x24 ADD PUSH1 0x20 PUSH1 0x40 MLOAD DUP1 DUP4 SUB DUP2 DUP7 GAS STATICCALL ISZERO DUP1 ISZERO PUSH2 0xF40 JUMPI RETURNDATASIZE PUSH1 0x0 DUP1 RETURNDATACOPY RETURNDATASIZE PUSH1 0x0 REVERT JUMPDEST POP POP POP POP PUSH1 0x40 MLOAD RETURNDATASIZE PUSH1 0x1F NOT PUSH1 0x1F DUP3 ADD AND DUP3 ADD DUP1 PUSH1 0x40 MSTORE POP DUP2 ADD SWAP1 PUSH2 0xF64 SWAP2 SWAP1 PUSH2 0x43E2 JUMP JUMPDEST PUSH1 0x1 PUSH1 0x1 PUSH1 0xA0 SHL SUB DUP5 AND PUSH1 0x0 SWAP1 DUP2 MSTORE PUSH1 0x11 PUSH1 0x20 MSTORE PUSH1 0x40 DUP2 KECCAK256 SLOAD SWAP2 SWAP3 POP JUMPDEST DUP2 DUP2 PUSH2 0xFFFF AND LT ISZERO PUSH2 0x12B8 JUMPI PUSH1 0x1 PUSH1 0x1 PUSH1 0xA0 SHL SUB DUP6 AND PUSH1 0x0 SWAP1 DUP2 MSTORE PUSH1 0x11 PUSH1 0x20 MSTORE PUSH1 0x40 DUP2 KECCAK256 DUP1 SLOAD PUSH2 0xFFFF DUP5 AND SWAP1 DUP2 LT PUSH2 0xFBB JUMPI PUSH2 0xFBB PUSH2 0x4429 JUMP JUMPDEST PUSH1 0x0 SWAP2 DUP3 MSTORE PUSH1 0x20 SWAP1 SWAP2 KECCAK256 ADD SLOAD PUSH1 0x6 SLOAD PUSH1 0x40 MLOAD PUSH4 0x70A08231 PUSH1 0xE0 SHL DUP2 MSTORE PUSH1 0x1 PUSH1 0x1 PUSH1 0xA0 SHL SUB SWAP3 DUP4 AND PUSH1 0x4 DUP3 ADD DUP2 SWAP1 MSTORE SWAP4 POP PUSH7 0x2386F26FC10000 SWAP3 SWAP1 SWAP2 AND SWAP1 PUSH4 0x70A08231 SWAP1 PUSH1 0x24 ADD PUSH1 0x20 PUSH1 0x40 MLOAD DUP1 DUP4 SUB DUP2 DUP7 GAS STATICCALL ISZERO DUP1 ISZERO PUSH2 0x101E JUMPI RETURNDATASIZE PUSH1 0x0 DUP1 RETURNDATACOPY RETURNDATASIZE PUSH1 0x0 REVERT JUMPDEST POP POP POP POP PUSH1 0x40 MLOAD RETURNDATASIZE PUSH1 0x1F NOT PUSH1 0x1F DUP3 ADD AND DUP3 ADD DUP1 PUSH1 0x40 MSTORE POP DUP2 ADD SWAP1 PUSH2 0x1042 SWAP2 SWAP1 PUSH2 0x43E2 JUMP JUMPDEST LT ISZERO PUSH2 0x1091 JUMPI PUSH1 0x1 PUSH1 0x1 PUSH1 0xA0 SHL SUB DUP1 DUP3 AND PUSH1 0x0 DUP2 DUP2 MSTORE PUSH1 0x8 PUSH1 0x20 SWAP1 DUP2 MSTORE PUSH1 0x40 DUP1 DUP4 KECCAK256 DUP4 SWAP1 SSTORE SWAP4 DUP11 AND DUP3 MSTORE PUSH1 0xC DUP2 MSTORE DUP4 DUP3 KECCAK256 SWAP3 DUP3 MSTORE SWAP2 SWAP1 SWAP2 MSTORE SWAP1 DUP2 KECCAK256 DUP2 SWAP1 SSTORE PUSH2 0x1089 DUP8 PUSH2 0x3CCC JUMP JUMPDEST SWAP1 POP POP PUSH2 0x12A5 JUMP JUMPDEST PUSH1 0x1 PUSH1 0x1 PUSH1 0xA0 SHL SUB DUP2 DUP2 AND PUSH1 0x0 DUP2 DUP2 MSTORE PUSH1 0x8 PUSH1 0x20 MSTORE PUSH1 0x40 DUP1 DUP3 KECCAK256 SLOAD PUSH1 0x6 SLOAD SWAP2 MLOAD PUSH4 0x70A08231 PUSH1 0xE0 SHL DUP2 MSTORE PUSH1 0x4 DUP2 ADD SWAP5 SWAP1 SWAP5 MSTORE SWAP2 SWAP4 SWAP2 SWAP3 SWAP2 AND SWAP1 PUSH4 0x70A08231 SWAP1 PUSH1 0x24 ADD PUSH1 0x20 PUSH1 0x40 MLOAD DUP1 DUP4 SUB DUP2 DUP7 GAS STATICCALL ISZERO DUP1 ISZERO PUSH2 0x10F0 JUMPI RETURNDATASIZE PUSH1 0x0 DUP1 RETURNDATACOPY RETURNDATASIZE PUSH1 0x0 REVERT JUMPDEST POP POP POP POP PUSH1 0x40 MLOAD RETURNDATASIZE PUSH1 0x1F NOT PUSH1 0x1F DUP3 ADD AND DUP3 ADD DUP1 PUSH1 0x40 MSTORE POP DUP2 ADD SWAP1 PUSH2 0x1114 SWAP2 SWAP1 PUSH2 0x43E2 JUMP JUMPDEST PUSH2 0x1126 SWAP1 PUSH8 0xDE0B6B3A7640000 PUSH2 0x4484 JUMP JUMPDEST PUSH2 0x1130 SWAP2 SWAP1 PUSH2 0x44A3 JUMP JUMPDEST PUSH1 0x1 PUSH1 0x1 PUSH1 0xA0 SHL SUB DUP1 DUP10 AND PUSH1 0x0 SWAP1 DUP2 MSTORE PUSH1 0xC PUSH1 0x20 SWAP1 DUP2 MSTORE PUSH1 0x40 DUP1 DUP4 KECCAK256 SWAP4 DUP8 AND DUP4 MSTORE SWAP3 SWAP1 MSTORE SWAP1 DUP2 KECCAK256 SLOAD SWAP2 SWAP3 POP SWAP1 DUP8 SWAP1 PUSH2 0x1170 SWAP1 PUSH8 0xDE0B6B3A7640000 PUSH2 0x4484 JUMP JUMPDEST PUSH2 0x117A SWAP2 SWAP1 PUSH2 0x44A3 JUMP JUMPDEST SWAP1 POP PUSH1 0x0 PUSH15 0xC097CE7BC90715B34B9F1000000000 DUP8 PUSH2 0x1199 DUP5 DUP7 PUSH2 0x4484 JUMP JUMPDEST PUSH2 0x11A3 SWAP2 SWAP1 PUSH2 0x4484 JUMP JUMPDEST PUSH2 0x11AD SWAP2 SWAP1 PUSH2 0x44A3 JUMP JUMPDEST PUSH1 0x6 SLOAD PUSH1 0x40 MLOAD PUSH4 0xD4D1513 PUSH1 0xE0 SHL DUP2 MSTORE PUSH1 0x1 PUSH1 0x1 PUSH1 0xA0 SHL SUB DUP8 DUP2 AND PUSH1 0x4 DUP4 ADD MSTORE PUSH1 0x24 DUP3 ADD DUP5 SWAP1 MSTORE DUP13 DUP2 AND PUSH1 0x44 DUP4 ADD MSTORE SWAP3 SWAP4 POP PUSH1 0x0 SWAP3 SWAP1 SWAP2 AND SWAP1 PUSH4 0xD4D1513 SWAP1 PUSH1 0x64 ADD PUSH1 0x20 PUSH1 0x40 MLOAD DUP1 DUP4 SUB DUP2 PUSH1 0x0 DUP8 GAS CALL ISZERO DUP1 ISZERO PUSH2 0x120E JUMPI RETURNDATASIZE PUSH1 0x0 DUP1 RETURNDATACOPY RETURNDATASIZE PUSH1 0x0 REVERT JUMPDEST POP POP POP POP PUSH1 0x40 MLOAD RETURNDATASIZE PUSH1 0x1F NOT PUSH1 0x1F DUP3 ADD AND DUP3 ADD DUP1 PUSH1 0x40 MSTORE POP DUP2 ADD SWAP1 PUSH2 0x1232 SWAP2 SWAP1 PUSH2 0x43E2 JUMP JUMPDEST PUSH1 0x1 PUSH1 0x1 PUSH1 0xA0 SHL SUB DUP7 AND PUSH1 0x0 SWAP1 DUP2 MSTORE PUSH1 0x8 PUSH1 0x20 MSTORE PUSH1 0x40 DUP2 KECCAK256 DUP1 SLOAD SWAP3 SWAP4 POP DUP4 SWAP3 SWAP1 SWAP2 SWAP1 PUSH2 0x125F SWAP1 DUP5 SWAP1 PUSH2 0x4455 JUMP JUMPDEST SWAP1 SWAP2 SSTORE POP POP PUSH1 0x1 PUSH1 0x1 PUSH1 0xA0 SHL SUB DUP1 DUP12 AND PUSH1 0x0 SWAP1 DUP2 MSTORE PUSH1 0xC PUSH1 0x20 SWAP1 DUP2 MSTORE PUSH1 0x40 DUP1 DUP4 KECCAK256 SWAP4 DUP10 AND DUP4 MSTORE SWAP3 SWAP1 MSTORE SWAP1 DUP2 KECCAK256 DUP1 SLOAD DUP5 SWAP3 SWAP1 PUSH2 0x129B SWAP1 DUP5 SWAP1 PUSH2 0x4455 JUMP JUMPDEST SWAP1 SWAP2 SSTORE POP POP POP POP POP POP JUMPDEST POP DUP1 PUSH2 0x12B0 DUP2 PUSH2 0x44E9 JUMP JUMPDEST SWAP2 POP POP PUSH2 0xF81 JUMP JUMPDEST POP PUSH1 0x4 DUP1 SLOAD PUSH1 0x40 MLOAD PUSH4 0x23D0AAB1 PUSH1 0xE0 SHL DUP2 MSTORE PUSH1 0x1 PUSH1 0x1 PUSH1 0xA0 SHL SUB DUP8 DUP2 AND SWAP4 DUP3 ADD SWAP4 SWAP1 SWAP4 MSTORE SWAP2 AND SWAP1 PUSH4 0x23D0AAB1 SWAP1 PUSH1 0x24 ADD PUSH1 0x0 PUSH1 0x40 MLOAD DUP1 DUP4 SUB DUP2 PUSH1 0x0 DUP8 DUP1 EXTCODESIZE ISZERO DUP1 ISZERO PUSH2 0x1302 JUMPI PUSH1 0x0 DUP1 REVERT JUMPDEST POP GAS CALL ISZERO DUP1 ISZERO PUSH2 0x1316 JUMPI RETURNDATASIZE PUSH1 0x0 DUP1 RETURNDATACOPY RETURNDATASIZE PUSH1 0x0 REVERT JUMPDEST POP POP POP POP POP POP POP POP DUP1 DUP1 PUSH2 0x1329 SWAP1 PUSH2 0x44E9 JUMP JUMPDEST SWAP2 POP POP PUSH2 0xEAA JUMP JUMPDEST POP POP JUMP JUMPDEST PUSH1 0x4 DUP1 SLOAD PUSH1 0x2 SLOAD PUSH1 0x40 MLOAD PUSH4 0xA150FB5F PUSH1 0xE0 SHL DUP2 MSTORE SWAP3 DUP4 ADD MSTORE PUSH1 0x0 SWAP2 PUSH1 0x1 PUSH1 0x1 PUSH1 0xA0 SHL SUB SWAP1 SWAP2 AND SWAP1 PUSH4 0xA150FB5F SWAP1 PUSH1 0x24 ADD PUSH1 0x20 PUSH1 0x40 MLOAD DUP1 DUP4 SUB DUP2 DUP7 GAS STATICCALL ISZERO DUP1 ISZERO PUSH2 0x7A5 JUMPI RETURNDATASIZE PUSH1 0x0 DUP1 RETURNDATACOPY RETURNDATASIZE PUSH1 0x0 REVERT JUMPDEST PUSH1 0x0 DUP3 DUP2 MSTORE PUSH1 0x20 DUP2 SWAP1 MSTORE PUSH1 0x40 SWAP1 KECCAK256 PUSH1 0x1 ADD SLOAD PUSH2 0x139E DUP2 CALLER PUSH2 0x3D7A JUMP JUMPDEST PUSH2 0x13A8 DUP4 DUP4 PUSH2 0x3DDE JUMP JUMPDEST POP POP POP JUMP JUMPDEST PUSH1 0x1 PUSH1 0x1 PUSH1 0xA0 SHL SUB DUP2 AND CALLER EQ PUSH2 0x141D JUMPI PUSH1 0x40 MLOAD PUSH3 0x461BCD PUSH1 0xE5 SHL DUP2 MSTORE PUSH1 0x20 PUSH1 0x4 DUP3 ADD MSTORE PUSH1 0x2F PUSH1 0x24 DUP3 ADD MSTORE PUSH32 0x416363657373436F6E74726F6C3A2063616E206F6E6C792072656E6F756E6365 PUSH1 0x44 DUP3 ADD MSTORE PUSH15 0x103937B632B9903337B91039B2B633 PUSH1 0x89 SHL PUSH1 0x64 DUP3 ADD MSTORE PUSH1 0x84 ADD PUSH2 0x804 JUMP JUMPDEST PUSH2 0x1331 DUP3 DUP3 PUSH2 0x3E00 JUMP JUMPDEST PUSH1 0x1 PUSH1 0x1 PUSH1 0xA0 SHL SUB DUP4 AND PUSH1 0x0 SWAP1 DUP2 MSTORE PUSH1 0xA PUSH1 0x20 MSTORE PUSH1 0x40 SWAP1 KECCAK256 SLOAD PUSH1 0xFF AND PUSH2 0x145F JUMPI PUSH1 0x40 MLOAD PUSH3 0x461BCD PUSH1 0xE5 SHL DUP2 MSTORE PUSH1 0x4 ADD PUSH2 0x804 SWAP1 PUSH2 0x450B JUMP JUMPDEST PUSH1 0x1 PUSH1 0x1 PUSH1 0xA0 SHL SUB DUP2 AND PUSH1 0x0 SWAP1 DUP2 MSTORE PUSH1 0xA PUSH1 0x20 MSTORE PUSH1 0x40 SWAP1 KECCAK256 SLOAD PUSH1 0xFF AND PUSH2 0x1497 JUMPI PUSH1 0x40 MLOAD PUSH3 0x461BCD PUSH1 0xE5 SHL DUP2 MSTORE PUSH1 0x4 ADD PUSH2 0x804 SWAP1 PUSH2 0x450B JUMP JUMPDEST PUSH1 0x4 DUP1 SLOAD PUSH1 0x40 MLOAD PUSH4 0xFCE3E8E7 PUSH1 0xE0 SHL DUP2 MSTORE PUSH1 0x1 PUSH1 0x1 PUSH1 0xA0 SHL SUB DUP7 DUP2 AND SWAP4 DUP3 ADD SWAP4 SWAP1 SWAP4 MSTORE SWAP2 AND SWAP1 PUSH4 0xFCE3E8E7 SWAP1 PUSH1 0x24 ADD PUSH1 0x20 PUSH1 0x40 MLOAD DUP1 DUP4 SUB DUP2 DUP7 GAS STATICCALL ISZERO DUP1 ISZERO PUSH2 0x14E3 JUMPI RETURNDATASIZE PUSH1 0x0 DUP1 RETURNDATACOPY RETURNDATASIZE PUSH1 0x0 REVERT JUMPDEST POP POP POP POP PUSH1 0x40 MLOAD RETURNDATASIZE PUSH1 0x1F NOT PUSH1 0x1F DUP3 ADD AND DUP3 ADD DUP1 PUSH1 0x40 MSTORE POP DUP2 ADD SWAP1 PUSH2 0x1507 SWAP2 SWAP1 PUSH2 0x43E2 JUMP JUMPDEST DUP5 GT ISZERO PUSH2 0x1556 JUMPI PUSH1 0x40 MLOAD PUSH3 0x461BCD PUSH1 0xE5 SHL DUP2 MSTORE PUSH1 0x20 PUSH1 0x4 DUP3 ADD MSTORE PUSH1 0x1E PUSH1 0x24 DUP3 ADD MSTORE PUSH32 0x6E6F7420656E6F756768206C697175696469747920746F20626F72726F770000 PUSH1 0x44 DUP3 ADD MSTORE PUSH1 0x64 ADD PUSH2 0x804 JUMP JUMPDEST PUSH2 0x155E PUSH2 0x3B02 JUMP JUMPDEST PUSH1 0x5 SLOAD PUSH1 0x40 MLOAD PUSH4 0x1FCD2D5 PUSH1 0xE0 SHL DUP2 MSTORE CALLER PUSH1 0x4 DUP3 ADD MSTORE PUSH1 0x0 SWAP2 PUSH1 0x1 PUSH1 0x1 PUSH1 0xA0 SHL SUB AND SWAP1 PUSH4 0x1FCD2D5 SWAP1 PUSH1 0x24 ADD PUSH1 0x20 PUSH1 0x40 MLOAD DUP1 DUP4 SUB DUP2 DUP7 GAS STATICCALL ISZERO DUP1 ISZERO PUSH2 0x15A7 JUMPI RETURNDATASIZE PUSH1 0x0 DUP1 RETURNDATACOPY RETURNDATASIZE PUSH1 0x0 REVERT JUMPDEST POP POP POP POP PUSH1 0x40 MLOAD RETURNDATASIZE PUSH1 0x1F NOT PUSH1 0x1F DUP3 ADD AND DUP3 ADD DUP1 PUSH1 0x40 MSTORE POP DUP2 ADD SWAP1 PUSH2 0x15CB SWAP2 SWAP1 PUSH2 0x43E2 JUMP JUMPDEST PUSH1 0x5 SLOAD PUSH1 0x40 MLOAD PUSH4 0x6829F1B PUSH1 0xE3 SHL DUP2 MSTORE PUSH1 0x1 PUSH1 0x1 PUSH1 0xA0 SHL SUB DUP6 DUP2 AND PUSH1 0x4 DUP4 ADD MSTORE SWAP1 SWAP2 AND SWAP1 PUSH4 0x3414F8D8 SWAP1 PUSH1 0x24 ADD PUSH1 0x20 PUSH1 0x40 MLOAD DUP1 DUP4 SUB DUP2 DUP7 GAS STATICCALL ISZERO DUP1 ISZERO PUSH2 0x1615 JUMPI RETURNDATASIZE PUSH1 0x0 DUP1 RETURNDATACOPY RETURNDATASIZE PUSH1 0x0 REVERT JUMPDEST POP POP POP POP PUSH1 0x40 MLOAD RETURNDATASIZE PUSH1 0x1F NOT PUSH1 0x1F DUP3 ADD AND DUP3 ADD DUP1 PUSH1 0x40 MSTORE POP DUP2 ADD SWAP1 PUSH2 0x1639 SWAP2 SWAP1 PUSH2 0x43E2 JUMP JUMPDEST PUSH1 0x3 SLOAD PUSH1 0x40 MLOAD PUSH4 0x41976E09 PUSH1 0xE0 SHL DUP2 MSTORE PUSH1 0x1 PUSH1 0x1 PUSH1 0xA0 SHL SUB DUP7 DUP2 AND PUSH1 0x4 DUP4 ADD MSTORE DUP8 SWAP3 AND SWAP1 PUSH4 0x41976E09 SWAP1 PUSH1 0x24 ADD PUSH1 0x20 PUSH1 0x40 MLOAD DUP1 DUP4 SUB DUP2 DUP7 GAS STATICCALL ISZERO DUP1 ISZERO PUSH2 0x1683 JUMPI RETURNDATASIZE PUSH1 0x0 DUP1 RETURNDATACOPY RETURNDATASIZE PUSH1 0x0 REVERT JUMPDEST POP POP POP POP PUSH1 0x40 MLOAD RETURNDATASIZE PUSH1 0x1F NOT PUSH1 0x1F DUP3 ADD AND DUP3 ADD DUP1 PUSH1 0x40 MSTORE POP DUP2 ADD SWAP1 PUSH2 0x16A7 SWAP2 SWAP1 PUSH2 0x43E2 JUMP JUMPDEST PUSH2 0x16B1 SWAP2 SWAP1 PUSH2 0x4484 JUMP JUMPDEST PUSH2 0x16BB SWAP2 SWAP1 PUSH2 0x44A3 JUMP JUMPDEST PUSH2 0x16C5 SWAP2 SWAP1 PUSH2 0x4455 JUMP JUMPDEST SWAP1 POP PUSH1 0x0 PUSH2 0x16D2 CALLER PUSH2 0x380C JUMP JUMPDEST PUSH1 0x3 SLOAD PUSH1 0x40 MLOAD PUSH4 0x41976E09 PUSH1 0xE0 SHL DUP2 MSTORE PUSH1 0x1 PUSH1 0x1 PUSH1 0xA0 SHL SUB DUP9 DUP2 AND PUSH1 0x4 DUP4 ADD MSTORE PUSH8 0xDE0B6B3A7640000 SWAP3 DUP11 SWAP3 SWAP2 AND SWAP1 PUSH4 0x41976E09 SWAP1 PUSH1 0x24 ADD PUSH1 0x20 PUSH1 0x40 MLOAD DUP1 DUP4 SUB DUP2 DUP7 GAS STATICCALL ISZERO DUP1 ISZERO PUSH2 0x1727 JUMPI RETURNDATASIZE PUSH1 0x0 DUP1 RETURNDATACOPY RETURNDATASIZE PUSH1 0x0 REVERT JUMPDEST POP POP POP POP PUSH1 0x40 MLOAD RETURNDATASIZE PUSH1 0x1F NOT PUSH1 0x1F DUP3 ADD AND DUP3 ADD DUP1 PUSH1 0x40 MSTORE POP DUP2 ADD SWAP1 PUSH2 0x174B SWAP2 SWAP1 PUSH2 0x43E2 JUMP JUMPDEST PUSH2 0x1755 SWAP2 SWAP1 PUSH2 0x4484 JUMP JUMPDEST PUSH2 0x175F SWAP2 SWAP1 PUSH2 0x44A3 JUMP JUMPDEST PUSH2 0x1769 SWAP2 SWAP1 PUSH2 0x4455 JUMP JUMPDEST SWAP1 POP DUP1 DUP3 LT ISZERO PUSH2 0x17BB JUMPI PUSH1 0x40 MLOAD PUSH3 0x461BCD PUSH1 0xE5 SHL DUP2 MSTORE PUSH1 0x20 PUSH1 0x4 DUP3 ADD MSTORE PUSH1 0x1F PUSH1 0x24 DUP3 ADD MSTORE PUSH32 0x6E6F7420656E6F75676820636F6C6C61746572616C20746F20626F72726F7700 PUSH1 0x44 DUP3 ADD MSTORE PUSH1 0x64 ADD PUSH2 0x804 JUMP JUMPDEST PUSH1 0x5 SLOAD PUSH1 0x40 MLOAD PUSH4 0xF970C3B7 PUSH1 0xE0 SHL DUP2 MSTORE PUSH1 0x1 PUSH1 0x1 PUSH1 0xA0 SHL SUB SWAP1 SWAP2 AND SWAP1 PUSH4 0xF970C3B7 SWAP1 PUSH2 0x17EF SWAP1 CALLER SWAP1 DUP8 SWAP1 DUP10 SWAP1 PUSH1 0x4 ADD PUSH2 0x44C5 JUMP JUMPDEST PUSH1 0x0 PUSH1 0x40 MLOAD DUP1 DUP4 SUB DUP2 PUSH1 0x0 DUP8 DUP1 EXTCODESIZE ISZERO DUP1 ISZERO PUSH2 0x1809 JUMPI PUSH1 0x0 DUP1 REVERT JUMPDEST POP GAS CALL ISZERO DUP1 ISZERO PUSH2 0x181D JUMPI RETURNDATASIZE PUSH1 0x0 DUP1 RETURNDATACOPY RETURNDATASIZE PUSH1 0x0 REVERT JUMPDEST POP POP PUSH1 0x4 DUP1 SLOAD PUSH1 0x40 MLOAD PUSH4 0xFC4F78B9 PUSH1 0xE0 SHL DUP2 MSTORE PUSH1 0x1 PUSH1 0x1 PUSH1 0xA0 SHL SUB SWAP1 SWAP2 AND SWAP4 POP PUSH4 0xFC4F78B9 SWAP3 POP PUSH2 0x1854 SWAP2 CALLER SWAP2 DUP11 SWAP2 DUP13 SWAP2 ADD PUSH2 0x44C5 JUMP JUMPDEST PUSH1 0x0 PUSH1 0x40 MLOAD DUP1 DUP4 SUB DUP2 PUSH1 0x0 DUP8 DUP1 EXTCODESIZE ISZERO DUP1 ISZERO PUSH2 0x186E JUMPI PUSH1 0x0 DUP1 REVERT JUMPDEST POP GAS CALL ISZERO DUP1 ISZERO PUSH2 0x1882 JUMPI RETURNDATASIZE PUSH1 0x0 DUP1 RETURNDATACOPY RETURNDATASIZE PUSH1 0x0 REVERT JUMPDEST POP POP PUSH1 0x40 DUP1 MLOAD CALLER DUP2 MSTORE PUSH1 0x20 DUP2 ADD DUP11 SWAP1 MSTORE PUSH1 0x1 PUSH1 0x1 PUSH1 0xA0 SHL SUB DUP10 DUP2 AND DUP3 DUP5 ADD MSTORE PUSH1 0x60 DUP3 ADD DUP10 SWAP1 MSTORE DUP8 AND PUSH1 0x80 DUP3 ADD MSTORE SWAP1 MLOAD PUSH32 0xEA8631408D071CDC565DFA37DCB32450C4C85EE9A4142ED14DF1387D7C2A4327 SWAP4 POP SWAP1 DUP2 SWAP1 SUB PUSH1 0xA0 ADD SWAP2 POP LOG1 PUSH1 0x1 PUSH1 0x1 PUSH1 0xA0 SHL SUB DUP6 AND PUSH1 0x0 SWAP1 DUP2 MSTORE PUSH1 0xB PUSH1 0x20 SWAP1 DUP2 MSTORE PUSH1 0x40 DUP1 DUP4 KECCAK256 CALLER DUP5 MSTORE SWAP1 SWAP2 MSTORE DUP2 KECCAK256 DUP1 SLOAD DUP9 SWAP3 SWAP1 PUSH2 0x1911 SWAP1 DUP5 SWAP1 PUSH2 0x4455 JUMP JUMPDEST SWAP1 SWAP2 SSTORE POP POP PUSH1 0x1 PUSH1 0x1 PUSH1 0xA0 SHL SUB DUP6 AND PUSH1 0x0 SWAP1 DUP2 MSTORE PUSH1 0xE PUSH1 0x20 SWAP1 DUP2 MSTORE PUSH1 0x40 DUP1 DUP4 KECCAK256 CALLER DUP5 MSTORE SWAP1 SWAP2 MSTORE SWAP1 KECCAK256 SLOAD PUSH1 0xFF AND PUSH2 0x199E JUMPI PUSH1 0x1 PUSH1 0x1 PUSH1 0xA0 SHL SUB DUP6 AND PUSH1 0x0 DUP2 DUP2 MSTORE PUSH1 0xD PUSH1 0x20 SWAP1 DUP2 MSTORE PUSH1 0x40 DUP1 DUP4 KECCAK256 DUP1 SLOAD PUSH1 0x1 DUP2 DUP2 ADD DUP4 SSTORE SWAP2 DUP6 MSTORE DUP4 DUP6 KECCAK256 ADD DUP1 SLOAD PUSH1 0x1 PUSH1 0x1 PUSH1 0xA0 SHL SUB NOT AND CALLER SWAP1 DUP2 OR SWAP1 SWAP2 SSTORE SWAP5 DUP5 MSTORE PUSH1 0xE DUP4 MSTORE DUP2 DUP5 KECCAK256 SWAP5 DUP5 MSTORE SWAP4 SWAP1 SWAP2 MSTORE SWAP1 KECCAK256 DUP1 SLOAD PUSH1 0xFF NOT AND SWAP1 SWAP2 OR SWAP1 SSTORE JUMPDEST CALLER PUSH1 0x0 SWAP1 DUP2 MSTORE PUSH1 0x10 PUSH1 0x20 MSTORE PUSH1 0x40 SWAP1 KECCAK256 SLOAD PUSH1 0xFF AND PUSH2 0x1A10 JUMPI PUSH1 0xF DUP1 SLOAD PUSH1 0x1 DUP2 DUP2 ADD SWAP1 SWAP3 SSTORE PUSH32 0x8D1108E10BCB7C27DDDFC02ED9D693A074039D026CF4EA4240B40F7D581AC802 ADD DUP1 SLOAD PUSH1 0x1 PUSH1 0x1 PUSH1 0xA0 SHL SUB NOT AND CALLER SWAP1 DUP2 OR SWAP1 SWAP2 SSTORE PUSH1 0x0 SWAP1 DUP2 MSTORE PUSH1 0x10 PUSH1 0x20 MSTORE PUSH1 0x40 SWAP1 KECCAK256 DUP1 SLOAD PUSH1 0xFF NOT AND SWAP1 SWAP2 OR SWAP1 SSTORE JUMPDEST PUSH1 0x4 DUP1 SLOAD PUSH1 0x40 MLOAD PUSH4 0x7E6E1DD9 PUSH1 0xE0 SHL DUP2 MSTORE PUSH1 0x1 PUSH1 0x1 PUSH1 0xA0 SHL SUB DUP9 DUP2 AND SWAP4 DUP3 ADD SWAP4 SWAP1 SWAP4 MSTORE SWAP2 AND SWAP1 PUSH4 0x7E6E1DD9 SWAP1 PUSH1 0x24 ADD PUSH1 0x0 PUSH1 0x40 MLOAD DUP1 DUP4 SUB DUP2 PUSH1 0x0 DUP8 DUP1 EXTCODESIZE ISZERO DUP1 ISZERO PUSH2 0x1A59 JUMPI PUSH1 0x0 DUP1 REVERT JUMPDEST POP GAS CALL ISZERO DUP1 ISZERO PUSH2 0x1A6D JUMPI RETURNDATASIZE PUSH1 0x0 DUP1 RETURNDATACOPY RETURNDATASIZE PUSH1 0x0 REVERT JUMPDEST POP POP PUSH1 0x40 DUP1 MLOAD CALLER DUP2 MSTORE PUSH1 0x20 DUP2 ADD DUP11 SWAP1 MSTORE PUSH1 0x1 PUSH1 0x1 PUSH1 0xA0 SHL SUB DUP10 DUP2 AND DUP3 DUP5 ADD MSTORE PUSH1 0x60 DUP3 ADD DUP10 SWAP1 MSTORE DUP8 AND PUSH1 0x80 DUP3 ADD MSTORE SWAP1 MLOAD PUSH32 0xEA8631408D071CDC565DFA37DCB32450C4C85EE9A4142ED14DF1387D7C2A4327 SWAP4 POP SWAP1 DUP2 SWAP1 SUB PUSH1 0xA0 ADD SWAP2 POP LOG1 POP POP POP POP POP POP JUMP JUMPDEST PUSH1 0x1 PUSH1 0x1 PUSH1 0xA0 SHL SUB DUP2 AND PUSH1 0x0 SWAP1 DUP2 MSTORE PUSH1 0xA PUSH1 0x20 MSTORE PUSH1 0x40 SWAP1 KECCAK256 SLOAD PUSH1 0xFF AND ISZERO ISZERO PUSH1 0x1 EQ PUSH2 0x1B0E JUMPI PUSH1 0x40 MLOAD PUSH3 0x461BCD PUSH1 0xE5 SHL DUP2 MSTORE PUSH1 0x4 ADD PUSH2 0x804 SWAP1 PUSH2 0x450B JUMP JUMPDEST PUSH2 0x1B16 PUSH2 0x3B02 JUMP JUMPDEST PUSH1 0x0 DUP3 GT PUSH2 0x1B66 JUMPI PUSH1 0x40 MLOAD PUSH3 0x461BCD PUSH1 0xE5 SHL DUP2 MSTORE PUSH1 0x20 PUSH1 0x4 DUP3 ADD MSTORE PUSH1 0x18 PUSH1 0x24 DUP3 ADD MSTORE PUSH32 0x6465706F736974206D75737420626520706F7369746976650000000000000000 PUSH1 0x44 DUP3 ADD MSTORE PUSH1 0x64 ADD PUSH2 0x804 JUMP JUMPDEST PUSH1 0x6 SLOAD PUSH1 0x40 MLOAD PUSH4 0xD4D1513 PUSH1 0xE0 SHL DUP2 MSTORE CALLER PUSH1 0x4 DUP3 ADD MSTORE PUSH1 0x24 DUP2 ADD DUP5 SWAP1 MSTORE PUSH1 0x1 PUSH1 0x1 PUSH1 0xA0 SHL SUB DUP4 DUP2 AND PUSH1 0x44 DUP4 ADD MSTORE PUSH1 0x0 SWAP3 AND SWAP1 PUSH4 0xD4D1513 SWAP1 PUSH1 0x64 ADD PUSH1 0x20 PUSH1 0x40 MLOAD DUP1 DUP4 SUB DUP2 PUSH1 0x0 DUP8 GAS CALL ISZERO DUP1 ISZERO PUSH2 0x1BC0 JUMPI RETURNDATASIZE PUSH1 0x0 DUP1 RETURNDATACOPY RETURNDATASIZE PUSH1 0x0 REVERT JUMPDEST POP POP POP POP PUSH1 0x40 MLOAD RETURNDATASIZE PUSH1 0x1F NOT PUSH1 0x1F DUP3 ADD AND DUP3 ADD DUP1 PUSH1 0x40 MSTORE POP DUP2 ADD SWAP1 PUSH2 0x1BE4 SWAP2 SWAP1 PUSH2 0x43E2 JUMP JUMPDEST CALLER PUSH1 0x0 SWAP1 DUP2 MSTORE PUSH1 0x8 PUSH1 0x20 MSTORE PUSH1 0x40 DUP2 KECCAK256 DUP1 SLOAD SWAP3 SWAP4 POP DUP4 SWAP3 SWAP1 SWAP2 SWAP1 PUSH2 0x1C08 SWAP1 DUP5 SWAP1 PUSH2 0x4455 JUMP JUMPDEST SWAP1 SWAP2 SSTORE POP POP PUSH1 0x4 DUP1 SLOAD PUSH1 0x40 MLOAD PUSH4 0x1740ECAF PUSH1 0xE1 SHL DUP2 MSTORE PUSH1 0x1 PUSH1 0x1 PUSH1 0xA0 SHL SUB SWAP1 SWAP2 AND SWAP2 PUSH4 0x2E81D95E SWAP2 PUSH2 0x1C40 SWAP2 CALLER SWAP2 DUP8 SWAP2 DUP10 SWAP2 ADD PUSH2 0x44C5 JUMP JUMPDEST PUSH1 0x0 PUSH1 0x40 MLOAD DUP1 DUP4 SUB DUP2 PUSH1 0x0 DUP8 DUP1 EXTCODESIZE ISZERO DUP1 ISZERO PUSH2 0x1C5A JUMPI PUSH1 0x0 DUP1 REVERT JUMPDEST POP GAS CALL ISZERO DUP1 ISZERO PUSH2 0x1C6E JUMPI RETURNDATASIZE PUSH1 0x0 DUP1 RETURNDATACOPY RETURNDATASIZE PUSH1 0x0 REVERT JUMPDEST POP POP POP POP PUSH1 0x1 PUSH1 0x1 PUSH1 0xA0 SHL SUB DUP3 AND PUSH1 0x0 SWAP1 DUP2 MSTORE PUSH1 0x12 PUSH1 0x20 SWAP1 DUP2 MSTORE PUSH1 0x40 DUP1 DUP4 KECCAK256 CALLER DUP5 MSTORE SWAP1 SWAP2 MSTORE SWAP1 KECCAK256 SLOAD PUSH1 0xFF AND PUSH2 0x1CFA JUMPI PUSH1 0x1 PUSH1 0x1 PUSH1 0xA0 SHL SUB DUP3 AND PUSH1 0x0 DUP2 DUP2 MSTORE PUSH1 0x11 PUSH1 0x20 SWAP1 DUP2 MSTORE PUSH1 0x40 DUP1 DUP4 KECCAK256 DUP1 SLOAD PUSH1 0x1 DUP2 DUP2 ADD DUP4 SSTORE SWAP2 DUP6 MSTORE DUP4 DUP6 KECCAK256 ADD DUP1 SLOAD PUSH1 0x1 PUSH1 0x1 PUSH1 0xA0 SHL SUB NOT AND CALLER SWAP1 DUP2 OR SWAP1 SWAP2 SSTORE SWAP5 DUP5 MSTORE PUSH1 0x12 DUP4 MSTORE DUP2 DUP5 KECCAK256 SWAP5 DUP5 MSTORE SWAP4 SWAP1 SWAP2 MSTORE SWAP1 KECCAK256 DUP1 SLOAD PUSH1 0xFF NOT AND SWAP1 SWAP2 OR SWAP1 SSTORE JUMPDEST PUSH1 0x1 PUSH1 0x1 PUSH1 0xA0 SHL SUB DUP3 AND PUSH1 0x0 SWAP1 DUP2 MSTORE PUSH1 0xC PUSH1 0x20 SWAP1 DUP2 MSTORE PUSH1 0x40 DUP1 DUP4 KECCAK256 CALLER DUP5 MSTORE SWAP1 SWAP2 MSTORE DUP2 KECCAK256 DUP1 SLOAD DUP6 SWAP3 SWAP1 PUSH2 0x1D2D SWAP1 DUP5 SWAP1 PUSH2 0x4455 JUMP JUMPDEST SWAP1 SWAP2 SSTORE POP POP PUSH1 0x40 DUP1 MLOAD CALLER DUP2 MSTORE PUSH1 0x1 PUSH1 0x1 PUSH1 0xA0 SHL SUB DUP5 AND PUSH1 0x20 DUP3 ADD MSTORE SWAP1 DUP2 ADD DUP5 SWAP1 MSTORE PUSH1 0x60 DUP2 ADD DUP3 SWAP1 MSTORE PUSH32 0xD2D0080ED70CEB7CE39856D34A5727B439EC7C7919425087ED35ED6868791556 SWAP1 PUSH1 0x80 ADD PUSH1 0x40 MLOAD DUP1 SWAP2 SUB SWAP1 LOG1 POP POP POP JUMP JUMPDEST PUSH1 0x4 DUP1 SLOAD PUSH1 0x40 MLOAD PUSH4 0xC0D7EEC1 PUSH1 0xE0 SHL DUP2 MSTORE PUSH1 0x1 PUSH1 0x1 PUSH1 0xA0 SHL SUB DUP5 DUP2 AND SWAP4 DUP3 ADD SWAP4 SWAP1 SWAP4 MSTORE PUSH1 0x0 SWAP3 SWAP1 SWAP2 AND SWAP1 PUSH4 0xC0D7EEC1 SWAP1 PUSH1 0x24 ADD PUSH2 0x6D7 JUMP JUMPDEST PUSH1 0x1 PUSH1 0x1 PUSH1 0xA0 SHL SUB DUP3 AND PUSH1 0x0 SWAP1 DUP2 MSTORE PUSH1 0xA PUSH1 0x20 MSTORE PUSH1 0x40 SWAP1 KECCAK256 SLOAD PUSH1 0xFF AND PUSH2 0x1DF7 JUMPI PUSH1 0x40 MLOAD PUSH3 0x461BCD PUSH1 0xE5 SHL DUP2 MSTORE PUSH1 0x4 ADD PUSH2 0x804 SWAP1 PUSH2 0x450B JUMP JUMPDEST PUSH2 0x1DFF PUSH2 0x3B02 JUMP JUMPDEST DUP1 PUSH1 0x1 EQ ISZERO PUSH2 0x1E15 JUMPI PUSH2 0x1E12 CALLER DUP4 PUSH2 0x2FB8 JUMP JUMPDEST SWAP1 POP JUMPDEST PUSH1 0x1 PUSH1 0x1 PUSH1 0xA0 SHL SUB DUP3 AND PUSH1 0x0 SWAP1 DUP2 MSTORE PUSH1 0xB PUSH1 0x20 SWAP1 DUP2 MSTORE PUSH1 0x40 DUP1 DUP4 KECCAK256 CALLER DUP5 MSTORE SWAP1 SWAP2 MSTORE SWAP1 KECCAK256 PUSH1 0x1 DUP2 ADD SLOAD SWAP1 SLOAD DUP3 SWAP2 PUSH2 0x1E4A SWAP2 PUSH2 0x4455 JUMP JUMPDEST LT ISZERO PUSH2 0x1E98 JUMPI PUSH1 0x40 MLOAD PUSH3 0x461BCD PUSH1 0xE5 SHL DUP2 MSTORE PUSH1 0x20 PUSH1 0x4 DUP3 ADD MSTORE PUSH1 0x1B PUSH1 0x24 DUP3 ADD MSTORE PUSH32 0x52657475726E6564206D6F7265207468616E20626F72726F7765640000000000 PUSH1 0x44 DUP3 ADD MSTORE PUSH1 0x64 ADD PUSH2 0x804 JUMP JUMPDEST PUSH1 0x1 PUSH1 0x1 PUSH1 0xA0 SHL SUB DUP3 AND PUSH1 0x0 SWAP1 DUP2 MSTORE PUSH1 0xB PUSH1 0x20 SWAP1 DUP2 MSTORE PUSH1 0x40 DUP1 DUP4 KECCAK256 CALLER DUP5 MSTORE SWAP1 SWAP2 MSTORE DUP2 KECCAK256 PUSH1 0x1 ADD SLOAD PUSH2 0x1ECA SWAP1 DUP4 SWAP1 PUSH2 0x3E22 JUMP JUMPDEST SWAP1 POP PUSH1 0x0 PUSH2 0x1ED8 DUP3 DUP5 PUSH2 0x446D JUMP JUMPDEST PUSH1 0x4 DUP1 SLOAD PUSH1 0x40 MLOAD PUSH4 0x27709E47 PUSH1 0xE1 SHL DUP2 MSTORE CALLER SWAP3 DUP2 ADD SWAP3 SWAP1 SWAP3 MSTORE PUSH1 0x1 PUSH1 0x1 PUSH1 0xA0 SHL SUB DUP8 DUP2 AND PUSH1 0x24 DUP5 ADD MSTORE PUSH1 0x44 DUP4 ADD DUP8 SWAP1 MSTORE PUSH1 0x64 DUP4 ADD DUP5 SWAP1 MSTORE PUSH1 0x84 DUP4 ADD DUP7 SWAP1 MSTORE SWAP3 SWAP4 POP SWAP2 SWAP1 SWAP2 AND SWAP1 PUSH4 0x4EE13C8E SWAP1 PUSH1 0xA4 ADD PUSH1 0x0 PUSH1 0x40 MLOAD DUP1 DUP4 SUB DUP2 PUSH1 0x0 DUP8 DUP1 EXTCODESIZE ISZERO DUP1 ISZERO PUSH2 0x1F41 JUMPI PUSH1 0x0 DUP1 REVERT JUMPDEST POP GAS CALL ISZERO DUP1 ISZERO PUSH2 0x1F55 JUMPI RETURNDATASIZE PUSH1 0x0 DUP1 RETURNDATACOPY RETURNDATASIZE PUSH1 0x0 REVERT JUMPDEST POP POP POP POP PUSH1 0x1 PUSH1 0x1 PUSH1 0xA0 SHL SUB DUP5 AND PUSH1 0x0 SWAP1 DUP2 MSTORE PUSH1 0xB PUSH1 0x20 SWAP1 DUP2 MSTORE PUSH1 0x40 DUP1 DUP4 KECCAK256 CALLER DUP5 MSTORE SWAP1 SWAP2 MSTORE DUP2 KECCAK256 DUP1 SLOAD DUP4 SWAP3 SWAP1 PUSH2 0x1F8C SWAP1 DUP5 SWAP1 PUSH2 0x446D JUMP JUMPDEST SWAP1 SWAP2 SSTORE POP POP PUSH1 0x1 PUSH1 0x1 PUSH1 0xA0 SHL SUB DUP5 AND PUSH1 0x0 SWAP1 DUP2 MSTORE PUSH1 0xB PUSH1 0x20 SWAP1 DUP2 MSTORE PUSH1 0x40 DUP1 DUP4 KECCAK256 CALLER DUP5 MSTORE SWAP1 SWAP2 MSTORE DUP2 KECCAK256 PUSH1 0x1 ADD DUP1 SLOAD DUP5 SWAP3 SWAP1 PUSH2 0x1FC7 SWAP1 DUP5 SWAP1 PUSH2 0x446D JUMP JUMPDEST SWAP1 SWAP2 SSTORE POP POP PUSH1 0x1 PUSH1 0x1 PUSH1 0xA0 SHL SUB DUP5 AND PUSH1 0x0 SWAP1 DUP2 MSTORE PUSH1 0xB PUSH1 0x20 SWAP1 DUP2 MSTORE PUSH1 0x40 DUP1 DUP4 KECCAK256 CALLER DUP5 MSTORE SWAP1 SWAP2 MSTORE SWAP1 KECCAK256 SLOAD PUSH2 0x2019 JUMPI PUSH1 0x1 PUSH1 0x1 PUSH1 0xA0 SHL SUB DUP5 AND PUSH1 0x0 SWAP1 DUP2 MSTORE PUSH1 0xB PUSH1 0x20 SWAP1 DUP2 MSTORE PUSH1 0x40 DUP1 DUP4 KECCAK256 CALLER DUP5 MSTORE SWAP1 SWAP2 MSTORE DUP2 KECCAK256 SSTORE JUMPDEST PUSH1 0x1 PUSH1 0x1 PUSH1 0xA0 SHL SUB DUP5 AND PUSH1 0x0 SWAP1 DUP2 MSTORE PUSH1 0xB PUSH1 0x20 SWAP1 DUP2 MSTORE PUSH1 0x40 DUP1 DUP4 KECCAK256 CALLER DUP5 MSTORE SWAP1 SWAP2 MSTORE SWAP1 KECCAK256 PUSH1 0x1 ADD SLOAD PUSH2 0x206C JUMPI PUSH1 0x1 PUSH1 0x1 PUSH1 0xA0 SHL SUB DUP5 AND PUSH1 0x0 SWAP1 DUP2 MSTORE PUSH1 0xB PUSH1 0x20 SWAP1 DUP2 MSTORE PUSH1 0x40 DUP1 DUP4 KECCAK256 CALLER DUP5 MSTORE SWAP1 SWAP2 MSTORE DUP2 KECCAK256 PUSH1 0x1 ADD SSTORE JUMPDEST PUSH1 0x4 DUP1 SLOAD PUSH1 0x40 MLOAD PUSH4 0x7E6E1DD9 PUSH1 0xE0 SHL DUP2 MSTORE PUSH1 0x1 PUSH1 0x1 PUSH1 0xA0 SHL SUB DUP8 DUP2 AND SWAP4 DUP3 ADD SWAP4 SWAP1 SWAP4 MSTORE SWAP2 AND SWAP1 PUSH4 0x7E6E1DD9 SWAP1 PUSH1 0x24 ADD PUSH1 0x0 PUSH1 0x40 MLOAD DUP1 DUP4 SUB DUP2 PUSH1 0x0 DUP8 DUP1 EXTCODESIZE ISZERO DUP1 ISZERO PUSH2 0x20B5 JUMPI PUSH1 0x0 DUP1 REVERT JUMPDEST POP GAS CALL ISZERO DUP1 ISZERO PUSH2 0x20C9 JUMPI RETURNDATASIZE PUSH1 0x0 DUP1 RETURNDATACOPY RETURNDATASIZE PUSH1 0x0 REVERT JUMPDEST POP POP POP POP PUSH32 0x2BB7C63EB15A05EBC1A5643F6D064397B45F326816B607769BF52FD7BD03951A CALLER DUP6 DUP6 PUSH1 0x40 MLOAD PUSH2 0x2100 SWAP4 SWAP3 SWAP2 SWAP1 PUSH2 0x44C5 JUMP JUMPDEST PUSH1 0x40 MLOAD DUP1 SWAP2 SUB SWAP1 LOG1 PUSH2 0x2110 PUSH2 0xE68 JUMP JUMPDEST POP POP POP POP JUMP JUMPDEST PUSH1 0x4 DUP1 SLOAD PUSH1 0x40 MLOAD PUSH4 0x5C88F5A5 PUSH1 0xE0 SHL DUP2 MSTORE PUSH1 0x1 PUSH1 0x1 PUSH1 0xA0 SHL SUB DUP5 DUP2 AND SWAP4 DUP3 ADD SWAP4 SWAP1 SWAP4 MSTORE PUSH1 0x0 SWAP3 SWAP1 SWAP2 AND SWAP1 PUSH4 0x5C88F5A5 SWAP1 PUSH1 0x24 ADD PUSH2 0x6D7 JUMP JUMPDEST PUSH2 0x2166 PUSH1 0x0 DUP1 MLOAD PUSH1 0x20 PUSH2 0x462F DUP4 CODECOPY DUP2 MLOAD SWAP2 MSTORE CALLER PUSH2 0x2D3F JUMP JUMPDEST PUSH2 0x2182 JUMPI PUSH1 0x40 MLOAD PUSH3 0x461BCD PUSH1 0xE5 SHL DUP2 MSTORE PUSH1 0x4 ADD PUSH2 0x804 SWAP1 PUSH2 0x43FB JUMP JUMPDEST PUSH1 0x5 SLOAD PUSH1 0x40 MLOAD PUSH4 0x6858EA07 PUSH1 0xE0 SHL DUP2 MSTORE PUSH1 0x1 PUSH1 0x1 PUSH1 0xA0 SHL SUB DUP5 DUP2 AND PUSH1 0x4 DUP4 ADD MSTORE PUSH1 0x24 DUP3 ADD DUP5 SWAP1 MSTORE SWAP1 SWAP2 AND SWAP1 PUSH4 0x6858EA07 SWAP1 PUSH1 0x44 ADD PUSH1 0x0 PUSH1 0x40 MLOAD DUP1 DUP4 SUB DUP2 PUSH1 0x0 DUP8 DUP1 EXTCODESIZE ISZERO DUP1 ISZERO PUSH2 0x21D0 JUMPI PUSH1 0x0 DUP1 REVERT JUMPDEST POP GAS CALL ISZERO DUP1 ISZERO PUSH2 0x21E4 JUMPI RETURNDATASIZE PUSH1 0x0 DUP1 RETURNDATACOPY RETURNDATASIZE PUSH1 0x0 REVERT JUMPDEST POP POP POP POP POP POP JUMP JUMPDEST PUSH1 0x6 SLOAD PUSH1 0x40 DUP1 MLOAD PUSH4 0xCF55F37 PUSH1 0xE2 SHL DUP2 MSTORE SWAP1 MLOAD PUSH1 0x0 SWAP3 PUSH1 0x1 PUSH1 0x1 PUSH1 0xA0 SHL SUB AND SWAP2 PUSH4 0x33D57CDC SWAP2 PUSH1 0x4 DUP1 DUP4 ADD SWAP3 PUSH1 0x20 SWAP3 SWAP2 SWAP1 DUP3 SWAP1 SUB ADD DUP2 DUP7 GAS STATICCALL ISZERO DUP1 ISZERO PUSH2 0x7A5 JUMPI RETURNDATASIZE PUSH1 0x0 DUP1 RETURNDATACOPY RETURNDATASIZE PUSH1 0x0 REVERT JUMPDEST PUSH1 0x4 DUP1 SLOAD PUSH1 0x40 MLOAD PUSH4 0x680C815D PUSH1 0xE1 SHL DUP2 MSTORE PUSH1 0x1 PUSH1 0x1 PUSH1 0xA0 SHL SUB DUP5 DUP2 AND SWAP4 DUP3 ADD SWAP4 SWAP1 SWAP4 MSTORE PUSH1 0x0 SWAP3 SWAP1 SWAP2 AND SWAP1 PUSH4 0xD01902BA SWAP1 PUSH1 0x24 ADD PUSH2 0x6D7 JUMP JUMPDEST PUSH1 0x1 PUSH1 0x1 PUSH1 0xA0 SHL SUB DUP3 AND PUSH1 0x0 SWAP1 DUP2 MSTORE PUSH1 0xA PUSH1 0x20 MSTORE PUSH1 0x40 SWAP1 KECCAK256 SLOAD PUSH1 0xFF AND PUSH2 0x22A6 JUMPI PUSH1 0x40 MLOAD PUSH3 0x461BCD PUSH1 0xE5 SHL DUP2 MSTORE PUSH1 0x4 ADD PUSH2 0x804 SWAP1 PUSH2 0x450B JUMP JUMPDEST PUSH1 0x6 SLOAD PUSH1 0x40 MLOAD PUSH4 0x70A08231 PUSH1 0xE0 SHL DUP2 MSTORE CALLER PUSH1 0x4 DUP3 ADD MSTORE DUP3 SWAP2 PUSH1 0x1 PUSH1 0x1 PUSH1 0xA0 SHL SUB AND SWAP1 PUSH4 0x70A08231 SWAP1 PUSH1 0x24 ADD PUSH1 0x20 PUSH1 0x40 MLOAD DUP1 DUP4 SUB DUP2 DUP7 GAS STATICCALL ISZERO DUP1 ISZERO PUSH2 0x22EE JUMPI RETURNDATASIZE PUSH1 0x0 DUP1 RETURNDATACOPY RETURNDATASIZE PUSH1 0x0 REVERT JUMPDEST POP POP POP POP PUSH1 0x40 MLOAD RETURNDATASIZE PUSH1 0x1F NOT PUSH1 0x1F DUP3 ADD AND DUP3 ADD DUP1 PUSH1 0x40 MSTORE POP DUP2 ADD SWAP1 PUSH2 0x2312 SWAP2 SWAP1 PUSH2 0x43E2 JUMP JUMPDEST LT ISZERO PUSH2 0x2374 JUMPI PUSH1 0x40 MLOAD PUSH3 0x461BCD PUSH1 0xE5 SHL DUP2 MSTORE PUSH1 0x20 PUSH1 0x4 DUP3 ADD MSTORE PUSH1 0x2B PUSH1 0x24 DUP3 ADD MSTORE PUSH32 0x43616E6E6F742072656465656D206D6F726520746F6B656E73207468616E206E PUSH1 0x44 DUP3 ADD MSTORE PUSH11 0x1D5B58995C881BDDDB9959 PUSH1 0xAA SHL PUSH1 0x64 DUP3 ADD MSTORE PUSH1 0x84 ADD PUSH2 0x804 JUMP JUMPDEST PUSH2 0x237C PUSH2 0x3B02 JUMP JUMPDEST PUSH1 0x3 SLOAD PUSH1 0x40 MLOAD PUSH4 0x41976E09 PUSH1 0xE0 SHL DUP2 MSTORE PUSH1 0x1 PUSH1 0x1 PUSH1 0xA0 SHL SUB DUP5 DUP2 AND PUSH1 0x4 DUP4 ADD MSTORE PUSH1 0x0 SWAP3 AND SWAP1 PUSH4 0x41976E09 SWAP1 PUSH1 0x24 ADD PUSH1 0x20 PUSH1 0x40 MLOAD DUP1 DUP4 SUB DUP2 DUP7 GAS STATICCALL ISZERO DUP1 ISZERO PUSH2 0x23C7 JUMPI RETURNDATASIZE PUSH1 0x0 DUP1 RETURNDATACOPY RETURNDATASIZE PUSH1 0x0 REVERT JUMPDEST POP POP POP POP PUSH1 0x40 MLOAD RETURNDATASIZE PUSH1 0x1F NOT PUSH1 0x1F DUP3 ADD AND DUP3 ADD DUP1 PUSH1 0x40 MSTORE POP DUP2 ADD SWAP1 PUSH2 0x23EB SWAP2 SWAP1 PUSH2 0x43E2 JUMP JUMPDEST SWAP1 POP PUSH1 0x0 DUP2 PUSH1 0x6 PUSH1 0x0 SWAP1 SLOAD SWAP1 PUSH2 0x100 EXP SWAP1 DIV PUSH1 0x1 PUSH1 0x1 PUSH1 0xA0 SHL SUB AND PUSH1 0x1 PUSH1 0x1 PUSH1 0xA0 SHL SUB AND PUSH4 0x33D57CDC PUSH1 0x40 MLOAD DUP2 PUSH4 0xFFFFFFFF AND PUSH1 0xE0 SHL DUP2 MSTORE PUSH1 0x4 ADD PUSH1 0x20 PUSH1 0x40 MLOAD DUP1 DUP4 SUB DUP2 DUP7 GAS STATICCALL ISZERO DUP1 ISZERO PUSH2 0x2443 JUMPI RETURNDATASIZE PUSH1 0x0 DUP1 RETURNDATACOPY RETURNDATASIZE PUSH1 0x0 REVERT JUMPDEST POP POP POP POP PUSH1 0x40 MLOAD RETURNDATASIZE PUSH1 0x1F NOT PUSH1 0x1F DUP3 ADD AND DUP3 ADD DUP1 PUSH1 0x40 MSTORE POP DUP2 ADD SWAP1 PUSH2 0x2467 SWAP2 SWAP1 PUSH2 0x43E2 JUMP JUMPDEST PUSH2 0x2471 SWAP1 DUP6 PUSH2 0x4484 JUMP JUMPDEST PUSH2 0x247B SWAP2 SWAP1 PUSH2 0x44A3 JUMP JUMPDEST PUSH1 0x6 SLOAD PUSH1 0x40 MLOAD PUSH4 0x2770A7EB PUSH1 0xE2 SHL DUP2 MSTORE CALLER PUSH1 0x4 DUP3 ADD MSTORE PUSH1 0x24 DUP2 ADD DUP7 SWAP1 MSTORE SWAP2 SWAP3 POP PUSH1 0x1 PUSH1 0x1 PUSH1 0xA0 SHL SUB AND SWAP1 PUSH4 0x9DC29FAC SWAP1 PUSH1 0x44 ADD PUSH1 0x0 PUSH1 0x40 MLOAD DUP1 DUP4 SUB DUP2 PUSH1 0x0 DUP8 DUP1 EXTCODESIZE ISZERO DUP1 ISZERO PUSH2 0x24C8 JUMPI PUSH1 0x0 DUP1 REVERT JUMPDEST POP GAS CALL ISZERO DUP1 ISZERO PUSH2 0x24DC JUMPI RETURNDATASIZE PUSH1 0x0 DUP1 RETURNDATACOPY RETURNDATASIZE PUSH1 0x0 REVERT JUMPDEST POP POP CALLER PUSH1 0x0 SWAP1 DUP2 MSTORE PUSH1 0x8 PUSH1 0x20 MSTORE PUSH1 0x40 DUP2 KECCAK256 DUP1 SLOAD DUP8 SWAP5 POP SWAP1 SWAP3 POP PUSH2 0x2500 SWAP1 DUP5 SWAP1 PUSH2 0x446D JUMP JUMPDEST SWAP1 SWAP2 SSTORE POP POP CALLER PUSH1 0x0 SWAP1 DUP2 MSTORE PUSH1 0x8 PUSH1 0x20 MSTORE PUSH1 0x40 SWAP1 KECCAK256 SLOAD PUSH2 0x252A JUMPI CALLER PUSH1 0x0 SWAP1 DUP2 MSTORE PUSH1 0x8 PUSH1 0x20 MSTORE PUSH1 0x40 DUP2 KECCAK256 SSTORE JUMPDEST PUSH1 0x1 PUSH1 0x1 PUSH1 0xA0 SHL SUB DUP5 AND PUSH1 0x0 SWAP1 DUP2 MSTORE PUSH1 0xC PUSH1 0x20 SWAP1 DUP2 MSTORE PUSH1 0x40 DUP1 DUP4 KECCAK256 CALLER DUP5 MSTORE SWAP1 SWAP2 MSTORE SWAP1 KECCAK256 SLOAD PUSH2 0x25BC JUMPI PUSH1 0x4 DUP1 SLOAD PUSH1 0x40 MLOAD PUSH4 0x995E995B PUSH1 0xE0 SHL DUP2 MSTORE PUSH1 0x1 PUSH1 0x1 PUSH1 0xA0 SHL SUB SWAP1 SWAP2 AND SWAP2 PUSH4 0x995E995B SWAP2 PUSH2 0x2585 SWAP2 CALLER SWAP2 DUP10 SWAP2 DUP8 SWAP2 ADD PUSH2 0x44C5 JUMP JUMPDEST PUSH1 0x0 PUSH1 0x40 MLOAD DUP1 DUP4 SUB DUP2 PUSH1 0x0 DUP8 DUP1 EXTCODESIZE ISZERO DUP1 ISZERO PUSH2 0x259F JUMPI PUSH1 0x0 DUP1 REVERT JUMPDEST POP GAS CALL ISZERO DUP1 ISZERO PUSH2 0x25B3 JUMPI RETURNDATASIZE PUSH1 0x0 DUP1 RETURNDATACOPY RETURNDATASIZE PUSH1 0x0 REVERT JUMPDEST POP POP POP POP PUSH2 0x2C7E JUMP JUMPDEST PUSH1 0x1 PUSH1 0x1 PUSH1 0xA0 SHL SUB DUP5 AND PUSH1 0x0 SWAP1 DUP2 MSTORE PUSH1 0xC PUSH1 0x20 SWAP1 DUP2 MSTORE PUSH1 0x40 DUP1 DUP4 KECCAK256 CALLER DUP5 MSTORE SWAP1 SWAP2 MSTORE SWAP1 KECCAK256 SLOAD DUP2 GT ISZERO PUSH2 0x297C JUMPI PUSH1 0x1 PUSH1 0x1 PUSH1 0xA0 SHL SUB DUP5 AND PUSH1 0x0 SWAP1 DUP2 MSTORE PUSH1 0xC PUSH1 0x20 SWAP1 DUP2 MSTORE PUSH1 0x40 DUP1 DUP4 KECCAK256 CALLER DUP5 MSTORE SWAP1 SWAP2 MSTORE DUP2 KECCAK256 SLOAD PUSH2 0x2615 SWAP1 DUP4 PUSH2 0x446D JUMP JUMPDEST PUSH1 0x4 DUP1 SLOAD PUSH1 0x40 MLOAD PUSH4 0xFCE3E8E7 PUSH1 0xE0 SHL DUP2 MSTORE PUSH1 0x1 PUSH1 0x1 PUSH1 0xA0 SHL SUB DUP10 DUP2 AND SWAP4 DUP3 ADD SWAP4 SWAP1 SWAP4 MSTORE SWAP3 SWAP4 POP AND SWAP1 PUSH4 0xFCE3E8E7 SWAP1 PUSH1 0x24 ADD PUSH1 0x20 PUSH1 0x40 MLOAD DUP1 DUP4 SUB DUP2 DUP7 GAS STATICCALL ISZERO DUP1 ISZERO PUSH2 0x2663 JUMPI RETURNDATASIZE PUSH1 0x0 DUP1 RETURNDATACOPY RETURNDATASIZE PUSH1 0x0 REVERT JUMPDEST POP POP POP POP PUSH1 0x40 MLOAD RETURNDATASIZE PUSH1 0x1F NOT PUSH1 0x1F DUP3 ADD AND DUP3 ADD DUP1 PUSH1 0x40 MSTORE POP DUP2 ADD SWAP1 PUSH2 0x2687 SWAP2 SWAP1 PUSH2 0x43E2 JUMP JUMPDEST PUSH1 0x1 PUSH1 0x1 PUSH1 0xA0 SHL SUB DUP7 AND PUSH1 0x0 SWAP1 DUP2 MSTORE PUSH1 0xC PUSH1 0x20 SWAP1 DUP2 MSTORE PUSH1 0x40 DUP1 DUP4 KECCAK256 CALLER DUP5 MSTORE SWAP1 SWAP2 MSTORE SWAP1 KECCAK256 SLOAD GT ISZERO PUSH2 0x2868 JUMPI PUSH1 0x4 DUP1 SLOAD PUSH1 0x40 MLOAD PUSH4 0xFCE3E8E7 PUSH1 0xE0 SHL DUP2 MSTORE PUSH1 0x1 PUSH1 0x1 PUSH1 0xA0 SHL SUB DUP9 DUP2 AND SWAP4 DUP3 ADD SWAP4 SWAP1 SWAP4 MSTORE PUSH1 0x0 SWAP3 SWAP1 SWAP2 AND SWAP1 PUSH4 0xFCE3E8E7 SWAP1 PUSH1 0x24 ADD PUSH1 0x20 PUSH1 0x40 MLOAD DUP1 DUP4 SUB DUP2 DUP7 GAS STATICCALL ISZERO DUP1 ISZERO PUSH2 0x2701 JUMPI RETURNDATASIZE PUSH1 0x0 DUP1 RETURNDATACOPY RETURNDATASIZE PUSH1 0x0 REVERT JUMPDEST POP POP POP POP PUSH1 0x40 MLOAD RETURNDATASIZE PUSH1 0x1F NOT PUSH1 0x1F DUP3 ADD AND DUP3 ADD DUP1 PUSH1 0x40 MSTORE POP DUP2 ADD SWAP1 PUSH2 0x2725 SWAP2 SWAP1 PUSH2 0x43E2 JUMP JUMPDEST PUSH2 0x272F SWAP1 DUP5 PUSH2 0x446D JUMP JUMPDEST PUSH1 0x4 DUP1 SLOAD PUSH1 0x40 MLOAD PUSH4 0xFCE3E8E7 PUSH1 0xE0 SHL DUP2 MSTORE PUSH1 0x1 PUSH1 0x1 PUSH1 0xA0 SHL SUB DUP11 DUP2 AND SWAP4 DUP3 ADD SWAP4 SWAP1 SWAP4 MSTORE SWAP3 SWAP4 POP AND SWAP1 PUSH4 0xFCBFC2C8 SWAP1 CALLER SWAP1 DUP10 SWAP1 DUP5 SWAP1 PUSH4 0xFCE3E8E7 SWAP1 PUSH1 0x24 ADD PUSH1 0x20 PUSH1 0x40 MLOAD DUP1 DUP4 SUB DUP2 DUP7 GAS STATICCALL ISZERO DUP1 ISZERO PUSH2 0x2789 JUMPI RETURNDATASIZE PUSH1 0x0 DUP1 RETURNDATACOPY RETURNDATASIZE PUSH1 0x0 REVERT JUMPDEST POP POP POP POP PUSH1 0x40 MLOAD RETURNDATASIZE PUSH1 0x1F NOT PUSH1 0x1F DUP3 ADD AND DUP3 ADD DUP1 PUSH1 0x40 MSTORE POP DUP2 ADD SWAP1 PUSH2 0x27AD SWAP2 SWAP1 PUSH2 0x43E2 JUMP JUMPDEST PUSH1 0x40 MLOAD DUP5 PUSH4 0xFFFFFFFF AND PUSH1 0xE0 SHL DUP2 MSTORE PUSH1 0x4 ADD PUSH2 0x27CB SWAP4 SWAP3 SWAP2 SWAP1 PUSH2 0x44C5 JUMP JUMPDEST PUSH1 0x0 PUSH1 0x40 MLOAD DUP1 DUP4 SUB DUP2 PUSH1 0x0 DUP8 DUP1 EXTCODESIZE ISZERO DUP1 ISZERO PUSH2 0x27E5 JUMPI PUSH1 0x0 DUP1 REVERT JUMPDEST POP GAS CALL ISZERO DUP1 ISZERO PUSH2 0x27F9 JUMPI RETURNDATASIZE PUSH1 0x0 DUP1 RETURNDATACOPY RETURNDATASIZE PUSH1 0x0 REVERT JUMPDEST POP POP PUSH1 0x4 DUP1 SLOAD PUSH1 0x40 MLOAD PUSH4 0x995E995B PUSH1 0xE0 SHL DUP2 MSTORE PUSH1 0x1 PUSH1 0x1 PUSH1 0xA0 SHL SUB SWAP1 SWAP2 AND SWAP4 POP PUSH4 0x995E995B SWAP3 POP PUSH2 0x2830 SWAP2 CALLER SWAP2 DUP12 SWAP2 DUP8 SWAP2 ADD PUSH2 0x44C5 JUMP JUMPDEST PUSH1 0x0 PUSH1 0x40 MLOAD DUP1 DUP4 SUB DUP2 PUSH1 0x0 DUP8 DUP1 EXTCODESIZE ISZERO DUP1 ISZERO PUSH2 0x284A JUMPI PUSH1 0x0 DUP1 REVERT JUMPDEST POP GAS CALL ISZERO DUP1 ISZERO PUSH2 0x285E JUMPI RETURNDATASIZE PUSH1 0x0 DUP1 RETURNDATACOPY RETURNDATASIZE PUSH1 0x0 REVERT JUMPDEST POP POP POP POP POP PUSH2 0x2952 JUMP JUMPDEST PUSH1 0x4 DUP1 SLOAD PUSH1 0x1 PUSH1 0x1 PUSH1 0xA0 SHL SUB DUP8 DUP2 AND PUSH1 0x0 SWAP1 DUP2 MSTORE PUSH1 0xC PUSH1 0x20 SWAP1 DUP2 MSTORE PUSH1 0x40 DUP1 DUP4 KECCAK256 CALLER DUP1 DUP6 MSTORE SWAP3 MSTORE SWAP2 DUP3 SWAP1 KECCAK256 SLOAD SWAP2 MLOAD PUSH4 0x1F97F859 PUSH1 0xE3 SHL DUP2 MSTORE SWAP3 SWAP1 SWAP4 AND SWAP4 PUSH4 0xFCBFC2C8 SWAP4 PUSH2 0x28BA SWAP4 SWAP1 SWAP3 DUP12 SWAP3 SWAP1 SWAP2 ADD PUSH2 0x44C5 JUMP JUMPDEST PUSH1 0x0 PUSH1 0x40 MLOAD DUP1 DUP4 SUB DUP2 PUSH1 0x0 DUP8 DUP1 EXTCODESIZE ISZERO DUP1 ISZERO PUSH2 0x28D4 JUMPI PUSH1 0x0 DUP1 REVERT JUMPDEST POP GAS CALL ISZERO DUP1 ISZERO PUSH2 0x28E8 JUMPI RETURNDATASIZE PUSH1 0x0 DUP1 RETURNDATACOPY RETURNDATASIZE PUSH1 0x0 REVERT JUMPDEST POP POP PUSH1 0x4 DUP1 SLOAD PUSH1 0x40 MLOAD PUSH4 0x995E995B PUSH1 0xE0 SHL DUP2 MSTORE PUSH1 0x1 PUSH1 0x1 PUSH1 0xA0 SHL SUB SWAP1 SWAP2 AND SWAP4 POP PUSH4 0x995E995B SWAP3 POP PUSH2 0x291F SWAP2 CALLER SWAP2 DUP11 SWAP2 DUP8 SWAP2 ADD PUSH2 0x44C5 JUMP JUMPDEST PUSH1 0x0 PUSH1 0x40 MLOAD DUP1 DUP4 SUB DUP2 PUSH1 0x0 DUP8 DUP1 EXTCODESIZE ISZERO DUP1 ISZERO PUSH2 0x2939 JUMPI PUSH1 0x0 DUP1 REVERT JUMPDEST POP GAS CALL ISZERO DUP1 ISZERO PUSH2 0x294D JUMPI RETURNDATASIZE PUSH1 0x0 DUP1 RETURNDATACOPY RETURNDATASIZE PUSH1 0x0 REVERT JUMPDEST POP POP POP POP JUMPDEST POP PUSH1 0x1 PUSH1 0x1 PUSH1 0xA0 SHL SUB DUP5 AND PUSH1 0x0 SWAP1 DUP2 MSTORE PUSH1 0xC PUSH1 0x20 SWAP1 DUP2 MSTORE PUSH1 0x40 DUP1 DUP4 KECCAK256 CALLER DUP5 MSTORE SWAP1 SWAP2 MSTORE DUP2 KECCAK256 SSTORE PUSH2 0x2C7E JUMP JUMPDEST PUSH1 0x1 PUSH1 0x1 PUSH1 0xA0 SHL SUB DUP5 AND PUSH1 0x0 SWAP1 DUP2 MSTORE PUSH1 0xC PUSH1 0x20 SWAP1 DUP2 MSTORE PUSH1 0x40 DUP1 DUP4 KECCAK256 CALLER DUP5 MSTORE SWAP1 SWAP2 MSTORE DUP2 KECCAK256 SLOAD PUSH2 0x29AB SWAP1 DUP4 SWAP1 PUSH2 0x3E22 JUMP JUMPDEST PUSH1 0x1 PUSH1 0x1 PUSH1 0xA0 SHL SUB DUP7 AND PUSH1 0x0 SWAP1 DUP2 MSTORE PUSH1 0xC PUSH1 0x20 SWAP1 DUP2 MSTORE PUSH1 0x40 DUP1 DUP4 KECCAK256 CALLER DUP5 MSTORE SWAP1 SWAP2 MSTORE DUP2 KECCAK256 DUP1 SLOAD SWAP3 SWAP4 POP DUP4 SWAP3 SWAP1 SWAP2 SWAP1 PUSH2 0x29E3 SWAP1 DUP5 SWAP1 PUSH2 0x446D JUMP JUMPDEST SWAP1 SWAP2 SSTORE POP POP PUSH1 0x4 DUP1 SLOAD PUSH1 0x40 MLOAD PUSH4 0xFCE3E8E7 PUSH1 0xE0 SHL DUP2 MSTORE PUSH1 0x1 PUSH1 0x1 PUSH1 0xA0 SHL SUB DUP9 DUP2 AND SWAP4 DUP3 ADD SWAP4 SWAP1 SWAP4 MSTORE SWAP2 AND SWAP1 PUSH4 0xFCE3E8E7 SWAP1 PUSH1 0x24 ADD PUSH1 0x20 PUSH1 0x40 MLOAD DUP1 DUP4 SUB DUP2 DUP7 GAS STATICCALL ISZERO DUP1 ISZERO PUSH2 0x2A34 JUMPI RETURNDATASIZE PUSH1 0x0 DUP1 RETURNDATACOPY RETURNDATASIZE PUSH1 0x0 REVERT JUMPDEST POP POP POP POP PUSH1 0x40 MLOAD RETURNDATASIZE PUSH1 0x1F NOT PUSH1 0x1F DUP3 ADD AND DUP3 ADD DUP1 PUSH1 0x40 MSTORE POP DUP2 ADD SWAP1 PUSH2 0x2A58 SWAP2 SWAP1 PUSH2 0x43E2 JUMP JUMPDEST DUP2 GT ISZERO PUSH2 0x2C16 JUMPI PUSH1 0x4 DUP1 SLOAD PUSH1 0x40 MLOAD PUSH4 0xFCE3E8E7 PUSH1 0xE0 SHL DUP2 MSTORE PUSH1 0x1 PUSH1 0x1 PUSH1 0xA0 SHL SUB DUP9 DUP2 AND SWAP4 DUP3 ADD SWAP4 SWAP1 SWAP4 MSTORE PUSH1 0x0 SWAP3 SWAP1 SWAP2 AND SWAP1 PUSH4 0xFCE3E8E7 SWAP1 PUSH1 0x24 ADD PUSH1 0x20 PUSH1 0x40 MLOAD DUP1 DUP4 SUB DUP2 DUP7 GAS STATICCALL ISZERO DUP1 ISZERO PUSH2 0x2AAF JUMPI RETURNDATASIZE PUSH1 0x0 DUP1 RETURNDATACOPY RETURNDATASIZE PUSH1 0x0 REVERT JUMPDEST POP POP POP POP PUSH1 0x40 MLOAD RETURNDATASIZE PUSH1 0x1F NOT PUSH1 0x1F DUP3 ADD AND DUP3 ADD DUP1 PUSH1 0x40 MSTORE POP DUP2 ADD SWAP1 PUSH2 0x2AD3 SWAP2 SWAP1 PUSH2 0x43E2 JUMP JUMPDEST PUSH2 0x2ADD SWAP1 DUP4 PUSH2 0x446D JUMP JUMPDEST PUSH1 0x4 DUP1 SLOAD PUSH1 0x40 MLOAD PUSH4 0xFCE3E8E7 PUSH1 0xE0 SHL DUP2 MSTORE PUSH1 0x1 PUSH1 0x1 PUSH1 0xA0 SHL SUB DUP11 DUP2 AND SWAP4 DUP3 ADD SWAP4 SWAP1 SWAP4 MSTORE SWAP3 SWAP4 POP AND SWAP1 PUSH4 0xFCBFC2C8 SWAP1 CALLER SWAP1 DUP10 SWAP1 DUP5 SWAP1 PUSH4 0xFCE3E8E7 SWAP1 PUSH1 0x24 ADD PUSH1 0x20 PUSH1 0x40 MLOAD DUP1 DUP4 SUB DUP2 DUP7 GAS STATICCALL ISZERO DUP1 ISZERO PUSH2 0x2B37 JUMPI RETURNDATASIZE PUSH1 0x0 DUP1 RETURNDATACOPY RETURNDATASIZE PUSH1 0x0 REVERT JUMPDEST POP POP POP POP PUSH1 0x40 MLOAD RETURNDATASIZE PUSH1 0x1F NOT PUSH1 0x1F DUP3 ADD AND DUP3 ADD DUP1 PUSH1 0x40 MSTORE POP DUP2 ADD SWAP1 PUSH2 0x2B5B SWAP2 SWAP1 PUSH2 0x43E2 JUMP JUMPDEST PUSH1 0x40 MLOAD DUP5 PUSH4 0xFFFFFFFF AND PUSH1 0xE0 SHL DUP2 MSTORE PUSH1 0x4 ADD PUSH2 0x2B79 SWAP4 SWAP3 SWAP2 SWAP1 PUSH2 0x44C5 JUMP JUMPDEST PUSH1 0x0 PUSH1 0x40 MLOAD DUP1 DUP4 SUB DUP2 PUSH1 0x0 DUP8 DUP1 EXTCODESIZE ISZERO DUP1 ISZERO PUSH2 0x2B93 JUMPI PUSH1 0x0 DUP1 REVERT JUMPDEST POP GAS CALL ISZERO DUP1 ISZERO PUSH2 0x2BA7 JUMPI RETURNDATASIZE PUSH1 0x0 DUP1 RETURNDATACOPY RETURNDATASIZE PUSH1 0x0 REVERT JUMPDEST POP POP PUSH1 0x4 DUP1 SLOAD PUSH1 0x40 MLOAD PUSH4 0x995E995B PUSH1 0xE0 SHL DUP2 MSTORE PUSH1 0x1 PUSH1 0x1 PUSH1 0xA0 SHL SUB SWAP1 SWAP2 AND SWAP4 POP PUSH4 0x995E995B SWAP3 POP PUSH2 0x2BDE SWAP2 CALLER SWAP2 DUP12 SWAP2 DUP8 SWAP2 ADD PUSH2 0x44C5 JUMP JUMPDEST PUSH1 0x0 PUSH1 0x40 MLOAD DUP1 DUP4 SUB DUP2 PUSH1 0x0 DUP8 DUP1 EXTCODESIZE ISZERO DUP1 ISZERO PUSH2 0x2BF8 JUMPI PUSH1 0x0 DUP1 REVERT JUMPDEST POP GAS CALL ISZERO DUP1 ISZERO PUSH2 0x2C0C JUMPI RETURNDATASIZE PUSH1 0x0 DUP1 RETURNDATACOPY RETURNDATASIZE PUSH1 0x0 REVERT JUMPDEST POP POP POP POP POP PUSH2 0x2C7C JUMP JUMPDEST PUSH1 0x4 DUP1 SLOAD PUSH1 0x40 MLOAD PUSH4 0x1F97F859 PUSH1 0xE3 SHL DUP2 MSTORE PUSH1 0x1 PUSH1 0x1 PUSH1 0xA0 SHL SUB SWAP1 SWAP2 AND SWAP2 PUSH4 0xFCBFC2C8 SWAP2 PUSH2 0x2C49 SWAP2 CALLER SWAP2 DUP11 SWAP2 DUP9 SWAP2 ADD PUSH2 0x44C5 JUMP JUMPDEST PUSH1 0x0 PUSH1 0x40 MLOAD DUP1 DUP4 SUB DUP2 PUSH1 0x0 DUP8 DUP1 EXTCODESIZE ISZERO DUP1 ISZERO PUSH2 0x2C63 JUMPI PUSH1 0x0 DUP1 REVERT JUMPDEST POP GAS CALL ISZERO DUP1 ISZERO PUSH2 0x2C77 JUMPI RETURNDATASIZE PUSH1 0x0 DUP1 RETURNDATACOPY RETURNDATASIZE PUSH1 0x0 REVERT JUMPDEST POP POP POP POP JUMPDEST POP JUMPDEST PUSH1 0x4 DUP1 SLOAD PUSH1 0x40 MLOAD PUSH4 0x7E6E1DD9 PUSH1 0xE0 SHL DUP2 MSTORE PUSH1 0x1 PUSH1 0x1 PUSH1 0xA0 SHL SUB DUP8 DUP2 AND SWAP4 DUP3 ADD SWAP4 SWAP1 SWAP4 MSTORE SWAP2 AND SWAP1 PUSH4 0x7E6E1DD9 SWAP1 PUSH1 0x24 ADD PUSH1 0x0 PUSH1 0x40 MLOAD DUP1 DUP4 SUB DUP2 PUSH1 0x0 DUP8 DUP1 EXTCODESIZE ISZERO DUP1 ISZERO PUSH2 0x2CC7 JUMPI PUSH1 0x0 DUP1 REVERT JUMPDEST POP GAS CALL ISZERO DUP1 ISZERO PUSH2 0x2CDB JUMPI RETURNDATASIZE PUSH1 0x0 DUP1 RETURNDATACOPY RETURNDATASIZE PUSH1 0x0 REVERT JUMPDEST POP POP POP POP PUSH32 0x9A2C2E027B0E93D2BAB8A1DB6764850FAF19C3F41EC55C77E319131FA38176E6 CALLER DUP6 DUP6 PUSH1 0x40 MLOAD PUSH2 0x2D12 SWAP4 SWAP3 SWAP2 SWAP1 PUSH2 0x44C5 JUMP JUMPDEST PUSH1 0x40 MLOAD DUP1 SWAP2 SUB SWAP1 LOG1 POP POP POP POP JUMP JUMPDEST PUSH1 0x0 DUP3 DUP2 MSTORE PUSH1 0x1 PUSH1 0x20 MSTORE PUSH1 0x40 DUP2 KECCAK256 PUSH2 0x2D38 SWAP1 DUP4 PUSH2 0x3E2E JUMP JUMPDEST SWAP4 SWAP3 POP POP POP JUMP JUMPDEST PUSH1 0x0 SWAP2 DUP3 MSTORE PUSH1 0x20 DUP3 DUP2 MSTORE PUSH1 0x40 DUP1 DUP5 KECCAK256 PUSH1 0x1 PUSH1 0x1 PUSH1 0xA0 SHL SUB SWAP4 SWAP1 SWAP4 AND DUP5 MSTORE SWAP2 SWAP1 MSTORE SWAP1 KECCAK256 SLOAD PUSH1 0xFF AND SWAP1 JUMP JUMPDEST PUSH1 0x5 SLOAD PUSH1 0x40 MLOAD PUSH4 0x1D512A91 PUSH1 0xE2 SHL DUP2 MSTORE PUSH1 0x1 PUSH1 0x1 PUSH1 0xA0 SHL SUB DUP4 DUP2 AND PUSH1 0x4 DUP4 ADD MSTORE PUSH1 0x0 SWAP3 AND SWAP1 PUSH4 0x7544AA44 SWAP1 PUSH1 0x24 ADD PUSH2 0x6D7 JUMP JUMPDEST PUSH1 0x6 SLOAD PUSH1 0x40 MLOAD PUSH4 0x70A08231 PUSH1 0xE0 SHL DUP2 MSTORE PUSH1 0x1 PUSH1 0x1 PUSH1 0xA0 SHL SUB DUP4 DUP2 AND PUSH1 0x4 DUP4 ADD MSTORE PUSH1 0x0 SWAP3 AND SWAP1 PUSH4 0x70A08231 SWAP1 PUSH1 0x24 ADD PUSH2 0x6D7 JUMP JUMPDEST PUSH2 0x2DE6 PUSH1 0x0 DUP1 MLOAD PUSH1 0x20 PUSH2 0x462F DUP4 CODECOPY DUP2 MLOAD SWAP2 MSTORE CALLER PUSH2 0x2D3F JUMP JUMPDEST PUSH2 0x2E02 JUMPI PUSH1 0x40 MLOAD PUSH3 0x461BCD PUSH1 0xE5 SHL DUP2 MSTORE PUSH1 0x4 ADD PUSH2 0x804 SWAP1 PUSH2 0x43FB JUMP JUMPDEST PUSH1 0x9 DUP1 SLOAD PUSH1 0x1 DUP2 ADD DUP3 SSTORE PUSH1 0x0 SWAP2 SWAP1 SWAP2 MSTORE PUSH32 0x6E1540171B6C0C960B71A7020D9F60077F6AF931A8BBF590DA0223DACF75C7AF ADD DUP1 SLOAD PUSH1 0x1 PUSH1 0x1 PUSH1 0xA0 SHL SUB NOT AND PUSH1 0x1 PUSH1 0x1 PUSH1 0xA0 SHL SUB DUP4 DUP2 AND SWAP2 DUP3 OR SWAP1 SWAP3 SSTORE PUSH1 0x4 DUP1 SLOAD PUSH1 0x40 MLOAD PUSH4 0xFAC09E87 PUSH1 0xE0 SHL DUP2 MSTORE SWAP2 DUP3 ADD SWAP3 SWAP1 SWAP3 MSTORE SWAP2 AND SWAP1 PUSH4 0xFAC09E87 SWAP1 PUSH1 0x24 ADD PUSH1 0x0 PUSH1 0x40 MLOAD DUP1 DUP4 SUB DUP2 PUSH1 0x0 DUP8 DUP1 EXTCODESIZE ISZERO DUP1 ISZERO PUSH2 0x2E8F JUMPI PUSH1 0x0 DUP1 REVERT JUMPDEST POP GAS CALL ISZERO DUP1 ISZERO PUSH2 0x2EA3 JUMPI RETURNDATASIZE PUSH1 0x0 DUP1 RETURNDATACOPY RETURNDATASIZE PUSH1 0x0 REVERT JUMPDEST POP POP PUSH1 0x5 SLOAD PUSH1 0x40 MLOAD PUSH4 0xFAC09E87 PUSH1 0xE0 SHL DUP2 MSTORE PUSH1 0x1 PUSH1 0x1 PUSH1 0xA0 SHL SUB DUP6 DUP2 AND PUSH1 0x4 DUP4 ADD MSTORE SWAP1 SWAP2 AND SWAP3 POP PUSH4 0xFAC09E87 SWAP2 POP PUSH1 0x24 ADD PUSH1 0x0 PUSH1 0x40 MLOAD DUP1 DUP4 SUB DUP2 PUSH1 0x0 DUP8 DUP1 EXTCODESIZE ISZERO DUP1 ISZERO PUSH2 0x2EEE JUMPI PUSH1 0x0 DUP1 REVERT JUMPDEST POP GAS CALL ISZERO DUP1 ISZERO PUSH2 0x2F02 JUMPI RETURNDATASIZE PUSH1 0x0 DUP1 RETURNDATACOPY RETURNDATASIZE PUSH1 0x0 REVERT JUMPDEST POP POP POP POP POP JUMP JUMPDEST PUSH1 0x5 SLOAD PUSH1 0x40 MLOAD PUSH4 0x2B92A07D PUSH1 0xE0 SHL DUP2 MSTORE PUSH1 0x1 PUSH1 0x1 PUSH1 0xA0 SHL SUB DUP4 DUP2 AND PUSH1 0x4 DUP4 ADD MSTORE DUP5 DUP2 AND PUSH1 0x24 DUP4 ADD MSTORE PUSH1 0x0 SWAP3 AND SWAP1 PUSH4 0x2B92A07D SWAP1 PUSH1 0x44 ADD PUSH1 0x20 PUSH1 0x40 MLOAD DUP1 DUP4 SUB DUP2 DUP7 GAS STATICCALL ISZERO DUP1 ISZERO PUSH2 0x2F5C JUMPI RETURNDATASIZE PUSH1 0x0 DUP1 RETURNDATACOPY RETURNDATASIZE PUSH1 0x0 REVERT JUMPDEST POP POP POP POP PUSH1 0x40 MLOAD RETURNDATASIZE PUSH1 0x1F NOT PUSH1 0x1F DUP3 ADD AND DUP3 ADD DUP1 PUSH1 0x40 MSTORE POP DUP2 ADD SWAP1 PUSH2 0x2D38 SWAP2 SWAP1 PUSH2 0x43E2 JUMP JUMPDEST PUSH1 0x4 DUP1 SLOAD PUSH1 0x40 MLOAD PUSH4 0xFCE3E8E7 PUSH1 0xE0 SHL DUP2 MSTORE PUSH1 0x1 PUSH1 0x1 PUSH1 0xA0 SHL SUB DUP5 DUP2 AND SWAP4 DUP3 ADD SWAP4 SWAP1 SWAP4 MSTORE PUSH1 0x0 SWAP3 SWAP1 SWAP2 AND SWAP1 PUSH4 0xFCE3E8E7 SWAP1 PUSH1 0x24 ADD PUSH2 0x6D7 JUMP JUMPDEST PUSH1 0x1 PUSH1 0x1 PUSH1 0xA0 SHL SUB DUP2 DUP2 AND PUSH1 0x0 SWAP1 DUP2 MSTORE PUSH1 0xB PUSH1 0x20 SWAP1 DUP2 MSTORE PUSH1 0x40 DUP1 DUP4 KECCAK256 SWAP4 DUP7 AND DUP4 MSTORE SWAP3 SWAP1 MSTORE SWAP1 DUP2 KECCAK256 PUSH1 0x1 DUP2 ADD SLOAD SWAP1 SLOAD PUSH2 0x2D38 SWAP2 SWAP1 PUSH2 0x4455 JUMP JUMPDEST PUSH1 0x3 SLOAD PUSH1 0x40 MLOAD PUSH4 0x41976E09 PUSH1 0xE0 SHL DUP2 MSTORE PUSH1 0x1 PUSH1 0x1 PUSH1 0xA0 SHL SUB DUP5 DUP2 AND PUSH1 0x4 DUP4 ADD MSTORE PUSH1 0x0 SWAP3 DUP4 SWAP3 SWAP2 AND SWAP1 PUSH4 0x41976E09 SWAP1 PUSH1 0x24 ADD PUSH1 0x20 PUSH1 0x40 MLOAD DUP1 DUP4 SUB DUP2 DUP7 GAS STATICCALL ISZERO DUP1 ISZERO PUSH2 0x303E JUMPI RETURNDATASIZE PUSH1 0x0 DUP1 RETURNDATACOPY RETURNDATASIZE PUSH1 0x0 REVERT JUMPDEST POP POP POP POP PUSH1 0x40 MLOAD RETURNDATASIZE PUSH1 0x1F NOT PUSH1 0x1F DUP3 ADD AND DUP3 ADD DUP1 PUSH1 0x40 MSTORE POP DUP2 ADD SWAP1 PUSH2 0x3062 SWAP2 SWAP1 PUSH2 0x43E2 JUMP JUMPDEST SWAP1 POP DUP1 PUSH1 0x6 PUSH1 0x0 SWAP1 SLOAD SWAP1 PUSH2 0x100 EXP SWAP1 DIV PUSH1 0x1 PUSH1 0x1 PUSH1 0xA0 SHL SUB AND PUSH1 0x1 PUSH1 0x1 PUSH1 0xA0 SHL SUB AND PUSH4 0x33D57CDC PUSH1 0x40 MLOAD DUP2 PUSH4 0xFFFFFFFF AND PUSH1 0xE0 SHL DUP2 MSTORE PUSH1 0x4 ADD PUSH1 0x20 PUSH1 0x40 MLOAD DUP1 DUP4 SUB DUP2 DUP7 GAS STATICCALL ISZERO DUP1 ISZERO PUSH2 0x30B8 JUMPI RETURNDATASIZE PUSH1 0x0 DUP1 RETURNDATACOPY RETURNDATASIZE PUSH1 0x0 REVERT JUMPDEST POP POP POP POP PUSH1 0x40 MLOAD RETURNDATASIZE PUSH1 0x1F NOT PUSH1 0x1F DUP3 ADD AND DUP3 ADD DUP1 PUSH1 0x40 MSTORE POP DUP2 ADD SWAP1 PUSH2 0x30DC SWAP2 SWAP1 PUSH2 0x43E2 JUMP JUMPDEST PUSH2 0x30E6 SWAP1 DUP6 PUSH2 0x4484 JUMP JUMPDEST PUSH2 0x30F0 SWAP2 SWAP1 PUSH2 0x44A3 JUMP JUMPDEST SWAP5 SWAP4 POP POP POP POP JUMP JUMPDEST PUSH1 0x1 PUSH1 0x1 PUSH1 0xA0 SHL SUB DUP4 AND PUSH1 0x0 SWAP1 DUP2 MSTORE PUSH1 0xA PUSH1 0x20 MSTORE PUSH1 0x40 SWAP1 KECCAK256 SLOAD PUSH1 0xFF AND PUSH2 0x3130 JUMPI PUSH1 0x40 MLOAD PUSH3 0x461BCD PUSH1 0xE5 SHL DUP2 MSTORE PUSH1 0x4 ADD PUSH2 0x804 SWAP1 PUSH2 0x450B JUMP JUMPDEST PUSH2 0x3138 PUSH2 0x3B02 JUMP JUMPDEST PUSH2 0x3141 CALLER PUSH2 0x380C JUMP JUMPDEST PUSH1 0x5 SLOAD PUSH1 0x40 MLOAD PUSH4 0x6829F1B PUSH1 0xE3 SHL DUP2 MSTORE PUSH1 0x1 PUSH1 0x1 PUSH1 0xA0 SHL SUB DUP7 DUP2 AND PUSH1 0x4 DUP4 ADD MSTORE SWAP1 SWAP2 AND SWAP1 PUSH4 0x3414F8D8 SWAP1 PUSH1 0x24 ADD PUSH1 0x20 PUSH1 0x40 MLOAD DUP1 DUP4 SUB DUP2 DUP7 GAS STATICCALL ISZERO DUP1 ISZERO PUSH2 0x318B JUMPI RETURNDATASIZE PUSH1 0x0 DUP1 RETURNDATACOPY RETURNDATASIZE PUSH1 0x0 REVERT JUMPDEST POP POP POP POP PUSH1 0x40 MLOAD RETURNDATASIZE PUSH1 0x1F NOT PUSH1 0x1F DUP3 ADD AND DUP3 ADD DUP1 PUSH1 0x40 MSTORE POP DUP2 ADD SWAP1 PUSH2 0x31AF SWAP2 SWAP1 PUSH2 0x43E2 JUMP JUMPDEST PUSH1 0x3 SLOAD PUSH1 0x40 MLOAD PUSH4 0x41976E09 PUSH1 0xE0 SHL DUP2 MSTORE PUSH1 0x1 PUSH1 0x1 PUSH1 0xA0 SHL SUB DUP8 DUP2 AND PUSH1 0x4 DUP4 ADD MSTORE DUP7 SWAP3 AND SWAP1 PUSH4 0x41976E09 SWAP1 PUSH1 0x24 ADD PUSH1 0x20 PUSH1 0x40 MLOAD DUP1 DUP4 SUB DUP2 DUP7 GAS STATICCALL ISZERO DUP1 ISZERO PUSH2 0x31F9 JUMPI RETURNDATASIZE PUSH1 0x0 DUP1 RETURNDATACOPY RETURNDATASIZE PUSH1 0x0 REVERT JUMPDEST POP POP POP POP PUSH1 0x40 MLOAD RETURNDATASIZE PUSH1 0x1F NOT PUSH1 0x1F DUP3 ADD AND DUP3 ADD DUP1 PUSH1 0x40 MSTORE POP DUP2 ADD SWAP1 PUSH2 0x321D SWAP2 SWAP1 PUSH2 0x43E2 JUMP JUMPDEST PUSH2 0x3227 SWAP2 SWAP1 PUSH2 0x4484 JUMP JUMPDEST PUSH2 0x3231 SWAP2 SWAP1 PUSH2 0x44A3 JUMP JUMPDEST PUSH1 0x5 SLOAD PUSH1 0x40 MLOAD PUSH4 0x1FCD2D5 PUSH1 0xE0 SHL DUP2 MSTORE CALLER PUSH1 0x4 DUP3 ADD MSTORE PUSH1 0x1 PUSH1 0x1 PUSH1 0xA0 SHL SUB SWAP1 SWAP2 AND SWAP1 PUSH4 0x1FCD2D5 SWAP1 PUSH1 0x24 ADD PUSH1 0x20 PUSH1 0x40 MLOAD DUP1 DUP4 SUB DUP2 DUP7 GAS STATICCALL ISZERO DUP1 ISZERO PUSH2 0x3279 JUMPI RETURNDATASIZE PUSH1 0x0 DUP1 RETURNDATACOPY RETURNDATASIZE PUSH1 0x0 REVERT JUMPDEST POP POP POP POP PUSH1 0x40 MLOAD RETURNDATASIZE PUSH1 0x1F NOT PUSH1 0x1F DUP3 ADD AND DUP3 ADD DUP1 PUSH1 0x40 MSTORE POP DUP2 ADD SWAP1 PUSH2 0x329D SWAP2 SWAP1 PUSH2 0x43E2 JUMP JUMPDEST PUSH2 0x32A7 SWAP2 SWAP1 PUSH2 0x446D JUMP JUMPDEST LT ISZERO PUSH2 0x3310 JUMPI PUSH1 0x40 MLOAD PUSH3 0x461BCD PUSH1 0xE5 SHL DUP2 MSTORE PUSH1 0x20 PUSH1 0x4 DUP3 ADD MSTORE PUSH1 0x32 PUSH1 0x24 DUP3 ADD MSTORE PUSH32 0x43616E6E6F7420776974686472617720636F6C6C61746572616C206265666F72 PUSH1 0x44 DUP3 ADD MSTORE PUSH18 0x32903830BCB4B733903130B1B5903637B0B7 PUSH1 0x71 SHL PUSH1 0x64 DUP3 ADD MSTORE PUSH1 0x84 ADD PUSH2 0x804 JUMP JUMPDEST PUSH1 0x5 SLOAD PUSH1 0x40 MLOAD PUSH4 0x2B92A07D PUSH1 0xE0 SHL DUP2 MSTORE PUSH1 0x1 PUSH1 0x1 PUSH1 0xA0 SHL SUB DUP6 DUP2 AND PUSH1 0x4 DUP4 ADD MSTORE CALLER PUSH1 0x24 DUP4 ADD MSTORE PUSH1 0x0 SWAP3 AND SWAP1 PUSH4 0x2B92A07D SWAP1 PUSH1 0x44 ADD PUSH1 0x20 PUSH1 0x40 MLOAD DUP1 DUP4 SUB DUP2 DUP7 GAS STATICCALL ISZERO DUP1 ISZERO PUSH2 0x3361 JUMPI RETURNDATASIZE PUSH1 0x0 DUP1 RETURNDATACOPY RETURNDATASIZE PUSH1 0x0 REVERT JUMPDEST POP POP POP POP PUSH1 0x40 MLOAD RETURNDATASIZE PUSH1 0x1F NOT PUSH1 0x1F DUP3 ADD AND DUP3 ADD DUP1 PUSH1 0x40 MSTORE POP DUP2 ADD SWAP1 PUSH2 0x3385 SWAP2 SWAP1 PUSH2 0x43E2 JUMP JUMPDEST SWAP1 POP DUP1 DUP4 GT ISZERO PUSH2 0x33E8 JUMPI PUSH1 0x40 MLOAD PUSH3 0x461BCD PUSH1 0xE5 SHL DUP2 MSTORE PUSH1 0x20 PUSH1 0x4 DUP3 ADD MSTORE PUSH1 0x28 PUSH1 0x24 DUP3 ADD MSTORE PUSH32 0x52656465656D696E67206D6F726520636F6C6C61746572616C207468616E2064 PUSH1 0x44 DUP3 ADD MSTORE PUSH8 0x195C1BDCDA5D1959 PUSH1 0xC2 SHL PUSH1 0x64 DUP3 ADD MSTORE PUSH1 0x84 ADD PUSH2 0x804 JUMP JUMPDEST PUSH1 0x1 DUP3 ISZERO ISZERO EQ ISZERO PUSH2 0x35B0 JUMPI PUSH1 0x6 SLOAD PUSH1 0x40 MLOAD PUSH4 0xD4D1513 PUSH1 0xE0 SHL DUP2 MSTORE CALLER PUSH1 0x4 DUP3 ADD MSTORE PUSH1 0x24 DUP2 ADD DUP6 SWAP1 MSTORE PUSH1 0x1 PUSH1 0x1 PUSH1 0xA0 SHL SUB DUP7 DUP2 AND PUSH1 0x44 DUP4 ADD MSTORE PUSH1 0x0 SWAP3 AND SWAP1 PUSH4 0xD4D1513 SWAP1 PUSH1 0x64 ADD PUSH1 0x20 PUSH1 0x40 MLOAD DUP1 DUP4 SUB DUP2 PUSH1 0x0 DUP8 GAS CALL ISZERO DUP1 ISZERO PUSH2 0x344D JUMPI RETURNDATASIZE PUSH1 0x0 DUP1 RETURNDATACOPY RETURNDATASIZE PUSH1 0x0 REVERT JUMPDEST POP POP POP POP PUSH1 0x40 MLOAD RETURNDATASIZE PUSH1 0x1F NOT PUSH1 0x1F DUP3 ADD AND DUP3 ADD DUP1 PUSH1 0x40 MSTORE POP DUP2 ADD SWAP1 PUSH2 0x3471 SWAP2 SWAP1 PUSH2 0x43E2 JUMP JUMPDEST CALLER PUSH1 0x0 SWAP1 DUP2 MSTORE PUSH1 0x8 PUSH1 0x20 MSTORE PUSH1 0x40 DUP2 KECCAK256 DUP1 SLOAD SWAP3 SWAP4 POP DUP4 SWAP3 SWAP1 SWAP2 SWAP1 PUSH2 0x3495 SWAP1 DUP5 SWAP1 PUSH2 0x4455 JUMP JUMPDEST SWAP1 SWAP2 SSTORE POP POP PUSH1 0x1 PUSH1 0x1 PUSH1 0xA0 SHL SUB DUP6 AND PUSH1 0x0 SWAP1 DUP2 MSTORE PUSH1 0x12 PUSH1 0x20 SWAP1 DUP2 MSTORE PUSH1 0x40 DUP1 DUP4 KECCAK256 CALLER DUP5 MSTORE SWAP1 SWAP2 MSTORE SWAP1 KECCAK256 SLOAD PUSH1 0xFF AND PUSH2 0x3522 JUMPI PUSH1 0x1 PUSH1 0x1 PUSH1 0xA0 SHL SUB DUP6 AND PUSH1 0x0 DUP2 DUP2 MSTORE PUSH1 0x11 PUSH1 0x20 SWAP1 DUP2 MSTORE PUSH1 0x40 DUP1 DUP4 KECCAK256 DUP1 SLOAD PUSH1 0x1 DUP2 DUP2 ADD DUP4 SSTORE SWAP2 DUP6 MSTORE DUP4 DUP6 KECCAK256 ADD DUP1 SLOAD PUSH1 0x1 PUSH1 0x1 PUSH1 0xA0 SHL SUB NOT AND CALLER SWAP1 DUP2 OR SWAP1 SWAP2 SSTORE SWAP5 DUP5 MSTORE PUSH1 0x12 DUP4 MSTORE DUP2 DUP5 KECCAK256 SWAP5 DUP5 MSTORE SWAP4 SWAP1 SWAP2 MSTORE SWAP1 KECCAK256 DUP1 SLOAD PUSH1 0xFF NOT AND SWAP1 SWAP2 OR SWAP1 SSTORE JUMPDEST PUSH1 0x1 PUSH1 0x1 PUSH1 0xA0 SHL SUB DUP6 AND PUSH1 0x0 SWAP1 DUP2 MSTORE PUSH1 0xC PUSH1 0x20 SWAP1 DUP2 MSTORE PUSH1 0x40 DUP1 DUP4 KECCAK256 CALLER DUP5 MSTORE SWAP1 SWAP2 MSTORE DUP2 KECCAK256 DUP1 SLOAD DUP7 SWAP3 SWAP1 PUSH2 0x3555 SWAP1 DUP5 SWAP1 PUSH2 0x4455 JUMP JUMPDEST SWAP1 SWAP2 SSTORE POP POP PUSH1 0x40 DUP1 MLOAD CALLER DUP2 MSTORE PUSH1 0x1 PUSH1 0x1 PUSH1 0xA0 SHL SUB DUP8 AND PUSH1 0x20 DUP3 ADD MSTORE SWAP1 DUP2 ADD DUP6 SWAP1 MSTORE PUSH1 0x60 DUP2 ADD DUP3 SWAP1 MSTORE PUSH32 0xD2D0080ED70CEB7CE39856D34A5727B439EC7C7919425087ED35ED6868791556 SWAP1 PUSH1 0x80 ADD PUSH1 0x40 MLOAD DUP1 SWAP2 SUB SWAP1 LOG1 POP PUSH2 0x35EC JUMP JUMPDEST PUSH32 0x3FF0C85F880C6A1F943C2C36EBBB2CB1B93959479DB451B2ACB7B1E06F4E369 CALLER DUP6 DUP6 PUSH1 0x40 MLOAD PUSH2 0x35E3 SWAP4 SWAP3 SWAP2 SWAP1 PUSH2 0x44C5 JUMP JUMPDEST PUSH1 0x40 MLOAD DUP1 SWAP2 SUB SWAP1 LOG1 JUMPDEST PUSH1 0x5 SLOAD PUSH1 0x40 MLOAD PUSH4 0x4755EA7F PUSH1 0xE1 SHL DUP2 MSTORE CALLER PUSH1 0x4 DUP3 ADD MSTORE PUSH1 0x1 PUSH1 0x1 PUSH1 0xA0 SHL SUB DUP7 DUP2 AND PUSH1 0x24 DUP4 ADD MSTORE PUSH1 0x44 DUP3 ADD DUP7 SWAP1 MSTORE DUP5 ISZERO ISZERO PUSH1 0x64 DUP4 ADD MSTORE SWAP1 SWAP2 AND SWAP1 PUSH4 0x8EABD4FE SWAP1 PUSH1 0x84 ADD PUSH1 0x0 PUSH1 0x40 MLOAD DUP1 DUP4 SUB DUP2 PUSH1 0x0 DUP8 DUP1 EXTCODESIZE ISZERO DUP1 ISZERO PUSH2 0x3648 JUMPI PUSH1 0x0 DUP1 REVERT JUMPDEST POP GAS CALL ISZERO DUP1 ISZERO PUSH2 0x365C JUMPI RETURNDATASIZE PUSH1 0x0 DUP1 RETURNDATACOPY RETURNDATASIZE PUSH1 0x0 REVERT JUMPDEST POP POP POP POP POP POP POP POP JUMP JUMPDEST PUSH1 0x6 SLOAD PUSH1 0x40 DUP1 MLOAD PUSH4 0x18160DDD PUSH1 0xE0 SHL DUP2 MSTORE SWAP1 MLOAD PUSH1 0x0 SWAP3 PUSH1 0x1 PUSH1 0x1 PUSH1 0xA0 SHL SUB AND SWAP2 PUSH4 0x18160DDD SWAP2 PUSH1 0x4 DUP1 DUP4 ADD SWAP3 PUSH1 0x20 SWAP3 SWAP2 SWAP1 DUP3 SWAP1 SUB ADD DUP2 DUP7 GAS STATICCALL ISZERO DUP1 ISZERO PUSH2 0x7A5 JUMPI RETURNDATASIZE PUSH1 0x0 DUP1 RETURNDATACOPY RETURNDATASIZE PUSH1 0x0 REVERT JUMPDEST PUSH1 0x0 DUP2 DUP2 MSTORE PUSH1 0x1 PUSH1 0x20 MSTORE PUSH1 0x40 DUP2 KECCAK256 PUSH2 0x6A2 SWAP1 PUSH2 0x3E3A JUMP JUMPDEST PUSH1 0x5 SLOAD PUSH1 0x40 MLOAD PUSH4 0x1FCD2D5 PUSH1 0xE0 SHL DUP2 MSTORE PUSH1 0x1 PUSH1 0x1 PUSH1 0xA0 SHL SUB DUP4 DUP2 AND PUSH1 0x4 DUP4 ADD MSTORE PUSH1 0x0 SWAP3 AND SWAP1 PUSH4 0x1FCD2D5 SWAP1 PUSH1 0x24 ADD PUSH2 0x6D7 JUMP JUMPDEST PUSH1 0x4 DUP1 SLOAD PUSH1 0x40 MLOAD PUSH4 0xF8B2CB4F PUSH1 0xE0 SHL DUP2 MSTORE PUSH1 0x1 PUSH1 0x1 PUSH1 0xA0 SHL SUB DUP5 DUP2 AND SWAP4 DUP3 ADD SWAP4 SWAP1 SWAP4 MSTORE PUSH1 0x0 SWAP3 SWAP1 SWAP2 AND SWAP1 PUSH4 0xF8B2CB4F SWAP1 PUSH1 0x24 ADD PUSH2 0x6D7 JUMP JUMPDEST PUSH1 0x4 DUP1 SLOAD PUSH1 0x2 SLOAD PUSH1 0x40 MLOAD PUSH4 0x6448FD3 PUSH1 0xE5 SHL DUP2 MSTORE PUSH1 0x0 SWAP4 PUSH1 0x1 PUSH1 0x1 PUSH1 0xA0 SHL SUB SWAP1 SWAP4 AND SWAP3 PUSH4 0xC891FA60 SWAP3 PUSH2 0x6D7 SWAP3 DUP8 SWAP3 ADD PUSH1 0x1 PUSH1 0x1 PUSH1 0xA0 SHL SUB SWAP3 SWAP1 SWAP3 AND DUP3 MSTORE PUSH1 0x20 DUP3 ADD MSTORE PUSH1 0x40 ADD SWAP1 JUMP JUMPDEST PUSH1 0x5 SLOAD PUSH1 0x40 MLOAD PUSH4 0x28D1F893 PUSH1 0xE2 SHL DUP2 MSTORE PUSH1 0x1 PUSH1 0x1 PUSH1 0xA0 SHL SUB DUP4 DUP2 AND PUSH1 0x4 DUP4 ADD MSTORE PUSH1 0x0 SWAP3 AND SWAP1 PUSH4 0xA347E24C SWAP1 PUSH1 0x24 ADD PUSH2 0x6D7 JUMP JUMPDEST PUSH1 0x0 DUP3 DUP2 MSTORE PUSH1 0x20 DUP2 SWAP1 MSTORE PUSH1 0x40 SWAP1 KECCAK256 PUSH1 0x1 ADD SLOAD PUSH2 0x37CA DUP2 CALLER PUSH2 0x3D7A JUMP JUMPDEST PUSH2 0x13A8 DUP4 DUP4 PUSH2 0x3E00 JUMP JUMPDEST PUSH1 0x4 DUP1 SLOAD PUSH1 0x40 MLOAD PUSH4 0xDE30F97D PUSH1 0xE0 SHL DUP2 MSTORE PUSH1 0x1 PUSH1 0x1 PUSH1 0xA0 SHL SUB DUP5 DUP2 AND SWAP4 DUP3 ADD SWAP4 SWAP1 SWAP4 MSTORE PUSH1 0x0 SWAP3 SWAP1 SWAP2 AND SWAP1 PUSH4 0xDE30F97D SWAP1 PUSH1 0x24 ADD PUSH2 0x6D7 JUMP JUMPDEST PUSH1 0x9 SLOAD PUSH1 0x0 SWAP1 DUP2 SWAP1 DUP2 JUMPDEST DUP2 DUP2 PUSH2 0xFFFF AND LT ISZERO PUSH2 0x3930 JUMPI PUSH1 0x0 PUSH1 0x9 DUP3 PUSH2 0xFFFF AND DUP2 SLOAD DUP2 LT PUSH2 0x383B JUMPI PUSH2 0x383B PUSH2 0x4429 JUMP JUMPDEST PUSH1 0x0 SWAP2 DUP3 MSTORE PUSH1 0x20 DUP3 KECCAK256 ADD SLOAD PUSH1 0x3 SLOAD PUSH1 0x40 MLOAD PUSH4 0x41976E09 PUSH1 0xE0 SHL DUP2 MSTORE PUSH1 0x1 PUSH1 0x1 PUSH1 0xA0 SHL SUB SWAP3 DUP4 AND PUSH1 0x4 DUP3 ADD DUP2 SWAP1 MSTORE SWAP5 POP SWAP2 AND SWAP1 PUSH4 0x41976E09 SWAP1 PUSH1 0x24 ADD PUSH1 0x20 PUSH1 0x40 MLOAD DUP1 DUP4 SUB DUP2 DUP7 GAS STATICCALL ISZERO DUP1 ISZERO PUSH2 0x3893 JUMPI RETURNDATASIZE PUSH1 0x0 DUP1 RETURNDATACOPY RETURNDATASIZE PUSH1 0x0 REVERT JUMPDEST POP POP POP POP PUSH1 0x40 MLOAD RETURNDATASIZE PUSH1 0x1F NOT PUSH1 0x1F DUP3 ADD AND DUP3 ADD DUP1 PUSH1 0x40 MSTORE POP DUP2 ADD SWAP1 PUSH2 0x38B7 SWAP2 SWAP1 PUSH2 0x43E2 JUMP JUMPDEST PUSH1 0x1 PUSH1 0x1 PUSH1 0xA0 SHL SUB DUP4 DUP2 AND PUSH1 0x0 SWAP1 DUP2 MSTORE PUSH1 0xB PUSH1 0x20 SWAP1 DUP2 MSTORE PUSH1 0x40 DUP1 DUP4 KECCAK256 SWAP4 DUP13 AND DUP4 MSTORE SWAP3 SWAP1 MSTORE KECCAK256 PUSH1 0x1 DUP2 ADD SLOAD SWAP1 SLOAD SWAP2 SWAP3 POP PUSH8 0xDE0B6B3A7640000 SWAP2 DUP4 SWAP2 PUSH2 0x38FB SWAP2 PUSH2 0x4455 JUMP JUMPDEST PUSH2 0x3905 SWAP2 SWAP1 PUSH2 0x4484 JUMP JUMPDEST PUSH2 0x390F SWAP2 SWAP1 PUSH2 0x44A3 JUMP JUMPDEST PUSH2 0x3919 SWAP1 DUP7 PUSH2 0x4455 JUMP JUMPDEST SWAP5 POP POP POP DUP1 DUP1 PUSH2 0x3928 SWAP1 PUSH2 0x44E9 JUMP JUMPDEST SWAP2 POP POP PUSH2 0x3816 JUMP JUMPDEST POP SWAP1 SWAP4 SWAP3 POP POP POP JUMP JUMPDEST PUSH2 0x3943 DUP3 DUP3 PUSH2 0x2D3F JUMP JUMPDEST PUSH2 0x1331 JUMPI PUSH1 0x0 DUP3 DUP2 MSTORE PUSH1 0x20 DUP2 DUP2 MSTORE PUSH1 0x40 DUP1 DUP4 KECCAK256 PUSH1 0x1 PUSH1 0x1 PUSH1 0xA0 SHL SUB DUP6 AND DUP5 MSTORE SWAP1 SWAP2 MSTORE SWAP1 KECCAK256 DUP1 SLOAD PUSH1 0xFF NOT AND PUSH1 0x1 OR SWAP1 SSTORE PUSH2 0x3979 CALLER SWAP1 JUMP JUMPDEST PUSH1 0x1 PUSH1 0x1 PUSH1 0xA0 SHL SUB AND DUP2 PUSH1 0x1 PUSH1 0x1 PUSH1 0xA0 SHL SUB AND DUP4 PUSH32 0x2F8788117E7EFF1D82E926EC794901D17C78024A50270940304540A733656F0D PUSH1 0x40 MLOAD PUSH1 0x40 MLOAD DUP1 SWAP2 SUB SWAP1 LOG4 POP POP JUMP JUMPDEST PUSH1 0x0 PUSH2 0x2D38 DUP4 PUSH1 0x1 PUSH1 0x1 PUSH1 0xA0 SHL SUB DUP5 AND PUSH2 0x3E44 JUMP JUMPDEST PUSH1 0x0 PUSH1 0x1 PUSH1 0x1 PUSH1 0xE0 SHL SUB NOT DUP3 AND PUSH4 0x7965DB0B PUSH1 0xE0 SHL EQ DUP1 PUSH2 0x6A2 JUMPI POP PUSH4 0x1FFC9A7 PUSH1 0xE0 SHL PUSH1 0x1 PUSH1 0x1 PUSH1 0xE0 SHL SUB NOT DUP4 AND EQ PUSH2 0x6A2 JUMP JUMPDEST PUSH1 0x0 DUP1 PUSH8 0xDE0B6B3A7640000 DUP6 PUSH2 0x3A1E DUP3 DUP8 PUSH2 0x446D JUMP JUMPDEST PUSH2 0x3A28 SWAP2 SWAP1 PUSH2 0x4484 JUMP JUMPDEST PUSH2 0x3A32 SWAP2 SWAP1 PUSH2 0x44A3 JUMP JUMPDEST DUP4 PUSH8 0xDE0B6B3A7640000 PUSH2 0x3A46 DUP8 DUP10 PUSH2 0x4484 JUMP JUMPDEST PUSH2 0x3A50 SWAP2 SWAP1 PUSH2 0x44A3 JUMP JUMPDEST PUSH2 0x3A5A SWAP2 SWAP1 PUSH2 0x446D JUMP JUMPDEST PUSH2 0x3A6C SWAP1 PUSH8 0x16345785D8A00000 PUSH2 0x4484 JUMP JUMPDEST PUSH2 0x3A76 SWAP2 SWAP1 PUSH2 0x44A3 JUMP JUMPDEST SWAP1 POP PUSH2 0x3A8A DUP2 PUSH8 0xDE0B6B3A7640000 PUSH2 0x446D JUMP JUMPDEST SWAP6 SWAP5 POP POP POP POP POP JUMP JUMPDEST PUSH1 0x0 DUP1 PUSH8 0xDE0B6B3A7640000 DUP4 PUSH2 0x3AAA DUP3 DUP8 PUSH2 0x446D JUMP JUMPDEST PUSH2 0x3AB4 SWAP2 SWAP1 PUSH2 0x4484 JUMP JUMPDEST PUSH2 0x3ABE SWAP2 SWAP1 PUSH2 0x44A3 JUMP JUMPDEST DUP4 PUSH8 0xDE0B6B3A7640000 PUSH2 0x3AD2 DUP8 DUP10 PUSH2 0x4484 JUMP JUMPDEST PUSH2 0x3ADC SWAP2 SWAP1 PUSH2 0x44A3 JUMP JUMPDEST PUSH2 0x3AE6 SWAP2 SWAP1 PUSH2 0x446D JUMP JUMPDEST PUSH2 0x3AF8 SWAP1 PUSH8 0x16345785D8A00000 PUSH2 0x4484 JUMP JUMPDEST PUSH2 0x3A8A SWAP2 SWAP1 PUSH2 0x44A3 JUMP JUMPDEST PUSH1 0x9 SLOAD PUSH1 0x0 JUMPDEST DUP2 DUP2 PUSH2 0xFFFF AND LT ISZERO PUSH2 0x3CC4 JUMPI PUSH1 0x0 PUSH1 0x9 DUP3 PUSH2 0xFFFF AND DUP2 SLOAD DUP2 LT PUSH2 0x3B2D JUMPI PUSH2 0x3B2D PUSH2 0x4429 JUMP JUMPDEST PUSH1 0x0 SWAP2 DUP3 MSTORE PUSH1 0x20 DUP1 DUP4 KECCAK256 SWAP2 SWAP1 SWAP2 ADD SLOAD PUSH1 0x1 PUSH1 0x1 PUSH1 0xA0 SHL SUB SWAP1 DUP2 AND DUP1 DUP5 MSTORE PUSH1 0xD SWAP1 SWAP3 MSTORE PUSH1 0x40 DUP1 DUP5 KECCAK256 SLOAD PUSH1 0x4 DUP1 SLOAD PUSH1 0x2 SLOAD SWAP4 MLOAD PUSH4 0x6448FD3 PUSH1 0xE5 SHL DUP2 MSTORE SWAP2 DUP3 ADD DUP7 SWAP1 MSTORE PUSH1 0x24 DUP3 ADD SWAP4 SWAP1 SWAP4 MSTORE SWAP4 SWAP6 POP SWAP4 SWAP3 SWAP2 AND SWAP1 PUSH4 0xC891FA60 SWAP1 PUSH1 0x44 ADD PUSH1 0x20 PUSH1 0x40 MLOAD DUP1 DUP4 SUB DUP2 DUP7 GAS STATICCALL ISZERO DUP1 ISZERO PUSH2 0x3BA4 JUMPI RETURNDATASIZE PUSH1 0x0 DUP1 RETURNDATACOPY RETURNDATASIZE PUSH1 0x0 REVERT JUMPDEST POP POP POP POP PUSH1 0x40 MLOAD RETURNDATASIZE PUSH1 0x1F NOT PUSH1 0x1F DUP3 ADD AND DUP3 ADD DUP1 PUSH1 0x40 MSTORE POP DUP2 ADD SWAP1 PUSH2 0x3BC8 SWAP2 SWAP1 PUSH2 0x43E2 JUMP JUMPDEST SWAP1 POP PUSH1 0x0 JUMPDEST DUP3 DUP2 PUSH2 0xFFFF AND LT ISZERO PUSH2 0x3CAD JUMPI PUSH1 0x1 PUSH1 0x1 PUSH1 0xA0 SHL SUB DUP5 AND PUSH1 0x0 SWAP1 DUP2 MSTORE PUSH1 0xD PUSH1 0x20 MSTORE PUSH1 0x40 DUP2 KECCAK256 DUP1 SLOAD PUSH2 0xFFFF DUP5 AND SWAP1 DUP2 LT PUSH2 0x3C07 JUMPI PUSH2 0x3C07 PUSH2 0x4429 JUMP JUMPDEST PUSH1 0x0 SWAP2 DUP3 MSTORE PUSH1 0x20 DUP1 DUP4 KECCAK256 SWAP1 SWAP2 ADD SLOAD PUSH1 0x1 PUSH1 0x1 PUSH1 0xA0 SHL SUB DUP9 DUP2 AND DUP5 MSTORE PUSH1 0xB DUP4 MSTORE PUSH1 0x40 DUP1 DUP6 KECCAK256 SWAP2 SWAP1 SWAP3 AND DUP1 DUP6 MSTORE SWAP3 MSTORE SWAP1 SWAP2 KECCAK256 SLOAD SWAP1 SWAP2 POP PUSH8 0xDE0B6B3A7640000 SWAP1 PUSH2 0x3C4F SWAP1 DUP6 PUSH2 0x4484 JUMP JUMPDEST PUSH2 0x3C59 SWAP2 SWAP1 PUSH2 0x44A3 JUMP JUMPDEST PUSH1 0x1 PUSH1 0x1 PUSH1 0xA0 SHL SUB DUP1 DUP8 AND PUSH1 0x0 SWAP1 DUP2 MSTORE PUSH1 0xB PUSH1 0x20 SWAP1 DUP2 MSTORE PUSH1 0x40 DUP1 DUP4 KECCAK256 SWAP4 DUP7 AND DUP4 MSTORE SWAP3 SWAP1 MSTORE SWAP1 DUP2 KECCAK256 PUSH1 0x1 ADD DUP1 SLOAD SWAP1 SWAP2 SWAP1 PUSH2 0x3C93 SWAP1 DUP5 SWAP1 PUSH2 0x4455 JUMP JUMPDEST SWAP1 SWAP2 SSTORE POP DUP3 SWAP2 POP PUSH2 0x3CA5 SWAP1 POP DUP2 PUSH2 0x44E9 JUMP JUMPDEST SWAP2 POP POP PUSH2 0x3BCD JUMP JUMPDEST POP POP POP POP DUP1 DUP1 PUSH2 0x3CBC SWAP1 PUSH2 0x44E9 JUMP JUMPDEST SWAP2 POP POP PUSH2 0x3B08 JUMP JUMPDEST POP POP TIMESTAMP PUSH1 0x2 SSTORE JUMP JUMPDEST PUSH1 0x1 PUSH1 0x1 PUSH1 0xA0 SHL SUB DUP2 AND PUSH1 0x0 SWAP1 DUP2 MSTORE PUSH1 0x11 PUSH1 0x20 MSTORE PUSH1 0x40 DUP2 KECCAK256 SLOAD DUP2 DUP1 JUMPDEST DUP3 DUP2 PUSH2 0xFFFF AND LT ISZERO PUSH2 0x3D72 JUMPI PUSH1 0x1 PUSH1 0x1 PUSH1 0xA0 SHL SUB DUP6 AND PUSH1 0x0 SWAP1 DUP2 MSTORE PUSH1 0xC PUSH1 0x20 SWAP1 DUP2 MSTORE PUSH1 0x40 DUP1 DUP4 KECCAK256 PUSH1 0x11 SWAP1 SWAP3 MSTORE DUP3 KECCAK256 DUP1 SLOAD SWAP2 SWAP3 SWAP2 PUSH2 0xFFFF DUP6 AND SWAP1 DUP2 LT PUSH2 0x3D2F JUMPI PUSH2 0x3D2F PUSH2 0x4429 JUMP JUMPDEST PUSH1 0x0 SWAP2 DUP3 MSTORE PUSH1 0x20 DUP1 DUP4 KECCAK256 SWAP1 SWAP2 ADD SLOAD PUSH1 0x1 PUSH1 0x1 PUSH1 0xA0 SHL SUB AND DUP4 MSTORE DUP3 ADD SWAP3 SWAP1 SWAP3 MSTORE PUSH1 0x40 ADD SWAP1 KECCAK256 SLOAD PUSH2 0x3D5E SWAP1 DUP4 PUSH2 0x4455 JUMP JUMPDEST SWAP2 POP DUP1 PUSH2 0x3D6A DUP2 PUSH2 0x44E9 JUMP JUMPDEST SWAP2 POP POP PUSH2 0x3CE8 JUMP JUMPDEST POP SWAP4 SWAP3 POP POP POP JUMP JUMPDEST PUSH2 0x3D84 DUP3 DUP3 PUSH2 0x2D3F JUMP JUMPDEST PUSH2 0x1331 JUMPI PUSH2 0x3D9C DUP2 PUSH1 0x1 PUSH1 0x1 PUSH1 0xA0 SHL SUB AND PUSH1 0x14 PUSH2 0x3E93 JUMP JUMPDEST PUSH2 0x3DA7 DUP4 PUSH1 0x20 PUSH2 0x3E93 JUMP JUMPDEST PUSH1 0x40 MLOAD PUSH1 0x20 ADD PUSH2 0x3DB8 SWAP3 SWAP2 SWAP1 PUSH2 0x4538 JUMP JUMPDEST PUSH1 0x40 DUP1 MLOAD PUSH1 0x1F NOT DUP2 DUP5 SUB ADD DUP2 MSTORE SWAP1 DUP3 SWAP1 MSTORE PUSH3 0x461BCD PUSH1 0xE5 SHL DUP3 MSTORE PUSH2 0x804 SWAP2 PUSH1 0x4 ADD PUSH2 0x4269 JUMP JUMPDEST PUSH2 0x3DE8 DUP3 DUP3 PUSH2 0x3939 JUMP JUMPDEST PUSH1 0x0 DUP3 DUP2 MSTORE PUSH1 0x1 PUSH1 0x20 MSTORE PUSH1 0x40 SWAP1 KECCAK256 PUSH2 0x13A8 SWAP1 DUP3 PUSH2 0x39BD JUMP JUMPDEST PUSH2 0x3E0A DUP3 DUP3 PUSH2 0x402F JUMP JUMPDEST PUSH1 0x0 DUP3 DUP2 MSTORE PUSH1 0x1 PUSH1 0x20 MSTORE PUSH1 0x40 SWAP1 KECCAK256 PUSH2 0x13A8 SWAP1 DUP3 PUSH2 0x4094 JUMP JUMPDEST PUSH1 0x0 PUSH2 0x2D38 DUP4 DUP4 PUSH2 0x40A9 JUMP JUMPDEST PUSH1 0x0 PUSH2 0x2D38 DUP4 DUP4 PUSH2 0x40BF JUMP JUMPDEST PUSH1 0x0 PUSH2 0x6A2 DUP3 SLOAD SWAP1 JUMP JUMPDEST PUSH1 0x0 DUP2 DUP2 MSTORE PUSH1 0x1 DUP4 ADD PUSH1 0x20 MSTORE PUSH1 0x40 DUP2 KECCAK256 SLOAD PUSH2 0x3E8B JUMPI POP DUP2 SLOAD PUSH1 0x1 DUP2 DUP2 ADD DUP5 SSTORE PUSH1 0x0 DUP5 DUP2 MSTORE PUSH1 0x20 DUP1 DUP3 KECCAK256 SWAP1 SWAP4 ADD DUP5 SWAP1 SSTORE DUP5 SLOAD DUP5 DUP3 MSTORE DUP3 DUP7 ADD SWAP1 SWAP4 MSTORE PUSH1 0x40 SWAP1 KECCAK256 SWAP2 SWAP1 SWAP2 SSTORE PUSH2 0x6A2 JUMP JUMPDEST POP PUSH1 0x0 PUSH2 0x6A2 JUMP JUMPDEST PUSH1 0x60 PUSH1 0x0 PUSH2 0x3EA2 DUP4 PUSH1 0x2 PUSH2 0x4484 JUMP JUMPDEST PUSH2 0x3EAD SWAP1 PUSH1 0x2 PUSH2 0x4455 JUMP JUMPDEST PUSH8 0xFFFFFFFFFFFFFFFF DUP2 GT ISZERO PUSH2 0x3EC5 JUMPI PUSH2 0x3EC5 PUSH2 0x45AD JUMP JUMPDEST PUSH1 0x40 MLOAD SWAP1 DUP1 DUP3 MSTORE DUP1 PUSH1 0x1F ADD PUSH1 0x1F NOT AND PUSH1 0x20 ADD DUP3 ADD PUSH1 0x40 MSTORE DUP1 ISZERO PUSH2 0x3EEF JUMPI PUSH1 0x20 DUP3 ADD DUP2 DUP1 CALLDATASIZE DUP4 CALLDATACOPY ADD SWAP1 POP JUMPDEST POP SWAP1 POP PUSH1 0x3 PUSH1 0xFC SHL DUP2 PUSH1 0x0 DUP2 MLOAD DUP2 LT PUSH2 0x3F0A JUMPI PUSH2 0x3F0A PUSH2 0x4429 JUMP JUMPDEST PUSH1 0x20 ADD ADD SWAP1 PUSH1 0x1 PUSH1 0x1 PUSH1 0xF8 SHL SUB NOT AND SWAP1 DUP2 PUSH1 0x0 BYTE SWAP1 MSTORE8 POP PUSH1 0xF PUSH1 0xFB SHL DUP2 PUSH1 0x1 DUP2 MLOAD DUP2 LT PUSH2 0x3F39 JUMPI PUSH2 0x3F39 PUSH2 0x4429 JUMP JUMPDEST PUSH1 0x20 ADD ADD SWAP1 PUSH1 0x1 PUSH1 0x1 PUSH1 0xF8 SHL SUB NOT AND SWAP1 DUP2 PUSH1 0x0 BYTE SWAP1 MSTORE8 POP PUSH1 0x0 PUSH2 0x3F5D DUP5 PUSH1 0x2 PUSH2 0x4484 JUMP JUMPDEST PUSH2 0x3F68 SWAP1 PUSH1 0x1 PUSH2 0x4455 JUMP JUMPDEST SWAP1 POP JUMPDEST PUSH1 0x1 DUP2 GT ISZERO PUSH2 0x3FE0 JUMPI PUSH16 0x181899199A1A9B1B9C1CB0B131B232B3 PUSH1 0x81 SHL DUP6 PUSH1 0xF AND PUSH1 0x10 DUP2 LT PUSH2 0x3F9C JUMPI PUSH2 0x3F9C PUSH2 0x4429 JUMP JUMPDEST BYTE PUSH1 0xF8 SHL DUP3 DUP3 DUP2 MLOAD DUP2 LT PUSH2 0x3FB2 JUMPI PUSH2 0x3FB2 PUSH2 0x4429 JUMP JUMPDEST PUSH1 0x20 ADD ADD SWAP1 PUSH1 0x1 PUSH1 0x1 PUSH1 0xF8 SHL SUB NOT AND SWAP1 DUP2 PUSH1 0x0 BYTE SWAP1 MSTORE8 POP PUSH1 0x4 SWAP5 SWAP1 SWAP5 SHR SWAP4 PUSH2 0x3FD9 DUP2 PUSH2 0x45C3 JUMP JUMPDEST SWAP1 POP PUSH2 0x3F6B JUMP JUMPDEST POP DUP4 ISZERO PUSH2 0x2D38 JUMPI PUSH1 0x40 MLOAD PUSH3 0x461BCD PUSH1 0xE5 SHL DUP2 MSTORE PUSH1 0x20 PUSH1 0x4 DUP3 ADD DUP2 SWAP1 MSTORE PUSH1 0x24 DUP3 ADD MSTORE PUSH32 0x537472696E67733A20686578206C656E67746820696E73756666696369656E74 PUSH1 0x44 DUP3 ADD MSTORE PUSH1 0x64 ADD PUSH2 0x804 JUMP JUMPDEST PUSH2 0x4039 DUP3 DUP3 PUSH2 0x2D3F JUMP JUMPDEST ISZERO PUSH2 0x1331 JUMPI PUSH1 0x0 DUP3 DUP2 MSTORE PUSH1 0x20 DUP2 DUP2 MSTORE PUSH1 0x40 DUP1 DUP4 KECCAK256 PUSH1 0x1 PUSH1 0x1 PUSH1 0xA0 SHL SUB DUP6 AND DUP1 DUP6 MSTORE SWAP3 MSTORE DUP1 DUP4 KECCAK256 DUP1 SLOAD PUSH1 0xFF NOT AND SWAP1 SSTORE MLOAD CALLER SWAP3 DUP6 SWAP2 PUSH32 0xF6391F5C32D9C69D2A47EA670B442974B53935D1EDC7FD64EB21E047A839171B SWAP2 SWAP1 LOG4 POP POP JUMP JUMPDEST PUSH1 0x0 PUSH2 0x2D38 DUP4 PUSH1 0x1 PUSH1 0x1 PUSH1 0xA0 SHL SUB DUP5 AND PUSH2 0x40E9 JUMP JUMPDEST PUSH1 0x0 DUP2 DUP4 LT PUSH2 0x40B8 JUMPI DUP2 PUSH2 0x2D38 JUMP JUMPDEST POP SWAP1 SWAP2 SWAP1 POP JUMP JUMPDEST PUSH1 0x0 DUP3 PUSH1 0x0 ADD DUP3 DUP2 SLOAD DUP2 LT PUSH2 0x40D6 JUMPI PUSH2 0x40D6 PUSH2 0x4429 JUMP JUMPDEST SWAP1 PUSH1 0x0 MSTORE PUSH1 0x20 PUSH1 0x0 KECCAK256 ADD SLOAD SWAP1 POP SWAP3 SWAP2 POP POP JUMP JUMPDEST PUSH1 0x0 DUP2 DUP2 MSTORE PUSH1 0x1 DUP4 ADD PUSH1 0x20 MSTORE PUSH1 0x40 DUP2 KECCAK256 SLOAD DUP1 ISZERO PUSH2 0x41D2 JUMPI PUSH1 0x0 PUSH2 0x410D PUSH1 0x1 DUP4 PUSH2 0x446D JUMP JUMPDEST DUP6 SLOAD SWAP1 SWAP2 POP PUSH1 0x0 SWAP1 PUSH2 0x4121 SWAP1 PUSH1 0x1 SWAP1 PUSH2 0x446D JUMP JUMPDEST SWAP1 POP DUP2 DUP2 EQ PUSH2 0x4186 JUMPI PUSH1 0x0 DUP7 PUSH1 0x0 ADD DUP3 DUP2 SLOAD DUP2 LT PUSH2 0x4141 JUMPI PUSH2 0x4141 PUSH2 0x4429 JUMP JUMPDEST SWAP1 PUSH1 0x0 MSTORE PUSH1 0x20 PUSH1 0x0 KECCAK256 ADD SLOAD SWAP1 POP DUP1 DUP8 PUSH1 0x0 ADD DUP5 DUP2 SLOAD DUP2 LT PUSH2 0x4164 JUMPI PUSH2 0x4164 PUSH2 0x4429 JUMP JUMPDEST PUSH1 0x0 SWAP2 DUP3 MSTORE PUSH1 0x20 DUP1 DUP4 KECCAK256 SWAP1 SWAP2 ADD SWAP3 SWAP1 SWAP3 SSTORE SWAP2 DUP3 MSTORE PUSH1 0x1 DUP9 ADD SWAP1 MSTORE PUSH1 0x40 SWAP1 KECCAK256 DUP4 SWAP1 SSTORE JUMPDEST DUP6 SLOAD DUP7 SWAP1 DUP1 PUSH2 0x4197 JUMPI PUSH2 0x4197 PUSH2 0x45DA JUMP JUMPDEST PUSH1 0x1 SWAP1 SUB DUP2 DUP2 SWAP1 PUSH1 0x0 MSTORE PUSH1 0x20 PUSH1 0x0 KECCAK256 ADD PUSH1 0x0 SWAP1 SSTORE SWAP1 SSTORE DUP6 PUSH1 0x1 ADD PUSH1 0x0 DUP7 DUP2 MSTORE PUSH1 0x20 ADD SWAP1 DUP2 MSTORE PUSH1 0x20 ADD PUSH1 0x0 KECCAK256 PUSH1 0x0 SWAP1 SSTORE PUSH1 0x1 SWAP4 POP POP POP POP PUSH2 0x6A2 JUMP JUMPDEST PUSH1 0x0 SWAP2 POP POP PUSH2 0x6A2 JUMP JUMPDEST PUSH1 0x0 PUSH1 0x20 DUP3 DUP5 SUB SLT ISZERO PUSH2 0x41EE JUMPI PUSH1 0x0 DUP1 REVERT JUMPDEST DUP2 CALLDATALOAD PUSH1 0x1 PUSH1 0x1 PUSH1 0xE0 SHL SUB NOT DUP2 AND DUP2 EQ PUSH2 0x2D38 JUMPI PUSH1 0x0 DUP1 REVERT JUMPDEST DUP1 CALLDATALOAD PUSH1 0x1 PUSH1 0x1 PUSH1 0xA0 SHL SUB DUP2 AND DUP2 EQ PUSH2 0x421D JUMPI PUSH1 0x0 DUP1 REVERT JUMPDEST SWAP2 SWAP1 POP JUMP JUMPDEST PUSH1 0x0 PUSH1 0x20 DUP3 DUP5 SUB SLT ISZERO PUSH2 0x4234 JUMPI PUSH1 0x0 DUP1 REVERT JUMPDEST PUSH2 0x2D38 DUP3 PUSH2 0x4206 JUMP JUMPDEST PUSH1 0x0 JUMPDEST DUP4 DUP2 LT ISZERO PUSH2 0x4258 JUMPI DUP2 DUP2 ADD MLOAD DUP4 DUP3 ADD MSTORE PUSH1 0x20 ADD PUSH2 0x4240 JUMP JUMPDEST DUP4 DUP2 GT ISZERO PUSH2 0x2110 JUMPI POP POP PUSH1 0x0 SWAP2 ADD MSTORE JUMP JUMPDEST PUSH1 0x20 DUP2 MSTORE PUSH1 0x0 DUP3 MLOAD DUP1 PUSH1 0x20 DUP5 ADD MSTORE PUSH2 0x4288 DUP2 PUSH1 0x40 DUP6 ADD PUSH1 0x20 DUP8 ADD PUSH2 0x423D JUMP JUMPDEST PUSH1 0x1F ADD PUSH1 0x1F NOT AND SWAP2 SWAP1 SWAP2 ADD PUSH1 0x40 ADD SWAP3 SWAP2 POP POP JUMP JUMPDEST PUSH1 0x0 PUSH1 0x20 DUP3 DUP5 SUB SLT ISZERO PUSH2 0x42AE JUMPI PUSH1 0x0 DUP1 REVERT JUMPDEST POP CALLDATALOAD SWAP2 SWAP1 POP JUMP JUMPDEST PUSH1 0x0 DUP1 PUSH1 0x40 DUP4 DUP6 SUB SLT ISZERO PUSH2 0x42C8 JUMPI PUSH1 0x0 DUP1 REVERT JUMPDEST DUP3 CALLDATALOAD SWAP2 POP PUSH2 0x42D8 PUSH1 0x20 DUP5 ADD PUSH2 0x4206 JUMP JUMPDEST SWAP1 POP SWAP3 POP SWAP3 SWAP1 POP JUMP JUMPDEST PUSH1 0x0 DUP1 PUSH1 0x0 DUP1 PUSH1 0x80 DUP6 DUP8 SUB SLT ISZERO PUSH2 0x42F7 JUMPI PUSH1 0x0 DUP1 REVERT JUMPDEST DUP5 CALLDATALOAD SWAP4 POP PUSH2 0x4307 PUSH1 0x20 DUP7 ADD PUSH2 0x4206 JUMP JUMPDEST SWAP3 POP PUSH1 0x40 DUP6 ADD CALLDATALOAD SWAP2 POP PUSH2 0x431C PUSH1 0x60 DUP7 ADD PUSH2 0x4206 JUMP JUMPDEST SWAP1 POP SWAP3 SWAP6 SWAP2 SWAP5 POP SWAP3 POP JUMP JUMPDEST PUSH1 0x0 DUP1 PUSH1 0x40 DUP4 DUP6 SUB SLT ISZERO PUSH2 0x433A JUMPI PUSH1 0x0 DUP1 REVERT JUMPDEST PUSH2 0x4343 DUP4 PUSH2 0x4206 JUMP JUMPDEST SWAP5 PUSH1 0x20 SWAP4 SWAP1 SWAP4 ADD CALLDATALOAD SWAP4 POP POP POP JUMP JUMPDEST PUSH1 0x0 DUP1 PUSH1 0x40 DUP4 DUP6 SUB SLT ISZERO PUSH2 0x4364 JUMPI PUSH1 0x0 DUP1 REVERT JUMPDEST PUSH2 0x436D DUP4 PUSH2 0x4206 JUMP JUMPDEST SWAP2 POP PUSH2 0x42D8 PUSH1 0x20 DUP5 ADD PUSH2 0x4206 JUMP JUMPDEST PUSH1 0x0 DUP1 PUSH1 0x40 DUP4 DUP6 SUB SLT ISZERO PUSH2 0x438E JUMPI PUSH1 0x0 DUP1 REVERT JUMPDEST POP POP DUP1 CALLDATALOAD SWAP3 PUSH1 0x20 SWAP1 SWAP2 ADD CALLDATALOAD SWAP2 POP JUMP JUMPDEST PUSH1 0x0 DUP1 PUSH1 0x0 PUSH1 0x60 DUP5 DUP7 SUB SLT ISZERO PUSH2 0x43B2 JUMPI PUSH1 0x0 DUP1 REVERT JUMPDEST PUSH2 0x43BB DUP5 PUSH2 0x4206 JUMP JUMPDEST SWAP3 POP PUSH1 0x20 DUP5 ADD CALLDATALOAD SWAP2 POP PUSH1 0x40 DUP5 ADD CALLDATALOAD DUP1 ISZERO ISZERO DUP2 EQ PUSH2 0x43D7 JUMPI PUSH1 0x0 DUP1 REVERT JUMPDEST DUP1 SWAP2 POP POP SWAP3 POP SWAP3 POP SWAP3 JUMP JUMPDEST PUSH1 0x0 PUSH1 0x20 DUP3 DUP5 SUB SLT ISZERO PUSH2 0x43F4 JUMPI PUSH1 0x0 DUP1 REVERT JUMPDEST POP MLOAD SWAP2 SWAP1 POP JUMP JUMPDEST PUSH1 0x20 DUP1 DUP3 MSTORE PUSH1 0x14 SWAP1 DUP3 ADD MSTORE PUSH20 0x6D75737420686176652061646D696E20726F6C65 PUSH1 0x60 SHL PUSH1 0x40 DUP3 ADD MSTORE PUSH1 0x60 ADD SWAP1 JUMP JUMPDEST PUSH4 0x4E487B71 PUSH1 0xE0 SHL PUSH1 0x0 MSTORE PUSH1 0x32 PUSH1 0x4 MSTORE PUSH1 0x24 PUSH1 0x0 REVERT JUMPDEST PUSH4 0x4E487B71 PUSH1 0xE0 SHL PUSH1 0x0 MSTORE PUSH1 0x11 PUSH1 0x4 MSTORE PUSH1 0x24 PUSH1 0x0 REVERT JUMPDEST PUSH1 0x0 DUP3 NOT DUP3 GT ISZERO PUSH2 0x4468 JUMPI PUSH2 0x4468 PUSH2 0x443F JUMP JUMPDEST POP ADD SWAP1 JUMP JUMPDEST PUSH1 0x0 DUP3 DUP3 LT ISZERO PUSH2 0x447F JUMPI PUSH2 0x447F PUSH2 0x443F JUMP JUMPDEST POP SUB SWAP1 JUMP JUMPDEST PUSH1 0x0 DUP2 PUSH1 0x0 NOT DIV DUP4 GT DUP3 ISZERO ISZERO AND ISZERO PUSH2 0x449E JUMPI PUSH2 0x449E PUSH2 0x443F JUMP JUMPDEST POP MUL SWAP1 JUMP JUMPDEST PUSH1 0x0 DUP3 PUSH2 0x44C0 JUMPI PUSH4 0x4E487B71 PUSH1 0xE0 SHL PUSH1 0x0 MSTORE PUSH1 0x12 PUSH1 0x4 MSTORE PUSH1 0x24 PUSH1 0x0 REVERT JUMPDEST POP DIV SWAP1 JUMP JUMPDEST PUSH1 0x1 PUSH1 0x1 PUSH1 0xA0 SHL SUB SWAP4 DUP5 AND DUP2 MSTORE SWAP2 SWAP1 SWAP3 AND PUSH1 0x20 DUP3 ADD MSTORE PUSH1 0x40 DUP2 ADD SWAP2 SWAP1 SWAP2 MSTORE PUSH1 0x60 ADD SWAP1 JUMP JUMPDEST PUSH1 0x0 PUSH2 0xFFFF DUP1 DUP4 AND DUP2 DUP2 EQ ISZERO PUSH2 0x4501 JUMPI PUSH2 0x4501 PUSH2 0x443F JUMP JUMPDEST PUSH1 0x1 ADD SWAP4 SWAP3 POP POP POP JUMP JUMPDEST PUSH1 0x20 DUP1 DUP3 MSTORE PUSH1 0x13 SWAP1 DUP3 ADD MSTORE PUSH19 0x185CDCD95D081B9BDD081CDD5C1C1BDC9D1959 PUSH1 0x6A SHL PUSH1 0x40 DUP3 ADD MSTORE PUSH1 0x60 ADD SWAP1 JUMP JUMPDEST PUSH32 0x416363657373436F6E74726F6C3A206163636F756E7420000000000000000000 DUP2 MSTORE PUSH1 0x0 DUP4 MLOAD PUSH2 0x4570 DUP2 PUSH1 0x17 DUP6 ADD PUSH1 0x20 DUP9 ADD PUSH2 0x423D JUMP JUMPDEST PUSH17 0x1034B99036B4B9B9B4B733903937B6329 PUSH1 0x7D SHL PUSH1 0x17 SWAP2 DUP5 ADD SWAP2 DUP3 ADD MSTORE DUP4 MLOAD PUSH2 0x45A1 DUP2 PUSH1 0x28 DUP5 ADD PUSH1 0x20 DUP9 ADD PUSH2 0x423D JUMP JUMPDEST ADD PUSH1 0x28 ADD SWAP5 SWAP4 POP POP POP POP JUMP JUMPDEST PUSH4 0x4E487B71 PUSH1 0xE0 SHL PUSH1 0x0 MSTORE PUSH1 0x41 PUSH1 0x4 MSTORE PUSH1 0x24 PUSH1 0x0 REVERT JUMPDEST PUSH1 0x0 DUP2 PUSH2 0x45D2 JUMPI PUSH2 0x45D2 PUSH2 0x443F JUMP JUMPDEST POP PUSH1 0x0 NOT ADD SWAP1 JUMP JUMPDEST PUSH4 0x4E487B71 PUSH1 0xE0 SHL PUSH1 0x0 MSTORE PUSH1 0x31 PUSH1 0x4 MSTORE PUSH1 0x24 PUSH1 0x0 REVERT INVALID 0x4C PUSH10 0x717569646174696F6E20 MSTORE PUSH10 0x736B3A20436F6C6C6174 PUSH6 0x72616C207661 PUSH13 0x756520617070726F616368696E PUSH8 0x204C545620726571 PUSH22 0x6972656D656E74A49807205CE4D355092EF5A8A18F56 0xE8 SWAP2 EXTCODECOPY DELEGATECALL LOG2 ADD 0xFB 0xE2 DUP8 DUP3 JUMPDEST MULMOD JUMP SWAP4 0xC2 OR PUSH22 0xA26469706673582212206CF18A0820F60DE8A8A0050E SWAP3 0xED SWAP1 0x5D 0xB6 LOG0 SWAP15 0xD8 SWAP9 LOG0 PUSH23 0x1B971E6732575422BB64736F6C634300080B0033000000 ","sha1":"f6cc9065e31ee5d4ef3c350c5c1dc8e6c09e40a4","source":"// SPDX-License-Identifier: MIT\n\npragma solidity ^0.8.0;\n\nimport \"@openzeppelin/contracts/utils/math/SafeMath.sol\";\nimport \"@openzeppelin/contracts/token/ERC20/IERC20.sol\";\nimport \"@openzeppelin/contracts/access/AccessControlEnumerable.sol\";\nimport \"../interfaces/InterfaceLendingPool.sol\";\nimport \"./Math.sol\";\nimport \"./2_Pool.sol\";\nimport \"./3_Collateral.sol\";\nimport \"./LVRToken.sol\";\nimport \"./Conversion.sol\";\n\ncontract LendingPool is InterfaceLendingPool, AccessControlEnumerable {\n    using SafeMath for uint256;\n    using Math for uint256;\n\n    event depositEvent(\n        address _user,\n        address _asset,\n        uint256 _quantity,\n        uint256 _tokensMinted\n    );\n    event borrowEvent(\n        address _user,\n        uint256 _borrowed,\n        address _borrowedAsset,\n        uint256 _collateral,\n        address _collateralAsset\n    );\n    event redeemEvent(address _user, address _asset, uint256 _tokensBurned);\n    event repayEvent(address _user, address _asset, uint256 _quantity);\n    event withdrawCollateralEvent(\n        address _user,\n        address _asset,\n        uint256 _quantity\n    );\n\n    //time to track last interest accruel\n    uint256 interestTime = block.timestamp;\n\n    //public keyword??\n    Conversion conversion;\n    Pool pool;\n    Collateral collateral;\n    LVRToken token;\n    //Reserve reserve;\n    address owner;\n\n    mapping(address => uint256) lenderTokenTracker;\n\n    address[] supportedAssets;\n    mapping(address => bool) supportedAssetTracker;\n\n    struct borrowAmountTracker {\n        uint256 principal;\n        uint256 interest;\n    }\n    //asset -> user -> amount\n    mapping(address => mapping(address => borrowAmountTracker))\n        public borrowTracker;\n\n    //asset -> user -> amount lent\n    mapping(address => mapping(address => uint256)) LentAmountTracker;\n\n    //asset -> list of borrowers\n    mapping(address => address[]) borrowersByAsset;\n    //mapping to make sure no double adding:\n    mapping(address => mapping(address => bool)) initializedBorrowerTracker;\n\n    //total list of borrowers\n    address[] borrowers; //Note new\n    //mapping to make sure no double adding:\n    mapping(address => bool) initializedBorrowers; //Note new\n\n    //asset -> list of borrowers\n    mapping(address => address[]) lendersByAsset;\n    //mapping to make sure no double adding:\n    mapping(address => mapping(address => bool)) initializedLenderTracker;\n\n    bytes32 public constant ADMIN_ROLE = keccak256(\"ADMIN_ROLE\");\n\n    constructor() {\n        pool = new Pool();\n        token = new LVRToken(\"LeverToken\", \"LVR\", address(pool));\n        collateral = new Collateral(address(pool));\n        conversion = new Conversion();\n\n        //set up supported currencies\n        /*\n         *rinkeby LINK contract location: 0x01BE23585060835E02B77ef475b0Cc51aA1e0709\n         *rinkeby DAI  contract location: 0x5592EC0cfb4dbc12D3aB100b257153436a1f0FEa\n         *rinkeby WETH contract location: 0xc778417E063141139Fce010982780140Aa0cD5Ab\n         */\n        address WETH = 0xc778417E063141139Fce010982780140Aa0cD5Ab;\n        address LINK = 0x01BE23585060835E02B77ef475b0Cc51aA1e0709;\n        address DAI = 0x5592EC0cfb4dbc12D3aB100b257153436a1f0FEa;\n\n        supportedAssets.push(LINK);\n        supportedAssetTracker[LINK] = true;\n        supportedAssets.push(DAI);\n        supportedAssetTracker[DAI] = true;\n        supportedAssets.push(WETH);\n        supportedAssetTracker[WETH] = true;\n\n        _setupRole(ADMIN_ROLE, msg.sender);\n        pool.addOwner(address(collateral));\n    }\n\n    modifier onlyOwner() {\n        require(hasRole(ADMIN_ROLE, msg.sender), \"must have admin role\");\n        _;\n    }\n\n    function Deposit(uint256 _quantity, address _asset) public {\n        require(supportedAssetTracker[_asset] == true, \"asset not supported\");\n        accrueInterest();\n        // //uint256 _borrowNow? why not bool?\n        require(_quantity > 0, \"deposit must be positive\");\n        uint256 tokenQuantity = token.mint(msg.sender, _quantity, _asset);\n        lenderTokenTracker[msg.sender] += tokenQuantity;\n        pool.depositTransfer(msg.sender, _asset, _quantity);\n        if (!initializedLenderTracker[_asset][msg.sender]) {\n            lendersByAsset[_asset].push(msg.sender);\n            initializedLenderTracker[_asset][msg.sender] = true;\n        }\n        LentAmountTracker[_asset][msg.sender] += _quantity;\n\n        emit depositEvent(msg.sender, _asset, _quantity, tokenQuantity);\n    }\n\n    // //withdraw based on asset quantity desired\n    // function Withdraw(address _desiredAsset, uint256 _amountToRemove) public {\n    //     uint256 assetPriceUSD = conversion.getPrice(_desiredAsset);\n\n    //     //check if enough liquid to send\n    //     require(\n    //         _amountToRemove <= pool.getLiquidQuantity(_desiredAsset),\n    //         \"User cannot redeem more than the available balance\"\n    //     ); // future this will only check to see if we have any liquid - engine will swap currencies to allow user to withdraw anything they want.\n\n    //     // total value of currency redeemable by user\n    //     uint256 totalAssetValueFromOwnedTokens = ((token.balanceOf(msg.sender) *\n    //         token.tokenDollarValue()) / assetPriceUSD); // Units: N token * USD/token / USD/currency = N currency\n\n    //     // check that the user is allowed to redeem the amount\n    //     // seems to be some precision errors\n    //     require(\n    //         (totalAssetValueFromOwnedTokens >= _amountToRemove),\n    //         \"Cannot redeem more tokens than number owned\"\n    //     );\n\n    //     uint256 burnNumber = ((assetPriceUSD * _amountToRemove) /\n    //         token.tokenDollarValue()); // Units: USD/currecny * N currency / (USD/token) = N token\n\n    //     lenderTokenTracker[msg.sender] -= burnNumber;\n    //     if (lenderTokenTracker[msg.sender] == 0) {\n    //         delete lenderTokenTracker[msg.sender];\n    //     }\n    //     pool.withdrawTransfer(msg.sender, _desiredAsset, _amountToRemove);\n    //     token.burn(msg.sender, burnNumber);\n    // }\n\n    //////////////// function if we want to withdraw based on LVR token quanitity//////////////////\n\n    //need to adjust pool value by amount not lent-solved by having reserve contract deposit and get LVR\n    // so instead of having it transfer from reserve, it deposits appropriate amount of currency,\n    // recieves LVR tokens, then the user can withdraw the desired amount\n    //Then, the reserve will trade LVR to get other assets back\n    function Withdraw(address _asset, uint256 _tokenQuantity) public {\n        require(supportedAssetTracker[_asset], \"asset not supported\");\n        // check that the user is allowed to redeem the amount\n        require(\n            (token.balanceOf(msg.sender) >= _tokenQuantity),\n            \"Cannot redeem more tokens than number owned\"\n        );\n\n        accrueInterest();\n        uint256 assetPriceUSD = conversion.getPrice(_asset);\n\n        // total value of currency redeemable by user\n        uint256 totalAssetFromTokens = ((_tokenQuantity *\n            token.tokenDollarValue()) / assetPriceUSD); // Units: N token * USD/token / USD/currency = N currency\n\n        token.burn(msg.sender, _tokenQuantity);\n\n        lenderTokenTracker[msg.sender] -= _tokenQuantity;\n        if (lenderTokenTracker[msg.sender] == 0) {\n            delete lenderTokenTracker[msg.sender];\n        }\n\n        if (LentAmountTracker[_asset][msg.sender] == 0) {\n            //if they didnt lend the asset, withraw comes from reserve// make sure reserve has enough\n\n            //minumum(totalAssetFromTokens, pool.getReserveQuantity(_asset));\n            //min(amount in reserve, amount from tokens)\n            //remove from reserve only\n            //leftover request will not be withdrawn\n            // burn/subtract tokens from assetwithdrawn\n\n            pool.reserveWithdrawTransfer(\n                msg.sender,\n                _asset,\n                totalAssetFromTokens\n            );\n        } else if (\n            LentAmountTracker[_asset][msg.sender] < totalAssetFromTokens\n        ) {\n            uint256 quantityFromReserves = totalAssetFromTokens -\n                LentAmountTracker[_asset][msg.sender];\n\n            if (\n                LentAmountTracker[_asset][msg.sender] >\n                pool.getLiquidQuantity(_asset)\n            ) {\n                //transfer from reserve if pool doesnt have enough liquidity\n\n                uint256 residualQuantity = (totalAssetFromTokens -\n                    pool.getLiquidQuantity(_asset));\n                pool.withdrawTransfer(\n                    msg.sender,\n                    _asset,\n                    pool.getLiquidQuantity(_asset)\n                );\n\n                pool.reserveWithdrawTransfer(\n                    msg.sender,\n                    _asset,\n                    residualQuantity\n                ); //(quantityFromReserves+remainingFromReserve));\n            } else {\n                pool.withdrawTransfer(\n                    msg.sender,\n                    _asset,\n                    LentAmountTracker[_asset][msg.sender]\n                );\n\n                pool.reserveWithdrawTransfer(\n                    msg.sender,\n                    _asset,\n                    quantityFromReserves\n                );\n            }\n            LentAmountTracker[_asset][msg.sender] = 0;\n        } else {\n            uint256 assetQuantity = minimum(\n                totalAssetFromTokens,\n                LentAmountTracker[_asset][msg.sender]\n            );\n            LentAmountTracker[_asset][msg.sender] -= assetQuantity;\n            if (assetQuantity > pool.getLiquidQuantity(_asset)) {\n                //transfer from reserve if pool doesnt have enough liquidity\n\n                uint256 residualReserve = (assetQuantity -\n                    pool.getLiquidQuantity(_asset));\n\n                pool.withdrawTransfer(\n                    msg.sender,\n                    _asset,\n                    pool.getLiquidQuantity(_asset)\n                );\n                pool.reserveWithdrawTransfer(\n                    msg.sender,\n                    _asset,\n                    residualReserve\n                );\n            } else {\n                pool.withdrawTransfer(msg.sender, _asset, totalAssetFromTokens);\n            }\n            //If they lent more than withdrawing, subtract total withdraw from amount lent\n        }\n        // here we should first replenish reserve using the reservs from other coins\n        pool.balanceReserves(_asset);\n        emit redeemEvent(msg.sender, _asset, _tokenQuantity);\n    }\n\n    function getAssetFromTokens(address _asset, uint256 _quantity)\n        public\n        view\n        returns (uint256)\n    {\n        uint256 assetPriceUSD = conversion.getPrice(_asset);\n        return ((_quantity * token.tokenDollarValue()) / assetPriceUSD);\n    }\n\n    //this will have to also transfer LVR if they wont to borrow against that.\n    // what about choosing collateral to borrrow against.\n    function Borrow(\n        uint256 _borrowQuantity,\n        address _asset,\n        uint256 _collateralQuantity,\n        address _collateral\n    ) public {\n        require(supportedAssetTracker[_asset], \"asset not supported\");\n        require(supportedAssetTracker[_collateral], \"asset not supported\");\n\n        require( // check if pool has funds\n            ((_borrowQuantity <= pool.getLiquidQuantity(_asset))),\n            \"not enough liquidity to borrow\"\n        ); // can only borrow from liquid pool\n\n        accrueInterest();\n        // check if deposited collateral + outstanding collateral is enough to cover thier borrow request\n        uint256 usdCollateralValue = ((conversion.getPrice(_collateral) *\n            _collateralQuantity) / collateral.collReqByAsset(_collateral)) +\n            collateral.scaledCollateralValue(msg.sender);\n        uint256 usdBorrowValue = (conversion.getPrice(_asset) *\n            _borrowQuantity) /\n            (10**18) +\n            totalValueBorrowed(msg.sender);\n\n        require(\n            usdCollateralValue >= usdBorrowValue,\n            \"not enough collateral to borrow\"\n        );\n        collateral.depositCollateral(\n            msg.sender,\n            _collateral,\n            _collateralQuantity\n        );\n\n        pool.borrowTransfer(msg.sender, _asset, _borrowQuantity);\n\n        emit borrowEvent(\n            msg.sender,\n            _borrowQuantity,\n            _asset,\n            _collateralQuantity,\n            _collateral\n        );\n\n        borrowTracker[_asset][msg.sender].principal += _borrowQuantity;\n\n        //only add to array if user doesnt exist already\n        if (!initializedBorrowerTracker[_asset][msg.sender]) {\n            borrowersByAsset[_asset].push(msg.sender);\n            initializedBorrowerTracker[_asset][msg.sender] = true;\n        }\n\n        //only add user if it doesnt exist there already\n        if (!initializedBorrowers[msg.sender]) {\n            borrowers.push(msg.sender);\n            initializedBorrowers[msg.sender] = true;\n        }\n\n        pool.balanceReserves(_asset);\n\n        emit borrowEvent(\n            msg.sender,\n            _borrowQuantity,\n            _asset,\n            _collateralQuantity,\n            _collateral\n        );\n    }\n\n    // User repays loan by specifying the asset they are giving back and how much\n    //repaying loan involves returning borrowed asset quantity\n    function Repay(address _asset, uint256 _repayQuantity) public {\n        require(supportedAssetTracker[_asset], \"asset not supported\");\n\n        //cant return more than borrowed\n        accrueInterest();\n        if (_repayQuantity == 1) {\n            _repayQuantity = getOutstandingLoan(msg.sender, _asset);\n        }\n        require(\n            (borrowTracker[_asset][msg.sender].principal +\n                borrowTracker[_asset][msg.sender].interest) >= _repayQuantity,\n            \"Returned more than borrowed\"\n        );\n\n        //remove interest first, then principal balance upon repayment\n        uint256 interest_portion = minimum(\n            _repayQuantity,\n            borrowTracker[_asset][msg.sender].interest\n        ); //  sub1 = min(repayment, interest)\n        uint256 principal_portion = (_repayQuantity - interest_portion); //  principal_portion  = repayment - sub1\n        //this after interest_portion and principal_portion so we can subtract this from brwQty in Pool.sol\n        pool.repayTransfer(\n            msg.sender,\n            _asset,\n            _repayQuantity,\n            principal_portion,\n            interest_portion\n        );\n\n        borrowTracker[_asset][msg.sender].principal -= principal_portion; //  subtract that from principal so that it goes to zero\n        borrowTracker[_asset][msg.sender].interest -= interest_portion; //  subtract interest_portion from interest\n\n        if (borrowTracker[_asset][msg.sender].principal == 0) {\n            delete borrowTracker[_asset][msg.sender].principal;\n        }\n        if (borrowTracker[_asset][msg.sender].interest == 0) {\n            delete borrowTracker[_asset][msg.sender].interest;\n        }\n\n        pool.balanceReserves(_asset);\n\n        emit repayEvent(msg.sender, _asset, _repayQuantity);\n\n        payoutInterest();\n    }\n\n    function unlockCollateral(\n        address _asset,\n        uint256 _quantity,\n        bool _toPool\n    ) public {\n        require(supportedAssetTracker[_asset], \"asset not supported\");\n        accrueInterest();\n        //check if they have loan value less than collat value/collatQtyReq\n        //all require checks must happen here first because we have to update our internal strcutures first before transfering\n        //so that means transfer of collateral must go through.\n        require(\n            (collateral.scaledCollateralValue(msg.sender) -\n                ((conversion.getPrice(_asset) * _quantity) /\n                    collateral.collReqByAsset(_asset))) >=\n                totalValueBorrowed(msg.sender),\n            \"Cannot withdraw collateral before paying back loan\"\n        );\n        uint256 collateralDeposited = collateral.userCollateral(\n            _asset,\n            msg.sender\n        );\n\n        require(\n            _quantity <= collateralDeposited,\n            \"Redeeming more collateral than deposited\"\n        );\n        if (_toPool == true) {\n            uint256 tokenQuantity = token.mint(msg.sender, _quantity, _asset);\n            lenderTokenTracker[msg.sender] += tokenQuantity;\n\n            if (!initializedLenderTracker[_asset][msg.sender]) {\n                lendersByAsset[_asset].push(msg.sender);\n                initializedLenderTracker[_asset][msg.sender] = true;\n            }\n            LentAmountTracker[_asset][msg.sender] += _quantity;\n            emit depositEvent(msg.sender, _asset, _quantity, tokenQuantity);\n        } else {\n            emit withdrawCollateralEvent(msg.sender, _asset, _quantity);\n        }\n        collateral.removeCollateral(msg.sender, _asset, _quantity, _toPool);\n    }\n\n    function accrueInterest() internal {\n        uint256 numAssets = supportedAssets.length;\n        for (uint16 i = 0; i < numAssets; i++) {\n            address asset = supportedAssets[i];\n            uint256 numBorrowers = borrowersByAsset[asset].length;\n            uint256 assetInterestRate = pool.InterestRate(asset, interestTime);\n            for (uint16 j = 0; j < numBorrowers; j++) {\n                address user = borrowersByAsset[asset][j];\n                borrowTracker[asset][user].interest += ((assetInterestRate *\n                    borrowTracker[asset][user].principal) / (1 * 10**18));\n            }\n        }\n        interestTime = block.timestamp;\n    }\n\n    function payoutInterest() public onlyOwner {\n        //accrueInterest(); should this be here?\n        /*\n        Note:  when calculating pool value, liquidity should be used, not balance of contract itself. \n`       For each asset\n        1) total amount of asset lent\n        2) how much each person lent of that asset\n        3) ratio of those (call it r1) is how much of interest they get\n        For each person:\n        1) list of lenders\n        2) how much they lent in lVR\n        3) current number of LVR\n        4) ratio of those(call it r2) is what they get of thier cut\n        5) multiply r1*r2 to get total asset receiving \n        6) mint LVR for the value of r1*r2*totalInterest to payout\n                if user withdraws, delete old lending stats, so if they redposit they start fresh\n         */\n        accrueInterest();\n        uint256 numAssets = supportedAssets.length;\n        for (uint16 i = 0; i < numAssets; i++) {\n            address asset = supportedAssets[i];\n            uint256 totalAsset = totalAssetLent(asset);\n            uint256 interest = pool.getInterestQuantity(asset);\n            uint256 numLenders = lendersByAsset[asset].length;\n            for (uint16 j = 0; j < numLenders; j++) {\n                address user = lendersByAsset[asset][j];\n                if (token.balanceOf(user) < 1 * 10**16) {\n                    //arbitrary cutoff^- should it be lower?\n                    lenderTokenTracker[user] = 0;\n                    LentAmountTracker[asset][user] = 0;\n                    uint256 totalAsset = totalAssetLent(asset); // recalc total lent if their's is removed\n                } else {\n                    uint256 retainedTokenRatio = (token.balanceOf(user) *\n                        (10**18)) / lenderTokenTracker[user];\n                    uint256 percentOfPool = (LentAmountTracker[asset][user] *\n                        (10**18)) / totalAsset;\n                    uint256 userInterestQuantity = (retainedTokenRatio *\n                        percentOfPool *\n                        interest) / ((10**18)**2);\n                    uint256 tokenQuantity = token.mint(\n                        user,\n                        userInterestQuantity,\n                        asset\n                    ); //mint token since interest is in pool, then\n                    lenderTokenTracker[user] += tokenQuantity; //update how much lvr user has, then\n                    LentAmountTracker[asset][user] += userInterestQuantity; //update how much they lent\n                }\n            }\n            pool.resetInterest(asset);\n        }\n    }\n\n    function liquidationManager() public onlyOwner returns (string memory) {\n        //Note new\n        /*\n        -loop maybe once per hour or day\n        1) loop through users, make sure collat value > collreq*loanValue\n        2) if it is close, alert the user\n        3) if below, scale thier loan value, transfer part of collat to pool, dont mint tokens\n        */\n        uint256 numBorrowers = borrowers.length;\n        uint256 numAssets = supportedAssets.length;\n\n        for (uint16 i = 0; i < numBorrowers; i++) {\n            address user = borrowers[i];\n            uint256 usdCollateralValue = collateral.scaledCollateralValue(user);\n            uint256 usdBorrowValue = totalValueBorrowed(user);\n\n            if (usdCollateralValue < usdBorrowValue) {\n                for (uint16 j = 0; j < numAssets; j++) {\n                    address asset = supportedAssets[j];\n                    uint256 mult = collateral.collReqByAsset(asset);\n                    //set loan value lower\n                    //transfer to pool without minting tokens\n\n                    uint256 loanScalar = loanLiquidationFactor(\n                        usdBorrowValue,\n                        mult,\n                        usdCollateralValue\n                    );\n                    uint256 collScalar = collateralLiquidationFactor(\n                        usdBorrowValue,\n                        mult,\n                        usdCollateralValue\n                    );\n                    if (\n                        borrowTracker[asset][user].principal > 0 ||\n                        borrowTracker[asset][user].interest > 0\n                    ) {\n                        uint256 amountToReplenish = ((1 * 10**18) -\n                            loanScalar) *\n                            (borrowTracker[asset][user].interest +\n                                borrowTracker[asset][user].principal);\n                        borrowTracker[asset][user].interest =\n                            (borrowTracker[asset][user].interest * loanScalar) /\n                            (10**18);\n                        borrowTracker[asset][user].principal =\n                            (borrowTracker[asset][user].principal *\n                                loanScalar) /\n                            (10**18);\n                        //send equal reserve to pool\n                        pool.replenishPoolOnDefault(asset, amountToReplenish);\n                    }\n                    if (collateral.userCollateral(user, asset) > 0) {\n                        uint256 collatQuantity = (collateral.userCollateral(\n                            user,\n                            asset\n                        ) * collScalar) / (10**18);\n                        /*\n                         * collat to reserve\n                         * borrow asset to pool from reserve\n                         */\n\n                        collateral.defaultCollateralTransfer(\n                            user,\n                            asset,\n                            collatQuantity\n                        );\n                        pool.recieveDefaultCollateral(asset, collatQuantity);\n                    }\n                    pool.balanceReserves(asset);\n                }\n\n                return (\"Loan Partially Liquidated\");\n            } else if (usdCollateralValue < (105 * usdBorrowValue) / 100) {\n                return (\n                    \"Liquidation Risk: Collateral value approaching LTV requirement\"\n                );\n            }\n        }\n\n        //delete borrower if they repayed all- how?\n        // if (totalValueBorrowed(msg.sender) == 0) {\n        //     borrowers :remove (msg.sender);\n        //     initializedBorrowers[msg.sender] = false;\n        // }\n    }\n\n    function loanLiquidationFactor(\n        uint256 _loan,\n        uint256 _multiplier,\n        uint256 _collateral\n    ) internal pure returns (uint256) {\n        uint256 scale = (16 *\n            10**17 *\n            (((_loan * _multiplier) / 10**18) - _collateral)) /\n            ((((_multiplier - 1 * 10**18) * _loan) / (1 * 10**18)));\n        return (1 * 10**18 - scale); //multiply loan value by this\n    }\n\n    function collateralLiquidationFactor(\n        uint256 _loan,\n        uint256 _multiplier,\n        uint256 _collateral\n    ) internal pure returns (uint256) {\n        uint256 scale = (16 *\n            10**17 *\n            (((_loan * _multiplier) / 10**18) - _collateral)) /\n            ((((_multiplier - 1 * 10**18) * _collateral) / (1 * 10**18)));\n        return (scale); //take this much from collat\n    }\n\n    function totalValueBorrowed(address _borrower)\n        public\n        view\n        returns (uint256)\n    {\n        uint256 totalBorrowValue = 0;\n\n        // make this less bits?\n        uint256 numAssets = supportedAssets.length;\n\n        //loop to calculate the value of the pool liquid + borrowed\n        for (uint16 i = 0; i < numAssets; i++) {\n            address asset = supportedAssets[i];\n            uint256 assetPrice = conversion.getPrice(asset);\n            totalBorrowValue += (((borrowTracker[asset][_borrower].principal +\n                borrowTracker[asset][_borrower].interest) * assetPrice) /\n                (1 * 10**18));\n        }\n        return totalBorrowValue;\n    }\n\n    function interestQuantity(address _user, address _asset)\n        public\n        view\n        returns (uint256)\n    {\n        return borrowTracker[_asset][_user].interest;\n    }\n\n    function totalAssetLent(address _asset) internal view returns (uint256) {\n        uint256 numLenders = lendersByAsset[_asset].length;\n        uint256 totalLent = 0;\n\n        for (uint16 i = 0; i < numLenders; i++) {\n            totalLent += LentAmountTracker[_asset][lendersByAsset[_asset][i]];\n        }\n        return totalLent;\n    }\n\n    function offerCollateralAssets() public {\n        // just needs to check with the pool to see what assets we can offer\n        //users to use as collateral - called when borrowing (if they deposit\n        //LVR and want to use something else)\n        // to do this we probably need to come up with some reserve rules, etc\n    }\n\n    function getInterestRate(address _asset) public view returns (uint256) {\n        return pool.InterestRate(_asset, interestTime);\n    }\n\n    function minimum(uint256 a, uint256 b) internal pure returns (uint256) {\n        return a.min(b);\n    }\n\n    function getLiquidity(address _token) public view returns (uint256) {\n        return pool.getLiquidQuantity(_token);\n    }\n\n    function getTotalBorrow(address _token) public view returns (uint256) {\n        return pool.getBorrowQuantity(_token);\n    }\n\n    function getPoolBalance(address _token) public view returns (uint256) {\n        return pool.getBalance(_token);\n    }\n\n    function getLiquidPct(address _token) public view returns (uint256) {\n        return pool.getLiquidPct(_token);\n    }\n\n    function getLockedCollateral(address _token) public view returns (uint256) {\n        return collateral.getCollateralQuantity(_token);\n    }\n\n    function getCollBalance(address _token) public view returns (uint256) {\n        return collateral.getBalance(_token);\n    }\n\n    function getPoolAddr() public view returns (address) {\n        return address(pool);\n    }\n\n    function getCollAddr() public view returns (address) {\n        return address(collateral);\n    }\n\n    function getTokenAddr() public view returns (address) {\n        return address(token);\n    }\n\n    function getTokenDollarValue() public view returns (uint256) {\n        return token.tokenDollarValue();\n    }\n\n    function getPoolValue() public view returns (uint256) {\n        return pool.getTotalPool();\n    }\n\n    function getTotalSupply() public view returns (uint256) {\n        return token.totalSupply();\n    }\n\n    function getBalanceOf(address _user) public view returns (uint256) {\n        return token.balanceOf(_user);\n    }\n\n    function getCollateralValue(address _user) public view returns (uint256) {\n        return collateral.collateralValue(_user);\n    }\n\n    function getOutstandingLoan(address _user, address _asset)\n        public\n        view\n        returns (uint256)\n    {\n        return (borrowTracker[_asset][_user].principal +\n            borrowTracker[_asset][_user].interest);\n    }\n\n    function getUserCollateral(address _user, address _asset)\n        public\n        view\n        returns (uint256)\n    {\n        return collateral.userCollateral(_asset, _user);\n    }\n\n    function getTotalInterest(address _asset) public view returns (uint256) {\n        return pool.totalInterest(_asset);\n    }\n\n    function getLentAmount(address _user) public view returns (uint256) {\n        return lenderTokenTracker[_user];\n    }\n\n    function getTimeDelta() public view returns (uint256) {\n        return pool.getTimeDelta(interestTime);\n    }\n\n    function getInterestQuantity(address _asset) public view returns (uint256) {\n        return pool.getInterestQuantity(_asset);\n    }\n\n    function updateCollReqByAsset(address _asset, uint256 _updated_threshold)\n        public\n        onlyOwner\n    {\n        //Note new\n        collateral.updateCollReqByAsset(_asset, _updated_threshold);\n    }\n\n    function updateSupportedAssets(address _asset) public onlyOwner {\n        //Note new\n        supportedAssets.push(_asset);\n        pool.addSupportedAsset(_asset);\n        collateral.addSupportedAsset(_asset);\n    }\n\n    function maxLoanValue(address _user) public view returns (uint256) {\n        return collateral.scaledCollateralValue(_user);\n    }\n\n    function getReserveBalance(address _asset) public view returns (uint256) {\n        return pool.getReserveQuantity(_asset);\n    }\n}\n","sourcePath":"contracts/1_LendingPool.sol","type":"contract","deployment":{"address":"0xca8504C95912986d4130D1a07CD31c9e6a79a759","chainid":"4","blockHeight":10214624}}