{"bytecode":"60806040523480156200001157600080fd5b506040516200002090620001b8565b604051809103906000f0801580156200003d573d6000803e3d6000fd5b50600180546001600160a01b0319166001600160a01b039290921691821790556040516200006b90620001c6565b6060808252600990820152682a32b9ba2a37b5b2b760b91b608082015260a060208201819052600390820152621514d560ea1b60c08201526001600160a01b03909116604082015260e001604051809103906000f080158015620000d3573d6000803e3d6000fd5b50600480546001600160a01b0319166001600160a01b039283169081179091556001546040519216916200010790620001d4565b6001600160a01b03928316815291166020820152604001604051809103906000f0801580156200013b573d6000803e3d6000fd5b50600280546001600160a01b0319166001600160a01b03929092169190911790556040516200016a90620001e2565b604051809103906000f08015801562000187573d6000803e3d6000fd5b50600080546001600160a01b03929092166001600160a01b03199283161790556003805490911633179055620001f0565b610d8f806200196583390190565b6120f080620026f483390190565b610e0c80620047e483390190565b61037680620055f083390190565b61176580620002006000396000f3fe608060405234801561001057600080fd5b506004361061018e5760003560e01c806397904e42116100de578063d28682ea11610097578063de25924211610071578063de25924214610368578063de30f97d14610379578063f2df757b1461038c578063fc0c546a1461039f57600080fd5b8063d28682ea1461032f578063d49ab22c14610342578063d8dfeb451461035557600080fd5b806397904e42146102a25780639b96eece146102b5578063a747b93b146102c8578063a78e4046146102db578063b9e037e614610314578063c4e41b221461032757600080fd5b8063582b27201161014b5780636aaa434e116101255780636aaa434e146102495780636db1809314610274578063884edad91461027c5780639311ca691461028f57600080fd5b8063582b2720146102145780635c16de4f1461022557806363e36dac1461023857600080fd5b8063057393c01461019357806316f0115b146101b95780631ba2f531146101e4578063243d8e05146101ec57806346c928fc146101ee5780634bcc170914610201575b600080fd5b6101a66101a1366004611507565b6103b2565b6040519081526020015b60405180910390f35b6001546101cc906001600160a01b031681565b6040516001600160a01b0390911681526020016101b0565b6101a6610428565b005b6101ec6101fc366004611529565b6104a6565b6101ec61020f36600461156f565b610884565b6004546001600160a01b03166101cc565b6101ec61023336600461159b565b6109ab565b6002546001600160a01b03166101cc565b6101a66102573660046115c5565b600760209081526000928352604080842090915290825290205481565b6101a6610b0e565b6101ec61028a36600461159b565b610b63565b6000546101cc906001600160a01b031681565b6101a66102b0366004611507565b610f60565b6101a66102c3366004611507565b610f93565b6101a66102d6366004611507565b610fcb565b6101a66102e93660046115c5565b6001600160a01b03918216600090815260076020908152604080832093909416825291909152205490565b6101ec6103223660046115ef565b610ffe565b6101a661127f565b6101a661033d366004611507565b6112d4565b6101a6610350366004611507565b611307565b6002546101cc906001600160a01b031681565b6001546001600160a01b03166101cc565b6101a6610387366004611507565b61133a565b6101a661039a366004611507565b61136d565b6004546101cc906001600160a01b031681565b60025460405163f8b2cb4f60e01b81526001600160a01b038381166004830152600092169063f8b2cb4f906024015b602060405180830381865afa1580156103fe573d6000803e3d6000fd5b505050506040513d601f19601f820116820180604052508101906104229190611634565b92915050565b6000600460009054906101000a90046001600160a01b03166001600160a01b0316638a02775b6040518163ffffffff1660e01b8152600401602060405180830381865afa15801561047d573d6000803e3d6000fd5b505050506040513d601f19601f820116820180604052508101906104a19190611634565b905090565b600254604051631d512a9160e21b81523360048201526000916001600160a01b031690637544aa4490602401602060405180830381865afa1580156104ef573d6000803e3d6000fd5b505050506040513d601f19601f820116820180604052508101906105139190611634565b6000546040516341976e0960e01b81526001600160a01b038581166004830152869216906341976e0990602401602060405180830381865afa15801561055d573d6000803e3d6000fd5b505050506040513d601f19601f820116820180604052508101906105819190611634565b61058b9190611663565b6105959190611682565b600080546040516341976e0960e01b81526001600160a01b038881166004830152939450919288929116906341976e0990602401602060405180830381865afa1580156105e6573d6000803e3d6000fd5b505050506040513d601f19601f8201168201806040525081019061060a9190611634565b6106149190611663565b9050600260009054906101000a90046001600160a01b03166001600160a01b031663094049546040518163ffffffff1660e01b8152600401602060405180830381865afa158015610669573d6000803e3d6000fd5b505050506040513d601f19601f8201168201806040525081019061068d9190611634565b6106979082611663565b8210156106e35760405162461bcd60e51b81526020600482015260156024820152741b9bdd08195b9bdd59da0818dbdb1b185d195c985b605a1b60448201526064015b60405180910390fd5b60025460405163f970c3b760e01b81526001600160a01b039091169063f970c3b7906107179033908790899060040161169a565b600060405180830381600087803b15801561073157600080fd5b505af1158015610745573d6000803e3d6000fd5b505060015460405163fc4f78b960e01b81526001600160a01b03909116925063fc4f78b9915061077d90339089908b9060040161169a565b600060405180830381600087803b15801561079757600080fd5b505af11580156107ab573d6000803e3d6000fd5b505060408051338152602081018a90526001600160a01b0389811682840152606082018990528716608082015290517fea8631408d071cdc565dfa37dcb32450c4c85ee9a4142ed14df1387d7c2a432793509081900360a0019150a13360009081526007602090815260408083206001600160a01b03891684529091528120805488929061083a908490611682565b90915550503360009081526006602090815260408220805460018101825590835291200180546001600160a01b0319166001600160a01b0396909616959095179094555050505050565b600082116108d45760405162461bcd60e51b815260206004820152601860248201527f6465706f736974206d75737420626520706f736974697665000000000000000060448201526064016106da565b60048054604051630d4d151360e01b81523392810192909252602482018490526001600160a01b0383811660448401521690630d4d151390606401600060405180830381600087803b15801561092957600080fd5b505af115801561093d573d6000803e3d6000fd5b5050600154604051631740ecaf60e11b81526001600160a01b039091169250632e81d95e91506109759033908590879060040161169a565b600060405180830381600087803b15801561098f57600080fd5b505af11580156109a3573d6000803e3d6000fd5b505050505050565b3360009081526007602090815260408083206001600160a01b0386168452909152902054811115610a1e5760405162461bcd60e51b815260206004820152601b60248201527f52657475726e6564206d6f7265207468616e20626f72726f776564000000000060448201526064016106da565b600154604051631740ecaf60e11b81526001600160a01b0390911690632e81d95e90610a529033908690869060040161169a565b600060405180830381600087803b158015610a6c57600080fd5b505af1158015610a80573d6000803e3d6000fd5b50503360009081526007602090815260408083206001600160a01b038816845290915281208054859450909250610ab89084906116be565b90915550503360009081526007602090815260408083206001600160a01b0386168452909152902054610b0a573360009081526007602090815260408083206001600160a01b03861684529091528120555b5050565b6000600460009054906101000a90046001600160a01b03166001600160a01b03166333d57cdc6040518163ffffffff1660e01b8152600401602060405180830381865afa15801561047d573d6000803e3d6000fd5b600080546040516341976e0960e01b81526001600160a01b038581166004830152909116906341976e0990602401602060405180830381865afa158015610bae573d6000803e3d6000fd5b505050506040513d601f19601f82011682018060405250810190610bd29190611634565b60015460405163fce3e8e760e01b81526001600160a01b03868116600483015292935091169063fce3e8e790602401602060405180830381865afa158015610c1e573d6000803e3d6000fd5b505050506040513d601f19601f82011682018060405250810190610c429190611634565b821115610cac5760405162461bcd60e51b815260206004820152603260248201527f557365722063616e6e6f742072656465656d206d6f7265207468616e2074686560448201527120617661696c61626c652062616c616e636560701b60648201526084016106da565b6004805460408051630cf55f3760e21b8152905160009385936001600160a01b0316926333d57cdc92818301926020928290030181865afa158015610cf5573d6000803e3d6000fd5b505050506040513d601f19601f82011682018060405250810190610d199190611634565b600480546040516370a0823160e01b815233928101929092526001600160a01b0316906370a0823190602401602060405180830381865afa158015610d62573d6000803e3d6000fd5b505050506040513d601f19601f82011682018060405250810190610d869190611634565b610d909190611663565b610d9a91906116d5565b905082811015610e005760405162461bcd60e51b815260206004820152602b60248201527f43616e6e6f742072656465656d206d6f726520746f6b656e73207468616e206e60448201526a1d5b58995c881bdddb995960aa1b60648201526084016106da565b6000600460009054906101000a90046001600160a01b03166001600160a01b03166333d57cdc6040518163ffffffff1660e01b8152600401602060405180830381865afa158015610e55573d6000803e3d6000fd5b505050506040513d601f19601f82011682018060405250810190610e799190611634565b610e838585611663565b610e8d91906116d5565b600154604051631f97f85960e31b81529192506001600160a01b03169063fcbfc2c890610ec29033908990899060040161169a565b600060405180830381600087803b158015610edc57600080fd5b505af1158015610ef0573d6000803e3d6000fd5b505060048054604051632770a7eb60e21b81523392810192909252602482018590526001600160a01b03169250639dc29fac9150604401600060405180830381600087803b158015610f4157600080fd5b505af1158015610f55573d6000803e3d6000fd5b505050505050505050565b600254604051631d512a9160e21b81526001600160a01b0383811660048301526000921690637544aa44906024016103e1565b600480546040516370a0823160e01b81526001600160a01b0384811693820193909352600092909116906370a08231906024016103e1565b60015460405163fce3e8e760e01b81526001600160a01b038381166004830152600092169063fce3e8e7906024016103e1565b6110073361136d565b600260009054906101000a90046001600160a01b03166001600160a01b031663094049546040518163ffffffff1660e01b8152600401602060405180830381865afa15801561105a573d6000803e3d6000fd5b505050506040513d601f19601f8201168201806040525081019061107e9190611634565b6110889190611663565b6000546040516341976e0960e01b81526001600160a01b038681166004830152859216906341976e0990602401602060405180830381865afa1580156110d2573d6000803e3d6000fd5b505050506040513d601f19601f820116820180604052508101906110f69190611634565b6111009190611663565b600254604051631d512a9160e21b81523360048201526001600160a01b0390911690637544aa4490602401602060405180830381865afa158015611148573d6000803e3d6000fd5b505050506040513d601f19601f8201168201806040525081019061116c9190611634565b61117691906116be565b10156111df5760405162461bcd60e51b815260206004820152603260248201527f43616e6e6f7420776974686472617720636f6c6c61746572616c206265666f7260448201527132903830bcb4b733903130b1b5903637b0b760711b60648201526084016106da565b600254604051634755ea7f60e11b81523360048201526001600160a01b03858116602483015260448201859052831515606483015290911690638eabd4fe906084016020604051808303816000875af1158015611240573d6000803e3d6000fd5b505050506040513d601f19601f820116820180604052508101906112649190611634565b506001811515141561127a5761127a8284610884565b505050565b6000600460009054906101000a90046001600160a01b03166001600160a01b03166318160ddd6040518163ffffffff1660e01b8152600401602060405180830381865afa15801561047d573d6000803e3d6000fd5b60015460405163f8b2cb4f60e01b81526001600160a01b038381166004830152600092169063f8b2cb4f906024016103e1565b6002546040516328d1f89360e21b81526001600160a01b038381166004830152600092169063a347e24c906024016103e1565b60015460405163de30f97d60e01b81526001600160a01b038381166004830152600092169063de30f97d906024016103e1565b6001600160a01b0381166000908152600660205260408120548190815b818161ffff1610156114e257600080546001600160a01b038781168352600660205260409092208054670de0b6b3a764000093909216916341976e09919061ffff86169081106113dc576113dc6116f7565b60009182526020909120015460405160e083901b6001600160e01b03191681526001600160a01b039091166004820152602401602060405180830381865afa15801561142c573d6000803e3d6000fd5b505050506040513d601f19601f820116820180604052508101906114509190611634565b6001600160a01b038716600090815260076020908152604080832060069092528220805491929161ffff871690811061148b5761148b6116f7565b60009182526020808320909101546001600160a01b031683528201929092526040019020546114ba9190611663565b6114c491906116d5565b6114ce9084611682565b9250806114da8161170d565b91505061138a565b50909392505050565b80356001600160a01b038116811461150257600080fd5b919050565b60006020828403121561151957600080fd5b611522826114eb565b9392505050565b6000806000806080858703121561153f57600080fd5b8435935061154f602086016114eb565b925060408501359150611564606086016114eb565b905092959194509250565b6000806040838503121561158257600080fd5b82359150611592602084016114eb565b90509250929050565b600080604083850312156115ae57600080fd5b6115b7836114eb565b946020939093013593505050565b600080604083850312156115d857600080fd5b6115e1836114eb565b9150611592602084016114eb565b60008060006060848603121561160457600080fd5b61160d846114eb565b9250602084013591506040840135801515811461162957600080fd5b809150509250925092565b60006020828403121561164657600080fd5b5051919050565b634e487b7160e01b600052601160045260246000fd5b600081600019048311821515161561167d5761167d61164d565b500290565b600082198211156116955761169561164d565b500190565b6001600160a01b039384168152919092166020820152604081019190915260600190565b6000828210156116d0576116d061164d565b500390565b6000826116f257634e487b7160e01b600052601260045260246000fd5b500490565b634e487b7160e01b600052603260045260246000fd5b600061ffff808316818114156117255761172561164d565b600101939250505056fea2646970667358221220406f9b0713e7570472812eaba26eb7fbdd6bca6576115892970882a2bab29a7964736f6c634300080b0033608060405234801561001057600080fd5b5060026003819055604080518082018252600080825260208083018281527301be23585060835e02b77ef475b0cc51aa1e070980845283835293517f4e2753d238f0f4cb8962490717ab551b4c023808c7bc37aed6e8760bfc3a92d555517f4e2753d238f0f4cb8962490717ab551b4c023808c7bc37aed6e8760bfc3a92d6558454600181810187557f405787fa12a823e0f2b7631cc41b3ba8828b3321ca811111fa75cd3aa3bb5ace91820180546001600160a01b0319908116871790915586518088018852858152808501868152735592ec0cfb4dbc12d3ab100b257153436a1f0fea8088529587905290517ff4e9730789baae4355b7b087afa1a57a24c222e690ce50ce909b525e8495925b55517ff4e9730789baae4355b7b087afa1a57a24c222e690ce50ce909b525e8495925c5587549182018855969093529190910180549094168117909355905190919061016a906101af565b604051809103906000f080158015610186573d6000803e3d6000fd5b50600180546001600160a01b0319166001600160a01b0392909216919091179055506101bc9050565b61037680610a1983390190565b61084e806101cb6000396000f3fe608060405234801561001057600080fd5b50600436106100a95760003560e01c8063de30f97d11610071578063de30f97d146101cd578063edf26d9b146101e0578063f8b2cb4f146101f3578063fc4f78b914610206578063fcbfc2c814610219578063fce3e8e71461022c57600080fd5b80632e81d95e146100ae5780636efb8b62146100c357806375f4d6771461014b5780639311ca6914610166578063b8c876b114610191575b600080fd5b6100c16100bc3660046106a8565b610255565b005b6100c16100d13660046106e4565b604080518082018252600080825260208083018281526001600160a01b03909516808352908290529281209151825592516001918201556002805491820181559092527f405787fa12a823e0f2b7631cc41b3ba8828b3321ca811111fa75cd3aa3bb5ace90910180546001600160a01b0319169091179055565b610153610314565b6040519081526020015b60405180910390f35b600154610179906001600160a01b031681565b6040516001600160a01b03909116815260200161015d565b6101b861019f3660046106e4565b6000602081905290815260409020805460019091015482565b6040805192835260208301919091520161015d565b6101536101db3660046106e4565b61049c565b6101796101ee366004610706565b6104f9565b6101536102013660046106e4565b610523565b6100c16102143660046106a8565b61058e565b6100c16102273660046106a8565b610664565b61015361023a3660046106e4565b6001600160a01b031660009081526020819052604090205490565b6040516323b872dd60e01b81526001600160a01b038481166004830152306024830152604482018390528316906323b872dd906064016020604051808303816000875af11580156102aa573d6000803e3d6000fd5b505050506040513d601f19601f820116820180604052508101906102ce919061071f565b506001600160a01b0382166000908152602081905260409020546102f3908290610757565b6001600160a01b039092166000908152602081905260409020919091555050565b6002546000908190815b818161ffff1610156104945760015460028054670de0b6b3a7640000926001600160a01b0316916341976e099161ffff861690811061035f5761035f61076f565b60009182526020909120015460405160e083901b6001600160e01b03191681526001600160a01b039091166004820152602401602060405180830381865afa1580156103af573d6000803e3d6000fd5b505050506040513d601f19601f820116820180604052508101906103d39190610785565b60008060028561ffff16815481106103ed576103ed61076f565b60009182526020808320909101546001600160a01b031683528201929092526040018120600101546002805491929182919061ffff88169081106104335761043361076f565b60009182526020808320909101546001600160a01b031683528201929092526040019020546104629190610757565b61046c919061079e565b61047691906107bd565b6104809084610757565b92508061048c816107df565b91505061031e565b509092915050565b6001600160a01b0381166000908152602081905260408120600181015490546104c59190610757565b6001600160a01b0383166000908152602081905260409020546104e990600161079e565b6104f391906107bd565b92915050565b6002818154811061050957600080fd5b6000918252602090912001546001600160a01b0316905081565b6040516370a0823160e01b81523060048201526000906001600160a01b038316906370a0823190602401602060405180830381865afa15801561056a573d6000803e3d6000fd5b505050506040513d601f19601f820116820180604052508101906104f39190610785565b6001600160a01b038216600090815260208190526040812080548392906105b6908490610801565b90915550506001600160a01b038216600090815260208190526040812060010180548392906105e6908490610757565b909155505060405163a9059cbb60e01b81526001600160a01b0384811660048301526024820183905283169063a9059cbb906044016020604051808303816000875af115801561063a573d6000803e3d6000fd5b505050506040513d601f19601f8201168201806040525081019061065e919061071f565b50505050565b6001600160a01b038216600090815260208190526040812080548392906105e6908490610801565b80356001600160a01b03811681146106a357600080fd5b919050565b6000806000606084860312156106bd57600080fd5b6106c68461068c565b92506106d46020850161068c565b9150604084013590509250925092565b6000602082840312156106f657600080fd5b6106ff8261068c565b9392505050565b60006020828403121561071857600080fd5b5035919050565b60006020828403121561073157600080fd5b815180151581146106ff57600080fd5b634e487b7160e01b600052601160045260246000fd5b6000821982111561076a5761076a610741565b500190565b634e487b7160e01b600052603260045260246000fd5b60006020828403121561079757600080fd5b5051919050565b60008160001904831182151516156107b8576107b8610741565b500290565b6000826107da57634e487b7160e01b600052601260045260246000fd5b500490565b600061ffff808316818114156107f7576107f7610741565b6001019392505050565b60008282101561081357610813610741565b50039056fea264697066735822122098ab0dbe414d64b2913d623e19a53eb146dd06981749ebd36b3c40e5a8dceeb764736f6c634300080b0033608060405234801561001057600080fd5b50600060208190527f4e2753d238f0f4cb8962490717ab551b4c023808c7bc37aed6e8760bfc3a92d580546001600160a01b031990811673d8bd0a1cb028a31aa859a21a3758685a95de462317909155735592ec0cfb4dbc12d3ab100b257153436a1f0fea9091527ff4e9730789baae4355b7b087afa1a57a24c222e690ce50ce909b525e8495925b8054909116732ba49aaa16e6afd2a993473cfb70fa8559b523cf1790556102b1806100c56000396000f3fe608060405234801561001057600080fd5b50600436106100365760003560e01c806341976e091461003b5780634238dc4714610061575b600080fd5b61004e610049366004610141565b6100a2565b6040519081526020015b60405180910390f35b61008a61006f366004610141565b6000602081905290815260409020546001600160a01b031681565b6040516001600160a01b039091168152602001610058565b6001600160a01b03808216600090815260208190526040808220548151633fabe5a360e21b81529151929316918391839163feaf968c9160048082019260a0929091908290030181865afa1580156100fe573d6000803e3d6000fd5b505050506040513d601f19601f820116820180604052508101906101229190610190565b505050915050806402540be40061013991906101f6565b949350505050565b60006020828403121561015357600080fd5b81356001600160a01b038116811461016a57600080fd5b9392505050565b805169ffffffffffffffffffff8116811461018b57600080fd5b919050565b600080600080600060a086880312156101a857600080fd5b6101b186610171565b94506020860151935060408601519250606086015191506101d460808701610171565b90509295509295909350565b634e487b7160e01b600052601160045260246000fd5b60006001600160ff1b038184138284138082168684048611161561021c5761021c6101e0565b600160ff1b600087128281168783058912161561023b5761023b6101e0565b60008712925087820587128484161615610257576102576101e0565b8785058712818416161561026d5761026d6101e0565b50505092909302939250505056fea264697066735822122072c48f6e00c5a52cb863487a9419bc6a66d0f63d77321e88f47fe70ef4f6aac064736f6c634300080b003360806040523480156200001157600080fd5b50604051620020f0380380620020f08339810160408190526200003491620003eb565b8251839083906200004d9060059060208501906200026a565b508051620000639060069060208401906200026a565b50620000759150600090503362000105565b620000a17f9f2df0fed2c77648de5860a4cc508cd0818c85b8b8a1ab4ceeef8d981c8956a63362000105565b604051620000af90620002f9565b604051809103906000f080158015620000cc573d6000803e3d6000fd5b50600780546001600160a01b039283166001600160a01b0319918216179091556008805493909216921691909117905550620004b59050565b62000111828262000115565b5050565b6200012c82826200015860201b62000abb1760201c565b60008281526001602090815260409091206200015391839062000b3f620001f8821b17901c565b505050565b6000828152602081815260408083206001600160a01b038516845290915290205460ff1662000111576000828152602081815260408083206001600160a01b03851684529091529020805460ff19166001179055620001b43390565b6001600160a01b0316816001600160a01b0316837f2f8788117e7eff1d82e926ec794901d17c78024a50270940304540a733656f0d60405160405180910390a45050565b60006200020f836001600160a01b03841662000218565b90505b92915050565b6000818152600183016020526040812054620002615750815460018181018455600084815260208082209093018490558454848252828601909352604090209190915562000212565b50600062000212565b828054620002789062000478565b90600052602060002090601f0160209004810192826200029c5760008555620002e7565b82601f10620002b757805160ff1916838001178555620002e7565b82800160010185558215620002e7579182015b82811115620002e7578251825591602001919060010190620002ca565b50620002f592915062000307565b5090565b6103768062001d7a83390190565b5b80821115620002f5576000815560010162000308565b634e487b7160e01b600052604160045260246000fd5b600082601f8301126200034657600080fd5b81516001600160401b03808211156200036357620003636200031e565b604051601f8301601f19908116603f011681019082821181831017156200038e576200038e6200031e565b81604052838152602092508683858801011115620003ab57600080fd5b600091505b83821015620003cf5785820183015181830184015290820190620003b0565b83821115620003e15760008385830101525b9695505050505050565b6000806000606084860312156200040157600080fd5b83516001600160401b03808211156200041957600080fd5b620004278783880162000334565b945060208601519150808211156200043e57600080fd5b506200044d8682870162000334565b604086015190935090506001600160a01b03811681146200046d57600080fd5b809150509250925092565b600181811c908216806200048d57607f821691505b60208210811415620004af57634e487b7160e01b600052602260045260246000fd5b50919050565b6118b580620004c56000396000f3fe608060405234801561001057600080fd5b50600436106101cf5760003560e01c80636b3e22fc116101045780639dc29fac116100a2578063ca15c87311610071578063ca15c873146103d5578063d5391393146103e8578063d547741f1461040f578063dd62ed3e1461042257600080fd5b80639dc29fac14610394578063a217fddf146103a7578063a457c2d7146103af578063a9059cbb146103c257600080fd5b80639010d07c116100de5780639010d07c1461035357806391d14854146103665780639311ca691461037957806395d89b411461038c57600080fd5b80636b3e22fc1461030f57806370a08231146103225780638a02775b1461034b57600080fd5b8063248a9ca3116101715780633287acee1161014b5780633287acee146102ce57806333d57cdc146102e157806336568abe146102e957806339509351146102fc57600080fd5b8063248a9ca3146102895780632f2ff15d146102ac578063313ce567146102bf57600080fd5b80630d4d1513116101ad5780630d4d15131461022457806316f0115b1461023957806318160ddd1461026457806323b872dd1461027657600080fd5b806301ffc9a7146101d457806306fdde03146101fc578063095ea7b314610211575b600080fd5b6101e76101e23660046114ea565b61045b565b60405190151581526020015b60405180910390f35b610204610486565b6040516101f39190611540565b6101e761021f36600461158f565b610518565b6102376102323660046115b9565b61052e565b005b60085461024c906001600160a01b031681565b6040516001600160a01b0390911681526020016101f3565b6004545b6040519081526020016101f3565b6101e76102843660046115f5565b6105d5565b610268610297366004611631565b60009081526020819052604090206001015490565b6102376102ba36600461164a565b61067f565b604051601281526020016101f3565b6102686102dc366004611631565b6106aa565b6102686106f7565b6102376102f736600461164a565b61076d565b6101e761030a36600461158f565b6107eb565b61026861031d36600461158f565b610827565b610268610330366004611676565b6001600160a01b031660009081526002602052604090205490565b6102686108c0565b61024c610361366004611691565b61092e565b6101e761037436600461164a565b610946565b60075461024c906001600160a01b031681565b61020461096f565b6102376103a236600461158f565b61097e565b610268600081565b6101e76103bd36600461158f565b6109d8565b6101e76103d036600461158f565b610a71565b6102686103e3366004611631565b610a7e565b6102687f9f2df0fed2c77648de5860a4cc508cd0818c85b8b8a1ab4ceeef8d981c8956a681565b61023761041d36600461164a565b610a95565b6102686104303660046116b3565b6001600160a01b03918216600090815260036020908152604080832093909416825291909152205490565b60006001600160e01b03198216635a05180f60e01b1480610480575061048082610b54565b92915050565b606060058054610495906116dd565b80601f01602080910402602001604051908101604052809291908181526020018280546104c1906116dd565b801561050e5780601f106104e35761010080835404028352916020019161050e565b820191906000526020600020905b8154815290600101906020018083116104f157829003601f168201915b5050505050905090565b6000610525338484610b89565b50600192915050565b6105587f9f2df0fed2c77648de5860a4cc508cd0818c85b8b8a1ab4ceeef8d981c8956a633610946565b6105a95760405162461bcd60e51b815260206004820152601d60248201527f6d7573742068617665206d696e74657220726f6c6520746f206d696e7400000060448201526064015b60405180910390fd5b60006105b58284610827565b905060006105c2826106aa565b90506105ce8582610cad565b5050505050565b60006105e2848484610d8c565b6001600160a01b0384166000908152600360209081526040808320338452909152902054828110156106675760405162461bcd60e51b815260206004820152602860248201527f45524332303a207472616e7366657220616d6f756e74206578636565647320616044820152676c6c6f77616e636560c01b60648201526084016105a0565b6106748533858403610b89565b506001949350505050565b60008281526020819052604090206001015461069b8133610f5c565b6106a58383610fc0565b505050565b6000806106b56108c0565b90506106c060045490565b6106cb575090919050565b80836106d660045490565b6106e09190611728565b6106ea9190611747565b9392505050565b50919050565b60008061070360045490565b116107415760405162461bcd60e51b815260206004820152600e60248201526d737570706c79206973207a65726f60901b60448201526064016105a0565b60045461074c6108c0565b61075e90670de0b6b3a7640000611728565b6107689190611747565b905090565b6001600160a01b03811633146107dd5760405162461bcd60e51b815260206004820152602f60248201527f416363657373436f6e74726f6c3a2063616e206f6e6c792072656e6f756e636560448201526e103937b632b9903337b91039b2b63360891b60648201526084016105a0565b6107e78282610fe2565b5050565b3360008181526003602090815260408083206001600160a01b03871684529091528120549091610525918590610822908690611769565b610b89565b6007546040516341976e0960e01b81526001600160a01b03848116600483015260009283929116906341976e0990602401602060405180830381865afa158015610875573d6000803e3d6000fd5b505050506040513d601f19601f820116820180604052508101906108999190611781565b9050670de0b6b3a76400006108ae8483611728565b6108b89190611747565b949350505050565b600854604080516375f4d67760e01b815290516000926001600160a01b0316916375f4d6779160048083019260209291908290030181865afa15801561090a573d6000803e3d6000fd5b505050506040513d601f19601f820116820180604052508101906107689190611781565b60008281526001602052604081206106ea9083611004565b6000918252602082815260408084206001600160a01b0393909316845291905290205460ff1690565b606060068054610495906116dd565b600081116109ce5760405162461bcd60e51b815260206004820181905260248201527f416d6f756e7420746f2072656465656d206e6565647320746f206265203e203060448201526064016105a0565b6107e78282611010565b3360009081526003602090815260408083206001600160a01b038616845290915281205482811015610a5a5760405162461bcd60e51b815260206004820152602560248201527f45524332303a2064656372656173656420616c6c6f77616e63652062656c6f77604482015264207a65726f60d81b60648201526084016105a0565b610a673385858403610b89565b5060019392505050565b6000610525338484610d8c565b60008181526001602052604081206104809061115e565b600082815260208190526040902060010154610ab18133610f5c565b6106a58383610fe2565b610ac58282610946565b6107e7576000828152602081815260408083206001600160a01b03851684529091529020805460ff19166001179055610afb3390565b6001600160a01b0316816001600160a01b0316837f2f8788117e7eff1d82e926ec794901d17c78024a50270940304540a733656f0d60405160405180910390a45050565b60006106ea836001600160a01b038416611168565b60006001600160e01b03198216637965db0b60e01b148061048057506301ffc9a760e01b6001600160e01b0319831614610480565b6001600160a01b038316610beb5760405162461bcd60e51b8152602060048201526024808201527f45524332303a20617070726f76652066726f6d20746865207a65726f206164646044820152637265737360e01b60648201526084016105a0565b6001600160a01b038216610c4c5760405162461bcd60e51b815260206004820152602260248201527f45524332303a20617070726f766520746f20746865207a65726f206164647265604482015261737360f01b60648201526084016105a0565b6001600160a01b0383811660008181526003602090815260408083209487168084529482529182902085905590518481527f8c5be1e5ebec7d5bd14f71427d1e84f3dd0314c0f7b2291e5b200ac8c7c3b925910160405180910390a3505050565b6001600160a01b038216610d035760405162461bcd60e51b815260206004820152601f60248201527f45524332303a206d696e7420746f20746865207a65726f20616464726573730060448201526064016105a0565b8060046000828254610d159190611769565b90915550506001600160a01b03821660009081526002602052604081208054839290610d42908490611769565b90915550506040518181526001600160a01b038316906000907fddf252ad1be2c89b69c2b068fc378daa952ba7f163c4a11628f55a4df523b3ef9060200160405180910390a35050565b6001600160a01b038316610df05760405162461bcd60e51b815260206004820152602560248201527f45524332303a207472616e736665722066726f6d20746865207a65726f206164604482015264647265737360d81b60648201526084016105a0565b6001600160a01b038216610e525760405162461bcd60e51b815260206004820152602360248201527f45524332303a207472616e7366657220746f20746865207a65726f206164647260448201526265737360e81b60648201526084016105a0565b6001600160a01b03831660009081526002602052604090205481811015610eca5760405162461bcd60e51b815260206004820152602660248201527f45524332303a207472616e7366657220616d6f756e7420657863656564732062604482015265616c616e636560d01b60648201526084016105a0565b6001600160a01b03808516600090815260026020526040808220858503905591851681529081208054849290610f01908490611769565b92505081905550826001600160a01b0316846001600160a01b03167fddf252ad1be2c89b69c2b068fc378daa952ba7f163c4a11628f55a4df523b3ef84604051610f4d91815260200190565b60405180910390a35b50505050565b610f668282610946565b6107e757610f7e816001600160a01b031660146111b7565b610f898360206111b7565b604051602001610f9a92919061179a565b60408051601f198184030181529082905262461bcd60e51b82526105a091600401611540565b610fca8282610abb565b60008281526001602052604090206106a59082610b3f565b610fec8282611353565b60008281526001602052604090206106a590826113b8565b60006106ea83836113cd565b6001600160a01b0382166110705760405162461bcd60e51b815260206004820152602160248201527f45524332303a206275726e2066726f6d20746865207a65726f206164647265736044820152607360f81b60648201526084016105a0565b6001600160a01b038216600090815260026020526040902054818110156110e45760405162461bcd60e51b815260206004820152602260248201527f45524332303a206275726e20616d6f756e7420657863656564732062616c616e604482015261636560f01b60648201526084016105a0565b6001600160a01b038316600090815260026020526040812083830390556004805484929061111390849061180f565b90915550506040518281526000906001600160a01b038516907fddf252ad1be2c89b69c2b068fc378daa952ba7f163c4a11628f55a4df523b3ef9060200160405180910390a3505050565b6000610480825490565b60008181526001830160205260408120546111af57508154600181810184556000848152602080822090930184905584548482528286019093526040902091909155610480565b506000610480565b606060006111c6836002611728565b6111d1906002611769565b67ffffffffffffffff8111156111e9576111e9611826565b6040519080825280601f01601f191660200182016040528015611213576020820181803683370190505b509050600360fc1b8160008151811061122e5761122e61183c565b60200101906001600160f81b031916908160001a905350600f60fb1b8160018151811061125d5761125d61183c565b60200101906001600160f81b031916908160001a9053506000611281846002611728565b61128c906001611769565b90505b6001811115611304576f181899199a1a9b1b9c1cb0b131b232b360811b85600f16601081106112c0576112c061183c565b1a60f81b8282815181106112d6576112d661183c565b60200101906001600160f81b031916908160001a90535060049490941c936112fd81611852565b905061128f565b5083156106ea5760405162461bcd60e51b815260206004820181905260248201527f537472696e67733a20686578206c656e67746820696e73756666696369656e7460448201526064016105a0565b61135d8282610946565b156107e7576000828152602081815260408083206001600160a01b0385168085529252808320805460ff1916905551339285917ff6391f5c32d9c69d2a47ea670b442974b53935d1edc7fd64eb21e047a839171b9190a45050565b60006106ea836001600160a01b0384166113f7565b60008260000182815481106113e4576113e461183c565b9060005260206000200154905092915050565b600081815260018301602052604081205480156114e057600061141b60018361180f565b855490915060009061142f9060019061180f565b905081811461149457600086600001828154811061144f5761144f61183c565b90600052602060002001549050808760000184815481106114725761147261183c565b6000918252602080832090910192909255918252600188019052604090208390555b85548690806114a5576114a5611869565b600190038181906000526020600020016000905590558560010160008681526020019081526020016000206000905560019350505050610480565b6000915050610480565b6000602082840312156114fc57600080fd5b81356001600160e01b0319811681146106ea57600080fd5b60005b8381101561152f578181015183820152602001611517565b83811115610f565750506000910152565b602081526000825180602084015261155f816040850160208701611514565b601f01601f19169190910160400192915050565b80356001600160a01b038116811461158a57600080fd5b919050565b600080604083850312156115a257600080fd5b6115ab83611573565b946020939093013593505050565b6000806000606084860312156115ce57600080fd5b6115d784611573565b9250602084013591506115ec60408501611573565b90509250925092565b60008060006060848603121561160a57600080fd5b61161384611573565b925061162160208501611573565b9150604084013590509250925092565b60006020828403121561164357600080fd5b5035919050565b6000806040838503121561165d57600080fd5b8235915061166d60208401611573565b90509250929050565b60006020828403121561168857600080fd5b6106ea82611573565b600080604083850312156116a457600080fd5b50508035926020909101359150565b600080604083850312156116c657600080fd5b6116cf83611573565b915061166d60208401611573565b600181811c908216806116f157607f821691505b602082108114156106f157634e487b7160e01b600052602260045260246000fd5b634e487b7160e01b600052601160045260246000fd5b600081600019048311821515161561174257611742611712565b500290565b60008261176457634e487b7160e01b600052601260045260246000fd5b500490565b6000821982111561177c5761177c611712565b500190565b60006020828403121561179357600080fd5b5051919050565b7f416363657373436f6e74726f6c3a206163636f756e74200000000000000000008152600083516117d2816017850160208801611514565b7001034b99036b4b9b9b4b733903937b6329607d1b6017918401918201528351611803816028840160208801611514565b01602801949350505050565b60008282101561182157611821611712565b500390565b634e487b7160e01b600052604160045260246000fd5b634e487b7160e01b600052603260045260246000fd5b60008161186157611861611712565b506000190190565b634e487b7160e01b600052603160045260246000fdfea2646970667358221220d704b2bc858b6f0f74deafb13b17927159912c3fa1c2599b98d93534c26c9b6964736f6c634300080b0033608060405234801561001057600080fd5b50600060208190527f4e2753d238f0f4cb8962490717ab551b4c023808c7bc37aed6e8760bfc3a92d580546001600160a01b031990811673d8bd0a1cb028a31aa859a21a3758685a95de462317909155735592ec0cfb4dbc12d3ab100b257153436a1f0fea9091527ff4e9730789baae4355b7b087afa1a57a24c222e690ce50ce909b525e8495925b8054909116732ba49aaa16e6afd2a993473cfb70fa8559b523cf1790556102b1806100c56000396000f3fe608060405234801561001057600080fd5b50600436106100365760003560e01c806341976e091461003b5780634238dc4714610061575b600080fd5b61004e610049366004610141565b6100a2565b6040519081526020015b60405180910390f35b61008a61006f366004610141565b6000602081905290815260409020546001600160a01b031681565b6040516001600160a01b039091168152602001610058565b6001600160a01b03808216600090815260208190526040808220548151633fabe5a360e21b81529151929316918391839163feaf968c9160048082019260a0929091908290030181865afa1580156100fe573d6000803e3d6000fd5b505050506040513d601f19601f820116820180604052508101906101229190610190565b505050915050806402540be40061013991906101f6565b949350505050565b60006020828403121561015357600080fd5b81356001600160a01b038116811461016a57600080fd5b9392505050565b805169ffffffffffffffffffff8116811461018b57600080fd5b919050565b600080600080600060a086880312156101a857600080fd5b6101b186610171565b94506020860151935060408601519250606086015191506101d460808701610171565b90509295509295909350565b634e487b7160e01b600052601160045260246000fd5b60006001600160ff1b038184138284138082168684048611161561021c5761021c6101e0565b600160ff1b600087128281168783058912161561023b5761023b6101e0565b60008712925087820587128484161615610257576102576101e0565b8785058712818416161561026d5761026d6101e0565b50505092909302939250505056fea264697066735822122072c48f6e00c5a52cb863487a9419bc6a66d0f63d77321e88f47fe70ef4f6aac064736f6c634300080b00336080604052600260015534801561001557600080fd5b50604051610e0c380380610e0c83398101604081905261003491610130565b600580546001600160a01b038085166001600160a01b031992831617909255600680549284169290911691909117905560405161007090610107565b604051809103906000f08015801561008c573d6000803e3d6000fd5b50600080546001600160a01b0319166001600160a01b0392909216919091178155600260018190556040805160208082019092528381527301be23585060835e02b77ef475b0cc51aa1e070990935252517fed3674b09469bf4c18c58b5c17b6619c2db43f90b5389a6501b1af546f40b64a55506101639050565b61037680610a9683390190565b80516001600160a01b038116811461012b57600080fd5b919050565b6000806040838503121561014357600080fd5b61014c83610114565b915061015a60208401610114565b90509250929050565b610924806101726000396000f3fe608060405234801561001057600080fd5b50600436106100935760003560e01c80639311ca69116100665780639311ca6914610105578063a347e24c14610118578063f8b2cb4f14610141578063f970c3b714610154578063fc0c546a1461016957600080fd5b8063094049541461009857806316f0115b146100b45780637544aa44146100df5780638eabd4fe146100f2575b600080fd5b6100a160015481565b6040519081526020015b60405180910390f35b6005546100c7906001600160a01b031681565b6040516001600160a01b0390911681526020016100ab565b6100a16100ed36600461073c565b61017c565b6100a161010036600461076f565b6102fa565b6000546100c7906001600160a01b031681565b6100a161012636600461073c565b6001600160a01b031660009081526002602052604090205490565b6100a161014f36600461073c565b610578565b6101676101623660046107be565b6105e9565b005b6006546100c7906001600160a01b031681565b6001600160a01b0381166000908152600460205260408120548190815b818161ffff1610156102f157600080546001600160a01b038781168352600460205260409092208054670de0b6b3a764000093909216916341976e09919061ffff86169081106101eb576101eb6107fa565b60009182526020909120015460405160e083901b6001600160e01b03191681526001600160a01b039091166004820152602401602060405180830381865afa15801561023b573d6000803e3d6000fd5b505050506040513d601f19601f8201168201806040525081019061025f9190610810565b6001600160a01b038716600090815260036020908152604080832060049092528220805491929161ffff871690811061029a5761029a6107fa565b60009182526020808320909101546001600160a01b031683528201929092526040019020546102c9919061083f565b6102d3919061085e565b6102dd9084610880565b9250806102e981610898565b915050610199565b50909392505050565b3360009081526003602090815260408083206001600160a01b03871684529091528120548311156103825760405162461bcd60e51b815260206004820152602860248201527f52656465656d696e67206d6f726520636f6c6c61746572616c207468616e2064604482015267195c1bdcda5d195960c21b606482015260840160405180910390fd5b600182151514156104765760055460405163095ea7b360e01b81526001600160a01b039182166004820152602481018590529085169063095ea7b3906044016020604051808303816000875af11580156103e0573d6000803e3d6000fd5b505050506040513d601f19601f8201168201806040525081019061040491906108ba565b50600554604051631740ecaf60e11b81523060048201526001600160a01b0386811660248301526044820186905290911690632e81d95e90606401600060405180830381600087803b15801561045957600080fd5b505af115801561046d573d6000803e3d6000fd5b505050506104eb565b60405163a9059cbb60e01b81526001600160a01b0386811660048301526024820185905285169063a9059cbb906044016020604051808303816000875af11580156104c5573d6000803e3d6000fd5b505050506040513d601f19601f820116820180604052508101906104e991906108ba565b505b3360009081526003602090815260408083206001600160a01b03881684529091528120805485929061051e9084906108d7565b90915550503360009081526003602090815260408083206001600160a01b0388168452909152902054610570573360009081526003602090815260408083206001600160a01b03881684529091528120555b949350505050565b6040516370a0823160e01b81523060048201526000906001600160a01b038316906370a0823190602401602060405180830381865afa1580156105bf573d6000803e3d6000fd5b505050506040513d601f19601f820116820180604052508101906105e39190610810565b92915050565b6040516323b872dd60e01b81526001600160a01b038481166004830152306024830152604482018390528316906323b872dd906064016020604051808303816000875af115801561063e573d6000803e3d6000fd5b505050506040513d601f19601f8201168201806040525081019061066291906108ba565b506001600160a01b038216600090815260026020526040902054610687908290610880565b6001600160a01b03808416600081815260026020908152604080832095909555928716815260038352838120918152915220546106c5908290610880565b6001600160a01b0393841660008181526003602090815260408083209690971680835295815286822093909355908152600482529384208054600181018255908552932090920180546001600160a01b031916909117905550565b80356001600160a01b038116811461073757600080fd5b919050565b60006020828403121561074e57600080fd5b61075782610720565b9392505050565b801515811461076c57600080fd5b50565b6000806000806080858703121561078557600080fd5b61078e85610720565b935061079c60208601610720565b92506040850135915060608501356107b38161075e565b939692955090935050565b6000806000606084860312156107d357600080fd5b6107dc84610720565b92506107ea60208501610720565b9150604084013590509250925092565b634e487b7160e01b600052603260045260246000fd5b60006020828403121561082257600080fd5b5051919050565b634e487b7160e01b600052601160045260246000fd5b600081600019048311821515161561085957610859610829565b500290565b60008261087b57634e487b7160e01b600052601260045260246000fd5b500490565b6000821982111561089357610893610829565b500190565b600061ffff808316818114156108b0576108b0610829565b6001019392505050565b6000602082840312156108cc57600080fd5b81516107578161075e565b6000828210156108e9576108e9610829565b50039056fea264697066735822122003545c68bb6c847d34cf0e3aeaf0a11c5e55e4767b7d75de1e9211d2f88728d064736f6c634300080b0033608060405234801561001057600080fd5b50600060208190527f4e2753d238f0f4cb8962490717ab551b4c023808c7bc37aed6e8760bfc3a92d580546001600160a01b031990811673d8bd0a1cb028a31aa859a21a3758685a95de462317909155735592ec0cfb4dbc12d3ab100b257153436a1f0fea9091527ff4e9730789baae4355b7b087afa1a57a24c222e690ce50ce909b525e8495925b8054909116732ba49aaa16e6afd2a993473cfb70fa8559b523cf1790556102b1806100c56000396000f3fe608060405234801561001057600080fd5b50600436106100365760003560e01c806341976e091461003b5780634238dc4714610061575b600080fd5b61004e610049366004610141565b6100a2565b6040519081526020015b60405180910390f35b61008a61006f366004610141565b6000602081905290815260409020546001600160a01b031681565b6040516001600160a01b039091168152602001610058565b6001600160a01b03808216600090815260208190526040808220548151633fabe5a360e21b81529151929316918391839163feaf968c9160048082019260a0929091908290030181865afa1580156100fe573d6000803e3d6000fd5b505050506040513d601f19601f820116820180604052508101906101229190610190565b505050915050806402540be40061013991906101f6565b949350505050565b60006020828403121561015357600080fd5b81356001600160a01b038116811461016a57600080fd5b9392505050565b805169ffffffffffffffffffff8116811461018b57600080fd5b919050565b600080600080600060a086880312156101a857600080fd5b6101b186610171565b94506020860151935060408601519250606086015191506101d460808701610171565b90509295509295909350565b634e487b7160e01b600052601160045260246000fd5b60006001600160ff1b038184138284138082168684048611161561021c5761021c6101e0565b600160ff1b600087128281168783058912161561023b5761023b6101e0565b60008712925087820587128484161615610257576102576101e0565b8785058712818416161561026d5761026d6101e0565b50505092909302939250505056fea264697066735822122072c48f6e00c5a52cb863487a9419bc6a66d0f63d77321e88f47fe70ef4f6aac064736f6c634300080b0033608060405234801561001057600080fd5b50600060208190527f4e2753d238f0f4cb8962490717ab551b4c023808c7bc37aed6e8760bfc3a92d580546001600160a01b031990811673d8bd0a1cb028a31aa859a21a3758685a95de462317909155735592ec0cfb4dbc12d3ab100b257153436a1f0fea9091527ff4e9730789baae4355b7b087afa1a57a24c222e690ce50ce909b525e8495925b8054909116732ba49aaa16e6afd2a993473cfb70fa8559b523cf1790556102b1806100c56000396000f3fe608060405234801561001057600080fd5b50600436106100365760003560e01c806341976e091461003b5780634238dc4714610061575b600080fd5b61004e610049366004610141565b6100a2565b6040519081526020015b60405180910390f35b61008a61006f366004610141565b6000602081905290815260409020546001600160a01b031681565b6040516001600160a01b039091168152602001610058565b6001600160a01b03808216600090815260208190526040808220548151633fabe5a360e21b81529151929316918391839163feaf968c9160048082019260a0929091908290030181865afa1580156100fe573d6000803e3d6000fd5b505050506040513d601f19601f820116820180604052508101906101229190610190565b505050915050806402540be40061013991906101f6565b949350505050565b60006020828403121561015357600080fd5b81356001600160a01b038116811461016a57600080fd5b9392505050565b805169ffffffffffffffffffff8116811461018b57600080fd5b919050565b600080600080600060a086880312156101a857600080fd5b6101b186610171565b94506020860151935060408601519250606086015191506101d460808701610171565b90509295509295909350565b634e487b7160e01b600052601160045260246000fd5b60006001600160ff1b038184138284138082168684048611161561021c5761021c6101e0565b600160ff1b600087128281168783058912161561023b5761023b6101e0565b60008712925087820587128484161615610257576102576101e0565b8785058712818416161561026d5761026d6101e0565b50505092909302939250505056fea264697066735822122072c48f6e00c5a52cb863487a9419bc6a66d0f63d77321e88f47fe70ef4f6aac064736f6c634300080b0033","bytecodeSha1":"0f11cb4ae4c75ce36dc740d36e05f41ac6246182","type":"contract","abi":[{"inputs":[],"stateMutability":"nonpayable","type":"constructor","name":"constructor"},{"anonymous":false,"inputs":[{"indexed":false,"internalType":"address","name":"_user","type":"address"},{"indexed":false,"internalType":"uint256","name":"_borrowed","type":"uint256"},{"indexed":false,"internalType":"address","name":"_borrowedAsset","type":"address"},{"indexed":false,"internalType":"uint256","name":"_collateral","type":"uint256"},{"indexed":false,"internalType":"address","name":"_collateralAsset","type":"address"}],"name":"borrowEvent","type":"event"},{"anonymous":false,"inputs":[{"indexed":false,"internalType":"address","name":"_user","type":"address"},{"indexed":false,"internalType":"uint256","name":"_quantity","type":"uint256"},{"indexed":false,"internalType":"address","name":"_asset","type":"address"}],"name":"depositEvent","type":"event"},{"inputs":[{"internalType":"uint256","name":"_borrowQuantity","type":"uint256"},{"internalType":"address","name":"_asset","type":"address"},{"internalType":"uint256","name":"_collateralQuantity","type":"uint256"},{"internalType":"address","name":"_collateral","type":"address"}],"name":"Borrow","outputs":[],"stateMutability":"nonpayable","type":"function"},{"inputs":[{"internalType":"uint256","name":"_quantity","type":"uint256"},{"internalType":"address","name":"_asset","type":"address"}],"name":"Deposit","outputs":[],"stateMutability":"nonpayable","type":"function"},{"inputs":[{"internalType":"address","name":"_asset","type":"address"},{"internalType":"uint256","name":"_repayQuantity","type":"uint256"}],"name":"Repay","outputs":[],"stateMutability":"nonpayable","type":"function"},{"inputs":[{"internalType":"address","name":"_desiredAsset","type":"address"},{"internalType":"uint256","name":"_amountToRemove","type":"uint256"}],"name":"Withdraw","outputs":[],"stateMutability":"nonpayable","type":"function"},{"inputs":[{"internalType":"address","name":"","type":"address"},{"internalType":"address","name":"","type":"address"}],"name":"borrowTracker","outputs":[{"internalType":"uint256","name":"","type":"uint256"}],"stateMutability":"view","type":"function"},{"inputs":[],"name":"collateral","outputs":[{"internalType":"contract Collateral","name":"","type":"address"}],"stateMutability":"view","type":"function"},{"inputs":[],"name":"conversion","outputs":[{"internalType":"contract Conversion","name":"","type":"address"}],"stateMutability":"view","type":"function"},{"inputs":[{"internalType":"address","name":"user","type":"address"}],"name":"getBalanceOf","outputs":[{"internalType":"uint256","name":"","type":"uint256"}],"stateMutability":"view","type":"function"},{"inputs":[],"name":"getCollAddr","outputs":[{"internalType":"address","name":"","type":"address"}],"stateMutability":"view","type":"function"},{"inputs":[{"internalType":"address","name":"_token","type":"address"}],"name":"getCollBalance","outputs":[{"internalType":"uint256","name":"","type":"uint256"}],"stateMutability":"view","type":"function"},{"inputs":[{"internalType":"address","name":"user","type":"address"}],"name":"getCollateralValue","outputs":[{"internalType":"uint256","name":"","type":"uint256"}],"stateMutability":"view","type":"function"},{"inputs":[{"internalType":"address","name":"_token","type":"address"}],"name":"getLiquidPct","outputs":[{"internalType":"uint256","name":"","type":"uint256"}],"stateMutability":"view","type":"function"},{"inputs":[{"internalType":"address","name":"_token","type":"address"}],"name":"getLiquidity","outputs":[{"internalType":"uint256","name":"","type":"uint256"}],"stateMutability":"view","type":"function"},{"inputs":[{"internalType":"address","name":"_token","type":"address"}],"name":"getLockedCollateral","outputs":[{"internalType":"uint256","name":"","type":"uint256"}],"stateMutability":"view","type":"function"},{"inputs":[{"internalType":"address","name":"user","type":"address"},{"internalType":"address","name":"_asset","type":"address"}],"name":"getOutstandingLoan","outputs":[{"internalType":"uint256","name":"","type":"uint256"}],"stateMutability":"view","type":"function"},{"inputs":[],"name":"getPoolAddr","outputs":[{"internalType":"address","name":"","type":"address"}],"stateMutability":"view","type":"function"},{"inputs":[{"internalType":"address","name":"_token","type":"address"}],"name":"getPoolBalance","outputs":[{"internalType":"uint256","name":"","type":"uint256"}],"stateMutability":"view","type":"function"},{"inputs":[],"name":"getPoolValue","outputs":[{"internalType":"uint256","name":"","type":"uint256"}],"stateMutability":"view","type":"function"},{"inputs":[],"name":"getTokenAddr","outputs":[{"internalType":"address","name":"","type":"address"}],"stateMutability":"view","type":"function"},{"inputs":[],"name":"getTokenDollarValue","outputs":[{"internalType":"uint256","name":"","type":"uint256"}],"stateMutability":"view","type":"function"},{"inputs":[],"name":"getTotalSupply","outputs":[{"internalType":"uint256","name":"","type":"uint256"}],"stateMutability":"view","type":"function"},{"inputs":[],"name":"offerCollateralAssets","outputs":[],"stateMutability":"nonpayable","type":"function"},{"inputs":[],"name":"pool","outputs":[{"internalType":"contract Pool","name":"","type":"address"}],"stateMutability":"view","type":"function"},{"inputs":[],"name":"token","outputs":[{"internalType":"contract LVRToken","name":"","type":"address"}],"stateMutability":"view","type":"function"},{"inputs":[{"internalType":"address","name":"_borrower","type":"address"}],"name":"totalValueBorrowed","outputs":[{"internalType":"uint256","name":"","type":"uint256"}],"stateMutability":"view","type":"function"},{"inputs":[{"internalType":"address","name":"_asset","type":"address"},{"internalType":"uint256","name":"_quantity","type":"uint256"},{"internalType":"bool","name":"_toPool","type":"bool"}],"name":"unlockCollateral","outputs":[],"stateMutability":"nonpayable","type":"function"}],"compiler":{"version":"0.8.11+commit.d7f03943","evm_version":"istanbul","optimizer":{"enabled":true,"runs":200}},"contractName":"LendingPool","language":"Solidity","natspec":{"methods":{},"kind":"dev","version":1},"opcodes":"PUSH1 0x80 PUSH1 0x40 MSTORE CALLVALUE DUP1 ISZERO PUSH2 0x10 JUMPI PUSH1 0x0 DUP1 REVERT JUMPDEST POP PUSH1 0x4 CALLDATASIZE LT PUSH2 0x18E JUMPI PUSH1 0x0 CALLDATALOAD PUSH1 0xE0 SHR DUP1 PUSH4 0x97904E42 GT PUSH2 0xDE JUMPI DUP1 PUSH4 0xD28682EA GT PUSH2 0x97 JUMPI DUP1 PUSH4 0xDE259242 GT PUSH2 0x71 JUMPI DUP1 PUSH4 0xDE259242 EQ PUSH2 0x368 JUMPI DUP1 PUSH4 0xDE30F97D EQ PUSH2 0x379 JUMPI DUP1 PUSH4 0xF2DF757B EQ PUSH2 0x38C JUMPI DUP1 PUSH4 0xFC0C546A EQ PUSH2 0x39F JUMPI PUSH1 0x0 DUP1 REVERT JUMPDEST DUP1 PUSH4 0xD28682EA EQ PUSH2 0x32F JUMPI DUP1 PUSH4 0xD49AB22C EQ PUSH2 0x342 JUMPI DUP1 PUSH4 0xD8DFEB45 EQ PUSH2 0x355 JUMPI PUSH1 0x0 DUP1 REVERT JUMPDEST DUP1 PUSH4 0x97904E42 EQ PUSH2 0x2A2 JUMPI DUP1 PUSH4 0x9B96EECE EQ PUSH2 0x2B5 JUMPI DUP1 PUSH4 0xA747B93B EQ PUSH2 0x2C8 JUMPI DUP1 PUSH4 0xA78E4046 EQ PUSH2 0x2DB JUMPI DUP1 PUSH4 0xB9E037E6 EQ PUSH2 0x314 JUMPI DUP1 PUSH4 0xC4E41B22 EQ PUSH2 0x327 JUMPI PUSH1 0x0 DUP1 REVERT JUMPDEST DUP1 PUSH4 0x582B2720 GT PUSH2 0x14B JUMPI DUP1 PUSH4 0x6AAA434E GT PUSH2 0x125 JUMPI DUP1 PUSH4 0x6AAA434E EQ PUSH2 0x249 JUMPI DUP1 PUSH4 0x6DB18093 EQ PUSH2 0x274 JUMPI DUP1 PUSH4 0x884EDAD9 EQ PUSH2 0x27C JUMPI DUP1 PUSH4 0x9311CA69 EQ PUSH2 0x28F JUMPI PUSH1 0x0 DUP1 REVERT JUMPDEST DUP1 PUSH4 0x582B2720 EQ PUSH2 0x214 JUMPI DUP1 PUSH4 0x5C16DE4F EQ PUSH2 0x225 JUMPI DUP1 PUSH4 0x63E36DAC EQ PUSH2 0x238 JUMPI PUSH1 0x0 DUP1 REVERT JUMPDEST DUP1 PUSH4 0x57393C0 EQ PUSH2 0x193 JUMPI DUP1 PUSH4 0x16F0115B EQ PUSH2 0x1B9 JUMPI DUP1 PUSH4 0x1BA2F531 EQ PUSH2 0x1E4 JUMPI DUP1 PUSH4 0x243D8E05 EQ PUSH2 0x1EC JUMPI DUP1 PUSH4 0x46C928FC EQ PUSH2 0x1EE JUMPI DUP1 PUSH4 0x4BCC1709 EQ PUSH2 0x201 JUMPI JUMPDEST PUSH1 0x0 DUP1 REVERT JUMPDEST PUSH2 0x1A6 PUSH2 0x1A1 CALLDATASIZE PUSH1 0x4 PUSH2 0x1507 JUMP JUMPDEST PUSH2 0x3B2 JUMP JUMPDEST PUSH1 0x40 MLOAD SWAP1 DUP2 MSTORE PUSH1 0x20 ADD JUMPDEST PUSH1 0x40 MLOAD DUP1 SWAP2 SUB SWAP1 RETURN JUMPDEST PUSH1 0x1 SLOAD PUSH2 0x1CC SWAP1 PUSH1 0x1 PUSH1 0x1 PUSH1 0xA0 SHL SUB AND DUP2 JUMP JUMPDEST PUSH1 0x40 MLOAD PUSH1 0x1 PUSH1 0x1 PUSH1 0xA0 SHL SUB SWAP1 SWAP2 AND DUP2 MSTORE PUSH1 0x20 ADD PUSH2 0x1B0 JUMP JUMPDEST PUSH2 0x1A6 PUSH2 0x428 JUMP JUMPDEST STOP JUMPDEST PUSH2 0x1EC PUSH2 0x1FC CALLDATASIZE PUSH1 0x4 PUSH2 0x1529 JUMP JUMPDEST PUSH2 0x4A6 JUMP JUMPDEST PUSH2 0x1EC PUSH2 0x20F CALLDATASIZE PUSH1 0x4 PUSH2 0x156F JUMP JUMPDEST PUSH2 0x884 JUMP JUMPDEST PUSH1 0x4 SLOAD PUSH1 0x1 PUSH1 0x1 PUSH1 0xA0 SHL SUB AND PUSH2 0x1CC JUMP JUMPDEST PUSH2 0x1EC PUSH2 0x233 CALLDATASIZE PUSH1 0x4 PUSH2 0x159B JUMP JUMPDEST PUSH2 0x9AB JUMP JUMPDEST PUSH1 0x2 SLOAD PUSH1 0x1 PUSH1 0x1 PUSH1 0xA0 SHL SUB AND PUSH2 0x1CC JUMP JUMPDEST PUSH2 0x1A6 PUSH2 0x257 CALLDATASIZE PUSH1 0x4 PUSH2 0x15C5 JUMP JUMPDEST PUSH1 0x7 PUSH1 0x20 SWAP1 DUP2 MSTORE PUSH1 0x0 SWAP3 DUP4 MSTORE PUSH1 0x40 DUP1 DUP5 KECCAK256 SWAP1 SWAP2 MSTORE SWAP1 DUP3 MSTORE SWAP1 KECCAK256 SLOAD DUP2 JUMP JUMPDEST PUSH2 0x1A6 PUSH2 0xB0E JUMP JUMPDEST PUSH2 0x1EC PUSH2 0x28A CALLDATASIZE PUSH1 0x4 PUSH2 0x159B JUMP JUMPDEST PUSH2 0xB63 JUMP JUMPDEST PUSH1 0x0 SLOAD PUSH2 0x1CC SWAP1 PUSH1 0x1 PUSH1 0x1 PUSH1 0xA0 SHL SUB AND DUP2 JUMP JUMPDEST PUSH2 0x1A6 PUSH2 0x2B0 CALLDATASIZE PUSH1 0x4 PUSH2 0x1507 JUMP JUMPDEST PUSH2 0xF60 JUMP JUMPDEST PUSH2 0x1A6 PUSH2 0x2C3 CALLDATASIZE PUSH1 0x4 PUSH2 0x1507 JUMP JUMPDEST PUSH2 0xF93 JUMP JUMPDEST PUSH2 0x1A6 PUSH2 0x2D6 CALLDATASIZE PUSH1 0x4 PUSH2 0x1507 JUMP JUMPDEST PUSH2 0xFCB JUMP JUMPDEST PUSH2 0x1A6 PUSH2 0x2E9 CALLDATASIZE PUSH1 0x4 PUSH2 0x15C5 JUMP JUMPDEST PUSH1 0x1 PUSH1 0x1 PUSH1 0xA0 SHL SUB SWAP2 DUP3 AND PUSH1 0x0 SWAP1 DUP2 MSTORE PUSH1 0x7 PUSH1 0x20 SWAP1 DUP2 MSTORE PUSH1 0x40 DUP1 DUP4 KECCAK256 SWAP4 SWAP1 SWAP5 AND DUP3 MSTORE SWAP2 SWAP1 SWAP2 MSTORE KECCAK256 SLOAD SWAP1 JUMP JUMPDEST PUSH2 0x1EC PUSH2 0x322 CALLDATASIZE PUSH1 0x4 PUSH2 0x15EF JUMP JUMPDEST PUSH2 0xFFE JUMP JUMPDEST PUSH2 0x1A6 PUSH2 0x127F JUMP JUMPDEST PUSH2 0x1A6 PUSH2 0x33D CALLDATASIZE PUSH1 0x4 PUSH2 0x1507 JUMP JUMPDEST PUSH2 0x12D4 JUMP JUMPDEST PUSH2 0x1A6 PUSH2 0x350 CALLDATASIZE PUSH1 0x4 PUSH2 0x1507 JUMP JUMPDEST PUSH2 0x1307 JUMP JUMPDEST PUSH1 0x2 SLOAD PUSH2 0x1CC SWAP1 PUSH1 0x1 PUSH1 0x1 PUSH1 0xA0 SHL SUB AND DUP2 JUMP JUMPDEST PUSH1 0x1 SLOAD PUSH1 0x1 PUSH1 0x1 PUSH1 0xA0 SHL SUB AND PUSH2 0x1CC JUMP JUMPDEST PUSH2 0x1A6 PUSH2 0x387 CALLDATASIZE PUSH1 0x4 PUSH2 0x1507 JUMP JUMPDEST PUSH2 0x133A JUMP JUMPDEST PUSH2 0x1A6 PUSH2 0x39A CALLDATASIZE PUSH1 0x4 PUSH2 0x1507 JUMP JUMPDEST PUSH2 0x136D JUMP JUMPDEST PUSH1 0x4 SLOAD PUSH2 0x1CC SWAP1 PUSH1 0x1 PUSH1 0x1 PUSH1 0xA0 SHL SUB AND DUP2 JUMP JUMPDEST PUSH1 0x2 SLOAD PUSH1 0x40 MLOAD PUSH4 0xF8B2CB4F PUSH1 0xE0 SHL DUP2 MSTORE PUSH1 0x1 PUSH1 0x1 PUSH1 0xA0 SHL SUB DUP4 DUP2 AND PUSH1 0x4 DUP4 ADD MSTORE PUSH1 0x0 SWAP3 AND SWAP1 PUSH4 0xF8B2CB4F SWAP1 PUSH1 0x24 ADD JUMPDEST PUSH1 0x20 PUSH1 0x40 MLOAD DUP1 DUP4 SUB DUP2 DUP7 GAS STATICCALL ISZERO DUP1 ISZERO PUSH2 0x3FE JUMPI RETURNDATASIZE PUSH1 0x0 DUP1 RETURNDATACOPY RETURNDATASIZE PUSH1 0x0 REVERT JUMPDEST POP POP POP POP PUSH1 0x40 MLOAD RETURNDATASIZE PUSH1 0x1F NOT PUSH1 0x1F DUP3 ADD AND DUP3 ADD DUP1 PUSH1 0x40 MSTORE POP DUP2 ADD SWAP1 PUSH2 0x422 SWAP2 SWAP1 PUSH2 0x1634 JUMP JUMPDEST SWAP3 SWAP2 POP POP JUMP JUMPDEST PUSH1 0x0 PUSH1 0x4 PUSH1 0x0 SWAP1 SLOAD SWAP1 PUSH2 0x100 EXP SWAP1 DIV PUSH1 0x1 PUSH1 0x1 PUSH1 0xA0 SHL SUB AND PUSH1 0x1 PUSH1 0x1 PUSH1 0xA0 SHL SUB AND PUSH4 0x8A02775B PUSH1 0x40 MLOAD DUP2 PUSH4 0xFFFFFFFF AND PUSH1 0xE0 SHL DUP2 MSTORE PUSH1 0x4 ADD PUSH1 0x20 PUSH1 0x40 MLOAD DUP1 DUP4 SUB DUP2 DUP7 GAS STATICCALL ISZERO DUP1 ISZERO PUSH2 0x47D JUMPI RETURNDATASIZE PUSH1 0x0 DUP1 RETURNDATACOPY RETURNDATASIZE PUSH1 0x0 REVERT JUMPDEST POP POP POP POP PUSH1 0x40 MLOAD RETURNDATASIZE PUSH1 0x1F NOT PUSH1 0x1F DUP3 ADD AND DUP3 ADD DUP1 PUSH1 0x40 MSTORE POP DUP2 ADD SWAP1 PUSH2 0x4A1 SWAP2 SWAP1 PUSH2 0x1634 JUMP JUMPDEST SWAP1 POP SWAP1 JUMP JUMPDEST PUSH1 0x2 SLOAD PUSH1 0x40 MLOAD PUSH4 0x1D512A91 PUSH1 0xE2 SHL DUP2 MSTORE CALLER PUSH1 0x4 DUP3 ADD MSTORE PUSH1 0x0 SWAP2 PUSH1 0x1 PUSH1 0x1 PUSH1 0xA0 SHL SUB AND SWAP1 PUSH4 0x7544AA44 SWAP1 PUSH1 0x24 ADD PUSH1 0x20 PUSH1 0x40 MLOAD DUP1 DUP4 SUB DUP2 DUP7 GAS STATICCALL ISZERO DUP1 ISZERO PUSH2 0x4EF JUMPI RETURNDATASIZE PUSH1 0x0 DUP1 RETURNDATACOPY RETURNDATASIZE PUSH1 0x0 REVERT JUMPDEST POP POP POP POP PUSH1 0x40 MLOAD RETURNDATASIZE PUSH1 0x1F NOT PUSH1 0x1F DUP3 ADD AND DUP3 ADD DUP1 PUSH1 0x40 MSTORE POP DUP2 ADD SWAP1 PUSH2 0x513 SWAP2 SWAP1 PUSH2 0x1634 JUMP JUMPDEST PUSH1 0x0 SLOAD PUSH1 0x40 MLOAD PUSH4 0x41976E09 PUSH1 0xE0 SHL DUP2 MSTORE PUSH1 0x1 PUSH1 0x1 PUSH1 0xA0 SHL SUB DUP6 DUP2 AND PUSH1 0x4 DUP4 ADD MSTORE DUP7 SWAP3 AND SWAP1 PUSH4 0x41976E09 SWAP1 PUSH1 0x24 ADD PUSH1 0x20 PUSH1 0x40 MLOAD DUP1 DUP4 SUB DUP2 DUP7 GAS STATICCALL ISZERO DUP1 ISZERO PUSH2 0x55D JUMPI RETURNDATASIZE PUSH1 0x0 DUP1 RETURNDATACOPY RETURNDATASIZE PUSH1 0x0 REVERT JUMPDEST POP POP POP POP PUSH1 0x40 MLOAD RETURNDATASIZE PUSH1 0x1F NOT PUSH1 0x1F DUP3 ADD AND DUP3 ADD DUP1 PUSH1 0x40 MSTORE POP DUP2 ADD SWAP1 PUSH2 0x581 SWAP2 SWAP1 PUSH2 0x1634 JUMP JUMPDEST PUSH2 0x58B SWAP2 SWAP1 PUSH2 0x1663 JUMP JUMPDEST PUSH2 0x595 SWAP2 SWAP1 PUSH2 0x1682 JUMP JUMPDEST PUSH1 0x0 DUP1 SLOAD PUSH1 0x40 MLOAD PUSH4 0x41976E09 PUSH1 0xE0 SHL DUP2 MSTORE PUSH1 0x1 PUSH1 0x1 PUSH1 0xA0 SHL SUB DUP9 DUP2 AND PUSH1 0x4 DUP4 ADD MSTORE SWAP4 SWAP5 POP SWAP2 SWAP3 DUP9 SWAP3 SWAP2 AND SWAP1 PUSH4 0x41976E09 SWAP1 PUSH1 0x24 ADD PUSH1 0x20 PUSH1 0x40 MLOAD DUP1 DUP4 SUB DUP2 DUP7 GAS STATICCALL ISZERO DUP1 ISZERO PUSH2 0x5E6 JUMPI RETURNDATASIZE PUSH1 0x0 DUP1 RETURNDATACOPY RETURNDATASIZE PUSH1 0x0 REVERT JUMPDEST POP POP POP POP PUSH1 0x40 MLOAD RETURNDATASIZE PUSH1 0x1F NOT PUSH1 0x1F DUP3 ADD AND DUP3 ADD DUP1 PUSH1 0x40 MSTORE POP DUP2 ADD SWAP1 PUSH2 0x60A SWAP2 SWAP1 PUSH2 0x1634 JUMP JUMPDEST PUSH2 0x614 SWAP2 SWAP1 PUSH2 0x1663 JUMP JUMPDEST SWAP1 POP PUSH1 0x2 PUSH1 0x0 SWAP1 SLOAD SWAP1 PUSH2 0x100 EXP SWAP1 DIV PUSH1 0x1 PUSH1 0x1 PUSH1 0xA0 SHL SUB AND PUSH1 0x1 PUSH1 0x1 PUSH1 0xA0 SHL SUB AND PUSH4 0x9404954 PUSH1 0x40 MLOAD DUP2 PUSH4 0xFFFFFFFF AND PUSH1 0xE0 SHL DUP2 MSTORE PUSH1 0x4 ADD PUSH1 0x20 PUSH1 0x40 MLOAD DUP1 DUP4 SUB DUP2 DUP7 GAS STATICCALL ISZERO DUP1 ISZERO PUSH2 0x669 JUMPI RETURNDATASIZE PUSH1 0x0 DUP1 RETURNDATACOPY RETURNDATASIZE PUSH1 0x0 REVERT JUMPDEST POP POP POP POP PUSH1 0x40 MLOAD RETURNDATASIZE PUSH1 0x1F NOT PUSH1 0x1F DUP3 ADD AND DUP3 ADD DUP1 PUSH1 0x40 MSTORE POP DUP2 ADD SWAP1 PUSH2 0x68D SWAP2 SWAP1 PUSH2 0x1634 JUMP JUMPDEST PUSH2 0x697 SWAP1 DUP3 PUSH2 0x1663 JUMP JUMPDEST DUP3 LT ISZERO PUSH2 0x6E3 JUMPI PUSH1 0x40 MLOAD PUSH3 0x461BCD PUSH1 0xE5 SHL DUP2 MSTORE PUSH1 0x20 PUSH1 0x4 DUP3 ADD MSTORE PUSH1 0x15 PUSH1 0x24 DUP3 ADD MSTORE PUSH21 0x1B9BDD08195B9BDD59DA0818DBDB1B185D195C985B PUSH1 0x5A SHL PUSH1 0x44 DUP3 ADD MSTORE PUSH1 0x64 ADD JUMPDEST PUSH1 0x40 MLOAD DUP1 SWAP2 SUB SWAP1 REVERT JUMPDEST PUSH1 0x2 SLOAD PUSH1 0x40 MLOAD PUSH4 0xF970C3B7 PUSH1 0xE0 SHL DUP2 MSTORE PUSH1 0x1 PUSH1 0x1 PUSH1 0xA0 SHL SUB SWAP1 SWAP2 AND SWAP1 PUSH4 0xF970C3B7 SWAP1 PUSH2 0x717 SWAP1 CALLER SWAP1 DUP8 SWAP1 DUP10 SWAP1 PUSH1 0x4 ADD PUSH2 0x169A JUMP JUMPDEST PUSH1 0x0 PUSH1 0x40 MLOAD DUP1 DUP4 SUB DUP2 PUSH1 0x0 DUP8 DUP1 EXTCODESIZE ISZERO DUP1 ISZERO PUSH2 0x731 JUMPI PUSH1 0x0 DUP1 REVERT JUMPDEST POP GAS CALL ISZERO DUP1 ISZERO PUSH2 0x745 JUMPI RETURNDATASIZE PUSH1 0x0 DUP1 RETURNDATACOPY RETURNDATASIZE PUSH1 0x0 REVERT JUMPDEST POP POP PUSH1 0x1 SLOAD PUSH1 0x40 MLOAD PUSH4 0xFC4F78B9 PUSH1 0xE0 SHL DUP2 MSTORE PUSH1 0x1 PUSH1 0x1 PUSH1 0xA0 SHL SUB SWAP1 SWAP2 AND SWAP3 POP PUSH4 0xFC4F78B9 SWAP2 POP PUSH2 0x77D SWAP1 CALLER SWAP1 DUP10 SWAP1 DUP12 SWAP1 PUSH1 0x4 ADD PUSH2 0x169A JUMP JUMPDEST PUSH1 0x0 PUSH1 0x40 MLOAD DUP1 DUP4 SUB DUP2 PUSH1 0x0 DUP8 DUP1 EXTCODESIZE ISZERO DUP1 ISZERO PUSH2 0x797 JUMPI PUSH1 0x0 DUP1 REVERT JUMPDEST POP GAS CALL ISZERO DUP1 ISZERO PUSH2 0x7AB JUMPI RETURNDATASIZE PUSH1 0x0 DUP1 RETURNDATACOPY RETURNDATASIZE PUSH1 0x0 REVERT JUMPDEST POP POP PUSH1 0x40 DUP1 MLOAD CALLER DUP2 MSTORE PUSH1 0x20 DUP2 ADD DUP11 SWAP1 MSTORE PUSH1 0x1 PUSH1 0x1 PUSH1 0xA0 SHL SUB DUP10 DUP2 AND DUP3 DUP5 ADD MSTORE PUSH1 0x60 DUP3 ADD DUP10 SWAP1 MSTORE DUP8 AND PUSH1 0x80 DUP3 ADD MSTORE SWAP1 MLOAD PUSH32 0xEA8631408D071CDC565DFA37DCB32450C4C85EE9A4142ED14DF1387D7C2A4327 SWAP4 POP SWAP1 DUP2 SWAP1 SUB PUSH1 0xA0 ADD SWAP2 POP LOG1 CALLER PUSH1 0x0 SWAP1 DUP2 MSTORE PUSH1 0x7 PUSH1 0x20 SWAP1 DUP2 MSTORE PUSH1 0x40 DUP1 DUP4 KECCAK256 PUSH1 0x1 PUSH1 0x1 PUSH1 0xA0 SHL SUB DUP10 AND DUP5 MSTORE SWAP1 SWAP2 MSTORE DUP2 KECCAK256 DUP1 SLOAD DUP9 SWAP3 SWAP1 PUSH2 0x83A SWAP1 DUP5 SWAP1 PUSH2 0x1682 JUMP JUMPDEST SWAP1 SWAP2 SSTORE POP POP CALLER PUSH1 0x0 SWAP1 DUP2 MSTORE PUSH1 0x6 PUSH1 0x20 SWAP1 DUP2 MSTORE PUSH1 0x40 DUP3 KECCAK256 DUP1 SLOAD PUSH1 0x1 DUP2 ADD DUP3 SSTORE SWAP1 DUP4 MSTORE SWAP2 KECCAK256 ADD DUP1 SLOAD PUSH1 0x1 PUSH1 0x1 PUSH1 0xA0 SHL SUB NOT AND PUSH1 0x1 PUSH1 0x1 PUSH1 0xA0 SHL SUB SWAP7 SWAP1 SWAP7 AND SWAP6 SWAP1 SWAP6 OR SWAP1 SWAP5 SSTORE POP POP POP POP POP JUMP JUMPDEST PUSH1 0x0 DUP3 GT PUSH2 0x8D4 JUMPI PUSH1 0x40 MLOAD PUSH3 0x461BCD PUSH1 0xE5 SHL DUP2 MSTORE PUSH1 0x20 PUSH1 0x4 DUP3 ADD MSTORE PUSH1 0x18 PUSH1 0x24 DUP3 ADD MSTORE PUSH32 0x6465706F736974206D75737420626520706F7369746976650000000000000000 PUSH1 0x44 DUP3 ADD MSTORE PUSH1 0x64 ADD PUSH2 0x6DA JUMP JUMPDEST PUSH1 0x4 DUP1 SLOAD PUSH1 0x40 MLOAD PUSH4 0xD4D1513 PUSH1 0xE0 SHL DUP2 MSTORE CALLER SWAP3 DUP2 ADD SWAP3 SWAP1 SWAP3 MSTORE PUSH1 0x24 DUP3 ADD DUP5 SWAP1 MSTORE PUSH1 0x1 PUSH1 0x1 PUSH1 0xA0 SHL SUB DUP4 DUP2 AND PUSH1 0x44 DUP5 ADD MSTORE AND SWAP1 PUSH4 0xD4D1513 SWAP1 PUSH1 0x64 ADD PUSH1 0x0 PUSH1 0x40 MLOAD DUP1 DUP4 SUB DUP2 PUSH1 0x0 DUP8 DUP1 EXTCODESIZE ISZERO DUP1 ISZERO PUSH2 0x929 JUMPI PUSH1 0x0 DUP1 REVERT JUMPDEST POP GAS CALL ISZERO DUP1 ISZERO PUSH2 0x93D JUMPI RETURNDATASIZE PUSH1 0x0 DUP1 RETURNDATACOPY RETURNDATASIZE PUSH1 0x0 REVERT JUMPDEST POP POP PUSH1 0x1 SLOAD PUSH1 0x40 MLOAD PUSH4 0x1740ECAF PUSH1 0xE1 SHL DUP2 MSTORE PUSH1 0x1 PUSH1 0x1 PUSH1 0xA0 SHL SUB SWAP1 SWAP2 AND SWAP3 POP PUSH4 0x2E81D95E SWAP2 POP PUSH2 0x975 SWAP1 CALLER SWAP1 DUP6 SWAP1 DUP8 SWAP1 PUSH1 0x4 ADD PUSH2 0x169A JUMP JUMPDEST PUSH1 0x0 PUSH1 0x40 MLOAD DUP1 DUP4 SUB DUP2 PUSH1 0x0 DUP8 DUP1 EXTCODESIZE ISZERO DUP1 ISZERO PUSH2 0x98F JUMPI PUSH1 0x0 DUP1 REVERT JUMPDEST POP GAS CALL ISZERO DUP1 ISZERO PUSH2 0x9A3 JUMPI RETURNDATASIZE PUSH1 0x0 DUP1 RETURNDATACOPY RETURNDATASIZE PUSH1 0x0 REVERT JUMPDEST POP POP POP POP POP POP JUMP JUMPDEST CALLER PUSH1 0x0 SWAP1 DUP2 MSTORE PUSH1 0x7 PUSH1 0x20 SWAP1 DUP2 MSTORE PUSH1 0x40 DUP1 DUP4 KECCAK256 PUSH1 0x1 PUSH1 0x1 PUSH1 0xA0 SHL SUB DUP7 AND DUP5 MSTORE SWAP1 SWAP2 MSTORE SWAP1 KECCAK256 SLOAD DUP2 GT ISZERO PUSH2 0xA1E JUMPI PUSH1 0x40 MLOAD PUSH3 0x461BCD PUSH1 0xE5 SHL DUP2 MSTORE PUSH1 0x20 PUSH1 0x4 DUP3 ADD MSTORE PUSH1 0x1B PUSH1 0x24 DUP3 ADD MSTORE PUSH32 0x52657475726E6564206D6F7265207468616E20626F72726F7765640000000000 PUSH1 0x44 DUP3 ADD MSTORE PUSH1 0x64 ADD PUSH2 0x6DA JUMP JUMPDEST PUSH1 0x1 SLOAD PUSH1 0x40 MLOAD PUSH4 0x1740ECAF PUSH1 0xE1 SHL DUP2 MSTORE PUSH1 0x1 PUSH1 0x1 PUSH1 0xA0 SHL SUB SWAP1 SWAP2 AND SWAP1 PUSH4 0x2E81D95E SWAP1 PUSH2 0xA52 SWAP1 CALLER SWAP1 DUP7 SWAP1 DUP7 SWAP1 PUSH1 0x4 ADD PUSH2 0x169A JUMP JUMPDEST PUSH1 0x0 PUSH1 0x40 MLOAD DUP1 DUP4 SUB DUP2 PUSH1 0x0 DUP8 DUP1 EXTCODESIZE ISZERO DUP1 ISZERO PUSH2 0xA6C JUMPI PUSH1 0x0 DUP1 REVERT JUMPDEST POP GAS CALL ISZERO DUP1 ISZERO PUSH2 0xA80 JUMPI RETURNDATASIZE PUSH1 0x0 DUP1 RETURNDATACOPY RETURNDATASIZE PUSH1 0x0 REVERT JUMPDEST POP POP CALLER PUSH1 0x0 SWAP1 DUP2 MSTORE PUSH1 0x7 PUSH1 0x20 SWAP1 DUP2 MSTORE PUSH1 0x40 DUP1 DUP4 KECCAK256 PUSH1 0x1 PUSH1 0x1 PUSH1 0xA0 SHL SUB DUP9 AND DUP5 MSTORE SWAP1 SWAP2 MSTORE DUP2 KECCAK256 DUP1 SLOAD DUP6 SWAP5 POP SWAP1 SWAP3 POP PUSH2 0xAB8 SWAP1 DUP5 SWAP1 PUSH2 0x16BE JUMP JUMPDEST SWAP1 SWAP2 SSTORE POP POP CALLER PUSH1 0x0 SWAP1 DUP2 MSTORE PUSH1 0x7 PUSH1 0x20 SWAP1 DUP2 MSTORE PUSH1 0x40 DUP1 DUP4 KECCAK256 PUSH1 0x1 PUSH1 0x1 PUSH1 0xA0 SHL SUB DUP7 AND DUP5 MSTORE SWAP1 SWAP2 MSTORE SWAP1 KECCAK256 SLOAD PUSH2 0xB0A JUMPI CALLER PUSH1 0x0 SWAP1 DUP2 MSTORE PUSH1 0x7 PUSH1 0x20 SWAP1 DUP2 MSTORE PUSH1 0x40 DUP1 DUP4 KECCAK256 PUSH1 0x1 PUSH1 0x1 PUSH1 0xA0 SHL SUB DUP7 AND DUP5 MSTORE SWAP1 SWAP2 MSTORE DUP2 KECCAK256 SSTORE JUMPDEST POP POP JUMP JUMPDEST PUSH1 0x0 PUSH1 0x4 PUSH1 0x0 SWAP1 SLOAD SWAP1 PUSH2 0x100 EXP SWAP1 DIV PUSH1 0x1 PUSH1 0x1 PUSH1 0xA0 SHL SUB AND PUSH1 0x1 PUSH1 0x1 PUSH1 0xA0 SHL SUB AND PUSH4 0x33D57CDC PUSH1 0x40 MLOAD DUP2 PUSH4 0xFFFFFFFF AND PUSH1 0xE0 SHL DUP2 MSTORE PUSH1 0x4 ADD PUSH1 0x20 PUSH1 0x40 MLOAD DUP1 DUP4 SUB DUP2 DUP7 GAS STATICCALL ISZERO DUP1 ISZERO PUSH2 0x47D JUMPI RETURNDATASIZE PUSH1 0x0 DUP1 RETURNDATACOPY RETURNDATASIZE PUSH1 0x0 REVERT JUMPDEST PUSH1 0x0 DUP1 SLOAD PUSH1 0x40 MLOAD PUSH4 0x41976E09 PUSH1 0xE0 SHL DUP2 MSTORE PUSH1 0x1 PUSH1 0x1 PUSH1 0xA0 SHL SUB DUP6 DUP2 AND PUSH1 0x4 DUP4 ADD MSTORE SWAP1 SWAP2 AND SWAP1 PUSH4 0x41976E09 SWAP1 PUSH1 0x24 ADD PUSH1 0x20 PUSH1 0x40 MLOAD DUP1 DUP4 SUB DUP2 DUP7 GAS STATICCALL ISZERO DUP1 ISZERO PUSH2 0xBAE JUMPI RETURNDATASIZE PUSH1 0x0 DUP1 RETURNDATACOPY RETURNDATASIZE PUSH1 0x0 REVERT JUMPDEST POP POP POP POP PUSH1 0x40 MLOAD RETURNDATASIZE PUSH1 0x1F NOT PUSH1 0x1F DUP3 ADD AND DUP3 ADD DUP1 PUSH1 0x40 MSTORE POP DUP2 ADD SWAP1 PUSH2 0xBD2 SWAP2 SWAP1 PUSH2 0x1634 JUMP JUMPDEST PUSH1 0x1 SLOAD PUSH1 0x40 MLOAD PUSH4 0xFCE3E8E7 PUSH1 0xE0 SHL DUP2 MSTORE PUSH1 0x1 PUSH1 0x1 PUSH1 0xA0 SHL SUB DUP7 DUP2 AND PUSH1 0x4 DUP4 ADD MSTORE SWAP3 SWAP4 POP SWAP2 AND SWAP1 PUSH4 0xFCE3E8E7 SWAP1 PUSH1 0x24 ADD PUSH1 0x20 PUSH1 0x40 MLOAD DUP1 DUP4 SUB DUP2 DUP7 GAS STATICCALL ISZERO DUP1 ISZERO PUSH2 0xC1E JUMPI RETURNDATASIZE PUSH1 0x0 DUP1 RETURNDATACOPY RETURNDATASIZE PUSH1 0x0 REVERT JUMPDEST POP POP POP POP PUSH1 0x40 MLOAD RETURNDATASIZE PUSH1 0x1F NOT PUSH1 0x1F DUP3 ADD AND DUP3 ADD DUP1 PUSH1 0x40 MSTORE POP DUP2 ADD SWAP1 PUSH2 0xC42 SWAP2 SWAP1 PUSH2 0x1634 JUMP JUMPDEST DUP3 GT ISZERO PUSH2 0xCAC JUMPI PUSH1 0x40 MLOAD PUSH3 0x461BCD PUSH1 0xE5 SHL DUP2 MSTORE PUSH1 0x20 PUSH1 0x4 DUP3 ADD MSTORE PUSH1 0x32 PUSH1 0x24 DUP3 ADD MSTORE PUSH32 0x557365722063616E6E6F742072656465656D206D6F7265207468616E20746865 PUSH1 0x44 DUP3 ADD MSTORE PUSH18 0x20617661696C61626C652062616C616E6365 PUSH1 0x70 SHL PUSH1 0x64 DUP3 ADD MSTORE PUSH1 0x84 ADD PUSH2 0x6DA JUMP JUMPDEST PUSH1 0x4 DUP1 SLOAD PUSH1 0x40 DUP1 MLOAD PUSH4 0xCF55F37 PUSH1 0xE2 SHL DUP2 MSTORE SWAP1 MLOAD PUSH1 0x0 SWAP4 DUP6 SWAP4 PUSH1 0x1 PUSH1 0x1 PUSH1 0xA0 SHL SUB AND SWAP3 PUSH4 0x33D57CDC SWAP3 DUP2 DUP4 ADD SWAP3 PUSH1 0x20 SWAP3 DUP3 SWAP1 SUB ADD DUP2 DUP7 GAS STATICCALL ISZERO DUP1 ISZERO PUSH2 0xCF5 JUMPI RETURNDATASIZE PUSH1 0x0 DUP1 RETURNDATACOPY RETURNDATASIZE PUSH1 0x0 REVERT JUMPDEST POP POP POP POP PUSH1 0x40 MLOAD RETURNDATASIZE PUSH1 0x1F NOT PUSH1 0x1F DUP3 ADD AND DUP3 ADD DUP1 PUSH1 0x40 MSTORE POP DUP2 ADD SWAP1 PUSH2 0xD19 SWAP2 SWAP1 PUSH2 0x1634 JUMP JUMPDEST PUSH1 0x4 DUP1 SLOAD PUSH1 0x40 MLOAD PUSH4 0x70A08231 PUSH1 0xE0 SHL DUP2 MSTORE CALLER SWAP3 DUP2 ADD SWAP3 SWAP1 SWAP3 MSTORE PUSH1 0x1 PUSH1 0x1 PUSH1 0xA0 SHL SUB AND SWAP1 PUSH4 0x70A08231 SWAP1 PUSH1 0x24 ADD PUSH1 0x20 PUSH1 0x40 MLOAD DUP1 DUP4 SUB DUP2 DUP7 GAS STATICCALL ISZERO DUP1 ISZERO PUSH2 0xD62 JUMPI RETURNDATASIZE PUSH1 0x0 DUP1 RETURNDATACOPY RETURNDATASIZE PUSH1 0x0 REVERT JUMPDEST POP POP POP POP PUSH1 0x40 MLOAD RETURNDATASIZE PUSH1 0x1F NOT PUSH1 0x1F DUP3 ADD AND DUP3 ADD DUP1 PUSH1 0x40 MSTORE POP DUP2 ADD SWAP1 PUSH2 0xD86 SWAP2 SWAP1 PUSH2 0x1634 JUMP JUMPDEST PUSH2 0xD90 SWAP2 SWAP1 PUSH2 0x1663 JUMP JUMPDEST PUSH2 0xD9A SWAP2 SWAP1 PUSH2 0x16D5 JUMP JUMPDEST SWAP1 POP DUP3 DUP2 LT ISZERO PUSH2 0xE00 JUMPI PUSH1 0x40 MLOAD PUSH3 0x461BCD PUSH1 0xE5 SHL DUP2 MSTORE PUSH1 0x20 PUSH1 0x4 DUP3 ADD MSTORE PUSH1 0x2B PUSH1 0x24 DUP3 ADD MSTORE PUSH32 0x43616E6E6F742072656465656D206D6F726520746F6B656E73207468616E206E PUSH1 0x44 DUP3 ADD MSTORE PUSH11 0x1D5B58995C881BDDDB9959 PUSH1 0xAA SHL PUSH1 0x64 DUP3 ADD MSTORE PUSH1 0x84 ADD PUSH2 0x6DA JUMP JUMPDEST PUSH1 0x0 PUSH1 0x4 PUSH1 0x0 SWAP1 SLOAD SWAP1 PUSH2 0x100 EXP SWAP1 DIV PUSH1 0x1 PUSH1 0x1 PUSH1 0xA0 SHL SUB AND PUSH1 0x1 PUSH1 0x1 PUSH1 0xA0 SHL SUB AND PUSH4 0x33D57CDC PUSH1 0x40 MLOAD DUP2 PUSH4 0xFFFFFFFF AND PUSH1 0xE0 SHL DUP2 MSTORE PUSH1 0x4 ADD PUSH1 0x20 PUSH1 0x40 MLOAD DUP1 DUP4 SUB DUP2 DUP7 GAS STATICCALL ISZERO DUP1 ISZERO PUSH2 0xE55 JUMPI RETURNDATASIZE PUSH1 0x0 DUP1 RETURNDATACOPY RETURNDATASIZE PUSH1 0x0 REVERT JUMPDEST POP POP POP POP PUSH1 0x40 MLOAD RETURNDATASIZE PUSH1 0x1F NOT PUSH1 0x1F DUP3 ADD AND DUP3 ADD DUP1 PUSH1 0x40 MSTORE POP DUP2 ADD SWAP1 PUSH2 0xE79 SWAP2 SWAP1 PUSH2 0x1634 JUMP JUMPDEST PUSH2 0xE83 DUP6 DUP6 PUSH2 0x1663 JUMP JUMPDEST PUSH2 0xE8D SWAP2 SWAP1 PUSH2 0x16D5 JUMP JUMPDEST PUSH1 0x1 SLOAD PUSH1 0x40 MLOAD PUSH4 0x1F97F859 PUSH1 0xE3 SHL DUP2 MSTORE SWAP2 SWAP3 POP PUSH1 0x1 PUSH1 0x1 PUSH1 0xA0 SHL SUB AND SWAP1 PUSH4 0xFCBFC2C8 SWAP1 PUSH2 0xEC2 SWAP1 CALLER SWAP1 DUP10 SWAP1 DUP10 SWAP1 PUSH1 0x4 ADD PUSH2 0x169A JUMP JUMPDEST PUSH1 0x0 PUSH1 0x40 MLOAD DUP1 DUP4 SUB DUP2 PUSH1 0x0 DUP8 DUP1 EXTCODESIZE ISZERO DUP1 ISZERO PUSH2 0xEDC JUMPI PUSH1 0x0 DUP1 REVERT JUMPDEST POP GAS CALL ISZERO DUP1 ISZERO PUSH2 0xEF0 JUMPI RETURNDATASIZE PUSH1 0x0 DUP1 RETURNDATACOPY RETURNDATASIZE PUSH1 0x0 REVERT JUMPDEST POP POP PUSH1 0x4 DUP1 SLOAD PUSH1 0x40 MLOAD PUSH4 0x2770A7EB PUSH1 0xE2 SHL DUP2 MSTORE CALLER SWAP3 DUP2 ADD SWAP3 SWAP1 SWAP3 MSTORE PUSH1 0x24 DUP3 ADD DUP6 SWAP1 MSTORE PUSH1 0x1 PUSH1 0x1 PUSH1 0xA0 SHL SUB AND SWAP3 POP PUSH4 0x9DC29FAC SWAP2 POP PUSH1 0x44 ADD PUSH1 0x0 PUSH1 0x40 MLOAD DUP1 DUP4 SUB DUP2 PUSH1 0x0 DUP8 DUP1 EXTCODESIZE ISZERO DUP1 ISZERO PUSH2 0xF41 JUMPI PUSH1 0x0 DUP1 REVERT JUMPDEST POP GAS CALL ISZERO DUP1 ISZERO PUSH2 0xF55 JUMPI RETURNDATASIZE PUSH1 0x0 DUP1 RETURNDATACOPY RETURNDATASIZE PUSH1 0x0 REVERT JUMPDEST POP POP POP POP POP POP POP POP POP JUMP JUMPDEST PUSH1 0x2 SLOAD PUSH1 0x40 MLOAD PUSH4 0x1D512A91 PUSH1 0xE2 SHL DUP2 MSTORE PUSH1 0x1 PUSH1 0x1 PUSH1 0xA0 SHL SUB DUP4 DUP2 AND PUSH1 0x4 DUP4 ADD MSTORE PUSH1 0x0 SWAP3 AND SWAP1 PUSH4 0x7544AA44 SWAP1 PUSH1 0x24 ADD PUSH2 0x3E1 JUMP JUMPDEST PUSH1 0x4 DUP1 SLOAD PUSH1 0x40 MLOAD PUSH4 0x70A08231 PUSH1 0xE0 SHL DUP2 MSTORE PUSH1 0x1 PUSH1 0x1 PUSH1 0xA0 SHL SUB DUP5 DUP2 AND SWAP4 DUP3 ADD SWAP4 SWAP1 SWAP4 MSTORE PUSH1 0x0 SWAP3 SWAP1 SWAP2 AND SWAP1 PUSH4 0x70A08231 SWAP1 PUSH1 0x24 ADD PUSH2 0x3E1 JUMP JUMPDEST PUSH1 0x1 SLOAD PUSH1 0x40 MLOAD PUSH4 0xFCE3E8E7 PUSH1 0xE0 SHL DUP2 MSTORE PUSH1 0x1 PUSH1 0x1 PUSH1 0xA0 SHL SUB DUP4 DUP2 AND PUSH1 0x4 DUP4 ADD MSTORE PUSH1 0x0 SWAP3 AND SWAP1 PUSH4 0xFCE3E8E7 SWAP1 PUSH1 0x24 ADD PUSH2 0x3E1 JUMP JUMPDEST PUSH2 0x1007 CALLER PUSH2 0x136D JUMP JUMPDEST PUSH1 0x2 PUSH1 0x0 SWAP1 SLOAD SWAP1 PUSH2 0x100 EXP SWAP1 DIV PUSH1 0x1 PUSH1 0x1 PUSH1 0xA0 SHL SUB AND PUSH1 0x1 PUSH1 0x1 PUSH1 0xA0 SHL SUB AND PUSH4 0x9404954 PUSH1 0x40 MLOAD DUP2 PUSH4 0xFFFFFFFF AND PUSH1 0xE0 SHL DUP2 MSTORE PUSH1 0x4 ADD PUSH1 0x20 PUSH1 0x40 MLOAD DUP1 DUP4 SUB DUP2 DUP7 GAS STATICCALL ISZERO DUP1 ISZERO PUSH2 0x105A JUMPI RETURNDATASIZE PUSH1 0x0 DUP1 RETURNDATACOPY RETURNDATASIZE PUSH1 0x0 REVERT JUMPDEST POP POP POP POP PUSH1 0x40 MLOAD RETURNDATASIZE PUSH1 0x1F NOT PUSH1 0x1F DUP3 ADD AND DUP3 ADD DUP1 PUSH1 0x40 MSTORE POP DUP2 ADD SWAP1 PUSH2 0x107E SWAP2 SWAP1 PUSH2 0x1634 JUMP JUMPDEST PUSH2 0x1088 SWAP2 SWAP1 PUSH2 0x1663 JUMP JUMPDEST PUSH1 0x0 SLOAD PUSH1 0x40 MLOAD PUSH4 0x41976E09 PUSH1 0xE0 SHL DUP2 MSTORE PUSH1 0x1 PUSH1 0x1 PUSH1 0xA0 SHL SUB DUP7 DUP2 AND PUSH1 0x4 DUP4 ADD MSTORE DUP6 SWAP3 AND SWAP1 PUSH4 0x41976E09 SWAP1 PUSH1 0x24 ADD PUSH1 0x20 PUSH1 0x40 MLOAD DUP1 DUP4 SUB DUP2 DUP7 GAS STATICCALL ISZERO DUP1 ISZERO PUSH2 0x10D2 JUMPI RETURNDATASIZE PUSH1 0x0 DUP1 RETURNDATACOPY RETURNDATASIZE PUSH1 0x0 REVERT JUMPDEST POP POP POP POP PUSH1 0x40 MLOAD RETURNDATASIZE PUSH1 0x1F NOT PUSH1 0x1F DUP3 ADD AND DUP3 ADD DUP1 PUSH1 0x40 MSTORE POP DUP2 ADD SWAP1 PUSH2 0x10F6 SWAP2 SWAP1 PUSH2 0x1634 JUMP JUMPDEST PUSH2 0x1100 SWAP2 SWAP1 PUSH2 0x1663 JUMP JUMPDEST PUSH1 0x2 SLOAD PUSH1 0x40 MLOAD PUSH4 0x1D512A91 PUSH1 0xE2 SHL DUP2 MSTORE CALLER PUSH1 0x4 DUP3 ADD MSTORE PUSH1 0x1 PUSH1 0x1 PUSH1 0xA0 SHL SUB SWAP1 SWAP2 AND SWAP1 PUSH4 0x7544AA44 SWAP1 PUSH1 0x24 ADD PUSH1 0x20 PUSH1 0x40 MLOAD DUP1 DUP4 SUB DUP2 DUP7 GAS STATICCALL ISZERO DUP1 ISZERO PUSH2 0x1148 JUMPI RETURNDATASIZE PUSH1 0x0 DUP1 RETURNDATACOPY RETURNDATASIZE PUSH1 0x0 REVERT JUMPDEST POP POP POP POP PUSH1 0x40 MLOAD RETURNDATASIZE PUSH1 0x1F NOT PUSH1 0x1F DUP3 ADD AND DUP3 ADD DUP1 PUSH1 0x40 MSTORE POP DUP2 ADD SWAP1 PUSH2 0x116C SWAP2 SWAP1 PUSH2 0x1634 JUMP JUMPDEST PUSH2 0x1176 SWAP2 SWAP1 PUSH2 0x16BE JUMP JUMPDEST LT ISZERO PUSH2 0x11DF JUMPI PUSH1 0x40 MLOAD PUSH3 0x461BCD PUSH1 0xE5 SHL DUP2 MSTORE PUSH1 0x20 PUSH1 0x4 DUP3 ADD MSTORE PUSH1 0x32 PUSH1 0x24 DUP3 ADD MSTORE PUSH32 0x43616E6E6F7420776974686472617720636F6C6C61746572616C206265666F72 PUSH1 0x44 DUP3 ADD MSTORE PUSH18 0x32903830BCB4B733903130B1B5903637B0B7 PUSH1 0x71 SHL PUSH1 0x64 DUP3 ADD MSTORE PUSH1 0x84 ADD PUSH2 0x6DA JUMP JUMPDEST PUSH1 0x2 SLOAD PUSH1 0x40 MLOAD PUSH4 0x4755EA7F PUSH1 0xE1 SHL DUP2 MSTORE CALLER PUSH1 0x4 DUP3 ADD MSTORE PUSH1 0x1 PUSH1 0x1 PUSH1 0xA0 SHL SUB DUP6 DUP2 AND PUSH1 0x24 DUP4 ADD MSTORE PUSH1 0x44 DUP3 ADD DUP6 SWAP1 MSTORE DUP4 ISZERO ISZERO PUSH1 0x64 DUP4 ADD MSTORE SWAP1 SWAP2 AND SWAP1 PUSH4 0x8EABD4FE SWAP1 PUSH1 0x84 ADD PUSH1 0x20 PUSH1 0x40 MLOAD DUP1 DUP4 SUB DUP2 PUSH1 0x0 DUP8 GAS CALL ISZERO DUP1 ISZERO PUSH2 0x1240 JUMPI RETURNDATASIZE PUSH1 0x0 DUP1 RETURNDATACOPY RETURNDATASIZE PUSH1 0x0 REVERT JUMPDEST POP POP POP POP PUSH1 0x40 MLOAD RETURNDATASIZE PUSH1 0x1F NOT PUSH1 0x1F DUP3 ADD AND DUP3 ADD DUP1 PUSH1 0x40 MSTORE POP DUP2 ADD SWAP1 PUSH2 0x1264 SWAP2 SWAP1 PUSH2 0x1634 JUMP JUMPDEST POP PUSH1 0x1 DUP2 ISZERO ISZERO EQ ISZERO PUSH2 0x127A JUMPI PUSH2 0x127A DUP3 DUP5 PUSH2 0x884 JUMP JUMPDEST POP POP POP JUMP JUMPDEST PUSH1 0x0 PUSH1 0x4 PUSH1 0x0 SWAP1 SLOAD SWAP1 PUSH2 0x100 EXP SWAP1 DIV PUSH1 0x1 PUSH1 0x1 PUSH1 0xA0 SHL SUB AND PUSH1 0x1 PUSH1 0x1 PUSH1 0xA0 SHL SUB AND PUSH4 0x18160DDD PUSH1 0x40 MLOAD DUP2 PUSH4 0xFFFFFFFF AND PUSH1 0xE0 SHL DUP2 MSTORE PUSH1 0x4 ADD PUSH1 0x20 PUSH1 0x40 MLOAD DUP1 DUP4 SUB DUP2 DUP7 GAS STATICCALL ISZERO DUP1 ISZERO PUSH2 0x47D JUMPI RETURNDATASIZE PUSH1 0x0 DUP1 RETURNDATACOPY RETURNDATASIZE PUSH1 0x0 REVERT JUMPDEST PUSH1 0x1 SLOAD PUSH1 0x40 MLOAD PUSH4 0xF8B2CB4F PUSH1 0xE0 SHL DUP2 MSTORE PUSH1 0x1 PUSH1 0x1 PUSH1 0xA0 SHL SUB DUP4 DUP2 AND PUSH1 0x4 DUP4 ADD MSTORE PUSH1 0x0 SWAP3 AND SWAP1 PUSH4 0xF8B2CB4F SWAP1 PUSH1 0x24 ADD PUSH2 0x3E1 JUMP JUMPDEST PUSH1 0x2 SLOAD PUSH1 0x40 MLOAD PUSH4 0x28D1F893 PUSH1 0xE2 SHL DUP2 MSTORE PUSH1 0x1 PUSH1 0x1 PUSH1 0xA0 SHL SUB DUP4 DUP2 AND PUSH1 0x4 DUP4 ADD MSTORE PUSH1 0x0 SWAP3 AND SWAP1 PUSH4 0xA347E24C SWAP1 PUSH1 0x24 ADD PUSH2 0x3E1 JUMP JUMPDEST PUSH1 0x1 SLOAD PUSH1 0x40 MLOAD PUSH4 0xDE30F97D PUSH1 0xE0 SHL DUP2 MSTORE PUSH1 0x1 PUSH1 0x1 PUSH1 0xA0 SHL SUB DUP4 DUP2 AND PUSH1 0x4 DUP4 ADD MSTORE PUSH1 0x0 SWAP3 AND SWAP1 PUSH4 0xDE30F97D SWAP1 PUSH1 0x24 ADD PUSH2 0x3E1 JUMP JUMPDEST PUSH1 0x1 PUSH1 0x1 PUSH1 0xA0 SHL SUB DUP2 AND PUSH1 0x0 SWAP1 DUP2 MSTORE PUSH1 0x6 PUSH1 0x20 MSTORE PUSH1 0x40 DUP2 KECCAK256 SLOAD DUP2 SWAP1 DUP2 JUMPDEST DUP2 DUP2 PUSH2 0xFFFF AND LT ISZERO PUSH2 0x14E2 JUMPI PUSH1 0x0 DUP1 SLOAD PUSH1 0x1 PUSH1 0x1 PUSH1 0xA0 SHL SUB DUP8 DUP2 AND DUP4 MSTORE PUSH1 0x6 PUSH1 0x20 MSTORE PUSH1 0x40 SWAP1 SWAP3 KECCAK256 DUP1 SLOAD PUSH8 0xDE0B6B3A7640000 SWAP4 SWAP1 SWAP3 AND SWAP2 PUSH4 0x41976E09 SWAP2 SWAP1 PUSH2 0xFFFF DUP7 AND SWAP1 DUP2 LT PUSH2 0x13DC JUMPI PUSH2 0x13DC PUSH2 0x16F7 JUMP JUMPDEST PUSH1 0x0 SWAP2 DUP3 MSTORE PUSH1 0x20 SWAP1 SWAP2 KECCAK256 ADD SLOAD PUSH1 0x40 MLOAD PUSH1 0xE0 DUP4 SWAP1 SHL PUSH1 0x1 PUSH1 0x1 PUSH1 0xE0 SHL SUB NOT AND DUP2 MSTORE PUSH1 0x1 PUSH1 0x1 PUSH1 0xA0 SHL SUB SWAP1 SWAP2 AND PUSH1 0x4 DUP3 ADD MSTORE PUSH1 0x24 ADD PUSH1 0x20 PUSH1 0x40 MLOAD DUP1 DUP4 SUB DUP2 DUP7 GAS STATICCALL ISZERO DUP1 ISZERO PUSH2 0x142C JUMPI RETURNDATASIZE PUSH1 0x0 DUP1 RETURNDATACOPY RETURNDATASIZE PUSH1 0x0 REVERT JUMPDEST POP POP POP POP PUSH1 0x40 MLOAD RETURNDATASIZE PUSH1 0x1F NOT PUSH1 0x1F DUP3 ADD AND DUP3 ADD DUP1 PUSH1 0x40 MSTORE POP DUP2 ADD SWAP1 PUSH2 0x1450 SWAP2 SWAP1 PUSH2 0x1634 JUMP JUMPDEST PUSH1 0x1 PUSH1 0x1 PUSH1 0xA0 SHL SUB DUP8 AND PUSH1 0x0 SWAP1 DUP2 MSTORE PUSH1 0x7 PUSH1 0x20 SWAP1 DUP2 MSTORE PUSH1 0x40 DUP1 DUP4 KECCAK256 PUSH1 0x6 SWAP1 SWAP3 MSTORE DUP3 KECCAK256 DUP1 SLOAD SWAP2 SWAP3 SWAP2 PUSH2 0xFFFF DUP8 AND SWAP1 DUP2 LT PUSH2 0x148B JUMPI PUSH2 0x148B PUSH2 0x16F7 JUMP JUMPDEST PUSH1 0x0 SWAP2 DUP3 MSTORE PUSH1 0x20 DUP1 DUP4 KECCAK256 SWAP1 SWAP2 ADD SLOAD PUSH1 0x1 PUSH1 0x1 PUSH1 0xA0 SHL SUB AND DUP4 MSTORE DUP3 ADD SWAP3 SWAP1 SWAP3 MSTORE PUSH1 0x40 ADD SWAP1 KECCAK256 SLOAD PUSH2 0x14BA SWAP2 SWAP1 PUSH2 0x1663 JUMP JUMPDEST PUSH2 0x14C4 SWAP2 SWAP1 PUSH2 0x16D5 JUMP JUMPDEST PUSH2 0x14CE SWAP1 DUP5 PUSH2 0x1682 JUMP JUMPDEST SWAP3 POP DUP1 PUSH2 0x14DA DUP2 PUSH2 0x170D JUMP JUMPDEST SWAP2 POP POP PUSH2 0x138A JUMP JUMPDEST POP SWAP1 SWAP4 SWAP3 POP POP POP JUMP JUMPDEST DUP1 CALLDATALOAD PUSH1 0x1 PUSH1 0x1 PUSH1 0xA0 SHL SUB DUP2 AND DUP2 EQ PUSH2 0x1502 JUMPI PUSH1 0x0 DUP1 REVERT JUMPDEST SWAP2 SWAP1 POP JUMP JUMPDEST PUSH1 0x0 PUSH1 0x20 DUP3 DUP5 SUB SLT ISZERO PUSH2 0x1519 JUMPI PUSH1 0x0 DUP1 REVERT JUMPDEST PUSH2 0x1522 DUP3 PUSH2 0x14EB JUMP JUMPDEST SWAP4 SWAP3 POP POP POP JUMP JUMPDEST PUSH1 0x0 DUP1 PUSH1 0x0 DUP1 PUSH1 0x80 DUP6 DUP8 SUB SLT ISZERO PUSH2 0x153F JUMPI PUSH1 0x0 DUP1 REVERT JUMPDEST DUP5 CALLDATALOAD SWAP4 POP PUSH2 0x154F PUSH1 0x20 DUP7 ADD PUSH2 0x14EB JUMP JUMPDEST SWAP3 POP PUSH1 0x40 DUP6 ADD CALLDATALOAD SWAP2 POP PUSH2 0x1564 PUSH1 0x60 DUP7 ADD PUSH2 0x14EB JUMP JUMPDEST SWAP1 POP SWAP3 SWAP6 SWAP2 SWAP5 POP SWAP3 POP JUMP JUMPDEST PUSH1 0x0 DUP1 PUSH1 0x40 DUP4 DUP6 SUB SLT ISZERO PUSH2 0x1582 JUMPI PUSH1 0x0 DUP1 REVERT JUMPDEST DUP3 CALLDATALOAD SWAP2 POP PUSH2 0x1592 PUSH1 0x20 DUP5 ADD PUSH2 0x14EB JUMP JUMPDEST SWAP1 POP SWAP3 POP SWAP3 SWAP1 POP JUMP JUMPDEST PUSH1 0x0 DUP1 PUSH1 0x40 DUP4 DUP6 SUB SLT ISZERO PUSH2 0x15AE JUMPI PUSH1 0x0 DUP1 REVERT JUMPDEST PUSH2 0x15B7 DUP4 PUSH2 0x14EB JUMP JUMPDEST SWAP5 PUSH1 0x20 SWAP4 SWAP1 SWAP4 ADD CALLDATALOAD SWAP4 POP POP POP JUMP JUMPDEST PUSH1 0x0 DUP1 PUSH1 0x40 DUP4 DUP6 SUB SLT ISZERO PUSH2 0x15D8 JUMPI PUSH1 0x0 DUP1 REVERT JUMPDEST PUSH2 0x15E1 DUP4 PUSH2 0x14EB JUMP JUMPDEST SWAP2 POP PUSH2 0x1592 PUSH1 0x20 DUP5 ADD PUSH2 0x14EB JUMP JUMPDEST PUSH1 0x0 DUP1 PUSH1 0x0 PUSH1 0x60 DUP5 DUP7 SUB SLT ISZERO PUSH2 0x1604 JUMPI PUSH1 0x0 DUP1 REVERT JUMPDEST PUSH2 0x160D DUP5 PUSH2 0x14EB JUMP JUMPDEST SWAP3 POP PUSH1 0x20 DUP5 ADD CALLDATALOAD SWAP2 POP PUSH1 0x40 DUP5 ADD CALLDATALOAD DUP1 ISZERO ISZERO DUP2 EQ PUSH2 0x1629 JUMPI PUSH1 0x0 DUP1 REVERT JUMPDEST DUP1 SWAP2 POP POP SWAP3 POP SWAP3 POP SWAP3 JUMP JUMPDEST PUSH1 0x0 PUSH1 0x20 DUP3 DUP5 SUB SLT ISZERO PUSH2 0x1646 JUMPI PUSH1 0x0 DUP1 REVERT JUMPDEST POP MLOAD SWAP2 SWAP1 POP JUMP JUMPDEST PUSH4 0x4E487B71 PUSH1 0xE0 SHL PUSH1 0x0 MSTORE PUSH1 0x11 PUSH1 0x4 MSTORE PUSH1 0x24 PUSH1 0x0 REVERT JUMPDEST PUSH1 0x0 DUP2 PUSH1 0x0 NOT DIV DUP4 GT DUP3 ISZERO ISZERO AND ISZERO PUSH2 0x167D JUMPI PUSH2 0x167D PUSH2 0x164D JUMP JUMPDEST POP MUL SWAP1 JUMP JUMPDEST PUSH1 0x0 DUP3 NOT DUP3 GT ISZERO PUSH2 0x1695 JUMPI PUSH2 0x1695 PUSH2 0x164D JUMP JUMPDEST POP ADD SWAP1 JUMP JUMPDEST PUSH1 0x1 PUSH1 0x1 PUSH1 0xA0 SHL SUB SWAP4 DUP5 AND DUP2 MSTORE SWAP2 SWAP1 SWAP3 AND PUSH1 0x20 DUP3 ADD MSTORE PUSH1 0x40 DUP2 ADD SWAP2 SWAP1 SWAP2 MSTORE PUSH1 0x60 ADD SWAP1 JUMP JUMPDEST PUSH1 0x0 DUP3 DUP3 LT ISZERO PUSH2 0x16D0 JUMPI PUSH2 0x16D0 PUSH2 0x164D JUMP JUMPDEST POP SUB SWAP1 JUMP JUMPDEST PUSH1 0x0 DUP3 PUSH2 0x16F2 JUMPI PUSH4 0x4E487B71 PUSH1 0xE0 SHL PUSH1 0x0 MSTORE PUSH1 0x12 PUSH1 0x4 MSTORE PUSH1 0x24 PUSH1 0x0 REVERT JUMPDEST POP DIV SWAP1 JUMP JUMPDEST PUSH4 0x4E487B71 PUSH1 0xE0 SHL PUSH1 0x0 MSTORE PUSH1 0x32 PUSH1 0x4 MSTORE PUSH1 0x24 PUSH1 0x0 REVERT JUMPDEST PUSH1 0x0 PUSH2 0xFFFF DUP1 DUP4 AND DUP2 DUP2 EQ ISZERO PUSH2 0x1725 JUMPI PUSH2 0x1725 PUSH2 0x164D JUMP JUMPDEST PUSH1 0x1 ADD SWAP4 SWAP3 POP POP POP JUMP INVALID LOG2 PUSH5 0x6970667358 0x22 SLT KECCAK256 BLOCKHASH PUSH16 0x9B0713E7570472812EABA26EB7FBDD6B 0xCA PUSH6 0x761158929708 DUP3 LOG2 0xBA 0xB2 SWAP11 PUSH26 0x64736F6C634300080B0033000000000000000000000000000000 ","sha1":"899c9da25601eae4d9500003d8bd5fa340f26a9d","source":"// SPDX-License-Identifier: MIT\n\npragma solidity ^0.8.0;\n\nimport \"@openzeppelin/contracts/utils/math/SafeMath.sol\";\nimport \"@openzeppelin/contracts/token/ERC20/IERC20.sol\";\nimport \"./2_Pool.sol\";\nimport \"./3_Collateral.sol\";\nimport \"./LVRToken.sol\";\nimport \"./Conversion.sol\";\n\ncontract LendingPool {\n    using SafeMath for uint256;\n    Conversion public conversion;\n    //uint256 public collReq = 2;\n\n    event depositEvent(address _user, uint256 _quantity, address _asset);\n    event borrowEvent(\n        address _user,\n        uint256 _borrowed,\n        address _borrowedAsset,\n        uint256 _collateral,\n        address _collateralAsset\n    );\n\n    //public keyword??\n    Pool public pool;\n    Collateral public collateral;\n    address owner;\n    LVRToken public token;\n    // mapping of userAddress to mapping(collatContractAddress -> struct(amount borrowed, time since borrow))\n    // right now only mapping to amount borrowed and in what currency\n\n    mapping(address => mapping(address => uint256)) userColl;\n\n    //array to track what asset addresses user depositied as collateral\n    //mapping to map user to thier array\n    //address[] public addresses;\n    mapping(address => address[]) userBorrowCurrencies;\n    mapping(address => mapping(address => uint256)) public borrowTracker; // check if needed same type of thing in collateral\n\n    constructor() {\n        pool = new Pool();\n        token = new LVRToken(\"TestToken\", \"TST\", address(pool));\n        collateral = new Collateral(address(pool), address(token));\n        conversion = new Conversion();\n        owner = msg.sender;\n    }\n\n    modifier onlyOwner() {\n        require(msg.sender == owner);\n        _;\n    }\n\n    function Deposit(uint256 _quantity, address _asset) public {\n        // uint256 _borrowNow? why not bool?\n        require(_quantity > 0, \"deposit must be positive\");\n        token.mint(msg.sender, _quantity, _asset);\n        pool.depositTransfer(msg.sender, _asset, _quantity);\n\n        // // borrowNow should be amount borrowed\n        // if (_borrowNow > 0) {\n        //     uint256 usedCollateral = _quantity - collateral.collReq()*_borrowNow;\n        //     Borrow(_borrowNow, address)\n        // }\n\n        //emit depositEvent(msg.sender, _quantity, _asset);\n    }\n\n    function Withdraw(address _desiredAsset, uint256 _amountToRemove) public {\n        uint256 assetPriceUSD = conversion.getPrice(_desiredAsset);\n\n        //check if enough liquid to send\n        require(\n            _amountToRemove <= pool.getLiquidQuantity(_desiredAsset),\n            \"User cannot redeem more than the available balance\"\n        ); // future this will only check to see if we have any liquid - engine will swap currencies to allow user to withdraw anything they want.\n\n        // total value of currency redeemable by user\n        uint256 totalAssetValueFromOwnedTokens = ((token.balanceOf(msg.sender) *\n            token.tokenDollarValue()) / assetPriceUSD); // Units: N token * USD/token / USD/currency = N currency\n\n        // check that the user is allowed to redeem the amount\n        // seems to be some precision errors\n        require(\n            (totalAssetValueFromOwnedTokens >= _amountToRemove),\n            \"Cannot redeem more tokens than number owned\"\n        );\n\n        uint256 burnNumber = ((assetPriceUSD * _amountToRemove) /\n            token.tokenDollarValue()); // Units: USD/currecny * N currency / (USD/token) = N token\n\n        pool.withdrawTransfer(msg.sender, _desiredAsset, _amountToRemove);\n        token.burn(msg.sender, burnNumber);\n    }\n\n    //this will have to also transfer LVR if they wont to borrow against that.\n    // what about choosing collateral to borrrow against.\n    function Borrow(\n        uint256 _borrowQuantity,\n        address _asset,\n        uint256 _collateralQuantity,\n        address _collateral\n    ) public {\n        // check if deposited collateral + outstanding collateral is enough to cover thier borrow request\n        uint256 usdCollateralValue = (conversion.getPrice(_collateral) *\n            _collateralQuantity) + collateral.collateralValue(msg.sender);\n        uint256 usdBorrowValue = conversion.getPrice(_asset) * _borrowQuantity;\n\n        require(\n            usdCollateralValue >= usdBorrowValue * collateral.collReq(),\n            \"not enough collateral\"\n        );\n        collateral.depositCollateral(\n            msg.sender,\n            _collateral,\n            _collateralQuantity\n        );\n        pool.borrowTransfer(msg.sender, _asset, _borrowQuantity);\n\n        emit borrowEvent(\n            msg.sender,\n            _borrowQuantity,\n            _asset,\n            _collateralQuantity,\n            _collateral\n        );\n        // ledger here or in Pool contract?? there is one in collat, so maybe here just track amount borrowed\n        borrowTracker[msg.sender][_asset] += _borrowQuantity;\n        userBorrowCurrencies[msg.sender].push(_asset);\n    }\n\n    // User repays loan by specifying the asset they are giving back and how much\n    function Repay(address _asset, uint256 _repayQuantity) public {\n        //cant return more than borrowed\n        require(\n            borrowTracker[msg.sender][_asset] >= _repayQuantity,\n            \"Returned more than borrowed\"\n        );\n\n        pool.depositTransfer(msg.sender, _asset, _repayQuantity);\n        //Then keep track of how much they ow and subtract that from collateral return?\n\n        /*\nhow lending works: \n-repaying loan involves returning borrowed asset quantity\n-interest still needs to be figured out; \n    -interst valued in USD and translated to coin?\n    -percent of coin borrowed?\n-paying interest will be keeping a piece of thier collat\n-paying out to lenders will involve minting LVR and giving them lvr while adding asset to pool\n\n*/\n\n        borrowTracker[msg.sender][_asset] -= _repayQuantity;\n        if (borrowTracker[msg.sender][_asset] == 0) {\n            delete borrowTracker[msg.sender][_asset];\n        }\n    }\n\n    function unlockCollateral(\n        address _asset,\n        uint256 _quantity,\n        bool _toPool\n    ) public {\n        //check if they have loan value less than collat value/collatQtyReq\n        require(\n            (collateral.collateralValue(msg.sender) -\n                (conversion.getPrice(_asset) * _quantity)) >=\n                collateral.collReq() * totalValueBorrowed(msg.sender),\n            \"Cannot withdraw collateral before paying back loan\"\n        );\n\n        //integrate fees here- trasnfer collateral minus how much they owe us\n\n        collateral.removeCollateral(msg.sender, _asset, _quantity, _toPool);\n        if (_toPool == true) {\n            Deposit(_quantity, _asset); // will this use msg.sender? or do we need to add a parameter\n        }\n    }\n\n    function totalValueBorrowed(address _borrower)\n        public\n        view\n        returns (uint256)\n    {\n        uint256 totalBorrowValue = 0;\n\n        // make this less bits?\n        uint256 numberAddresses = userBorrowCurrencies[_borrower].length;\n        //loop to calculate the value of the pool liquid + borrowed\n        for (uint16 i = 0; i < numberAddresses; i++) {\n            totalBorrowValue =\n                totalBorrowValue +\n                ((borrowTracker[_borrower][userBorrowCurrencies[_borrower][i]] *\n                    conversion.getPrice(userBorrowCurrencies[_borrower][i])) /\n                    (1 * 10**18));\n        }\n\n        return totalBorrowValue;\n\n        //userBorrowCurrencies[msg.sender]\n    }\n\n    // need a ledger of lender tokens so that we can track how much interst hey shoudl get and if they trade away a\n    //  few tokens we dont pay 100% interst, but if they burn them we tske them off thier ledger\n\n    function offerCollateralAssets() public {\n        // just needs to check with the pool to see what assets we can offer\n        //users to use as collateral - called when borrowing (if they deposit\n        //LVR and want to use something else)\n        // to do this we probably need to come up with some reserve rules, etc\n    }\n\n    function getLiquidity(address _token) public view returns (uint256) {\n        return pool.getLiquidQuantity(_token);\n    }\n\n    function getPoolBalance(address _token) public view returns (uint256) {\n        return pool.getBalance(_token);\n    }\n\n    function getLiquidPct(address _token) public view returns (uint256) {\n        return pool.getLiquidPct(_token);\n    }\n\n    function getLockedCollateral(address _token) public view returns (uint256) {\n        return collateral.getCollateralQuantity(_token);\n    }\n\n    function getCollBalance(address _token) public view returns (uint256) {\n        return collateral.getBalance(_token);\n    }\n\n    function getPoolAddr() public view returns (address) {\n        return address(pool);\n    }\n\n    function getCollAddr() public view returns (address) {\n        return address(collateral);\n    }\n\n    function getTokenAddr() public view returns (address) {\n        return address(token);\n    }\n\n    function getTokenDollarValue() public view returns (uint256) {\n        return token.tokenDollarValue();\n    }\n\n    function getPoolValue() public view returns (uint256) {\n        return token.totalPoolValue();\n    }\n\n    function getTotalSupply() public view returns (uint256) {\n        return token.totalSupply();\n    }\n\n    function getBalanceOf(address user) public view returns (uint256) {\n        return token.balanceOf(user);\n    }\n\n    function getCollateralValue(address user) public view returns (uint256) {\n        return collateral.collateralValue(user);\n    }\n\n    function getOutstandingLoan(address user, address _asset)\n        public\n        view\n        returns (uint256)\n    {\n        return borrowTracker[user][_asset];\n    }\n}\n","sourcePath":"contracts/1_LendingPool.sol","deployment":{"address":"0xf6Beb9e0EB2d3A08Fb8609A240067B7749efA8c1","chainid":"4","blockHeight":10100220}}