{
  "abi": [
    {
      "inputs": [],
      "stateMutability": "nonpayable",
      "type": "constructor"
    },
    {
      "inputs": [
        {
          "internalType": "address",
          "name": "tokenContractAddress",
          "type": "address"
        }
      ],
      "name": "getPrice",
      "outputs": [
        {
          "internalType": "uint256",
          "name": "",
          "type": "uint256"
        }
      ],
      "stateMutability": "view",
      "type": "function"
    },
    {
      "inputs": [
        {
          "internalType": "address",
          "name": "",
          "type": "address"
        }
      ],
      "name": "priceFeedMap",
      "outputs": [
        {
          "internalType": "address",
          "name": "",
          "type": "address"
        }
      ],
      "stateMutability": "view",
      "type": "function"
    }
  ],
  "bytecode": "608060405234801561001057600080fd5b50600060208190527f4e2753d238f0f4cb8962490717ab551b4c023808c7bc37aed6e8760bfc3a92d580546001600160a01b031990811673d8bd0a1cb028a31aa859a21a3758685a95de4623179091557ff4e9730789baae4355b7b087afa1a57a24c222e690ce50ce909b525e8495925b80548216732ba49aaa16e6afd2a993473cfb70fa8559b523cf17905573c778417e063141139fce010982780140aa0cd5ab9091527f02e9d230142cd2a2518ca1eebf58e2b95f971add66b06973a2b3e55bb9e440f98054909116738a753747a1fa494ec906ce90e9f37563a8af630e1790556102b1806101026000396000f3fe608060405234801561001057600080fd5b50600436106100365760003560e01c806341976e091461003b5780634238dc4714610061575b600080fd5b61004e610049366004610141565b6100a2565b6040519081526020015b60405180910390f35b61008a61006f366004610141565b6000602081905290815260409020546001600160a01b031681565b6040516001600160a01b039091168152602001610058565b6001600160a01b03808216600090815260208190526040808220548151633fabe5a360e21b81529151929316918391839163feaf968c9160048082019260a0929091908290030181865afa1580156100fe573d6000803e3d6000fd5b505050506040513d601f19601f820116820180604052508101906101229190610190565b505050915050806402540be40061013991906101f6565b949350505050565b60006020828403121561015357600080fd5b81356001600160a01b038116811461016a57600080fd5b9392505050565b805169ffffffffffffffffffff8116811461018b57600080fd5b919050565b600080600080600060a086880312156101a857600080fd5b6101b186610171565b94506020860151935060408601519250606086015191506101d460808701610171565b90509295509295909350565b634e487b7160e01b600052601160045260246000fd5b60006001600160ff1b038184138284138082168684048611161561021c5761021c6101e0565b600160ff1b600087128281168783058912161561023b5761023b6101e0565b60008712925087820587128484161615610257576102576101e0565b8785058712818416161561026d5761026d6101e0565b50505092909302939250505056fea2646970667358221220252d112ad534c9e6173bd045f01bdfee65c192da7f6350a7d0593122a8644b0e64736f6c634300080b0033",
  "bytecodeSha1": "c211de3d75c35a5e6eb8cead1a570f5ae8a7f89b",
  "compiler": {
    "evm_version": "istanbul",
    "optimizer": {
      "enabled": true,
      "runs": 200
    },
    "version": "0.8.11+commit.d7f03943"
  },
  "contractName": "Conversion",
  "language": "Solidity",
  "natspec": {
    "kind": "dev",
    "methods": {
      "getPrice(address)": {
        "notice": "calculate USD value of a token",
        "params": {
          "tokenContractAddress": "token to be determined in USD"
        }
      }
    },
    "version": 1
  },
  "opcodes": "PUSH1 0x80 PUSH1 0x40 MSTORE CALLVALUE DUP1 ISZERO PUSH2 0x10 JUMPI PUSH1 0x0 DUP1 REVERT JUMPDEST POP PUSH1 0x4 CALLDATASIZE LT PUSH2 0x36 JUMPI PUSH1 0x0 CALLDATALOAD PUSH1 0xE0 SHR DUP1 PUSH4 0x41976E09 EQ PUSH2 0x3B JUMPI DUP1 PUSH4 0x4238DC47 EQ PUSH2 0x61 JUMPI JUMPDEST PUSH1 0x0 DUP1 REVERT JUMPDEST PUSH2 0x4E PUSH2 0x49 CALLDATASIZE PUSH1 0x4 PUSH2 0x141 JUMP JUMPDEST PUSH2 0xA2 JUMP JUMPDEST PUSH1 0x40 MLOAD SWAP1 DUP2 MSTORE PUSH1 0x20 ADD JUMPDEST PUSH1 0x40 MLOAD DUP1 SWAP2 SUB SWAP1 RETURN JUMPDEST PUSH2 0x8A PUSH2 0x6F CALLDATASIZE PUSH1 0x4 PUSH2 0x141 JUMP JUMPDEST PUSH1 0x0 PUSH1 0x20 DUP2 SWAP1 MSTORE SWAP1 DUP2 MSTORE PUSH1 0x40 SWAP1 KECCAK256 SLOAD PUSH1 0x1 PUSH1 0x1 PUSH1 0xA0 SHL SUB AND DUP2 JUMP JUMPDEST PUSH1 0x40 MLOAD PUSH1 0x1 PUSH1 0x1 PUSH1 0xA0 SHL SUB SWAP1 SWAP2 AND DUP2 MSTORE PUSH1 0x20 ADD PUSH2 0x58 JUMP JUMPDEST PUSH1 0x1 PUSH1 0x1 PUSH1 0xA0 SHL SUB DUP1 DUP3 AND PUSH1 0x0 SWAP1 DUP2 MSTORE PUSH1 0x20 DUP2 SWAP1 MSTORE PUSH1 0x40 DUP1 DUP3 KECCAK256 SLOAD DUP2 MLOAD PUSH4 0x3FABE5A3 PUSH1 0xE2 SHL DUP2 MSTORE SWAP2 MLOAD SWAP3 SWAP4 AND SWAP2 DUP4 SWAP2 DUP4 SWAP2 PUSH4 0xFEAF968C SWAP2 PUSH1 0x4 DUP1 DUP3 ADD SWAP3 PUSH1 0xA0 SWAP3 SWAP1 SWAP2 SWAP1 DUP3 SWAP1 SUB ADD DUP2 DUP7 GAS STATICCALL ISZERO DUP1 ISZERO PUSH2 0xFE JUMPI RETURNDATASIZE PUSH1 0x0 DUP1 RETURNDATACOPY RETURNDATASIZE PUSH1 0x0 REVERT JUMPDEST POP POP POP POP PUSH1 0x40 MLOAD RETURNDATASIZE PUSH1 0x1F NOT PUSH1 0x1F DUP3 ADD AND DUP3 ADD DUP1 PUSH1 0x40 MSTORE POP DUP2 ADD SWAP1 PUSH2 0x122 SWAP2 SWAP1 PUSH2 0x190 JUMP JUMPDEST POP POP POP SWAP2 POP POP DUP1 PUSH5 0x2540BE400 PUSH2 0x139 SWAP2 SWAP1 PUSH2 0x1F6 JUMP JUMPDEST SWAP5 SWAP4 POP POP POP POP JUMP JUMPDEST PUSH1 0x0 PUSH1 0x20 DUP3 DUP5 SUB SLT ISZERO PUSH2 0x153 JUMPI PUSH1 0x0 DUP1 REVERT JUMPDEST DUP2 CALLDATALOAD PUSH1 0x1 PUSH1 0x1 PUSH1 0xA0 SHL SUB DUP2 AND DUP2 EQ PUSH2 0x16A JUMPI PUSH1 0x0 DUP1 REVERT JUMPDEST SWAP4 SWAP3 POP POP POP JUMP JUMPDEST DUP1 MLOAD PUSH10 0xFFFFFFFFFFFFFFFFFFFF DUP2 AND DUP2 EQ PUSH2 0x18B JUMPI PUSH1 0x0 DUP1 REVERT JUMPDEST SWAP2 SWAP1 POP JUMP JUMPDEST PUSH1 0x0 DUP1 PUSH1 0x0 DUP1 PUSH1 0x0 PUSH1 0xA0 DUP7 DUP9 SUB SLT ISZERO PUSH2 0x1A8 JUMPI PUSH1 0x0 DUP1 REVERT JUMPDEST PUSH2 0x1B1 DUP7 PUSH2 0x171 JUMP JUMPDEST SWAP5 POP PUSH1 0x20 DUP7 ADD MLOAD SWAP4 POP PUSH1 0x40 DUP7 ADD MLOAD SWAP3 POP PUSH1 0x60 DUP7 ADD MLOAD SWAP2 POP PUSH2 0x1D4 PUSH1 0x80 DUP8 ADD PUSH2 0x171 JUMP JUMPDEST SWAP1 POP SWAP3 SWAP6 POP SWAP3 SWAP6 SWAP1 SWAP4 POP JUMP JUMPDEST PUSH4 0x4E487B71 PUSH1 0xE0 SHL PUSH1 0x0 MSTORE PUSH1 0x11 PUSH1 0x4 MSTORE PUSH1 0x24 PUSH1 0x0 REVERT JUMPDEST PUSH1 0x0 PUSH1 0x1 PUSH1 0x1 PUSH1 0xFF SHL SUB DUP2 DUP5 SGT DUP3 DUP5 SGT DUP1 DUP3 AND DUP7 DUP5 DIV DUP7 GT AND ISZERO PUSH2 0x21C JUMPI PUSH2 0x21C PUSH2 0x1E0 JUMP JUMPDEST PUSH1 0x1 PUSH1 0xFF SHL PUSH1 0x0 DUP8 SLT DUP3 DUP2 AND DUP8 DUP4 SDIV DUP10 SLT AND ISZERO PUSH2 0x23B JUMPI PUSH2 0x23B PUSH2 0x1E0 JUMP JUMPDEST PUSH1 0x0 DUP8 SLT SWAP3 POP DUP8 DUP3 SDIV DUP8 SLT DUP5 DUP5 AND AND ISZERO PUSH2 0x257 JUMPI PUSH2 0x257 PUSH2 0x1E0 JUMP JUMPDEST DUP8 DUP6 SDIV DUP8 SLT DUP2 DUP5 AND AND ISZERO PUSH2 0x26D JUMPI PUSH2 0x26D PUSH2 0x1E0 JUMP JUMPDEST POP POP POP SWAP3 SWAP1 SWAP4 MUL SWAP4 SWAP3 POP POP POP JUMP INVALID LOG2 PUSH5 0x6970667358 0x22 SLT KECCAK256 0x25 0x2D GT 0x2A 0xD5 CALLVALUE 0xC9 0xE6 OR EXTCODESIZE 0xD0 GASLIMIT CREATE SHL 0xDF 0xEE PUSH6 0xC192DA7F6350 0xA7 0xD0 MSIZE BALANCE 0x22 0xA8 PUSH5 0x4B0E64736F PUSH13 0x634300080B0033000000000000 ",
  "sha1": "2e4fade0dc3bb4885ad2bc2848e2f2e5a2798289",
  "source": "// SPDX-License-Identifier: MIT\n\npragma solidity ^0.8.0;\n\n// Get the latest ___/USD price from chainlink price feed\nimport \"@chainlink/contracts/src/v0.8/interfaces/AggregatorV3Interface.sol\";\nimport \"@openzeppelin/contracts/utils/math/SafeMath.sol\";\n\ncontract Conversion {\n    mapping(address => address) public priceFeedMap;\n\n    /*\n     *rinkeby LINK contract location: 0x01BE23585060835E02B77ef475b0Cc51aA1e0709\n     *rinkeby DAI  contract location: 0x5592EC0cfb4dbc12D3aB100b257153436a1f0FEa\n     *rinkeby WETH contract location: 0xc778417E063141139Fce010982780140Aa0cD5Ab\n     */\n\n    constructor() {\n        //rinkeby addresses\n        // priceFeedMap[\"eth\"] = 0x8A753747A1Fa494EC906cE90E9f37563A8AF630e;\n        // priceFeedMap[\"dai\"] = 0x2bA49Aaa16E6afD2a993473cfB70Fa8559B523cF;\n        // priceFeedMap[\"atom\"] = 0x3539F2E214d8BC7E611056383323aC6D1b01943c;\n        // priceFeedMap[\"ltc\"] = 0x4d38a35C2D87976F334c2d2379b535F1D461D9B4;\n        // priceFeedMap[\"link\"] = 0xd8bD0a1cB028a31AA859A21A3758685a95dE4623;\n        // priceFeedMap[\"matic\"] = 0x7794ee502922e2b723432DDD852B3C30A911F021;\n        // priceFeedMap[\"btc\"] = 0xECe365B379E1dD183B20fc5f022230C044d51404;\n        // priceFeedMap[\"usdc\"] = 0xa24de01df22b63d23Ebc1882a5E3d4ec0d907bFB;\n        // priceFeedMap[\"xrp\"] = 0xc3E76f41CAbA4aB38F00c7255d4df663DA02A024;\n\n        //rinkeby addresses using token contract addresses\n        // should have all possible tokens even if they are not yet supported\n        priceFeedMap[\n            0x01BE23585060835E02B77ef475b0Cc51aA1e0709\n        ] = 0xd8bD0a1cB028a31AA859A21A3758685a95dE4623; //LINK\n        priceFeedMap[\n            0x5592EC0cfb4dbc12D3aB100b257153436a1f0FEa\n        ] = 0x2bA49Aaa16E6afD2a993473cfB70Fa8559B523cF; //DAI\n        priceFeedMap[\n            0xc778417E063141139Fce010982780140Aa0cD5Ab\n        ] = 0x8A753747A1Fa494EC906cE90E9f37563A8AF630e; //WETH\n    }\n\n    // safe math library check uint256 for integer overflows\n    using SafeMath for uint256;\n\n    /// @notice calculate USD value of a token\n    /// @param tokenContractAddress token to be determined in USD\n    function getPrice(address tokenContractAddress)\n        public\n        view\n        returns (uint256)\n    {\n        AggregatorV3Interface priceFeed = AggregatorV3Interface(\n            priceFeedMap[tokenContractAddress]\n        );\n        (, int256 answer, , , ) = priceFeed.latestRoundData();\n        // ___/USD rate in 18 digit\n        return uint256(answer * 10000000000);\n    }\n}\n",
  "sourcePath": "contracts/Conversion.sol",
  "type": "contract"
}