{
  "abi": [
    {
      "inputs": [],
      "stateMutability": "nonpayable",
      "type": "constructor"
    },
    {
      "anonymous": false,
      "inputs": [
        {
          "indexed": true,
          "internalType": "bytes32",
          "name": "role",
          "type": "bytes32"
        },
        {
          "indexed": true,
          "internalType": "bytes32",
          "name": "previousAdminRole",
          "type": "bytes32"
        },
        {
          "indexed": true,
          "internalType": "bytes32",
          "name": "newAdminRole",
          "type": "bytes32"
        }
      ],
      "name": "RoleAdminChanged",
      "type": "event"
    },
    {
      "anonymous": false,
      "inputs": [
        {
          "indexed": true,
          "internalType": "bytes32",
          "name": "role",
          "type": "bytes32"
        },
        {
          "indexed": true,
          "internalType": "address",
          "name": "account",
          "type": "address"
        },
        {
          "indexed": true,
          "internalType": "address",
          "name": "sender",
          "type": "address"
        }
      ],
      "name": "RoleGranted",
      "type": "event"
    },
    {
      "anonymous": false,
      "inputs": [
        {
          "indexed": true,
          "internalType": "bytes32",
          "name": "role",
          "type": "bytes32"
        },
        {
          "indexed": true,
          "internalType": "address",
          "name": "account",
          "type": "address"
        },
        {
          "indexed": true,
          "internalType": "address",
          "name": "sender",
          "type": "address"
        }
      ],
      "name": "RoleRevoked",
      "type": "event"
    },
    {
      "anonymous": false,
      "inputs": [
        {
          "indexed": false,
          "internalType": "address",
          "name": "_from",
          "type": "address"
        },
        {
          "indexed": false,
          "internalType": "address",
          "name": "_to",
          "type": "address"
        },
        {
          "indexed": false,
          "internalType": "address",
          "name": "_asset",
          "type": "address"
        },
        {
          "indexed": false,
          "internalType": "uint256",
          "name": "_quantity",
          "type": "uint256"
        }
      ],
      "name": "poolTransferEvent",
      "type": "event"
    },
    {
      "inputs": [],
      "name": "ADMIN_ROLE",
      "outputs": [
        {
          "internalType": "bytes32",
          "name": "",
          "type": "bytes32"
        }
      ],
      "stateMutability": "view",
      "type": "function"
    },
    {
      "inputs": [],
      "name": "DAI",
      "outputs": [
        {
          "internalType": "address",
          "name": "",
          "type": "address"
        }
      ],
      "stateMutability": "view",
      "type": "function"
    },
    {
      "inputs": [],
      "name": "DEFAULT_ADMIN_ROLE",
      "outputs": [
        {
          "internalType": "bytes32",
          "name": "",
          "type": "bytes32"
        }
      ],
      "stateMutability": "view",
      "type": "function"
    },
    {
      "inputs": [
        {
          "internalType": "address",
          "name": "_asset",
          "type": "address"
        },
        {
          "internalType": "uint256",
          "name": "timeOfLastTransaction",
          "type": "uint256"
        }
      ],
      "name": "InterestRate",
      "outputs": [
        {
          "internalType": "uint256",
          "name": "",
          "type": "uint256"
        }
      ],
      "stateMutability": "view",
      "type": "function"
    },
    {
      "inputs": [],
      "name": "LINK",
      "outputs": [
        {
          "internalType": "address",
          "name": "",
          "type": "address"
        }
      ],
      "stateMutability": "view",
      "type": "function"
    },
    {
      "inputs": [],
      "name": "WETH",
      "outputs": [
        {
          "internalType": "address",
          "name": "",
          "type": "address"
        }
      ],
      "stateMutability": "view",
      "type": "function"
    },
    {
      "inputs": [
        {
          "internalType": "address",
          "name": "newOwner",
          "type": "address"
        }
      ],
      "name": "addOwner",
      "outputs": [],
      "stateMutability": "nonpayable",
      "type": "function"
    },
    {
      "inputs": [
        {
          "internalType": "address",
          "name": "_assetContractAddress",
          "type": "address"
        }
      ],
      "name": "addSupportedAsset",
      "outputs": [],
      "stateMutability": "nonpayable",
      "type": "function"
    },
    {
      "inputs": [
        {
          "internalType": "address",
          "name": "_asset",
          "type": "address"
        }
      ],
      "name": "annualBorrowInterestRate",
      "outputs": [
        {
          "internalType": "uint256",
          "name": "",
          "type": "uint256"
        }
      ],
      "stateMutability": "view",
      "type": "function"
    },
    {
      "inputs": [
        {
          "internalType": "address",
          "name": "_asset",
          "type": "address"
        },
        {
          "internalType": "uint256",
          "name": "timeOfLastTransaction",
          "type": "uint256"
        }
      ],
      "name": "annualLendInterestRate",
      "outputs": [
        {
          "internalType": "uint256",
          "name": "",
          "type": "uint256"
        }
      ],
      "stateMutability": "view",
      "type": "function"
    },
    {
      "inputs": [],
      "name": "assetsSupported",
      "outputs": [
        {
          "internalType": "address[]",
          "name": "",
          "type": "address[]"
        }
      ],
      "stateMutability": "view",
      "type": "function"
    },
    {
      "inputs": [
        {
          "internalType": "address",
          "name": "_asset",
          "type": "address"
        }
      ],
      "name": "balanceReserves",
      "outputs": [],
      "stateMutability": "nonpayable",
      "type": "function"
    },
    {
      "inputs": [
        {
          "internalType": "address",
          "name": "_borrower",
          "type": "address"
        },
        {
          "internalType": "address",
          "name": "_asset",
          "type": "address"
        },
        {
          "internalType": "uint256",
          "name": "_quantity",
          "type": "uint256"
        }
      ],
      "name": "borrowTransfer",
      "outputs": [],
      "stateMutability": "nonpayable",
      "type": "function"
    },
    {
      "inputs": [
        {
          "internalType": "address",
          "name": "_owner",
          "type": "address"
        },
        {
          "internalType": "address",
          "name": "_asset",
          "type": "address"
        },
        {
          "internalType": "uint256",
          "name": "_quantity",
          "type": "uint256"
        }
      ],
      "name": "depositTransfer",
      "outputs": [],
      "stateMutability": "nonpayable",
      "type": "function"
    },
    {
      "inputs": [
        {
          "internalType": "address",
          "name": "_assetAddress",
          "type": "address"
        }
      ],
      "name": "getBalance",
      "outputs": [
        {
          "internalType": "uint256",
          "name": "",
          "type": "uint256"
        }
      ],
      "stateMutability": "view",
      "type": "function"
    },
    {
      "inputs": [
        {
          "internalType": "address",
          "name": "_asset",
          "type": "address"
        }
      ],
      "name": "getBorrowQuantity",
      "outputs": [
        {
          "internalType": "uint256",
          "name": "",
          "type": "uint256"
        }
      ],
      "stateMutability": "view",
      "type": "function"
    },
    {
      "inputs": [
        {
          "internalType": "address",
          "name": "_asset",
          "type": "address"
        }
      ],
      "name": "getInterestQuantity",
      "outputs": [
        {
          "internalType": "uint256",
          "name": "",
          "type": "uint256"
        }
      ],
      "stateMutability": "view",
      "type": "function"
    },
    {
      "inputs": [
        {
          "internalType": "address",
          "name": "_asset",
          "type": "address"
        }
      ],
      "name": "getLiquidPct",
      "outputs": [
        {
          "internalType": "uint256",
          "name": "",
          "type": "uint256"
        }
      ],
      "stateMutability": "view",
      "type": "function"
    },
    {
      "inputs": [
        {
          "internalType": "address",
          "name": "_asset",
          "type": "address"
        }
      ],
      "name": "getLiquidQuantity",
      "outputs": [
        {
          "internalType": "uint256",
          "name": "",
          "type": "uint256"
        }
      ],
      "stateMutability": "view",
      "type": "function"
    },
    {
      "inputs": [
        {
          "internalType": "address",
          "name": "_asset",
          "type": "address"
        }
      ],
      "name": "getReserveQuantity",
      "outputs": [
        {
          "internalType": "uint256",
          "name": "",
          "type": "uint256"
        }
      ],
      "stateMutability": "view",
      "type": "function"
    },
    {
      "inputs": [
        {
          "internalType": "bytes32",
          "name": "role",
          "type": "bytes32"
        }
      ],
      "name": "getRoleAdmin",
      "outputs": [
        {
          "internalType": "bytes32",
          "name": "",
          "type": "bytes32"
        }
      ],
      "stateMutability": "view",
      "type": "function"
    },
    {
      "inputs": [
        {
          "internalType": "bytes32",
          "name": "role",
          "type": "bytes32"
        },
        {
          "internalType": "uint256",
          "name": "index",
          "type": "uint256"
        }
      ],
      "name": "getRoleMember",
      "outputs": [
        {
          "internalType": "address",
          "name": "",
          "type": "address"
        }
      ],
      "stateMutability": "view",
      "type": "function"
    },
    {
      "inputs": [
        {
          "internalType": "bytes32",
          "name": "role",
          "type": "bytes32"
        }
      ],
      "name": "getRoleMemberCount",
      "outputs": [
        {
          "internalType": "uint256",
          "name": "",
          "type": "uint256"
        }
      ],
      "stateMutability": "view",
      "type": "function"
    },
    {
      "inputs": [
        {
          "internalType": "uint256",
          "name": "oldTimeStamp",
          "type": "uint256"
        }
      ],
      "name": "getTimeDelta",
      "outputs": [
        {
          "internalType": "uint256",
          "name": "",
          "type": "uint256"
        }
      ],
      "stateMutability": "view",
      "type": "function"
    },
    {
      "inputs": [
        {
          "internalType": "address",
          "name": "_asset",
          "type": "address"
        }
      ],
      "name": "getTotalLend",
      "outputs": [
        {
          "internalType": "uint256",
          "name": "",
          "type": "uint256"
        }
      ],
      "stateMutability": "view",
      "type": "function"
    },
    {
      "inputs": [],
      "name": "getTotalPool",
      "outputs": [
        {
          "internalType": "uint256",
          "name": "",
          "type": "uint256"
        }
      ],
      "stateMutability": "view",
      "type": "function"
    },
    {
      "inputs": [],
      "name": "getWithdrawableUSD",
      "outputs": [
        {
          "internalType": "uint256",
          "name": "",
          "type": "uint256"
        }
      ],
      "stateMutability": "view",
      "type": "function"
    },
    {
      "inputs": [
        {
          "internalType": "bytes32",
          "name": "role",
          "type": "bytes32"
        },
        {
          "internalType": "address",
          "name": "account",
          "type": "address"
        }
      ],
      "name": "grantRole",
      "outputs": [],
      "stateMutability": "nonpayable",
      "type": "function"
    },
    {
      "inputs": [
        {
          "internalType": "bytes32",
          "name": "role",
          "type": "bytes32"
        },
        {
          "internalType": "address",
          "name": "account",
          "type": "address"
        }
      ],
      "name": "hasRole",
      "outputs": [
        {
          "internalType": "bool",
          "name": "",
          "type": "bool"
        }
      ],
      "stateMutability": "view",
      "type": "function"
    },
    {
      "inputs": [
        {
          "internalType": "address",
          "name": "_asset",
          "type": "address"
        },
        {
          "internalType": "uint256",
          "name": "_quantity",
          "type": "uint256"
        }
      ],
      "name": "recieveDefaultCollateral",
      "outputs": [],
      "stateMutability": "nonpayable",
      "type": "function"
    },
    {
      "inputs": [
        {
          "internalType": "bytes32",
          "name": "role",
          "type": "bytes32"
        },
        {
          "internalType": "address",
          "name": "account",
          "type": "address"
        }
      ],
      "name": "renounceRole",
      "outputs": [],
      "stateMutability": "nonpayable",
      "type": "function"
    },
    {
      "inputs": [
        {
          "internalType": "address",
          "name": "_owner",
          "type": "address"
        },
        {
          "internalType": "address",
          "name": "_asset",
          "type": "address"
        },
        {
          "internalType": "uint256",
          "name": "_quantity",
          "type": "uint256"
        },
        {
          "internalType": "uint256",
          "name": "_principalPortion",
          "type": "uint256"
        },
        {
          "internalType": "uint256",
          "name": "_interestPortion",
          "type": "uint256"
        }
      ],
      "name": "repayTransfer",
      "outputs": [],
      "stateMutability": "nonpayable",
      "type": "function"
    },
    {
      "inputs": [
        {
          "internalType": "address",
          "name": "_asset",
          "type": "address"
        },
        {
          "internalType": "uint256",
          "name": "_quantity",
          "type": "uint256"
        }
      ],
      "name": "replenishPoolOnDefault",
      "outputs": [],
      "stateMutability": "nonpayable",
      "type": "function"
    },
    {
      "inputs": [
        {
          "internalType": "address",
          "name": "_user",
          "type": "address"
        },
        {
          "internalType": "address",
          "name": "_asset",
          "type": "address"
        },
        {
          "internalType": "uint256",
          "name": "_quantity",
          "type": "uint256"
        }
      ],
      "name": "reserveWithdrawTransfer",
      "outputs": [],
      "stateMutability": "nonpayable",
      "type": "function"
    },
    {
      "inputs": [
        {
          "internalType": "address",
          "name": "_asset",
          "type": "address"
        }
      ],
      "name": "resetInterest",
      "outputs": [],
      "stateMutability": "nonpayable",
      "type": "function"
    },
    {
      "inputs": [
        {
          "internalType": "bytes32",
          "name": "role",
          "type": "bytes32"
        },
        {
          "internalType": "address",
          "name": "account",
          "type": "address"
        }
      ],
      "name": "revokeRole",
      "outputs": [],
      "stateMutability": "nonpayable",
      "type": "function"
    },
    {
      "inputs": [
        {
          "internalType": "bytes4",
          "name": "interfaceId",
          "type": "bytes4"
        }
      ],
      "name": "supportsInterface",
      "outputs": [
        {
          "internalType": "bool",
          "name": "",
          "type": "bool"
        }
      ],
      "stateMutability": "view",
      "type": "function"
    },
    {
      "inputs": [
        {
          "internalType": "address",
          "name": "_asset",
          "type": "address"
        }
      ],
      "name": "totalInterest",
      "outputs": [
        {
          "internalType": "uint256",
          "name": "",
          "type": "uint256"
        }
      ],
      "stateMutability": "view",
      "type": "function"
    },
    {
      "inputs": [
        {
          "internalType": "address",
          "name": "contractOwner",
          "type": "address"
        }
      ],
      "name": "transferFees",
      "outputs": [],
      "stateMutability": "nonpayable",
      "type": "function"
    },
    {
      "inputs": [
        {
          "internalType": "address",
          "name": "_asset",
          "type": "address"
        },
        {
          "internalType": "uint256",
          "name": "_quantity",
          "type": "uint256"
        }
      ],
      "name": "uniswapRebalanceInteraction",
      "outputs": [
        {
          "internalType": "uint256",
          "name": "",
          "type": "uint256"
        }
      ],
      "stateMutability": "nonpayable",
      "type": "function"
    },
    {
      "inputs": [
        {
          "internalType": "address",
          "name": "_user",
          "type": "address"
        },
        {
          "internalType": "address",
          "name": "_asset",
          "type": "address"
        },
        {
          "internalType": "uint256",
          "name": "_quantity",
          "type": "uint256"
        }
      ],
      "name": "withdrawTransfer",
      "outputs": [],
      "stateMutability": "nonpayable",
      "type": "function"
    }
  ],
  "bytecode": "60806040523480156200001157600080fd5b5060408051608080820183526000808352602080840182815284860183815260608087018581527301be23585060835e02b77ef475b0cc51aa1e0709808752600280875298517fed3674b09469bf4c18c58b5c17b6619c2db43f90b5389a6501b1af546f40b64a5593517fed3674b09469bf4c18c58b5c17b6619c2db43f90b5389a6501b1af546f40b64b5591517fed3674b09469bf4c18c58b5c17b6619c2db43f90b5389a6501b1af546f40b64c5590517fed3674b09469bf4c18c58b5c17b6619c2db43f90b5389a6501b1af546f40b64d5560038054600181810183557fc2575a0e9e593c00f959f8c92f12db2869c3395a3b0502d05e2516446f71f85b91820180546001600160a01b0319908116909617905589518089018b52878152808701888152818c018981528287018a8152735592ec0cfb4dbc12d3ab100b257153436a1f0fea808c528d8b5293517f350e7dc47375535dbbaa844f05f768ffe58fc0c7f59c294c184aa966f4bac71a5591517f350e7dc47375535dbbaa844f05f768ffe58fc0c7f59c294c184aa966f4bac71b55517f350e7dc47375535dbbaa844f05f768ffe58fc0c7f59c294c184aa966f4bac71c55517f350e7dc47375535dbbaa844f05f768ffe58fc0c7f59c294c184aa966f4bac71d5583548083018555830180548716909117905589519788018a52868852878601878152888b0188815294890188815273c778417e063141139fce010982780140aa0cd5ab808a529a90975297517f1a4e087dbd68c74cb0888bc0d429e64857661530ba71b8a04d03d6e54890a9a75596517f1a4e087dbd68c74cb0888bc0d429e64857661530ba71b8a04d03d6e54890a9a85591517f1a4e087dbd68c74cb0888bc0d429e64857661530ba71b8a04d03d6e54890a9a95592517f1a4e087dbd68c74cb0888bc0d429e64857661530ba71b8a04d03d6e54890a9aa558254948501835591909252919091018054909116909117905551620002eb9062000516565b604051809103906000f08015801562000308573d6000803e3d6000fd5b50600580546001600160a01b0319166001600160a01b0392909216919091179055604051620003379062000524565b604051809103906000f08015801562000354573d6000803e3d6000fd5b50600680546001600160a01b0319166001600160a01b03929092169190911790556200039060008051602062003e8383398151915233620003b1565b620003ab60008051602062003e8383398151915230620003b1565b62000532565b620003bd8282620003c1565b5050565b620003d882826200040460201b620020f51760201c565b6000828152600160209081526040909120620003ff91839062002179620004a4821b17901c565b505050565b6000828152602081815260408083206001600160a01b038516845290915290205460ff16620003bd576000828152602081815260408083206001600160a01b03851684529091529020805460ff19166001179055620004603390565b6001600160a01b0316816001600160a01b0316837f2f8788117e7eff1d82e926ec794901d17c78024a50270940304540a733656f0d60405160405180910390a45050565b6000620004bb836001600160a01b038416620004c4565b90505b92915050565b60008181526001830160205260408120546200050d57508154600181810184556000848152602080822090930184905584548482528286019093526040902091909155620004be565b506000620004be565b6103b3806200310983390190565b6109c780620034bc83390190565b612bc780620005426000396000f3fe608060405234801561001057600080fd5b50600436106102535760003560e01c8063995e995b11610146578063d01902ba116100c3578063e4ebd60111610087578063e4ebd6011461056d578063f8b2cb4f14610582578063fac09e8714610595578063fc4f78b9146105a8578063fcbfc2c8146105bb578063fce3e8e7146105ce57600080fd5b8063d01902ba146104ec578063d547741f14610519578063de30f97d1461052c578063dea448191461053f578063e0bab4c41461055257600080fd5b8063bd4b002e1161010a578063bd4b002e146104a0578063c0d7eec114610384578063c891fa60146104b3578063ca15c873146104c6578063cc4251e6146104d957600080fd5b8063995e995b14610444578063a150fb5f14610457578063a217fddf1461046a578063ad5c464814610472578063bb7d28d81461048d57600080fd5b80635c88f5a5116101d45780637e6e1dd9116101985780637e6e1dd9146103f05780639010d07c14610403578063901e0dea1461041657806391cfa1861461042957806391d148541461043157600080fd5b80635c88f5a51461038457806363dc4ef5146103ad5780637065cb48146103c057806375b238fc146103d357806375f4d677146103e857600080fd5b80632e81d95e1161021b5780632e81d95e1461030c5780632f2ff15d1461031f57806330e311a11461033257806336568abe1461035e5780634ee13c8e1461037157600080fd5b806301ffc9a7146102585780631481169c146102805780631b6b6d23146102a157806323d0aab1146102d4578063248a9ca3146102e9575b600080fd5b61026b61026636600461262f565b6105fa565b60405190151581526020015b60405180910390f35b61029361028e366004612670565b610625565b604051908152602001610277565b6102bc7301be23585060835e02b77ef475b0cc51aa1e070981565b6040516001600160a01b039091168152602001610277565b6102e76102e2366004612670565b6106a1565b005b6102936102f736600461268b565b60009081526020819052604090206001015490565b6102e761031a3660046126a4565b61072d565b6102e761032d3660046126e0565b6108b7565b610293610340366004612670565b6001600160a01b031660009081526002602052604090206003015490565b6102e761036c3660046126e0565b6108e2565b6102e761037f36600461270c565b610960565b610293610392366004612670565b6001600160a01b031660009081526002602052604090205490565b6102e76103bb366004612670565b610ae6565b6102e76103ce366004612670565b610c8d565b610293600080516020612b7283398151915281565b610293610cdc565b6102e76103fe366004612670565b610e0d565b6102bc610411366004612759565b611097565b61029361042436600461277b565b6110af565b61029361112f565b61026b61043f3660046126e0565b611247565b6102e76104523660046126a4565b611270565b61029361046536600461268b565b611421565b610293600081565b6102bc73c778417e063141139fce010982780140aa0cd5ab81565b6102e761049b36600461277b565b61142d565b6102e76104ae36600461277b565b611478565b6102936104c136600461277b565b6115d6565b6102936104d436600461268b565b61167b565b6102936104e7366004612670565b611692565b6102936104fa366004612670565b6001600160a01b03166000908152600260208190526040909120015490565b6102e76105273660046126e0565b6116cf565b61029361053a366004612670565b6116f5565b61029361054d36600461277b565b6117b9565b6102bc735592ec0cfb4dbc12d3ab100b257153436a1f0fea81565b610575611d33565b60405161027791906127a5565b610293610590366004612670565b611d95565b6102e76105a3366004612670565b611e00565b6102e76105b63660046126a4565b611ece565b6102e76105c93660046126a4565b611ffa565b6102936105dc366004612670565b6001600160a01b031660009081526002602052604090206001015490565b60006001600160e01b03198216635a05180f60e01b148061061f575061061f8261218e565b92915050565b600080610631836116f5565b61064390670de0b6b3a7640000612808565b905068056bc75e2d631000006ec097ce7bc90715b34b9f100000000061066a600484612903565b6106749190612912565b61067f906008612934565b6106899190612912565b61069a9066354a6ba7a18000612953565b9392505050565b6106b9600080516020612b7283398151915233611247565b6106de5760405162461bcd60e51b81526004016106d59061296b565b60405180910390fd5b6001600160a01b03811660009081526002602052604081208054600190910180549192909161070e908490612953565b90915550506001600160a01b0316600090815260026020526040812055565b610745600080516020612b7283398151915233611247565b6107615760405162461bcd60e51b81526004016106d59061296b565b6040516323b872dd60e01b81526001600160a01b038481166004830152306024830152604482018390528316906323b872dd906064016020604051808303816000875af11580156107b6573d6000803e3d6000fd5b505050506040513d601f19601f820116820180604052508101906107da9190612999565b50670de0b6b3a76400006107f682670b1a2bc2ec500000612934565b6108009190612912565b6001600160a01b0383166000908152600260205260408120600101805490919061082b908490612953565b90915550670de0b6b3a7640000905061084c826702c68af0bb140000612934565b6108569190612912565b6001600160a01b03831660009081526002602052604081206003018054909190610881908490612953565b9091555050604051600080516020612b52833981519152906108aa9085903090869086906129bb565b60405180910390a1505050565b6000828152602081905260409020600101546108d381336121c3565b6108dd8383612227565b505050565b6001600160a01b03811633146109525760405162461bcd60e51b815260206004820152602f60248201527f416363657373436f6e74726f6c3a2063616e206f6e6c792072656e6f756e636560448201526e103937b632b9903337b91039b2b63360891b60648201526084016106d5565b61095c8282612249565b5050565b610978600080516020612b7283398151915233611247565b6109945760405162461bcd60e51b81526004016106d59061296b565b6040516323b872dd60e01b81526001600160a01b038681166004830152306024830152604482018590528516906323b872dd906064016020604051808303816000875af11580156109e9573d6000803e3d6000fd5b505050506040513d601f19601f82011682018060405250810190610a0d9190612999565b506001600160a01b03841660009081526002602052604081206001018054849290610a39908490612953565b90915550506001600160a01b03841660009081526002602081905260408220018054849290610a69908490612808565b90915550600a9050610a7c826009612934565b610a869190612912565b6001600160a01b03851660009081526002602052604081208054909190610aae908490612953565b9091555050604051600080516020612b5283398151915290610ad79087903090889088906129bb565b60405180910390a15050505050565b610afe600080516020612b7283398151915233611247565b610b1a5760405162461bcd60e51b81526004016106d59061296b565b60035460005b818161ffff1610156108dd57600060038261ffff1681548110610b4557610b456129e5565b60009182526020808320909101546001600160a01b0316808352600290915260408220805460038201546001929092015492945091610b849190612953565b610b8e9190612953565b6040516370a0823160e01b81523060048201526001600160a01b038416906370a0823190602401602060405180830381865afa158015610bd2573d6000803e3d6000fd5b505050506040513d601f19601f82011682018060405250810190610bf691906129fb565b610c009190612808565b60405163a9059cbb60e01b81526001600160a01b038781166004830152602482018390529192509083169063a9059cbb906044016020604051808303816000875af1158015610c53573d6000803e3d6000fd5b505050506040513d601f19601f82011682018060405250810190610c779190612999565b5050508080610c8590612a14565b915050610b20565b610ca5600080516020612b7283398151915233611247565b610cc15760405162461bcd60e51b81526004016106d59061296b565b610cd9600080516020612b728339815191528261226b565b50565b6003546000908190815b818161ffff161015610e0557600060038261ffff1681548110610d0b57610d0b6129e5565b6000918252602090912001546005546040516341976e0960e01b81526001600160a01b03928316600482018190529350670de0b6b3a764000092909116906341976e0990602401602060405180830381865afa158015610d6f573d6000803e3d6000fd5b505050506040513d601f19601f82011682018060405250810190610d9391906129fb565b6001600160a01b0383166000908152600260208190526040909120600381015491810154600190910154610dc79190612953565b610dd19190612953565b610ddb9190612934565b610de59190612912565b610def9085612953565b9350508080610dfd90612a14565b915050610ce6565b509092915050565b610e25600080516020612b7283398151915233611247565b610e415760405162461bcd60e51b81526004016106d59061296b565b6001600160a01b03811660009081526002602081905260408220908101546003820154600190920154670de0b6b3a764000092610e7d91612953565b610e879190612953565b610e99906702c68af0bb140000612934565b610ea39190612912565b6001600160a01b038316600090815260026020526040902060030154909150811015610f7d576001600160a01b038216600090815260026020526040902060030154610ef0908290612808565b6001600160a01b03831660009081526002602052604081206001018054909190610f1b908490612953565b90915550506001600160a01b038216600090815260026020526040902060030154610f47908290612808565b6001600160a01b03831660009081526002602052604081206003018054909190610f72908490612808565b9091555061095c9050565b6001600160a01b03821660009081526002602052604090206003015481111561095c576001600160a01b038216600090815260026020526040902060030154610fc69082612808565b6001600160a01b0383166000908152600260205260409020600101541061095c576001600160a01b03821660009081526002602052604090206003015461100d9082612808565b6001600160a01b03831660009081526002602052604081206001018054909190611038908490612808565b90915550506001600160a01b0382166000908152600260205260409020600301546110639082612808565b6001600160a01b0383166000908152600260205260408120600301805490919061108e908490612953565b90915550505050565b600082815260016020526040812061069a9083612275565b6001600160a01b0382166000908152600260208190526040822090810154600382015460019092015483926110e391612953565b6110ed9190612953565b6110f685610625565b6001600160a01b0386166000908152600260208190526040909120015461111d9190612934565b6111279190612912565b949350505050565b6003546000908190815b818161ffff161015610e0557600060038261ffff168154811061115e5761115e6129e5565b6000918252602090912001546005546040516341976e0960e01b81526001600160a01b03928316600482018190529350670de0b6b3a764000092909116906341976e0990602401602060405180830381865afa1580156111c2573d6000803e3d6000fd5b505050506040513d601f19601f820116820180604052508101906111e691906129fb565b6001600160a01b038316600090815260026020526040902060038101546001909101546112139190612953565b61121d9190612934565b6112279190612912565b6112319085612953565b935050808061123f90612a14565b915050611139565b6000918252602082815260408084206001600160a01b0393909316845291905290205460ff1690565b611288600080516020612b7283398151915233611247565b6112a45760405162461bcd60e51b81526004016106d59061296b565b6001600160a01b03821660009081526002602052604090206003015481111561132a576001600160a01b0382166000908152600260205260408120600301546112f390849061054d9085612808565b905061130781670de0b6b3a7640000612281565b9050670de0b6b3a764000061131c8284612934565b6113269190612912565b9150505b6001600160a01b038216600090815260026020526040902060030154611351908290612281565b6001600160a01b0383166000908152600260205260408120600301805490919061137c908490612808565b909155505060405163a9059cbb60e01b81526001600160a01b0384811660048301526024820183905283169063a9059cbb906044016020604051808303816000875af11580156113d0573d6000803e3d6000fd5b505050506040513d601f19601f820116820180604052508101906113f49190612999565b506113fe82610e0d565b600080516020612b52833981519152308484846040516108aa94939291906129bb565b600061061f8242612808565b611445600080516020612b7283398151915233611247565b6114615760405162461bcd60e51b81526004016106d59061296b565b606461146e826062612934565b6110639190612912565b611490600080516020612b7283398151915233611247565b6114ac5760405162461bcd60e51b81526004016106d59061296b565b6001600160a01b03821660009081526002602052604090206003015481111561151e576001600160a01b0382166000908152600260205260408120600301546114fb90849061054d9085612808565b9050670de0b6b3a76400006115108284612934565b61151a9190612912565b9150505b6001600160a01b03821660009081526002602052604081206003018054839290611549908490612808565b909155506064905061155c82605f612934565b6115669190612912565b6001600160a01b03831660009081526002602052604081206001018054909190611591908490612953565b90915550606490506115a4826005612934565b6115ae9190612912565b6001600160a01b0383166000908152600260205260408120805490919061108e908490612953565b6000806115e2846116f5565b6115f490670de0b6b3a7640000612808565b905060006116028442612808565b90506301e1855868056bc75e2d631000006ec097ce7bc90715b34b9f100000000061162e600486612903565b6116389190612912565b611643906008612934565b61164d9190612912565b61165e9066354a6ba7a18000612953565b6116689083612934565b6116729190612912565b95945050505050565b600081815260016020526040812061061f9061228d565b6001600160a01b038116600090815260026020819052604082206003810154918101546001909101546116c59190612953565b61061f9190612953565b6000828152602081905260409020600101546116eb81336121c3565b6108dd8383612249565b6001600160a01b03811660009081526002602052604081206001015415158061173957506001600160a01b0382166000908152600260208190526040909120015415155b156117a5576001600160a01b03821660009081526002602081905260409091209081015460019091015461176d9190612953565b6001600160a01b03831660009081526002602052604090206001015461179b90670de0b6b3a7640000612934565b61061f9190612912565b50670de0b6b3a7640000919050565b919050565b60006117d3600080516020612b7283398151915233611247565b6117ef5760405162461bcd60e51b81526004016106d59061296b565b6005546040516341976e0960e01b81526001600160a01b03858116600483015260009216906341976e0990602401602060405180830381865afa15801561183a573d6000803e3d6000fd5b505050506040513d601f19601f8201168201806040525081019061185e91906129fb565b90506000670de0b6b3a76400006118758584612934565b61187f9190612912565b6001600160a01b038616600090815260026020526040812060030154919250906118ea906118ae908590612934565b6118b661112f565b6118c09190612808565b6118d284670de0b6b3a7640000612934565b6118dc9190612912565b670de0b6b3a7640000612281565b90506000805b60035461ffff82161015611c2857600060038261ffff1681548110611917576119176129e5565b60009182526020808320909101546001600160a01b031680835260029091526040822060038101546001919091015491935061195291612953565b90506000670de0b6b3a76400006119698388612934565b6119739190612912565b60065460405163095ea7b360e01b81526001600160a01b0391821660048201526024810183905291925084169063095ea7b3906044016020604051808303816000875af11580156119c8573d6000803e3d6000fd5b505050506040513d601f19601f820116820180604052508101906119ec9190612999565b506001600160a01b038b1673c778417e063141139fce010982780140aa0cd5ab148015611a2b5750826001600160a01b03168b6001600160a01b031614155b8015611a3a5750633b9aca0082115b15611acc57600654604051637017284560e01b81526001600160a01b0385811660048301526024820184905260009216906370172845906044015b6020604051808303816000875af1158015611a94573d6000803e3d6000fd5b505050506040513d601f19601f82011682018060405250810190611ab891906129fb565b9050611ac48187612953565b955050611c12565b6001600160a01b03831673c778417e063141139fce010982780140aa0cd5ab148015611b0a57508a6001600160a01b0316836001600160a01b031614155b8015611b195750633b9aca0082115b15611b5857600654604051637ecd4d6b60e01b8152600481018390526001600160a01b038d811660248301526000921690637ecd4d6b90604401611a75565b8a6001600160a01b0316836001600160a01b031614158015611b7d5750633b9aca0082115b15611c1257600654604051630ea579b160e01b81526001600160a01b038581166004830152602482018490528d811660448301526000921690630ea579b1906064016020604051808303816000875af1158015611bde573d6000803e3d6000fd5b505050506040513d601f19601f82011682018060405250810190611c0291906129fb565b9050611c0e8187612953565b9550505b5050508080611c2090612a14565b9150506118f0565b506001600160a01b038716600090815260026020526040902060010154670de0b6b3a764000090611c5a908490612934565b611c649190612912565b6001600160a01b03881660009081526002602052604081206003018054909190611c8f908490612953565b90915550670de0b6b3a76400009050611ca88382612808565b6001600160a01b038916600090815260026020526040902060010154611cce9190612934565b611cd89190612912565b6001600160a01b0388166000908152600260205260408120600181019290925560039091018054839290611d0d908490612953565b90915550839050611d1e8583612934565b611d289190612912565b979650505050505050565b60606003805480602002602001604051908101604052809291908181526020018280548015611d8b57602002820191906000526020600020905b81546001600160a01b03168152600190910190602001808311611d6d575b5050505050905090565b6040516370a0823160e01b81523060048201526000906001600160a01b038316906370a0823190602401602060405180830381865afa158015611ddc573d6000803e3d6000fd5b505050506040513d601f19601f8201168201806040525081019061061f91906129fb565b611e18600080516020612b7283398151915233611247565b611e345760405162461bcd60e51b81526004016106d59061296b565b6040805160808101825260008082526020808301828152838501838152606085018481526001600160a01b03909716808552600293849052958420945185559051600180860191909155905191840191909155935160039283015581549384018255527fc2575a0e9e593c00f959f8c92f12db2869c3395a3b0502d05e2516446f71f85b90910180546001600160a01b0319169091179055565b611ee6600080516020612b7283398151915233611247565b611f025760405162461bcd60e51b81526004016106d59061296b565b60405163a9059cbb60e01b81526001600160a01b0384811660048301526024820183905283169063a9059cbb906044016020604051808303816000875af1158015611f51573d6000803e3d6000fd5b505050506040513d601f19601f82011682018060405250810190611f759190612999565b506001600160a01b03821660009081526002602052604081206001018054839290611fa1908490612808565b90915550506001600160a01b03821660009081526002602081905260408220018054839290611fd1908490612953565b9091555050604051600080516020612b52833981519152906108aa9030908690869086906129bb565b612012600080516020612b7283398151915233611247565b61202e5760405162461bcd60e51b81526004016106d59061296b565b6001600160a01b03821660009081526002602052604081206001018054839290612059908490612808565b909155505060405163a9059cbb60e01b81526001600160a01b0384811660048301526024820183905283169063a9059cbb906044016020604051808303816000875af11580156120ad573d6000803e3d6000fd5b505050506040513d601f19601f820116820180604052508101906120d19190612999565b50600080516020612b52833981519152308484846040516108aa94939291906129bb565b6120ff8282611247565b61095c576000828152602081815260408083206001600160a01b03851684529091529020805460ff191660011790556121353390565b6001600160a01b0316816001600160a01b0316837f2f8788117e7eff1d82e926ec794901d17c78024a50270940304540a733656f0d60405160405180910390a45050565b600061069a836001600160a01b038416612297565b60006001600160e01b03198216637965db0b60e01b148061061f57506301ffc9a760e01b6001600160e01b031983161461061f565b6121cd8282611247565b61095c576121e5816001600160a01b031660146122e6565b6121f08360206122e6565b604051602001612201929190612a66565b60408051601f198184030181529082905262461bcd60e51b82526106d591600401612adb565b61223182826120f5565b60008281526001602052604090206108dd9082612179565b6122538282612482565b60008281526001602052604090206108dd90826124e7565b61095c8282612227565b600061069a83836124fc565b600061069a8383612526565b600061061f825490565b60008181526001830160205260408120546122de5750815460018181018455600084815260208082209093018490558454848252828601909352604090209190915561061f565b50600061061f565b606060006122f5836002612934565b612300906002612953565b67ffffffffffffffff81111561231857612318612b0e565b6040519080825280601f01601f191660200182016040528015612342576020820181803683370190505b509050600360fc1b8160008151811061235d5761235d6129e5565b60200101906001600160f81b031916908160001a905350600f60fb1b8160018151811061238c5761238c6129e5565b60200101906001600160f81b031916908160001a90535060006123b0846002612934565b6123bb906001612953565b90505b6001811115612433576f181899199a1a9b1b9c1cb0b131b232b360811b85600f16601081106123ef576123ef6129e5565b1a60f81b828281518110612405576124056129e5565b60200101906001600160f81b031916908160001a90535060049490941c9361242c81612b24565b90506123be565b50831561069a5760405162461bcd60e51b815260206004820181905260248201527f537472696e67733a20686578206c656e67746820696e73756666696369656e7460448201526064016106d5565b61248c8282611247565b1561095c576000828152602081815260408083206001600160a01b0385168085529252808320805460ff1916905551339285917ff6391f5c32d9c69d2a47ea670b442974b53935d1edc7fd64eb21e047a839171b9190a45050565b600061069a836001600160a01b03841661253c565b6000826000018281548110612513576125136129e5565b9060005260206000200154905092915050565b6000818310612535578161069a565b5090919050565b60008181526001830160205260408120548015612625576000612560600183612808565b855490915060009061257490600190612808565b90508181146125d9576000866000018281548110612594576125946129e5565b90600052602060002001549050808760000184815481106125b7576125b76129e5565b6000918252602080832090910192909255918252600188019052604090208390555b85548690806125ea576125ea612b3b565b60019003818190600052602060002001600090559055856001016000868152602001908152602001600020600090556001935050505061061f565b600091505061061f565b60006020828403121561264157600080fd5b81356001600160e01b03198116811461069a57600080fd5b80356001600160a01b03811681146117b457600080fd5b60006020828403121561268257600080fd5b61069a82612659565b60006020828403121561269d57600080fd5b5035919050565b6000806000606084860312156126b957600080fd5b6126c284612659565b92506126d060208501612659565b9150604084013590509250925092565b600080604083850312156126f357600080fd5b8235915061270360208401612659565b90509250929050565b600080600080600060a0868803121561272457600080fd5b61272d86612659565b945061273b60208701612659565b94979496505050506040830135926060810135926080909101359150565b6000806040838503121561276c57600080fd5b50508035926020909101359150565b6000806040838503121561278e57600080fd5b61279783612659565b946020939093013593505050565b6020808252825182820181905260009190848201906040850190845b818110156127e65783516001600160a01b0316835292840192918401916001016127c1565b50909695505050505050565b634e487b7160e01b600052601160045260246000fd5b60008282101561281a5761281a6127f2565b500390565b600181815b8085111561285a578160001904821115612840576128406127f2565b8085161561284d57918102915b93841c9390800290612824565b509250929050565b6000826128715750600161061f565b8161287e5750600061061f565b8160018114612894576002811461289e576128ba565b600191505061061f565b60ff8411156128af576128af6127f2565b50506001821b61061f565b5060208310610133831016604e8410600b84101617156128dd575081810a61061f565b6128e7838361281f565b80600019048211156128fb576128fb6127f2565b029392505050565b600061069a60ff841683612862565b60008261292f57634e487b7160e01b600052601260045260246000fd5b500490565b600081600019048311821515161561294e5761294e6127f2565b500290565b60008219821115612966576129666127f2565b500190565b6020808252601490820152736d75737420686176652061646d696e20726f6c6560601b604082015260600190565b6000602082840312156129ab57600080fd5b8151801515811461069a57600080fd5b6001600160a01b039485168152928416602084015292166040820152606081019190915260800190565b634e487b7160e01b600052603260045260246000fd5b600060208284031215612a0d57600080fd5b5051919050565b600061ffff80831681811415612a2c57612a2c6127f2565b6001019392505050565b60005b83811015612a51578181015183820152602001612a39565b83811115612a60576000848401525b50505050565b7f416363657373436f6e74726f6c3a206163636f756e7420000000000000000000815260008351612a9e816017850160208801612a36565b7001034b99036b4b9b9b4b733903937b6329607d1b6017918401918201528351612acf816028840160208801612a36565b01602801949350505050565b6020815260008251806020840152612afa816040850160208701612a36565b601f01601f19169190910160400192915050565b634e487b7160e01b600052604160045260246000fd5b600081612b3357612b336127f2565b506000190190565b634e487b7160e01b600052603160045260246000fdfe724dd111d8b4c66b0043d7e6eb223c3a7567ec1641110e6d5a71cb0dc7ffaf70a49807205ce4d355092ef5a8a18f56e8913cf4a201fbe287825b095693c21775a264697066735822122036a86f6e620d75d834bbdd0e9405fdf859f8ae354ecc7ec4cb941b8b099f551664736f6c634300080b0033608060405234801561001057600080fd5b50600060208190527f4e2753d238f0f4cb8962490717ab551b4c023808c7bc37aed6e8760bfc3a92d580546001600160a01b031990811673d8bd0a1cb028a31aa859a21a3758685a95de4623179091557ff4e9730789baae4355b7b087afa1a57a24c222e690ce50ce909b525e8495925b80548216732ba49aaa16e6afd2a993473cfb70fa8559b523cf17905573c778417e063141139fce010982780140aa0cd5ab9091527f02e9d230142cd2a2518ca1eebf58e2b95f971add66b06973a2b3e55bb9e440f98054909116738a753747a1fa494ec906ce90e9f37563a8af630e1790556102b1806101026000396000f3fe608060405234801561001057600080fd5b50600436106100365760003560e01c806341976e091461003b5780634238dc4714610061575b600080fd5b61004e610049366004610141565b6100a2565b6040519081526020015b60405180910390f35b61008a61006f366004610141565b6000602081905290815260409020546001600160a01b031681565b6040516001600160a01b039091168152602001610058565b6001600160a01b03808216600090815260208190526040808220548151633fabe5a360e21b81529151929316918391839163feaf968c9160048082019260a0929091908290030181865afa1580156100fe573d6000803e3d6000fd5b505050506040513d601f19601f820116820180604052508101906101229190610190565b505050915050806402540be40061013991906101f6565b949350505050565b60006020828403121561015357600080fd5b81356001600160a01b038116811461016a57600080fd5b9392505050565b805169ffffffffffffffffffff8116811461018b57600080fd5b919050565b600080600080600060a086880312156101a857600080fd5b6101b186610171565b94506020860151935060408601519250606086015191506101d460808701610171565b90509295509295909350565b634e487b7160e01b600052601160045260246000fd5b60006001600160ff1b038184138284138082168684048611161561021c5761021c6101e0565b600160ff1b600087128281168783058912161561023b5761023b6101e0565b60008712925087820587128484161615610257576102576101e0565b8785058712818416161561026d5761026d6101e0565b50505092909302939250505056fea2646970667358221220252d112ad534c9e6173bd045f01bdfee65c192da7f6350a7d0593122a8644b0e64736f6c634300080b003360a060405234801561001057600080fd5b5073e592427a0aece92de3edee1f18e0157c0586156460805260805161095961006e600039600081816101490152818161019a01528181610254015281816102f1015281816103800152818161043c01526104cb01526109596000f3fe608060405234801561001057600080fd5b50600436106100885760003560e01c80637ecd4d6b1161005b5780637ecd4d6b14610116578063ad5c464814610129578063c31c9c0714610144578063e0bab4c41461016b57600080fd5b8063089fe6aa1461008d5780630ea579b1146100af5780631b6b6d23146100d05780637017284514610103575b600080fd5b610096610bb881565b60405162ffffff90911681526020015b60405180910390f35b6100c26100bd36600461072b565b610186565b6040519081526020016100a6565b6100eb7301be23585060835e02b77ef475b0cc51aa1e070981565b6040516001600160a01b0390911681526020016100a6565b6100c2610111366004610767565b6102dd565b6100c2610124366004610791565b610400565b6100eb73c778417e063141139fce010982780140aa0cd5ab81565b6100eb7f000000000000000000000000000000000000000000000000000000000000000081565b6100eb735592ec0cfb4dbc12d3ab100b257153436a1f0fea81565b600061019484333086610500565b6101bf847f00000000000000000000000000000000000000000000000000000000000000008561060f565b6040805160a081018252606086811b6bffffffffffffffffffffffff1990811660c084015261017760eb1b60d4840181905273c778417e063141139fce010982780140aa0cd5ab60601b60d785015260eb84015285821b1660ee830152825160e28184030181526101028301845282523360208301524282840152810185905260006080820152905163c04b8d5960e01b81527f00000000000000000000000000000000000000000000000000000000000000006001600160a01b03169063c04b8d59906102919084906004016107ed565b6020604051808303816000875af11580156102b0573d6000803e3d6000fd5b505050506040513d601f19601f820116820180604052508101906102d4919061085c565b95945050505050565b60006102eb83333085610500565b610316837f00000000000000000000000000000000000000000000000000000000000000008461060f565b60408051610100810182526001600160a01b03808616825273c778417e063141139fce010982780140aa0cd5ab6020830152610bb88284015233606083015242608083015260a08201859052600060c0830181905260e0830152915163414bf38960e01b815290917f0000000000000000000000000000000000000000000000000000000000000000169063414bf389906103b5908490600401610875565b6020604051808303816000875af11580156103d4573d6000803e3d6000fd5b505050506040513d601f19601f820116820180604052508101906103f8919061085c565b949350505050565b600061042273c778417e063141139fce010982780140aa0cd5ab333086610500565b61046173c778417e063141139fce010982780140aa0cd5ab7f00000000000000000000000000000000000000000000000000000000000000008561060f565b604080516101008101825273c778417e063141139fce010982780140aa0cd5ab81526001600160a01b038481166020830152610bb88284015233606083015242608083015260a08201869052600060c0830181905260e0830152915163414bf38960e01b815290917f0000000000000000000000000000000000000000000000000000000000000000169063414bf389906103b5908490600401610875565b604080516001600160a01b0385811660248301528481166044830152606480830185905283518084039091018152608490920183526020820180516001600160e01b03166323b872dd60e01b179052915160009283929088169161056491906108de565b6000604051808303816000865af19150503d80600081146105a1576040519150601f19603f3d011682016040523d82523d6000602084013e6105a6565b606091505b50915091508180156105d05750805115806105d05750808060200190518101906105d091906108fa565b6106075760405162461bcd60e51b815260206004820152600360248201526229aa2360e91b60448201526064015b60405180910390fd5b505050505050565b604080516001600160a01b038481166024830152604480830185905283518084039091018152606490920183526020820180516001600160e01b031663095ea7b360e01b179052915160009283929087169161066b91906108de565b6000604051808303816000865af19150503d80600081146106a8576040519150601f19603f3d011682016040523d82523d6000602084013e6106ad565b606091505b50915091508180156106d75750805115806106d75750808060200190518101906106d791906108fa565b6107085760405162461bcd60e51b8152602060048201526002602482015261534160f01b60448201526064016105fe565b5050505050565b80356001600160a01b038116811461072657600080fd5b919050565b60008060006060848603121561074057600080fd5b6107498461070f565b92506020840135915061075e6040850161070f565b90509250925092565b6000806040838503121561077a57600080fd5b6107838361070f565b946020939093013593505050565b600080604083850312156107a457600080fd5b823591506107b46020840161070f565b90509250929050565b60005b838110156107d85781810151838201526020016107c0565b838111156107e7576000848401525b50505050565b602081526000825160a0602084015280518060c08501526108158160e08601602085016107bd565b60018060a01b0360208601511660408501526040850151606085015260608501516080850152608085015160a085015260e0601f19601f8301168501019250505092915050565b60006020828403121561086e57600080fd5b5051919050565b81516001600160a01b03908116825260208084015182169083015260408084015162ffffff16908301526060808401518216908301526080808401519083015260a0838101519083015260c0808401519083015260e09283015116918101919091526101000190565b600082516108f08184602087016107bd565b9190910192915050565b60006020828403121561090c57600080fd5b8151801515811461091c57600080fd5b939250505056fea2646970667358221220ada915f2115d9d080c0e2a789ab9297b634e5ba8e6a51e927fa06420d2d08cb264736f6c634300080b0033a49807205ce4d355092ef5a8a18f56e8913cf4a201fbe287825b095693c21775",
  "bytecodeSha1": "33d488a7faed50f26af364367719d50f90848124",
  "compiler": {
    "evm_version": "istanbul",
    "optimizer": {
      "enabled": true,
      "runs": 200
    },
    "version": "0.8.11+commit.d7f03943"
  },
  "contractName": "Pool",
  "language": "Solidity",
  "natspec": {
    "kind": "dev",
    "methods": {
      "InterestRate(address,uint256)": {
        "notice": "interest using time between each transaction"
      },
      "annualBorrowInterestRate(address)": {
        "notice": "function that shows annual interest rates",
        "params": {
          "_asset": "The asset we want the rate  of"
        }
      },
      "annualLendInterestRate(address,uint256)": {
        "notice": "function that shows annual lend interest rates",
        "params": {
          "_asset": "The asset we want the rate  of"
        }
      },
      "balanceReserves(address)": {
        "notice": "keeps reserves at 20% of total asset pool",
        "params": {
          "_asset": "asset pool to balance"
        }
      },
      "borrowTransfer(address,address,uint256)": {
        "notice": "transfer a loan to a user",
        "params": {
          "_asset": "The asset to be loaned",
          "_borrower": "The address borrowing",
          "_quantity": "The amount of loan to be payed."
        }
      },
      "depositTransfer(address,address,uint256)": {
        "details": "The calling address must approve this contract to spend at least `_quantity` worth of its asset for this function to succeed.",
        "notice": "80% goes to liquidity, 20% goes to reserve",
        "params": {
          "_asset": "The asset to be desposited.",
          "_owner": "The address where asset comes from",
          "_quantity": "The amount of asset to be deposited."
        }
      },
      "getRoleAdmin(bytes32)": {
        "details": "Returns the admin role that controls `role`. See {grantRole} and {revokeRole}. To change a role's admin, use {_setRoleAdmin}."
      },
      "getRoleMember(bytes32,uint256)": {
        "details": "Returns one of the accounts that have `role`. `index` must be a value between 0 and {getRoleMemberCount}, non-inclusive. Role bearers are not sorted in any particular way, and their ordering may change at any point. WARNING: When using {getRoleMember} and {getRoleMemberCount}, make sure you perform all queries on the same block. See the following https://forum.openzeppelin.com/t/iterating-over-elements-on-enumerableset-in-openzeppelin-contracts/2296[forum post] for more information."
      },
      "getRoleMemberCount(bytes32)": {
        "details": "Returns the number of accounts that have `role`. Can be used together with {getRoleMember} to enumerate all bearers of a role."
      },
      "getTotalPool()": {
        "notice": "function that shows total pool USD value"
      },
      "getWithdrawableUSD()": {
        "notice": "function that shows how much assets can be removed in USD"
      },
      "grantRole(bytes32,address)": {
        "details": "Grants `role` to `account`. If `account` had not been already granted `role`, emits a {RoleGranted} event. Requirements: - the caller must have ``role``'s admin role."
      },
      "hasRole(bytes32,address)": {
        "details": "Returns `true` if `account` has been granted `role`."
      },
      "recieveDefaultCollateral(address,uint256)": {
        "notice": "update recieved collateral from collateral contract default"
      },
      "renounceRole(bytes32,address)": {
        "details": "Revokes `role` from the calling account. Roles are often managed via {grantRole} and {revokeRole}: this function's purpose is to provide a mechanism for accounts to lose their privileges if they are compromised (such as when a trusted device is misplaced). If the calling account had been revoked `role`, emits a {RoleRevoked} event. Requirements: - the caller must be `account`."
      },
      "repayTransfer(address,address,uint256,uint256,uint256)": {
        "details": "The calling address must approve this contract to spend at least `_quantity` worth of its asset for this function to succeed.",
        "notice": "repay goes to interest first, then principalfunction receives repayment and updates borrow, liquid , interest amounts",
        "params": {
          "_asset": "The asset loan to be repayed.",
          "_interestPortion": "how much of repayment goes to interest",
          "_owner": "The address where asset comes from",
          "_principalPortion": "how much of repayment goes to principal",
          "_quantity": "The amount of loan to be repayed."
        }
      },
      "replenishPoolOnDefault(address,uint256)": {
        "notice": "if user defaults, need to put interest payment and liquidity back into pool where they took from"
      },
      "reserveWithdrawTransfer(address,address,uint256)": {
        "notice": "In the case of not enough liquidity or user didnt lend asset, user reserve to pay out redeemIf there is not enough in reserve,  swap other assets for desired asset",
        "params": {
          "_asset": "The asset to be redeemed for.",
          "_quantity": "The amount of deposit to be redeemed.",
          "_user": "The address where LEVR comes from"
        }
      },
      "revokeRole(bytes32,address)": {
        "details": "Revokes `role` from `account`. If `account` had been granted `role`, emits a {RoleRevoked} event. Requirements: - the caller must have ``role``'s admin role."
      },
      "supportsInterface(bytes4)": {
        "details": "See {IERC165-supportsInterface}."
      },
      "transferFees(address)": {
        "notice": "transfer fees to owner"
      },
      "uniswapRebalanceInteraction(address,uint256)": {
        "notice": "swap for asset if not enough in contract",
        "params": {
          "_asset": "the asset we want to swap for",
          "_quantity": "amount of _aaset to send for swap"
        }
      },
      "withdrawTransfer(address,address,uint256)": {
        "notice": "pay out an asset when a user redeems LEVR",
        "params": {
          "_asset": "The asset to be redeemed for.",
          "_quantity": "The amount of deposit to be redeemed.",
          "_user": "The address where LEVR comes from"
        }
      }
    },
    "version": 1
  },
  "opcodes": "PUSH1 0x80 PUSH1 0x40 MSTORE CALLVALUE DUP1 ISZERO PUSH2 0x10 JUMPI PUSH1 0x0 DUP1 REVERT JUMPDEST POP PUSH1 0x4 CALLDATASIZE LT PUSH2 0x253 JUMPI PUSH1 0x0 CALLDATALOAD PUSH1 0xE0 SHR DUP1 PUSH4 0x995E995B GT PUSH2 0x146 JUMPI DUP1 PUSH4 0xD01902BA GT PUSH2 0xC3 JUMPI DUP1 PUSH4 0xE4EBD601 GT PUSH2 0x87 JUMPI DUP1 PUSH4 0xE4EBD601 EQ PUSH2 0x56D JUMPI DUP1 PUSH4 0xF8B2CB4F EQ PUSH2 0x582 JUMPI DUP1 PUSH4 0xFAC09E87 EQ PUSH2 0x595 JUMPI DUP1 PUSH4 0xFC4F78B9 EQ PUSH2 0x5A8 JUMPI DUP1 PUSH4 0xFCBFC2C8 EQ PUSH2 0x5BB JUMPI DUP1 PUSH4 0xFCE3E8E7 EQ PUSH2 0x5CE JUMPI PUSH1 0x0 DUP1 REVERT JUMPDEST DUP1 PUSH4 0xD01902BA EQ PUSH2 0x4EC JUMPI DUP1 PUSH4 0xD547741F EQ PUSH2 0x519 JUMPI DUP1 PUSH4 0xDE30F97D EQ PUSH2 0x52C JUMPI DUP1 PUSH4 0xDEA44819 EQ PUSH2 0x53F JUMPI DUP1 PUSH4 0xE0BAB4C4 EQ PUSH2 0x552 JUMPI PUSH1 0x0 DUP1 REVERT JUMPDEST DUP1 PUSH4 0xBD4B002E GT PUSH2 0x10A JUMPI DUP1 PUSH4 0xBD4B002E EQ PUSH2 0x4A0 JUMPI DUP1 PUSH4 0xC0D7EEC1 EQ PUSH2 0x384 JUMPI DUP1 PUSH4 0xC891FA60 EQ PUSH2 0x4B3 JUMPI DUP1 PUSH4 0xCA15C873 EQ PUSH2 0x4C6 JUMPI DUP1 PUSH4 0xCC4251E6 EQ PUSH2 0x4D9 JUMPI PUSH1 0x0 DUP1 REVERT JUMPDEST DUP1 PUSH4 0x995E995B EQ PUSH2 0x444 JUMPI DUP1 PUSH4 0xA150FB5F EQ PUSH2 0x457 JUMPI DUP1 PUSH4 0xA217FDDF EQ PUSH2 0x46A JUMPI DUP1 PUSH4 0xAD5C4648 EQ PUSH2 0x472 JUMPI DUP1 PUSH4 0xBB7D28D8 EQ PUSH2 0x48D JUMPI PUSH1 0x0 DUP1 REVERT JUMPDEST DUP1 PUSH4 0x5C88F5A5 GT PUSH2 0x1D4 JUMPI DUP1 PUSH4 0x7E6E1DD9 GT PUSH2 0x198 JUMPI DUP1 PUSH4 0x7E6E1DD9 EQ PUSH2 0x3F0 JUMPI DUP1 PUSH4 0x9010D07C EQ PUSH2 0x403 JUMPI DUP1 PUSH4 0x901E0DEA EQ PUSH2 0x416 JUMPI DUP1 PUSH4 0x91CFA186 EQ PUSH2 0x429 JUMPI DUP1 PUSH4 0x91D14854 EQ PUSH2 0x431 JUMPI PUSH1 0x0 DUP1 REVERT JUMPDEST DUP1 PUSH4 0x5C88F5A5 EQ PUSH2 0x384 JUMPI DUP1 PUSH4 0x63DC4EF5 EQ PUSH2 0x3AD JUMPI DUP1 PUSH4 0x7065CB48 EQ PUSH2 0x3C0 JUMPI DUP1 PUSH4 0x75B238FC EQ PUSH2 0x3D3 JUMPI DUP1 PUSH4 0x75F4D677 EQ PUSH2 0x3E8 JUMPI PUSH1 0x0 DUP1 REVERT JUMPDEST DUP1 PUSH4 0x2E81D95E GT PUSH2 0x21B JUMPI DUP1 PUSH4 0x2E81D95E EQ PUSH2 0x30C JUMPI DUP1 PUSH4 0x2F2FF15D EQ PUSH2 0x31F JUMPI DUP1 PUSH4 0x30E311A1 EQ PUSH2 0x332 JUMPI DUP1 PUSH4 0x36568ABE EQ PUSH2 0x35E JUMPI DUP1 PUSH4 0x4EE13C8E EQ PUSH2 0x371 JUMPI PUSH1 0x0 DUP1 REVERT JUMPDEST DUP1 PUSH4 0x1FFC9A7 EQ PUSH2 0x258 JUMPI DUP1 PUSH4 0x1481169C EQ PUSH2 0x280 JUMPI DUP1 PUSH4 0x1B6B6D23 EQ PUSH2 0x2A1 JUMPI DUP1 PUSH4 0x23D0AAB1 EQ PUSH2 0x2D4 JUMPI DUP1 PUSH4 0x248A9CA3 EQ PUSH2 0x2E9 JUMPI JUMPDEST PUSH1 0x0 DUP1 REVERT JUMPDEST PUSH2 0x26B PUSH2 0x266 CALLDATASIZE PUSH1 0x4 PUSH2 0x262F JUMP JUMPDEST PUSH2 0x5FA JUMP JUMPDEST PUSH1 0x40 MLOAD SWAP1 ISZERO ISZERO DUP2 MSTORE PUSH1 0x20 ADD JUMPDEST PUSH1 0x40 MLOAD DUP1 SWAP2 SUB SWAP1 RETURN JUMPDEST PUSH2 0x293 PUSH2 0x28E CALLDATASIZE PUSH1 0x4 PUSH2 0x2670 JUMP JUMPDEST PUSH2 0x625 JUMP JUMPDEST PUSH1 0x40 MLOAD SWAP1 DUP2 MSTORE PUSH1 0x20 ADD PUSH2 0x277 JUMP JUMPDEST PUSH2 0x2BC PUSH20 0x1BE23585060835E02B77EF475B0CC51AA1E0709 DUP2 JUMP JUMPDEST PUSH1 0x40 MLOAD PUSH1 0x1 PUSH1 0x1 PUSH1 0xA0 SHL SUB SWAP1 SWAP2 AND DUP2 MSTORE PUSH1 0x20 ADD PUSH2 0x277 JUMP JUMPDEST PUSH2 0x2E7 PUSH2 0x2E2 CALLDATASIZE PUSH1 0x4 PUSH2 0x2670 JUMP JUMPDEST PUSH2 0x6A1 JUMP JUMPDEST STOP JUMPDEST PUSH2 0x293 PUSH2 0x2F7 CALLDATASIZE PUSH1 0x4 PUSH2 0x268B JUMP JUMPDEST PUSH1 0x0 SWAP1 DUP2 MSTORE PUSH1 0x20 DUP2 SWAP1 MSTORE PUSH1 0x40 SWAP1 KECCAK256 PUSH1 0x1 ADD SLOAD SWAP1 JUMP JUMPDEST PUSH2 0x2E7 PUSH2 0x31A CALLDATASIZE PUSH1 0x4 PUSH2 0x26A4 JUMP JUMPDEST PUSH2 0x72D JUMP JUMPDEST PUSH2 0x2E7 PUSH2 0x32D CALLDATASIZE PUSH1 0x4 PUSH2 0x26E0 JUMP JUMPDEST PUSH2 0x8B7 JUMP JUMPDEST PUSH2 0x293 PUSH2 0x340 CALLDATASIZE PUSH1 0x4 PUSH2 0x2670 JUMP JUMPDEST PUSH1 0x1 PUSH1 0x1 PUSH1 0xA0 SHL SUB AND PUSH1 0x0 SWAP1 DUP2 MSTORE PUSH1 0x2 PUSH1 0x20 MSTORE PUSH1 0x40 SWAP1 KECCAK256 PUSH1 0x3 ADD SLOAD SWAP1 JUMP JUMPDEST PUSH2 0x2E7 PUSH2 0x36C CALLDATASIZE PUSH1 0x4 PUSH2 0x26E0 JUMP JUMPDEST PUSH2 0x8E2 JUMP JUMPDEST PUSH2 0x2E7 PUSH2 0x37F CALLDATASIZE PUSH1 0x4 PUSH2 0x270C JUMP JUMPDEST PUSH2 0x960 JUMP JUMPDEST PUSH2 0x293 PUSH2 0x392 CALLDATASIZE PUSH1 0x4 PUSH2 0x2670 JUMP JUMPDEST PUSH1 0x1 PUSH1 0x1 PUSH1 0xA0 SHL SUB AND PUSH1 0x0 SWAP1 DUP2 MSTORE PUSH1 0x2 PUSH1 0x20 MSTORE PUSH1 0x40 SWAP1 KECCAK256 SLOAD SWAP1 JUMP JUMPDEST PUSH2 0x2E7 PUSH2 0x3BB CALLDATASIZE PUSH1 0x4 PUSH2 0x2670 JUMP JUMPDEST PUSH2 0xAE6 JUMP JUMPDEST PUSH2 0x2E7 PUSH2 0x3CE CALLDATASIZE PUSH1 0x4 PUSH2 0x2670 JUMP JUMPDEST PUSH2 0xC8D JUMP JUMPDEST PUSH2 0x293 PUSH1 0x0 DUP1 MLOAD PUSH1 0x20 PUSH2 0x2B72 DUP4 CODECOPY DUP2 MLOAD SWAP2 MSTORE DUP2 JUMP JUMPDEST PUSH2 0x293 PUSH2 0xCDC JUMP JUMPDEST PUSH2 0x2E7 PUSH2 0x3FE CALLDATASIZE PUSH1 0x4 PUSH2 0x2670 JUMP JUMPDEST PUSH2 0xE0D JUMP JUMPDEST PUSH2 0x2BC PUSH2 0x411 CALLDATASIZE PUSH1 0x4 PUSH2 0x2759 JUMP JUMPDEST PUSH2 0x1097 JUMP JUMPDEST PUSH2 0x293 PUSH2 0x424 CALLDATASIZE PUSH1 0x4 PUSH2 0x277B JUMP JUMPDEST PUSH2 0x10AF JUMP JUMPDEST PUSH2 0x293 PUSH2 0x112F JUMP JUMPDEST PUSH2 0x26B PUSH2 0x43F CALLDATASIZE PUSH1 0x4 PUSH2 0x26E0 JUMP JUMPDEST PUSH2 0x1247 JUMP JUMPDEST PUSH2 0x2E7 PUSH2 0x452 CALLDATASIZE PUSH1 0x4 PUSH2 0x26A4 JUMP JUMPDEST PUSH2 0x1270 JUMP JUMPDEST PUSH2 0x293 PUSH2 0x465 CALLDATASIZE PUSH1 0x4 PUSH2 0x268B JUMP JUMPDEST PUSH2 0x1421 JUMP JUMPDEST PUSH2 0x293 PUSH1 0x0 DUP2 JUMP JUMPDEST PUSH2 0x2BC PUSH20 0xC778417E063141139FCE010982780140AA0CD5AB DUP2 JUMP JUMPDEST PUSH2 0x2E7 PUSH2 0x49B CALLDATASIZE PUSH1 0x4 PUSH2 0x277B JUMP JUMPDEST PUSH2 0x142D JUMP JUMPDEST PUSH2 0x2E7 PUSH2 0x4AE CALLDATASIZE PUSH1 0x4 PUSH2 0x277B JUMP JUMPDEST PUSH2 0x1478 JUMP JUMPDEST PUSH2 0x293 PUSH2 0x4C1 CALLDATASIZE PUSH1 0x4 PUSH2 0x277B JUMP JUMPDEST PUSH2 0x15D6 JUMP JUMPDEST PUSH2 0x293 PUSH2 0x4D4 CALLDATASIZE PUSH1 0x4 PUSH2 0x268B JUMP JUMPDEST PUSH2 0x167B JUMP JUMPDEST PUSH2 0x293 PUSH2 0x4E7 CALLDATASIZE PUSH1 0x4 PUSH2 0x2670 JUMP JUMPDEST PUSH2 0x1692 JUMP JUMPDEST PUSH2 0x293 PUSH2 0x4FA CALLDATASIZE PUSH1 0x4 PUSH2 0x2670 JUMP JUMPDEST PUSH1 0x1 PUSH1 0x1 PUSH1 0xA0 SHL SUB AND PUSH1 0x0 SWAP1 DUP2 MSTORE PUSH1 0x2 PUSH1 0x20 DUP2 SWAP1 MSTORE PUSH1 0x40 SWAP1 SWAP2 KECCAK256 ADD SLOAD SWAP1 JUMP JUMPDEST PUSH2 0x2E7 PUSH2 0x527 CALLDATASIZE PUSH1 0x4 PUSH2 0x26E0 JUMP JUMPDEST PUSH2 0x16CF JUMP JUMPDEST PUSH2 0x293 PUSH2 0x53A CALLDATASIZE PUSH1 0x4 PUSH2 0x2670 JUMP JUMPDEST PUSH2 0x16F5 JUMP JUMPDEST PUSH2 0x293 PUSH2 0x54D CALLDATASIZE PUSH1 0x4 PUSH2 0x277B JUMP JUMPDEST PUSH2 0x17B9 JUMP JUMPDEST PUSH2 0x2BC PUSH20 0x5592EC0CFB4DBC12D3AB100B257153436A1F0FEA DUP2 JUMP JUMPDEST PUSH2 0x575 PUSH2 0x1D33 JUMP JUMPDEST PUSH1 0x40 MLOAD PUSH2 0x277 SWAP2 SWAP1 PUSH2 0x27A5 JUMP JUMPDEST PUSH2 0x293 PUSH2 0x590 CALLDATASIZE PUSH1 0x4 PUSH2 0x2670 JUMP JUMPDEST PUSH2 0x1D95 JUMP JUMPDEST PUSH2 0x2E7 PUSH2 0x5A3 CALLDATASIZE PUSH1 0x4 PUSH2 0x2670 JUMP JUMPDEST PUSH2 0x1E00 JUMP JUMPDEST PUSH2 0x2E7 PUSH2 0x5B6 CALLDATASIZE PUSH1 0x4 PUSH2 0x26A4 JUMP JUMPDEST PUSH2 0x1ECE JUMP JUMPDEST PUSH2 0x2E7 PUSH2 0x5C9 CALLDATASIZE PUSH1 0x4 PUSH2 0x26A4 JUMP JUMPDEST PUSH2 0x1FFA JUMP JUMPDEST PUSH2 0x293 PUSH2 0x5DC CALLDATASIZE PUSH1 0x4 PUSH2 0x2670 JUMP JUMPDEST PUSH1 0x1 PUSH1 0x1 PUSH1 0xA0 SHL SUB AND PUSH1 0x0 SWAP1 DUP2 MSTORE PUSH1 0x2 PUSH1 0x20 MSTORE PUSH1 0x40 SWAP1 KECCAK256 PUSH1 0x1 ADD SLOAD SWAP1 JUMP JUMPDEST PUSH1 0x0 PUSH1 0x1 PUSH1 0x1 PUSH1 0xE0 SHL SUB NOT DUP3 AND PUSH4 0x5A05180F PUSH1 0xE0 SHL EQ DUP1 PUSH2 0x61F JUMPI POP PUSH2 0x61F DUP3 PUSH2 0x218E JUMP JUMPDEST SWAP3 SWAP2 POP POP JUMP JUMPDEST PUSH1 0x0 DUP1 PUSH2 0x631 DUP4 PUSH2 0x16F5 JUMP JUMPDEST PUSH2 0x643 SWAP1 PUSH8 0xDE0B6B3A7640000 PUSH2 0x2808 JUMP JUMPDEST SWAP1 POP PUSH9 0x56BC75E2D63100000 PUSH15 0xC097CE7BC90715B34B9F1000000000 PUSH2 0x66A PUSH1 0x4 DUP5 PUSH2 0x2903 JUMP JUMPDEST PUSH2 0x674 SWAP2 SWAP1 PUSH2 0x2912 JUMP JUMPDEST PUSH2 0x67F SWAP1 PUSH1 0x8 PUSH2 0x2934 JUMP JUMPDEST PUSH2 0x689 SWAP2 SWAP1 PUSH2 0x2912 JUMP JUMPDEST PUSH2 0x69A SWAP1 PUSH7 0x354A6BA7A18000 PUSH2 0x2953 JUMP JUMPDEST SWAP4 SWAP3 POP POP POP JUMP JUMPDEST PUSH2 0x6B9 PUSH1 0x0 DUP1 MLOAD PUSH1 0x20 PUSH2 0x2B72 DUP4 CODECOPY DUP2 MLOAD SWAP2 MSTORE CALLER PUSH2 0x1247 JUMP JUMPDEST PUSH2 0x6DE JUMPI PUSH1 0x40 MLOAD PUSH3 0x461BCD PUSH1 0xE5 SHL DUP2 MSTORE PUSH1 0x4 ADD PUSH2 0x6D5 SWAP1 PUSH2 0x296B JUMP JUMPDEST PUSH1 0x40 MLOAD DUP1 SWAP2 SUB SWAP1 REVERT JUMPDEST PUSH1 0x1 PUSH1 0x1 PUSH1 0xA0 SHL SUB DUP2 AND PUSH1 0x0 SWAP1 DUP2 MSTORE PUSH1 0x2 PUSH1 0x20 MSTORE PUSH1 0x40 DUP2 KECCAK256 DUP1 SLOAD PUSH1 0x1 SWAP1 SWAP2 ADD DUP1 SLOAD SWAP2 SWAP3 SWAP1 SWAP2 PUSH2 0x70E SWAP1 DUP5 SWAP1 PUSH2 0x2953 JUMP JUMPDEST SWAP1 SWAP2 SSTORE POP POP PUSH1 0x1 PUSH1 0x1 PUSH1 0xA0 SHL SUB AND PUSH1 0x0 SWAP1 DUP2 MSTORE PUSH1 0x2 PUSH1 0x20 MSTORE PUSH1 0x40 DUP2 KECCAK256 SSTORE JUMP JUMPDEST PUSH2 0x745 PUSH1 0x0 DUP1 MLOAD PUSH1 0x20 PUSH2 0x2B72 DUP4 CODECOPY DUP2 MLOAD SWAP2 MSTORE CALLER PUSH2 0x1247 JUMP JUMPDEST PUSH2 0x761 JUMPI PUSH1 0x40 MLOAD PUSH3 0x461BCD PUSH1 0xE5 SHL DUP2 MSTORE PUSH1 0x4 ADD PUSH2 0x6D5 SWAP1 PUSH2 0x296B JUMP JUMPDEST PUSH1 0x40 MLOAD PUSH4 0x23B872DD PUSH1 0xE0 SHL DUP2 MSTORE PUSH1 0x1 PUSH1 0x1 PUSH1 0xA0 SHL SUB DUP5 DUP2 AND PUSH1 0x4 DUP4 ADD MSTORE ADDRESS PUSH1 0x24 DUP4 ADD MSTORE PUSH1 0x44 DUP3 ADD DUP4 SWAP1 MSTORE DUP4 AND SWAP1 PUSH4 0x23B872DD SWAP1 PUSH1 0x64 ADD PUSH1 0x20 PUSH1 0x40 MLOAD DUP1 DUP4 SUB DUP2 PUSH1 0x0 DUP8 GAS CALL ISZERO DUP1 ISZERO PUSH2 0x7B6 JUMPI RETURNDATASIZE PUSH1 0x0 DUP1 RETURNDATACOPY RETURNDATASIZE PUSH1 0x0 REVERT JUMPDEST POP POP POP POP PUSH1 0x40 MLOAD RETURNDATASIZE PUSH1 0x1F NOT PUSH1 0x1F DUP3 ADD AND DUP3 ADD DUP1 PUSH1 0x40 MSTORE POP DUP2 ADD SWAP1 PUSH2 0x7DA SWAP2 SWAP1 PUSH2 0x2999 JUMP JUMPDEST POP PUSH8 0xDE0B6B3A7640000 PUSH2 0x7F6 DUP3 PUSH8 0xB1A2BC2EC500000 PUSH2 0x2934 JUMP JUMPDEST PUSH2 0x800 SWAP2 SWAP1 PUSH2 0x2912 JUMP JUMPDEST PUSH1 0x1 PUSH1 0x1 PUSH1 0xA0 SHL SUB DUP4 AND PUSH1 0x0 SWAP1 DUP2 MSTORE PUSH1 0x2 PUSH1 0x20 MSTORE PUSH1 0x40 DUP2 KECCAK256 PUSH1 0x1 ADD DUP1 SLOAD SWAP1 SWAP2 SWAP1 PUSH2 0x82B SWAP1 DUP5 SWAP1 PUSH2 0x2953 JUMP JUMPDEST SWAP1 SWAP2 SSTORE POP PUSH8 0xDE0B6B3A7640000 SWAP1 POP PUSH2 0x84C DUP3 PUSH8 0x2C68AF0BB140000 PUSH2 0x2934 JUMP JUMPDEST PUSH2 0x856 SWAP2 SWAP1 PUSH2 0x2912 JUMP JUMPDEST PUSH1 0x1 PUSH1 0x1 PUSH1 0xA0 SHL SUB DUP4 AND PUSH1 0x0 SWAP1 DUP2 MSTORE PUSH1 0x2 PUSH1 0x20 MSTORE PUSH1 0x40 DUP2 KECCAK256 PUSH1 0x3 ADD DUP1 SLOAD SWAP1 SWAP2 SWAP1 PUSH2 0x881 SWAP1 DUP5 SWAP1 PUSH2 0x2953 JUMP JUMPDEST SWAP1 SWAP2 SSTORE POP POP PUSH1 0x40 MLOAD PUSH1 0x0 DUP1 MLOAD PUSH1 0x20 PUSH2 0x2B52 DUP4 CODECOPY DUP2 MLOAD SWAP2 MSTORE SWAP1 PUSH2 0x8AA SWAP1 DUP6 SWAP1 ADDRESS SWAP1 DUP7 SWAP1 DUP7 SWAP1 PUSH2 0x29BB JUMP JUMPDEST PUSH1 0x40 MLOAD DUP1 SWAP2 SUB SWAP1 LOG1 POP POP POP JUMP JUMPDEST PUSH1 0x0 DUP3 DUP2 MSTORE PUSH1 0x20 DUP2 SWAP1 MSTORE PUSH1 0x40 SWAP1 KECCAK256 PUSH1 0x1 ADD SLOAD PUSH2 0x8D3 DUP2 CALLER PUSH2 0x21C3 JUMP JUMPDEST PUSH2 0x8DD DUP4 DUP4 PUSH2 0x2227 JUMP JUMPDEST POP POP POP JUMP JUMPDEST PUSH1 0x1 PUSH1 0x1 PUSH1 0xA0 SHL SUB DUP2 AND CALLER EQ PUSH2 0x952 JUMPI PUSH1 0x40 MLOAD PUSH3 0x461BCD PUSH1 0xE5 SHL DUP2 MSTORE PUSH1 0x20 PUSH1 0x4 DUP3 ADD MSTORE PUSH1 0x2F PUSH1 0x24 DUP3 ADD MSTORE PUSH32 0x416363657373436F6E74726F6C3A2063616E206F6E6C792072656E6F756E6365 PUSH1 0x44 DUP3 ADD MSTORE PUSH15 0x103937B632B9903337B91039B2B633 PUSH1 0x89 SHL PUSH1 0x64 DUP3 ADD MSTORE PUSH1 0x84 ADD PUSH2 0x6D5 JUMP JUMPDEST PUSH2 0x95C DUP3 DUP3 PUSH2 0x2249 JUMP JUMPDEST POP POP JUMP JUMPDEST PUSH2 0x978 PUSH1 0x0 DUP1 MLOAD PUSH1 0x20 PUSH2 0x2B72 DUP4 CODECOPY DUP2 MLOAD SWAP2 MSTORE CALLER PUSH2 0x1247 JUMP JUMPDEST PUSH2 0x994 JUMPI PUSH1 0x40 MLOAD PUSH3 0x461BCD PUSH1 0xE5 SHL DUP2 MSTORE PUSH1 0x4 ADD PUSH2 0x6D5 SWAP1 PUSH2 0x296B JUMP JUMPDEST PUSH1 0x40 MLOAD PUSH4 0x23B872DD PUSH1 0xE0 SHL DUP2 MSTORE PUSH1 0x1 PUSH1 0x1 PUSH1 0xA0 SHL SUB DUP7 DUP2 AND PUSH1 0x4 DUP4 ADD MSTORE ADDRESS PUSH1 0x24 DUP4 ADD MSTORE PUSH1 0x44 DUP3 ADD DUP6 SWAP1 MSTORE DUP6 AND SWAP1 PUSH4 0x23B872DD SWAP1 PUSH1 0x64 ADD PUSH1 0x20 PUSH1 0x40 MLOAD DUP1 DUP4 SUB DUP2 PUSH1 0x0 DUP8 GAS CALL ISZERO DUP1 ISZERO PUSH2 0x9E9 JUMPI RETURNDATASIZE PUSH1 0x0 DUP1 RETURNDATACOPY RETURNDATASIZE PUSH1 0x0 REVERT JUMPDEST POP POP POP POP PUSH1 0x40 MLOAD RETURNDATASIZE PUSH1 0x1F NOT PUSH1 0x1F DUP3 ADD AND DUP3 ADD DUP1 PUSH1 0x40 MSTORE POP DUP2 ADD SWAP1 PUSH2 0xA0D SWAP2 SWAP1 PUSH2 0x2999 JUMP JUMPDEST POP PUSH1 0x1 PUSH1 0x1 PUSH1 0xA0 SHL SUB DUP5 AND PUSH1 0x0 SWAP1 DUP2 MSTORE PUSH1 0x2 PUSH1 0x20 MSTORE PUSH1 0x40 DUP2 KECCAK256 PUSH1 0x1 ADD DUP1 SLOAD DUP5 SWAP3 SWAP1 PUSH2 0xA39 SWAP1 DUP5 SWAP1 PUSH2 0x2953 JUMP JUMPDEST SWAP1 SWAP2 SSTORE POP POP PUSH1 0x1 PUSH1 0x1 PUSH1 0xA0 SHL SUB DUP5 AND PUSH1 0x0 SWAP1 DUP2 MSTORE PUSH1 0x2 PUSH1 0x20 DUP2 SWAP1 MSTORE PUSH1 0x40 DUP3 KECCAK256 ADD DUP1 SLOAD DUP5 SWAP3 SWAP1 PUSH2 0xA69 SWAP1 DUP5 SWAP1 PUSH2 0x2808 JUMP JUMPDEST SWAP1 SWAP2 SSTORE POP PUSH1 0xA SWAP1 POP PUSH2 0xA7C DUP3 PUSH1 0x9 PUSH2 0x2934 JUMP JUMPDEST PUSH2 0xA86 SWAP2 SWAP1 PUSH2 0x2912 JUMP JUMPDEST PUSH1 0x1 PUSH1 0x1 PUSH1 0xA0 SHL SUB DUP6 AND PUSH1 0x0 SWAP1 DUP2 MSTORE PUSH1 0x2 PUSH1 0x20 MSTORE PUSH1 0x40 DUP2 KECCAK256 DUP1 SLOAD SWAP1 SWAP2 SWAP1 PUSH2 0xAAE SWAP1 DUP5 SWAP1 PUSH2 0x2953 JUMP JUMPDEST SWAP1 SWAP2 SSTORE POP POP PUSH1 0x40 MLOAD PUSH1 0x0 DUP1 MLOAD PUSH1 0x20 PUSH2 0x2B52 DUP4 CODECOPY DUP2 MLOAD SWAP2 MSTORE SWAP1 PUSH2 0xAD7 SWAP1 DUP8 SWAP1 ADDRESS SWAP1 DUP9 SWAP1 DUP9 SWAP1 PUSH2 0x29BB JUMP JUMPDEST PUSH1 0x40 MLOAD DUP1 SWAP2 SUB SWAP1 LOG1 POP POP POP POP POP JUMP JUMPDEST PUSH2 0xAFE PUSH1 0x0 DUP1 MLOAD PUSH1 0x20 PUSH2 0x2B72 DUP4 CODECOPY DUP2 MLOAD SWAP2 MSTORE CALLER PUSH2 0x1247 JUMP JUMPDEST PUSH2 0xB1A JUMPI PUSH1 0x40 MLOAD PUSH3 0x461BCD PUSH1 0xE5 SHL DUP2 MSTORE PUSH1 0x4 ADD PUSH2 0x6D5 SWAP1 PUSH2 0x296B JUMP JUMPDEST PUSH1 0x3 SLOAD PUSH1 0x0 JUMPDEST DUP2 DUP2 PUSH2 0xFFFF AND LT ISZERO PUSH2 0x8DD JUMPI PUSH1 0x0 PUSH1 0x3 DUP3 PUSH2 0xFFFF AND DUP2 SLOAD DUP2 LT PUSH2 0xB45 JUMPI PUSH2 0xB45 PUSH2 0x29E5 JUMP JUMPDEST PUSH1 0x0 SWAP2 DUP3 MSTORE PUSH1 0x20 DUP1 DUP4 KECCAK256 SWAP1 SWAP2 ADD SLOAD PUSH1 0x1 PUSH1 0x1 PUSH1 0xA0 SHL SUB AND DUP1 DUP4 MSTORE PUSH1 0x2 SWAP1 SWAP2 MSTORE PUSH1 0x40 DUP3 KECCAK256 DUP1 SLOAD PUSH1 0x3 DUP3 ADD SLOAD PUSH1 0x1 SWAP3 SWAP1 SWAP3 ADD SLOAD SWAP3 SWAP5 POP SWAP2 PUSH2 0xB84 SWAP2 SWAP1 PUSH2 0x2953 JUMP JUMPDEST PUSH2 0xB8E SWAP2 SWAP1 PUSH2 0x2953 JUMP JUMPDEST PUSH1 0x40 MLOAD PUSH4 0x70A08231 PUSH1 0xE0 SHL DUP2 MSTORE ADDRESS PUSH1 0x4 DUP3 ADD MSTORE PUSH1 0x1 PUSH1 0x1 PUSH1 0xA0 SHL SUB DUP5 AND SWAP1 PUSH4 0x70A08231 SWAP1 PUSH1 0x24 ADD PUSH1 0x20 PUSH1 0x40 MLOAD DUP1 DUP4 SUB DUP2 DUP7 GAS STATICCALL ISZERO DUP1 ISZERO PUSH2 0xBD2 JUMPI RETURNDATASIZE PUSH1 0x0 DUP1 RETURNDATACOPY RETURNDATASIZE PUSH1 0x0 REVERT JUMPDEST POP POP POP POP PUSH1 0x40 MLOAD RETURNDATASIZE PUSH1 0x1F NOT PUSH1 0x1F DUP3 ADD AND DUP3 ADD DUP1 PUSH1 0x40 MSTORE POP DUP2 ADD SWAP1 PUSH2 0xBF6 SWAP2 SWAP1 PUSH2 0x29FB JUMP JUMPDEST PUSH2 0xC00 SWAP2 SWAP1 PUSH2 0x2808 JUMP JUMPDEST PUSH1 0x40 MLOAD PUSH4 0xA9059CBB PUSH1 0xE0 SHL DUP2 MSTORE PUSH1 0x1 PUSH1 0x1 PUSH1 0xA0 SHL SUB DUP8 DUP2 AND PUSH1 0x4 DUP4 ADD MSTORE PUSH1 0x24 DUP3 ADD DUP4 SWAP1 MSTORE SWAP2 SWAP3 POP SWAP1 DUP4 AND SWAP1 PUSH4 0xA9059CBB SWAP1 PUSH1 0x44 ADD PUSH1 0x20 PUSH1 0x40 MLOAD DUP1 DUP4 SUB DUP2 PUSH1 0x0 DUP8 GAS CALL ISZERO DUP1 ISZERO PUSH2 0xC53 JUMPI RETURNDATASIZE PUSH1 0x0 DUP1 RETURNDATACOPY RETURNDATASIZE PUSH1 0x0 REVERT JUMPDEST POP POP POP POP PUSH1 0x40 MLOAD RETURNDATASIZE PUSH1 0x1F NOT PUSH1 0x1F DUP3 ADD AND DUP3 ADD DUP1 PUSH1 0x40 MSTORE POP DUP2 ADD SWAP1 PUSH2 0xC77 SWAP2 SWAP1 PUSH2 0x2999 JUMP JUMPDEST POP POP POP DUP1 DUP1 PUSH2 0xC85 SWAP1 PUSH2 0x2A14 JUMP JUMPDEST SWAP2 POP POP PUSH2 0xB20 JUMP JUMPDEST PUSH2 0xCA5 PUSH1 0x0 DUP1 MLOAD PUSH1 0x20 PUSH2 0x2B72 DUP4 CODECOPY DUP2 MLOAD SWAP2 MSTORE CALLER PUSH2 0x1247 JUMP JUMPDEST PUSH2 0xCC1 JUMPI PUSH1 0x40 MLOAD PUSH3 0x461BCD PUSH1 0xE5 SHL DUP2 MSTORE PUSH1 0x4 ADD PUSH2 0x6D5 SWAP1 PUSH2 0x296B JUMP JUMPDEST PUSH2 0xCD9 PUSH1 0x0 DUP1 MLOAD PUSH1 0x20 PUSH2 0x2B72 DUP4 CODECOPY DUP2 MLOAD SWAP2 MSTORE DUP3 PUSH2 0x226B JUMP JUMPDEST POP JUMP JUMPDEST PUSH1 0x3 SLOAD PUSH1 0x0 SWAP1 DUP2 SWAP1 DUP2 JUMPDEST DUP2 DUP2 PUSH2 0xFFFF AND LT ISZERO PUSH2 0xE05 JUMPI PUSH1 0x0 PUSH1 0x3 DUP3 PUSH2 0xFFFF AND DUP2 SLOAD DUP2 LT PUSH2 0xD0B JUMPI PUSH2 0xD0B PUSH2 0x29E5 JUMP JUMPDEST PUSH1 0x0 SWAP2 DUP3 MSTORE PUSH1 0x20 SWAP1 SWAP2 KECCAK256 ADD SLOAD PUSH1 0x5 SLOAD PUSH1 0x40 MLOAD PUSH4 0x41976E09 PUSH1 0xE0 SHL DUP2 MSTORE PUSH1 0x1 PUSH1 0x1 PUSH1 0xA0 SHL SUB SWAP3 DUP4 AND PUSH1 0x4 DUP3 ADD DUP2 SWAP1 MSTORE SWAP4 POP PUSH8 0xDE0B6B3A7640000 SWAP3 SWAP1 SWAP2 AND SWAP1 PUSH4 0x41976E09 SWAP1 PUSH1 0x24 ADD PUSH1 0x20 PUSH1 0x40 MLOAD DUP1 DUP4 SUB DUP2 DUP7 GAS STATICCALL ISZERO DUP1 ISZERO PUSH2 0xD6F JUMPI RETURNDATASIZE PUSH1 0x0 DUP1 RETURNDATACOPY RETURNDATASIZE PUSH1 0x0 REVERT JUMPDEST POP POP POP POP PUSH1 0x40 MLOAD RETURNDATASIZE PUSH1 0x1F NOT PUSH1 0x1F DUP3 ADD AND DUP3 ADD DUP1 PUSH1 0x40 MSTORE POP DUP2 ADD SWAP1 PUSH2 0xD93 SWAP2 SWAP1 PUSH2 0x29FB JUMP JUMPDEST PUSH1 0x1 PUSH1 0x1 PUSH1 0xA0 SHL SUB DUP4 AND PUSH1 0x0 SWAP1 DUP2 MSTORE PUSH1 0x2 PUSH1 0x20 DUP2 SWAP1 MSTORE PUSH1 0x40 SWAP1 SWAP2 KECCAK256 PUSH1 0x3 DUP2 ADD SLOAD SWAP2 DUP2 ADD SLOAD PUSH1 0x1 SWAP1 SWAP2 ADD SLOAD PUSH2 0xDC7 SWAP2 SWAP1 PUSH2 0x2953 JUMP JUMPDEST PUSH2 0xDD1 SWAP2 SWAP1 PUSH2 0x2953 JUMP JUMPDEST PUSH2 0xDDB SWAP2 SWAP1 PUSH2 0x2934 JUMP JUMPDEST PUSH2 0xDE5 SWAP2 SWAP1 PUSH2 0x2912 JUMP JUMPDEST PUSH2 0xDEF SWAP1 DUP6 PUSH2 0x2953 JUMP JUMPDEST SWAP4 POP POP DUP1 DUP1 PUSH2 0xDFD SWAP1 PUSH2 0x2A14 JUMP JUMPDEST SWAP2 POP POP PUSH2 0xCE6 JUMP JUMPDEST POP SWAP1 SWAP3 SWAP2 POP POP JUMP JUMPDEST PUSH2 0xE25 PUSH1 0x0 DUP1 MLOAD PUSH1 0x20 PUSH2 0x2B72 DUP4 CODECOPY DUP2 MLOAD SWAP2 MSTORE CALLER PUSH2 0x1247 JUMP JUMPDEST PUSH2 0xE41 JUMPI PUSH1 0x40 MLOAD PUSH3 0x461BCD PUSH1 0xE5 SHL DUP2 MSTORE PUSH1 0x4 ADD PUSH2 0x6D5 SWAP1 PUSH2 0x296B JUMP JUMPDEST PUSH1 0x1 PUSH1 0x1 PUSH1 0xA0 SHL SUB DUP2 AND PUSH1 0x0 SWAP1 DUP2 MSTORE PUSH1 0x2 PUSH1 0x20 DUP2 SWAP1 MSTORE PUSH1 0x40 DUP3 KECCAK256 SWAP1 DUP2 ADD SLOAD PUSH1 0x3 DUP3 ADD SLOAD PUSH1 0x1 SWAP1 SWAP3 ADD SLOAD PUSH8 0xDE0B6B3A7640000 SWAP3 PUSH2 0xE7D SWAP2 PUSH2 0x2953 JUMP JUMPDEST PUSH2 0xE87 SWAP2 SWAP1 PUSH2 0x2953 JUMP JUMPDEST PUSH2 0xE99 SWAP1 PUSH8 0x2C68AF0BB140000 PUSH2 0x2934 JUMP JUMPDEST PUSH2 0xEA3 SWAP2 SWAP1 PUSH2 0x2912 JUMP JUMPDEST PUSH1 0x1 PUSH1 0x1 PUSH1 0xA0 SHL SUB DUP4 AND PUSH1 0x0 SWAP1 DUP2 MSTORE PUSH1 0x2 PUSH1 0x20 MSTORE PUSH1 0x40 SWAP1 KECCAK256 PUSH1 0x3 ADD SLOAD SWAP1 SWAP2 POP DUP2 LT ISZERO PUSH2 0xF7D JUMPI PUSH1 0x1 PUSH1 0x1 PUSH1 0xA0 SHL SUB DUP3 AND PUSH1 0x0 SWAP1 DUP2 MSTORE PUSH1 0x2 PUSH1 0x20 MSTORE PUSH1 0x40 SWAP1 KECCAK256 PUSH1 0x3 ADD SLOAD PUSH2 0xEF0 SWAP1 DUP3 SWAP1 PUSH2 0x2808 JUMP JUMPDEST PUSH1 0x1 PUSH1 0x1 PUSH1 0xA0 SHL SUB DUP4 AND PUSH1 0x0 SWAP1 DUP2 MSTORE PUSH1 0x2 PUSH1 0x20 MSTORE PUSH1 0x40 DUP2 KECCAK256 PUSH1 0x1 ADD DUP1 SLOAD SWAP1 SWAP2 SWAP1 PUSH2 0xF1B SWAP1 DUP5 SWAP1 PUSH2 0x2953 JUMP JUMPDEST SWAP1 SWAP2 SSTORE POP POP PUSH1 0x1 PUSH1 0x1 PUSH1 0xA0 SHL SUB DUP3 AND PUSH1 0x0 SWAP1 DUP2 MSTORE PUSH1 0x2 PUSH1 0x20 MSTORE PUSH1 0x40 SWAP1 KECCAK256 PUSH1 0x3 ADD SLOAD PUSH2 0xF47 SWAP1 DUP3 SWAP1 PUSH2 0x2808 JUMP JUMPDEST PUSH1 0x1 PUSH1 0x1 PUSH1 0xA0 SHL SUB DUP4 AND PUSH1 0x0 SWAP1 DUP2 MSTORE PUSH1 0x2 PUSH1 0x20 MSTORE PUSH1 0x40 DUP2 KECCAK256 PUSH1 0x3 ADD DUP1 SLOAD SWAP1 SWAP2 SWAP1 PUSH2 0xF72 SWAP1 DUP5 SWAP1 PUSH2 0x2808 JUMP JUMPDEST SWAP1 SWAP2 SSTORE POP PUSH2 0x95C SWAP1 POP JUMP JUMPDEST PUSH1 0x1 PUSH1 0x1 PUSH1 0xA0 SHL SUB DUP3 AND PUSH1 0x0 SWAP1 DUP2 MSTORE PUSH1 0x2 PUSH1 0x20 MSTORE PUSH1 0x40 SWAP1 KECCAK256 PUSH1 0x3 ADD SLOAD DUP2 GT ISZERO PUSH2 0x95C JUMPI PUSH1 0x1 PUSH1 0x1 PUSH1 0xA0 SHL SUB DUP3 AND PUSH1 0x0 SWAP1 DUP2 MSTORE PUSH1 0x2 PUSH1 0x20 MSTORE PUSH1 0x40 SWAP1 KECCAK256 PUSH1 0x3 ADD SLOAD PUSH2 0xFC6 SWAP1 DUP3 PUSH2 0x2808 JUMP JUMPDEST PUSH1 0x1 PUSH1 0x1 PUSH1 0xA0 SHL SUB DUP4 AND PUSH1 0x0 SWAP1 DUP2 MSTORE PUSH1 0x2 PUSH1 0x20 MSTORE PUSH1 0x40 SWAP1 KECCAK256 PUSH1 0x1 ADD SLOAD LT PUSH2 0x95C JUMPI PUSH1 0x1 PUSH1 0x1 PUSH1 0xA0 SHL SUB DUP3 AND PUSH1 0x0 SWAP1 DUP2 MSTORE PUSH1 0x2 PUSH1 0x20 MSTORE PUSH1 0x40 SWAP1 KECCAK256 PUSH1 0x3 ADD SLOAD PUSH2 0x100D SWAP1 DUP3 PUSH2 0x2808 JUMP JUMPDEST PUSH1 0x1 PUSH1 0x1 PUSH1 0xA0 SHL SUB DUP4 AND PUSH1 0x0 SWAP1 DUP2 MSTORE PUSH1 0x2 PUSH1 0x20 MSTORE PUSH1 0x40 DUP2 KECCAK256 PUSH1 0x1 ADD DUP1 SLOAD SWAP1 SWAP2 SWAP1 PUSH2 0x1038 SWAP1 DUP5 SWAP1 PUSH2 0x2808 JUMP JUMPDEST SWAP1 SWAP2 SSTORE POP POP PUSH1 0x1 PUSH1 0x1 PUSH1 0xA0 SHL SUB DUP3 AND PUSH1 0x0 SWAP1 DUP2 MSTORE PUSH1 0x2 PUSH1 0x20 MSTORE PUSH1 0x40 SWAP1 KECCAK256 PUSH1 0x3 ADD SLOAD PUSH2 0x1063 SWAP1 DUP3 PUSH2 0x2808 JUMP JUMPDEST PUSH1 0x1 PUSH1 0x1 PUSH1 0xA0 SHL SUB DUP4 AND PUSH1 0x0 SWAP1 DUP2 MSTORE PUSH1 0x2 PUSH1 0x20 MSTORE PUSH1 0x40 DUP2 KECCAK256 PUSH1 0x3 ADD DUP1 SLOAD SWAP1 SWAP2 SWAP1 PUSH2 0x108E SWAP1 DUP5 SWAP1 PUSH2 0x2953 JUMP JUMPDEST SWAP1 SWAP2 SSTORE POP POP POP POP JUMP JUMPDEST PUSH1 0x0 DUP3 DUP2 MSTORE PUSH1 0x1 PUSH1 0x20 MSTORE PUSH1 0x40 DUP2 KECCAK256 PUSH2 0x69A SWAP1 DUP4 PUSH2 0x2275 JUMP JUMPDEST PUSH1 0x1 PUSH1 0x1 PUSH1 0xA0 SHL SUB DUP3 AND PUSH1 0x0 SWAP1 DUP2 MSTORE PUSH1 0x2 PUSH1 0x20 DUP2 SWAP1 MSTORE PUSH1 0x40 DUP3 KECCAK256 SWAP1 DUP2 ADD SLOAD PUSH1 0x3 DUP3 ADD SLOAD PUSH1 0x1 SWAP1 SWAP3 ADD SLOAD DUP4 SWAP3 PUSH2 0x10E3 SWAP2 PUSH2 0x2953 JUMP JUMPDEST PUSH2 0x10ED SWAP2 SWAP1 PUSH2 0x2953 JUMP JUMPDEST PUSH2 0x10F6 DUP6 PUSH2 0x625 JUMP JUMPDEST PUSH1 0x1 PUSH1 0x1 PUSH1 0xA0 SHL SUB DUP7 AND PUSH1 0x0 SWAP1 DUP2 MSTORE PUSH1 0x2 PUSH1 0x20 DUP2 SWAP1 MSTORE PUSH1 0x40 SWAP1 SWAP2 KECCAK256 ADD SLOAD PUSH2 0x111D SWAP2 SWAP1 PUSH2 0x2934 JUMP JUMPDEST PUSH2 0x1127 SWAP2 SWAP1 PUSH2 0x2912 JUMP JUMPDEST SWAP5 SWAP4 POP POP POP POP JUMP JUMPDEST PUSH1 0x3 SLOAD PUSH1 0x0 SWAP1 DUP2 SWAP1 DUP2 JUMPDEST DUP2 DUP2 PUSH2 0xFFFF AND LT ISZERO PUSH2 0xE05 JUMPI PUSH1 0x0 PUSH1 0x3 DUP3 PUSH2 0xFFFF AND DUP2 SLOAD DUP2 LT PUSH2 0x115E JUMPI PUSH2 0x115E PUSH2 0x29E5 JUMP JUMPDEST PUSH1 0x0 SWAP2 DUP3 MSTORE PUSH1 0x20 SWAP1 SWAP2 KECCAK256 ADD SLOAD PUSH1 0x5 SLOAD PUSH1 0x40 MLOAD PUSH4 0x41976E09 PUSH1 0xE0 SHL DUP2 MSTORE PUSH1 0x1 PUSH1 0x1 PUSH1 0xA0 SHL SUB SWAP3 DUP4 AND PUSH1 0x4 DUP3 ADD DUP2 SWAP1 MSTORE SWAP4 POP PUSH8 0xDE0B6B3A7640000 SWAP3 SWAP1 SWAP2 AND SWAP1 PUSH4 0x41976E09 SWAP1 PUSH1 0x24 ADD PUSH1 0x20 PUSH1 0x40 MLOAD DUP1 DUP4 SUB DUP2 DUP7 GAS STATICCALL ISZERO DUP1 ISZERO PUSH2 0x11C2 JUMPI RETURNDATASIZE PUSH1 0x0 DUP1 RETURNDATACOPY RETURNDATASIZE PUSH1 0x0 REVERT JUMPDEST POP POP POP POP PUSH1 0x40 MLOAD RETURNDATASIZE PUSH1 0x1F NOT PUSH1 0x1F DUP3 ADD AND DUP3 ADD DUP1 PUSH1 0x40 MSTORE POP DUP2 ADD SWAP1 PUSH2 0x11E6 SWAP2 SWAP1 PUSH2 0x29FB JUMP JUMPDEST PUSH1 0x1 PUSH1 0x1 PUSH1 0xA0 SHL SUB DUP4 AND PUSH1 0x0 SWAP1 DUP2 MSTORE PUSH1 0x2 PUSH1 0x20 MSTORE PUSH1 0x40 SWAP1 KECCAK256 PUSH1 0x3 DUP2 ADD SLOAD PUSH1 0x1 SWAP1 SWAP2 ADD SLOAD PUSH2 0x1213 SWAP2 SWAP1 PUSH2 0x2953 JUMP JUMPDEST PUSH2 0x121D SWAP2 SWAP1 PUSH2 0x2934 JUMP JUMPDEST PUSH2 0x1227 SWAP2 SWAP1 PUSH2 0x2912 JUMP JUMPDEST PUSH2 0x1231 SWAP1 DUP6 PUSH2 0x2953 JUMP JUMPDEST SWAP4 POP POP DUP1 DUP1 PUSH2 0x123F SWAP1 PUSH2 0x2A14 JUMP JUMPDEST SWAP2 POP POP PUSH2 0x1139 JUMP JUMPDEST PUSH1 0x0 SWAP2 DUP3 MSTORE PUSH1 0x20 DUP3 DUP2 MSTORE PUSH1 0x40 DUP1 DUP5 KECCAK256 PUSH1 0x1 PUSH1 0x1 PUSH1 0xA0 SHL SUB SWAP4 SWAP1 SWAP4 AND DUP5 MSTORE SWAP2 SWAP1 MSTORE SWAP1 KECCAK256 SLOAD PUSH1 0xFF AND SWAP1 JUMP JUMPDEST PUSH2 0x1288 PUSH1 0x0 DUP1 MLOAD PUSH1 0x20 PUSH2 0x2B72 DUP4 CODECOPY DUP2 MLOAD SWAP2 MSTORE CALLER PUSH2 0x1247 JUMP JUMPDEST PUSH2 0x12A4 JUMPI PUSH1 0x40 MLOAD PUSH3 0x461BCD PUSH1 0xE5 SHL DUP2 MSTORE PUSH1 0x4 ADD PUSH2 0x6D5 SWAP1 PUSH2 0x296B JUMP JUMPDEST PUSH1 0x1 PUSH1 0x1 PUSH1 0xA0 SHL SUB DUP3 AND PUSH1 0x0 SWAP1 DUP2 MSTORE PUSH1 0x2 PUSH1 0x20 MSTORE PUSH1 0x40 SWAP1 KECCAK256 PUSH1 0x3 ADD SLOAD DUP2 GT ISZERO PUSH2 0x132A JUMPI PUSH1 0x1 PUSH1 0x1 PUSH1 0xA0 SHL SUB DUP3 AND PUSH1 0x0 SWAP1 DUP2 MSTORE PUSH1 0x2 PUSH1 0x20 MSTORE PUSH1 0x40 DUP2 KECCAK256 PUSH1 0x3 ADD SLOAD PUSH2 0x12F3 SWAP1 DUP5 SWAP1 PUSH2 0x54D SWAP1 DUP6 PUSH2 0x2808 JUMP JUMPDEST SWAP1 POP PUSH2 0x1307 DUP2 PUSH8 0xDE0B6B3A7640000 PUSH2 0x2281 JUMP JUMPDEST SWAP1 POP PUSH8 0xDE0B6B3A7640000 PUSH2 0x131C DUP3 DUP5 PUSH2 0x2934 JUMP JUMPDEST PUSH2 0x1326 SWAP2 SWAP1 PUSH2 0x2912 JUMP JUMPDEST SWAP2 POP POP JUMPDEST PUSH1 0x1 PUSH1 0x1 PUSH1 0xA0 SHL SUB DUP3 AND PUSH1 0x0 SWAP1 DUP2 MSTORE PUSH1 0x2 PUSH1 0x20 MSTORE PUSH1 0x40 SWAP1 KECCAK256 PUSH1 0x3 ADD SLOAD PUSH2 0x1351 SWAP1 DUP3 SWAP1 PUSH2 0x2281 JUMP JUMPDEST PUSH1 0x1 PUSH1 0x1 PUSH1 0xA0 SHL SUB DUP4 AND PUSH1 0x0 SWAP1 DUP2 MSTORE PUSH1 0x2 PUSH1 0x20 MSTORE PUSH1 0x40 DUP2 KECCAK256 PUSH1 0x3 ADD DUP1 SLOAD SWAP1 SWAP2 SWAP1 PUSH2 0x137C SWAP1 DUP5 SWAP1 PUSH2 0x2808 JUMP JUMPDEST SWAP1 SWAP2 SSTORE POP POP PUSH1 0x40 MLOAD PUSH4 0xA9059CBB PUSH1 0xE0 SHL DUP2 MSTORE PUSH1 0x1 PUSH1 0x1 PUSH1 0xA0 SHL SUB DUP5 DUP2 AND PUSH1 0x4 DUP4 ADD MSTORE PUSH1 0x24 DUP3 ADD DUP4 SWAP1 MSTORE DUP4 AND SWAP1 PUSH4 0xA9059CBB SWAP1 PUSH1 0x44 ADD PUSH1 0x20 PUSH1 0x40 MLOAD DUP1 DUP4 SUB DUP2 PUSH1 0x0 DUP8 GAS CALL ISZERO DUP1 ISZERO PUSH2 0x13D0 JUMPI RETURNDATASIZE PUSH1 0x0 DUP1 RETURNDATACOPY RETURNDATASIZE PUSH1 0x0 REVERT JUMPDEST POP POP POP POP PUSH1 0x40 MLOAD RETURNDATASIZE PUSH1 0x1F NOT PUSH1 0x1F DUP3 ADD AND DUP3 ADD DUP1 PUSH1 0x40 MSTORE POP DUP2 ADD SWAP1 PUSH2 0x13F4 SWAP2 SWAP1 PUSH2 0x2999 JUMP JUMPDEST POP PUSH2 0x13FE DUP3 PUSH2 0xE0D JUMP JUMPDEST PUSH1 0x0 DUP1 MLOAD PUSH1 0x20 PUSH2 0x2B52 DUP4 CODECOPY DUP2 MLOAD SWAP2 MSTORE ADDRESS DUP5 DUP5 DUP5 PUSH1 0x40 MLOAD PUSH2 0x8AA SWAP5 SWAP4 SWAP3 SWAP2 SWAP1 PUSH2 0x29BB JUMP JUMPDEST PUSH1 0x0 PUSH2 0x61F DUP3 TIMESTAMP PUSH2 0x2808 JUMP JUMPDEST PUSH2 0x1445 PUSH1 0x0 DUP1 MLOAD PUSH1 0x20 PUSH2 0x2B72 DUP4 CODECOPY DUP2 MLOAD SWAP2 MSTORE CALLER PUSH2 0x1247 JUMP JUMPDEST PUSH2 0x1461 JUMPI PUSH1 0x40 MLOAD PUSH3 0x461BCD PUSH1 0xE5 SHL DUP2 MSTORE PUSH1 0x4 ADD PUSH2 0x6D5 SWAP1 PUSH2 0x296B JUMP JUMPDEST PUSH1 0x64 PUSH2 0x146E DUP3 PUSH1 0x62 PUSH2 0x2934 JUMP JUMPDEST PUSH2 0x1063 SWAP2 SWAP1 PUSH2 0x2912 JUMP JUMPDEST PUSH2 0x1490 PUSH1 0x0 DUP1 MLOAD PUSH1 0x20 PUSH2 0x2B72 DUP4 CODECOPY DUP2 MLOAD SWAP2 MSTORE CALLER PUSH2 0x1247 JUMP JUMPDEST PUSH2 0x14AC JUMPI PUSH1 0x40 MLOAD PUSH3 0x461BCD PUSH1 0xE5 SHL DUP2 MSTORE PUSH1 0x4 ADD PUSH2 0x6D5 SWAP1 PUSH2 0x296B JUMP JUMPDEST PUSH1 0x1 PUSH1 0x1 PUSH1 0xA0 SHL SUB DUP3 AND PUSH1 0x0 SWAP1 DUP2 MSTORE PUSH1 0x2 PUSH1 0x20 MSTORE PUSH1 0x40 SWAP1 KECCAK256 PUSH1 0x3 ADD SLOAD DUP2 GT ISZERO PUSH2 0x151E JUMPI PUSH1 0x1 PUSH1 0x1 PUSH1 0xA0 SHL SUB DUP3 AND PUSH1 0x0 SWAP1 DUP2 MSTORE PUSH1 0x2 PUSH1 0x20 MSTORE PUSH1 0x40 DUP2 KECCAK256 PUSH1 0x3 ADD SLOAD PUSH2 0x14FB SWAP1 DUP5 SWAP1 PUSH2 0x54D SWAP1 DUP6 PUSH2 0x2808 JUMP JUMPDEST SWAP1 POP PUSH8 0xDE0B6B3A7640000 PUSH2 0x1510 DUP3 DUP5 PUSH2 0x2934 JUMP JUMPDEST PUSH2 0x151A SWAP2 SWAP1 PUSH2 0x2912 JUMP JUMPDEST SWAP2 POP POP JUMPDEST PUSH1 0x1 PUSH1 0x1 PUSH1 0xA0 SHL SUB DUP3 AND PUSH1 0x0 SWAP1 DUP2 MSTORE PUSH1 0x2 PUSH1 0x20 MSTORE PUSH1 0x40 DUP2 KECCAK256 PUSH1 0x3 ADD DUP1 SLOAD DUP4 SWAP3 SWAP1 PUSH2 0x1549 SWAP1 DUP5 SWAP1 PUSH2 0x2808 JUMP JUMPDEST SWAP1 SWAP2 SSTORE POP PUSH1 0x64 SWAP1 POP PUSH2 0x155C DUP3 PUSH1 0x5F PUSH2 0x2934 JUMP JUMPDEST PUSH2 0x1566 SWAP2 SWAP1 PUSH2 0x2912 JUMP JUMPDEST PUSH1 0x1 PUSH1 0x1 PUSH1 0xA0 SHL SUB DUP4 AND PUSH1 0x0 SWAP1 DUP2 MSTORE PUSH1 0x2 PUSH1 0x20 MSTORE PUSH1 0x40 DUP2 KECCAK256 PUSH1 0x1 ADD DUP1 SLOAD SWAP1 SWAP2 SWAP1 PUSH2 0x1591 SWAP1 DUP5 SWAP1 PUSH2 0x2953 JUMP JUMPDEST SWAP1 SWAP2 SSTORE POP PUSH1 0x64 SWAP1 POP PUSH2 0x15A4 DUP3 PUSH1 0x5 PUSH2 0x2934 JUMP JUMPDEST PUSH2 0x15AE SWAP2 SWAP1 PUSH2 0x2912 JUMP JUMPDEST PUSH1 0x1 PUSH1 0x1 PUSH1 0xA0 SHL SUB DUP4 AND PUSH1 0x0 SWAP1 DUP2 MSTORE PUSH1 0x2 PUSH1 0x20 MSTORE PUSH1 0x40 DUP2 KECCAK256 DUP1 SLOAD SWAP1 SWAP2 SWAP1 PUSH2 0x108E SWAP1 DUP5 SWAP1 PUSH2 0x2953 JUMP JUMPDEST PUSH1 0x0 DUP1 PUSH2 0x15E2 DUP5 PUSH2 0x16F5 JUMP JUMPDEST PUSH2 0x15F4 SWAP1 PUSH8 0xDE0B6B3A7640000 PUSH2 0x2808 JUMP JUMPDEST SWAP1 POP PUSH1 0x0 PUSH2 0x1602 DUP5 TIMESTAMP PUSH2 0x2808 JUMP JUMPDEST SWAP1 POP PUSH4 0x1E18558 PUSH9 0x56BC75E2D63100000 PUSH15 0xC097CE7BC90715B34B9F1000000000 PUSH2 0x162E PUSH1 0x4 DUP7 PUSH2 0x2903 JUMP JUMPDEST PUSH2 0x1638 SWAP2 SWAP1 PUSH2 0x2912 JUMP JUMPDEST PUSH2 0x1643 SWAP1 PUSH1 0x8 PUSH2 0x2934 JUMP JUMPDEST PUSH2 0x164D SWAP2 SWAP1 PUSH2 0x2912 JUMP JUMPDEST PUSH2 0x165E SWAP1 PUSH7 0x354A6BA7A18000 PUSH2 0x2953 JUMP JUMPDEST PUSH2 0x1668 SWAP1 DUP4 PUSH2 0x2934 JUMP JUMPDEST PUSH2 0x1672 SWAP2 SWAP1 PUSH2 0x2912 JUMP JUMPDEST SWAP6 SWAP5 POP POP POP POP POP JUMP JUMPDEST PUSH1 0x0 DUP2 DUP2 MSTORE PUSH1 0x1 PUSH1 0x20 MSTORE PUSH1 0x40 DUP2 KECCAK256 PUSH2 0x61F SWAP1 PUSH2 0x228D JUMP JUMPDEST PUSH1 0x1 PUSH1 0x1 PUSH1 0xA0 SHL SUB DUP2 AND PUSH1 0x0 SWAP1 DUP2 MSTORE PUSH1 0x2 PUSH1 0x20 DUP2 SWAP1 MSTORE PUSH1 0x40 DUP3 KECCAK256 PUSH1 0x3 DUP2 ADD SLOAD SWAP2 DUP2 ADD SLOAD PUSH1 0x1 SWAP1 SWAP2 ADD SLOAD PUSH2 0x16C5 SWAP2 SWAP1 PUSH2 0x2953 JUMP JUMPDEST PUSH2 0x61F SWAP2 SWAP1 PUSH2 0x2953 JUMP JUMPDEST PUSH1 0x0 DUP3 DUP2 MSTORE PUSH1 0x20 DUP2 SWAP1 MSTORE PUSH1 0x40 SWAP1 KECCAK256 PUSH1 0x1 ADD SLOAD PUSH2 0x16EB DUP2 CALLER PUSH2 0x21C3 JUMP JUMPDEST PUSH2 0x8DD DUP4 DUP4 PUSH2 0x2249 JUMP JUMPDEST PUSH1 0x1 PUSH1 0x1 PUSH1 0xA0 SHL SUB DUP2 AND PUSH1 0x0 SWAP1 DUP2 MSTORE PUSH1 0x2 PUSH1 0x20 MSTORE PUSH1 0x40 DUP2 KECCAK256 PUSH1 0x1 ADD SLOAD ISZERO ISZERO DUP1 PUSH2 0x1739 JUMPI POP PUSH1 0x1 PUSH1 0x1 PUSH1 0xA0 SHL SUB DUP3 AND PUSH1 0x0 SWAP1 DUP2 MSTORE PUSH1 0x2 PUSH1 0x20 DUP2 SWAP1 MSTORE PUSH1 0x40 SWAP1 SWAP2 KECCAK256 ADD SLOAD ISZERO ISZERO JUMPDEST ISZERO PUSH2 0x17A5 JUMPI PUSH1 0x1 PUSH1 0x1 PUSH1 0xA0 SHL SUB DUP3 AND PUSH1 0x0 SWAP1 DUP2 MSTORE PUSH1 0x2 PUSH1 0x20 DUP2 SWAP1 MSTORE PUSH1 0x40 SWAP1 SWAP2 KECCAK256 SWAP1 DUP2 ADD SLOAD PUSH1 0x1 SWAP1 SWAP2 ADD SLOAD PUSH2 0x176D SWAP2 SWAP1 PUSH2 0x2953 JUMP JUMPDEST PUSH1 0x1 PUSH1 0x1 PUSH1 0xA0 SHL SUB DUP4 AND PUSH1 0x0 SWAP1 DUP2 MSTORE PUSH1 0x2 PUSH1 0x20 MSTORE PUSH1 0x40 SWAP1 KECCAK256 PUSH1 0x1 ADD SLOAD PUSH2 0x179B SWAP1 PUSH8 0xDE0B6B3A7640000 PUSH2 0x2934 JUMP JUMPDEST PUSH2 0x61F SWAP2 SWAP1 PUSH2 0x2912 JUMP JUMPDEST POP PUSH8 0xDE0B6B3A7640000 SWAP2 SWAP1 POP JUMP JUMPDEST SWAP2 SWAP1 POP JUMP JUMPDEST PUSH1 0x0 PUSH2 0x17D3 PUSH1 0x0 DUP1 MLOAD PUSH1 0x20 PUSH2 0x2B72 DUP4 CODECOPY DUP2 MLOAD SWAP2 MSTORE CALLER PUSH2 0x1247 JUMP JUMPDEST PUSH2 0x17EF JUMPI PUSH1 0x40 MLOAD PUSH3 0x461BCD PUSH1 0xE5 SHL DUP2 MSTORE PUSH1 0x4 ADD PUSH2 0x6D5 SWAP1 PUSH2 0x296B JUMP JUMPDEST PUSH1 0x5 SLOAD PUSH1 0x40 MLOAD PUSH4 0x41976E09 PUSH1 0xE0 SHL DUP2 MSTORE PUSH1 0x1 PUSH1 0x1 PUSH1 0xA0 SHL SUB DUP6 DUP2 AND PUSH1 0x4 DUP4 ADD MSTORE PUSH1 0x0 SWAP3 AND SWAP1 PUSH4 0x41976E09 SWAP1 PUSH1 0x24 ADD PUSH1 0x20 PUSH1 0x40 MLOAD DUP1 DUP4 SUB DUP2 DUP7 GAS STATICCALL ISZERO DUP1 ISZERO PUSH2 0x183A JUMPI RETURNDATASIZE PUSH1 0x0 DUP1 RETURNDATACOPY RETURNDATASIZE PUSH1 0x0 REVERT JUMPDEST POP POP POP POP PUSH1 0x40 MLOAD RETURNDATASIZE PUSH1 0x1F NOT PUSH1 0x1F DUP3 ADD AND DUP3 ADD DUP1 PUSH1 0x40 MSTORE POP DUP2 ADD SWAP1 PUSH2 0x185E SWAP2 SWAP1 PUSH2 0x29FB JUMP JUMPDEST SWAP1 POP PUSH1 0x0 PUSH8 0xDE0B6B3A7640000 PUSH2 0x1875 DUP6 DUP5 PUSH2 0x2934 JUMP JUMPDEST PUSH2 0x187F SWAP2 SWAP1 PUSH2 0x2912 JUMP JUMPDEST PUSH1 0x1 PUSH1 0x1 PUSH1 0xA0 SHL SUB DUP7 AND PUSH1 0x0 SWAP1 DUP2 MSTORE PUSH1 0x2 PUSH1 0x20 MSTORE PUSH1 0x40 DUP2 KECCAK256 PUSH1 0x3 ADD SLOAD SWAP2 SWAP3 POP SWAP1 PUSH2 0x18EA SWAP1 PUSH2 0x18AE SWAP1 DUP6 SWAP1 PUSH2 0x2934 JUMP JUMPDEST PUSH2 0x18B6 PUSH2 0x112F JUMP JUMPDEST PUSH2 0x18C0 SWAP2 SWAP1 PUSH2 0x2808 JUMP JUMPDEST PUSH2 0x18D2 DUP5 PUSH8 0xDE0B6B3A7640000 PUSH2 0x2934 JUMP JUMPDEST PUSH2 0x18DC SWAP2 SWAP1 PUSH2 0x2912 JUMP JUMPDEST PUSH8 0xDE0B6B3A7640000 PUSH2 0x2281 JUMP JUMPDEST SWAP1 POP PUSH1 0x0 DUP1 JUMPDEST PUSH1 0x3 SLOAD PUSH2 0xFFFF DUP3 AND LT ISZERO PUSH2 0x1C28 JUMPI PUSH1 0x0 PUSH1 0x3 DUP3 PUSH2 0xFFFF AND DUP2 SLOAD DUP2 LT PUSH2 0x1917 JUMPI PUSH2 0x1917 PUSH2 0x29E5 JUMP JUMPDEST PUSH1 0x0 SWAP2 DUP3 MSTORE PUSH1 0x20 DUP1 DUP4 KECCAK256 SWAP1 SWAP2 ADD SLOAD PUSH1 0x1 PUSH1 0x1 PUSH1 0xA0 SHL SUB AND DUP1 DUP4 MSTORE PUSH1 0x2 SWAP1 SWAP2 MSTORE PUSH1 0x40 DUP3 KECCAK256 PUSH1 0x3 DUP2 ADD SLOAD PUSH1 0x1 SWAP2 SWAP1 SWAP2 ADD SLOAD SWAP2 SWAP4 POP PUSH2 0x1952 SWAP2 PUSH2 0x2953 JUMP JUMPDEST SWAP1 POP PUSH1 0x0 PUSH8 0xDE0B6B3A7640000 PUSH2 0x1969 DUP4 DUP9 PUSH2 0x2934 JUMP JUMPDEST PUSH2 0x1973 SWAP2 SWAP1 PUSH2 0x2912 JUMP JUMPDEST PUSH1 0x6 SLOAD PUSH1 0x40 MLOAD PUSH4 0x95EA7B3 PUSH1 0xE0 SHL DUP2 MSTORE PUSH1 0x1 PUSH1 0x1 PUSH1 0xA0 SHL SUB SWAP2 DUP3 AND PUSH1 0x4 DUP3 ADD MSTORE PUSH1 0x24 DUP2 ADD DUP4 SWAP1 MSTORE SWAP2 SWAP3 POP DUP5 AND SWAP1 PUSH4 0x95EA7B3 SWAP1 PUSH1 0x44 ADD PUSH1 0x20 PUSH1 0x40 MLOAD DUP1 DUP4 SUB DUP2 PUSH1 0x0 DUP8 GAS CALL ISZERO DUP1 ISZERO PUSH2 0x19C8 JUMPI RETURNDATASIZE PUSH1 0x0 DUP1 RETURNDATACOPY RETURNDATASIZE PUSH1 0x0 REVERT JUMPDEST POP POP POP POP PUSH1 0x40 MLOAD RETURNDATASIZE PUSH1 0x1F NOT PUSH1 0x1F DUP3 ADD AND DUP3 ADD DUP1 PUSH1 0x40 MSTORE POP DUP2 ADD SWAP1 PUSH2 0x19EC SWAP2 SWAP1 PUSH2 0x2999 JUMP JUMPDEST POP PUSH1 0x1 PUSH1 0x1 PUSH1 0xA0 SHL SUB DUP12 AND PUSH20 0xC778417E063141139FCE010982780140AA0CD5AB EQ DUP1 ISZERO PUSH2 0x1A2B JUMPI POP DUP3 PUSH1 0x1 PUSH1 0x1 PUSH1 0xA0 SHL SUB AND DUP12 PUSH1 0x1 PUSH1 0x1 PUSH1 0xA0 SHL SUB AND EQ ISZERO JUMPDEST DUP1 ISZERO PUSH2 0x1A3A JUMPI POP PUSH4 0x3B9ACA00 DUP3 GT JUMPDEST ISZERO PUSH2 0x1ACC JUMPI PUSH1 0x6 SLOAD PUSH1 0x40 MLOAD PUSH4 0x70172845 PUSH1 0xE0 SHL DUP2 MSTORE PUSH1 0x1 PUSH1 0x1 PUSH1 0xA0 SHL SUB DUP6 DUP2 AND PUSH1 0x4 DUP4 ADD MSTORE PUSH1 0x24 DUP3 ADD DUP5 SWAP1 MSTORE PUSH1 0x0 SWAP3 AND SWAP1 PUSH4 0x70172845 SWAP1 PUSH1 0x44 ADD JUMPDEST PUSH1 0x20 PUSH1 0x40 MLOAD DUP1 DUP4 SUB DUP2 PUSH1 0x0 DUP8 GAS CALL ISZERO DUP1 ISZERO PUSH2 0x1A94 JUMPI RETURNDATASIZE PUSH1 0x0 DUP1 RETURNDATACOPY RETURNDATASIZE PUSH1 0x0 REVERT JUMPDEST POP POP POP POP PUSH1 0x40 MLOAD RETURNDATASIZE PUSH1 0x1F NOT PUSH1 0x1F DUP3 ADD AND DUP3 ADD DUP1 PUSH1 0x40 MSTORE POP DUP2 ADD SWAP1 PUSH2 0x1AB8 SWAP2 SWAP1 PUSH2 0x29FB JUMP JUMPDEST SWAP1 POP PUSH2 0x1AC4 DUP2 DUP8 PUSH2 0x2953 JUMP JUMPDEST SWAP6 POP POP PUSH2 0x1C12 JUMP JUMPDEST PUSH1 0x1 PUSH1 0x1 PUSH1 0xA0 SHL SUB DUP4 AND PUSH20 0xC778417E063141139FCE010982780140AA0CD5AB EQ DUP1 ISZERO PUSH2 0x1B0A JUMPI POP DUP11 PUSH1 0x1 PUSH1 0x1 PUSH1 0xA0 SHL SUB AND DUP4 PUSH1 0x1 PUSH1 0x1 PUSH1 0xA0 SHL SUB AND EQ ISZERO JUMPDEST DUP1 ISZERO PUSH2 0x1B19 JUMPI POP PUSH4 0x3B9ACA00 DUP3 GT JUMPDEST ISZERO PUSH2 0x1B58 JUMPI PUSH1 0x6 SLOAD PUSH1 0x40 MLOAD PUSH4 0x7ECD4D6B PUSH1 0xE0 SHL DUP2 MSTORE PUSH1 0x4 DUP2 ADD DUP4 SWAP1 MSTORE PUSH1 0x1 PUSH1 0x1 PUSH1 0xA0 SHL SUB DUP14 DUP2 AND PUSH1 0x24 DUP4 ADD MSTORE PUSH1 0x0 SWAP3 AND SWAP1 PUSH4 0x7ECD4D6B SWAP1 PUSH1 0x44 ADD PUSH2 0x1A75 JUMP JUMPDEST DUP11 PUSH1 0x1 PUSH1 0x1 PUSH1 0xA0 SHL SUB AND DUP4 PUSH1 0x1 PUSH1 0x1 PUSH1 0xA0 SHL SUB AND EQ ISZERO DUP1 ISZERO PUSH2 0x1B7D JUMPI POP PUSH4 0x3B9ACA00 DUP3 GT JUMPDEST ISZERO PUSH2 0x1C12 JUMPI PUSH1 0x6 SLOAD PUSH1 0x40 MLOAD PUSH4 0xEA579B1 PUSH1 0xE0 SHL DUP2 MSTORE PUSH1 0x1 PUSH1 0x1 PUSH1 0xA0 SHL SUB DUP6 DUP2 AND PUSH1 0x4 DUP4 ADD MSTORE PUSH1 0x24 DUP3 ADD DUP5 SWAP1 MSTORE DUP14 DUP2 AND PUSH1 0x44 DUP4 ADD MSTORE PUSH1 0x0 SWAP3 AND SWAP1 PUSH4 0xEA579B1 SWAP1 PUSH1 0x64 ADD PUSH1 0x20 PUSH1 0x40 MLOAD DUP1 DUP4 SUB DUP2 PUSH1 0x0 DUP8 GAS CALL ISZERO DUP1 ISZERO PUSH2 0x1BDE JUMPI RETURNDATASIZE PUSH1 0x0 DUP1 RETURNDATACOPY RETURNDATASIZE PUSH1 0x0 REVERT JUMPDEST POP POP POP POP PUSH1 0x40 MLOAD RETURNDATASIZE PUSH1 0x1F NOT PUSH1 0x1F DUP3 ADD AND DUP3 ADD DUP1 PUSH1 0x40 MSTORE POP DUP2 ADD SWAP1 PUSH2 0x1C02 SWAP2 SWAP1 PUSH2 0x29FB JUMP JUMPDEST SWAP1 POP PUSH2 0x1C0E DUP2 DUP8 PUSH2 0x2953 JUMP JUMPDEST SWAP6 POP POP JUMPDEST POP POP POP DUP1 DUP1 PUSH2 0x1C20 SWAP1 PUSH2 0x2A14 JUMP JUMPDEST SWAP2 POP POP PUSH2 0x18F0 JUMP JUMPDEST POP PUSH1 0x1 PUSH1 0x1 PUSH1 0xA0 SHL SUB DUP8 AND PUSH1 0x0 SWAP1 DUP2 MSTORE PUSH1 0x2 PUSH1 0x20 MSTORE PUSH1 0x40 SWAP1 KECCAK256 PUSH1 0x1 ADD SLOAD PUSH8 0xDE0B6B3A7640000 SWAP1 PUSH2 0x1C5A SWAP1 DUP5 SWAP1 PUSH2 0x2934 JUMP JUMPDEST PUSH2 0x1C64 SWAP2 SWAP1 PUSH2 0x2912 JUMP JUMPDEST PUSH1 0x1 PUSH1 0x1 PUSH1 0xA0 SHL SUB DUP9 AND PUSH1 0x0 SWAP1 DUP2 MSTORE PUSH1 0x2 PUSH1 0x20 MSTORE PUSH1 0x40 DUP2 KECCAK256 PUSH1 0x3 ADD DUP1 SLOAD SWAP1 SWAP2 SWAP1 PUSH2 0x1C8F SWAP1 DUP5 SWAP1 PUSH2 0x2953 JUMP JUMPDEST SWAP1 SWAP2 SSTORE POP PUSH8 0xDE0B6B3A7640000 SWAP1 POP PUSH2 0x1CA8 DUP4 DUP3 PUSH2 0x2808 JUMP JUMPDEST PUSH1 0x1 PUSH1 0x1 PUSH1 0xA0 SHL SUB DUP10 AND PUSH1 0x0 SWAP1 DUP2 MSTORE PUSH1 0x2 PUSH1 0x20 MSTORE PUSH1 0x40 SWAP1 KECCAK256 PUSH1 0x1 ADD SLOAD PUSH2 0x1CCE SWAP2 SWAP1 PUSH2 0x2934 JUMP JUMPDEST PUSH2 0x1CD8 SWAP2 SWAP1 PUSH2 0x2912 JUMP JUMPDEST PUSH1 0x1 PUSH1 0x1 PUSH1 0xA0 SHL SUB DUP9 AND PUSH1 0x0 SWAP1 DUP2 MSTORE PUSH1 0x2 PUSH1 0x20 MSTORE PUSH1 0x40 DUP2 KECCAK256 PUSH1 0x1 DUP2 ADD SWAP3 SWAP1 SWAP3 SSTORE PUSH1 0x3 SWAP1 SWAP2 ADD DUP1 SLOAD DUP4 SWAP3 SWAP1 PUSH2 0x1D0D SWAP1 DUP5 SWAP1 PUSH2 0x2953 JUMP JUMPDEST SWAP1 SWAP2 SSTORE POP DUP4 SWAP1 POP PUSH2 0x1D1E DUP6 DUP4 PUSH2 0x2934 JUMP JUMPDEST PUSH2 0x1D28 SWAP2 SWAP1 PUSH2 0x2912 JUMP JUMPDEST SWAP8 SWAP7 POP POP POP POP POP POP POP JUMP JUMPDEST PUSH1 0x60 PUSH1 0x3 DUP1 SLOAD DUP1 PUSH1 0x20 MUL PUSH1 0x20 ADD PUSH1 0x40 MLOAD SWAP1 DUP2 ADD PUSH1 0x40 MSTORE DUP1 SWAP3 SWAP2 SWAP1 DUP2 DUP2 MSTORE PUSH1 0x20 ADD DUP3 DUP1 SLOAD DUP1 ISZERO PUSH2 0x1D8B JUMPI PUSH1 0x20 MUL DUP3 ADD SWAP2 SWAP1 PUSH1 0x0 MSTORE PUSH1 0x20 PUSH1 0x0 KECCAK256 SWAP1 JUMPDEST DUP2 SLOAD PUSH1 0x1 PUSH1 0x1 PUSH1 0xA0 SHL SUB AND DUP2 MSTORE PUSH1 0x1 SWAP1 SWAP2 ADD SWAP1 PUSH1 0x20 ADD DUP1 DUP4 GT PUSH2 0x1D6D JUMPI JUMPDEST POP POP POP POP POP SWAP1 POP SWAP1 JUMP JUMPDEST PUSH1 0x40 MLOAD PUSH4 0x70A08231 PUSH1 0xE0 SHL DUP2 MSTORE ADDRESS PUSH1 0x4 DUP3 ADD MSTORE PUSH1 0x0 SWAP1 PUSH1 0x1 PUSH1 0x1 PUSH1 0xA0 SHL SUB DUP4 AND SWAP1 PUSH4 0x70A08231 SWAP1 PUSH1 0x24 ADD PUSH1 0x20 PUSH1 0x40 MLOAD DUP1 DUP4 SUB DUP2 DUP7 GAS STATICCALL ISZERO DUP1 ISZERO PUSH2 0x1DDC JUMPI RETURNDATASIZE PUSH1 0x0 DUP1 RETURNDATACOPY RETURNDATASIZE PUSH1 0x0 REVERT JUMPDEST POP POP POP POP PUSH1 0x40 MLOAD RETURNDATASIZE PUSH1 0x1F NOT PUSH1 0x1F DUP3 ADD AND DUP3 ADD DUP1 PUSH1 0x40 MSTORE POP DUP2 ADD SWAP1 PUSH2 0x61F SWAP2 SWAP1 PUSH2 0x29FB JUMP JUMPDEST PUSH2 0x1E18 PUSH1 0x0 DUP1 MLOAD PUSH1 0x20 PUSH2 0x2B72 DUP4 CODECOPY DUP2 MLOAD SWAP2 MSTORE CALLER PUSH2 0x1247 JUMP JUMPDEST PUSH2 0x1E34 JUMPI PUSH1 0x40 MLOAD PUSH3 0x461BCD PUSH1 0xE5 SHL DUP2 MSTORE PUSH1 0x4 ADD PUSH2 0x6D5 SWAP1 PUSH2 0x296B JUMP JUMPDEST PUSH1 0x40 DUP1 MLOAD PUSH1 0x80 DUP2 ADD DUP3 MSTORE PUSH1 0x0 DUP1 DUP3 MSTORE PUSH1 0x20 DUP1 DUP4 ADD DUP3 DUP2 MSTORE DUP4 DUP6 ADD DUP4 DUP2 MSTORE PUSH1 0x60 DUP6 ADD DUP5 DUP2 MSTORE PUSH1 0x1 PUSH1 0x1 PUSH1 0xA0 SHL SUB SWAP1 SWAP8 AND DUP1 DUP6 MSTORE PUSH1 0x2 SWAP4 DUP5 SWAP1 MSTORE SWAP6 DUP5 KECCAK256 SWAP5 MLOAD DUP6 SSTORE SWAP1 MLOAD PUSH1 0x1 DUP1 DUP7 ADD SWAP2 SWAP1 SWAP2 SSTORE SWAP1 MLOAD SWAP2 DUP5 ADD SWAP2 SWAP1 SWAP2 SSTORE SWAP4 MLOAD PUSH1 0x3 SWAP3 DUP4 ADD SSTORE DUP2 SLOAD SWAP4 DUP5 ADD DUP3 SSTORE MSTORE PUSH32 0xC2575A0E9E593C00F959F8C92F12DB2869C3395A3B0502D05E2516446F71F85B SWAP1 SWAP2 ADD DUP1 SLOAD PUSH1 0x1 PUSH1 0x1 PUSH1 0xA0 SHL SUB NOT AND SWAP1 SWAP2 OR SWAP1 SSTORE JUMP JUMPDEST PUSH2 0x1EE6 PUSH1 0x0 DUP1 MLOAD PUSH1 0x20 PUSH2 0x2B72 DUP4 CODECOPY DUP2 MLOAD SWAP2 MSTORE CALLER PUSH2 0x1247 JUMP JUMPDEST PUSH2 0x1F02 JUMPI PUSH1 0x40 MLOAD PUSH3 0x461BCD PUSH1 0xE5 SHL DUP2 MSTORE PUSH1 0x4 ADD PUSH2 0x6D5 SWAP1 PUSH2 0x296B JUMP JUMPDEST PUSH1 0x40 MLOAD PUSH4 0xA9059CBB PUSH1 0xE0 SHL DUP2 MSTORE PUSH1 0x1 PUSH1 0x1 PUSH1 0xA0 SHL SUB DUP5 DUP2 AND PUSH1 0x4 DUP4 ADD MSTORE PUSH1 0x24 DUP3 ADD DUP4 SWAP1 MSTORE DUP4 AND SWAP1 PUSH4 0xA9059CBB SWAP1 PUSH1 0x44 ADD PUSH1 0x20 PUSH1 0x40 MLOAD DUP1 DUP4 SUB DUP2 PUSH1 0x0 DUP8 GAS CALL ISZERO DUP1 ISZERO PUSH2 0x1F51 JUMPI RETURNDATASIZE PUSH1 0x0 DUP1 RETURNDATACOPY RETURNDATASIZE PUSH1 0x0 REVERT JUMPDEST POP POP POP POP PUSH1 0x40 MLOAD RETURNDATASIZE PUSH1 0x1F NOT PUSH1 0x1F DUP3 ADD AND DUP3 ADD DUP1 PUSH1 0x40 MSTORE POP DUP2 ADD SWAP1 PUSH2 0x1F75 SWAP2 SWAP1 PUSH2 0x2999 JUMP JUMPDEST POP PUSH1 0x1 PUSH1 0x1 PUSH1 0xA0 SHL SUB DUP3 AND PUSH1 0x0 SWAP1 DUP2 MSTORE PUSH1 0x2 PUSH1 0x20 MSTORE PUSH1 0x40 DUP2 KECCAK256 PUSH1 0x1 ADD DUP1 SLOAD DUP4 SWAP3 SWAP1 PUSH2 0x1FA1 SWAP1 DUP5 SWAP1 PUSH2 0x2808 JUMP JUMPDEST SWAP1 SWAP2 SSTORE POP POP PUSH1 0x1 PUSH1 0x1 PUSH1 0xA0 SHL SUB DUP3 AND PUSH1 0x0 SWAP1 DUP2 MSTORE PUSH1 0x2 PUSH1 0x20 DUP2 SWAP1 MSTORE PUSH1 0x40 DUP3 KECCAK256 ADD DUP1 SLOAD DUP4 SWAP3 SWAP1 PUSH2 0x1FD1 SWAP1 DUP5 SWAP1 PUSH2 0x2953 JUMP JUMPDEST SWAP1 SWAP2 SSTORE POP POP PUSH1 0x40 MLOAD PUSH1 0x0 DUP1 MLOAD PUSH1 0x20 PUSH2 0x2B52 DUP4 CODECOPY DUP2 MLOAD SWAP2 MSTORE SWAP1 PUSH2 0x8AA SWAP1 ADDRESS SWAP1 DUP7 SWAP1 DUP7 SWAP1 DUP7 SWAP1 PUSH2 0x29BB JUMP JUMPDEST PUSH2 0x2012 PUSH1 0x0 DUP1 MLOAD PUSH1 0x20 PUSH2 0x2B72 DUP4 CODECOPY DUP2 MLOAD SWAP2 MSTORE CALLER PUSH2 0x1247 JUMP JUMPDEST PUSH2 0x202E JUMPI PUSH1 0x40 MLOAD PUSH3 0x461BCD PUSH1 0xE5 SHL DUP2 MSTORE PUSH1 0x4 ADD PUSH2 0x6D5 SWAP1 PUSH2 0x296B JUMP JUMPDEST PUSH1 0x1 PUSH1 0x1 PUSH1 0xA0 SHL SUB DUP3 AND PUSH1 0x0 SWAP1 DUP2 MSTORE PUSH1 0x2 PUSH1 0x20 MSTORE PUSH1 0x40 DUP2 KECCAK256 PUSH1 0x1 ADD DUP1 SLOAD DUP4 SWAP3 SWAP1 PUSH2 0x2059 SWAP1 DUP5 SWAP1 PUSH2 0x2808 JUMP JUMPDEST SWAP1 SWAP2 SSTORE POP POP PUSH1 0x40 MLOAD PUSH4 0xA9059CBB PUSH1 0xE0 SHL DUP2 MSTORE PUSH1 0x1 PUSH1 0x1 PUSH1 0xA0 SHL SUB DUP5 DUP2 AND PUSH1 0x4 DUP4 ADD MSTORE PUSH1 0x24 DUP3 ADD DUP4 SWAP1 MSTORE DUP4 AND SWAP1 PUSH4 0xA9059CBB SWAP1 PUSH1 0x44 ADD PUSH1 0x20 PUSH1 0x40 MLOAD DUP1 DUP4 SUB DUP2 PUSH1 0x0 DUP8 GAS CALL ISZERO DUP1 ISZERO PUSH2 0x20AD JUMPI RETURNDATASIZE PUSH1 0x0 DUP1 RETURNDATACOPY RETURNDATASIZE PUSH1 0x0 REVERT JUMPDEST POP POP POP POP PUSH1 0x40 MLOAD RETURNDATASIZE PUSH1 0x1F NOT PUSH1 0x1F DUP3 ADD AND DUP3 ADD DUP1 PUSH1 0x40 MSTORE POP DUP2 ADD SWAP1 PUSH2 0x20D1 SWAP2 SWAP1 PUSH2 0x2999 JUMP JUMPDEST POP PUSH1 0x0 DUP1 MLOAD PUSH1 0x20 PUSH2 0x2B52 DUP4 CODECOPY DUP2 MLOAD SWAP2 MSTORE ADDRESS DUP5 DUP5 DUP5 PUSH1 0x40 MLOAD PUSH2 0x8AA SWAP5 SWAP4 SWAP3 SWAP2 SWAP1 PUSH2 0x29BB JUMP JUMPDEST PUSH2 0x20FF DUP3 DUP3 PUSH2 0x1247 JUMP JUMPDEST PUSH2 0x95C JUMPI PUSH1 0x0 DUP3 DUP2 MSTORE PUSH1 0x20 DUP2 DUP2 MSTORE PUSH1 0x40 DUP1 DUP4 KECCAK256 PUSH1 0x1 PUSH1 0x1 PUSH1 0xA0 SHL SUB DUP6 AND DUP5 MSTORE SWAP1 SWAP2 MSTORE SWAP1 KECCAK256 DUP1 SLOAD PUSH1 0xFF NOT AND PUSH1 0x1 OR SWAP1 SSTORE PUSH2 0x2135 CALLER SWAP1 JUMP JUMPDEST PUSH1 0x1 PUSH1 0x1 PUSH1 0xA0 SHL SUB AND DUP2 PUSH1 0x1 PUSH1 0x1 PUSH1 0xA0 SHL SUB AND DUP4 PUSH32 0x2F8788117E7EFF1D82E926EC794901D17C78024A50270940304540A733656F0D PUSH1 0x40 MLOAD PUSH1 0x40 MLOAD DUP1 SWAP2 SUB SWAP1 LOG4 POP POP JUMP JUMPDEST PUSH1 0x0 PUSH2 0x69A DUP4 PUSH1 0x1 PUSH1 0x1 PUSH1 0xA0 SHL SUB DUP5 AND PUSH2 0x2297 JUMP JUMPDEST PUSH1 0x0 PUSH1 0x1 PUSH1 0x1 PUSH1 0xE0 SHL SUB NOT DUP3 AND PUSH4 0x7965DB0B PUSH1 0xE0 SHL EQ DUP1 PUSH2 0x61F JUMPI POP PUSH4 0x1FFC9A7 PUSH1 0xE0 SHL PUSH1 0x1 PUSH1 0x1 PUSH1 0xE0 SHL SUB NOT DUP4 AND EQ PUSH2 0x61F JUMP JUMPDEST PUSH2 0x21CD DUP3 DUP3 PUSH2 0x1247 JUMP JUMPDEST PUSH2 0x95C JUMPI PUSH2 0x21E5 DUP2 PUSH1 0x1 PUSH1 0x1 PUSH1 0xA0 SHL SUB AND PUSH1 0x14 PUSH2 0x22E6 JUMP JUMPDEST PUSH2 0x21F0 DUP4 PUSH1 0x20 PUSH2 0x22E6 JUMP JUMPDEST PUSH1 0x40 MLOAD PUSH1 0x20 ADD PUSH2 0x2201 SWAP3 SWAP2 SWAP1 PUSH2 0x2A66 JUMP JUMPDEST PUSH1 0x40 DUP1 MLOAD PUSH1 0x1F NOT DUP2 DUP5 SUB ADD DUP2 MSTORE SWAP1 DUP3 SWAP1 MSTORE PUSH3 0x461BCD PUSH1 0xE5 SHL DUP3 MSTORE PUSH2 0x6D5 SWAP2 PUSH1 0x4 ADD PUSH2 0x2ADB JUMP JUMPDEST PUSH2 0x2231 DUP3 DUP3 PUSH2 0x20F5 JUMP JUMPDEST PUSH1 0x0 DUP3 DUP2 MSTORE PUSH1 0x1 PUSH1 0x20 MSTORE PUSH1 0x40 SWAP1 KECCAK256 PUSH2 0x8DD SWAP1 DUP3 PUSH2 0x2179 JUMP JUMPDEST PUSH2 0x2253 DUP3 DUP3 PUSH2 0x2482 JUMP JUMPDEST PUSH1 0x0 DUP3 DUP2 MSTORE PUSH1 0x1 PUSH1 0x20 MSTORE PUSH1 0x40 SWAP1 KECCAK256 PUSH2 0x8DD SWAP1 DUP3 PUSH2 0x24E7 JUMP JUMPDEST PUSH2 0x95C DUP3 DUP3 PUSH2 0x2227 JUMP JUMPDEST PUSH1 0x0 PUSH2 0x69A DUP4 DUP4 PUSH2 0x24FC JUMP JUMPDEST PUSH1 0x0 PUSH2 0x69A DUP4 DUP4 PUSH2 0x2526 JUMP JUMPDEST PUSH1 0x0 PUSH2 0x61F DUP3 SLOAD SWAP1 JUMP JUMPDEST PUSH1 0x0 DUP2 DUP2 MSTORE PUSH1 0x1 DUP4 ADD PUSH1 0x20 MSTORE PUSH1 0x40 DUP2 KECCAK256 SLOAD PUSH2 0x22DE JUMPI POP DUP2 SLOAD PUSH1 0x1 DUP2 DUP2 ADD DUP5 SSTORE PUSH1 0x0 DUP5 DUP2 MSTORE PUSH1 0x20 DUP1 DUP3 KECCAK256 SWAP1 SWAP4 ADD DUP5 SWAP1 SSTORE DUP5 SLOAD DUP5 DUP3 MSTORE DUP3 DUP7 ADD SWAP1 SWAP4 MSTORE PUSH1 0x40 SWAP1 KECCAK256 SWAP2 SWAP1 SWAP2 SSTORE PUSH2 0x61F JUMP JUMPDEST POP PUSH1 0x0 PUSH2 0x61F JUMP JUMPDEST PUSH1 0x60 PUSH1 0x0 PUSH2 0x22F5 DUP4 PUSH1 0x2 PUSH2 0x2934 JUMP JUMPDEST PUSH2 0x2300 SWAP1 PUSH1 0x2 PUSH2 0x2953 JUMP JUMPDEST PUSH8 0xFFFFFFFFFFFFFFFF DUP2 GT ISZERO PUSH2 0x2318 JUMPI PUSH2 0x2318 PUSH2 0x2B0E JUMP JUMPDEST PUSH1 0x40 MLOAD SWAP1 DUP1 DUP3 MSTORE DUP1 PUSH1 0x1F ADD PUSH1 0x1F NOT AND PUSH1 0x20 ADD DUP3 ADD PUSH1 0x40 MSTORE DUP1 ISZERO PUSH2 0x2342 JUMPI PUSH1 0x20 DUP3 ADD DUP2 DUP1 CALLDATASIZE DUP4 CALLDATACOPY ADD SWAP1 POP JUMPDEST POP SWAP1 POP PUSH1 0x3 PUSH1 0xFC SHL DUP2 PUSH1 0x0 DUP2 MLOAD DUP2 LT PUSH2 0x235D JUMPI PUSH2 0x235D PUSH2 0x29E5 JUMP JUMPDEST PUSH1 0x20 ADD ADD SWAP1 PUSH1 0x1 PUSH1 0x1 PUSH1 0xF8 SHL SUB NOT AND SWAP1 DUP2 PUSH1 0x0 BYTE SWAP1 MSTORE8 POP PUSH1 0xF PUSH1 0xFB SHL DUP2 PUSH1 0x1 DUP2 MLOAD DUP2 LT PUSH2 0x238C JUMPI PUSH2 0x238C PUSH2 0x29E5 JUMP JUMPDEST PUSH1 0x20 ADD ADD SWAP1 PUSH1 0x1 PUSH1 0x1 PUSH1 0xF8 SHL SUB NOT AND SWAP1 DUP2 PUSH1 0x0 BYTE SWAP1 MSTORE8 POP PUSH1 0x0 PUSH2 0x23B0 DUP5 PUSH1 0x2 PUSH2 0x2934 JUMP JUMPDEST PUSH2 0x23BB SWAP1 PUSH1 0x1 PUSH2 0x2953 JUMP JUMPDEST SWAP1 POP JUMPDEST PUSH1 0x1 DUP2 GT ISZERO PUSH2 0x2433 JUMPI PUSH16 0x181899199A1A9B1B9C1CB0B131B232B3 PUSH1 0x81 SHL DUP6 PUSH1 0xF AND PUSH1 0x10 DUP2 LT PUSH2 0x23EF JUMPI PUSH2 0x23EF PUSH2 0x29E5 JUMP JUMPDEST BYTE PUSH1 0xF8 SHL DUP3 DUP3 DUP2 MLOAD DUP2 LT PUSH2 0x2405 JUMPI PUSH2 0x2405 PUSH2 0x29E5 JUMP JUMPDEST PUSH1 0x20 ADD ADD SWAP1 PUSH1 0x1 PUSH1 0x1 PUSH1 0xF8 SHL SUB NOT AND SWAP1 DUP2 PUSH1 0x0 BYTE SWAP1 MSTORE8 POP PUSH1 0x4 SWAP5 SWAP1 SWAP5 SHR SWAP4 PUSH2 0x242C DUP2 PUSH2 0x2B24 JUMP JUMPDEST SWAP1 POP PUSH2 0x23BE JUMP JUMPDEST POP DUP4 ISZERO PUSH2 0x69A JUMPI PUSH1 0x40 MLOAD PUSH3 0x461BCD PUSH1 0xE5 SHL DUP2 MSTORE PUSH1 0x20 PUSH1 0x4 DUP3 ADD DUP2 SWAP1 MSTORE PUSH1 0x24 DUP3 ADD MSTORE PUSH32 0x537472696E67733A20686578206C656E67746820696E73756666696369656E74 PUSH1 0x44 DUP3 ADD MSTORE PUSH1 0x64 ADD PUSH2 0x6D5 JUMP JUMPDEST PUSH2 0x248C DUP3 DUP3 PUSH2 0x1247 JUMP JUMPDEST ISZERO PUSH2 0x95C JUMPI PUSH1 0x0 DUP3 DUP2 MSTORE PUSH1 0x20 DUP2 DUP2 MSTORE PUSH1 0x40 DUP1 DUP4 KECCAK256 PUSH1 0x1 PUSH1 0x1 PUSH1 0xA0 SHL SUB DUP6 AND DUP1 DUP6 MSTORE SWAP3 MSTORE DUP1 DUP4 KECCAK256 DUP1 SLOAD PUSH1 0xFF NOT AND SWAP1 SSTORE MLOAD CALLER SWAP3 DUP6 SWAP2 PUSH32 0xF6391F5C32D9C69D2A47EA670B442974B53935D1EDC7FD64EB21E047A839171B SWAP2 SWAP1 LOG4 POP POP JUMP JUMPDEST PUSH1 0x0 PUSH2 0x69A DUP4 PUSH1 0x1 PUSH1 0x1 PUSH1 0xA0 SHL SUB DUP5 AND PUSH2 0x253C JUMP JUMPDEST PUSH1 0x0 DUP3 PUSH1 0x0 ADD DUP3 DUP2 SLOAD DUP2 LT PUSH2 0x2513 JUMPI PUSH2 0x2513 PUSH2 0x29E5 JUMP JUMPDEST SWAP1 PUSH1 0x0 MSTORE PUSH1 0x20 PUSH1 0x0 KECCAK256 ADD SLOAD SWAP1 POP SWAP3 SWAP2 POP POP JUMP JUMPDEST PUSH1 0x0 DUP2 DUP4 LT PUSH2 0x2535 JUMPI DUP2 PUSH2 0x69A JUMP JUMPDEST POP SWAP1 SWAP2 SWAP1 POP JUMP JUMPDEST PUSH1 0x0 DUP2 DUP2 MSTORE PUSH1 0x1 DUP4 ADD PUSH1 0x20 MSTORE PUSH1 0x40 DUP2 KECCAK256 SLOAD DUP1 ISZERO PUSH2 0x2625 JUMPI PUSH1 0x0 PUSH2 0x2560 PUSH1 0x1 DUP4 PUSH2 0x2808 JUMP JUMPDEST DUP6 SLOAD SWAP1 SWAP2 POP PUSH1 0x0 SWAP1 PUSH2 0x2574 SWAP1 PUSH1 0x1 SWAP1 PUSH2 0x2808 JUMP JUMPDEST SWAP1 POP DUP2 DUP2 EQ PUSH2 0x25D9 JUMPI PUSH1 0x0 DUP7 PUSH1 0x0 ADD DUP3 DUP2 SLOAD DUP2 LT PUSH2 0x2594 JUMPI PUSH2 0x2594 PUSH2 0x29E5 JUMP JUMPDEST SWAP1 PUSH1 0x0 MSTORE PUSH1 0x20 PUSH1 0x0 KECCAK256 ADD SLOAD SWAP1 POP DUP1 DUP8 PUSH1 0x0 ADD DUP5 DUP2 SLOAD DUP2 LT PUSH2 0x25B7 JUMPI PUSH2 0x25B7 PUSH2 0x29E5 JUMP JUMPDEST PUSH1 0x0 SWAP2 DUP3 MSTORE PUSH1 0x20 DUP1 DUP4 KECCAK256 SWAP1 SWAP2 ADD SWAP3 SWAP1 SWAP3 SSTORE SWAP2 DUP3 MSTORE PUSH1 0x1 DUP9 ADD SWAP1 MSTORE PUSH1 0x40 SWAP1 KECCAK256 DUP4 SWAP1 SSTORE JUMPDEST DUP6 SLOAD DUP7 SWAP1 DUP1 PUSH2 0x25EA JUMPI PUSH2 0x25EA PUSH2 0x2B3B JUMP JUMPDEST PUSH1 0x1 SWAP1 SUB DUP2 DUP2 SWAP1 PUSH1 0x0 MSTORE PUSH1 0x20 PUSH1 0x0 KECCAK256 ADD PUSH1 0x0 SWAP1 SSTORE SWAP1 SSTORE DUP6 PUSH1 0x1 ADD PUSH1 0x0 DUP7 DUP2 MSTORE PUSH1 0x20 ADD SWAP1 DUP2 MSTORE PUSH1 0x20 ADD PUSH1 0x0 KECCAK256 PUSH1 0x0 SWAP1 SSTORE PUSH1 0x1 SWAP4 POP POP POP POP PUSH2 0x61F JUMP JUMPDEST PUSH1 0x0 SWAP2 POP POP PUSH2 0x61F JUMP JUMPDEST PUSH1 0x0 PUSH1 0x20 DUP3 DUP5 SUB SLT ISZERO PUSH2 0x2641 JUMPI PUSH1 0x0 DUP1 REVERT JUMPDEST DUP2 CALLDATALOAD PUSH1 0x1 PUSH1 0x1 PUSH1 0xE0 SHL SUB NOT DUP2 AND DUP2 EQ PUSH2 0x69A JUMPI PUSH1 0x0 DUP1 REVERT JUMPDEST DUP1 CALLDATALOAD PUSH1 0x1 PUSH1 0x1 PUSH1 0xA0 SHL SUB DUP2 AND DUP2 EQ PUSH2 0x17B4 JUMPI PUSH1 0x0 DUP1 REVERT JUMPDEST PUSH1 0x0 PUSH1 0x20 DUP3 DUP5 SUB SLT ISZERO PUSH2 0x2682 JUMPI PUSH1 0x0 DUP1 REVERT JUMPDEST PUSH2 0x69A DUP3 PUSH2 0x2659 JUMP JUMPDEST PUSH1 0x0 PUSH1 0x20 DUP3 DUP5 SUB SLT ISZERO PUSH2 0x269D JUMPI PUSH1 0x0 DUP1 REVERT JUMPDEST POP CALLDATALOAD SWAP2 SWAP1 POP JUMP JUMPDEST PUSH1 0x0 DUP1 PUSH1 0x0 PUSH1 0x60 DUP5 DUP7 SUB SLT ISZERO PUSH2 0x26B9 JUMPI PUSH1 0x0 DUP1 REVERT JUMPDEST PUSH2 0x26C2 DUP5 PUSH2 0x2659 JUMP JUMPDEST SWAP3 POP PUSH2 0x26D0 PUSH1 0x20 DUP6 ADD PUSH2 0x2659 JUMP JUMPDEST SWAP2 POP PUSH1 0x40 DUP5 ADD CALLDATALOAD SWAP1 POP SWAP3 POP SWAP3 POP SWAP3 JUMP JUMPDEST PUSH1 0x0 DUP1 PUSH1 0x40 DUP4 DUP6 SUB SLT ISZERO PUSH2 0x26F3 JUMPI PUSH1 0x0 DUP1 REVERT JUMPDEST DUP3 CALLDATALOAD SWAP2 POP PUSH2 0x2703 PUSH1 0x20 DUP5 ADD PUSH2 0x2659 JUMP JUMPDEST SWAP1 POP SWAP3 POP SWAP3 SWAP1 POP JUMP JUMPDEST PUSH1 0x0 DUP1 PUSH1 0x0 DUP1 PUSH1 0x0 PUSH1 0xA0 DUP7 DUP9 SUB SLT ISZERO PUSH2 0x2724 JUMPI PUSH1 0x0 DUP1 REVERT JUMPDEST PUSH2 0x272D DUP7 PUSH2 0x2659 JUMP JUMPDEST SWAP5 POP PUSH2 0x273B PUSH1 0x20 DUP8 ADD PUSH2 0x2659 JUMP JUMPDEST SWAP5 SWAP8 SWAP5 SWAP7 POP POP POP POP PUSH1 0x40 DUP4 ADD CALLDATALOAD SWAP3 PUSH1 0x60 DUP2 ADD CALLDATALOAD SWAP3 PUSH1 0x80 SWAP1 SWAP2 ADD CALLDATALOAD SWAP2 POP JUMP JUMPDEST PUSH1 0x0 DUP1 PUSH1 0x40 DUP4 DUP6 SUB SLT ISZERO PUSH2 0x276C JUMPI PUSH1 0x0 DUP1 REVERT JUMPDEST POP POP DUP1 CALLDATALOAD SWAP3 PUSH1 0x20 SWAP1 SWAP2 ADD CALLDATALOAD SWAP2 POP JUMP JUMPDEST PUSH1 0x0 DUP1 PUSH1 0x40 DUP4 DUP6 SUB SLT ISZERO PUSH2 0x278E JUMPI PUSH1 0x0 DUP1 REVERT JUMPDEST PUSH2 0x2797 DUP4 PUSH2 0x2659 JUMP JUMPDEST SWAP5 PUSH1 0x20 SWAP4 SWAP1 SWAP4 ADD CALLDATALOAD SWAP4 POP POP POP JUMP JUMPDEST PUSH1 0x20 DUP1 DUP3 MSTORE DUP3 MLOAD DUP3 DUP3 ADD DUP2 SWAP1 MSTORE PUSH1 0x0 SWAP2 SWAP1 DUP5 DUP3 ADD SWAP1 PUSH1 0x40 DUP6 ADD SWAP1 DUP5 JUMPDEST DUP2 DUP2 LT ISZERO PUSH2 0x27E6 JUMPI DUP4 MLOAD PUSH1 0x1 PUSH1 0x1 PUSH1 0xA0 SHL SUB AND DUP4 MSTORE SWAP3 DUP5 ADD SWAP3 SWAP2 DUP5 ADD SWAP2 PUSH1 0x1 ADD PUSH2 0x27C1 JUMP JUMPDEST POP SWAP1 SWAP7 SWAP6 POP POP POP POP POP POP JUMP JUMPDEST PUSH4 0x4E487B71 PUSH1 0xE0 SHL PUSH1 0x0 MSTORE PUSH1 0x11 PUSH1 0x4 MSTORE PUSH1 0x24 PUSH1 0x0 REVERT JUMPDEST PUSH1 0x0 DUP3 DUP3 LT ISZERO PUSH2 0x281A JUMPI PUSH2 0x281A PUSH2 0x27F2 JUMP JUMPDEST POP SUB SWAP1 JUMP JUMPDEST PUSH1 0x1 DUP2 DUP2 JUMPDEST DUP1 DUP6 GT ISZERO PUSH2 0x285A JUMPI DUP2 PUSH1 0x0 NOT DIV DUP3 GT ISZERO PUSH2 0x2840 JUMPI PUSH2 0x2840 PUSH2 0x27F2 JUMP JUMPDEST DUP1 DUP6 AND ISZERO PUSH2 0x284D JUMPI SWAP2 DUP2 MUL SWAP2 JUMPDEST SWAP4 DUP5 SHR SWAP4 SWAP1 DUP1 MUL SWAP1 PUSH2 0x2824 JUMP JUMPDEST POP SWAP3 POP SWAP3 SWAP1 POP JUMP JUMPDEST PUSH1 0x0 DUP3 PUSH2 0x2871 JUMPI POP PUSH1 0x1 PUSH2 0x61F JUMP JUMPDEST DUP2 PUSH2 0x287E JUMPI POP PUSH1 0x0 PUSH2 0x61F JUMP JUMPDEST DUP2 PUSH1 0x1 DUP2 EQ PUSH2 0x2894 JUMPI PUSH1 0x2 DUP2 EQ PUSH2 0x289E JUMPI PUSH2 0x28BA JUMP JUMPDEST PUSH1 0x1 SWAP2 POP POP PUSH2 0x61F JUMP JUMPDEST PUSH1 0xFF DUP5 GT ISZERO PUSH2 0x28AF JUMPI PUSH2 0x28AF PUSH2 0x27F2 JUMP JUMPDEST POP POP PUSH1 0x1 DUP3 SHL PUSH2 0x61F JUMP JUMPDEST POP PUSH1 0x20 DUP4 LT PUSH2 0x133 DUP4 LT AND PUSH1 0x4E DUP5 LT PUSH1 0xB DUP5 LT AND OR ISZERO PUSH2 0x28DD JUMPI POP DUP2 DUP2 EXP PUSH2 0x61F JUMP JUMPDEST PUSH2 0x28E7 DUP4 DUP4 PUSH2 0x281F JUMP JUMPDEST DUP1 PUSH1 0x0 NOT DIV DUP3 GT ISZERO PUSH2 0x28FB JUMPI PUSH2 0x28FB PUSH2 0x27F2 JUMP JUMPDEST MUL SWAP4 SWAP3 POP POP POP JUMP JUMPDEST PUSH1 0x0 PUSH2 0x69A PUSH1 0xFF DUP5 AND DUP4 PUSH2 0x2862 JUMP JUMPDEST PUSH1 0x0 DUP3 PUSH2 0x292F JUMPI PUSH4 0x4E487B71 PUSH1 0xE0 SHL PUSH1 0x0 MSTORE PUSH1 0x12 PUSH1 0x4 MSTORE PUSH1 0x24 PUSH1 0x0 REVERT JUMPDEST POP DIV SWAP1 JUMP JUMPDEST PUSH1 0x0 DUP2 PUSH1 0x0 NOT DIV DUP4 GT DUP3 ISZERO ISZERO AND ISZERO PUSH2 0x294E JUMPI PUSH2 0x294E PUSH2 0x27F2 JUMP JUMPDEST POP MUL SWAP1 JUMP JUMPDEST PUSH1 0x0 DUP3 NOT DUP3 GT ISZERO PUSH2 0x2966 JUMPI PUSH2 0x2966 PUSH2 0x27F2 JUMP JUMPDEST POP ADD SWAP1 JUMP JUMPDEST PUSH1 0x20 DUP1 DUP3 MSTORE PUSH1 0x14 SWAP1 DUP3 ADD MSTORE PUSH20 0x6D75737420686176652061646D696E20726F6C65 PUSH1 0x60 SHL PUSH1 0x40 DUP3 ADD MSTORE PUSH1 0x60 ADD SWAP1 JUMP JUMPDEST PUSH1 0x0 PUSH1 0x20 DUP3 DUP5 SUB SLT ISZERO PUSH2 0x29AB JUMPI PUSH1 0x0 DUP1 REVERT JUMPDEST DUP2 MLOAD DUP1 ISZERO ISZERO DUP2 EQ PUSH2 0x69A JUMPI PUSH1 0x0 DUP1 REVERT JUMPDEST PUSH1 0x1 PUSH1 0x1 PUSH1 0xA0 SHL SUB SWAP5 DUP6 AND DUP2 MSTORE SWAP3 DUP5 AND PUSH1 0x20 DUP5 ADD MSTORE SWAP3 AND PUSH1 0x40 DUP3 ADD MSTORE PUSH1 0x60 DUP2 ADD SWAP2 SWAP1 SWAP2 MSTORE PUSH1 0x80 ADD SWAP1 JUMP JUMPDEST PUSH4 0x4E487B71 PUSH1 0xE0 SHL PUSH1 0x0 MSTORE PUSH1 0x32 PUSH1 0x4 MSTORE PUSH1 0x24 PUSH1 0x0 REVERT JUMPDEST PUSH1 0x0 PUSH1 0x20 DUP3 DUP5 SUB SLT ISZERO PUSH2 0x2A0D JUMPI PUSH1 0x0 DUP1 REVERT JUMPDEST POP MLOAD SWAP2 SWAP1 POP JUMP JUMPDEST PUSH1 0x0 PUSH2 0xFFFF DUP1 DUP4 AND DUP2 DUP2 EQ ISZERO PUSH2 0x2A2C JUMPI PUSH2 0x2A2C PUSH2 0x27F2 JUMP JUMPDEST PUSH1 0x1 ADD SWAP4 SWAP3 POP POP POP JUMP JUMPDEST PUSH1 0x0 JUMPDEST DUP4 DUP2 LT ISZERO PUSH2 0x2A51 JUMPI DUP2 DUP2 ADD MLOAD DUP4 DUP3 ADD MSTORE PUSH1 0x20 ADD PUSH2 0x2A39 JUMP JUMPDEST DUP4 DUP2 GT ISZERO PUSH2 0x2A60 JUMPI PUSH1 0x0 DUP5 DUP5 ADD MSTORE JUMPDEST POP POP POP POP JUMP JUMPDEST PUSH32 0x416363657373436F6E74726F6C3A206163636F756E7420000000000000000000 DUP2 MSTORE PUSH1 0x0 DUP4 MLOAD PUSH2 0x2A9E DUP2 PUSH1 0x17 DUP6 ADD PUSH1 0x20 DUP9 ADD PUSH2 0x2A36 JUMP JUMPDEST PUSH17 0x1034B99036B4B9B9B4B733903937B6329 PUSH1 0x7D SHL PUSH1 0x17 SWAP2 DUP5 ADD SWAP2 DUP3 ADD MSTORE DUP4 MLOAD PUSH2 0x2ACF DUP2 PUSH1 0x28 DUP5 ADD PUSH1 0x20 DUP9 ADD PUSH2 0x2A36 JUMP JUMPDEST ADD PUSH1 0x28 ADD SWAP5 SWAP4 POP POP POP POP JUMP JUMPDEST PUSH1 0x20 DUP2 MSTORE PUSH1 0x0 DUP3 MLOAD DUP1 PUSH1 0x20 DUP5 ADD MSTORE PUSH2 0x2AFA DUP2 PUSH1 0x40 DUP6 ADD PUSH1 0x20 DUP8 ADD PUSH2 0x2A36 JUMP JUMPDEST PUSH1 0x1F ADD PUSH1 0x1F NOT AND SWAP2 SWAP1 SWAP2 ADD PUSH1 0x40 ADD SWAP3 SWAP2 POP POP JUMP JUMPDEST PUSH4 0x4E487B71 PUSH1 0xE0 SHL PUSH1 0x0 MSTORE PUSH1 0x41 PUSH1 0x4 MSTORE PUSH1 0x24 PUSH1 0x0 REVERT JUMPDEST PUSH1 0x0 DUP2 PUSH2 0x2B33 JUMPI PUSH2 0x2B33 PUSH2 0x27F2 JUMP JUMPDEST POP PUSH1 0x0 NOT ADD SWAP1 JUMP JUMPDEST PUSH4 0x4E487B71 PUSH1 0xE0 SHL PUSH1 0x0 MSTORE PUSH1 0x31 PUSH1 0x4 MSTORE PUSH1 0x24 PUSH1 0x0 REVERT INVALID PUSH19 0x4DD111D8B4C66B0043D7E6EB223C3A7567EC16 COINBASE GT 0xE PUSH14 0x5A71CB0DC7FFAF70A49807205CE4 0xD3 SSTORE MULMOD 0x2E CREATE2 0xA8 LOG1 DUP16 JUMP 0xE8 SWAP2 EXTCODECOPY DELEGATECALL LOG2 ADD 0xFB 0xE2 DUP8 DUP3 JUMPDEST MULMOD JUMP SWAP4 0xC2 OR PUSH22 0xA264697066735822122036A86F6E620D75D834BBDD0E SWAP5 SDIV REVERT 0xF8 MSIZE 0xF8 0xAE CALLDATALOAD 0x4E 0xCC PUSH31 0xC4CB941B8B099F551664736F6C634300080B00330000000000000000000000 ",
  "sha1": "0e508b13615c95b231990b2818cb39cc656febf9",
  "source": "// SPDX-License-Identifier: MIT\n\npragma solidity ^0.8.0;\n\nimport \"@openzeppelin/contracts/utils/math/SafeMath.sol\";\nimport \"@openzeppelin/contracts/token/ERC20/IERC20.sol\";\nimport \"@openzeppelin/contracts/access/AccessControlEnumerable.sol\";\nimport \"./Conversion.sol\";\nimport \"./Uniswap.sol\";\nimport \"./Math.sol\";\n\ncontract Pool is AccessControlEnumerable {\n    using SafeMath for uint256;\n    using Math for uint256;\n\n    event poolTransferEvent(\n        address _from,\n        address _to,\n        address _asset,\n        uint256 _quantity\n    );\n\n    struct ReserveStruct {\n        //interest payments\n        uint256 interestQty;\n        // liquid quantity\n        uint256 LiqQty;\n        // borrowed quantity\n        uint256 BorQty;\n        //reserve quantity\n        uint256 ResQty;\n    }\n    //map asset to structure of balances\n    mapping(address => ReserveStruct) liquidity;\n\n    address[] supportedAssets;\n\n    // careful of decimals\n    uint256 reserveReq;\n\n    bytes32 public constant ADMIN_ROLE = keccak256(\"ADMIN_ROLE\");\n\n    Conversion conversion;\n    Uniswap uniswap;\n\n    address public constant DAI = 0x5592EC0cfb4dbc12D3aB100b257153436a1f0FEa;\n    address public constant WETH = 0xc778417E063141139Fce010982780140Aa0cD5Ab;\n    address public constant LINK = 0x01BE23585060835E02B77ef475b0Cc51aA1e0709;\n\n    constructor() {\n        // address WETH = 0xc778417E063141139Fce010982780140Aa0cD5Ab;\n        // address LINK = 0x01BE23585060835E02B77ef475b0Cc51aA1e0709;\n        // address DAI = 0x5592EC0cfb4dbc12D3aB100b257153436a1f0FEa;\n\n        liquidity[LINK] = ReserveStruct(0, 0, 0, 0);\n        supportedAssets.push(LINK);\n        liquidity[DAI] = ReserveStruct(0, 0, 0, 0);\n        supportedAssets.push(DAI);\n        liquidity[WETH] = ReserveStruct(0, 0, 0, 0);\n        supportedAssets.push(WETH);\n\n        conversion = new Conversion();\n        uniswap = new Uniswap();\n\n        _setupRole(ADMIN_ROLE, msg.sender);\n        _setupRole(ADMIN_ROLE, address(this));\n    }\n\n    modifier onlyOwner() {\n        require(hasRole(ADMIN_ROLE, msg.sender), \"must have admin role\");\n        _;\n    }\n\n    function addOwner(address newOwner) public onlyOwner {\n        _setupRole(ADMIN_ROLE, newOwner);\n    }\n\n    //update struct with new tokens\n    function addSupportedAsset(address _assetContractAddress) public onlyOwner {\n        liquidity[_assetContractAddress] = ReserveStruct(0, 0, 0, 0);\n        supportedAssets.push(_assetContractAddress);\n    }\n\n    /// @notice 80% goes to liquidity, 20% goes to reserve\n    /// @dev The calling address must approve this contract to spend at least `_quantity` worth of its asset for this function to succeed.\n    /// @param _quantity The amount of asset to be deposited.\n    /// @param _asset The asset to be desposited.\n    /// @param _owner The address where asset comes from\n    function depositTransfer(\n        address _owner,\n        address _asset,\n        uint256 _quantity\n    ) public onlyOwner {\n        IERC20(_asset).transferFrom(_owner, address(this), _quantity);\n        liquidity[_asset].LiqQty += ((8 * 10**17) * _quantity) / (10**18);\n        liquidity[_asset].ResQty += ((2 * 10**17) * _quantity) / (10**18);\n        emit poolTransferEvent(_owner, address(this), _asset, _quantity);\n    }\n\n    /// @notice repay goes to interest first, then principal\n    /// @notice function receives repayment and updates borrow, liquid , interest amounts\n    /// @dev The calling address must approve this contract to spend at least `_quantity` worth of its asset for this function to succeed.\n    /// @param _quantity The amount of loan to be repayed.\n    /// @param _asset The asset loan to be repayed.\n    /// @param _owner The address where asset comes from\n    /// @param _principalPortion how much of repayment goes to principal\n    /// @param _interestPortion how much of repayment goes to interest\n    function repayTransfer(\n        address _owner,\n        address _asset,\n        uint256 _quantity,\n        uint256 _principalPortion,\n        uint256 _interestPortion\n    ) public onlyOwner {\n        IERC20(_asset).transferFrom(_owner, address(this), _quantity);\n        liquidity[_asset].LiqQty += _principalPortion;\n        liquidity[_asset].BorQty -= _principalPortion; // only subtract principal portion from intital loan quantity\n        liquidity[_asset].interestQty += ((9 * _interestPortion) / 10); // 10% of interest is fee, so only .9 goes to pool\n        emit poolTransferEvent(_owner, address(this), _asset, _quantity);\n    }\n\n    /// @notice transfer a loan to a user\n    /// @param _quantity The amount of loan to be payed.\n    /// @param _asset The asset to be loaned\n    /// @param _borrower The address borrowing\n    function borrowTransfer(\n        address _borrower,\n        address _asset,\n        uint256 _quantity\n    ) public onlyOwner {\n        IERC20(_asset).transfer(_borrower, _quantity);\n        (liquidity[_asset].LiqQty -= _quantity);\n        (liquidity[_asset].BorQty += _quantity);\n        emit poolTransferEvent(address(this), _borrower, _asset, _quantity);\n    }\n\n    /// @notice In the case of not enough liquidity or user didnt lend asset, user reserve to pay out redeem\n    /// @notice If there is not enough in reserve,  swap other assets for desired asset\n    /// @param _quantity The amount of deposit to be redeemed.\n    /// @param _asset The asset to be redeemed for.\n    /// @param _user The address where LEVR comes from\n    function reserveWithdrawTransfer(\n        address _user,\n        address _asset,\n        uint256 _quantity\n    ) public onlyOwner {\n        // Note HERE: swap if reserve not liquid enough\n        if (liquidity[_asset].ResQty < _quantity) {\n            //swap and add that to ResQty\n            //fee for swapping: return 99% of value?\n            uint256 swappedRatio = uniswapRebalanceInteraction(\n                _asset,\n                (_quantity - liquidity[_asset].ResQty)\n            );\n            swappedRatio = minimum(swappedRatio, 1 * 10**18);\n            _quantity = (_quantity * swappedRatio) / (1 * 10**18);\n        }\n\n        (liquidity[_asset].ResQty -= minimum(\n            _quantity,\n            liquidity[_asset].ResQty\n        )); //-= _quantity); // problem b/c then user might not be getting what they want?\n        IERC20(_asset).transfer(_user, _quantity);\n        balanceReserves(_asset);\n        emit poolTransferEvent(address(this), _user, _asset, _quantity);\n    }\n\n    /// @notice pay out an asset when a user redeems LEVR\n    /// @param _quantity The amount of deposit to be redeemed.\n    /// @param _asset The asset to be redeemed for.\n    /// @param _user The address where LEVR comes from\n    function withdrawTransfer(\n        address _user,\n        address _asset,\n        uint256 _quantity\n    ) public onlyOwner {\n        (liquidity[_asset].LiqQty -= _quantity); // remove from liquid pool\n        IERC20(_asset).transfer(_user, _quantity); // transfer ownership of desired currency\n        //balanceReserves(_asset);\n        emit poolTransferEvent(address(this), _user, _asset, _quantity);\n    }\n\n    /// @notice keeps reserves at 20% of total asset pool\n    /// @param _asset asset pool to balance\n    function balanceReserves(address _asset) public onlyOwner {\n        //need to make sure there is enough liquid when transfering back to reserve\n        uint256 properBalance = ((2 * 10**17) *\n            (liquidity[_asset].LiqQty +\n                liquidity[_asset].ResQty +\n                liquidity[_asset].BorQty)) / (10**18); // correct 20% ratio\n\n        if (liquidity[_asset].ResQty > properBalance) {\n            liquidity[_asset].LiqQty += (liquidity[_asset].ResQty -\n                properBalance);\n            liquidity[_asset].ResQty -= (liquidity[_asset].ResQty -\n                properBalance);\n        } else if (liquidity[_asset].ResQty < properBalance) {\n            if (\n                // make sure enough liquid to move to reserve\n                liquidity[_asset].LiqQty >=\n                (properBalance - liquidity[_asset].ResQty)\n            ) {\n                liquidity[_asset].LiqQty -= (properBalance -\n                    liquidity[_asset].ResQty);\n                liquidity[_asset].ResQty += (properBalance -\n                    liquidity[_asset].ResQty);\n            }\n        }\n    }\n\n    /// @notice update recieved collateral from collateral contract default\n    function recieveDefaultCollateral(address _asset, uint256 _quantity)\n        public\n        onlyOwner\n    {\n        liquidity[_asset].ResQty += (98 * _quantity) / 100;\n        // 2% of default is taken as fee\n    }\n\n    /// @notice if user defaults, need to put interest payment and liquidity back into pool where they took from\n    function replenishPoolOnDefault(address _asset, uint256 _quantity)\n        public\n        onlyOwner\n    {\n        //Note: also swap here if reserve is too low to move this _quantity\n        if (liquidity[_asset].ResQty < _quantity) {\n            //swap\n            //fee for swapping: return 99% of value?\n            uint256 swappedRatio = uniswapRebalanceInteraction(\n                _asset,\n                (_quantity - liquidity[_asset].ResQty)\n            );\n            _quantity = (_quantity * swappedRatio) / (1 * 10**18);\n        }\n        liquidity[_asset].ResQty -= _quantity;\n\n        liquidity[_asset].LiqQty += (95 * _quantity) / 100;\n        liquidity[_asset].interestQty += ((5 * _quantity) / 100);\n    }\n\n    /// @notice swap for asset if not enough in contract\n    /// @param _asset the asset we want to swap for\n    /// @param _quantity amount of _aaset to send for swap\n    function uniswapRebalanceInteraction(address _asset, uint256 _quantity)\n        public\n        onlyOwner\n        returns (uint256)\n    {\n        /* NOTE: must be able to pull all if they have all (in theory), but only pull from other assets\n         * swap as needed- if someone wants to withdraw any currency, make sure there is enough in reserve\n         * if not swap the reserves+liquid to fill required amount of desired asset\n\n         * USD requested asset\n         * USD total res+liq \n         * ratio: r1 = ((USD requested asset)*10**18)/(USD total reserves+LiqQty)\n         * loop through all assets multiply ResQty,LiqQty by (1-r1); swap r1*(resQty+LiqQty) for _asset\n         */\n        uint256 assetPrice = conversion.getPrice(_asset);\n        uint256 requestedAssetUSD = (assetPrice * _quantity) / (10**18);\n        //uint256 totalAvailableUSD = getWithdrawableUSD();\n        uint256 pullRatio = minimum(\n            (requestedAssetUSD * (1 * 10**18)) /\n                (getWithdrawableUSD() -\n                    (liquidity[_asset].ResQty * assetPrice)),\n            1 * 10**18\n        ); //minium of this and 1?\n        //uint256 numberAddresses = supportedAssets.length; //uint16?\n        uint256 totalSwappedQuantity = 0;\n        for (uint16 i = 0; i < supportedAssets.length; i++) {\n            // stack too deep error made me comment out a few of these\n            address asset = supportedAssets[i];\n            uint256 balance = (liquidity[asset].LiqQty +\n                liquidity[asset].ResQty);\n            uint256 amountIn = ((pullRatio * balance) / (1 * 10**18));\n\n            IERC20(asset).approve(address(uniswap), amountIn);\n\n            if ((_asset == WETH) && (_asset != asset) && (balance > 10**9)) {\n                uint256 swappedQuantity = uniswap.swapExactInputSingleOutWETH(\n                    asset,\n                    amountIn\n                );\n\n                totalSwappedQuantity += swappedQuantity;\n            } else if (\n                (asset == WETH) && (asset != _asset) && (balance > 10**9)\n            ) {\n                uint256 swappedQuantity = uniswap.swapExactInputSingleInWETH(\n                    amountIn,\n                    _asset\n                );\n\n                totalSwappedQuantity += swappedQuantity;\n            } else if ((asset != _asset) && ((balance) > 10**9)) {\n                //takes _assetIn, _amountIn, _assetOut\n                uint256 swappedQuantity = uniswap.swapExactInputMultihop(\n                    asset,\n                    amountIn,\n                    _asset\n                );\n\n                totalSwappedQuantity += swappedQuantity;\n            }\n        }\n        //move proportional liqudity in desired _asset liquid pool to reserve pool\n        liquidity[_asset].ResQty +=\n            (liquidity[_asset].LiqQty * (pullRatio)) /\n            (10**18);\n        liquidity[_asset].LiqQty =\n            (liquidity[_asset].LiqQty * (1 * 10**18 - pullRatio)) /\n            (10**18);\n\n        liquidity[_asset].ResQty += totalSwappedQuantity;\n        // return ratio so we know what to send to user with a possible tiny built in fee: (USD amount of swapped asset) / (USD amount intended of asset)\n        return (totalSwappedQuantity * assetPrice) / (requestedAssetUSD);\n    }\n\n    function getLiquidQuantity(address _asset) public view returns (uint256) {\n        return liquidity[_asset].LiqQty;\n    }\n\n    function getBorrowQuantity(address _asset) public view returns (uint256) {\n        return liquidity[_asset].BorQty;\n    }\n\n    function getReserveQuantity(address _asset) public view returns (uint256) {\n        return liquidity[_asset].ResQty;\n    }\n\n    function getInterestQuantity(address _asset) public view returns (uint256) {\n        return liquidity[_asset].interestQty;\n    }\n\n    /// @notice function that shows annual interest rates\n    /// @param _asset The asset we want the rate  of\n    function annualBorrowInterestRate(address _asset)\n        public\n        view\n        returns (uint256)\n    {\n        uint256 UtilizationRate = 1 * 10**18 - getLiquidPct(_asset);\n        return ((15 * 10**15) +\n            ((8 * ((UtilizationRate**4) / (10**18)**2)) / (10**20)));\n    }\n\n    /// @notice function that shows annual lend interest rates\n    /// @param _asset The asset we want the rate  of\n    function annualLendInterestRate(\n        address _asset,\n        uint256 timeOfLastTransaction\n    ) public view returns (uint256) {\n        uint256 APR = (liquidity[_asset].BorQty *\n            annualBorrowInterestRate(_asset)) /\n            (liquidity[_asset].LiqQty +\n                liquidity[_asset].ResQty +\n                liquidity[_asset].BorQty);\n\n        return APR;\n    }\n\n    /// @notice transfer fees to owner\n    function transferFees(address contractOwner) public onlyOwner {\n        /*\n         * loop through each assset:\n         * difference of pool -  (pool interst+ reserve+liquid) is fee amount\n         * transfer that to owner\n         */\n        uint256 numberAddresses = supportedAssets.length;\n        //loop to calculate the value of the pool liquid + borrowed\n        for (uint16 i = 0; i < numberAddresses; i++) {\n            address asset = supportedAssets[i];\n\n            uint256 feeQuantity = IERC20(asset).balanceOf(address(this)) -\n                (liquidity[asset].LiqQty +\n                    liquidity[asset].ResQty +\n                    liquidity[asset].interestQty);\n\n            IERC20(asset).transfer(contractOwner, feeQuantity);\n        }\n    }\n\n    /// @notice interest using time between each transaction\n    function InterestRate(address _asset, uint256 timeOfLastTransaction)\n        public\n        view\n        returns (uint256)\n    {\n        uint256 UtilizationRate = 1 * 10**18 - getLiquidPct(_asset);\n        uint256 timeDelta = ((block.timestamp) - timeOfLastTransaction);\n        return\n            (timeDelta *\n                ((15 * 10**15) +\n                    ((8 * ((UtilizationRate**4) / (10**18)**2)) / (10**20)))) /\n            (31556952); // seconds since last interest accruel * seconds per year\n    }\n\n    /// @notice function that shows how much assets can be removed in USD\n    function getWithdrawableUSD() public view returns (uint256) {\n        uint256 totalWithdrawableValue = 0;\n\n        // make this less bits?\n        uint256 numberAddresses = supportedAssets.length;\n        //loop to calculate the value of the pool liquid + borrowed\n        for (uint16 i = 0; i < numberAddresses; i++) {\n            address asset = supportedAssets[i];\n\n            totalWithdrawableValue += (((liquidity[asset].LiqQty +\n                liquidity[asset].ResQty) * conversion.getPrice(asset)) /\n                (1 * 10**18));\n        }\n        return totalWithdrawableValue;\n    }\n\n    /// @notice function that shows total pool USD value\n    function getTotalPool() public view returns (uint256) {\n        uint256 totalPoolValue = 0;\n\n        // make this less bits?\n        uint256 numberAddresses = supportedAssets.length;\n        //loop to calculate the value of the pool liquid + borrowed\n        for (uint16 i = 0; i < numberAddresses; i++) {\n            address asset = supportedAssets[i];\n\n            totalPoolValue += (((liquidity[asset].LiqQty +\n                liquidity[asset].BorQty +\n                liquidity[asset].ResQty) * conversion.getPrice(asset)) /\n                (1 * 10**18));\n        }\n        return totalPoolValue;\n    }\n\n    function resetInterest(address _asset) public onlyOwner {\n        liquidity[_asset].LiqQty += liquidity[_asset].interestQty;\n        liquidity[_asset].interestQty = 0;\n    }\n\n    function getLiquidPct(address _asset) public view returns (uint256) {\n        if (liquidity[_asset].LiqQty > 0 || liquidity[_asset].BorQty > 0) {\n            return\n                (liquidity[_asset].LiqQty * (1 * 10**18)) /\n                (liquidity[_asset].LiqQty + liquidity[_asset].BorQty);\n        } else {\n            return 1 * 10**18;\n        }\n    }\n\n    function getBalance(address _assetAddress) public view returns (uint256) {\n        return IERC20(_assetAddress).balanceOf(address(this));\n    }\n\n    function assetsSupported() public view returns (address[] memory) {\n        return supportedAssets;\n    }\n\n    function getTotalLend(address _asset) public view returns (uint256) {\n        return (liquidity[_asset].LiqQty +\n            liquidity[_asset].BorQty +\n            liquidity[_asset].ResQty);\n    }\n\n    function totalInterest(address _asset) public view returns (uint256) {\n        return liquidity[_asset].interestQty;\n    }\n\n    function getTimeDelta(uint256 oldTimeStamp) public view returns (uint256) {\n        return ((block.timestamp) - oldTimeStamp);\n    }\n\n    function minimum(uint256 a, uint256 b) internal pure returns (uint256) {\n        return a.min(b);\n    }\n}\n",
  "sourcePath": "contracts/Pool.sol",
  "type": "contract"
}