{
  "abi": [
    {
      "inputs": [],
      "stateMutability": "nonpayable",
      "type": "constructor"
    },
    {
      "inputs": [],
      "name": "DAI",
      "outputs": [
        {
          "internalType": "address",
          "name": "",
          "type": "address"
        }
      ],
      "stateMutability": "view",
      "type": "function"
    },
    {
      "inputs": [],
      "name": "LINK",
      "outputs": [
        {
          "internalType": "address",
          "name": "",
          "type": "address"
        }
      ],
      "stateMutability": "view",
      "type": "function"
    },
    {
      "inputs": [],
      "name": "WETH",
      "outputs": [
        {
          "internalType": "address",
          "name": "",
          "type": "address"
        }
      ],
      "stateMutability": "view",
      "type": "function"
    },
    {
      "inputs": [],
      "name": "poolFee",
      "outputs": [
        {
          "internalType": "uint24",
          "name": "",
          "type": "uint24"
        }
      ],
      "stateMutability": "view",
      "type": "function"
    },
    {
      "inputs": [
        {
          "internalType": "address",
          "name": "_assetIn",
          "type": "address"
        },
        {
          "internalType": "uint256",
          "name": "_amountIn",
          "type": "uint256"
        },
        {
          "internalType": "address",
          "name": "_assetOut",
          "type": "address"
        }
      ],
      "name": "swapExactInputMultihop",
      "outputs": [
        {
          "internalType": "uint256",
          "name": "amountOut",
          "type": "uint256"
        }
      ],
      "stateMutability": "nonpayable",
      "type": "function"
    },
    {
      "inputs": [
        {
          "internalType": "uint256",
          "name": "_amountIn",
          "type": "uint256"
        },
        {
          "internalType": "address",
          "name": "_assetOut",
          "type": "address"
        }
      ],
      "name": "swapExactInputSingleInWETH",
      "outputs": [
        {
          "internalType": "uint256",
          "name": "amountOut",
          "type": "uint256"
        }
      ],
      "stateMutability": "nonpayable",
      "type": "function"
    },
    {
      "inputs": [
        {
          "internalType": "address",
          "name": "_assetIn",
          "type": "address"
        },
        {
          "internalType": "uint256",
          "name": "_amountIn",
          "type": "uint256"
        }
      ],
      "name": "swapExactInputSingleOutWETH",
      "outputs": [
        {
          "internalType": "uint256",
          "name": "amountOut",
          "type": "uint256"
        }
      ],
      "stateMutability": "nonpayable",
      "type": "function"
    },
    {
      "inputs": [],
      "name": "swapRouter",
      "outputs": [
        {
          "internalType": "contract ISwapRouter",
          "name": "",
          "type": "address"
        }
      ],
      "stateMutability": "view",
      "type": "function"
    }
  ],
  "bytecode": "60a060405234801561001057600080fd5b5073e592427a0aece92de3edee1f18e0157c0586156460805260805161095961006e600039600081816101490152818161019a01528181610254015281816102f1015281816103800152818161043c01526104cb01526109596000f3fe608060405234801561001057600080fd5b50600436106100885760003560e01c80637ecd4d6b1161005b5780637ecd4d6b14610116578063ad5c464814610129578063c31c9c0714610144578063e0bab4c41461016b57600080fd5b8063089fe6aa1461008d5780630ea579b1146100af5780631b6b6d23146100d05780637017284514610103575b600080fd5b610096610bb881565b60405162ffffff90911681526020015b60405180910390f35b6100c26100bd36600461072b565b610186565b6040519081526020016100a6565b6100eb7301be23585060835e02b77ef475b0cc51aa1e070981565b6040516001600160a01b0390911681526020016100a6565b6100c2610111366004610767565b6102dd565b6100c2610124366004610791565b610400565b6100eb73c778417e063141139fce010982780140aa0cd5ab81565b6100eb7f000000000000000000000000000000000000000000000000000000000000000081565b6100eb735592ec0cfb4dbc12d3ab100b257153436a1f0fea81565b600061019484333086610500565b6101bf847f00000000000000000000000000000000000000000000000000000000000000008561060f565b6040805160a081018252606086811b6bffffffffffffffffffffffff1990811660c084015261017760eb1b60d4840181905273c778417e063141139fce010982780140aa0cd5ab60601b60d785015260eb84015285821b1660ee830152825160e28184030181526101028301845282523360208301524282840152810185905260006080820152905163c04b8d5960e01b81527f00000000000000000000000000000000000000000000000000000000000000006001600160a01b03169063c04b8d59906102919084906004016107ed565b6020604051808303816000875af11580156102b0573d6000803e3d6000fd5b505050506040513d601f19601f820116820180604052508101906102d4919061085c565b95945050505050565b60006102eb83333085610500565b610316837f00000000000000000000000000000000000000000000000000000000000000008461060f565b60408051610100810182526001600160a01b03808616825273c778417e063141139fce010982780140aa0cd5ab6020830152610bb88284015233606083015242608083015260a08201859052600060c0830181905260e0830152915163414bf38960e01b815290917f0000000000000000000000000000000000000000000000000000000000000000169063414bf389906103b5908490600401610875565b6020604051808303816000875af11580156103d4573d6000803e3d6000fd5b505050506040513d601f19601f820116820180604052508101906103f8919061085c565b949350505050565b600061042273c778417e063141139fce010982780140aa0cd5ab333086610500565b61046173c778417e063141139fce010982780140aa0cd5ab7f00000000000000000000000000000000000000000000000000000000000000008561060f565b604080516101008101825273c778417e063141139fce010982780140aa0cd5ab81526001600160a01b038481166020830152610bb88284015233606083015242608083015260a08201869052600060c0830181905260e0830152915163414bf38960e01b815290917f0000000000000000000000000000000000000000000000000000000000000000169063414bf389906103b5908490600401610875565b604080516001600160a01b0385811660248301528481166044830152606480830185905283518084039091018152608490920183526020820180516001600160e01b03166323b872dd60e01b179052915160009283929088169161056491906108de565b6000604051808303816000865af19150503d80600081146105a1576040519150601f19603f3d011682016040523d82523d6000602084013e6105a6565b606091505b50915091508180156105d05750805115806105d05750808060200190518101906105d091906108fa565b6106075760405162461bcd60e51b815260206004820152600360248201526229aa2360e91b60448201526064015b60405180910390fd5b505050505050565b604080516001600160a01b038481166024830152604480830185905283518084039091018152606490920183526020820180516001600160e01b031663095ea7b360e01b179052915160009283929087169161066b91906108de565b6000604051808303816000865af19150503d80600081146106a8576040519150601f19603f3d011682016040523d82523d6000602084013e6106ad565b606091505b50915091508180156106d75750805115806106d75750808060200190518101906106d791906108fa565b6107085760405162461bcd60e51b8152602060048201526002602482015261534160f01b60448201526064016105fe565b5050505050565b80356001600160a01b038116811461072657600080fd5b919050565b60008060006060848603121561074057600080fd5b6107498461070f565b92506020840135915061075e6040850161070f565b90509250925092565b6000806040838503121561077a57600080fd5b6107838361070f565b946020939093013593505050565b600080604083850312156107a457600080fd5b823591506107b46020840161070f565b90509250929050565b60005b838110156107d85781810151838201526020016107c0565b838111156107e7576000848401525b50505050565b602081526000825160a0602084015280518060c08501526108158160e08601602085016107bd565b60018060a01b0360208601511660408501526040850151606085015260608501516080850152608085015160a085015260e0601f19601f8301168501019250505092915050565b60006020828403121561086e57600080fd5b5051919050565b81516001600160a01b03908116825260208084015182169083015260408084015162ffffff16908301526060808401518216908301526080808401519083015260a0838101519083015260c0808401519083015260e09283015116918101919091526101000190565b600082516108f08184602087016107bd565b9190910192915050565b60006020828403121561090c57600080fd5b8151801515811461091c57600080fd5b939250505056fea2646970667358221220ada915f2115d9d080c0e2a789ab9297b634e5ba8e6a51e927fa06420d2d08cb264736f6c634300080b0033",
  "bytecodeSha1": "68e6640140b1044a38343aade1792fb257f36f35",
  "compiler": {
    "evm_version": "istanbul",
    "optimizer": {
      "enabled": true,
      "runs": 200
    },
    "version": "0.8.11+commit.d7f03943"
  },
  "contractName": "Uniswap",
  "language": "Solidity",
  "natspec": {
    "kind": "dev",
    "methods": {
      "swapExactInputMultihop(address,uint256,address)": {
        "details": "The calling address must approve this contract to spend at least `amountIn` worth of its DAI for this function to succeed.",
        "notice": "swapInputMultiplePools swaps a fixed amount of one asset for a maximum possible amount of a different asset through an intermediary pool.",
        "params": {
          "_amountIn": "The amount of asset to be swapped.",
          "_assetIn": "The asset to be swapped.",
          "_assetOut": "The _asset to be swapped for."
        },
        "returns": {
          "amountOut": "The amount of WETH9 received after the swap."
        }
      },
      "swapExactInputSingleInWETH(uint256,address)": {
        "details": "The calling address must approve this contract to spend at least `amountIn` worth of its DAI for this function to succeed.",
        "notice": "This function is used when we are swapping WETH for an asset",
        "params": {
          "_amountIn": "The amount of asset to be swapped.",
          "_assetOut": "The _asset to be swapped for."
        },
        "returns": {
          "amountOut": "The amount of WETH9 received after the swap."
        }
      },
      "swapExactInputSingleOutWETH(address,uint256)": {
        "details": "The calling address must approve this contract to spend at least `amountIn` worth of its DAI for this function to succeed.",
        "notice": "this is called to swap an amount of an asset for a miximal amount of WETH",
        "params": {
          "_amountIn": "The amount of asset to be swapped.",
          "_assetIn": "The asset to be swapped."
        },
        "returns": {
          "amountOut": "The amount of WETH9 received after the swap."
        }
      }
    },
    "version": 1
  },
  "opcodes": "PUSH1 0x80 PUSH1 0x40 MSTORE CALLVALUE DUP1 ISZERO PUSH2 0x10 JUMPI PUSH1 0x0 DUP1 REVERT JUMPDEST POP PUSH1 0x4 CALLDATASIZE LT PUSH2 0x88 JUMPI PUSH1 0x0 CALLDATALOAD PUSH1 0xE0 SHR DUP1 PUSH4 0x7ECD4D6B GT PUSH2 0x5B JUMPI DUP1 PUSH4 0x7ECD4D6B EQ PUSH2 0x116 JUMPI DUP1 PUSH4 0xAD5C4648 EQ PUSH2 0x129 JUMPI DUP1 PUSH4 0xC31C9C07 EQ PUSH2 0x144 JUMPI DUP1 PUSH4 0xE0BAB4C4 EQ PUSH2 0x16B JUMPI PUSH1 0x0 DUP1 REVERT JUMPDEST DUP1 PUSH4 0x89FE6AA EQ PUSH2 0x8D JUMPI DUP1 PUSH4 0xEA579B1 EQ PUSH2 0xAF JUMPI DUP1 PUSH4 0x1B6B6D23 EQ PUSH2 0xD0 JUMPI DUP1 PUSH4 0x70172845 EQ PUSH2 0x103 JUMPI JUMPDEST PUSH1 0x0 DUP1 REVERT JUMPDEST PUSH2 0x96 PUSH2 0xBB8 DUP2 JUMP JUMPDEST PUSH1 0x40 MLOAD PUSH3 0xFFFFFF SWAP1 SWAP2 AND DUP2 MSTORE PUSH1 0x20 ADD JUMPDEST PUSH1 0x40 MLOAD DUP1 SWAP2 SUB SWAP1 RETURN JUMPDEST PUSH2 0xC2 PUSH2 0xBD CALLDATASIZE PUSH1 0x4 PUSH2 0x72B JUMP JUMPDEST PUSH2 0x186 JUMP JUMPDEST PUSH1 0x40 MLOAD SWAP1 DUP2 MSTORE PUSH1 0x20 ADD PUSH2 0xA6 JUMP JUMPDEST PUSH2 0xEB PUSH20 0x1BE23585060835E02B77EF475B0CC51AA1E0709 DUP2 JUMP JUMPDEST PUSH1 0x40 MLOAD PUSH1 0x1 PUSH1 0x1 PUSH1 0xA0 SHL SUB SWAP1 SWAP2 AND DUP2 MSTORE PUSH1 0x20 ADD PUSH2 0xA6 JUMP JUMPDEST PUSH2 0xC2 PUSH2 0x111 CALLDATASIZE PUSH1 0x4 PUSH2 0x767 JUMP JUMPDEST PUSH2 0x2DD JUMP JUMPDEST PUSH2 0xC2 PUSH2 0x124 CALLDATASIZE PUSH1 0x4 PUSH2 0x791 JUMP JUMPDEST PUSH2 0x400 JUMP JUMPDEST PUSH2 0xEB PUSH20 0xC778417E063141139FCE010982780140AA0CD5AB DUP2 JUMP JUMPDEST PUSH2 0xEB PUSH32 0x0 DUP2 JUMP JUMPDEST PUSH2 0xEB PUSH20 0x5592EC0CFB4DBC12D3AB100B257153436A1F0FEA DUP2 JUMP JUMPDEST PUSH1 0x0 PUSH2 0x194 DUP5 CALLER ADDRESS DUP7 PUSH2 0x500 JUMP JUMPDEST PUSH2 0x1BF DUP5 PUSH32 0x0 DUP6 PUSH2 0x60F JUMP JUMPDEST PUSH1 0x40 DUP1 MLOAD PUSH1 0xA0 DUP2 ADD DUP3 MSTORE PUSH1 0x60 DUP7 DUP2 SHL PUSH12 0xFFFFFFFFFFFFFFFFFFFFFFFF NOT SWAP1 DUP2 AND PUSH1 0xC0 DUP5 ADD MSTORE PUSH2 0x177 PUSH1 0xEB SHL PUSH1 0xD4 DUP5 ADD DUP2 SWAP1 MSTORE PUSH20 0xC778417E063141139FCE010982780140AA0CD5AB PUSH1 0x60 SHL PUSH1 0xD7 DUP6 ADD MSTORE PUSH1 0xEB DUP5 ADD MSTORE DUP6 DUP3 SHL AND PUSH1 0xEE DUP4 ADD MSTORE DUP3 MLOAD PUSH1 0xE2 DUP2 DUP5 SUB ADD DUP2 MSTORE PUSH2 0x102 DUP4 ADD DUP5 MSTORE DUP3 MSTORE CALLER PUSH1 0x20 DUP4 ADD MSTORE TIMESTAMP DUP3 DUP5 ADD MSTORE DUP2 ADD DUP6 SWAP1 MSTORE PUSH1 0x0 PUSH1 0x80 DUP3 ADD MSTORE SWAP1 MLOAD PUSH4 0xC04B8D59 PUSH1 0xE0 SHL DUP2 MSTORE PUSH32 0x0 PUSH1 0x1 PUSH1 0x1 PUSH1 0xA0 SHL SUB AND SWAP1 PUSH4 0xC04B8D59 SWAP1 PUSH2 0x291 SWAP1 DUP5 SWAP1 PUSH1 0x4 ADD PUSH2 0x7ED JUMP JUMPDEST PUSH1 0x20 PUSH1 0x40 MLOAD DUP1 DUP4 SUB DUP2 PUSH1 0x0 DUP8 GAS CALL ISZERO DUP1 ISZERO PUSH2 0x2B0 JUMPI RETURNDATASIZE PUSH1 0x0 DUP1 RETURNDATACOPY RETURNDATASIZE PUSH1 0x0 REVERT JUMPDEST POP POP POP POP PUSH1 0x40 MLOAD RETURNDATASIZE PUSH1 0x1F NOT PUSH1 0x1F DUP3 ADD AND DUP3 ADD DUP1 PUSH1 0x40 MSTORE POP DUP2 ADD SWAP1 PUSH2 0x2D4 SWAP2 SWAP1 PUSH2 0x85C JUMP JUMPDEST SWAP6 SWAP5 POP POP POP POP POP JUMP JUMPDEST PUSH1 0x0 PUSH2 0x2EB DUP4 CALLER ADDRESS DUP6 PUSH2 0x500 JUMP JUMPDEST PUSH2 0x316 DUP4 PUSH32 0x0 DUP5 PUSH2 0x60F JUMP JUMPDEST PUSH1 0x40 DUP1 MLOAD PUSH2 0x100 DUP2 ADD DUP3 MSTORE PUSH1 0x1 PUSH1 0x1 PUSH1 0xA0 SHL SUB DUP1 DUP7 AND DUP3 MSTORE PUSH20 0xC778417E063141139FCE010982780140AA0CD5AB PUSH1 0x20 DUP4 ADD MSTORE PUSH2 0xBB8 DUP3 DUP5 ADD MSTORE CALLER PUSH1 0x60 DUP4 ADD MSTORE TIMESTAMP PUSH1 0x80 DUP4 ADD MSTORE PUSH1 0xA0 DUP3 ADD DUP6 SWAP1 MSTORE PUSH1 0x0 PUSH1 0xC0 DUP4 ADD DUP2 SWAP1 MSTORE PUSH1 0xE0 DUP4 ADD MSTORE SWAP2 MLOAD PUSH4 0x414BF389 PUSH1 0xE0 SHL DUP2 MSTORE SWAP1 SWAP2 PUSH32 0x0 AND SWAP1 PUSH4 0x414BF389 SWAP1 PUSH2 0x3B5 SWAP1 DUP5 SWAP1 PUSH1 0x4 ADD PUSH2 0x875 JUMP JUMPDEST PUSH1 0x20 PUSH1 0x40 MLOAD DUP1 DUP4 SUB DUP2 PUSH1 0x0 DUP8 GAS CALL ISZERO DUP1 ISZERO PUSH2 0x3D4 JUMPI RETURNDATASIZE PUSH1 0x0 DUP1 RETURNDATACOPY RETURNDATASIZE PUSH1 0x0 REVERT JUMPDEST POP POP POP POP PUSH1 0x40 MLOAD RETURNDATASIZE PUSH1 0x1F NOT PUSH1 0x1F DUP3 ADD AND DUP3 ADD DUP1 PUSH1 0x40 MSTORE POP DUP2 ADD SWAP1 PUSH2 0x3F8 SWAP2 SWAP1 PUSH2 0x85C JUMP JUMPDEST SWAP5 SWAP4 POP POP POP POP JUMP JUMPDEST PUSH1 0x0 PUSH2 0x422 PUSH20 0xC778417E063141139FCE010982780140AA0CD5AB CALLER ADDRESS DUP7 PUSH2 0x500 JUMP JUMPDEST PUSH2 0x461 PUSH20 0xC778417E063141139FCE010982780140AA0CD5AB PUSH32 0x0 DUP6 PUSH2 0x60F JUMP JUMPDEST PUSH1 0x40 DUP1 MLOAD PUSH2 0x100 DUP2 ADD DUP3 MSTORE PUSH20 0xC778417E063141139FCE010982780140AA0CD5AB DUP2 MSTORE PUSH1 0x1 PUSH1 0x1 PUSH1 0xA0 SHL SUB DUP5 DUP2 AND PUSH1 0x20 DUP4 ADD MSTORE PUSH2 0xBB8 DUP3 DUP5 ADD MSTORE CALLER PUSH1 0x60 DUP4 ADD MSTORE TIMESTAMP PUSH1 0x80 DUP4 ADD MSTORE PUSH1 0xA0 DUP3 ADD DUP7 SWAP1 MSTORE PUSH1 0x0 PUSH1 0xC0 DUP4 ADD DUP2 SWAP1 MSTORE PUSH1 0xE0 DUP4 ADD MSTORE SWAP2 MLOAD PUSH4 0x414BF389 PUSH1 0xE0 SHL DUP2 MSTORE SWAP1 SWAP2 PUSH32 0x0 AND SWAP1 PUSH4 0x414BF389 SWAP1 PUSH2 0x3B5 SWAP1 DUP5 SWAP1 PUSH1 0x4 ADD PUSH2 0x875 JUMP JUMPDEST PUSH1 0x40 DUP1 MLOAD PUSH1 0x1 PUSH1 0x1 PUSH1 0xA0 SHL SUB DUP6 DUP2 AND PUSH1 0x24 DUP4 ADD MSTORE DUP5 DUP2 AND PUSH1 0x44 DUP4 ADD MSTORE PUSH1 0x64 DUP1 DUP4 ADD DUP6 SWAP1 MSTORE DUP4 MLOAD DUP1 DUP5 SUB SWAP1 SWAP2 ADD DUP2 MSTORE PUSH1 0x84 SWAP1 SWAP3 ADD DUP4 MSTORE PUSH1 0x20 DUP3 ADD DUP1 MLOAD PUSH1 0x1 PUSH1 0x1 PUSH1 0xE0 SHL SUB AND PUSH4 0x23B872DD PUSH1 0xE0 SHL OR SWAP1 MSTORE SWAP2 MLOAD PUSH1 0x0 SWAP3 DUP4 SWAP3 SWAP1 DUP9 AND SWAP2 PUSH2 0x564 SWAP2 SWAP1 PUSH2 0x8DE JUMP JUMPDEST PUSH1 0x0 PUSH1 0x40 MLOAD DUP1 DUP4 SUB DUP2 PUSH1 0x0 DUP7 GAS CALL SWAP2 POP POP RETURNDATASIZE DUP1 PUSH1 0x0 DUP2 EQ PUSH2 0x5A1 JUMPI PUSH1 0x40 MLOAD SWAP2 POP PUSH1 0x1F NOT PUSH1 0x3F RETURNDATASIZE ADD AND DUP3 ADD PUSH1 0x40 MSTORE RETURNDATASIZE DUP3 MSTORE RETURNDATASIZE PUSH1 0x0 PUSH1 0x20 DUP5 ADD RETURNDATACOPY PUSH2 0x5A6 JUMP JUMPDEST PUSH1 0x60 SWAP2 POP JUMPDEST POP SWAP2 POP SWAP2 POP DUP2 DUP1 ISZERO PUSH2 0x5D0 JUMPI POP DUP1 MLOAD ISZERO DUP1 PUSH2 0x5D0 JUMPI POP DUP1 DUP1 PUSH1 0x20 ADD SWAP1 MLOAD DUP2 ADD SWAP1 PUSH2 0x5D0 SWAP2 SWAP1 PUSH2 0x8FA JUMP JUMPDEST PUSH2 0x607 JUMPI PUSH1 0x40 MLOAD PUSH3 0x461BCD PUSH1 0xE5 SHL DUP2 MSTORE PUSH1 0x20 PUSH1 0x4 DUP3 ADD MSTORE PUSH1 0x3 PUSH1 0x24 DUP3 ADD MSTORE PUSH3 0x29AA23 PUSH1 0xE9 SHL PUSH1 0x44 DUP3 ADD MSTORE PUSH1 0x64 ADD JUMPDEST PUSH1 0x40 MLOAD DUP1 SWAP2 SUB SWAP1 REVERT JUMPDEST POP POP POP POP POP POP JUMP JUMPDEST PUSH1 0x40 DUP1 MLOAD PUSH1 0x1 PUSH1 0x1 PUSH1 0xA0 SHL SUB DUP5 DUP2 AND PUSH1 0x24 DUP4 ADD MSTORE PUSH1 0x44 DUP1 DUP4 ADD DUP6 SWAP1 MSTORE DUP4 MLOAD DUP1 DUP5 SUB SWAP1 SWAP2 ADD DUP2 MSTORE PUSH1 0x64 SWAP1 SWAP3 ADD DUP4 MSTORE PUSH1 0x20 DUP3 ADD DUP1 MLOAD PUSH1 0x1 PUSH1 0x1 PUSH1 0xE0 SHL SUB AND PUSH4 0x95EA7B3 PUSH1 0xE0 SHL OR SWAP1 MSTORE SWAP2 MLOAD PUSH1 0x0 SWAP3 DUP4 SWAP3 SWAP1 DUP8 AND SWAP2 PUSH2 0x66B SWAP2 SWAP1 PUSH2 0x8DE JUMP JUMPDEST PUSH1 0x0 PUSH1 0x40 MLOAD DUP1 DUP4 SUB DUP2 PUSH1 0x0 DUP7 GAS CALL SWAP2 POP POP RETURNDATASIZE DUP1 PUSH1 0x0 DUP2 EQ PUSH2 0x6A8 JUMPI PUSH1 0x40 MLOAD SWAP2 POP PUSH1 0x1F NOT PUSH1 0x3F RETURNDATASIZE ADD AND DUP3 ADD PUSH1 0x40 MSTORE RETURNDATASIZE DUP3 MSTORE RETURNDATASIZE PUSH1 0x0 PUSH1 0x20 DUP5 ADD RETURNDATACOPY PUSH2 0x6AD JUMP JUMPDEST PUSH1 0x60 SWAP2 POP JUMPDEST POP SWAP2 POP SWAP2 POP DUP2 DUP1 ISZERO PUSH2 0x6D7 JUMPI POP DUP1 MLOAD ISZERO DUP1 PUSH2 0x6D7 JUMPI POP DUP1 DUP1 PUSH1 0x20 ADD SWAP1 MLOAD DUP2 ADD SWAP1 PUSH2 0x6D7 SWAP2 SWAP1 PUSH2 0x8FA JUMP JUMPDEST PUSH2 0x708 JUMPI PUSH1 0x40 MLOAD PUSH3 0x461BCD PUSH1 0xE5 SHL DUP2 MSTORE PUSH1 0x20 PUSH1 0x4 DUP3 ADD MSTORE PUSH1 0x2 PUSH1 0x24 DUP3 ADD MSTORE PUSH2 0x5341 PUSH1 0xF0 SHL PUSH1 0x44 DUP3 ADD MSTORE PUSH1 0x64 ADD PUSH2 0x5FE JUMP JUMPDEST POP POP POP POP POP JUMP JUMPDEST DUP1 CALLDATALOAD PUSH1 0x1 PUSH1 0x1 PUSH1 0xA0 SHL SUB DUP2 AND DUP2 EQ PUSH2 0x726 JUMPI PUSH1 0x0 DUP1 REVERT JUMPDEST SWAP2 SWAP1 POP JUMP JUMPDEST PUSH1 0x0 DUP1 PUSH1 0x0 PUSH1 0x60 DUP5 DUP7 SUB SLT ISZERO PUSH2 0x740 JUMPI PUSH1 0x0 DUP1 REVERT JUMPDEST PUSH2 0x749 DUP5 PUSH2 0x70F JUMP JUMPDEST SWAP3 POP PUSH1 0x20 DUP5 ADD CALLDATALOAD SWAP2 POP PUSH2 0x75E PUSH1 0x40 DUP6 ADD PUSH2 0x70F JUMP JUMPDEST SWAP1 POP SWAP3 POP SWAP3 POP SWAP3 JUMP JUMPDEST PUSH1 0x0 DUP1 PUSH1 0x40 DUP4 DUP6 SUB SLT ISZERO PUSH2 0x77A JUMPI PUSH1 0x0 DUP1 REVERT JUMPDEST PUSH2 0x783 DUP4 PUSH2 0x70F JUMP JUMPDEST SWAP5 PUSH1 0x20 SWAP4 SWAP1 SWAP4 ADD CALLDATALOAD SWAP4 POP POP POP JUMP JUMPDEST PUSH1 0x0 DUP1 PUSH1 0x40 DUP4 DUP6 SUB SLT ISZERO PUSH2 0x7A4 JUMPI PUSH1 0x0 DUP1 REVERT JUMPDEST DUP3 CALLDATALOAD SWAP2 POP PUSH2 0x7B4 PUSH1 0x20 DUP5 ADD PUSH2 0x70F JUMP JUMPDEST SWAP1 POP SWAP3 POP SWAP3 SWAP1 POP JUMP JUMPDEST PUSH1 0x0 JUMPDEST DUP4 DUP2 LT ISZERO PUSH2 0x7D8 JUMPI DUP2 DUP2 ADD MLOAD DUP4 DUP3 ADD MSTORE PUSH1 0x20 ADD PUSH2 0x7C0 JUMP JUMPDEST DUP4 DUP2 GT ISZERO PUSH2 0x7E7 JUMPI PUSH1 0x0 DUP5 DUP5 ADD MSTORE JUMPDEST POP POP POP POP JUMP JUMPDEST PUSH1 0x20 DUP2 MSTORE PUSH1 0x0 DUP3 MLOAD PUSH1 0xA0 PUSH1 0x20 DUP5 ADD MSTORE DUP1 MLOAD DUP1 PUSH1 0xC0 DUP6 ADD MSTORE PUSH2 0x815 DUP2 PUSH1 0xE0 DUP7 ADD PUSH1 0x20 DUP6 ADD PUSH2 0x7BD JUMP JUMPDEST PUSH1 0x1 DUP1 PUSH1 0xA0 SHL SUB PUSH1 0x20 DUP7 ADD MLOAD AND PUSH1 0x40 DUP6 ADD MSTORE PUSH1 0x40 DUP6 ADD MLOAD PUSH1 0x60 DUP6 ADD MSTORE PUSH1 0x60 DUP6 ADD MLOAD PUSH1 0x80 DUP6 ADD MSTORE PUSH1 0x80 DUP6 ADD MLOAD PUSH1 0xA0 DUP6 ADD MSTORE PUSH1 0xE0 PUSH1 0x1F NOT PUSH1 0x1F DUP4 ADD AND DUP6 ADD ADD SWAP3 POP POP POP SWAP3 SWAP2 POP POP JUMP JUMPDEST PUSH1 0x0 PUSH1 0x20 DUP3 DUP5 SUB SLT ISZERO PUSH2 0x86E JUMPI PUSH1 0x0 DUP1 REVERT JUMPDEST POP MLOAD SWAP2 SWAP1 POP JUMP JUMPDEST DUP2 MLOAD PUSH1 0x1 PUSH1 0x1 PUSH1 0xA0 SHL SUB SWAP1 DUP2 AND DUP3 MSTORE PUSH1 0x20 DUP1 DUP5 ADD MLOAD DUP3 AND SWAP1 DUP4 ADD MSTORE PUSH1 0x40 DUP1 DUP5 ADD MLOAD PUSH3 0xFFFFFF AND SWAP1 DUP4 ADD MSTORE PUSH1 0x60 DUP1 DUP5 ADD MLOAD DUP3 AND SWAP1 DUP4 ADD MSTORE PUSH1 0x80 DUP1 DUP5 ADD MLOAD SWAP1 DUP4 ADD MSTORE PUSH1 0xA0 DUP4 DUP2 ADD MLOAD SWAP1 DUP4 ADD MSTORE PUSH1 0xC0 DUP1 DUP5 ADD MLOAD SWAP1 DUP4 ADD MSTORE PUSH1 0xE0 SWAP3 DUP4 ADD MLOAD AND SWAP2 DUP2 ADD SWAP2 SWAP1 SWAP2 MSTORE PUSH2 0x100 ADD SWAP1 JUMP JUMPDEST PUSH1 0x0 DUP3 MLOAD PUSH2 0x8F0 DUP2 DUP5 PUSH1 0x20 DUP8 ADD PUSH2 0x7BD JUMP JUMPDEST SWAP2 SWAP1 SWAP2 ADD SWAP3 SWAP2 POP POP JUMP JUMPDEST PUSH1 0x0 PUSH1 0x20 DUP3 DUP5 SUB SLT ISZERO PUSH2 0x90C JUMPI PUSH1 0x0 DUP1 REVERT JUMPDEST DUP2 MLOAD DUP1 ISZERO ISZERO DUP2 EQ PUSH2 0x91C JUMPI PUSH1 0x0 DUP1 REVERT JUMPDEST SWAP4 SWAP3 POP POP POP JUMP INVALID LOG2 PUSH5 0x6970667358 0x22 SLT KECCAK256 0xAD 0xA9 ISZERO CALLCODE GT 0x5D SWAP14 ADDMOD 0xC 0xE 0x2A PUSH25 0x9AB9297B634E5BA8E6A51E927FA06420D2D08CB264736F6C63 NUMBER STOP ADDMOD SIGNEXTEND STOP CALLER ",
  "sha1": "95368dc6f548a72da30662a07813acc42c02d7ca",
  "source": "// SPDX-License-Identifier: MIT\n\npragma solidity ^0.8.0;\npragma abicoder v2;\n\n//import \"@Uniswap/contracts/interfaces/ISwapRouter.sol\";\nimport \"../interfaces/ISwapRouter.sol\";\nimport \"uniswap/v3-periphery@1.0.0/contracts/libraries/TransferHelper.sol\";\nimport \"@openzeppelin/contracts/access/AccessControlEnumerable.sol\";\nimport \"@openzeppelin/contracts/token/ERC20/IERC20.sol\";\n\ncontract Uniswap {\n    //We need to inherit the swap router safely instead of pass it in\n    ISwapRouter public immutable swapRouter;\n\n    address public constant LINK = 0x01BE23585060835E02B77ef475b0Cc51aA1e0709;\n    address public constant WETH = 0xc778417E063141139Fce010982780140Aa0cD5Ab;\n    address public constant DAI = 0x5592EC0cfb4dbc12D3aB100b257153436a1f0FEa;\n\n    // set the pool fee to 0.3%, should be dynamic\n    uint24 public constant poolFee = 3000;\n\n    constructor() {\n        swapRouter = ISwapRouter(0xE592427A0AEce92De3Edee1F18E0157C05861564); //address on Rinkeby- same on mainnet?\n    }\n\n    /// @notice swapInputMultiplePools swaps a fixed amount of one asset for a maximum possible amount of a different asset through an intermediary pool.\n    /// @dev The calling address must approve this contract to spend at least `amountIn` worth of its DAI for this function to succeed.\n    /// @param _amountIn The amount of asset to be swapped.\n    /// @param _assetIn The asset to be swapped.\n    /// @param _assetOut The _asset to be swapped for.\n    /// @return amountOut The amount of WETH9 received after the swap.\n    function swapExactInputMultihop(\n        address _assetIn,\n        uint256 _amountIn,\n        address _assetOut\n    ) external returns (uint256 amountOut) {\n        // Transfer `amountIn` of DAI to this contract.\n        TransferHelper.safeTransferFrom(\n            _assetIn,\n            msg.sender,\n            address(this),\n            _amountIn\n        );\n\n        // Approve the router to spend DAI.\n        TransferHelper.safeApprove(_assetIn, address(swapRouter), _amountIn);\n\n        // Multiple pool swaps are encoded through bytes called a `path`. A path is a sequence of token addresses and poolFees that define the pools used in the swaps.\n        // The format for pool encoding is (tokenIn, fee, tokenOut/tokenIn, fee, tokenOut) where tokenIn/tokenOut parameter is the shared token across the pools.\n        // Since we are swapping DAI to USDC and then USDC to WETH9 the path encoding is (DAI, 0.3%, USDC, 0.3%, WETH9).\n        ISwapRouter.ExactInputParams memory params = ISwapRouter\n            .ExactInputParams({\n                path: abi.encodePacked(\n                    _assetIn,\n                    poolFee,\n                    WETH,\n                    poolFee,\n                    _assetOut\n                ),\n                recipient: msg.sender,\n                deadline: block.timestamp,\n                amountIn: _amountIn,\n                amountOutMinimum: 0\n            });\n\n        // Executes the swap.\n        amountOut = swapRouter.exactInput(params);\n    }\n\n    /// @notice this is called to swap an amount of an asset for a miximal amount of WETH\n    /// @dev The calling address must approve this contract to spend at least `amountIn` worth of its DAI for this function to succeed.\n    /// @param _amountIn The amount of asset to be swapped.\n    /// @param _assetIn The asset to be swapped.\n    /// @return amountOut The amount of WETH9 received after the swap.\n    function swapExactInputSingleOutWETH(address _assetIn, uint256 _amountIn)\n        external\n        returns (uint256 amountOut)\n    {\n        // msg.sender must approve this contract\n\n        // Transfer the specified amount of DAI to this contract.\n        TransferHelper.safeTransferFrom(\n            _assetIn,\n            msg.sender,\n            address(this),\n            _amountIn\n        );\n\n        // Approve the router to spend DAI.\n        TransferHelper.safeApprove(_assetIn, address(swapRouter), _amountIn);\n\n        // Naively set amountOutMinimum to 0. In production, use an oracle or other data source to choose a safer value for amountOutMinimum.\n        // We also set the sqrtPriceLimitx96 to be 0 to ensure we swap our exact input amount.\n        ISwapRouter.ExactInputSingleParams memory params = ISwapRouter\n            .ExactInputSingleParams({\n                tokenIn: _assetIn,\n                tokenOut: WETH,\n                fee: poolFee,\n                recipient: msg.sender,\n                deadline: block.timestamp,\n                amountIn: _amountIn,\n                amountOutMinimum: 0,\n                sqrtPriceLimitX96: 0\n            });\n\n        // The call to `exactInputSingle` executes the swap.\n        amountOut = swapRouter.exactInputSingle(params);\n    }\n\n    // is asset == WETH\n    /// @notice This function is used when we are swapping WETH for an asset\n    /// @dev The calling address must approve this contract to spend at least `amountIn` worth of its DAI for this function to succeed.\n    /// @param _amountIn The amount of asset to be swapped.\n    /// @param _assetOut The _asset to be swapped for.\n    /// @return amountOut The amount of WETH9 received after the swap.\n    function swapExactInputSingleInWETH(uint256 _amountIn, address _assetOut)\n        external\n        returns (uint256 amountOut)\n    {\n        // msg.sender must approve this contract\n\n        // Transfer the specified amount of DAI to this contract.\n        TransferHelper.safeTransferFrom(\n            WETH,\n            msg.sender,\n            address(this),\n            _amountIn\n        );\n\n        // Approve the router to spend DAI.\n        TransferHelper.safeApprove(WETH, address(swapRouter), _amountIn);\n\n        // Naively set amountOutMinimum to 0. In production, use an oracle or other data source to choose a safer value for amountOutMinimum.\n        // We also set the sqrtPriceLimitx96 to be 0 to ensure we swap our exact input amount.\n        ISwapRouter.ExactInputSingleParams memory params = ISwapRouter\n            .ExactInputSingleParams({\n                tokenIn: WETH,\n                tokenOut: _assetOut,\n                fee: poolFee,\n                recipient: msg.sender,\n                deadline: block.timestamp,\n                amountIn: _amountIn,\n                amountOutMinimum: 0,\n                sqrtPriceLimitX96: 0\n            });\n\n        // The call to `exactInputSingle` executes the swap.\n        amountOut = swapRouter.exactInputSingle(params);\n    }\n}\n",
  "sourcePath": "contracts/Uniswap.sol",
  "type": "contract"
}