{"bytecode":"6080604052600260005534801561001557600080fd5b5060405161002290610166565b604051809103906000f08015801561003e573d6000803e3d6000fd5b50600180546001600160a01b0319166001600160a01b0392909216918217905560405161006a90610174565b6060808252600990820152682a32b9ba2a37b5b2b760b91b608082015260a060208201819052600390820152621514d560ea1b60c08201526001600160a01b03909116604082015260e001604051809103906000f0801580156100d1573d6000803e3d6000fd5b50600480546001600160a01b0319166001600160a01b0392831690811790915560015460405192169161010390610182565b6001600160a01b03928316815291166020820152604001604051809103906000f080158015610136573d6000803e3d6000fd5b50600280546001600160a01b03929092166001600160a01b03199283161790556003805490911633179055610190565b610f7280620010ee83390190565b6120f0806200206083390190565b610738806200415083390190565b610f4e80620001a06000396000f3fe608060405234801561001057600080fd5b50600436106101425760003560e01c80636db18093116100b8578063d28682ea1161007c578063d28682ea1461027a578063d49ab22c1461028d578063d8dfeb45146102a0578063de259242146102b3578063de30f97d146102c4578063fc0c546a146102d757600080fd5b80636db1809314610231578063884edad9146102395780639b96eece1461024c578063a747b93b1461025f578063c4e41b221461027257600080fd5b8063243d8e051161010a578063243d8e051461018957806346c928fc146101be5780634bcc1709146101d1578063582b2720146101e457806363e36dac146101f55780636aaa434e1461020657600080fd5b8063057393c014610147578063094049541461016d578063107539c11461017657806316f0115b1461018b5780631ba2f531146101b6575b600080fd5b61015a610155366004610d6e565b6102ea565b6040519081526020015b60405180910390f35b61015a60005481565b610189610184366004610d90565b610360565b005b60015461019e906001600160a01b031681565b6040516001600160a01b039091168152602001610164565b61015a61050a565b6101896101cc366004610dd5565b610588565b6101896101df366004610e1b565b6107be565b6004546001600160a01b031661019e565b6002546001600160a01b031661019e565b61015a610214366004610e47565b600560209081526000928352604080842090915290825290205481565b61015a6108eb565b610189610247366004610e71565b610940565b61015a61025a366004610d6e565b610bf9565b61015a61026d366004610d6e565b610c31565b61015a610c64565b61015a610288366004610d6e565b610cb9565b61015a61029b366004610d6e565b610cec565b60025461019e906001600160a01b031681565b6001546001600160a01b031661019e565b61015a6102d2366004610d6e565b610d1f565b60045461019e906001600160a01b031681565b60025460405163f8b2cb4f60e01b81526001600160a01b038381166004830152600092169063f8b2cb4f906024015b602060405180830381865afa158015610336573d6000803e3d6000fd5b505050506040513d601f19601f8201168201806040525081019061035a9190610e9b565b92915050565b3360009081526005602090815260408083206001600160a01b03871684529091529020548211156103d85760405162461bcd60e51b815260206004820152601b60248201527f52657475726e6564206d6f7265207468616e20626f72726f776564000000000060448201526064015b60405180910390fd5b600254604051634755ea7f60e11b81523360048201526001600160a01b03858116602483015260448201859052831515606483015290911690638eabd4fe906084016020604051808303816000875af1158015610439573d6000803e3d6000fd5b505050506040513d601f19601f8201168201806040525081019061045d9190610e9b565b5060018115151415610480576104808260005461047a9190610eca565b846107be565b3360009081526005602090815260408083206001600160a01b0387168452909152812080548492906104b3908490610ee9565b90915550503360009081526005602090815260408083206001600160a01b0387168452909152902054610505573360009081526005602090815260408083206001600160a01b03871684529091528120555b505050565b6000600460009054906101000a90046001600160a01b03166001600160a01b0316638a02775b6040518163ffffffff1660e01b8152600401602060405180830381865afa15801561055f573d6000803e3d6000fd5b505050506040513d601f19601f820116820180604052508101906105839190610e9b565b905090565b600260009054906101000a90046001600160a01b03166001600160a01b031663094049546040518163ffffffff1660e01b8152600401602060405180830381865afa1580156105db573d6000803e3d6000fd5b505050506040513d601f19601f820116820180604052508101906105ff9190610e9b565b6106099085610eca565b8210156106505760405162461bcd60e51b81526020600482015260156024820152741b9bdd08195b9bdd59da0818dbdb1b185d195c985b605a1b60448201526064016103cf565b60025460405163f970c3b760e01b81523360048201526001600160a01b038381166024830152604482018590529091169063f970c3b790606401600060405180830381600087803b1580156106a457600080fd5b505af11580156106b8573d6000803e3d6000fd5b505060015460405163fc4f78b960e01b81523360048201526001600160a01b03878116602483015260448201899052909116925063fc4f78b99150606401600060405180830381600087803b15801561071057600080fd5b505af1158015610724573d6000803e3d6000fd5b505060408051338152602081018890526001600160a01b0387811682840152606082018790528516608082015290517fea8631408d071cdc565dfa37dcb32450c4c85ee9a4142ed14df1387d7c2a432793509081900360a0019150a13360009081526005602090815260408083206001600160a01b0387168452909152812080548692906107b3908490610f00565b909155505050505050565b6000821161080e5760405162461bcd60e51b815260206004820152601860248201527f6465706f736974206d75737420626520706f736974697665000000000000000060448201526064016103cf565b60048054604051630d4d151360e01b81523392810192909252602482018490526001600160a01b0383811660448401521690630d4d151390606401600060405180830381600087803b15801561086357600080fd5b505af1158015610877573d6000803e3d6000fd5b5050600154604051631740ecaf60e11b81523360048201526001600160a01b038581166024830152604482018790529091169250632e81d95e9150606401600060405180830381600087803b1580156108cf57600080fd5b505af11580156108e3573d6000803e3d6000fd5b505050505050565b6000600460009054906101000a90046001600160a01b03166001600160a01b03166333d57cdc6040518163ffffffff1660e01b8152600401602060405180830381865afa15801561055f573d6000803e3d6000fd5b60015460405163fce3e8e760e01b81526001600160a01b0384811660048301529091169063fce3e8e790602401602060405180830381865afa15801561098a573d6000803e3d6000fd5b505050506040513d601f19601f820116820180604052508101906109ae9190610e9b565b811115610a185760405162461bcd60e51b815260206004820152603260248201527f557365722063616e6e6f742072656465656d206d6f7265207468616e2074686560448201527120617661696c61626c652062616c616e636560701b60648201526084016103cf565b600154600480546040516370a0823160e01b8152339281018390526000936001600160a01b0390811693630272a8e09390928892889216906370a0823190602401602060405180830381865afa158015610a76573d6000803e3d6000fd5b505050506040513d601f19601f82011682018060405250810190610a9a9190610e9b565b6004805460408051630cf55f3760e21b815290516001600160a01b03909216926333d57cdc9282820192602092908290030181865afa158015610ae1573d6000803e3d6000fd5b505050506040513d601f19601f82011682018060405250810190610b059190610e9b565b6040516001600160e01b031960e088901b1681526001600160a01b03958616600482015294909316602485015260448401919091526064830152608482015260a4016020604051808303816000875af1158015610b66573d6000803e3d6000fd5b505050506040513d601f19601f82011682018060405250810190610b8a9190610e9b565b60048054604051632770a7eb60e21b81523392810192909252602482018390529192506001600160a01b0390911690639dc29fac90604401600060405180830381600087803b158015610bdc57600080fd5b505af1158015610bf0573d6000803e3d6000fd5b50505050505050565b600480546040516370a0823160e01b81526001600160a01b0384811693820193909352600092909116906370a0823190602401610319565b60015460405163fce3e8e760e01b81526001600160a01b038381166004830152600092169063fce3e8e790602401610319565b6000600460009054906101000a90046001600160a01b03166001600160a01b03166318160ddd6040518163ffffffff1660e01b8152600401602060405180830381865afa15801561055f573d6000803e3d6000fd5b60015460405163f8b2cb4f60e01b81526001600160a01b038381166004830152600092169063f8b2cb4f90602401610319565b6002546040516328d1f89360e21b81526001600160a01b038381166004830152600092169063a347e24c90602401610319565b60015460405163de30f97d60e01b81526001600160a01b038381166004830152600092169063de30f97d90602401610319565b80356001600160a01b0381168114610d6957600080fd5b919050565b600060208284031215610d8057600080fd5b610d8982610d52565b9392505050565b600080600060608486031215610da557600080fd5b610dae84610d52565b92506020840135915060408401358015158114610dca57600080fd5b809150509250925092565b60008060008060808587031215610deb57600080fd5b84359350610dfb60208601610d52565b925060408501359150610e1060608601610d52565b905092959194509250565b60008060408385031215610e2e57600080fd5b82359150610e3e60208401610d52565b90509250929050565b60008060408385031215610e5a57600080fd5b610e6383610d52565b9150610e3e60208401610d52565b60008060408385031215610e8457600080fd5b610e8d83610d52565b946020939093013593505050565b600060208284031215610ead57600080fd5b5051919050565b634e487b7160e01b600052601160045260246000fd5b6000816000190483118215151615610ee457610ee4610eb4565b500290565b600082821015610efb57610efb610eb4565b500390565b60008219821115610f1357610f13610eb4565b50019056fea264697066735822122039a279fef4861407410be78952709f5b66bc7ece87ec617189804f5a18ec132064736f6c634300080b0033608060405234801561001057600080fd5b5060026003819055604080518082018252600080825260208083018281527301be23585060835e02b77ef475b0cc51aa1e070980845283835293517f4e2753d238f0f4cb8962490717ab551b4c023808c7bc37aed6e8760bfc3a92d555517f4e2753d238f0f4cb8962490717ab551b4c023808c7bc37aed6e8760bfc3a92d6558454600181810187557f405787fa12a823e0f2b7631cc41b3ba8828b3321ca811111fa75cd3aa3bb5ace91820180546001600160a01b0319908116871790915586518088018852858152808501868152735592ec0cfb4dbc12d3ab100b257153436a1f0fea8088529587905290517ff4e9730789baae4355b7b087afa1a57a24c222e690ce50ce909b525e8495925b55517ff4e9730789baae4355b7b087afa1a57a24c222e690ce50ce909b525e8495925c5587549182018855969093529190910180549094168117909355905190919061016a906101af565b604051809103906000f080158015610186573d6000803e3d6000fd5b50600180546001600160a01b0319166001600160a01b0392909216919091179055506101bc9050565b61037680610bfc83390190565b610a31806101cb6000396000f3fe608060405234801561001057600080fd5b50600436106100a95760003560e01c8063b8c876b111610071578063b8c876b1146101a4578063de30f97d146101e0578063edf26d9b146101f3578063f8b2cb4f14610206578063fc4f78b914610219578063fce3e8e71461022c57600080fd5b80630272a8e0146100ae5780632e81d95e146100d45780636efb8b62146100e957806375f4d677146101715780639311ca6914610179575b600080fd5b6100c16100bc36600461083e565b610255565b6040519081526020015b60405180910390f35b6100e76100e236600461088b565b610413565b005b6100e76100f73660046108c7565b604080518082018252600080825260208083018281526001600160a01b03909516808352908290529281209151825592516001918201556002805491820181559092527f405787fa12a823e0f2b7631cc41b3ba8828b3321ca811111fa75cd3aa3bb5ace90910180546001600160a01b0319169091179055565b6100c16104d2565b60015461018c906001600160a01b031681565b6040516001600160a01b0390911681526020016100cb565b6101cb6101b23660046108c7565b6000602081905290815260409020805460019091015482565b604080519283526020830191909152016100cb565b6100c16101ee3660046108c7565b61065a565b61018c6102013660046108e9565b6106b7565b6100c16102143660046108c7565b6106e1565b6100e761022736600461088b565b61074c565b6100c161023a3660046108c7565b6001600160a01b031660009081526020819052604090205490565b6001546040516341976e0960e01b81526001600160a01b03868116600483015260009283929116906341976e0990602401602060405180830381865afa1580156102a3573d6000803e3d6000fd5b505050506040513d601f19601f820116820180604052508101906102c79190610902565b90506000816102d68587610931565b6102e09190610950565b90508581101561034a5760405162461bcd60e51b815260206004820152602b60248201527f43616e6e6f742072656465656d206d6f726520746f6b656e73207468616e206e60448201526a1d5b58995c881bdddb995960aa1b606482015260840160405180910390fd5b6000846103578885610931565b6103619190610950565b6001600160a01b03891660009081526020819052604081208054929350899290919061038e908490610972565b909155505060405163a9059cbb60e01b81526001600160a01b038a811660048301526024820189905289169063a9059cbb906044016020604051808303816000875af11580156103e2573d6000803e3d6000fd5b505050506040513d601f19601f820116820180604052508101906104069190610989565b5098975050505050505050565b6040516323b872dd60e01b81526001600160a01b038481166004830152306024830152604482018390528316906323b872dd906064016020604051808303816000875af1158015610468573d6000803e3d6000fd5b505050506040513d601f19601f8201168201806040525081019061048c9190610989565b506001600160a01b0382166000908152602081905260409020546104b19082906109ab565b6001600160a01b039092166000908152602081905260409020919091555050565b6002546000908190815b818161ffff1610156106525760015460028054670de0b6b3a7640000926001600160a01b0316916341976e099161ffff861690811061051d5761051d6109c3565b60009182526020909120015460405160e083901b6001600160e01b03191681526001600160a01b039091166004820152602401602060405180830381865afa15801561056d573d6000803e3d6000fd5b505050506040513d601f19601f820116820180604052508101906105919190610902565b60008060028561ffff16815481106105ab576105ab6109c3565b60009182526020808320909101546001600160a01b031683528201929092526040018120600101546002805491929182919061ffff88169081106105f1576105f16109c3565b60009182526020808320909101546001600160a01b0316835282019290925260400190205461062091906109ab565b61062a9190610931565b6106349190610950565b61063e90846109ab565b92508061064a816109d9565b9150506104dc565b509092915050565b6001600160a01b03811660009081526020819052604081206001810154905461068391906109ab565b6001600160a01b0383166000908152602081905260409020546106a7906001610931565b6106b19190610950565b92915050565b600281815481106106c757600080fd5b6000918252602090912001546001600160a01b0316905081565b6040516370a0823160e01b81523060048201526000906001600160a01b038316906370a0823190602401602060405180830381865afa158015610728573d6000803e3d6000fd5b505050506040513d601f19601f820116820180604052508101906106b19190610902565b6001600160a01b03821660009081526020819052604081208054839290610774908490610972565b90915550506001600160a01b038216600090815260208190526040812060010180548392906107a49084906109ab565b909155505060405163a9059cbb60e01b81526001600160a01b0384811660048301526024820183905283169063a9059cbb906044016020604051808303816000875af11580156107f8573d6000803e3d6000fd5b505050506040513d601f19601f8201168201806040525081019061081c9190610989565b50505050565b80356001600160a01b038116811461083957600080fd5b919050565b600080600080600060a0868803121561085657600080fd5b61085f86610822565b945061086d60208701610822565b94979496505050506040830135926060810135926080909101359150565b6000806000606084860312156108a057600080fd5b6108a984610822565b92506108b760208501610822565b9150604084013590509250925092565b6000602082840312156108d957600080fd5b6108e282610822565b9392505050565b6000602082840312156108fb57600080fd5b5035919050565b60006020828403121561091457600080fd5b5051919050565b634e487b7160e01b600052601160045260246000fd5b600081600019048311821515161561094b5761094b61091b565b500290565b60008261096d57634e487b7160e01b600052601260045260246000fd5b500490565b6000828210156109845761098461091b565b500390565b60006020828403121561099b57600080fd5b815180151581146108e257600080fd5b600082198211156109be576109be61091b565b500190565b634e487b7160e01b600052603260045260246000fd5b600061ffff808316818114156109f1576109f161091b565b600101939250505056fea2646970667358221220466b4a8e3201e2cddba33a52aae5945aee6a731e22955b5f8306e8efeea73e3a64736f6c634300080b0033608060405234801561001057600080fd5b50600060208190527f4e2753d238f0f4cb8962490717ab551b4c023808c7bc37aed6e8760bfc3a92d580546001600160a01b031990811673d8bd0a1cb028a31aa859a21a3758685a95de462317909155735592ec0cfb4dbc12d3ab100b257153436a1f0fea9091527ff4e9730789baae4355b7b087afa1a57a24c222e690ce50ce909b525e8495925b8054909116732ba49aaa16e6afd2a993473cfb70fa8559b523cf1790556102b1806100c56000396000f3fe608060405234801561001057600080fd5b50600436106100365760003560e01c806341976e091461003b5780634238dc4714610061575b600080fd5b61004e610049366004610141565b6100a2565b6040519081526020015b60405180910390f35b61008a61006f366004610141565b6000602081905290815260409020546001600160a01b031681565b6040516001600160a01b039091168152602001610058565b6001600160a01b03808216600090815260208190526040808220548151633fabe5a360e21b81529151929316918391839163feaf968c9160048082019260a0929091908290030181865afa1580156100fe573d6000803e3d6000fd5b505050506040513d601f19601f820116820180604052508101906101229190610190565b505050915050806402540be40061013991906101f6565b949350505050565b60006020828403121561015357600080fd5b81356001600160a01b038116811461016a57600080fd5b9392505050565b805169ffffffffffffffffffff8116811461018b57600080fd5b919050565b600080600080600060a086880312156101a857600080fd5b6101b186610171565b94506020860151935060408601519250606086015191506101d460808701610171565b90509295509295909350565b634e487b7160e01b600052601160045260246000fd5b60006001600160ff1b038184138284138082168684048611161561021c5761021c6101e0565b600160ff1b600087128281168783058912161561023b5761023b6101e0565b60008712925087820587128484161615610257576102576101e0565b8785058712818416161561026d5761026d6101e0565b50505092909302939250505056fea264697066735822122072c48f6e00c5a52cb863487a9419bc6a66d0f63d77321e88f47fe70ef4f6aac064736f6c634300080b003360806040523480156200001157600080fd5b50604051620020f0380380620020f08339810160408190526200003491620003eb565b8251839083906200004d9060059060208501906200026a565b508051620000639060069060208401906200026a565b50620000759150600090503362000105565b620000a17f9f2df0fed2c77648de5860a4cc508cd0818c85b8b8a1ab4ceeef8d981c8956a63362000105565b604051620000af90620002f9565b604051809103906000f080158015620000cc573d6000803e3d6000fd5b50600780546001600160a01b039283166001600160a01b0319918216179091556008805493909216921691909117905550620004b59050565b62000111828262000115565b5050565b6200012c82826200015860201b62000abb1760201c565b60008281526001602090815260409091206200015391839062000b3f620001f8821b17901c565b505050565b6000828152602081815260408083206001600160a01b038516845290915290205460ff1662000111576000828152602081815260408083206001600160a01b03851684529091529020805460ff19166001179055620001b43390565b6001600160a01b0316816001600160a01b0316837f2f8788117e7eff1d82e926ec794901d17c78024a50270940304540a733656f0d60405160405180910390a45050565b60006200020f836001600160a01b03841662000218565b90505b92915050565b6000818152600183016020526040812054620002615750815460018181018455600084815260208082209093018490558454848252828601909352604090209190915562000212565b50600062000212565b828054620002789062000478565b90600052602060002090601f0160209004810192826200029c5760008555620002e7565b82601f10620002b757805160ff1916838001178555620002e7565b82800160010185558215620002e7579182015b82811115620002e7578251825591602001919060010190620002ca565b50620002f592915062000307565b5090565b6103768062001d7a83390190565b5b80821115620002f5576000815560010162000308565b634e487b7160e01b600052604160045260246000fd5b600082601f8301126200034657600080fd5b81516001600160401b03808211156200036357620003636200031e565b604051601f8301601f19908116603f011681019082821181831017156200038e576200038e6200031e565b81604052838152602092508683858801011115620003ab57600080fd5b600091505b83821015620003cf5785820183015181830184015290820190620003b0565b83821115620003e15760008385830101525b9695505050505050565b6000806000606084860312156200040157600080fd5b83516001600160401b03808211156200041957600080fd5b620004278783880162000334565b945060208601519150808211156200043e57600080fd5b506200044d8682870162000334565b604086015190935090506001600160a01b03811681146200046d57600080fd5b809150509250925092565b600181811c908216806200048d57607f821691505b60208210811415620004af57634e487b7160e01b600052602260045260246000fd5b50919050565b6118b580620004c56000396000f3fe608060405234801561001057600080fd5b50600436106101cf5760003560e01c80636b3e22fc116101045780639dc29fac116100a2578063ca15c87311610071578063ca15c873146103d5578063d5391393146103e8578063d547741f1461040f578063dd62ed3e1461042257600080fd5b80639dc29fac14610394578063a217fddf146103a7578063a457c2d7146103af578063a9059cbb146103c257600080fd5b80639010d07c116100de5780639010d07c1461035357806391d14854146103665780639311ca691461037957806395d89b411461038c57600080fd5b80636b3e22fc1461030f57806370a08231146103225780638a02775b1461034b57600080fd5b8063248a9ca3116101715780633287acee1161014b5780633287acee146102ce57806333d57cdc146102e157806336568abe146102e957806339509351146102fc57600080fd5b8063248a9ca3146102895780632f2ff15d146102ac578063313ce567146102bf57600080fd5b80630d4d1513116101ad5780630d4d15131461022457806316f0115b1461023957806318160ddd1461026457806323b872dd1461027657600080fd5b806301ffc9a7146101d457806306fdde03146101fc578063095ea7b314610211575b600080fd5b6101e76101e23660046114ea565b61045b565b60405190151581526020015b60405180910390f35b610204610486565b6040516101f39190611540565b6101e761021f36600461158f565b610518565b6102376102323660046115b9565b61052e565b005b60085461024c906001600160a01b031681565b6040516001600160a01b0390911681526020016101f3565b6004545b6040519081526020016101f3565b6101e76102843660046115f5565b6105d5565b610268610297366004611631565b60009081526020819052604090206001015490565b6102376102ba36600461164a565b61067f565b604051601281526020016101f3565b6102686102dc366004611631565b6106aa565b6102686106f7565b6102376102f736600461164a565b61076d565b6101e761030a36600461158f565b6107eb565b61026861031d36600461158f565b610827565b610268610330366004611676565b6001600160a01b031660009081526002602052604090205490565b6102686108c0565b61024c610361366004611691565b61092e565b6101e761037436600461164a565b610946565b60075461024c906001600160a01b031681565b61020461096f565b6102376103a236600461158f565b61097e565b610268600081565b6101e76103bd36600461158f565b6109d8565b6101e76103d036600461158f565b610a71565b6102686103e3366004611631565b610a7e565b6102687f9f2df0fed2c77648de5860a4cc508cd0818c85b8b8a1ab4ceeef8d981c8956a681565b61023761041d36600461164a565b610a95565b6102686104303660046116b3565b6001600160a01b03918216600090815260036020908152604080832093909416825291909152205490565b60006001600160e01b03198216635a05180f60e01b1480610480575061048082610b54565b92915050565b606060058054610495906116dd565b80601f01602080910402602001604051908101604052809291908181526020018280546104c1906116dd565b801561050e5780601f106104e35761010080835404028352916020019161050e565b820191906000526020600020905b8154815290600101906020018083116104f157829003601f168201915b5050505050905090565b6000610525338484610b89565b50600192915050565b6105587f9f2df0fed2c77648de5860a4cc508cd0818c85b8b8a1ab4ceeef8d981c8956a633610946565b6105a95760405162461bcd60e51b815260206004820152601d60248201527f6d7573742068617665206d696e74657220726f6c6520746f206d696e7400000060448201526064015b60405180910390fd5b60006105b58284610827565b905060006105c2826106aa565b90506105ce8582610cad565b5050505050565b60006105e2848484610d8c565b6001600160a01b0384166000908152600360209081526040808320338452909152902054828110156106675760405162461bcd60e51b815260206004820152602860248201527f45524332303a207472616e7366657220616d6f756e74206578636565647320616044820152676c6c6f77616e636560c01b60648201526084016105a0565b6106748533858403610b89565b506001949350505050565b60008281526020819052604090206001015461069b8133610f5c565b6106a58383610fc0565b505050565b6000806106b56108c0565b90506106c060045490565b6106cb575090919050565b80836106d660045490565b6106e09190611728565b6106ea9190611747565b9392505050565b50919050565b60008061070360045490565b116107415760405162461bcd60e51b815260206004820152600e60248201526d737570706c79206973207a65726f60901b60448201526064016105a0565b60045461074c6108c0565b61075e90670de0b6b3a7640000611728565b6107689190611747565b905090565b6001600160a01b03811633146107dd5760405162461bcd60e51b815260206004820152602f60248201527f416363657373436f6e74726f6c3a2063616e206f6e6c792072656e6f756e636560448201526e103937b632b9903337b91039b2b63360891b60648201526084016105a0565b6107e78282610fe2565b5050565b3360008181526003602090815260408083206001600160a01b03871684529091528120549091610525918590610822908690611769565b610b89565b6007546040516341976e0960e01b81526001600160a01b03848116600483015260009283929116906341976e0990602401602060405180830381865afa158015610875573d6000803e3d6000fd5b505050506040513d601f19601f820116820180604052508101906108999190611781565b9050670de0b6b3a76400006108ae8483611728565b6108b89190611747565b949350505050565b600854604080516375f4d67760e01b815290516000926001600160a01b0316916375f4d6779160048083019260209291908290030181865afa15801561090a573d6000803e3d6000fd5b505050506040513d601f19601f820116820180604052508101906107689190611781565b60008281526001602052604081206106ea9083611004565b6000918252602082815260408084206001600160a01b0393909316845291905290205460ff1690565b606060068054610495906116dd565b600081116109ce5760405162461bcd60e51b815260206004820181905260248201527f416d6f756e7420746f2072656465656d206e6565647320746f206265203e203060448201526064016105a0565b6107e78282611010565b3360009081526003602090815260408083206001600160a01b038616845290915281205482811015610a5a5760405162461bcd60e51b815260206004820152602560248201527f45524332303a2064656372656173656420616c6c6f77616e63652062656c6f77604482015264207a65726f60d81b60648201526084016105a0565b610a673385858403610b89565b5060019392505050565b6000610525338484610d8c565b60008181526001602052604081206104809061115e565b600082815260208190526040902060010154610ab18133610f5c565b6106a58383610fe2565b610ac58282610946565b6107e7576000828152602081815260408083206001600160a01b03851684529091529020805460ff19166001179055610afb3390565b6001600160a01b0316816001600160a01b0316837f2f8788117e7eff1d82e926ec794901d17c78024a50270940304540a733656f0d60405160405180910390a45050565b60006106ea836001600160a01b038416611168565b60006001600160e01b03198216637965db0b60e01b148061048057506301ffc9a760e01b6001600160e01b0319831614610480565b6001600160a01b038316610beb5760405162461bcd60e51b8152602060048201526024808201527f45524332303a20617070726f76652066726f6d20746865207a65726f206164646044820152637265737360e01b60648201526084016105a0565b6001600160a01b038216610c4c5760405162461bcd60e51b815260206004820152602260248201527f45524332303a20617070726f766520746f20746865207a65726f206164647265604482015261737360f01b60648201526084016105a0565b6001600160a01b0383811660008181526003602090815260408083209487168084529482529182902085905590518481527f8c5be1e5ebec7d5bd14f71427d1e84f3dd0314c0f7b2291e5b200ac8c7c3b925910160405180910390a3505050565b6001600160a01b038216610d035760405162461bcd60e51b815260206004820152601f60248201527f45524332303a206d696e7420746f20746865207a65726f20616464726573730060448201526064016105a0565b8060046000828254610d159190611769565b90915550506001600160a01b03821660009081526002602052604081208054839290610d42908490611769565b90915550506040518181526001600160a01b038316906000907fddf252ad1be2c89b69c2b068fc378daa952ba7f163c4a11628f55a4df523b3ef9060200160405180910390a35050565b6001600160a01b038316610df05760405162461bcd60e51b815260206004820152602560248201527f45524332303a207472616e736665722066726f6d20746865207a65726f206164604482015264647265737360d81b60648201526084016105a0565b6001600160a01b038216610e525760405162461bcd60e51b815260206004820152602360248201527f45524332303a207472616e7366657220746f20746865207a65726f206164647260448201526265737360e81b60648201526084016105a0565b6001600160a01b03831660009081526002602052604090205481811015610eca5760405162461bcd60e51b815260206004820152602660248201527f45524332303a207472616e7366657220616d6f756e7420657863656564732062604482015265616c616e636560d01b60648201526084016105a0565b6001600160a01b03808516600090815260026020526040808220858503905591851681529081208054849290610f01908490611769565b92505081905550826001600160a01b0316846001600160a01b03167fddf252ad1be2c89b69c2b068fc378daa952ba7f163c4a11628f55a4df523b3ef84604051610f4d91815260200190565b60405180910390a35b50505050565b610f668282610946565b6107e757610f7e816001600160a01b031660146111b7565b610f898360206111b7565b604051602001610f9a92919061179a565b60408051601f198184030181529082905262461bcd60e51b82526105a091600401611540565b610fca8282610abb565b60008281526001602052604090206106a59082610b3f565b610fec8282611353565b60008281526001602052604090206106a590826113b8565b60006106ea83836113cd565b6001600160a01b0382166110705760405162461bcd60e51b815260206004820152602160248201527f45524332303a206275726e2066726f6d20746865207a65726f206164647265736044820152607360f81b60648201526084016105a0565b6001600160a01b038216600090815260026020526040902054818110156110e45760405162461bcd60e51b815260206004820152602260248201527f45524332303a206275726e20616d6f756e7420657863656564732062616c616e604482015261636560f01b60648201526084016105a0565b6001600160a01b038316600090815260026020526040812083830390556004805484929061111390849061180f565b90915550506040518281526000906001600160a01b038516907fddf252ad1be2c89b69c2b068fc378daa952ba7f163c4a11628f55a4df523b3ef9060200160405180910390a3505050565b6000610480825490565b60008181526001830160205260408120546111af57508154600181810184556000848152602080822090930184905584548482528286019093526040902091909155610480565b506000610480565b606060006111c6836002611728565b6111d1906002611769565b67ffffffffffffffff8111156111e9576111e9611826565b6040519080825280601f01601f191660200182016040528015611213576020820181803683370190505b509050600360fc1b8160008151811061122e5761122e61183c565b60200101906001600160f81b031916908160001a905350600f60fb1b8160018151811061125d5761125d61183c565b60200101906001600160f81b031916908160001a9053506000611281846002611728565b61128c906001611769565b90505b6001811115611304576f181899199a1a9b1b9c1cb0b131b232b360811b85600f16601081106112c0576112c061183c565b1a60f81b8282815181106112d6576112d661183c565b60200101906001600160f81b031916908160001a90535060049490941c936112fd81611852565b905061128f565b5083156106ea5760405162461bcd60e51b815260206004820181905260248201527f537472696e67733a20686578206c656e67746820696e73756666696369656e7460448201526064016105a0565b61135d8282610946565b156107e7576000828152602081815260408083206001600160a01b0385168085529252808320805460ff1916905551339285917ff6391f5c32d9c69d2a47ea670b442974b53935d1edc7fd64eb21e047a839171b9190a45050565b60006106ea836001600160a01b0384166113f7565b60008260000182815481106113e4576113e461183c565b9060005260206000200154905092915050565b600081815260018301602052604081205480156114e057600061141b60018361180f565b855490915060009061142f9060019061180f565b905081811461149457600086600001828154811061144f5761144f61183c565b90600052602060002001549050808760000184815481106114725761147261183c565b6000918252602080832090910192909255918252600188019052604090208390555b85548690806114a5576114a5611869565b600190038181906000526020600020016000905590558560010160008681526020019081526020016000206000905560019350505050610480565b6000915050610480565b6000602082840312156114fc57600080fd5b81356001600160e01b0319811681146106ea57600080fd5b60005b8381101561152f578181015183820152602001611517565b83811115610f565750506000910152565b602081526000825180602084015261155f816040850160208701611514565b601f01601f19169190910160400192915050565b80356001600160a01b038116811461158a57600080fd5b919050565b600080604083850312156115a257600080fd5b6115ab83611573565b946020939093013593505050565b6000806000606084860312156115ce57600080fd5b6115d784611573565b9250602084013591506115ec60408501611573565b90509250925092565b60008060006060848603121561160a57600080fd5b61161384611573565b925061162160208501611573565b9150604084013590509250925092565b60006020828403121561164357600080fd5b5035919050565b6000806040838503121561165d57600080fd5b8235915061166d60208401611573565b90509250929050565b60006020828403121561168857600080fd5b6106ea82611573565b600080604083850312156116a457600080fd5b50508035926020909101359150565b600080604083850312156116c657600080fd5b6116cf83611573565b915061166d60208401611573565b600181811c908216806116f157607f821691505b602082108114156106f157634e487b7160e01b600052602260045260246000fd5b634e487b7160e01b600052601160045260246000fd5b600081600019048311821515161561174257611742611712565b500290565b60008261176457634e487b7160e01b600052601260045260246000fd5b500490565b6000821982111561177c5761177c611712565b500190565b60006020828403121561179357600080fd5b5051919050565b7f416363657373436f6e74726f6c3a206163636f756e74200000000000000000008152600083516117d2816017850160208801611514565b7001034b99036b4b9b9b4b733903937b6329607d1b6017918401918201528351611803816028840160208801611514565b01602801949350505050565b60008282101561182157611821611712565b500390565b634e487b7160e01b600052604160045260246000fd5b634e487b7160e01b600052603260045260246000fd5b60008161186157611861611712565b506000190190565b634e487b7160e01b600052603160045260246000fdfea264697066735822122080530c7076002ded32ede99b9886be6e0268f0975e7c3b2fae0c896d27f3bc2364736f6c634300080b0033608060405234801561001057600080fd5b50600060208190527f4e2753d238f0f4cb8962490717ab551b4c023808c7bc37aed6e8760bfc3a92d580546001600160a01b031990811673d8bd0a1cb028a31aa859a21a3758685a95de462317909155735592ec0cfb4dbc12d3ab100b257153436a1f0fea9091527ff4e9730789baae4355b7b087afa1a57a24c222e690ce50ce909b525e8495925b8054909116732ba49aaa16e6afd2a993473cfb70fa8559b523cf1790556102b1806100c56000396000f3fe608060405234801561001057600080fd5b50600436106100365760003560e01c806341976e091461003b5780634238dc4714610061575b600080fd5b61004e610049366004610141565b6100a2565b6040519081526020015b60405180910390f35b61008a61006f366004610141565b6000602081905290815260409020546001600160a01b031681565b6040516001600160a01b039091168152602001610058565b6001600160a01b03808216600090815260208190526040808220548151633fabe5a360e21b81529151929316918391839163feaf968c9160048082019260a0929091908290030181865afa1580156100fe573d6000803e3d6000fd5b505050506040513d601f19601f820116820180604052508101906101229190610190565b505050915050806402540be40061013991906101f6565b949350505050565b60006020828403121561015357600080fd5b81356001600160a01b038116811461016a57600080fd5b9392505050565b805169ffffffffffffffffffff8116811461018b57600080fd5b919050565b600080600080600060a086880312156101a857600080fd5b6101b186610171565b94506020860151935060408601519250606086015191506101d460808701610171565b90509295509295909350565b634e487b7160e01b600052601160045260246000fd5b60006001600160ff1b038184138284138082168684048611161561021c5761021c6101e0565b600160ff1b600087128281168783058912161561023b5761023b6101e0565b60008712925087820587128484161615610257576102576101e0565b8785058712818416161561026d5761026d6101e0565b50505092909302939250505056fea264697066735822122072c48f6e00c5a52cb863487a9419bc6a66d0f63d77321e88f47fe70ef4f6aac064736f6c634300080b00336080604052600260005534801561001557600080fd5b50604051610738380380610738833981016040819052610034916100d6565b600380546001600160a01b039384166001600160a01b03199182161790915560048054929093169116179055600260009081556040805160208082019092528281527301be23585060835e02b77ef475b0cc51aa1e070990925260019052517fe539f5536278cb22339893811e6a9f04c719f63cc90966a4f1b05b9f4ec17a6f55610109565b80516001600160a01b03811681146100d157600080fd5b919050565b600080604083850312156100e957600080fd5b6100f2836100ba565b9150610100602084016100ba565b90509250929050565b610620806101186000396000f3fe608060405234801561001057600080fd5b506004361061007d5760003560e01c8063a347e24c1161005b578063a347e24c146100dc578063f8b2cb4f14610105578063f970c3b714610118578063fc0c546a1461012d57600080fd5b8063094049541461008257806316f0115b1461009e5780638eabd4fe146100c9575b600080fd5b61008b60005481565b6040519081526020015b60405180910390f35b6003546100b1906001600160a01b031681565b6040516001600160a01b039091168152602001610095565b61008b6100d73660046104ba565b610140565b61008b6100ea366004610509565b6001600160a01b031660009081526001602052604090205490565b61008b610113366004610509565b61030f565b61012b61012636600461052b565b610380565b005b6004546100b1906001600160a01b031681565b600060018215151415610278576004546003546000546001600160a01b039283169263095ea7b392169061017590879061057d565b6040516001600160e01b031960e085901b1681526001600160a01b03909216600483015260248201526044016020604051808303816000875af11580156101c0573d6000803e3d6000fd5b505050506040513d601f19601f820116820180604052508101906101e4919061059c565b506003546000546001600160a01b0390911690632e81d95e903090879061020c90889061057d565b6040516001600160e01b031960e086901b1681526001600160a01b0393841660048201529290911660248301526044820152606401600060405180830381600087803b15801561025b57600080fd5b505af115801561026f573d6000803e3d6000fd5b50505050610307565b836001600160a01b031663a9059cbb8685600054610296919061057d565b6040516001600160e01b031960e085901b1681526001600160a01b03909216600483015260248201526044016020604051808303816000875af11580156102e1573d6000803e3d6000fd5b505050506040513d601f19601f82011682018060405250810190610305919061059c565b505b949350505050565b6040516370a0823160e01b81523060048201526000906001600160a01b038316906370a0823190602401602060405180830381865afa158015610356573d6000803e3d6000fd5b505050506040513d601f19601f8201168201806040525081019061037a91906105b9565b92915050565b6040516323b872dd60e01b81526001600160a01b038481166004830152306024830152604482018390528316906323b872dd906064016020604051808303816000875af11580156103d5573d6000803e3d6000fd5b505050506040513d601f19601f820116820180604052508101906103f9919061059c565b506001600160a01b03821660009081526001602052604090205461041e9082906105d2565b6001600160a01b038084166000818152600160209081526040808320959095559287168152600283528381209181529152205461045c9082906105d2565b6001600160a01b03938416600090815260026020908152604080832095909616825293909352929091209190915550565b80356001600160a01b03811681146104a457600080fd5b919050565b80151581146104b757600080fd5b50565b600080600080608085870312156104d057600080fd5b6104d98561048d565b93506104e76020860161048d565b92506040850135915060608501356104fe816104a9565b939692955090935050565b60006020828403121561051b57600080fd5b6105248261048d565b9392505050565b60008060006060848603121561054057600080fd5b6105498461048d565b92506105576020850161048d565b9150604084013590509250925092565b634e487b7160e01b600052601160045260246000fd5b600081600019048311821515161561059757610597610567565b500290565b6000602082840312156105ae57600080fd5b8151610524816104a9565b6000602082840312156105cb57600080fd5b5051919050565b600082198211156105e5576105e5610567565b50019056fea2646970667358221220e599df2e9a234c34d5bf02c21b751f0e30ebf82e54af7f4b4fdc0bd0d7cec20364736f6c634300080b0033","bytecodeSha1":"333588be1c1d3f38f27594a387062c304160d8cc","type":"contract","abi":[{"inputs":[],"stateMutability":"nonpayable","type":"constructor","name":"constructor"},{"anonymous":false,"inputs":[{"indexed":false,"internalType":"address","name":"_user","type":"address"},{"indexed":false,"internalType":"uint256","name":"_borrowed","type":"uint256"},{"indexed":false,"internalType":"address","name":"_borrowedAsset","type":"address"},{"indexed":false,"internalType":"uint256","name":"_collateral","type":"uint256"},{"indexed":false,"internalType":"address","name":"_collateralAsset","type":"address"}],"name":"borrowEvent","type":"event"},{"anonymous":false,"inputs":[{"indexed":false,"internalType":"address","name":"_user","type":"address"},{"indexed":false,"internalType":"uint256","name":"_quantity","type":"uint256"},{"indexed":false,"internalType":"address","name":"_asset","type":"address"}],"name":"depositEvent","type":"event"},{"inputs":[{"internalType":"uint256","name":"_borrowQuantity","type":"uint256"},{"internalType":"address","name":"_asset","type":"address"},{"internalType":"uint256","name":"_collateralQuantity","type":"uint256"},{"internalType":"address","name":"_collateral","type":"address"}],"name":"Borrow","outputs":[],"stateMutability":"nonpayable","type":"function"},{"inputs":[{"internalType":"uint256","name":"_quantity","type":"uint256"},{"internalType":"address","name":"_asset","type":"address"}],"name":"Deposit","outputs":[],"stateMutability":"nonpayable","type":"function"},{"inputs":[{"internalType":"address","name":"_asset","type":"address"},{"internalType":"uint256","name":"_repayQuantity","type":"uint256"},{"internalType":"bool","name":"_toPool","type":"bool"}],"name":"Repay","outputs":[],"stateMutability":"nonpayable","type":"function"},{"inputs":[{"internalType":"address","name":"_desiredAsset","type":"address"},{"internalType":"uint256","name":"_amountToRemove","type":"uint256"}],"name":"Withdraw","outputs":[],"stateMutability":"nonpayable","type":"function"},{"inputs":[{"internalType":"address","name":"","type":"address"},{"internalType":"address","name":"","type":"address"}],"name":"borrowTracker","outputs":[{"internalType":"uint256","name":"","type":"uint256"}],"stateMutability":"view","type":"function"},{"inputs":[],"name":"collReq","outputs":[{"internalType":"uint256","name":"","type":"uint256"}],"stateMutability":"view","type":"function"},{"inputs":[],"name":"collateral","outputs":[{"internalType":"contract Collateral","name":"","type":"address"}],"stateMutability":"view","type":"function"},{"inputs":[{"internalType":"address","name":"user","type":"address"}],"name":"getBalanceOf","outputs":[{"internalType":"uint256","name":"","type":"uint256"}],"stateMutability":"view","type":"function"},{"inputs":[],"name":"getCollAddr","outputs":[{"internalType":"address","name":"","type":"address"}],"stateMutability":"view","type":"function"},{"inputs":[{"internalType":"address","name":"_token","type":"address"}],"name":"getCollBalance","outputs":[{"internalType":"uint256","name":"","type":"uint256"}],"stateMutability":"view","type":"function"},{"inputs":[{"internalType":"address","name":"_token","type":"address"}],"name":"getLiquidPct","outputs":[{"internalType":"uint256","name":"","type":"uint256"}],"stateMutability":"view","type":"function"},{"inputs":[{"internalType":"address","name":"_token","type":"address"}],"name":"getLiquidity","outputs":[{"internalType":"uint256","name":"","type":"uint256"}],"stateMutability":"view","type":"function"},{"inputs":[{"internalType":"address","name":"_token","type":"address"}],"name":"getLockedCollateral","outputs":[{"internalType":"uint256","name":"","type":"uint256"}],"stateMutability":"view","type":"function"},{"inputs":[],"name":"getPoolAddr","outputs":[{"internalType":"address","name":"","type":"address"}],"stateMutability":"view","type":"function"},{"inputs":[{"internalType":"address","name":"_token","type":"address"}],"name":"getPoolBalance","outputs":[{"internalType":"uint256","name":"","type":"uint256"}],"stateMutability":"view","type":"function"},{"inputs":[],"name":"getPoolValue","outputs":[{"internalType":"uint256","name":"","type":"uint256"}],"stateMutability":"view","type":"function"},{"inputs":[],"name":"getTokenAddr","outputs":[{"internalType":"address","name":"","type":"address"}],"stateMutability":"view","type":"function"},{"inputs":[],"name":"getTokenDollarValue","outputs":[{"internalType":"uint256","name":"","type":"uint256"}],"stateMutability":"view","type":"function"},{"inputs":[],"name":"getTotalSupply","outputs":[{"internalType":"uint256","name":"","type":"uint256"}],"stateMutability":"view","type":"function"},{"inputs":[],"name":"offerCollateralAssets","outputs":[],"stateMutability":"nonpayable","type":"function"},{"inputs":[],"name":"pool","outputs":[{"internalType":"contract Pool","name":"","type":"address"}],"stateMutability":"view","type":"function"},{"inputs":[],"name":"token","outputs":[{"internalType":"contract LVRToken","name":"","type":"address"}],"stateMutability":"view","type":"function"}],"compiler":{"version":"0.8.11+commit.d7f03943","evm_version":"istanbul","optimizer":{"enabled":true,"runs":200}},"contractName":"LendingPool","language":"Solidity","natspec":{"methods":{},"kind":"dev","version":1},"opcodes":"PUSH1 0x80 PUSH1 0x40 MSTORE CALLVALUE DUP1 ISZERO PUSH2 0x10 JUMPI PUSH1 0x0 DUP1 REVERT JUMPDEST POP PUSH1 0x4 CALLDATASIZE LT PUSH2 0x142 JUMPI PUSH1 0x0 CALLDATALOAD PUSH1 0xE0 SHR DUP1 PUSH4 0x6DB18093 GT PUSH2 0xB8 JUMPI DUP1 PUSH4 0xD28682EA GT PUSH2 0x7C JUMPI DUP1 PUSH4 0xD28682EA EQ PUSH2 0x27A JUMPI DUP1 PUSH4 0xD49AB22C EQ PUSH2 0x28D JUMPI DUP1 PUSH4 0xD8DFEB45 EQ PUSH2 0x2A0 JUMPI DUP1 PUSH4 0xDE259242 EQ PUSH2 0x2B3 JUMPI DUP1 PUSH4 0xDE30F97D EQ PUSH2 0x2C4 JUMPI DUP1 PUSH4 0xFC0C546A EQ PUSH2 0x2D7 JUMPI PUSH1 0x0 DUP1 REVERT JUMPDEST DUP1 PUSH4 0x6DB18093 EQ PUSH2 0x231 JUMPI DUP1 PUSH4 0x884EDAD9 EQ PUSH2 0x239 JUMPI DUP1 PUSH4 0x9B96EECE EQ PUSH2 0x24C JUMPI DUP1 PUSH4 0xA747B93B EQ PUSH2 0x25F JUMPI DUP1 PUSH4 0xC4E41B22 EQ PUSH2 0x272 JUMPI PUSH1 0x0 DUP1 REVERT JUMPDEST DUP1 PUSH4 0x243D8E05 GT PUSH2 0x10A JUMPI DUP1 PUSH4 0x243D8E05 EQ PUSH2 0x189 JUMPI DUP1 PUSH4 0x46C928FC EQ PUSH2 0x1BE JUMPI DUP1 PUSH4 0x4BCC1709 EQ PUSH2 0x1D1 JUMPI DUP1 PUSH4 0x582B2720 EQ PUSH2 0x1E4 JUMPI DUP1 PUSH4 0x63E36DAC EQ PUSH2 0x1F5 JUMPI DUP1 PUSH4 0x6AAA434E EQ PUSH2 0x206 JUMPI PUSH1 0x0 DUP1 REVERT JUMPDEST DUP1 PUSH4 0x57393C0 EQ PUSH2 0x147 JUMPI DUP1 PUSH4 0x9404954 EQ PUSH2 0x16D JUMPI DUP1 PUSH4 0x107539C1 EQ PUSH2 0x176 JUMPI DUP1 PUSH4 0x16F0115B EQ PUSH2 0x18B JUMPI DUP1 PUSH4 0x1BA2F531 EQ PUSH2 0x1B6 JUMPI JUMPDEST PUSH1 0x0 DUP1 REVERT JUMPDEST PUSH2 0x15A PUSH2 0x155 CALLDATASIZE PUSH1 0x4 PUSH2 0xD6E JUMP JUMPDEST PUSH2 0x2EA JUMP JUMPDEST PUSH1 0x40 MLOAD SWAP1 DUP2 MSTORE PUSH1 0x20 ADD JUMPDEST PUSH1 0x40 MLOAD DUP1 SWAP2 SUB SWAP1 RETURN JUMPDEST PUSH2 0x15A PUSH1 0x0 SLOAD DUP2 JUMP JUMPDEST PUSH2 0x189 PUSH2 0x184 CALLDATASIZE PUSH1 0x4 PUSH2 0xD90 JUMP JUMPDEST PUSH2 0x360 JUMP JUMPDEST STOP JUMPDEST PUSH1 0x1 SLOAD PUSH2 0x19E SWAP1 PUSH1 0x1 PUSH1 0x1 PUSH1 0xA0 SHL SUB AND DUP2 JUMP JUMPDEST PUSH1 0x40 MLOAD PUSH1 0x1 PUSH1 0x1 PUSH1 0xA0 SHL SUB SWAP1 SWAP2 AND DUP2 MSTORE PUSH1 0x20 ADD PUSH2 0x164 JUMP JUMPDEST PUSH2 0x15A PUSH2 0x50A JUMP JUMPDEST PUSH2 0x189 PUSH2 0x1CC CALLDATASIZE PUSH1 0x4 PUSH2 0xDD5 JUMP JUMPDEST PUSH2 0x588 JUMP JUMPDEST PUSH2 0x189 PUSH2 0x1DF CALLDATASIZE PUSH1 0x4 PUSH2 0xE1B JUMP JUMPDEST PUSH2 0x7BE JUMP JUMPDEST PUSH1 0x4 SLOAD PUSH1 0x1 PUSH1 0x1 PUSH1 0xA0 SHL SUB AND PUSH2 0x19E JUMP JUMPDEST PUSH1 0x2 SLOAD PUSH1 0x1 PUSH1 0x1 PUSH1 0xA0 SHL SUB AND PUSH2 0x19E JUMP JUMPDEST PUSH2 0x15A PUSH2 0x214 CALLDATASIZE PUSH1 0x4 PUSH2 0xE47 JUMP JUMPDEST PUSH1 0x5 PUSH1 0x20 SWAP1 DUP2 MSTORE PUSH1 0x0 SWAP3 DUP4 MSTORE PUSH1 0x40 DUP1 DUP5 KECCAK256 SWAP1 SWAP2 MSTORE SWAP1 DUP3 MSTORE SWAP1 KECCAK256 SLOAD DUP2 JUMP JUMPDEST PUSH2 0x15A PUSH2 0x8EB JUMP JUMPDEST PUSH2 0x189 PUSH2 0x247 CALLDATASIZE PUSH1 0x4 PUSH2 0xE71 JUMP JUMPDEST PUSH2 0x940 JUMP JUMPDEST PUSH2 0x15A PUSH2 0x25A CALLDATASIZE PUSH1 0x4 PUSH2 0xD6E JUMP JUMPDEST PUSH2 0xBF9 JUMP JUMPDEST PUSH2 0x15A PUSH2 0x26D CALLDATASIZE PUSH1 0x4 PUSH2 0xD6E JUMP JUMPDEST PUSH2 0xC31 JUMP JUMPDEST PUSH2 0x15A PUSH2 0xC64 JUMP JUMPDEST PUSH2 0x15A PUSH2 0x288 CALLDATASIZE PUSH1 0x4 PUSH2 0xD6E JUMP JUMPDEST PUSH2 0xCB9 JUMP JUMPDEST PUSH2 0x15A PUSH2 0x29B CALLDATASIZE PUSH1 0x4 PUSH2 0xD6E JUMP JUMPDEST PUSH2 0xCEC JUMP JUMPDEST PUSH1 0x2 SLOAD PUSH2 0x19E SWAP1 PUSH1 0x1 PUSH1 0x1 PUSH1 0xA0 SHL SUB AND DUP2 JUMP JUMPDEST PUSH1 0x1 SLOAD PUSH1 0x1 PUSH1 0x1 PUSH1 0xA0 SHL SUB AND PUSH2 0x19E JUMP JUMPDEST PUSH2 0x15A PUSH2 0x2D2 CALLDATASIZE PUSH1 0x4 PUSH2 0xD6E JUMP JUMPDEST PUSH2 0xD1F JUMP JUMPDEST PUSH1 0x4 SLOAD PUSH2 0x19E SWAP1 PUSH1 0x1 PUSH1 0x1 PUSH1 0xA0 SHL SUB AND DUP2 JUMP JUMPDEST PUSH1 0x2 SLOAD PUSH1 0x40 MLOAD PUSH4 0xF8B2CB4F PUSH1 0xE0 SHL DUP2 MSTORE PUSH1 0x1 PUSH1 0x1 PUSH1 0xA0 SHL SUB DUP4 DUP2 AND PUSH1 0x4 DUP4 ADD MSTORE PUSH1 0x0 SWAP3 AND SWAP1 PUSH4 0xF8B2CB4F SWAP1 PUSH1 0x24 ADD JUMPDEST PUSH1 0x20 PUSH1 0x40 MLOAD DUP1 DUP4 SUB DUP2 DUP7 GAS STATICCALL ISZERO DUP1 ISZERO PUSH2 0x336 JUMPI RETURNDATASIZE PUSH1 0x0 DUP1 RETURNDATACOPY RETURNDATASIZE PUSH1 0x0 REVERT JUMPDEST POP POP POP POP PUSH1 0x40 MLOAD RETURNDATASIZE PUSH1 0x1F NOT PUSH1 0x1F DUP3 ADD AND DUP3 ADD DUP1 PUSH1 0x40 MSTORE POP DUP2 ADD SWAP1 PUSH2 0x35A SWAP2 SWAP1 PUSH2 0xE9B JUMP JUMPDEST SWAP3 SWAP2 POP POP JUMP JUMPDEST CALLER PUSH1 0x0 SWAP1 DUP2 MSTORE PUSH1 0x5 PUSH1 0x20 SWAP1 DUP2 MSTORE PUSH1 0x40 DUP1 DUP4 KECCAK256 PUSH1 0x1 PUSH1 0x1 PUSH1 0xA0 SHL SUB DUP8 AND DUP5 MSTORE SWAP1 SWAP2 MSTORE SWAP1 KECCAK256 SLOAD DUP3 GT ISZERO PUSH2 0x3D8 JUMPI PUSH1 0x40 MLOAD PUSH3 0x461BCD PUSH1 0xE5 SHL DUP2 MSTORE PUSH1 0x20 PUSH1 0x4 DUP3 ADD MSTORE PUSH1 0x1B PUSH1 0x24 DUP3 ADD MSTORE PUSH32 0x52657475726E6564206D6F7265207468616E20626F72726F7765640000000000 PUSH1 0x44 DUP3 ADD MSTORE PUSH1 0x64 ADD JUMPDEST PUSH1 0x40 MLOAD DUP1 SWAP2 SUB SWAP1 REVERT JUMPDEST PUSH1 0x2 SLOAD PUSH1 0x40 MLOAD PUSH4 0x4755EA7F PUSH1 0xE1 SHL DUP2 MSTORE CALLER PUSH1 0x4 DUP3 ADD MSTORE PUSH1 0x1 PUSH1 0x1 PUSH1 0xA0 SHL SUB DUP6 DUP2 AND PUSH1 0x24 DUP4 ADD MSTORE PUSH1 0x44 DUP3 ADD DUP6 SWAP1 MSTORE DUP4 ISZERO ISZERO PUSH1 0x64 DUP4 ADD MSTORE SWAP1 SWAP2 AND SWAP1 PUSH4 0x8EABD4FE SWAP1 PUSH1 0x84 ADD PUSH1 0x20 PUSH1 0x40 MLOAD DUP1 DUP4 SUB DUP2 PUSH1 0x0 DUP8 GAS CALL ISZERO DUP1 ISZERO PUSH2 0x439 JUMPI RETURNDATASIZE PUSH1 0x0 DUP1 RETURNDATACOPY RETURNDATASIZE PUSH1 0x0 REVERT JUMPDEST POP POP POP POP PUSH1 0x40 MLOAD RETURNDATASIZE PUSH1 0x1F NOT PUSH1 0x1F DUP3 ADD AND DUP3 ADD DUP1 PUSH1 0x40 MSTORE POP DUP2 ADD SWAP1 PUSH2 0x45D SWAP2 SWAP1 PUSH2 0xE9B JUMP JUMPDEST POP PUSH1 0x1 DUP2 ISZERO ISZERO EQ ISZERO PUSH2 0x480 JUMPI PUSH2 0x480 DUP3 PUSH1 0x0 SLOAD PUSH2 0x47A SWAP2 SWAP1 PUSH2 0xECA JUMP JUMPDEST DUP5 PUSH2 0x7BE JUMP JUMPDEST CALLER PUSH1 0x0 SWAP1 DUP2 MSTORE PUSH1 0x5 PUSH1 0x20 SWAP1 DUP2 MSTORE PUSH1 0x40 DUP1 DUP4 KECCAK256 PUSH1 0x1 PUSH1 0x1 PUSH1 0xA0 SHL SUB DUP8 AND DUP5 MSTORE SWAP1 SWAP2 MSTORE DUP2 KECCAK256 DUP1 SLOAD DUP5 SWAP3 SWAP1 PUSH2 0x4B3 SWAP1 DUP5 SWAP1 PUSH2 0xEE9 JUMP JUMPDEST SWAP1 SWAP2 SSTORE POP POP CALLER PUSH1 0x0 SWAP1 DUP2 MSTORE PUSH1 0x5 PUSH1 0x20 SWAP1 DUP2 MSTORE PUSH1 0x40 DUP1 DUP4 KECCAK256 PUSH1 0x1 PUSH1 0x1 PUSH1 0xA0 SHL SUB DUP8 AND DUP5 MSTORE SWAP1 SWAP2 MSTORE SWAP1 KECCAK256 SLOAD PUSH2 0x505 JUMPI CALLER PUSH1 0x0 SWAP1 DUP2 MSTORE PUSH1 0x5 PUSH1 0x20 SWAP1 DUP2 MSTORE PUSH1 0x40 DUP1 DUP4 KECCAK256 PUSH1 0x1 PUSH1 0x1 PUSH1 0xA0 SHL SUB DUP8 AND DUP5 MSTORE SWAP1 SWAP2 MSTORE DUP2 KECCAK256 SSTORE JUMPDEST POP POP POP JUMP JUMPDEST PUSH1 0x0 PUSH1 0x4 PUSH1 0x0 SWAP1 SLOAD SWAP1 PUSH2 0x100 EXP SWAP1 DIV PUSH1 0x1 PUSH1 0x1 PUSH1 0xA0 SHL SUB AND PUSH1 0x1 PUSH1 0x1 PUSH1 0xA0 SHL SUB AND PUSH4 0x8A02775B PUSH1 0x40 MLOAD DUP2 PUSH4 0xFFFFFFFF AND PUSH1 0xE0 SHL DUP2 MSTORE PUSH1 0x4 ADD PUSH1 0x20 PUSH1 0x40 MLOAD DUP1 DUP4 SUB DUP2 DUP7 GAS STATICCALL ISZERO DUP1 ISZERO PUSH2 0x55F JUMPI RETURNDATASIZE PUSH1 0x0 DUP1 RETURNDATACOPY RETURNDATASIZE PUSH1 0x0 REVERT JUMPDEST POP POP POP POP PUSH1 0x40 MLOAD RETURNDATASIZE PUSH1 0x1F NOT PUSH1 0x1F DUP3 ADD AND DUP3 ADD DUP1 PUSH1 0x40 MSTORE POP DUP2 ADD SWAP1 PUSH2 0x583 SWAP2 SWAP1 PUSH2 0xE9B JUMP JUMPDEST SWAP1 POP SWAP1 JUMP JUMPDEST PUSH1 0x2 PUSH1 0x0 SWAP1 SLOAD SWAP1 PUSH2 0x100 EXP SWAP1 DIV PUSH1 0x1 PUSH1 0x1 PUSH1 0xA0 SHL SUB AND PUSH1 0x1 PUSH1 0x1 PUSH1 0xA0 SHL SUB AND PUSH4 0x9404954 PUSH1 0x40 MLOAD DUP2 PUSH4 0xFFFFFFFF AND PUSH1 0xE0 SHL DUP2 MSTORE PUSH1 0x4 ADD PUSH1 0x20 PUSH1 0x40 MLOAD DUP1 DUP4 SUB DUP2 DUP7 GAS STATICCALL ISZERO DUP1 ISZERO PUSH2 0x5DB JUMPI RETURNDATASIZE PUSH1 0x0 DUP1 RETURNDATACOPY RETURNDATASIZE PUSH1 0x0 REVERT JUMPDEST POP POP POP POP PUSH1 0x40 MLOAD RETURNDATASIZE PUSH1 0x1F NOT PUSH1 0x1F DUP3 ADD AND DUP3 ADD DUP1 PUSH1 0x40 MSTORE POP DUP2 ADD SWAP1 PUSH2 0x5FF SWAP2 SWAP1 PUSH2 0xE9B JUMP JUMPDEST PUSH2 0x609 SWAP1 DUP6 PUSH2 0xECA JUMP JUMPDEST DUP3 LT ISZERO PUSH2 0x650 JUMPI PUSH1 0x40 MLOAD PUSH3 0x461BCD PUSH1 0xE5 SHL DUP2 MSTORE PUSH1 0x20 PUSH1 0x4 DUP3 ADD MSTORE PUSH1 0x15 PUSH1 0x24 DUP3 ADD MSTORE PUSH21 0x1B9BDD08195B9BDD59DA0818DBDB1B185D195C985B PUSH1 0x5A SHL PUSH1 0x44 DUP3 ADD MSTORE PUSH1 0x64 ADD PUSH2 0x3CF JUMP JUMPDEST PUSH1 0x2 SLOAD PUSH1 0x40 MLOAD PUSH4 0xF970C3B7 PUSH1 0xE0 SHL DUP2 MSTORE CALLER PUSH1 0x4 DUP3 ADD MSTORE PUSH1 0x1 PUSH1 0x1 PUSH1 0xA0 SHL SUB DUP4 DUP2 AND PUSH1 0x24 DUP4 ADD MSTORE PUSH1 0x44 DUP3 ADD DUP6 SWAP1 MSTORE SWAP1 SWAP2 AND SWAP1 PUSH4 0xF970C3B7 SWAP1 PUSH1 0x64 ADD PUSH1 0x0 PUSH1 0x40 MLOAD DUP1 DUP4 SUB DUP2 PUSH1 0x0 DUP8 DUP1 EXTCODESIZE ISZERO DUP1 ISZERO PUSH2 0x6A4 JUMPI PUSH1 0x0 DUP1 REVERT JUMPDEST POP GAS CALL ISZERO DUP1 ISZERO PUSH2 0x6B8 JUMPI RETURNDATASIZE PUSH1 0x0 DUP1 RETURNDATACOPY RETURNDATASIZE PUSH1 0x0 REVERT JUMPDEST POP POP PUSH1 0x1 SLOAD PUSH1 0x40 MLOAD PUSH4 0xFC4F78B9 PUSH1 0xE0 SHL DUP2 MSTORE CALLER PUSH1 0x4 DUP3 ADD MSTORE PUSH1 0x1 PUSH1 0x1 PUSH1 0xA0 SHL SUB DUP8 DUP2 AND PUSH1 0x24 DUP4 ADD MSTORE PUSH1 0x44 DUP3 ADD DUP10 SWAP1 MSTORE SWAP1 SWAP2 AND SWAP3 POP PUSH4 0xFC4F78B9 SWAP2 POP PUSH1 0x64 ADD PUSH1 0x0 PUSH1 0x40 MLOAD DUP1 DUP4 SUB DUP2 PUSH1 0x0 DUP8 DUP1 EXTCODESIZE ISZERO DUP1 ISZERO PUSH2 0x710 JUMPI PUSH1 0x0 DUP1 REVERT JUMPDEST POP GAS CALL ISZERO DUP1 ISZERO PUSH2 0x724 JUMPI RETURNDATASIZE PUSH1 0x0 DUP1 RETURNDATACOPY RETURNDATASIZE PUSH1 0x0 REVERT JUMPDEST POP POP PUSH1 0x40 DUP1 MLOAD CALLER DUP2 MSTORE PUSH1 0x20 DUP2 ADD DUP9 SWAP1 MSTORE PUSH1 0x1 PUSH1 0x1 PUSH1 0xA0 SHL SUB DUP8 DUP2 AND DUP3 DUP5 ADD MSTORE PUSH1 0x60 DUP3 ADD DUP8 SWAP1 MSTORE DUP6 AND PUSH1 0x80 DUP3 ADD MSTORE SWAP1 MLOAD PUSH32 0xEA8631408D071CDC565DFA37DCB32450C4C85EE9A4142ED14DF1387D7C2A4327 SWAP4 POP SWAP1 DUP2 SWAP1 SUB PUSH1 0xA0 ADD SWAP2 POP LOG1 CALLER PUSH1 0x0 SWAP1 DUP2 MSTORE PUSH1 0x5 PUSH1 0x20 SWAP1 DUP2 MSTORE PUSH1 0x40 DUP1 DUP4 KECCAK256 PUSH1 0x1 PUSH1 0x1 PUSH1 0xA0 SHL SUB DUP8 AND DUP5 MSTORE SWAP1 SWAP2 MSTORE DUP2 KECCAK256 DUP1 SLOAD DUP7 SWAP3 SWAP1 PUSH2 0x7B3 SWAP1 DUP5 SWAP1 PUSH2 0xF00 JUMP JUMPDEST SWAP1 SWAP2 SSTORE POP POP POP POP POP POP JUMP JUMPDEST PUSH1 0x0 DUP3 GT PUSH2 0x80E JUMPI PUSH1 0x40 MLOAD PUSH3 0x461BCD PUSH1 0xE5 SHL DUP2 MSTORE PUSH1 0x20 PUSH1 0x4 DUP3 ADD MSTORE PUSH1 0x18 PUSH1 0x24 DUP3 ADD MSTORE PUSH32 0x6465706F736974206D75737420626520706F7369746976650000000000000000 PUSH1 0x44 DUP3 ADD MSTORE PUSH1 0x64 ADD PUSH2 0x3CF JUMP JUMPDEST PUSH1 0x4 DUP1 SLOAD PUSH1 0x40 MLOAD PUSH4 0xD4D1513 PUSH1 0xE0 SHL DUP2 MSTORE CALLER SWAP3 DUP2 ADD SWAP3 SWAP1 SWAP3 MSTORE PUSH1 0x24 DUP3 ADD DUP5 SWAP1 MSTORE PUSH1 0x1 PUSH1 0x1 PUSH1 0xA0 SHL SUB DUP4 DUP2 AND PUSH1 0x44 DUP5 ADD MSTORE AND SWAP1 PUSH4 0xD4D1513 SWAP1 PUSH1 0x64 ADD PUSH1 0x0 PUSH1 0x40 MLOAD DUP1 DUP4 SUB DUP2 PUSH1 0x0 DUP8 DUP1 EXTCODESIZE ISZERO DUP1 ISZERO PUSH2 0x863 JUMPI PUSH1 0x0 DUP1 REVERT JUMPDEST POP GAS CALL ISZERO DUP1 ISZERO PUSH2 0x877 JUMPI RETURNDATASIZE PUSH1 0x0 DUP1 RETURNDATACOPY RETURNDATASIZE PUSH1 0x0 REVERT JUMPDEST POP POP PUSH1 0x1 SLOAD PUSH1 0x40 MLOAD PUSH4 0x1740ECAF PUSH1 0xE1 SHL DUP2 MSTORE CALLER PUSH1 0x4 DUP3 ADD MSTORE PUSH1 0x1 PUSH1 0x1 PUSH1 0xA0 SHL SUB DUP6 DUP2 AND PUSH1 0x24 DUP4 ADD MSTORE PUSH1 0x44 DUP3 ADD DUP8 SWAP1 MSTORE SWAP1 SWAP2 AND SWAP3 POP PUSH4 0x2E81D95E SWAP2 POP PUSH1 0x64 ADD PUSH1 0x0 PUSH1 0x40 MLOAD DUP1 DUP4 SUB DUP2 PUSH1 0x0 DUP8 DUP1 EXTCODESIZE ISZERO DUP1 ISZERO PUSH2 0x8CF JUMPI PUSH1 0x0 DUP1 REVERT JUMPDEST POP GAS CALL ISZERO DUP1 ISZERO PUSH2 0x8E3 JUMPI RETURNDATASIZE PUSH1 0x0 DUP1 RETURNDATACOPY RETURNDATASIZE PUSH1 0x0 REVERT JUMPDEST POP POP POP POP POP POP JUMP JUMPDEST PUSH1 0x0 PUSH1 0x4 PUSH1 0x0 SWAP1 SLOAD SWAP1 PUSH2 0x100 EXP SWAP1 DIV PUSH1 0x1 PUSH1 0x1 PUSH1 0xA0 SHL SUB AND PUSH1 0x1 PUSH1 0x1 PUSH1 0xA0 SHL SUB AND PUSH4 0x33D57CDC PUSH1 0x40 MLOAD DUP2 PUSH4 0xFFFFFFFF AND PUSH1 0xE0 SHL DUP2 MSTORE PUSH1 0x4 ADD PUSH1 0x20 PUSH1 0x40 MLOAD DUP1 DUP4 SUB DUP2 DUP7 GAS STATICCALL ISZERO DUP1 ISZERO PUSH2 0x55F JUMPI RETURNDATASIZE PUSH1 0x0 DUP1 RETURNDATACOPY RETURNDATASIZE PUSH1 0x0 REVERT JUMPDEST PUSH1 0x1 SLOAD PUSH1 0x40 MLOAD PUSH4 0xFCE3E8E7 PUSH1 0xE0 SHL DUP2 MSTORE PUSH1 0x1 PUSH1 0x1 PUSH1 0xA0 SHL SUB DUP5 DUP2 AND PUSH1 0x4 DUP4 ADD MSTORE SWAP1 SWAP2 AND SWAP1 PUSH4 0xFCE3E8E7 SWAP1 PUSH1 0x24 ADD PUSH1 0x20 PUSH1 0x40 MLOAD DUP1 DUP4 SUB DUP2 DUP7 GAS STATICCALL ISZERO DUP1 ISZERO PUSH2 0x98A JUMPI RETURNDATASIZE PUSH1 0x0 DUP1 RETURNDATACOPY RETURNDATASIZE PUSH1 0x0 REVERT JUMPDEST POP POP POP POP PUSH1 0x40 MLOAD RETURNDATASIZE PUSH1 0x1F NOT PUSH1 0x1F DUP3 ADD AND DUP3 ADD DUP1 PUSH1 0x40 MSTORE POP DUP2 ADD SWAP1 PUSH2 0x9AE SWAP2 SWAP1 PUSH2 0xE9B JUMP JUMPDEST DUP2 GT ISZERO PUSH2 0xA18 JUMPI PUSH1 0x40 MLOAD PUSH3 0x461BCD PUSH1 0xE5 SHL DUP2 MSTORE PUSH1 0x20 PUSH1 0x4 DUP3 ADD MSTORE PUSH1 0x32 PUSH1 0x24 DUP3 ADD MSTORE PUSH32 0x557365722063616E6E6F742072656465656D206D6F7265207468616E20746865 PUSH1 0x44 DUP3 ADD MSTORE PUSH18 0x20617661696C61626C652062616C616E6365 PUSH1 0x70 SHL PUSH1 0x64 DUP3 ADD MSTORE PUSH1 0x84 ADD PUSH2 0x3CF JUMP JUMPDEST PUSH1 0x1 SLOAD PUSH1 0x4 DUP1 SLOAD PUSH1 0x40 MLOAD PUSH4 0x70A08231 PUSH1 0xE0 SHL DUP2 MSTORE CALLER SWAP3 DUP2 ADD DUP4 SWAP1 MSTORE PUSH1 0x0 SWAP4 PUSH1 0x1 PUSH1 0x1 PUSH1 0xA0 SHL SUB SWAP1 DUP2 AND SWAP4 PUSH4 0x272A8E0 SWAP4 SWAP1 SWAP3 DUP9 SWAP3 DUP9 SWAP3 AND SWAP1 PUSH4 0x70A08231 SWAP1 PUSH1 0x24 ADD PUSH1 0x20 PUSH1 0x40 MLOAD DUP1 DUP4 SUB DUP2 DUP7 GAS STATICCALL ISZERO DUP1 ISZERO PUSH2 0xA76 JUMPI RETURNDATASIZE PUSH1 0x0 DUP1 RETURNDATACOPY RETURNDATASIZE PUSH1 0x0 REVERT JUMPDEST POP POP POP POP PUSH1 0x40 MLOAD RETURNDATASIZE PUSH1 0x1F NOT PUSH1 0x1F DUP3 ADD AND DUP3 ADD DUP1 PUSH1 0x40 MSTORE POP DUP2 ADD SWAP1 PUSH2 0xA9A SWAP2 SWAP1 PUSH2 0xE9B JUMP JUMPDEST PUSH1 0x4 DUP1 SLOAD PUSH1 0x40 DUP1 MLOAD PUSH4 0xCF55F37 PUSH1 0xE2 SHL DUP2 MSTORE SWAP1 MLOAD PUSH1 0x1 PUSH1 0x1 PUSH1 0xA0 SHL SUB SWAP1 SWAP3 AND SWAP3 PUSH4 0x33D57CDC SWAP3 DUP3 DUP3 ADD SWAP3 PUSH1 0x20 SWAP3 SWAP1 DUP3 SWAP1 SUB ADD DUP2 DUP7 GAS STATICCALL ISZERO DUP1 ISZERO PUSH2 0xAE1 JUMPI RETURNDATASIZE PUSH1 0x0 DUP1 RETURNDATACOPY RETURNDATASIZE PUSH1 0x0 REVERT JUMPDEST POP POP POP POP PUSH1 0x40 MLOAD RETURNDATASIZE PUSH1 0x1F NOT PUSH1 0x1F DUP3 ADD AND DUP3 ADD DUP1 PUSH1 0x40 MSTORE POP DUP2 ADD SWAP1 PUSH2 0xB05 SWAP2 SWAP1 PUSH2 0xE9B JUMP JUMPDEST PUSH1 0x40 MLOAD PUSH1 0x1 PUSH1 0x1 PUSH1 0xE0 SHL SUB NOT PUSH1 0xE0 DUP9 SWAP1 SHL AND DUP2 MSTORE PUSH1 0x1 PUSH1 0x1 PUSH1 0xA0 SHL SUB SWAP6 DUP7 AND PUSH1 0x4 DUP3 ADD MSTORE SWAP5 SWAP1 SWAP4 AND PUSH1 0x24 DUP6 ADD MSTORE PUSH1 0x44 DUP5 ADD SWAP2 SWAP1 SWAP2 MSTORE PUSH1 0x64 DUP4 ADD MSTORE PUSH1 0x84 DUP3 ADD MSTORE PUSH1 0xA4 ADD PUSH1 0x20 PUSH1 0x40 MLOAD DUP1 DUP4 SUB DUP2 PUSH1 0x0 DUP8 GAS CALL ISZERO DUP1 ISZERO PUSH2 0xB66 JUMPI RETURNDATASIZE PUSH1 0x0 DUP1 RETURNDATACOPY RETURNDATASIZE PUSH1 0x0 REVERT JUMPDEST POP POP POP POP PUSH1 0x40 MLOAD RETURNDATASIZE PUSH1 0x1F NOT PUSH1 0x1F DUP3 ADD AND DUP3 ADD DUP1 PUSH1 0x40 MSTORE POP DUP2 ADD SWAP1 PUSH2 0xB8A SWAP2 SWAP1 PUSH2 0xE9B JUMP JUMPDEST PUSH1 0x4 DUP1 SLOAD PUSH1 0x40 MLOAD PUSH4 0x2770A7EB PUSH1 0xE2 SHL DUP2 MSTORE CALLER SWAP3 DUP2 ADD SWAP3 SWAP1 SWAP3 MSTORE PUSH1 0x24 DUP3 ADD DUP4 SWAP1 MSTORE SWAP2 SWAP3 POP PUSH1 0x1 PUSH1 0x1 PUSH1 0xA0 SHL SUB SWAP1 SWAP2 AND SWAP1 PUSH4 0x9DC29FAC SWAP1 PUSH1 0x44 ADD PUSH1 0x0 PUSH1 0x40 MLOAD DUP1 DUP4 SUB DUP2 PUSH1 0x0 DUP8 DUP1 EXTCODESIZE ISZERO DUP1 ISZERO PUSH2 0xBDC JUMPI PUSH1 0x0 DUP1 REVERT JUMPDEST POP GAS CALL ISZERO DUP1 ISZERO PUSH2 0xBF0 JUMPI RETURNDATASIZE PUSH1 0x0 DUP1 RETURNDATACOPY RETURNDATASIZE PUSH1 0x0 REVERT JUMPDEST POP POP POP POP POP POP POP JUMP JUMPDEST PUSH1 0x4 DUP1 SLOAD PUSH1 0x40 MLOAD PUSH4 0x70A08231 PUSH1 0xE0 SHL DUP2 MSTORE PUSH1 0x1 PUSH1 0x1 PUSH1 0xA0 SHL SUB DUP5 DUP2 AND SWAP4 DUP3 ADD SWAP4 SWAP1 SWAP4 MSTORE PUSH1 0x0 SWAP3 SWAP1 SWAP2 AND SWAP1 PUSH4 0x70A08231 SWAP1 PUSH1 0x24 ADD PUSH2 0x319 JUMP JUMPDEST PUSH1 0x1 SLOAD PUSH1 0x40 MLOAD PUSH4 0xFCE3E8E7 PUSH1 0xE0 SHL DUP2 MSTORE PUSH1 0x1 PUSH1 0x1 PUSH1 0xA0 SHL SUB DUP4 DUP2 AND PUSH1 0x4 DUP4 ADD MSTORE PUSH1 0x0 SWAP3 AND SWAP1 PUSH4 0xFCE3E8E7 SWAP1 PUSH1 0x24 ADD PUSH2 0x319 JUMP JUMPDEST PUSH1 0x0 PUSH1 0x4 PUSH1 0x0 SWAP1 SLOAD SWAP1 PUSH2 0x100 EXP SWAP1 DIV PUSH1 0x1 PUSH1 0x1 PUSH1 0xA0 SHL SUB AND PUSH1 0x1 PUSH1 0x1 PUSH1 0xA0 SHL SUB AND PUSH4 0x18160DDD PUSH1 0x40 MLOAD DUP2 PUSH4 0xFFFFFFFF AND PUSH1 0xE0 SHL DUP2 MSTORE PUSH1 0x4 ADD PUSH1 0x20 PUSH1 0x40 MLOAD DUP1 DUP4 SUB DUP2 DUP7 GAS STATICCALL ISZERO DUP1 ISZERO PUSH2 0x55F JUMPI RETURNDATASIZE PUSH1 0x0 DUP1 RETURNDATACOPY RETURNDATASIZE PUSH1 0x0 REVERT JUMPDEST PUSH1 0x1 SLOAD PUSH1 0x40 MLOAD PUSH4 0xF8B2CB4F PUSH1 0xE0 SHL DUP2 MSTORE PUSH1 0x1 PUSH1 0x1 PUSH1 0xA0 SHL SUB DUP4 DUP2 AND PUSH1 0x4 DUP4 ADD MSTORE PUSH1 0x0 SWAP3 AND SWAP1 PUSH4 0xF8B2CB4F SWAP1 PUSH1 0x24 ADD PUSH2 0x319 JUMP JUMPDEST PUSH1 0x2 SLOAD PUSH1 0x40 MLOAD PUSH4 0x28D1F893 PUSH1 0xE2 SHL DUP2 MSTORE PUSH1 0x1 PUSH1 0x1 PUSH1 0xA0 SHL SUB DUP4 DUP2 AND PUSH1 0x4 DUP4 ADD MSTORE PUSH1 0x0 SWAP3 AND SWAP1 PUSH4 0xA347E24C SWAP1 PUSH1 0x24 ADD PUSH2 0x319 JUMP JUMPDEST PUSH1 0x1 SLOAD PUSH1 0x40 MLOAD PUSH4 0xDE30F97D PUSH1 0xE0 SHL DUP2 MSTORE PUSH1 0x1 PUSH1 0x1 PUSH1 0xA0 SHL SUB DUP4 DUP2 AND PUSH1 0x4 DUP4 ADD MSTORE PUSH1 0x0 SWAP3 AND SWAP1 PUSH4 0xDE30F97D SWAP1 PUSH1 0x24 ADD PUSH2 0x319 JUMP JUMPDEST DUP1 CALLDATALOAD PUSH1 0x1 PUSH1 0x1 PUSH1 0xA0 SHL SUB DUP2 AND DUP2 EQ PUSH2 0xD69 JUMPI PUSH1 0x0 DUP1 REVERT JUMPDEST SWAP2 SWAP1 POP JUMP JUMPDEST PUSH1 0x0 PUSH1 0x20 DUP3 DUP5 SUB SLT ISZERO PUSH2 0xD80 JUMPI PUSH1 0x0 DUP1 REVERT JUMPDEST PUSH2 0xD89 DUP3 PUSH2 0xD52 JUMP JUMPDEST SWAP4 SWAP3 POP POP POP JUMP JUMPDEST PUSH1 0x0 DUP1 PUSH1 0x0 PUSH1 0x60 DUP5 DUP7 SUB SLT ISZERO PUSH2 0xDA5 JUMPI PUSH1 0x0 DUP1 REVERT JUMPDEST PUSH2 0xDAE DUP5 PUSH2 0xD52 JUMP JUMPDEST SWAP3 POP PUSH1 0x20 DUP5 ADD CALLDATALOAD SWAP2 POP PUSH1 0x40 DUP5 ADD CALLDATALOAD DUP1 ISZERO ISZERO DUP2 EQ PUSH2 0xDCA JUMPI PUSH1 0x0 DUP1 REVERT JUMPDEST DUP1 SWAP2 POP POP SWAP3 POP SWAP3 POP SWAP3 JUMP JUMPDEST PUSH1 0x0 DUP1 PUSH1 0x0 DUP1 PUSH1 0x80 DUP6 DUP8 SUB SLT ISZERO PUSH2 0xDEB JUMPI PUSH1 0x0 DUP1 REVERT JUMPDEST DUP5 CALLDATALOAD SWAP4 POP PUSH2 0xDFB PUSH1 0x20 DUP7 ADD PUSH2 0xD52 JUMP JUMPDEST SWAP3 POP PUSH1 0x40 DUP6 ADD CALLDATALOAD SWAP2 POP PUSH2 0xE10 PUSH1 0x60 DUP7 ADD PUSH2 0xD52 JUMP JUMPDEST SWAP1 POP SWAP3 SWAP6 SWAP2 SWAP5 POP SWAP3 POP JUMP JUMPDEST PUSH1 0x0 DUP1 PUSH1 0x40 DUP4 DUP6 SUB SLT ISZERO PUSH2 0xE2E JUMPI PUSH1 0x0 DUP1 REVERT JUMPDEST DUP3 CALLDATALOAD SWAP2 POP PUSH2 0xE3E PUSH1 0x20 DUP5 ADD PUSH2 0xD52 JUMP JUMPDEST SWAP1 POP SWAP3 POP SWAP3 SWAP1 POP JUMP JUMPDEST PUSH1 0x0 DUP1 PUSH1 0x40 DUP4 DUP6 SUB SLT ISZERO PUSH2 0xE5A JUMPI PUSH1 0x0 DUP1 REVERT JUMPDEST PUSH2 0xE63 DUP4 PUSH2 0xD52 JUMP JUMPDEST SWAP2 POP PUSH2 0xE3E PUSH1 0x20 DUP5 ADD PUSH2 0xD52 JUMP JUMPDEST PUSH1 0x0 DUP1 PUSH1 0x40 DUP4 DUP6 SUB SLT ISZERO PUSH2 0xE84 JUMPI PUSH1 0x0 DUP1 REVERT JUMPDEST PUSH2 0xE8D DUP4 PUSH2 0xD52 JUMP JUMPDEST SWAP5 PUSH1 0x20 SWAP4 SWAP1 SWAP4 ADD CALLDATALOAD SWAP4 POP POP POP JUMP JUMPDEST PUSH1 0x0 PUSH1 0x20 DUP3 DUP5 SUB SLT ISZERO PUSH2 0xEAD JUMPI PUSH1 0x0 DUP1 REVERT JUMPDEST POP MLOAD SWAP2 SWAP1 POP JUMP JUMPDEST PUSH4 0x4E487B71 PUSH1 0xE0 SHL PUSH1 0x0 MSTORE PUSH1 0x11 PUSH1 0x4 MSTORE PUSH1 0x24 PUSH1 0x0 REVERT JUMPDEST PUSH1 0x0 DUP2 PUSH1 0x0 NOT DIV DUP4 GT DUP3 ISZERO ISZERO AND ISZERO PUSH2 0xEE4 JUMPI PUSH2 0xEE4 PUSH2 0xEB4 JUMP JUMPDEST POP MUL SWAP1 JUMP JUMPDEST PUSH1 0x0 DUP3 DUP3 LT ISZERO PUSH2 0xEFB JUMPI PUSH2 0xEFB PUSH2 0xEB4 JUMP JUMPDEST POP SUB SWAP1 JUMP JUMPDEST PUSH1 0x0 DUP3 NOT DUP3 GT ISZERO PUSH2 0xF13 JUMPI PUSH2 0xF13 PUSH2 0xEB4 JUMP JUMPDEST POP ADD SWAP1 JUMP INVALID LOG2 PUSH5 0x6970667358 0x22 SLT KECCAK256 CODECOPY LOG2 PUSH26 0xFEF4861407410BE78952709F5B66BC7ECE87EC617189804F5A18 0xEC SGT KECCAK256 PUSH5 0x736F6C6343 STOP ADDMOD SIGNEXTEND STOP CALLER ","sha1":"debddece5047fe0975e8a7dd063987ef5f9e5b2e","source":"// SPDX-License-Identifier: MIT\n\npragma solidity ^0.8.0;\n\nimport \"@openzeppelin/contracts/utils/math/SafeMath.sol\";\nimport \"@openzeppelin/contracts/token/ERC20/IERC20.sol\";\nimport \"./2_Pool.sol\";\nimport \"./3_Collateral.sol\";\nimport \"./LVRToken.sol\";\n\ncontract LendingPool {\n    using SafeMath for uint256;\n\n    uint256 public collReq = 2;\n\n    event depositEvent(address _user, uint256 _quantity, address _asset);\n    event borrowEvent(\n        address _user,\n        uint256 _borrowed,\n        address _borrowedAsset,\n        uint256 _collateral,\n        address _collateralAsset\n    );\n\n    //public keyword??\n    Pool public pool;\n    Collateral public collateral;\n    address owner;\n    LVRToken public token;\n    // mapping of userAddress to mapping(tokenContractAddress -> struct(amount borrowed, time since borrow))\n    // right now only mapping to amount borrowed\n    mapping(address => mapping(address => uint256)) public borrowTracker;\n\n    constructor() {\n        pool = new Pool();\n        token = new LVRToken(\"TestToken\", \"TST\", address(pool));\n        collateral = new Collateral(address(pool), address(token));\n        owner = msg.sender;\n    }\n\n    modifier onlyOwner() {\n        require(msg.sender == owner);\n        _;\n    }\n\n    function Deposit(uint256 _quantity, address _asset) public {\n        // uint256 _borrowNow? why not bool?\n        require(_quantity > 0, \"deposit must be positive\");\n        token.mint(msg.sender, _quantity, _asset);\n        pool.depositTransfer(msg.sender, _asset, _quantity);\n\n        // // borrowNow should be amount borrowed\n        // if (_borrowNow > 0) {\n        //     uint256 usedCollateral = _quantity - collateral.collReq()*_borrowNow;\n        //     Borrow(_borrowNow, address)\n        // }\n\n        //emit depositEvent(msg.sender, _quantity, _asset);\n    }\n\n    function Withdraw(address _desiredAsset, uint256 _amountToRemove) public {\n        //enough liquid to send\n        require(\n            _amountToRemove <= pool.getLiquidQuantity(_desiredAsset),\n            \"User cannot redeem more than the available balance\"\n        ); // later this will only check to see if we have any liquid, because we will have engine that swaps currencies to allow user\n        // to withdraw anything they want.\n\n        uint256 burnNumber = pool.withdrawTransfer(\n            msg.sender,\n            _desiredAsset,\n            _amountToRemove,\n            token.balanceOf(msg.sender),\n            token.tokenDollarValue()\n        );\n        token.burn(msg.sender, burnNumber);\n    }\n\n    //this will have to also transfer LVR if they wont to borrow against that.\n    // what about choosing collateral to borrrow against.\n    function Borrow(\n        uint256 _borrowQuantity,\n        address _asset,\n        uint256 _collateralQuantity,\n        address _collateral\n    ) public {\n        require(\n            _collateralQuantity >= _borrowQuantity * collateral.collReq(),\n            \"not enough collateral\"\n        );\n        collateral.depositCollateral(\n            msg.sender,\n            _collateral,\n            _collateralQuantity\n        );\n        pool.borrowTransfer(msg.sender, _asset, _borrowQuantity);\n\n        emit borrowEvent(\n            msg.sender,\n            _borrowQuantity,\n            _asset,\n            _collateralQuantity,\n            _collateral\n        );\n        // ledger here or in Pool contract??\n        borrowTracker[msg.sender][_asset] += _borrowQuantity;\n    }\n\n    // User repays loan by specifying the asset they are giving back and how much\n    function Repay(\n        address _asset,\n        uint256 _repayQuantity,\n        bool _toPool\n    ) public {\n        //cant return more than borrowed\n        require(\n            borrowTracker[msg.sender][_asset] >= _repayQuantity,\n            \"Returned more than borrowed\"\n        );\n\n        // transfer from collateral to pool\n        collateral.removeCollateral(\n            msg.sender,\n            _asset,\n            _repayQuantity,\n            _toPool\n        );\n        if (_toPool == true) {\n            Deposit(collReq * _repayQuantity, _asset);\n        }\n\n        borrowTracker[msg.sender][_asset] -= _repayQuantity;\n        if (borrowTracker[msg.sender][_asset] == 0) {\n            delete borrowTracker[msg.sender][_asset];\n        }\n    }\n\n    // need to have a ledger that keeps thrack of hwo borrowed and how much so that they can repay a fraction of loan\n    // need a ledger of lender tokens so that we can track how much interst hey shoudl get and if they trade away a\n    //  few tokens we dont pay 100% interst, but if they burn them we tske them off thier ledger\n\n    /* repay funtcion: \n    stuff\n    pay interest- how to track that\n    repay will either call withdraw or deposit\n    */\n\n    function offerCollateralAssets() public {\n        // just needs to check with the pool to see what assets we can offer\n        //users to use as collateral - called when borrowing (if they deposit\n        //LVR and want to use something else)\n        // to do this we probably need to come up with some reserve rules, etc\n    }\n\n    function getLiquidity(address _token) public view returns (uint256) {\n        return pool.getLiquidQuantity(_token);\n    }\n\n    function getPoolBalance(address _token) public view returns (uint256) {\n        return pool.getBalance(_token);\n    }\n\n    function getLiquidPct(address _token) public view returns (uint256) {\n        return pool.getLiquidPct(_token);\n    }\n\n    function getLockedCollateral(address _token) public view returns (uint256) {\n        return collateral.getCollateralQuantity(_token);\n    }\n\n    function getCollBalance(address _token) public view returns (uint256) {\n        return collateral.getBalance(_token);\n    }\n\n    function getPoolAddr() public view returns (address) {\n        return address(pool);\n    }\n\n    function getCollAddr() public view returns (address) {\n        return address(collateral);\n    }\n\n    function getTokenAddr() public view returns (address) {\n        return address(token);\n    }\n\n    function getTokenDollarValue() public view returns (uint256) {\n        return token.tokenDollarValue();\n    }\n\n    function getPoolValue() public view returns (uint256) {\n        return token.totalPoolValue();\n    }\n\n    function getTotalSupply() public view returns (uint256) {\n        return token.totalSupply();\n    }\n\n    function getBalanceOf(address user) public view returns (uint256) {\n        return token.balanceOf(user);\n    }\n}\n","sourcePath":"contracts/1_LendingPool.sol","deployment":{"address":"0x0F2dB67A97F2b74e7C7022ACA085E09Be8a04063","chainid":"4","blockHeight":10096915}}