{"bytecode":"608060405234801561001057600080fd5b5060405161001d90610148565b604051809103906000f080158015610039573d6000803e3d6000fd5b50600080546001600160a01b0319166001600160a01b039290921691909117905560405161006690610155565b604051809103906000f080158015610082573d6000803e3d6000fd5b50600180546001600160a01b0319166001600160a01b039283161790556000546040519116906100b190610162565b6060808252600990820152682a32b9ba2a37b5b2b760b91b608082015260a060208201819052600390820152621514d560ea1b60c08201526001600160a01b03909116604082015260e001604051809103906000f080158015610118573d6000803e3d6000fd5b50600380546001600160a01b03929092166001600160a01b0319928316179055600280549091163317905561016f565b61067b8061092883390190565b6103c680610fa383390190565b611efe8061136983390190565b6107aa8061017e6000396000f3fe608060405234801561001057600080fd5b50600436106100ea5760003560e01c8063a747b93b1161008c578063d8dfeb4511610066578063d8dfeb45146101c3578063de259242146101d6578063de30f97d146101e7578063fc0c546a146101fa57600080fd5b8063a747b93b1461018a578063d28682ea1461019d578063d49ab22c146101b057600080fd5b806346c928fc116100c857806346c928fc146101425780634bcc170914610155578063582b27201461016857806363e36dac1461017957600080fd5b8063057393c0146100ef57806316f0115b14610115578063243d8e0514610140575b600080fd5b6101026100fd36600461069a565b61020d565b6040519081526020015b60405180910390f35b600054610128906001600160a01b031681565b6040516001600160a01b03909116815260200161010c565b005b6101406101503660046106bc565b610283565b610140610163366004610702565b610486565b6003546001600160a01b0316610128565b6001546001600160a01b0316610128565b61010261019836600461069a565b6105b2565b6101026101ab36600461069a565b6105e5565b6101026101be36600461069a565b610618565b600154610128906001600160a01b031681565b6000546001600160a01b0316610128565b6101026101f536600461069a565b61064b565b600354610128906001600160a01b031681565b60015460405163f8b2cb4f60e01b81526001600160a01b038381166004830152600092169063f8b2cb4f906024015b602060405180830381865afa158015610259573d6000803e3d6000fd5b505050506040513d601f19601f8201168201806040525081019061027d919061072e565b92915050565b600160009054906101000a90046001600160a01b03166001600160a01b031663094049546040518163ffffffff1660e01b8152600401602060405180830381865afa1580156102d6573d6000803e3d6000fd5b505050506040513d601f19601f820116820180604052508101906102fa919061072e565b6103049085610747565b8210156103505760405162461bcd60e51b81526020600482015260156024820152741b9bdd08195b9bdd59da0818dbdb1b185d195c985b605a1b60448201526064015b60405180910390fd5b60015460405163f970c3b760e01b81523360048201526001600160a01b038381166024830152604482018590529091169063f970c3b790606401600060405180830381600087803b1580156103a457600080fd5b505af11580156103b8573d6000803e3d6000fd5b505060005460405163fc4f78b960e01b81523360048201526001600160a01b03878116602483015260448201899052909116925063fc4f78b99150606401600060405180830381600087803b15801561041057600080fd5b505af1158015610424573d6000803e3d6000fd5b505060408051338152602081018890526001600160a01b0387811682840152606082018790528516608082015290517fea8631408d071cdc565dfa37dcb32450c4c85ee9a4142ed14df1387d7c2a432793509081900360a0019150a150505050565b600082116104d65760405162461bcd60e51b815260206004820152601860248201527f6465706f736974206d75737420626520706f73697469766500000000000000006044820152606401610347565b600054604051631740ecaf60e11b81523360048201526001600160a01b0383811660248301526044820185905290911690632e81d95e90606401600060405180830381600087803b15801561052a57600080fd5b505af115801561053e573d6000803e3d6000fd5b5050600354604051630d4d151360e01b8152336004820152602481018690526001600160a01b0385811660448301529091169250630d4d15139150606401600060405180830381600087803b15801561059657600080fd5b505af11580156105aa573d6000803e3d6000fd5b505050505050565b6000805460405163fce3e8e760e01b81526001600160a01b0384811660048301529091169063fce3e8e79060240161023c565b6000805460405163f8b2cb4f60e01b81526001600160a01b0384811660048301529091169063f8b2cb4f9060240161023c565b6001546040516328d1f89360e21b81526001600160a01b038381166004830152600092169063a347e24c9060240161023c565b6000805460405163de30f97d60e01b81526001600160a01b0384811660048301529091169063de30f97d9060240161023c565b80356001600160a01b038116811461069557600080fd5b919050565b6000602082840312156106ac57600080fd5b6106b58261067e565b9392505050565b600080600080608085870312156106d257600080fd5b843593506106e26020860161067e565b9250604085013591506106f76060860161067e565b905092959194509250565b6000806040838503121561071557600080fd5b823591506107256020840161067e565b90509250929050565b60006020828403121561074057600080fd5b5051919050565b600081600019048311821515161561076f57634e487b7160e01b600052601160045260246000fd5b50029056fea2646970667358221220124da64a0df4b9d09c990a9dd64c1888f875a18df549f79519c2e89b40774e4864736f6c634300080b0033608060405234801561001057600080fd5b50600260035560408051808201909152600080825260208083018281527301be23585060835e02b77ef475b0cc51aa1e07098084529183905292517f4e2753d238f0f4cb8962490717ab551b4c023808c7bc37aed6e8760bfc3a92d55591517f4e2753d238f0f4cb8962490717ab551b4c023808c7bc37aed6e8760bfc3a92d65560018054808201825591527fb10e2d527612073b26eecdfd717e6a320cf44b4afac2b0732d9fcbe2b7fa0cf60180546001600160a01b031916909117905561059d806100de6000396000f3fe608060405234801561001057600080fd5b50600436106100935760003560e01c8063de30f97d11610066578063de30f97d14610108578063edf26d9b1461011b578063f8b2cb4f14610146578063fc4f78b914610159578063fce3e8e71461016c57600080fd5b80632e81d95e1461009857806375f4d677146100ad5780638a02775b146100c3578063b8c876b1146100cc575b600080fd5b6100ab6100a636600461042f565b610195565b005b60005b6040519081526020015b60405180910390f35b6100b060025481565b6100f36100da36600461046b565b6000602081905290815260409020805460019091015482565b604080519283526020830191909152016100ba565b6100b061011636600461046b565b61024b565b61012e61012936600461048d565b6102a8565b6040516001600160a01b0390911681526020016100ba565b6100b061015436600461046b565b6102d2565b6100ab61016736600461042f565b61033d565b6100b061017a36600461046b565b6001600160a01b031660009081526020819052604090205490565b6001600160a01b0382166000908152602081905260409020546101b99082906104bc565b6001600160a01b03838116600081815260208190526040908190209390935591516323b872dd60e01b81529085166004820152306024820152604481018390526323b872dd906064016020604051808303816000875af1158015610221573d6000803e3d6000fd5b505050506040513d601f19601f8201168201806040525081019061024591906104d4565b50505050565b6001600160a01b03811660009081526020819052604081206001810154905461027491906104bc565b6001600160a01b0383166000908152602081905260409020546102989060016104f6565b6102a29190610515565b92915050565b600181815481106102b857600080fd5b6000918252602090912001546001600160a01b0316905081565b6040516370a0823160e01b81523060048201526000906001600160a01b038316906370a0823190602401602060405180830381865afa158015610319573d6000803e3d6000fd5b505050506040513d601f19601f820116820180604052508101906102a29190610537565b60405163a9059cbb60e01b81526001600160a01b0384811660048301526024820183905283169063a9059cbb906044016020604051808303816000875af115801561038c573d6000803e3d6000fd5b505050506040513d601f19601f820116820180604052508101906103b091906104d4565b506001600160a01b038216600090815260208190526040812080548392906103d9908490610550565b90915550506001600160a01b038216600090815260208190526040812060010180548392906104099084906104bc565b9091555050505050565b80356001600160a01b038116811461042a57600080fd5b919050565b60008060006060848603121561044457600080fd5b61044d84610413565b925061045b60208501610413565b9150604084013590509250925092565b60006020828403121561047d57600080fd5b61048682610413565b9392505050565b60006020828403121561049f57600080fd5b5035919050565b634e487b7160e01b600052601160045260246000fd5b600082198211156104cf576104cf6104a6565b500190565b6000602082840312156104e657600080fd5b8151801515811461048657600080fd5b6000816000190483118215151615610510576105106104a6565b500290565b60008261053257634e487b7160e01b600052601260045260246000fd5b500490565b60006020828403121561054957600080fd5b5051919050565b600082821015610562576105626104a6565b50039056fea2646970667358221220b005b50622b3389dfe1a6fbddfbbbf2f4ac8189a3db75b2a8e19ec649c8ea84764736f6c634300080b00336080604052600260005534801561001557600080fd5b50600260009081556040805160208082019092528281527301be23585060835e02b77ef475b0cc51aa1e070990925260019052517fe539f5536278cb22339893811e6a9f04c719f63cc90966a4f1b05b9f4ec17a6f5561034c8061007a6000396000f3fe608060405234801561001057600080fd5b506004361061004c5760003560e01c80630940495414610051578063a347e24c1461006c578063f8b2cb4f14610095578063f970c3b7146100a8575b600080fd5b61005a60005481565b60405190815260200160405180910390f35b61005a61007a366004610257565b6001600160a01b031660009081526001602052604090205490565b61005a6100a3366004610257565b6100bd565b6100bb6100b6366004610279565b61012e565b005b6040516370a0823160e01b81523060048201526000906001600160a01b038316906370a0823190602401602060405180830381865afa158015610104573d6000803e3d6000fd5b505050506040513d601f19601f8201168201806040525081019061012891906102b5565b92915050565b6040516323b872dd60e01b81526001600160a01b038481166004830152306024830152604482018390528316906323b872dd906064016020604051808303816000875af1158015610183573d6000803e3d6000fd5b505050506040513d601f19601f820116820180604052508101906101a791906102ce565b506001600160a01b0382166000908152600160205260409020546101cc9082906102f0565b6001600160a01b038084166000818152600160209081526040808320959095559287168152600283528381209181529152205461020a9082906102f0565b6001600160a01b03938416600090815260026020908152604080832095909616825293909352929091209190915550565b80356001600160a01b038116811461025257600080fd5b919050565b60006020828403121561026957600080fd5b6102728261023b565b9392505050565b60008060006060848603121561028e57600080fd5b6102978461023b565b92506102a56020850161023b565b9150604084013590509250925092565b6000602082840312156102c757600080fd5b5051919050565b6000602082840312156102e057600080fd5b8151801515811461027257600080fd5b6000821982111561031157634e487b7160e01b600052601160045260246000fd5b50019056fea26469706673582212209d1560178378aff01ebd9c02660d0b8252213e3ceb53737bdb25707d1297923464736f6c634300080b003360806040523480156200001157600080fd5b5060405162001efe38038062001efe83398101604081905262000034916200024b565b8251839083906200004d906005906020850190620000ca565b50805162000063906006906020840190620000ca565b505050604051620000749062000159565b604051809103906000f08015801562000091573d6000803e3d6000fd5b50600780546001600160a01b039283166001600160a01b0319918216179091556008805493909216921691909117905550620003159050565b828054620000d890620002d8565b90600052602060002090601f016020900481019282620000fc576000855562000147565b82601f106200011757805160ff191683800117855562000147565b8280016001018555821562000147579182015b82811115620001475782518255916020019190600101906200012a565b506200015592915062000167565b5090565b6103768062001b8883390190565b5b8082111562000155576000815560010162000168565b634e487b7160e01b600052604160045260246000fd5b600082601f830112620001a657600080fd5b81516001600160401b0380821115620001c357620001c36200017e565b604051601f8301601f19908116603f01168101908282118183101715620001ee57620001ee6200017e565b816040528381526020925086838588010111156200020b57600080fd5b600091505b838210156200022f578582018301518183018401529082019062000210565b83821115620002415760008385830101525b9695505050505050565b6000806000606084860312156200026157600080fd5b83516001600160401b03808211156200027957600080fd5b620002878783880162000194565b945060208601519150808211156200029e57600080fd5b50620002ad8682870162000194565b604086015190935090506001600160a01b0381168114620002cd57600080fd5b809150509250925092565b600181811c90821680620002ed57607f821691505b602082108114156200030f57634e487b7160e01b600052602260045260246000fd5b50919050565b61186380620003256000396000f3fe608060405234801561001057600080fd5b50600436106101c45760003560e01c806339509351116100f957806395d89b4111610097578063a9059cbb11610071578063a9059cbb146103b7578063ca15c873146103ca578063d547741f146103dd578063dd62ed3e146103f057600080fd5b806395d89b4114610394578063a217fddf1461039c578063a457c2d7146103a457600080fd5b806370a08231116100d357806370a08231146103325780639010d07c1461035b57806391d148541461036e5780639311ca691461038157600080fd5b806339509351146102f957806342966c681461030c5780636b3e22fc1461031f57600080fd5b806323b872dd11610166578063313ce56711610140578063313ce567146102bc5780633287acee146102cb57806333d57cdc146102de57806336568abe146102e657600080fd5b806323b872dd14610273578063248a9ca3146102865780632f2ff15d146102a957600080fd5b80630d4d1513116101a25780630d4d15131461021957806316f0115b1461022e57806318160ddd146102595780631ba2f5311461026b57600080fd5b806301ffc9a7146101c957806306fdde03146101f1578063095ea7b314610206575b600080fd5b6101dc6101d7366004611498565b610429565b60405190151581526020015b60405180910390f35b6101f9610454565b6040516101e891906114ee565b6101dc61021436600461153d565b6104e6565b61022c610227366004611567565b6104fc565b005b600854610241906001600160a01b031681565b6040516001600160a01b0390911681526020016101e8565b6004545b6040519081526020016101e8565b61025d610528565b6101dc6102813660046115a3565b61059b565b61025d6102943660046115df565b60009081526020819052604090206001015490565b61022c6102b73660046115f8565b61064a565b604051601281526020016101e8565b61025d6102d93660046115df565b610675565b61025d6106c2565b61022c6102f43660046115f8565b610733565b6101dc61030736600461153d565b6107b1565b61022c61031a3660046115df565b6107ed565b61025d61032d36600461153d565b61089a565b61025d610340366004611624565b6001600160a01b031660009081526002602052604090205490565b61024161036936600461163f565b610936565b6101dc61037c3660046115f8565b61094e565b600754610241906001600160a01b031681565b6101f9610977565b61025d600081565b6101dc6103b236600461153d565b610986565b6101dc6103c536600461153d565b610a1f565b61025d6103d83660046115df565b610a2c565b61022c6103eb3660046115f8565b610a43565b61025d6103fe366004611661565b6001600160a01b03918216600090815260036020908152604080832093909416825291909152205490565b60006001600160e01b03198216635a05180f60e01b148061044e575061044e82610a69565b92915050565b6060600580546104639061168b565b80601f016020809104026020016040519081016040528092919081815260200182805461048f9061168b565b80156104dc5780601f106104b1576101008083540402835291602001916104dc565b820191906000526020600020905b8154815290600101906020018083116104bf57829003601f168201915b5050505050905090565b60006104f3338484610a9e565b50600192915050565b6000610508828461089a565b9050600061051582610675565b90506105218582610bc2565b5050505050565b600854604080516375f4d67760e01b815290516000926001600160a01b0316916375f4d6779160048083019260209291908290030181865afa158015610572573d6000803e3d6000fd5b505050506040513d601f19601f8201168201806040525081019061059691906116c0565b905090565b60006105a8848484610ca1565b6001600160a01b0384166000908152600360209081526040808320338452909152902054828110156106325760405162461bcd60e51b815260206004820152602860248201527f45524332303a207472616e7366657220616d6f756e74206578636565647320616044820152676c6c6f77616e636560c01b60648201526084015b60405180910390fd5b61063f8533858403610a9e565b506001949350505050565b6000828152602081905260409020600101546106668133610e71565b6106708383610ed5565b505050565b600080610680610528565b905061068b60045490565b610696575090919050565b80836106a160045490565b6106ab91906116ef565b6106b5919061170e565b9392505050565b50919050565b6000806106ce60045490565b1161070c5760405162461bcd60e51b815260206004820152600e60248201526d737570706c79206973207a65726f60901b6044820152606401610629565b600454610717610528565b61072990670de0b6b3a76400006116ef565b610596919061170e565b6001600160a01b03811633146107a35760405162461bcd60e51b815260206004820152602f60248201527f416363657373436f6e74726f6c3a2063616e206f6e6c792072656e6f756e636560448201526e103937b632b9903337b91039b2b63360891b6064820152608401610629565b6107ad8282610ef7565b5050565b3360008181526003602090815260408083206001600160a01b038716845290915281205490916104f39185906107e8908690611730565b610a9e565b6000811161083d5760405162461bcd60e51b815260206004820181905260248201527f416d6f756e7420746f2072656465656d206e6565647320746f206265203e20306044820152606401610629565b3360009081526002602052604090205481111561088f5760405162461bcd60e51b815260206004820152601060248201526f696d70726f7065722062616c616e636560801b6044820152606401610629565b806107ad3382610f19565b6007546040516341976e0960e01b81526001600160a01b03848116600483015260009283929116906341976e0990602401602060405180830381865afa1580156108e8573d6000803e3d6000fd5b505050506040513d601f19601f8201168201806040525081019061090c91906116c0565b90506000670de0b6b3a764000061092385846116ef565b61092d919061170e565b95945050505050565b60008281526001602052604081206106b59083611067565b6000918252602082815260408084206001600160a01b0393909316845291905290205460ff1690565b6060600680546104639061168b565b3360009081526003602090815260408083206001600160a01b038616845290915281205482811015610a085760405162461bcd60e51b815260206004820152602560248201527f45524332303a2064656372656173656420616c6c6f77616e63652062656c6f77604482015264207a65726f60d81b6064820152608401610629565b610a153385858403610a9e565b5060019392505050565b60006104f3338484610ca1565b600081815260016020526040812061044e90611073565b600082815260208190526040902060010154610a5f8133610e71565b6106708383610ef7565b60006001600160e01b03198216637965db0b60e01b148061044e57506301ffc9a760e01b6001600160e01b031983161461044e565b6001600160a01b038316610b005760405162461bcd60e51b8152602060048201526024808201527f45524332303a20617070726f76652066726f6d20746865207a65726f206164646044820152637265737360e01b6064820152608401610629565b6001600160a01b038216610b615760405162461bcd60e51b815260206004820152602260248201527f45524332303a20617070726f766520746f20746865207a65726f206164647265604482015261737360f01b6064820152608401610629565b6001600160a01b0383811660008181526003602090815260408083209487168084529482529182902085905590518481527f8c5be1e5ebec7d5bd14f71427d1e84f3dd0314c0f7b2291e5b200ac8c7c3b925910160405180910390a3505050565b6001600160a01b038216610c185760405162461bcd60e51b815260206004820152601f60248201527f45524332303a206d696e7420746f20746865207a65726f2061646472657373006044820152606401610629565b8060046000828254610c2a9190611730565b90915550506001600160a01b03821660009081526002602052604081208054839290610c57908490611730565b90915550506040518181526001600160a01b038316906000907fddf252ad1be2c89b69c2b068fc378daa952ba7f163c4a11628f55a4df523b3ef9060200160405180910390a35050565b6001600160a01b038316610d055760405162461bcd60e51b815260206004820152602560248201527f45524332303a207472616e736665722066726f6d20746865207a65726f206164604482015264647265737360d81b6064820152608401610629565b6001600160a01b038216610d675760405162461bcd60e51b815260206004820152602360248201527f45524332303a207472616e7366657220746f20746865207a65726f206164647260448201526265737360e81b6064820152608401610629565b6001600160a01b03831660009081526002602052604090205481811015610ddf5760405162461bcd60e51b815260206004820152602660248201527f45524332303a207472616e7366657220616d6f756e7420657863656564732062604482015265616c616e636560d01b6064820152608401610629565b6001600160a01b03808516600090815260026020526040808220858503905591851681529081208054849290610e16908490611730565b92505081905550826001600160a01b0316846001600160a01b03167fddf252ad1be2c89b69c2b068fc378daa952ba7f163c4a11628f55a4df523b3ef84604051610e6291815260200190565b60405180910390a35b50505050565b610e7b828261094e565b6107ad57610e93816001600160a01b0316601461107d565b610e9e83602061107d565b604051602001610eaf929190611748565b60408051601f198184030181529082905262461bcd60e51b8252610629916004016114ee565b610edf8282611219565b6000828152600160205260409020610670908261129d565b610f0182826112b2565b60008281526001602052604090206106709082611317565b6001600160a01b038216610f795760405162461bcd60e51b815260206004820152602160248201527f45524332303a206275726e2066726f6d20746865207a65726f206164647265736044820152607360f81b6064820152608401610629565b6001600160a01b03821660009081526002602052604090205481811015610fed5760405162461bcd60e51b815260206004820152602260248201527f45524332303a206275726e20616d6f756e7420657863656564732062616c616e604482015261636560f01b6064820152608401610629565b6001600160a01b038316600090815260026020526040812083830390556004805484929061101c9084906117bd565b90915550506040518281526000906001600160a01b038516907fddf252ad1be2c89b69c2b068fc378daa952ba7f163c4a11628f55a4df523b3ef9060200160405180910390a3505050565b60006106b5838361132c565b600061044e825490565b6060600061108c8360026116ef565b611097906002611730565b67ffffffffffffffff8111156110af576110af6117d4565b6040519080825280601f01601f1916602001820160405280156110d9576020820181803683370190505b509050600360fc1b816000815181106110f4576110f46117ea565b60200101906001600160f81b031916908160001a905350600f60fb1b81600181518110611123576111236117ea565b60200101906001600160f81b031916908160001a90535060006111478460026116ef565b611152906001611730565b90505b60018111156111ca576f181899199a1a9b1b9c1cb0b131b232b360811b85600f1660108110611186576111866117ea565b1a60f81b82828151811061119c5761119c6117ea565b60200101906001600160f81b031916908160001a90535060049490941c936111c381611800565b9050611155565b5083156106b55760405162461bcd60e51b815260206004820181905260248201527f537472696e67733a20686578206c656e67746820696e73756666696369656e746044820152606401610629565b611223828261094e565b6107ad576000828152602081815260408083206001600160a01b03851684529091529020805460ff191660011790556112593390565b6001600160a01b0316816001600160a01b0316837f2f8788117e7eff1d82e926ec794901d17c78024a50270940304540a733656f0d60405160405180910390a45050565b60006106b5836001600160a01b038416611356565b6112bc828261094e565b156107ad576000828152602081815260408083206001600160a01b0385168085529252808320805460ff1916905551339285917ff6391f5c32d9c69d2a47ea670b442974b53935d1edc7fd64eb21e047a839171b9190a45050565b60006106b5836001600160a01b0384166113a5565b6000826000018281548110611343576113436117ea565b9060005260206000200154905092915050565b600081815260018301602052604081205461139d5750815460018181018455600084815260208082209093018490558454848252828601909352604090209190915561044e565b50600061044e565b6000818152600183016020526040812054801561148e5760006113c96001836117bd565b85549091506000906113dd906001906117bd565b90508181146114425760008660000182815481106113fd576113fd6117ea565b9060005260206000200154905080876000018481548110611420576114206117ea565b6000918252602080832090910192909255918252600188019052604090208390555b855486908061145357611453611817565b60019003818190600052602060002001600090559055856001016000868152602001908152602001600020600090556001935050505061044e565b600091505061044e565b6000602082840312156114aa57600080fd5b81356001600160e01b0319811681146106b557600080fd5b60005b838110156114dd5781810151838201526020016114c5565b83811115610e6b5750506000910152565b602081526000825180602084015261150d8160408501602087016114c2565b601f01601f19169190910160400192915050565b80356001600160a01b038116811461153857600080fd5b919050565b6000806040838503121561155057600080fd5b61155983611521565b946020939093013593505050565b60008060006060848603121561157c57600080fd5b61158584611521565b92506020840135915061159a60408501611521565b90509250925092565b6000806000606084860312156115b857600080fd5b6115c184611521565b92506115cf60208501611521565b9150604084013590509250925092565b6000602082840312156115f157600080fd5b5035919050565b6000806040838503121561160b57600080fd5b8235915061161b60208401611521565b90509250929050565b60006020828403121561163657600080fd5b6106b582611521565b6000806040838503121561165257600080fd5b50508035926020909101359150565b6000806040838503121561167457600080fd5b61167d83611521565b915061161b60208401611521565b600181811c9082168061169f57607f821691505b602082108114156106bc57634e487b7160e01b600052602260045260246000fd5b6000602082840312156116d257600080fd5b5051919050565b634e487b7160e01b600052601160045260246000fd5b6000816000190483118215151615611709576117096116d9565b500290565b60008261172b57634e487b7160e01b600052601260045260246000fd5b500490565b60008219821115611743576117436116d9565b500190565b7f416363657373436f6e74726f6c3a206163636f756e74200000000000000000008152600083516117808160178501602088016114c2565b7001034b99036b4b9b9b4b733903937b6329607d1b60179184019182015283516117b18160288401602088016114c2565b01602801949350505050565b6000828210156117cf576117cf6116d9565b500390565b634e487b7160e01b600052604160045260246000fd5b634e487b7160e01b600052603260045260246000fd5b60008161180f5761180f6116d9565b506000190190565b634e487b7160e01b600052603160045260246000fdfea2646970667358221220f9306e8539e39f40c203bb000e5977ce554275929dec7dd16380f32dd59c21ef64736f6c634300080b0033608060405234801561001057600080fd5b50600060208190527f4e2753d238f0f4cb8962490717ab551b4c023808c7bc37aed6e8760bfc3a92d580546001600160a01b031990811673d8bd0a1cb028a31aa859a21a3758685a95de462317909155731680df1901c033306f161ea35425c1463d52b0c69091527f848a6226e7c9b8bbc828749523b8ef06b79a399244b200976dd9ab47adefb42b8054909116732ba49aaa16e6afd2a993473cfb70fa8559b523cf1790556102b1806100c56000396000f3fe608060405234801561001057600080fd5b50600436106100365760003560e01c806341976e091461003b5780634238dc4714610061575b600080fd5b61004e610049366004610141565b6100a2565b6040519081526020015b60405180910390f35b61008a61006f366004610141565b6000602081905290815260409020546001600160a01b031681565b6040516001600160a01b039091168152602001610058565b6001600160a01b03808216600090815260208190526040808220548151633fabe5a360e21b81529151929316918391839163feaf968c9160048082019260a0929091908290030181865afa1580156100fe573d6000803e3d6000fd5b505050506040513d601f19601f820116820180604052508101906101229190610190565b505050915050806402540be40061013991906101f6565b949350505050565b60006020828403121561015357600080fd5b81356001600160a01b038116811461016a57600080fd5b9392505050565b805169ffffffffffffffffffff8116811461018b57600080fd5b919050565b600080600080600060a086880312156101a857600080fd5b6101b186610171565b94506020860151935060408601519250606086015191506101d460808701610171565b90509295509295909350565b634e487b7160e01b600052601160045260246000fd5b60006001600160ff1b038184138284138082168684048611161561021c5761021c6101e0565b600160ff1b600087128281168783058912161561023b5761023b6101e0565b60008712925087820587128484161615610257576102576101e0565b8785058712818416161561026d5761026d6101e0565b50505092909302939250505056fea264697066735822122020183f6c59392decd429b5749e6246a0051a335c668342c52a91ab9b950c8fb764736f6c634300080b0033","bytecodeSha1":"591b0f1977ab17f136487baac3543ad2dbfe5fd0","type":"contract","abi":[{"inputs":[],"stateMutability":"nonpayable","type":"constructor","name":"constructor"},{"anonymous":false,"inputs":[{"indexed":false,"internalType":"address","name":"_user","type":"address"},{"indexed":false,"internalType":"uint256","name":"_borrowed","type":"uint256"},{"indexed":false,"internalType":"address","name":"_borrowedAsset","type":"address"},{"indexed":false,"internalType":"uint256","name":"_collateral","type":"uint256"},{"indexed":false,"internalType":"address","name":"_collateralAsset","type":"address"}],"name":"borrowEvent","type":"event"},{"anonymous":false,"inputs":[{"indexed":false,"internalType":"address","name":"_user","type":"address"},{"indexed":false,"internalType":"uint256","name":"_quantity","type":"uint256"},{"indexed":false,"internalType":"address","name":"_asset","type":"address"}],"name":"depositEvent","type":"event"},{"inputs":[{"internalType":"uint256","name":"_borrowQuantity","type":"uint256"},{"internalType":"address","name":"_asset","type":"address"},{"internalType":"uint256","name":"_collateralQuantity","type":"uint256"},{"internalType":"address","name":"_collateral","type":"address"}],"name":"Borrow","outputs":[],"stateMutability":"nonpayable","type":"function"},{"inputs":[{"internalType":"uint256","name":"_quantity","type":"uint256"},{"internalType":"address","name":"_asset","type":"address"}],"name":"Deposit","outputs":[],"stateMutability":"nonpayable","type":"function"},{"inputs":[],"name":"collateral","outputs":[{"internalType":"contract Collateral","name":"","type":"address"}],"stateMutability":"view","type":"function"},{"inputs":[],"name":"getCollAddr","outputs":[{"internalType":"address","name":"","type":"address"}],"stateMutability":"view","type":"function"},{"inputs":[{"internalType":"address","name":"_token","type":"address"}],"name":"getCollBalance","outputs":[{"internalType":"uint256","name":"","type":"uint256"}],"stateMutability":"view","type":"function"},{"inputs":[{"internalType":"address","name":"_token","type":"address"}],"name":"getLiquidPct","outputs":[{"internalType":"uint256","name":"","type":"uint256"}],"stateMutability":"view","type":"function"},{"inputs":[{"internalType":"address","name":"_token","type":"address"}],"name":"getLiquidity","outputs":[{"internalType":"uint256","name":"","type":"uint256"}],"stateMutability":"view","type":"function"},{"inputs":[{"internalType":"address","name":"_token","type":"address"}],"name":"getLockedCollateral","outputs":[{"internalType":"uint256","name":"","type":"uint256"}],"stateMutability":"view","type":"function"},{"inputs":[],"name":"getPoolAddr","outputs":[{"internalType":"address","name":"","type":"address"}],"stateMutability":"view","type":"function"},{"inputs":[{"internalType":"address","name":"_token","type":"address"}],"name":"getPoolBalance","outputs":[{"internalType":"uint256","name":"","type":"uint256"}],"stateMutability":"view","type":"function"},{"inputs":[],"name":"getTokenAddr","outputs":[{"internalType":"address","name":"","type":"address"}],"stateMutability":"view","type":"function"},{"inputs":[],"name":"offerCollateralAssets","outputs":[],"stateMutability":"nonpayable","type":"function"},{"inputs":[],"name":"pool","outputs":[{"internalType":"contract Pool","name":"","type":"address"}],"stateMutability":"view","type":"function"},{"inputs":[],"name":"token","outputs":[{"internalType":"contract LVRToken","name":"","type":"address"}],"stateMutability":"view","type":"function"}],"compiler":{"version":"0.8.11+commit.d7f03943","evm_version":"istanbul","optimizer":{"enabled":true,"runs":200}},"contractName":"LendingPool","language":"Solidity","natspec":{"methods":{},"kind":"dev","version":1},"opcodes":"PUSH1 0x80 PUSH1 0x40 MSTORE CALLVALUE DUP1 ISZERO PUSH2 0x10 JUMPI PUSH1 0x0 DUP1 REVERT JUMPDEST POP PUSH1 0x4 CALLDATASIZE LT PUSH2 0xEA JUMPI PUSH1 0x0 CALLDATALOAD PUSH1 0xE0 SHR DUP1 PUSH4 0xA747B93B GT PUSH2 0x8C JUMPI DUP1 PUSH4 0xD8DFEB45 GT PUSH2 0x66 JUMPI DUP1 PUSH4 0xD8DFEB45 EQ PUSH2 0x1C3 JUMPI DUP1 PUSH4 0xDE259242 EQ PUSH2 0x1D6 JUMPI DUP1 PUSH4 0xDE30F97D EQ PUSH2 0x1E7 JUMPI DUP1 PUSH4 0xFC0C546A EQ PUSH2 0x1FA JUMPI PUSH1 0x0 DUP1 REVERT JUMPDEST DUP1 PUSH4 0xA747B93B EQ PUSH2 0x18A JUMPI DUP1 PUSH4 0xD28682EA EQ PUSH2 0x19D JUMPI DUP1 PUSH4 0xD49AB22C EQ PUSH2 0x1B0 JUMPI PUSH1 0x0 DUP1 REVERT JUMPDEST DUP1 PUSH4 0x46C928FC GT PUSH2 0xC8 JUMPI DUP1 PUSH4 0x46C928FC EQ PUSH2 0x142 JUMPI DUP1 PUSH4 0x4BCC1709 EQ PUSH2 0x155 JUMPI DUP1 PUSH4 0x582B2720 EQ PUSH2 0x168 JUMPI DUP1 PUSH4 0x63E36DAC EQ PUSH2 0x179 JUMPI PUSH1 0x0 DUP1 REVERT JUMPDEST DUP1 PUSH4 0x57393C0 EQ PUSH2 0xEF JUMPI DUP1 PUSH4 0x16F0115B EQ PUSH2 0x115 JUMPI DUP1 PUSH4 0x243D8E05 EQ PUSH2 0x140 JUMPI JUMPDEST PUSH1 0x0 DUP1 REVERT JUMPDEST PUSH2 0x102 PUSH2 0xFD CALLDATASIZE PUSH1 0x4 PUSH2 0x69A JUMP JUMPDEST PUSH2 0x20D JUMP JUMPDEST PUSH1 0x40 MLOAD SWAP1 DUP2 MSTORE PUSH1 0x20 ADD JUMPDEST PUSH1 0x40 MLOAD DUP1 SWAP2 SUB SWAP1 RETURN JUMPDEST PUSH1 0x0 SLOAD PUSH2 0x128 SWAP1 PUSH1 0x1 PUSH1 0x1 PUSH1 0xA0 SHL SUB AND DUP2 JUMP JUMPDEST PUSH1 0x40 MLOAD PUSH1 0x1 PUSH1 0x1 PUSH1 0xA0 SHL SUB SWAP1 SWAP2 AND DUP2 MSTORE PUSH1 0x20 ADD PUSH2 0x10C JUMP JUMPDEST STOP JUMPDEST PUSH2 0x140 PUSH2 0x150 CALLDATASIZE PUSH1 0x4 PUSH2 0x6BC JUMP JUMPDEST PUSH2 0x283 JUMP JUMPDEST PUSH2 0x140 PUSH2 0x163 CALLDATASIZE PUSH1 0x4 PUSH2 0x702 JUMP JUMPDEST PUSH2 0x486 JUMP JUMPDEST PUSH1 0x3 SLOAD PUSH1 0x1 PUSH1 0x1 PUSH1 0xA0 SHL SUB AND PUSH2 0x128 JUMP JUMPDEST PUSH1 0x1 SLOAD PUSH1 0x1 PUSH1 0x1 PUSH1 0xA0 SHL SUB AND PUSH2 0x128 JUMP JUMPDEST PUSH2 0x102 PUSH2 0x198 CALLDATASIZE PUSH1 0x4 PUSH2 0x69A JUMP JUMPDEST PUSH2 0x5B2 JUMP JUMPDEST PUSH2 0x102 PUSH2 0x1AB CALLDATASIZE PUSH1 0x4 PUSH2 0x69A JUMP JUMPDEST PUSH2 0x5E5 JUMP JUMPDEST PUSH2 0x102 PUSH2 0x1BE CALLDATASIZE PUSH1 0x4 PUSH2 0x69A JUMP JUMPDEST PUSH2 0x618 JUMP JUMPDEST PUSH1 0x1 SLOAD PUSH2 0x128 SWAP1 PUSH1 0x1 PUSH1 0x1 PUSH1 0xA0 SHL SUB AND DUP2 JUMP JUMPDEST PUSH1 0x0 SLOAD PUSH1 0x1 PUSH1 0x1 PUSH1 0xA0 SHL SUB AND PUSH2 0x128 JUMP JUMPDEST PUSH2 0x102 PUSH2 0x1F5 CALLDATASIZE PUSH1 0x4 PUSH2 0x69A JUMP JUMPDEST PUSH2 0x64B JUMP JUMPDEST PUSH1 0x3 SLOAD PUSH2 0x128 SWAP1 PUSH1 0x1 PUSH1 0x1 PUSH1 0xA0 SHL SUB AND DUP2 JUMP JUMPDEST PUSH1 0x1 SLOAD PUSH1 0x40 MLOAD PUSH4 0xF8B2CB4F PUSH1 0xE0 SHL DUP2 MSTORE PUSH1 0x1 PUSH1 0x1 PUSH1 0xA0 SHL SUB DUP4 DUP2 AND PUSH1 0x4 DUP4 ADD MSTORE PUSH1 0x0 SWAP3 AND SWAP1 PUSH4 0xF8B2CB4F SWAP1 PUSH1 0x24 ADD JUMPDEST PUSH1 0x20 PUSH1 0x40 MLOAD DUP1 DUP4 SUB DUP2 DUP7 GAS STATICCALL ISZERO DUP1 ISZERO PUSH2 0x259 JUMPI RETURNDATASIZE PUSH1 0x0 DUP1 RETURNDATACOPY RETURNDATASIZE PUSH1 0x0 REVERT JUMPDEST POP POP POP POP PUSH1 0x40 MLOAD RETURNDATASIZE PUSH1 0x1F NOT PUSH1 0x1F DUP3 ADD AND DUP3 ADD DUP1 PUSH1 0x40 MSTORE POP DUP2 ADD SWAP1 PUSH2 0x27D SWAP2 SWAP1 PUSH2 0x72E JUMP JUMPDEST SWAP3 SWAP2 POP POP JUMP JUMPDEST PUSH1 0x1 PUSH1 0x0 SWAP1 SLOAD SWAP1 PUSH2 0x100 EXP SWAP1 DIV PUSH1 0x1 PUSH1 0x1 PUSH1 0xA0 SHL SUB AND PUSH1 0x1 PUSH1 0x1 PUSH1 0xA0 SHL SUB AND PUSH4 0x9404954 PUSH1 0x40 MLOAD DUP2 PUSH4 0xFFFFFFFF AND PUSH1 0xE0 SHL DUP2 MSTORE PUSH1 0x4 ADD PUSH1 0x20 PUSH1 0x40 MLOAD DUP1 DUP4 SUB DUP2 DUP7 GAS STATICCALL ISZERO DUP1 ISZERO PUSH2 0x2D6 JUMPI RETURNDATASIZE PUSH1 0x0 DUP1 RETURNDATACOPY RETURNDATASIZE PUSH1 0x0 REVERT JUMPDEST POP POP POP POP PUSH1 0x40 MLOAD RETURNDATASIZE PUSH1 0x1F NOT PUSH1 0x1F DUP3 ADD AND DUP3 ADD DUP1 PUSH1 0x40 MSTORE POP DUP2 ADD SWAP1 PUSH2 0x2FA SWAP2 SWAP1 PUSH2 0x72E JUMP JUMPDEST PUSH2 0x304 SWAP1 DUP6 PUSH2 0x747 JUMP JUMPDEST DUP3 LT ISZERO PUSH2 0x350 JUMPI PUSH1 0x40 MLOAD PUSH3 0x461BCD PUSH1 0xE5 SHL DUP2 MSTORE PUSH1 0x20 PUSH1 0x4 DUP3 ADD MSTORE PUSH1 0x15 PUSH1 0x24 DUP3 ADD MSTORE PUSH21 0x1B9BDD08195B9BDD59DA0818DBDB1B185D195C985B PUSH1 0x5A SHL PUSH1 0x44 DUP3 ADD MSTORE PUSH1 0x64 ADD JUMPDEST PUSH1 0x40 MLOAD DUP1 SWAP2 SUB SWAP1 REVERT JUMPDEST PUSH1 0x1 SLOAD PUSH1 0x40 MLOAD PUSH4 0xF970C3B7 PUSH1 0xE0 SHL DUP2 MSTORE CALLER PUSH1 0x4 DUP3 ADD MSTORE PUSH1 0x1 PUSH1 0x1 PUSH1 0xA0 SHL SUB DUP4 DUP2 AND PUSH1 0x24 DUP4 ADD MSTORE PUSH1 0x44 DUP3 ADD DUP6 SWAP1 MSTORE SWAP1 SWAP2 AND SWAP1 PUSH4 0xF970C3B7 SWAP1 PUSH1 0x64 ADD PUSH1 0x0 PUSH1 0x40 MLOAD DUP1 DUP4 SUB DUP2 PUSH1 0x0 DUP8 DUP1 EXTCODESIZE ISZERO DUP1 ISZERO PUSH2 0x3A4 JUMPI PUSH1 0x0 DUP1 REVERT JUMPDEST POP GAS CALL ISZERO DUP1 ISZERO PUSH2 0x3B8 JUMPI RETURNDATASIZE PUSH1 0x0 DUP1 RETURNDATACOPY RETURNDATASIZE PUSH1 0x0 REVERT JUMPDEST POP POP PUSH1 0x0 SLOAD PUSH1 0x40 MLOAD PUSH4 0xFC4F78B9 PUSH1 0xE0 SHL DUP2 MSTORE CALLER PUSH1 0x4 DUP3 ADD MSTORE PUSH1 0x1 PUSH1 0x1 PUSH1 0xA0 SHL SUB DUP8 DUP2 AND PUSH1 0x24 DUP4 ADD MSTORE PUSH1 0x44 DUP3 ADD DUP10 SWAP1 MSTORE SWAP1 SWAP2 AND SWAP3 POP PUSH4 0xFC4F78B9 SWAP2 POP PUSH1 0x64 ADD PUSH1 0x0 PUSH1 0x40 MLOAD DUP1 DUP4 SUB DUP2 PUSH1 0x0 DUP8 DUP1 EXTCODESIZE ISZERO DUP1 ISZERO PUSH2 0x410 JUMPI PUSH1 0x0 DUP1 REVERT JUMPDEST POP GAS CALL ISZERO DUP1 ISZERO PUSH2 0x424 JUMPI RETURNDATASIZE PUSH1 0x0 DUP1 RETURNDATACOPY RETURNDATASIZE PUSH1 0x0 REVERT JUMPDEST POP POP PUSH1 0x40 DUP1 MLOAD CALLER DUP2 MSTORE PUSH1 0x20 DUP2 ADD DUP9 SWAP1 MSTORE PUSH1 0x1 PUSH1 0x1 PUSH1 0xA0 SHL SUB DUP8 DUP2 AND DUP3 DUP5 ADD MSTORE PUSH1 0x60 DUP3 ADD DUP8 SWAP1 MSTORE DUP6 AND PUSH1 0x80 DUP3 ADD MSTORE SWAP1 MLOAD PUSH32 0xEA8631408D071CDC565DFA37DCB32450C4C85EE9A4142ED14DF1387D7C2A4327 SWAP4 POP SWAP1 DUP2 SWAP1 SUB PUSH1 0xA0 ADD SWAP2 POP LOG1 POP POP POP POP JUMP JUMPDEST PUSH1 0x0 DUP3 GT PUSH2 0x4D6 JUMPI PUSH1 0x40 MLOAD PUSH3 0x461BCD PUSH1 0xE5 SHL DUP2 MSTORE PUSH1 0x20 PUSH1 0x4 DUP3 ADD MSTORE PUSH1 0x18 PUSH1 0x24 DUP3 ADD MSTORE PUSH32 0x6465706F736974206D75737420626520706F7369746976650000000000000000 PUSH1 0x44 DUP3 ADD MSTORE PUSH1 0x64 ADD PUSH2 0x347 JUMP JUMPDEST PUSH1 0x0 SLOAD PUSH1 0x40 MLOAD PUSH4 0x1740ECAF PUSH1 0xE1 SHL DUP2 MSTORE CALLER PUSH1 0x4 DUP3 ADD MSTORE PUSH1 0x1 PUSH1 0x1 PUSH1 0xA0 SHL SUB DUP4 DUP2 AND PUSH1 0x24 DUP4 ADD MSTORE PUSH1 0x44 DUP3 ADD DUP6 SWAP1 MSTORE SWAP1 SWAP2 AND SWAP1 PUSH4 0x2E81D95E SWAP1 PUSH1 0x64 ADD PUSH1 0x0 PUSH1 0x40 MLOAD DUP1 DUP4 SUB DUP2 PUSH1 0x0 DUP8 DUP1 EXTCODESIZE ISZERO DUP1 ISZERO PUSH2 0x52A JUMPI PUSH1 0x0 DUP1 REVERT JUMPDEST POP GAS CALL ISZERO DUP1 ISZERO PUSH2 0x53E JUMPI RETURNDATASIZE PUSH1 0x0 DUP1 RETURNDATACOPY RETURNDATASIZE PUSH1 0x0 REVERT JUMPDEST POP POP PUSH1 0x3 SLOAD PUSH1 0x40 MLOAD PUSH4 0xD4D1513 PUSH1 0xE0 SHL DUP2 MSTORE CALLER PUSH1 0x4 DUP3 ADD MSTORE PUSH1 0x24 DUP2 ADD DUP7 SWAP1 MSTORE PUSH1 0x1 PUSH1 0x1 PUSH1 0xA0 SHL SUB DUP6 DUP2 AND PUSH1 0x44 DUP4 ADD MSTORE SWAP1 SWAP2 AND SWAP3 POP PUSH4 0xD4D1513 SWAP2 POP PUSH1 0x64 ADD PUSH1 0x0 PUSH1 0x40 MLOAD DUP1 DUP4 SUB DUP2 PUSH1 0x0 DUP8 DUP1 EXTCODESIZE ISZERO DUP1 ISZERO PUSH2 0x596 JUMPI PUSH1 0x0 DUP1 REVERT JUMPDEST POP GAS CALL ISZERO DUP1 ISZERO PUSH2 0x5AA JUMPI RETURNDATASIZE PUSH1 0x0 DUP1 RETURNDATACOPY RETURNDATASIZE PUSH1 0x0 REVERT JUMPDEST POP POP POP POP POP POP JUMP JUMPDEST PUSH1 0x0 DUP1 SLOAD PUSH1 0x40 MLOAD PUSH4 0xFCE3E8E7 PUSH1 0xE0 SHL DUP2 MSTORE PUSH1 0x1 PUSH1 0x1 PUSH1 0xA0 SHL SUB DUP5 DUP2 AND PUSH1 0x4 DUP4 ADD MSTORE SWAP1 SWAP2 AND SWAP1 PUSH4 0xFCE3E8E7 SWAP1 PUSH1 0x24 ADD PUSH2 0x23C JUMP JUMPDEST PUSH1 0x0 DUP1 SLOAD PUSH1 0x40 MLOAD PUSH4 0xF8B2CB4F PUSH1 0xE0 SHL DUP2 MSTORE PUSH1 0x1 PUSH1 0x1 PUSH1 0xA0 SHL SUB DUP5 DUP2 AND PUSH1 0x4 DUP4 ADD MSTORE SWAP1 SWAP2 AND SWAP1 PUSH4 0xF8B2CB4F SWAP1 PUSH1 0x24 ADD PUSH2 0x23C JUMP JUMPDEST PUSH1 0x1 SLOAD PUSH1 0x40 MLOAD PUSH4 0x28D1F893 PUSH1 0xE2 SHL DUP2 MSTORE PUSH1 0x1 PUSH1 0x1 PUSH1 0xA0 SHL SUB DUP4 DUP2 AND PUSH1 0x4 DUP4 ADD MSTORE PUSH1 0x0 SWAP3 AND SWAP1 PUSH4 0xA347E24C SWAP1 PUSH1 0x24 ADD PUSH2 0x23C JUMP JUMPDEST PUSH1 0x0 DUP1 SLOAD PUSH1 0x40 MLOAD PUSH4 0xDE30F97D PUSH1 0xE0 SHL DUP2 MSTORE PUSH1 0x1 PUSH1 0x1 PUSH1 0xA0 SHL SUB DUP5 DUP2 AND PUSH1 0x4 DUP4 ADD MSTORE SWAP1 SWAP2 AND SWAP1 PUSH4 0xDE30F97D SWAP1 PUSH1 0x24 ADD PUSH2 0x23C JUMP JUMPDEST DUP1 CALLDATALOAD PUSH1 0x1 PUSH1 0x1 PUSH1 0xA0 SHL SUB DUP2 AND DUP2 EQ PUSH2 0x695 JUMPI PUSH1 0x0 DUP1 REVERT JUMPDEST SWAP2 SWAP1 POP JUMP JUMPDEST PUSH1 0x0 PUSH1 0x20 DUP3 DUP5 SUB SLT ISZERO PUSH2 0x6AC JUMPI PUSH1 0x0 DUP1 REVERT JUMPDEST PUSH2 0x6B5 DUP3 PUSH2 0x67E JUMP JUMPDEST SWAP4 SWAP3 POP POP POP JUMP JUMPDEST PUSH1 0x0 DUP1 PUSH1 0x0 DUP1 PUSH1 0x80 DUP6 DUP8 SUB SLT ISZERO PUSH2 0x6D2 JUMPI PUSH1 0x0 DUP1 REVERT JUMPDEST DUP5 CALLDATALOAD SWAP4 POP PUSH2 0x6E2 PUSH1 0x20 DUP7 ADD PUSH2 0x67E JUMP JUMPDEST SWAP3 POP PUSH1 0x40 DUP6 ADD CALLDATALOAD SWAP2 POP PUSH2 0x6F7 PUSH1 0x60 DUP7 ADD PUSH2 0x67E JUMP JUMPDEST SWAP1 POP SWAP3 SWAP6 SWAP2 SWAP5 POP SWAP3 POP JUMP JUMPDEST PUSH1 0x0 DUP1 PUSH1 0x40 DUP4 DUP6 SUB SLT ISZERO PUSH2 0x715 JUMPI PUSH1 0x0 DUP1 REVERT JUMPDEST DUP3 CALLDATALOAD SWAP2 POP PUSH2 0x725 PUSH1 0x20 DUP5 ADD PUSH2 0x67E JUMP JUMPDEST SWAP1 POP SWAP3 POP SWAP3 SWAP1 POP JUMP JUMPDEST PUSH1 0x0 PUSH1 0x20 DUP3 DUP5 SUB SLT ISZERO PUSH2 0x740 JUMPI PUSH1 0x0 DUP1 REVERT JUMPDEST POP MLOAD SWAP2 SWAP1 POP JUMP JUMPDEST PUSH1 0x0 DUP2 PUSH1 0x0 NOT DIV DUP4 GT DUP3 ISZERO ISZERO AND ISZERO PUSH2 0x76F JUMPI PUSH4 0x4E487B71 PUSH1 0xE0 SHL PUSH1 0x0 MSTORE PUSH1 0x11 PUSH1 0x4 MSTORE PUSH1 0x24 PUSH1 0x0 REVERT JUMPDEST POP MUL SWAP1 JUMP INVALID LOG2 PUSH5 0x6970667358 0x22 SLT KECCAK256 SLT 0x4D 0xA6 0x4A 0xD DELEGATECALL 0xB9 0xD0 SWAP13 SWAP10 EXP SWAP14 0xD6 0x4C XOR DUP9 0xF8 PUSH22 0xA18DF549F79519C2E89B40774E4864736F6C63430008 SIGNEXTEND STOP CALLER ","sha1":"3a12e1960d1f4fa328853be8628b5bfc1883f3e5","source":"// SPDX-License-Identifier: MIT\n\npragma solidity ^0.8.0;\n\n//import \"./ierc20token.sol\";\n//import \"@openzeppelin/contracts/utils/math/SafeMath.sol\";\nimport \"@openzeppelin/contracts/token/ERC20/IERC20.sol\";\nimport \"./2_Pool.sol\";\nimport \"./3_Collateral.sol\";\nimport \"./LVRToken.sol\";\n\n// derive this from OpenZeppelin's Ownable contract?\ncontract LendingPool {\n    //    using SafeMath for uint256;\n\n    event depositEvent(address _user, uint256 _quantity, address _asset);\n    event borrowEvent(\n        address _user,\n        uint256 _borrowed,\n        address _borrowedAsset,\n        uint256 _collateral,\n        address _collateralAsset\n    );\n\n    // not sure the public keyword should be used here\n    Pool public pool;\n    Collateral public collateral;\n    address owner;\n    LVRToken public token;\n\n    constructor() {\n        pool = new Pool();\n        collateral = new Collateral();\n        token = new LVRToken(\"TestToken\", \"TST\", address(pool));\n        //token = LVRToken(tokenAddress);\n\n        owner = msg.sender;\n    }\n\n    modifier onlyOwner() {\n        require(msg.sender == owner);\n        _;\n    }\n\n    function Deposit(uint256 _quantity, address _asset) public {\n        // uint256 _borrowNow?\n        require(_quantity > 0, \"deposit must be positive\");\n\n        pool.depositTransfer(msg.sender, _asset, _quantity);\n        // now need to mint LVR\n\n        token.mint(msg.sender, _quantity, _asset);\n\n        // // borrowNow should be amount borrowed\n        // if (_borrowNow > 0) {\n        //     uint256 usedCollateral = _quantity - collateral.collReq()*_borrowNow;\n        //     Borrow(_borrowNow, address)\n        // }\n\n        //emit depositEvent(msg.sender, _quantity, _asset);\n    }\n\n    function Borrow(\n        uint256 _borrowQuantity,\n        address _asset,\n        uint256 _collateralQuantity,\n        address _collateral\n    ) public {\n        require(\n            _collateralQuantity >= _borrowQuantity * collateral.collReq(),\n            \"not enough collateral\"\n        );\n        collateral.depositCollateral(\n            msg.sender,\n            _collateral,\n            _collateralQuantity\n        );\n        pool.borrowTransfer(msg.sender, _asset, _borrowQuantity);\n\n        emit borrowEvent(\n            msg.sender,\n            _borrowQuantity,\n            _asset,\n            _collateralQuantity,\n            _collateral\n        );\n    }\n\n    function offerCollateralAssets() public {\n        // just needs to check with the pool to see what assets we can offer\n        //users to use as collateral - called when borrowing (if they deposit\n        //LVR and want to use something else)\n        // to do this we probably need to come up with some reserve rules, etc\n    }\n\n    function getLiquidity(address _token) public view returns (uint256) {\n        return pool.getLiquidQuantity(_token);\n    }\n\n    function getPoolBalance(address _token) public view returns (uint256) {\n        return pool.getBalance(_token);\n    }\n\n    function getLiquidPct(address _token) public view returns (uint256) {\n        return pool.getLiquidPct(_token);\n    }\n\n    function getLockedCollateral(address _token) public view returns (uint256) {\n        return collateral.getCollateralQuantity(_token);\n    }\n\n    function getCollBalance(address _token) public view returns (uint256) {\n        return collateral.getBalance(_token);\n    }\n\n    function getPoolAddr() public view returns (address) {\n        return address(pool);\n    }\n\n    function getCollAddr() public view returns (address) {\n        return address(collateral);\n    }\n\n    function getTokenAddr() public view returns (address) {\n        return address(token);\n    }\n}\n","sourcePath":"contracts/1_LendingPool.sol","deployment":{"address":"0x3CF33127b93936Fbd023417Ba2719aD26E23bc2c","chainid":"4","blockHeight":10073164}}