{"bytecode":"608060405234801561001057600080fd5b50600060208190527f4e2753d238f0f4cb8962490717ab551b4c023808c7bc37aed6e8760bfc3a92d580546001600160a01b031990811673d8bd0a1cb028a31aa859a21a3758685a95de462317909155731680df1901c033306f161ea35425c1463d52b0c69091527f848a6226e7c9b8bbc828749523b8ef06b79a399244b200976dd9ab47adefb42b8054909116732ba49aaa16e6afd2a993473cfb70fa8559b523cf1790556102b1806100c56000396000f3fe608060405234801561001057600080fd5b50600436106100365760003560e01c806341976e091461003b5780634238dc4714610061575b600080fd5b61004e610049366004610141565b6100a2565b6040519081526020015b60405180910390f35b61008a61006f366004610141565b6000602081905290815260409020546001600160a01b031681565b6040516001600160a01b039091168152602001610058565b6001600160a01b03808216600090815260208190526040808220548151633fabe5a360e21b81529151929316918391839163feaf968c9160048082019260a0929091908290030181865afa1580156100fe573d6000803e3d6000fd5b505050506040513d601f19601f820116820180604052508101906101229190610190565b505050915050806402540be40061013991906101f6565b949350505050565b60006020828403121561015357600080fd5b81356001600160a01b038116811461016a57600080fd5b9392505050565b805169ffffffffffffffffffff8116811461018b57600080fd5b919050565b600080600080600060a086880312156101a857600080fd5b6101b186610171565b94506020860151935060408601519250606086015191506101d460808701610171565b90509295509295909350565b634e487b7160e01b600052601160045260246000fd5b60006001600160ff1b038184138284138082168684048611161561021c5761021c6101e0565b600160ff1b600087128281168783058912161561023b5761023b6101e0565b60008712925087820587128484161615610257576102576101e0565b8785058712818416161561026d5761026d6101e0565b50505092909302939250505056fea264697066735822122020183f6c59392decd429b5749e6246a0051a335c668342c52a91ab9b950c8fb764736f6c634300080b0033","bytecodeSha1":"69d88ac0a1a6f9fcbfe504660ad089ea618642bd","type":"contract","abi":[{"inputs":[],"stateMutability":"nonpayable","type":"constructor","name":"constructor"},{"inputs":[{"internalType":"address","name":"tokenContractAddress","type":"address"}],"name":"getPrice","outputs":[{"internalType":"uint256","name":"","type":"uint256"}],"stateMutability":"view","type":"function"},{"inputs":[{"internalType":"address","name":"","type":"address"}],"name":"priceFeedMap","outputs":[{"internalType":"address","name":"","type":"address"}],"stateMutability":"view","type":"function"}],"compiler":{"version":"0.8.11+commit.d7f03943","evm_version":"istanbul","optimizer":{"enabled":true,"runs":200}},"contractName":"Conversion","language":"Solidity","natspec":{"methods":{},"kind":"dev","version":1},"opcodes":"PUSH1 0x80 PUSH1 0x40 MSTORE CALLVALUE DUP1 ISZERO PUSH2 0x10 JUMPI PUSH1 0x0 DUP1 REVERT JUMPDEST POP PUSH1 0x4 CALLDATASIZE LT PUSH2 0x36 JUMPI PUSH1 0x0 CALLDATALOAD PUSH1 0xE0 SHR DUP1 PUSH4 0x41976E09 EQ PUSH2 0x3B JUMPI DUP1 PUSH4 0x4238DC47 EQ PUSH2 0x61 JUMPI JUMPDEST PUSH1 0x0 DUP1 REVERT JUMPDEST PUSH2 0x4E PUSH2 0x49 CALLDATASIZE PUSH1 0x4 PUSH2 0x141 JUMP JUMPDEST PUSH2 0xA2 JUMP JUMPDEST PUSH1 0x40 MLOAD SWAP1 DUP2 MSTORE PUSH1 0x20 ADD JUMPDEST PUSH1 0x40 MLOAD DUP1 SWAP2 SUB SWAP1 RETURN JUMPDEST PUSH2 0x8A PUSH2 0x6F CALLDATASIZE PUSH1 0x4 PUSH2 0x141 JUMP JUMPDEST PUSH1 0x0 PUSH1 0x20 DUP2 SWAP1 MSTORE SWAP1 DUP2 MSTORE PUSH1 0x40 SWAP1 KECCAK256 SLOAD PUSH1 0x1 PUSH1 0x1 PUSH1 0xA0 SHL SUB AND DUP2 JUMP JUMPDEST PUSH1 0x40 MLOAD PUSH1 0x1 PUSH1 0x1 PUSH1 0xA0 SHL SUB SWAP1 SWAP2 AND DUP2 MSTORE PUSH1 0x20 ADD PUSH2 0x58 JUMP JUMPDEST PUSH1 0x1 PUSH1 0x1 PUSH1 0xA0 SHL SUB DUP1 DUP3 AND PUSH1 0x0 SWAP1 DUP2 MSTORE PUSH1 0x20 DUP2 SWAP1 MSTORE PUSH1 0x40 DUP1 DUP3 KECCAK256 SLOAD DUP2 MLOAD PUSH4 0x3FABE5A3 PUSH1 0xE2 SHL DUP2 MSTORE SWAP2 MLOAD SWAP3 SWAP4 AND SWAP2 DUP4 SWAP2 DUP4 SWAP2 PUSH4 0xFEAF968C SWAP2 PUSH1 0x4 DUP1 DUP3 ADD SWAP3 PUSH1 0xA0 SWAP3 SWAP1 SWAP2 SWAP1 DUP3 SWAP1 SUB ADD DUP2 DUP7 GAS STATICCALL ISZERO DUP1 ISZERO PUSH2 0xFE JUMPI RETURNDATASIZE PUSH1 0x0 DUP1 RETURNDATACOPY RETURNDATASIZE PUSH1 0x0 REVERT JUMPDEST POP POP POP POP PUSH1 0x40 MLOAD RETURNDATASIZE PUSH1 0x1F NOT PUSH1 0x1F DUP3 ADD AND DUP3 ADD DUP1 PUSH1 0x40 MSTORE POP DUP2 ADD SWAP1 PUSH2 0x122 SWAP2 SWAP1 PUSH2 0x190 JUMP JUMPDEST POP POP POP SWAP2 POP POP DUP1 PUSH5 0x2540BE400 PUSH2 0x139 SWAP2 SWAP1 PUSH2 0x1F6 JUMP JUMPDEST SWAP5 SWAP4 POP POP POP POP JUMP JUMPDEST PUSH1 0x0 PUSH1 0x20 DUP3 DUP5 SUB SLT ISZERO PUSH2 0x153 JUMPI PUSH1 0x0 DUP1 REVERT JUMPDEST DUP2 CALLDATALOAD PUSH1 0x1 PUSH1 0x1 PUSH1 0xA0 SHL SUB DUP2 AND DUP2 EQ PUSH2 0x16A JUMPI PUSH1 0x0 DUP1 REVERT JUMPDEST SWAP4 SWAP3 POP POP POP JUMP JUMPDEST DUP1 MLOAD PUSH10 0xFFFFFFFFFFFFFFFFFFFF DUP2 AND DUP2 EQ PUSH2 0x18B JUMPI PUSH1 0x0 DUP1 REVERT JUMPDEST SWAP2 SWAP1 POP JUMP JUMPDEST PUSH1 0x0 DUP1 PUSH1 0x0 DUP1 PUSH1 0x0 PUSH1 0xA0 DUP7 DUP9 SUB SLT ISZERO PUSH2 0x1A8 JUMPI PUSH1 0x0 DUP1 REVERT JUMPDEST PUSH2 0x1B1 DUP7 PUSH2 0x171 JUMP JUMPDEST SWAP5 POP PUSH1 0x20 DUP7 ADD MLOAD SWAP4 POP PUSH1 0x40 DUP7 ADD MLOAD SWAP3 POP PUSH1 0x60 DUP7 ADD MLOAD SWAP2 POP PUSH2 0x1D4 PUSH1 0x80 DUP8 ADD PUSH2 0x171 JUMP JUMPDEST SWAP1 POP SWAP3 SWAP6 POP SWAP3 SWAP6 SWAP1 SWAP4 POP JUMP JUMPDEST PUSH4 0x4E487B71 PUSH1 0xE0 SHL PUSH1 0x0 MSTORE PUSH1 0x11 PUSH1 0x4 MSTORE PUSH1 0x24 PUSH1 0x0 REVERT JUMPDEST PUSH1 0x0 PUSH1 0x1 PUSH1 0x1 PUSH1 0xFF SHL SUB DUP2 DUP5 SGT DUP3 DUP5 SGT DUP1 DUP3 AND DUP7 DUP5 DIV DUP7 GT AND ISZERO PUSH2 0x21C JUMPI PUSH2 0x21C PUSH2 0x1E0 JUMP JUMPDEST PUSH1 0x1 PUSH1 0xFF SHL PUSH1 0x0 DUP8 SLT DUP3 DUP2 AND DUP8 DUP4 SDIV DUP10 SLT AND ISZERO PUSH2 0x23B JUMPI PUSH2 0x23B PUSH2 0x1E0 JUMP JUMPDEST PUSH1 0x0 DUP8 SLT SWAP3 POP DUP8 DUP3 SDIV DUP8 SLT DUP5 DUP5 AND AND ISZERO PUSH2 0x257 JUMPI PUSH2 0x257 PUSH2 0x1E0 JUMP JUMPDEST DUP8 DUP6 SDIV DUP8 SLT DUP2 DUP5 AND AND ISZERO PUSH2 0x26D JUMPI PUSH2 0x26D PUSH2 0x1E0 JUMP JUMPDEST POP POP POP SWAP3 SWAP1 SWAP4 MUL SWAP4 SWAP3 POP POP POP JUMP INVALID LOG2 PUSH5 0x6970667358 0x22 SLT KECCAK256 KECCAK256 XOR EXTCODEHASH PUSH13 0x59392DECD429B5749E6246A005 BYTE CALLER 0x5C PUSH7 0x8342C52A91AB9B SWAP6 0xC DUP16 0xB7 PUSH5 0x736F6C6343 STOP ADDMOD SIGNEXTEND STOP CALLER ","sha1":"cd760192bd25bf0326816bb0aedf683f193490fc","source":"// SPDX-License-Identifier: MIT\n\npragma solidity ^0.8.0;\n\n// Get the latest ___/USD price from chainlink price feed\nimport \"@chainlink/contracts/src/v0.8/interfaces/AggregatorV3Interface.sol\";\nimport \"@openzeppelin/contracts/utils/math/SafeMath.sol\";\n\ncontract Conversion {\n    //mapping(string => address) public priceFeedMap;\n\n    mapping(address => address) public priceFeedMap;\n\n    /*\n     *rinkeby LINK contract location: 0x01BE23585060835E02B77ef475b0Cc51aA1e0709\n     *rinkeby DAI  contract location: 0x1680df1901C033306f161ea35425c1463D52B0C6\n     */\n    constructor() {\n        //rinkeby addresses using strings\n        // priceFeedMap[\"eth\"] = 0x8A753747A1Fa494EC906cE90E9f37563A8AF630e;\n        // priceFeedMap[\"dai\"] = 0x2bA49Aaa16E6afD2a993473cfB70Fa8559B523cF;\n        // priceFeedMap[\"atom\"] = 0x3539F2E214d8BC7E611056383323aC6D1b01943c;\n        // priceFeedMap[\"ltc\"] = 0x4d38a35C2D87976F334c2d2379b535F1D461D9B4;\n        // priceFeedMap[\"link\"] = 0xd8bD0a1cB028a31AA859A21A3758685a95dE4623;\n        // priceFeedMap[\"matic\"] = 0x7794ee502922e2b723432DDD852B3C30A911F021;\n        // priceFeedMap[\"btc\"] = 0xECe365B379E1dD183B20fc5f022230C044d51404;\n        // priceFeedMap[\"usdc\"] = 0xa24de01df22b63d23Ebc1882a5E3d4ec0d907bFB;\n        // priceFeedMap[\"xrp\"] = 0xc3E76f41CAbA4aB38F00c7255d4df663DA02A024;\n\n        //rinkeby addresses using token contract addresses\n        priceFeedMap[\n            0x01BE23585060835E02B77ef475b0Cc51aA1e0709\n        ] = 0xd8bD0a1cB028a31AA859A21A3758685a95dE4623; //LINK\n        priceFeedMap[\n            0x1680df1901C033306f161ea35425c1463D52B0C6\n        ] = 0x2bA49Aaa16E6afD2a993473cfB70Fa8559B523cF; //DAI\n    }\n\n    // safe math library check uint256 for integer overflows\n    using SafeMath for uint256;\n\n    function getPrice(address tokenContractAddress)\n        public\n        view\n        returns (uint256)\n    {\n        // switching string memory ticker -> address tokenContractAddress\n        AggregatorV3Interface priceFeed = AggregatorV3Interface(\n            priceFeedMap[tokenContractAddress] //ticker will be address once we switch mappings\n        );\n        (, int256 answer, , , ) = priceFeed.latestRoundData();\n        // ___/USD rate in 18 digit\n        return uint256(answer * 10000000000);\n    }\n}\n","sourcePath":"contracts/Conversion.sol","deployment":{"address":"0xa4CfF8d6B08edC1687A49e0F3225c46142f039bb","chainid":"4","blockHeight":10072843}}