{"bytecode":"60806040523480156200001157600080fd5b506040516200002090620001b8565b604051809103906000f0801580156200003d573d6000803e3d6000fd5b50600180546001600160a01b0319166001600160a01b039290921691821790556040516200006b90620001c6565b6060808252600990820152682a32b9ba2a37b5b2b760b91b608082015260a060208201819052600390820152621514d560ea1b60c08201526001600160a01b03909116604082015260e001604051809103906000f080158015620000d3573d6000803e3d6000fd5b50600480546001600160a01b0319166001600160a01b039283169081179091556001546040519216916200010790620001d4565b6001600160a01b03928316815291166020820152604001604051809103906000f0801580156200013b573d6000803e3d6000fd5b50600280546001600160a01b0319166001600160a01b03929092169190911790556040516200016a90620001e2565b604051809103906000f08015801562000187573d6000803e3d6000fd5b50600080546001600160a01b03929092166001600160a01b03199283161790556003805490911633179055620001f0565b611236806200219f83390190565b6120f880620033d583390190565b610e0480620054cd83390190565b61037680620062d183390190565b611f9f80620002006000396000f3fe608060405234801561001057600080fd5b50600436106101fb5760003560e01c806397904e421161011a578063d28682ea116100ad578063dd2d2a121161007c578063dd2d2a1214610448578063de2592421461045b578063de30f97d1461046c578063f2df757b1461047f578063fc0c546a1461049257600080fd5b8063d28682ea146103fc578063d3ea0f891461040f578063d49ab22c14610422578063d8dfeb451461043557600080fd5b8063a747b93b116100e9578063a747b93b146103bb578063a78e4046146103ce578063b9e037e6146103e1578063c4e41b22146103f457600080fd5b806397904e421461037a5780639b96eece1461038d578063a55e8668146103a0578063a6afed95146103b357600080fd5b8063582b2720116101925780636db18093116101615780636db1809314610339578063884edad9146103415780638e6030e2146103545780639311ca691461036757600080fd5b8063582b2720146102bd5780635c16de4f146102ce57806363e36dac146102e15780636aaa434e146102f257600080fd5b80632273323f116101ce5780632273323f14610295578063243d8e051461029557806346c928fc146102975780634bcc1709146102aa57600080fd5b8063057393c014610200578063157a7d7d1461022657806316f0115b146102625780631ba2f5311461028d575b600080fd5b61021361020e366004611d0d565b6104a5565b6040519081526020015b60405180910390f35b610213610234366004611d28565b6001600160a01b03918216600090815260096020908152604080832093909416825291909152206001015490565b600154610275906001600160a01b031681565b6040516001600160a01b03909116815260200161021d565b61021361051b565b005b6102956102a5366004611d5b565b610599565b6102956102b8366004611da1565b610a4c565b6004546001600160a01b0316610275565b6102956102dc366004611dc4565b610bb2565b6002546001600160a01b0316610275565b610324610300366004611d28565b60096020908152600092835260408084209091529082529020805460019091015482565b6040805192835260208301919091520161021d565b610213610e08565b61029561034f366004611dc4565b610e5d565b610275610362366004611dee565b611223565b600054610275906001600160a01b031681565b610213610388366004611d0d565b61124d565b61021361039b366004611d0d565b611280565b6102136103ae366004611d28565b6112b8565b610295611336565b6102136103c9366004611d0d565b611565565b6102136103dc366004611d28565b611598565b6102956103ef366004611e07565b6115d0565b6102136119cf565b61021361040a366004611d0d565b611a24565b61021361041d366004611d0d565b611a57565b610213610430366004611d0d565b611a8a565b600254610275906001600160a01b031681565b610213610456366004611e4c565b611abd565b6001546001600160a01b0316610275565b61021361047a366004611d0d565b611ac9565b61021361048d366004611d0d565b611afc565b600454610275906001600160a01b031681565b60025460405163f8b2cb4f60e01b81526001600160a01b038381166004830152600092169063f8b2cb4f906024015b602060405180830381865afa1580156104f1573d6000803e3d6000fd5b505050506040513d601f19601f820116820180604052508101906105159190611e6e565b92915050565b6000600460009054906101000a90046001600160a01b03166001600160a01b0316638a02775b6040518163ffffffff1660e01b8152600401602060405180830381865afa158015610570573d6000803e3d6000fd5b505050506040513d601f19601f820116820180604052508101906105949190611e6e565b905090565b600254604051631d512a9160e21b81523360048201526000916001600160a01b031690637544aa4490602401602060405180830381865afa1580156105e2573d6000803e3d6000fd5b505050506040513d601f19601f820116820180604052508101906106069190611e6e565b6000546040516341976e0960e01b81526001600160a01b038581166004830152869216906341976e0990602401602060405180830381865afa158015610650573d6000803e3d6000fd5b505050506040513d601f19601f820116820180604052508101906106749190611e6e565b61067e9190611e9d565b6106889190611ebc565b9050600061069533611afc565b6000546040516341976e0960e01b81526001600160a01b038881166004830152899216906341976e0990602401602060405180830381865afa1580156106df573d6000803e3d6000fd5b505050506040513d601f19601f820116820180604052508101906107039190611e6e565b61070d9190611e9d565b6107179190611ebc565b9050600260009054906101000a90046001600160a01b03166001600160a01b031663094049546040518163ffffffff1660e01b8152600401602060405180830381865afa15801561076c573d6000803e3d6000fd5b505050506040513d601f19601f820116820180604052508101906107909190611e6e565b61079a9082611e9d565b8210156107ee5760405162461bcd60e51b815260206004820152601f60248201527f6e6f7420656e6f75676820636f6c6c61746572616c20746f20626f72726f770060448201526064015b60405180910390fd5b60025460405163f970c3b760e01b81526001600160a01b039091169063f970c3b79061082290339087908990600401611ed4565b600060405180830381600087803b15801561083c57600080fd5b505af1158015610850573d6000803e3d6000fd5b505060015460405163fc4f78b960e01b81526001600160a01b03909116925063fc4f78b9915061088890339089908b90600401611ed4565b600060405180830381600087803b1580156108a257600080fd5b505af11580156108b6573d6000803e3d6000fd5b505060408051338152602081018a90526001600160a01b0389811682840152606082018990528716608082015290517fea8631408d071cdc565dfa37dcb32450c4c85ee9a4142ed14df1387d7c2a432793509081900360a0019150a13360009081526009602090815260408083206001600160a01b038916845290915281208054889290610945908490611ebc565b90915550503360009081526008602090815260408083206001600160a01b038916845290915290205460ff166109d2573360008181526007602090815260408083208054600180820183559185528385200180546001600160a01b0319166001600160a01b038c1690811790915594845260088352818420948452939091529020805460ff191690911790555b336000908152600b602052604090205460ff16610a4457600a805460018181019092557fc65a7bb8d6351c1cf70c95a316cc6a92839c986682d98bc35f958f4883f9d2a80180546001600160a01b031916339081179091556000908152600b60205260409020805460ff191690911790555b505050505050565b60008211610a9c5760405162461bcd60e51b815260206004820152601860248201527f6465706f736974206d75737420626520706f736974697665000000000000000060448201526064016107e5565b60048054604051630d4d151360e01b81523392810192909252602482018490526001600160a01b038381166044840152600092911690630d4d1513906064016020604051808303816000875af1158015610afa573d6000803e3d6000fd5b505050506040513d601f19601f82011682018060405250810190610b1e9190611e6e565b33600090815260066020526040812080549293508392909190610b42908490611ebc565b9091555050600154604051631740ecaf60e11b81526001600160a01b0390911690632e81d95e90610b7b90339086908890600401611ed4565b600060405180830381600087803b158015610b9557600080fd5b505af1158015610ba9573d6000803e3d6000fd5b50505050505050565b3360009081526009602090815260408083206001600160a01b03861684529091529020600181015490548291610be791611ebc565b1015610c355760405162461bcd60e51b815260206004820152601b60248201527f52657475726e6564206d6f7265207468616e20626f72726f776564000000000060448201526064016107e5565b3360009081526009602090815260408083206001600160a01b0386168452909152812054610c64908390611abd565b90506000610c728284611ef8565b6001546040516327709e4760e11b81523360048201526001600160a01b038781166024830152604482018790526064820186905260848201849052929350911690634ee13c8e9060a401600060405180830381600087803b158015610cd657600080fd5b505af1158015610cea573d6000803e3d6000fd5b50503360009081526009602090815260408083206001600160a01b038a16845290915281208054869450909250610d22908490611ef8565b90915550503360009081526009602090815260408083206001600160a01b038816845290915281206001018054839290610d5d908490611ef8565b90915550503360009081526009602090815260408083206001600160a01b0388168452909152902054610daf573360009081526009602090815260408083206001600160a01b03881684529091528120555b3360009081526009602090815260408083206001600160a01b0388168452909152902060010154610e02573360009081526009602090815260408083206001600160a01b03881684529091528120600101555b50505050565b6000600460009054906101000a90046001600160a01b03166001600160a01b03166333d57cdc6040518163ffffffff1660e01b8152600401602060405180830381865afa158015610570573d6000803e3d6000fd5b600080546040516341976e0960e01b81526001600160a01b038581166004830152909116906341976e0990602401602060405180830381865afa158015610ea8573d6000803e3d6000fd5b505050506040513d601f19601f82011682018060405250810190610ecc9190611e6e565b9050600081600460009054906101000a90046001600160a01b03166001600160a01b03166333d57cdc6040518163ffffffff1660e01b8152600401602060405180830381865afa158015610f24573d6000803e3d6000fd5b505050506040513d601f19601f82011682018060405250810190610f489190611e6e565b610f529085611e9d565b610f5c9190611f0f565b60015460405163fce3e8e760e01b81526001600160a01b03878116600483015292935091169063fce3e8e790602401602060405180830381865afa158015610fa8573d6000803e3d6000fd5b505050506040513d601f19601f82011682018060405250810190610fcc9190611e6e565b8111156110365760405162461bcd60e51b815260206004820152603260248201527f557365722063616e6e6f742072656465656d206d6f7265207468616e2074686560448201527120617661696c61626c652062616c616e636560701b60648201526084016107e5565b600480546040516370a0823160e01b8152339281019290925284916001600160a01b03909116906370a0823190602401602060405180830381865afa158015611083573d6000803e3d6000fd5b505050506040513d601f19601f820116820180604052508101906110a79190611e6e565b10156111095760405162461bcd60e51b815260206004820152602b60248201527f43616e6e6f742072656465656d206d6f726520746f6b656e73207468616e206e60448201526a1d5b58995c881bdddb995960aa1b60648201526084016107e5565b3360009081526006602052604081208054859290611128908490611ef8565b90915550503360009081526006602052604090205461115257336000908152600660205260408120555b600154604051631f97f85960e31b81526001600160a01b039091169063fcbfc2c89061118690339088908690600401611ed4565b600060405180830381600087803b1580156111a057600080fd5b505af11580156111b4573d6000803e3d6000fd5b505060048054604051632770a7eb60e21b81523392810192909252602482018790526001600160a01b03169250639dc29fac9150604401600060405180830381600087803b15801561120557600080fd5b505af1158015611219573d6000803e3d6000fd5b5050505050505050565b600a818154811061123357600080fd5b6000918252602090912001546001600160a01b0316905081565b600254604051631d512a9160e21b81526001600160a01b0383811660048301526000921690637544aa44906024016104d4565b600480546040516370a0823160e01b81526001600160a01b0384811693820193909352600092909116906370a08231906024016104d4565b600254604051632b92a07d60e01b81526001600160a01b03838116600483015284811660248301526000921690632b92a07d90604401602060405180830381865afa15801561130b573d6000803e3d6000fd5b505050506040513d601f19601f8201168201806040525081019061132f9190611e6e565b9392505050565b600a5460005b818161ffff161015611561576000600a8261ffff168154811061136157611361611f31565b60009182526020808320909101546001600160a01b031680835260079091526040822054909250905b818161ffff16101561154b576001600160a01b0383166000908152600960209081526040808320600790925282208054670de0b6b3a764000093919061ffff86169081106113da576113da611f31565b60009182526020808320909101546001600160a01b039081168452838201949094526040928301822054600154898616845260079092529290912080549293919091169163246140ce919061ffff871690811061143957611439611f31565b60009182526020909120015460405160e083901b6001600160e01b03191681526001600160a01b039091166004820152602401602060405180830381865afa158015611489573d6000803e3d6000fd5b505050506040513d601f19601f820116820180604052508101906114ad9190611e6e565b6114b79190611e9d565b6114c19190611f0f565b6001600160a01b038416600090815260096020908152604080832060079092528220805491929161ffff86169081106114fc576114fc611f31565b60009182526020808320909101546001600160a01b0316835282019290925260400181206001018054909190611533908490611ebc565b9091555081905061154381611f47565b91505061138a565b505050808061155990611f47565b91505061133c565b5050565b60015460405163fce3e8e760e01b81526001600160a01b038381166004830152600092169063fce3e8e7906024016104d4565b6001600160a01b03828116600090815260096020908152604080832093851683529290529081206001810154905461132f9190611ebc565b6115d933611afc565b600260009054906101000a90046001600160a01b03166001600160a01b031663094049546040518163ffffffff1660e01b8152600401602060405180830381865afa15801561162c573d6000803e3d6000fd5b505050506040513d601f19601f820116820180604052508101906116509190611e6e565b61165a9190611e9d565b6000546040516341976e0960e01b81526001600160a01b038681166004830152670de0b6b3a76400009286929116906341976e0990602401602060405180830381865afa1580156116af573d6000803e3d6000fd5b505050506040513d601f19601f820116820180604052508101906116d39190611e6e565b6116dd9190611e9d565b6116e79190611f0f565b600254604051631d512a9160e21b81523360048201526001600160a01b0390911690637544aa4490602401602060405180830381865afa15801561172f573d6000803e3d6000fd5b505050506040513d601f19601f820116820180604052508101906117539190611e6e565b61175d9190611ef8565b10156117c65760405162461bcd60e51b815260206004820152603260248201527f43616e6e6f7420776974686472617720636f6c6c61746572616c206265666f7260448201527132903830bcb4b733903130b1b5903637b0b760711b60648201526084016107e5565b600254604051632b92a07d60e01b81526001600160a01b0385811660048301523360248301526000921690632b92a07d90604401602060405180830381865afa158015611817573d6000803e3d6000fd5b505050506040513d601f19601f8201168201806040525081019061183b9190611e6e565b90508083111561189e5760405162461bcd60e51b815260206004820152602860248201527f52656465656d696e67206d6f726520636f6c6c61746572616c207468616e2064604482015267195c1bdcda5d195960c21b60648201526084016107e5565b600254604051634755ea7f60e11b81523360048201526001600160a01b03868116602483015260448201869052841515606483015290911690638eabd4fe90608401600060405180830381600087803b1580156118fa57600080fd5b505af115801561190e573d6000803e3d6000fd5b5050505081151560011415610e025760048054604051630d4d151360e01b81523392810192909252602482018590526001600160a01b038681166044840152600092911690630d4d1513906064016020604051808303816000875af115801561197b573d6000803e3d6000fd5b505050506040513d601f19601f8201168201806040525081019061199f9190611e6e565b336000908152600660205260408120805492935083929091906119c3908490611ebc565b90915550505050505050565b6000600460009054906101000a90046001600160a01b03166001600160a01b03166318160ddd6040518163ffffffff1660e01b8152600401602060405180830381865afa158015610570573d6000803e3d6000fd5b60015460405163f8b2cb4f60e01b81526001600160a01b038381166004830152600092169063f8b2cb4f906024016104d4565b600154604051631230a06760e11b81526001600160a01b038381166004830152600092169063246140ce906024016104d4565b6002546040516328d1f89360e21b81526001600160a01b038381166004830152600092169063a347e24c906024016104d4565b600061132f8383611cdb565b60015460405163de30f97d60e01b81526001600160a01b038381166004830152600092169063de30f97d906024016104d4565b6001600160a01b0381166000908152600760205260408120548190815b818161ffff161015611cd257600080546001600160a01b038781168352600760205260409092208054670de0b6b3a764000093909216916341976e09919061ffff8616908110611b6b57611b6b611f31565b60009182526020909120015460405160e083901b6001600160e01b03191681526001600160a01b039091166004820152602401602060405180830381865afa158015611bbb573d6000803e3d6000fd5b505050506040513d601f19601f82011682018060405250810190611bdf9190611e6e565b6001600160a01b038716600090815260096020908152604080832060079092528220805491929161ffff8716908110611c1a57611c1a611f31565b60009182526020808320909101546001600160a01b039081168452838201949094526040928301822060010154938b168252600981528282206007909152918120805461ffff8816908110611c7157611c71611f31565b60009182526020808320909101546001600160a01b03168352820192909252604001902054611ca09190611ebc565b611caa9190611e9d565b611cb49190611f0f565b611cbe9084611ebc565b925080611cca81611f47565b915050611b19565b50909392505050565b6000818310611cea578161132f565b5090919050565b80356001600160a01b0381168114611d0857600080fd5b919050565b600060208284031215611d1f57600080fd5b61132f82611cf1565b60008060408385031215611d3b57600080fd5b611d4483611cf1565b9150611d5260208401611cf1565b90509250929050565b60008060008060808587031215611d7157600080fd5b84359350611d8160208601611cf1565b925060408501359150611d9660608601611cf1565b905092959194509250565b60008060408385031215611db457600080fd5b82359150611d5260208401611cf1565b60008060408385031215611dd757600080fd5b611de083611cf1565b946020939093013593505050565b600060208284031215611e0057600080fd5b5035919050565b600080600060608486031215611e1c57600080fd5b611e2584611cf1565b92506020840135915060408401358015158114611e4157600080fd5b809150509250925092565b60008060408385031215611e5f57600080fd5b50508035926020909101359150565b600060208284031215611e8057600080fd5b5051919050565b634e487b7160e01b600052601160045260246000fd5b6000816000190483118215151615611eb757611eb7611e87565b500290565b60008219821115611ecf57611ecf611e87565b500190565b6001600160a01b039384168152919092166020820152604081019190915260600190565b600082821015611f0a57611f0a611e87565b500390565b600082611f2c57634e487b7160e01b600052601260045260246000fd5b500490565b634e487b7160e01b600052603260045260246000fd5b600061ffff80831681811415611f5f57611f5f611e87565b600101939250505056fea264697066735822122028e66b6709559308a5f0f80a54cb0599bc8a34b5771895140d7b21589b40991764736f6c634300080b0033608060405234801561001057600080fd5b50600260038190556040805160608082018352600080835260208084018281528486018381527301be23585060835e02b77ef475b0cc51aa1e070980855284845295517f4e2753d238f0f4cb8962490717ab551b4c023808c7bc37aed6e8760bfc3a92d55590517f4e2753d238f0f4cb8962490717ab551b4c023808c7bc37aed6e8760bfc3a92d655517f4e2753d238f0f4cb8962490717ab551b4c023808c7bc37aed6e8760bfc3a92d7558554600181810188557f405787fa12a823e0f2b7631cc41b3ba8828b3321ca811111fa75cd3aa3bb5ace91820180546001600160a01b0319908116881790915587519586018852848652858401858152868901868152735592ec0cfb4dbc12d3ab100b257153436a1f0fea8088529587905296517ff4e9730789baae4355b7b087afa1a57a24c222e690ce50ce909b525e8495925b55517ff4e9730789baae4355b7b087afa1a57a24c222e690ce50ce909b525e8495925c5594517ff4e9730789baae4355b7b087afa1a57a24c222e690ce50ce909b525e8495925d558754908101885596909252940180549091168417905590519091906101bd90610202565b604051809103906000f0801580156101d9573d6000803e3d6000fd5b50600180546001600160a01b0319166001600160a01b03929092169190911790555061020f9050565b61037680610ec083390190565b610ca28061021e6000396000f3fe608060405234801561001057600080fd5b50600436106100f55760003560e01c8063b8c876b111610097578063f8b2cb4f11610066578063f8b2cb4f146102bf578063fc4f78b9146102d2578063fcbfc2c8146102e5578063fce3e8e7146102f857600080fd5b8063b8c876b11461023a578063de30f97d14610284578063e4ebd60114610297578063edf26d9b146102ac57600080fd5b80635c88f5a5116100d35780635c88f5a5146101485780636efb8b621461017157806375f4d677146102075780639311ca691461020f57600080fd5b8063246140ce146100fa5780632e81d95e146101205780634ee13c8e14610135575b600080fd5b61010d610108366004610976565b610324565b6040519081526020015b60405180910390f35b61013361012e366004610991565b6103ad565b005b6101336101433660046109cd565b61045c565b61010d610156366004610976565b6001600160a01b031660009081526020819052604090205490565b61013361017f366004610976565b60408051606081018252600080825260208083018281528385018381526001600160a01b0390961680845291839052938220925183559251600180840191909155935160029283015581549384018255527f405787fa12a823e0f2b7631cc41b3ba8828b3321ca811111fa75cd3aa3bb5ace90910180546001600160a01b0319169091179055565b61010d61056a565b600154610222906001600160a01b031681565b6040516001600160a01b039091168152602001610117565b610269610248366004610976565b60006020819052908152604090208054600182015460029092015490919083565b60408051938452602084019290925290820152606001610117565b61010d610292366004610976565b6106f4565b61029f61075f565b6040516101179190610a1a565b6102226102ba366004610a67565b6107c1565b61010d6102cd366004610976565b6107eb565b6101336102e0366004610991565b610856565b6101336102f3366004610991565b61092f565b61010d610306366004610976565b6001600160a01b031660009081526020819052604090206001015490565b600080610330836106f4565b61034290670de0b6b3a7640000610a96565b905061223868056bc75e2d631000006ec097ce7bc90715b34b9f100000000061036c600485610b91565b6103769190610ba0565b610381906008610bc2565b61038b9190610ba0565b61039c9066354a6ba7a18000610be1565b6103a69190610ba0565b9392505050565b6040516323b872dd60e01b81526001600160a01b038481166004830152306024830152604482018390528316906323b872dd906064016020604051808303816000875af1158015610402573d6000803e3d6000fd5b505050506040513d601f19601f820116820180604052508101906104269190610bf9565b506001600160a01b03821660009081526020819052604081206001018054839290610452908490610be1565b9091555050505050565b6040516323b872dd60e01b81526001600160a01b038681166004830152306024830152604482018590528516906323b872dd906064016020604051808303816000875af11580156104b1573d6000803e3d6000fd5b505050506040513d601f19601f820116820180604052508101906104d59190610bf9565b506001600160a01b03841660009081526020819052604081206001018054849290610501908490610be1565b90915550506001600160a01b03841660009081526020819052604081206002018054849290610531908490610a96565b90915550506001600160a01b0384166000908152602081905260408120805483929061055e908490610be1565b90915550505050505050565b6002546000908190815b818161ffff1610156106ec5760015460028054670de0b6b3a7640000926001600160a01b0316916341976e099161ffff86169081106105b5576105b5610c1b565b60009182526020909120015460405160e083901b6001600160e01b03191681526001600160a01b039091166004820152602401602060405180830381865afa158015610605573d6000803e3d6000fd5b505050506040513d601f19601f820116820180604052508101906106299190610c31565b60008060028561ffff168154811061064357610643610c1b565b60009182526020808320909101546001600160a01b0316835282019290925260400181206002908101548154909291829161ffff881690811061068857610688610c1b565b60009182526020808320909101546001600160a01b031683528201929092526040019020600101546106ba9190610be1565b6106c49190610bc2565b6106ce9190610ba0565b6106d89084610be1565b9250806106e481610c4a565b915050610574565b509092915050565b6001600160a01b038116600090815260208190526040812060028101546001909101546107219190610be1565b6001600160a01b03831660009081526020819052604090206001015461074f90670de0b6b3a7640000610bc2565b6107599190610ba0565b92915050565b606060028054806020026020016040519081016040528092919081815260200182805480156107b757602002820191906000526020600020905b81546001600160a01b03168152600190910190602001808311610799575b5050505050905090565b600281815481106107d157600080fd5b6000918252602090912001546001600160a01b0316905081565b6040516370a0823160e01b81523060048201526000906001600160a01b038316906370a0823190602401602060405180830381865afa158015610832573d6000803e3d6000fd5b505050506040513d601f19601f820116820180604052508101906107599190610c31565b6001600160a01b03821660009081526020819052604081206001018054839290610881908490610a96565b90915550506001600160a01b038216600090815260208190526040812060020180548392906108b1908490610be1565b909155505060405163a9059cbb60e01b81526001600160a01b0384811660048301526024820183905283169063a9059cbb906044016020604051808303816000875af1158015610905573d6000803e3d6000fd5b505050506040513d601f19601f820116820180604052508101906109299190610bf9565b50505050565b6001600160a01b038216600090815260208190526040812060010180548392906108b1908490610a96565b80356001600160a01b038116811461097157600080fd5b919050565b60006020828403121561098857600080fd5b6103a68261095a565b6000806000606084860312156109a657600080fd5b6109af8461095a565b92506109bd6020850161095a565b9150604084013590509250925092565b600080600080600060a086880312156109e557600080fd5b6109ee8661095a565b94506109fc6020870161095a565b94979496505050506040830135926060810135926080909101359150565b6020808252825182820181905260009190848201906040850190845b81811015610a5b5783516001600160a01b031683529284019291840191600101610a36565b50909695505050505050565b600060208284031215610a7957600080fd5b5035919050565b634e487b7160e01b600052601160045260246000fd5b600082821015610aa857610aa8610a80565b500390565b600181815b80851115610ae8578160001904821115610ace57610ace610a80565b80851615610adb57918102915b93841c9390800290610ab2565b509250929050565b600082610aff57506001610759565b81610b0c57506000610759565b8160018114610b225760028114610b2c57610b48565b6001915050610759565b60ff841115610b3d57610b3d610a80565b50506001821b610759565b5060208310610133831016604e8410600b8410161715610b6b575081810a610759565b610b758383610aad565b8060001904821115610b8957610b89610a80565b029392505050565b60006103a660ff841683610af0565b600082610bbd57634e487b7160e01b600052601260045260246000fd5b500490565b6000816000190483118215151615610bdc57610bdc610a80565b500290565b60008219821115610bf457610bf4610a80565b500190565b600060208284031215610c0b57600080fd5b815180151581146103a657600080fd5b634e487b7160e01b600052603260045260246000fd5b600060208284031215610c4357600080fd5b5051919050565b600061ffff80831681811415610c6257610c62610a80565b600101939250505056fea264697066735822122054dae7abfedad136415bac87ab7d220782c4667e7e49b5e117438d08d9c0d3fd64736f6c634300080b0033608060405234801561001057600080fd5b50600060208190527f4e2753d238f0f4cb8962490717ab551b4c023808c7bc37aed6e8760bfc3a92d580546001600160a01b031990811673d8bd0a1cb028a31aa859a21a3758685a95de462317909155735592ec0cfb4dbc12d3ab100b257153436a1f0fea9091527ff4e9730789baae4355b7b087afa1a57a24c222e690ce50ce909b525e8495925b8054909116732ba49aaa16e6afd2a993473cfb70fa8559b523cf1790556102b1806100c56000396000f3fe608060405234801561001057600080fd5b50600436106100365760003560e01c806341976e091461003b5780634238dc4714610061575b600080fd5b61004e610049366004610141565b6100a2565b6040519081526020015b60405180910390f35b61008a61006f366004610141565b6000602081905290815260409020546001600160a01b031681565b6040516001600160a01b039091168152602001610058565b6001600160a01b03808216600090815260208190526040808220548151633fabe5a360e21b81529151929316918391839163feaf968c9160048082019260a0929091908290030181865afa1580156100fe573d6000803e3d6000fd5b505050506040513d601f19601f820116820180604052508101906101229190610190565b505050915050806402540be40061013991906101f6565b949350505050565b60006020828403121561015357600080fd5b81356001600160a01b038116811461016a57600080fd5b9392505050565b805169ffffffffffffffffffff8116811461018b57600080fd5b919050565b600080600080600060a086880312156101a857600080fd5b6101b186610171565b94506020860151935060408601519250606086015191506101d460808701610171565b90509295509295909350565b634e487b7160e01b600052601160045260246000fd5b60006001600160ff1b038184138284138082168684048611161561021c5761021c6101e0565b600160ff1b600087128281168783058912161561023b5761023b6101e0565b60008712925087820587128484161615610257576102576101e0565b8785058712818416161561026d5761026d6101e0565b50505092909302939250505056fea264697066735822122072c48f6e00c5a52cb863487a9419bc6a66d0f63d77321e88f47fe70ef4f6aac064736f6c634300080b003360806040523480156200001157600080fd5b50604051620020f8380380620020f88339810160408190526200003491620003eb565b8251839083906200004d9060059060208501906200026a565b508051620000639060069060208401906200026a565b50620000759150600090503362000105565b620000a17f9f2df0fed2c77648de5860a4cc508cd0818c85b8b8a1ab4ceeef8d981c8956a63362000105565b604051620000af90620002f9565b604051809103906000f080158015620000cc573d6000803e3d6000fd5b50600780546001600160a01b039283166001600160a01b0319918216179091556008805493909216921691909117905550620004b59050565b62000111828262000115565b5050565b6200012c82826200015860201b62000ac31760201c565b60008281526001602090815260409091206200015391839062000b47620001f8821b17901c565b505050565b6000828152602081815260408083206001600160a01b038516845290915290205460ff1662000111576000828152602081815260408083206001600160a01b03851684529091529020805460ff19166001179055620001b43390565b6001600160a01b0316816001600160a01b0316837f2f8788117e7eff1d82e926ec794901d17c78024a50270940304540a733656f0d60405160405180910390a45050565b60006200020f836001600160a01b03841662000218565b90505b92915050565b6000818152600183016020526040812054620002615750815460018181018455600084815260208082209093018490558454848252828601909352604090209190915562000212565b50600062000212565b828054620002789062000478565b90600052602060002090601f0160209004810192826200029c5760008555620002e7565b82601f10620002b757805160ff1916838001178555620002e7565b82800160010185558215620002e7579182015b82811115620002e7578251825591602001919060010190620002ca565b50620002f592915062000307565b5090565b6103768062001d8283390190565b5b80821115620002f5576000815560010162000308565b634e487b7160e01b600052604160045260246000fd5b600082601f8301126200034657600080fd5b81516001600160401b03808211156200036357620003636200031e565b604051601f8301601f19908116603f011681019082821181831017156200038e576200038e6200031e565b81604052838152602092508683858801011115620003ab57600080fd5b600091505b83821015620003cf5785820183015181830184015290820190620003b0565b83821115620003e15760008385830101525b9695505050505050565b6000806000606084860312156200040157600080fd5b83516001600160401b03808211156200041957600080fd5b620004278783880162000334565b945060208601519150808211156200043e57600080fd5b506200044d8682870162000334565b604086015190935090506001600160a01b03811681146200046d57600080fd5b809150509250925092565b600181811c908216806200048d57607f821691505b60208210811415620004af57634e487b7160e01b600052602260045260246000fd5b50919050565b6118bd80620004c56000396000f3fe608060405234801561001057600080fd5b50600436106101cf5760003560e01c80636b3e22fc116101045780639dc29fac116100a2578063ca15c87311610071578063ca15c873146103d9578063d5391393146103ec578063d547741f14610413578063dd62ed3e1461042657600080fd5b80639dc29fac14610398578063a217fddf146103ab578063a457c2d7146103b3578063a9059cbb146103c657600080fd5b80639010d07c116100de5780639010d07c1461035757806391d148541461036a5780639311ca691461037d57806395d89b411461039057600080fd5b80636b3e22fc1461031357806370a08231146103265780638a02775b1461034f57600080fd5b8063248a9ca3116101715780633287acee1161014b5780633287acee146102d257806333d57cdc146102e557806336568abe146102ed578063395093511461030057600080fd5b8063248a9ca31461028b5780632f2ff15d146102ae578063313ce567146102c357600080fd5b80630d4d1513116101ad5780630d4d15131461022457806316f0115b1461024557806318160ddd1461027057806323b872dd1461027857600080fd5b806301ffc9a7146101d457806306fdde03146101fc578063095ea7b314610211575b600080fd5b6101e76101e23660046114f2565b61045f565b60405190151581526020015b60405180910390f35b61020461048a565b6040516101f39190611548565b6101e761021f366004611597565b61051c565b6102376102323660046115c1565b610532565b6040519081526020016101f3565b600854610258906001600160a01b031681565b6040516001600160a01b0390911681526020016101f3565b600454610237565b6101e76102863660046115fd565b6105dd565b610237610299366004611639565b60009081526020819052604090206001015490565b6102c16102bc366004611652565b610687565b005b604051601281526020016101f3565b6102376102e0366004611639565b6106b2565b6102376106ff565b6102c16102fb366004611652565b610775565b6101e761030e366004611597565b6107f3565b610237610321366004611597565b61082f565b61023761033436600461167e565b6001600160a01b031660009081526002602052604090205490565b6102376108c8565b610258610365366004611699565b610936565b6101e7610378366004611652565b61094e565b600754610258906001600160a01b031681565b610204610977565b6102c16103a6366004611597565b610986565b610237600081565b6101e76103c1366004611597565b6109e0565b6101e76103d4366004611597565b610a79565b6102376103e7366004611639565b610a86565b6102377f9f2df0fed2c77648de5860a4cc508cd0818c85b8b8a1ab4ceeef8d981c8956a681565b6102c1610421366004611652565b610a9d565b6102376104343660046116bb565b6001600160a01b03918216600090815260036020908152604080832093909416825291909152205490565b60006001600160e01b03198216635a05180f60e01b1480610484575061048482610b5c565b92915050565b606060058054610499906116e5565b80601f01602080910402602001604051908101604052809291908181526020018280546104c5906116e5565b80156105125780601f106104e757610100808354040283529160200191610512565b820191906000526020600020905b8154815290600101906020018083116104f557829003601f168201915b5050505050905090565b6000610529338484610b91565b50600192915050565b600061055e7f9f2df0fed2c77648de5860a4cc508cd0818c85b8b8a1ab4ceeef8d981c8956a63361094e565b6105af5760405162461bcd60e51b815260206004820152601d60248201527f6d7573742068617665206d696e74657220726f6c6520746f206d696e7400000060448201526064015b60405180910390fd5b60006105bb838561082f565b905060006105c8826106b2565b90506105d48682610cb5565b95945050505050565b60006105ea848484610d94565b6001600160a01b03841660009081526003602090815260408083203384529091529020548281101561066f5760405162461bcd60e51b815260206004820152602860248201527f45524332303a207472616e7366657220616d6f756e74206578636565647320616044820152676c6c6f77616e636560c01b60648201526084016105a6565b61067c8533858403610b91565b506001949350505050565b6000828152602081905260409020600101546106a38133610f64565b6106ad8383610fc8565b505050565b6000806106bd6108c8565b90506106c860045490565b6106d3575090919050565b80836106de60045490565b6106e89190611730565b6106f2919061174f565b9392505050565b50919050565b60008061070b60045490565b116107495760405162461bcd60e51b815260206004820152600e60248201526d737570706c79206973207a65726f60901b60448201526064016105a6565b6004546107546108c8565b61076690670de0b6b3a7640000611730565b610770919061174f565b905090565b6001600160a01b03811633146107e55760405162461bcd60e51b815260206004820152602f60248201527f416363657373436f6e74726f6c3a2063616e206f6e6c792072656e6f756e636560448201526e103937b632b9903337b91039b2b63360891b60648201526084016105a6565b6107ef8282610fea565b5050565b3360008181526003602090815260408083206001600160a01b0387168452909152812054909161052991859061082a908690611771565b610b91565b6007546040516341976e0960e01b81526001600160a01b03848116600483015260009283929116906341976e0990602401602060405180830381865afa15801561087d573d6000803e3d6000fd5b505050506040513d601f19601f820116820180604052508101906108a19190611789565b9050670de0b6b3a76400006108b68483611730565b6108c0919061174f565b949350505050565b600854604080516375f4d67760e01b815290516000926001600160a01b0316916375f4d6779160048083019260209291908290030181865afa158015610912573d6000803e3d6000fd5b505050506040513d601f19601f820116820180604052508101906107709190611789565b60008281526001602052604081206106f2908361100c565b6000918252602082815260408084206001600160a01b0393909316845291905290205460ff1690565b606060068054610499906116e5565b600081116109d65760405162461bcd60e51b815260206004820181905260248201527f416d6f756e7420746f2072656465656d206e6565647320746f206265203e203060448201526064016105a6565b6107ef8282611018565b3360009081526003602090815260408083206001600160a01b038616845290915281205482811015610a625760405162461bcd60e51b815260206004820152602560248201527f45524332303a2064656372656173656420616c6c6f77616e63652062656c6f77604482015264207a65726f60d81b60648201526084016105a6565b610a6f3385858403610b91565b5060019392505050565b6000610529338484610d94565b600081815260016020526040812061048490611166565b600082815260208190526040902060010154610ab98133610f64565b6106ad8383610fea565b610acd828261094e565b6107ef576000828152602081815260408083206001600160a01b03851684529091529020805460ff19166001179055610b033390565b6001600160a01b0316816001600160a01b0316837f2f8788117e7eff1d82e926ec794901d17c78024a50270940304540a733656f0d60405160405180910390a45050565b60006106f2836001600160a01b038416611170565b60006001600160e01b03198216637965db0b60e01b148061048457506301ffc9a760e01b6001600160e01b0319831614610484565b6001600160a01b038316610bf35760405162461bcd60e51b8152602060048201526024808201527f45524332303a20617070726f76652066726f6d20746865207a65726f206164646044820152637265737360e01b60648201526084016105a6565b6001600160a01b038216610c545760405162461bcd60e51b815260206004820152602260248201527f45524332303a20617070726f766520746f20746865207a65726f206164647265604482015261737360f01b60648201526084016105a6565b6001600160a01b0383811660008181526003602090815260408083209487168084529482529182902085905590518481527f8c5be1e5ebec7d5bd14f71427d1e84f3dd0314c0f7b2291e5b200ac8c7c3b925910160405180910390a3505050565b6001600160a01b038216610d0b5760405162461bcd60e51b815260206004820152601f60248201527f45524332303a206d696e7420746f20746865207a65726f20616464726573730060448201526064016105a6565b8060046000828254610d1d9190611771565b90915550506001600160a01b03821660009081526002602052604081208054839290610d4a908490611771565b90915550506040518181526001600160a01b038316906000907fddf252ad1be2c89b69c2b068fc378daa952ba7f163c4a11628f55a4df523b3ef9060200160405180910390a35050565b6001600160a01b038316610df85760405162461bcd60e51b815260206004820152602560248201527f45524332303a207472616e736665722066726f6d20746865207a65726f206164604482015264647265737360d81b60648201526084016105a6565b6001600160a01b038216610e5a5760405162461bcd60e51b815260206004820152602360248201527f45524332303a207472616e7366657220746f20746865207a65726f206164647260448201526265737360e81b60648201526084016105a6565b6001600160a01b03831660009081526002602052604090205481811015610ed25760405162461bcd60e51b815260206004820152602660248201527f45524332303a207472616e7366657220616d6f756e7420657863656564732062604482015265616c616e636560d01b60648201526084016105a6565b6001600160a01b03808516600090815260026020526040808220858503905591851681529081208054849290610f09908490611771565b92505081905550826001600160a01b0316846001600160a01b03167fddf252ad1be2c89b69c2b068fc378daa952ba7f163c4a11628f55a4df523b3ef84604051610f5591815260200190565b60405180910390a35b50505050565b610f6e828261094e565b6107ef57610f86816001600160a01b031660146111bf565b610f918360206111bf565b604051602001610fa29291906117a2565b60408051601f198184030181529082905262461bcd60e51b82526105a691600401611548565b610fd28282610ac3565b60008281526001602052604090206106ad9082610b47565b610ff4828261135b565b60008281526001602052604090206106ad90826113c0565b60006106f283836113d5565b6001600160a01b0382166110785760405162461bcd60e51b815260206004820152602160248201527f45524332303a206275726e2066726f6d20746865207a65726f206164647265736044820152607360f81b60648201526084016105a6565b6001600160a01b038216600090815260026020526040902054818110156110ec5760405162461bcd60e51b815260206004820152602260248201527f45524332303a206275726e20616d6f756e7420657863656564732062616c616e604482015261636560f01b60648201526084016105a6565b6001600160a01b038316600090815260026020526040812083830390556004805484929061111b908490611817565b90915550506040518281526000906001600160a01b038516907fddf252ad1be2c89b69c2b068fc378daa952ba7f163c4a11628f55a4df523b3ef9060200160405180910390a3505050565b6000610484825490565b60008181526001830160205260408120546111b757508154600181810184556000848152602080822090930184905584548482528286019093526040902091909155610484565b506000610484565b606060006111ce836002611730565b6111d9906002611771565b67ffffffffffffffff8111156111f1576111f161182e565b6040519080825280601f01601f19166020018201604052801561121b576020820181803683370190505b509050600360fc1b8160008151811061123657611236611844565b60200101906001600160f81b031916908160001a905350600f60fb1b8160018151811061126557611265611844565b60200101906001600160f81b031916908160001a9053506000611289846002611730565b611294906001611771565b90505b600181111561130c576f181899199a1a9b1b9c1cb0b131b232b360811b85600f16601081106112c8576112c8611844565b1a60f81b8282815181106112de576112de611844565b60200101906001600160f81b031916908160001a90535060049490941c936113058161185a565b9050611297565b5083156106f25760405162461bcd60e51b815260206004820181905260248201527f537472696e67733a20686578206c656e67746820696e73756666696369656e7460448201526064016105a6565b611365828261094e565b156107ef576000828152602081815260408083206001600160a01b0385168085529252808320805460ff1916905551339285917ff6391f5c32d9c69d2a47ea670b442974b53935d1edc7fd64eb21e047a839171b9190a45050565b60006106f2836001600160a01b0384166113ff565b60008260000182815481106113ec576113ec611844565b9060005260206000200154905092915050565b600081815260018301602052604081205480156114e8576000611423600183611817565b855490915060009061143790600190611817565b905081811461149c57600086600001828154811061145757611457611844565b906000526020600020015490508087600001848154811061147a5761147a611844565b6000918252602080832090910192909255918252600188019052604090208390555b85548690806114ad576114ad611871565b600190038181906000526020600020016000905590558560010160008681526020019081526020016000206000905560019350505050610484565b6000915050610484565b60006020828403121561150457600080fd5b81356001600160e01b0319811681146106f257600080fd5b60005b8381101561153757818101518382015260200161151f565b83811115610f5e5750506000910152565b602081526000825180602084015261156781604085016020870161151c565b601f01601f19169190910160400192915050565b80356001600160a01b038116811461159257600080fd5b919050565b600080604083850312156115aa57600080fd5b6115b38361157b565b946020939093013593505050565b6000806000606084860312156115d657600080fd5b6115df8461157b565b9250602084013591506115f46040850161157b565b90509250925092565b60008060006060848603121561161257600080fd5b61161b8461157b565b92506116296020850161157b565b9150604084013590509250925092565b60006020828403121561164b57600080fd5b5035919050565b6000806040838503121561166557600080fd5b823591506116756020840161157b565b90509250929050565b60006020828403121561169057600080fd5b6106f28261157b565b600080604083850312156116ac57600080fd5b50508035926020909101359150565b600080604083850312156116ce57600080fd5b6116d78361157b565b91506116756020840161157b565b600181811c908216806116f957607f821691505b602082108114156106f957634e487b7160e01b600052602260045260246000fd5b634e487b7160e01b600052601160045260246000fd5b600081600019048311821515161561174a5761174a61171a565b500290565b60008261176c57634e487b7160e01b600052601260045260246000fd5b500490565b600082198211156117845761178461171a565b500190565b60006020828403121561179b57600080fd5b5051919050565b7f416363657373436f6e74726f6c3a206163636f756e74200000000000000000008152600083516117da81601785016020880161151c565b7001034b99036b4b9b9b4b733903937b6329607d1b601791840191820152835161180b81602884016020880161151c565b01602801949350505050565b6000828210156118295761182961171a565b500390565b634e487b7160e01b600052604160045260246000fd5b634e487b7160e01b600052603260045260246000fd5b6000816118695761186961171a565b506000190190565b634e487b7160e01b600052603160045260246000fdfea26469706673582212200240bb89e6fb89b7eec05add0dd80f4a736f424160a0c51c1e0c711130bbcc8764736f6c634300080b0033608060405234801561001057600080fd5b50600060208190527f4e2753d238f0f4cb8962490717ab551b4c023808c7bc37aed6e8760bfc3a92d580546001600160a01b031990811673d8bd0a1cb028a31aa859a21a3758685a95de462317909155735592ec0cfb4dbc12d3ab100b257153436a1f0fea9091527ff4e9730789baae4355b7b087afa1a57a24c222e690ce50ce909b525e8495925b8054909116732ba49aaa16e6afd2a993473cfb70fa8559b523cf1790556102b1806100c56000396000f3fe608060405234801561001057600080fd5b50600436106100365760003560e01c806341976e091461003b5780634238dc4714610061575b600080fd5b61004e610049366004610141565b6100a2565b6040519081526020015b60405180910390f35b61008a61006f366004610141565b6000602081905290815260409020546001600160a01b031681565b6040516001600160a01b039091168152602001610058565b6001600160a01b03808216600090815260208190526040808220548151633fabe5a360e21b81529151929316918391839163feaf968c9160048082019260a0929091908290030181865afa1580156100fe573d6000803e3d6000fd5b505050506040513d601f19601f820116820180604052508101906101229190610190565b505050915050806402540be40061013991906101f6565b949350505050565b60006020828403121561015357600080fd5b81356001600160a01b038116811461016a57600080fd5b9392505050565b805169ffffffffffffffffffff8116811461018b57600080fd5b919050565b600080600080600060a086880312156101a857600080fd5b6101b186610171565b94506020860151935060408601519250606086015191506101d460808701610171565b90509295509295909350565b634e487b7160e01b600052601160045260246000fd5b60006001600160ff1b038184138284138082168684048611161561021c5761021c6101e0565b600160ff1b600087128281168783058912161561023b5761023b6101e0565b60008712925087820587128484161615610257576102576101e0565b8785058712818416161561026d5761026d6101e0565b50505092909302939250505056fea264697066735822122072c48f6e00c5a52cb863487a9419bc6a66d0f63d77321e88f47fe70ef4f6aac064736f6c634300080b00336080604052600260015534801561001557600080fd5b50604051610e04380380610e0483398101604081905261003491610130565b600680546001600160a01b038085166001600160a01b031992831617909255600780549284169290911691909117905560405161007090610107565b604051809103906000f08015801561008c573d6000803e3d6000fd5b50600080546001600160a01b0319166001600160a01b0392909216919091178155600260018190556040805160208082019092528381527301be23585060835e02b77ef475b0cc51aa1e070990935252517fed3674b09469bf4c18c58b5c17b6619c2db43f90b5389a6501b1af546f40b64a55506101639050565b61037680610a8e83390190565b80516001600160a01b038116811461012b57600080fd5b919050565b6000806040838503121561014357600080fd5b61014c83610114565b915061015a60208401610114565b90509250929050565b61091c806101726000396000f3fe608060405234801561001057600080fd5b506004361061009e5760003560e01c80639311ca69116100665780639311ca691461014b578063a347e24c1461015e578063f8b2cb4f14610187578063f970c3b71461019a578063fc0c546a146101ad57600080fd5b806309404954146100a357806316f0115b146100bf5780632b92a07d146100ea5780637544aa44146101235780638eabd4fe14610136575b600080fd5b6100ac60015481565b6040519081526020015b60405180910390f35b6006546100d2906001600160a01b031681565b6040516001600160a01b0390911681526020016100b6565b6100ac6100f8366004610701565b6001600160a01b03918216600090815260036020908152604080832093909416825291909152205490565b6100ac610131366004610734565b6101c0565b610149610144366004610767565b61030a565b005b6000546100d2906001600160a01b031681565b6100ac61016c366004610734565b6001600160a01b031660009081526002602052604090205490565b6100ac610195366004610734565b610508565b6101496101a83660046107b6565b610579565b6007546100d2906001600160a01b031681565b6005546000908190815b818161ffff1610156103015760005460058054670de0b6b3a7640000926001600160a01b0316916341976e099161ffff861690811061020b5761020b6107f2565b60009182526020909120015460405160e083901b6001600160e01b03191681526001600160a01b039091166004820152602401602060405180830381865afa15801561025b573d6000803e3d6000fd5b505050506040513d601f19601f8201168201806040525081019061027f9190610808565b6003600060058561ffff168154811061029a5761029a6107f2565b60009182526020808320909101546001600160a01b0390811684528382019490945260409283018220938b168252929092529020546102d99190610837565b6102e39190610856565b6102ed9084610878565b9250806102f981610890565b9150506101ca565b50909392505050565b600181151514156103fe5760065460405163095ea7b360e01b81526001600160a01b039182166004820152602481018490529084169063095ea7b3906044016020604051808303816000875af1158015610368573d6000803e3d6000fd5b505050506040513d601f19601f8201168201806040525081019061038c91906108b2565b50600654604051631740ecaf60e11b81523060048201526001600160a01b0385811660248301526044820185905290911690632e81d95e90606401600060405180830381600087803b1580156103e157600080fd5b505af11580156103f5573d6000803e3d6000fd5b50505050610473565b60405163a9059cbb60e01b81526001600160a01b0385811660048301526024820184905284169063a9059cbb906044016020604051808303816000875af115801561044d573d6000803e3d6000fd5b505050506040513d601f19601f8201168201806040525081019061047191906108b2565b505b6001600160a01b038084166000908152600360209081526040808320938816835292905290812080548492906104aa9084906108cf565b90915550506001600160a01b03808416600090815260036020908152604080832093881683529290522054610502576001600160a01b0380841660009081526003602090815260408083209388168352929052908120555b50505050565b6040516370a0823160e01b81523060048201526000906001600160a01b038316906370a0823190602401602060405180830381865afa15801561054f573d6000803e3d6000fd5b505050506040513d601f19601f820116820180604052508101906105739190610808565b92915050565b6040516323b872dd60e01b81526001600160a01b038481166004830152306024830152604482018390528316906323b872dd906064016020604051808303816000875af11580156105ce573d6000803e3d6000fd5b505050506040513d601f19601f820116820180604052508101906105f291906108b2565b506001600160a01b0382166000908152600260205260408120805483929061061b908490610878565b90915550506001600160a01b03808316600090815260036020908152604080832093871683529290529081208054839290610657908490610878565b90915550506001600160a01b03821660009081526004602052604090205460ff166106e0576005805460018082019092557f036b6384b5eca791c62761152d0c79bb0604c104a5fb6f4eb0703f3154bb3db00180546001600160a01b0319166001600160a01b0385169081179091556000908152600460205260409020805460ff191690911790555b505050565b80356001600160a01b03811681146106fc57600080fd5b919050565b6000806040838503121561071457600080fd5b61071d836106e5565b915061072b602084016106e5565b90509250929050565b60006020828403121561074657600080fd5b61074f826106e5565b9392505050565b801515811461076457600080fd5b50565b6000806000806080858703121561077d57600080fd5b610786856106e5565b9350610794602086016106e5565b92506040850135915060608501356107ab81610756565b939692955090935050565b6000806000606084860312156107cb57600080fd5b6107d4846106e5565b92506107e2602085016106e5565b9150604084013590509250925092565b634e487b7160e01b600052603260045260246000fd5b60006020828403121561081a57600080fd5b5051919050565b634e487b7160e01b600052601160045260246000fd5b600081600019048311821515161561085157610851610821565b500290565b60008261087357634e487b7160e01b600052601260045260246000fd5b500490565b6000821982111561088b5761088b610821565b500190565b600061ffff808316818114156108a8576108a8610821565b6001019392505050565b6000602082840312156108c457600080fd5b815161074f81610756565b6000828210156108e1576108e1610821565b50039056fea26469706673582212207041e245dbcf26ef8990af59826ad67bf64ace581c4333940bc70dec7c26015764736f6c634300080b0033608060405234801561001057600080fd5b50600060208190527f4e2753d238f0f4cb8962490717ab551b4c023808c7bc37aed6e8760bfc3a92d580546001600160a01b031990811673d8bd0a1cb028a31aa859a21a3758685a95de462317909155735592ec0cfb4dbc12d3ab100b257153436a1f0fea9091527ff4e9730789baae4355b7b087afa1a57a24c222e690ce50ce909b525e8495925b8054909116732ba49aaa16e6afd2a993473cfb70fa8559b523cf1790556102b1806100c56000396000f3fe608060405234801561001057600080fd5b50600436106100365760003560e01c806341976e091461003b5780634238dc4714610061575b600080fd5b61004e610049366004610141565b6100a2565b6040519081526020015b60405180910390f35b61008a61006f366004610141565b6000602081905290815260409020546001600160a01b031681565b6040516001600160a01b039091168152602001610058565b6001600160a01b03808216600090815260208190526040808220548151633fabe5a360e21b81529151929316918391839163feaf968c9160048082019260a0929091908290030181865afa1580156100fe573d6000803e3d6000fd5b505050506040513d601f19601f820116820180604052508101906101229190610190565b505050915050806402540be40061013991906101f6565b949350505050565b60006020828403121561015357600080fd5b81356001600160a01b038116811461016a57600080fd5b9392505050565b805169ffffffffffffffffffff8116811461018b57600080fd5b919050565b600080600080600060a086880312156101a857600080fd5b6101b186610171565b94506020860151935060408601519250606086015191506101d460808701610171565b90509295509295909350565b634e487b7160e01b600052601160045260246000fd5b60006001600160ff1b038184138284138082168684048611161561021c5761021c6101e0565b600160ff1b600087128281168783058912161561023b5761023b6101e0565b60008712925087820587128484161615610257576102576101e0565b8785058712818416161561026d5761026d6101e0565b50505092909302939250505056fea264697066735822122072c48f6e00c5a52cb863487a9419bc6a66d0f63d77321e88f47fe70ef4f6aac064736f6c634300080b0033608060405234801561001057600080fd5b50600060208190527f4e2753d238f0f4cb8962490717ab551b4c023808c7bc37aed6e8760bfc3a92d580546001600160a01b031990811673d8bd0a1cb028a31aa859a21a3758685a95de462317909155735592ec0cfb4dbc12d3ab100b257153436a1f0fea9091527ff4e9730789baae4355b7b087afa1a57a24c222e690ce50ce909b525e8495925b8054909116732ba49aaa16e6afd2a993473cfb70fa8559b523cf1790556102b1806100c56000396000f3fe608060405234801561001057600080fd5b50600436106100365760003560e01c806341976e091461003b5780634238dc4714610061575b600080fd5b61004e610049366004610141565b6100a2565b6040519081526020015b60405180910390f35b61008a61006f366004610141565b6000602081905290815260409020546001600160a01b031681565b6040516001600160a01b039091168152602001610058565b6001600160a01b03808216600090815260208190526040808220548151633fabe5a360e21b81529151929316918391839163feaf968c9160048082019260a0929091908290030181865afa1580156100fe573d6000803e3d6000fd5b505050506040513d601f19601f820116820180604052508101906101229190610190565b505050915050806402540be40061013991906101f6565b949350505050565b60006020828403121561015357600080fd5b81356001600160a01b038116811461016a57600080fd5b9392505050565b805169ffffffffffffffffffff8116811461018b57600080fd5b919050565b600080600080600060a086880312156101a857600080fd5b6101b186610171565b94506020860151935060408601519250606086015191506101d460808701610171565b90509295509295909350565b634e487b7160e01b600052601160045260246000fd5b60006001600160ff1b038184138284138082168684048611161561021c5761021c6101e0565b600160ff1b600087128281168783058912161561023b5761023b6101e0565b60008712925087820587128484161615610257576102576101e0565b8785058712818416161561026d5761026d6101e0565b50505092909302939250505056fea264697066735822122072c48f6e00c5a52cb863487a9419bc6a66d0f63d77321e88f47fe70ef4f6aac064736f6c634300080b0033","bytecodeSha1":"04ae29ff930a20e5b92e95371bfb8aeb0ed058d4","type":"contract","abi":[{"inputs":[],"stateMutability":"nonpayable","type":"constructor","name":"constructor"},{"anonymous":false,"inputs":[{"indexed":false,"internalType":"address","name":"_user","type":"address"},{"indexed":false,"internalType":"uint256","name":"_borrowed","type":"uint256"},{"indexed":false,"internalType":"address","name":"_borrowedAsset","type":"address"},{"indexed":false,"internalType":"uint256","name":"_collateral","type":"uint256"},{"indexed":false,"internalType":"address","name":"_collateralAsset","type":"address"}],"name":"borrowEvent","type":"event"},{"anonymous":false,"inputs":[{"indexed":false,"internalType":"address","name":"_user","type":"address"},{"indexed":false,"internalType":"uint256","name":"_quantity","type":"uint256"},{"indexed":false,"internalType":"address","name":"_asset","type":"address"}],"name":"depositEvent","type":"event"},{"inputs":[{"internalType":"uint256","name":"_borrowQuantity","type":"uint256"},{"internalType":"address","name":"_asset","type":"address"},{"internalType":"uint256","name":"_collateralQuantity","type":"uint256"},{"internalType":"address","name":"_collateral","type":"address"}],"name":"Borrow","outputs":[],"stateMutability":"nonpayable","type":"function"},{"inputs":[{"internalType":"uint256","name":"_quantity","type":"uint256"},{"internalType":"address","name":"_asset","type":"address"}],"name":"Deposit","outputs":[],"stateMutability":"nonpayable","type":"function"},{"inputs":[{"internalType":"address","name":"_asset","type":"address"},{"internalType":"uint256","name":"_repayQuantity","type":"uint256"}],"name":"Repay","outputs":[],"stateMutability":"nonpayable","type":"function"},{"inputs":[{"internalType":"address","name":"_desiredAsset","type":"address"},{"internalType":"uint256","name":"_tokenQuantity","type":"uint256"}],"name":"Withdraw","outputs":[],"stateMutability":"nonpayable","type":"function"},{"inputs":[],"name":"accrueInterest","outputs":[],"stateMutability":"nonpayable","type":"function"},{"inputs":[{"internalType":"address","name":"","type":"address"},{"internalType":"address","name":"","type":"address"}],"name":"borrowTracker","outputs":[{"internalType":"uint256","name":"principal","type":"uint256"},{"internalType":"uint256","name":"interest","type":"uint256"}],"stateMutability":"view","type":"function"},{"inputs":[{"internalType":"uint256","name":"","type":"uint256"}],"name":"borrowerAddresses","outputs":[{"internalType":"address","name":"","type":"address"}],"stateMutability":"view","type":"function"},{"inputs":[],"name":"collateral","outputs":[{"internalType":"contract Collateral","name":"","type":"address"}],"stateMutability":"view","type":"function"},{"inputs":[],"name":"conversion","outputs":[{"internalType":"contract Conversion","name":"","type":"address"}],"stateMutability":"view","type":"function"},{"inputs":[{"internalType":"address","name":"_user","type":"address"}],"name":"getBalanceOf","outputs":[{"internalType":"uint256","name":"","type":"uint256"}],"stateMutability":"view","type":"function"},{"inputs":[],"name":"getCollAddr","outputs":[{"internalType":"address","name":"","type":"address"}],"stateMutability":"view","type":"function"},{"inputs":[{"internalType":"address","name":"_token","type":"address"}],"name":"getCollBalance","outputs":[{"internalType":"uint256","name":"","type":"uint256"}],"stateMutability":"view","type":"function"},{"inputs":[{"internalType":"address","name":"_user","type":"address"}],"name":"getCollateralValue","outputs":[{"internalType":"uint256","name":"","type":"uint256"}],"stateMutability":"view","type":"function"},{"inputs":[{"internalType":"address","name":"_asset","type":"address"}],"name":"getInterestRate","outputs":[{"internalType":"uint256","name":"","type":"uint256"}],"stateMutability":"view","type":"function"},{"inputs":[{"internalType":"address","name":"_token","type":"address"}],"name":"getLiquidPct","outputs":[{"internalType":"uint256","name":"","type":"uint256"}],"stateMutability":"view","type":"function"},{"inputs":[{"internalType":"address","name":"_token","type":"address"}],"name":"getLiquidity","outputs":[{"internalType":"uint256","name":"","type":"uint256"}],"stateMutability":"view","type":"function"},{"inputs":[{"internalType":"address","name":"_token","type":"address"}],"name":"getLockedCollateral","outputs":[{"internalType":"uint256","name":"","type":"uint256"}],"stateMutability":"view","type":"function"},{"inputs":[{"internalType":"address","name":"_user","type":"address"},{"internalType":"address","name":"_asset","type":"address"}],"name":"getOutstandingLoan","outputs":[{"internalType":"uint256","name":"","type":"uint256"}],"stateMutability":"view","type":"function"},{"inputs":[],"name":"getPoolAddr","outputs":[{"internalType":"address","name":"","type":"address"}],"stateMutability":"view","type":"function"},{"inputs":[{"internalType":"address","name":"_token","type":"address"}],"name":"getPoolBalance","outputs":[{"internalType":"uint256","name":"","type":"uint256"}],"stateMutability":"view","type":"function"},{"inputs":[],"name":"getPoolValue","outputs":[{"internalType":"uint256","name":"","type":"uint256"}],"stateMutability":"view","type":"function"},{"inputs":[],"name":"getTokenAddr","outputs":[{"internalType":"address","name":"","type":"address"}],"stateMutability":"view","type":"function"},{"inputs":[],"name":"getTokenDollarValue","outputs":[{"internalType":"uint256","name":"","type":"uint256"}],"stateMutability":"view","type":"function"},{"inputs":[],"name":"getTotalSupply","outputs":[{"internalType":"uint256","name":"","type":"uint256"}],"stateMutability":"view","type":"function"},{"inputs":[{"internalType":"address","name":"_user","type":"address"},{"internalType":"address","name":"_asset","type":"address"}],"name":"getUserCollateral","outputs":[{"internalType":"uint256","name":"","type":"uint256"}],"stateMutability":"view","type":"function"},{"inputs":[{"internalType":"uint256","name":"a","type":"uint256"},{"internalType":"uint256","name":"b","type":"uint256"}],"name":"minimum","outputs":[{"internalType":"uint256","name":"","type":"uint256"}],"stateMutability":"pure","type":"function"},{"inputs":[],"name":"offerCollateralAssets","outputs":[],"stateMutability":"nonpayable","type":"function"},{"inputs":[],"name":"payoutInterest","outputs":[],"stateMutability":"nonpayable","type":"function"},{"inputs":[],"name":"pool","outputs":[{"internalType":"contract Pool","name":"","type":"address"}],"stateMutability":"view","type":"function"},{"inputs":[{"internalType":"address","name":"_user","type":"address"},{"internalType":"address","name":"_asset","type":"address"}],"name":"quantityBorrowed","outputs":[{"internalType":"uint256","name":"","type":"uint256"}],"stateMutability":"view","type":"function"},{"inputs":[],"name":"token","outputs":[{"internalType":"contract LVRToken","name":"","type":"address"}],"stateMutability":"view","type":"function"},{"inputs":[{"internalType":"address","name":"_borrower","type":"address"}],"name":"totalValueBorrowed","outputs":[{"internalType":"uint256","name":"","type":"uint256"}],"stateMutability":"view","type":"function"},{"inputs":[{"internalType":"address","name":"_asset","type":"address"},{"internalType":"uint256","name":"_quantity","type":"uint256"},{"internalType":"bool","name":"_toPool","type":"bool"}],"name":"unlockCollateral","outputs":[],"stateMutability":"nonpayable","type":"function"}],"compiler":{"version":"0.8.11+commit.d7f03943","evm_version":"istanbul","optimizer":{"enabled":true,"runs":200}},"contractName":"LendingPool","language":"Solidity","natspec":{"methods":{},"kind":"dev","version":1},"opcodes":"PUSH1 0x80 PUSH1 0x40 MSTORE CALLVALUE DUP1 ISZERO PUSH2 0x10 JUMPI PUSH1 0x0 DUP1 REVERT JUMPDEST POP PUSH1 0x4 CALLDATASIZE LT PUSH2 0x1FB JUMPI PUSH1 0x0 CALLDATALOAD PUSH1 0xE0 SHR DUP1 PUSH4 0x97904E42 GT PUSH2 0x11A JUMPI DUP1 PUSH4 0xD28682EA GT PUSH2 0xAD JUMPI DUP1 PUSH4 0xDD2D2A12 GT PUSH2 0x7C JUMPI DUP1 PUSH4 0xDD2D2A12 EQ PUSH2 0x448 JUMPI DUP1 PUSH4 0xDE259242 EQ PUSH2 0x45B JUMPI DUP1 PUSH4 0xDE30F97D EQ PUSH2 0x46C JUMPI DUP1 PUSH4 0xF2DF757B EQ PUSH2 0x47F JUMPI DUP1 PUSH4 0xFC0C546A EQ PUSH2 0x492 JUMPI PUSH1 0x0 DUP1 REVERT JUMPDEST DUP1 PUSH4 0xD28682EA EQ PUSH2 0x3FC JUMPI DUP1 PUSH4 0xD3EA0F89 EQ PUSH2 0x40F JUMPI DUP1 PUSH4 0xD49AB22C EQ PUSH2 0x422 JUMPI DUP1 PUSH4 0xD8DFEB45 EQ PUSH2 0x435 JUMPI PUSH1 0x0 DUP1 REVERT JUMPDEST DUP1 PUSH4 0xA747B93B GT PUSH2 0xE9 JUMPI DUP1 PUSH4 0xA747B93B EQ PUSH2 0x3BB JUMPI DUP1 PUSH4 0xA78E4046 EQ PUSH2 0x3CE JUMPI DUP1 PUSH4 0xB9E037E6 EQ PUSH2 0x3E1 JUMPI DUP1 PUSH4 0xC4E41B22 EQ PUSH2 0x3F4 JUMPI PUSH1 0x0 DUP1 REVERT JUMPDEST DUP1 PUSH4 0x97904E42 EQ PUSH2 0x37A JUMPI DUP1 PUSH4 0x9B96EECE EQ PUSH2 0x38D JUMPI DUP1 PUSH4 0xA55E8668 EQ PUSH2 0x3A0 JUMPI DUP1 PUSH4 0xA6AFED95 EQ PUSH2 0x3B3 JUMPI PUSH1 0x0 DUP1 REVERT JUMPDEST DUP1 PUSH4 0x582B2720 GT PUSH2 0x192 JUMPI DUP1 PUSH4 0x6DB18093 GT PUSH2 0x161 JUMPI DUP1 PUSH4 0x6DB18093 EQ PUSH2 0x339 JUMPI DUP1 PUSH4 0x884EDAD9 EQ PUSH2 0x341 JUMPI DUP1 PUSH4 0x8E6030E2 EQ PUSH2 0x354 JUMPI DUP1 PUSH4 0x9311CA69 EQ PUSH2 0x367 JUMPI PUSH1 0x0 DUP1 REVERT JUMPDEST DUP1 PUSH4 0x582B2720 EQ PUSH2 0x2BD JUMPI DUP1 PUSH4 0x5C16DE4F EQ PUSH2 0x2CE JUMPI DUP1 PUSH4 0x63E36DAC EQ PUSH2 0x2E1 JUMPI DUP1 PUSH4 0x6AAA434E EQ PUSH2 0x2F2 JUMPI PUSH1 0x0 DUP1 REVERT JUMPDEST DUP1 PUSH4 0x2273323F GT PUSH2 0x1CE JUMPI DUP1 PUSH4 0x2273323F EQ PUSH2 0x295 JUMPI DUP1 PUSH4 0x243D8E05 EQ PUSH2 0x295 JUMPI DUP1 PUSH4 0x46C928FC EQ PUSH2 0x297 JUMPI DUP1 PUSH4 0x4BCC1709 EQ PUSH2 0x2AA JUMPI PUSH1 0x0 DUP1 REVERT JUMPDEST DUP1 PUSH4 0x57393C0 EQ PUSH2 0x200 JUMPI DUP1 PUSH4 0x157A7D7D EQ PUSH2 0x226 JUMPI DUP1 PUSH4 0x16F0115B EQ PUSH2 0x262 JUMPI DUP1 PUSH4 0x1BA2F531 EQ PUSH2 0x28D JUMPI JUMPDEST PUSH1 0x0 DUP1 REVERT JUMPDEST PUSH2 0x213 PUSH2 0x20E CALLDATASIZE PUSH1 0x4 PUSH2 0x1D0D JUMP JUMPDEST PUSH2 0x4A5 JUMP JUMPDEST PUSH1 0x40 MLOAD SWAP1 DUP2 MSTORE PUSH1 0x20 ADD JUMPDEST PUSH1 0x40 MLOAD DUP1 SWAP2 SUB SWAP1 RETURN JUMPDEST PUSH2 0x213 PUSH2 0x234 CALLDATASIZE PUSH1 0x4 PUSH2 0x1D28 JUMP JUMPDEST PUSH1 0x1 PUSH1 0x1 PUSH1 0xA0 SHL SUB SWAP2 DUP3 AND PUSH1 0x0 SWAP1 DUP2 MSTORE PUSH1 0x9 PUSH1 0x20 SWAP1 DUP2 MSTORE PUSH1 0x40 DUP1 DUP4 KECCAK256 SWAP4 SWAP1 SWAP5 AND DUP3 MSTORE SWAP2 SWAP1 SWAP2 MSTORE KECCAK256 PUSH1 0x1 ADD SLOAD SWAP1 JUMP JUMPDEST PUSH1 0x1 SLOAD PUSH2 0x275 SWAP1 PUSH1 0x1 PUSH1 0x1 PUSH1 0xA0 SHL SUB AND DUP2 JUMP JUMPDEST PUSH1 0x40 MLOAD PUSH1 0x1 PUSH1 0x1 PUSH1 0xA0 SHL SUB SWAP1 SWAP2 AND DUP2 MSTORE PUSH1 0x20 ADD PUSH2 0x21D JUMP JUMPDEST PUSH2 0x213 PUSH2 0x51B JUMP JUMPDEST STOP JUMPDEST PUSH2 0x295 PUSH2 0x2A5 CALLDATASIZE PUSH1 0x4 PUSH2 0x1D5B JUMP JUMPDEST PUSH2 0x599 JUMP JUMPDEST PUSH2 0x295 PUSH2 0x2B8 CALLDATASIZE PUSH1 0x4 PUSH2 0x1DA1 JUMP JUMPDEST PUSH2 0xA4C JUMP JUMPDEST PUSH1 0x4 SLOAD PUSH1 0x1 PUSH1 0x1 PUSH1 0xA0 SHL SUB AND PUSH2 0x275 JUMP JUMPDEST PUSH2 0x295 PUSH2 0x2DC CALLDATASIZE PUSH1 0x4 PUSH2 0x1DC4 JUMP JUMPDEST PUSH2 0xBB2 JUMP JUMPDEST PUSH1 0x2 SLOAD PUSH1 0x1 PUSH1 0x1 PUSH1 0xA0 SHL SUB AND PUSH2 0x275 JUMP JUMPDEST PUSH2 0x324 PUSH2 0x300 CALLDATASIZE PUSH1 0x4 PUSH2 0x1D28 JUMP JUMPDEST PUSH1 0x9 PUSH1 0x20 SWAP1 DUP2 MSTORE PUSH1 0x0 SWAP3 DUP4 MSTORE PUSH1 0x40 DUP1 DUP5 KECCAK256 SWAP1 SWAP2 MSTORE SWAP1 DUP3 MSTORE SWAP1 KECCAK256 DUP1 SLOAD PUSH1 0x1 SWAP1 SWAP2 ADD SLOAD DUP3 JUMP JUMPDEST PUSH1 0x40 DUP1 MLOAD SWAP3 DUP4 MSTORE PUSH1 0x20 DUP4 ADD SWAP2 SWAP1 SWAP2 MSTORE ADD PUSH2 0x21D JUMP JUMPDEST PUSH2 0x213 PUSH2 0xE08 JUMP JUMPDEST PUSH2 0x295 PUSH2 0x34F CALLDATASIZE PUSH1 0x4 PUSH2 0x1DC4 JUMP JUMPDEST PUSH2 0xE5D JUMP JUMPDEST PUSH2 0x275 PUSH2 0x362 CALLDATASIZE PUSH1 0x4 PUSH2 0x1DEE JUMP JUMPDEST PUSH2 0x1223 JUMP JUMPDEST PUSH1 0x0 SLOAD PUSH2 0x275 SWAP1 PUSH1 0x1 PUSH1 0x1 PUSH1 0xA0 SHL SUB AND DUP2 JUMP JUMPDEST PUSH2 0x213 PUSH2 0x388 CALLDATASIZE PUSH1 0x4 PUSH2 0x1D0D JUMP JUMPDEST PUSH2 0x124D JUMP JUMPDEST PUSH2 0x213 PUSH2 0x39B CALLDATASIZE PUSH1 0x4 PUSH2 0x1D0D JUMP JUMPDEST PUSH2 0x1280 JUMP JUMPDEST PUSH2 0x213 PUSH2 0x3AE CALLDATASIZE PUSH1 0x4 PUSH2 0x1D28 JUMP JUMPDEST PUSH2 0x12B8 JUMP JUMPDEST PUSH2 0x295 PUSH2 0x1336 JUMP JUMPDEST PUSH2 0x213 PUSH2 0x3C9 CALLDATASIZE PUSH1 0x4 PUSH2 0x1D0D JUMP JUMPDEST PUSH2 0x1565 JUMP JUMPDEST PUSH2 0x213 PUSH2 0x3DC CALLDATASIZE PUSH1 0x4 PUSH2 0x1D28 JUMP JUMPDEST PUSH2 0x1598 JUMP JUMPDEST PUSH2 0x295 PUSH2 0x3EF CALLDATASIZE PUSH1 0x4 PUSH2 0x1E07 JUMP JUMPDEST PUSH2 0x15D0 JUMP JUMPDEST PUSH2 0x213 PUSH2 0x19CF JUMP JUMPDEST PUSH2 0x213 PUSH2 0x40A CALLDATASIZE PUSH1 0x4 PUSH2 0x1D0D JUMP JUMPDEST PUSH2 0x1A24 JUMP JUMPDEST PUSH2 0x213 PUSH2 0x41D CALLDATASIZE PUSH1 0x4 PUSH2 0x1D0D JUMP JUMPDEST PUSH2 0x1A57 JUMP JUMPDEST PUSH2 0x213 PUSH2 0x430 CALLDATASIZE PUSH1 0x4 PUSH2 0x1D0D JUMP JUMPDEST PUSH2 0x1A8A JUMP JUMPDEST PUSH1 0x2 SLOAD PUSH2 0x275 SWAP1 PUSH1 0x1 PUSH1 0x1 PUSH1 0xA0 SHL SUB AND DUP2 JUMP JUMPDEST PUSH2 0x213 PUSH2 0x456 CALLDATASIZE PUSH1 0x4 PUSH2 0x1E4C JUMP JUMPDEST PUSH2 0x1ABD JUMP JUMPDEST PUSH1 0x1 SLOAD PUSH1 0x1 PUSH1 0x1 PUSH1 0xA0 SHL SUB AND PUSH2 0x275 JUMP JUMPDEST PUSH2 0x213 PUSH2 0x47A CALLDATASIZE PUSH1 0x4 PUSH2 0x1D0D JUMP JUMPDEST PUSH2 0x1AC9 JUMP JUMPDEST PUSH2 0x213 PUSH2 0x48D CALLDATASIZE PUSH1 0x4 PUSH2 0x1D0D JUMP JUMPDEST PUSH2 0x1AFC JUMP JUMPDEST PUSH1 0x4 SLOAD PUSH2 0x275 SWAP1 PUSH1 0x1 PUSH1 0x1 PUSH1 0xA0 SHL SUB AND DUP2 JUMP JUMPDEST PUSH1 0x2 SLOAD PUSH1 0x40 MLOAD PUSH4 0xF8B2CB4F PUSH1 0xE0 SHL DUP2 MSTORE PUSH1 0x1 PUSH1 0x1 PUSH1 0xA0 SHL SUB DUP4 DUP2 AND PUSH1 0x4 DUP4 ADD MSTORE PUSH1 0x0 SWAP3 AND SWAP1 PUSH4 0xF8B2CB4F SWAP1 PUSH1 0x24 ADD JUMPDEST PUSH1 0x20 PUSH1 0x40 MLOAD DUP1 DUP4 SUB DUP2 DUP7 GAS STATICCALL ISZERO DUP1 ISZERO PUSH2 0x4F1 JUMPI RETURNDATASIZE PUSH1 0x0 DUP1 RETURNDATACOPY RETURNDATASIZE PUSH1 0x0 REVERT JUMPDEST POP POP POP POP PUSH1 0x40 MLOAD RETURNDATASIZE PUSH1 0x1F NOT PUSH1 0x1F DUP3 ADD AND DUP3 ADD DUP1 PUSH1 0x40 MSTORE POP DUP2 ADD SWAP1 PUSH2 0x515 SWAP2 SWAP1 PUSH2 0x1E6E JUMP JUMPDEST SWAP3 SWAP2 POP POP JUMP JUMPDEST PUSH1 0x0 PUSH1 0x4 PUSH1 0x0 SWAP1 SLOAD SWAP1 PUSH2 0x100 EXP SWAP1 DIV PUSH1 0x1 PUSH1 0x1 PUSH1 0xA0 SHL SUB AND PUSH1 0x1 PUSH1 0x1 PUSH1 0xA0 SHL SUB AND PUSH4 0x8A02775B PUSH1 0x40 MLOAD DUP2 PUSH4 0xFFFFFFFF AND PUSH1 0xE0 SHL DUP2 MSTORE PUSH1 0x4 ADD PUSH1 0x20 PUSH1 0x40 MLOAD DUP1 DUP4 SUB DUP2 DUP7 GAS STATICCALL ISZERO DUP1 ISZERO PUSH2 0x570 JUMPI RETURNDATASIZE PUSH1 0x0 DUP1 RETURNDATACOPY RETURNDATASIZE PUSH1 0x0 REVERT JUMPDEST POP POP POP POP PUSH1 0x40 MLOAD RETURNDATASIZE PUSH1 0x1F NOT PUSH1 0x1F DUP3 ADD AND DUP3 ADD DUP1 PUSH1 0x40 MSTORE POP DUP2 ADD SWAP1 PUSH2 0x594 SWAP2 SWAP1 PUSH2 0x1E6E JUMP JUMPDEST SWAP1 POP SWAP1 JUMP JUMPDEST PUSH1 0x2 SLOAD PUSH1 0x40 MLOAD PUSH4 0x1D512A91 PUSH1 0xE2 SHL DUP2 MSTORE CALLER PUSH1 0x4 DUP3 ADD MSTORE PUSH1 0x0 SWAP2 PUSH1 0x1 PUSH1 0x1 PUSH1 0xA0 SHL SUB AND SWAP1 PUSH4 0x7544AA44 SWAP1 PUSH1 0x24 ADD PUSH1 0x20 PUSH1 0x40 MLOAD DUP1 DUP4 SUB DUP2 DUP7 GAS STATICCALL ISZERO DUP1 ISZERO PUSH2 0x5E2 JUMPI RETURNDATASIZE PUSH1 0x0 DUP1 RETURNDATACOPY RETURNDATASIZE PUSH1 0x0 REVERT JUMPDEST POP POP POP POP PUSH1 0x40 MLOAD RETURNDATASIZE PUSH1 0x1F NOT PUSH1 0x1F DUP3 ADD AND DUP3 ADD DUP1 PUSH1 0x40 MSTORE POP DUP2 ADD SWAP1 PUSH2 0x606 SWAP2 SWAP1 PUSH2 0x1E6E JUMP JUMPDEST PUSH1 0x0 SLOAD PUSH1 0x40 MLOAD PUSH4 0x41976E09 PUSH1 0xE0 SHL DUP2 MSTORE PUSH1 0x1 PUSH1 0x1 PUSH1 0xA0 SHL SUB DUP6 DUP2 AND PUSH1 0x4 DUP4 ADD MSTORE DUP7 SWAP3 AND SWAP1 PUSH4 0x41976E09 SWAP1 PUSH1 0x24 ADD PUSH1 0x20 PUSH1 0x40 MLOAD DUP1 DUP4 SUB DUP2 DUP7 GAS STATICCALL ISZERO DUP1 ISZERO PUSH2 0x650 JUMPI RETURNDATASIZE PUSH1 0x0 DUP1 RETURNDATACOPY RETURNDATASIZE PUSH1 0x0 REVERT JUMPDEST POP POP POP POP PUSH1 0x40 MLOAD RETURNDATASIZE PUSH1 0x1F NOT PUSH1 0x1F DUP3 ADD AND DUP3 ADD DUP1 PUSH1 0x40 MSTORE POP DUP2 ADD SWAP1 PUSH2 0x674 SWAP2 SWAP1 PUSH2 0x1E6E JUMP JUMPDEST PUSH2 0x67E SWAP2 SWAP1 PUSH2 0x1E9D JUMP JUMPDEST PUSH2 0x688 SWAP2 SWAP1 PUSH2 0x1EBC JUMP JUMPDEST SWAP1 POP PUSH1 0x0 PUSH2 0x695 CALLER PUSH2 0x1AFC JUMP JUMPDEST PUSH1 0x0 SLOAD PUSH1 0x40 MLOAD PUSH4 0x41976E09 PUSH1 0xE0 SHL DUP2 MSTORE PUSH1 0x1 PUSH1 0x1 PUSH1 0xA0 SHL SUB DUP9 DUP2 AND PUSH1 0x4 DUP4 ADD MSTORE DUP10 SWAP3 AND SWAP1 PUSH4 0x41976E09 SWAP1 PUSH1 0x24 ADD PUSH1 0x20 PUSH1 0x40 MLOAD DUP1 DUP4 SUB DUP2 DUP7 GAS STATICCALL ISZERO DUP1 ISZERO PUSH2 0x6DF JUMPI RETURNDATASIZE PUSH1 0x0 DUP1 RETURNDATACOPY RETURNDATASIZE PUSH1 0x0 REVERT JUMPDEST POP POP POP POP PUSH1 0x40 MLOAD RETURNDATASIZE PUSH1 0x1F NOT PUSH1 0x1F DUP3 ADD AND DUP3 ADD DUP1 PUSH1 0x40 MSTORE POP DUP2 ADD SWAP1 PUSH2 0x703 SWAP2 SWAP1 PUSH2 0x1E6E JUMP JUMPDEST PUSH2 0x70D SWAP2 SWAP1 PUSH2 0x1E9D JUMP JUMPDEST PUSH2 0x717 SWAP2 SWAP1 PUSH2 0x1EBC JUMP JUMPDEST SWAP1 POP PUSH1 0x2 PUSH1 0x0 SWAP1 SLOAD SWAP1 PUSH2 0x100 EXP SWAP1 DIV PUSH1 0x1 PUSH1 0x1 PUSH1 0xA0 SHL SUB AND PUSH1 0x1 PUSH1 0x1 PUSH1 0xA0 SHL SUB AND PUSH4 0x9404954 PUSH1 0x40 MLOAD DUP2 PUSH4 0xFFFFFFFF AND PUSH1 0xE0 SHL DUP2 MSTORE PUSH1 0x4 ADD PUSH1 0x20 PUSH1 0x40 MLOAD DUP1 DUP4 SUB DUP2 DUP7 GAS STATICCALL ISZERO DUP1 ISZERO PUSH2 0x76C JUMPI RETURNDATASIZE PUSH1 0x0 DUP1 RETURNDATACOPY RETURNDATASIZE PUSH1 0x0 REVERT JUMPDEST POP POP POP POP PUSH1 0x40 MLOAD RETURNDATASIZE PUSH1 0x1F NOT PUSH1 0x1F DUP3 ADD AND DUP3 ADD DUP1 PUSH1 0x40 MSTORE POP DUP2 ADD SWAP1 PUSH2 0x790 SWAP2 SWAP1 PUSH2 0x1E6E JUMP JUMPDEST PUSH2 0x79A SWAP1 DUP3 PUSH2 0x1E9D JUMP JUMPDEST DUP3 LT ISZERO PUSH2 0x7EE JUMPI PUSH1 0x40 MLOAD PUSH3 0x461BCD PUSH1 0xE5 SHL DUP2 MSTORE PUSH1 0x20 PUSH1 0x4 DUP3 ADD MSTORE PUSH1 0x1F PUSH1 0x24 DUP3 ADD MSTORE PUSH32 0x6E6F7420656E6F75676820636F6C6C61746572616C20746F20626F72726F7700 PUSH1 0x44 DUP3 ADD MSTORE PUSH1 0x64 ADD JUMPDEST PUSH1 0x40 MLOAD DUP1 SWAP2 SUB SWAP1 REVERT JUMPDEST PUSH1 0x2 SLOAD PUSH1 0x40 MLOAD PUSH4 0xF970C3B7 PUSH1 0xE0 SHL DUP2 MSTORE PUSH1 0x1 PUSH1 0x1 PUSH1 0xA0 SHL SUB SWAP1 SWAP2 AND SWAP1 PUSH4 0xF970C3B7 SWAP1 PUSH2 0x822 SWAP1 CALLER SWAP1 DUP8 SWAP1 DUP10 SWAP1 PUSH1 0x4 ADD PUSH2 0x1ED4 JUMP JUMPDEST PUSH1 0x0 PUSH1 0x40 MLOAD DUP1 DUP4 SUB DUP2 PUSH1 0x0 DUP8 DUP1 EXTCODESIZE ISZERO DUP1 ISZERO PUSH2 0x83C JUMPI PUSH1 0x0 DUP1 REVERT JUMPDEST POP GAS CALL ISZERO DUP1 ISZERO PUSH2 0x850 JUMPI RETURNDATASIZE PUSH1 0x0 DUP1 RETURNDATACOPY RETURNDATASIZE PUSH1 0x0 REVERT JUMPDEST POP POP PUSH1 0x1 SLOAD PUSH1 0x40 MLOAD PUSH4 0xFC4F78B9 PUSH1 0xE0 SHL DUP2 MSTORE PUSH1 0x1 PUSH1 0x1 PUSH1 0xA0 SHL SUB SWAP1 SWAP2 AND SWAP3 POP PUSH4 0xFC4F78B9 SWAP2 POP PUSH2 0x888 SWAP1 CALLER SWAP1 DUP10 SWAP1 DUP12 SWAP1 PUSH1 0x4 ADD PUSH2 0x1ED4 JUMP JUMPDEST PUSH1 0x0 PUSH1 0x40 MLOAD DUP1 DUP4 SUB DUP2 PUSH1 0x0 DUP8 DUP1 EXTCODESIZE ISZERO DUP1 ISZERO PUSH2 0x8A2 JUMPI PUSH1 0x0 DUP1 REVERT JUMPDEST POP GAS CALL ISZERO DUP1 ISZERO PUSH2 0x8B6 JUMPI RETURNDATASIZE PUSH1 0x0 DUP1 RETURNDATACOPY RETURNDATASIZE PUSH1 0x0 REVERT JUMPDEST POP POP PUSH1 0x40 DUP1 MLOAD CALLER DUP2 MSTORE PUSH1 0x20 DUP2 ADD DUP11 SWAP1 MSTORE PUSH1 0x1 PUSH1 0x1 PUSH1 0xA0 SHL SUB DUP10 DUP2 AND DUP3 DUP5 ADD MSTORE PUSH1 0x60 DUP3 ADD DUP10 SWAP1 MSTORE DUP8 AND PUSH1 0x80 DUP3 ADD MSTORE SWAP1 MLOAD PUSH32 0xEA8631408D071CDC565DFA37DCB32450C4C85EE9A4142ED14DF1387D7C2A4327 SWAP4 POP SWAP1 DUP2 SWAP1 SUB PUSH1 0xA0 ADD SWAP2 POP LOG1 CALLER PUSH1 0x0 SWAP1 DUP2 MSTORE PUSH1 0x9 PUSH1 0x20 SWAP1 DUP2 MSTORE PUSH1 0x40 DUP1 DUP4 KECCAK256 PUSH1 0x1 PUSH1 0x1 PUSH1 0xA0 SHL SUB DUP10 AND DUP5 MSTORE SWAP1 SWAP2 MSTORE DUP2 KECCAK256 DUP1 SLOAD DUP9 SWAP3 SWAP1 PUSH2 0x945 SWAP1 DUP5 SWAP1 PUSH2 0x1EBC JUMP JUMPDEST SWAP1 SWAP2 SSTORE POP POP CALLER PUSH1 0x0 SWAP1 DUP2 MSTORE PUSH1 0x8 PUSH1 0x20 SWAP1 DUP2 MSTORE PUSH1 0x40 DUP1 DUP4 KECCAK256 PUSH1 0x1 PUSH1 0x1 PUSH1 0xA0 SHL SUB DUP10 AND DUP5 MSTORE SWAP1 SWAP2 MSTORE SWAP1 KECCAK256 SLOAD PUSH1 0xFF AND PUSH2 0x9D2 JUMPI CALLER PUSH1 0x0 DUP2 DUP2 MSTORE PUSH1 0x7 PUSH1 0x20 SWAP1 DUP2 MSTORE PUSH1 0x40 DUP1 DUP4 KECCAK256 DUP1 SLOAD PUSH1 0x1 DUP1 DUP3 ADD DUP4 SSTORE SWAP2 DUP6 MSTORE DUP4 DUP6 KECCAK256 ADD DUP1 SLOAD PUSH1 0x1 PUSH1 0x1 PUSH1 0xA0 SHL SUB NOT AND PUSH1 0x1 PUSH1 0x1 PUSH1 0xA0 SHL SUB DUP13 AND SWAP1 DUP2 OR SWAP1 SWAP2 SSTORE SWAP5 DUP5 MSTORE PUSH1 0x8 DUP4 MSTORE DUP2 DUP5 KECCAK256 SWAP5 DUP5 MSTORE SWAP4 SWAP1 SWAP2 MSTORE SWAP1 KECCAK256 DUP1 SLOAD PUSH1 0xFF NOT AND SWAP1 SWAP2 OR SWAP1 SSTORE JUMPDEST CALLER PUSH1 0x0 SWAP1 DUP2 MSTORE PUSH1 0xB PUSH1 0x20 MSTORE PUSH1 0x40 SWAP1 KECCAK256 SLOAD PUSH1 0xFF AND PUSH2 0xA44 JUMPI PUSH1 0xA DUP1 SLOAD PUSH1 0x1 DUP2 DUP2 ADD SWAP1 SWAP3 SSTORE PUSH32 0xC65A7BB8D6351C1CF70C95A316CC6A92839C986682D98BC35F958F4883F9D2A8 ADD DUP1 SLOAD PUSH1 0x1 PUSH1 0x1 PUSH1 0xA0 SHL SUB NOT AND CALLER SWAP1 DUP2 OR SWAP1 SWAP2 SSTORE PUSH1 0x0 SWAP1 DUP2 MSTORE PUSH1 0xB PUSH1 0x20 MSTORE PUSH1 0x40 SWAP1 KECCAK256 DUP1 SLOAD PUSH1 0xFF NOT AND SWAP1 SWAP2 OR SWAP1 SSTORE JUMPDEST POP POP POP POP POP POP JUMP JUMPDEST PUSH1 0x0 DUP3 GT PUSH2 0xA9C JUMPI PUSH1 0x40 MLOAD PUSH3 0x461BCD PUSH1 0xE5 SHL DUP2 MSTORE PUSH1 0x20 PUSH1 0x4 DUP3 ADD MSTORE PUSH1 0x18 PUSH1 0x24 DUP3 ADD MSTORE PUSH32 0x6465706F736974206D75737420626520706F7369746976650000000000000000 PUSH1 0x44 DUP3 ADD MSTORE PUSH1 0x64 ADD PUSH2 0x7E5 JUMP JUMPDEST PUSH1 0x4 DUP1 SLOAD PUSH1 0x40 MLOAD PUSH4 0xD4D1513 PUSH1 0xE0 SHL DUP2 MSTORE CALLER SWAP3 DUP2 ADD SWAP3 SWAP1 SWAP3 MSTORE PUSH1 0x24 DUP3 ADD DUP5 SWAP1 MSTORE PUSH1 0x1 PUSH1 0x1 PUSH1 0xA0 SHL SUB DUP4 DUP2 AND PUSH1 0x44 DUP5 ADD MSTORE PUSH1 0x0 SWAP3 SWAP2 AND SWAP1 PUSH4 0xD4D1513 SWAP1 PUSH1 0x64 ADD PUSH1 0x20 PUSH1 0x40 MLOAD DUP1 DUP4 SUB DUP2 PUSH1 0x0 DUP8 GAS CALL ISZERO DUP1 ISZERO PUSH2 0xAFA JUMPI RETURNDATASIZE PUSH1 0x0 DUP1 RETURNDATACOPY RETURNDATASIZE PUSH1 0x0 REVERT JUMPDEST POP POP POP POP PUSH1 0x40 MLOAD RETURNDATASIZE PUSH1 0x1F NOT PUSH1 0x1F DUP3 ADD AND DUP3 ADD DUP1 PUSH1 0x40 MSTORE POP DUP2 ADD SWAP1 PUSH2 0xB1E SWAP2 SWAP1 PUSH2 0x1E6E JUMP JUMPDEST CALLER PUSH1 0x0 SWAP1 DUP2 MSTORE PUSH1 0x6 PUSH1 0x20 MSTORE PUSH1 0x40 DUP2 KECCAK256 DUP1 SLOAD SWAP3 SWAP4 POP DUP4 SWAP3 SWAP1 SWAP2 SWAP1 PUSH2 0xB42 SWAP1 DUP5 SWAP1 PUSH2 0x1EBC JUMP JUMPDEST SWAP1 SWAP2 SSTORE POP POP PUSH1 0x1 SLOAD PUSH1 0x40 MLOAD PUSH4 0x1740ECAF PUSH1 0xE1 SHL DUP2 MSTORE PUSH1 0x1 PUSH1 0x1 PUSH1 0xA0 SHL SUB SWAP1 SWAP2 AND SWAP1 PUSH4 0x2E81D95E SWAP1 PUSH2 0xB7B SWAP1 CALLER SWAP1 DUP7 SWAP1 DUP9 SWAP1 PUSH1 0x4 ADD PUSH2 0x1ED4 JUMP JUMPDEST PUSH1 0x0 PUSH1 0x40 MLOAD DUP1 DUP4 SUB DUP2 PUSH1 0x0 DUP8 DUP1 EXTCODESIZE ISZERO DUP1 ISZERO PUSH2 0xB95 JUMPI PUSH1 0x0 DUP1 REVERT JUMPDEST POP GAS CALL ISZERO DUP1 ISZERO PUSH2 0xBA9 JUMPI RETURNDATASIZE PUSH1 0x0 DUP1 RETURNDATACOPY RETURNDATASIZE PUSH1 0x0 REVERT JUMPDEST POP POP POP POP POP POP POP JUMP JUMPDEST CALLER PUSH1 0x0 SWAP1 DUP2 MSTORE PUSH1 0x9 PUSH1 0x20 SWAP1 DUP2 MSTORE PUSH1 0x40 DUP1 DUP4 KECCAK256 PUSH1 0x1 PUSH1 0x1 PUSH1 0xA0 SHL SUB DUP7 AND DUP5 MSTORE SWAP1 SWAP2 MSTORE SWAP1 KECCAK256 PUSH1 0x1 DUP2 ADD SLOAD SWAP1 SLOAD DUP3 SWAP2 PUSH2 0xBE7 SWAP2 PUSH2 0x1EBC JUMP JUMPDEST LT ISZERO PUSH2 0xC35 JUMPI PUSH1 0x40 MLOAD PUSH3 0x461BCD PUSH1 0xE5 SHL DUP2 MSTORE PUSH1 0x20 PUSH1 0x4 DUP3 ADD MSTORE PUSH1 0x1B PUSH1 0x24 DUP3 ADD MSTORE PUSH32 0x52657475726E6564206D6F7265207468616E20626F72726F7765640000000000 PUSH1 0x44 DUP3 ADD MSTORE PUSH1 0x64 ADD PUSH2 0x7E5 JUMP JUMPDEST CALLER PUSH1 0x0 SWAP1 DUP2 MSTORE PUSH1 0x9 PUSH1 0x20 SWAP1 DUP2 MSTORE PUSH1 0x40 DUP1 DUP4 KECCAK256 PUSH1 0x1 PUSH1 0x1 PUSH1 0xA0 SHL SUB DUP7 AND DUP5 MSTORE SWAP1 SWAP2 MSTORE DUP2 KECCAK256 SLOAD PUSH2 0xC64 SWAP1 DUP4 SWAP1 PUSH2 0x1ABD JUMP JUMPDEST SWAP1 POP PUSH1 0x0 PUSH2 0xC72 DUP3 DUP5 PUSH2 0x1EF8 JUMP JUMPDEST PUSH1 0x1 SLOAD PUSH1 0x40 MLOAD PUSH4 0x27709E47 PUSH1 0xE1 SHL DUP2 MSTORE CALLER PUSH1 0x4 DUP3 ADD MSTORE PUSH1 0x1 PUSH1 0x1 PUSH1 0xA0 SHL SUB DUP8 DUP2 AND PUSH1 0x24 DUP4 ADD MSTORE PUSH1 0x44 DUP3 ADD DUP8 SWAP1 MSTORE PUSH1 0x64 DUP3 ADD DUP7 SWAP1 MSTORE PUSH1 0x84 DUP3 ADD DUP5 SWAP1 MSTORE SWAP3 SWAP4 POP SWAP2 AND SWAP1 PUSH4 0x4EE13C8E SWAP1 PUSH1 0xA4 ADD PUSH1 0x0 PUSH1 0x40 MLOAD DUP1 DUP4 SUB DUP2 PUSH1 0x0 DUP8 DUP1 EXTCODESIZE ISZERO DUP1 ISZERO PUSH2 0xCD6 JUMPI PUSH1 0x0 DUP1 REVERT JUMPDEST POP GAS CALL ISZERO DUP1 ISZERO PUSH2 0xCEA JUMPI RETURNDATASIZE PUSH1 0x0 DUP1 RETURNDATACOPY RETURNDATASIZE PUSH1 0x0 REVERT JUMPDEST POP POP CALLER PUSH1 0x0 SWAP1 DUP2 MSTORE PUSH1 0x9 PUSH1 0x20 SWAP1 DUP2 MSTORE PUSH1 0x40 DUP1 DUP4 KECCAK256 PUSH1 0x1 PUSH1 0x1 PUSH1 0xA0 SHL SUB DUP11 AND DUP5 MSTORE SWAP1 SWAP2 MSTORE DUP2 KECCAK256 DUP1 SLOAD DUP7 SWAP5 POP SWAP1 SWAP3 POP PUSH2 0xD22 SWAP1 DUP5 SWAP1 PUSH2 0x1EF8 JUMP JUMPDEST SWAP1 SWAP2 SSTORE POP POP CALLER PUSH1 0x0 SWAP1 DUP2 MSTORE PUSH1 0x9 PUSH1 0x20 SWAP1 DUP2 MSTORE PUSH1 0x40 DUP1 DUP4 KECCAK256 PUSH1 0x1 PUSH1 0x1 PUSH1 0xA0 SHL SUB DUP9 AND DUP5 MSTORE SWAP1 SWAP2 MSTORE DUP2 KECCAK256 PUSH1 0x1 ADD DUP1 SLOAD DUP4 SWAP3 SWAP1 PUSH2 0xD5D SWAP1 DUP5 SWAP1 PUSH2 0x1EF8 JUMP JUMPDEST SWAP1 SWAP2 SSTORE POP POP CALLER PUSH1 0x0 SWAP1 DUP2 MSTORE PUSH1 0x9 PUSH1 0x20 SWAP1 DUP2 MSTORE PUSH1 0x40 DUP1 DUP4 KECCAK256 PUSH1 0x1 PUSH1 0x1 PUSH1 0xA0 SHL SUB DUP9 AND DUP5 MSTORE SWAP1 SWAP2 MSTORE SWAP1 KECCAK256 SLOAD PUSH2 0xDAF JUMPI CALLER PUSH1 0x0 SWAP1 DUP2 MSTORE PUSH1 0x9 PUSH1 0x20 SWAP1 DUP2 MSTORE PUSH1 0x40 DUP1 DUP4 KECCAK256 PUSH1 0x1 PUSH1 0x1 PUSH1 0xA0 SHL SUB DUP9 AND DUP5 MSTORE SWAP1 SWAP2 MSTORE DUP2 KECCAK256 SSTORE JUMPDEST CALLER PUSH1 0x0 SWAP1 DUP2 MSTORE PUSH1 0x9 PUSH1 0x20 SWAP1 DUP2 MSTORE PUSH1 0x40 DUP1 DUP4 KECCAK256 PUSH1 0x1 PUSH1 0x1 PUSH1 0xA0 SHL SUB DUP9 AND DUP5 MSTORE SWAP1 SWAP2 MSTORE SWAP1 KECCAK256 PUSH1 0x1 ADD SLOAD PUSH2 0xE02 JUMPI CALLER PUSH1 0x0 SWAP1 DUP2 MSTORE PUSH1 0x9 PUSH1 0x20 SWAP1 DUP2 MSTORE PUSH1 0x40 DUP1 DUP4 KECCAK256 PUSH1 0x1 PUSH1 0x1 PUSH1 0xA0 SHL SUB DUP9 AND DUP5 MSTORE SWAP1 SWAP2 MSTORE DUP2 KECCAK256 PUSH1 0x1 ADD SSTORE JUMPDEST POP POP POP POP JUMP JUMPDEST PUSH1 0x0 PUSH1 0x4 PUSH1 0x0 SWAP1 SLOAD SWAP1 PUSH2 0x100 EXP SWAP1 DIV PUSH1 0x1 PUSH1 0x1 PUSH1 0xA0 SHL SUB AND PUSH1 0x1 PUSH1 0x1 PUSH1 0xA0 SHL SUB AND PUSH4 0x33D57CDC PUSH1 0x40 MLOAD DUP2 PUSH4 0xFFFFFFFF AND PUSH1 0xE0 SHL DUP2 MSTORE PUSH1 0x4 ADD PUSH1 0x20 PUSH1 0x40 MLOAD DUP1 DUP4 SUB DUP2 DUP7 GAS STATICCALL ISZERO DUP1 ISZERO PUSH2 0x570 JUMPI RETURNDATASIZE PUSH1 0x0 DUP1 RETURNDATACOPY RETURNDATASIZE PUSH1 0x0 REVERT JUMPDEST PUSH1 0x0 DUP1 SLOAD PUSH1 0x40 MLOAD PUSH4 0x41976E09 PUSH1 0xE0 SHL DUP2 MSTORE PUSH1 0x1 PUSH1 0x1 PUSH1 0xA0 SHL SUB DUP6 DUP2 AND PUSH1 0x4 DUP4 ADD MSTORE SWAP1 SWAP2 AND SWAP1 PUSH4 0x41976E09 SWAP1 PUSH1 0x24 ADD PUSH1 0x20 PUSH1 0x40 MLOAD DUP1 DUP4 SUB DUP2 DUP7 GAS STATICCALL ISZERO DUP1 ISZERO PUSH2 0xEA8 JUMPI RETURNDATASIZE PUSH1 0x0 DUP1 RETURNDATACOPY RETURNDATASIZE PUSH1 0x0 REVERT JUMPDEST POP POP POP POP PUSH1 0x40 MLOAD RETURNDATASIZE PUSH1 0x1F NOT PUSH1 0x1F DUP3 ADD AND DUP3 ADD DUP1 PUSH1 0x40 MSTORE POP DUP2 ADD SWAP1 PUSH2 0xECC SWAP2 SWAP1 PUSH2 0x1E6E JUMP JUMPDEST SWAP1 POP PUSH1 0x0 DUP2 PUSH1 0x4 PUSH1 0x0 SWAP1 SLOAD SWAP1 PUSH2 0x100 EXP SWAP1 DIV PUSH1 0x1 PUSH1 0x1 PUSH1 0xA0 SHL SUB AND PUSH1 0x1 PUSH1 0x1 PUSH1 0xA0 SHL SUB AND PUSH4 0x33D57CDC PUSH1 0x40 MLOAD DUP2 PUSH4 0xFFFFFFFF AND PUSH1 0xE0 SHL DUP2 MSTORE PUSH1 0x4 ADD PUSH1 0x20 PUSH1 0x40 MLOAD DUP1 DUP4 SUB DUP2 DUP7 GAS STATICCALL ISZERO DUP1 ISZERO PUSH2 0xF24 JUMPI RETURNDATASIZE PUSH1 0x0 DUP1 RETURNDATACOPY RETURNDATASIZE PUSH1 0x0 REVERT JUMPDEST POP POP POP POP PUSH1 0x40 MLOAD RETURNDATASIZE PUSH1 0x1F NOT PUSH1 0x1F DUP3 ADD AND DUP3 ADD DUP1 PUSH1 0x40 MSTORE POP DUP2 ADD SWAP1 PUSH2 0xF48 SWAP2 SWAP1 PUSH2 0x1E6E JUMP JUMPDEST PUSH2 0xF52 SWAP1 DUP6 PUSH2 0x1E9D JUMP JUMPDEST PUSH2 0xF5C SWAP2 SWAP1 PUSH2 0x1F0F JUMP JUMPDEST PUSH1 0x1 SLOAD PUSH1 0x40 MLOAD PUSH4 0xFCE3E8E7 PUSH1 0xE0 SHL DUP2 MSTORE PUSH1 0x1 PUSH1 0x1 PUSH1 0xA0 SHL SUB DUP8 DUP2 AND PUSH1 0x4 DUP4 ADD MSTORE SWAP3 SWAP4 POP SWAP2 AND SWAP1 PUSH4 0xFCE3E8E7 SWAP1 PUSH1 0x24 ADD PUSH1 0x20 PUSH1 0x40 MLOAD DUP1 DUP4 SUB DUP2 DUP7 GAS STATICCALL ISZERO DUP1 ISZERO PUSH2 0xFA8 JUMPI RETURNDATASIZE PUSH1 0x0 DUP1 RETURNDATACOPY RETURNDATASIZE PUSH1 0x0 REVERT JUMPDEST POP POP POP POP PUSH1 0x40 MLOAD RETURNDATASIZE PUSH1 0x1F NOT PUSH1 0x1F DUP3 ADD AND DUP3 ADD DUP1 PUSH1 0x40 MSTORE POP DUP2 ADD SWAP1 PUSH2 0xFCC SWAP2 SWAP1 PUSH2 0x1E6E JUMP JUMPDEST DUP2 GT ISZERO PUSH2 0x1036 JUMPI PUSH1 0x40 MLOAD PUSH3 0x461BCD PUSH1 0xE5 SHL DUP2 MSTORE PUSH1 0x20 PUSH1 0x4 DUP3 ADD MSTORE PUSH1 0x32 PUSH1 0x24 DUP3 ADD MSTORE PUSH32 0x557365722063616E6E6F742072656465656D206D6F7265207468616E20746865 PUSH1 0x44 DUP3 ADD MSTORE PUSH18 0x20617661696C61626C652062616C616E6365 PUSH1 0x70 SHL PUSH1 0x64 DUP3 ADD MSTORE PUSH1 0x84 ADD PUSH2 0x7E5 JUMP JUMPDEST PUSH1 0x4 DUP1 SLOAD PUSH1 0x40 MLOAD PUSH4 0x70A08231 PUSH1 0xE0 SHL DUP2 MSTORE CALLER SWAP3 DUP2 ADD SWAP3 SWAP1 SWAP3 MSTORE DUP5 SWAP2 PUSH1 0x1 PUSH1 0x1 PUSH1 0xA0 SHL SUB SWAP1 SWAP2 AND SWAP1 PUSH4 0x70A08231 SWAP1 PUSH1 0x24 ADD PUSH1 0x20 PUSH1 0x40 MLOAD DUP1 DUP4 SUB DUP2 DUP7 GAS STATICCALL ISZERO DUP1 ISZERO PUSH2 0x1083 JUMPI RETURNDATASIZE PUSH1 0x0 DUP1 RETURNDATACOPY RETURNDATASIZE PUSH1 0x0 REVERT JUMPDEST POP POP POP POP PUSH1 0x40 MLOAD RETURNDATASIZE PUSH1 0x1F NOT PUSH1 0x1F DUP3 ADD AND DUP3 ADD DUP1 PUSH1 0x40 MSTORE POP DUP2 ADD SWAP1 PUSH2 0x10A7 SWAP2 SWAP1 PUSH2 0x1E6E JUMP JUMPDEST LT ISZERO PUSH2 0x1109 JUMPI PUSH1 0x40 MLOAD PUSH3 0x461BCD PUSH1 0xE5 SHL DUP2 MSTORE PUSH1 0x20 PUSH1 0x4 DUP3 ADD MSTORE PUSH1 0x2B PUSH1 0x24 DUP3 ADD MSTORE PUSH32 0x43616E6E6F742072656465656D206D6F726520746F6B656E73207468616E206E PUSH1 0x44 DUP3 ADD MSTORE PUSH11 0x1D5B58995C881BDDDB9959 PUSH1 0xAA SHL PUSH1 0x64 DUP3 ADD MSTORE PUSH1 0x84 ADD PUSH2 0x7E5 JUMP JUMPDEST CALLER PUSH1 0x0 SWAP1 DUP2 MSTORE PUSH1 0x6 PUSH1 0x20 MSTORE PUSH1 0x40 DUP2 KECCAK256 DUP1 SLOAD DUP6 SWAP3 SWAP1 PUSH2 0x1128 SWAP1 DUP5 SWAP1 PUSH2 0x1EF8 JUMP JUMPDEST SWAP1 SWAP2 SSTORE POP POP CALLER PUSH1 0x0 SWAP1 DUP2 MSTORE PUSH1 0x6 PUSH1 0x20 MSTORE PUSH1 0x40 SWAP1 KECCAK256 SLOAD PUSH2 0x1152 JUMPI CALLER PUSH1 0x0 SWAP1 DUP2 MSTORE PUSH1 0x6 PUSH1 0x20 MSTORE PUSH1 0x40 DUP2 KECCAK256 SSTORE JUMPDEST PUSH1 0x1 SLOAD PUSH1 0x40 MLOAD PUSH4 0x1F97F859 PUSH1 0xE3 SHL DUP2 MSTORE PUSH1 0x1 PUSH1 0x1 PUSH1 0xA0 SHL SUB SWAP1 SWAP2 AND SWAP1 PUSH4 0xFCBFC2C8 SWAP1 PUSH2 0x1186 SWAP1 CALLER SWAP1 DUP9 SWAP1 DUP7 SWAP1 PUSH1 0x4 ADD PUSH2 0x1ED4 JUMP JUMPDEST PUSH1 0x0 PUSH1 0x40 MLOAD DUP1 DUP4 SUB DUP2 PUSH1 0x0 DUP8 DUP1 EXTCODESIZE ISZERO DUP1 ISZERO PUSH2 0x11A0 JUMPI PUSH1 0x0 DUP1 REVERT JUMPDEST POP GAS CALL ISZERO DUP1 ISZERO PUSH2 0x11B4 JUMPI RETURNDATASIZE PUSH1 0x0 DUP1 RETURNDATACOPY RETURNDATASIZE PUSH1 0x0 REVERT JUMPDEST POP POP PUSH1 0x4 DUP1 SLOAD PUSH1 0x40 MLOAD PUSH4 0x2770A7EB PUSH1 0xE2 SHL DUP2 MSTORE CALLER SWAP3 DUP2 ADD SWAP3 SWAP1 SWAP3 MSTORE PUSH1 0x24 DUP3 ADD DUP8 SWAP1 MSTORE PUSH1 0x1 PUSH1 0x1 PUSH1 0xA0 SHL SUB AND SWAP3 POP PUSH4 0x9DC29FAC SWAP2 POP PUSH1 0x44 ADD PUSH1 0x0 PUSH1 0x40 MLOAD DUP1 DUP4 SUB DUP2 PUSH1 0x0 DUP8 DUP1 EXTCODESIZE ISZERO DUP1 ISZERO PUSH2 0x1205 JUMPI PUSH1 0x0 DUP1 REVERT JUMPDEST POP GAS CALL ISZERO DUP1 ISZERO PUSH2 0x1219 JUMPI RETURNDATASIZE PUSH1 0x0 DUP1 RETURNDATACOPY RETURNDATASIZE PUSH1 0x0 REVERT JUMPDEST POP POP POP POP POP POP POP POP JUMP JUMPDEST PUSH1 0xA DUP2 DUP2 SLOAD DUP2 LT PUSH2 0x1233 JUMPI PUSH1 0x0 DUP1 REVERT JUMPDEST PUSH1 0x0 SWAP2 DUP3 MSTORE PUSH1 0x20 SWAP1 SWAP2 KECCAK256 ADD SLOAD PUSH1 0x1 PUSH1 0x1 PUSH1 0xA0 SHL SUB AND SWAP1 POP DUP2 JUMP JUMPDEST PUSH1 0x2 SLOAD PUSH1 0x40 MLOAD PUSH4 0x1D512A91 PUSH1 0xE2 SHL DUP2 MSTORE PUSH1 0x1 PUSH1 0x1 PUSH1 0xA0 SHL SUB DUP4 DUP2 AND PUSH1 0x4 DUP4 ADD MSTORE PUSH1 0x0 SWAP3 AND SWAP1 PUSH4 0x7544AA44 SWAP1 PUSH1 0x24 ADD PUSH2 0x4D4 JUMP JUMPDEST PUSH1 0x4 DUP1 SLOAD PUSH1 0x40 MLOAD PUSH4 0x70A08231 PUSH1 0xE0 SHL DUP2 MSTORE PUSH1 0x1 PUSH1 0x1 PUSH1 0xA0 SHL SUB DUP5 DUP2 AND SWAP4 DUP3 ADD SWAP4 SWAP1 SWAP4 MSTORE PUSH1 0x0 SWAP3 SWAP1 SWAP2 AND SWAP1 PUSH4 0x70A08231 SWAP1 PUSH1 0x24 ADD PUSH2 0x4D4 JUMP JUMPDEST PUSH1 0x2 SLOAD PUSH1 0x40 MLOAD PUSH4 0x2B92A07D PUSH1 0xE0 SHL DUP2 MSTORE PUSH1 0x1 PUSH1 0x1 PUSH1 0xA0 SHL SUB DUP4 DUP2 AND PUSH1 0x4 DUP4 ADD MSTORE DUP5 DUP2 AND PUSH1 0x24 DUP4 ADD MSTORE PUSH1 0x0 SWAP3 AND SWAP1 PUSH4 0x2B92A07D SWAP1 PUSH1 0x44 ADD PUSH1 0x20 PUSH1 0x40 MLOAD DUP1 DUP4 SUB DUP2 DUP7 GAS STATICCALL ISZERO DUP1 ISZERO PUSH2 0x130B JUMPI RETURNDATASIZE PUSH1 0x0 DUP1 RETURNDATACOPY RETURNDATASIZE PUSH1 0x0 REVERT JUMPDEST POP POP POP POP PUSH1 0x40 MLOAD RETURNDATASIZE PUSH1 0x1F NOT PUSH1 0x1F DUP3 ADD AND DUP3 ADD DUP1 PUSH1 0x40 MSTORE POP DUP2 ADD SWAP1 PUSH2 0x132F SWAP2 SWAP1 PUSH2 0x1E6E JUMP JUMPDEST SWAP4 SWAP3 POP POP POP JUMP JUMPDEST PUSH1 0xA SLOAD PUSH1 0x0 JUMPDEST DUP2 DUP2 PUSH2 0xFFFF AND LT ISZERO PUSH2 0x1561 JUMPI PUSH1 0x0 PUSH1 0xA DUP3 PUSH2 0xFFFF AND DUP2 SLOAD DUP2 LT PUSH2 0x1361 JUMPI PUSH2 0x1361 PUSH2 0x1F31 JUMP JUMPDEST PUSH1 0x0 SWAP2 DUP3 MSTORE PUSH1 0x20 DUP1 DUP4 KECCAK256 SWAP1 SWAP2 ADD SLOAD PUSH1 0x1 PUSH1 0x1 PUSH1 0xA0 SHL SUB AND DUP1 DUP4 MSTORE PUSH1 0x7 SWAP1 SWAP2 MSTORE PUSH1 0x40 DUP3 KECCAK256 SLOAD SWAP1 SWAP3 POP SWAP1 JUMPDEST DUP2 DUP2 PUSH2 0xFFFF AND LT ISZERO PUSH2 0x154B JUMPI PUSH1 0x1 PUSH1 0x1 PUSH1 0xA0 SHL SUB DUP4 AND PUSH1 0x0 SWAP1 DUP2 MSTORE PUSH1 0x9 PUSH1 0x20 SWAP1 DUP2 MSTORE PUSH1 0x40 DUP1 DUP4 KECCAK256 PUSH1 0x7 SWAP1 SWAP3 MSTORE DUP3 KECCAK256 DUP1 SLOAD PUSH8 0xDE0B6B3A7640000 SWAP4 SWAP2 SWAP1 PUSH2 0xFFFF DUP7 AND SWAP1 DUP2 LT PUSH2 0x13DA JUMPI PUSH2 0x13DA PUSH2 0x1F31 JUMP JUMPDEST PUSH1 0x0 SWAP2 DUP3 MSTORE PUSH1 0x20 DUP1 DUP4 KECCAK256 SWAP1 SWAP2 ADD SLOAD PUSH1 0x1 PUSH1 0x1 PUSH1 0xA0 SHL SUB SWAP1 DUP2 AND DUP5 MSTORE DUP4 DUP3 ADD SWAP5 SWAP1 SWAP5 MSTORE PUSH1 0x40 SWAP3 DUP4 ADD DUP3 KECCAK256 SLOAD PUSH1 0x1 SLOAD DUP10 DUP7 AND DUP5 MSTORE PUSH1 0x7 SWAP1 SWAP3 MSTORE SWAP3 SWAP1 SWAP2 KECCAK256 DUP1 SLOAD SWAP3 SWAP4 SWAP2 SWAP1 SWAP2 AND SWAP2 PUSH4 0x246140CE SWAP2 SWAP1 PUSH2 0xFFFF DUP8 AND SWAP1 DUP2 LT PUSH2 0x1439 JUMPI PUSH2 0x1439 PUSH2 0x1F31 JUMP JUMPDEST PUSH1 0x0 SWAP2 DUP3 MSTORE PUSH1 0x20 SWAP1 SWAP2 KECCAK256 ADD SLOAD PUSH1 0x40 MLOAD PUSH1 0xE0 DUP4 SWAP1 SHL PUSH1 0x1 PUSH1 0x1 PUSH1 0xE0 SHL SUB NOT AND DUP2 MSTORE PUSH1 0x1 PUSH1 0x1 PUSH1 0xA0 SHL SUB SWAP1 SWAP2 AND PUSH1 0x4 DUP3 ADD MSTORE PUSH1 0x24 ADD PUSH1 0x20 PUSH1 0x40 MLOAD DUP1 DUP4 SUB DUP2 DUP7 GAS STATICCALL ISZERO DUP1 ISZERO PUSH2 0x1489 JUMPI RETURNDATASIZE PUSH1 0x0 DUP1 RETURNDATACOPY RETURNDATASIZE PUSH1 0x0 REVERT JUMPDEST POP POP POP POP PUSH1 0x40 MLOAD RETURNDATASIZE PUSH1 0x1F NOT PUSH1 0x1F DUP3 ADD AND DUP3 ADD DUP1 PUSH1 0x40 MSTORE POP DUP2 ADD SWAP1 PUSH2 0x14AD SWAP2 SWAP1 PUSH2 0x1E6E JUMP JUMPDEST PUSH2 0x14B7 SWAP2 SWAP1 PUSH2 0x1E9D JUMP JUMPDEST PUSH2 0x14C1 SWAP2 SWAP1 PUSH2 0x1F0F JUMP JUMPDEST PUSH1 0x1 PUSH1 0x1 PUSH1 0xA0 SHL SUB DUP5 AND PUSH1 0x0 SWAP1 DUP2 MSTORE PUSH1 0x9 PUSH1 0x20 SWAP1 DUP2 MSTORE PUSH1 0x40 DUP1 DUP4 KECCAK256 PUSH1 0x7 SWAP1 SWAP3 MSTORE DUP3 KECCAK256 DUP1 SLOAD SWAP2 SWAP3 SWAP2 PUSH2 0xFFFF DUP7 AND SWAP1 DUP2 LT PUSH2 0x14FC JUMPI PUSH2 0x14FC PUSH2 0x1F31 JUMP JUMPDEST PUSH1 0x0 SWAP2 DUP3 MSTORE PUSH1 0x20 DUP1 DUP4 KECCAK256 SWAP1 SWAP2 ADD SLOAD PUSH1 0x1 PUSH1 0x1 PUSH1 0xA0 SHL SUB AND DUP4 MSTORE DUP3 ADD SWAP3 SWAP1 SWAP3 MSTORE PUSH1 0x40 ADD DUP2 KECCAK256 PUSH1 0x1 ADD DUP1 SLOAD SWAP1 SWAP2 SWAP1 PUSH2 0x1533 SWAP1 DUP5 SWAP1 PUSH2 0x1EBC JUMP JUMPDEST SWAP1 SWAP2 SSTORE POP DUP2 SWAP1 POP PUSH2 0x1543 DUP2 PUSH2 0x1F47 JUMP JUMPDEST SWAP2 POP POP PUSH2 0x138A JUMP JUMPDEST POP POP POP DUP1 DUP1 PUSH2 0x1559 SWAP1 PUSH2 0x1F47 JUMP JUMPDEST SWAP2 POP POP PUSH2 0x133C JUMP JUMPDEST POP POP JUMP JUMPDEST PUSH1 0x1 SLOAD PUSH1 0x40 MLOAD PUSH4 0xFCE3E8E7 PUSH1 0xE0 SHL DUP2 MSTORE PUSH1 0x1 PUSH1 0x1 PUSH1 0xA0 SHL SUB DUP4 DUP2 AND PUSH1 0x4 DUP4 ADD MSTORE PUSH1 0x0 SWAP3 AND SWAP1 PUSH4 0xFCE3E8E7 SWAP1 PUSH1 0x24 ADD PUSH2 0x4D4 JUMP JUMPDEST PUSH1 0x1 PUSH1 0x1 PUSH1 0xA0 SHL SUB DUP3 DUP2 AND PUSH1 0x0 SWAP1 DUP2 MSTORE PUSH1 0x9 PUSH1 0x20 SWAP1 DUP2 MSTORE PUSH1 0x40 DUP1 DUP4 KECCAK256 SWAP4 DUP6 AND DUP4 MSTORE SWAP3 SWAP1 MSTORE SWAP1 DUP2 KECCAK256 PUSH1 0x1 DUP2 ADD SLOAD SWAP1 SLOAD PUSH2 0x132F SWAP2 SWAP1 PUSH2 0x1EBC JUMP JUMPDEST PUSH2 0x15D9 CALLER PUSH2 0x1AFC JUMP JUMPDEST PUSH1 0x2 PUSH1 0x0 SWAP1 SLOAD SWAP1 PUSH2 0x100 EXP SWAP1 DIV PUSH1 0x1 PUSH1 0x1 PUSH1 0xA0 SHL SUB AND PUSH1 0x1 PUSH1 0x1 PUSH1 0xA0 SHL SUB AND PUSH4 0x9404954 PUSH1 0x40 MLOAD DUP2 PUSH4 0xFFFFFFFF AND PUSH1 0xE0 SHL DUP2 MSTORE PUSH1 0x4 ADD PUSH1 0x20 PUSH1 0x40 MLOAD DUP1 DUP4 SUB DUP2 DUP7 GAS STATICCALL ISZERO DUP1 ISZERO PUSH2 0x162C JUMPI RETURNDATASIZE PUSH1 0x0 DUP1 RETURNDATACOPY RETURNDATASIZE PUSH1 0x0 REVERT JUMPDEST POP POP POP POP PUSH1 0x40 MLOAD RETURNDATASIZE PUSH1 0x1F NOT PUSH1 0x1F DUP3 ADD AND DUP3 ADD DUP1 PUSH1 0x40 MSTORE POP DUP2 ADD SWAP1 PUSH2 0x1650 SWAP2 SWAP1 PUSH2 0x1E6E JUMP JUMPDEST PUSH2 0x165A SWAP2 SWAP1 PUSH2 0x1E9D JUMP JUMPDEST PUSH1 0x0 SLOAD PUSH1 0x40 MLOAD PUSH4 0x41976E09 PUSH1 0xE0 SHL DUP2 MSTORE PUSH1 0x1 PUSH1 0x1 PUSH1 0xA0 SHL SUB DUP7 DUP2 AND PUSH1 0x4 DUP4 ADD MSTORE PUSH8 0xDE0B6B3A7640000 SWAP3 DUP7 SWAP3 SWAP2 AND SWAP1 PUSH4 0x41976E09 SWAP1 PUSH1 0x24 ADD PUSH1 0x20 PUSH1 0x40 MLOAD DUP1 DUP4 SUB DUP2 DUP7 GAS STATICCALL ISZERO DUP1 ISZERO PUSH2 0x16AF JUMPI RETURNDATASIZE PUSH1 0x0 DUP1 RETURNDATACOPY RETURNDATASIZE PUSH1 0x0 REVERT JUMPDEST POP POP POP POP PUSH1 0x40 MLOAD RETURNDATASIZE PUSH1 0x1F NOT PUSH1 0x1F DUP3 ADD AND DUP3 ADD DUP1 PUSH1 0x40 MSTORE POP DUP2 ADD SWAP1 PUSH2 0x16D3 SWAP2 SWAP1 PUSH2 0x1E6E JUMP JUMPDEST PUSH2 0x16DD SWAP2 SWAP1 PUSH2 0x1E9D JUMP JUMPDEST PUSH2 0x16E7 SWAP2 SWAP1 PUSH2 0x1F0F JUMP JUMPDEST PUSH1 0x2 SLOAD PUSH1 0x40 MLOAD PUSH4 0x1D512A91 PUSH1 0xE2 SHL DUP2 MSTORE CALLER PUSH1 0x4 DUP3 ADD MSTORE PUSH1 0x1 PUSH1 0x1 PUSH1 0xA0 SHL SUB SWAP1 SWAP2 AND SWAP1 PUSH4 0x7544AA44 SWAP1 PUSH1 0x24 ADD PUSH1 0x20 PUSH1 0x40 MLOAD DUP1 DUP4 SUB DUP2 DUP7 GAS STATICCALL ISZERO DUP1 ISZERO PUSH2 0x172F JUMPI RETURNDATASIZE PUSH1 0x0 DUP1 RETURNDATACOPY RETURNDATASIZE PUSH1 0x0 REVERT JUMPDEST POP POP POP POP PUSH1 0x40 MLOAD RETURNDATASIZE PUSH1 0x1F NOT PUSH1 0x1F DUP3 ADD AND DUP3 ADD DUP1 PUSH1 0x40 MSTORE POP DUP2 ADD SWAP1 PUSH2 0x1753 SWAP2 SWAP1 PUSH2 0x1E6E JUMP JUMPDEST PUSH2 0x175D SWAP2 SWAP1 PUSH2 0x1EF8 JUMP JUMPDEST LT ISZERO PUSH2 0x17C6 JUMPI PUSH1 0x40 MLOAD PUSH3 0x461BCD PUSH1 0xE5 SHL DUP2 MSTORE PUSH1 0x20 PUSH1 0x4 DUP3 ADD MSTORE PUSH1 0x32 PUSH1 0x24 DUP3 ADD MSTORE PUSH32 0x43616E6E6F7420776974686472617720636F6C6C61746572616C206265666F72 PUSH1 0x44 DUP3 ADD MSTORE PUSH18 0x32903830BCB4B733903130B1B5903637B0B7 PUSH1 0x71 SHL PUSH1 0x64 DUP3 ADD MSTORE PUSH1 0x84 ADD PUSH2 0x7E5 JUMP JUMPDEST PUSH1 0x2 SLOAD PUSH1 0x40 MLOAD PUSH4 0x2B92A07D PUSH1 0xE0 SHL DUP2 MSTORE PUSH1 0x1 PUSH1 0x1 PUSH1 0xA0 SHL SUB DUP6 DUP2 AND PUSH1 0x4 DUP4 ADD MSTORE CALLER PUSH1 0x24 DUP4 ADD MSTORE PUSH1 0x0 SWAP3 AND SWAP1 PUSH4 0x2B92A07D SWAP1 PUSH1 0x44 ADD PUSH1 0x20 PUSH1 0x40 MLOAD DUP1 DUP4 SUB DUP2 DUP7 GAS STATICCALL ISZERO DUP1 ISZERO PUSH2 0x1817 JUMPI RETURNDATASIZE PUSH1 0x0 DUP1 RETURNDATACOPY RETURNDATASIZE PUSH1 0x0 REVERT JUMPDEST POP POP POP POP PUSH1 0x40 MLOAD RETURNDATASIZE PUSH1 0x1F NOT PUSH1 0x1F DUP3 ADD AND DUP3 ADD DUP1 PUSH1 0x40 MSTORE POP DUP2 ADD SWAP1 PUSH2 0x183B SWAP2 SWAP1 PUSH2 0x1E6E JUMP JUMPDEST SWAP1 POP DUP1 DUP4 GT ISZERO PUSH2 0x189E JUMPI PUSH1 0x40 MLOAD PUSH3 0x461BCD PUSH1 0xE5 SHL DUP2 MSTORE PUSH1 0x20 PUSH1 0x4 DUP3 ADD MSTORE PUSH1 0x28 PUSH1 0x24 DUP3 ADD MSTORE PUSH32 0x52656465656D696E67206D6F726520636F6C6C61746572616C207468616E2064 PUSH1 0x44 DUP3 ADD MSTORE PUSH8 0x195C1BDCDA5D1959 PUSH1 0xC2 SHL PUSH1 0x64 DUP3 ADD MSTORE PUSH1 0x84 ADD PUSH2 0x7E5 JUMP JUMPDEST PUSH1 0x2 SLOAD PUSH1 0x40 MLOAD PUSH4 0x4755EA7F PUSH1 0xE1 SHL DUP2 MSTORE CALLER PUSH1 0x4 DUP3 ADD MSTORE PUSH1 0x1 PUSH1 0x1 PUSH1 0xA0 SHL SUB DUP7 DUP2 AND PUSH1 0x24 DUP4 ADD MSTORE PUSH1 0x44 DUP3 ADD DUP7 SWAP1 MSTORE DUP5 ISZERO ISZERO PUSH1 0x64 DUP4 ADD MSTORE SWAP1 SWAP2 AND SWAP1 PUSH4 0x8EABD4FE SWAP1 PUSH1 0x84 ADD PUSH1 0x0 PUSH1 0x40 MLOAD DUP1 DUP4 SUB DUP2 PUSH1 0x0 DUP8 DUP1 EXTCODESIZE ISZERO DUP1 ISZERO PUSH2 0x18FA JUMPI PUSH1 0x0 DUP1 REVERT JUMPDEST POP GAS CALL ISZERO DUP1 ISZERO PUSH2 0x190E JUMPI RETURNDATASIZE PUSH1 0x0 DUP1 RETURNDATACOPY RETURNDATASIZE PUSH1 0x0 REVERT JUMPDEST POP POP POP POP DUP2 ISZERO ISZERO PUSH1 0x1 EQ ISZERO PUSH2 0xE02 JUMPI PUSH1 0x4 DUP1 SLOAD PUSH1 0x40 MLOAD PUSH4 0xD4D1513 PUSH1 0xE0 SHL DUP2 MSTORE CALLER SWAP3 DUP2 ADD SWAP3 SWAP1 SWAP3 MSTORE PUSH1 0x24 DUP3 ADD DUP6 SWAP1 MSTORE PUSH1 0x1 PUSH1 0x1 PUSH1 0xA0 SHL SUB DUP7 DUP2 AND PUSH1 0x44 DUP5 ADD MSTORE PUSH1 0x0 SWAP3 SWAP2 AND SWAP1 PUSH4 0xD4D1513 SWAP1 PUSH1 0x64 ADD PUSH1 0x20 PUSH1 0x40 MLOAD DUP1 DUP4 SUB DUP2 PUSH1 0x0 DUP8 GAS CALL ISZERO DUP1 ISZERO PUSH2 0x197B JUMPI RETURNDATASIZE PUSH1 0x0 DUP1 RETURNDATACOPY RETURNDATASIZE PUSH1 0x0 REVERT JUMPDEST POP POP POP POP PUSH1 0x40 MLOAD RETURNDATASIZE PUSH1 0x1F NOT PUSH1 0x1F DUP3 ADD AND DUP3 ADD DUP1 PUSH1 0x40 MSTORE POP DUP2 ADD SWAP1 PUSH2 0x199F SWAP2 SWAP1 PUSH2 0x1E6E JUMP JUMPDEST CALLER PUSH1 0x0 SWAP1 DUP2 MSTORE PUSH1 0x6 PUSH1 0x20 MSTORE PUSH1 0x40 DUP2 KECCAK256 DUP1 SLOAD SWAP3 SWAP4 POP DUP4 SWAP3 SWAP1 SWAP2 SWAP1 PUSH2 0x19C3 SWAP1 DUP5 SWAP1 PUSH2 0x1EBC JUMP JUMPDEST SWAP1 SWAP2 SSTORE POP POP POP POP POP POP POP JUMP JUMPDEST PUSH1 0x0 PUSH1 0x4 PUSH1 0x0 SWAP1 SLOAD SWAP1 PUSH2 0x100 EXP SWAP1 DIV PUSH1 0x1 PUSH1 0x1 PUSH1 0xA0 SHL SUB AND PUSH1 0x1 PUSH1 0x1 PUSH1 0xA0 SHL SUB AND PUSH4 0x18160DDD PUSH1 0x40 MLOAD DUP2 PUSH4 0xFFFFFFFF AND PUSH1 0xE0 SHL DUP2 MSTORE PUSH1 0x4 ADD PUSH1 0x20 PUSH1 0x40 MLOAD DUP1 DUP4 SUB DUP2 DUP7 GAS STATICCALL ISZERO DUP1 ISZERO PUSH2 0x570 JUMPI RETURNDATASIZE PUSH1 0x0 DUP1 RETURNDATACOPY RETURNDATASIZE PUSH1 0x0 REVERT JUMPDEST PUSH1 0x1 SLOAD PUSH1 0x40 MLOAD PUSH4 0xF8B2CB4F PUSH1 0xE0 SHL DUP2 MSTORE PUSH1 0x1 PUSH1 0x1 PUSH1 0xA0 SHL SUB DUP4 DUP2 AND PUSH1 0x4 DUP4 ADD MSTORE PUSH1 0x0 SWAP3 AND SWAP1 PUSH4 0xF8B2CB4F SWAP1 PUSH1 0x24 ADD PUSH2 0x4D4 JUMP JUMPDEST PUSH1 0x1 SLOAD PUSH1 0x40 MLOAD PUSH4 0x1230A067 PUSH1 0xE1 SHL DUP2 MSTORE PUSH1 0x1 PUSH1 0x1 PUSH1 0xA0 SHL SUB DUP4 DUP2 AND PUSH1 0x4 DUP4 ADD MSTORE PUSH1 0x0 SWAP3 AND SWAP1 PUSH4 0x246140CE SWAP1 PUSH1 0x24 ADD PUSH2 0x4D4 JUMP JUMPDEST PUSH1 0x2 SLOAD PUSH1 0x40 MLOAD PUSH4 0x28D1F893 PUSH1 0xE2 SHL DUP2 MSTORE PUSH1 0x1 PUSH1 0x1 PUSH1 0xA0 SHL SUB DUP4 DUP2 AND PUSH1 0x4 DUP4 ADD MSTORE PUSH1 0x0 SWAP3 AND SWAP1 PUSH4 0xA347E24C SWAP1 PUSH1 0x24 ADD PUSH2 0x4D4 JUMP JUMPDEST PUSH1 0x0 PUSH2 0x132F DUP4 DUP4 PUSH2 0x1CDB JUMP JUMPDEST PUSH1 0x1 SLOAD PUSH1 0x40 MLOAD PUSH4 0xDE30F97D PUSH1 0xE0 SHL DUP2 MSTORE PUSH1 0x1 PUSH1 0x1 PUSH1 0xA0 SHL SUB DUP4 DUP2 AND PUSH1 0x4 DUP4 ADD MSTORE PUSH1 0x0 SWAP3 AND SWAP1 PUSH4 0xDE30F97D SWAP1 PUSH1 0x24 ADD PUSH2 0x4D4 JUMP JUMPDEST PUSH1 0x1 PUSH1 0x1 PUSH1 0xA0 SHL SUB DUP2 AND PUSH1 0x0 SWAP1 DUP2 MSTORE PUSH1 0x7 PUSH1 0x20 MSTORE PUSH1 0x40 DUP2 KECCAK256 SLOAD DUP2 SWAP1 DUP2 JUMPDEST DUP2 DUP2 PUSH2 0xFFFF AND LT ISZERO PUSH2 0x1CD2 JUMPI PUSH1 0x0 DUP1 SLOAD PUSH1 0x1 PUSH1 0x1 PUSH1 0xA0 SHL SUB DUP8 DUP2 AND DUP4 MSTORE PUSH1 0x7 PUSH1 0x20 MSTORE PUSH1 0x40 SWAP1 SWAP3 KECCAK256 DUP1 SLOAD PUSH8 0xDE0B6B3A7640000 SWAP4 SWAP1 SWAP3 AND SWAP2 PUSH4 0x41976E09 SWAP2 SWAP1 PUSH2 0xFFFF DUP7 AND SWAP1 DUP2 LT PUSH2 0x1B6B JUMPI PUSH2 0x1B6B PUSH2 0x1F31 JUMP JUMPDEST PUSH1 0x0 SWAP2 DUP3 MSTORE PUSH1 0x20 SWAP1 SWAP2 KECCAK256 ADD SLOAD PUSH1 0x40 MLOAD PUSH1 0xE0 DUP4 SWAP1 SHL PUSH1 0x1 PUSH1 0x1 PUSH1 0xE0 SHL SUB NOT AND DUP2 MSTORE PUSH1 0x1 PUSH1 0x1 PUSH1 0xA0 SHL SUB SWAP1 SWAP2 AND PUSH1 0x4 DUP3 ADD MSTORE PUSH1 0x24 ADD PUSH1 0x20 PUSH1 0x40 MLOAD DUP1 DUP4 SUB DUP2 DUP7 GAS STATICCALL ISZERO DUP1 ISZERO PUSH2 0x1BBB JUMPI RETURNDATASIZE PUSH1 0x0 DUP1 RETURNDATACOPY RETURNDATASIZE PUSH1 0x0 REVERT JUMPDEST POP POP POP POP PUSH1 0x40 MLOAD RETURNDATASIZE PUSH1 0x1F NOT PUSH1 0x1F DUP3 ADD AND DUP3 ADD DUP1 PUSH1 0x40 MSTORE POP DUP2 ADD SWAP1 PUSH2 0x1BDF SWAP2 SWAP1 PUSH2 0x1E6E JUMP JUMPDEST PUSH1 0x1 PUSH1 0x1 PUSH1 0xA0 SHL SUB DUP8 AND PUSH1 0x0 SWAP1 DUP2 MSTORE PUSH1 0x9 PUSH1 0x20 SWAP1 DUP2 MSTORE PUSH1 0x40 DUP1 DUP4 KECCAK256 PUSH1 0x7 SWAP1 SWAP3 MSTORE DUP3 KECCAK256 DUP1 SLOAD SWAP2 SWAP3 SWAP2 PUSH2 0xFFFF DUP8 AND SWAP1 DUP2 LT PUSH2 0x1C1A JUMPI PUSH2 0x1C1A PUSH2 0x1F31 JUMP JUMPDEST PUSH1 0x0 SWAP2 DUP3 MSTORE PUSH1 0x20 DUP1 DUP4 KECCAK256 SWAP1 SWAP2 ADD SLOAD PUSH1 0x1 PUSH1 0x1 PUSH1 0xA0 SHL SUB SWAP1 DUP2 AND DUP5 MSTORE DUP4 DUP3 ADD SWAP5 SWAP1 SWAP5 MSTORE PUSH1 0x40 SWAP3 DUP4 ADD DUP3 KECCAK256 PUSH1 0x1 ADD SLOAD SWAP4 DUP12 AND DUP3 MSTORE PUSH1 0x9 DUP2 MSTORE DUP3 DUP3 KECCAK256 PUSH1 0x7 SWAP1 SWAP2 MSTORE SWAP2 DUP2 KECCAK256 DUP1 SLOAD PUSH2 0xFFFF DUP9 AND SWAP1 DUP2 LT PUSH2 0x1C71 JUMPI PUSH2 0x1C71 PUSH2 0x1F31 JUMP JUMPDEST PUSH1 0x0 SWAP2 DUP3 MSTORE PUSH1 0x20 DUP1 DUP4 KECCAK256 SWAP1 SWAP2 ADD SLOAD PUSH1 0x1 PUSH1 0x1 PUSH1 0xA0 SHL SUB AND DUP4 MSTORE DUP3 ADD SWAP3 SWAP1 SWAP3 MSTORE PUSH1 0x40 ADD SWAP1 KECCAK256 SLOAD PUSH2 0x1CA0 SWAP2 SWAP1 PUSH2 0x1EBC JUMP JUMPDEST PUSH2 0x1CAA SWAP2 SWAP1 PUSH2 0x1E9D JUMP JUMPDEST PUSH2 0x1CB4 SWAP2 SWAP1 PUSH2 0x1F0F JUMP JUMPDEST PUSH2 0x1CBE SWAP1 DUP5 PUSH2 0x1EBC JUMP JUMPDEST SWAP3 POP DUP1 PUSH2 0x1CCA DUP2 PUSH2 0x1F47 JUMP JUMPDEST SWAP2 POP POP PUSH2 0x1B19 JUMP JUMPDEST POP SWAP1 SWAP4 SWAP3 POP POP POP JUMP JUMPDEST PUSH1 0x0 DUP2 DUP4 LT PUSH2 0x1CEA JUMPI DUP2 PUSH2 0x132F JUMP JUMPDEST POP SWAP1 SWAP2 SWAP1 POP JUMP JUMPDEST DUP1 CALLDATALOAD PUSH1 0x1 PUSH1 0x1 PUSH1 0xA0 SHL SUB DUP2 AND DUP2 EQ PUSH2 0x1D08 JUMPI PUSH1 0x0 DUP1 REVERT JUMPDEST SWAP2 SWAP1 POP JUMP JUMPDEST PUSH1 0x0 PUSH1 0x20 DUP3 DUP5 SUB SLT ISZERO PUSH2 0x1D1F JUMPI PUSH1 0x0 DUP1 REVERT JUMPDEST PUSH2 0x132F DUP3 PUSH2 0x1CF1 JUMP JUMPDEST PUSH1 0x0 DUP1 PUSH1 0x40 DUP4 DUP6 SUB SLT ISZERO PUSH2 0x1D3B JUMPI PUSH1 0x0 DUP1 REVERT JUMPDEST PUSH2 0x1D44 DUP4 PUSH2 0x1CF1 JUMP JUMPDEST SWAP2 POP PUSH2 0x1D52 PUSH1 0x20 DUP5 ADD PUSH2 0x1CF1 JUMP JUMPDEST SWAP1 POP SWAP3 POP SWAP3 SWAP1 POP JUMP JUMPDEST PUSH1 0x0 DUP1 PUSH1 0x0 DUP1 PUSH1 0x80 DUP6 DUP8 SUB SLT ISZERO PUSH2 0x1D71 JUMPI PUSH1 0x0 DUP1 REVERT JUMPDEST DUP5 CALLDATALOAD SWAP4 POP PUSH2 0x1D81 PUSH1 0x20 DUP7 ADD PUSH2 0x1CF1 JUMP JUMPDEST SWAP3 POP PUSH1 0x40 DUP6 ADD CALLDATALOAD SWAP2 POP PUSH2 0x1D96 PUSH1 0x60 DUP7 ADD PUSH2 0x1CF1 JUMP JUMPDEST SWAP1 POP SWAP3 SWAP6 SWAP2 SWAP5 POP SWAP3 POP JUMP JUMPDEST PUSH1 0x0 DUP1 PUSH1 0x40 DUP4 DUP6 SUB SLT ISZERO PUSH2 0x1DB4 JUMPI PUSH1 0x0 DUP1 REVERT JUMPDEST DUP3 CALLDATALOAD SWAP2 POP PUSH2 0x1D52 PUSH1 0x20 DUP5 ADD PUSH2 0x1CF1 JUMP JUMPDEST PUSH1 0x0 DUP1 PUSH1 0x40 DUP4 DUP6 SUB SLT ISZERO PUSH2 0x1DD7 JUMPI PUSH1 0x0 DUP1 REVERT JUMPDEST PUSH2 0x1DE0 DUP4 PUSH2 0x1CF1 JUMP JUMPDEST SWAP5 PUSH1 0x20 SWAP4 SWAP1 SWAP4 ADD CALLDATALOAD SWAP4 POP POP POP JUMP JUMPDEST PUSH1 0x0 PUSH1 0x20 DUP3 DUP5 SUB SLT ISZERO PUSH2 0x1E00 JUMPI PUSH1 0x0 DUP1 REVERT JUMPDEST POP CALLDATALOAD SWAP2 SWAP1 POP JUMP JUMPDEST PUSH1 0x0 DUP1 PUSH1 0x0 PUSH1 0x60 DUP5 DUP7 SUB SLT ISZERO PUSH2 0x1E1C JUMPI PUSH1 0x0 DUP1 REVERT JUMPDEST PUSH2 0x1E25 DUP5 PUSH2 0x1CF1 JUMP JUMPDEST SWAP3 POP PUSH1 0x20 DUP5 ADD CALLDATALOAD SWAP2 POP PUSH1 0x40 DUP5 ADD CALLDATALOAD DUP1 ISZERO ISZERO DUP2 EQ PUSH2 0x1E41 JUMPI PUSH1 0x0 DUP1 REVERT JUMPDEST DUP1 SWAP2 POP POP SWAP3 POP SWAP3 POP SWAP3 JUMP JUMPDEST PUSH1 0x0 DUP1 PUSH1 0x40 DUP4 DUP6 SUB SLT ISZERO PUSH2 0x1E5F JUMPI PUSH1 0x0 DUP1 REVERT JUMPDEST POP POP DUP1 CALLDATALOAD SWAP3 PUSH1 0x20 SWAP1 SWAP2 ADD CALLDATALOAD SWAP2 POP JUMP JUMPDEST PUSH1 0x0 PUSH1 0x20 DUP3 DUP5 SUB SLT ISZERO PUSH2 0x1E80 JUMPI PUSH1 0x0 DUP1 REVERT JUMPDEST POP MLOAD SWAP2 SWAP1 POP JUMP JUMPDEST PUSH4 0x4E487B71 PUSH1 0xE0 SHL PUSH1 0x0 MSTORE PUSH1 0x11 PUSH1 0x4 MSTORE PUSH1 0x24 PUSH1 0x0 REVERT JUMPDEST PUSH1 0x0 DUP2 PUSH1 0x0 NOT DIV DUP4 GT DUP3 ISZERO ISZERO AND ISZERO PUSH2 0x1EB7 JUMPI PUSH2 0x1EB7 PUSH2 0x1E87 JUMP JUMPDEST POP MUL SWAP1 JUMP JUMPDEST PUSH1 0x0 DUP3 NOT DUP3 GT ISZERO PUSH2 0x1ECF JUMPI PUSH2 0x1ECF PUSH2 0x1E87 JUMP JUMPDEST POP ADD SWAP1 JUMP JUMPDEST PUSH1 0x1 PUSH1 0x1 PUSH1 0xA0 SHL SUB SWAP4 DUP5 AND DUP2 MSTORE SWAP2 SWAP1 SWAP3 AND PUSH1 0x20 DUP3 ADD MSTORE PUSH1 0x40 DUP2 ADD SWAP2 SWAP1 SWAP2 MSTORE PUSH1 0x60 ADD SWAP1 JUMP JUMPDEST PUSH1 0x0 DUP3 DUP3 LT ISZERO PUSH2 0x1F0A JUMPI PUSH2 0x1F0A PUSH2 0x1E87 JUMP JUMPDEST POP SUB SWAP1 JUMP JUMPDEST PUSH1 0x0 DUP3 PUSH2 0x1F2C JUMPI PUSH4 0x4E487B71 PUSH1 0xE0 SHL PUSH1 0x0 MSTORE PUSH1 0x12 PUSH1 0x4 MSTORE PUSH1 0x24 PUSH1 0x0 REVERT JUMPDEST POP DIV SWAP1 JUMP JUMPDEST PUSH4 0x4E487B71 PUSH1 0xE0 SHL PUSH1 0x0 MSTORE PUSH1 0x32 PUSH1 0x4 MSTORE PUSH1 0x24 PUSH1 0x0 REVERT JUMPDEST PUSH1 0x0 PUSH2 0xFFFF DUP1 DUP4 AND DUP2 DUP2 EQ ISZERO PUSH2 0x1F5F JUMPI PUSH2 0x1F5F PUSH2 0x1E87 JUMP JUMPDEST PUSH1 0x1 ADD SWAP4 SWAP3 POP POP POP JUMP INVALID LOG2 PUSH5 0x6970667358 0x22 SLT KECCAK256 0x28 0xE6 PUSH12 0x6709559308A5F0F80A54CB05 SWAP10 0xBC DUP11 CALLVALUE 0xB5 PUSH24 0x1895140D7B21589B40991764736F6C634300080B00330000 ","sha1":"5d1dce9c9d5fd198f9eac4e8c8d36301a88406aa","source":"// SPDX-License-Identifier: MIT\n\npragma solidity ^0.8.0;\n\nimport \"@openzeppelin/contracts/utils/math/SafeMath.sol\";\nimport \"@openzeppelin/contracts/token/ERC20/IERC20.sol\";\nimport \"./Math.sol\";\nimport \"./2_Pool.sol\";\nimport \"./3_Collateral.sol\";\nimport \"./LVRToken.sol\";\nimport \"./Conversion.sol\";\n\ncontract LendingPool {\n    using SafeMath for uint256;\n    using Math for uint256;\n    Conversion public conversion;\n\n    event depositEvent(address _user, uint256 _quantity, address _asset);\n    event borrowEvent(\n        address _user,\n        uint256 _borrowed,\n        address _borrowedAsset,\n        uint256 _collateral,\n        address _collateralAsset\n    );\n\n    //public keyword??\n    Pool public pool;\n    Collateral public collateral;\n    address owner;\n    LVRToken public token;\n    // right now only mapping to amount borrowed and in what currency\n\n    mapping(address => mapping(address => uint256)) userColl;\n\n    mapping(address => uint256) lenderTokenTracker;\n\n    //array to track what asset addresses user borrowed\n    mapping(address => address[]) userBorrowCurrencies;\n    // account for double borrrow\n    mapping(address => mapping(address => bool)) initializedBorrowCurrencyTracker;\n\n    struct borrowAmountTracker {\n        uint256 principal;\n        uint256 interest; // need to update this through the contract\n    } // update everything to fit this including below\n    mapping(address => mapping(address => borrowAmountTracker))\n        public borrowTracker;\n\n    //track users\n    address[] public borrowerAddresses;\n    //mapping to make sure no double adding:\n    mapping(address => bool) initializedBorrowerTracker;\n\n    constructor() {\n        pool = new Pool();\n        token = new LVRToken(\"TestToken\", \"TST\", address(pool));\n        collateral = new Collateral(address(pool), address(token));\n        conversion = new Conversion();\n        owner = msg.sender;\n    }\n\n    modifier onlyOwner() {\n        require(msg.sender == owner);\n        _;\n    }\n\n    function Deposit(uint256 _quantity, address _asset) public {\n        // uint256 _borrowNow? why not bool?\n        require(_quantity > 0, \"deposit must be positive\");\n        uint256 tokenQuantity = token.mint(msg.sender, _quantity, _asset);\n        lenderTokenTracker[msg.sender] += tokenQuantity;\n        pool.depositTransfer(msg.sender, _asset, _quantity);\n\n        // // borrowNow should be amount borrowed\n        // if (_borrowNow > 0) {\n        //     uint256 usedCollateral = _quantity - collateral.collReq()*_borrowNow;\n        //     Borrow(_borrowNow, address)\n        // }\n\n        //emit depositEvent(msg.sender, _quantity, _asset);\n    }\n\n    // //withdraw based on asset quantity desired\n    // function Withdraw(address _desiredAsset, uint256 _amountToRemove) public {\n    //     uint256 assetPriceUSD = conversion.getPrice(_desiredAsset);\n\n    //     //check if enough liquid to send\n    //     require(\n    //         _amountToRemove <= pool.getLiquidQuantity(_desiredAsset),\n    //         \"User cannot redeem more than the available balance\"\n    //     ); // future this will only check to see if we have any liquid - engine will swap currencies to allow user to withdraw anything they want.\n\n    //     // total value of currency redeemable by user\n    //     uint256 totalAssetValueFromOwnedTokens = ((token.balanceOf(msg.sender) *\n    //         token.tokenDollarValue()) / assetPriceUSD); // Units: N token * USD/token / USD/currency = N currency\n\n    //     // check that the user is allowed to redeem the amount\n    //     // seems to be some precision errors\n    //     require(\n    //         (totalAssetValueFromOwnedTokens >= _amountToRemove),\n    //         \"Cannot redeem more tokens than number owned\"\n    //     );\n\n    //     uint256 burnNumber = ((assetPriceUSD * _amountToRemove) /\n    //         token.tokenDollarValue()); // Units: USD/currecny * N currency / (USD/token) = N token\n\n    //     lenderTokenTracker[msg.sender] -= burnNumber;\n    //     if (lenderTokenTracker[msg.sender] == 0) {\n    //         delete lenderTokenTracker[msg.sender];\n    //     }\n    //     pool.withdrawTransfer(msg.sender, _desiredAsset, _amountToRemove);\n    //     token.burn(msg.sender, burnNumber);\n    // }\n\n    //////////////// function if we want to withdraw based on LVR token quanitity//////////////////\n    function Withdraw(address _desiredAsset, uint256 _tokenQuantity) public {\n        uint256 assetPriceUSD = conversion.getPrice(_desiredAsset);\n\n        // total value of currency redeemable by user\n        uint256 totalAssetFromTokens = ((_tokenQuantity *\n            token.tokenDollarValue()) / assetPriceUSD); // Units: N token * USD/token / USD/currency = N currency\n\n        //check if enough liquid to send\n        require(\n            totalAssetFromTokens <= pool.getLiquidQuantity(_desiredAsset),\n            \"User cannot redeem more than the available balance\"\n        ); // future this will only check to see if we have any liquid - engine will swap currencies to allow user to withdraw anything they want.\n\n        // check that the user is allowed to redeem the amount\n        require(\n            (token.balanceOf(msg.sender) >= _tokenQuantity),\n            \"Cannot redeem more tokens than number owned\"\n        );\n\n        lenderTokenTracker[msg.sender] -= _tokenQuantity;\n        if (lenderTokenTracker[msg.sender] == 0) {\n            delete lenderTokenTracker[msg.sender];\n        }\n        pool.withdrawTransfer(msg.sender, _desiredAsset, totalAssetFromTokens);\n        token.burn(msg.sender, _tokenQuantity);\n    }\n\n    //this will have to also transfer LVR if they wont to borrow against that.\n    // what about choosing collateral to borrrow against.\n    function Borrow(\n        uint256 _borrowQuantity,\n        address _asset,\n        uint256 _collateralQuantity,\n        address _collateral\n    ) public {\n        // check if deposited collateral + outstanding collateral is enough to cover thier borrow request\n        uint256 usdCollateralValue = (conversion.getPrice(_collateral) *\n            _collateralQuantity) + collateral.collateralValue(msg.sender);\n        uint256 usdBorrowValue = conversion.getPrice(_asset) *\n            _borrowQuantity +\n            totalValueBorrowed(msg.sender);\n\n        require(\n            usdCollateralValue >= usdBorrowValue * collateral.collReq(),\n            \"not enough collateral to borrow\"\n        );\n        collateral.depositCollateral(\n            msg.sender,\n            _collateral,\n            _collateralQuantity\n        );\n        pool.borrowTransfer(msg.sender, _asset, _borrowQuantity);\n\n        emit borrowEvent(\n            msg.sender,\n            _borrowQuantity,\n            _asset,\n            _collateralQuantity,\n            _collateral\n        );\n        // ledger here or in Pool contract?? there is one in collat, so maybe here just track amount borrowed\n\n        borrowTracker[msg.sender][_asset].principal += _borrowQuantity;\n\n        //only add asset ot user's array if it doesnt exist there already\n        if (!initializedBorrowCurrencyTracker[msg.sender][_asset]) {\n            userBorrowCurrencies[msg.sender].push(_asset);\n            initializedBorrowCurrencyTracker[msg.sender][_asset] = true;\n        }\n\n        //only add to array if user doesnt exist already\n        if (!initializedBorrowerTracker[msg.sender]) {\n            borrowerAddresses.push(msg.sender);\n            initializedBorrowerTracker[msg.sender] = true;\n        }\n    }\n\n    // User repays loan by specifying the asset they are giving back and how much\n    function Repay(address _asset, uint256 _repayQuantity) public {\n        //cant return more than borrowed\n        require(\n            (borrowTracker[msg.sender][_asset].principal +\n                borrowTracker[msg.sender][_asset].interest) >= _repayQuantity,\n            \"Returned more than borrowed\"\n        );\n\n        //remove principal first, then interest balance upose repayment\n        uint256 principal_portion = minimum(\n            _repayQuantity,\n            borrowTracker[msg.sender][_asset].principal\n        ); //  sub1 = min(repayment, principal)\n        uint256 interest_portion = (_repayQuantity - principal_portion); //  interest_portion  = repayment - sub1\n        //this after principal_portion and interest_portion so we can subtract this from brwQty in Pool.sol\n        pool.repayTransfer(\n            msg.sender,\n            _asset,\n            _repayQuantity,\n            principal_portion,\n            interest_portion\n        );\n\n        borrowTracker[msg.sender][_asset].principal -= principal_portion; //  subtract that from principal so that it goes to zero\n        borrowTracker[msg.sender][_asset].interest -= interest_portion; //  subtract interest_portion from interest\n\n        if (borrowTracker[msg.sender][_asset].principal == 0) {\n            delete borrowTracker[msg.sender][_asset].principal;\n        }\n        if (borrowTracker[msg.sender][_asset].interest == 0) {\n            delete borrowTracker[msg.sender][_asset].interest;\n        }\n    }\n\n    function unlockCollateral(\n        address _asset,\n        uint256 _quantity,\n        bool _toPool\n    ) public {\n        //check if they have loan value less than collat value/collatQtyReq\n        require(\n            (collateral.collateralValue(msg.sender) -\n                ((conversion.getPrice(_asset) * _quantity) / (1 * 10**18))) >=\n                collateral.collReq() * totalValueBorrowed(msg.sender),\n            \"Cannot withdraw collateral before paying back loan\"\n        );\n        //integrate fees here?- trasnfer collateral minus how much they owe us\n        uint256 collateralDeposited = collateral.userCollateral(\n            _asset,\n            msg.sender\n        );\n\n        require(\n            _quantity <= collateralDeposited,\n            \"Redeeming more collateral than deposited\"\n        );\n\n        collateral.removeCollateral(msg.sender, _asset, _quantity, _toPool);\n        if (_toPool == true) {\n            uint256 tokenQuantity = token.mint(msg.sender, _quantity, _asset);\n            lenderTokenTracker[msg.sender] += tokenQuantity;\n        }\n    }\n\n    function accrueInterest() public {\n        uint256 numUsers = borrowerAddresses.length;\n        for (uint16 i = 0; i < numUsers; i++) {\n            address userAddress = borrowerAddresses[i];\n            uint256 numAssets = userBorrowCurrencies[userAddress].length;\n\n            for (uint16 j = 0; j < numAssets; j++) {\n                borrowTracker[userAddress][userBorrowCurrencies[userAddress][j]]\n                    .interest += ((pool.InterestRate(\n                    userBorrowCurrencies[userAddress][j]\n                ) *\n                    borrowTracker[userAddress][\n                        userBorrowCurrencies[userAddress][j]\n                    ].principal) / (1 * 10**18));\n            }\n            //better to have [asse][msg.sedner] instaed? makes finding individual's stats impossible\n        }\n    }\n\n    function payoutInterest() public {\n        /*\n        Note:  asset is already in pool from repay\n                -need to track the interest value\n                -reset interst value to 0 upon payout\n        How: when you repay, your principle is added to liquidity, and interst is stored in another variable\n        upon transfer, token are minted interest is added to liduidity\n        so in calculating pool value, liquidity shoudl be used, not balance of contract itself. \n\n        Pool:\n        1) total amount of asset lent\n        2) how much each person lent of that asset\n        3) ratio of those (call it r1) is how much of interest they get\n        \n        For each person:\n        1) list of lenders\n        2) how much they lent in lVR\n        3) current number of LVR\n        4) ratio of those(call it r2) is what they get of thier cut\n        5) multiply r1*r2 to get total asset receiving \n        6) mint LVR for the value of r1*r2\n\n\n        for asset:\n            t = total asset lent\n            for lenders of [asset]:\n                num= r2 * amount lent[lender]/t\n                mint(user, num, asset)\n         */\n        // retainedTokenRation =\n        //     token.getBalanceOf(lenders[i]) /\n        //     lenderTokenTracker[lenders[i]];\n    }\n\n    function totalValueBorrowed(address _borrower)\n        public\n        view\n        returns (uint256)\n    {\n        uint256 totalBorrowValue = 0;\n\n        // make this less bits?\n        uint256 numberAddresses = userBorrowCurrencies[_borrower].length;\n        //loop to calculate the value of the pool liquid + borrowed\n        for (uint16 i = 0; i < numberAddresses; i++) {\n            totalBorrowValue =\n                totalBorrowValue +\n                (((borrowTracker[_borrower][userBorrowCurrencies[_borrower][i]]\n                    .principal +\n                    borrowTracker[_borrower][userBorrowCurrencies[_borrower][i]]\n                        .interest) *\n                    conversion.getPrice(userBorrowCurrencies[_borrower][i])) /\n                    (1 * 10**18));\n        }\n        return totalBorrowValue;\n    }\n\n    function quantityBorrowed(address _user, address _asset)\n        public\n        view\n        returns (uint256)\n    {\n        return borrowTracker[_user][_asset].interest;\n    }\n\n    /*\n    how lending works: \n    -repaying loan involves returning borrowed asset quantity\n    -interest still needs to be figured out; \n        -interst valued in USD and translated to coin?\n        -percent of coin borrowed?\n    -paying interest will be keeping a piece of thier collat\n    -paying out to lenders will involve minting LVR and giving them lvr while adding asset to pool\n    */\n\n    function offerCollateralAssets() public {\n        // just needs to check with the pool to see what assets we can offer\n        //users to use as collateral - called when borrowing (if they deposit\n        //LVR and want to use something else)\n        // to do this we probably need to come up with some reserve rules, etc\n    }\n\n    function getInterestRate(address _asset) public view returns (uint256) {\n        return pool.InterestRate(_asset);\n    }\n\n    function minimum(uint256 a, uint256 b) public pure returns (uint256) {\n        return a.min(b);\n    }\n\n    function getLiquidity(address _token) public view returns (uint256) {\n        return pool.getLiquidQuantity(_token);\n    }\n\n    function getPoolBalance(address _token) public view returns (uint256) {\n        return pool.getBalance(_token);\n    }\n\n    function getLiquidPct(address _token) public view returns (uint256) {\n        return pool.getLiquidPct(_token);\n    }\n\n    function getLockedCollateral(address _token) public view returns (uint256) {\n        return collateral.getCollateralQuantity(_token);\n    }\n\n    function getCollBalance(address _token) public view returns (uint256) {\n        return collateral.getBalance(_token);\n    }\n\n    function getPoolAddr() public view returns (address) {\n        return address(pool);\n    }\n\n    function getCollAddr() public view returns (address) {\n        return address(collateral);\n    }\n\n    function getTokenAddr() public view returns (address) {\n        return address(token);\n    }\n\n    function getTokenDollarValue() public view returns (uint256) {\n        return token.tokenDollarValue();\n    }\n\n    function getPoolValue() public view returns (uint256) {\n        return token.totalPoolValue();\n    }\n\n    function getTotalSupply() public view returns (uint256) {\n        return token.totalSupply();\n    }\n\n    function getBalanceOf(address _user) public view returns (uint256) {\n        return token.balanceOf(_user);\n    }\n\n    function getCollateralValue(address _user) public view returns (uint256) {\n        return collateral.collateralValue(_user);\n    }\n\n    function getOutstandingLoan(address _user, address _asset)\n        public\n        view\n        returns (uint256)\n    {\n        return (borrowTracker[_user][_asset].principal +\n            borrowTracker[_user][_asset].interest);\n    }\n\n    function getUserCollateral(address _user, address _asset)\n        public\n        view\n        returns (uint256)\n    {\n        return collateral.userCollateral(_asset, _user);\n    }\n}\n","sourcePath":"contracts/1_LendingPool.sol","deployment":{"address":"0xc072D9A2365EeCc0A3CE5524f1c37DC08EC3394B","chainid":"4","blockHeight":10125953}}