{"bytecode":"6080604052426000553480156200001557600080fd5b50604051620000249062000358565b604051809103906000f08015801562000041573d6000803e3d6000fd5b50600280546001600160a01b0319166001600160a01b039290921691821790556040516200006f9062000366565b6060808252600a90820152692632bb32b92a37b5b2b760b11b608082015260a060208201819052600490820152632622ab2960e11b60c08201526001600160a01b03909116604082015260e001604051809103906000f080158015620000d9573d6000803e3d6000fd5b50600480546001600160a01b0319166001600160a01b039283169081179091556002546040519216916200010d9062000374565b6001600160a01b03928316815291166020820152604001604051809103906000f08015801562000141573d6000803e3d6000fd5b50600580546001600160a01b0319166001600160a01b03928316908117909155600254600454604051918416931691906200017c9062000382565b6001600160a01b03938416815291831660208301529091166040820152606001604051809103906000f080158015620001b9573d6000803e3d6000fd5b50600380546001600160a01b0319166001600160a01b0392909216919091179055604051620001e89062000390565b604051809103906000f08015801562000205573d6000803e3d6000fd5b50600180546001600160a01b03929092166001600160a01b0319928316178155600680548316331790556008805480830182557ff3f7a9fe364faab93b216da50a3214154f22a0a2b415b23a84c8169e8b636ee3908101805485167301be23585060835e02b77ef475b0cc51aa1e070917905560096020527fcc0bf5f4d9761deee66881a6260b6454895ca4329b6f7c3694961473e083af43805460ff19908116851790915582548085018455820180548616735592ec0cfb4dbc12d3ab100b257153436a1f0fea1790557ffdd75defc6cad45ceef180714cc439b3f383cef52a5494e45927dd6580a47b2e805482168517905582548085019093559101805490931673c778417e063141139fce010982780140aa0cd5ab9081179093556000929092527f686c5876b745fa1fae10e8c872b47bc562bef5175dea5f2798067831d8c97ee980549092161790556200039e565b611558806200399783390190565b6121358062004eef83390190565b610a30806200702483390190565b6113af8062007a5483390190565b6103b38062008e0383390190565b6135e980620003ae6000396000f3fe608060405234801561001057600080fd5b50600436106102535760003560e01c806397904e4211610146578063cd3293de116100c3578063dd2d2a1211610087578063dd2d2a1214610530578063de25924214610543578063de30f97d14610554578063f2df757b14610567578063fac8aff81461057a578063fc0c546a146105a357600080fd5b8063cd3293de146104d1578063d28682ea146104e4578063d3ea0f89146104f7578063d49ab22c1461050a578063d8dfeb451461051d57600080fd5b8063a78e40461161010a578063a78e404614610453578063b9e037e614610466578063c0abb17914610479578063c0f2b1cf1461048c578063c4e41b22146104c957600080fd5b806397904e42146103f45780639b96eece146104075780639feea54f1461041a578063a55e86681461042d578063a747b93b1461044057600080fd5b8063511c5661116101d45780636858ea07116101985780636858ea071461036c5780636aaa434e1461037f5780636db18093146103c6578063884edad9146103ce5780639311ca69146103e157600080fd5b8063511c566114610311578063582b2720146103245780635c16de4f146103355780635c88f5a51461034857806363e36dac1461035b57600080fd5b80632273323f1161021b5780632273323f146102d9578063243d8e05146102e15780632d5562a0146102e357806346c928fc146102eb5780634bcc1709146102fe57600080fd5b8063057393c014610258578063090fe0961461027e57806316f0115b146102915780631ba2f531146102bc5780631ef3a04c146102c4575b600080fd5b61026b610266366004613284565b6105b6565b6040519081526020015b60405180910390f35b61026b61028c36600461329f565b61062c565b6002546102a4906001600160a01b031681565b6040516001600160a01b039091168152602001610275565b61026b6106b8565b6102cc610736565b60405161027591906132cb565b6102e1610ccc565b005b61026b6111af565b6102e16102f9366004613320565b611202565b6102e161030c366004613366565b611852565b61026b61031f366004613284565b611b0d565b6004546001600160a01b03166102a4565b6102e1610343366004613392565b611b40565b61026b610356366004613284565b611e29565b6003546001600160a01b03166102a4565b6102e161037a366004613392565b611e5c565b6103b161038d3660046133bc565b600a6020908152600092835260408084209091529082529020805460019091015482565b60408051928352602083019190915201610275565b61026b611edd565b6102e16103dc366004613392565b611f32565b6001546102a4906001600160a01b031681565b61026b610402366004613284565b612570565b61026b610415366004613284565b6125a3565b6102e1610428366004613284565b6125db565b61026b61043b3660046133bc565b612759565b61026b61044e366004613284565b6127d7565b61026b6104613660046133bc565b61280a565b6102e16104743660046133e6565b612842565b61026b61048736600461329f565b612db4565b61026b61049a3660046133bc565b6001600160a01b038082166000908152600a602090815260408083209386168352929052206001015492915050565b61026b612e23565b6005546102a4906001600160a01b031681565b61026b6104f2366004613284565b612e78565b61026b610505366004613284565b612eab565b61026b610518366004613284565b612ee9565b6003546102a4906001600160a01b031681565b61026b61053e36600461342b565b612f1c565b6002546001600160a01b03166102a4565b61026b610562366004613284565b612f28565b61026b610575366004613284565b612f5b565b61026b610588366004613284565b6001600160a01b031660009081526007602052604090205490565b6004546102a4906001600160a01b031681565b60035460405163f8b2cb4f60e01b81526001600160a01b038381166004830152600092169063f8b2cb4f906024015b602060405180830381865afa158015610602573d6000803e3d6000fd5b505050506040513d601f19601f82011682018060405250810190610626919061344d565b92915050565b600080670de0b6b3a764000085610643828761347c565b61064d9190613493565b61065791906134b2565b83670de0b6b3a764000061066b8789613493565b61067591906134b2565b61067f919061347c565b610691906716345785d8a00000613493565b61069b91906134b2565b90506106af81670de0b6b3a764000061347c565b95945050505050565b6000600460009054906101000a90046001600160a01b03166001600160a01b0316638a02775b6040518163ffffffff1660e01b8152600401602060405180830381865afa15801561070d573d6000803e3d6000fd5b505050506040513d601f19601f82011682018060405250810190610731919061344d565b905090565b600e546008546060919060005b828161ffff161015610cc6576000600e8261ffff1681548110610768576107686134d4565b60009182526020822001546003546040516301fcd2d560e01b81526001600160a01b039283166004820181905294509116906301fcd2d590602401602060405180830381865afa1580156107c0573d6000803e3d6000fd5b505050506040513d601f19601f820116820180604052508101906107e4919061344d565b905060006107f183612f5b565b905080821015610c6e5760005b858161ffff161015610c2c57600060088261ffff1681548110610823576108236134d4565b60009182526020822001546003546040516306829f1b60e31b81526001600160a01b03928316600482018190529450911690633414f8d890602401602060405180830381865afa15801561087b573d6000803e3d6000fd5b505050506040513d601f19601f8201168201806040525081019061089f919061344d565b905060006108ae85838861062c565b905060006108bd868489612db4565b6001600160a01b038086166000908152600a60209081526040808320938d168352929052205490915015158061091a57506001600160a01b038085166000908152600a60209081526040808320938c168352929052206001015415155b15610a96576001600160a01b038481166000908152600a60209081526040808320938c168352929052908120805460019091015461095891906134ea565b61096a84670de0b6b3a764000061347c565b6109749190613493565b6001600160a01b038087166000908152600a60209081526040808320938e1683529290522060010154909150670de0b6b3a7640000906109b5908590613493565b6109bf91906134b2565b6001600160a01b038681166000908152600a60209081526040808320938e16835292905220600181019190915554670de0b6b3a764000090610a02908590613493565b610a0c91906134b2565b6001600160a01b038681166000818152600a602090815260408083208f8616845290915290819020939093556005549251635ea5801760e11b815260048101919091526024810184905291169063bd4b002e90604401600060405180830381600087803b158015610a7c57600080fd5b505af1158015610a90573d6000803e3d6000fd5b50505050505b600354604051632b92a07d60e01b81526001600160a01b038a8116600483015286811660248301526000921690632b92a07d90604401602060405180830381865afa158015610ae9573d6000803e3d6000fd5b505050506040513d601f19601f82011682018060405250810190610b0d919061344d565b1115610c1557600354604051632b92a07d60e01b81526001600160a01b038a811660048301528681166024830152600092670de0b6b3a764000092859290911690632b92a07d90604401602060405180830381865afa158015610b74573d6000803e3d6000fd5b505050506040513d601f19601f82011682018060405250810190610b98919061344d565b610ba29190613493565b610bac91906134b2565b60035460405163012772bb60e51b81529192506001600160a01b0316906324ee576090610be1908c9089908690600401613502565b600060405180830381600087803b158015610bfb57600080fd5b505af1158015610c0f573d6000803e3d6000fd5b50505050505b505050508080610c2490613526565b9150506107fe565b506040518060400160405280601981526020017f4c6f616e205061727469616c6c79204c69717569646174656400000000000000815250965050505050505090565b6064610c7b826069613493565b610c8591906134b2565b821015610cb0576040518060600160405280603e8152602001613576603e9139965050505050505090565b5050508080610cbe90613526565b915050610743565b50505090565b610cd4613088565b60085460005b818161ffff1610156111ab57600060088261ffff1681548110610cff57610cff6134d4565b600091825260208220015460025460405163662128f360e11b81526001600160a01b0392831660048201819052945091169063cc4251e690602401602060405180830381865afa158015610d57573d6000803e3d6000fd5b505050506040513d601f19601f82011682018060405250810190610d7b919061344d565b600254604051635c88f5a560e01b81526001600160a01b03858116600483015292935060009290911690635c88f5a590602401602060405180830381865afa158015610dcb573d6000803e3d6000fd5b505050506040513d601f19601f82011682018060405250810190610def919061344d565b6001600160a01b0384166000908152601060205260408120549192505b818161ffff161015611134576001600160a01b0385166000908152601060205260408120805461ffff8416908110610e4657610e466134d4565b600091825260209091200154600480546040516370a0823160e01b81526001600160a01b03938416928101839052919350662386f26fc100009216906370a0823190602401602060405180830381865afa158015610ea8573d6000803e3d6000fd5b505050506040513d601f19601f82011682018060405250810190610ecc919061344d565b1015610f0b576001600160a01b0380821660009081526007602090815260408083208390559289168252600b8152828220338352905290812055611121565b6001600160a01b03818116600081815260076020526040808220546004805492516370a0823160e01b815290810194909452919391929116906370a0823190602401602060405180830381865afa158015610f6a573d6000803e3d6000fd5b505050506040513d601f19601f82011682018060405250810190610f8e919061344d565b610fa090670de0b6b3a7640000613493565b610faa91906134b2565b6001600160a01b038089166000908152600b60209081526040808320938716835292905290812054919250908790610fea90670de0b6b3a7640000613493565b610ff491906134b2565b905060006ec097ce7bc90715b34b9f1000000000876110138486613493565b61101d9190613493565b61102791906134b2565b60048054604051630d4d151360e01b81526001600160a01b0388811693820193909352602481018490528c83166044820152929350600092911690630d4d1513906064016020604051808303816000875af115801561108a573d6000803e3d6000fd5b505050506040513d601f19601f820116820180604052508101906110ae919061344d565b6001600160a01b0386166000908152600760205260408120805492935083929091906110db9084906134ea565b90915550506001600160a01b03808b166000908152600b60209081526040808320938916835292905290812080548492906111179084906134ea565b9091555050505050505b508061112c81613526565b915050610e0c565b506002546040516323d0aab160e01b81526001600160a01b038681166004830152909116906323d0aab190602401600060405180830381600087803b15801561117c57600080fd5b505af1158015611190573d6000803e3d6000fd5b505050505050505080806111a390613526565b915050610cda565b5050565b6002546000805460405163a150fb5f60e01b815291926001600160a01b03169163a150fb5f916111e59160040190815260200190565b602060405180830381865afa15801561070d573d6000803e3d6000fd5b6001600160a01b03831660009081526009602052604090205460ff166112435760405162461bcd60e51b815260040161123a90613548565b60405180910390fd5b6001600160a01b03811660009081526009602052604090205460ff1661127b5760405162461bcd60e51b815260040161123a90613548565b60025460405163fce3e8e760e01b81526001600160a01b0385811660048301529091169063fce3e8e790602401602060405180830381865afa1580156112c5573d6000803e3d6000fd5b505050506040513d601f19601f820116820180604052508101906112e9919061344d565b8411156113385760405162461bcd60e51b815260206004820152601e60248201527f6e6f7420656e6f756768206c697175696469747920746f20626f72726f770000604482015260640161123a565b611340613088565b6003546040516301fcd2d560e01b81523360048201526000916001600160a01b0316906301fcd2d590602401602060405180830381865afa158015611389573d6000803e3d6000fd5b505050506040513d601f19601f820116820180604052508101906113ad919061344d565b6003546040516306829f1b60e31b81526001600160a01b03858116600483015290911690633414f8d890602401602060405180830381865afa1580156113f7573d6000803e3d6000fd5b505050506040513d601f19601f8201168201806040525081019061141b919061344d565b6001546040516341976e0960e01b81526001600160a01b038681166004830152879216906341976e0990602401602060405180830381865afa158015611465573d6000803e3d6000fd5b505050506040513d601f19601f82011682018060405250810190611489919061344d565b6114939190613493565b61149d91906134b2565b6114a791906134ea565b905060006114b433612f5b565b6001546040516341976e0960e01b81526001600160a01b038881166004830152670de0b6b3a7640000928a929116906341976e0990602401602060405180830381865afa158015611509573d6000803e3d6000fd5b505050506040513d601f19601f8201168201806040525081019061152d919061344d565b6115379190613493565b61154191906134b2565b61154b91906134ea565b90508082101561159d5760405162461bcd60e51b815260206004820152601f60248201527f6e6f7420656e6f75676820636f6c6c61746572616c20746f20626f72726f7700604482015260640161123a565b60035460405163f970c3b760e01b81526001600160a01b039091169063f970c3b7906115d190339087908990600401613502565b600060405180830381600087803b1580156115eb57600080fd5b505af11580156115ff573d6000803e3d6000fd5b505060025460405163fc4f78b960e01b81526001600160a01b03909116925063fc4f78b9915061163790339089908b90600401613502565b600060405180830381600087803b15801561165157600080fd5b505af1158015611665573d6000803e3d6000fd5b505060408051338152602081018a90526001600160a01b0389811682840152606082018990528716608082015290517fea8631408d071cdc565dfa37dcb32450c4c85ee9a4142ed14df1387d7c2a432793509081900360a0019150a16001600160a01b0385166000908152600a60209081526040808320338452909152812080548892906116f49084906134ea565b90915550506001600160a01b0385166000908152600d6020908152604080832033845290915290205460ff16611781576001600160a01b0385166000818152600c602090815260408083208054600181810183559185528385200180546001600160a01b03191633908117909155948452600d8352818420948452939091529020805460ff191690911790555b336000908152600f602052604090205460ff166117f357600e805460018181019092557fbb7b4a454dc3493923482f07822329ed19e8244eff582cc204f8554c3620c3fd0180546001600160a01b031916339081179091556000908152600f60205260409020805460ff191690911790555b60408051338152602081018890526001600160a01b0387811682840152606082018790528516608082015290517fea8631408d071cdc565dfa37dcb32450c4c85ee9a4142ed14df1387d7c2a43279181900360a00190a1505050505050565b6001600160a01b03811660009081526009602052604090205460ff16151560011461188f5760405162461bcd60e51b815260040161123a90613548565b611897613088565b600082116118e75760405162461bcd60e51b815260206004820152601860248201527f6465706f736974206d75737420626520706f7369746976650000000000000000604482015260640161123a565b60048054604051630d4d151360e01b81523392810192909252602482018490526001600160a01b038381166044840152600092911690630d4d1513906064016020604051808303816000875af1158015611945573d6000803e3d6000fd5b505050506040513d601f19601f82011682018060405250810190611969919061344d565b3360009081526007602052604081208054929350839290919061198d9084906134ea565b9091555050600254604051631740ecaf60e11b81526001600160a01b0390911690632e81d95e906119c690339086908890600401613502565b600060405180830381600087803b1580156119e057600080fd5b505af11580156119f4573d6000803e3d6000fd5b505050506001600160a01b038216600090815260116020908152604080832033845290915290205460ff16611a80576001600160a01b03821660008181526010602090815260408083208054600181810183559185528385200180546001600160a01b0319163390811790915594845260118352818420948452939091529020805460ff191690911790555b6001600160a01b0382166000908152600b6020908152604080832033845290915281208054859290611ab39084906134ea565b9091555050604080513381526001600160a01b0384166020820152908101849052606081018290527fd2d0080ed70ceb7ce39856d34a5727b439ec7c7919425087ed35ed68687915569060800160405180910390a1505050565b60025460405163c0d7eec160e01b81526001600160a01b038381166004830152600092169063c0d7eec1906024016105e5565b6001600160a01b03821660009081526009602052604090205460ff16611b785760405162461bcd60e51b815260040161123a90613548565b611b80613088565b8060011415611b9657611b93338361280a565b90505b6001600160a01b0382166000908152600a602090815260408083203384529091529020600181015490548291611bcb916134ea565b1015611c195760405162461bcd60e51b815260206004820152601b60248201527f52657475726e6564206d6f7265207468616e20626f72726f7765640000000000604482015260640161123a565b6001600160a01b0382166000908152600a60209081526040808320338452909152812060010154611c4b908390612f1c565b90506000611c59828461347c565b6002546040516327709e4760e11b81523360048201526001600160a01b038781166024830152604482018790526064820184905260848201869052929350911690634ee13c8e9060a401600060405180830381600087803b158015611cbd57600080fd5b505af1158015611cd1573d6000803e3d6000fd5b505050506001600160a01b0384166000908152600a6020908152604080832033845290915281208054839290611d0890849061347c565b90915550506001600160a01b0384166000908152600a6020908152604080832033845290915281206001018054849290611d4390849061347c565b90915550506001600160a01b0384166000908152600a60209081526040808320338452909152902054611d95576001600160a01b0384166000908152600a602090815260408083203384529091528120555b6001600160a01b0384166000908152600a60209081526040808320338452909152902060010154611de8576001600160a01b0384166000908152600a602090815260408083203384529091528120600101555b7f2bb7c63eb15a05ebc1a5643f6d064397b45f326816b607769bf52fd7bd03951a338585604051611e1b93929190613502565b60405180910390a150505050565b600254604051635c88f5a560e01b81526001600160a01b0383811660048301526000921690635c88f5a5906024016105e5565b6006546001600160a01b03163314611e7357600080fd5b600354604051636858ea0760e01b81526001600160a01b0384811660048301526024820184905290911690636858ea0790604401600060405180830381600087803b158015611ec157600080fd5b505af1158015611ed5573d6000803e3d6000fd5b505050505050565b6000600460009054906101000a90046001600160a01b03166001600160a01b03166333d57cdc6040518163ffffffff1660e01b8152600401602060405180830381865afa15801561070d573d6000803e3d6000fd5b6001600160a01b03821660009081526009602052604090205460ff16611f6a5760405162461bcd60e51b815260040161123a90613548565b611f72613088565b6001546040516341976e0960e01b81526001600160a01b03848116600483015260009216906341976e0990602401602060405180830381865afa158015611fbd573d6000803e3d6000fd5b505050506040513d601f19601f82011682018060405250810190611fe1919061344d565b9050600081600460009054906101000a90046001600160a01b03166001600160a01b03166333d57cdc6040518163ffffffff1660e01b8152600401602060405180830381865afa158015612039573d6000803e3d6000fd5b505050506040513d601f19601f8201168201806040525081019061205d919061344d565b6120679085613493565b61207191906134b2565b60025460405163fce3e8e760e01b81526001600160a01b03878116600483015292935091169063fce3e8e790602401602060405180830381865afa1580156120bd573d6000803e3d6000fd5b505050506040513d601f19601f820116820180604052508101906120e1919061344d565b81111561214b5760405162461bcd60e51b815260206004820152603260248201527f557365722063616e6e6f742072656465656d206d6f7265207468616e2074686560448201527120617661696c61626c652062616c616e636560701b606482015260840161123a565b600480546040516370a0823160e01b8152339281019290925284916001600160a01b03909116906370a0823190602401602060405180830381865afa158015612198573d6000803e3d6000fd5b505050506040513d601f19601f820116820180604052508101906121bc919061344d565b101561221e5760405162461bcd60e51b815260206004820152602b60248201527f43616e6e6f742072656465656d206d6f726520746f6b656e73207468616e206e60448201526a1d5b58995c881bdddb995960aa1b606482015260840161123a565b336000908152600760205260408120805485929061223d90849061347c565b90915550503360009081526007602052604090205461226757336000908152600760205260408120555b6001600160a01b0384166000908152600b602090815260408083203384529091529020546122fa57600554604051630e9404b960e41b81526001600160a01b039091169063e9404b90906122c390339088908690600401613502565b600060405180830381600087803b1580156122dd57600080fd5b505af11580156122f1573d6000803e3d6000fd5b505050506124d8565b6001600160a01b0384166000908152600b602090815260408083203384529091529020548110612471576001600160a01b0384166000908152600b60209081526040808320338452909152812054612353908390612f1c565b90506000612361828461347c565b6001600160a01b0387166000908152600b6020908152604080832033845290915281208054929350849290919061239990849061347c565b9091555050600254604051631f97f85960e31b81526001600160a01b039091169063fcbfc2c8906123d29033908a908790600401613502565b600060405180830381600087803b1580156123ec57600080fd5b505af1158015612400573d6000803e3d6000fd5b5050600554604051630e9404b960e41b81526001600160a01b03909116925063e9404b9091506124389033908a908690600401613502565b600060405180830381600087803b15801561245257600080fd5b505af1158015612466573d6000803e3d6000fd5b5050505050506124d8565b600254604051631f97f85960e31b81526001600160a01b039091169063fcbfc2c8906124a590339088908690600401613502565b600060405180830381600087803b1580156124bf57600080fd5b505af11580156124d3573d6000803e3d6000fd5b505050505b60048054604051632770a7eb60e21b81523392810192909252602482018590526001600160a01b031690639dc29fac90604401600060405180830381600087803b15801561252557600080fd5b505af1158015612539573d6000803e3d6000fd5b505050507f9a2c2e027b0e93d2bab8a1db6764850faf19c3f41ec55c77e319131fa38176e6338585604051611e1b93929190613502565b600354604051631d512a9160e21b81526001600160a01b0383811660048301526000921690637544aa44906024016105e5565b600480546040516370a0823160e01b81526001600160a01b0384811693820193909352600092909116906370a08231906024016105e5565b6006546001600160a01b031633146125f257600080fd5b600880546001810182556000919091527ff3f7a9fe364faab93b216da50a3214154f22a0a2b415b23a84c8169e8b636ee30180546001600160a01b0319166001600160a01b0383811691821790925560025460405163fac09e8760e01b815260048101929092529091169063fac09e8790602401600060405180830381600087803b15801561268057600080fd5b505af1158015612694573d6000803e3d6000fd5b505060035460405163fac09e8760e01b81526001600160a01b038581166004830152909116925063fac09e879150602401600060405180830381600087803b1580156126df57600080fd5b505af11580156126f3573d6000803e3d6000fd5b505060055460405163fac09e8760e01b81526001600160a01b038581166004830152909116925063fac09e879150602401600060405180830381600087803b15801561273e57600080fd5b505af1158015612752573d6000803e3d6000fd5b5050505050565b600354604051632b92a07d60e01b81526001600160a01b03838116600483015284811660248301526000921690632b92a07d90604401602060405180830381865afa1580156127ac573d6000803e3d6000fd5b505050506040513d601f19601f820116820180604052508101906127d0919061344d565b9392505050565b60025460405163fce3e8e760e01b81526001600160a01b038381166004830152600092169063fce3e8e7906024016105e5565b6001600160a01b038181166000908152600a602090815260408083209386168352929052908120600181015490546127d091906134ea565b6001600160a01b03831660009081526009602052604090205460ff1661287a5760405162461bcd60e51b815260040161123a90613548565b612882613088565b61288b33612f5b565b6003546040516306829f1b60e31b81526001600160a01b03868116600483015290911690633414f8d890602401602060405180830381865afa1580156128d5573d6000803e3d6000fd5b505050506040513d601f19601f820116820180604052508101906128f9919061344d565b6001546040516341976e0960e01b81526001600160a01b038781166004830152869216906341976e0990602401602060405180830381865afa158015612943573d6000803e3d6000fd5b505050506040513d601f19601f82011682018060405250810190612967919061344d565b6129719190613493565b61297b91906134b2565b6003546040516301fcd2d560e01b81523360048201526001600160a01b03909116906301fcd2d590602401602060405180830381865afa1580156129c3573d6000803e3d6000fd5b505050506040513d601f19601f820116820180604052508101906129e7919061344d565b6129f1919061347c565b1015612a5a5760405162461bcd60e51b815260206004820152603260248201527f43616e6e6f7420776974686472617720636f6c6c61746572616c206265666f7260448201527132903830bcb4b733903130b1b5903637b0b760711b606482015260840161123a565b600354604051632b92a07d60e01b81526001600160a01b0385811660048301523360248301526000921690632b92a07d90604401602060405180830381865afa158015612aab573d6000803e3d6000fd5b505050506040513d601f19601f82011682018060405250810190612acf919061344d565b905080831115612b325760405162461bcd60e51b815260206004820152602860248201527f52656465656d696e67206d6f726520636f6c6c61746572616c207468616e2064604482015267195c1bdcda5d195960c21b606482015260840161123a565b60018215151415612cfe5760048054604051630d4d151360e01b81523392810192909252602482018590526001600160a01b038681166044840152600092911690630d4d1513906064016020604051808303816000875af1158015612b9b573d6000803e3d6000fd5b505050506040513d601f19601f82011682018060405250810190612bbf919061344d565b33600090815260076020526040812080549293508392909190612be39084906134ea565b90915550506001600160a01b038516600090815260116020908152604080832033845290915290205460ff16612c70576001600160a01b03851660008181526010602090815260408083208054600181810183559185528385200180546001600160a01b0319163390811790915594845260118352818420948452939091529020805460ff191690911790555b6001600160a01b0385166000908152600b6020908152604080832033845290915281208054869290612ca39084906134ea565b9091555050604080513381526001600160a01b0387166020820152908101859052606081018290527fd2d0080ed70ceb7ce39856d34a5727b439ec7c7919425087ed35ed68687915569060800160405180910390a150612d3a565b7f03ff0c85f880c6a1f943c2c36ebbb2cb1b93959479db451b2acb7b1e06f4e369338585604051612d3193929190613502565b60405180910390a15b600354604051634755ea7f60e11b81523360048201526001600160a01b03868116602483015260448201869052841515606483015290911690638eabd4fe90608401600060405180830381600087803b158015612d9657600080fd5b505af1158015612daa573d6000803e3d6000fd5b5050505050505050565b600080670de0b6b3a764000083612dcb828761347c565b612dd59190613493565b612ddf91906134b2565b83670de0b6b3a7640000612df38789613493565b612dfd91906134b2565b612e07919061347c565b612e19906716345785d8a00000613493565b6106af91906134b2565b6000600460009054906101000a90046001600160a01b03166001600160a01b03166318160ddd6040518163ffffffff1660e01b8152600401602060405180830381865afa15801561070d573d6000803e3d6000fd5b60025460405163f8b2cb4f60e01b81526001600160a01b038381166004830152600092169063f8b2cb4f906024016105e5565b600254600080546040516306448fd360e51b81526001600160a01b03858116600483015260248201929092529192169063c891fa60906044016105e5565b6003546040516328d1f89360e21b81526001600160a01b038381166004830152600092169063a347e24c906024016105e5565b60006127d08383613252565b60025460405163de30f97d60e01b81526001600160a01b038381166004830152600092169063de30f97d906024016105e5565b6008546000908190815b818161ffff16101561307f57600060088261ffff1681548110612f8a57612f8a6134d4565b60009182526020822001546001546040516341976e0960e01b81526001600160a01b039283166004820181905294509116906341976e0990602401602060405180830381865afa158015612fe2573d6000803e3d6000fd5b505050506040513d601f19601f82011682018060405250810190613006919061344d565b6001600160a01b038381166000908152600a60209081526040808320938c1683529290522060018101549054919250670de0b6b3a764000091839161304a916134ea565b6130549190613493565b61305e91906134b2565b61306890866134ea565b94505050808061307790613526565b915050612f65565b50909392505050565b60085460005b818161ffff16101561324a57600060088261ffff16815481106130b3576130b36134d4565b6000918252602080832091909101546001600160a01b03908116808452600c909252604080842054600254855492516306448fd360e51b815260048101869052602481019390935293955093929091169063c891fa6090604401602060405180830381865afa15801561312a573d6000803e3d6000fd5b505050506040513d601f19601f8201168201806040525081019061314e919061344d565b905060005b828161ffff161015613233576001600160a01b0384166000908152600c60205260408120805461ffff841690811061318d5761318d6134d4565b60009182526020808320909101546001600160a01b038881168452600a8352604080852091909216808552925290912054909150670de0b6b3a7640000906131d59085613493565b6131df91906134b2565b6001600160a01b038087166000908152600a60209081526040808320938616835292905290812060010180549091906132199084906134ea565b9091555082915061322b905081613526565b915050613153565b50505050808061324290613526565b91505061308e565b505042600055565b600081831061326157816127d0565b5090919050565b80356001600160a01b038116811461327f57600080fd5b919050565b60006020828403121561329657600080fd5b6127d082613268565b6000806000606084860312156132b457600080fd5b505081359360208301359350604090920135919050565b600060208083528351808285015260005b818110156132f8578581018301518582016040015282016132dc565b8181111561330a576000604083870101525b50601f01601f1916929092016040019392505050565b6000806000806080858703121561333657600080fd5b8435935061334660208601613268565b92506040850135915061335b60608601613268565b905092959194509250565b6000806040838503121561337957600080fd5b8235915061338960208401613268565b90509250929050565b600080604083850312156133a557600080fd5b6133ae83613268565b946020939093013593505050565b600080604083850312156133cf57600080fd5b6133d883613268565b915061338960208401613268565b6000806000606084860312156133fb57600080fd5b61340484613268565b9250602084013591506040840135801515811461342057600080fd5b809150509250925092565b6000806040838503121561343e57600080fd5b50508035926020909101359150565b60006020828403121561345f57600080fd5b5051919050565b634e487b7160e01b600052601160045260246000fd5b60008282101561348e5761348e613466565b500390565b60008160001904831182151516156134ad576134ad613466565b500290565b6000826134cf57634e487b7160e01b600052601260045260246000fd5b500490565b634e487b7160e01b600052603260045260246000fd5b600082198211156134fd576134fd613466565b500190565b6001600160a01b039384168152919092166020820152604081019190915260600190565b600061ffff8083168181141561353e5761353e613466565b6001019392505050565b602080825260139082015272185cdcd95d081b9bdd081cdd5c1c1bdc9d1959606a1b60408201526060019056fe4c69717569646174696f6e205269736b3a20436f6c6c61746572616c2076616c756520617070726f616368696e67204c545620726571756972656d656e74a2646970667358221220714398d8fd8578af07e9760d81ce29e270d549287982fbfeaee9d5ff3fef1d7364736f6c634300080b0033608060405234801561001057600080fd5b506040805160608082018352600080835260208084018281528486018381527301be23585060835e02b77ef475b0cc51aa1e070980855284845295517f4e2753d238f0f4cb8962490717ab551b4c023808c7bc37aed6e8760bfc3a92d55590517f4e2753d238f0f4cb8962490717ab551b4c023808c7bc37aed6e8760bfc3a92d655517f4e2753d238f0f4cb8962490717ab551b4c023808c7bc37aed6e8760bfc3a92d75560028054600181810183557f405787fa12a823e0f2b7631cc41b3ba8828b3321ca811111fa75cd3aa3bb5ace91820180546001600160a01b0319908116891790915588518088018a52868152808601878152818b01888152735592ec0cfb4dbc12d3ab100b257153436a1f0fea808a5289895292517ff4e9730789baae4355b7b087afa1a57a24c222e690ce50ce909b525e8495925b5590517ff4e9730789baae4355b7b087afa1a57a24c222e690ce50ce909b525e8495925c55517ff4e9730789baae4355b7b087afa1a57a24c222e690ce50ce909b525e8495925d55845480840186558401805483168217905589519788018a52868852878601878152888b0188815273c778417e063141139fce010982780140aa0cd5ab808a529789905298517f02e9d230142cd2a2518ca1eebf58e2b95f971add66b06973a2b3e55bb9e440f955517f02e9d230142cd2a2518ca1eebf58e2b95f971add66b06973a2b3e55bb9e440fa5596517f02e9d230142cd2a2518ca1eebf58e2b95f971add66b06973a2b3e55bb9e440fb55835491820184559290945292909201805490921681179091559251610265906102ab565b604051809103906000f080158015610281573d6000803e3d6000fd5b50600180546001600160a01b0319166001600160a01b0392909216919091179055506102b8915050565b6103b3806111a583390190565b610ede806102c76000396000f3fe608060405234801561001057600080fd5b50600436106101165760003560e01c8063c891fa60116100a2578063f8b2cb4f11610071578063f8b2cb4f14610270578063fac09e8714610283578063fc4f78b914610319578063fcbfc2c81461032c578063fce3e8e71461033f57600080fd5b8063c891fa6014610222578063cc4251e614610235578063de30f97d14610248578063e4ebd6011461025b57600080fd5b806375f4d677116100e957806375f4d677146101925780639311ca691461019a578063a150fb5f146101c5578063b8c876b1146101d8578063c0d7eec11461015657600080fd5b806323d0aab11461011b5780632e81d95e146101305780634ee13c8e146101435780635c88f5a514610156575b600080fd5b61012e610129366004610b37565b61036b565b005b61012e61013e366004610b59565b6103ba565b61012e610151366004610b95565b610495565b61017f610164366004610b37565b6001600160a01b031660009081526020819052604090205490565b6040519081526020015b60405180910390f35b61017f6105cf565b6001546101ad906001600160a01b031681565b6040516001600160a01b039091168152602001610189565b61017f6101d3366004610be2565b6106ef565b6102076101e6366004610b37565b60006020819052908152604090208054600182015460029092015490919083565b60408051938452602084019290925290820152606001610189565b61017f610230366004610bfb565b610701565b61017f610243366004610b37565b6107a6565b61017f610256366004610b37565b6107d3565b610263610894565b6040516101899190610c25565b61017f61027e366004610b37565b6108f6565b61012e610291366004610b37565b60408051606081018252600080825260208083018281528385018381526001600160a01b0390961680845291839052938220925183559251600180840191909155935160029283015581549384018255527f405787fa12a823e0f2b7631cc41b3ba8828b3321ca811111fa75cd3aa3bb5ace90910180546001600160a01b0319169091179055565b61012e610327366004610b59565b610961565b61012e61033a366004610b59565b610a59565b61017f61034d366004610b37565b6001600160a01b031660009081526020819052604090206001015490565b6001600160a01b03811660009081526020819052604081208054600190910180549192909161039b908490610c88565b90915550506001600160a01b0316600090815260208190526040812055565b6040516323b872dd60e01b81526001600160a01b038481166004830152306024830152604482018390528316906323b872dd906064016020604051808303816000875af115801561040f573d6000803e3d6000fd5b505050506040513d601f19601f820116820180604052508101906104339190610ca0565b506001600160a01b0382166000908152602081905260408120600101805483929061045f908490610c88565b9091555050604051600080516020610e8983398151915290610488908590309086908690610cc2565b60405180910390a1505050565b6040516323b872dd60e01b81526001600160a01b038681166004830152306024830152604482018590528516906323b872dd906064016020604051808303816000875af11580156104ea573d6000803e3d6000fd5b505050506040513d601f19601f8201168201806040525081019061050e9190610ca0565b506001600160a01b0384166000908152602081905260408120600101805484929061053a908490610c88565b90915550506001600160a01b0384166000908152602081905260408120600201805484929061056a908490610cec565b90915550506001600160a01b03841660009081526020819052604081208054839290610597908490610c88565b9091555050604051600080516020610e89833981519152906105c0908790309088908890610cc2565b60405180910390a15050505050565b6002546000908190815b818161ffff1610156106e757600060028261ffff16815481106105fe576105fe610d03565b6000918252602090912001546001546040516341976e0960e01b81526001600160a01b03928316600482018190529350670de0b6b3a764000092909116906341976e0990602401602060405180830381865afa158015610662573d6000803e3d6000fd5b505050506040513d601f19601f820116820180604052508101906106869190610d19565b6001600160a01b038316600090815260208190526040902060028101546001909101546106b39190610c88565b6106bd9190610d32565b6106c79190610d51565b6106d19085610c88565b93505080806106df90610d73565b9150506105d9565b509092915050565b60006106fb8242610cec565b92915050565b60008061070d846107d3565b61071f90670de0b6b3a7640000610cec565b9050600061072d8442610cec565b90506301e1855868056bc75e2d631000006ec097ce7bc90715b34b9f1000000000610759600486610e79565b6107639190610d51565b61076e906008610d32565b6107789190610d51565b6107899066354a6ba7a18000610c88565b6107939083610d32565b61079d9190610d51565b95945050505050565b6001600160a01b038116600090815260208190526040812060028101546001909101546106fb9190610c88565b6001600160a01b03811660009081526020819052604081206001015415158061081657506001600160a01b03821660009081526020819052604090206002015415155b15610880576001600160a01b038216600090815260208190526040902060028101546001909101546108489190610c88565b6001600160a01b03831660009081526020819052604090206001015461087690670de0b6b3a7640000610d32565b6106fb9190610d51565b50670de0b6b3a7640000919050565b919050565b606060028054806020026020016040519081016040528092919081815260200182805480156108ec57602002820191906000526020600020905b81546001600160a01b031681526001909101906020018083116108ce575b5050505050905090565b6040516370a0823160e01b81523060048201526000906001600160a01b038316906370a0823190602401602060405180830381865afa15801561093d573d6000803e3d6000fd5b505050506040513d601f19601f820116820180604052508101906106fb9190610d19565b60405163a9059cbb60e01b81526001600160a01b0384811660048301526024820183905283169063a9059cbb906044016020604051808303816000875af11580156109b0573d6000803e3d6000fd5b505050506040513d601f19601f820116820180604052508101906109d49190610ca0565b506001600160a01b03821660009081526020819052604081206001018054839290610a00908490610cec565b90915550506001600160a01b03821660009081526020819052604081206002018054839290610a30908490610c88565b9091555050604051600080516020610e8983398151915290610488903090869086908690610cc2565b6001600160a01b03821660009081526020819052604081206001018054839290610a84908490610cec565b909155505060405163a9059cbb60e01b81526001600160a01b0384811660048301526024820183905283169063a9059cbb906044016020604051808303816000875af1158015610ad8573d6000803e3d6000fd5b505050506040513d601f19601f82011682018060405250810190610afc9190610ca0565b50600080516020610e89833981519152308484846040516104889493929190610cc2565b80356001600160a01b038116811461088f57600080fd5b600060208284031215610b4957600080fd5b610b5282610b20565b9392505050565b600080600060608486031215610b6e57600080fd5b610b7784610b20565b9250610b8560208501610b20565b9150604084013590509250925092565b600080600080600060a08688031215610bad57600080fd5b610bb686610b20565b9450610bc460208701610b20565b94979496505050506040830135926060810135926080909101359150565b600060208284031215610bf457600080fd5b5035919050565b60008060408385031215610c0e57600080fd5b610c1783610b20565b946020939093013593505050565b6020808252825182820181905260009190848201906040850190845b81811015610c665783516001600160a01b031683529284019291840191600101610c41565b50909695505050505050565b634e487b7160e01b600052601160045260246000fd5b60008219821115610c9b57610c9b610c72565b500190565b600060208284031215610cb257600080fd5b81518015158114610b5257600080fd5b6001600160a01b039485168152928416602084015292166040820152606081019190915260800190565b600082821015610cfe57610cfe610c72565b500390565b634e487b7160e01b600052603260045260246000fd5b600060208284031215610d2b57600080fd5b5051919050565b6000816000190483118215151615610d4c57610d4c610c72565b500290565b600082610d6e57634e487b7160e01b600052601260045260246000fd5b500490565b600061ffff80831681811415610d8b57610d8b610c72565b6001019392505050565b600181815b80851115610dd0578160001904821115610db657610db6610c72565b80851615610dc357918102915b93841c9390800290610d9a565b509250929050565b600082610de7575060016106fb565b81610df4575060006106fb565b8160018114610e0a5760028114610e1457610e30565b60019150506106fb565b60ff841115610e2557610e25610c72565b50506001821b6106fb565b5060208310610133831016604e8410600b8410161715610e53575081810a6106fb565b610e5d8383610d95565b8060001904821115610e7157610e71610c72565b029392505050565b6000610b5260ff841683610dd856fe724dd111d8b4c66b0043d7e6eb223c3a7567ec1641110e6d5a71cb0dc7ffaf70a26469706673582212209da0f2f5d7d979e8b6761cc96a03d252f89e82807794faae2cbc1c5e0ce1d0af64736f6c634300080b0033608060405234801561001057600080fd5b50600060208190527f4e2753d238f0f4cb8962490717ab551b4c023808c7bc37aed6e8760bfc3a92d580546001600160a01b031990811673d8bd0a1cb028a31aa859a21a3758685a95de4623179091557ff4e9730789baae4355b7b087afa1a57a24c222e690ce50ce909b525e8495925b80548216732ba49aaa16e6afd2a993473cfb70fa8559b523cf17905573c778417e063141139fce010982780140aa0cd5ab9091527f02e9d230142cd2a2518ca1eebf58e2b95f971add66b06973a2b3e55bb9e440f98054909116738a753747a1fa494ec906ce90e9f37563a8af630e1790556102b1806101026000396000f3fe608060405234801561001057600080fd5b50600436106100365760003560e01c806341976e091461003b5780634238dc4714610061575b600080fd5b61004e610049366004610141565b6100a2565b6040519081526020015b60405180910390f35b61008a61006f366004610141565b6000602081905290815260409020546001600160a01b031681565b6040516001600160a01b039091168152602001610058565b6001600160a01b03808216600090815260208190526040808220548151633fabe5a360e21b81529151929316918391839163feaf968c9160048082019260a0929091908290030181865afa1580156100fe573d6000803e3d6000fd5b505050506040513d601f19601f820116820180604052508101906101229190610190565b505050915050806402540be40061013991906101f6565b949350505050565b60006020828403121561015357600080fd5b81356001600160a01b038116811461016a57600080fd5b9392505050565b805169ffffffffffffffffffff8116811461018b57600080fd5b919050565b600080600080600060a086880312156101a857600080fd5b6101b186610171565b94506020860151935060408601519250606086015191506101d460808701610171565b90509295509295909350565b634e487b7160e01b600052601160045260246000fd5b60006001600160ff1b038184138284138082168684048611161561021c5761021c6101e0565b600160ff1b600087128281168783058912161561023b5761023b6101e0565b60008712925087820587128484161615610257576102576101e0565b8785058712818416161561026d5761026d6101e0565b50505092909302939250505056fea264697066735822122096845bc61a9da0796fff35ddde335ef618164120a98e6b6dbcb9e1022566754164736f6c634300080b003360806040523480156200001157600080fd5b5060405162002135380380620021358339810160408190526200003491620003eb565b8251839083906200004d9060059060208501906200026a565b508051620000639060069060208401906200026a565b50620000759150600090503362000105565b620000a17f9f2df0fed2c77648de5860a4cc508cd0818c85b8b8a1ab4ceeef8d981c8956a63362000105565b604051620000af90620002f9565b604051809103906000f080158015620000cc573d6000803e3d6000fd5b50600780546001600160a01b039283166001600160a01b0319918216179091556008805493909216921691909117905550620004b59050565b62000111828262000115565b5050565b6200012c82826200015860201b62000ac31760201c565b60008281526001602090815260409091206200015391839062000b47620001f8821b17901c565b505050565b6000828152602081815260408083206001600160a01b038516845290915290205460ff1662000111576000828152602081815260408083206001600160a01b03851684529091529020805460ff19166001179055620001b43390565b6001600160a01b0316816001600160a01b0316837f2f8788117e7eff1d82e926ec794901d17c78024a50270940304540a733656f0d60405160405180910390a45050565b60006200020f836001600160a01b03841662000218565b90505b92915050565b6000818152600183016020526040812054620002615750815460018181018455600084815260208082209093018490558454848252828601909352604090209190915562000212565b50600062000212565b828054620002789062000478565b90600052602060002090601f0160209004810192826200029c5760008555620002e7565b82601f10620002b757805160ff1916838001178555620002e7565b82800160010185558215620002e7579182015b82811115620002e7578251825591602001919060010190620002ca565b50620002f592915062000307565b5090565b6103b38062001d8283390190565b5b80821115620002f5576000815560010162000308565b634e487b7160e01b600052604160045260246000fd5b600082601f8301126200034657600080fd5b81516001600160401b03808211156200036357620003636200031e565b604051601f8301601f19908116603f011681019082821181831017156200038e576200038e6200031e565b81604052838152602092508683858801011115620003ab57600080fd5b600091505b83821015620003cf5785820183015181830184015290820190620003b0565b83821115620003e15760008385830101525b9695505050505050565b6000806000606084860312156200040157600080fd5b83516001600160401b03808211156200041957600080fd5b620004278783880162000334565b945060208601519150808211156200043e57600080fd5b506200044d8682870162000334565b604086015190935090506001600160a01b03811681146200046d57600080fd5b809150509250925092565b600181811c908216806200048d57607f821691505b60208210811415620004af57634e487b7160e01b600052602260045260246000fd5b50919050565b6118bd80620004c56000396000f3fe608060405234801561001057600080fd5b50600436106101cf5760003560e01c80636b3e22fc116101045780639dc29fac116100a2578063ca15c87311610071578063ca15c873146103d9578063d5391393146103ec578063d547741f14610413578063dd62ed3e1461042657600080fd5b80639dc29fac14610398578063a217fddf146103ab578063a457c2d7146103b3578063a9059cbb146103c657600080fd5b80639010d07c116100de5780639010d07c1461035757806391d148541461036a5780639311ca691461037d57806395d89b411461039057600080fd5b80636b3e22fc1461031357806370a08231146103265780638a02775b1461034f57600080fd5b8063248a9ca3116101715780633287acee1161014b5780633287acee146102d257806333d57cdc146102e557806336568abe146102ed578063395093511461030057600080fd5b8063248a9ca31461028b5780632f2ff15d146102ae578063313ce567146102c357600080fd5b80630d4d1513116101ad5780630d4d15131461022457806316f0115b1461024557806318160ddd1461027057806323b872dd1461027857600080fd5b806301ffc9a7146101d457806306fdde03146101fc578063095ea7b314610211575b600080fd5b6101e76101e23660046114f2565b61045f565b60405190151581526020015b60405180910390f35b61020461048a565b6040516101f39190611548565b6101e761021f366004611597565b61051c565b6102376102323660046115c1565b610532565b6040519081526020016101f3565b600854610258906001600160a01b031681565b6040516001600160a01b0390911681526020016101f3565b600454610237565b6101e76102863660046115fd565b6105dd565b610237610299366004611639565b60009081526020819052604090206001015490565b6102c16102bc366004611652565b610687565b005b604051601281526020016101f3565b6102376102e0366004611639565b6106b2565b6102376106ff565b6102c16102fb366004611652565b610775565b6101e761030e366004611597565b6107f3565b610237610321366004611597565b61082f565b61023761033436600461167e565b6001600160a01b031660009081526002602052604090205490565b6102376108c8565b610258610365366004611699565b610936565b6101e7610378366004611652565b61094e565b600754610258906001600160a01b031681565b610204610977565b6102c16103a6366004611597565b610986565b610237600081565b6101e76103c1366004611597565b6109e0565b6101e76103d4366004611597565b610a79565b6102376103e7366004611639565b610a86565b6102377f9f2df0fed2c77648de5860a4cc508cd0818c85b8b8a1ab4ceeef8d981c8956a681565b6102c1610421366004611652565b610a9d565b6102376104343660046116bb565b6001600160a01b03918216600090815260036020908152604080832093909416825291909152205490565b60006001600160e01b03198216635a05180f60e01b1480610484575061048482610b5c565b92915050565b606060058054610499906116e5565b80601f01602080910402602001604051908101604052809291908181526020018280546104c5906116e5565b80156105125780601f106104e757610100808354040283529160200191610512565b820191906000526020600020905b8154815290600101906020018083116104f557829003601f168201915b5050505050905090565b6000610529338484610b91565b50600192915050565b600061055e7f9f2df0fed2c77648de5860a4cc508cd0818c85b8b8a1ab4ceeef8d981c8956a63361094e565b6105af5760405162461bcd60e51b815260206004820152601d60248201527f6d7573742068617665206d696e74657220726f6c6520746f206d696e7400000060448201526064015b60405180910390fd5b60006105bb838561082f565b905060006105c8826106b2565b90506105d48682610cb5565b95945050505050565b60006105ea848484610d94565b6001600160a01b03841660009081526003602090815260408083203384529091529020548281101561066f5760405162461bcd60e51b815260206004820152602860248201527f45524332303a207472616e7366657220616d6f756e74206578636565647320616044820152676c6c6f77616e636560c01b60648201526084016105a6565b61067c8533858403610b91565b506001949350505050565b6000828152602081905260409020600101546106a38133610f64565b6106ad8383610fc8565b505050565b6000806106bd6108c8565b90506106c860045490565b6106d3575090919050565b80836106de60045490565b6106e89190611730565b6106f2919061174f565b9392505050565b50919050565b60008061070b60045490565b116107495760405162461bcd60e51b815260206004820152600e60248201526d737570706c79206973207a65726f60901b60448201526064016105a6565b6004546107546108c8565b61076690670de0b6b3a7640000611730565b610770919061174f565b905090565b6001600160a01b03811633146107e55760405162461bcd60e51b815260206004820152602f60248201527f416363657373436f6e74726f6c3a2063616e206f6e6c792072656e6f756e636560448201526e103937b632b9903337b91039b2b63360891b60648201526084016105a6565b6107ef8282610fea565b5050565b3360008181526003602090815260408083206001600160a01b0387168452909152812054909161052991859061082a908690611771565b610b91565b6007546040516341976e0960e01b81526001600160a01b03848116600483015260009283929116906341976e0990602401602060405180830381865afa15801561087d573d6000803e3d6000fd5b505050506040513d601f19601f820116820180604052508101906108a19190611789565b9050670de0b6b3a76400006108b68483611730565b6108c0919061174f565b949350505050565b600854604080516375f4d67760e01b815290516000926001600160a01b0316916375f4d6779160048083019260209291908290030181865afa158015610912573d6000803e3d6000fd5b505050506040513d601f19601f820116820180604052508101906107709190611789565b60008281526001602052604081206106f2908361100c565b6000918252602082815260408084206001600160a01b0393909316845291905290205460ff1690565b606060068054610499906116e5565b600081116109d65760405162461bcd60e51b815260206004820181905260248201527f416d6f756e7420746f2072656465656d206e6565647320746f206265203e203060448201526064016105a6565b6107ef8282611018565b3360009081526003602090815260408083206001600160a01b038616845290915281205482811015610a625760405162461bcd60e51b815260206004820152602560248201527f45524332303a2064656372656173656420616c6c6f77616e63652062656c6f77604482015264207a65726f60d81b60648201526084016105a6565b610a6f3385858403610b91565b5060019392505050565b6000610529338484610d94565b600081815260016020526040812061048490611166565b600082815260208190526040902060010154610ab98133610f64565b6106ad8383610fea565b610acd828261094e565b6107ef576000828152602081815260408083206001600160a01b03851684529091529020805460ff19166001179055610b033390565b6001600160a01b0316816001600160a01b0316837f2f8788117e7eff1d82e926ec794901d17c78024a50270940304540a733656f0d60405160405180910390a45050565b60006106f2836001600160a01b038416611170565b60006001600160e01b03198216637965db0b60e01b148061048457506301ffc9a760e01b6001600160e01b0319831614610484565b6001600160a01b038316610bf35760405162461bcd60e51b8152602060048201526024808201527f45524332303a20617070726f76652066726f6d20746865207a65726f206164646044820152637265737360e01b60648201526084016105a6565b6001600160a01b038216610c545760405162461bcd60e51b815260206004820152602260248201527f45524332303a20617070726f766520746f20746865207a65726f206164647265604482015261737360f01b60648201526084016105a6565b6001600160a01b0383811660008181526003602090815260408083209487168084529482529182902085905590518481527f8c5be1e5ebec7d5bd14f71427d1e84f3dd0314c0f7b2291e5b200ac8c7c3b925910160405180910390a3505050565b6001600160a01b038216610d0b5760405162461bcd60e51b815260206004820152601f60248201527f45524332303a206d696e7420746f20746865207a65726f20616464726573730060448201526064016105a6565b8060046000828254610d1d9190611771565b90915550506001600160a01b03821660009081526002602052604081208054839290610d4a908490611771565b90915550506040518181526001600160a01b038316906000907fddf252ad1be2c89b69c2b068fc378daa952ba7f163c4a11628f55a4df523b3ef9060200160405180910390a35050565b6001600160a01b038316610df85760405162461bcd60e51b815260206004820152602560248201527f45524332303a207472616e736665722066726f6d20746865207a65726f206164604482015264647265737360d81b60648201526084016105a6565b6001600160a01b038216610e5a5760405162461bcd60e51b815260206004820152602360248201527f45524332303a207472616e7366657220746f20746865207a65726f206164647260448201526265737360e81b60648201526084016105a6565b6001600160a01b03831660009081526002602052604090205481811015610ed25760405162461bcd60e51b815260206004820152602660248201527f45524332303a207472616e7366657220616d6f756e7420657863656564732062604482015265616c616e636560d01b60648201526084016105a6565b6001600160a01b03808516600090815260026020526040808220858503905591851681529081208054849290610f09908490611771565b92505081905550826001600160a01b0316846001600160a01b03167fddf252ad1be2c89b69c2b068fc378daa952ba7f163c4a11628f55a4df523b3ef84604051610f5591815260200190565b60405180910390a35b50505050565b610f6e828261094e565b6107ef57610f86816001600160a01b031660146111bf565b610f918360206111bf565b604051602001610fa29291906117a2565b60408051601f198184030181529082905262461bcd60e51b82526105a691600401611548565b610fd28282610ac3565b60008281526001602052604090206106ad9082610b47565b610ff4828261135b565b60008281526001602052604090206106ad90826113c0565b60006106f283836113d5565b6001600160a01b0382166110785760405162461bcd60e51b815260206004820152602160248201527f45524332303a206275726e2066726f6d20746865207a65726f206164647265736044820152607360f81b60648201526084016105a6565b6001600160a01b038216600090815260026020526040902054818110156110ec5760405162461bcd60e51b815260206004820152602260248201527f45524332303a206275726e20616d6f756e7420657863656564732062616c616e604482015261636560f01b60648201526084016105a6565b6001600160a01b038316600090815260026020526040812083830390556004805484929061111b908490611817565b90915550506040518281526000906001600160a01b038516907fddf252ad1be2c89b69c2b068fc378daa952ba7f163c4a11628f55a4df523b3ef9060200160405180910390a3505050565b6000610484825490565b60008181526001830160205260408120546111b757508154600181810184556000848152602080822090930184905584548482528286019093526040902091909155610484565b506000610484565b606060006111ce836002611730565b6111d9906002611771565b67ffffffffffffffff8111156111f1576111f161182e565b6040519080825280601f01601f19166020018201604052801561121b576020820181803683370190505b509050600360fc1b8160008151811061123657611236611844565b60200101906001600160f81b031916908160001a905350600f60fb1b8160018151811061126557611265611844565b60200101906001600160f81b031916908160001a9053506000611289846002611730565b611294906001611771565b90505b600181111561130c576f181899199a1a9b1b9c1cb0b131b232b360811b85600f16601081106112c8576112c8611844565b1a60f81b8282815181106112de576112de611844565b60200101906001600160f81b031916908160001a90535060049490941c936113058161185a565b9050611297565b5083156106f25760405162461bcd60e51b815260206004820181905260248201527f537472696e67733a20686578206c656e67746820696e73756666696369656e7460448201526064016105a6565b611365828261094e565b156107ef576000828152602081815260408083206001600160a01b0385168085529252808320805460ff1916905551339285917ff6391f5c32d9c69d2a47ea670b442974b53935d1edc7fd64eb21e047a839171b9190a45050565b60006106f2836001600160a01b0384166113ff565b60008260000182815481106113ec576113ec611844565b9060005260206000200154905092915050565b600081815260018301602052604081205480156114e8576000611423600183611817565b855490915060009061143790600190611817565b905081811461149c57600086600001828154811061145757611457611844565b906000526020600020015490508087600001848154811061147a5761147a611844565b6000918252602080832090910192909255918252600188019052604090208390555b85548690806114ad576114ad611871565b600190038181906000526020600020016000905590558560010160008681526020019081526020016000206000905560019350505050610484565b6000915050610484565b60006020828403121561150457600080fd5b81356001600160e01b0319811681146106f257600080fd5b60005b8381101561153757818101518382015260200161151f565b83811115610f5e5750506000910152565b602081526000825180602084015261156781604085016020870161151c565b601f01601f19169190910160400192915050565b80356001600160a01b038116811461159257600080fd5b919050565b600080604083850312156115aa57600080fd5b6115b38361157b565b946020939093013593505050565b6000806000606084860312156115d657600080fd5b6115df8461157b565b9250602084013591506115f46040850161157b565b90509250925092565b60008060006060848603121561161257600080fd5b61161b8461157b565b92506116296020850161157b565b9150604084013590509250925092565b60006020828403121561164b57600080fd5b5035919050565b6000806040838503121561166557600080fd5b823591506116756020840161157b565b90509250929050565b60006020828403121561169057600080fd5b6106f28261157b565b600080604083850312156116ac57600080fd5b50508035926020909101359150565b600080604083850312156116ce57600080fd5b6116d78361157b565b91506116756020840161157b565b600181811c908216806116f957607f821691505b602082108114156106f957634e487b7160e01b600052602260045260246000fd5b634e487b7160e01b600052601160045260246000fd5b600081600019048311821515161561174a5761174a61171a565b500290565b60008261176c57634e487b7160e01b600052601260045260246000fd5b500490565b600082198211156117845761178461171a565b500190565b60006020828403121561179b57600080fd5b5051919050565b7f416363657373436f6e74726f6c3a206163636f756e74200000000000000000008152600083516117da81601785016020880161151c565b7001034b99036b4b9b9b4b733903937b6329607d1b601791840191820152835161180b81602884016020880161151c565b01602801949350505050565b6000828210156118295761182961171a565b500390565b634e487b7160e01b600052604160045260246000fd5b634e487b7160e01b600052603260045260246000fd5b6000816118695761186961171a565b506000190190565b634e487b7160e01b600052603160045260246000fdfea26469706673582212200a24ffaa42e35b25f4e65ba3f4bd9f26f75c545db513570e6a3a10a15469614d64736f6c634300080b0033608060405234801561001057600080fd5b50600060208190527f4e2753d238f0f4cb8962490717ab551b4c023808c7bc37aed6e8760bfc3a92d580546001600160a01b031990811673d8bd0a1cb028a31aa859a21a3758685a95de4623179091557ff4e9730789baae4355b7b087afa1a57a24c222e690ce50ce909b525e8495925b80548216732ba49aaa16e6afd2a993473cfb70fa8559b523cf17905573c778417e063141139fce010982780140aa0cd5ab9091527f02e9d230142cd2a2518ca1eebf58e2b95f971add66b06973a2b3e55bb9e440f98054909116738a753747a1fa494ec906ce90e9f37563a8af630e1790556102b1806101026000396000f3fe608060405234801561001057600080fd5b50600436106100365760003560e01c806341976e091461003b5780634238dc4714610061575b600080fd5b61004e610049366004610141565b6100a2565b6040519081526020015b60405180910390f35b61008a61006f366004610141565b6000602081905290815260409020546001600160a01b031681565b6040516001600160a01b039091168152602001610058565b6001600160a01b03808216600090815260208190526040808220548151633fabe5a360e21b81529151929316918391839163feaf968c9160048082019260a0929091908290030181865afa1580156100fe573d6000803e3d6000fd5b505050506040513d601f19601f820116820180604052508101906101229190610190565b505050915050806402540be40061013991906101f6565b949350505050565b60006020828403121561015357600080fd5b81356001600160a01b038116811461016a57600080fd5b9392505050565b805169ffffffffffffffffffff8116811461018b57600080fd5b919050565b600080600080600060a086880312156101a857600080fd5b6101b186610171565b94506020860151935060408601519250606086015191506101d460808701610171565b90509295509295909350565b634e487b7160e01b600052601160045260246000fd5b60006001600160ff1b038184138284138082168684048611161561021c5761021c6101e0565b600160ff1b600087128281168783058912161561023b5761023b6101e0565b60008712925087820587128484161615610257576102576101e0565b8785058712818416161561026d5761026d6101e0565b50505092909302939250505056fea264697066735822122096845bc61a9da0796fff35ddde335ef618164120a98e6b6dbcb9e1022566754164736f6c634300080b0033608060405234801561001057600080fd5b50604051610a30380380610a3083398101604081905261002f91610171565b600180546001600160a01b038085166001600160a01b031992831617909255600280549284169290911691909117905560405161006b90610148565b604051809103906000f080158015610087573d6000803e3d6000fd5b50600380546001600160a01b03929092166001600160a01b031992831617905560008054600181810183558280527f290decd9548b62a8d60345a988386fc84ba6bc95484008f6362f93160ef3e56391820180548516735592ec0cfb4dbc12d3ab100b257153436a1f0fea1790558254808201845582018054851673c778417e063141139fce010982780140aa0cd5ab17905582549081019092550180549091167301be23585060835e02b77ef475b0cc51aa1e0709179055506101a49050565b6103b38061067d83390190565b80516001600160a01b038116811461016c57600080fd5b919050565b6000806040838503121561018457600080fd5b61018d83610155565b915061019b60208401610155565b90509250929050565b6104ca806101b36000396000f3fe608060405234801561001057600080fd5b50600436106100935760003560e01c80639311ca69116100665780639311ca69146100fe578063bd4b002e14610111578063e9404b9014610124578063fac09e8714610137578063fc0c546a1461019457600080fd5b806315226b541461009857806316f0115b146100be57806346eb60d5146100e957806351b39b0f146100eb575b600080fd5b6100ab6100a63660046103d1565b6101a7565b6040519081526020015b60405180910390f35b6001546100d1906001600160a01b031681565b6040516001600160a01b0390911681526020016100b5565b005b6100e96100f93660046103f3565b610218565b6003546100d1906001600160a01b031681565b6100e961011f36600461042f565b610298565b6100e96101323660046103f3565b610380565b6100e96101453660046103d1565b600080546001810182559080527f290decd9548b62a8d60345a988386fc84ba6bc95484008f6362f93160ef3e5630180546001600160a01b0319166001600160a01b0392909216919091179055565b6002546100d1906001600160a01b031681565b6040516370a0823160e01b81523060048201526000906001600160a01b038316906370a0823190602401602060405180830381865afa1580156101ee573d6000803e3d6000fd5b505050506040513d601f19601f820116820180604052508101906102129190610459565b50919050565b6040516323b872dd60e01b81526001600160a01b038481166004830152306024830152604482018390528316906323b872dd906064015b6020604051808303816000875af115801561026e573d6000803e3d6000fd5b505050506040513d601f19601f820116820180604052508101906102929190610472565b50505050565b60015460405163095ea7b360e01b81526001600160a01b039182166004820152602481018390529083169063095ea7b3906044016020604051808303816000875af11580156102eb573d6000803e3d6000fd5b505050506040513d601f19601f8201168201806040525081019061030f9190610472565b50600154604051631740ecaf60e11b81523060048201526001600160a01b0384811660248301526044820184905290911690632e81d95e90606401600060405180830381600087803b15801561036457600080fd5b505af1158015610378573d6000803e3d6000fd5b505050505050565b60405163a9059cbb60e01b81526001600160a01b0384811660048301526024820183905283169063a9059cbb9060440161024f565b80356001600160a01b03811681146103cc57600080fd5b919050565b6000602082840312156103e357600080fd5b6103ec826103b5565b9392505050565b60008060006060848603121561040857600080fd5b610411846103b5565b925061041f602085016103b5565b9150604084013590509250925092565b6000806040838503121561044257600080fd5b61044b836103b5565b946020939093013593505050565b60006020828403121561046b57600080fd5b5051919050565b60006020828403121561048457600080fd5b815180151581146103ec57600080fdfea264697066735822122014e3d637378d393354bb8c2ca537fc659c67f1a3ffc3f1e097ba5e12980ed4b664736f6c634300080b0033608060405234801561001057600080fd5b50600060208190527f4e2753d238f0f4cb8962490717ab551b4c023808c7bc37aed6e8760bfc3a92d580546001600160a01b031990811673d8bd0a1cb028a31aa859a21a3758685a95de4623179091557ff4e9730789baae4355b7b087afa1a57a24c222e690ce50ce909b525e8495925b80548216732ba49aaa16e6afd2a993473cfb70fa8559b523cf17905573c778417e063141139fce010982780140aa0cd5ab9091527f02e9d230142cd2a2518ca1eebf58e2b95f971add66b06973a2b3e55bb9e440f98054909116738a753747a1fa494ec906ce90e9f37563a8af630e1790556102b1806101026000396000f3fe608060405234801561001057600080fd5b50600436106100365760003560e01c806341976e091461003b5780634238dc4714610061575b600080fd5b61004e610049366004610141565b6100a2565b6040519081526020015b60405180910390f35b61008a61006f366004610141565b6000602081905290815260409020546001600160a01b031681565b6040516001600160a01b039091168152602001610058565b6001600160a01b03808216600090815260208190526040808220548151633fabe5a360e21b81529151929316918391839163feaf968c9160048082019260a0929091908290030181865afa1580156100fe573d6000803e3d6000fd5b505050506040513d601f19601f820116820180604052508101906101229190610190565b505050915050806402540be40061013991906101f6565b949350505050565b60006020828403121561015357600080fd5b81356001600160a01b038116811461016a57600080fd5b9392505050565b805169ffffffffffffffffffff8116811461018b57600080fd5b919050565b600080600080600060a086880312156101a857600080fd5b6101b186610171565b94506020860151935060408601519250606086015191506101d460808701610171565b90509295509295909350565b634e487b7160e01b600052601160045260246000fd5b60006001600160ff1b038184138284138082168684048611161561021c5761021c6101e0565b600160ff1b600087128281168783058912161561023b5761023b6101e0565b60008712925087820587128484161615610257576102576101e0565b8785058712818416161561026d5761026d6101e0565b50505092909302939250505056fea264697066735822122096845bc61a9da0796fff35ddde335ef618164120a98e6b6dbcb9e1022566754164736f6c634300080b0033608060405234801561001057600080fd5b506040516113af3803806113af83398101604081905261002f916101ff565b600580546001600160a01b038086166001600160a01b031992831617909255600680548584169083161790556007805492841692909116919091179055604051610078906101d6565b604051809103906000f080158015610094573d6000803e3d6000fd5b50600080546001600160a01b03929092166001600160a01b03199283161781556002602052671158e460913d00007f350e7dc47375535dbbaa844f05f768ffe58fc0c7f59c294c184aa966f4bac71a556717098134772600007fed3674b09469bf4c18c58b5c17b6619c2db43f90b5389a6501b1af546f40b64a8190557f1a4e087dbd68c74cb0888bc0d429e64857661530ba71b8a04d03d6e54890a9a7556004805460018181018355928290527f8a35acfbc15ff81a39ae7d344fd709f28e8600b4aa8c65c6b64bfe7fe36bd19b90810180548516735592ec0cfb4dbc12d3ab100b257153436a1f0fea1790558154808401835581018054851673c778417e063141139fce010982780140aa0cd5ab17905581549283019091550180549091167301be23585060835e02b77ef475b0cc51aa1e070917905550610242915050565b6103b380610ffc83390190565b80516001600160a01b03811681146101fa57600080fd5b919050565b60008060006060848603121561021457600080fd5b61021d846101e3565b925061022b602085016101e3565b9150610239604085016101e3565b90509250925092565b610dab806102516000396000f3fe608060405234801561001057600080fd5b50600436106100f55760003560e01c80638eabd4fe11610097578063f8b2cb4f11610066578063f8b2cb4f14610261578063f970c3b714610274578063fac09e8714610287578063fc0c546a146102fa57600080fd5b80638eabd4fe146101ff5780639311ca6914610212578063a347e24c14610225578063cd3293de1461024e57600080fd5b80632b92a07d116100d35780632b92a07d146101605780633414f8d8146101995780636858ea07146101c25780637544aa44146101ec57600080fd5b806301fcd2d5146100fa57806316f0115b1461012057806324ee57601461014b575b600080fd5b61010d610108366004610b1c565b61030d565b6040519081526020015b60405180910390f35b600554610133906001600160a01b031681565b6040516001600160a01b039091168152602001610117565b61015e610159366004610b3e565b61042b565b005b61010d61016e366004610b7a565b6001600160a01b03918216600090815260036020908152604080832093909416825291909152205490565b61010d6101a7366004610b1c565b6001600160a01b031660009081526002602052604090205490565b61015e6101d0366004610bad565b6001600160a01b03909116600090815260026020526040902055565b61010d6101fa366004610b1c565b6105da565b61015e61020d366004610be8565b61071b565b600054610133906001600160a01b031681565b61010d610233366004610b1c565b6001600160a01b031660009081526001602052604090205490565b600754610133906001600160a01b031681565b61010d61026f366004610b1c565b61097b565b61015e610282366004610b3e565b6109ec565b61015e610295366004610b1c565b60048054600181019091557f8a35acfbc15ff81a39ae7d344fd709f28e8600b4aa8c65c6b64bfe7fe36bd19b0180546001600160a01b039092166001600160a01b03199092168217905560009081526002602052604090206717098134772600009055565b600654610133906001600160a01b031681565b6004546000908190815b818161ffff16101561042257600060048261ffff168154811061033c5761033c610c37565b6000918252602080832091909101546001600160a01b039081168084526002909252604080842054935490516341976e0960e01b81526004810184905292945016906341976e0990602401602060405180830381865afa1580156103a4573d6000803e3d6000fd5b505050506040513d601f19601f820116820180604052508101906103c89190610c4d565b6001600160a01b038084166000908152600360209081526040808320938c16835292905220546103f89190610c7c565b6104029190610c9b565b61040c9085610cbd565b935050808061041a90610cd5565b915050610317565b50909392505050565b60075460405163095ea7b360e01b81526001600160a01b039182166004820152602481018390529083169063095ea7b3906044016020604051808303816000875af115801561047e573d6000803e3d6000fd5b505050506040513d601f19601f820116820180604052508101906104a29190610cf7565b506007546040516351b39b0f60e01b81523060048201526001600160a01b03848116602483015260448201849052909116906351b39b0f90606401600060405180830381600087803b1580156104f757600080fd5b505af115801561050b573d6000803e3d6000fd5b5050600754604051600080516020610d56833981519152935061053e925030916001600160a01b03169086908690610d14565b60405180910390a16001600160a01b0380831660009081526003602090815260408083209387168352929052908120805483929061057d908490610d3e565b90915550506001600160a01b038083166000908152600360209081526040808320938716835292905220546105d5576001600160a01b0380831660009081526003602090815260408083209387168352929052908120555b505050565b6004546000908190815b818161ffff1610156104225760005460048054670de0b6b3a7640000926001600160a01b0316916341976e099161ffff861690811061062557610625610c37565b60009182526020909120015460405160e083901b6001600160e01b03191681526001600160a01b039091166004820152602401602060405180830381865afa158015610675573d6000803e3d6000fd5b505050506040513d601f19601f820116820180604052508101906106999190610c4d565b6003600060048561ffff16815481106106b4576106b4610c37565b60009182526020808320909101546001600160a01b0390811684528382019490945260409283018220938b168252929092529020546106f39190610c7c565b6106fd9190610c9b565b6107079084610cbd565b92508061071381610cd5565b9150506105e4565b600181151514156108465760055460405163095ea7b360e01b81526001600160a01b039182166004820152602481018490529084169063095ea7b3906044016020604051808303816000875af1158015610779573d6000803e3d6000fd5b505050506040513d601f19601f8201168201806040525081019061079d9190610cf7565b50600554604051631740ecaf60e11b81523060048201526001600160a01b0385811660248301526044820185905290911690632e81d95e90606401600060405180830381600087803b1580156107f257600080fd5b505af1158015610806573d6000803e3d6000fd5b5050600554604051600080516020610d568339815191529350610839925030916001600160a01b03169087908790610d14565b60405180910390a16108e6565b60405163a9059cbb60e01b81526001600160a01b0385811660048301526024820184905284169063a9059cbb906044016020604051808303816000875af1158015610895573d6000803e3d6000fd5b505050506040513d601f19601f820116820180604052508101906108b99190610cf7565b50600080516020610d56833981519152308585856040516108dd9493929190610d14565b60405180910390a15b6001600160a01b0380841660009081526003602090815260408083209388168352929052908120805484929061091d908490610d3e565b90915550506001600160a01b03808416600090815260036020908152604080832093881683529290522054610975576001600160a01b0380841660009081526003602090815260408083209388168352929052908120555b50505050565b6040516370a0823160e01b81523060048201526000906001600160a01b038316906370a0823190602401602060405180830381865afa1580156109c2573d6000803e3d6000fd5b505050506040513d601f19601f820116820180604052508101906109e69190610c4d565b92915050565b6040516323b872dd60e01b81526001600160a01b038481166004830152306024830152604482018390528316906323b872dd906064016020604051808303816000875af1158015610a41573d6000803e3d6000fd5b505050506040513d601f19601f82011682018060405250810190610a659190610cf7565b506001600160a01b03821660009081526001602052604081208054839290610a8e908490610cbd565b90915550506001600160a01b03808316600090815260036020908152604080832093871683529290529081208054839290610aca908490610cbd565b9091555050604051600080516020610d5683398151915290610af3908590309086908690610d14565b60405180910390a1505050565b80356001600160a01b0381168114610b1757600080fd5b919050565b600060208284031215610b2e57600080fd5b610b3782610b00565b9392505050565b600080600060608486031215610b5357600080fd5b610b5c84610b00565b9250610b6a60208501610b00565b9150604084013590509250925092565b60008060408385031215610b8d57600080fd5b610b9683610b00565b9150610ba460208401610b00565b90509250929050565b60008060408385031215610bc057600080fd5b610bc983610b00565b946020939093013593505050565b8015158114610be557600080fd5b50565b60008060008060808587031215610bfe57600080fd5b610c0785610b00565b9350610c1560208601610b00565b9250604085013591506060850135610c2c81610bd7565b939692955090935050565b634e487b7160e01b600052603260045260246000fd5b600060208284031215610c5f57600080fd5b5051919050565b634e487b7160e01b600052601160045260246000fd5b6000816000190483118215151615610c9657610c96610c66565b500290565b600082610cb857634e487b7160e01b600052601260045260246000fd5b500490565b60008219821115610cd057610cd0610c66565b500190565b600061ffff80831681811415610ced57610ced610c66565b6001019392505050565b600060208284031215610d0957600080fd5b8151610b3781610bd7565b6001600160a01b039485168152928416602084015292166040820152606081019190915260800190565b600082821015610d5057610d50610c66565b50039056fe2b9fbe1f74bf284e62c93e9be9e1922974988a700ec26ada4c1899f842088df5a2646970667358221220217fff10349b87f31524197326dc093b516feff10c3b582e2079e7206862c40364736f6c634300080b0033608060405234801561001057600080fd5b50600060208190527f4e2753d238f0f4cb8962490717ab551b4c023808c7bc37aed6e8760bfc3a92d580546001600160a01b031990811673d8bd0a1cb028a31aa859a21a3758685a95de4623179091557ff4e9730789baae4355b7b087afa1a57a24c222e690ce50ce909b525e8495925b80548216732ba49aaa16e6afd2a993473cfb70fa8559b523cf17905573c778417e063141139fce010982780140aa0cd5ab9091527f02e9d230142cd2a2518ca1eebf58e2b95f971add66b06973a2b3e55bb9e440f98054909116738a753747a1fa494ec906ce90e9f37563a8af630e1790556102b1806101026000396000f3fe608060405234801561001057600080fd5b50600436106100365760003560e01c806341976e091461003b5780634238dc4714610061575b600080fd5b61004e610049366004610141565b6100a2565b6040519081526020015b60405180910390f35b61008a61006f366004610141565b6000602081905290815260409020546001600160a01b031681565b6040516001600160a01b039091168152602001610058565b6001600160a01b03808216600090815260208190526040808220548151633fabe5a360e21b81529151929316918391839163feaf968c9160048082019260a0929091908290030181865afa1580156100fe573d6000803e3d6000fd5b505050506040513d601f19601f820116820180604052508101906101229190610190565b505050915050806402540be40061013991906101f6565b949350505050565b60006020828403121561015357600080fd5b81356001600160a01b038116811461016a57600080fd5b9392505050565b805169ffffffffffffffffffff8116811461018b57600080fd5b919050565b600080600080600060a086880312156101a857600080fd5b6101b186610171565b94506020860151935060408601519250606086015191506101d460808701610171565b90509295509295909350565b634e487b7160e01b600052601160045260246000fd5b60006001600160ff1b038184138284138082168684048611161561021c5761021c6101e0565b600160ff1b600087128281168783058912161561023b5761023b6101e0565b60008712925087820587128484161615610257576102576101e0565b8785058712818416161561026d5761026d6101e0565b50505092909302939250505056fea264697066735822122096845bc61a9da0796fff35ddde335ef618164120a98e6b6dbcb9e1022566754164736f6c634300080b0033608060405234801561001057600080fd5b50600060208190527f4e2753d238f0f4cb8962490717ab551b4c023808c7bc37aed6e8760bfc3a92d580546001600160a01b031990811673d8bd0a1cb028a31aa859a21a3758685a95de4623179091557ff4e9730789baae4355b7b087afa1a57a24c222e690ce50ce909b525e8495925b80548216732ba49aaa16e6afd2a993473cfb70fa8559b523cf17905573c778417e063141139fce010982780140aa0cd5ab9091527f02e9d230142cd2a2518ca1eebf58e2b95f971add66b06973a2b3e55bb9e440f98054909116738a753747a1fa494ec906ce90e9f37563a8af630e1790556102b1806101026000396000f3fe608060405234801561001057600080fd5b50600436106100365760003560e01c806341976e091461003b5780634238dc4714610061575b600080fd5b61004e610049366004610141565b6100a2565b6040519081526020015b60405180910390f35b61008a61006f366004610141565b6000602081905290815260409020546001600160a01b031681565b6040516001600160a01b039091168152602001610058565b6001600160a01b03808216600090815260208190526040808220548151633fabe5a360e21b81529151929316918391839163feaf968c9160048082019260a0929091908290030181865afa1580156100fe573d6000803e3d6000fd5b505050506040513d601f19601f820116820180604052508101906101229190610190565b505050915050806402540be40061013991906101f6565b949350505050565b60006020828403121561015357600080fd5b81356001600160a01b038116811461016a57600080fd5b9392505050565b805169ffffffffffffffffffff8116811461018b57600080fd5b919050565b600080600080600060a086880312156101a857600080fd5b6101b186610171565b94506020860151935060408601519250606086015191506101d460808701610171565b90509295509295909350565b634e487b7160e01b600052601160045260246000fd5b60006001600160ff1b038184138284138082168684048611161561021c5761021c6101e0565b600160ff1b600087128281168783058912161561023b5761023b6101e0565b60008712925087820587128484161615610257576102576101e0565b8785058712818416161561026d5761026d6101e0565b50505092909302939250505056fea264697066735822122096845bc61a9da0796fff35ddde335ef618164120a98e6b6dbcb9e1022566754164736f6c634300080b0033","bytecodeSha1":"60fc38408f3e30e6dd6fd9cc1c6e29c2ac3335ac","type":"contract","abi":[{"inputs":[],"stateMutability":"nonpayable","type":"constructor","name":"constructor"},{"anonymous":false,"inputs":[{"indexed":false,"internalType":"address","name":"_user","type":"address"},{"indexed":false,"internalType":"uint256","name":"_borrowed","type":"uint256"},{"indexed":false,"internalType":"address","name":"_borrowedAsset","type":"address"},{"indexed":false,"internalType":"uint256","name":"_collateral","type":"uint256"},{"indexed":false,"internalType":"address","name":"_collateralAsset","type":"address"}],"name":"borrowEvent","type":"event"},{"anonymous":false,"inputs":[{"indexed":false,"internalType":"address","name":"_user","type":"address"},{"indexed":false,"internalType":"address","name":"_asset","type":"address"},{"indexed":false,"internalType":"uint256","name":"_quantity","type":"uint256"},{"indexed":false,"internalType":"uint256","name":"_tokensMinted","type":"uint256"}],"name":"depositEvent","type":"event"},{"anonymous":false,"inputs":[{"indexed":false,"internalType":"address","name":"_user","type":"address"},{"indexed":false,"internalType":"address","name":"_asset","type":"address"},{"indexed":false,"internalType":"uint256","name":"_tokensBurned","type":"uint256"}],"name":"redeemEvent","type":"event"},{"anonymous":false,"inputs":[{"indexed":false,"internalType":"address","name":"_user","type":"address"},{"indexed":false,"internalType":"address","name":"_asset","type":"address"},{"indexed":false,"internalType":"uint256","name":"_quantity","type":"uint256"}],"name":"repayEvent","type":"event"},{"anonymous":false,"inputs":[{"indexed":false,"internalType":"address","name":"_user","type":"address"},{"indexed":false,"internalType":"address","name":"_asset","type":"address"},{"indexed":false,"internalType":"uint256","name":"_quantity","type":"uint256"}],"name":"withdrawCollateralEvent","type":"event"},{"inputs":[{"internalType":"uint256","name":"_borrowQuantity","type":"uint256"},{"internalType":"address","name":"_asset","type":"address"},{"internalType":"uint256","name":"_collateralQuantity","type":"uint256"},{"internalType":"address","name":"_collateral","type":"address"}],"name":"Borrow","outputs":[],"stateMutability":"nonpayable","type":"function"},{"inputs":[{"internalType":"uint256","name":"_quantity","type":"uint256"},{"internalType":"address","name":"_asset","type":"address"}],"name":"Deposit","outputs":[],"stateMutability":"nonpayable","type":"function"},{"inputs":[{"internalType":"address","name":"_asset","type":"address"},{"internalType":"uint256","name":"_repayQuantity","type":"uint256"}],"name":"Repay","outputs":[],"stateMutability":"nonpayable","type":"function"},{"inputs":[{"internalType":"address","name":"_asset","type":"address"},{"internalType":"uint256","name":"_tokenQuantity","type":"uint256"}],"name":"Withdraw","outputs":[],"stateMutability":"nonpayable","type":"function"},{"inputs":[{"internalType":"address","name":"","type":"address"},{"internalType":"address","name":"","type":"address"}],"name":"borrowTracker","outputs":[{"internalType":"uint256","name":"principal","type":"uint256"},{"internalType":"uint256","name":"interest","type":"uint256"}],"stateMutability":"view","type":"function"},{"inputs":[],"name":"collateral","outputs":[{"internalType":"contract Collateral","name":"","type":"address"}],"stateMutability":"view","type":"function"},{"inputs":[{"internalType":"uint256","name":"_loan","type":"uint256"},{"internalType":"uint256","name":"_multiplier","type":"uint256"},{"internalType":"uint256","name":"_collateral","type":"uint256"}],"name":"collateralLiquidationFactor","outputs":[{"internalType":"uint256","name":"","type":"uint256"}],"stateMutability":"pure","type":"function"},{"inputs":[],"name":"conversion","outputs":[{"internalType":"contract Conversion","name":"","type":"address"}],"stateMutability":"view","type":"function"},{"inputs":[{"internalType":"address","name":"_user","type":"address"}],"name":"getBalanceOf","outputs":[{"internalType":"uint256","name":"","type":"uint256"}],"stateMutability":"view","type":"function"},{"inputs":[],"name":"getCollAddr","outputs":[{"internalType":"address","name":"","type":"address"}],"stateMutability":"view","type":"function"},{"inputs":[{"internalType":"address","name":"_token","type":"address"}],"name":"getCollBalance","outputs":[{"internalType":"uint256","name":"","type":"uint256"}],"stateMutability":"view","type":"function"},{"inputs":[{"internalType":"address","name":"_user","type":"address"}],"name":"getCollateralValue","outputs":[{"internalType":"uint256","name":"","type":"uint256"}],"stateMutability":"view","type":"function"},{"inputs":[{"internalType":"address","name":"_asset","type":"address"}],"name":"getInterestQuantity","outputs":[{"internalType":"uint256","name":"","type":"uint256"}],"stateMutability":"view","type":"function"},{"inputs":[{"internalType":"address","name":"_asset","type":"address"}],"name":"getInterestRate","outputs":[{"internalType":"uint256","name":"","type":"uint256"}],"stateMutability":"view","type":"function"},{"inputs":[{"internalType":"address","name":"_user","type":"address"}],"name":"getLentAmount","outputs":[{"internalType":"uint256","name":"","type":"uint256"}],"stateMutability":"view","type":"function"},{"inputs":[{"internalType":"address","name":"_token","type":"address"}],"name":"getLiquidPct","outputs":[{"internalType":"uint256","name":"","type":"uint256"}],"stateMutability":"view","type":"function"},{"inputs":[{"internalType":"address","name":"_token","type":"address"}],"name":"getLiquidity","outputs":[{"internalType":"uint256","name":"","type":"uint256"}],"stateMutability":"view","type":"function"},{"inputs":[{"internalType":"address","name":"_token","type":"address"}],"name":"getLockedCollateral","outputs":[{"internalType":"uint256","name":"","type":"uint256"}],"stateMutability":"view","type":"function"},{"inputs":[{"internalType":"address","name":"_user","type":"address"},{"internalType":"address","name":"_asset","type":"address"}],"name":"getOutstandingLoan","outputs":[{"internalType":"uint256","name":"","type":"uint256"}],"stateMutability":"view","type":"function"},{"inputs":[],"name":"getPoolAddr","outputs":[{"internalType":"address","name":"","type":"address"}],"stateMutability":"view","type":"function"},{"inputs":[{"internalType":"address","name":"_token","type":"address"}],"name":"getPoolBalance","outputs":[{"internalType":"uint256","name":"","type":"uint256"}],"stateMutability":"view","type":"function"},{"inputs":[],"name":"getPoolValue","outputs":[{"internalType":"uint256","name":"","type":"uint256"}],"stateMutability":"view","type":"function"},{"inputs":[],"name":"getTimeDelta","outputs":[{"internalType":"uint256","name":"","type":"uint256"}],"stateMutability":"view","type":"function"},{"inputs":[],"name":"getTokenAddr","outputs":[{"internalType":"address","name":"","type":"address"}],"stateMutability":"view","type":"function"},{"inputs":[],"name":"getTokenDollarValue","outputs":[{"internalType":"uint256","name":"","type":"uint256"}],"stateMutability":"view","type":"function"},{"inputs":[{"internalType":"address","name":"_asset","type":"address"}],"name":"getTotalInterest","outputs":[{"internalType":"uint256","name":"","type":"uint256"}],"stateMutability":"view","type":"function"},{"inputs":[],"name":"getTotalSupply","outputs":[{"internalType":"uint256","name":"","type":"uint256"}],"stateMutability":"view","type":"function"},{"inputs":[{"internalType":"address","name":"_user","type":"address"},{"internalType":"address","name":"_asset","type":"address"}],"name":"getUserCollateral","outputs":[{"internalType":"uint256","name":"","type":"uint256"}],"stateMutability":"view","type":"function"},{"inputs":[{"internalType":"address","name":"_user","type":"address"},{"internalType":"address","name":"_asset","type":"address"}],"name":"interestQuantity","outputs":[{"internalType":"uint256","name":"","type":"uint256"}],"stateMutability":"view","type":"function"},{"inputs":[],"name":"liquidationManager","outputs":[{"internalType":"string","name":"","type":"string"}],"stateMutability":"nonpayable","type":"function"},{"inputs":[{"internalType":"uint256","name":"_loan","type":"uint256"},{"internalType":"uint256","name":"_multiplier","type":"uint256"},{"internalType":"uint256","name":"_collateral","type":"uint256"}],"name":"loanLiquidationFactor","outputs":[{"internalType":"uint256","name":"","type":"uint256"}],"stateMutability":"pure","type":"function"},{"inputs":[{"internalType":"uint256","name":"a","type":"uint256"},{"internalType":"uint256","name":"b","type":"uint256"}],"name":"minimum","outputs":[{"internalType":"uint256","name":"","type":"uint256"}],"stateMutability":"pure","type":"function"},{"inputs":[],"name":"offerCollateralAssets","outputs":[],"stateMutability":"nonpayable","type":"function"},{"inputs":[],"name":"payoutInterest","outputs":[],"stateMutability":"nonpayable","type":"function"},{"inputs":[],"name":"pool","outputs":[{"internalType":"contract Pool","name":"","type":"address"}],"stateMutability":"view","type":"function"},{"inputs":[],"name":"reserve","outputs":[{"internalType":"contract Reserve","name":"","type":"address"}],"stateMutability":"view","type":"function"},{"inputs":[],"name":"token","outputs":[{"internalType":"contract LVRToken","name":"","type":"address"}],"stateMutability":"view","type":"function"},{"inputs":[{"internalType":"address","name":"_borrower","type":"address"}],"name":"totalValueBorrowed","outputs":[{"internalType":"uint256","name":"","type":"uint256"}],"stateMutability":"view","type":"function"},{"inputs":[{"internalType":"address","name":"_asset","type":"address"},{"internalType":"uint256","name":"_quantity","type":"uint256"},{"internalType":"bool","name":"_toPool","type":"bool"}],"name":"unlockCollateral","outputs":[],"stateMutability":"nonpayable","type":"function"},{"inputs":[{"internalType":"address","name":"_asset","type":"address"},{"internalType":"uint256","name":"_updated_threshold","type":"uint256"}],"name":"updateCollReqByAsset","outputs":[],"stateMutability":"nonpayable","type":"function"},{"inputs":[{"internalType":"address","name":"_asset","type":"address"}],"name":"updateSupportedAssets","outputs":[],"stateMutability":"nonpayable","type":"function"}],"compiler":{"version":"0.8.11+commit.d7f03943","evm_version":"istanbul","optimizer":{"enabled":true,"runs":200}},"contractName":"LendingPool","language":"Solidity","natspec":{"methods":{},"kind":"dev","version":1},"opcodes":"PUSH1 0x80 PUSH1 0x40 MSTORE CALLVALUE DUP1 ISZERO PUSH2 0x10 JUMPI PUSH1 0x0 DUP1 REVERT JUMPDEST POP PUSH1 0x4 CALLDATASIZE LT PUSH2 0x253 JUMPI PUSH1 0x0 CALLDATALOAD PUSH1 0xE0 SHR DUP1 PUSH4 0x97904E42 GT PUSH2 0x146 JUMPI DUP1 PUSH4 0xCD3293DE GT PUSH2 0xC3 JUMPI DUP1 PUSH4 0xDD2D2A12 GT PUSH2 0x87 JUMPI DUP1 PUSH4 0xDD2D2A12 EQ PUSH2 0x530 JUMPI DUP1 PUSH4 0xDE259242 EQ PUSH2 0x543 JUMPI DUP1 PUSH4 0xDE30F97D EQ PUSH2 0x554 JUMPI DUP1 PUSH4 0xF2DF757B EQ PUSH2 0x567 JUMPI DUP1 PUSH4 0xFAC8AFF8 EQ PUSH2 0x57A JUMPI DUP1 PUSH4 0xFC0C546A EQ PUSH2 0x5A3 JUMPI PUSH1 0x0 DUP1 REVERT JUMPDEST DUP1 PUSH4 0xCD3293DE EQ PUSH2 0x4D1 JUMPI DUP1 PUSH4 0xD28682EA EQ PUSH2 0x4E4 JUMPI DUP1 PUSH4 0xD3EA0F89 EQ PUSH2 0x4F7 JUMPI DUP1 PUSH4 0xD49AB22C EQ PUSH2 0x50A JUMPI DUP1 PUSH4 0xD8DFEB45 EQ PUSH2 0x51D JUMPI PUSH1 0x0 DUP1 REVERT JUMPDEST DUP1 PUSH4 0xA78E4046 GT PUSH2 0x10A JUMPI DUP1 PUSH4 0xA78E4046 EQ PUSH2 0x453 JUMPI DUP1 PUSH4 0xB9E037E6 EQ PUSH2 0x466 JUMPI DUP1 PUSH4 0xC0ABB179 EQ PUSH2 0x479 JUMPI DUP1 PUSH4 0xC0F2B1CF EQ PUSH2 0x48C JUMPI DUP1 PUSH4 0xC4E41B22 EQ PUSH2 0x4C9 JUMPI PUSH1 0x0 DUP1 REVERT JUMPDEST DUP1 PUSH4 0x97904E42 EQ PUSH2 0x3F4 JUMPI DUP1 PUSH4 0x9B96EECE EQ PUSH2 0x407 JUMPI DUP1 PUSH4 0x9FEEA54F EQ PUSH2 0x41A JUMPI DUP1 PUSH4 0xA55E8668 EQ PUSH2 0x42D JUMPI DUP1 PUSH4 0xA747B93B EQ PUSH2 0x440 JUMPI PUSH1 0x0 DUP1 REVERT JUMPDEST DUP1 PUSH4 0x511C5661 GT PUSH2 0x1D4 JUMPI DUP1 PUSH4 0x6858EA07 GT PUSH2 0x198 JUMPI DUP1 PUSH4 0x6858EA07 EQ PUSH2 0x36C JUMPI DUP1 PUSH4 0x6AAA434E EQ PUSH2 0x37F JUMPI DUP1 PUSH4 0x6DB18093 EQ PUSH2 0x3C6 JUMPI DUP1 PUSH4 0x884EDAD9 EQ PUSH2 0x3CE JUMPI DUP1 PUSH4 0x9311CA69 EQ PUSH2 0x3E1 JUMPI PUSH1 0x0 DUP1 REVERT JUMPDEST DUP1 PUSH4 0x511C5661 EQ PUSH2 0x311 JUMPI DUP1 PUSH4 0x582B2720 EQ PUSH2 0x324 JUMPI DUP1 PUSH4 0x5C16DE4F EQ PUSH2 0x335 JUMPI DUP1 PUSH4 0x5C88F5A5 EQ PUSH2 0x348 JUMPI DUP1 PUSH4 0x63E36DAC EQ PUSH2 0x35B JUMPI PUSH1 0x0 DUP1 REVERT JUMPDEST DUP1 PUSH4 0x2273323F GT PUSH2 0x21B JUMPI DUP1 PUSH4 0x2273323F EQ PUSH2 0x2D9 JUMPI DUP1 PUSH4 0x243D8E05 EQ PUSH2 0x2E1 JUMPI DUP1 PUSH4 0x2D5562A0 EQ PUSH2 0x2E3 JUMPI DUP1 PUSH4 0x46C928FC EQ PUSH2 0x2EB JUMPI DUP1 PUSH4 0x4BCC1709 EQ PUSH2 0x2FE JUMPI PUSH1 0x0 DUP1 REVERT JUMPDEST DUP1 PUSH4 0x57393C0 EQ PUSH2 0x258 JUMPI DUP1 PUSH4 0x90FE096 EQ PUSH2 0x27E JUMPI DUP1 PUSH4 0x16F0115B EQ PUSH2 0x291 JUMPI DUP1 PUSH4 0x1BA2F531 EQ PUSH2 0x2BC JUMPI DUP1 PUSH4 0x1EF3A04C EQ PUSH2 0x2C4 JUMPI JUMPDEST PUSH1 0x0 DUP1 REVERT JUMPDEST PUSH2 0x26B PUSH2 0x266 CALLDATASIZE PUSH1 0x4 PUSH2 0x3284 JUMP JUMPDEST PUSH2 0x5B6 JUMP JUMPDEST PUSH1 0x40 MLOAD SWAP1 DUP2 MSTORE PUSH1 0x20 ADD JUMPDEST PUSH1 0x40 MLOAD DUP1 SWAP2 SUB SWAP1 RETURN JUMPDEST PUSH2 0x26B PUSH2 0x28C CALLDATASIZE PUSH1 0x4 PUSH2 0x329F JUMP JUMPDEST PUSH2 0x62C JUMP JUMPDEST PUSH1 0x2 SLOAD PUSH2 0x2A4 SWAP1 PUSH1 0x1 PUSH1 0x1 PUSH1 0xA0 SHL SUB AND DUP2 JUMP JUMPDEST PUSH1 0x40 MLOAD PUSH1 0x1 PUSH1 0x1 PUSH1 0xA0 SHL SUB SWAP1 SWAP2 AND DUP2 MSTORE PUSH1 0x20 ADD PUSH2 0x275 JUMP JUMPDEST PUSH2 0x26B PUSH2 0x6B8 JUMP JUMPDEST PUSH2 0x2CC PUSH2 0x736 JUMP JUMPDEST PUSH1 0x40 MLOAD PUSH2 0x275 SWAP2 SWAP1 PUSH2 0x32CB JUMP JUMPDEST PUSH2 0x2E1 PUSH2 0xCCC JUMP JUMPDEST STOP JUMPDEST PUSH2 0x26B PUSH2 0x11AF JUMP JUMPDEST PUSH2 0x2E1 PUSH2 0x2F9 CALLDATASIZE PUSH1 0x4 PUSH2 0x3320 JUMP JUMPDEST PUSH2 0x1202 JUMP JUMPDEST PUSH2 0x2E1 PUSH2 0x30C CALLDATASIZE PUSH1 0x4 PUSH2 0x3366 JUMP JUMPDEST PUSH2 0x1852 JUMP JUMPDEST PUSH2 0x26B PUSH2 0x31F CALLDATASIZE PUSH1 0x4 PUSH2 0x3284 JUMP JUMPDEST PUSH2 0x1B0D JUMP JUMPDEST PUSH1 0x4 SLOAD PUSH1 0x1 PUSH1 0x1 PUSH1 0xA0 SHL SUB AND PUSH2 0x2A4 JUMP JUMPDEST PUSH2 0x2E1 PUSH2 0x343 CALLDATASIZE PUSH1 0x4 PUSH2 0x3392 JUMP JUMPDEST PUSH2 0x1B40 JUMP JUMPDEST PUSH2 0x26B PUSH2 0x356 CALLDATASIZE PUSH1 0x4 PUSH2 0x3284 JUMP JUMPDEST PUSH2 0x1E29 JUMP JUMPDEST PUSH1 0x3 SLOAD PUSH1 0x1 PUSH1 0x1 PUSH1 0xA0 SHL SUB AND PUSH2 0x2A4 JUMP JUMPDEST PUSH2 0x2E1 PUSH2 0x37A CALLDATASIZE PUSH1 0x4 PUSH2 0x3392 JUMP JUMPDEST PUSH2 0x1E5C JUMP JUMPDEST PUSH2 0x3B1 PUSH2 0x38D CALLDATASIZE PUSH1 0x4 PUSH2 0x33BC JUMP JUMPDEST PUSH1 0xA PUSH1 0x20 SWAP1 DUP2 MSTORE PUSH1 0x0 SWAP3 DUP4 MSTORE PUSH1 0x40 DUP1 DUP5 KECCAK256 SWAP1 SWAP2 MSTORE SWAP1 DUP3 MSTORE SWAP1 KECCAK256 DUP1 SLOAD PUSH1 0x1 SWAP1 SWAP2 ADD SLOAD DUP3 JUMP JUMPDEST PUSH1 0x40 DUP1 MLOAD SWAP3 DUP4 MSTORE PUSH1 0x20 DUP4 ADD SWAP2 SWAP1 SWAP2 MSTORE ADD PUSH2 0x275 JUMP JUMPDEST PUSH2 0x26B PUSH2 0x1EDD JUMP JUMPDEST PUSH2 0x2E1 PUSH2 0x3DC CALLDATASIZE PUSH1 0x4 PUSH2 0x3392 JUMP JUMPDEST PUSH2 0x1F32 JUMP JUMPDEST PUSH1 0x1 SLOAD PUSH2 0x2A4 SWAP1 PUSH1 0x1 PUSH1 0x1 PUSH1 0xA0 SHL SUB AND DUP2 JUMP JUMPDEST PUSH2 0x26B PUSH2 0x402 CALLDATASIZE PUSH1 0x4 PUSH2 0x3284 JUMP JUMPDEST PUSH2 0x2570 JUMP JUMPDEST PUSH2 0x26B PUSH2 0x415 CALLDATASIZE PUSH1 0x4 PUSH2 0x3284 JUMP JUMPDEST PUSH2 0x25A3 JUMP JUMPDEST PUSH2 0x2E1 PUSH2 0x428 CALLDATASIZE PUSH1 0x4 PUSH2 0x3284 JUMP JUMPDEST PUSH2 0x25DB JUMP JUMPDEST PUSH2 0x26B PUSH2 0x43B CALLDATASIZE PUSH1 0x4 PUSH2 0x33BC JUMP JUMPDEST PUSH2 0x2759 JUMP JUMPDEST PUSH2 0x26B PUSH2 0x44E CALLDATASIZE PUSH1 0x4 PUSH2 0x3284 JUMP JUMPDEST PUSH2 0x27D7 JUMP JUMPDEST PUSH2 0x26B PUSH2 0x461 CALLDATASIZE PUSH1 0x4 PUSH2 0x33BC JUMP JUMPDEST PUSH2 0x280A JUMP JUMPDEST PUSH2 0x2E1 PUSH2 0x474 CALLDATASIZE PUSH1 0x4 PUSH2 0x33E6 JUMP JUMPDEST PUSH2 0x2842 JUMP JUMPDEST PUSH2 0x26B PUSH2 0x487 CALLDATASIZE PUSH1 0x4 PUSH2 0x329F JUMP JUMPDEST PUSH2 0x2DB4 JUMP JUMPDEST PUSH2 0x26B PUSH2 0x49A CALLDATASIZE PUSH1 0x4 PUSH2 0x33BC JUMP JUMPDEST PUSH1 0x1 PUSH1 0x1 PUSH1 0xA0 SHL SUB DUP1 DUP3 AND PUSH1 0x0 SWAP1 DUP2 MSTORE PUSH1 0xA PUSH1 0x20 SWAP1 DUP2 MSTORE PUSH1 0x40 DUP1 DUP4 KECCAK256 SWAP4 DUP7 AND DUP4 MSTORE SWAP3 SWAP1 MSTORE KECCAK256 PUSH1 0x1 ADD SLOAD SWAP3 SWAP2 POP POP JUMP JUMPDEST PUSH2 0x26B PUSH2 0x2E23 JUMP JUMPDEST PUSH1 0x5 SLOAD PUSH2 0x2A4 SWAP1 PUSH1 0x1 PUSH1 0x1 PUSH1 0xA0 SHL SUB AND DUP2 JUMP JUMPDEST PUSH2 0x26B PUSH2 0x4F2 CALLDATASIZE PUSH1 0x4 PUSH2 0x3284 JUMP JUMPDEST PUSH2 0x2E78 JUMP JUMPDEST PUSH2 0x26B PUSH2 0x505 CALLDATASIZE PUSH1 0x4 PUSH2 0x3284 JUMP JUMPDEST PUSH2 0x2EAB JUMP JUMPDEST PUSH2 0x26B PUSH2 0x518 CALLDATASIZE PUSH1 0x4 PUSH2 0x3284 JUMP JUMPDEST PUSH2 0x2EE9 JUMP JUMPDEST PUSH1 0x3 SLOAD PUSH2 0x2A4 SWAP1 PUSH1 0x1 PUSH1 0x1 PUSH1 0xA0 SHL SUB AND DUP2 JUMP JUMPDEST PUSH2 0x26B PUSH2 0x53E CALLDATASIZE PUSH1 0x4 PUSH2 0x342B JUMP JUMPDEST PUSH2 0x2F1C JUMP JUMPDEST PUSH1 0x2 SLOAD PUSH1 0x1 PUSH1 0x1 PUSH1 0xA0 SHL SUB AND PUSH2 0x2A4 JUMP JUMPDEST PUSH2 0x26B PUSH2 0x562 CALLDATASIZE PUSH1 0x4 PUSH2 0x3284 JUMP JUMPDEST PUSH2 0x2F28 JUMP JUMPDEST PUSH2 0x26B PUSH2 0x575 CALLDATASIZE PUSH1 0x4 PUSH2 0x3284 JUMP JUMPDEST PUSH2 0x2F5B JUMP JUMPDEST PUSH2 0x26B PUSH2 0x588 CALLDATASIZE PUSH1 0x4 PUSH2 0x3284 JUMP JUMPDEST PUSH1 0x1 PUSH1 0x1 PUSH1 0xA0 SHL SUB AND PUSH1 0x0 SWAP1 DUP2 MSTORE PUSH1 0x7 PUSH1 0x20 MSTORE PUSH1 0x40 SWAP1 KECCAK256 SLOAD SWAP1 JUMP JUMPDEST PUSH1 0x4 SLOAD PUSH2 0x2A4 SWAP1 PUSH1 0x1 PUSH1 0x1 PUSH1 0xA0 SHL SUB AND DUP2 JUMP JUMPDEST PUSH1 0x3 SLOAD PUSH1 0x40 MLOAD PUSH4 0xF8B2CB4F PUSH1 0xE0 SHL DUP2 MSTORE PUSH1 0x1 PUSH1 0x1 PUSH1 0xA0 SHL SUB DUP4 DUP2 AND PUSH1 0x4 DUP4 ADD MSTORE PUSH1 0x0 SWAP3 AND SWAP1 PUSH4 0xF8B2CB4F SWAP1 PUSH1 0x24 ADD JUMPDEST PUSH1 0x20 PUSH1 0x40 MLOAD DUP1 DUP4 SUB DUP2 DUP7 GAS STATICCALL ISZERO DUP1 ISZERO PUSH2 0x602 JUMPI RETURNDATASIZE PUSH1 0x0 DUP1 RETURNDATACOPY RETURNDATASIZE PUSH1 0x0 REVERT JUMPDEST POP POP POP POP PUSH1 0x40 MLOAD RETURNDATASIZE PUSH1 0x1F NOT PUSH1 0x1F DUP3 ADD AND DUP3 ADD DUP1 PUSH1 0x40 MSTORE POP DUP2 ADD SWAP1 PUSH2 0x626 SWAP2 SWAP1 PUSH2 0x344D JUMP JUMPDEST SWAP3 SWAP2 POP POP JUMP JUMPDEST PUSH1 0x0 DUP1 PUSH8 0xDE0B6B3A7640000 DUP6 PUSH2 0x643 DUP3 DUP8 PUSH2 0x347C JUMP JUMPDEST PUSH2 0x64D SWAP2 SWAP1 PUSH2 0x3493 JUMP JUMPDEST PUSH2 0x657 SWAP2 SWAP1 PUSH2 0x34B2 JUMP JUMPDEST DUP4 PUSH8 0xDE0B6B3A7640000 PUSH2 0x66B DUP8 DUP10 PUSH2 0x3493 JUMP JUMPDEST PUSH2 0x675 SWAP2 SWAP1 PUSH2 0x34B2 JUMP JUMPDEST PUSH2 0x67F SWAP2 SWAP1 PUSH2 0x347C JUMP JUMPDEST PUSH2 0x691 SWAP1 PUSH8 0x16345785D8A00000 PUSH2 0x3493 JUMP JUMPDEST PUSH2 0x69B SWAP2 SWAP1 PUSH2 0x34B2 JUMP JUMPDEST SWAP1 POP PUSH2 0x6AF DUP2 PUSH8 0xDE0B6B3A7640000 PUSH2 0x347C JUMP JUMPDEST SWAP6 SWAP5 POP POP POP POP POP JUMP JUMPDEST PUSH1 0x0 PUSH1 0x4 PUSH1 0x0 SWAP1 SLOAD SWAP1 PUSH2 0x100 EXP SWAP1 DIV PUSH1 0x1 PUSH1 0x1 PUSH1 0xA0 SHL SUB AND PUSH1 0x1 PUSH1 0x1 PUSH1 0xA0 SHL SUB AND PUSH4 0x8A02775B PUSH1 0x40 MLOAD DUP2 PUSH4 0xFFFFFFFF AND PUSH1 0xE0 SHL DUP2 MSTORE PUSH1 0x4 ADD PUSH1 0x20 PUSH1 0x40 MLOAD DUP1 DUP4 SUB DUP2 DUP7 GAS STATICCALL ISZERO DUP1 ISZERO PUSH2 0x70D JUMPI RETURNDATASIZE PUSH1 0x0 DUP1 RETURNDATACOPY RETURNDATASIZE PUSH1 0x0 REVERT JUMPDEST POP POP POP POP PUSH1 0x40 MLOAD RETURNDATASIZE PUSH1 0x1F NOT PUSH1 0x1F DUP3 ADD AND DUP3 ADD DUP1 PUSH1 0x40 MSTORE POP DUP2 ADD SWAP1 PUSH2 0x731 SWAP2 SWAP1 PUSH2 0x344D JUMP JUMPDEST SWAP1 POP SWAP1 JUMP JUMPDEST PUSH1 0xE SLOAD PUSH1 0x8 SLOAD PUSH1 0x60 SWAP2 SWAP1 PUSH1 0x0 JUMPDEST DUP3 DUP2 PUSH2 0xFFFF AND LT ISZERO PUSH2 0xCC6 JUMPI PUSH1 0x0 PUSH1 0xE DUP3 PUSH2 0xFFFF AND DUP2 SLOAD DUP2 LT PUSH2 0x768 JUMPI PUSH2 0x768 PUSH2 0x34D4 JUMP JUMPDEST PUSH1 0x0 SWAP2 DUP3 MSTORE PUSH1 0x20 DUP3 KECCAK256 ADD SLOAD PUSH1 0x3 SLOAD PUSH1 0x40 MLOAD PUSH4 0x1FCD2D5 PUSH1 0xE0 SHL DUP2 MSTORE PUSH1 0x1 PUSH1 0x1 PUSH1 0xA0 SHL SUB SWAP3 DUP4 AND PUSH1 0x4 DUP3 ADD DUP2 SWAP1 MSTORE SWAP5 POP SWAP2 AND SWAP1 PUSH4 0x1FCD2D5 SWAP1 PUSH1 0x24 ADD PUSH1 0x20 PUSH1 0x40 MLOAD DUP1 DUP4 SUB DUP2 DUP7 GAS STATICCALL ISZERO DUP1 ISZERO PUSH2 0x7C0 JUMPI RETURNDATASIZE PUSH1 0x0 DUP1 RETURNDATACOPY RETURNDATASIZE PUSH1 0x0 REVERT JUMPDEST POP POP POP POP PUSH1 0x40 MLOAD RETURNDATASIZE PUSH1 0x1F NOT PUSH1 0x1F DUP3 ADD AND DUP3 ADD DUP1 PUSH1 0x40 MSTORE POP DUP2 ADD SWAP1 PUSH2 0x7E4 SWAP2 SWAP1 PUSH2 0x344D JUMP JUMPDEST SWAP1 POP PUSH1 0x0 PUSH2 0x7F1 DUP4 PUSH2 0x2F5B JUMP JUMPDEST SWAP1 POP DUP1 DUP3 LT ISZERO PUSH2 0xC6E JUMPI PUSH1 0x0 JUMPDEST DUP6 DUP2 PUSH2 0xFFFF AND LT ISZERO PUSH2 0xC2C JUMPI PUSH1 0x0 PUSH1 0x8 DUP3 PUSH2 0xFFFF AND DUP2 SLOAD DUP2 LT PUSH2 0x823 JUMPI PUSH2 0x823 PUSH2 0x34D4 JUMP JUMPDEST PUSH1 0x0 SWAP2 DUP3 MSTORE PUSH1 0x20 DUP3 KECCAK256 ADD SLOAD PUSH1 0x3 SLOAD PUSH1 0x40 MLOAD PUSH4 0x6829F1B PUSH1 0xE3 SHL DUP2 MSTORE PUSH1 0x1 PUSH1 0x1 PUSH1 0xA0 SHL SUB SWAP3 DUP4 AND PUSH1 0x4 DUP3 ADD DUP2 SWAP1 MSTORE SWAP5 POP SWAP2 AND SWAP1 PUSH4 0x3414F8D8 SWAP1 PUSH1 0x24 ADD PUSH1 0x20 PUSH1 0x40 MLOAD DUP1 DUP4 SUB DUP2 DUP7 GAS STATICCALL ISZERO DUP1 ISZERO PUSH2 0x87B JUMPI RETURNDATASIZE PUSH1 0x0 DUP1 RETURNDATACOPY RETURNDATASIZE PUSH1 0x0 REVERT JUMPDEST POP POP POP POP PUSH1 0x40 MLOAD RETURNDATASIZE PUSH1 0x1F NOT PUSH1 0x1F DUP3 ADD AND DUP3 ADD DUP1 PUSH1 0x40 MSTORE POP DUP2 ADD SWAP1 PUSH2 0x89F SWAP2 SWAP1 PUSH2 0x344D JUMP JUMPDEST SWAP1 POP PUSH1 0x0 PUSH2 0x8AE DUP6 DUP4 DUP9 PUSH2 0x62C JUMP JUMPDEST SWAP1 POP PUSH1 0x0 PUSH2 0x8BD DUP7 DUP5 DUP10 PUSH2 0x2DB4 JUMP JUMPDEST PUSH1 0x1 PUSH1 0x1 PUSH1 0xA0 SHL SUB DUP1 DUP7 AND PUSH1 0x0 SWAP1 DUP2 MSTORE PUSH1 0xA PUSH1 0x20 SWAP1 DUP2 MSTORE PUSH1 0x40 DUP1 DUP4 KECCAK256 SWAP4 DUP14 AND DUP4 MSTORE SWAP3 SWAP1 MSTORE KECCAK256 SLOAD SWAP1 SWAP2 POP ISZERO ISZERO DUP1 PUSH2 0x91A JUMPI POP PUSH1 0x1 PUSH1 0x1 PUSH1 0xA0 SHL SUB DUP1 DUP6 AND PUSH1 0x0 SWAP1 DUP2 MSTORE PUSH1 0xA PUSH1 0x20 SWAP1 DUP2 MSTORE PUSH1 0x40 DUP1 DUP4 KECCAK256 SWAP4 DUP13 AND DUP4 MSTORE SWAP3 SWAP1 MSTORE KECCAK256 PUSH1 0x1 ADD SLOAD ISZERO ISZERO JUMPDEST ISZERO PUSH2 0xA96 JUMPI PUSH1 0x1 PUSH1 0x1 PUSH1 0xA0 SHL SUB DUP5 DUP2 AND PUSH1 0x0 SWAP1 DUP2 MSTORE PUSH1 0xA PUSH1 0x20 SWAP1 DUP2 MSTORE PUSH1 0x40 DUP1 DUP4 KECCAK256 SWAP4 DUP13 AND DUP4 MSTORE SWAP3 SWAP1 MSTORE SWAP1 DUP2 KECCAK256 DUP1 SLOAD PUSH1 0x1 SWAP1 SWAP2 ADD SLOAD PUSH2 0x958 SWAP2 SWAP1 PUSH2 0x34EA JUMP JUMPDEST PUSH2 0x96A DUP5 PUSH8 0xDE0B6B3A7640000 PUSH2 0x347C JUMP JUMPDEST PUSH2 0x974 SWAP2 SWAP1 PUSH2 0x3493 JUMP JUMPDEST PUSH1 0x1 PUSH1 0x1 PUSH1 0xA0 SHL SUB DUP1 DUP8 AND PUSH1 0x0 SWAP1 DUP2 MSTORE PUSH1 0xA PUSH1 0x20 SWAP1 DUP2 MSTORE PUSH1 0x40 DUP1 DUP4 KECCAK256 SWAP4 DUP15 AND DUP4 MSTORE SWAP3 SWAP1 MSTORE KECCAK256 PUSH1 0x1 ADD SLOAD SWAP1 SWAP2 POP PUSH8 0xDE0B6B3A7640000 SWAP1 PUSH2 0x9B5 SWAP1 DUP6 SWAP1 PUSH2 0x3493 JUMP JUMPDEST PUSH2 0x9BF SWAP2 SWAP1 PUSH2 0x34B2 JUMP JUMPDEST PUSH1 0x1 PUSH1 0x1 PUSH1 0xA0 SHL SUB DUP7 DUP2 AND PUSH1 0x0 SWAP1 DUP2 MSTORE PUSH1 0xA PUSH1 0x20 SWAP1 DUP2 MSTORE PUSH1 0x40 DUP1 DUP4 KECCAK256 SWAP4 DUP15 AND DUP4 MSTORE SWAP3 SWAP1 MSTORE KECCAK256 PUSH1 0x1 DUP2 ADD SWAP2 SWAP1 SWAP2 SSTORE SLOAD PUSH8 0xDE0B6B3A7640000 SWAP1 PUSH2 0xA02 SWAP1 DUP6 SWAP1 PUSH2 0x3493 JUMP JUMPDEST PUSH2 0xA0C SWAP2 SWAP1 PUSH2 0x34B2 JUMP JUMPDEST PUSH1 0x1 PUSH1 0x1 PUSH1 0xA0 SHL SUB DUP7 DUP2 AND PUSH1 0x0 DUP2 DUP2 MSTORE PUSH1 0xA PUSH1 0x20 SWAP1 DUP2 MSTORE PUSH1 0x40 DUP1 DUP4 KECCAK256 DUP16 DUP7 AND DUP5 MSTORE SWAP1 SWAP2 MSTORE SWAP1 DUP2 SWAP1 KECCAK256 SWAP4 SWAP1 SWAP4 SSTORE PUSH1 0x5 SLOAD SWAP3 MLOAD PUSH4 0x5EA58017 PUSH1 0xE1 SHL DUP2 MSTORE PUSH1 0x4 DUP2 ADD SWAP2 SWAP1 SWAP2 MSTORE PUSH1 0x24 DUP2 ADD DUP5 SWAP1 MSTORE SWAP2 AND SWAP1 PUSH4 0xBD4B002E SWAP1 PUSH1 0x44 ADD PUSH1 0x0 PUSH1 0x40 MLOAD DUP1 DUP4 SUB DUP2 PUSH1 0x0 DUP8 DUP1 EXTCODESIZE ISZERO DUP1 ISZERO PUSH2 0xA7C JUMPI PUSH1 0x0 DUP1 REVERT JUMPDEST POP GAS CALL ISZERO DUP1 ISZERO PUSH2 0xA90 JUMPI RETURNDATASIZE PUSH1 0x0 DUP1 RETURNDATACOPY RETURNDATASIZE PUSH1 0x0 REVERT JUMPDEST POP POP POP POP POP JUMPDEST PUSH1 0x3 SLOAD PUSH1 0x40 MLOAD PUSH4 0x2B92A07D PUSH1 0xE0 SHL DUP2 MSTORE PUSH1 0x1 PUSH1 0x1 PUSH1 0xA0 SHL SUB DUP11 DUP2 AND PUSH1 0x4 DUP4 ADD MSTORE DUP7 DUP2 AND PUSH1 0x24 DUP4 ADD MSTORE PUSH1 0x0 SWAP3 AND SWAP1 PUSH4 0x2B92A07D SWAP1 PUSH1 0x44 ADD PUSH1 0x20 PUSH1 0x40 MLOAD DUP1 DUP4 SUB DUP2 DUP7 GAS STATICCALL ISZERO DUP1 ISZERO PUSH2 0xAE9 JUMPI RETURNDATASIZE PUSH1 0x0 DUP1 RETURNDATACOPY RETURNDATASIZE PUSH1 0x0 REVERT JUMPDEST POP POP POP POP PUSH1 0x40 MLOAD RETURNDATASIZE PUSH1 0x1F NOT PUSH1 0x1F DUP3 ADD AND DUP3 ADD DUP1 PUSH1 0x40 MSTORE POP DUP2 ADD SWAP1 PUSH2 0xB0D SWAP2 SWAP1 PUSH2 0x344D JUMP JUMPDEST GT ISZERO PUSH2 0xC15 JUMPI PUSH1 0x3 SLOAD PUSH1 0x40 MLOAD PUSH4 0x2B92A07D PUSH1 0xE0 SHL DUP2 MSTORE PUSH1 0x1 PUSH1 0x1 PUSH1 0xA0 SHL SUB DUP11 DUP2 AND PUSH1 0x4 DUP4 ADD MSTORE DUP7 DUP2 AND PUSH1 0x24 DUP4 ADD MSTORE PUSH1 0x0 SWAP3 PUSH8 0xDE0B6B3A7640000 SWAP3 DUP6 SWAP3 SWAP1 SWAP2 AND SWAP1 PUSH4 0x2B92A07D SWAP1 PUSH1 0x44 ADD PUSH1 0x20 PUSH1 0x40 MLOAD DUP1 DUP4 SUB DUP2 DUP7 GAS STATICCALL ISZERO DUP1 ISZERO PUSH2 0xB74 JUMPI RETURNDATASIZE PUSH1 0x0 DUP1 RETURNDATACOPY RETURNDATASIZE PUSH1 0x0 REVERT JUMPDEST POP POP POP POP PUSH1 0x40 MLOAD RETURNDATASIZE PUSH1 0x1F NOT PUSH1 0x1F DUP3 ADD AND DUP3 ADD DUP1 PUSH1 0x40 MSTORE POP DUP2 ADD SWAP1 PUSH2 0xB98 SWAP2 SWAP1 PUSH2 0x344D JUMP JUMPDEST PUSH2 0xBA2 SWAP2 SWAP1 PUSH2 0x3493 JUMP JUMPDEST PUSH2 0xBAC SWAP2 SWAP1 PUSH2 0x34B2 JUMP JUMPDEST PUSH1 0x3 SLOAD PUSH1 0x40 MLOAD PUSH4 0x12772BB PUSH1 0xE5 SHL DUP2 MSTORE SWAP2 SWAP3 POP PUSH1 0x1 PUSH1 0x1 PUSH1 0xA0 SHL SUB AND SWAP1 PUSH4 0x24EE5760 SWAP1 PUSH2 0xBE1 SWAP1 DUP13 SWAP1 DUP10 SWAP1 DUP7 SWAP1 PUSH1 0x4 ADD PUSH2 0x3502 JUMP JUMPDEST PUSH1 0x0 PUSH1 0x40 MLOAD DUP1 DUP4 SUB DUP2 PUSH1 0x0 DUP8 DUP1 EXTCODESIZE ISZERO DUP1 ISZERO PUSH2 0xBFB JUMPI PUSH1 0x0 DUP1 REVERT JUMPDEST POP GAS CALL ISZERO DUP1 ISZERO PUSH2 0xC0F JUMPI RETURNDATASIZE PUSH1 0x0 DUP1 RETURNDATACOPY RETURNDATASIZE PUSH1 0x0 REVERT JUMPDEST POP POP POP POP POP JUMPDEST POP POP POP POP DUP1 DUP1 PUSH2 0xC24 SWAP1 PUSH2 0x3526 JUMP JUMPDEST SWAP2 POP POP PUSH2 0x7FE JUMP JUMPDEST POP PUSH1 0x40 MLOAD DUP1 PUSH1 0x40 ADD PUSH1 0x40 MSTORE DUP1 PUSH1 0x19 DUP2 MSTORE PUSH1 0x20 ADD PUSH32 0x4C6F616E205061727469616C6C79204C69717569646174656400000000000000 DUP2 MSTORE POP SWAP7 POP POP POP POP POP POP POP SWAP1 JUMP JUMPDEST PUSH1 0x64 PUSH2 0xC7B DUP3 PUSH1 0x69 PUSH2 0x3493 JUMP JUMPDEST PUSH2 0xC85 SWAP2 SWAP1 PUSH2 0x34B2 JUMP JUMPDEST DUP3 LT ISZERO PUSH2 0xCB0 JUMPI PUSH1 0x40 MLOAD DUP1 PUSH1 0x60 ADD PUSH1 0x40 MSTORE DUP1 PUSH1 0x3E DUP2 MSTORE PUSH1 0x20 ADD PUSH2 0x3576 PUSH1 0x3E SWAP2 CODECOPY SWAP7 POP POP POP POP POP POP POP SWAP1 JUMP JUMPDEST POP POP POP DUP1 DUP1 PUSH2 0xCBE SWAP1 PUSH2 0x3526 JUMP JUMPDEST SWAP2 POP POP PUSH2 0x743 JUMP JUMPDEST POP POP POP SWAP1 JUMP JUMPDEST PUSH2 0xCD4 PUSH2 0x3088 JUMP JUMPDEST PUSH1 0x8 SLOAD PUSH1 0x0 JUMPDEST DUP2 DUP2 PUSH2 0xFFFF AND LT ISZERO PUSH2 0x11AB JUMPI PUSH1 0x0 PUSH1 0x8 DUP3 PUSH2 0xFFFF AND DUP2 SLOAD DUP2 LT PUSH2 0xCFF JUMPI PUSH2 0xCFF PUSH2 0x34D4 JUMP JUMPDEST PUSH1 0x0 SWAP2 DUP3 MSTORE PUSH1 0x20 DUP3 KECCAK256 ADD SLOAD PUSH1 0x2 SLOAD PUSH1 0x40 MLOAD PUSH4 0x662128F3 PUSH1 0xE1 SHL DUP2 MSTORE PUSH1 0x1 PUSH1 0x1 PUSH1 0xA0 SHL SUB SWAP3 DUP4 AND PUSH1 0x4 DUP3 ADD DUP2 SWAP1 MSTORE SWAP5 POP SWAP2 AND SWAP1 PUSH4 0xCC4251E6 SWAP1 PUSH1 0x24 ADD PUSH1 0x20 PUSH1 0x40 MLOAD DUP1 DUP4 SUB DUP2 DUP7 GAS STATICCALL ISZERO DUP1 ISZERO PUSH2 0xD57 JUMPI RETURNDATASIZE PUSH1 0x0 DUP1 RETURNDATACOPY RETURNDATASIZE PUSH1 0x0 REVERT JUMPDEST POP POP POP POP PUSH1 0x40 MLOAD RETURNDATASIZE PUSH1 0x1F NOT PUSH1 0x1F DUP3 ADD AND DUP3 ADD DUP1 PUSH1 0x40 MSTORE POP DUP2 ADD SWAP1 PUSH2 0xD7B SWAP2 SWAP1 PUSH2 0x344D JUMP JUMPDEST PUSH1 0x2 SLOAD PUSH1 0x40 MLOAD PUSH4 0x5C88F5A5 PUSH1 0xE0 SHL DUP2 MSTORE PUSH1 0x1 PUSH1 0x1 PUSH1 0xA0 SHL SUB DUP6 DUP2 AND PUSH1 0x4 DUP4 ADD MSTORE SWAP3 SWAP4 POP PUSH1 0x0 SWAP3 SWAP1 SWAP2 AND SWAP1 PUSH4 0x5C88F5A5 SWAP1 PUSH1 0x24 ADD PUSH1 0x20 PUSH1 0x40 MLOAD DUP1 DUP4 SUB DUP2 DUP7 GAS STATICCALL ISZERO DUP1 ISZERO PUSH2 0xDCB JUMPI RETURNDATASIZE PUSH1 0x0 DUP1 RETURNDATACOPY RETURNDATASIZE PUSH1 0x0 REVERT JUMPDEST POP POP POP POP PUSH1 0x40 MLOAD RETURNDATASIZE PUSH1 0x1F NOT PUSH1 0x1F DUP3 ADD AND DUP3 ADD DUP1 PUSH1 0x40 MSTORE POP DUP2 ADD SWAP1 PUSH2 0xDEF SWAP2 SWAP1 PUSH2 0x344D JUMP JUMPDEST PUSH1 0x1 PUSH1 0x1 PUSH1 0xA0 SHL SUB DUP5 AND PUSH1 0x0 SWAP1 DUP2 MSTORE PUSH1 0x10 PUSH1 0x20 MSTORE PUSH1 0x40 DUP2 KECCAK256 SLOAD SWAP2 SWAP3 POP JUMPDEST DUP2 DUP2 PUSH2 0xFFFF AND LT ISZERO PUSH2 0x1134 JUMPI PUSH1 0x1 PUSH1 0x1 PUSH1 0xA0 SHL SUB DUP6 AND PUSH1 0x0 SWAP1 DUP2 MSTORE PUSH1 0x10 PUSH1 0x20 MSTORE PUSH1 0x40 DUP2 KECCAK256 DUP1 SLOAD PUSH2 0xFFFF DUP5 AND SWAP1 DUP2 LT PUSH2 0xE46 JUMPI PUSH2 0xE46 PUSH2 0x34D4 JUMP JUMPDEST PUSH1 0x0 SWAP2 DUP3 MSTORE PUSH1 0x20 SWAP1 SWAP2 KECCAK256 ADD SLOAD PUSH1 0x4 DUP1 SLOAD PUSH1 0x40 MLOAD PUSH4 0x70A08231 PUSH1 0xE0 SHL DUP2 MSTORE PUSH1 0x1 PUSH1 0x1 PUSH1 0xA0 SHL SUB SWAP4 DUP5 AND SWAP3 DUP2 ADD DUP4 SWAP1 MSTORE SWAP2 SWAP4 POP PUSH7 0x2386F26FC10000 SWAP3 AND SWAP1 PUSH4 0x70A08231 SWAP1 PUSH1 0x24 ADD PUSH1 0x20 PUSH1 0x40 MLOAD DUP1 DUP4 SUB DUP2 DUP7 GAS STATICCALL ISZERO DUP1 ISZERO PUSH2 0xEA8 JUMPI RETURNDATASIZE PUSH1 0x0 DUP1 RETURNDATACOPY RETURNDATASIZE PUSH1 0x0 REVERT JUMPDEST POP POP POP POP PUSH1 0x40 MLOAD RETURNDATASIZE PUSH1 0x1F NOT PUSH1 0x1F DUP3 ADD AND DUP3 ADD DUP1 PUSH1 0x40 MSTORE POP DUP2 ADD SWAP1 PUSH2 0xECC SWAP2 SWAP1 PUSH2 0x344D JUMP JUMPDEST LT ISZERO PUSH2 0xF0B JUMPI PUSH1 0x1 PUSH1 0x1 PUSH1 0xA0 SHL SUB DUP1 DUP3 AND PUSH1 0x0 SWAP1 DUP2 MSTORE PUSH1 0x7 PUSH1 0x20 SWAP1 DUP2 MSTORE PUSH1 0x40 DUP1 DUP4 KECCAK256 DUP4 SWAP1 SSTORE SWAP3 DUP10 AND DUP3 MSTORE PUSH1 0xB DUP2 MSTORE DUP3 DUP3 KECCAK256 CALLER DUP4 MSTORE SWAP1 MSTORE SWAP1 DUP2 KECCAK256 SSTORE PUSH2 0x1121 JUMP JUMPDEST PUSH1 0x1 PUSH1 0x1 PUSH1 0xA0 SHL SUB DUP2 DUP2 AND PUSH1 0x0 DUP2 DUP2 MSTORE PUSH1 0x7 PUSH1 0x20 MSTORE PUSH1 0x40 DUP1 DUP3 KECCAK256 SLOAD PUSH1 0x4 DUP1 SLOAD SWAP3 MLOAD PUSH4 0x70A08231 PUSH1 0xE0 SHL DUP2 MSTORE SWAP1 DUP2 ADD SWAP5 SWAP1 SWAP5 MSTORE SWAP2 SWAP4 SWAP2 SWAP3 SWAP2 AND SWAP1 PUSH4 0x70A08231 SWAP1 PUSH1 0x24 ADD PUSH1 0x20 PUSH1 0x40 MLOAD DUP1 DUP4 SUB DUP2 DUP7 GAS STATICCALL ISZERO DUP1 ISZERO PUSH2 0xF6A JUMPI RETURNDATASIZE PUSH1 0x0 DUP1 RETURNDATACOPY RETURNDATASIZE PUSH1 0x0 REVERT JUMPDEST POP POP POP POP PUSH1 0x40 MLOAD RETURNDATASIZE PUSH1 0x1F NOT PUSH1 0x1F DUP3 ADD AND DUP3 ADD DUP1 PUSH1 0x40 MSTORE POP DUP2 ADD SWAP1 PUSH2 0xF8E SWAP2 SWAP1 PUSH2 0x344D JUMP JUMPDEST PUSH2 0xFA0 SWAP1 PUSH8 0xDE0B6B3A7640000 PUSH2 0x3493 JUMP JUMPDEST PUSH2 0xFAA SWAP2 SWAP1 PUSH2 0x34B2 JUMP JUMPDEST PUSH1 0x1 PUSH1 0x1 PUSH1 0xA0 SHL SUB DUP1 DUP10 AND PUSH1 0x0 SWAP1 DUP2 MSTORE PUSH1 0xB PUSH1 0x20 SWAP1 DUP2 MSTORE PUSH1 0x40 DUP1 DUP4 KECCAK256 SWAP4 DUP8 AND DUP4 MSTORE SWAP3 SWAP1 MSTORE SWAP1 DUP2 KECCAK256 SLOAD SWAP2 SWAP3 POP SWAP1 DUP8 SWAP1 PUSH2 0xFEA SWAP1 PUSH8 0xDE0B6B3A7640000 PUSH2 0x3493 JUMP JUMPDEST PUSH2 0xFF4 SWAP2 SWAP1 PUSH2 0x34B2 JUMP JUMPDEST SWAP1 POP PUSH1 0x0 PUSH15 0xC097CE7BC90715B34B9F1000000000 DUP8 PUSH2 0x1013 DUP5 DUP7 PUSH2 0x3493 JUMP JUMPDEST PUSH2 0x101D SWAP2 SWAP1 PUSH2 0x3493 JUMP JUMPDEST PUSH2 0x1027 SWAP2 SWAP1 PUSH2 0x34B2 JUMP JUMPDEST PUSH1 0x4 DUP1 SLOAD PUSH1 0x40 MLOAD PUSH4 0xD4D1513 PUSH1 0xE0 SHL DUP2 MSTORE PUSH1 0x1 PUSH1 0x1 PUSH1 0xA0 SHL SUB DUP9 DUP2 AND SWAP4 DUP3 ADD SWAP4 SWAP1 SWAP4 MSTORE PUSH1 0x24 DUP2 ADD DUP5 SWAP1 MSTORE DUP13 DUP4 AND PUSH1 0x44 DUP3 ADD MSTORE SWAP3 SWAP4 POP PUSH1 0x0 SWAP3 SWAP2 AND SWAP1 PUSH4 0xD4D1513 SWAP1 PUSH1 0x64 ADD PUSH1 0x20 PUSH1 0x40 MLOAD DUP1 DUP4 SUB DUP2 PUSH1 0x0 DUP8 GAS CALL ISZERO DUP1 ISZERO PUSH2 0x108A JUMPI RETURNDATASIZE PUSH1 0x0 DUP1 RETURNDATACOPY RETURNDATASIZE PUSH1 0x0 REVERT JUMPDEST POP POP POP POP PUSH1 0x40 MLOAD RETURNDATASIZE PUSH1 0x1F NOT PUSH1 0x1F DUP3 ADD AND DUP3 ADD DUP1 PUSH1 0x40 MSTORE POP DUP2 ADD SWAP1 PUSH2 0x10AE SWAP2 SWAP1 PUSH2 0x344D JUMP JUMPDEST PUSH1 0x1 PUSH1 0x1 PUSH1 0xA0 SHL SUB DUP7 AND PUSH1 0x0 SWAP1 DUP2 MSTORE PUSH1 0x7 PUSH1 0x20 MSTORE PUSH1 0x40 DUP2 KECCAK256 DUP1 SLOAD SWAP3 SWAP4 POP DUP4 SWAP3 SWAP1 SWAP2 SWAP1 PUSH2 0x10DB SWAP1 DUP5 SWAP1 PUSH2 0x34EA JUMP JUMPDEST SWAP1 SWAP2 SSTORE POP POP PUSH1 0x1 PUSH1 0x1 PUSH1 0xA0 SHL SUB DUP1 DUP12 AND PUSH1 0x0 SWAP1 DUP2 MSTORE PUSH1 0xB PUSH1 0x20 SWAP1 DUP2 MSTORE PUSH1 0x40 DUP1 DUP4 KECCAK256 SWAP4 DUP10 AND DUP4 MSTORE SWAP3 SWAP1 MSTORE SWAP1 DUP2 KECCAK256 DUP1 SLOAD DUP5 SWAP3 SWAP1 PUSH2 0x1117 SWAP1 DUP5 SWAP1 PUSH2 0x34EA JUMP JUMPDEST SWAP1 SWAP2 SSTORE POP POP POP POP POP POP JUMPDEST POP DUP1 PUSH2 0x112C DUP2 PUSH2 0x3526 JUMP JUMPDEST SWAP2 POP POP PUSH2 0xE0C JUMP JUMPDEST POP PUSH1 0x2 SLOAD PUSH1 0x40 MLOAD PUSH4 0x23D0AAB1 PUSH1 0xE0 SHL DUP2 MSTORE PUSH1 0x1 PUSH1 0x1 PUSH1 0xA0 SHL SUB DUP7 DUP2 AND PUSH1 0x4 DUP4 ADD MSTORE SWAP1 SWAP2 AND SWAP1 PUSH4 0x23D0AAB1 SWAP1 PUSH1 0x24 ADD PUSH1 0x0 PUSH1 0x40 MLOAD DUP1 DUP4 SUB DUP2 PUSH1 0x0 DUP8 DUP1 EXTCODESIZE ISZERO DUP1 ISZERO PUSH2 0x117C JUMPI PUSH1 0x0 DUP1 REVERT JUMPDEST POP GAS CALL ISZERO DUP1 ISZERO PUSH2 0x1190 JUMPI RETURNDATASIZE PUSH1 0x0 DUP1 RETURNDATACOPY RETURNDATASIZE PUSH1 0x0 REVERT JUMPDEST POP POP POP POP POP POP POP POP DUP1 DUP1 PUSH2 0x11A3 SWAP1 PUSH2 0x3526 JUMP JUMPDEST SWAP2 POP POP PUSH2 0xCDA JUMP JUMPDEST POP POP JUMP JUMPDEST PUSH1 0x2 SLOAD PUSH1 0x0 DUP1 SLOAD PUSH1 0x40 MLOAD PUSH4 0xA150FB5F PUSH1 0xE0 SHL DUP2 MSTORE SWAP2 SWAP3 PUSH1 0x1 PUSH1 0x1 PUSH1 0xA0 SHL SUB AND SWAP2 PUSH4 0xA150FB5F SWAP2 PUSH2 0x11E5 SWAP2 PUSH1 0x4 ADD SWAP1 DUP2 MSTORE PUSH1 0x20 ADD SWAP1 JUMP JUMPDEST PUSH1 0x20 PUSH1 0x40 MLOAD DUP1 DUP4 SUB DUP2 DUP7 GAS STATICCALL ISZERO DUP1 ISZERO PUSH2 0x70D JUMPI RETURNDATASIZE PUSH1 0x0 DUP1 RETURNDATACOPY RETURNDATASIZE PUSH1 0x0 REVERT JUMPDEST PUSH1 0x1 PUSH1 0x1 PUSH1 0xA0 SHL SUB DUP4 AND PUSH1 0x0 SWAP1 DUP2 MSTORE PUSH1 0x9 PUSH1 0x20 MSTORE PUSH1 0x40 SWAP1 KECCAK256 SLOAD PUSH1 0xFF AND PUSH2 0x1243 JUMPI PUSH1 0x40 MLOAD PUSH3 0x461BCD PUSH1 0xE5 SHL DUP2 MSTORE PUSH1 0x4 ADD PUSH2 0x123A SWAP1 PUSH2 0x3548 JUMP JUMPDEST PUSH1 0x40 MLOAD DUP1 SWAP2 SUB SWAP1 REVERT JUMPDEST PUSH1 0x1 PUSH1 0x1 PUSH1 0xA0 SHL SUB DUP2 AND PUSH1 0x0 SWAP1 DUP2 MSTORE PUSH1 0x9 PUSH1 0x20 MSTORE PUSH1 0x40 SWAP1 KECCAK256 SLOAD PUSH1 0xFF AND PUSH2 0x127B JUMPI PUSH1 0x40 MLOAD PUSH3 0x461BCD PUSH1 0xE5 SHL DUP2 MSTORE PUSH1 0x4 ADD PUSH2 0x123A SWAP1 PUSH2 0x3548 JUMP JUMPDEST PUSH1 0x2 SLOAD PUSH1 0x40 MLOAD PUSH4 0xFCE3E8E7 PUSH1 0xE0 SHL DUP2 MSTORE PUSH1 0x1 PUSH1 0x1 PUSH1 0xA0 SHL SUB DUP6 DUP2 AND PUSH1 0x4 DUP4 ADD MSTORE SWAP1 SWAP2 AND SWAP1 PUSH4 0xFCE3E8E7 SWAP1 PUSH1 0x24 ADD PUSH1 0x20 PUSH1 0x40 MLOAD DUP1 DUP4 SUB DUP2 DUP7 GAS STATICCALL ISZERO DUP1 ISZERO PUSH2 0x12C5 JUMPI RETURNDATASIZE PUSH1 0x0 DUP1 RETURNDATACOPY RETURNDATASIZE PUSH1 0x0 REVERT JUMPDEST POP POP POP POP PUSH1 0x40 MLOAD RETURNDATASIZE PUSH1 0x1F NOT PUSH1 0x1F DUP3 ADD AND DUP3 ADD DUP1 PUSH1 0x40 MSTORE POP DUP2 ADD SWAP1 PUSH2 0x12E9 SWAP2 SWAP1 PUSH2 0x344D JUMP JUMPDEST DUP5 GT ISZERO PUSH2 0x1338 JUMPI PUSH1 0x40 MLOAD PUSH3 0x461BCD PUSH1 0xE5 SHL DUP2 MSTORE PUSH1 0x20 PUSH1 0x4 DUP3 ADD MSTORE PUSH1 0x1E PUSH1 0x24 DUP3 ADD MSTORE PUSH32 0x6E6F7420656E6F756768206C697175696469747920746F20626F72726F770000 PUSH1 0x44 DUP3 ADD MSTORE PUSH1 0x64 ADD PUSH2 0x123A JUMP JUMPDEST PUSH2 0x1340 PUSH2 0x3088 JUMP JUMPDEST PUSH1 0x3 SLOAD PUSH1 0x40 MLOAD PUSH4 0x1FCD2D5 PUSH1 0xE0 SHL DUP2 MSTORE CALLER PUSH1 0x4 DUP3 ADD MSTORE PUSH1 0x0 SWAP2 PUSH1 0x1 PUSH1 0x1 PUSH1 0xA0 SHL SUB AND SWAP1 PUSH4 0x1FCD2D5 SWAP1 PUSH1 0x24 ADD PUSH1 0x20 PUSH1 0x40 MLOAD DUP1 DUP4 SUB DUP2 DUP7 GAS STATICCALL ISZERO DUP1 ISZERO PUSH2 0x1389 JUMPI RETURNDATASIZE PUSH1 0x0 DUP1 RETURNDATACOPY RETURNDATASIZE PUSH1 0x0 REVERT JUMPDEST POP POP POP POP PUSH1 0x40 MLOAD RETURNDATASIZE PUSH1 0x1F NOT PUSH1 0x1F DUP3 ADD AND DUP3 ADD DUP1 PUSH1 0x40 MSTORE POP DUP2 ADD SWAP1 PUSH2 0x13AD SWAP2 SWAP1 PUSH2 0x344D JUMP JUMPDEST PUSH1 0x3 SLOAD PUSH1 0x40 MLOAD PUSH4 0x6829F1B PUSH1 0xE3 SHL DUP2 MSTORE PUSH1 0x1 PUSH1 0x1 PUSH1 0xA0 SHL SUB DUP6 DUP2 AND PUSH1 0x4 DUP4 ADD MSTORE SWAP1 SWAP2 AND SWAP1 PUSH4 0x3414F8D8 SWAP1 PUSH1 0x24 ADD PUSH1 0x20 PUSH1 0x40 MLOAD DUP1 DUP4 SUB DUP2 DUP7 GAS STATICCALL ISZERO DUP1 ISZERO PUSH2 0x13F7 JUMPI RETURNDATASIZE PUSH1 0x0 DUP1 RETURNDATACOPY RETURNDATASIZE PUSH1 0x0 REVERT JUMPDEST POP POP POP POP PUSH1 0x40 MLOAD RETURNDATASIZE PUSH1 0x1F NOT PUSH1 0x1F DUP3 ADD AND DUP3 ADD DUP1 PUSH1 0x40 MSTORE POP DUP2 ADD SWAP1 PUSH2 0x141B SWAP2 SWAP1 PUSH2 0x344D JUMP JUMPDEST PUSH1 0x1 SLOAD PUSH1 0x40 MLOAD PUSH4 0x41976E09 PUSH1 0xE0 SHL DUP2 MSTORE PUSH1 0x1 PUSH1 0x1 PUSH1 0xA0 SHL SUB DUP7 DUP2 AND PUSH1 0x4 DUP4 ADD MSTORE DUP8 SWAP3 AND SWAP1 PUSH4 0x41976E09 SWAP1 PUSH1 0x24 ADD PUSH1 0x20 PUSH1 0x40 MLOAD DUP1 DUP4 SUB DUP2 DUP7 GAS STATICCALL ISZERO DUP1 ISZERO PUSH2 0x1465 JUMPI RETURNDATASIZE PUSH1 0x0 DUP1 RETURNDATACOPY RETURNDATASIZE PUSH1 0x0 REVERT JUMPDEST POP POP POP POP PUSH1 0x40 MLOAD RETURNDATASIZE PUSH1 0x1F NOT PUSH1 0x1F DUP3 ADD AND DUP3 ADD DUP1 PUSH1 0x40 MSTORE POP DUP2 ADD SWAP1 PUSH2 0x1489 SWAP2 SWAP1 PUSH2 0x344D JUMP JUMPDEST PUSH2 0x1493 SWAP2 SWAP1 PUSH2 0x3493 JUMP JUMPDEST PUSH2 0x149D SWAP2 SWAP1 PUSH2 0x34B2 JUMP JUMPDEST PUSH2 0x14A7 SWAP2 SWAP1 PUSH2 0x34EA JUMP JUMPDEST SWAP1 POP PUSH1 0x0 PUSH2 0x14B4 CALLER PUSH2 0x2F5B JUMP JUMPDEST PUSH1 0x1 SLOAD PUSH1 0x40 MLOAD PUSH4 0x41976E09 PUSH1 0xE0 SHL DUP2 MSTORE PUSH1 0x1 PUSH1 0x1 PUSH1 0xA0 SHL SUB DUP9 DUP2 AND PUSH1 0x4 DUP4 ADD MSTORE PUSH8 0xDE0B6B3A7640000 SWAP3 DUP11 SWAP3 SWAP2 AND SWAP1 PUSH4 0x41976E09 SWAP1 PUSH1 0x24 ADD PUSH1 0x20 PUSH1 0x40 MLOAD DUP1 DUP4 SUB DUP2 DUP7 GAS STATICCALL ISZERO DUP1 ISZERO PUSH2 0x1509 JUMPI RETURNDATASIZE PUSH1 0x0 DUP1 RETURNDATACOPY RETURNDATASIZE PUSH1 0x0 REVERT JUMPDEST POP POP POP POP PUSH1 0x40 MLOAD RETURNDATASIZE PUSH1 0x1F NOT PUSH1 0x1F DUP3 ADD AND DUP3 ADD DUP1 PUSH1 0x40 MSTORE POP DUP2 ADD SWAP1 PUSH2 0x152D SWAP2 SWAP1 PUSH2 0x344D JUMP JUMPDEST PUSH2 0x1537 SWAP2 SWAP1 PUSH2 0x3493 JUMP JUMPDEST PUSH2 0x1541 SWAP2 SWAP1 PUSH2 0x34B2 JUMP JUMPDEST PUSH2 0x154B SWAP2 SWAP1 PUSH2 0x34EA JUMP JUMPDEST SWAP1 POP DUP1 DUP3 LT ISZERO PUSH2 0x159D JUMPI PUSH1 0x40 MLOAD PUSH3 0x461BCD PUSH1 0xE5 SHL DUP2 MSTORE PUSH1 0x20 PUSH1 0x4 DUP3 ADD MSTORE PUSH1 0x1F PUSH1 0x24 DUP3 ADD MSTORE PUSH32 0x6E6F7420656E6F75676820636F6C6C61746572616C20746F20626F72726F7700 PUSH1 0x44 DUP3 ADD MSTORE PUSH1 0x64 ADD PUSH2 0x123A JUMP JUMPDEST PUSH1 0x3 SLOAD PUSH1 0x40 MLOAD PUSH4 0xF970C3B7 PUSH1 0xE0 SHL DUP2 MSTORE PUSH1 0x1 PUSH1 0x1 PUSH1 0xA0 SHL SUB SWAP1 SWAP2 AND SWAP1 PUSH4 0xF970C3B7 SWAP1 PUSH2 0x15D1 SWAP1 CALLER SWAP1 DUP8 SWAP1 DUP10 SWAP1 PUSH1 0x4 ADD PUSH2 0x3502 JUMP JUMPDEST PUSH1 0x0 PUSH1 0x40 MLOAD DUP1 DUP4 SUB DUP2 PUSH1 0x0 DUP8 DUP1 EXTCODESIZE ISZERO DUP1 ISZERO PUSH2 0x15EB JUMPI PUSH1 0x0 DUP1 REVERT JUMPDEST POP GAS CALL ISZERO DUP1 ISZERO PUSH2 0x15FF JUMPI RETURNDATASIZE PUSH1 0x0 DUP1 RETURNDATACOPY RETURNDATASIZE PUSH1 0x0 REVERT JUMPDEST POP POP PUSH1 0x2 SLOAD PUSH1 0x40 MLOAD PUSH4 0xFC4F78B9 PUSH1 0xE0 SHL DUP2 MSTORE PUSH1 0x1 PUSH1 0x1 PUSH1 0xA0 SHL SUB SWAP1 SWAP2 AND SWAP3 POP PUSH4 0xFC4F78B9 SWAP2 POP PUSH2 0x1637 SWAP1 CALLER SWAP1 DUP10 SWAP1 DUP12 SWAP1 PUSH1 0x4 ADD PUSH2 0x3502 JUMP JUMPDEST PUSH1 0x0 PUSH1 0x40 MLOAD DUP1 DUP4 SUB DUP2 PUSH1 0x0 DUP8 DUP1 EXTCODESIZE ISZERO DUP1 ISZERO PUSH2 0x1651 JUMPI PUSH1 0x0 DUP1 REVERT JUMPDEST POP GAS CALL ISZERO DUP1 ISZERO PUSH2 0x1665 JUMPI RETURNDATASIZE PUSH1 0x0 DUP1 RETURNDATACOPY RETURNDATASIZE PUSH1 0x0 REVERT JUMPDEST POP POP PUSH1 0x40 DUP1 MLOAD CALLER DUP2 MSTORE PUSH1 0x20 DUP2 ADD DUP11 SWAP1 MSTORE PUSH1 0x1 PUSH1 0x1 PUSH1 0xA0 SHL SUB DUP10 DUP2 AND DUP3 DUP5 ADD MSTORE PUSH1 0x60 DUP3 ADD DUP10 SWAP1 MSTORE DUP8 AND PUSH1 0x80 DUP3 ADD MSTORE SWAP1 MLOAD PUSH32 0xEA8631408D071CDC565DFA37DCB32450C4C85EE9A4142ED14DF1387D7C2A4327 SWAP4 POP SWAP1 DUP2 SWAP1 SUB PUSH1 0xA0 ADD SWAP2 POP LOG1 PUSH1 0x1 PUSH1 0x1 PUSH1 0xA0 SHL SUB DUP6 AND PUSH1 0x0 SWAP1 DUP2 MSTORE PUSH1 0xA PUSH1 0x20 SWAP1 DUP2 MSTORE PUSH1 0x40 DUP1 DUP4 KECCAK256 CALLER DUP5 MSTORE SWAP1 SWAP2 MSTORE DUP2 KECCAK256 DUP1 SLOAD DUP9 SWAP3 SWAP1 PUSH2 0x16F4 SWAP1 DUP5 SWAP1 PUSH2 0x34EA JUMP JUMPDEST SWAP1 SWAP2 SSTORE POP POP PUSH1 0x1 PUSH1 0x1 PUSH1 0xA0 SHL SUB DUP6 AND PUSH1 0x0 SWAP1 DUP2 MSTORE PUSH1 0xD PUSH1 0x20 SWAP1 DUP2 MSTORE PUSH1 0x40 DUP1 DUP4 KECCAK256 CALLER DUP5 MSTORE SWAP1 SWAP2 MSTORE SWAP1 KECCAK256 SLOAD PUSH1 0xFF AND PUSH2 0x1781 JUMPI PUSH1 0x1 PUSH1 0x1 PUSH1 0xA0 SHL SUB DUP6 AND PUSH1 0x0 DUP2 DUP2 MSTORE PUSH1 0xC PUSH1 0x20 SWAP1 DUP2 MSTORE PUSH1 0x40 DUP1 DUP4 KECCAK256 DUP1 SLOAD PUSH1 0x1 DUP2 DUP2 ADD DUP4 SSTORE SWAP2 DUP6 MSTORE DUP4 DUP6 KECCAK256 ADD DUP1 SLOAD PUSH1 0x1 PUSH1 0x1 PUSH1 0xA0 SHL SUB NOT AND CALLER SWAP1 DUP2 OR SWAP1 SWAP2 SSTORE SWAP5 DUP5 MSTORE PUSH1 0xD DUP4 MSTORE DUP2 DUP5 KECCAK256 SWAP5 DUP5 MSTORE SWAP4 SWAP1 SWAP2 MSTORE SWAP1 KECCAK256 DUP1 SLOAD PUSH1 0xFF NOT AND SWAP1 SWAP2 OR SWAP1 SSTORE JUMPDEST CALLER PUSH1 0x0 SWAP1 DUP2 MSTORE PUSH1 0xF PUSH1 0x20 MSTORE PUSH1 0x40 SWAP1 KECCAK256 SLOAD PUSH1 0xFF AND PUSH2 0x17F3 JUMPI PUSH1 0xE DUP1 SLOAD PUSH1 0x1 DUP2 DUP2 ADD SWAP1 SWAP3 SSTORE PUSH32 0xBB7B4A454DC3493923482F07822329ED19E8244EFF582CC204F8554C3620C3FD ADD DUP1 SLOAD PUSH1 0x1 PUSH1 0x1 PUSH1 0xA0 SHL SUB NOT AND CALLER SWAP1 DUP2 OR SWAP1 SWAP2 SSTORE PUSH1 0x0 SWAP1 DUP2 MSTORE PUSH1 0xF PUSH1 0x20 MSTORE PUSH1 0x40 SWAP1 KECCAK256 DUP1 SLOAD PUSH1 0xFF NOT AND SWAP1 SWAP2 OR SWAP1 SSTORE JUMPDEST PUSH1 0x40 DUP1 MLOAD CALLER DUP2 MSTORE PUSH1 0x20 DUP2 ADD DUP9 SWAP1 MSTORE PUSH1 0x1 PUSH1 0x1 PUSH1 0xA0 SHL SUB DUP8 DUP2 AND DUP3 DUP5 ADD MSTORE PUSH1 0x60 DUP3 ADD DUP8 SWAP1 MSTORE DUP6 AND PUSH1 0x80 DUP3 ADD MSTORE SWAP1 MLOAD PUSH32 0xEA8631408D071CDC565DFA37DCB32450C4C85EE9A4142ED14DF1387D7C2A4327 SWAP2 DUP2 SWAP1 SUB PUSH1 0xA0 ADD SWAP1 LOG1 POP POP POP POP POP POP JUMP JUMPDEST PUSH1 0x1 PUSH1 0x1 PUSH1 0xA0 SHL SUB DUP2 AND PUSH1 0x0 SWAP1 DUP2 MSTORE PUSH1 0x9 PUSH1 0x20 MSTORE PUSH1 0x40 SWAP1 KECCAK256 SLOAD PUSH1 0xFF AND ISZERO ISZERO PUSH1 0x1 EQ PUSH2 0x188F JUMPI PUSH1 0x40 MLOAD PUSH3 0x461BCD PUSH1 0xE5 SHL DUP2 MSTORE PUSH1 0x4 ADD PUSH2 0x123A SWAP1 PUSH2 0x3548 JUMP JUMPDEST PUSH2 0x1897 PUSH2 0x3088 JUMP JUMPDEST PUSH1 0x0 DUP3 GT PUSH2 0x18E7 JUMPI PUSH1 0x40 MLOAD PUSH3 0x461BCD PUSH1 0xE5 SHL DUP2 MSTORE PUSH1 0x20 PUSH1 0x4 DUP3 ADD MSTORE PUSH1 0x18 PUSH1 0x24 DUP3 ADD MSTORE PUSH32 0x6465706F736974206D75737420626520706F7369746976650000000000000000 PUSH1 0x44 DUP3 ADD MSTORE PUSH1 0x64 ADD PUSH2 0x123A JUMP JUMPDEST PUSH1 0x4 DUP1 SLOAD PUSH1 0x40 MLOAD PUSH4 0xD4D1513 PUSH1 0xE0 SHL DUP2 MSTORE CALLER SWAP3 DUP2 ADD SWAP3 SWAP1 SWAP3 MSTORE PUSH1 0x24 DUP3 ADD DUP5 SWAP1 MSTORE PUSH1 0x1 PUSH1 0x1 PUSH1 0xA0 SHL SUB DUP4 DUP2 AND PUSH1 0x44 DUP5 ADD MSTORE PUSH1 0x0 SWAP3 SWAP2 AND SWAP1 PUSH4 0xD4D1513 SWAP1 PUSH1 0x64 ADD PUSH1 0x20 PUSH1 0x40 MLOAD DUP1 DUP4 SUB DUP2 PUSH1 0x0 DUP8 GAS CALL ISZERO DUP1 ISZERO PUSH2 0x1945 JUMPI RETURNDATASIZE PUSH1 0x0 DUP1 RETURNDATACOPY RETURNDATASIZE PUSH1 0x0 REVERT JUMPDEST POP POP POP POP PUSH1 0x40 MLOAD RETURNDATASIZE PUSH1 0x1F NOT PUSH1 0x1F DUP3 ADD AND DUP3 ADD DUP1 PUSH1 0x40 MSTORE POP DUP2 ADD SWAP1 PUSH2 0x1969 SWAP2 SWAP1 PUSH2 0x344D JUMP JUMPDEST CALLER PUSH1 0x0 SWAP1 DUP2 MSTORE PUSH1 0x7 PUSH1 0x20 MSTORE PUSH1 0x40 DUP2 KECCAK256 DUP1 SLOAD SWAP3 SWAP4 POP DUP4 SWAP3 SWAP1 SWAP2 SWAP1 PUSH2 0x198D SWAP1 DUP5 SWAP1 PUSH2 0x34EA JUMP JUMPDEST SWAP1 SWAP2 SSTORE POP POP PUSH1 0x2 SLOAD PUSH1 0x40 MLOAD PUSH4 0x1740ECAF PUSH1 0xE1 SHL DUP2 MSTORE PUSH1 0x1 PUSH1 0x1 PUSH1 0xA0 SHL SUB SWAP1 SWAP2 AND SWAP1 PUSH4 0x2E81D95E SWAP1 PUSH2 0x19C6 SWAP1 CALLER SWAP1 DUP7 SWAP1 DUP9 SWAP1 PUSH1 0x4 ADD PUSH2 0x3502 JUMP JUMPDEST PUSH1 0x0 PUSH1 0x40 MLOAD DUP1 DUP4 SUB DUP2 PUSH1 0x0 DUP8 DUP1 EXTCODESIZE ISZERO DUP1 ISZERO PUSH2 0x19E0 JUMPI PUSH1 0x0 DUP1 REVERT JUMPDEST POP GAS CALL ISZERO DUP1 ISZERO PUSH2 0x19F4 JUMPI RETURNDATASIZE PUSH1 0x0 DUP1 RETURNDATACOPY RETURNDATASIZE PUSH1 0x0 REVERT JUMPDEST POP POP POP POP PUSH1 0x1 PUSH1 0x1 PUSH1 0xA0 SHL SUB DUP3 AND PUSH1 0x0 SWAP1 DUP2 MSTORE PUSH1 0x11 PUSH1 0x20 SWAP1 DUP2 MSTORE PUSH1 0x40 DUP1 DUP4 KECCAK256 CALLER DUP5 MSTORE SWAP1 SWAP2 MSTORE SWAP1 KECCAK256 SLOAD PUSH1 0xFF AND PUSH2 0x1A80 JUMPI PUSH1 0x1 PUSH1 0x1 PUSH1 0xA0 SHL SUB DUP3 AND PUSH1 0x0 DUP2 DUP2 MSTORE PUSH1 0x10 PUSH1 0x20 SWAP1 DUP2 MSTORE PUSH1 0x40 DUP1 DUP4 KECCAK256 DUP1 SLOAD PUSH1 0x1 DUP2 DUP2 ADD DUP4 SSTORE SWAP2 DUP6 MSTORE DUP4 DUP6 KECCAK256 ADD DUP1 SLOAD PUSH1 0x1 PUSH1 0x1 PUSH1 0xA0 SHL SUB NOT AND CALLER SWAP1 DUP2 OR SWAP1 SWAP2 SSTORE SWAP5 DUP5 MSTORE PUSH1 0x11 DUP4 MSTORE DUP2 DUP5 KECCAK256 SWAP5 DUP5 MSTORE SWAP4 SWAP1 SWAP2 MSTORE SWAP1 KECCAK256 DUP1 SLOAD PUSH1 0xFF NOT AND SWAP1 SWAP2 OR SWAP1 SSTORE JUMPDEST PUSH1 0x1 PUSH1 0x1 PUSH1 0xA0 SHL SUB DUP3 AND PUSH1 0x0 SWAP1 DUP2 MSTORE PUSH1 0xB PUSH1 0x20 SWAP1 DUP2 MSTORE PUSH1 0x40 DUP1 DUP4 KECCAK256 CALLER DUP5 MSTORE SWAP1 SWAP2 MSTORE DUP2 KECCAK256 DUP1 SLOAD DUP6 SWAP3 SWAP1 PUSH2 0x1AB3 SWAP1 DUP5 SWAP1 PUSH2 0x34EA JUMP JUMPDEST SWAP1 SWAP2 SSTORE POP POP PUSH1 0x40 DUP1 MLOAD CALLER DUP2 MSTORE PUSH1 0x1 PUSH1 0x1 PUSH1 0xA0 SHL SUB DUP5 AND PUSH1 0x20 DUP3 ADD MSTORE SWAP1 DUP2 ADD DUP5 SWAP1 MSTORE PUSH1 0x60 DUP2 ADD DUP3 SWAP1 MSTORE PUSH32 0xD2D0080ED70CEB7CE39856D34A5727B439EC7C7919425087ED35ED6868791556 SWAP1 PUSH1 0x80 ADD PUSH1 0x40 MLOAD DUP1 SWAP2 SUB SWAP1 LOG1 POP POP POP JUMP JUMPDEST PUSH1 0x2 SLOAD PUSH1 0x40 MLOAD PUSH4 0xC0D7EEC1 PUSH1 0xE0 SHL DUP2 MSTORE PUSH1 0x1 PUSH1 0x1 PUSH1 0xA0 SHL SUB DUP4 DUP2 AND PUSH1 0x4 DUP4 ADD MSTORE PUSH1 0x0 SWAP3 AND SWAP1 PUSH4 0xC0D7EEC1 SWAP1 PUSH1 0x24 ADD PUSH2 0x5E5 JUMP JUMPDEST PUSH1 0x1 PUSH1 0x1 PUSH1 0xA0 SHL SUB DUP3 AND PUSH1 0x0 SWAP1 DUP2 MSTORE PUSH1 0x9 PUSH1 0x20 MSTORE PUSH1 0x40 SWAP1 KECCAK256 SLOAD PUSH1 0xFF AND PUSH2 0x1B78 JUMPI PUSH1 0x40 MLOAD PUSH3 0x461BCD PUSH1 0xE5 SHL DUP2 MSTORE PUSH1 0x4 ADD PUSH2 0x123A SWAP1 PUSH2 0x3548 JUMP JUMPDEST PUSH2 0x1B80 PUSH2 0x3088 JUMP JUMPDEST DUP1 PUSH1 0x1 EQ ISZERO PUSH2 0x1B96 JUMPI PUSH2 0x1B93 CALLER DUP4 PUSH2 0x280A JUMP JUMPDEST SWAP1 POP JUMPDEST PUSH1 0x1 PUSH1 0x1 PUSH1 0xA0 SHL SUB DUP3 AND PUSH1 0x0 SWAP1 DUP2 MSTORE PUSH1 0xA PUSH1 0x20 SWAP1 DUP2 MSTORE PUSH1 0x40 DUP1 DUP4 KECCAK256 CALLER DUP5 MSTORE SWAP1 SWAP2 MSTORE SWAP1 KECCAK256 PUSH1 0x1 DUP2 ADD SLOAD SWAP1 SLOAD DUP3 SWAP2 PUSH2 0x1BCB SWAP2 PUSH2 0x34EA JUMP JUMPDEST LT ISZERO PUSH2 0x1C19 JUMPI PUSH1 0x40 MLOAD PUSH3 0x461BCD PUSH1 0xE5 SHL DUP2 MSTORE PUSH1 0x20 PUSH1 0x4 DUP3 ADD MSTORE PUSH1 0x1B PUSH1 0x24 DUP3 ADD MSTORE PUSH32 0x52657475726E6564206D6F7265207468616E20626F72726F7765640000000000 PUSH1 0x44 DUP3 ADD MSTORE PUSH1 0x64 ADD PUSH2 0x123A JUMP JUMPDEST PUSH1 0x1 PUSH1 0x1 PUSH1 0xA0 SHL SUB DUP3 AND PUSH1 0x0 SWAP1 DUP2 MSTORE PUSH1 0xA PUSH1 0x20 SWAP1 DUP2 MSTORE PUSH1 0x40 DUP1 DUP4 KECCAK256 CALLER DUP5 MSTORE SWAP1 SWAP2 MSTORE DUP2 KECCAK256 PUSH1 0x1 ADD SLOAD PUSH2 0x1C4B SWAP1 DUP4 SWAP1 PUSH2 0x2F1C JUMP JUMPDEST SWAP1 POP PUSH1 0x0 PUSH2 0x1C59 DUP3 DUP5 PUSH2 0x347C JUMP JUMPDEST PUSH1 0x2 SLOAD PUSH1 0x40 MLOAD PUSH4 0x27709E47 PUSH1 0xE1 SHL DUP2 MSTORE CALLER PUSH1 0x4 DUP3 ADD MSTORE PUSH1 0x1 PUSH1 0x1 PUSH1 0xA0 SHL SUB DUP8 DUP2 AND PUSH1 0x24 DUP4 ADD MSTORE PUSH1 0x44 DUP3 ADD DUP8 SWAP1 MSTORE PUSH1 0x64 DUP3 ADD DUP5 SWAP1 MSTORE PUSH1 0x84 DUP3 ADD DUP7 SWAP1 MSTORE SWAP3 SWAP4 POP SWAP2 AND SWAP1 PUSH4 0x4EE13C8E SWAP1 PUSH1 0xA4 ADD PUSH1 0x0 PUSH1 0x40 MLOAD DUP1 DUP4 SUB DUP2 PUSH1 0x0 DUP8 DUP1 EXTCODESIZE ISZERO DUP1 ISZERO PUSH2 0x1CBD JUMPI PUSH1 0x0 DUP1 REVERT JUMPDEST POP GAS CALL ISZERO DUP1 ISZERO PUSH2 0x1CD1 JUMPI RETURNDATASIZE PUSH1 0x0 DUP1 RETURNDATACOPY RETURNDATASIZE PUSH1 0x0 REVERT JUMPDEST POP POP POP POP PUSH1 0x1 PUSH1 0x1 PUSH1 0xA0 SHL SUB DUP5 AND PUSH1 0x0 SWAP1 DUP2 MSTORE PUSH1 0xA PUSH1 0x20 SWAP1 DUP2 MSTORE PUSH1 0x40 DUP1 DUP4 KECCAK256 CALLER DUP5 MSTORE SWAP1 SWAP2 MSTORE DUP2 KECCAK256 DUP1 SLOAD DUP4 SWAP3 SWAP1 PUSH2 0x1D08 SWAP1 DUP5 SWAP1 PUSH2 0x347C JUMP JUMPDEST SWAP1 SWAP2 SSTORE POP POP PUSH1 0x1 PUSH1 0x1 PUSH1 0xA0 SHL SUB DUP5 AND PUSH1 0x0 SWAP1 DUP2 MSTORE PUSH1 0xA PUSH1 0x20 SWAP1 DUP2 MSTORE PUSH1 0x40 DUP1 DUP4 KECCAK256 CALLER DUP5 MSTORE SWAP1 SWAP2 MSTORE DUP2 KECCAK256 PUSH1 0x1 ADD DUP1 SLOAD DUP5 SWAP3 SWAP1 PUSH2 0x1D43 SWAP1 DUP5 SWAP1 PUSH2 0x347C JUMP JUMPDEST SWAP1 SWAP2 SSTORE POP POP PUSH1 0x1 PUSH1 0x1 PUSH1 0xA0 SHL SUB DUP5 AND PUSH1 0x0 SWAP1 DUP2 MSTORE PUSH1 0xA PUSH1 0x20 SWAP1 DUP2 MSTORE PUSH1 0x40 DUP1 DUP4 KECCAK256 CALLER DUP5 MSTORE SWAP1 SWAP2 MSTORE SWAP1 KECCAK256 SLOAD PUSH2 0x1D95 JUMPI PUSH1 0x1 PUSH1 0x1 PUSH1 0xA0 SHL SUB DUP5 AND PUSH1 0x0 SWAP1 DUP2 MSTORE PUSH1 0xA PUSH1 0x20 SWAP1 DUP2 MSTORE PUSH1 0x40 DUP1 DUP4 KECCAK256 CALLER DUP5 MSTORE SWAP1 SWAP2 MSTORE DUP2 KECCAK256 SSTORE JUMPDEST PUSH1 0x1 PUSH1 0x1 PUSH1 0xA0 SHL SUB DUP5 AND PUSH1 0x0 SWAP1 DUP2 MSTORE PUSH1 0xA PUSH1 0x20 SWAP1 DUP2 MSTORE PUSH1 0x40 DUP1 DUP4 KECCAK256 CALLER DUP5 MSTORE SWAP1 SWAP2 MSTORE SWAP1 KECCAK256 PUSH1 0x1 ADD SLOAD PUSH2 0x1DE8 JUMPI PUSH1 0x1 PUSH1 0x1 PUSH1 0xA0 SHL SUB DUP5 AND PUSH1 0x0 SWAP1 DUP2 MSTORE PUSH1 0xA PUSH1 0x20 SWAP1 DUP2 MSTORE PUSH1 0x40 DUP1 DUP4 KECCAK256 CALLER DUP5 MSTORE SWAP1 SWAP2 MSTORE DUP2 KECCAK256 PUSH1 0x1 ADD SSTORE JUMPDEST PUSH32 0x2BB7C63EB15A05EBC1A5643F6D064397B45F326816B607769BF52FD7BD03951A CALLER DUP6 DUP6 PUSH1 0x40 MLOAD PUSH2 0x1E1B SWAP4 SWAP3 SWAP2 SWAP1 PUSH2 0x3502 JUMP JUMPDEST PUSH1 0x40 MLOAD DUP1 SWAP2 SUB SWAP1 LOG1 POP POP POP POP JUMP JUMPDEST PUSH1 0x2 SLOAD PUSH1 0x40 MLOAD PUSH4 0x5C88F5A5 PUSH1 0xE0 SHL DUP2 MSTORE PUSH1 0x1 PUSH1 0x1 PUSH1 0xA0 SHL SUB DUP4 DUP2 AND PUSH1 0x4 DUP4 ADD MSTORE PUSH1 0x0 SWAP3 AND SWAP1 PUSH4 0x5C88F5A5 SWAP1 PUSH1 0x24 ADD PUSH2 0x5E5 JUMP JUMPDEST PUSH1 0x6 SLOAD PUSH1 0x1 PUSH1 0x1 PUSH1 0xA0 SHL SUB AND CALLER EQ PUSH2 0x1E73 JUMPI PUSH1 0x0 DUP1 REVERT JUMPDEST PUSH1 0x3 SLOAD PUSH1 0x40 MLOAD PUSH4 0x6858EA07 PUSH1 0xE0 SHL DUP2 MSTORE PUSH1 0x1 PUSH1 0x1 PUSH1 0xA0 SHL SUB DUP5 DUP2 AND PUSH1 0x4 DUP4 ADD MSTORE PUSH1 0x24 DUP3 ADD DUP5 SWAP1 MSTORE SWAP1 SWAP2 AND SWAP1 PUSH4 0x6858EA07 SWAP1 PUSH1 0x44 ADD PUSH1 0x0 PUSH1 0x40 MLOAD DUP1 DUP4 SUB DUP2 PUSH1 0x0 DUP8 DUP1 EXTCODESIZE ISZERO DUP1 ISZERO PUSH2 0x1EC1 JUMPI PUSH1 0x0 DUP1 REVERT JUMPDEST POP GAS CALL ISZERO DUP1 ISZERO PUSH2 0x1ED5 JUMPI RETURNDATASIZE PUSH1 0x0 DUP1 RETURNDATACOPY RETURNDATASIZE PUSH1 0x0 REVERT JUMPDEST POP POP POP POP POP POP JUMP JUMPDEST PUSH1 0x0 PUSH1 0x4 PUSH1 0x0 SWAP1 SLOAD SWAP1 PUSH2 0x100 EXP SWAP1 DIV PUSH1 0x1 PUSH1 0x1 PUSH1 0xA0 SHL SUB AND PUSH1 0x1 PUSH1 0x1 PUSH1 0xA0 SHL SUB AND PUSH4 0x33D57CDC PUSH1 0x40 MLOAD DUP2 PUSH4 0xFFFFFFFF AND PUSH1 0xE0 SHL DUP2 MSTORE PUSH1 0x4 ADD PUSH1 0x20 PUSH1 0x40 MLOAD DUP1 DUP4 SUB DUP2 DUP7 GAS STATICCALL ISZERO DUP1 ISZERO PUSH2 0x70D JUMPI RETURNDATASIZE PUSH1 0x0 DUP1 RETURNDATACOPY RETURNDATASIZE PUSH1 0x0 REVERT JUMPDEST PUSH1 0x1 PUSH1 0x1 PUSH1 0xA0 SHL SUB DUP3 AND PUSH1 0x0 SWAP1 DUP2 MSTORE PUSH1 0x9 PUSH1 0x20 MSTORE PUSH1 0x40 SWAP1 KECCAK256 SLOAD PUSH1 0xFF AND PUSH2 0x1F6A JUMPI PUSH1 0x40 MLOAD PUSH3 0x461BCD PUSH1 0xE5 SHL DUP2 MSTORE PUSH1 0x4 ADD PUSH2 0x123A SWAP1 PUSH2 0x3548 JUMP JUMPDEST PUSH2 0x1F72 PUSH2 0x3088 JUMP JUMPDEST PUSH1 0x1 SLOAD PUSH1 0x40 MLOAD PUSH4 0x41976E09 PUSH1 0xE0 SHL DUP2 MSTORE PUSH1 0x1 PUSH1 0x1 PUSH1 0xA0 SHL SUB DUP5 DUP2 AND PUSH1 0x4 DUP4 ADD MSTORE PUSH1 0x0 SWAP3 AND SWAP1 PUSH4 0x41976E09 SWAP1 PUSH1 0x24 ADD PUSH1 0x20 PUSH1 0x40 MLOAD DUP1 DUP4 SUB DUP2 DUP7 GAS STATICCALL ISZERO DUP1 ISZERO PUSH2 0x1FBD JUMPI RETURNDATASIZE PUSH1 0x0 DUP1 RETURNDATACOPY RETURNDATASIZE PUSH1 0x0 REVERT JUMPDEST POP POP POP POP PUSH1 0x40 MLOAD RETURNDATASIZE PUSH1 0x1F NOT PUSH1 0x1F DUP3 ADD AND DUP3 ADD DUP1 PUSH1 0x40 MSTORE POP DUP2 ADD SWAP1 PUSH2 0x1FE1 SWAP2 SWAP1 PUSH2 0x344D JUMP JUMPDEST SWAP1 POP PUSH1 0x0 DUP2 PUSH1 0x4 PUSH1 0x0 SWAP1 SLOAD SWAP1 PUSH2 0x100 EXP SWAP1 DIV PUSH1 0x1 PUSH1 0x1 PUSH1 0xA0 SHL SUB AND PUSH1 0x1 PUSH1 0x1 PUSH1 0xA0 SHL SUB AND PUSH4 0x33D57CDC PUSH1 0x40 MLOAD DUP2 PUSH4 0xFFFFFFFF AND PUSH1 0xE0 SHL DUP2 MSTORE PUSH1 0x4 ADD PUSH1 0x20 PUSH1 0x40 MLOAD DUP1 DUP4 SUB DUP2 DUP7 GAS STATICCALL ISZERO DUP1 ISZERO PUSH2 0x2039 JUMPI RETURNDATASIZE PUSH1 0x0 DUP1 RETURNDATACOPY RETURNDATASIZE PUSH1 0x0 REVERT JUMPDEST POP POP POP POP PUSH1 0x40 MLOAD RETURNDATASIZE PUSH1 0x1F NOT PUSH1 0x1F DUP3 ADD AND DUP3 ADD DUP1 PUSH1 0x40 MSTORE POP DUP2 ADD SWAP1 PUSH2 0x205D SWAP2 SWAP1 PUSH2 0x344D JUMP JUMPDEST PUSH2 0x2067 SWAP1 DUP6 PUSH2 0x3493 JUMP JUMPDEST PUSH2 0x2071 SWAP2 SWAP1 PUSH2 0x34B2 JUMP JUMPDEST PUSH1 0x2 SLOAD PUSH1 0x40 MLOAD PUSH4 0xFCE3E8E7 PUSH1 0xE0 SHL DUP2 MSTORE PUSH1 0x1 PUSH1 0x1 PUSH1 0xA0 SHL SUB DUP8 DUP2 AND PUSH1 0x4 DUP4 ADD MSTORE SWAP3 SWAP4 POP SWAP2 AND SWAP1 PUSH4 0xFCE3E8E7 SWAP1 PUSH1 0x24 ADD PUSH1 0x20 PUSH1 0x40 MLOAD DUP1 DUP4 SUB DUP2 DUP7 GAS STATICCALL ISZERO DUP1 ISZERO PUSH2 0x20BD JUMPI RETURNDATASIZE PUSH1 0x0 DUP1 RETURNDATACOPY RETURNDATASIZE PUSH1 0x0 REVERT JUMPDEST POP POP POP POP PUSH1 0x40 MLOAD RETURNDATASIZE PUSH1 0x1F NOT PUSH1 0x1F DUP3 ADD AND DUP3 ADD DUP1 PUSH1 0x40 MSTORE POP DUP2 ADD SWAP1 PUSH2 0x20E1 SWAP2 SWAP1 PUSH2 0x344D JUMP JUMPDEST DUP2 GT ISZERO PUSH2 0x214B JUMPI PUSH1 0x40 MLOAD PUSH3 0x461BCD PUSH1 0xE5 SHL DUP2 MSTORE PUSH1 0x20 PUSH1 0x4 DUP3 ADD MSTORE PUSH1 0x32 PUSH1 0x24 DUP3 ADD MSTORE PUSH32 0x557365722063616E6E6F742072656465656D206D6F7265207468616E20746865 PUSH1 0x44 DUP3 ADD MSTORE PUSH18 0x20617661696C61626C652062616C616E6365 PUSH1 0x70 SHL PUSH1 0x64 DUP3 ADD MSTORE PUSH1 0x84 ADD PUSH2 0x123A JUMP JUMPDEST PUSH1 0x4 DUP1 SLOAD PUSH1 0x40 MLOAD PUSH4 0x70A08231 PUSH1 0xE0 SHL DUP2 MSTORE CALLER SWAP3 DUP2 ADD SWAP3 SWAP1 SWAP3 MSTORE DUP5 SWAP2 PUSH1 0x1 PUSH1 0x1 PUSH1 0xA0 SHL SUB SWAP1 SWAP2 AND SWAP1 PUSH4 0x70A08231 SWAP1 PUSH1 0x24 ADD PUSH1 0x20 PUSH1 0x40 MLOAD DUP1 DUP4 SUB DUP2 DUP7 GAS STATICCALL ISZERO DUP1 ISZERO PUSH2 0x2198 JUMPI RETURNDATASIZE PUSH1 0x0 DUP1 RETURNDATACOPY RETURNDATASIZE PUSH1 0x0 REVERT JUMPDEST POP POP POP POP PUSH1 0x40 MLOAD RETURNDATASIZE PUSH1 0x1F NOT PUSH1 0x1F DUP3 ADD AND DUP3 ADD DUP1 PUSH1 0x40 MSTORE POP DUP2 ADD SWAP1 PUSH2 0x21BC SWAP2 SWAP1 PUSH2 0x344D JUMP JUMPDEST LT ISZERO PUSH2 0x221E JUMPI PUSH1 0x40 MLOAD PUSH3 0x461BCD PUSH1 0xE5 SHL DUP2 MSTORE PUSH1 0x20 PUSH1 0x4 DUP3 ADD MSTORE PUSH1 0x2B PUSH1 0x24 DUP3 ADD MSTORE PUSH32 0x43616E6E6F742072656465656D206D6F726520746F6B656E73207468616E206E PUSH1 0x44 DUP3 ADD MSTORE PUSH11 0x1D5B58995C881BDDDB9959 PUSH1 0xAA SHL PUSH1 0x64 DUP3 ADD MSTORE PUSH1 0x84 ADD PUSH2 0x123A JUMP JUMPDEST CALLER PUSH1 0x0 SWAP1 DUP2 MSTORE PUSH1 0x7 PUSH1 0x20 MSTORE PUSH1 0x40 DUP2 KECCAK256 DUP1 SLOAD DUP6 SWAP3 SWAP1 PUSH2 0x223D SWAP1 DUP5 SWAP1 PUSH2 0x347C JUMP JUMPDEST SWAP1 SWAP2 SSTORE POP POP CALLER PUSH1 0x0 SWAP1 DUP2 MSTORE PUSH1 0x7 PUSH1 0x20 MSTORE PUSH1 0x40 SWAP1 KECCAK256 SLOAD PUSH2 0x2267 JUMPI CALLER PUSH1 0x0 SWAP1 DUP2 MSTORE PUSH1 0x7 PUSH1 0x20 MSTORE PUSH1 0x40 DUP2 KECCAK256 SSTORE JUMPDEST PUSH1 0x1 PUSH1 0x1 PUSH1 0xA0 SHL SUB DUP5 AND PUSH1 0x0 SWAP1 DUP2 MSTORE PUSH1 0xB PUSH1 0x20 SWAP1 DUP2 MSTORE PUSH1 0x40 DUP1 DUP4 KECCAK256 CALLER DUP5 MSTORE SWAP1 SWAP2 MSTORE SWAP1 KECCAK256 SLOAD PUSH2 0x22FA JUMPI PUSH1 0x5 SLOAD PUSH1 0x40 MLOAD PUSH4 0xE9404B9 PUSH1 0xE4 SHL DUP2 MSTORE PUSH1 0x1 PUSH1 0x1 PUSH1 0xA0 SHL SUB SWAP1 SWAP2 AND SWAP1 PUSH4 0xE9404B90 SWAP1 PUSH2 0x22C3 SWAP1 CALLER SWAP1 DUP9 SWAP1 DUP7 SWAP1 PUSH1 0x4 ADD PUSH2 0x3502 JUMP JUMPDEST PUSH1 0x0 PUSH1 0x40 MLOAD DUP1 DUP4 SUB DUP2 PUSH1 0x0 DUP8 DUP1 EXTCODESIZE ISZERO DUP1 ISZERO PUSH2 0x22DD JUMPI PUSH1 0x0 DUP1 REVERT JUMPDEST POP GAS CALL ISZERO DUP1 ISZERO PUSH2 0x22F1 JUMPI RETURNDATASIZE PUSH1 0x0 DUP1 RETURNDATACOPY RETURNDATASIZE PUSH1 0x0 REVERT JUMPDEST POP POP POP POP PUSH2 0x24D8 JUMP JUMPDEST PUSH1 0x1 PUSH1 0x1 PUSH1 0xA0 SHL SUB DUP5 AND PUSH1 0x0 SWAP1 DUP2 MSTORE PUSH1 0xB PUSH1 0x20 SWAP1 DUP2 MSTORE PUSH1 0x40 DUP1 DUP4 KECCAK256 CALLER DUP5 MSTORE SWAP1 SWAP2 MSTORE SWAP1 KECCAK256 SLOAD DUP2 LT PUSH2 0x2471 JUMPI PUSH1 0x1 PUSH1 0x1 PUSH1 0xA0 SHL SUB DUP5 AND PUSH1 0x0 SWAP1 DUP2 MSTORE PUSH1 0xB PUSH1 0x20 SWAP1 DUP2 MSTORE PUSH1 0x40 DUP1 DUP4 KECCAK256 CALLER DUP5 MSTORE SWAP1 SWAP2 MSTORE DUP2 KECCAK256 SLOAD PUSH2 0x2353 SWAP1 DUP4 SWAP1 PUSH2 0x2F1C JUMP JUMPDEST SWAP1 POP PUSH1 0x0 PUSH2 0x2361 DUP3 DUP5 PUSH2 0x347C JUMP JUMPDEST PUSH1 0x1 PUSH1 0x1 PUSH1 0xA0 SHL SUB DUP8 AND PUSH1 0x0 SWAP1 DUP2 MSTORE PUSH1 0xB PUSH1 0x20 SWAP1 DUP2 MSTORE PUSH1 0x40 DUP1 DUP4 KECCAK256 CALLER DUP5 MSTORE SWAP1 SWAP2 MSTORE DUP2 KECCAK256 DUP1 SLOAD SWAP3 SWAP4 POP DUP5 SWAP3 SWAP1 SWAP2 SWAP1 PUSH2 0x2399 SWAP1 DUP5 SWAP1 PUSH2 0x347C JUMP JUMPDEST SWAP1 SWAP2 SSTORE POP POP PUSH1 0x2 SLOAD PUSH1 0x40 MLOAD PUSH4 0x1F97F859 PUSH1 0xE3 SHL DUP2 MSTORE PUSH1 0x1 PUSH1 0x1 PUSH1 0xA0 SHL SUB SWAP1 SWAP2 AND SWAP1 PUSH4 0xFCBFC2C8 SWAP1 PUSH2 0x23D2 SWAP1 CALLER SWAP1 DUP11 SWAP1 DUP8 SWAP1 PUSH1 0x4 ADD PUSH2 0x3502 JUMP JUMPDEST PUSH1 0x0 PUSH1 0x40 MLOAD DUP1 DUP4 SUB DUP2 PUSH1 0x0 DUP8 DUP1 EXTCODESIZE ISZERO DUP1 ISZERO PUSH2 0x23EC JUMPI PUSH1 0x0 DUP1 REVERT JUMPDEST POP GAS CALL ISZERO DUP1 ISZERO PUSH2 0x2400 JUMPI RETURNDATASIZE PUSH1 0x0 DUP1 RETURNDATACOPY RETURNDATASIZE PUSH1 0x0 REVERT JUMPDEST POP POP PUSH1 0x5 SLOAD PUSH1 0x40 MLOAD PUSH4 0xE9404B9 PUSH1 0xE4 SHL DUP2 MSTORE PUSH1 0x1 PUSH1 0x1 PUSH1 0xA0 SHL SUB SWAP1 SWAP2 AND SWAP3 POP PUSH4 0xE9404B90 SWAP2 POP PUSH2 0x2438 SWAP1 CALLER SWAP1 DUP11 SWAP1 DUP7 SWAP1 PUSH1 0x4 ADD PUSH2 0x3502 JUMP JUMPDEST PUSH1 0x0 PUSH1 0x40 MLOAD DUP1 DUP4 SUB DUP2 PUSH1 0x0 DUP8 DUP1 EXTCODESIZE ISZERO DUP1 ISZERO PUSH2 0x2452 JUMPI PUSH1 0x0 DUP1 REVERT JUMPDEST POP GAS CALL ISZERO DUP1 ISZERO PUSH2 0x2466 JUMPI RETURNDATASIZE PUSH1 0x0 DUP1 RETURNDATACOPY RETURNDATASIZE PUSH1 0x0 REVERT JUMPDEST POP POP POP POP POP POP PUSH2 0x24D8 JUMP JUMPDEST PUSH1 0x2 SLOAD PUSH1 0x40 MLOAD PUSH4 0x1F97F859 PUSH1 0xE3 SHL DUP2 MSTORE PUSH1 0x1 PUSH1 0x1 PUSH1 0xA0 SHL SUB SWAP1 SWAP2 AND SWAP1 PUSH4 0xFCBFC2C8 SWAP1 PUSH2 0x24A5 SWAP1 CALLER SWAP1 DUP9 SWAP1 DUP7 SWAP1 PUSH1 0x4 ADD PUSH2 0x3502 JUMP JUMPDEST PUSH1 0x0 PUSH1 0x40 MLOAD DUP1 DUP4 SUB DUP2 PUSH1 0x0 DUP8 DUP1 EXTCODESIZE ISZERO DUP1 ISZERO PUSH2 0x24BF JUMPI PUSH1 0x0 DUP1 REVERT JUMPDEST POP GAS CALL ISZERO DUP1 ISZERO PUSH2 0x24D3 JUMPI RETURNDATASIZE PUSH1 0x0 DUP1 RETURNDATACOPY RETURNDATASIZE PUSH1 0x0 REVERT JUMPDEST POP POP POP POP JUMPDEST PUSH1 0x4 DUP1 SLOAD PUSH1 0x40 MLOAD PUSH4 0x2770A7EB PUSH1 0xE2 SHL DUP2 MSTORE CALLER SWAP3 DUP2 ADD SWAP3 SWAP1 SWAP3 MSTORE PUSH1 0x24 DUP3 ADD DUP6 SWAP1 MSTORE PUSH1 0x1 PUSH1 0x1 PUSH1 0xA0 SHL SUB AND SWAP1 PUSH4 0x9DC29FAC SWAP1 PUSH1 0x44 ADD PUSH1 0x0 PUSH1 0x40 MLOAD DUP1 DUP4 SUB DUP2 PUSH1 0x0 DUP8 DUP1 EXTCODESIZE ISZERO DUP1 ISZERO PUSH2 0x2525 JUMPI PUSH1 0x0 DUP1 REVERT JUMPDEST POP GAS CALL ISZERO DUP1 ISZERO PUSH2 0x2539 JUMPI RETURNDATASIZE PUSH1 0x0 DUP1 RETURNDATACOPY RETURNDATASIZE PUSH1 0x0 REVERT JUMPDEST POP POP POP POP PUSH32 0x9A2C2E027B0E93D2BAB8A1DB6764850FAF19C3F41EC55C77E319131FA38176E6 CALLER DUP6 DUP6 PUSH1 0x40 MLOAD PUSH2 0x1E1B SWAP4 SWAP3 SWAP2 SWAP1 PUSH2 0x3502 JUMP JUMPDEST PUSH1 0x3 SLOAD PUSH1 0x40 MLOAD PUSH4 0x1D512A91 PUSH1 0xE2 SHL DUP2 MSTORE PUSH1 0x1 PUSH1 0x1 PUSH1 0xA0 SHL SUB DUP4 DUP2 AND PUSH1 0x4 DUP4 ADD MSTORE PUSH1 0x0 SWAP3 AND SWAP1 PUSH4 0x7544AA44 SWAP1 PUSH1 0x24 ADD PUSH2 0x5E5 JUMP JUMPDEST PUSH1 0x4 DUP1 SLOAD PUSH1 0x40 MLOAD PUSH4 0x70A08231 PUSH1 0xE0 SHL DUP2 MSTORE PUSH1 0x1 PUSH1 0x1 PUSH1 0xA0 SHL SUB DUP5 DUP2 AND SWAP4 DUP3 ADD SWAP4 SWAP1 SWAP4 MSTORE PUSH1 0x0 SWAP3 SWAP1 SWAP2 AND SWAP1 PUSH4 0x70A08231 SWAP1 PUSH1 0x24 ADD PUSH2 0x5E5 JUMP JUMPDEST PUSH1 0x6 SLOAD PUSH1 0x1 PUSH1 0x1 PUSH1 0xA0 SHL SUB AND CALLER EQ PUSH2 0x25F2 JUMPI PUSH1 0x0 DUP1 REVERT JUMPDEST PUSH1 0x8 DUP1 SLOAD PUSH1 0x1 DUP2 ADD DUP3 SSTORE PUSH1 0x0 SWAP2 SWAP1 SWAP2 MSTORE PUSH32 0xF3F7A9FE364FAAB93B216DA50A3214154F22A0A2B415B23A84C8169E8B636EE3 ADD DUP1 SLOAD PUSH1 0x1 PUSH1 0x1 PUSH1 0xA0 SHL SUB NOT AND PUSH1 0x1 PUSH1 0x1 PUSH1 0xA0 SHL SUB DUP4 DUP2 AND SWAP2 DUP3 OR SWAP1 SWAP3 SSTORE PUSH1 0x2 SLOAD PUSH1 0x40 MLOAD PUSH4 0xFAC09E87 PUSH1 0xE0 SHL DUP2 MSTORE PUSH1 0x4 DUP2 ADD SWAP3 SWAP1 SWAP3 MSTORE SWAP1 SWAP2 AND SWAP1 PUSH4 0xFAC09E87 SWAP1 PUSH1 0x24 ADD PUSH1 0x0 PUSH1 0x40 MLOAD DUP1 DUP4 SUB DUP2 PUSH1 0x0 DUP8 DUP1 EXTCODESIZE ISZERO DUP1 ISZERO PUSH2 0x2680 JUMPI PUSH1 0x0 DUP1 REVERT JUMPDEST POP GAS CALL ISZERO DUP1 ISZERO PUSH2 0x2694 JUMPI RETURNDATASIZE PUSH1 0x0 DUP1 RETURNDATACOPY RETURNDATASIZE PUSH1 0x0 REVERT JUMPDEST POP POP PUSH1 0x3 SLOAD PUSH1 0x40 MLOAD PUSH4 0xFAC09E87 PUSH1 0xE0 SHL DUP2 MSTORE PUSH1 0x1 PUSH1 0x1 PUSH1 0xA0 SHL SUB DUP6 DUP2 AND PUSH1 0x4 DUP4 ADD MSTORE SWAP1 SWAP2 AND SWAP3 POP PUSH4 0xFAC09E87 SWAP2 POP PUSH1 0x24 ADD PUSH1 0x0 PUSH1 0x40 MLOAD DUP1 DUP4 SUB DUP2 PUSH1 0x0 DUP8 DUP1 EXTCODESIZE ISZERO DUP1 ISZERO PUSH2 0x26DF JUMPI PUSH1 0x0 DUP1 REVERT JUMPDEST POP GAS CALL ISZERO DUP1 ISZERO PUSH2 0x26F3 JUMPI RETURNDATASIZE PUSH1 0x0 DUP1 RETURNDATACOPY RETURNDATASIZE PUSH1 0x0 REVERT JUMPDEST POP POP PUSH1 0x5 SLOAD PUSH1 0x40 MLOAD PUSH4 0xFAC09E87 PUSH1 0xE0 SHL DUP2 MSTORE PUSH1 0x1 PUSH1 0x1 PUSH1 0xA0 SHL SUB DUP6 DUP2 AND PUSH1 0x4 DUP4 ADD MSTORE SWAP1 SWAP2 AND SWAP3 POP PUSH4 0xFAC09E87 SWAP2 POP PUSH1 0x24 ADD PUSH1 0x0 PUSH1 0x40 MLOAD DUP1 DUP4 SUB DUP2 PUSH1 0x0 DUP8 DUP1 EXTCODESIZE ISZERO DUP1 ISZERO PUSH2 0x273E JUMPI PUSH1 0x0 DUP1 REVERT JUMPDEST POP GAS CALL ISZERO DUP1 ISZERO PUSH2 0x2752 JUMPI RETURNDATASIZE PUSH1 0x0 DUP1 RETURNDATACOPY RETURNDATASIZE PUSH1 0x0 REVERT JUMPDEST POP POP POP POP POP JUMP JUMPDEST PUSH1 0x3 SLOAD PUSH1 0x40 MLOAD PUSH4 0x2B92A07D PUSH1 0xE0 SHL DUP2 MSTORE PUSH1 0x1 PUSH1 0x1 PUSH1 0xA0 SHL SUB DUP4 DUP2 AND PUSH1 0x4 DUP4 ADD MSTORE DUP5 DUP2 AND PUSH1 0x24 DUP4 ADD MSTORE PUSH1 0x0 SWAP3 AND SWAP1 PUSH4 0x2B92A07D SWAP1 PUSH1 0x44 ADD PUSH1 0x20 PUSH1 0x40 MLOAD DUP1 DUP4 SUB DUP2 DUP7 GAS STATICCALL ISZERO DUP1 ISZERO PUSH2 0x27AC JUMPI RETURNDATASIZE PUSH1 0x0 DUP1 RETURNDATACOPY RETURNDATASIZE PUSH1 0x0 REVERT JUMPDEST POP POP POP POP PUSH1 0x40 MLOAD RETURNDATASIZE PUSH1 0x1F NOT PUSH1 0x1F DUP3 ADD AND DUP3 ADD DUP1 PUSH1 0x40 MSTORE POP DUP2 ADD SWAP1 PUSH2 0x27D0 SWAP2 SWAP1 PUSH2 0x344D JUMP JUMPDEST SWAP4 SWAP3 POP POP POP JUMP JUMPDEST PUSH1 0x2 SLOAD PUSH1 0x40 MLOAD PUSH4 0xFCE3E8E7 PUSH1 0xE0 SHL DUP2 MSTORE PUSH1 0x1 PUSH1 0x1 PUSH1 0xA0 SHL SUB DUP4 DUP2 AND PUSH1 0x4 DUP4 ADD MSTORE PUSH1 0x0 SWAP3 AND SWAP1 PUSH4 0xFCE3E8E7 SWAP1 PUSH1 0x24 ADD PUSH2 0x5E5 JUMP JUMPDEST PUSH1 0x1 PUSH1 0x1 PUSH1 0xA0 SHL SUB DUP2 DUP2 AND PUSH1 0x0 SWAP1 DUP2 MSTORE PUSH1 0xA PUSH1 0x20 SWAP1 DUP2 MSTORE PUSH1 0x40 DUP1 DUP4 KECCAK256 SWAP4 DUP7 AND DUP4 MSTORE SWAP3 SWAP1 MSTORE SWAP1 DUP2 KECCAK256 PUSH1 0x1 DUP2 ADD SLOAD SWAP1 SLOAD PUSH2 0x27D0 SWAP2 SWAP1 PUSH2 0x34EA JUMP JUMPDEST PUSH1 0x1 PUSH1 0x1 PUSH1 0xA0 SHL SUB DUP4 AND PUSH1 0x0 SWAP1 DUP2 MSTORE PUSH1 0x9 PUSH1 0x20 MSTORE PUSH1 0x40 SWAP1 KECCAK256 SLOAD PUSH1 0xFF AND PUSH2 0x287A JUMPI PUSH1 0x40 MLOAD PUSH3 0x461BCD PUSH1 0xE5 SHL DUP2 MSTORE PUSH1 0x4 ADD PUSH2 0x123A SWAP1 PUSH2 0x3548 JUMP JUMPDEST PUSH2 0x2882 PUSH2 0x3088 JUMP JUMPDEST PUSH2 0x288B CALLER PUSH2 0x2F5B JUMP JUMPDEST PUSH1 0x3 SLOAD PUSH1 0x40 MLOAD PUSH4 0x6829F1B PUSH1 0xE3 SHL DUP2 MSTORE PUSH1 0x1 PUSH1 0x1 PUSH1 0xA0 SHL SUB DUP7 DUP2 AND PUSH1 0x4 DUP4 ADD MSTORE SWAP1 SWAP2 AND SWAP1 PUSH4 0x3414F8D8 SWAP1 PUSH1 0x24 ADD PUSH1 0x20 PUSH1 0x40 MLOAD DUP1 DUP4 SUB DUP2 DUP7 GAS STATICCALL ISZERO DUP1 ISZERO PUSH2 0x28D5 JUMPI RETURNDATASIZE PUSH1 0x0 DUP1 RETURNDATACOPY RETURNDATASIZE PUSH1 0x0 REVERT JUMPDEST POP POP POP POP PUSH1 0x40 MLOAD RETURNDATASIZE PUSH1 0x1F NOT PUSH1 0x1F DUP3 ADD AND DUP3 ADD DUP1 PUSH1 0x40 MSTORE POP DUP2 ADD SWAP1 PUSH2 0x28F9 SWAP2 SWAP1 PUSH2 0x344D JUMP JUMPDEST PUSH1 0x1 SLOAD PUSH1 0x40 MLOAD PUSH4 0x41976E09 PUSH1 0xE0 SHL DUP2 MSTORE PUSH1 0x1 PUSH1 0x1 PUSH1 0xA0 SHL SUB DUP8 DUP2 AND PUSH1 0x4 DUP4 ADD MSTORE DUP7 SWAP3 AND SWAP1 PUSH4 0x41976E09 SWAP1 PUSH1 0x24 ADD PUSH1 0x20 PUSH1 0x40 MLOAD DUP1 DUP4 SUB DUP2 DUP7 GAS STATICCALL ISZERO DUP1 ISZERO PUSH2 0x2943 JUMPI RETURNDATASIZE PUSH1 0x0 DUP1 RETURNDATACOPY RETURNDATASIZE PUSH1 0x0 REVERT JUMPDEST POP POP POP POP PUSH1 0x40 MLOAD RETURNDATASIZE PUSH1 0x1F NOT PUSH1 0x1F DUP3 ADD AND DUP3 ADD DUP1 PUSH1 0x40 MSTORE POP DUP2 ADD SWAP1 PUSH2 0x2967 SWAP2 SWAP1 PUSH2 0x344D JUMP JUMPDEST PUSH2 0x2971 SWAP2 SWAP1 PUSH2 0x3493 JUMP JUMPDEST PUSH2 0x297B SWAP2 SWAP1 PUSH2 0x34B2 JUMP JUMPDEST PUSH1 0x3 SLOAD PUSH1 0x40 MLOAD PUSH4 0x1FCD2D5 PUSH1 0xE0 SHL DUP2 MSTORE CALLER PUSH1 0x4 DUP3 ADD MSTORE PUSH1 0x1 PUSH1 0x1 PUSH1 0xA0 SHL SUB SWAP1 SWAP2 AND SWAP1 PUSH4 0x1FCD2D5 SWAP1 PUSH1 0x24 ADD PUSH1 0x20 PUSH1 0x40 MLOAD DUP1 DUP4 SUB DUP2 DUP7 GAS STATICCALL ISZERO DUP1 ISZERO PUSH2 0x29C3 JUMPI RETURNDATASIZE PUSH1 0x0 DUP1 RETURNDATACOPY RETURNDATASIZE PUSH1 0x0 REVERT JUMPDEST POP POP POP POP PUSH1 0x40 MLOAD RETURNDATASIZE PUSH1 0x1F NOT PUSH1 0x1F DUP3 ADD AND DUP3 ADD DUP1 PUSH1 0x40 MSTORE POP DUP2 ADD SWAP1 PUSH2 0x29E7 SWAP2 SWAP1 PUSH2 0x344D JUMP JUMPDEST PUSH2 0x29F1 SWAP2 SWAP1 PUSH2 0x347C JUMP JUMPDEST LT ISZERO PUSH2 0x2A5A JUMPI PUSH1 0x40 MLOAD PUSH3 0x461BCD PUSH1 0xE5 SHL DUP2 MSTORE PUSH1 0x20 PUSH1 0x4 DUP3 ADD MSTORE PUSH1 0x32 PUSH1 0x24 DUP3 ADD MSTORE PUSH32 0x43616E6E6F7420776974686472617720636F6C6C61746572616C206265666F72 PUSH1 0x44 DUP3 ADD MSTORE PUSH18 0x32903830BCB4B733903130B1B5903637B0B7 PUSH1 0x71 SHL PUSH1 0x64 DUP3 ADD MSTORE PUSH1 0x84 ADD PUSH2 0x123A JUMP JUMPDEST PUSH1 0x3 SLOAD PUSH1 0x40 MLOAD PUSH4 0x2B92A07D PUSH1 0xE0 SHL DUP2 MSTORE PUSH1 0x1 PUSH1 0x1 PUSH1 0xA0 SHL SUB DUP6 DUP2 AND PUSH1 0x4 DUP4 ADD MSTORE CALLER PUSH1 0x24 DUP4 ADD MSTORE PUSH1 0x0 SWAP3 AND SWAP1 PUSH4 0x2B92A07D SWAP1 PUSH1 0x44 ADD PUSH1 0x20 PUSH1 0x40 MLOAD DUP1 DUP4 SUB DUP2 DUP7 GAS STATICCALL ISZERO DUP1 ISZERO PUSH2 0x2AAB JUMPI RETURNDATASIZE PUSH1 0x0 DUP1 RETURNDATACOPY RETURNDATASIZE PUSH1 0x0 REVERT JUMPDEST POP POP POP POP PUSH1 0x40 MLOAD RETURNDATASIZE PUSH1 0x1F NOT PUSH1 0x1F DUP3 ADD AND DUP3 ADD DUP1 PUSH1 0x40 MSTORE POP DUP2 ADD SWAP1 PUSH2 0x2ACF SWAP2 SWAP1 PUSH2 0x344D JUMP JUMPDEST SWAP1 POP DUP1 DUP4 GT ISZERO PUSH2 0x2B32 JUMPI PUSH1 0x40 MLOAD PUSH3 0x461BCD PUSH1 0xE5 SHL DUP2 MSTORE PUSH1 0x20 PUSH1 0x4 DUP3 ADD MSTORE PUSH1 0x28 PUSH1 0x24 DUP3 ADD MSTORE PUSH32 0x52656465656D696E67206D6F726520636F6C6C61746572616C207468616E2064 PUSH1 0x44 DUP3 ADD MSTORE PUSH8 0x195C1BDCDA5D1959 PUSH1 0xC2 SHL PUSH1 0x64 DUP3 ADD MSTORE PUSH1 0x84 ADD PUSH2 0x123A JUMP JUMPDEST PUSH1 0x1 DUP3 ISZERO ISZERO EQ ISZERO PUSH2 0x2CFE JUMPI PUSH1 0x4 DUP1 SLOAD PUSH1 0x40 MLOAD PUSH4 0xD4D1513 PUSH1 0xE0 SHL DUP2 MSTORE CALLER SWAP3 DUP2 ADD SWAP3 SWAP1 SWAP3 MSTORE PUSH1 0x24 DUP3 ADD DUP6 SWAP1 MSTORE PUSH1 0x1 PUSH1 0x1 PUSH1 0xA0 SHL SUB DUP7 DUP2 AND PUSH1 0x44 DUP5 ADD MSTORE PUSH1 0x0 SWAP3 SWAP2 AND SWAP1 PUSH4 0xD4D1513 SWAP1 PUSH1 0x64 ADD PUSH1 0x20 PUSH1 0x40 MLOAD DUP1 DUP4 SUB DUP2 PUSH1 0x0 DUP8 GAS CALL ISZERO DUP1 ISZERO PUSH2 0x2B9B JUMPI RETURNDATASIZE PUSH1 0x0 DUP1 RETURNDATACOPY RETURNDATASIZE PUSH1 0x0 REVERT JUMPDEST POP POP POP POP PUSH1 0x40 MLOAD RETURNDATASIZE PUSH1 0x1F NOT PUSH1 0x1F DUP3 ADD AND DUP3 ADD DUP1 PUSH1 0x40 MSTORE POP DUP2 ADD SWAP1 PUSH2 0x2BBF SWAP2 SWAP1 PUSH2 0x344D JUMP JUMPDEST CALLER PUSH1 0x0 SWAP1 DUP2 MSTORE PUSH1 0x7 PUSH1 0x20 MSTORE PUSH1 0x40 DUP2 KECCAK256 DUP1 SLOAD SWAP3 SWAP4 POP DUP4 SWAP3 SWAP1 SWAP2 SWAP1 PUSH2 0x2BE3 SWAP1 DUP5 SWAP1 PUSH2 0x34EA JUMP JUMPDEST SWAP1 SWAP2 SSTORE POP POP PUSH1 0x1 PUSH1 0x1 PUSH1 0xA0 SHL SUB DUP6 AND PUSH1 0x0 SWAP1 DUP2 MSTORE PUSH1 0x11 PUSH1 0x20 SWAP1 DUP2 MSTORE PUSH1 0x40 DUP1 DUP4 KECCAK256 CALLER DUP5 MSTORE SWAP1 SWAP2 MSTORE SWAP1 KECCAK256 SLOAD PUSH1 0xFF AND PUSH2 0x2C70 JUMPI PUSH1 0x1 PUSH1 0x1 PUSH1 0xA0 SHL SUB DUP6 AND PUSH1 0x0 DUP2 DUP2 MSTORE PUSH1 0x10 PUSH1 0x20 SWAP1 DUP2 MSTORE PUSH1 0x40 DUP1 DUP4 KECCAK256 DUP1 SLOAD PUSH1 0x1 DUP2 DUP2 ADD DUP4 SSTORE SWAP2 DUP6 MSTORE DUP4 DUP6 KECCAK256 ADD DUP1 SLOAD PUSH1 0x1 PUSH1 0x1 PUSH1 0xA0 SHL SUB NOT AND CALLER SWAP1 DUP2 OR SWAP1 SWAP2 SSTORE SWAP5 DUP5 MSTORE PUSH1 0x11 DUP4 MSTORE DUP2 DUP5 KECCAK256 SWAP5 DUP5 MSTORE SWAP4 SWAP1 SWAP2 MSTORE SWAP1 KECCAK256 DUP1 SLOAD PUSH1 0xFF NOT AND SWAP1 SWAP2 OR SWAP1 SSTORE JUMPDEST PUSH1 0x1 PUSH1 0x1 PUSH1 0xA0 SHL SUB DUP6 AND PUSH1 0x0 SWAP1 DUP2 MSTORE PUSH1 0xB PUSH1 0x20 SWAP1 DUP2 MSTORE PUSH1 0x40 DUP1 DUP4 KECCAK256 CALLER DUP5 MSTORE SWAP1 SWAP2 MSTORE DUP2 KECCAK256 DUP1 SLOAD DUP7 SWAP3 SWAP1 PUSH2 0x2CA3 SWAP1 DUP5 SWAP1 PUSH2 0x34EA JUMP JUMPDEST SWAP1 SWAP2 SSTORE POP POP PUSH1 0x40 DUP1 MLOAD CALLER DUP2 MSTORE PUSH1 0x1 PUSH1 0x1 PUSH1 0xA0 SHL SUB DUP8 AND PUSH1 0x20 DUP3 ADD MSTORE SWAP1 DUP2 ADD DUP6 SWAP1 MSTORE PUSH1 0x60 DUP2 ADD DUP3 SWAP1 MSTORE PUSH32 0xD2D0080ED70CEB7CE39856D34A5727B439EC7C7919425087ED35ED6868791556 SWAP1 PUSH1 0x80 ADD PUSH1 0x40 MLOAD DUP1 SWAP2 SUB SWAP1 LOG1 POP PUSH2 0x2D3A JUMP JUMPDEST PUSH32 0x3FF0C85F880C6A1F943C2C36EBBB2CB1B93959479DB451B2ACB7B1E06F4E369 CALLER DUP6 DUP6 PUSH1 0x40 MLOAD PUSH2 0x2D31 SWAP4 SWAP3 SWAP2 SWAP1 PUSH2 0x3502 JUMP JUMPDEST PUSH1 0x40 MLOAD DUP1 SWAP2 SUB SWAP1 LOG1 JUMPDEST PUSH1 0x3 SLOAD PUSH1 0x40 MLOAD PUSH4 0x4755EA7F PUSH1 0xE1 SHL DUP2 MSTORE CALLER PUSH1 0x4 DUP3 ADD MSTORE PUSH1 0x1 PUSH1 0x1 PUSH1 0xA0 SHL SUB DUP7 DUP2 AND PUSH1 0x24 DUP4 ADD MSTORE PUSH1 0x44 DUP3 ADD DUP7 SWAP1 MSTORE DUP5 ISZERO ISZERO PUSH1 0x64 DUP4 ADD MSTORE SWAP1 SWAP2 AND SWAP1 PUSH4 0x8EABD4FE SWAP1 PUSH1 0x84 ADD PUSH1 0x0 PUSH1 0x40 MLOAD DUP1 DUP4 SUB DUP2 PUSH1 0x0 DUP8 DUP1 EXTCODESIZE ISZERO DUP1 ISZERO PUSH2 0x2D96 JUMPI PUSH1 0x0 DUP1 REVERT JUMPDEST POP GAS CALL ISZERO DUP1 ISZERO PUSH2 0x2DAA JUMPI RETURNDATASIZE PUSH1 0x0 DUP1 RETURNDATACOPY RETURNDATASIZE PUSH1 0x0 REVERT JUMPDEST POP POP POP POP POP POP POP POP JUMP JUMPDEST PUSH1 0x0 DUP1 PUSH8 0xDE0B6B3A7640000 DUP4 PUSH2 0x2DCB DUP3 DUP8 PUSH2 0x347C JUMP JUMPDEST PUSH2 0x2DD5 SWAP2 SWAP1 PUSH2 0x3493 JUMP JUMPDEST PUSH2 0x2DDF SWAP2 SWAP1 PUSH2 0x34B2 JUMP JUMPDEST DUP4 PUSH8 0xDE0B6B3A7640000 PUSH2 0x2DF3 DUP8 DUP10 PUSH2 0x3493 JUMP JUMPDEST PUSH2 0x2DFD SWAP2 SWAP1 PUSH2 0x34B2 JUMP JUMPDEST PUSH2 0x2E07 SWAP2 SWAP1 PUSH2 0x347C JUMP JUMPDEST PUSH2 0x2E19 SWAP1 PUSH8 0x16345785D8A00000 PUSH2 0x3493 JUMP JUMPDEST PUSH2 0x6AF SWAP2 SWAP1 PUSH2 0x34B2 JUMP JUMPDEST PUSH1 0x0 PUSH1 0x4 PUSH1 0x0 SWAP1 SLOAD SWAP1 PUSH2 0x100 EXP SWAP1 DIV PUSH1 0x1 PUSH1 0x1 PUSH1 0xA0 SHL SUB AND PUSH1 0x1 PUSH1 0x1 PUSH1 0xA0 SHL SUB AND PUSH4 0x18160DDD PUSH1 0x40 MLOAD DUP2 PUSH4 0xFFFFFFFF AND PUSH1 0xE0 SHL DUP2 MSTORE PUSH1 0x4 ADD PUSH1 0x20 PUSH1 0x40 MLOAD DUP1 DUP4 SUB DUP2 DUP7 GAS STATICCALL ISZERO DUP1 ISZERO PUSH2 0x70D JUMPI RETURNDATASIZE PUSH1 0x0 DUP1 RETURNDATACOPY RETURNDATASIZE PUSH1 0x0 REVERT JUMPDEST PUSH1 0x2 SLOAD PUSH1 0x40 MLOAD PUSH4 0xF8B2CB4F PUSH1 0xE0 SHL DUP2 MSTORE PUSH1 0x1 PUSH1 0x1 PUSH1 0xA0 SHL SUB DUP4 DUP2 AND PUSH1 0x4 DUP4 ADD MSTORE PUSH1 0x0 SWAP3 AND SWAP1 PUSH4 0xF8B2CB4F SWAP1 PUSH1 0x24 ADD PUSH2 0x5E5 JUMP JUMPDEST PUSH1 0x2 SLOAD PUSH1 0x0 DUP1 SLOAD PUSH1 0x40 MLOAD PUSH4 0x6448FD3 PUSH1 0xE5 SHL DUP2 MSTORE PUSH1 0x1 PUSH1 0x1 PUSH1 0xA0 SHL SUB DUP6 DUP2 AND PUSH1 0x4 DUP4 ADD MSTORE PUSH1 0x24 DUP3 ADD SWAP3 SWAP1 SWAP3 MSTORE SWAP2 SWAP3 AND SWAP1 PUSH4 0xC891FA60 SWAP1 PUSH1 0x44 ADD PUSH2 0x5E5 JUMP JUMPDEST PUSH1 0x3 SLOAD PUSH1 0x40 MLOAD PUSH4 0x28D1F893 PUSH1 0xE2 SHL DUP2 MSTORE PUSH1 0x1 PUSH1 0x1 PUSH1 0xA0 SHL SUB DUP4 DUP2 AND PUSH1 0x4 DUP4 ADD MSTORE PUSH1 0x0 SWAP3 AND SWAP1 PUSH4 0xA347E24C SWAP1 PUSH1 0x24 ADD PUSH2 0x5E5 JUMP JUMPDEST PUSH1 0x0 PUSH2 0x27D0 DUP4 DUP4 PUSH2 0x3252 JUMP JUMPDEST PUSH1 0x2 SLOAD PUSH1 0x40 MLOAD PUSH4 0xDE30F97D PUSH1 0xE0 SHL DUP2 MSTORE PUSH1 0x1 PUSH1 0x1 PUSH1 0xA0 SHL SUB DUP4 DUP2 AND PUSH1 0x4 DUP4 ADD MSTORE PUSH1 0x0 SWAP3 AND SWAP1 PUSH4 0xDE30F97D SWAP1 PUSH1 0x24 ADD PUSH2 0x5E5 JUMP JUMPDEST PUSH1 0x8 SLOAD PUSH1 0x0 SWAP1 DUP2 SWAP1 DUP2 JUMPDEST DUP2 DUP2 PUSH2 0xFFFF AND LT ISZERO PUSH2 0x307F JUMPI PUSH1 0x0 PUSH1 0x8 DUP3 PUSH2 0xFFFF AND DUP2 SLOAD DUP2 LT PUSH2 0x2F8A JUMPI PUSH2 0x2F8A PUSH2 0x34D4 JUMP JUMPDEST PUSH1 0x0 SWAP2 DUP3 MSTORE PUSH1 0x20 DUP3 KECCAK256 ADD SLOAD PUSH1 0x1 SLOAD PUSH1 0x40 MLOAD PUSH4 0x41976E09 PUSH1 0xE0 SHL DUP2 MSTORE PUSH1 0x1 PUSH1 0x1 PUSH1 0xA0 SHL SUB SWAP3 DUP4 AND PUSH1 0x4 DUP3 ADD DUP2 SWAP1 MSTORE SWAP5 POP SWAP2 AND SWAP1 PUSH4 0x41976E09 SWAP1 PUSH1 0x24 ADD PUSH1 0x20 PUSH1 0x40 MLOAD DUP1 DUP4 SUB DUP2 DUP7 GAS STATICCALL ISZERO DUP1 ISZERO PUSH2 0x2FE2 JUMPI RETURNDATASIZE PUSH1 0x0 DUP1 RETURNDATACOPY RETURNDATASIZE PUSH1 0x0 REVERT JUMPDEST POP POP POP POP PUSH1 0x40 MLOAD RETURNDATASIZE PUSH1 0x1F NOT PUSH1 0x1F DUP3 ADD AND DUP3 ADD DUP1 PUSH1 0x40 MSTORE POP DUP2 ADD SWAP1 PUSH2 0x3006 SWAP2 SWAP1 PUSH2 0x344D JUMP JUMPDEST PUSH1 0x1 PUSH1 0x1 PUSH1 0xA0 SHL SUB DUP4 DUP2 AND PUSH1 0x0 SWAP1 DUP2 MSTORE PUSH1 0xA PUSH1 0x20 SWAP1 DUP2 MSTORE PUSH1 0x40 DUP1 DUP4 KECCAK256 SWAP4 DUP13 AND DUP4 MSTORE SWAP3 SWAP1 MSTORE KECCAK256 PUSH1 0x1 DUP2 ADD SLOAD SWAP1 SLOAD SWAP2 SWAP3 POP PUSH8 0xDE0B6B3A7640000 SWAP2 DUP4 SWAP2 PUSH2 0x304A SWAP2 PUSH2 0x34EA JUMP JUMPDEST PUSH2 0x3054 SWAP2 SWAP1 PUSH2 0x3493 JUMP JUMPDEST PUSH2 0x305E SWAP2 SWAP1 PUSH2 0x34B2 JUMP JUMPDEST PUSH2 0x3068 SWAP1 DUP7 PUSH2 0x34EA JUMP JUMPDEST SWAP5 POP POP POP DUP1 DUP1 PUSH2 0x3077 SWAP1 PUSH2 0x3526 JUMP JUMPDEST SWAP2 POP POP PUSH2 0x2F65 JUMP JUMPDEST POP SWAP1 SWAP4 SWAP3 POP POP POP JUMP JUMPDEST PUSH1 0x8 SLOAD PUSH1 0x0 JUMPDEST DUP2 DUP2 PUSH2 0xFFFF AND LT ISZERO PUSH2 0x324A JUMPI PUSH1 0x0 PUSH1 0x8 DUP3 PUSH2 0xFFFF AND DUP2 SLOAD DUP2 LT PUSH2 0x30B3 JUMPI PUSH2 0x30B3 PUSH2 0x34D4 JUMP JUMPDEST PUSH1 0x0 SWAP2 DUP3 MSTORE PUSH1 0x20 DUP1 DUP4 KECCAK256 SWAP2 SWAP1 SWAP2 ADD SLOAD PUSH1 0x1 PUSH1 0x1 PUSH1 0xA0 SHL SUB SWAP1 DUP2 AND DUP1 DUP5 MSTORE PUSH1 0xC SWAP1 SWAP3 MSTORE PUSH1 0x40 DUP1 DUP5 KECCAK256 SLOAD PUSH1 0x2 SLOAD DUP6 SLOAD SWAP3 MLOAD PUSH4 0x6448FD3 PUSH1 0xE5 SHL DUP2 MSTORE PUSH1 0x4 DUP2 ADD DUP7 SWAP1 MSTORE PUSH1 0x24 DUP2 ADD SWAP4 SWAP1 SWAP4 MSTORE SWAP4 SWAP6 POP SWAP4 SWAP3 SWAP1 SWAP2 AND SWAP1 PUSH4 0xC891FA60 SWAP1 PUSH1 0x44 ADD PUSH1 0x20 PUSH1 0x40 MLOAD DUP1 DUP4 SUB DUP2 DUP7 GAS STATICCALL ISZERO DUP1 ISZERO PUSH2 0x312A JUMPI RETURNDATASIZE PUSH1 0x0 DUP1 RETURNDATACOPY RETURNDATASIZE PUSH1 0x0 REVERT JUMPDEST POP POP POP POP PUSH1 0x40 MLOAD RETURNDATASIZE PUSH1 0x1F NOT PUSH1 0x1F DUP3 ADD AND DUP3 ADD DUP1 PUSH1 0x40 MSTORE POP DUP2 ADD SWAP1 PUSH2 0x314E SWAP2 SWAP1 PUSH2 0x344D JUMP JUMPDEST SWAP1 POP PUSH1 0x0 JUMPDEST DUP3 DUP2 PUSH2 0xFFFF AND LT ISZERO PUSH2 0x3233 JUMPI PUSH1 0x1 PUSH1 0x1 PUSH1 0xA0 SHL SUB DUP5 AND PUSH1 0x0 SWAP1 DUP2 MSTORE PUSH1 0xC PUSH1 0x20 MSTORE PUSH1 0x40 DUP2 KECCAK256 DUP1 SLOAD PUSH2 0xFFFF DUP5 AND SWAP1 DUP2 LT PUSH2 0x318D JUMPI PUSH2 0x318D PUSH2 0x34D4 JUMP JUMPDEST PUSH1 0x0 SWAP2 DUP3 MSTORE PUSH1 0x20 DUP1 DUP4 KECCAK256 SWAP1 SWAP2 ADD SLOAD PUSH1 0x1 PUSH1 0x1 PUSH1 0xA0 SHL SUB DUP9 DUP2 AND DUP5 MSTORE PUSH1 0xA DUP4 MSTORE PUSH1 0x40 DUP1 DUP6 KECCAK256 SWAP2 SWAP1 SWAP3 AND DUP1 DUP6 MSTORE SWAP3 MSTORE SWAP1 SWAP2 KECCAK256 SLOAD SWAP1 SWAP2 POP PUSH8 0xDE0B6B3A7640000 SWAP1 PUSH2 0x31D5 SWAP1 DUP6 PUSH2 0x3493 JUMP JUMPDEST PUSH2 0x31DF SWAP2 SWAP1 PUSH2 0x34B2 JUMP JUMPDEST PUSH1 0x1 PUSH1 0x1 PUSH1 0xA0 SHL SUB DUP1 DUP8 AND PUSH1 0x0 SWAP1 DUP2 MSTORE PUSH1 0xA PUSH1 0x20 SWAP1 DUP2 MSTORE PUSH1 0x40 DUP1 DUP4 KECCAK256 SWAP4 DUP7 AND DUP4 MSTORE SWAP3 SWAP1 MSTORE SWAP1 DUP2 KECCAK256 PUSH1 0x1 ADD DUP1 SLOAD SWAP1 SWAP2 SWAP1 PUSH2 0x3219 SWAP1 DUP5 SWAP1 PUSH2 0x34EA JUMP JUMPDEST SWAP1 SWAP2 SSTORE POP DUP3 SWAP2 POP PUSH2 0x322B SWAP1 POP DUP2 PUSH2 0x3526 JUMP JUMPDEST SWAP2 POP POP PUSH2 0x3153 JUMP JUMPDEST POP POP POP POP DUP1 DUP1 PUSH2 0x3242 SWAP1 PUSH2 0x3526 JUMP JUMPDEST SWAP2 POP POP PUSH2 0x308E JUMP JUMPDEST POP POP TIMESTAMP PUSH1 0x0 SSTORE JUMP JUMPDEST PUSH1 0x0 DUP2 DUP4 LT PUSH2 0x3261 JUMPI DUP2 PUSH2 0x27D0 JUMP JUMPDEST POP SWAP1 SWAP2 SWAP1 POP JUMP JUMPDEST DUP1 CALLDATALOAD PUSH1 0x1 PUSH1 0x1 PUSH1 0xA0 SHL SUB DUP2 AND DUP2 EQ PUSH2 0x327F JUMPI PUSH1 0x0 DUP1 REVERT JUMPDEST SWAP2 SWAP1 POP JUMP JUMPDEST PUSH1 0x0 PUSH1 0x20 DUP3 DUP5 SUB SLT ISZERO PUSH2 0x3296 JUMPI PUSH1 0x0 DUP1 REVERT JUMPDEST PUSH2 0x27D0 DUP3 PUSH2 0x3268 JUMP JUMPDEST PUSH1 0x0 DUP1 PUSH1 0x0 PUSH1 0x60 DUP5 DUP7 SUB SLT ISZERO PUSH2 0x32B4 JUMPI PUSH1 0x0 DUP1 REVERT JUMPDEST POP POP DUP2 CALLDATALOAD SWAP4 PUSH1 0x20 DUP4 ADD CALLDATALOAD SWAP4 POP PUSH1 0x40 SWAP1 SWAP3 ADD CALLDATALOAD SWAP2 SWAP1 POP JUMP JUMPDEST PUSH1 0x0 PUSH1 0x20 DUP1 DUP4 MSTORE DUP4 MLOAD DUP1 DUP3 DUP6 ADD MSTORE PUSH1 0x0 JUMPDEST DUP2 DUP2 LT ISZERO PUSH2 0x32F8 JUMPI DUP6 DUP2 ADD DUP4 ADD MLOAD DUP6 DUP3 ADD PUSH1 0x40 ADD MSTORE DUP3 ADD PUSH2 0x32DC JUMP JUMPDEST DUP2 DUP2 GT ISZERO PUSH2 0x330A JUMPI PUSH1 0x0 PUSH1 0x40 DUP4 DUP8 ADD ADD MSTORE JUMPDEST POP PUSH1 0x1F ADD PUSH1 0x1F NOT AND SWAP3 SWAP1 SWAP3 ADD PUSH1 0x40 ADD SWAP4 SWAP3 POP POP POP JUMP JUMPDEST PUSH1 0x0 DUP1 PUSH1 0x0 DUP1 PUSH1 0x80 DUP6 DUP8 SUB SLT ISZERO PUSH2 0x3336 JUMPI PUSH1 0x0 DUP1 REVERT JUMPDEST DUP5 CALLDATALOAD SWAP4 POP PUSH2 0x3346 PUSH1 0x20 DUP7 ADD PUSH2 0x3268 JUMP JUMPDEST SWAP3 POP PUSH1 0x40 DUP6 ADD CALLDATALOAD SWAP2 POP PUSH2 0x335B PUSH1 0x60 DUP7 ADD PUSH2 0x3268 JUMP JUMPDEST SWAP1 POP SWAP3 SWAP6 SWAP2 SWAP5 POP SWAP3 POP JUMP JUMPDEST PUSH1 0x0 DUP1 PUSH1 0x40 DUP4 DUP6 SUB SLT ISZERO PUSH2 0x3379 JUMPI PUSH1 0x0 DUP1 REVERT JUMPDEST DUP3 CALLDATALOAD SWAP2 POP PUSH2 0x3389 PUSH1 0x20 DUP5 ADD PUSH2 0x3268 JUMP JUMPDEST SWAP1 POP SWAP3 POP SWAP3 SWAP1 POP JUMP JUMPDEST PUSH1 0x0 DUP1 PUSH1 0x40 DUP4 DUP6 SUB SLT ISZERO PUSH2 0x33A5 JUMPI PUSH1 0x0 DUP1 REVERT JUMPDEST PUSH2 0x33AE DUP4 PUSH2 0x3268 JUMP JUMPDEST SWAP5 PUSH1 0x20 SWAP4 SWAP1 SWAP4 ADD CALLDATALOAD SWAP4 POP POP POP JUMP JUMPDEST PUSH1 0x0 DUP1 PUSH1 0x40 DUP4 DUP6 SUB SLT ISZERO PUSH2 0x33CF JUMPI PUSH1 0x0 DUP1 REVERT JUMPDEST PUSH2 0x33D8 DUP4 PUSH2 0x3268 JUMP JUMPDEST SWAP2 POP PUSH2 0x3389 PUSH1 0x20 DUP5 ADD PUSH2 0x3268 JUMP JUMPDEST PUSH1 0x0 DUP1 PUSH1 0x0 PUSH1 0x60 DUP5 DUP7 SUB SLT ISZERO PUSH2 0x33FB JUMPI PUSH1 0x0 DUP1 REVERT JUMPDEST PUSH2 0x3404 DUP5 PUSH2 0x3268 JUMP JUMPDEST SWAP3 POP PUSH1 0x20 DUP5 ADD CALLDATALOAD SWAP2 POP PUSH1 0x40 DUP5 ADD CALLDATALOAD DUP1 ISZERO ISZERO DUP2 EQ PUSH2 0x3420 JUMPI PUSH1 0x0 DUP1 REVERT JUMPDEST DUP1 SWAP2 POP POP SWAP3 POP SWAP3 POP SWAP3 JUMP JUMPDEST PUSH1 0x0 DUP1 PUSH1 0x40 DUP4 DUP6 SUB SLT ISZERO PUSH2 0x343E JUMPI PUSH1 0x0 DUP1 REVERT JUMPDEST POP POP DUP1 CALLDATALOAD SWAP3 PUSH1 0x20 SWAP1 SWAP2 ADD CALLDATALOAD SWAP2 POP JUMP JUMPDEST PUSH1 0x0 PUSH1 0x20 DUP3 DUP5 SUB SLT ISZERO PUSH2 0x345F JUMPI PUSH1 0x0 DUP1 REVERT JUMPDEST POP MLOAD SWAP2 SWAP1 POP JUMP JUMPDEST PUSH4 0x4E487B71 PUSH1 0xE0 SHL PUSH1 0x0 MSTORE PUSH1 0x11 PUSH1 0x4 MSTORE PUSH1 0x24 PUSH1 0x0 REVERT JUMPDEST PUSH1 0x0 DUP3 DUP3 LT ISZERO PUSH2 0x348E JUMPI PUSH2 0x348E PUSH2 0x3466 JUMP JUMPDEST POP SUB SWAP1 JUMP JUMPDEST PUSH1 0x0 DUP2 PUSH1 0x0 NOT DIV DUP4 GT DUP3 ISZERO ISZERO AND ISZERO PUSH2 0x34AD JUMPI PUSH2 0x34AD PUSH2 0x3466 JUMP JUMPDEST POP MUL SWAP1 JUMP JUMPDEST PUSH1 0x0 DUP3 PUSH2 0x34CF JUMPI PUSH4 0x4E487B71 PUSH1 0xE0 SHL PUSH1 0x0 MSTORE PUSH1 0x12 PUSH1 0x4 MSTORE PUSH1 0x24 PUSH1 0x0 REVERT JUMPDEST POP DIV SWAP1 JUMP JUMPDEST PUSH4 0x4E487B71 PUSH1 0xE0 SHL PUSH1 0x0 MSTORE PUSH1 0x32 PUSH1 0x4 MSTORE PUSH1 0x24 PUSH1 0x0 REVERT JUMPDEST PUSH1 0x0 DUP3 NOT DUP3 GT ISZERO PUSH2 0x34FD JUMPI PUSH2 0x34FD PUSH2 0x3466 JUMP JUMPDEST POP ADD SWAP1 JUMP JUMPDEST PUSH1 0x1 PUSH1 0x1 PUSH1 0xA0 SHL SUB SWAP4 DUP5 AND DUP2 MSTORE SWAP2 SWAP1 SWAP3 AND PUSH1 0x20 DUP3 ADD MSTORE PUSH1 0x40 DUP2 ADD SWAP2 SWAP1 SWAP2 MSTORE PUSH1 0x60 ADD SWAP1 JUMP JUMPDEST PUSH1 0x0 PUSH2 0xFFFF DUP1 DUP4 AND DUP2 DUP2 EQ ISZERO PUSH2 0x353E JUMPI PUSH2 0x353E PUSH2 0x3466 JUMP JUMPDEST PUSH1 0x1 ADD SWAP4 SWAP3 POP POP POP JUMP JUMPDEST PUSH1 0x20 DUP1 DUP3 MSTORE PUSH1 0x13 SWAP1 DUP3 ADD MSTORE PUSH19 0x185CDCD95D081B9BDD081CDD5C1C1BDC9D1959 PUSH1 0x6A SHL PUSH1 0x40 DUP3 ADD MSTORE PUSH1 0x60 ADD SWAP1 JUMP INVALID 0x4C PUSH10 0x717569646174696F6E20 MSTORE PUSH10 0x736B3A20436F6C6C6174 PUSH6 0x72616C207661 PUSH13 0x756520617070726F616368696E PUSH8 0x204C545620726571 PUSH22 0x6972656D656E74A2646970667358221220714398D8FD DUP6 PUSH25 0xAF07E9760D81CE29E270D549287982FBFEAEE9D5FF3FEF1D73 PUSH5 0x736F6C6343 STOP ADDMOD SIGNEXTEND STOP CALLER ","sha1":"a076c7121c038a7a2beb577820a6a1cec8a8256d","source":"// SPDX-License-Identifier: MIT\n\npragma solidity ^0.8.0;\n\nimport \"@openzeppelin/contracts/utils/math/SafeMath.sol\";\nimport \"@openzeppelin/contracts/token/ERC20/IERC20.sol\";\nimport \"../interfaces/InterfaceLendingPool.sol\";\nimport \"./Math.sol\";\nimport \"./2_Pool.sol\";\nimport \"./3_Collateral.sol\";\nimport \"./LVRToken.sol\";\nimport \"./Conversion.sol\";\nimport \"./Reserve.sol\";\n\ncontract LendingPool is InterfaceLendingPool {\n    using SafeMath for uint256;\n    using Math for uint256;\n\n    event depositEvent(\n        address _user,\n        address _asset,\n        uint256 _quantity,\n        uint256 _tokensMinted\n    );\n    event borrowEvent(\n        address _user,\n        uint256 _borrowed,\n        address _borrowedAsset,\n        uint256 _collateral,\n        address _collateralAsset\n    );\n    event redeemEvent(address _user, address _asset, uint256 _tokensBurned);\n    event repayEvent(address _user, address _asset, uint256 _quantity);\n    event withdrawCollateralEvent(\n        address _user,\n        address _asset,\n        uint256 _quantity\n    );\n\n    //time to track last interest accruel\n    uint256 interestTime = block.timestamp;\n\n    //public keyword??\n    Conversion public conversion;\n    Pool public pool;\n    Collateral public collateral;\n    LVRToken public token;\n    Reserve public reserve;\n    address owner;\n\n    mapping(address => uint256) lenderTokenTracker;\n\n    address[] supportedAssets;\n    mapping(address => bool) supportedAssetTracker;\n\n    struct borrowAmountTracker {\n        uint256 principal;\n        uint256 interest;\n    }\n    //asset -> user -> amount\n    mapping(address => mapping(address => borrowAmountTracker))\n        public borrowTracker;\n\n    //asset -> user -> amount lent\n    mapping(address => mapping(address => uint256)) LentAmountTracker;\n\n    //asset -> list of borrowers\n    mapping(address => address[]) borrowersByAsset;\n    //mapping to make sure no double adding:\n    mapping(address => mapping(address => bool)) initializedBorrowerTracker;\n\n    //total list of borrowers\n    address[] borrowers; //Note new\n    //mapping to make sure no double adding:\n    mapping(address => bool) initializedBorrowers; //Note new\n\n    //asset -> list of borrowers\n    mapping(address => address[]) lendersByAsset;\n    //mapping to make sure no double adding:\n    mapping(address => mapping(address => bool)) initializedLenderTracker;\n\n    constructor() {\n        pool = new Pool();\n        token = new LVRToken(\"LeverToken\", \"LEVR\", address(pool));\n        reserve = new Reserve(address(pool), address(token));\n        collateral = new Collateral(\n            address(pool),\n            address(token),\n            address(reserve)\n        );\n\n        conversion = new Conversion();\n        owner = msg.sender;\n\n        //set up supported currencies\n        /*\n         *rinkeby LINK contract location: 0x01BE23585060835E02B77ef475b0Cc51aA1e0709\n         *rinkeby DAI  contract location: 0x5592EC0cfb4dbc12D3aB100b257153436a1f0FEa\n         *rinkeby WETH contract location: 0xc778417E063141139Fce010982780140Aa0cD5Ab\n         */\n        address WETH = 0xc778417E063141139Fce010982780140Aa0cD5Ab;\n        address LINK = 0x01BE23585060835E02B77ef475b0Cc51aA1e0709;\n        address DAI = 0x5592EC0cfb4dbc12D3aB100b257153436a1f0FEa;\n\n        supportedAssets.push(LINK);\n        supportedAssetTracker[LINK] = true;\n        supportedAssets.push(DAI);\n        supportedAssetTracker[DAI] = true;\n        supportedAssets.push(WETH);\n        supportedAssetTracker[WETH] = true;\n    }\n\n    modifier onlyOwner() {\n        require(msg.sender == owner);\n        _;\n    }\n\n    function Deposit(uint256 _quantity, address _asset) public {\n        require(supportedAssetTracker[_asset] == true, \"asset not supported\");\n        accrueInterest();\n        //uint256 _borrowNow? why not bool?\n        require(_quantity > 0, \"deposit must be positive\");\n        uint256 tokenQuantity = token.mint(msg.sender, _quantity, _asset);\n        lenderTokenTracker[msg.sender] += tokenQuantity;\n        pool.depositTransfer(msg.sender, _asset, _quantity);\n\n        if (!initializedLenderTracker[_asset][msg.sender]) {\n            lendersByAsset[_asset].push(msg.sender);\n            initializedLenderTracker[_asset][msg.sender] = true;\n        }\n        LentAmountTracker[_asset][msg.sender] += _quantity;\n\n        // // borrowNow should be amount borrowed\n        // if (_borrowNow > 0) {\n        //     uint256 usedCollateral = _quantity - collateral.collReq()*_borrowNow;\n        //     Borrow(_borrowNow, address)\n        // }\n\n        emit depositEvent(msg.sender, _asset, _quantity, tokenQuantity);\n    }\n\n    // //withdraw based on asset quantity desired\n    // function Withdraw(address _desiredAsset, uint256 _amountToRemove) public {\n    //     uint256 assetPriceUSD = conversion.getPrice(_desiredAsset);\n\n    //     //check if enough liquid to send\n    //     require(\n    //         _amountToRemove <= pool.getLiquidQuantity(_desiredAsset),\n    //         \"User cannot redeem more than the available balance\"\n    //     ); // future this will only check to see if we have any liquid - engine will swap currencies to allow user to withdraw anything they want.\n\n    //     // total value of currency redeemable by user\n    //     uint256 totalAssetValueFromOwnedTokens = ((token.balanceOf(msg.sender) *\n    //         token.tokenDollarValue()) / assetPriceUSD); // Units: N token * USD/token / USD/currency = N currency\n\n    //     // check that the user is allowed to redeem the amount\n    //     // seems to be some precision errors\n    //     require(\n    //         (totalAssetValueFromOwnedTokens >= _amountToRemove),\n    //         \"Cannot redeem more tokens than number owned\"\n    //     );\n\n    //     uint256 burnNumber = ((assetPriceUSD * _amountToRemove) /\n    //         token.tokenDollarValue()); // Units: USD/currecny * N currency / (USD/token) = N token\n\n    //     lenderTokenTracker[msg.sender] -= burnNumber;\n    //     if (lenderTokenTracker[msg.sender] == 0) {\n    //         delete lenderTokenTracker[msg.sender];\n    //     }\n    //     pool.withdrawTransfer(msg.sender, _desiredAsset, _amountToRemove);\n    //     token.burn(msg.sender, burnNumber);\n    // }\n\n    //////////////// function if we want to withdraw based on LVR token quanitity//////////////////\n    function Withdraw(address _asset, uint256 _tokenQuantity) public {\n        require(supportedAssetTracker[_asset], \"asset not supported\");\n        accrueInterest();\n        uint256 assetPriceUSD = conversion.getPrice(_asset);\n\n        // total value of currency redeemable by user\n        uint256 totalAssetFromTokens = ((_tokenQuantity *\n            token.tokenDollarValue()) / assetPriceUSD); // Units: N token * USD/token / USD/currency = N currency\n\n        //check if enough liquid to send\n        require(\n            totalAssetFromTokens <= pool.getLiquidQuantity(_asset),\n            \"User cannot redeem more than the available balance\"\n        ); // future this will only check to see if we have any liquid - engine will swap currencies to allow user to withdraw anything they want.\n\n        // check that the user is allowed to redeem the amount\n        require(\n            (token.balanceOf(msg.sender) >= _tokenQuantity),\n            \"Cannot redeem more tokens than number owned\"\n        );\n\n        lenderTokenTracker[msg.sender] -= _tokenQuantity;\n        if (lenderTokenTracker[msg.sender] == 0) {\n            delete lenderTokenTracker[msg.sender];\n        }\n\n        if (LentAmountTracker[_asset][msg.sender] == 0) {\n            //if they didnt lend the asset, withraw comes from reserve\n            reserve.redeemUnlentAsset(msg.sender, _asset, totalAssetFromTokens);\n        } else if (\n            LentAmountTracker[_asset][msg.sender] <= totalAssetFromTokens\n        ) {\n            uint256 quantityLent = minimum(\n                totalAssetFromTokens,\n                LentAmountTracker[_asset][msg.sender]\n            );\n            uint256 quantityFromReserves = totalAssetFromTokens - quantityLent;\n\n            LentAmountTracker[_asset][msg.sender] -= quantityLent;\n            pool.withdrawTransfer(msg.sender, _asset, quantityLent);\n            reserve.redeemUnlentAsset(msg.sender, _asset, quantityFromReserves);\n        } else {\n            pool.withdrawTransfer(msg.sender, _asset, totalAssetFromTokens);\n        }\n        token.burn(msg.sender, _tokenQuantity);\n        emit redeemEvent(msg.sender, _asset, _tokenQuantity);\n    }\n\n    //this will have to also transfer LVR if they wont to borrow against that.\n    // what about choosing collateral to borrrow against.\n    function Borrow(\n        uint256 _borrowQuantity,\n        address _asset,\n        uint256 _collateralQuantity,\n        address _collateral\n    ) public {\n        require(supportedAssetTracker[_asset], \"asset not supported\");\n        require(supportedAssetTracker[_collateral], \"asset not supported\");\n\n        require( // enough to borrow\n            _borrowQuantity <= pool.getLiquidQuantity(_asset),\n            \"not enough liquidity to borrow\"\n        ); // future this will only check to see if we have any liquid - engine will swap currencies to allow user to borrow anything they want.\n\n        accrueInterest();\n        // check if deposited collateral + outstanding collateral is enough to cover thier borrow request\n        uint256 usdCollateralValue = ((conversion.getPrice(_collateral) *\n            _collateralQuantity) / collateral.collReqByAsset(_collateral)) +\n            collateral.scaledCollateralValue(msg.sender);\n        uint256 usdBorrowValue = (conversion.getPrice(_asset) *\n            _borrowQuantity) /\n            (10**18) +\n            totalValueBorrowed(msg.sender);\n\n        require(\n            usdCollateralValue >= usdBorrowValue,\n            \"not enough collateral to borrow\"\n        );\n        collateral.depositCollateral(\n            msg.sender,\n            _collateral,\n            _collateralQuantity\n        );\n        pool.borrowTransfer(msg.sender, _asset, _borrowQuantity);\n\n        emit borrowEvent(\n            msg.sender,\n            _borrowQuantity,\n            _asset,\n            _collateralQuantity,\n            _collateral\n        );\n\n        borrowTracker[_asset][msg.sender].principal += _borrowQuantity;\n\n        //only add to array if user doesnt exist already\n        if (!initializedBorrowerTracker[_asset][msg.sender]) {\n            borrowersByAsset[_asset].push(msg.sender);\n            initializedBorrowerTracker[_asset][msg.sender] = true;\n        }\n\n        //only add user if it doesnt exist there already\n        if (!initializedBorrowers[msg.sender]) {\n            borrowers.push(msg.sender);\n            initializedBorrowers[msg.sender] = true;\n        }\n\n        emit borrowEvent(\n            msg.sender,\n            _borrowQuantity,\n            _asset,\n            _collateralQuantity,\n            _collateral\n        );\n    }\n\n    // User repays loan by specifying the asset they are giving back and how much\n    //repaying loan involves returning borrowed asset quantity\n    function Repay(address _asset, uint256 _repayQuantity) public {\n        require(supportedAssetTracker[_asset], \"asset not supported\");\n\n        //cant return more than borrowed\n        accrueInterest();\n        if (_repayQuantity == 1) {\n            _repayQuantity = getOutstandingLoan(msg.sender, _asset);\n        }\n        require(\n            (borrowTracker[_asset][msg.sender].principal +\n                borrowTracker[_asset][msg.sender].interest) >= _repayQuantity,\n            \"Returned more than borrowed\"\n        );\n\n        //remove interest first, then principal balance upon repayment\n        uint256 interest_portion = minimum(\n            _repayQuantity,\n            borrowTracker[_asset][msg.sender].interest\n        ); //  sub1 = min(repayment, interest)\n        uint256 principal_portion = (_repayQuantity - interest_portion); //  principal_portion  = repayment - sub1\n        //this after interest_portion and principal_portion so we can subtract this from brwQty in Pool.sol\n        pool.repayTransfer(\n            msg.sender,\n            _asset,\n            _repayQuantity,\n            principal_portion,\n            interest_portion\n        );\n\n        borrowTracker[_asset][msg.sender].principal -= principal_portion; //  subtract that from principal so that it goes to zero\n        borrowTracker[_asset][msg.sender].interest -= interest_portion; //  subtract interest_portion from interest\n\n        if (borrowTracker[_asset][msg.sender].principal == 0) {\n            delete borrowTracker[_asset][msg.sender].principal;\n        }\n        if (borrowTracker[_asset][msg.sender].interest == 0) {\n            delete borrowTracker[_asset][msg.sender].interest;\n        }\n        emit repayEvent(msg.sender, _asset, _repayQuantity);\n    }\n\n    function unlockCollateral(\n        address _asset,\n        uint256 _quantity,\n        bool _toPool\n    ) public {\n        require(supportedAssetTracker[_asset], \"asset not supported\");\n        accrueInterest();\n        //check if they have loan value less than collat value/collatQtyReq\n        //all require checks must happen here first because we have to update our internal strcutures first before transfering\n        //so that means transfer of collateral must go through.\n        require(\n            (collateral.scaledCollateralValue(msg.sender) -\n                ((conversion.getPrice(_asset) * _quantity) /\n                    collateral.collReqByAsset(_asset))) >=\n                totalValueBorrowed(msg.sender),\n            \"Cannot withdraw collateral before paying back loan\"\n        );\n        uint256 collateralDeposited = collateral.userCollateral(\n            _asset,\n            msg.sender\n        );\n\n        require(\n            _quantity <= collateralDeposited,\n            \"Redeeming more collateral than deposited\"\n        );\n        if (_toPool == true) {\n            uint256 tokenQuantity = token.mint(msg.sender, _quantity, _asset);\n            lenderTokenTracker[msg.sender] += tokenQuantity;\n\n            if (!initializedLenderTracker[_asset][msg.sender]) {\n                lendersByAsset[_asset].push(msg.sender);\n                initializedLenderTracker[_asset][msg.sender] = true;\n            }\n            LentAmountTracker[_asset][msg.sender] += _quantity;\n            emit depositEvent(msg.sender, _asset, _quantity, tokenQuantity);\n        } else {\n            emit withdrawCollateralEvent(msg.sender, _asset, _quantity);\n        }\n        collateral.removeCollateral(msg.sender, _asset, _quantity, _toPool);\n    }\n\n    function accrueInterest() internal {\n        uint256 numAssets = supportedAssets.length;\n        for (uint16 i = 0; i < numAssets; i++) {\n            address asset = supportedAssets[i];\n            uint256 numBorrowers = borrowersByAsset[asset].length;\n            uint256 assetInterestRate = pool.InterestRate(asset, interestTime);\n            for (uint16 j = 0; j < numBorrowers; j++) {\n                address user = borrowersByAsset[asset][j];\n                borrowTracker[asset][user].interest += ((assetInterestRate *\n                    borrowTracker[asset][user].principal) / (1 * 10**18));\n            }\n        }\n        interestTime = block.timestamp;\n    }\n\n    function payoutInterest() public {\n        //accrueInterest(); should this be here?\n        /*\n        Note:  when calculating pool value, liquidity should be used, not balance of contract itself. \n`       For each asset\n        1) total amount of asset lent\n        2) how much each person lent of that asset\n        3) ratio of those (call it r1) is how much of interest they get\n        For each person:\n        1) list of lenders\n        2) how much they lent in lVR\n        3) current number of LVR\n        4) ratio of those(call it r2) is what they get of thier cut\n        5) multiply r1*r2 to get total asset receiving \n        6) mint LVR for the value of r1*r2*totalInterest to payout\n                if user withdraws, delete old lending stats, so if they redposit they start fresh\n         */\n        accrueInterest();\n        uint256 numAssets = supportedAssets.length;\n        for (uint16 i = 0; i < numAssets; i++) {\n            address asset = supportedAssets[i];\n            uint256 totalAsset = pool.getTotalLend(asset);\n            uint256 interest = pool.getInterestQuantity(asset);\n            uint256 numLenders = lendersByAsset[asset].length;\n            for (uint16 j = 0; j < numLenders; j++) {\n                address user = lendersByAsset[asset][j];\n                if (token.balanceOf(user) < 1 * 10**16) {\n                    //arbitrary cutoff^- should it be lower?\n                    lenderTokenTracker[user] = 0;\n                    LentAmountTracker[asset][msg.sender] = 0;\n                } else {\n                    uint256 retainedTokenRatio = (token.balanceOf(user) *\n                        (10**18)) / lenderTokenTracker[user];\n                    uint256 percentOfPool = (LentAmountTracker[asset][user] *\n                        (10**18)) / totalAsset;\n                    uint256 userInterestQuantity = (retainedTokenRatio *\n                        percentOfPool *\n                        interest) / ((10**18)**2);\n                    uint256 tokenQuantity = token.mint(\n                        user,\n                        userInterestQuantity,\n                        asset\n                    ); //mint token since interest is in pool, then\n                    lenderTokenTracker[user] += tokenQuantity; //update how much lvr user has, then\n                    LentAmountTracker[asset][user] += userInterestQuantity; //update how much they lent\n                }\n            }\n            pool.resetInterest(asset);\n        }\n    }\n\n    function liquidationManager() public returns (string memory) {\n        //Note new\n        /*\n        -loop maybe once per hour or day\n        1) loop through users, make sure collat value > collreq*loanValue\n        2) if it is close, alert the user\n        3) if below, scale thier loan value, transfer part of collat to pool, dont mint tokens\n        */\n        uint256 numBorrowers = borrowers.length;\n        uint256 numAssets = supportedAssets.length;\n\n        for (uint16 i = 0; i < numBorrowers; i++) {\n            address user = borrowers[i];\n            uint256 usdCollateralValue = collateral.scaledCollateralValue(user);\n            uint256 usdBorrowValue = totalValueBorrowed(user);\n\n            if (usdCollateralValue < usdBorrowValue) {\n                for (uint16 j = 0; j < numAssets; j++) {\n                    address asset = supportedAssets[j];\n                    uint256 mult = collateral.collReqByAsset(asset);\n                    //set loan value lower\n                    //transfer to pool without minting tokens\n\n                    uint256 loanScalar = loanLiquidationFactor(\n                        usdBorrowValue,\n                        mult,\n                        usdCollateralValue\n                    );\n                    uint256 collScalar = collateralLiquidationFactor(\n                        usdBorrowValue,\n                        mult,\n                        usdCollateralValue\n                    );\n                    if (\n                        borrowTracker[asset][user].principal > 0 ||\n                        borrowTracker[asset][user].interest > 0\n                    ) {\n                        uint256 amountToReplenish = ((1 * 10**18) -\n                            loanScalar) *\n                            (borrowTracker[asset][user].interest +\n                                borrowTracker[asset][user].principal);\n                        borrowTracker[asset][user].interest =\n                            (borrowTracker[asset][user].interest * loanScalar) /\n                            (10**18);\n                        borrowTracker[asset][user].principal =\n                            (borrowTracker[asset][user].principal *\n                                loanScalar) /\n                            (10**18);\n                        //send equal reserve to pool\n                        reserve.replenishPoolOnDefault(\n                            asset,\n                            amountToReplenish\n                        );\n                    }\n                    if (collateral.userCollateral(user, asset) > 0) {\n                        uint256 collatQuantity = (collateral.userCollateral(\n                            user,\n                            asset\n                        ) * collScalar) / (10**18);\n                        /*\n                         * collat to reserve\n                         * borrow asset to pool from reserve\n                         */\n\n                        collateral.defaultCollateralTransfer(\n                            user,\n                            asset,\n                            collatQuantity\n                        );\n                    }\n                }\n\n                return (\"Loan Partially Liquidated\");\n            } else if (usdCollateralValue < (105 * usdBorrowValue) / 100) {\n                return (\n                    \"Liquidation Risk: Collateral value approaching LTV requirement\"\n                );\n            }\n        }\n\n        //delete borrower if they repayed all- how?\n        // if (totalValueBorrowed(msg.sender) == 0) {\n        //     borrowers :remove (msg.sender);\n        //     initializedBorrowers[msg.sender] = false;\n        // }\n    }\n\n    function loanLiquidationFactor(\n        uint256 _loan,\n        uint256 _multiplier,\n        uint256 _collateral\n    ) public pure returns (uint256) {\n        uint256 scale = (16 *\n            10**17 *\n            (((_loan * _multiplier) / 10**18) - _collateral)) /\n            ((((_multiplier - 1 * 10**18) * _loan) / (1 * 10**18)));\n        return (1 * 10**18 - scale); //multiply loan value by this\n    }\n\n    function collateralLiquidationFactor(\n        uint256 _loan,\n        uint256 _multiplier,\n        uint256 _collateral\n    ) public pure returns (uint256) {\n        uint256 scale = (16 *\n            10**17 *\n            (((_loan * _multiplier) / 10**18) - _collateral)) /\n            ((((_multiplier - 1 * 10**18) * _collateral) / (1 * 10**18)));\n        return (scale); //take this much from collat\n    }\n\n    function totalValueBorrowed(address _borrower)\n        public\n        view\n        returns (uint256)\n    {\n        uint256 totalBorrowValue = 0;\n\n        // make this less bits?\n        uint256 numAssets = supportedAssets.length;\n\n        //loop to calculate the value of the pool liquid + borrowed\n        for (uint16 i = 0; i < numAssets; i++) {\n            address asset = supportedAssets[i];\n            uint256 assetPrice = conversion.getPrice(asset);\n            totalBorrowValue += (((borrowTracker[asset][_borrower].principal +\n                borrowTracker[asset][_borrower].interest) * assetPrice) /\n                (1 * 10**18));\n        }\n        return totalBorrowValue;\n    }\n\n    function interestQuantity(address _user, address _asset)\n        public\n        view\n        returns (uint256)\n    {\n        return borrowTracker[_asset][_user].interest;\n    }\n\n    function offerCollateralAssets() public {\n        // just needs to check with the pool to see what assets we can offer\n        //users to use as collateral - called when borrowing (if they deposit\n        //LVR and want to use something else)\n        // to do this we probably need to come up with some reserve rules, etc\n    }\n\n    function getInterestRate(address _asset) public view returns (uint256) {\n        return pool.InterestRate(_asset, interestTime);\n    }\n\n    function minimum(uint256 a, uint256 b) public pure returns (uint256) {\n        return a.min(b);\n    }\n\n    function getLiquidity(address _token) public view returns (uint256) {\n        return pool.getLiquidQuantity(_token);\n    }\n\n    function getPoolBalance(address _token) public view returns (uint256) {\n        return pool.getBalance(_token);\n    }\n\n    function getLiquidPct(address _token) public view returns (uint256) {\n        return pool.getLiquidPct(_token);\n    }\n\n    function getLockedCollateral(address _token) public view returns (uint256) {\n        return collateral.getCollateralQuantity(_token);\n    }\n\n    function getCollBalance(address _token) public view returns (uint256) {\n        return collateral.getBalance(_token);\n    }\n\n    function getPoolAddr() public view returns (address) {\n        return address(pool);\n    }\n\n    function getCollAddr() public view returns (address) {\n        return address(collateral);\n    }\n\n    function getTokenAddr() public view returns (address) {\n        return address(token);\n    }\n\n    function getTokenDollarValue() public view returns (uint256) {\n        return token.tokenDollarValue();\n    }\n\n    function getPoolValue() public view returns (uint256) {\n        return token.totalPoolValue();\n    }\n\n    function getTotalSupply() public view returns (uint256) {\n        return token.totalSupply();\n    }\n\n    function getBalanceOf(address _user) public view returns (uint256) {\n        return token.balanceOf(_user);\n    }\n\n    function getCollateralValue(address _user) public view returns (uint256) {\n        return collateral.collateralValue(_user);\n    }\n\n    function getOutstandingLoan(address _user, address _asset)\n        public\n        view\n        returns (uint256)\n    {\n        return (borrowTracker[_asset][_user].principal +\n            borrowTracker[_asset][_user].interest);\n    }\n\n    function getUserCollateral(address _user, address _asset)\n        public\n        view\n        returns (uint256)\n    {\n        return collateral.userCollateral(_asset, _user);\n    }\n\n    function getTotalInterest(address _asset) public view returns (uint256) {\n        return pool.totalInterest(_asset);\n    }\n\n    function getLentAmount(address _user) public view returns (uint256) {\n        return lenderTokenTracker[_user];\n    }\n\n    function getTimeDelta() public view returns (uint256) {\n        return pool.getTimeDelta(interestTime);\n    }\n\n    function getInterestQuantity(address _asset) public view returns (uint256) {\n        return pool.getInterestQuantity(_asset);\n    }\n\n    function updateCollReqByAsset(address _asset, uint256 _updated_threshold)\n        public\n        onlyOwner\n    {\n        //Note new\n        collateral.updateCollReqByAsset(_asset, _updated_threshold);\n    }\n\n    function updateSupportedAssets(address _asset) public onlyOwner {\n        //Note new\n        supportedAssets.push(_asset);\n        pool.addSupportedAsset(_asset);\n        collateral.addSupportedAsset(_asset);\n        reserve.addSupportedAsset(_asset);\n    }\n}\n","sourcePath":"contracts/1_LendingPool.sol","deployment":{"address":"0xE0Ad289Ea4117fC75df201b5048ae3f41b24c2fC","chainid":"4","blockHeight":10164062}}