{"abi":[{"inputs":[],"stateMutability":"nonpayable","type":"constructor","name":"constructor"},{"anonymous":false,"inputs":[{"indexed":true,"internalType":"bytes32","name":"role","type":"bytes32"},{"indexed":true,"internalType":"bytes32","name":"previousAdminRole","type":"bytes32"},{"indexed":true,"internalType":"bytes32","name":"newAdminRole","type":"bytes32"}],"name":"RoleAdminChanged","type":"event"},{"anonymous":false,"inputs":[{"indexed":true,"internalType":"bytes32","name":"role","type":"bytes32"},{"indexed":true,"internalType":"address","name":"account","type":"address"},{"indexed":true,"internalType":"address","name":"sender","type":"address"}],"name":"RoleGranted","type":"event"},{"anonymous":false,"inputs":[{"indexed":true,"internalType":"bytes32","name":"role","type":"bytes32"},{"indexed":true,"internalType":"address","name":"account","type":"address"},{"indexed":true,"internalType":"address","name":"sender","type":"address"}],"name":"RoleRevoked","type":"event"},{"anonymous":false,"inputs":[{"indexed":false,"internalType":"address","name":"_user","type":"address"},{"indexed":false,"internalType":"uint256","name":"_borrowed","type":"uint256"},{"indexed":false,"internalType":"address","name":"_borrowedAsset","type":"address"},{"indexed":false,"internalType":"uint256","name":"_collateral","type":"uint256"},{"indexed":false,"internalType":"address","name":"_collateralAsset","type":"address"}],"name":"borrowEvent","type":"event"},{"anonymous":false,"inputs":[{"indexed":false,"internalType":"address","name":"_user","type":"address"},{"indexed":false,"internalType":"address","name":"_asset","type":"address"},{"indexed":false,"internalType":"uint256","name":"_quantity","type":"uint256"},{"indexed":false,"internalType":"uint256","name":"_tokensMinted","type":"uint256"}],"name":"depositEvent","type":"event"},{"anonymous":false,"inputs":[{"indexed":false,"internalType":"address","name":"_user","type":"address"},{"indexed":false,"internalType":"address","name":"_asset","type":"address"},{"indexed":false,"internalType":"uint256","name":"_tokensBurned","type":"uint256"}],"name":"redeemEvent","type":"event"},{"anonymous":false,"inputs":[{"indexed":false,"internalType":"address","name":"_user","type":"address"},{"indexed":false,"internalType":"address","name":"_asset","type":"address"},{"indexed":false,"internalType":"uint256","name":"_quantity","type":"uint256"}],"name":"repayEvent","type":"event"},{"anonymous":false,"inputs":[{"indexed":false,"internalType":"address","name":"_user","type":"address"},{"indexed":false,"internalType":"address","name":"_asset","type":"address"},{"indexed":false,"internalType":"uint256","name":"_quantity","type":"uint256"}],"name":"withdrawCollateralEvent","type":"event"},{"inputs":[],"name":"ADMIN_ROLE","outputs":[{"internalType":"bytes32","name":"","type":"bytes32"}],"stateMutability":"view","type":"function"},{"inputs":[{"internalType":"uint256","name":"_borrowQuantity","type":"uint256"},{"internalType":"address","name":"_asset","type":"address"},{"internalType":"uint256","name":"_collateralQuantity","type":"uint256"},{"internalType":"address","name":"_collateral","type":"address"}],"name":"Borrow","outputs":[],"stateMutability":"nonpayable","type":"function"},{"inputs":[],"name":"DEFAULT_ADMIN_ROLE","outputs":[{"internalType":"bytes32","name":"","type":"bytes32"}],"stateMutability":"view","type":"function"},{"inputs":[{"internalType":"uint256","name":"_quantity","type":"uint256"},{"internalType":"address","name":"_asset","type":"address"}],"name":"Deposit","outputs":[],"stateMutability":"nonpayable","type":"function"},{"inputs":[{"internalType":"address","name":"_asset","type":"address"},{"internalType":"uint256","name":"_repayQuantity","type":"uint256"}],"name":"Repay","outputs":[],"stateMutability":"nonpayable","type":"function"},{"inputs":[{"internalType":"address","name":"_asset","type":"address"},{"internalType":"uint256","name":"_tokenQuantity","type":"uint256"}],"name":"Withdraw","outputs":[],"stateMutability":"nonpayable","type":"function"},{"inputs":[{"internalType":"address","name":"_asset","type":"address"},{"internalType":"address","name":"_user","type":"address"}],"name":"availableAssetLoan","outputs":[{"internalType":"uint256","name":"","type":"uint256"}],"stateMutability":"view","type":"function"},{"inputs":[{"internalType":"address","name":"","type":"address"},{"internalType":"address","name":"","type":"address"}],"name":"borrowTracker","outputs":[{"internalType":"uint256","name":"principal","type":"uint256"},{"internalType":"uint256","name":"interest","type":"uint256"}],"stateMutability":"view","type":"function"},{"inputs":[],"name":"collectFees","outputs":[],"stateMutability":"nonpayable","type":"function"},{"inputs":[{"internalType":"address","name":"_asset","type":"address"}],"name":"getAnnualBorrowInterestRate","outputs":[{"internalType":"uint256","name":"","type":"uint256"}],"stateMutability":"view","type":"function"},{"inputs":[{"internalType":"address","name":"_asset","type":"address"}],"name":"getAnnualLendInterestRate","outputs":[{"internalType":"uint256","name":"","type":"uint256"}],"stateMutability":"view","type":"function"},{"inputs":[{"internalType":"address","name":"_user","type":"address"}],"name":"getBalanceOf","outputs":[{"internalType":"uint256","name":"","type":"uint256"}],"stateMutability":"view","type":"function"},{"inputs":[],"name":"getCollAddr","outputs":[{"internalType":"address","name":"","type":"address"}],"stateMutability":"view","type":"function"},{"inputs":[{"internalType":"address","name":"_token","type":"address"}],"name":"getCollBalance","outputs":[{"internalType":"uint256","name":"","type":"uint256"}],"stateMutability":"view","type":"function"},{"inputs":[{"internalType":"address","name":"_user","type":"address"}],"name":"getCollateralValue","outputs":[{"internalType":"uint256","name":"","type":"uint256"}],"stateMutability":"view","type":"function"},{"inputs":[{"internalType":"address","name":"_asset","type":"address"}],"name":"getInterestQuantity","outputs":[{"internalType":"uint256","name":"","type":"uint256"}],"stateMutability":"view","type":"function"},{"inputs":[{"internalType":"address","name":"_asset","type":"address"}],"name":"getInterestRate","outputs":[{"internalType":"uint256","name":"","type":"uint256"}],"stateMutability":"view","type":"function"},{"inputs":[{"internalType":"address","name":"_user","type":"address"}],"name":"getLentAmount","outputs":[{"internalType":"uint256","name":"","type":"uint256"}],"stateMutability":"view","type":"function"},{"inputs":[{"internalType":"address","name":"_token","type":"address"}],"name":"getLiquidPct","outputs":[{"internalType":"uint256","name":"","type":"uint256"}],"stateMutability":"view","type":"function"},{"inputs":[{"internalType":"address","name":"_token","type":"address"}],"name":"getLiquidity","outputs":[{"internalType":"uint256","name":"","type":"uint256"}],"stateMutability":"view","type":"function"},{"inputs":[{"internalType":"address","name":"_token","type":"address"}],"name":"getLockedCollateral","outputs":[{"internalType":"uint256","name":"","type":"uint256"}],"stateMutability":"view","type":"function"},{"inputs":[{"internalType":"address","name":"_user","type":"address"},{"internalType":"address","name":"_asset","type":"address"}],"name":"getOutstandingLoan","outputs":[{"internalType":"uint256","name":"","type":"uint256"}],"stateMutability":"view","type":"function"},{"inputs":[],"name":"getPoolAddr","outputs":[{"internalType":"address","name":"","type":"address"}],"stateMutability":"view","type":"function"},{"inputs":[{"internalType":"address","name":"_token","type":"address"}],"name":"getPoolBalance","outputs":[{"internalType":"uint256","name":"","type":"uint256"}],"stateMutability":"view","type":"function"},{"inputs":[],"name":"getPoolValue","outputs":[{"internalType":"uint256","name":"","type":"uint256"}],"stateMutability":"view","type":"function"},{"inputs":[{"internalType":"address","name":"_asset","type":"address"}],"name":"getReserveBalance","outputs":[{"internalType":"uint256","name":"","type":"uint256"}],"stateMutability":"view","type":"function"},{"inputs":[{"internalType":"bytes32","name":"role","type":"bytes32"}],"name":"getRoleAdmin","outputs":[{"internalType":"bytes32","name":"","type":"bytes32"}],"stateMutability":"view","type":"function"},{"inputs":[{"internalType":"bytes32","name":"role","type":"bytes32"},{"internalType":"uint256","name":"index","type":"uint256"}],"name":"getRoleMember","outputs":[{"internalType":"address","name":"","type":"address"}],"stateMutability":"view","type":"function"},{"inputs":[{"internalType":"bytes32","name":"role","type":"bytes32"}],"name":"getRoleMemberCount","outputs":[{"internalType":"uint256","name":"","type":"uint256"}],"stateMutability":"view","type":"function"},{"inputs":[],"name":"getTimeDelta","outputs":[{"internalType":"uint256","name":"","type":"uint256"}],"stateMutability":"view","type":"function"},{"inputs":[],"name":"getTokenAddr","outputs":[{"internalType":"address","name":"","type":"address"}],"stateMutability":"view","type":"function"},{"inputs":[],"name":"getTokenDollarValue","outputs":[{"internalType":"uint256","name":"","type":"uint256"}],"stateMutability":"view","type":"function"},{"inputs":[{"internalType":"address","name":"_token","type":"address"}],"name":"getTotalBorrow","outputs":[{"internalType":"uint256","name":"","type":"uint256"}],"stateMutability":"view","type":"function"},{"inputs":[{"internalType":"address","name":"_asset","type":"address"}],"name":"getTotalInterest","outputs":[{"internalType":"uint256","name":"","type":"uint256"}],"stateMutability":"view","type":"function"},{"inputs":[],"name":"getTotalSupply","outputs":[{"internalType":"uint256","name":"","type":"uint256"}],"stateMutability":"view","type":"function"},{"inputs":[{"internalType":"address","name":"_user","type":"address"},{"internalType":"address","name":"_asset","type":"address"}],"name":"getUserCollateral","outputs":[{"internalType":"uint256","name":"","type":"uint256"}],"stateMutability":"view","type":"function"},{"inputs":[{"internalType":"bytes32","name":"role","type":"bytes32"},{"internalType":"address","name":"account","type":"address"}],"name":"grantRole","outputs":[],"stateMutability":"nonpayable","type":"function"},{"inputs":[{"internalType":"bytes32","name":"role","type":"bytes32"},{"internalType":"address","name":"account","type":"address"}],"name":"hasRole","outputs":[{"internalType":"bool","name":"","type":"bool"}],"stateMutability":"view","type":"function"},{"inputs":[{"internalType":"address","name":"_user","type":"address"},{"internalType":"address","name":"_asset","type":"address"}],"name":"interestQuantity","outputs":[{"internalType":"uint256","name":"","type":"uint256"}],"stateMutability":"view","type":"function"},{"inputs":[],"name":"liquidationManager","outputs":[{"internalType":"string","name":"","type":"string"}],"stateMutability":"nonpayable","type":"function"},{"inputs":[{"internalType":"address","name":"_user","type":"address"}],"name":"maxLoanValue","outputs":[{"internalType":"uint256","name":"","type":"uint256"}],"stateMutability":"view","type":"function"},{"inputs":[],"name":"payoutInterest","outputs":[],"stateMutability":"nonpayable","type":"function"},{"inputs":[{"internalType":"bytes32","name":"role","type":"bytes32"},{"internalType":"address","name":"account","type":"address"}],"name":"renounceRole","outputs":[],"stateMutability":"nonpayable","type":"function"},{"inputs":[{"internalType":"bytes32","name":"role","type":"bytes32"},{"internalType":"address","name":"account","type":"address"}],"name":"revokeRole","outputs":[],"stateMutability":"nonpayable","type":"function"},{"inputs":[{"internalType":"bytes4","name":"interfaceId","type":"bytes4"}],"name":"supportsInterface","outputs":[{"internalType":"bool","name":"","type":"bool"}],"stateMutability":"view","type":"function"},{"inputs":[{"internalType":"address","name":"_borrower","type":"address"}],"name":"totalValueBorrowed","outputs":[{"internalType":"uint256","name":"","type":"uint256"}],"stateMutability":"view","type":"function"},{"inputs":[{"internalType":"address","name":"_asset","type":"address"},{"internalType":"uint256","name":"_quantity","type":"uint256"},{"internalType":"bool","name":"_toPool","type":"bool"}],"name":"unlockCollateral","outputs":[],"stateMutability":"nonpayable","type":"function"},{"inputs":[{"internalType":"address","name":"_asset","type":"address"},{"internalType":"uint256","name":"_updated_threshold","type":"uint256"}],"name":"updateCollReqByAsset","outputs":[],"stateMutability":"nonpayable","type":"function"},{"inputs":[{"internalType":"address","name":"_asset","type":"address"}],"name":"updateSupportedAssets","outputs":[],"stateMutability":"nonpayable","type":"function"}],"bytecode":"6080604052426002553480156200001557600080fd5b506040516200002490620004f2565b604051809103906000f08015801562000041573d6000803e3d6000fd5b50600480546001600160a01b0319166001600160a01b039290921691821790556040516200006f9062000500565b6060808252600a90820152692632bb32b92a37b5b2b760b11b608082015260a06020820181905260039082015262262b2960e91b60c08201526001600160a01b03909116604082015260e001604051809103906000f080158015620000d8573d6000803e3d6000fd5b50600680546001600160a01b0319166001600160a01b0392831617905560045460405191169062000109906200050e565b6001600160a01b039091168152602001604051809103906000f08015801562000136573d6000803e3d6000fd5b50600580546001600160a01b0319166001600160a01b039290921691909117905560405162000165906200051c565b604051809103906000f08015801562000182573d6000803e3d6000fd5b50600380546001600160a01b03929092166001600160a01b031992831617905560098054600181810183557f6e1540171b6c0c960b71a7020d9f60077f6af931a8bbf590da0223dacf75c7af918201805485167301be23585060835e02b77ef475b0cc51aa1e0709908117909155600a6020527faa6312e0d07910ba72aeb9c59038c2eb7f2103f210f0c776d3fde5b0385b183b805460ff19908116841790915584548084018655840180548716735592ec0cfb4dbc12d3ab100b257153436a1f0fea9081179091557f87bb8387b4f0a71d5b80500a87f78dcfbd1b6865b2e76da3412029bba07cf7a080548316851790558554808501909655949093018054861673c778417e063141139fce010982780140aa0cd5ab90811790915560008190527fb3d8b5cc08e55a792ce5758f706c9ff44194ff294c0ccc43d120c913cc913b188054909416909217909255600780549094163390811790945592909190620002fe906000805160206200c85c833981519152906200038d565b60048054600554604051630e0cb96960e31b81526001600160a01b03918216938101939093521690637065cb4890602401600060405180830381600087803b1580156200034a57600080fd5b505af11580156200035f573d6000803e3d6000fd5b50505050620003846000805160206200c85c833981519152306200038d60201b60201c565b5050506200052a565b6200039982826200039d565b5050565b620003b48282620003e060201b62003b861760201c565b6000828152600160209081526040909120620003db91839062003c0a62000480821b17901c565b505050565b6000828152602081815260408083206001600160a01b038516845290915290205460ff1662000399576000828152602081815260408083206001600160a01b03851684529091529020805460ff191660011790556200043c3390565b6001600160a01b0316816001600160a01b0316837f2f8788117e7eff1d82e926ec794901d17c78024a50270940304540a733656f0d60405160405180910390a45050565b600062000497836001600160a01b038416620004a0565b90505b92915050565b6000818152600183016020526040812054620004e9575081546001818101845560008481526020808220909301849055845484825282860190935260409020919091556200049a565b5060006200049a565b6135f18062004e0b83390190565b61210e80620083fc83390190565b611f9f806200a50a83390190565b6103b3806200c4a983390190565b6148d1806200053a6000396000f3fe608060405234801561001057600080fd5b50600436106102bb5760003560e01c8063884edad911610182578063c4e41b22116100e9578063d49ab22c116100a2578063de30f97d1161007c578063de30f97d1461066f578063f2df757b14610682578063fa741f0014610695578063fac8aff8146106a857600080fd5b8063d49ab22c14610638578063d547741f1461064b578063de2592421461065e57600080fd5b8063c4e41b22146105dc578063c8796572146105e4578063ca15c873146105ec578063cda03c29146105ff578063d28682ea14610612578063d3ea0f891461062557600080fd5b8063a217fddf1161013b578063a217fddf1461054b578063a55e866814610553578063a747b93b14610566578063a78e404614610579578063b9e037e61461058c578063c0f2b1cf1461059f57600080fd5b8063884edad9146104d95780639010d07c146104ec57806391d14854146104ff57806397904e42146105125780639b96eece146105255780639feea54f1461053857600080fd5b806346c928fc1161022657806363e36dac116101df57806363e36dac1461043e5780636858ea071461044f5780636aaa434e146104625780636db18093146104a957806375b238fc146104b15780638538d14e146104c657600080fd5b806346c928fc146103ba5780634bcc1709146103cd578063511c5661146103e0578063582b2720146103f35780635c16de4f146104185780635c88f5a51461042b57600080fd5b80632273323f116102785780632273323f1461034c578063248a9ca3146103565780632678cce3146103795780632d5562a01461038c5780632f2ff15d1461039457806336568abe146103a757600080fd5b806301ffc9a7146102c0578063057393c0146102e857806315226b5414610309578063191506b91461031c5780631ba2f5311461032f5780631ef3a04c14610337575b600080fd5b6102d36102ce366004614429565b6106d1565b60405190151581526020015b60405180910390f35b6102fb6102f636600461446f565b6106fc565b6040519081526020016102df565b6102fb61031736600461446f565b61076c565b6102fb61032a36600461448a565b6107a4565b6102fb610840565b61033f6108be565b6040516102df91906144e9565b610354610fe2565b005b6102fb61036436600461451c565b60009081526020819052604090206001015490565b6102fb61038736600461446f565b6114ac565b6102fb6114f5565b6103546103a2366004614535565b611542565b6103546103b5366004614535565b61156d565b6103546103c8366004614558565b6115e7565b6103546103db366004614535565b611c42565b6102fb6103ee36600461446f565b611ef8565b6006546001600160a01b03165b6040516001600160a01b0390911681526020016102df565b61035461042636600461459e565b611f30565b6102fb61043936600461446f565b612287565b6005546001600160a01b0316610400565b61035461045d36600461459e565b6122bf565b61049461047036600461448a565b600b6020908152600092835260408084209091529082529020805460019091015482565b604080519283526020830191909152016102df565b6102fb61235d565b6102fb60008051602061487c83398151915281565b6102fb6104d436600461446f565b6123a7565b6103546104e736600461459e565b6123df565b6104006104fa3660046145c8565b612f6a565b6102d361050d366004614535565b612f82565b6102fb61052036600461446f565b612fab565b6102fb61053336600461446f565b612fde565b61035461054636600461446f565b613011565b6102fb600081565b6102fb61056136600461448a565b61314c565b6102fb61057436600461446f565b6131c3565b6102fb61058736600461448a565b6131fb565b61035461059a3660046145ea565b613233565b6102fb6105ad36600461448a565b6001600160a01b038082166000908152600b602090815260408083209386168352929052206001015492915050565b6102fb6137a1565b6103546137eb565b6102fb6105fa36600461451c565b61387e565b6102fb61060d36600461446f565b613895565b6102fb61062036600461446f565b6138c8565b6102fb61063336600461446f565b613900565b6102fb61064636600461446f565b613949565b610354610659366004614535565b61397c565b6004546001600160a01b0316610400565b6102fb61067d36600461446f565b6139a2565b6102fb61069036600461446f565b6139da565b6102fb6106a336600461446f565b613b07565b6102fb6106b636600461446f565b6001600160a01b031660009081526008602052604090205490565b60006001600160e01b03198216635a05180f60e01b14806106f657506106f682613c1f565b92915050565b60055460405163f8b2cb4f60e01b81526001600160a01b038381166004830152600092169063f8b2cb4f906024015b602060405180830381865afa158015610748573d6000803e3d6000fd5b505050506040513d601f19601f820116820180604052508101906106f6919061462f565b600480546040516330e311a160e01b81526001600160a01b0384811693820193909352600092909116906330e311a19060240161072b565b6003546040516341976e0960e01b81526001600160a01b03848116600483015260009216906341976e0990602401602060405180830381865afa1580156107ef573d6000803e3d6000fd5b505050506040513d601f19601f82011682018060405250810190610813919061462f565b61081c836139da565b61082584613895565b61082f919061465e565b6108399190614675565b9392505050565b6000600460009054906101000a90046001600160a01b03166001600160a01b03166375f4d6776040518163ffffffff1660e01b8152600401602060405180830381865afa158015610895573d6000803e3d6000fd5b505050506040513d601f19601f820116820180604052508101906108b9919061462f565b905090565b60606108d860008051602061487c83398151915233612f82565b6108fd5760405162461bcd60e51b81526004016108f490614697565b60405180910390fd5b600f5460095460005b828161ffff161015610fdc576000600f8261ffff168154811061092b5761092b6146c5565b60009182526020822001546005546040516301fcd2d560e01b81526001600160a01b039283166004820181905294509116906301fcd2d590602401602060405180830381865afa158015610983573d6000803e3d6000fd5b505050506040513d601f19601f820116820180604052508101906109a7919061462f565b600554604051631d512a9160e21b81526001600160a01b03858116600483015292935060009290911690637544aa4490602401602060405180830381865afa1580156109f7573d6000803e3d6000fd5b505050506040513d601f19601f82011682018060405250810190610a1b919061462f565b90506000610a28846139da565b905080831015610f825760005b868161ffff161015610f3f57600060098261ffff1681548110610a5a57610a5a6146c5565b60009182526020822001546005546040516306829f1b60e31b81526001600160a01b03928316600482018190529450911690633414f8d890602401602060405180830381865afa158015610ab2573d6000803e3d6000fd5b505050506040513d601f19601f82011682018060405250810190610ad6919061462f565b90506000610ae5858388613c54565b90506000610af4868489613ce0565b6001600160a01b038086166000908152600b60209081526040808320938e1683529290522054909150151580610b5157506001600160a01b038085166000908152600b60209081526040808320938d168352929052206001015415155b15610ce0576001600160a01b038481166000908152600b60209081526040808320938d1683529290529081208054600190910154610b8f91906146db565b610ba184670de0b6b3a764000061465e565b610bab91906146f3565b6001600160a01b038087166000908152600b60209081526040808320938f1683529290522060010154909150670de0b6b3a764000090610bec9085906146f3565b610bf69190614675565b6001600160a01b038681166000908152600b60209081526040808320938f16835292905220600181019190915554670de0b6b3a764000090610c399085906146f3565b610c439190614675565b6001600160a01b038087166000908152600b602090815260408083208f851684529091529081902092909255600480549251635ea5801760e11b8152929091169163bd4b002e91610cac9189918691016001600160a01b03929092168252602082015260400190565b600060405180830381600087803b158015610cc657600080fd5b505af1158015610cda573d6000803e3d6000fd5b50505050505b600554604051632b92a07d60e01b81526001600160a01b038b8116600483015286811660248301526000921690632b92a07d90604401602060405180830381865afa158015610d33573d6000803e3d6000fd5b505050506040513d601f19601f82011682018060405250810190610d57919061462f565b1115610ec757600554604051632b92a07d60e01b81526001600160a01b038b811660048301528681166024830152600092670de0b6b3a764000092859290911690632b92a07d90604401602060405180830381865afa158015610dbe573d6000803e3d6000fd5b505050506040513d601f19601f82011682018060405250810190610de2919061462f565b610dec91906146f3565b610df69190614675565b60055460405163012772bb60e51b81529192506001600160a01b0316906324ee576090610e2b908d9089908690600401614712565b600060405180830381600087803b158015610e4557600080fd5b505af1158015610e59573d6000803e3d6000fd5b50506004805460405163176fa51b60e31b81526001600160a01b038a811693820193909352602481018690529116925063bb7d28d89150604401600060405180830381600087803b158015610ead57600080fd5b505af1158015610ec1573d6000803e3d6000fd5b50505050505b60048054604051637e6e1dd960e01b81526001600160a01b0387811693820193909352911690637e6e1dd990602401600060405180830381600087803b158015610f1057600080fd5b505af1158015610f24573d6000803e3d6000fd5b50505050505050508080610f3790614736565b915050610a35565b506040518060400160405280601981526020017f4c6f616e205061727469616c6c79204c6971756964617465640000000000000081525097505050505050505090565b6064610f8f8260696146f3565b610f999190614675565b831015610fc5576040518060600160405280603e815260200161483e603e913997505050505050505090565b505050508080610fd490614736565b915050610906565b50505090565b610ffa60008051602061487c83398151915233612f82565b6110165760405162461bcd60e51b81526004016108f490614697565b61101e613d4f565b60095460005b818161ffff1610156114a857600060098261ffff1681548110611049576110496146c5565b60009182526020822001546001600160a01b0316915061106882613f19565b60048054604051635c88f5a560e01b81526001600160a01b0386811693820193909352929350600092911690635c88f5a590602401602060405180830381865afa1580156110ba573d6000803e3d6000fd5b505050506040513d601f19601f820116820180604052508101906110de919061462f565b6001600160a01b0384166000908152601160205260408120549192505b818161ffff16101561142f576001600160a01b0385166000908152601160205260408120805461ffff8416908110611135576111356146c5565b6000918252602090912001546006546040516370a0823160e01b81526001600160a01b03928316600482018190529350662386f26fc1000092909116906370a0823190602401602060405180830381865afa158015611198573d6000803e3d6000fd5b505050506040513d601f19601f820116820180604052508101906111bc919061462f565b1015611208576001600160a01b038082166000818152600860209081526040808320839055938a168252600c8152838220928252919091529081205561120186613f19565b945061141c565b6001600160a01b038181166000818152600860205260408082205460065491516370a0823160e01b81526004810194909452919391929116906370a0823190602401602060405180830381865afa158015611267573d6000803e3d6000fd5b505050506040513d601f19601f8201168201806040525081019061128b919061462f565b61129d90670de0b6b3a76400006146f3565b6112a79190614675565b6001600160a01b038089166000908152600c602090815260408083209387168352929052908120549192509087906112e790670de0b6b3a76400006146f3565b6112f19190614675565b905060006ec097ce7bc90715b34b9f10000000008761131084866146f3565b61131a91906146f3565b6113249190614675565b600654604051630d4d151360e01b81526001600160a01b038781166004830152602482018490528c8116604483015292935060009290911690630d4d1513906064016020604051808303816000875af1158015611385573d6000803e3d6000fd5b505050506040513d601f19601f820116820180604052508101906113a9919061462f565b6001600160a01b0386166000908152600860205260408120805492935083929091906113d69084906146db565b90915550506001600160a01b03808b166000908152600c60209081526040808320938916835292905290812080548492906114129084906146db565b9091555050505050505b508061142781614736565b9150506110fb565b50600480546040516323d0aab160e01b81526001600160a01b03878116938201939093529116906323d0aab190602401600060405180830381600087803b15801561147957600080fd5b505af115801561148d573d6000803e3d6000fd5b505050505050505080806114a090614736565b915050611024565b5050565b6004805460025460405163480f06f560e11b81526000936001600160a01b039093169263901e0dea9261072b928792016001600160a01b03929092168252602082015260400190565b6004805460025460405163a150fb5f60e01b8152928301526000916001600160a01b039091169063a150fb5f90602401602060405180830381865afa158015610895573d6000803e3d6000fd5b60008281526020819052604090206001015461155e8133613fc7565b611568838361402b565b505050565b6001600160a01b03811633146115dd5760405162461bcd60e51b815260206004820152602f60248201527f416363657373436f6e74726f6c3a2063616e206f6e6c792072656e6f756e636560448201526e103937b632b9903337b91039b2b63360891b60648201526084016108f4565b6114a8828261404d565b6001600160a01b0383166000908152600a602052604090205460ff1661161f5760405162461bcd60e51b81526004016108f490614758565b6001600160a01b0381166000908152600a602052604090205460ff166116575760405162461bcd60e51b81526004016108f490614758565b6004805460405163fce3e8e760e01b81526001600160a01b038681169382019390935291169063fce3e8e790602401602060405180830381865afa1580156116a3573d6000803e3d6000fd5b505050506040513d601f19601f820116820180604052508101906116c7919061462f565b8411156117165760405162461bcd60e51b815260206004820152601e60248201527f6e6f7420656e6f756768206c697175696469747920746f20626f72726f77000060448201526064016108f4565b61171e613d4f565b6005546040516301fcd2d560e01b81523360048201526000916001600160a01b0316906301fcd2d590602401602060405180830381865afa158015611767573d6000803e3d6000fd5b505050506040513d601f19601f8201168201806040525081019061178b919061462f565b6005546040516306829f1b60e31b81526001600160a01b03858116600483015290911690633414f8d890602401602060405180830381865afa1580156117d5573d6000803e3d6000fd5b505050506040513d601f19601f820116820180604052508101906117f9919061462f565b6003546040516341976e0960e01b81526001600160a01b038681166004830152879216906341976e0990602401602060405180830381865afa158015611843573d6000803e3d6000fd5b505050506040513d601f19601f82011682018060405250810190611867919061462f565b61187191906146f3565b61187b9190614675565b61188591906146db565b90506000611892336139da565b6003546040516341976e0960e01b81526001600160a01b038881166004830152670de0b6b3a7640000928a929116906341976e0990602401602060405180830381865afa1580156118e7573d6000803e3d6000fd5b505050506040513d601f19601f8201168201806040525081019061190b919061462f565b61191591906146f3565b61191f9190614675565b61192991906146db565b90508082101561197b5760405162461bcd60e51b815260206004820152601f60248201527f6e6f7420656e6f75676820636f6c6c61746572616c20746f20626f72726f770060448201526064016108f4565b60055460405163f970c3b760e01b81526001600160a01b039091169063f970c3b7906119af90339087908990600401614712565b600060405180830381600087803b1580156119c957600080fd5b505af11580156119dd573d6000803e3d6000fd5b505050506000861115611be3576004805460405163fc4f78b960e01b81526001600160a01b039091169163fc4f78b991611a1d9133918a918c9101614712565b600060405180830381600087803b158015611a3757600080fd5b505af1158015611a4b573d6000803e3d6000fd5b505050506001600160a01b0385166000908152600b6020908152604080832033845290915281208054889290611a829084906146db565b90915550506001600160a01b0385166000908152600e6020908152604080832033845290915290205460ff16611b0f576001600160a01b0385166000818152600d602090815260408083208054600181810183559185528385200180546001600160a01b03191633908117909155948452600e8352818420948452939091529020805460ff191690911790555b3360009081526010602052604090205460ff16611b8157600f805460018181019092557f8d1108e10bcb7c27dddfc02ed9d693a074039d026cf4ea4240b40f7d581ac8020180546001600160a01b031916339081179091556000908152601060205260409020805460ff191690911790555b60048054604051637e6e1dd960e01b81526001600160a01b0388811693820193909352911690637e6e1dd990602401600060405180830381600087803b158015611bca57600080fd5b505af1158015611bde573d6000803e3d6000fd5b505050505b60408051338152602081018890526001600160a01b0387811682840152606082018790528516608082015290517fea8631408d071cdc565dfa37dcb32450c4c85ee9a4142ed14df1387d7c2a43279181900360a00190a1505050505050565b6001600160a01b0381166000908152600a602052604090205460ff161515600114611c7f5760405162461bcd60e51b81526004016108f490614758565b611c87613d4f565b60008211611cd75760405162461bcd60e51b815260206004820152601860248201527f6465706f736974206d75737420626520706f736974697665000000000000000060448201526064016108f4565b600654604051630d4d151360e01b8152336004820152602481018490526001600160a01b0383811660448301526000921690630d4d1513906064016020604051808303816000875af1158015611d31573d6000803e3d6000fd5b505050506040513d601f19601f82011682018060405250810190611d55919061462f565b33600090815260086020526040812080549293508392909190611d799084906146db565b909155505060048054604051631740ecaf60e11b81526001600160a01b0390911691632e81d95e91611db19133918791899101614712565b600060405180830381600087803b158015611dcb57600080fd5b505af1158015611ddf573d6000803e3d6000fd5b505050506001600160a01b038216600090815260126020908152604080832033845290915290205460ff16611e6b576001600160a01b03821660008181526011602090815260408083208054600181810183559185528385200180546001600160a01b0319163390811790915594845260128352818420948452939091529020805460ff191690911790555b6001600160a01b0382166000908152600c6020908152604080832033845290915281208054859290611e9e9084906146db565b9091555050604080513381526001600160a01b0384166020820152908101849052606081018290527fd2d0080ed70ceb7ce39856d34a5727b439ec7c7919425087ed35ed68687915569060800160405180910390a1505050565b6004805460405163c0d7eec160e01b81526001600160a01b03848116938201939093526000929091169063c0d7eec19060240161072b565b6001600160a01b0382166000908152600a602052604090205460ff16611f685760405162461bcd60e51b81526004016108f490614758565b611f70613d4f565b8060011415611f8657611f8333836131fb565b90505b6001600160a01b0382166000908152600b602090815260408083203384529091529020600181015490548291611fbb916146db565b10156120095760405162461bcd60e51b815260206004820152601b60248201527f52657475726e6564206d6f7265207468616e20626f72726f776564000000000060448201526064016108f4565b6001600160a01b0382166000908152600b6020908152604080832033845290915281206001015461203b90839061406f565b90506000612049828461465e565b600480546040516327709e4760e11b815233928101929092526001600160a01b0387811660248401526044830187905260648301849052608483018690529293509190911690634ee13c8e9060a401600060405180830381600087803b1580156120b257600080fd5b505af11580156120c6573d6000803e3d6000fd5b505050506001600160a01b0384166000908152600b60209081526040808320338452909152812080548392906120fd90849061465e565b90915550506001600160a01b0384166000908152600b602090815260408083203384529091528120600101805484929061213890849061465e565b90915550506001600160a01b0384166000908152600b6020908152604080832033845290915290205461218a576001600160a01b0384166000908152600b602090815260408083203384529091528120555b6001600160a01b0384166000908152600b602090815260408083203384529091529020600101546121dd576001600160a01b0384166000908152600b602090815260408083203384529091528120600101555b60048054604051637e6e1dd960e01b81526001600160a01b0387811693820193909352911690637e6e1dd990602401600060405180830381600087803b15801561222657600080fd5b505af115801561223a573d6000803e3d6000fd5b505050507f2bb7c63eb15a05ebc1a5643f6d064397b45f326816b607769bf52fd7bd03951a33858560405161227193929190614712565b60405180910390a1612281610fe2565b50505050565b60048054604051635c88f5a560e01b81526001600160a01b038481169382019390935260009290911690635c88f5a59060240161072b565b6122d760008051602061487c83398151915233612f82565b6122f35760405162461bcd60e51b81526004016108f490614697565b600554604051636858ea0760e01b81526001600160a01b0384811660048301526024820184905290911690636858ea0790604401600060405180830381600087803b15801561234157600080fd5b505af1158015612355573d6000803e3d6000fd5b505050505050565b60065460408051630cf55f3760e21b815290516000926001600160a01b0316916333d57cdc9160048083019260209291908290030181865afa158015610895573d6000803e3d6000fd5b6004805460405163680c815d60e11b81526001600160a01b03848116938201939093526000929091169063d01902ba9060240161072b565b6001600160a01b0382166000908152600a602052604090205460ff166124175760405162461bcd60e51b81526004016108f490614758565b6006546040516370a0823160e01b815233600482015282916001600160a01b0316906370a0823190602401602060405180830381865afa15801561245f573d6000803e3d6000fd5b505050506040513d601f19601f82011682018060405250810190612483919061462f565b10156124e55760405162461bcd60e51b815260206004820152602b60248201527f43616e6e6f742072656465656d206d6f726520746f6b656e73207468616e206e60448201526a1d5b58995c881bdddb995960aa1b60648201526084016108f4565b60065460408051630cf55f3760e21b81529051670de0b6b3a7640000926001600160a01b0316916333d57cdc9160048083019260209291908290030181865afa158015612536573d6000803e3d6000fd5b505050506040513d601f19601f8201168201806040525081019061255a919061462f565b61256490836146f3565b61256e9190614675565b60048054604080516348e7d0c360e11b815290516001600160a01b03909216926391cfa1869282820192602092908290030181865afa1580156125b5573d6000803e3d6000fd5b505050506040513d601f19601f820116820180604052508101906125d9919061462f565b101561261f5760405162461bcd60e51b81526020600482015260156024820152744e6f7420656e6f75676820667265652066756e647360581b60448201526064016108f4565b612627613d4f565b6003546040516341976e0960e01b81526001600160a01b03848116600483015260009216906341976e0990602401602060405180830381865afa158015612672573d6000803e3d6000fd5b505050506040513d601f19601f82011682018060405250810190612696919061462f565b9050600081600660009054906101000a90046001600160a01b03166001600160a01b03166333d57cdc6040518163ffffffff1660e01b8152600401602060405180830381865afa1580156126ee573d6000803e3d6000fd5b505050506040513d601f19601f82011682018060405250810190612712919061462f565b61271c90856146f3565b6127269190614675565b600654604051632770a7eb60e21b8152336004820152602481018690529192506001600160a01b031690639dc29fac90604401600060405180830381600087803b15801561277357600080fd5b505af1158015612787573d6000803e3d6000fd5b505033600090815260086020526040812080548794509092506127ab90849061465e565b9091555050336000908152600860205260409020546127d557336000908152600860205260408120555b6001600160a01b0384166000908152600c60209081526040808320338452909152902054612867576004805460405163995e995b60e01b81526001600160a01b039091169163995e995b916128309133918991879101614712565b600060405180830381600087803b15801561284a57600080fd5b505af115801561285e573d6000803e3d6000fd5b50505050612f29565b6001600160a01b0384166000908152600c60209081526040808320338452909152902054811115612c27576001600160a01b0384166000908152600c602090815260408083203384529091528120546128c0908361465e565b6004805460405163fce3e8e760e01b81526001600160a01b0389811693820193909352929350169063fce3e8e790602401602060405180830381865afa15801561290e573d6000803e3d6000fd5b505050506040513d601f19601f82011682018060405250810190612932919061462f565b6001600160a01b0386166000908152600c602090815260408083203384529091529020541115612b13576004805460405163fce3e8e760e01b81526001600160a01b03888116938201939093526000929091169063fce3e8e790602401602060405180830381865afa1580156129ac573d6000803e3d6000fd5b505050506040513d601f19601f820116820180604052508101906129d0919061462f565b6129da908461465e565b6004805460405163fce3e8e760e01b81526001600160a01b038a811693820193909352929350169063fcbfc2c89033908990849063fce3e8e790602401602060405180830381865afa158015612a34573d6000803e3d6000fd5b505050506040513d601f19601f82011682018060405250810190612a58919061462f565b6040518463ffffffff1660e01b8152600401612a7693929190614712565b600060405180830381600087803b158015612a9057600080fd5b505af1158015612aa4573d6000803e3d6000fd5b50506004805460405163995e995b60e01b81526001600160a01b03909116935063995e995b9250612adb9133918b91879101614712565b600060405180830381600087803b158015612af557600080fd5b505af1158015612b09573d6000803e3d6000fd5b5050505050612bfd565b600480546001600160a01b038781166000908152600c6020908152604080832033808552925291829020549151631f97f85960e31b8152929093169363fcbfc2c893612b659390928b92909101614712565b600060405180830381600087803b158015612b7f57600080fd5b505af1158015612b93573d6000803e3d6000fd5b50506004805460405163995e995b60e01b81526001600160a01b03909116935063995e995b9250612bca9133918a91879101614712565b600060405180830381600087803b158015612be457600080fd5b505af1158015612bf8573d6000803e3d6000fd5b505050505b506001600160a01b0384166000908152600c60209081526040808320338452909152812055612f29565b6001600160a01b0384166000908152600c60209081526040808320338452909152812054612c5690839061406f565b6001600160a01b0386166000908152600c60209081526040808320338452909152812080549293508392909190612c8e90849061465e565b90915550506004805460405163fce3e8e760e01b81526001600160a01b038881169382019390935291169063fce3e8e790602401602060405180830381865afa158015612cdf573d6000803e3d6000fd5b505050506040513d601f19601f82011682018060405250810190612d03919061462f565b811115612ec1576004805460405163fce3e8e760e01b81526001600160a01b03888116938201939093526000929091169063fce3e8e790602401602060405180830381865afa158015612d5a573d6000803e3d6000fd5b505050506040513d601f19601f82011682018060405250810190612d7e919061462f565b612d88908361465e565b6004805460405163fce3e8e760e01b81526001600160a01b038a811693820193909352929350169063fcbfc2c89033908990849063fce3e8e790602401602060405180830381865afa158015612de2573d6000803e3d6000fd5b505050506040513d601f19601f82011682018060405250810190612e06919061462f565b6040518463ffffffff1660e01b8152600401612e2493929190614712565b600060405180830381600087803b158015612e3e57600080fd5b505af1158015612e52573d6000803e3d6000fd5b50506004805460405163995e995b60e01b81526001600160a01b03909116935063995e995b9250612e899133918b91879101614712565b600060405180830381600087803b158015612ea357600080fd5b505af1158015612eb7573d6000803e3d6000fd5b5050505050612f27565b60048054604051631f97f85960e31b81526001600160a01b039091169163fcbfc2c891612ef49133918a91889101614712565b600060405180830381600087803b158015612f0e57600080fd5b505af1158015612f22573d6000803e3d6000fd5b505050505b505b7f9a2c2e027b0e93d2bab8a1db6764850faf19c3f41ec55c77e319131fa38176e6338585604051612f5c93929190614712565b60405180910390a150505050565b6000828152600160205260408120610839908361407b565b6000918252602082815260408084206001600160a01b0393909316845291905290205460ff1690565b600554604051631d512a9160e21b81526001600160a01b0383811660048301526000921690637544aa449060240161072b565b6006546040516370a0823160e01b81526001600160a01b03838116600483015260009216906370a082319060240161072b565b61302960008051602061487c83398151915233612f82565b6130455760405162461bcd60e51b81526004016108f490614697565b600980546001810182556000919091527f6e1540171b6c0c960b71a7020d9f60077f6af931a8bbf590da0223dacf75c7af0180546001600160a01b0319166001600160a01b038381169182179092556004805460405163fac09e8760e01b81529182019290925291169063fac09e8790602401600060405180830381600087803b1580156130d257600080fd5b505af11580156130e6573d6000803e3d6000fd5b505060055460405163fac09e8760e01b81526001600160a01b038581166004830152909116925063fac09e879150602401600060405180830381600087803b15801561313157600080fd5b505af1158015613145573d6000803e3d6000fd5b5050505050565b600554604051632b92a07d60e01b81526001600160a01b03838116600483015284811660248301526000921690632b92a07d90604401602060405180830381865afa15801561319f573d6000803e3d6000fd5b505050506040513d601f19601f82011682018060405250810190610839919061462f565b6004805460405163fce3e8e760e01b81526001600160a01b03848116938201939093526000929091169063fce3e8e79060240161072b565b6001600160a01b038181166000908152600b6020908152604080832093861683529290529081206001810154905461083991906146db565b6001600160a01b0383166000908152600a602052604090205460ff1661326b5760405162461bcd60e51b81526004016108f490614758565b613273613d4f565b61327c336139da565b6005546040516306829f1b60e31b81526001600160a01b03868116600483015290911690633414f8d890602401602060405180830381865afa1580156132c6573d6000803e3d6000fd5b505050506040513d601f19601f820116820180604052508101906132ea919061462f565b6003546040516341976e0960e01b81526001600160a01b038781166004830152869216906341976e0990602401602060405180830381865afa158015613334573d6000803e3d6000fd5b505050506040513d601f19601f82011682018060405250810190613358919061462f565b61336291906146f3565b61336c9190614675565b6005546040516301fcd2d560e01b81523360048201526001600160a01b03909116906301fcd2d590602401602060405180830381865afa1580156133b4573d6000803e3d6000fd5b505050506040513d601f19601f820116820180604052508101906133d8919061462f565b6133e2919061465e565b101561344b5760405162461bcd60e51b815260206004820152603260248201527f43616e6e6f7420776974686472617720636f6c6c61746572616c206265666f7260448201527132903830bcb4b733903130b1b5903637b0b760711b60648201526084016108f4565b600554604051632b92a07d60e01b81526001600160a01b0385811660048301523360248301526000921690632b92a07d90604401602060405180830381865afa15801561349c573d6000803e3d6000fd5b505050506040513d601f19601f820116820180604052508101906134c0919061462f565b9050808311156135235760405162461bcd60e51b815260206004820152602860248201527f52656465656d696e67206d6f726520636f6c6c61746572616c207468616e2064604482015267195c1bdcda5d195960c21b60648201526084016108f4565b600182151514156136eb57600654604051630d4d151360e01b8152336004820152602481018590526001600160a01b0386811660448301526000921690630d4d1513906064016020604051808303816000875af1158015613588573d6000803e3d6000fd5b505050506040513d601f19601f820116820180604052508101906135ac919061462f565b336000908152600860205260408120805492935083929091906135d09084906146db565b90915550506001600160a01b038516600090815260126020908152604080832033845290915290205460ff1661365d576001600160a01b03851660008181526011602090815260408083208054600181810183559185528385200180546001600160a01b0319163390811790915594845260128352818420948452939091529020805460ff191690911790555b6001600160a01b0385166000908152600c60209081526040808320338452909152812080548692906136909084906146db565b9091555050604080513381526001600160a01b0387166020820152908101859052606081018290527fd2d0080ed70ceb7ce39856d34a5727b439ec7c7919425087ed35ed68687915569060800160405180910390a150613727565b7f03ff0c85f880c6a1f943c2c36ebbb2cb1b93959479db451b2acb7b1e06f4e36933858560405161371e93929190614712565b60405180910390a15b600554604051634755ea7f60e11b81523360048201526001600160a01b03868116602483015260448201869052841515606483015290911690638eabd4fe90608401600060405180830381600087803b15801561378357600080fd5b505af1158015613797573d6000803e3d6000fd5b5050505050505050565b600654604080516318160ddd60e01b815290516000926001600160a01b0316916318160ddd9160048083019260209291908290030181865afa158015610895573d6000803e3d6000fd5b61380360008051602061487c83398151915233612f82565b61381f5760405162461bcd60e51b81526004016108f490614697565b600480546007546040516363dc4ef560e01b81526001600160a01b039182169381019390935216906363dc4ef590602401600060405180830381600087803b15801561386a57600080fd5b505af1158015612281573d6000803e3d6000fd5b60008181526001602052604081206106f690614087565b6005546040516301fcd2d560e01b81526001600160a01b03838116600483015260009216906301fcd2d59060240161072b565b6004805460405163f8b2cb4f60e01b81526001600160a01b03848116938201939093526000929091169063f8b2cb4f9060240161072b565b600480546002546040516306448fd360e51b81526000936001600160a01b039093169263c891fa609261072b928792016001600160a01b03929092168252602082015260400190565b6005546040516328d1f89360e21b81526001600160a01b038381166004830152600092169063a347e24c9060240161072b565b6000828152602081905260409020600101546139988133613fc7565b611568838361404d565b6004805460405163de30f97d60e01b81526001600160a01b03848116938201939093526000929091169063de30f97d9060240161072b565b6009546000908190815b818161ffff161015613afe57600060098261ffff1681548110613a0957613a096146c5565b60009182526020822001546003546040516341976e0960e01b81526001600160a01b039283166004820181905294509116906341976e0990602401602060405180830381865afa158015613a61573d6000803e3d6000fd5b505050506040513d601f19601f82011682018060405250810190613a85919061462f565b6001600160a01b038381166000908152600b60209081526040808320938c1683529290522060018101549054919250670de0b6b3a7640000918391613ac9916146db565b613ad391906146f3565b613add9190614675565b613ae790866146db565b945050508080613af690614736565b9150506139e4565b50909392505050565b6004805460405163052045a760e21b81526001600160a01b038481169382019390935260009290911690631481169c90602401602060405180830381865afa158015613b57573d6000803e3d6000fd5b505050506040513d601f19601f82011682018060405250810190613b7b919061462f565b6106f69060646146f3565b613b908282612f82565b6114a8576000828152602081815260408083206001600160a01b03851684529091529020805460ff19166001179055613bc63390565b6001600160a01b0316816001600160a01b0316837f2f8788117e7eff1d82e926ec794901d17c78024a50270940304540a733656f0d60405160405180910390a45050565b6000610839836001600160a01b038416614091565b60006001600160e01b03198216637965db0b60e01b14806106f657506301ffc9a760e01b6001600160e01b03198316146106f6565b600080670de0b6b3a764000085613c6b828761465e565b613c7591906146f3565b613c7f9190614675565b83670de0b6b3a7640000613c9387896146f3565b613c9d9190614675565b613ca7919061465e565b613cb9906716345785d8a000006146f3565b613cc39190614675565b9050613cd781670de0b6b3a764000061465e565b95945050505050565b600080670de0b6b3a764000083613cf7828761465e565b613d0191906146f3565b613d0b9190614675565b83670de0b6b3a7640000613d1f87896146f3565b613d299190614675565b613d33919061465e565b613d45906716345785d8a000006146f3565b613cd79190614675565b60095460005b818161ffff161015613f1157600060098261ffff1681548110613d7a57613d7a6146c5565b6000918252602080832091909101546001600160a01b03908116808452600d9092526040808420546004805460025493516306448fd360e51b81529182018690526024820193909352939550939291169063c891fa6090604401602060405180830381865afa158015613df1573d6000803e3d6000fd5b505050506040513d601f19601f82011682018060405250810190613e15919061462f565b905060005b828161ffff161015613efa576001600160a01b0384166000908152600d60205260408120805461ffff8416908110613e5457613e546146c5565b60009182526020808320909101546001600160a01b038881168452600b8352604080852091909216808552925290912054909150670de0b6b3a764000090613e9c90856146f3565b613ea69190614675565b6001600160a01b038087166000908152600b6020908152604080832093861683529290529081206001018054909190613ee09084906146db565b90915550829150613ef2905081614736565b915050613e1a565b505050508080613f0990614736565b915050613d55565b505042600255565b6001600160a01b03811660009081526011602052604081205481805b828161ffff161015613fbf576001600160a01b0385166000908152600c6020908152604080832060119092528220805491929161ffff8516908110613f7c57613f7c6146c5565b60009182526020808320909101546001600160a01b03168352820192909252604001902054613fab90836146db565b915080613fb781614736565b915050613f35565b509392505050565b613fd18282612f82565b6114a857613fe9816001600160a01b031660146140e0565b613ff48360206140e0565b604051602001614005929190614785565b60408051601f198184030181529082905262461bcd60e51b82526108f4916004016144e9565b6140358282613b86565b60008281526001602052604090206115689082613c0a565b614057828261427c565b600082815260016020526040902061156890826142e1565b600061083983836142f6565b6000610839838361430c565b60006106f6825490565b60008181526001830160205260408120546140d8575081546001818101845560008481526020808220909301849055845484825282860190935260409020919091556106f6565b5060006106f6565b606060006140ef8360026146f3565b6140fa9060026146db565b67ffffffffffffffff811115614112576141126147fa565b6040519080825280601f01601f19166020018201604052801561413c576020820181803683370190505b509050600360fc1b81600081518110614157576141576146c5565b60200101906001600160f81b031916908160001a905350600f60fb1b81600181518110614186576141866146c5565b60200101906001600160f81b031916908160001a90535060006141aa8460026146f3565b6141b59060016146db565b90505b600181111561422d576f181899199a1a9b1b9c1cb0b131b232b360811b85600f16601081106141e9576141e96146c5565b1a60f81b8282815181106141ff576141ff6146c5565b60200101906001600160f81b031916908160001a90535060049490941c9361422681614810565b90506141b8565b5083156108395760405162461bcd60e51b815260206004820181905260248201527f537472696e67733a20686578206c656e67746820696e73756666696369656e7460448201526064016108f4565b6142868282612f82565b156114a8576000828152602081815260408083206001600160a01b0385168085529252808320805460ff1916905551339285917ff6391f5c32d9c69d2a47ea670b442974b53935d1edc7fd64eb21e047a839171b9190a45050565b6000610839836001600160a01b038416614336565b60008183106143055781610839565b5090919050565b6000826000018281548110614323576143236146c5565b9060005260206000200154905092915050565b6000818152600183016020526040812054801561441f57600061435a60018361465e565b855490915060009061436e9060019061465e565b90508181146143d357600086600001828154811061438e5761438e6146c5565b90600052602060002001549050808760000184815481106143b1576143b16146c5565b6000918252602080832090910192909255918252600188019052604090208390555b85548690806143e4576143e4614827565b6001900381819060005260206000200160009055905585600101600086815260200190815260200160002060009055600193505050506106f6565b60009150506106f6565b60006020828403121561443b57600080fd5b81356001600160e01b03198116811461083957600080fd5b80356001600160a01b038116811461446a57600080fd5b919050565b60006020828403121561448157600080fd5b61083982614453565b6000806040838503121561449d57600080fd5b6144a683614453565b91506144b460208401614453565b90509250929050565b60005b838110156144d85781810151838201526020016144c0565b838111156122815750506000910152565b60208152600082518060208401526145088160408501602087016144bd565b601f01601f19169190910160400192915050565b60006020828403121561452e57600080fd5b5035919050565b6000806040838503121561454857600080fd5b823591506144b460208401614453565b6000806000806080858703121561456e57600080fd5b8435935061457e60208601614453565b92506040850135915061459360608601614453565b905092959194509250565b600080604083850312156145b157600080fd5b6145ba83614453565b946020939093013593505050565b600080604083850312156145db57600080fd5b50508035926020909101359150565b6000806000606084860312156145ff57600080fd5b61460884614453565b9250602084013591506040840135801515811461462457600080fd5b809150509250925092565b60006020828403121561464157600080fd5b5051919050565b634e487b7160e01b600052601160045260246000fd5b60008282101561467057614670614648565b500390565b60008261469257634e487b7160e01b600052601260045260246000fd5b500490565b6020808252601490820152736d75737420686176652061646d696e20726f6c6560601b604082015260600190565b634e487b7160e01b600052603260045260246000fd5b600082198211156146ee576146ee614648565b500190565b600081600019048311821515161561470d5761470d614648565b500290565b6001600160a01b039384168152919092166020820152604081019190915260600190565b600061ffff8083168181141561474e5761474e614648565b6001019392505050565b602080825260139082015272185cdcd95d081b9bdd081cdd5c1c1bdc9d1959606a1b604082015260600190565b7f416363657373436f6e74726f6c3a206163636f756e74200000000000000000008152600083516147bd8160178501602088016144bd565b7001034b99036b4b9b9b4b733903937b6329607d1b60179184019182015283516147ee8160288401602088016144bd565b01602801949350505050565b634e487b7160e01b600052604160045260246000fd5b60008161481f5761481f614648565b506000190190565b634e487b7160e01b600052603160045260246000fdfe4c69717569646174696f6e205269736b3a20436f6c6c61746572616c2076616c756520617070726f616368696e67204c545620726571756972656d656e74a49807205ce4d355092ef5a8a18f56e8913cf4a201fbe287825b095693c21775a264697066735822122024536953740104a8491e7c974d67c406100b6aa6142ea9444dc265c033126f3f64736f6c634300080b003360a06040523480156200001157600080fd5b5073e592427a0aece92de3edee1f18e0157c0586156460809081526040805180830182526000808252602080830182815283850183815260608086018581527301be23585060835e02b77ef475b0cc51aa1e0709808752600280875297517fed3674b09469bf4c18c58b5c17b6619c2db43f90b5389a6501b1af546f40b64a5593517fed3674b09469bf4c18c58b5c17b6619c2db43f90b5389a6501b1af546f40b64b5591517fed3674b09469bf4c18c58b5c17b6619c2db43f90b5389a6501b1af546f40b64c5590517fed3674b09469bf4c18c58b5c17b6619c2db43f90b5389a6501b1af546f40b64d5560048054600181810183557f8a35acfbc15ff81a39ae7d344fd709f28e8600b4aa8c65c6b64bfe7fe36bd19b91820180546001600160a01b031990811687179091558951808c018b52888152808801898152818c018a81528288018b8152735592ec0cfb4dbc12d3ab100b257153436a1f0fea808d528d8c5293517f350e7dc47375535dbbaa844f05f768ffe58fc0c7f59c294c184aa966f4bac71a5591517f350e7dc47375535dbbaa844f05f768ffe58fc0c7f59c294c184aa966f4bac71b55517f350e7dc47375535dbbaa844f05f768ffe58fc0c7f59c294c184aa966f4bac71c55517f350e7dc47375535dbbaa844f05f768ffe58fc0c7f59c294c184aa966f4bac71d5584548084018655840180548316821790558a519b8c018b52888c528b88018981528c8c018a8152968d018a815273c778417e063141139fce010982780140aa0cd5ab808c529b9099529b517f1a4e087dbd68c74cb0888bc0d429e64857661530ba71b8a04d03d6e54890a9a7559a517f1a4e087dbd68c74cb0888bc0d429e64857661530ba71b8a04d03d6e54890a9a85593517f1a4e087dbd68c74cb0888bc0d429e64857661530ba71b8a04d03d6e54890a9a95594517f1a4e087dbd68c74cb0888bc0d429e64857661530ba71b8a04d03d6e54890a9aa558154948501825594529190920180549091168317905591519092906200030390620004e5565b604051809103906000f08015801562000320573d6000803e3d6000fd5b50600380546001600160a01b0319166001600160a01b03929092169190911790556200035c600080516020620035d18339815191523362000380565b62000377600080516020620035d18339815191523062000380565b505050620004f3565b6200038c828262000390565b5050565b620003a78282620003d360201b62001f7e1760201c565b6000828152600160209081526040909120620003ce9183906200200262000473821b17901c565b505050565b6000828152602081815260408083206001600160a01b038516845290915290205460ff166200038c576000828152602081815260408083206001600160a01b03851684529091529020805460ff191660011790556200042f3390565b6001600160a01b0316816001600160a01b0316837f2f8788117e7eff1d82e926ec794901d17c78024a50270940304540a733656f0d60405160405180910390a45050565b60006200048a836001600160a01b03841662000493565b90505b92915050565b6000818152600183016020526040812054620004dc575081546001818101845560008481526020808220909301849055845484825282860190935260409020919091556200048d565b5060006200048d565b6103b3806200321e83390190565b608051612d016200051d600039600081816104eb0152818161211c01526121ef0152612d016000f3fe608060405234801561001057600080fd5b50600436106102695760003560e01c8063995e995b11610151578063d01902ba116100c3578063e4ebd60111610087578063e4ebd601146105c7578063f8b2cb4f146105dc578063fac09e87146105ef578063fc4f78b914610602578063fcbfc2c814610615578063fce3e8e71461062857600080fd5b8063d01902ba14610546578063d547741f14610573578063de30f97d14610586578063dea4481914610599578063e0bab4c4146105ac57600080fd5b8063bd4b002e11610115578063bd4b002e146104d3578063c0d7eec1146103b7578063c31c9c07146104e6578063c891fa601461050d578063ca15c87314610520578063cc4251e61461053357600080fd5b8063995e995b14610477578063a150fb5f1461048a578063a217fddf1461049d578063ad5c4648146104a5578063bb7d28d8146104c057600080fd5b80634ee13c8e116101ea57806375f4d677116101ae57806375f4d6771461041b5780637e6e1dd9146104235780639010d07c14610436578063901e0dea1461044957806391cfa1861461045c57806391d148541461046457600080fd5b80634ee13c8e146103a45780635c88f5a5146103b757806363dc4ef5146103e05780637065cb48146103f357806375b238fc1461040657600080fd5b8063248a9ca311610231578063248a9ca31461031c5780632e81d95e1461033f5780632f2ff15d1461035257806330e311a11461036557806336568abe1461039157600080fd5b806301ffc9a71461026e578063089fe6aa146102965780631481169c146102b35780631b6b6d23146102d457806323d0aab114610307575b600080fd5b61028161027c3660046126e9565b610654565b60405190151581526020015b60405180910390f35b61029f610bb881565b60405162ffffff909116815260200161028d565b6102c66102c136600461272a565b61067f565b60405190815260200161028d565b6102ef7301be23585060835e02b77ef475b0cc51aa1e070981565b6040516001600160a01b03909116815260200161028d565b61031a61031536600461272a565b6106fb565b005b6102c661032a366004612745565b60009081526020819052604090206001015490565b61031a61034d36600461275e565b610787565b61031a61036036600461279a565b610911565b6102c661037336600461272a565b6001600160a01b031660009081526002602052604090206003015490565b61031a61039f36600461279a565b61093c565b61031a6103b23660046127c6565b6109ba565b6102c66103c536600461272a565b6001600160a01b031660009081526002602052604090205490565b61031a6103ee36600461272a565b610b40565b61031a61040136600461272a565b610ce8565b6102c6600080516020612cac83398151915281565b6102c6610d37565b61031a61043136600461272a565b610e68565b6102ef610444366004612813565b6110f2565b6102c6610457366004612835565b61110a565b6102c661118a565b61028161047236600461279a565b6112a2565b61031a61048536600461275e565b6112cb565b6102c6610498366004612745565b611441565b6102c6600081565b6102ef73c778417e063141139fce010982780140aa0cd5ab81565b61031a6104ce366004612835565b61144d565b61031a6104e1366004612835565b611498565b6102ef7f000000000000000000000000000000000000000000000000000000000000000081565b6102c661051b366004612835565b6115f6565b6102c661052e366004612745565b61169b565b6102c661054136600461272a565b6116b2565b6102c661055436600461272a565b6001600160a01b03166000908152600260208190526040909120015490565b61031a61058136600461279a565b6116ef565b6102c661059436600461272a565b611715565b6102c66105a7366004612835565b6117d9565b6102ef735592ec0cfb4dbc12d3ab100b257153436a1f0fea81565b6105cf611bb6565b60405161028d919061285f565b6102c66105ea36600461272a565b611c18565b61031a6105fd36600461272a565b611c83565b61031a61061036600461275e565b611d57565b61031a61062336600461275e565b611e83565b6102c661063636600461272a565b6001600160a01b031660009081526002602052604090206001015490565b60006001600160e01b03198216635a05180f60e01b1480610679575061067982612017565b92915050565b60008061068b83611715565b61069d90670de0b6b3a76400006128c2565b905068056bc75e2d631000006ec097ce7bc90715b34b9f10000000006106c46004846129bd565b6106ce91906129cc565b6106d99060086129ee565b6106e391906129cc565b6106f49066354a6ba7a18000612a0d565b9392505050565b610713600080516020612cac833981519152336112a2565b6107385760405162461bcd60e51b815260040161072f90612a25565b60405180910390fd5b6001600160a01b038116600090815260026020526040812080546001909101805491929091610768908490612a0d565b90915550506001600160a01b0316600090815260026020526040812055565b61079f600080516020612cac833981519152336112a2565b6107bb5760405162461bcd60e51b815260040161072f90612a25565b6040516323b872dd60e01b81526001600160a01b038481166004830152306024830152604482018390528316906323b872dd906064016020604051808303816000875af1158015610810573d6000803e3d6000fd5b505050506040513d601f19601f820116820180604052508101906108349190612a53565b50670de0b6b3a764000061085082670b1a2bc2ec5000006129ee565b61085a91906129cc565b6001600160a01b03831660009081526002602052604081206001018054909190610885908490612a0d565b90915550670de0b6b3a764000090506108a6826702c68af0bb1400006129ee565b6108b091906129cc565b6001600160a01b038316600090815260026020526040812060030180549091906108db908490612a0d565b9091555050604051600080516020612c8c83398151915290610904908590309086908690612a75565b60405180910390a1505050565b60008281526020819052604090206001015461092d813361204c565b61093783836120b0565b505050565b6001600160a01b03811633146109ac5760405162461bcd60e51b815260206004820152602f60248201527f416363657373436f6e74726f6c3a2063616e206f6e6c792072656e6f756e636560448201526e103937b632b9903337b91039b2b63360891b606482015260840161072f565b6109b682826120d2565b5050565b6109d2600080516020612cac833981519152336112a2565b6109ee5760405162461bcd60e51b815260040161072f90612a25565b6040516323b872dd60e01b81526001600160a01b038681166004830152306024830152604482018590528516906323b872dd906064016020604051808303816000875af1158015610a43573d6000803e3d6000fd5b505050506040513d601f19601f82011682018060405250810190610a679190612a53565b506001600160a01b03841660009081526002602052604081206001018054849290610a93908490612a0d565b90915550506001600160a01b03841660009081526002602081905260408220018054849290610ac39084906128c2565b90915550600a9050610ad68260096129ee565b610ae091906129cc565b6001600160a01b03851660009081526002602052604081208054909190610b08908490612a0d565b9091555050604051600080516020612c8c83398151915290610b31908790309088908890612a75565b60405180910390a15050505050565b610b58600080516020612cac833981519152336112a2565b610b745760405162461bcd60e51b815260040161072f90612a25565b60045460005b818161ffff16101561093757600060048261ffff1681548110610b9f57610b9f612a9f565b60009182526020808320909101546001600160a01b03168083526002918290526040832060038101549281015460019190910154919450610bdf91612a0d565b610be99190612a0d565b6040516370a0823160e01b81523060048201526001600160a01b038416906370a0823190602401602060405180830381865afa158015610c2d573d6000803e3d6000fd5b505050506040513d601f19601f82011682018060405250810190610c519190612ab5565b610c5b91906128c2565b60405163a9059cbb60e01b81526001600160a01b038781166004830152602482018390529192509083169063a9059cbb906044016020604051808303816000875af1158015610cae573d6000803e3d6000fd5b505050506040513d601f19601f82011682018060405250810190610cd29190612a53565b5050508080610ce090612ace565b915050610b7a565b610d00600080516020612cac833981519152336112a2565b610d1c5760405162461bcd60e51b815260040161072f90612a25565b610d34600080516020612cac833981519152826120f4565b50565b6004546000908190815b818161ffff161015610e6057600060048261ffff1681548110610d6657610d66612a9f565b6000918252602090912001546003546040516341976e0960e01b81526001600160a01b03928316600482018190529350670de0b6b3a764000092909116906341976e0990602401602060405180830381865afa158015610dca573d6000803e3d6000fd5b505050506040513d601f19601f82011682018060405250810190610dee9190612ab5565b6001600160a01b0383166000908152600260208190526040909120600381015491810154600190910154610e229190612a0d565b610e2c9190612a0d565b610e3691906129ee565b610e4091906129cc565b610e4a9085612a0d565b9350508080610e5890612ace565b915050610d41565b509092915050565b610e80600080516020612cac833981519152336112a2565b610e9c5760405162461bcd60e51b815260040161072f90612a25565b6001600160a01b03811660009081526002602081905260408220908101546003820154600190920154670de0b6b3a764000092610ed891612a0d565b610ee29190612a0d565b610ef4906702c68af0bb1400006129ee565b610efe91906129cc565b6001600160a01b038316600090815260026020526040902060030154909150811015610fd8576001600160a01b038216600090815260026020526040902060030154610f4b9082906128c2565b6001600160a01b03831660009081526002602052604081206001018054909190610f76908490612a0d565b90915550506001600160a01b038216600090815260026020526040902060030154610fa29082906128c2565b6001600160a01b03831660009081526002602052604081206003018054909190610fcd9084906128c2565b909155506109b69050565b6001600160a01b0382166000908152600260205260409020600301548111156109b6576001600160a01b03821660009081526002602052604090206003015461102190826128c2565b6001600160a01b038316600090815260026020526040902060010154106109b6576001600160a01b03821660009081526002602052604090206003015461106890826128c2565b6001600160a01b038316600090815260026020526040812060010180549091906110939084906128c2565b90915550506001600160a01b0382166000908152600260205260409020600301546110be90826128c2565b6001600160a01b038316600090815260026020526040812060030180549091906110e9908490612a0d565b90915550505050565b60008281526001602052604081206106f490836120fe565b6001600160a01b03821660009081526002602081905260408220908101546003820154600190920154839261113e91612a0d565b6111489190612a0d565b6111518561067f565b6001600160a01b0386166000908152600260208190526040909120015461117891906129ee565b61118291906129cc565b949350505050565b6004546000908190815b818161ffff161015610e6057600060048261ffff16815481106111b9576111b9612a9f565b6000918252602090912001546003546040516341976e0960e01b81526001600160a01b03928316600482018190529350670de0b6b3a764000092909116906341976e0990602401602060405180830381865afa15801561121d573d6000803e3d6000fd5b505050506040513d601f19601f820116820180604052508101906112419190612ab5565b6001600160a01b0383166000908152600260205260409020600381015460019091015461126e9190612a0d565b61127891906129ee565b61128291906129cc565b61128c9085612a0d565b935050808061129a90612ace565b915050611194565b6000918252602082815260408084206001600160a01b0393909316845291905290205460ff1690565b6112e3600080516020612cac833981519152336112a2565b6112ff5760405162461bcd60e51b815260040161072f90612a25565b6001600160a01b038216600090815260026020526040902060030154811115611371576001600160a01b03821660009081526002602052604081206003015461134e9084906105a790856128c2565b9050670de0b6b3a764000061136382846129ee565b61136d91906129cc565b9150505b6001600160a01b0382166000908152600260205260408120600301805483929061139c9084906128c2565b909155505060405163a9059cbb60e01b81526001600160a01b0384811660048301526024820183905283169063a9059cbb906044016020604051808303816000875af11580156113f0573d6000803e3d6000fd5b505050506040513d601f19601f820116820180604052508101906114149190612a53565b5061141e82610e68565b600080516020612c8c833981519152308484846040516109049493929190612a75565b600061067982426128c2565b611465600080516020612cac833981519152336112a2565b6114815760405162461bcd60e51b815260040161072f90612a25565b606461148e8260626129ee565b6110be91906129cc565b6114b0600080516020612cac833981519152336112a2565b6114cc5760405162461bcd60e51b815260040161072f90612a25565b6001600160a01b03821660009081526002602052604090206003015481111561153e576001600160a01b03821660009081526002602052604081206003015461151b9084906105a790856128c2565b9050670de0b6b3a764000061153082846129ee565b61153a91906129cc565b9150505b6001600160a01b038216600090815260026020526040812060030180548392906115699084906128c2565b909155506064905061157c82605f6129ee565b61158691906129cc565b6001600160a01b038316600090815260026020526040812060010180549091906115b1908490612a0d565b90915550606490506115c48260056129ee565b6115ce91906129cc565b6001600160a01b038316600090815260026020526040812080549091906110e9908490612a0d565b60008061160284611715565b61161490670de0b6b3a76400006128c2565b9050600061162284426128c2565b90506301e1855868056bc75e2d631000006ec097ce7bc90715b34b9f100000000061164e6004866129bd565b61165891906129cc565b6116639060086129ee565b61166d91906129cc565b61167e9066354a6ba7a18000612a0d565b61168890836129ee565b61169291906129cc565b95945050505050565b60008181526001602052604081206106799061210a565b6001600160a01b038116600090815260026020819052604082206003810154918101546001909101546116e59190612a0d565b6106799190612a0d565b60008281526020819052604090206001015461170b813361204c565b61093783836120d2565b6001600160a01b03811660009081526002602052604081206001015415158061175957506001600160a01b0382166000908152600260208190526040909120015415155b156117c5576001600160a01b03821660009081526002602081905260409091209081015460019091015461178d9190612a0d565b6001600160a01b0383166000908152600260205260409020600101546117bb90670de0b6b3a76400006129ee565b61067991906129cc565b50670de0b6b3a7640000919050565b919050565b60006117f3600080516020612cac833981519152336112a2565b61180f5760405162461bcd60e51b815260040161072f90612a25565b6003546040516341976e0960e01b81526001600160a01b03858116600483015260009216906341976e0990602401602060405180830381865afa15801561185a573d6000803e3d6000fd5b505050506040513d601f19601f8201168201806040525081019061187e9190612ab5565b9050600061188c84836129ee565b9050600061189861118a565b90506000816118af84670de0b6b3a76400006129ee565b6118b991906129cc565b6004549091506000808215611ba957600060048261ffff16815481106118e1576118e1612a9f565b6000918252602090912001546001600160a01b0390811691508b16811480159061193a57506001600160a01b03811660009081526002602052604090206003810154600190910154633b9aca009161193891612a0d565b115b15611a9f576001600160a01b03811660009081526002602052604081206003810154600190910154670de0b6b3a76400009161197591612a0d565b61197f90886129ee565b61198991906129cc565b9050600061199883838f612114565b9050670de0b6b3a76400006119ad88826128c2565b6001600160a01b0385166000908152600260205260409020600101546119d391906129ee565b6119dd91906129cc565b6001600160a01b038416600090815260026020526040902060010155670de0b6b3a7640000611a0c88826128c2565b6001600160a01b038516600090815260026020526040902060030154611a3291906129ee565b611a3c91906129cc565b6001600160a01b038416600090815260026020526040902060030155611a628186612a0d565b6001600160a01b038e16600090815260026020526040812060030180549297508392909190611a92908490612a0d565b90915550611b8592505050565b8a6001600160a01b0316816001600160a01b03161415611b85576001600160a01b038b16600090815260026020526040902060010154670de0b6b3a764000090611aea9087906129ee565b611af491906129cc565b6001600160a01b038c1660009081526002602052604081206003018054909190611b1f908490612a0d565b90915550670de0b6b3a76400009050611b3886826128c2565b6001600160a01b038d16600090815260026020526040902060010154611b5e91906129ee565b611b6891906129cc565b6001600160a01b038c166000908152600260205260409020600101555b86611b9089856129ee565b611b9a91906129cc565b98505050505050505050610679565b5050505050505092915050565b60606004805480602002602001604051908101604052809291908181526020018280548015611c0e57602002820191906000526020600020905b81546001600160a01b03168152600190910190602001808311611bf0575b5050505050905090565b6040516370a0823160e01b81523060048201526000906001600160a01b038316906370a0823190602401602060405180830381865afa158015611c5f573d6000803e3d6000fd5b505050506040513d601f19601f820116820180604052508101906106799190612ab5565b611c9b600080516020612cac833981519152336112a2565b611cb75760405162461bcd60e51b815260040161072f90612a25565b6040805160808101825260008082526020808301828152838501838152606085018481526001600160a01b03909716808552600293849052958420945185559051600180860191909155905191840191909155935160039092019190915560048054938401815590527f8a35acfbc15ff81a39ae7d344fd709f28e8600b4aa8c65c6b64bfe7fe36bd19b90910180546001600160a01b0319169091179055565b611d6f600080516020612cac833981519152336112a2565b611d8b5760405162461bcd60e51b815260040161072f90612a25565b60405163a9059cbb60e01b81526001600160a01b0384811660048301526024820183905283169063a9059cbb906044016020604051808303816000875af1158015611dda573d6000803e3d6000fd5b505050506040513d601f19601f82011682018060405250810190611dfe9190612a53565b506001600160a01b03821660009081526002602052604081206001018054839290611e2a9084906128c2565b90915550506001600160a01b03821660009081526002602081905260408220018054839290611e5a908490612a0d565b9091555050604051600080516020612c8c83398151915290610904903090869086908690612a75565b611e9b600080516020612cac833981519152336112a2565b611eb75760405162461bcd60e51b815260040161072f90612a25565b6001600160a01b03821660009081526002602052604081206001018054839290611ee29084906128c2565b909155505060405163a9059cbb60e01b81526001600160a01b0384811660048301526024820183905283169063a9059cbb906044016020604051808303816000875af1158015611f36573d6000803e3d6000fd5b505050506040513d601f19601f82011682018060405250810190611f5a9190612a53565b50600080516020612c8c833981519152308484846040516109049493929190612a75565b611f8882826112a2565b6109b6576000828152602081815260408083206001600160a01b03851684529091529020805460ff19166001179055611fbe3390565b6001600160a01b0316816001600160a01b0316837f2f8788117e7eff1d82e926ec794901d17c78024a50270940304540a733656f0d60405160405180910390a45050565b60006106f4836001600160a01b038416612267565b60006001600160e01b03198216637965db0b60e01b148061067957506301ffc9a760e01b6001600160e01b0319831614610679565b61205682826112a2565b6109b65761206e816001600160a01b031660146122b6565b6120798360206122b6565b60405160200161208a929190612b20565b60408051601f198184030181529082905262461bcd60e51b825261072f91600401612bc1565b6120ba8282611f7e565b60008281526001602052604090206109379082612002565b6120dc8282612452565b600082815260016020526040902061093790826124b7565b6109b682826120b0565b60006106f483836124cc565b6000610679825490565b6000612141847f0000000000000000000000000000000000000000000000000000000000000000856124f6565b6040805160a0810182526bffffffffffffffffffffffff19606087811b821660c084015261017760eb1b60d4840181905273c778417e063141139fce010982780140aa0cd5ab60601b60d785015260eb84015285901b1660ee820152815180820360e201815261010282018352815230602082015260009181016121c642601e612a0d565b81526020810186905260006040918201525163c04b8d5960e01b81529091506001600160a01b037f0000000000000000000000000000000000000000000000000000000000000000169063c04b8d5990612224908490600401612bd4565b6020604051808303816000875af1158015612243573d6000803e3d6000fd5b505050506040513d601f19601f820116820180604052508101906116929190612ab5565b60008181526001830160205260408120546122ae57508154600181810184556000848152602080822090930184905584548482528286019093526040902091909155610679565b506000610679565b606060006122c58360026129ee565b6122d0906002612a0d565b67ffffffffffffffff8111156122e8576122e8612c2c565b6040519080825280601f01601f191660200182016040528015612312576020820181803683370190505b509050600360fc1b8160008151811061232d5761232d612a9f565b60200101906001600160f81b031916908160001a905350600f60fb1b8160018151811061235c5761235c612a9f565b60200101906001600160f81b031916908160001a90535060006123808460026129ee565b61238b906001612a0d565b90505b6001811115612403576f181899199a1a9b1b9c1cb0b131b232b360811b85600f16601081106123bf576123bf612a9f565b1a60f81b8282815181106123d5576123d5612a9f565b60200101906001600160f81b031916908160001a90535060049490941c936123fc81612c42565b905061238e565b5083156106f45760405162461bcd60e51b815260206004820181905260248201527f537472696e67733a20686578206c656e67746820696e73756666696369656e74604482015260640161072f565b61245c82826112a2565b156109b6576000828152602081815260408083206001600160a01b0385168085529252808320805460ff1916905551339285917ff6391f5c32d9c69d2a47ea670b442974b53935d1edc7fd64eb21e047a839171b9190a45050565b60006106f4836001600160a01b0384166125f6565b60008260000182815481106124e3576124e3612a9f565b9060005260206000200154905092915050565b604080516001600160a01b038481166024830152604480830185905283518084039091018152606490920183526020820180516001600160e01b031663095ea7b360e01b17905291516000928392908716916125529190612c59565b6000604051808303816000865af19150503d806000811461258f576040519150601f19603f3d011682016040523d82523d6000602084013e612594565b606091505b50915091508180156125be5750805115806125be5750808060200190518101906125be9190612a53565b6125ef5760405162461bcd60e51b8152602060048201526002602482015261534160f01b604482015260640161072f565b5050505050565b600081815260018301602052604081205480156126df57600061261a6001836128c2565b855490915060009061262e906001906128c2565b905081811461269357600086600001828154811061264e5761264e612a9f565b906000526020600020015490508087600001848154811061267157612671612a9f565b6000918252602080832090910192909255918252600188019052604090208390555b85548690806126a4576126a4612c75565b600190038181906000526020600020016000905590558560010160008681526020019081526020016000206000905560019350505050610679565b6000915050610679565b6000602082840312156126fb57600080fd5b81356001600160e01b0319811681146106f457600080fd5b80356001600160a01b03811681146117d457600080fd5b60006020828403121561273c57600080fd5b6106f482612713565b60006020828403121561275757600080fd5b5035919050565b60008060006060848603121561277357600080fd5b61277c84612713565b925061278a60208501612713565b9150604084013590509250925092565b600080604083850312156127ad57600080fd5b823591506127bd60208401612713565b90509250929050565b600080600080600060a086880312156127de57600080fd5b6127e786612713565b94506127f560208701612713565b94979496505050506040830135926060810135926080909101359150565b6000806040838503121561282657600080fd5b50508035926020909101359150565b6000806040838503121561284857600080fd5b61285183612713565b946020939093013593505050565b6020808252825182820181905260009190848201906040850190845b818110156128a05783516001600160a01b03168352928401929184019160010161287b565b50909695505050505050565b634e487b7160e01b600052601160045260246000fd5b6000828210156128d4576128d46128ac565b500390565b600181815b808511156129145781600019048211156128fa576128fa6128ac565b8085161561290757918102915b93841c93908002906128de565b509250929050565b60008261292b57506001610679565b8161293857506000610679565b816001811461294e576002811461295857612974565b6001915050610679565b60ff841115612969576129696128ac565b50506001821b610679565b5060208310610133831016604e8410600b8410161715612997575081810a610679565b6129a183836128d9565b80600019048211156129b5576129b56128ac565b029392505050565b60006106f460ff84168361291c565b6000826129e957634e487b7160e01b600052601260045260246000fd5b500490565b6000816000190483118215151615612a0857612a086128ac565b500290565b60008219821115612a2057612a206128ac565b500190565b6020808252601490820152736d75737420686176652061646d696e20726f6c6560601b604082015260600190565b600060208284031215612a6557600080fd5b815180151581146106f457600080fd5b6001600160a01b039485168152928416602084015292166040820152606081019190915260800190565b634e487b7160e01b600052603260045260246000fd5b600060208284031215612ac757600080fd5b5051919050565b600061ffff80831681811415612ae657612ae66128ac565b6001019392505050565b60005b83811015612b0b578181015183820152602001612af3565b83811115612b1a576000848401525b50505050565b7f416363657373436f6e74726f6c3a206163636f756e7420000000000000000000815260008351612b58816017850160208801612af0565b7001034b99036b4b9b9b4b733903937b6329607d1b6017918401918201528351612b89816028840160208801612af0565b01602801949350505050565b60008151808452612bad816020860160208601612af0565b601f01601f19169290920160200192915050565b6020815260006106f46020830184612b95565b602081526000825160a06020840152612bf060c0840182612b95565b905060018060a01b0360208501511660408401526040840151606084015260608401516080840152608084015160a08401528091505092915050565b634e487b7160e01b600052604160045260246000fd5b600081612c5157612c516128ac565b506000190190565b60008251612c6b818460208701612af0565b9190910192915050565b634e487b7160e01b600052603160045260246000fdfe724dd111d8b4c66b0043d7e6eb223c3a7567ec1641110e6d5a71cb0dc7ffaf70a49807205ce4d355092ef5a8a18f56e8913cf4a201fbe287825b095693c21775a26469706673582212205153d308e371e736d36118d254182ceb1b4be1e34feba3695ae70949a4fece5764736f6c634300080b0033608060405234801561001057600080fd5b50600060208190527f4e2753d238f0f4cb8962490717ab551b4c023808c7bc37aed6e8760bfc3a92d580546001600160a01b031990811673d8bd0a1cb028a31aa859a21a3758685a95de4623179091557ff4e9730789baae4355b7b087afa1a57a24c222e690ce50ce909b525e8495925b80548216732ba49aaa16e6afd2a993473cfb70fa8559b523cf17905573c778417e063141139fce010982780140aa0cd5ab9091527f02e9d230142cd2a2518ca1eebf58e2b95f971add66b06973a2b3e55bb9e440f98054909116738a753747a1fa494ec906ce90e9f37563a8af630e1790556102b1806101026000396000f3fe608060405234801561001057600080fd5b50600436106100365760003560e01c806341976e091461003b5780634238dc4714610061575b600080fd5b61004e610049366004610141565b6100a2565b6040519081526020015b60405180910390f35b61008a61006f366004610141565b6000602081905290815260409020546001600160a01b031681565b6040516001600160a01b039091168152602001610058565b6001600160a01b03808216600090815260208190526040808220548151633fabe5a360e21b81529151929316918391839163feaf968c9160048082019260a0929091908290030181865afa1580156100fe573d6000803e3d6000fd5b505050506040513d601f19601f820116820180604052508101906101229190610190565b505050915050806402540be40061013991906101f6565b949350505050565b60006020828403121561015357600080fd5b81356001600160a01b038116811461016a57600080fd5b9392505050565b805169ffffffffffffffffffff8116811461018b57600080fd5b919050565b600080600080600060a086880312156101a857600080fd5b6101b186610171565b94506020860151935060408601519250606086015191506101d460808701610171565b90509295509295909350565b634e487b7160e01b600052601160045260246000fd5b60006001600160ff1b038184138284138082168684048611161561021c5761021c6101e0565b600160ff1b600087128281168783058912161561023b5761023b6101e0565b60008712925087820587128484161615610257576102576101e0565b8785058712818416161561026d5761026d6101e0565b50505092909302939250505056fea26469706673582212205f6d3bdb9d109402b7a686335c5e98ed220ef4da2a0a772708df46f8f0649c3964736f6c634300080b0033a49807205ce4d355092ef5a8a18f56e8913cf4a201fbe287825b095693c2177560806040523480156200001157600080fd5b506040516200210e3803806200210e8339810160408190526200003491620003e2565b8251839083906200004d90600590602085019062000261565b5080516200006390600690602084019062000261565b505050620000987f9f2df0fed2c77648de5860a4cc508cd0818c85b8b8a1ab4ceeef8d981c8956a633620000fc60201b60201c565b604051620000a690620002f0565b604051809103906000f080158015620000c3573d6000803e3d6000fd5b50600780546001600160a01b039283166001600160a01b0319918216179091556008805493909216921691909117905550620004ac9050565b6200010882826200010c565b5050565b6200012382826200014f60201b62000a5f1760201c565b60008281526001602090815260409091206200014a91839062000ae3620001ef821b17901c565b505050565b6000828152602081815260408083206001600160a01b038516845290915290205460ff1662000108576000828152602081815260408083206001600160a01b03851684529091529020805460ff19166001179055620001ab3390565b6001600160a01b0316816001600160a01b0316837f2f8788117e7eff1d82e926ec794901d17c78024a50270940304540a733656f0d60405160405180910390a45050565b600062000206836001600160a01b0384166200020f565b90505b92915050565b6000818152600183016020526040812054620002585750815460018181018455600084815260208082209093018490558454848252828601909352604090209190915562000209565b50600062000209565b8280546200026f906200046f565b90600052602060002090601f016020900481019282620002935760008555620002de565b82601f10620002ae57805160ff1916838001178555620002de565b82800160010185558215620002de579182015b82811115620002de578251825591602001919060010190620002c1565b50620002ec929150620002fe565b5090565b6103b38062001d5b83390190565b5b80821115620002ec5760008155600101620002ff565b634e487b7160e01b600052604160045260246000fd5b600082601f8301126200033d57600080fd5b81516001600160401b03808211156200035a576200035a62000315565b604051601f8301601f19908116603f0116810190828211818310171562000385576200038562000315565b81604052838152602092508683858801011115620003a257600080fd5b600091505b83821015620003c65785820183015181830184015290820190620003a7565b83821115620003d85760008385830101525b9695505050505050565b600080600060608486031215620003f857600080fd5b83516001600160401b03808211156200041057600080fd5b6200041e878388016200032b565b945060208601519150808211156200043557600080fd5b5062000444868287016200032b565b604086015190935090506001600160a01b03811681146200046457600080fd5b809150509250925092565b600181811c908216806200048457607f821691505b60208210811415620004a657634e487b7160e01b600052602260045260246000fd5b50919050565b61189f80620004bc6000396000f3fe608060405234801561001057600080fd5b50600436106101c45760003560e01c806370a08231116100f9578063a217fddf11610097578063ca15c87311610071578063ca15c873146103bb578063d5391393146103ce578063d547741f146103f5578063dd62ed3e1461040857600080fd5b8063a217fddf1461038d578063a457c2d714610395578063a9059cbb146103a857600080fd5b806391d14854116100d357806391d148541461034c5780639311ca691461035f57806395d89b41146103725780639dc29fac1461037a57600080fd5b806370a08231146103085780638a02775b146103315780639010d07c1461033957600080fd5b8063248a9ca31161016657806333d57cdc1161014057806333d57cdc146102c757806336568abe146102cf57806339509351146102e25780636b3e22fc146102f557600080fd5b8063248a9ca3146102805780632f2ff15d146102a3578063313ce567146102b857600080fd5b80630d4d1513116101a25780630d4d15131461021957806316f0115b1461023a57806318160ddd1461026557806323b872dd1461026d57600080fd5b806301ffc9a7146101c957806306fdde03146101f1578063095ea7b314610206575b600080fd5b6101dc6101d73660046114d4565b610441565b60405190151581526020015b60405180910390f35b6101f961046c565b6040516101e8919061152a565b6101dc610214366004611579565b6104fe565b61022c6102273660046115a3565b610514565b6040519081526020016101e8565b60085461024d906001600160a01b031681565b6040516001600160a01b0390911681526020016101e8565b60045461022c565b6101dc61027b3660046115df565b6105bf565b61022c61028e36600461161b565b60009081526020819052604090206001015490565b6102b66102b1366004611634565b610669565b005b604051601281526020016101e8565b61022c610694565b6102b66102dd366004611634565b61070a565b6101dc6102f0366004611579565b610788565b61022c610303366004611579565b6107c4565b61022c610316366004611660565b6001600160a01b031660009081526002602052604090205490565b61022c61085d565b61024d61034736600461167b565b6108cb565b6101dc61035a366004611634565b6108ea565b60075461024d906001600160a01b031681565b6101f9610913565b6102b6610388366004611579565b610922565b61022c600081565b6101dc6103a3366004611579565b61097c565b6101dc6103b6366004611579565b610a15565b61022c6103c936600461161b565b610a22565b61022c7f9f2df0fed2c77648de5860a4cc508cd0818c85b8b8a1ab4ceeef8d981c8956a681565b6102b6610403366004611634565b610a39565b61022c61041636600461169d565b6001600160a01b03918216600090815260036020908152604080832093909416825291909152205490565b60006001600160e01b03198216635a05180f60e01b1480610466575061046682610af8565b92915050565b60606005805461047b906116c7565b80601f01602080910402602001604051908101604052809291908181526020018280546104a7906116c7565b80156104f45780601f106104c9576101008083540402835291602001916104f4565b820191906000526020600020905b8154815290600101906020018083116104d757829003601f168201915b5050505050905090565b600061050b338484610b2d565b50600192915050565b60006105407f9f2df0fed2c77648de5860a4cc508cd0818c85b8b8a1ab4ceeef8d981c8956a6336108ea565b6105915760405162461bcd60e51b815260206004820152601d60248201527f6d7573742068617665206d696e74657220726f6c6520746f206d696e7400000060448201526064015b60405180910390fd5b600061059d83856107c4565b905060006105aa82610c51565b90506105b68682610c97565b95945050505050565b60006105cc848484610d76565b6001600160a01b0384166000908152600360209081526040808320338452909152902054828110156106515760405162461bcd60e51b815260206004820152602860248201527f45524332303a207472616e7366657220616d6f756e74206578636565647320616044820152676c6c6f77616e636560c01b6064820152608401610588565b61065e8533858403610b2d565b506001949350505050565b6000828152602081905260409020600101546106858133610f46565b61068f8383610faa565b505050565b6000806106a060045490565b116106de5760405162461bcd60e51b815260206004820152600e60248201526d737570706c79206973207a65726f60901b6044820152606401610588565b6004546106e961085d565b6106fb90670de0b6b3a7640000611712565b6107059190611731565b905090565b6001600160a01b038116331461077a5760405162461bcd60e51b815260206004820152602f60248201527f416363657373436f6e74726f6c3a2063616e206f6e6c792072656e6f756e636560448201526e103937b632b9903337b91039b2b63360891b6064820152608401610588565b6107848282610fcc565b5050565b3360008181526003602090815260408083206001600160a01b0387168452909152812054909161050b9185906107bf908690611753565b610b2d565b6007546040516341976e0960e01b81526001600160a01b03848116600483015260009283929116906341976e0990602401602060405180830381865afa158015610812573d6000803e3d6000fd5b505050506040513d601f19601f82011682018060405250810190610836919061176b565b9050670de0b6b3a764000061084b8483611712565b6108559190611731565b949350505050565b600854604080516375f4d67760e01b815290516000926001600160a01b0316916375f4d6779160048083019260209291908290030181865afa1580156108a7573d6000803e3d6000fd5b505050506040513d601f19601f82011682018060405250810190610705919061176b565b60008281526001602052604081206108e39083610fee565b9392505050565b6000918252602082815260408084206001600160a01b0393909316845291905290205460ff1690565b60606006805461047b906116c7565b600081116109725760405162461bcd60e51b815260206004820181905260248201527f416d6f756e7420746f2072656465656d206e6565647320746f206265203e20306044820152606401610588565b6107848282610ffa565b3360009081526003602090815260408083206001600160a01b0386168452909152812054828110156109fe5760405162461bcd60e51b815260206004820152602560248201527f45524332303a2064656372656173656420616c6c6f77616e63652062656c6f77604482015264207a65726f60d81b6064820152608401610588565b610a0b3385858403610b2d565b5060019392505050565b600061050b338484610d76565b600081815260016020526040812061046690611148565b600082815260208190526040902060010154610a558133610f46565b61068f8383610fcc565b610a6982826108ea565b610784576000828152602081815260408083206001600160a01b03851684529091529020805460ff19166001179055610a9f3390565b6001600160a01b0316816001600160a01b0316837f2f8788117e7eff1d82e926ec794901d17c78024a50270940304540a733656f0d60405160405180910390a45050565b60006108e3836001600160a01b038416611152565b60006001600160e01b03198216637965db0b60e01b148061046657506301ffc9a760e01b6001600160e01b0319831614610466565b6001600160a01b038316610b8f5760405162461bcd60e51b8152602060048201526024808201527f45524332303a20617070726f76652066726f6d20746865207a65726f206164646044820152637265737360e01b6064820152608401610588565b6001600160a01b038216610bf05760405162461bcd60e51b815260206004820152602260248201527f45524332303a20617070726f766520746f20746865207a65726f206164647265604482015261737360f01b6064820152608401610588565b6001600160a01b0383811660008181526003602090815260408083209487168084529482529182902085905590518481527f8c5be1e5ebec7d5bd14f71427d1e84f3dd0314c0f7b2291e5b200ac8c7c3b925910160405180910390a3505050565b600080610c5c61085d565b9050610c6760045490565b610c72575090919050565b8083610c7d60045490565b610c879190611712565b6108e39190611731565b50919050565b6001600160a01b038216610ced5760405162461bcd60e51b815260206004820152601f60248201527f45524332303a206d696e7420746f20746865207a65726f2061646472657373006044820152606401610588565b8060046000828254610cff9190611753565b90915550506001600160a01b03821660009081526002602052604081208054839290610d2c908490611753565b90915550506040518181526001600160a01b038316906000907fddf252ad1be2c89b69c2b068fc378daa952ba7f163c4a11628f55a4df523b3ef9060200160405180910390a35050565b6001600160a01b038316610dda5760405162461bcd60e51b815260206004820152602560248201527f45524332303a207472616e736665722066726f6d20746865207a65726f206164604482015264647265737360d81b6064820152608401610588565b6001600160a01b038216610e3c5760405162461bcd60e51b815260206004820152602360248201527f45524332303a207472616e7366657220746f20746865207a65726f206164647260448201526265737360e81b6064820152608401610588565b6001600160a01b03831660009081526002602052604090205481811015610eb45760405162461bcd60e51b815260206004820152602660248201527f45524332303a207472616e7366657220616d6f756e7420657863656564732062604482015265616c616e636560d01b6064820152608401610588565b6001600160a01b03808516600090815260026020526040808220858503905591851681529081208054849290610eeb908490611753565b92505081905550826001600160a01b0316846001600160a01b03167fddf252ad1be2c89b69c2b068fc378daa952ba7f163c4a11628f55a4df523b3ef84604051610f3791815260200190565b60405180910390a35b50505050565b610f5082826108ea565b61078457610f68816001600160a01b031660146111a1565b610f738360206111a1565b604051602001610f84929190611784565b60408051601f198184030181529082905262461bcd60e51b82526105889160040161152a565b610fb48282610a5f565b600082815260016020526040902061068f9082610ae3565b610fd6828261133d565b600082815260016020526040902061068f90826113a2565b60006108e383836113b7565b6001600160a01b03821661105a5760405162461bcd60e51b815260206004820152602160248201527f45524332303a206275726e2066726f6d20746865207a65726f206164647265736044820152607360f81b6064820152608401610588565b6001600160a01b038216600090815260026020526040902054818110156110ce5760405162461bcd60e51b815260206004820152602260248201527f45524332303a206275726e20616d6f756e7420657863656564732062616c616e604482015261636560f01b6064820152608401610588565b6001600160a01b03831660009081526002602052604081208383039055600480548492906110fd9084906117f9565b90915550506040518281526000906001600160a01b038516907fddf252ad1be2c89b69c2b068fc378daa952ba7f163c4a11628f55a4df523b3ef9060200160405180910390a3505050565b6000610466825490565b600081815260018301602052604081205461119957508154600181810184556000848152602080822090930184905584548482528286019093526040902091909155610466565b506000610466565b606060006111b0836002611712565b6111bb906002611753565b67ffffffffffffffff8111156111d3576111d3611810565b6040519080825280601f01601f1916602001820160405280156111fd576020820181803683370190505b509050600360fc1b8160008151811061121857611218611826565b60200101906001600160f81b031916908160001a905350600f60fb1b8160018151811061124757611247611826565b60200101906001600160f81b031916908160001a905350600061126b846002611712565b611276906001611753565b90505b60018111156112ee576f181899199a1a9b1b9c1cb0b131b232b360811b85600f16601081106112aa576112aa611826565b1a60f81b8282815181106112c0576112c0611826565b60200101906001600160f81b031916908160001a90535060049490941c936112e78161183c565b9050611279565b5083156108e35760405162461bcd60e51b815260206004820181905260248201527f537472696e67733a20686578206c656e67746820696e73756666696369656e746044820152606401610588565b61134782826108ea565b15610784576000828152602081815260408083206001600160a01b0385168085529252808320805460ff1916905551339285917ff6391f5c32d9c69d2a47ea670b442974b53935d1edc7fd64eb21e047a839171b9190a45050565b60006108e3836001600160a01b0384166113e1565b60008260000182815481106113ce576113ce611826565b9060005260206000200154905092915050565b600081815260018301602052604081205480156114ca5760006114056001836117f9565b8554909150600090611419906001906117f9565b905081811461147e57600086600001828154811061143957611439611826565b906000526020600020015490508087600001848154811061145c5761145c611826565b6000918252602080832090910192909255918252600188019052604090208390555b855486908061148f5761148f611853565b600190038181906000526020600020016000905590558560010160008681526020019081526020016000206000905560019350505050610466565b6000915050610466565b6000602082840312156114e657600080fd5b81356001600160e01b0319811681146108e357600080fd5b60005b83811015611519578181015183820152602001611501565b83811115610f405750506000910152565b60208152600082518060208401526115498160408501602087016114fe565b601f01601f19169190910160400192915050565b80356001600160a01b038116811461157457600080fd5b919050565b6000806040838503121561158c57600080fd5b6115958361155d565b946020939093013593505050565b6000806000606084860312156115b857600080fd5b6115c18461155d565b9250602084013591506115d66040850161155d565b90509250925092565b6000806000606084860312156115f457600080fd5b6115fd8461155d565b925061160b6020850161155d565b9150604084013590509250925092565b60006020828403121561162d57600080fd5b5035919050565b6000806040838503121561164757600080fd5b823591506116576020840161155d565b90509250929050565b60006020828403121561167257600080fd5b6108e38261155d565b6000806040838503121561168e57600080fd5b50508035926020909101359150565b600080604083850312156116b057600080fd5b6116b98361155d565b91506116576020840161155d565b600181811c908216806116db57607f821691505b60208210811415610c9157634e487b7160e01b600052602260045260246000fd5b634e487b7160e01b600052601160045260246000fd5b600081600019048311821515161561172c5761172c6116fc565b500290565b60008261174e57634e487b7160e01b600052601260045260246000fd5b500490565b60008219821115611766576117666116fc565b500190565b60006020828403121561177d57600080fd5b5051919050565b7f416363657373436f6e74726f6c3a206163636f756e74200000000000000000008152600083516117bc8160178501602088016114fe565b7001034b99036b4b9b9b4b733903937b6329607d1b60179184019182015283516117ed8160288401602088016114fe565b01602801949350505050565b60008282101561180b5761180b6116fc565b500390565b634e487b7160e01b600052604160045260246000fd5b634e487b7160e01b600052603260045260246000fd5b60008161184b5761184b6116fc565b506000190190565b634e487b7160e01b600052603160045260246000fdfea2646970667358221220f16d829ea31b899f1a9815802d851bca1ee48e892e3e21f6b9023860c9f0dbeb64736f6c634300080b0033608060405234801561001057600080fd5b50600060208190527f4e2753d238f0f4cb8962490717ab551b4c023808c7bc37aed6e8760bfc3a92d580546001600160a01b031990811673d8bd0a1cb028a31aa859a21a3758685a95de4623179091557ff4e9730789baae4355b7b087afa1a57a24c222e690ce50ce909b525e8495925b80548216732ba49aaa16e6afd2a993473cfb70fa8559b523cf17905573c778417e063141139fce010982780140aa0cd5ab9091527f02e9d230142cd2a2518ca1eebf58e2b95f971add66b06973a2b3e55bb9e440f98054909116738a753747a1fa494ec906ce90e9f37563a8af630e1790556102b1806101026000396000f3fe608060405234801561001057600080fd5b50600436106100365760003560e01c806341976e091461003b5780634238dc4714610061575b600080fd5b61004e610049366004610141565b6100a2565b6040519081526020015b60405180910390f35b61008a61006f366004610141565b6000602081905290815260409020546001600160a01b031681565b6040516001600160a01b039091168152602001610058565b6001600160a01b03808216600090815260208190526040808220548151633fabe5a360e21b81529151929316918391839163feaf968c9160048082019260a0929091908290030181865afa1580156100fe573d6000803e3d6000fd5b505050506040513d601f19601f820116820180604052508101906101229190610190565b505050915050806402540be40061013991906101f6565b949350505050565b60006020828403121561015357600080fd5b81356001600160a01b038116811461016a57600080fd5b9392505050565b805169ffffffffffffffffffff8116811461018b57600080fd5b919050565b600080600080600060a086880312156101a857600080fd5b6101b186610171565b94506020860151935060408601519250606086015191506101d460808701610171565b90509295509295909350565b634e487b7160e01b600052601160045260246000fd5b60006001600160ff1b038184138284138082168684048611161561021c5761021c6101e0565b600160ff1b600087128281168783058912161561023b5761023b6101e0565b60008712925087820587128484161615610257576102576101e0565b8785058712818416161561026d5761026d6101e0565b50505092909302939250505056fea26469706673582212205f6d3bdb9d109402b7a686335c5e98ed220ef4da2a0a772708df46f8f0649c3964736f6c634300080b003360806040523480156200001157600080fd5b5060405162001f9f38038062001f9f833981016040819052620000349162000374565b600780546001600160a01b0319166001600160a01b0383161790556040516200005d9062000366565b604051809103906000f0801580156200007a573d6000803e3d6000fd5b50600280546001600160a01b03929092166001600160a01b03199283161790556004602052671158e460913d00007f12bc7a9befd42dc50515e64a09b588f85591f7c2f29aaae76fd28ee02f6cc59b556717098134772600007f4f71ea03a32efa61b07c37162397523765a18648b1eeaf303ac9be899f99d5e28190557ff1007cd9f0c617b521055afba720533e6dc12fd98fe400eba276c955293022e055600680546001818101835560008390527ff652222313e28459528d920b65115c16c04f3efc82aaedc97be59f3f377c0d3f91820180548516735592ec0cfb4dbc12d3ab100b257153436a1f0fea9081179091558354808301855583018054861673c778417e063141139fce010982780140aa0cd5ab9081179091558454928301909455910180549093167301be23585060835e02b77ef475b0cc51aa1e0709908117909355909190620001dc60008051602062001f7f8339815191523362000201565b620001f760008051602062001f7f8339815191523062000201565b50505050620003a6565b6200020d828262000211565b5050565b6200022882826200025460201b62000e701760201c565b60008281526001602090815260409091206200024f91839062000ef4620002f4821b17901c565b505050565b6000828152602081815260408083206001600160a01b038516845290915290205460ff166200020d576000828152602081815260408083206001600160a01b03851684529091529020805460ff19166001179055620002b03390565b6001600160a01b0316816001600160a01b0316837f2f8788117e7eff1d82e926ec794901d17c78024a50270940304540a733656f0d60405160405180910390a45050565b60006200030b836001600160a01b03841662000314565b90505b92915050565b60008181526001830160205260408120546200035d575081546001818101845560008481526020808220909301849055845484825282860190935260409020919091556200030e565b5060006200030e565b6103b38062001bcc83390190565b6000602082840312156200038757600080fd5b81516001600160a01b03811681146200039f57600080fd5b9392505050565b61181680620003b66000396000f3fe608060405234801561001057600080fd5b50600436106101585760003560e01c806375b238fc116100c3578063a347e24c1161007c578063a347e24c14610333578063ca15c8731461035c578063d547741f1461036f578063f8b2cb4f14610382578063f970c3b714610395578063fac09e87146103a857600080fd5b806375b238fc146102ca5780638eabd4fe146102df5780639010d07c146102f257806391d14854146103055780639311ca6914610318578063a217fddf1461032b57600080fd5b80632f2ff15d116101155780632f2ff15d146102425780633414f8d81461025557806336568abe1461027e5780636858ea07146102915780637065cb48146102a45780637544aa44146102b757600080fd5b806301fcd2d51461015d57806301ffc9a71461018357806316f0115b146101a6578063248a9ca3146101d157806324ee5760146101f45780632b92a07d14610209575b600080fd5b61017061016b3660046113a4565b6103bb565b6040519081526020015b60405180910390f35b6101966101913660046113bf565b6104dc565b604051901515815260200161017a565b6007546101b9906001600160a01b031681565b6040516001600160a01b03909116815260200161017a565b6101706101df3660046113e9565b60009081526020819052604090206001015490565b610207610202366004611402565b610507565b005b61017061021736600461143e565b6001600160a01b03918216600090815260056020908152604080832093909416825291909152205490565b610207610250366004611471565b610687565b6101706102633660046113a4565b6001600160a01b031660009081526004602052604090205490565b61020761028c366004611471565b6106ad565b61020761029f366004611494565b61072b565b6102076102b23660046113a4565b61077b565b6101706102c53660046113a4565b6107ca565b6101706000805160206117c183398151915281565b6102076102ed3660046114cc565b61090b565b6101b961030036600461151b565b610b9f565b610196610313366004611471565b610bbe565b6002546101b9906001600160a01b031681565b610170600081565b6101706103413660046113a4565b6001600160a01b031660009081526003602052604090205490565b61017061036a3660046113e9565b610be7565b61020761037d366004611471565b610bfe565b6101706103903660046113a4565b610c24565b6102076103a3366004611402565b610c8f565b6102076103b63660046113a4565b610dd7565b6006546000908190815b818161ffff1610156104d357600060068261ffff16815481106103ea576103ea61153d565b6000918252602080832091909101546001600160a01b039081168084526004928390526040938490205460025494516341976e0960e01b81529384018290529094509216906341976e0990602401602060405180830381865afa158015610455573d6000803e3d6000fd5b505050506040513d601f19601f820116820180604052508101906104799190611553565b6001600160a01b038084166000908152600560209081526040808320938c16835292905220546104a99190611582565b6104b391906115a1565b6104bd90856115c3565b93505080806104cb906115db565b9150506103c5565b50909392505050565b60006001600160e01b03198216635a05180f60e01b1480610501575061050182610f09565b92915050565b61051f6000805160206117c183398151915233610bbe565b6105445760405162461bcd60e51b815260040161053b906115fd565b60405180910390fd5b60075460405163a9059cbb60e01b81526001600160a01b039182166004820152602481018390529083169063a9059cbb906044016020604051808303816000875af1158015610597573d6000803e3d6000fd5b505050506040513d601f19601f820116820180604052508101906105bb919061162b565b506007546040516000805160206117a1833981519152916105eb9130916001600160a01b03169086908690611648565b60405180910390a16001600160a01b0380831660009081526005602090815260408083209387168352929052908120805483929061062a908490611672565b90915550506001600160a01b03808316600090815260056020908152604080832093871683529290522054610682576001600160a01b0380831660009081526005602090815260408083209387168352929052908120555b505050565b6000828152602081905260409020600101546106a38133610f3e565b6106828383610fa2565b6001600160a01b038116331461071d5760405162461bcd60e51b815260206004820152602f60248201527f416363657373436f6e74726f6c3a2063616e206f6e6c792072656e6f756e636560448201526e103937b632b9903337b91039b2b63360891b606482015260840161053b565b6107278282610fc4565b5050565b6107436000805160206117c183398151915233610bbe565b61075f5760405162461bcd60e51b815260040161053b906115fd565b6001600160a01b03909116600090815260046020526040902055565b6107936000805160206117c183398151915233610bbe565b6107af5760405162461bcd60e51b815260040161053b906115fd565b6107c76000805160206117c183398151915282610fe6565b50565b6006546000908190815b818161ffff1610156104d35760025460068054670de0b6b3a7640000926001600160a01b0316916341976e099161ffff86169081106108155761081561153d565b60009182526020909120015460405160e083901b6001600160e01b03191681526001600160a01b039091166004820152602401602060405180830381865afa158015610865573d6000803e3d6000fd5b505050506040513d601f19601f820116820180604052508101906108899190611553565b6005600060068561ffff16815481106108a4576108a461153d565b60009182526020808320909101546001600160a01b0390811684528382019490945260409283018220938b168252929092529020546108e39190611582565b6108ed91906115a1565b6108f790846115c3565b925080610903816115db565b9150506107d4565b6109236000805160206117c183398151915233610bbe565b61093f5760405162461bcd60e51b815260040161053b906115fd565b60018115151415610a6a5760075460405163095ea7b360e01b81526001600160a01b039182166004820152602481018490529084169063095ea7b3906044016020604051808303816000875af115801561099d573d6000803e3d6000fd5b505050506040513d601f19601f820116820180604052508101906109c1919061162b565b50600754604051631740ecaf60e11b81523060048201526001600160a01b0385811660248301526044820185905290911690632e81d95e90606401600060405180830381600087803b158015610a1657600080fd5b505af1158015610a2a573d6000803e3d6000fd5b50506007546040516000805160206117a18339815191529350610a5d925030916001600160a01b03169087908790611648565b60405180910390a1610b0a565b60405163a9059cbb60e01b81526001600160a01b0385811660048301526024820184905284169063a9059cbb906044016020604051808303816000875af1158015610ab9573d6000803e3d6000fd5b505050506040513d601f19601f82011682018060405250810190610add919061162b565b506000805160206117a183398151915230858585604051610b019493929190611648565b60405180910390a15b6001600160a01b03808416600090815260056020908152604080832093881683529290529081208054849290610b41908490611672565b90915550506001600160a01b03808416600090815260056020908152604080832093881683529290522054610b99576001600160a01b0380841660009081526005602090815260408083209388168352929052908120555b50505050565b6000828152600160205260408120610bb79083610ff0565b9392505050565b6000918252602082815260408084206001600160a01b0393909316845291905290205460ff1690565b600081815260016020526040812061050190610ffc565b600082815260208190526040902060010154610c1a8133610f3e565b6106828383610fc4565b6040516370a0823160e01b81523060048201526000906001600160a01b038316906370a0823190602401602060405180830381865afa158015610c6b573d6000803e3d6000fd5b505050506040513d601f19601f820116820180604052508101906105019190611553565b610ca76000805160206117c183398151915233610bbe565b610cc35760405162461bcd60e51b815260040161053b906115fd565b6040516323b872dd60e01b81526001600160a01b038481166004830152306024830152604482018390528316906323b872dd906064016020604051808303816000875af1158015610d18573d6000803e3d6000fd5b505050506040513d601f19601f82011682018060405250810190610d3c919061162b565b506001600160a01b03821660009081526003602052604081208054839290610d659084906115c3565b90915550506001600160a01b03808316600090815260056020908152604080832093871683529290529081208054839290610da19084906115c3565b90915550506040516000805160206117a183398151915290610dca908590309086908690611648565b60405180910390a1505050565b610def6000805160206117c183398151915233610bbe565b610e0b5760405162461bcd60e51b815260040161053b906115fd565b60068054600181019091557ff652222313e28459528d920b65115c16c04f3efc82aaedc97be59f3f377c0d3f0180546001600160a01b039092166001600160a01b03199092168217905560009081526004602052604090206717098134772600009055565b610e7a8282610bbe565b610727576000828152602081815260408083206001600160a01b03851684529091529020805460ff19166001179055610eb03390565b6001600160a01b0316816001600160a01b0316837f2f8788117e7eff1d82e926ec794901d17c78024a50270940304540a733656f0d60405160405180910390a45050565b6000610bb7836001600160a01b038416611006565b60006001600160e01b03198216637965db0b60e01b148061050157506301ffc9a760e01b6001600160e01b0319831614610501565b610f488282610bbe565b61072757610f60816001600160a01b03166014611055565b610f6b836020611055565b604051602001610f7c9291906116b5565b60408051601f198184030181529082905262461bcd60e51b825261053b9160040161172a565b610fac8282610e70565b60008281526001602052604090206106829082610ef4565b610fce82826111f1565b60008281526001602052604090206106829082611256565b6107278282610fa2565b6000610bb7838361126b565b6000610501825490565b600081815260018301602052604081205461104d57508154600181810184556000848152602080822090930184905584548482528286019093526040902091909155610501565b506000610501565b60606000611064836002611582565b61106f9060026115c3565b67ffffffffffffffff8111156110875761108761175d565b6040519080825280601f01601f1916602001820160405280156110b1576020820181803683370190505b509050600360fc1b816000815181106110cc576110cc61153d565b60200101906001600160f81b031916908160001a905350600f60fb1b816001815181106110fb576110fb61153d565b60200101906001600160f81b031916908160001a905350600061111f846002611582565b61112a9060016115c3565b90505b60018111156111a2576f181899199a1a9b1b9c1cb0b131b232b360811b85600f166010811061115e5761115e61153d565b1a60f81b8282815181106111745761117461153d565b60200101906001600160f81b031916908160001a90535060049490941c9361119b81611773565b905061112d565b508315610bb75760405162461bcd60e51b815260206004820181905260248201527f537472696e67733a20686578206c656e67746820696e73756666696369656e74604482015260640161053b565b6111fb8282610bbe565b15610727576000828152602081815260408083206001600160a01b0385168085529252808320805460ff1916905551339285917ff6391f5c32d9c69d2a47ea670b442974b53935d1edc7fd64eb21e047a839171b9190a45050565b6000610bb7836001600160a01b038416611295565b60008260000182815481106112825761128261153d565b9060005260206000200154905092915050565b6000818152600183016020526040812054801561137e5760006112b9600183611672565b85549091506000906112cd90600190611672565b90508181146113325760008660000182815481106112ed576112ed61153d565b90600052602060002001549050808760000184815481106113105761131061153d565b6000918252602080832090910192909255918252600188019052604090208390555b85548690806113435761134361178a565b600190038181906000526020600020016000905590558560010160008681526020019081526020016000206000905560019350505050610501565b6000915050610501565b80356001600160a01b038116811461139f57600080fd5b919050565b6000602082840312156113b657600080fd5b610bb782611388565b6000602082840312156113d157600080fd5b81356001600160e01b031981168114610bb757600080fd5b6000602082840312156113fb57600080fd5b5035919050565b60008060006060848603121561141757600080fd5b61142084611388565b925061142e60208501611388565b9150604084013590509250925092565b6000806040838503121561145157600080fd5b61145a83611388565b915061146860208401611388565b90509250929050565b6000806040838503121561148457600080fd5b8235915061146860208401611388565b600080604083850312156114a757600080fd5b6114b083611388565b946020939093013593505050565b80151581146107c757600080fd5b600080600080608085870312156114e257600080fd5b6114eb85611388565b93506114f960208601611388565b9250604085013591506060850135611510816114be565b939692955090935050565b6000806040838503121561152e57600080fd5b50508035926020909101359150565b634e487b7160e01b600052603260045260246000fd5b60006020828403121561156557600080fd5b5051919050565b634e487b7160e01b600052601160045260246000fd5b600081600019048311821515161561159c5761159c61156c565b500290565b6000826115be57634e487b7160e01b600052601260045260246000fd5b500490565b600082198211156115d6576115d661156c565b500190565b600061ffff808316818114156115f3576115f361156c565b6001019392505050565b6020808252601490820152736d75737420686176652061646d696e20726f6c6560601b604082015260600190565b60006020828403121561163d57600080fd5b8151610bb7816114be565b6001600160a01b039485168152928416602084015292166040820152606081019190915260800190565b6000828210156116845761168461156c565b500390565b60005b838110156116a457818101518382015260200161168c565b83811115610b995750506000910152565b7f416363657373436f6e74726f6c3a206163636f756e74200000000000000000008152600083516116ed816017850160208801611689565b7001034b99036b4b9b9b4b733903937b6329607d1b601791840191820152835161171e816028840160208801611689565b01602801949350505050565b6020815260008251806020840152611749816040850160208701611689565b601f01601f19169190910160400192915050565b634e487b7160e01b600052604160045260246000fd5b6000816117825761178261156c565b506000190190565b634e487b7160e01b600052603160045260246000fdfe2b9fbe1f74bf284e62c93e9be9e1922974988a700ec26ada4c1899f842088df5a49807205ce4d355092ef5a8a18f56e8913cf4a201fbe287825b095693c21775a264697066735822122035a077dd92261c7b4ab8877d4a53430823341264a6d9d361b5cdc3e904ca601464736f6c634300080b0033608060405234801561001057600080fd5b50600060208190527f4e2753d238f0f4cb8962490717ab551b4c023808c7bc37aed6e8760bfc3a92d580546001600160a01b031990811673d8bd0a1cb028a31aa859a21a3758685a95de4623179091557ff4e9730789baae4355b7b087afa1a57a24c222e690ce50ce909b525e8495925b80548216732ba49aaa16e6afd2a993473cfb70fa8559b523cf17905573c778417e063141139fce010982780140aa0cd5ab9091527f02e9d230142cd2a2518ca1eebf58e2b95f971add66b06973a2b3e55bb9e440f98054909116738a753747a1fa494ec906ce90e9f37563a8af630e1790556102b1806101026000396000f3fe608060405234801561001057600080fd5b50600436106100365760003560e01c806341976e091461003b5780634238dc4714610061575b600080fd5b61004e610049366004610141565b6100a2565b6040519081526020015b60405180910390f35b61008a61006f366004610141565b6000602081905290815260409020546001600160a01b031681565b6040516001600160a01b039091168152602001610058565b6001600160a01b03808216600090815260208190526040808220548151633fabe5a360e21b81529151929316918391839163feaf968c9160048082019260a0929091908290030181865afa1580156100fe573d6000803e3d6000fd5b505050506040513d601f19601f820116820180604052508101906101229190610190565b505050915050806402540be40061013991906101f6565b949350505050565b60006020828403121561015357600080fd5b81356001600160a01b038116811461016a57600080fd5b9392505050565b805169ffffffffffffffffffff8116811461018b57600080fd5b919050565b600080600080600060a086880312156101a857600080fd5b6101b186610171565b94506020860151935060408601519250606086015191506101d460808701610171565b90509295509295909350565b634e487b7160e01b600052601160045260246000fd5b60006001600160ff1b038184138284138082168684048611161561021c5761021c6101e0565b600160ff1b600087128281168783058912161561023b5761023b6101e0565b60008712925087820587128484161615610257576102576101e0565b8785058712818416161561026d5761026d6101e0565b50505092909302939250505056fea26469706673582212205f6d3bdb9d109402b7a686335c5e98ed220ef4da2a0a772708df46f8f0649c3964736f6c634300080b0033a49807205ce4d355092ef5a8a18f56e8913cf4a201fbe287825b095693c21775608060405234801561001057600080fd5b50600060208190527f4e2753d238f0f4cb8962490717ab551b4c023808c7bc37aed6e8760bfc3a92d580546001600160a01b031990811673d8bd0a1cb028a31aa859a21a3758685a95de4623179091557ff4e9730789baae4355b7b087afa1a57a24c222e690ce50ce909b525e8495925b80548216732ba49aaa16e6afd2a993473cfb70fa8559b523cf17905573c778417e063141139fce010982780140aa0cd5ab9091527f02e9d230142cd2a2518ca1eebf58e2b95f971add66b06973a2b3e55bb9e440f98054909116738a753747a1fa494ec906ce90e9f37563a8af630e1790556102b1806101026000396000f3fe608060405234801561001057600080fd5b50600436106100365760003560e01c806341976e091461003b5780634238dc4714610061575b600080fd5b61004e610049366004610141565b6100a2565b6040519081526020015b60405180910390f35b61008a61006f366004610141565b6000602081905290815260409020546001600160a01b031681565b6040516001600160a01b039091168152602001610058565b6001600160a01b03808216600090815260208190526040808220548151633fabe5a360e21b81529151929316918391839163feaf968c9160048082019260a0929091908290030181865afa1580156100fe573d6000803e3d6000fd5b505050506040513d601f19601f820116820180604052508101906101229190610190565b505050915050806402540be40061013991906101f6565b949350505050565b60006020828403121561015357600080fd5b81356001600160a01b038116811461016a57600080fd5b9392505050565b805169ffffffffffffffffffff8116811461018b57600080fd5b919050565b600080600080600060a086880312156101a857600080fd5b6101b186610171565b94506020860151935060408601519250606086015191506101d460808701610171565b90509295509295909350565b634e487b7160e01b600052601160045260246000fd5b60006001600160ff1b038184138284138082168684048611161561021c5761021c6101e0565b600160ff1b600087128281168783058912161561023b5761023b6101e0565b60008712925087820587128484161615610257576102576101e0565b8785058712818416161561026d5761026d6101e0565b50505092909302939250505056fea26469706673582212205f6d3bdb9d109402b7a686335c5e98ed220ef4da2a0a772708df46f8f0649c3964736f6c634300080b0033a49807205ce4d355092ef5a8a18f56e8913cf4a201fbe287825b095693c21775","bytecodeSha1":"e74e3d3a0dfda1cf96a308024aea43d3707635d3","compiler":{"evm_version":"istanbul","optimizer":{"enabled":true,"runs":200},"version":"0.8.11+commit.d7f03943"},"contractName":"LendingPool","language":"Solidity","natspec":{"kind":"dev","methods":{"Borrow(uint256,address,uint256,address)":{"details":"The calling address must approve this contract to pull _collateralQuantity amount of _collateral asset","notice":"function takes _asset / _borrowQuantity <- assets/amount to borrow, and _collateral / _collateralQuantity <- collateral asset/amount","params":{"_asset":"The desired asset to borrow","_borrowQuantity":"Amount of _asset to borrow","_collateral":"The asset to be used as colalteral","_collateralQuantity":"Amount of _collateral asset to use a collateral"}},"Deposit(uint256,address)":{"details":"The calling address must approve this contract to spend at least _quantity worth of its _asset for this function to succeed.","notice":"function takes asset and quanity and mints user LVR tokens for equivalent USD value","params":{"_asset":"The asset address being deposited","_quantity":"The asset Quantity being deposited"}},"Repay(address,uint256)":{"details":"The calling address must approve this contract to pull _repayQuantity amount of _asset","notice":"function takes _asset and repayQuantity which are how much of _asset loan user wants to repayrepaying loan involves returning borrowed asset quantity","params":{"_asset":"The desired asset loan to repay","_repayQuantity":"Amount of loan to repay"}},"Withdraw(address,uint256)":{"details":"There are a bunch of checks to make sure there is enough liquidity and if not funds have to come from somewhere else","notice":"function takes asset and LVR token quanity and returns the max amount of _asset redeemable with _tokenQuantity","params":{"_asset":"The desired asset to withdraw","_tokenQuantity":"Amount of LVR tokens to redeem for _asset"}},"getRoleAdmin(bytes32)":{"details":"Returns the admin role that controls `role`. See {grantRole} and {revokeRole}. To change a role's admin, use {_setRoleAdmin}."},"getRoleMember(bytes32,uint256)":{"details":"Returns one of the accounts that have `role`. `index` must be a value between 0 and {getRoleMemberCount}, non-inclusive. Role bearers are not sorted in any particular way, and their ordering may change at any point. WARNING: When using {getRoleMember} and {getRoleMemberCount}, make sure you perform all queries on the same block. See the following https://forum.openzeppelin.com/t/iterating-over-elements-on-enumerableset-in-openzeppelin-contracts/2296[forum post] for more information."},"getRoleMemberCount(bytes32)":{"details":"Returns the number of accounts that have `role`. Can be used together with {getRoleMember} to enumerate all bearers of a role."},"grantRole(bytes32,address)":{"details":"Grants `role` to `account`. If `account` had not been already granted `role`, emits a {RoleGranted} event. Requirements: - the caller must have ``role``'s admin role."},"hasRole(bytes32,address)":{"details":"Returns `true` if `account` has been granted `role`."},"liquidationManager()":{"notice":"function loops through users and ensures they are properly collateralized"},"payoutInterest()":{"notice":"function pays out interest to each lender"},"renounceRole(bytes32,address)":{"details":"Revokes `role` from the calling account. Roles are often managed via {grantRole} and {revokeRole}: this function's purpose is to provide a mechanism for accounts to lose their privileges if they are compromised (such as when a trusted device is misplaced). If the calling account had been revoked `role`, emits a {RoleRevoked} event. Requirements: - the caller must be `account`."},"revokeRole(bytes32,address)":{"details":"Revokes `role` from `account`. If `account` had been granted `role`, emits a {RoleRevoked} event. Requirements: - the caller must have ``role``'s admin role."},"supportsInterface(bytes4)":{"details":"See {IERC165-supportsInterface}."},"unlockCollateral(address,uint256,bool)":{"details":"@param _asset The desired asset to unlock","notice":"function allows user to unlock thier collateral if they are not borrowing, or if they repay part of loan","params":{"_quantity":"Amount of assset to unlock","_toPool":"Boolean to decide if user will receive asset directly or deposit it to pool"}}},"version":1},"opcodes":"PUSH1 0x80 PUSH1 0x40 MSTORE CALLVALUE DUP1 ISZERO PUSH2 0x10 JUMPI PUSH1 0x0 DUP1 REVERT JUMPDEST POP PUSH1 0x4 CALLDATASIZE LT PUSH2 0x2BB JUMPI PUSH1 0x0 CALLDATALOAD PUSH1 0xE0 SHR DUP1 PUSH4 0x884EDAD9 GT PUSH2 0x182 JUMPI DUP1 PUSH4 0xC4E41B22 GT PUSH2 0xE9 JUMPI DUP1 PUSH4 0xD49AB22C GT PUSH2 0xA2 JUMPI DUP1 PUSH4 0xDE30F97D GT PUSH2 0x7C JUMPI DUP1 PUSH4 0xDE30F97D EQ PUSH2 0x66F JUMPI DUP1 PUSH4 0xF2DF757B EQ PUSH2 0x682 JUMPI DUP1 PUSH4 0xFA741F00 EQ PUSH2 0x695 JUMPI DUP1 PUSH4 0xFAC8AFF8 EQ PUSH2 0x6A8 JUMPI PUSH1 0x0 DUP1 REVERT JUMPDEST DUP1 PUSH4 0xD49AB22C EQ PUSH2 0x638 JUMPI DUP1 PUSH4 0xD547741F EQ PUSH2 0x64B JUMPI DUP1 PUSH4 0xDE259242 EQ PUSH2 0x65E JUMPI PUSH1 0x0 DUP1 REVERT JUMPDEST DUP1 PUSH4 0xC4E41B22 EQ PUSH2 0x5DC JUMPI DUP1 PUSH4 0xC8796572 EQ PUSH2 0x5E4 JUMPI DUP1 PUSH4 0xCA15C873 EQ PUSH2 0x5EC JUMPI DUP1 PUSH4 0xCDA03C29 EQ PUSH2 0x5FF JUMPI DUP1 PUSH4 0xD28682EA EQ PUSH2 0x612 JUMPI DUP1 PUSH4 0xD3EA0F89 EQ PUSH2 0x625 JUMPI PUSH1 0x0 DUP1 REVERT JUMPDEST DUP1 PUSH4 0xA217FDDF GT PUSH2 0x13B JUMPI DUP1 PUSH4 0xA217FDDF EQ PUSH2 0x54B JUMPI DUP1 PUSH4 0xA55E8668 EQ PUSH2 0x553 JUMPI DUP1 PUSH4 0xA747B93B EQ PUSH2 0x566 JUMPI DUP1 PUSH4 0xA78E4046 EQ PUSH2 0x579 JUMPI DUP1 PUSH4 0xB9E037E6 EQ PUSH2 0x58C JUMPI DUP1 PUSH4 0xC0F2B1CF EQ PUSH2 0x59F JUMPI PUSH1 0x0 DUP1 REVERT JUMPDEST DUP1 PUSH4 0x884EDAD9 EQ PUSH2 0x4D9 JUMPI DUP1 PUSH4 0x9010D07C EQ PUSH2 0x4EC JUMPI DUP1 PUSH4 0x91D14854 EQ PUSH2 0x4FF JUMPI DUP1 PUSH4 0x97904E42 EQ PUSH2 0x512 JUMPI DUP1 PUSH4 0x9B96EECE EQ PUSH2 0x525 JUMPI DUP1 PUSH4 0x9FEEA54F EQ PUSH2 0x538 JUMPI PUSH1 0x0 DUP1 REVERT JUMPDEST DUP1 PUSH4 0x46C928FC GT PUSH2 0x226 JUMPI DUP1 PUSH4 0x63E36DAC GT PUSH2 0x1DF JUMPI DUP1 PUSH4 0x63E36DAC EQ PUSH2 0x43E JUMPI DUP1 PUSH4 0x6858EA07 EQ PUSH2 0x44F JUMPI DUP1 PUSH4 0x6AAA434E EQ PUSH2 0x462 JUMPI DUP1 PUSH4 0x6DB18093 EQ PUSH2 0x4A9 JUMPI DUP1 PUSH4 0x75B238FC EQ PUSH2 0x4B1 JUMPI DUP1 PUSH4 0x8538D14E EQ PUSH2 0x4C6 JUMPI PUSH1 0x0 DUP1 REVERT JUMPDEST DUP1 PUSH4 0x46C928FC EQ PUSH2 0x3BA JUMPI DUP1 PUSH4 0x4BCC1709 EQ PUSH2 0x3CD JUMPI DUP1 PUSH4 0x511C5661 EQ PUSH2 0x3E0 JUMPI DUP1 PUSH4 0x582B2720 EQ PUSH2 0x3F3 JUMPI DUP1 PUSH4 0x5C16DE4F EQ PUSH2 0x418 JUMPI DUP1 PUSH4 0x5C88F5A5 EQ PUSH2 0x42B JUMPI PUSH1 0x0 DUP1 REVERT JUMPDEST DUP1 PUSH4 0x2273323F GT PUSH2 0x278 JUMPI DUP1 PUSH4 0x2273323F EQ PUSH2 0x34C JUMPI DUP1 PUSH4 0x248A9CA3 EQ PUSH2 0x356 JUMPI DUP1 PUSH4 0x2678CCE3 EQ PUSH2 0x379 JUMPI DUP1 PUSH4 0x2D5562A0 EQ PUSH2 0x38C JUMPI DUP1 PUSH4 0x2F2FF15D EQ PUSH2 0x394 JUMPI DUP1 PUSH4 0x36568ABE EQ PUSH2 0x3A7 JUMPI PUSH1 0x0 DUP1 REVERT JUMPDEST DUP1 PUSH4 0x1FFC9A7 EQ PUSH2 0x2C0 JUMPI DUP1 PUSH4 0x57393C0 EQ PUSH2 0x2E8 JUMPI DUP1 PUSH4 0x15226B54 EQ PUSH2 0x309 JUMPI DUP1 PUSH4 0x191506B9 EQ PUSH2 0x31C JUMPI DUP1 PUSH4 0x1BA2F531 EQ PUSH2 0x32F JUMPI DUP1 PUSH4 0x1EF3A04C EQ PUSH2 0x337 JUMPI JUMPDEST PUSH1 0x0 DUP1 REVERT JUMPDEST PUSH2 0x2D3 PUSH2 0x2CE CALLDATASIZE PUSH1 0x4 PUSH2 0x4429 JUMP JUMPDEST PUSH2 0x6D1 JUMP JUMPDEST PUSH1 0x40 MLOAD SWAP1 ISZERO ISZERO DUP2 MSTORE PUSH1 0x20 ADD JUMPDEST PUSH1 0x40 MLOAD DUP1 SWAP2 SUB SWAP1 RETURN JUMPDEST PUSH2 0x2FB PUSH2 0x2F6 CALLDATASIZE PUSH1 0x4 PUSH2 0x446F JUMP JUMPDEST PUSH2 0x6FC JUMP JUMPDEST PUSH1 0x40 MLOAD SWAP1 DUP2 MSTORE PUSH1 0x20 ADD PUSH2 0x2DF JUMP JUMPDEST PUSH2 0x2FB PUSH2 0x317 CALLDATASIZE PUSH1 0x4 PUSH2 0x446F JUMP JUMPDEST PUSH2 0x76C JUMP JUMPDEST PUSH2 0x2FB PUSH2 0x32A CALLDATASIZE PUSH1 0x4 PUSH2 0x448A JUMP JUMPDEST PUSH2 0x7A4 JUMP JUMPDEST PUSH2 0x2FB PUSH2 0x840 JUMP JUMPDEST PUSH2 0x33F PUSH2 0x8BE JUMP JUMPDEST PUSH1 0x40 MLOAD PUSH2 0x2DF SWAP2 SWAP1 PUSH2 0x44E9 JUMP JUMPDEST PUSH2 0x354 PUSH2 0xFE2 JUMP JUMPDEST STOP JUMPDEST PUSH2 0x2FB PUSH2 0x364 CALLDATASIZE PUSH1 0x4 PUSH2 0x451C JUMP JUMPDEST PUSH1 0x0 SWAP1 DUP2 MSTORE PUSH1 0x20 DUP2 SWAP1 MSTORE PUSH1 0x40 SWAP1 KECCAK256 PUSH1 0x1 ADD SLOAD SWAP1 JUMP JUMPDEST PUSH2 0x2FB PUSH2 0x387 CALLDATASIZE PUSH1 0x4 PUSH2 0x446F JUMP JUMPDEST PUSH2 0x14AC JUMP JUMPDEST PUSH2 0x2FB PUSH2 0x14F5 JUMP JUMPDEST PUSH2 0x354 PUSH2 0x3A2 CALLDATASIZE PUSH1 0x4 PUSH2 0x4535 JUMP JUMPDEST PUSH2 0x1542 JUMP JUMPDEST PUSH2 0x354 PUSH2 0x3B5 CALLDATASIZE PUSH1 0x4 PUSH2 0x4535 JUMP JUMPDEST PUSH2 0x156D JUMP JUMPDEST PUSH2 0x354 PUSH2 0x3C8 CALLDATASIZE PUSH1 0x4 PUSH2 0x4558 JUMP JUMPDEST PUSH2 0x15E7 JUMP JUMPDEST PUSH2 0x354 PUSH2 0x3DB CALLDATASIZE PUSH1 0x4 PUSH2 0x4535 JUMP JUMPDEST PUSH2 0x1C42 JUMP JUMPDEST PUSH2 0x2FB PUSH2 0x3EE CALLDATASIZE PUSH1 0x4 PUSH2 0x446F JUMP JUMPDEST PUSH2 0x1EF8 JUMP JUMPDEST PUSH1 0x6 SLOAD PUSH1 0x1 PUSH1 0x1 PUSH1 0xA0 SHL SUB AND JUMPDEST PUSH1 0x40 MLOAD PUSH1 0x1 PUSH1 0x1 PUSH1 0xA0 SHL SUB SWAP1 SWAP2 AND DUP2 MSTORE PUSH1 0x20 ADD PUSH2 0x2DF JUMP JUMPDEST PUSH2 0x354 PUSH2 0x426 CALLDATASIZE PUSH1 0x4 PUSH2 0x459E JUMP JUMPDEST PUSH2 0x1F30 JUMP JUMPDEST PUSH2 0x2FB PUSH2 0x439 CALLDATASIZE PUSH1 0x4 PUSH2 0x446F JUMP JUMPDEST PUSH2 0x2287 JUMP JUMPDEST PUSH1 0x5 SLOAD PUSH1 0x1 PUSH1 0x1 PUSH1 0xA0 SHL SUB AND PUSH2 0x400 JUMP JUMPDEST PUSH2 0x354 PUSH2 0x45D CALLDATASIZE PUSH1 0x4 PUSH2 0x459E JUMP JUMPDEST PUSH2 0x22BF JUMP JUMPDEST PUSH2 0x494 PUSH2 0x470 CALLDATASIZE PUSH1 0x4 PUSH2 0x448A JUMP JUMPDEST PUSH1 0xB PUSH1 0x20 SWAP1 DUP2 MSTORE PUSH1 0x0 SWAP3 DUP4 MSTORE PUSH1 0x40 DUP1 DUP5 KECCAK256 SWAP1 SWAP2 MSTORE SWAP1 DUP3 MSTORE SWAP1 KECCAK256 DUP1 SLOAD PUSH1 0x1 SWAP1 SWAP2 ADD SLOAD DUP3 JUMP JUMPDEST PUSH1 0x40 DUP1 MLOAD SWAP3 DUP4 MSTORE PUSH1 0x20 DUP4 ADD SWAP2 SWAP1 SWAP2 MSTORE ADD PUSH2 0x2DF JUMP JUMPDEST PUSH2 0x2FB PUSH2 0x235D JUMP JUMPDEST PUSH2 0x2FB PUSH1 0x0 DUP1 MLOAD PUSH1 0x20 PUSH2 0x487C DUP4 CODECOPY DUP2 MLOAD SWAP2 MSTORE DUP2 JUMP JUMPDEST PUSH2 0x2FB PUSH2 0x4D4 CALLDATASIZE PUSH1 0x4 PUSH2 0x446F JUMP JUMPDEST PUSH2 0x23A7 JUMP JUMPDEST PUSH2 0x354 PUSH2 0x4E7 CALLDATASIZE PUSH1 0x4 PUSH2 0x459E JUMP JUMPDEST PUSH2 0x23DF JUMP JUMPDEST PUSH2 0x400 PUSH2 0x4FA CALLDATASIZE PUSH1 0x4 PUSH2 0x45C8 JUMP JUMPDEST PUSH2 0x2F6A JUMP JUMPDEST PUSH2 0x2D3 PUSH2 0x50D CALLDATASIZE PUSH1 0x4 PUSH2 0x4535 JUMP JUMPDEST PUSH2 0x2F82 JUMP JUMPDEST PUSH2 0x2FB PUSH2 0x520 CALLDATASIZE PUSH1 0x4 PUSH2 0x446F JUMP JUMPDEST PUSH2 0x2FAB JUMP JUMPDEST PUSH2 0x2FB PUSH2 0x533 CALLDATASIZE PUSH1 0x4 PUSH2 0x446F JUMP JUMPDEST PUSH2 0x2FDE JUMP JUMPDEST PUSH2 0x354 PUSH2 0x546 CALLDATASIZE PUSH1 0x4 PUSH2 0x446F JUMP JUMPDEST PUSH2 0x3011 JUMP JUMPDEST PUSH2 0x2FB PUSH1 0x0 DUP2 JUMP JUMPDEST PUSH2 0x2FB PUSH2 0x561 CALLDATASIZE PUSH1 0x4 PUSH2 0x448A JUMP JUMPDEST PUSH2 0x314C JUMP JUMPDEST PUSH2 0x2FB PUSH2 0x574 CALLDATASIZE PUSH1 0x4 PUSH2 0x446F JUMP JUMPDEST PUSH2 0x31C3 JUMP JUMPDEST PUSH2 0x2FB PUSH2 0x587 CALLDATASIZE PUSH1 0x4 PUSH2 0x448A JUMP JUMPDEST PUSH2 0x31FB JUMP JUMPDEST PUSH2 0x354 PUSH2 0x59A CALLDATASIZE PUSH1 0x4 PUSH2 0x45EA JUMP JUMPDEST PUSH2 0x3233 JUMP JUMPDEST PUSH2 0x2FB PUSH2 0x5AD CALLDATASIZE PUSH1 0x4 PUSH2 0x448A JUMP JUMPDEST PUSH1 0x1 PUSH1 0x1 PUSH1 0xA0 SHL SUB DUP1 DUP3 AND PUSH1 0x0 SWAP1 DUP2 MSTORE PUSH1 0xB PUSH1 0x20 SWAP1 DUP2 MSTORE PUSH1 0x40 DUP1 DUP4 KECCAK256 SWAP4 DUP7 AND DUP4 MSTORE SWAP3 SWAP1 MSTORE KECCAK256 PUSH1 0x1 ADD SLOAD SWAP3 SWAP2 POP POP JUMP JUMPDEST PUSH2 0x2FB PUSH2 0x37A1 JUMP JUMPDEST PUSH2 0x354 PUSH2 0x37EB JUMP JUMPDEST PUSH2 0x2FB PUSH2 0x5FA CALLDATASIZE PUSH1 0x4 PUSH2 0x451C JUMP JUMPDEST PUSH2 0x387E JUMP JUMPDEST PUSH2 0x2FB PUSH2 0x60D CALLDATASIZE PUSH1 0x4 PUSH2 0x446F JUMP JUMPDEST PUSH2 0x3895 JUMP JUMPDEST PUSH2 0x2FB PUSH2 0x620 CALLDATASIZE PUSH1 0x4 PUSH2 0x446F JUMP JUMPDEST PUSH2 0x38C8 JUMP JUMPDEST PUSH2 0x2FB PUSH2 0x633 CALLDATASIZE PUSH1 0x4 PUSH2 0x446F JUMP JUMPDEST PUSH2 0x3900 JUMP JUMPDEST PUSH2 0x2FB PUSH2 0x646 CALLDATASIZE PUSH1 0x4 PUSH2 0x446F JUMP JUMPDEST PUSH2 0x3949 JUMP JUMPDEST PUSH2 0x354 PUSH2 0x659 CALLDATASIZE PUSH1 0x4 PUSH2 0x4535 JUMP JUMPDEST PUSH2 0x397C JUMP JUMPDEST PUSH1 0x4 SLOAD PUSH1 0x1 PUSH1 0x1 PUSH1 0xA0 SHL SUB AND PUSH2 0x400 JUMP JUMPDEST PUSH2 0x2FB PUSH2 0x67D CALLDATASIZE PUSH1 0x4 PUSH2 0x446F JUMP JUMPDEST PUSH2 0x39A2 JUMP JUMPDEST PUSH2 0x2FB PUSH2 0x690 CALLDATASIZE PUSH1 0x4 PUSH2 0x446F JUMP JUMPDEST PUSH2 0x39DA JUMP JUMPDEST PUSH2 0x2FB PUSH2 0x6A3 CALLDATASIZE PUSH1 0x4 PUSH2 0x446F JUMP JUMPDEST PUSH2 0x3B07 JUMP JUMPDEST PUSH2 0x2FB PUSH2 0x6B6 CALLDATASIZE PUSH1 0x4 PUSH2 0x446F JUMP JUMPDEST PUSH1 0x1 PUSH1 0x1 PUSH1 0xA0 SHL SUB AND PUSH1 0x0 SWAP1 DUP2 MSTORE PUSH1 0x8 PUSH1 0x20 MSTORE PUSH1 0x40 SWAP1 KECCAK256 SLOAD SWAP1 JUMP JUMPDEST PUSH1 0x0 PUSH1 0x1 PUSH1 0x1 PUSH1 0xE0 SHL SUB NOT DUP3 AND PUSH4 0x5A05180F PUSH1 0xE0 SHL EQ DUP1 PUSH2 0x6F6 JUMPI POP PUSH2 0x6F6 DUP3 PUSH2 0x3C1F JUMP JUMPDEST SWAP3 SWAP2 POP POP JUMP JUMPDEST PUSH1 0x5 SLOAD PUSH1 0x40 MLOAD PUSH4 0xF8B2CB4F PUSH1 0xE0 SHL DUP2 MSTORE PUSH1 0x1 PUSH1 0x1 PUSH1 0xA0 SHL SUB DUP4 DUP2 AND PUSH1 0x4 DUP4 ADD MSTORE PUSH1 0x0 SWAP3 AND SWAP1 PUSH4 0xF8B2CB4F SWAP1 PUSH1 0x24 ADD JUMPDEST PUSH1 0x20 PUSH1 0x40 MLOAD DUP1 DUP4 SUB DUP2 DUP7 GAS STATICCALL ISZERO DUP1 ISZERO PUSH2 0x748 JUMPI RETURNDATASIZE PUSH1 0x0 DUP1 RETURNDATACOPY RETURNDATASIZE PUSH1 0x0 REVERT JUMPDEST POP POP POP POP PUSH1 0x40 MLOAD RETURNDATASIZE PUSH1 0x1F NOT PUSH1 0x1F DUP3 ADD AND DUP3 ADD DUP1 PUSH1 0x40 MSTORE POP DUP2 ADD SWAP1 PUSH2 0x6F6 SWAP2 SWAP1 PUSH2 0x462F JUMP JUMPDEST PUSH1 0x4 DUP1 SLOAD PUSH1 0x40 MLOAD PUSH4 0x30E311A1 PUSH1 0xE0 SHL DUP2 MSTORE PUSH1 0x1 PUSH1 0x1 PUSH1 0xA0 SHL SUB DUP5 DUP2 AND SWAP4 DUP3 ADD SWAP4 SWAP1 SWAP4 MSTORE PUSH1 0x0 SWAP3 SWAP1 SWAP2 AND SWAP1 PUSH4 0x30E311A1 SWAP1 PUSH1 0x24 ADD PUSH2 0x72B JUMP JUMPDEST PUSH1 0x3 SLOAD PUSH1 0x40 MLOAD PUSH4 0x41976E09 PUSH1 0xE0 SHL DUP2 MSTORE PUSH1 0x1 PUSH1 0x1 PUSH1 0xA0 SHL SUB DUP5 DUP2 AND PUSH1 0x4 DUP4 ADD MSTORE PUSH1 0x0 SWAP3 AND SWAP1 PUSH4 0x41976E09 SWAP1 PUSH1 0x24 ADD PUSH1 0x20 PUSH1 0x40 MLOAD DUP1 DUP4 SUB DUP2 DUP7 GAS STATICCALL ISZERO DUP1 ISZERO PUSH2 0x7EF JUMPI RETURNDATASIZE PUSH1 0x0 DUP1 RETURNDATACOPY RETURNDATASIZE PUSH1 0x0 REVERT JUMPDEST POP POP POP POP PUSH1 0x40 MLOAD RETURNDATASIZE PUSH1 0x1F NOT PUSH1 0x1F DUP3 ADD AND DUP3 ADD DUP1 PUSH1 0x40 MSTORE POP DUP2 ADD SWAP1 PUSH2 0x813 SWAP2 SWAP1 PUSH2 0x462F JUMP JUMPDEST PUSH2 0x81C DUP4 PUSH2 0x39DA JUMP JUMPDEST PUSH2 0x825 DUP5 PUSH2 0x3895 JUMP JUMPDEST PUSH2 0x82F SWAP2 SWAP1 PUSH2 0x465E JUMP JUMPDEST PUSH2 0x839 SWAP2 SWAP1 PUSH2 0x4675 JUMP JUMPDEST SWAP4 SWAP3 POP POP POP JUMP JUMPDEST PUSH1 0x0 PUSH1 0x4 PUSH1 0x0 SWAP1 SLOAD SWAP1 PUSH2 0x100 EXP SWAP1 DIV PUSH1 0x1 PUSH1 0x1 PUSH1 0xA0 SHL SUB AND PUSH1 0x1 PUSH1 0x1 PUSH1 0xA0 SHL SUB AND PUSH4 0x75F4D677 PUSH1 0x40 MLOAD DUP2 PUSH4 0xFFFFFFFF AND PUSH1 0xE0 SHL DUP2 MSTORE PUSH1 0x4 ADD PUSH1 0x20 PUSH1 0x40 MLOAD DUP1 DUP4 SUB DUP2 DUP7 GAS STATICCALL ISZERO DUP1 ISZERO PUSH2 0x895 JUMPI RETURNDATASIZE PUSH1 0x0 DUP1 RETURNDATACOPY RETURNDATASIZE PUSH1 0x0 REVERT JUMPDEST POP POP POP POP PUSH1 0x40 MLOAD RETURNDATASIZE PUSH1 0x1F NOT PUSH1 0x1F DUP3 ADD AND DUP3 ADD DUP1 PUSH1 0x40 MSTORE POP DUP2 ADD SWAP1 PUSH2 0x8B9 SWAP2 SWAP1 PUSH2 0x462F JUMP JUMPDEST SWAP1 POP SWAP1 JUMP JUMPDEST PUSH1 0x60 PUSH2 0x8D8 PUSH1 0x0 DUP1 MLOAD PUSH1 0x20 PUSH2 0x487C DUP4 CODECOPY DUP2 MLOAD SWAP2 MSTORE CALLER PUSH2 0x2F82 JUMP JUMPDEST PUSH2 0x8FD JUMPI PUSH1 0x40 MLOAD PUSH3 0x461BCD PUSH1 0xE5 SHL DUP2 MSTORE PUSH1 0x4 ADD PUSH2 0x8F4 SWAP1 PUSH2 0x4697 JUMP JUMPDEST PUSH1 0x40 MLOAD DUP1 SWAP2 SUB SWAP1 REVERT JUMPDEST PUSH1 0xF SLOAD PUSH1 0x9 SLOAD PUSH1 0x0 JUMPDEST DUP3 DUP2 PUSH2 0xFFFF AND LT ISZERO PUSH2 0xFDC JUMPI PUSH1 0x0 PUSH1 0xF DUP3 PUSH2 0xFFFF AND DUP2 SLOAD DUP2 LT PUSH2 0x92B JUMPI PUSH2 0x92B PUSH2 0x46C5 JUMP JUMPDEST PUSH1 0x0 SWAP2 DUP3 MSTORE PUSH1 0x20 DUP3 KECCAK256 ADD SLOAD PUSH1 0x5 SLOAD PUSH1 0x40 MLOAD PUSH4 0x1FCD2D5 PUSH1 0xE0 SHL DUP2 MSTORE PUSH1 0x1 PUSH1 0x1 PUSH1 0xA0 SHL SUB SWAP3 DUP4 AND PUSH1 0x4 DUP3 ADD DUP2 SWAP1 MSTORE SWAP5 POP SWAP2 AND SWAP1 PUSH4 0x1FCD2D5 SWAP1 PUSH1 0x24 ADD PUSH1 0x20 PUSH1 0x40 MLOAD DUP1 DUP4 SUB DUP2 DUP7 GAS STATICCALL ISZERO DUP1 ISZERO PUSH2 0x983 JUMPI RETURNDATASIZE PUSH1 0x0 DUP1 RETURNDATACOPY RETURNDATASIZE PUSH1 0x0 REVERT JUMPDEST POP POP POP POP PUSH1 0x40 MLOAD RETURNDATASIZE PUSH1 0x1F NOT PUSH1 0x1F DUP3 ADD AND DUP3 ADD DUP1 PUSH1 0x40 MSTORE POP DUP2 ADD SWAP1 PUSH2 0x9A7 SWAP2 SWAP1 PUSH2 0x462F JUMP JUMPDEST PUSH1 0x5 SLOAD PUSH1 0x40 MLOAD PUSH4 0x1D512A91 PUSH1 0xE2 SHL DUP2 MSTORE PUSH1 0x1 PUSH1 0x1 PUSH1 0xA0 SHL SUB DUP6 DUP2 AND PUSH1 0x4 DUP4 ADD MSTORE SWAP3 SWAP4 POP PUSH1 0x0 SWAP3 SWAP1 SWAP2 AND SWAP1 PUSH4 0x7544AA44 SWAP1 PUSH1 0x24 ADD PUSH1 0x20 PUSH1 0x40 MLOAD DUP1 DUP4 SUB DUP2 DUP7 GAS STATICCALL ISZERO DUP1 ISZERO PUSH2 0x9F7 JUMPI RETURNDATASIZE PUSH1 0x0 DUP1 RETURNDATACOPY RETURNDATASIZE PUSH1 0x0 REVERT JUMPDEST POP POP POP POP PUSH1 0x40 MLOAD RETURNDATASIZE PUSH1 0x1F NOT PUSH1 0x1F DUP3 ADD AND DUP3 ADD DUP1 PUSH1 0x40 MSTORE POP DUP2 ADD SWAP1 PUSH2 0xA1B SWAP2 SWAP1 PUSH2 0x462F JUMP JUMPDEST SWAP1 POP PUSH1 0x0 PUSH2 0xA28 DUP5 PUSH2 0x39DA JUMP JUMPDEST SWAP1 POP DUP1 DUP4 LT ISZERO PUSH2 0xF82 JUMPI PUSH1 0x0 JUMPDEST DUP7 DUP2 PUSH2 0xFFFF AND LT ISZERO PUSH2 0xF3F JUMPI PUSH1 0x0 PUSH1 0x9 DUP3 PUSH2 0xFFFF AND DUP2 SLOAD DUP2 LT PUSH2 0xA5A JUMPI PUSH2 0xA5A PUSH2 0x46C5 JUMP JUMPDEST PUSH1 0x0 SWAP2 DUP3 MSTORE PUSH1 0x20 DUP3 KECCAK256 ADD SLOAD PUSH1 0x5 SLOAD PUSH1 0x40 MLOAD PUSH4 0x6829F1B PUSH1 0xE3 SHL DUP2 MSTORE PUSH1 0x1 PUSH1 0x1 PUSH1 0xA0 SHL SUB SWAP3 DUP4 AND PUSH1 0x4 DUP3 ADD DUP2 SWAP1 MSTORE SWAP5 POP SWAP2 AND SWAP1 PUSH4 0x3414F8D8 SWAP1 PUSH1 0x24 ADD PUSH1 0x20 PUSH1 0x40 MLOAD DUP1 DUP4 SUB DUP2 DUP7 GAS STATICCALL ISZERO DUP1 ISZERO PUSH2 0xAB2 JUMPI RETURNDATASIZE PUSH1 0x0 DUP1 RETURNDATACOPY RETURNDATASIZE PUSH1 0x0 REVERT JUMPDEST POP POP POP POP PUSH1 0x40 MLOAD RETURNDATASIZE PUSH1 0x1F NOT PUSH1 0x1F DUP3 ADD AND DUP3 ADD DUP1 PUSH1 0x40 MSTORE POP DUP2 ADD SWAP1 PUSH2 0xAD6 SWAP2 SWAP1 PUSH2 0x462F JUMP JUMPDEST SWAP1 POP PUSH1 0x0 PUSH2 0xAE5 DUP6 DUP4 DUP9 PUSH2 0x3C54 JUMP JUMPDEST SWAP1 POP PUSH1 0x0 PUSH2 0xAF4 DUP7 DUP5 DUP10 PUSH2 0x3CE0 JUMP JUMPDEST PUSH1 0x1 PUSH1 0x1 PUSH1 0xA0 SHL SUB DUP1 DUP7 AND PUSH1 0x0 SWAP1 DUP2 MSTORE PUSH1 0xB PUSH1 0x20 SWAP1 DUP2 MSTORE PUSH1 0x40 DUP1 DUP4 KECCAK256 SWAP4 DUP15 AND DUP4 MSTORE SWAP3 SWAP1 MSTORE KECCAK256 SLOAD SWAP1 SWAP2 POP ISZERO ISZERO DUP1 PUSH2 0xB51 JUMPI POP PUSH1 0x1 PUSH1 0x1 PUSH1 0xA0 SHL SUB DUP1 DUP6 AND PUSH1 0x0 SWAP1 DUP2 MSTORE PUSH1 0xB PUSH1 0x20 SWAP1 DUP2 MSTORE PUSH1 0x40 DUP1 DUP4 KECCAK256 SWAP4 DUP14 AND DUP4 MSTORE SWAP3 SWAP1 MSTORE KECCAK256 PUSH1 0x1 ADD SLOAD ISZERO ISZERO JUMPDEST ISZERO PUSH2 0xCE0 JUMPI PUSH1 0x1 PUSH1 0x1 PUSH1 0xA0 SHL SUB DUP5 DUP2 AND PUSH1 0x0 SWAP1 DUP2 MSTORE PUSH1 0xB PUSH1 0x20 SWAP1 DUP2 MSTORE PUSH1 0x40 DUP1 DUP4 KECCAK256 SWAP4 DUP14 AND DUP4 MSTORE SWAP3 SWAP1 MSTORE SWAP1 DUP2 KECCAK256 DUP1 SLOAD PUSH1 0x1 SWAP1 SWAP2 ADD SLOAD PUSH2 0xB8F SWAP2 SWAP1 PUSH2 0x46DB JUMP JUMPDEST PUSH2 0xBA1 DUP5 PUSH8 0xDE0B6B3A7640000 PUSH2 0x465E JUMP JUMPDEST PUSH2 0xBAB SWAP2 SWAP1 PUSH2 0x46F3 JUMP JUMPDEST PUSH1 0x1 PUSH1 0x1 PUSH1 0xA0 SHL SUB DUP1 DUP8 AND PUSH1 0x0 SWAP1 DUP2 MSTORE PUSH1 0xB PUSH1 0x20 SWAP1 DUP2 MSTORE PUSH1 0x40 DUP1 DUP4 KECCAK256 SWAP4 DUP16 AND DUP4 MSTORE SWAP3 SWAP1 MSTORE KECCAK256 PUSH1 0x1 ADD SLOAD SWAP1 SWAP2 POP PUSH8 0xDE0B6B3A7640000 SWAP1 PUSH2 0xBEC SWAP1 DUP6 SWAP1 PUSH2 0x46F3 JUMP JUMPDEST PUSH2 0xBF6 SWAP2 SWAP1 PUSH2 0x4675 JUMP JUMPDEST PUSH1 0x1 PUSH1 0x1 PUSH1 0xA0 SHL SUB DUP7 DUP2 AND PUSH1 0x0 SWAP1 DUP2 MSTORE PUSH1 0xB PUSH1 0x20 SWAP1 DUP2 MSTORE PUSH1 0x40 DUP1 DUP4 KECCAK256 SWAP4 DUP16 AND DUP4 MSTORE SWAP3 SWAP1 MSTORE KECCAK256 PUSH1 0x1 DUP2 ADD SWAP2 SWAP1 SWAP2 SSTORE SLOAD PUSH8 0xDE0B6B3A7640000 SWAP1 PUSH2 0xC39 SWAP1 DUP6 SWAP1 PUSH2 0x46F3 JUMP JUMPDEST PUSH2 0xC43 SWAP2 SWAP1 PUSH2 0x4675 JUMP JUMPDEST PUSH1 0x1 PUSH1 0x1 PUSH1 0xA0 SHL SUB DUP1 DUP8 AND PUSH1 0x0 SWAP1 DUP2 MSTORE PUSH1 0xB PUSH1 0x20 SWAP1 DUP2 MSTORE PUSH1 0x40 DUP1 DUP4 KECCAK256 DUP16 DUP6 AND DUP5 MSTORE SWAP1 SWAP2 MSTORE SWAP1 DUP2 SWAP1 KECCAK256 SWAP3 SWAP1 SWAP3 SSTORE PUSH1 0x4 DUP1 SLOAD SWAP3 MLOAD PUSH4 0x5EA58017 PUSH1 0xE1 SHL DUP2 MSTORE SWAP3 SWAP1 SWAP2 AND SWAP2 PUSH4 0xBD4B002E SWAP2 PUSH2 0xCAC SWAP2 DUP10 SWAP2 DUP7 SWAP2 ADD PUSH1 0x1 PUSH1 0x1 PUSH1 0xA0 SHL SUB SWAP3 SWAP1 SWAP3 AND DUP3 MSTORE PUSH1 0x20 DUP3 ADD MSTORE PUSH1 0x40 ADD SWAP1 JUMP JUMPDEST PUSH1 0x0 PUSH1 0x40 MLOAD DUP1 DUP4 SUB DUP2 PUSH1 0x0 DUP8 DUP1 EXTCODESIZE ISZERO DUP1 ISZERO PUSH2 0xCC6 JUMPI PUSH1 0x0 DUP1 REVERT JUMPDEST POP GAS CALL ISZERO DUP1 ISZERO PUSH2 0xCDA JUMPI RETURNDATASIZE PUSH1 0x0 DUP1 RETURNDATACOPY RETURNDATASIZE PUSH1 0x0 REVERT JUMPDEST POP POP POP POP POP JUMPDEST PUSH1 0x5 SLOAD PUSH1 0x40 MLOAD PUSH4 0x2B92A07D PUSH1 0xE0 SHL DUP2 MSTORE PUSH1 0x1 PUSH1 0x1 PUSH1 0xA0 SHL SUB DUP12 DUP2 AND PUSH1 0x4 DUP4 ADD MSTORE DUP7 DUP2 AND PUSH1 0x24 DUP4 ADD MSTORE PUSH1 0x0 SWAP3 AND SWAP1 PUSH4 0x2B92A07D SWAP1 PUSH1 0x44 ADD PUSH1 0x20 PUSH1 0x40 MLOAD DUP1 DUP4 SUB DUP2 DUP7 GAS STATICCALL ISZERO DUP1 ISZERO PUSH2 0xD33 JUMPI RETURNDATASIZE PUSH1 0x0 DUP1 RETURNDATACOPY RETURNDATASIZE PUSH1 0x0 REVERT JUMPDEST POP POP POP POP PUSH1 0x40 MLOAD RETURNDATASIZE PUSH1 0x1F NOT PUSH1 0x1F DUP3 ADD AND DUP3 ADD DUP1 PUSH1 0x40 MSTORE POP DUP2 ADD SWAP1 PUSH2 0xD57 SWAP2 SWAP1 PUSH2 0x462F JUMP JUMPDEST GT ISZERO PUSH2 0xEC7 JUMPI PUSH1 0x5 SLOAD PUSH1 0x40 MLOAD PUSH4 0x2B92A07D PUSH1 0xE0 SHL DUP2 MSTORE PUSH1 0x1 PUSH1 0x1 PUSH1 0xA0 SHL SUB DUP12 DUP2 AND PUSH1 0x4 DUP4 ADD MSTORE DUP7 DUP2 AND PUSH1 0x24 DUP4 ADD MSTORE PUSH1 0x0 SWAP3 PUSH8 0xDE0B6B3A7640000 SWAP3 DUP6 SWAP3 SWAP1 SWAP2 AND SWAP1 PUSH4 0x2B92A07D SWAP1 PUSH1 0x44 ADD PUSH1 0x20 PUSH1 0x40 MLOAD DUP1 DUP4 SUB DUP2 DUP7 GAS STATICCALL ISZERO DUP1 ISZERO PUSH2 0xDBE JUMPI RETURNDATASIZE PUSH1 0x0 DUP1 RETURNDATACOPY RETURNDATASIZE PUSH1 0x0 REVERT JUMPDEST POP POP POP POP PUSH1 0x40 MLOAD RETURNDATASIZE PUSH1 0x1F NOT PUSH1 0x1F DUP3 ADD AND DUP3 ADD DUP1 PUSH1 0x40 MSTORE POP DUP2 ADD SWAP1 PUSH2 0xDE2 SWAP2 SWAP1 PUSH2 0x462F JUMP JUMPDEST PUSH2 0xDEC SWAP2 SWAP1 PUSH2 0x46F3 JUMP JUMPDEST PUSH2 0xDF6 SWAP2 SWAP1 PUSH2 0x4675 JUMP JUMPDEST PUSH1 0x5 SLOAD PUSH1 0x40 MLOAD PUSH4 0x12772BB PUSH1 0xE5 SHL DUP2 MSTORE SWAP2 SWAP3 POP PUSH1 0x1 PUSH1 0x1 PUSH1 0xA0 SHL SUB AND SWAP1 PUSH4 0x24EE5760 SWAP1 PUSH2 0xE2B SWAP1 DUP14 SWAP1 DUP10 SWAP1 DUP7 SWAP1 PUSH1 0x4 ADD PUSH2 0x4712 JUMP JUMPDEST PUSH1 0x0 PUSH1 0x40 MLOAD DUP1 DUP4 SUB DUP2 PUSH1 0x0 DUP8 DUP1 EXTCODESIZE ISZERO DUP1 ISZERO PUSH2 0xE45 JUMPI PUSH1 0x0 DUP1 REVERT JUMPDEST POP GAS CALL ISZERO DUP1 ISZERO PUSH2 0xE59 JUMPI RETURNDATASIZE PUSH1 0x0 DUP1 RETURNDATACOPY RETURNDATASIZE PUSH1 0x0 REVERT JUMPDEST POP POP PUSH1 0x4 DUP1 SLOAD PUSH1 0x40 MLOAD PUSH4 0x176FA51B PUSH1 0xE3 SHL DUP2 MSTORE PUSH1 0x1 PUSH1 0x1 PUSH1 0xA0 SHL SUB DUP11 DUP2 AND SWAP4 DUP3 ADD SWAP4 SWAP1 SWAP4 MSTORE PUSH1 0x24 DUP2 ADD DUP7 SWAP1 MSTORE SWAP2 AND SWAP3 POP PUSH4 0xBB7D28D8 SWAP2 POP PUSH1 0x44 ADD PUSH1 0x0 PUSH1 0x40 MLOAD DUP1 DUP4 SUB DUP2 PUSH1 0x0 DUP8 DUP1 EXTCODESIZE ISZERO DUP1 ISZERO PUSH2 0xEAD JUMPI PUSH1 0x0 DUP1 REVERT JUMPDEST POP GAS CALL ISZERO DUP1 ISZERO PUSH2 0xEC1 JUMPI RETURNDATASIZE PUSH1 0x0 DUP1 RETURNDATACOPY RETURNDATASIZE PUSH1 0x0 REVERT JUMPDEST POP POP POP POP POP JUMPDEST PUSH1 0x4 DUP1 SLOAD PUSH1 0x40 MLOAD PUSH4 0x7E6E1DD9 PUSH1 0xE0 SHL DUP2 MSTORE PUSH1 0x1 PUSH1 0x1 PUSH1 0xA0 SHL SUB DUP8 DUP2 AND SWAP4 DUP3 ADD SWAP4 SWAP1 SWAP4 MSTORE SWAP2 AND SWAP1 PUSH4 0x7E6E1DD9 SWAP1 PUSH1 0x24 ADD PUSH1 0x0 PUSH1 0x40 MLOAD DUP1 DUP4 SUB DUP2 PUSH1 0x0 DUP8 DUP1 EXTCODESIZE ISZERO DUP1 ISZERO PUSH2 0xF10 JUMPI PUSH1 0x0 DUP1 REVERT JUMPDEST POP GAS CALL ISZERO DUP1 ISZERO PUSH2 0xF24 JUMPI RETURNDATASIZE PUSH1 0x0 DUP1 RETURNDATACOPY RETURNDATASIZE PUSH1 0x0 REVERT JUMPDEST POP POP POP POP POP POP POP POP DUP1 DUP1 PUSH2 0xF37 SWAP1 PUSH2 0x4736 JUMP JUMPDEST SWAP2 POP POP PUSH2 0xA35 JUMP JUMPDEST POP PUSH1 0x40 MLOAD DUP1 PUSH1 0x40 ADD PUSH1 0x40 MSTORE DUP1 PUSH1 0x19 DUP2 MSTORE PUSH1 0x20 ADD PUSH32 0x4C6F616E205061727469616C6C79204C69717569646174656400000000000000 DUP2 MSTORE POP SWAP8 POP POP POP POP POP POP POP POP SWAP1 JUMP JUMPDEST PUSH1 0x64 PUSH2 0xF8F DUP3 PUSH1 0x69 PUSH2 0x46F3 JUMP JUMPDEST PUSH2 0xF99 SWAP2 SWAP1 PUSH2 0x4675 JUMP JUMPDEST DUP4 LT ISZERO PUSH2 0xFC5 JUMPI PUSH1 0x40 MLOAD DUP1 PUSH1 0x60 ADD PUSH1 0x40 MSTORE DUP1 PUSH1 0x3E DUP2 MSTORE PUSH1 0x20 ADD PUSH2 0x483E PUSH1 0x3E SWAP2 CODECOPY SWAP8 POP POP POP POP POP POP POP POP SWAP1 JUMP JUMPDEST POP POP POP POP DUP1 DUP1 PUSH2 0xFD4 SWAP1 PUSH2 0x4736 JUMP JUMPDEST SWAP2 POP POP PUSH2 0x906 JUMP JUMPDEST POP POP POP SWAP1 JUMP JUMPDEST PUSH2 0xFFA PUSH1 0x0 DUP1 MLOAD PUSH1 0x20 PUSH2 0x487C DUP4 CODECOPY DUP2 MLOAD SWAP2 MSTORE CALLER PUSH2 0x2F82 JUMP JUMPDEST PUSH2 0x1016 JUMPI PUSH1 0x40 MLOAD PUSH3 0x461BCD PUSH1 0xE5 SHL DUP2 MSTORE PUSH1 0x4 ADD PUSH2 0x8F4 SWAP1 PUSH2 0x4697 JUMP JUMPDEST PUSH2 0x101E PUSH2 0x3D4F JUMP JUMPDEST PUSH1 0x9 SLOAD PUSH1 0x0 JUMPDEST DUP2 DUP2 PUSH2 0xFFFF AND LT ISZERO PUSH2 0x14A8 JUMPI PUSH1 0x0 PUSH1 0x9 DUP3 PUSH2 0xFFFF AND DUP2 SLOAD DUP2 LT PUSH2 0x1049 JUMPI PUSH2 0x1049 PUSH2 0x46C5 JUMP JUMPDEST PUSH1 0x0 SWAP2 DUP3 MSTORE PUSH1 0x20 DUP3 KECCAK256 ADD SLOAD PUSH1 0x1 PUSH1 0x1 PUSH1 0xA0 SHL SUB AND SWAP2 POP PUSH2 0x1068 DUP3 PUSH2 0x3F19 JUMP JUMPDEST PUSH1 0x4 DUP1 SLOAD PUSH1 0x40 MLOAD PUSH4 0x5C88F5A5 PUSH1 0xE0 SHL DUP2 MSTORE PUSH1 0x1 PUSH1 0x1 PUSH1 0xA0 SHL SUB DUP7 DUP2 AND SWAP4 DUP3 ADD SWAP4 SWAP1 SWAP4 MSTORE SWAP3 SWAP4 POP PUSH1 0x0 SWAP3 SWAP2 AND SWAP1 PUSH4 0x5C88F5A5 SWAP1 PUSH1 0x24 ADD PUSH1 0x20 PUSH1 0x40 MLOAD DUP1 DUP4 SUB DUP2 DUP7 GAS STATICCALL ISZERO DUP1 ISZERO PUSH2 0x10BA JUMPI RETURNDATASIZE PUSH1 0x0 DUP1 RETURNDATACOPY RETURNDATASIZE PUSH1 0x0 REVERT JUMPDEST POP POP POP POP PUSH1 0x40 MLOAD RETURNDATASIZE PUSH1 0x1F NOT PUSH1 0x1F DUP3 ADD AND DUP3 ADD DUP1 PUSH1 0x40 MSTORE POP DUP2 ADD SWAP1 PUSH2 0x10DE SWAP2 SWAP1 PUSH2 0x462F JUMP JUMPDEST PUSH1 0x1 PUSH1 0x1 PUSH1 0xA0 SHL SUB DUP5 AND PUSH1 0x0 SWAP1 DUP2 MSTORE PUSH1 0x11 PUSH1 0x20 MSTORE PUSH1 0x40 DUP2 KECCAK256 SLOAD SWAP2 SWAP3 POP JUMPDEST DUP2 DUP2 PUSH2 0xFFFF AND LT ISZERO PUSH2 0x142F JUMPI PUSH1 0x1 PUSH1 0x1 PUSH1 0xA0 SHL SUB DUP6 AND PUSH1 0x0 SWAP1 DUP2 MSTORE PUSH1 0x11 PUSH1 0x20 MSTORE PUSH1 0x40 DUP2 KECCAK256 DUP1 SLOAD PUSH2 0xFFFF DUP5 AND SWAP1 DUP2 LT PUSH2 0x1135 JUMPI PUSH2 0x1135 PUSH2 0x46C5 JUMP JUMPDEST PUSH1 0x0 SWAP2 DUP3 MSTORE PUSH1 0x20 SWAP1 SWAP2 KECCAK256 ADD SLOAD PUSH1 0x6 SLOAD PUSH1 0x40 MLOAD PUSH4 0x70A08231 PUSH1 0xE0 SHL DUP2 MSTORE PUSH1 0x1 PUSH1 0x1 PUSH1 0xA0 SHL SUB SWAP3 DUP4 AND PUSH1 0x4 DUP3 ADD DUP2 SWAP1 MSTORE SWAP4 POP PUSH7 0x2386F26FC10000 SWAP3 SWAP1 SWAP2 AND SWAP1 PUSH4 0x70A08231 SWAP1 PUSH1 0x24 ADD PUSH1 0x20 PUSH1 0x40 MLOAD DUP1 DUP4 SUB DUP2 DUP7 GAS STATICCALL ISZERO DUP1 ISZERO PUSH2 0x1198 JUMPI RETURNDATASIZE PUSH1 0x0 DUP1 RETURNDATACOPY RETURNDATASIZE PUSH1 0x0 REVERT JUMPDEST POP POP POP POP PUSH1 0x40 MLOAD RETURNDATASIZE PUSH1 0x1F NOT PUSH1 0x1F DUP3 ADD AND DUP3 ADD DUP1 PUSH1 0x40 MSTORE POP DUP2 ADD SWAP1 PUSH2 0x11BC SWAP2 SWAP1 PUSH2 0x462F JUMP JUMPDEST LT ISZERO PUSH2 0x1208 JUMPI PUSH1 0x1 PUSH1 0x1 PUSH1 0xA0 SHL SUB DUP1 DUP3 AND PUSH1 0x0 DUP2 DUP2 MSTORE PUSH1 0x8 PUSH1 0x20 SWAP1 DUP2 MSTORE PUSH1 0x40 DUP1 DUP4 KECCAK256 DUP4 SWAP1 SSTORE SWAP4 DUP11 AND DUP3 MSTORE PUSH1 0xC DUP2 MSTORE DUP4 DUP3 KECCAK256 SWAP3 DUP3 MSTORE SWAP2 SWAP1 SWAP2 MSTORE SWAP1 DUP2 KECCAK256 SSTORE PUSH2 0x1201 DUP7 PUSH2 0x3F19 JUMP JUMPDEST SWAP5 POP PUSH2 0x141C JUMP JUMPDEST PUSH1 0x1 PUSH1 0x1 PUSH1 0xA0 SHL SUB DUP2 DUP2 AND PUSH1 0x0 DUP2 DUP2 MSTORE PUSH1 0x8 PUSH1 0x20 MSTORE PUSH1 0x40 DUP1 DUP3 KECCAK256 SLOAD PUSH1 0x6 SLOAD SWAP2 MLOAD PUSH4 0x70A08231 PUSH1 0xE0 SHL DUP2 MSTORE PUSH1 0x4 DUP2 ADD SWAP5 SWAP1 SWAP5 MSTORE SWAP2 SWAP4 SWAP2 SWAP3 SWAP2 AND SWAP1 PUSH4 0x70A08231 SWAP1 PUSH1 0x24 ADD PUSH1 0x20 PUSH1 0x40 MLOAD DUP1 DUP4 SUB DUP2 DUP7 GAS STATICCALL ISZERO DUP1 ISZERO PUSH2 0x1267 JUMPI RETURNDATASIZE PUSH1 0x0 DUP1 RETURNDATACOPY RETURNDATASIZE PUSH1 0x0 REVERT JUMPDEST POP POP POP POP PUSH1 0x40 MLOAD RETURNDATASIZE PUSH1 0x1F NOT PUSH1 0x1F DUP3 ADD AND DUP3 ADD DUP1 PUSH1 0x40 MSTORE POP DUP2 ADD SWAP1 PUSH2 0x128B SWAP2 SWAP1 PUSH2 0x462F JUMP JUMPDEST PUSH2 0x129D SWAP1 PUSH8 0xDE0B6B3A7640000 PUSH2 0x46F3 JUMP JUMPDEST PUSH2 0x12A7 SWAP2 SWAP1 PUSH2 0x4675 JUMP JUMPDEST PUSH1 0x1 PUSH1 0x1 PUSH1 0xA0 SHL SUB DUP1 DUP10 AND PUSH1 0x0 SWAP1 DUP2 MSTORE PUSH1 0xC PUSH1 0x20 SWAP1 DUP2 MSTORE PUSH1 0x40 DUP1 DUP4 KECCAK256 SWAP4 DUP8 AND DUP4 MSTORE SWAP3 SWAP1 MSTORE SWAP1 DUP2 KECCAK256 SLOAD SWAP2 SWAP3 POP SWAP1 DUP8 SWAP1 PUSH2 0x12E7 SWAP1 PUSH8 0xDE0B6B3A7640000 PUSH2 0x46F3 JUMP JUMPDEST PUSH2 0x12F1 SWAP2 SWAP1 PUSH2 0x4675 JUMP JUMPDEST SWAP1 POP PUSH1 0x0 PUSH15 0xC097CE7BC90715B34B9F1000000000 DUP8 PUSH2 0x1310 DUP5 DUP7 PUSH2 0x46F3 JUMP JUMPDEST PUSH2 0x131A SWAP2 SWAP1 PUSH2 0x46F3 JUMP JUMPDEST PUSH2 0x1324 SWAP2 SWAP1 PUSH2 0x4675 JUMP JUMPDEST PUSH1 0x6 SLOAD PUSH1 0x40 MLOAD PUSH4 0xD4D1513 PUSH1 0xE0 SHL DUP2 MSTORE PUSH1 0x1 PUSH1 0x1 PUSH1 0xA0 SHL SUB DUP8 DUP2 AND PUSH1 0x4 DUP4 ADD MSTORE PUSH1 0x24 DUP3 ADD DUP5 SWAP1 MSTORE DUP13 DUP2 AND PUSH1 0x44 DUP4 ADD MSTORE SWAP3 SWAP4 POP PUSH1 0x0 SWAP3 SWAP1 SWAP2 AND SWAP1 PUSH4 0xD4D1513 SWAP1 PUSH1 0x64 ADD PUSH1 0x20 PUSH1 0x40 MLOAD DUP1 DUP4 SUB DUP2 PUSH1 0x0 DUP8 GAS CALL ISZERO DUP1 ISZERO PUSH2 0x1385 JUMPI RETURNDATASIZE PUSH1 0x0 DUP1 RETURNDATACOPY RETURNDATASIZE PUSH1 0x0 REVERT JUMPDEST POP POP POP POP PUSH1 0x40 MLOAD RETURNDATASIZE PUSH1 0x1F NOT PUSH1 0x1F DUP3 ADD AND DUP3 ADD DUP1 PUSH1 0x40 MSTORE POP DUP2 ADD SWAP1 PUSH2 0x13A9 SWAP2 SWAP1 PUSH2 0x462F JUMP JUMPDEST PUSH1 0x1 PUSH1 0x1 PUSH1 0xA0 SHL SUB DUP7 AND PUSH1 0x0 SWAP1 DUP2 MSTORE PUSH1 0x8 PUSH1 0x20 MSTORE PUSH1 0x40 DUP2 KECCAK256 DUP1 SLOAD SWAP3 SWAP4 POP DUP4 SWAP3 SWAP1 SWAP2 SWAP1 PUSH2 0x13D6 SWAP1 DUP5 SWAP1 PUSH2 0x46DB JUMP JUMPDEST SWAP1 SWAP2 SSTORE POP POP PUSH1 0x1 PUSH1 0x1 PUSH1 0xA0 SHL SUB DUP1 DUP12 AND PUSH1 0x0 SWAP1 DUP2 MSTORE PUSH1 0xC PUSH1 0x20 SWAP1 DUP2 MSTORE PUSH1 0x40 DUP1 DUP4 KECCAK256 SWAP4 DUP10 AND DUP4 MSTORE SWAP3 SWAP1 MSTORE SWAP1 DUP2 KECCAK256 DUP1 SLOAD DUP5 SWAP3 SWAP1 PUSH2 0x1412 SWAP1 DUP5 SWAP1 PUSH2 0x46DB JUMP JUMPDEST SWAP1 SWAP2 SSTORE POP POP POP POP POP POP JUMPDEST POP DUP1 PUSH2 0x1427 DUP2 PUSH2 0x4736 JUMP JUMPDEST SWAP2 POP POP PUSH2 0x10FB JUMP JUMPDEST POP PUSH1 0x4 DUP1 SLOAD PUSH1 0x40 MLOAD PUSH4 0x23D0AAB1 PUSH1 0xE0 SHL DUP2 MSTORE PUSH1 0x1 PUSH1 0x1 PUSH1 0xA0 SHL SUB DUP8 DUP2 AND SWAP4 DUP3 ADD SWAP4 SWAP1 SWAP4 MSTORE SWAP2 AND SWAP1 PUSH4 0x23D0AAB1 SWAP1 PUSH1 0x24 ADD PUSH1 0x0 PUSH1 0x40 MLOAD DUP1 DUP4 SUB DUP2 PUSH1 0x0 DUP8 DUP1 EXTCODESIZE ISZERO DUP1 ISZERO PUSH2 0x1479 JUMPI PUSH1 0x0 DUP1 REVERT JUMPDEST POP GAS CALL ISZERO DUP1 ISZERO PUSH2 0x148D JUMPI RETURNDATASIZE PUSH1 0x0 DUP1 RETURNDATACOPY RETURNDATASIZE PUSH1 0x0 REVERT JUMPDEST POP POP POP POP POP POP POP POP DUP1 DUP1 PUSH2 0x14A0 SWAP1 PUSH2 0x4736 JUMP JUMPDEST SWAP2 POP POP PUSH2 0x1024 JUMP JUMPDEST POP POP JUMP JUMPDEST PUSH1 0x4 DUP1 SLOAD PUSH1 0x2 SLOAD PUSH1 0x40 MLOAD PUSH4 0x480F06F5 PUSH1 0xE1 SHL DUP2 MSTORE PUSH1 0x0 SWAP4 PUSH1 0x1 PUSH1 0x1 PUSH1 0xA0 SHL SUB SWAP1 SWAP4 AND SWAP3 PUSH4 0x901E0DEA SWAP3 PUSH2 0x72B SWAP3 DUP8 SWAP3 ADD PUSH1 0x1 PUSH1 0x1 PUSH1 0xA0 SHL SUB SWAP3 SWAP1 SWAP3 AND DUP3 MSTORE PUSH1 0x20 DUP3 ADD MSTORE PUSH1 0x40 ADD SWAP1 JUMP JUMPDEST PUSH1 0x4 DUP1 SLOAD PUSH1 0x2 SLOAD PUSH1 0x40 MLOAD PUSH4 0xA150FB5F PUSH1 0xE0 SHL DUP2 MSTORE SWAP3 DUP4 ADD MSTORE PUSH1 0x0 SWAP2 PUSH1 0x1 PUSH1 0x1 PUSH1 0xA0 SHL SUB SWAP1 SWAP2 AND SWAP1 PUSH4 0xA150FB5F SWAP1 PUSH1 0x24 ADD PUSH1 0x20 PUSH1 0x40 MLOAD DUP1 DUP4 SUB DUP2 DUP7 GAS STATICCALL ISZERO DUP1 ISZERO PUSH2 0x895 JUMPI RETURNDATASIZE PUSH1 0x0 DUP1 RETURNDATACOPY RETURNDATASIZE PUSH1 0x0 REVERT JUMPDEST PUSH1 0x0 DUP3 DUP2 MSTORE PUSH1 0x20 DUP2 SWAP1 MSTORE PUSH1 0x40 SWAP1 KECCAK256 PUSH1 0x1 ADD SLOAD PUSH2 0x155E DUP2 CALLER PUSH2 0x3FC7 JUMP JUMPDEST PUSH2 0x1568 DUP4 DUP4 PUSH2 0x402B JUMP JUMPDEST POP POP POP JUMP JUMPDEST PUSH1 0x1 PUSH1 0x1 PUSH1 0xA0 SHL SUB DUP2 AND CALLER EQ PUSH2 0x15DD JUMPI PUSH1 0x40 MLOAD PUSH3 0x461BCD PUSH1 0xE5 SHL DUP2 MSTORE PUSH1 0x20 PUSH1 0x4 DUP3 ADD MSTORE PUSH1 0x2F PUSH1 0x24 DUP3 ADD MSTORE PUSH32 0x416363657373436F6E74726F6C3A2063616E206F6E6C792072656E6F756E6365 PUSH1 0x44 DUP3 ADD MSTORE PUSH15 0x103937B632B9903337B91039B2B633 PUSH1 0x89 SHL PUSH1 0x64 DUP3 ADD MSTORE PUSH1 0x84 ADD PUSH2 0x8F4 JUMP JUMPDEST PUSH2 0x14A8 DUP3 DUP3 PUSH2 0x404D JUMP JUMPDEST PUSH1 0x1 PUSH1 0x1 PUSH1 0xA0 SHL SUB DUP4 AND PUSH1 0x0 SWAP1 DUP2 MSTORE PUSH1 0xA PUSH1 0x20 MSTORE PUSH1 0x40 SWAP1 KECCAK256 SLOAD PUSH1 0xFF AND PUSH2 0x161F JUMPI PUSH1 0x40 MLOAD PUSH3 0x461BCD PUSH1 0xE5 SHL DUP2 MSTORE PUSH1 0x4 ADD PUSH2 0x8F4 SWAP1 PUSH2 0x4758 JUMP JUMPDEST PUSH1 0x1 PUSH1 0x1 PUSH1 0xA0 SHL SUB DUP2 AND PUSH1 0x0 SWAP1 DUP2 MSTORE PUSH1 0xA PUSH1 0x20 MSTORE PUSH1 0x40 SWAP1 KECCAK256 SLOAD PUSH1 0xFF AND PUSH2 0x1657 JUMPI PUSH1 0x40 MLOAD PUSH3 0x461BCD PUSH1 0xE5 SHL DUP2 MSTORE PUSH1 0x4 ADD PUSH2 0x8F4 SWAP1 PUSH2 0x4758 JUMP JUMPDEST PUSH1 0x4 DUP1 SLOAD PUSH1 0x40 MLOAD PUSH4 0xFCE3E8E7 PUSH1 0xE0 SHL DUP2 MSTORE PUSH1 0x1 PUSH1 0x1 PUSH1 0xA0 SHL SUB DUP7 DUP2 AND SWAP4 DUP3 ADD SWAP4 SWAP1 SWAP4 MSTORE SWAP2 AND SWAP1 PUSH4 0xFCE3E8E7 SWAP1 PUSH1 0x24 ADD PUSH1 0x20 PUSH1 0x40 MLOAD DUP1 DUP4 SUB DUP2 DUP7 GAS STATICCALL ISZERO DUP1 ISZERO PUSH2 0x16A3 JUMPI RETURNDATASIZE PUSH1 0x0 DUP1 RETURNDATACOPY RETURNDATASIZE PUSH1 0x0 REVERT JUMPDEST POP POP POP POP PUSH1 0x40 MLOAD RETURNDATASIZE PUSH1 0x1F NOT PUSH1 0x1F DUP3 ADD AND DUP3 ADD DUP1 PUSH1 0x40 MSTORE POP DUP2 ADD SWAP1 PUSH2 0x16C7 SWAP2 SWAP1 PUSH2 0x462F JUMP JUMPDEST DUP5 GT ISZERO PUSH2 0x1716 JUMPI PUSH1 0x40 MLOAD PUSH3 0x461BCD PUSH1 0xE5 SHL DUP2 MSTORE PUSH1 0x20 PUSH1 0x4 DUP3 ADD MSTORE PUSH1 0x1E PUSH1 0x24 DUP3 ADD MSTORE PUSH32 0x6E6F7420656E6F756768206C697175696469747920746F20626F72726F770000 PUSH1 0x44 DUP3 ADD MSTORE PUSH1 0x64 ADD PUSH2 0x8F4 JUMP JUMPDEST PUSH2 0x171E PUSH2 0x3D4F JUMP JUMPDEST PUSH1 0x5 SLOAD PUSH1 0x40 MLOAD PUSH4 0x1FCD2D5 PUSH1 0xE0 SHL DUP2 MSTORE CALLER PUSH1 0x4 DUP3 ADD MSTORE PUSH1 0x0 SWAP2 PUSH1 0x1 PUSH1 0x1 PUSH1 0xA0 SHL SUB AND SWAP1 PUSH4 0x1FCD2D5 SWAP1 PUSH1 0x24 ADD PUSH1 0x20 PUSH1 0x40 MLOAD DUP1 DUP4 SUB DUP2 DUP7 GAS STATICCALL ISZERO DUP1 ISZERO PUSH2 0x1767 JUMPI RETURNDATASIZE PUSH1 0x0 DUP1 RETURNDATACOPY RETURNDATASIZE PUSH1 0x0 REVERT JUMPDEST POP POP POP POP PUSH1 0x40 MLOAD RETURNDATASIZE PUSH1 0x1F NOT PUSH1 0x1F DUP3 ADD AND DUP3 ADD DUP1 PUSH1 0x40 MSTORE POP DUP2 ADD SWAP1 PUSH2 0x178B SWAP2 SWAP1 PUSH2 0x462F JUMP JUMPDEST PUSH1 0x5 SLOAD PUSH1 0x40 MLOAD PUSH4 0x6829F1B PUSH1 0xE3 SHL DUP2 MSTORE PUSH1 0x1 PUSH1 0x1 PUSH1 0xA0 SHL SUB DUP6 DUP2 AND PUSH1 0x4 DUP4 ADD MSTORE SWAP1 SWAP2 AND SWAP1 PUSH4 0x3414F8D8 SWAP1 PUSH1 0x24 ADD PUSH1 0x20 PUSH1 0x40 MLOAD DUP1 DUP4 SUB DUP2 DUP7 GAS STATICCALL ISZERO DUP1 ISZERO PUSH2 0x17D5 JUMPI RETURNDATASIZE PUSH1 0x0 DUP1 RETURNDATACOPY RETURNDATASIZE PUSH1 0x0 REVERT JUMPDEST POP POP POP POP PUSH1 0x40 MLOAD RETURNDATASIZE PUSH1 0x1F NOT PUSH1 0x1F DUP3 ADD AND DUP3 ADD DUP1 PUSH1 0x40 MSTORE POP DUP2 ADD SWAP1 PUSH2 0x17F9 SWAP2 SWAP1 PUSH2 0x462F JUMP JUMPDEST PUSH1 0x3 SLOAD PUSH1 0x40 MLOAD PUSH4 0x41976E09 PUSH1 0xE0 SHL DUP2 MSTORE PUSH1 0x1 PUSH1 0x1 PUSH1 0xA0 SHL SUB DUP7 DUP2 AND PUSH1 0x4 DUP4 ADD MSTORE DUP8 SWAP3 AND SWAP1 PUSH4 0x41976E09 SWAP1 PUSH1 0x24 ADD PUSH1 0x20 PUSH1 0x40 MLOAD DUP1 DUP4 SUB DUP2 DUP7 GAS STATICCALL ISZERO DUP1 ISZERO PUSH2 0x1843 JUMPI RETURNDATASIZE PUSH1 0x0 DUP1 RETURNDATACOPY RETURNDATASIZE PUSH1 0x0 REVERT JUMPDEST POP POP POP POP PUSH1 0x40 MLOAD RETURNDATASIZE PUSH1 0x1F NOT PUSH1 0x1F DUP3 ADD AND DUP3 ADD DUP1 PUSH1 0x40 MSTORE POP DUP2 ADD SWAP1 PUSH2 0x1867 SWAP2 SWAP1 PUSH2 0x462F JUMP JUMPDEST PUSH2 0x1871 SWAP2 SWAP1 PUSH2 0x46F3 JUMP JUMPDEST PUSH2 0x187B SWAP2 SWAP1 PUSH2 0x4675 JUMP JUMPDEST PUSH2 0x1885 SWAP2 SWAP1 PUSH2 0x46DB JUMP JUMPDEST SWAP1 POP PUSH1 0x0 PUSH2 0x1892 CALLER PUSH2 0x39DA JUMP JUMPDEST PUSH1 0x3 SLOAD PUSH1 0x40 MLOAD PUSH4 0x41976E09 PUSH1 0xE0 SHL DUP2 MSTORE PUSH1 0x1 PUSH1 0x1 PUSH1 0xA0 SHL SUB DUP9 DUP2 AND PUSH1 0x4 DUP4 ADD MSTORE PUSH8 0xDE0B6B3A7640000 SWAP3 DUP11 SWAP3 SWAP2 AND SWAP1 PUSH4 0x41976E09 SWAP1 PUSH1 0x24 ADD PUSH1 0x20 PUSH1 0x40 MLOAD DUP1 DUP4 SUB DUP2 DUP7 GAS STATICCALL ISZERO DUP1 ISZERO PUSH2 0x18E7 JUMPI RETURNDATASIZE PUSH1 0x0 DUP1 RETURNDATACOPY RETURNDATASIZE PUSH1 0x0 REVERT JUMPDEST POP POP POP POP PUSH1 0x40 MLOAD RETURNDATASIZE PUSH1 0x1F NOT PUSH1 0x1F DUP3 ADD AND DUP3 ADD DUP1 PUSH1 0x40 MSTORE POP DUP2 ADD SWAP1 PUSH2 0x190B SWAP2 SWAP1 PUSH2 0x462F JUMP JUMPDEST PUSH2 0x1915 SWAP2 SWAP1 PUSH2 0x46F3 JUMP JUMPDEST PUSH2 0x191F SWAP2 SWAP1 PUSH2 0x4675 JUMP JUMPDEST PUSH2 0x1929 SWAP2 SWAP1 PUSH2 0x46DB JUMP JUMPDEST SWAP1 POP DUP1 DUP3 LT ISZERO PUSH2 0x197B JUMPI PUSH1 0x40 MLOAD PUSH3 0x461BCD PUSH1 0xE5 SHL DUP2 MSTORE PUSH1 0x20 PUSH1 0x4 DUP3 ADD MSTORE PUSH1 0x1F PUSH1 0x24 DUP3 ADD MSTORE PUSH32 0x6E6F7420656E6F75676820636F6C6C61746572616C20746F20626F72726F7700 PUSH1 0x44 DUP3 ADD MSTORE PUSH1 0x64 ADD PUSH2 0x8F4 JUMP JUMPDEST PUSH1 0x5 SLOAD PUSH1 0x40 MLOAD PUSH4 0xF970C3B7 PUSH1 0xE0 SHL DUP2 MSTORE PUSH1 0x1 PUSH1 0x1 PUSH1 0xA0 SHL SUB SWAP1 SWAP2 AND SWAP1 PUSH4 0xF970C3B7 SWAP1 PUSH2 0x19AF SWAP1 CALLER SWAP1 DUP8 SWAP1 DUP10 SWAP1 PUSH1 0x4 ADD PUSH2 0x4712 JUMP JUMPDEST PUSH1 0x0 PUSH1 0x40 MLOAD DUP1 DUP4 SUB DUP2 PUSH1 0x0 DUP8 DUP1 EXTCODESIZE ISZERO DUP1 ISZERO PUSH2 0x19C9 JUMPI PUSH1 0x0 DUP1 REVERT JUMPDEST POP GAS CALL ISZERO DUP1 ISZERO PUSH2 0x19DD JUMPI RETURNDATASIZE PUSH1 0x0 DUP1 RETURNDATACOPY RETURNDATASIZE PUSH1 0x0 REVERT JUMPDEST POP POP POP POP PUSH1 0x0 DUP7 GT ISZERO PUSH2 0x1BE3 JUMPI PUSH1 0x4 DUP1 SLOAD PUSH1 0x40 MLOAD PUSH4 0xFC4F78B9 PUSH1 0xE0 SHL DUP2 MSTORE PUSH1 0x1 PUSH1 0x1 PUSH1 0xA0 SHL SUB SWAP1 SWAP2 AND SWAP2 PUSH4 0xFC4F78B9 SWAP2 PUSH2 0x1A1D SWAP2 CALLER SWAP2 DUP11 SWAP2 DUP13 SWAP2 ADD PUSH2 0x4712 JUMP JUMPDEST PUSH1 0x0 PUSH1 0x40 MLOAD DUP1 DUP4 SUB DUP2 PUSH1 0x0 DUP8 DUP1 EXTCODESIZE ISZERO DUP1 ISZERO PUSH2 0x1A37 JUMPI PUSH1 0x0 DUP1 REVERT JUMPDEST POP GAS CALL ISZERO DUP1 ISZERO PUSH2 0x1A4B JUMPI RETURNDATASIZE PUSH1 0x0 DUP1 RETURNDATACOPY RETURNDATASIZE PUSH1 0x0 REVERT JUMPDEST POP POP POP POP PUSH1 0x1 PUSH1 0x1 PUSH1 0xA0 SHL SUB DUP6 AND PUSH1 0x0 SWAP1 DUP2 MSTORE PUSH1 0xB PUSH1 0x20 SWAP1 DUP2 MSTORE PUSH1 0x40 DUP1 DUP4 KECCAK256 CALLER DUP5 MSTORE SWAP1 SWAP2 MSTORE DUP2 KECCAK256 DUP1 SLOAD DUP9 SWAP3 SWAP1 PUSH2 0x1A82 SWAP1 DUP5 SWAP1 PUSH2 0x46DB JUMP JUMPDEST SWAP1 SWAP2 SSTORE POP POP PUSH1 0x1 PUSH1 0x1 PUSH1 0xA0 SHL SUB DUP6 AND PUSH1 0x0 SWAP1 DUP2 MSTORE PUSH1 0xE PUSH1 0x20 SWAP1 DUP2 MSTORE PUSH1 0x40 DUP1 DUP4 KECCAK256 CALLER DUP5 MSTORE SWAP1 SWAP2 MSTORE SWAP1 KECCAK256 SLOAD PUSH1 0xFF AND PUSH2 0x1B0F JUMPI PUSH1 0x1 PUSH1 0x1 PUSH1 0xA0 SHL SUB DUP6 AND PUSH1 0x0 DUP2 DUP2 MSTORE PUSH1 0xD PUSH1 0x20 SWAP1 DUP2 MSTORE PUSH1 0x40 DUP1 DUP4 KECCAK256 DUP1 SLOAD PUSH1 0x1 DUP2 DUP2 ADD DUP4 SSTORE SWAP2 DUP6 MSTORE DUP4 DUP6 KECCAK256 ADD DUP1 SLOAD PUSH1 0x1 PUSH1 0x1 PUSH1 0xA0 SHL SUB NOT AND CALLER SWAP1 DUP2 OR SWAP1 SWAP2 SSTORE SWAP5 DUP5 MSTORE PUSH1 0xE DUP4 MSTORE DUP2 DUP5 KECCAK256 SWAP5 DUP5 MSTORE SWAP4 SWAP1 SWAP2 MSTORE SWAP1 KECCAK256 DUP1 SLOAD PUSH1 0xFF NOT AND SWAP1 SWAP2 OR SWAP1 SSTORE JUMPDEST CALLER PUSH1 0x0 SWAP1 DUP2 MSTORE PUSH1 0x10 PUSH1 0x20 MSTORE PUSH1 0x40 SWAP1 KECCAK256 SLOAD PUSH1 0xFF AND PUSH2 0x1B81 JUMPI PUSH1 0xF DUP1 SLOAD PUSH1 0x1 DUP2 DUP2 ADD SWAP1 SWAP3 SSTORE PUSH32 0x8D1108E10BCB7C27DDDFC02ED9D693A074039D026CF4EA4240B40F7D581AC802 ADD DUP1 SLOAD PUSH1 0x1 PUSH1 0x1 PUSH1 0xA0 SHL SUB NOT AND CALLER SWAP1 DUP2 OR SWAP1 SWAP2 SSTORE PUSH1 0x0 SWAP1 DUP2 MSTORE PUSH1 0x10 PUSH1 0x20 MSTORE PUSH1 0x40 SWAP1 KECCAK256 DUP1 SLOAD PUSH1 0xFF NOT AND SWAP1 SWAP2 OR SWAP1 SSTORE JUMPDEST PUSH1 0x4 DUP1 SLOAD PUSH1 0x40 MLOAD PUSH4 0x7E6E1DD9 PUSH1 0xE0 SHL DUP2 MSTORE PUSH1 0x1 PUSH1 0x1 PUSH1 0xA0 SHL SUB DUP9 DUP2 AND SWAP4 DUP3 ADD SWAP4 SWAP1 SWAP4 MSTORE SWAP2 AND SWAP1 PUSH4 0x7E6E1DD9 SWAP1 PUSH1 0x24 ADD PUSH1 0x0 PUSH1 0x40 MLOAD DUP1 DUP4 SUB DUP2 PUSH1 0x0 DUP8 DUP1 EXTCODESIZE ISZERO DUP1 ISZERO PUSH2 0x1BCA JUMPI PUSH1 0x0 DUP1 REVERT JUMPDEST POP GAS CALL ISZERO DUP1 ISZERO PUSH2 0x1BDE JUMPI RETURNDATASIZE PUSH1 0x0 DUP1 RETURNDATACOPY RETURNDATASIZE PUSH1 0x0 REVERT JUMPDEST POP POP POP POP JUMPDEST PUSH1 0x40 DUP1 MLOAD CALLER DUP2 MSTORE PUSH1 0x20 DUP2 ADD DUP9 SWAP1 MSTORE PUSH1 0x1 PUSH1 0x1 PUSH1 0xA0 SHL SUB DUP8 DUP2 AND DUP3 DUP5 ADD MSTORE PUSH1 0x60 DUP3 ADD DUP8 SWAP1 MSTORE DUP6 AND PUSH1 0x80 DUP3 ADD MSTORE SWAP1 MLOAD PUSH32 0xEA8631408D071CDC565DFA37DCB32450C4C85EE9A4142ED14DF1387D7C2A4327 SWAP2 DUP2 SWAP1 SUB PUSH1 0xA0 ADD SWAP1 LOG1 POP POP POP POP POP POP JUMP JUMPDEST PUSH1 0x1 PUSH1 0x1 PUSH1 0xA0 SHL SUB DUP2 AND PUSH1 0x0 SWAP1 DUP2 MSTORE PUSH1 0xA PUSH1 0x20 MSTORE PUSH1 0x40 SWAP1 KECCAK256 SLOAD PUSH1 0xFF AND ISZERO ISZERO PUSH1 0x1 EQ PUSH2 0x1C7F JUMPI PUSH1 0x40 MLOAD PUSH3 0x461BCD PUSH1 0xE5 SHL DUP2 MSTORE PUSH1 0x4 ADD PUSH2 0x8F4 SWAP1 PUSH2 0x4758 JUMP JUMPDEST PUSH2 0x1C87 PUSH2 0x3D4F JUMP JUMPDEST PUSH1 0x0 DUP3 GT PUSH2 0x1CD7 JUMPI PUSH1 0x40 MLOAD PUSH3 0x461BCD PUSH1 0xE5 SHL DUP2 MSTORE PUSH1 0x20 PUSH1 0x4 DUP3 ADD MSTORE PUSH1 0x18 PUSH1 0x24 DUP3 ADD MSTORE PUSH32 0x6465706F736974206D75737420626520706F7369746976650000000000000000 PUSH1 0x44 DUP3 ADD MSTORE PUSH1 0x64 ADD PUSH2 0x8F4 JUMP JUMPDEST PUSH1 0x6 SLOAD PUSH1 0x40 MLOAD PUSH4 0xD4D1513 PUSH1 0xE0 SHL DUP2 MSTORE CALLER PUSH1 0x4 DUP3 ADD MSTORE PUSH1 0x24 DUP2 ADD DUP5 SWAP1 MSTORE PUSH1 0x1 PUSH1 0x1 PUSH1 0xA0 SHL SUB DUP4 DUP2 AND PUSH1 0x44 DUP4 ADD MSTORE PUSH1 0x0 SWAP3 AND SWAP1 PUSH4 0xD4D1513 SWAP1 PUSH1 0x64 ADD PUSH1 0x20 PUSH1 0x40 MLOAD DUP1 DUP4 SUB DUP2 PUSH1 0x0 DUP8 GAS CALL ISZERO DUP1 ISZERO PUSH2 0x1D31 JUMPI RETURNDATASIZE PUSH1 0x0 DUP1 RETURNDATACOPY RETURNDATASIZE PUSH1 0x0 REVERT JUMPDEST POP POP POP POP PUSH1 0x40 MLOAD RETURNDATASIZE PUSH1 0x1F NOT PUSH1 0x1F DUP3 ADD AND DUP3 ADD DUP1 PUSH1 0x40 MSTORE POP DUP2 ADD SWAP1 PUSH2 0x1D55 SWAP2 SWAP1 PUSH2 0x462F JUMP JUMPDEST CALLER PUSH1 0x0 SWAP1 DUP2 MSTORE PUSH1 0x8 PUSH1 0x20 MSTORE PUSH1 0x40 DUP2 KECCAK256 DUP1 SLOAD SWAP3 SWAP4 POP DUP4 SWAP3 SWAP1 SWAP2 SWAP1 PUSH2 0x1D79 SWAP1 DUP5 SWAP1 PUSH2 0x46DB JUMP JUMPDEST SWAP1 SWAP2 SSTORE POP POP PUSH1 0x4 DUP1 SLOAD PUSH1 0x40 MLOAD PUSH4 0x1740ECAF PUSH1 0xE1 SHL DUP2 MSTORE PUSH1 0x1 PUSH1 0x1 PUSH1 0xA0 SHL SUB SWAP1 SWAP2 AND SWAP2 PUSH4 0x2E81D95E SWAP2 PUSH2 0x1DB1 SWAP2 CALLER SWAP2 DUP8 SWAP2 DUP10 SWAP2 ADD PUSH2 0x4712 JUMP JUMPDEST PUSH1 0x0 PUSH1 0x40 MLOAD DUP1 DUP4 SUB DUP2 PUSH1 0x0 DUP8 DUP1 EXTCODESIZE ISZERO DUP1 ISZERO PUSH2 0x1DCB JUMPI PUSH1 0x0 DUP1 REVERT JUMPDEST POP GAS CALL ISZERO DUP1 ISZERO PUSH2 0x1DDF JUMPI RETURNDATASIZE PUSH1 0x0 DUP1 RETURNDATACOPY RETURNDATASIZE PUSH1 0x0 REVERT JUMPDEST POP POP POP POP PUSH1 0x1 PUSH1 0x1 PUSH1 0xA0 SHL SUB DUP3 AND PUSH1 0x0 SWAP1 DUP2 MSTORE PUSH1 0x12 PUSH1 0x20 SWAP1 DUP2 MSTORE PUSH1 0x40 DUP1 DUP4 KECCAK256 CALLER DUP5 MSTORE SWAP1 SWAP2 MSTORE SWAP1 KECCAK256 SLOAD PUSH1 0xFF AND PUSH2 0x1E6B JUMPI PUSH1 0x1 PUSH1 0x1 PUSH1 0xA0 SHL SUB DUP3 AND PUSH1 0x0 DUP2 DUP2 MSTORE PUSH1 0x11 PUSH1 0x20 SWAP1 DUP2 MSTORE PUSH1 0x40 DUP1 DUP4 KECCAK256 DUP1 SLOAD PUSH1 0x1 DUP2 DUP2 ADD DUP4 SSTORE SWAP2 DUP6 MSTORE DUP4 DUP6 KECCAK256 ADD DUP1 SLOAD PUSH1 0x1 PUSH1 0x1 PUSH1 0xA0 SHL SUB NOT AND CALLER SWAP1 DUP2 OR SWAP1 SWAP2 SSTORE SWAP5 DUP5 MSTORE PUSH1 0x12 DUP4 MSTORE DUP2 DUP5 KECCAK256 SWAP5 DUP5 MSTORE SWAP4 SWAP1 SWAP2 MSTORE SWAP1 KECCAK256 DUP1 SLOAD PUSH1 0xFF NOT AND SWAP1 SWAP2 OR SWAP1 SSTORE JUMPDEST PUSH1 0x1 PUSH1 0x1 PUSH1 0xA0 SHL SUB DUP3 AND PUSH1 0x0 SWAP1 DUP2 MSTORE PUSH1 0xC PUSH1 0x20 SWAP1 DUP2 MSTORE PUSH1 0x40 DUP1 DUP4 KECCAK256 CALLER DUP5 MSTORE SWAP1 SWAP2 MSTORE DUP2 KECCAK256 DUP1 SLOAD DUP6 SWAP3 SWAP1 PUSH2 0x1E9E SWAP1 DUP5 SWAP1 PUSH2 0x46DB JUMP JUMPDEST SWAP1 SWAP2 SSTORE POP POP PUSH1 0x40 DUP1 MLOAD CALLER DUP2 MSTORE PUSH1 0x1 PUSH1 0x1 PUSH1 0xA0 SHL SUB DUP5 AND PUSH1 0x20 DUP3 ADD MSTORE SWAP1 DUP2 ADD DUP5 SWAP1 MSTORE PUSH1 0x60 DUP2 ADD DUP3 SWAP1 MSTORE PUSH32 0xD2D0080ED70CEB7CE39856D34A5727B439EC7C7919425087ED35ED6868791556 SWAP1 PUSH1 0x80 ADD PUSH1 0x40 MLOAD DUP1 SWAP2 SUB SWAP1 LOG1 POP POP POP JUMP JUMPDEST PUSH1 0x4 DUP1 SLOAD PUSH1 0x40 MLOAD PUSH4 0xC0D7EEC1 PUSH1 0xE0 SHL DUP2 MSTORE PUSH1 0x1 PUSH1 0x1 PUSH1 0xA0 SHL SUB DUP5 DUP2 AND SWAP4 DUP3 ADD SWAP4 SWAP1 SWAP4 MSTORE PUSH1 0x0 SWAP3 SWAP1 SWAP2 AND SWAP1 PUSH4 0xC0D7EEC1 SWAP1 PUSH1 0x24 ADD PUSH2 0x72B JUMP JUMPDEST PUSH1 0x1 PUSH1 0x1 PUSH1 0xA0 SHL SUB DUP3 AND PUSH1 0x0 SWAP1 DUP2 MSTORE PUSH1 0xA PUSH1 0x20 MSTORE PUSH1 0x40 SWAP1 KECCAK256 SLOAD PUSH1 0xFF AND PUSH2 0x1F68 JUMPI PUSH1 0x40 MLOAD PUSH3 0x461BCD PUSH1 0xE5 SHL DUP2 MSTORE PUSH1 0x4 ADD PUSH2 0x8F4 SWAP1 PUSH2 0x4758 JUMP JUMPDEST PUSH2 0x1F70 PUSH2 0x3D4F JUMP JUMPDEST DUP1 PUSH1 0x1 EQ ISZERO PUSH2 0x1F86 JUMPI PUSH2 0x1F83 CALLER DUP4 PUSH2 0x31FB JUMP JUMPDEST SWAP1 POP JUMPDEST PUSH1 0x1 PUSH1 0x1 PUSH1 0xA0 SHL SUB DUP3 AND PUSH1 0x0 SWAP1 DUP2 MSTORE PUSH1 0xB PUSH1 0x20 SWAP1 DUP2 MSTORE PUSH1 0x40 DUP1 DUP4 KECCAK256 CALLER DUP5 MSTORE SWAP1 SWAP2 MSTORE SWAP1 KECCAK256 PUSH1 0x1 DUP2 ADD SLOAD SWAP1 SLOAD DUP3 SWAP2 PUSH2 0x1FBB SWAP2 PUSH2 0x46DB JUMP JUMPDEST LT ISZERO PUSH2 0x2009 JUMPI PUSH1 0x40 MLOAD PUSH3 0x461BCD PUSH1 0xE5 SHL DUP2 MSTORE PUSH1 0x20 PUSH1 0x4 DUP3 ADD MSTORE PUSH1 0x1B PUSH1 0x24 DUP3 ADD MSTORE PUSH32 0x52657475726E6564206D6F7265207468616E20626F72726F7765640000000000 PUSH1 0x44 DUP3 ADD MSTORE PUSH1 0x64 ADD PUSH2 0x8F4 JUMP JUMPDEST PUSH1 0x1 PUSH1 0x1 PUSH1 0xA0 SHL SUB DUP3 AND PUSH1 0x0 SWAP1 DUP2 MSTORE PUSH1 0xB PUSH1 0x20 SWAP1 DUP2 MSTORE PUSH1 0x40 DUP1 DUP4 KECCAK256 CALLER DUP5 MSTORE SWAP1 SWAP2 MSTORE DUP2 KECCAK256 PUSH1 0x1 ADD SLOAD PUSH2 0x203B SWAP1 DUP4 SWAP1 PUSH2 0x406F JUMP JUMPDEST SWAP1 POP PUSH1 0x0 PUSH2 0x2049 DUP3 DUP5 PUSH2 0x465E JUMP JUMPDEST PUSH1 0x4 DUP1 SLOAD PUSH1 0x40 MLOAD PUSH4 0x27709E47 PUSH1 0xE1 SHL DUP2 MSTORE CALLER SWAP3 DUP2 ADD SWAP3 SWAP1 SWAP3 MSTORE PUSH1 0x1 PUSH1 0x1 PUSH1 0xA0 SHL SUB DUP8 DUP2 AND PUSH1 0x24 DUP5 ADD MSTORE PUSH1 0x44 DUP4 ADD DUP8 SWAP1 MSTORE PUSH1 0x64 DUP4 ADD DUP5 SWAP1 MSTORE PUSH1 0x84 DUP4 ADD DUP7 SWAP1 MSTORE SWAP3 SWAP4 POP SWAP2 SWAP1 SWAP2 AND SWAP1 PUSH4 0x4EE13C8E SWAP1 PUSH1 0xA4 ADD PUSH1 0x0 PUSH1 0x40 MLOAD DUP1 DUP4 SUB DUP2 PUSH1 0x0 DUP8 DUP1 EXTCODESIZE ISZERO DUP1 ISZERO PUSH2 0x20B2 JUMPI PUSH1 0x0 DUP1 REVERT JUMPDEST POP GAS CALL ISZERO DUP1 ISZERO PUSH2 0x20C6 JUMPI RETURNDATASIZE PUSH1 0x0 DUP1 RETURNDATACOPY RETURNDATASIZE PUSH1 0x0 REVERT JUMPDEST POP POP POP POP PUSH1 0x1 PUSH1 0x1 PUSH1 0xA0 SHL SUB DUP5 AND PUSH1 0x0 SWAP1 DUP2 MSTORE PUSH1 0xB PUSH1 0x20 SWAP1 DUP2 MSTORE PUSH1 0x40 DUP1 DUP4 KECCAK256 CALLER DUP5 MSTORE SWAP1 SWAP2 MSTORE DUP2 KECCAK256 DUP1 SLOAD DUP4 SWAP3 SWAP1 PUSH2 0x20FD SWAP1 DUP5 SWAP1 PUSH2 0x465E JUMP JUMPDEST SWAP1 SWAP2 SSTORE POP POP PUSH1 0x1 PUSH1 0x1 PUSH1 0xA0 SHL SUB DUP5 AND PUSH1 0x0 SWAP1 DUP2 MSTORE PUSH1 0xB PUSH1 0x20 SWAP1 DUP2 MSTORE PUSH1 0x40 DUP1 DUP4 KECCAK256 CALLER DUP5 MSTORE SWAP1 SWAP2 MSTORE DUP2 KECCAK256 PUSH1 0x1 ADD DUP1 SLOAD DUP5 SWAP3 SWAP1 PUSH2 0x2138 SWAP1 DUP5 SWAP1 PUSH2 0x465E JUMP JUMPDEST SWAP1 SWAP2 SSTORE POP POP PUSH1 0x1 PUSH1 0x1 PUSH1 0xA0 SHL SUB DUP5 AND PUSH1 0x0 SWAP1 DUP2 MSTORE PUSH1 0xB PUSH1 0x20 SWAP1 DUP2 MSTORE PUSH1 0x40 DUP1 DUP4 KECCAK256 CALLER DUP5 MSTORE SWAP1 SWAP2 MSTORE SWAP1 KECCAK256 SLOAD PUSH2 0x218A JUMPI PUSH1 0x1 PUSH1 0x1 PUSH1 0xA0 SHL SUB DUP5 AND PUSH1 0x0 SWAP1 DUP2 MSTORE PUSH1 0xB PUSH1 0x20 SWAP1 DUP2 MSTORE PUSH1 0x40 DUP1 DUP4 KECCAK256 CALLER DUP5 MSTORE SWAP1 SWAP2 MSTORE DUP2 KECCAK256 SSTORE JUMPDEST PUSH1 0x1 PUSH1 0x1 PUSH1 0xA0 SHL SUB DUP5 AND PUSH1 0x0 SWAP1 DUP2 MSTORE PUSH1 0xB PUSH1 0x20 SWAP1 DUP2 MSTORE PUSH1 0x40 DUP1 DUP4 KECCAK256 CALLER DUP5 MSTORE SWAP1 SWAP2 MSTORE SWAP1 KECCAK256 PUSH1 0x1 ADD SLOAD PUSH2 0x21DD JUMPI PUSH1 0x1 PUSH1 0x1 PUSH1 0xA0 SHL SUB DUP5 AND PUSH1 0x0 SWAP1 DUP2 MSTORE PUSH1 0xB PUSH1 0x20 SWAP1 DUP2 MSTORE PUSH1 0x40 DUP1 DUP4 KECCAK256 CALLER DUP5 MSTORE SWAP1 SWAP2 MSTORE DUP2 KECCAK256 PUSH1 0x1 ADD SSTORE JUMPDEST PUSH1 0x4 DUP1 SLOAD PUSH1 0x40 MLOAD PUSH4 0x7E6E1DD9 PUSH1 0xE0 SHL DUP2 MSTORE PUSH1 0x1 PUSH1 0x1 PUSH1 0xA0 SHL SUB DUP8 DUP2 AND SWAP4 DUP3 ADD SWAP4 SWAP1 SWAP4 MSTORE SWAP2 AND SWAP1 PUSH4 0x7E6E1DD9 SWAP1 PUSH1 0x24 ADD PUSH1 0x0 PUSH1 0x40 MLOAD DUP1 DUP4 SUB DUP2 PUSH1 0x0 DUP8 DUP1 EXTCODESIZE ISZERO DUP1 ISZERO PUSH2 0x2226 JUMPI PUSH1 0x0 DUP1 REVERT JUMPDEST POP GAS CALL ISZERO DUP1 ISZERO PUSH2 0x223A JUMPI RETURNDATASIZE PUSH1 0x0 DUP1 RETURNDATACOPY RETURNDATASIZE PUSH1 0x0 REVERT JUMPDEST POP POP POP POP PUSH32 0x2BB7C63EB15A05EBC1A5643F6D064397B45F326816B607769BF52FD7BD03951A CALLER DUP6 DUP6 PUSH1 0x40 MLOAD PUSH2 0x2271 SWAP4 SWAP3 SWAP2 SWAP1 PUSH2 0x4712 JUMP JUMPDEST PUSH1 0x40 MLOAD DUP1 SWAP2 SUB SWAP1 LOG1 PUSH2 0x2281 PUSH2 0xFE2 JUMP JUMPDEST POP POP POP POP JUMP JUMPDEST PUSH1 0x4 DUP1 SLOAD PUSH1 0x40 MLOAD PUSH4 0x5C88F5A5 PUSH1 0xE0 SHL DUP2 MSTORE PUSH1 0x1 PUSH1 0x1 PUSH1 0xA0 SHL SUB DUP5 DUP2 AND SWAP4 DUP3 ADD SWAP4 SWAP1 SWAP4 MSTORE PUSH1 0x0 SWAP3 SWAP1 SWAP2 AND SWAP1 PUSH4 0x5C88F5A5 SWAP1 PUSH1 0x24 ADD PUSH2 0x72B JUMP JUMPDEST PUSH2 0x22D7 PUSH1 0x0 DUP1 MLOAD PUSH1 0x20 PUSH2 0x487C DUP4 CODECOPY DUP2 MLOAD SWAP2 MSTORE CALLER PUSH2 0x2F82 JUMP JUMPDEST PUSH2 0x22F3 JUMPI PUSH1 0x40 MLOAD PUSH3 0x461BCD PUSH1 0xE5 SHL DUP2 MSTORE PUSH1 0x4 ADD PUSH2 0x8F4 SWAP1 PUSH2 0x4697 JUMP JUMPDEST PUSH1 0x5 SLOAD PUSH1 0x40 MLOAD PUSH4 0x6858EA07 PUSH1 0xE0 SHL DUP2 MSTORE PUSH1 0x1 PUSH1 0x1 PUSH1 0xA0 SHL SUB DUP5 DUP2 AND PUSH1 0x4 DUP4 ADD MSTORE PUSH1 0x24 DUP3 ADD DUP5 SWAP1 MSTORE SWAP1 SWAP2 AND SWAP1 PUSH4 0x6858EA07 SWAP1 PUSH1 0x44 ADD PUSH1 0x0 PUSH1 0x40 MLOAD DUP1 DUP4 SUB DUP2 PUSH1 0x0 DUP8 DUP1 EXTCODESIZE ISZERO DUP1 ISZERO PUSH2 0x2341 JUMPI PUSH1 0x0 DUP1 REVERT JUMPDEST POP GAS CALL ISZERO DUP1 ISZERO PUSH2 0x2355 JUMPI RETURNDATASIZE PUSH1 0x0 DUP1 RETURNDATACOPY RETURNDATASIZE PUSH1 0x0 REVERT JUMPDEST POP POP POP POP POP POP JUMP JUMPDEST PUSH1 0x6 SLOAD PUSH1 0x40 DUP1 MLOAD PUSH4 0xCF55F37 PUSH1 0xE2 SHL DUP2 MSTORE SWAP1 MLOAD PUSH1 0x0 SWAP3 PUSH1 0x1 PUSH1 0x1 PUSH1 0xA0 SHL SUB AND SWAP2 PUSH4 0x33D57CDC SWAP2 PUSH1 0x4 DUP1 DUP4 ADD SWAP3 PUSH1 0x20 SWAP3 SWAP2 SWAP1 DUP3 SWAP1 SUB ADD DUP2 DUP7 GAS STATICCALL ISZERO DUP1 ISZERO PUSH2 0x895 JUMPI RETURNDATASIZE PUSH1 0x0 DUP1 RETURNDATACOPY RETURNDATASIZE PUSH1 0x0 REVERT JUMPDEST PUSH1 0x4 DUP1 SLOAD PUSH1 0x40 MLOAD PUSH4 0x680C815D PUSH1 0xE1 SHL DUP2 MSTORE PUSH1 0x1 PUSH1 0x1 PUSH1 0xA0 SHL SUB DUP5 DUP2 AND SWAP4 DUP3 ADD SWAP4 SWAP1 SWAP4 MSTORE PUSH1 0x0 SWAP3 SWAP1 SWAP2 AND SWAP1 PUSH4 0xD01902BA SWAP1 PUSH1 0x24 ADD PUSH2 0x72B JUMP JUMPDEST PUSH1 0x1 PUSH1 0x1 PUSH1 0xA0 SHL SUB DUP3 AND PUSH1 0x0 SWAP1 DUP2 MSTORE PUSH1 0xA PUSH1 0x20 MSTORE PUSH1 0x40 SWAP1 KECCAK256 SLOAD PUSH1 0xFF AND PUSH2 0x2417 JUMPI PUSH1 0x40 MLOAD PUSH3 0x461BCD PUSH1 0xE5 SHL DUP2 MSTORE PUSH1 0x4 ADD PUSH2 0x8F4 SWAP1 PUSH2 0x4758 JUMP JUMPDEST PUSH1 0x6 SLOAD PUSH1 0x40 MLOAD PUSH4 0x70A08231 PUSH1 0xE0 SHL DUP2 MSTORE CALLER PUSH1 0x4 DUP3 ADD MSTORE DUP3 SWAP2 PUSH1 0x1 PUSH1 0x1 PUSH1 0xA0 SHL SUB AND SWAP1 PUSH4 0x70A08231 SWAP1 PUSH1 0x24 ADD PUSH1 0x20 PUSH1 0x40 MLOAD DUP1 DUP4 SUB DUP2 DUP7 GAS STATICCALL ISZERO DUP1 ISZERO PUSH2 0x245F JUMPI RETURNDATASIZE PUSH1 0x0 DUP1 RETURNDATACOPY RETURNDATASIZE PUSH1 0x0 REVERT JUMPDEST POP POP POP POP PUSH1 0x40 MLOAD RETURNDATASIZE PUSH1 0x1F NOT PUSH1 0x1F DUP3 ADD AND DUP3 ADD DUP1 PUSH1 0x40 MSTORE POP DUP2 ADD SWAP1 PUSH2 0x2483 SWAP2 SWAP1 PUSH2 0x462F JUMP JUMPDEST LT ISZERO PUSH2 0x24E5 JUMPI PUSH1 0x40 MLOAD PUSH3 0x461BCD PUSH1 0xE5 SHL DUP2 MSTORE PUSH1 0x20 PUSH1 0x4 DUP3 ADD MSTORE PUSH1 0x2B PUSH1 0x24 DUP3 ADD MSTORE PUSH32 0x43616E6E6F742072656465656D206D6F726520746F6B656E73207468616E206E PUSH1 0x44 DUP3 ADD MSTORE PUSH11 0x1D5B58995C881BDDDB9959 PUSH1 0xAA SHL PUSH1 0x64 DUP3 ADD MSTORE PUSH1 0x84 ADD PUSH2 0x8F4 JUMP JUMPDEST PUSH1 0x6 SLOAD PUSH1 0x40 DUP1 MLOAD PUSH4 0xCF55F37 PUSH1 0xE2 SHL DUP2 MSTORE SWAP1 MLOAD PUSH8 0xDE0B6B3A7640000 SWAP3 PUSH1 0x1 PUSH1 0x1 PUSH1 0xA0 SHL SUB AND SWAP2 PUSH4 0x33D57CDC SWAP2 PUSH1 0x4 DUP1 DUP4 ADD SWAP3 PUSH1 0x20 SWAP3 SWAP2 SWAP1 DUP3 SWAP1 SUB ADD DUP2 DUP7 GAS STATICCALL ISZERO DUP1 ISZERO PUSH2 0x2536 JUMPI RETURNDATASIZE PUSH1 0x0 DUP1 RETURNDATACOPY RETURNDATASIZE PUSH1 0x0 REVERT JUMPDEST POP POP POP POP PUSH1 0x40 MLOAD RETURNDATASIZE PUSH1 0x1F NOT PUSH1 0x1F DUP3 ADD AND DUP3 ADD DUP1 PUSH1 0x40 MSTORE POP DUP2 ADD SWAP1 PUSH2 0x255A SWAP2 SWAP1 PUSH2 0x462F JUMP JUMPDEST PUSH2 0x2564 SWAP1 DUP4 PUSH2 0x46F3 JUMP JUMPDEST PUSH2 0x256E SWAP2 SWAP1 PUSH2 0x4675 JUMP JUMPDEST PUSH1 0x4 DUP1 SLOAD PUSH1 0x40 DUP1 MLOAD PUSH4 0x48E7D0C3 PUSH1 0xE1 SHL DUP2 MSTORE SWAP1 MLOAD PUSH1 0x1 PUSH1 0x1 PUSH1 0xA0 SHL SUB SWAP1 SWAP3 AND SWAP3 PUSH4 0x91CFA186 SWAP3 DUP3 DUP3 ADD SWAP3 PUSH1 0x20 SWAP3 SWAP1 DUP3 SWAP1 SUB ADD DUP2 DUP7 GAS STATICCALL ISZERO DUP1 ISZERO PUSH2 0x25B5 JUMPI RETURNDATASIZE PUSH1 0x0 DUP1 RETURNDATACOPY RETURNDATASIZE PUSH1 0x0 REVERT JUMPDEST POP POP POP POP PUSH1 0x40 MLOAD RETURNDATASIZE PUSH1 0x1F NOT PUSH1 0x1F DUP3 ADD AND DUP3 ADD DUP1 PUSH1 0x40 MSTORE POP DUP2 ADD SWAP1 PUSH2 0x25D9 SWAP2 SWAP1 PUSH2 0x462F JUMP JUMPDEST LT ISZERO PUSH2 0x261F JUMPI PUSH1 0x40 MLOAD PUSH3 0x461BCD PUSH1 0xE5 SHL DUP2 MSTORE PUSH1 0x20 PUSH1 0x4 DUP3 ADD MSTORE PUSH1 0x15 PUSH1 0x24 DUP3 ADD MSTORE PUSH21 0x4E6F7420656E6F75676820667265652066756E6473 PUSH1 0x58 SHL PUSH1 0x44 DUP3 ADD MSTORE PUSH1 0x64 ADD PUSH2 0x8F4 JUMP JUMPDEST PUSH2 0x2627 PUSH2 0x3D4F JUMP JUMPDEST PUSH1 0x3 SLOAD PUSH1 0x40 MLOAD PUSH4 0x41976E09 PUSH1 0xE0 SHL DUP2 MSTORE PUSH1 0x1 PUSH1 0x1 PUSH1 0xA0 SHL SUB DUP5 DUP2 AND PUSH1 0x4 DUP4 ADD MSTORE PUSH1 0x0 SWAP3 AND SWAP1 PUSH4 0x41976E09 SWAP1 PUSH1 0x24 ADD PUSH1 0x20 PUSH1 0x40 MLOAD DUP1 DUP4 SUB DUP2 DUP7 GAS STATICCALL ISZERO DUP1 ISZERO PUSH2 0x2672 JUMPI RETURNDATASIZE PUSH1 0x0 DUP1 RETURNDATACOPY RETURNDATASIZE PUSH1 0x0 REVERT JUMPDEST POP POP POP POP PUSH1 0x40 MLOAD RETURNDATASIZE PUSH1 0x1F NOT PUSH1 0x1F DUP3 ADD AND DUP3 ADD DUP1 PUSH1 0x40 MSTORE POP DUP2 ADD SWAP1 PUSH2 0x2696 SWAP2 SWAP1 PUSH2 0x462F JUMP JUMPDEST SWAP1 POP PUSH1 0x0 DUP2 PUSH1 0x6 PUSH1 0x0 SWAP1 SLOAD SWAP1 PUSH2 0x100 EXP SWAP1 DIV PUSH1 0x1 PUSH1 0x1 PUSH1 0xA0 SHL SUB AND PUSH1 0x1 PUSH1 0x1 PUSH1 0xA0 SHL SUB AND PUSH4 0x33D57CDC PUSH1 0x40 MLOAD DUP2 PUSH4 0xFFFFFFFF AND PUSH1 0xE0 SHL DUP2 MSTORE PUSH1 0x4 ADD PUSH1 0x20 PUSH1 0x40 MLOAD DUP1 DUP4 SUB DUP2 DUP7 GAS STATICCALL ISZERO DUP1 ISZERO PUSH2 0x26EE JUMPI RETURNDATASIZE PUSH1 0x0 DUP1 RETURNDATACOPY RETURNDATASIZE PUSH1 0x0 REVERT JUMPDEST POP POP POP POP PUSH1 0x40 MLOAD RETURNDATASIZE PUSH1 0x1F NOT PUSH1 0x1F DUP3 ADD AND DUP3 ADD DUP1 PUSH1 0x40 MSTORE POP DUP2 ADD SWAP1 PUSH2 0x2712 SWAP2 SWAP1 PUSH2 0x462F JUMP JUMPDEST PUSH2 0x271C SWAP1 DUP6 PUSH2 0x46F3 JUMP JUMPDEST PUSH2 0x2726 SWAP2 SWAP1 PUSH2 0x4675 JUMP JUMPDEST PUSH1 0x6 SLOAD PUSH1 0x40 MLOAD PUSH4 0x2770A7EB PUSH1 0xE2 SHL DUP2 MSTORE CALLER PUSH1 0x4 DUP3 ADD MSTORE PUSH1 0x24 DUP2 ADD DUP7 SWAP1 MSTORE SWAP2 SWAP3 POP PUSH1 0x1 PUSH1 0x1 PUSH1 0xA0 SHL SUB AND SWAP1 PUSH4 0x9DC29FAC SWAP1 PUSH1 0x44 ADD PUSH1 0x0 PUSH1 0x40 MLOAD DUP1 DUP4 SUB DUP2 PUSH1 0x0 DUP8 DUP1 EXTCODESIZE ISZERO DUP1 ISZERO PUSH2 0x2773 JUMPI PUSH1 0x0 DUP1 REVERT JUMPDEST POP GAS CALL ISZERO DUP1 ISZERO PUSH2 0x2787 JUMPI RETURNDATASIZE PUSH1 0x0 DUP1 RETURNDATACOPY RETURNDATASIZE PUSH1 0x0 REVERT JUMPDEST POP POP CALLER PUSH1 0x0 SWAP1 DUP2 MSTORE PUSH1 0x8 PUSH1 0x20 MSTORE PUSH1 0x40 DUP2 KECCAK256 DUP1 SLOAD DUP8 SWAP5 POP SWAP1 SWAP3 POP PUSH2 0x27AB SWAP1 DUP5 SWAP1 PUSH2 0x465E JUMP JUMPDEST SWAP1 SWAP2 SSTORE POP POP CALLER PUSH1 0x0 SWAP1 DUP2 MSTORE PUSH1 0x8 PUSH1 0x20 MSTORE PUSH1 0x40 SWAP1 KECCAK256 SLOAD PUSH2 0x27D5 JUMPI CALLER PUSH1 0x0 SWAP1 DUP2 MSTORE PUSH1 0x8 PUSH1 0x20 MSTORE PUSH1 0x40 DUP2 KECCAK256 SSTORE JUMPDEST PUSH1 0x1 PUSH1 0x1 PUSH1 0xA0 SHL SUB DUP5 AND PUSH1 0x0 SWAP1 DUP2 MSTORE PUSH1 0xC PUSH1 0x20 SWAP1 DUP2 MSTORE PUSH1 0x40 DUP1 DUP4 KECCAK256 CALLER DUP5 MSTORE SWAP1 SWAP2 MSTORE SWAP1 KECCAK256 SLOAD PUSH2 0x2867 JUMPI PUSH1 0x4 DUP1 SLOAD PUSH1 0x40 MLOAD PUSH4 0x995E995B PUSH1 0xE0 SHL DUP2 MSTORE PUSH1 0x1 PUSH1 0x1 PUSH1 0xA0 SHL SUB SWAP1 SWAP2 AND SWAP2 PUSH4 0x995E995B SWAP2 PUSH2 0x2830 SWAP2 CALLER SWAP2 DUP10 SWAP2 DUP8 SWAP2 ADD PUSH2 0x4712 JUMP JUMPDEST PUSH1 0x0 PUSH1 0x40 MLOAD DUP1 DUP4 SUB DUP2 PUSH1 0x0 DUP8 DUP1 EXTCODESIZE ISZERO DUP1 ISZERO PUSH2 0x284A JUMPI PUSH1 0x0 DUP1 REVERT JUMPDEST POP GAS CALL ISZERO DUP1 ISZERO PUSH2 0x285E JUMPI RETURNDATASIZE PUSH1 0x0 DUP1 RETURNDATACOPY RETURNDATASIZE PUSH1 0x0 REVERT JUMPDEST POP POP POP POP PUSH2 0x2F29 JUMP JUMPDEST PUSH1 0x1 PUSH1 0x1 PUSH1 0xA0 SHL SUB DUP5 AND PUSH1 0x0 SWAP1 DUP2 MSTORE PUSH1 0xC PUSH1 0x20 SWAP1 DUP2 MSTORE PUSH1 0x40 DUP1 DUP4 KECCAK256 CALLER DUP5 MSTORE SWAP1 SWAP2 MSTORE SWAP1 KECCAK256 SLOAD DUP2 GT ISZERO PUSH2 0x2C27 JUMPI PUSH1 0x1 PUSH1 0x1 PUSH1 0xA0 SHL SUB DUP5 AND PUSH1 0x0 SWAP1 DUP2 MSTORE PUSH1 0xC PUSH1 0x20 SWAP1 DUP2 MSTORE PUSH1 0x40 DUP1 DUP4 KECCAK256 CALLER DUP5 MSTORE SWAP1 SWAP2 MSTORE DUP2 KECCAK256 SLOAD PUSH2 0x28C0 SWAP1 DUP4 PUSH2 0x465E JUMP JUMPDEST PUSH1 0x4 DUP1 SLOAD PUSH1 0x40 MLOAD PUSH4 0xFCE3E8E7 PUSH1 0xE0 SHL DUP2 MSTORE PUSH1 0x1 PUSH1 0x1 PUSH1 0xA0 SHL SUB DUP10 DUP2 AND SWAP4 DUP3 ADD SWAP4 SWAP1 SWAP4 MSTORE SWAP3 SWAP4 POP AND SWAP1 PUSH4 0xFCE3E8E7 SWAP1 PUSH1 0x24 ADD PUSH1 0x20 PUSH1 0x40 MLOAD DUP1 DUP4 SUB DUP2 DUP7 GAS STATICCALL ISZERO DUP1 ISZERO PUSH2 0x290E JUMPI RETURNDATASIZE PUSH1 0x0 DUP1 RETURNDATACOPY RETURNDATASIZE PUSH1 0x0 REVERT JUMPDEST POP POP POP POP PUSH1 0x40 MLOAD RETURNDATASIZE PUSH1 0x1F NOT PUSH1 0x1F DUP3 ADD AND DUP3 ADD DUP1 PUSH1 0x40 MSTORE POP DUP2 ADD SWAP1 PUSH2 0x2932 SWAP2 SWAP1 PUSH2 0x462F JUMP JUMPDEST PUSH1 0x1 PUSH1 0x1 PUSH1 0xA0 SHL SUB DUP7 AND PUSH1 0x0 SWAP1 DUP2 MSTORE PUSH1 0xC PUSH1 0x20 SWAP1 DUP2 MSTORE PUSH1 0x40 DUP1 DUP4 KECCAK256 CALLER DUP5 MSTORE SWAP1 SWAP2 MSTORE SWAP1 KECCAK256 SLOAD GT ISZERO PUSH2 0x2B13 JUMPI PUSH1 0x4 DUP1 SLOAD PUSH1 0x40 MLOAD PUSH4 0xFCE3E8E7 PUSH1 0xE0 SHL DUP2 MSTORE PUSH1 0x1 PUSH1 0x1 PUSH1 0xA0 SHL SUB DUP9 DUP2 AND SWAP4 DUP3 ADD SWAP4 SWAP1 SWAP4 MSTORE PUSH1 0x0 SWAP3 SWAP1 SWAP2 AND SWAP1 PUSH4 0xFCE3E8E7 SWAP1 PUSH1 0x24 ADD PUSH1 0x20 PUSH1 0x40 MLOAD DUP1 DUP4 SUB DUP2 DUP7 GAS STATICCALL ISZERO DUP1 ISZERO PUSH2 0x29AC JUMPI RETURNDATASIZE PUSH1 0x0 DUP1 RETURNDATACOPY RETURNDATASIZE PUSH1 0x0 REVERT JUMPDEST POP POP POP POP PUSH1 0x40 MLOAD RETURNDATASIZE PUSH1 0x1F NOT PUSH1 0x1F DUP3 ADD AND DUP3 ADD DUP1 PUSH1 0x40 MSTORE POP DUP2 ADD SWAP1 PUSH2 0x29D0 SWAP2 SWAP1 PUSH2 0x462F JUMP JUMPDEST PUSH2 0x29DA SWAP1 DUP5 PUSH2 0x465E JUMP JUMPDEST PUSH1 0x4 DUP1 SLOAD PUSH1 0x40 MLOAD PUSH4 0xFCE3E8E7 PUSH1 0xE0 SHL DUP2 MSTORE PUSH1 0x1 PUSH1 0x1 PUSH1 0xA0 SHL SUB DUP11 DUP2 AND SWAP4 DUP3 ADD SWAP4 SWAP1 SWAP4 MSTORE SWAP3 SWAP4 POP AND SWAP1 PUSH4 0xFCBFC2C8 SWAP1 CALLER SWAP1 DUP10 SWAP1 DUP5 SWAP1 PUSH4 0xFCE3E8E7 SWAP1 PUSH1 0x24 ADD PUSH1 0x20 PUSH1 0x40 MLOAD DUP1 DUP4 SUB DUP2 DUP7 GAS STATICCALL ISZERO DUP1 ISZERO PUSH2 0x2A34 JUMPI RETURNDATASIZE PUSH1 0x0 DUP1 RETURNDATACOPY RETURNDATASIZE PUSH1 0x0 REVERT JUMPDEST POP POP POP POP PUSH1 0x40 MLOAD RETURNDATASIZE PUSH1 0x1F NOT PUSH1 0x1F DUP3 ADD AND DUP3 ADD DUP1 PUSH1 0x40 MSTORE POP DUP2 ADD SWAP1 PUSH2 0x2A58 SWAP2 SWAP1 PUSH2 0x462F JUMP JUMPDEST PUSH1 0x40 MLOAD DUP5 PUSH4 0xFFFFFFFF AND PUSH1 0xE0 SHL DUP2 MSTORE PUSH1 0x4 ADD PUSH2 0x2A76 SWAP4 SWAP3 SWAP2 SWAP1 PUSH2 0x4712 JUMP JUMPDEST PUSH1 0x0 PUSH1 0x40 MLOAD DUP1 DUP4 SUB DUP2 PUSH1 0x0 DUP8 DUP1 EXTCODESIZE ISZERO DUP1 ISZERO PUSH2 0x2A90 JUMPI PUSH1 0x0 DUP1 REVERT JUMPDEST POP GAS CALL ISZERO DUP1 ISZERO PUSH2 0x2AA4 JUMPI RETURNDATASIZE PUSH1 0x0 DUP1 RETURNDATACOPY RETURNDATASIZE PUSH1 0x0 REVERT JUMPDEST POP POP PUSH1 0x4 DUP1 SLOAD PUSH1 0x40 MLOAD PUSH4 0x995E995B PUSH1 0xE0 SHL DUP2 MSTORE PUSH1 0x1 PUSH1 0x1 PUSH1 0xA0 SHL SUB SWAP1 SWAP2 AND SWAP4 POP PUSH4 0x995E995B SWAP3 POP PUSH2 0x2ADB SWAP2 CALLER SWAP2 DUP12 SWAP2 DUP8 SWAP2 ADD PUSH2 0x4712 JUMP JUMPDEST PUSH1 0x0 PUSH1 0x40 MLOAD DUP1 DUP4 SUB DUP2 PUSH1 0x0 DUP8 DUP1 EXTCODESIZE ISZERO DUP1 ISZERO PUSH2 0x2AF5 JUMPI PUSH1 0x0 DUP1 REVERT JUMPDEST POP GAS CALL ISZERO DUP1 ISZERO PUSH2 0x2B09 JUMPI RETURNDATASIZE PUSH1 0x0 DUP1 RETURNDATACOPY RETURNDATASIZE PUSH1 0x0 REVERT JUMPDEST POP POP POP POP POP PUSH2 0x2BFD JUMP JUMPDEST PUSH1 0x4 DUP1 SLOAD PUSH1 0x1 PUSH1 0x1 PUSH1 0xA0 SHL SUB DUP8 DUP2 AND PUSH1 0x0 SWAP1 DUP2 MSTORE PUSH1 0xC PUSH1 0x20 SWAP1 DUP2 MSTORE PUSH1 0x40 DUP1 DUP4 KECCAK256 CALLER DUP1 DUP6 MSTORE SWAP3 MSTORE SWAP2 DUP3 SWAP1 KECCAK256 SLOAD SWAP2 MLOAD PUSH4 0x1F97F859 PUSH1 0xE3 SHL DUP2 MSTORE SWAP3 SWAP1 SWAP4 AND SWAP4 PUSH4 0xFCBFC2C8 SWAP4 PUSH2 0x2B65 SWAP4 SWAP1 SWAP3 DUP12 SWAP3 SWAP1 SWAP2 ADD PUSH2 0x4712 JUMP JUMPDEST PUSH1 0x0 PUSH1 0x40 MLOAD DUP1 DUP4 SUB DUP2 PUSH1 0x0 DUP8 DUP1 EXTCODESIZE ISZERO DUP1 ISZERO PUSH2 0x2B7F JUMPI PUSH1 0x0 DUP1 REVERT JUMPDEST POP GAS CALL ISZERO DUP1 ISZERO PUSH2 0x2B93 JUMPI RETURNDATASIZE PUSH1 0x0 DUP1 RETURNDATACOPY RETURNDATASIZE PUSH1 0x0 REVERT JUMPDEST POP POP PUSH1 0x4 DUP1 SLOAD PUSH1 0x40 MLOAD PUSH4 0x995E995B PUSH1 0xE0 SHL DUP2 MSTORE PUSH1 0x1 PUSH1 0x1 PUSH1 0xA0 SHL SUB SWAP1 SWAP2 AND SWAP4 POP PUSH4 0x995E995B SWAP3 POP PUSH2 0x2BCA SWAP2 CALLER SWAP2 DUP11 SWAP2 DUP8 SWAP2 ADD PUSH2 0x4712 JUMP JUMPDEST PUSH1 0x0 PUSH1 0x40 MLOAD DUP1 DUP4 SUB DUP2 PUSH1 0x0 DUP8 DUP1 EXTCODESIZE ISZERO DUP1 ISZERO PUSH2 0x2BE4 JUMPI PUSH1 0x0 DUP1 REVERT JUMPDEST POP GAS CALL ISZERO DUP1 ISZERO PUSH2 0x2BF8 JUMPI RETURNDATASIZE PUSH1 0x0 DUP1 RETURNDATACOPY RETURNDATASIZE PUSH1 0x0 REVERT JUMPDEST POP POP POP POP JUMPDEST POP PUSH1 0x1 PUSH1 0x1 PUSH1 0xA0 SHL SUB DUP5 AND PUSH1 0x0 SWAP1 DUP2 MSTORE PUSH1 0xC PUSH1 0x20 SWAP1 DUP2 MSTORE PUSH1 0x40 DUP1 DUP4 KECCAK256 CALLER DUP5 MSTORE SWAP1 SWAP2 MSTORE DUP2 KECCAK256 SSTORE PUSH2 0x2F29 JUMP JUMPDEST PUSH1 0x1 PUSH1 0x1 PUSH1 0xA0 SHL SUB DUP5 AND PUSH1 0x0 SWAP1 DUP2 MSTORE PUSH1 0xC PUSH1 0x20 SWAP1 DUP2 MSTORE PUSH1 0x40 DUP1 DUP4 KECCAK256 CALLER DUP5 MSTORE SWAP1 SWAP2 MSTORE DUP2 KECCAK256 SLOAD PUSH2 0x2C56 SWAP1 DUP4 SWAP1 PUSH2 0x406F JUMP JUMPDEST PUSH1 0x1 PUSH1 0x1 PUSH1 0xA0 SHL SUB DUP7 AND PUSH1 0x0 SWAP1 DUP2 MSTORE PUSH1 0xC PUSH1 0x20 SWAP1 DUP2 MSTORE PUSH1 0x40 DUP1 DUP4 KECCAK256 CALLER DUP5 MSTORE SWAP1 SWAP2 MSTORE DUP2 KECCAK256 DUP1 SLOAD SWAP3 SWAP4 POP DUP4 SWAP3 SWAP1 SWAP2 SWAP1 PUSH2 0x2C8E SWAP1 DUP5 SWAP1 PUSH2 0x465E JUMP JUMPDEST SWAP1 SWAP2 SSTORE POP POP PUSH1 0x4 DUP1 SLOAD PUSH1 0x40 MLOAD PUSH4 0xFCE3E8E7 PUSH1 0xE0 SHL DUP2 MSTORE PUSH1 0x1 PUSH1 0x1 PUSH1 0xA0 SHL SUB DUP9 DUP2 AND SWAP4 DUP3 ADD SWAP4 SWAP1 SWAP4 MSTORE SWAP2 AND SWAP1 PUSH4 0xFCE3E8E7 SWAP1 PUSH1 0x24 ADD PUSH1 0x20 PUSH1 0x40 MLOAD DUP1 DUP4 SUB DUP2 DUP7 GAS STATICCALL ISZERO DUP1 ISZERO PUSH2 0x2CDF JUMPI RETURNDATASIZE PUSH1 0x0 DUP1 RETURNDATACOPY RETURNDATASIZE PUSH1 0x0 REVERT JUMPDEST POP POP POP POP PUSH1 0x40 MLOAD RETURNDATASIZE PUSH1 0x1F NOT PUSH1 0x1F DUP3 ADD AND DUP3 ADD DUP1 PUSH1 0x40 MSTORE POP DUP2 ADD SWAP1 PUSH2 0x2D03 SWAP2 SWAP1 PUSH2 0x462F JUMP JUMPDEST DUP2 GT ISZERO PUSH2 0x2EC1 JUMPI PUSH1 0x4 DUP1 SLOAD PUSH1 0x40 MLOAD PUSH4 0xFCE3E8E7 PUSH1 0xE0 SHL DUP2 MSTORE PUSH1 0x1 PUSH1 0x1 PUSH1 0xA0 SHL SUB DUP9 DUP2 AND SWAP4 DUP3 ADD SWAP4 SWAP1 SWAP4 MSTORE PUSH1 0x0 SWAP3 SWAP1 SWAP2 AND SWAP1 PUSH4 0xFCE3E8E7 SWAP1 PUSH1 0x24 ADD PUSH1 0x20 PUSH1 0x40 MLOAD DUP1 DUP4 SUB DUP2 DUP7 GAS STATICCALL ISZERO DUP1 ISZERO PUSH2 0x2D5A JUMPI RETURNDATASIZE PUSH1 0x0 DUP1 RETURNDATACOPY RETURNDATASIZE PUSH1 0x0 REVERT JUMPDEST POP POP POP POP PUSH1 0x40 MLOAD RETURNDATASIZE PUSH1 0x1F NOT PUSH1 0x1F DUP3 ADD AND DUP3 ADD DUP1 PUSH1 0x40 MSTORE POP DUP2 ADD SWAP1 PUSH2 0x2D7E SWAP2 SWAP1 PUSH2 0x462F JUMP JUMPDEST PUSH2 0x2D88 SWAP1 DUP4 PUSH2 0x465E JUMP JUMPDEST PUSH1 0x4 DUP1 SLOAD PUSH1 0x40 MLOAD PUSH4 0xFCE3E8E7 PUSH1 0xE0 SHL DUP2 MSTORE PUSH1 0x1 PUSH1 0x1 PUSH1 0xA0 SHL SUB DUP11 DUP2 AND SWAP4 DUP3 ADD SWAP4 SWAP1 SWAP4 MSTORE SWAP3 SWAP4 POP AND SWAP1 PUSH4 0xFCBFC2C8 SWAP1 CALLER SWAP1 DUP10 SWAP1 DUP5 SWAP1 PUSH4 0xFCE3E8E7 SWAP1 PUSH1 0x24 ADD PUSH1 0x20 PUSH1 0x40 MLOAD DUP1 DUP4 SUB DUP2 DUP7 GAS STATICCALL ISZERO DUP1 ISZERO PUSH2 0x2DE2 JUMPI RETURNDATASIZE PUSH1 0x0 DUP1 RETURNDATACOPY RETURNDATASIZE PUSH1 0x0 REVERT JUMPDEST POP POP POP POP PUSH1 0x40 MLOAD RETURNDATASIZE PUSH1 0x1F NOT PUSH1 0x1F DUP3 ADD AND DUP3 ADD DUP1 PUSH1 0x40 MSTORE POP DUP2 ADD SWAP1 PUSH2 0x2E06 SWAP2 SWAP1 PUSH2 0x462F JUMP JUMPDEST PUSH1 0x40 MLOAD DUP5 PUSH4 0xFFFFFFFF AND PUSH1 0xE0 SHL DUP2 MSTORE PUSH1 0x4 ADD PUSH2 0x2E24 SWAP4 SWAP3 SWAP2 SWAP1 PUSH2 0x4712 JUMP JUMPDEST PUSH1 0x0 PUSH1 0x40 MLOAD DUP1 DUP4 SUB DUP2 PUSH1 0x0 DUP8 DUP1 EXTCODESIZE ISZERO DUP1 ISZERO PUSH2 0x2E3E JUMPI PUSH1 0x0 DUP1 REVERT JUMPDEST POP GAS CALL ISZERO DUP1 ISZERO PUSH2 0x2E52 JUMPI RETURNDATASIZE PUSH1 0x0 DUP1 RETURNDATACOPY RETURNDATASIZE PUSH1 0x0 REVERT JUMPDEST POP POP PUSH1 0x4 DUP1 SLOAD PUSH1 0x40 MLOAD PUSH4 0x995E995B PUSH1 0xE0 SHL DUP2 MSTORE PUSH1 0x1 PUSH1 0x1 PUSH1 0xA0 SHL SUB SWAP1 SWAP2 AND SWAP4 POP PUSH4 0x995E995B SWAP3 POP PUSH2 0x2E89 SWAP2 CALLER SWAP2 DUP12 SWAP2 DUP8 SWAP2 ADD PUSH2 0x4712 JUMP JUMPDEST PUSH1 0x0 PUSH1 0x40 MLOAD DUP1 DUP4 SUB DUP2 PUSH1 0x0 DUP8 DUP1 EXTCODESIZE ISZERO DUP1 ISZERO PUSH2 0x2EA3 JUMPI PUSH1 0x0 DUP1 REVERT JUMPDEST POP GAS CALL ISZERO DUP1 ISZERO PUSH2 0x2EB7 JUMPI RETURNDATASIZE PUSH1 0x0 DUP1 RETURNDATACOPY RETURNDATASIZE PUSH1 0x0 REVERT JUMPDEST POP POP POP POP POP PUSH2 0x2F27 JUMP JUMPDEST PUSH1 0x4 DUP1 SLOAD PUSH1 0x40 MLOAD PUSH4 0x1F97F859 PUSH1 0xE3 SHL DUP2 MSTORE PUSH1 0x1 PUSH1 0x1 PUSH1 0xA0 SHL SUB SWAP1 SWAP2 AND SWAP2 PUSH4 0xFCBFC2C8 SWAP2 PUSH2 0x2EF4 SWAP2 CALLER SWAP2 DUP11 SWAP2 DUP9 SWAP2 ADD PUSH2 0x4712 JUMP JUMPDEST PUSH1 0x0 PUSH1 0x40 MLOAD DUP1 DUP4 SUB DUP2 PUSH1 0x0 DUP8 DUP1 EXTCODESIZE ISZERO DUP1 ISZERO PUSH2 0x2F0E JUMPI PUSH1 0x0 DUP1 REVERT JUMPDEST POP GAS CALL ISZERO DUP1 ISZERO PUSH2 0x2F22 JUMPI RETURNDATASIZE PUSH1 0x0 DUP1 RETURNDATACOPY RETURNDATASIZE PUSH1 0x0 REVERT JUMPDEST POP POP POP POP JUMPDEST POP JUMPDEST PUSH32 0x9A2C2E027B0E93D2BAB8A1DB6764850FAF19C3F41EC55C77E319131FA38176E6 CALLER DUP6 DUP6 PUSH1 0x40 MLOAD PUSH2 0x2F5C SWAP4 SWAP3 SWAP2 SWAP1 PUSH2 0x4712 JUMP JUMPDEST PUSH1 0x40 MLOAD DUP1 SWAP2 SUB SWAP1 LOG1 POP POP POP POP JUMP JUMPDEST PUSH1 0x0 DUP3 DUP2 MSTORE PUSH1 0x1 PUSH1 0x20 MSTORE PUSH1 0x40 DUP2 KECCAK256 PUSH2 0x839 SWAP1 DUP4 PUSH2 0x407B JUMP JUMPDEST PUSH1 0x0 SWAP2 DUP3 MSTORE PUSH1 0x20 DUP3 DUP2 MSTORE PUSH1 0x40 DUP1 DUP5 KECCAK256 PUSH1 0x1 PUSH1 0x1 PUSH1 0xA0 SHL SUB SWAP4 SWAP1 SWAP4 AND DUP5 MSTORE SWAP2 SWAP1 MSTORE SWAP1 KECCAK256 SLOAD PUSH1 0xFF AND SWAP1 JUMP JUMPDEST PUSH1 0x5 SLOAD PUSH1 0x40 MLOAD PUSH4 0x1D512A91 PUSH1 0xE2 SHL DUP2 MSTORE PUSH1 0x1 PUSH1 0x1 PUSH1 0xA0 SHL SUB DUP4 DUP2 AND PUSH1 0x4 DUP4 ADD MSTORE PUSH1 0x0 SWAP3 AND SWAP1 PUSH4 0x7544AA44 SWAP1 PUSH1 0x24 ADD PUSH2 0x72B JUMP JUMPDEST PUSH1 0x6 SLOAD PUSH1 0x40 MLOAD PUSH4 0x70A08231 PUSH1 0xE0 SHL DUP2 MSTORE PUSH1 0x1 PUSH1 0x1 PUSH1 0xA0 SHL SUB DUP4 DUP2 AND PUSH1 0x4 DUP4 ADD MSTORE PUSH1 0x0 SWAP3 AND SWAP1 PUSH4 0x70A08231 SWAP1 PUSH1 0x24 ADD PUSH2 0x72B JUMP JUMPDEST PUSH2 0x3029 PUSH1 0x0 DUP1 MLOAD PUSH1 0x20 PUSH2 0x487C DUP4 CODECOPY DUP2 MLOAD SWAP2 MSTORE CALLER PUSH2 0x2F82 JUMP JUMPDEST PUSH2 0x3045 JUMPI PUSH1 0x40 MLOAD PUSH3 0x461BCD PUSH1 0xE5 SHL DUP2 MSTORE PUSH1 0x4 ADD PUSH2 0x8F4 SWAP1 PUSH2 0x4697 JUMP JUMPDEST PUSH1 0x9 DUP1 SLOAD PUSH1 0x1 DUP2 ADD DUP3 SSTORE PUSH1 0x0 SWAP2 SWAP1 SWAP2 MSTORE PUSH32 0x6E1540171B6C0C960B71A7020D9F60077F6AF931A8BBF590DA0223DACF75C7AF ADD DUP1 SLOAD PUSH1 0x1 PUSH1 0x1 PUSH1 0xA0 SHL SUB NOT AND PUSH1 0x1 PUSH1 0x1 PUSH1 0xA0 SHL SUB DUP4 DUP2 AND SWAP2 DUP3 OR SWAP1 SWAP3 SSTORE PUSH1 0x4 DUP1 SLOAD PUSH1 0x40 MLOAD PUSH4 0xFAC09E87 PUSH1 0xE0 SHL DUP2 MSTORE SWAP2 DUP3 ADD SWAP3 SWAP1 SWAP3 MSTORE SWAP2 AND SWAP1 PUSH4 0xFAC09E87 SWAP1 PUSH1 0x24 ADD PUSH1 0x0 PUSH1 0x40 MLOAD DUP1 DUP4 SUB DUP2 PUSH1 0x0 DUP8 DUP1 EXTCODESIZE ISZERO DUP1 ISZERO PUSH2 0x30D2 JUMPI PUSH1 0x0 DUP1 REVERT JUMPDEST POP GAS CALL ISZERO DUP1 ISZERO PUSH2 0x30E6 JUMPI RETURNDATASIZE PUSH1 0x0 DUP1 RETURNDATACOPY RETURNDATASIZE PUSH1 0x0 REVERT JUMPDEST POP POP PUSH1 0x5 SLOAD PUSH1 0x40 MLOAD PUSH4 0xFAC09E87 PUSH1 0xE0 SHL DUP2 MSTORE PUSH1 0x1 PUSH1 0x1 PUSH1 0xA0 SHL SUB DUP6 DUP2 AND PUSH1 0x4 DUP4 ADD MSTORE SWAP1 SWAP2 AND SWAP3 POP PUSH4 0xFAC09E87 SWAP2 POP PUSH1 0x24 ADD PUSH1 0x0 PUSH1 0x40 MLOAD DUP1 DUP4 SUB DUP2 PUSH1 0x0 DUP8 DUP1 EXTCODESIZE ISZERO DUP1 ISZERO PUSH2 0x3131 JUMPI PUSH1 0x0 DUP1 REVERT JUMPDEST POP GAS CALL ISZERO DUP1 ISZERO PUSH2 0x3145 JUMPI RETURNDATASIZE PUSH1 0x0 DUP1 RETURNDATACOPY RETURNDATASIZE PUSH1 0x0 REVERT JUMPDEST POP POP POP POP POP JUMP JUMPDEST PUSH1 0x5 SLOAD PUSH1 0x40 MLOAD PUSH4 0x2B92A07D PUSH1 0xE0 SHL DUP2 MSTORE PUSH1 0x1 PUSH1 0x1 PUSH1 0xA0 SHL SUB DUP4 DUP2 AND PUSH1 0x4 DUP4 ADD MSTORE DUP5 DUP2 AND PUSH1 0x24 DUP4 ADD MSTORE PUSH1 0x0 SWAP3 AND SWAP1 PUSH4 0x2B92A07D SWAP1 PUSH1 0x44 ADD PUSH1 0x20 PUSH1 0x40 MLOAD DUP1 DUP4 SUB DUP2 DUP7 GAS STATICCALL ISZERO DUP1 ISZERO PUSH2 0x319F JUMPI RETURNDATASIZE PUSH1 0x0 DUP1 RETURNDATACOPY RETURNDATASIZE PUSH1 0x0 REVERT JUMPDEST POP POP POP POP PUSH1 0x40 MLOAD RETURNDATASIZE PUSH1 0x1F NOT PUSH1 0x1F DUP3 ADD AND DUP3 ADD DUP1 PUSH1 0x40 MSTORE POP DUP2 ADD SWAP1 PUSH2 0x839 SWAP2 SWAP1 PUSH2 0x462F JUMP JUMPDEST PUSH1 0x4 DUP1 SLOAD PUSH1 0x40 MLOAD PUSH4 0xFCE3E8E7 PUSH1 0xE0 SHL DUP2 MSTORE PUSH1 0x1 PUSH1 0x1 PUSH1 0xA0 SHL SUB DUP5 DUP2 AND SWAP4 DUP3 ADD SWAP4 SWAP1 SWAP4 MSTORE PUSH1 0x0 SWAP3 SWAP1 SWAP2 AND SWAP1 PUSH4 0xFCE3E8E7 SWAP1 PUSH1 0x24 ADD PUSH2 0x72B JUMP JUMPDEST PUSH1 0x1 PUSH1 0x1 PUSH1 0xA0 SHL SUB DUP2 DUP2 AND PUSH1 0x0 SWAP1 DUP2 MSTORE PUSH1 0xB PUSH1 0x20 SWAP1 DUP2 MSTORE PUSH1 0x40 DUP1 DUP4 KECCAK256 SWAP4 DUP7 AND DUP4 MSTORE SWAP3 SWAP1 MSTORE SWAP1 DUP2 KECCAK256 PUSH1 0x1 DUP2 ADD SLOAD SWAP1 SLOAD PUSH2 0x839 SWAP2 SWAP1 PUSH2 0x46DB JUMP JUMPDEST PUSH1 0x1 PUSH1 0x1 PUSH1 0xA0 SHL SUB DUP4 AND PUSH1 0x0 SWAP1 DUP2 MSTORE PUSH1 0xA PUSH1 0x20 MSTORE PUSH1 0x40 SWAP1 KECCAK256 SLOAD PUSH1 0xFF AND PUSH2 0x326B JUMPI PUSH1 0x40 MLOAD PUSH3 0x461BCD PUSH1 0xE5 SHL DUP2 MSTORE PUSH1 0x4 ADD PUSH2 0x8F4 SWAP1 PUSH2 0x4758 JUMP JUMPDEST PUSH2 0x3273 PUSH2 0x3D4F JUMP JUMPDEST PUSH2 0x327C CALLER PUSH2 0x39DA JUMP JUMPDEST PUSH1 0x5 SLOAD PUSH1 0x40 MLOAD PUSH4 0x6829F1B PUSH1 0xE3 SHL DUP2 MSTORE PUSH1 0x1 PUSH1 0x1 PUSH1 0xA0 SHL SUB DUP7 DUP2 AND PUSH1 0x4 DUP4 ADD MSTORE SWAP1 SWAP2 AND SWAP1 PUSH4 0x3414F8D8 SWAP1 PUSH1 0x24 ADD PUSH1 0x20 PUSH1 0x40 MLOAD DUP1 DUP4 SUB DUP2 DUP7 GAS STATICCALL ISZERO DUP1 ISZERO PUSH2 0x32C6 JUMPI RETURNDATASIZE PUSH1 0x0 DUP1 RETURNDATACOPY RETURNDATASIZE PUSH1 0x0 REVERT JUMPDEST POP POP POP POP PUSH1 0x40 MLOAD RETURNDATASIZE PUSH1 0x1F NOT PUSH1 0x1F DUP3 ADD AND DUP3 ADD DUP1 PUSH1 0x40 MSTORE POP DUP2 ADD SWAP1 PUSH2 0x32EA SWAP2 SWAP1 PUSH2 0x462F JUMP JUMPDEST PUSH1 0x3 SLOAD PUSH1 0x40 MLOAD PUSH4 0x41976E09 PUSH1 0xE0 SHL DUP2 MSTORE PUSH1 0x1 PUSH1 0x1 PUSH1 0xA0 SHL SUB DUP8 DUP2 AND PUSH1 0x4 DUP4 ADD MSTORE DUP7 SWAP3 AND SWAP1 PUSH4 0x41976E09 SWAP1 PUSH1 0x24 ADD PUSH1 0x20 PUSH1 0x40 MLOAD DUP1 DUP4 SUB DUP2 DUP7 GAS STATICCALL ISZERO DUP1 ISZERO PUSH2 0x3334 JUMPI RETURNDATASIZE PUSH1 0x0 DUP1 RETURNDATACOPY RETURNDATASIZE PUSH1 0x0 REVERT JUMPDEST POP POP POP POP PUSH1 0x40 MLOAD RETURNDATASIZE PUSH1 0x1F NOT PUSH1 0x1F DUP3 ADD AND DUP3 ADD DUP1 PUSH1 0x40 MSTORE POP DUP2 ADD SWAP1 PUSH2 0x3358 SWAP2 SWAP1 PUSH2 0x462F JUMP JUMPDEST PUSH2 0x3362 SWAP2 SWAP1 PUSH2 0x46F3 JUMP JUMPDEST PUSH2 0x336C SWAP2 SWAP1 PUSH2 0x4675 JUMP JUMPDEST PUSH1 0x5 SLOAD PUSH1 0x40 MLOAD PUSH4 0x1FCD2D5 PUSH1 0xE0 SHL DUP2 MSTORE CALLER PUSH1 0x4 DUP3 ADD MSTORE PUSH1 0x1 PUSH1 0x1 PUSH1 0xA0 SHL SUB SWAP1 SWAP2 AND SWAP1 PUSH4 0x1FCD2D5 SWAP1 PUSH1 0x24 ADD PUSH1 0x20 PUSH1 0x40 MLOAD DUP1 DUP4 SUB DUP2 DUP7 GAS STATICCALL ISZERO DUP1 ISZERO PUSH2 0x33B4 JUMPI RETURNDATASIZE PUSH1 0x0 DUP1 RETURNDATACOPY RETURNDATASIZE PUSH1 0x0 REVERT JUMPDEST POP POP POP POP PUSH1 0x40 MLOAD RETURNDATASIZE PUSH1 0x1F NOT PUSH1 0x1F DUP3 ADD AND DUP3 ADD DUP1 PUSH1 0x40 MSTORE POP DUP2 ADD SWAP1 PUSH2 0x33D8 SWAP2 SWAP1 PUSH2 0x462F JUMP JUMPDEST PUSH2 0x33E2 SWAP2 SWAP1 PUSH2 0x465E JUMP JUMPDEST LT ISZERO PUSH2 0x344B JUMPI PUSH1 0x40 MLOAD PUSH3 0x461BCD PUSH1 0xE5 SHL DUP2 MSTORE PUSH1 0x20 PUSH1 0x4 DUP3 ADD MSTORE PUSH1 0x32 PUSH1 0x24 DUP3 ADD MSTORE PUSH32 0x43616E6E6F7420776974686472617720636F6C6C61746572616C206265666F72 PUSH1 0x44 DUP3 ADD MSTORE PUSH18 0x32903830BCB4B733903130B1B5903637B0B7 PUSH1 0x71 SHL PUSH1 0x64 DUP3 ADD MSTORE PUSH1 0x84 ADD PUSH2 0x8F4 JUMP JUMPDEST PUSH1 0x5 SLOAD PUSH1 0x40 MLOAD PUSH4 0x2B92A07D PUSH1 0xE0 SHL DUP2 MSTORE PUSH1 0x1 PUSH1 0x1 PUSH1 0xA0 SHL SUB DUP6 DUP2 AND PUSH1 0x4 DUP4 ADD MSTORE CALLER PUSH1 0x24 DUP4 ADD MSTORE PUSH1 0x0 SWAP3 AND SWAP1 PUSH4 0x2B92A07D SWAP1 PUSH1 0x44 ADD PUSH1 0x20 PUSH1 0x40 MLOAD DUP1 DUP4 SUB DUP2 DUP7 GAS STATICCALL ISZERO DUP1 ISZERO PUSH2 0x349C JUMPI RETURNDATASIZE PUSH1 0x0 DUP1 RETURNDATACOPY RETURNDATASIZE PUSH1 0x0 REVERT JUMPDEST POP POP POP POP PUSH1 0x40 MLOAD RETURNDATASIZE PUSH1 0x1F NOT PUSH1 0x1F DUP3 ADD AND DUP3 ADD DUP1 PUSH1 0x40 MSTORE POP DUP2 ADD SWAP1 PUSH2 0x34C0 SWAP2 SWAP1 PUSH2 0x462F JUMP JUMPDEST SWAP1 POP DUP1 DUP4 GT ISZERO PUSH2 0x3523 JUMPI PUSH1 0x40 MLOAD PUSH3 0x461BCD PUSH1 0xE5 SHL DUP2 MSTORE PUSH1 0x20 PUSH1 0x4 DUP3 ADD MSTORE PUSH1 0x28 PUSH1 0x24 DUP3 ADD MSTORE PUSH32 0x52656465656D696E67206D6F726520636F6C6C61746572616C207468616E2064 PUSH1 0x44 DUP3 ADD MSTORE PUSH8 0x195C1BDCDA5D1959 PUSH1 0xC2 SHL PUSH1 0x64 DUP3 ADD MSTORE PUSH1 0x84 ADD PUSH2 0x8F4 JUMP JUMPDEST PUSH1 0x1 DUP3 ISZERO ISZERO EQ ISZERO PUSH2 0x36EB JUMPI PUSH1 0x6 SLOAD PUSH1 0x40 MLOAD PUSH4 0xD4D1513 PUSH1 0xE0 SHL DUP2 MSTORE CALLER PUSH1 0x4 DUP3 ADD MSTORE PUSH1 0x24 DUP2 ADD DUP6 SWAP1 MSTORE PUSH1 0x1 PUSH1 0x1 PUSH1 0xA0 SHL SUB DUP7 DUP2 AND PUSH1 0x44 DUP4 ADD MSTORE PUSH1 0x0 SWAP3 AND SWAP1 PUSH4 0xD4D1513 SWAP1 PUSH1 0x64 ADD PUSH1 0x20 PUSH1 0x40 MLOAD DUP1 DUP4 SUB DUP2 PUSH1 0x0 DUP8 GAS CALL ISZERO DUP1 ISZERO PUSH2 0x3588 JUMPI RETURNDATASIZE PUSH1 0x0 DUP1 RETURNDATACOPY RETURNDATASIZE PUSH1 0x0 REVERT JUMPDEST POP POP POP POP PUSH1 0x40 MLOAD RETURNDATASIZE PUSH1 0x1F NOT PUSH1 0x1F DUP3 ADD AND DUP3 ADD DUP1 PUSH1 0x40 MSTORE POP DUP2 ADD SWAP1 PUSH2 0x35AC SWAP2 SWAP1 PUSH2 0x462F JUMP JUMPDEST CALLER PUSH1 0x0 SWAP1 DUP2 MSTORE PUSH1 0x8 PUSH1 0x20 MSTORE PUSH1 0x40 DUP2 KECCAK256 DUP1 SLOAD SWAP3 SWAP4 POP DUP4 SWAP3 SWAP1 SWAP2 SWAP1 PUSH2 0x35D0 SWAP1 DUP5 SWAP1 PUSH2 0x46DB JUMP JUMPDEST SWAP1 SWAP2 SSTORE POP POP PUSH1 0x1 PUSH1 0x1 PUSH1 0xA0 SHL SUB DUP6 AND PUSH1 0x0 SWAP1 DUP2 MSTORE PUSH1 0x12 PUSH1 0x20 SWAP1 DUP2 MSTORE PUSH1 0x40 DUP1 DUP4 KECCAK256 CALLER DUP5 MSTORE SWAP1 SWAP2 MSTORE SWAP1 KECCAK256 SLOAD PUSH1 0xFF AND PUSH2 0x365D JUMPI PUSH1 0x1 PUSH1 0x1 PUSH1 0xA0 SHL SUB DUP6 AND PUSH1 0x0 DUP2 DUP2 MSTORE PUSH1 0x11 PUSH1 0x20 SWAP1 DUP2 MSTORE PUSH1 0x40 DUP1 DUP4 KECCAK256 DUP1 SLOAD PUSH1 0x1 DUP2 DUP2 ADD DUP4 SSTORE SWAP2 DUP6 MSTORE DUP4 DUP6 KECCAK256 ADD DUP1 SLOAD PUSH1 0x1 PUSH1 0x1 PUSH1 0xA0 SHL SUB NOT AND CALLER SWAP1 DUP2 OR SWAP1 SWAP2 SSTORE SWAP5 DUP5 MSTORE PUSH1 0x12 DUP4 MSTORE DUP2 DUP5 KECCAK256 SWAP5 DUP5 MSTORE SWAP4 SWAP1 SWAP2 MSTORE SWAP1 KECCAK256 DUP1 SLOAD PUSH1 0xFF NOT AND SWAP1 SWAP2 OR SWAP1 SSTORE JUMPDEST PUSH1 0x1 PUSH1 0x1 PUSH1 0xA0 SHL SUB DUP6 AND PUSH1 0x0 SWAP1 DUP2 MSTORE PUSH1 0xC PUSH1 0x20 SWAP1 DUP2 MSTORE PUSH1 0x40 DUP1 DUP4 KECCAK256 CALLER DUP5 MSTORE SWAP1 SWAP2 MSTORE DUP2 KECCAK256 DUP1 SLOAD DUP7 SWAP3 SWAP1 PUSH2 0x3690 SWAP1 DUP5 SWAP1 PUSH2 0x46DB JUMP JUMPDEST SWAP1 SWAP2 SSTORE POP POP PUSH1 0x40 DUP1 MLOAD CALLER DUP2 MSTORE PUSH1 0x1 PUSH1 0x1 PUSH1 0xA0 SHL SUB DUP8 AND PUSH1 0x20 DUP3 ADD MSTORE SWAP1 DUP2 ADD DUP6 SWAP1 MSTORE PUSH1 0x60 DUP2 ADD DUP3 SWAP1 MSTORE PUSH32 0xD2D0080ED70CEB7CE39856D34A5727B439EC7C7919425087ED35ED6868791556 SWAP1 PUSH1 0x80 ADD PUSH1 0x40 MLOAD DUP1 SWAP2 SUB SWAP1 LOG1 POP PUSH2 0x3727 JUMP JUMPDEST PUSH32 0x3FF0C85F880C6A1F943C2C36EBBB2CB1B93959479DB451B2ACB7B1E06F4E369 CALLER DUP6 DUP6 PUSH1 0x40 MLOAD PUSH2 0x371E SWAP4 SWAP3 SWAP2 SWAP1 PUSH2 0x4712 JUMP JUMPDEST PUSH1 0x40 MLOAD DUP1 SWAP2 SUB SWAP1 LOG1 JUMPDEST PUSH1 0x5 SLOAD PUSH1 0x40 MLOAD PUSH4 0x4755EA7F PUSH1 0xE1 SHL DUP2 MSTORE CALLER PUSH1 0x4 DUP3 ADD MSTORE PUSH1 0x1 PUSH1 0x1 PUSH1 0xA0 SHL SUB DUP7 DUP2 AND PUSH1 0x24 DUP4 ADD MSTORE PUSH1 0x44 DUP3 ADD DUP7 SWAP1 MSTORE DUP5 ISZERO ISZERO PUSH1 0x64 DUP4 ADD MSTORE SWAP1 SWAP2 AND SWAP1 PUSH4 0x8EABD4FE SWAP1 PUSH1 0x84 ADD PUSH1 0x0 PUSH1 0x40 MLOAD DUP1 DUP4 SUB DUP2 PUSH1 0x0 DUP8 DUP1 EXTCODESIZE ISZERO DUP1 ISZERO PUSH2 0x3783 JUMPI PUSH1 0x0 DUP1 REVERT JUMPDEST POP GAS CALL ISZERO DUP1 ISZERO PUSH2 0x3797 JUMPI RETURNDATASIZE PUSH1 0x0 DUP1 RETURNDATACOPY RETURNDATASIZE PUSH1 0x0 REVERT JUMPDEST POP POP POP POP POP POP POP POP JUMP JUMPDEST PUSH1 0x6 SLOAD PUSH1 0x40 DUP1 MLOAD PUSH4 0x18160DDD PUSH1 0xE0 SHL DUP2 MSTORE SWAP1 MLOAD PUSH1 0x0 SWAP3 PUSH1 0x1 PUSH1 0x1 PUSH1 0xA0 SHL SUB AND SWAP2 PUSH4 0x18160DDD SWAP2 PUSH1 0x4 DUP1 DUP4 ADD SWAP3 PUSH1 0x20 SWAP3 SWAP2 SWAP1 DUP3 SWAP1 SUB ADD DUP2 DUP7 GAS STATICCALL ISZERO DUP1 ISZERO PUSH2 0x895 JUMPI RETURNDATASIZE PUSH1 0x0 DUP1 RETURNDATACOPY RETURNDATASIZE PUSH1 0x0 REVERT JUMPDEST PUSH2 0x3803 PUSH1 0x0 DUP1 MLOAD PUSH1 0x20 PUSH2 0x487C DUP4 CODECOPY DUP2 MLOAD SWAP2 MSTORE CALLER PUSH2 0x2F82 JUMP JUMPDEST PUSH2 0x381F JUMPI PUSH1 0x40 MLOAD PUSH3 0x461BCD PUSH1 0xE5 SHL DUP2 MSTORE PUSH1 0x4 ADD PUSH2 0x8F4 SWAP1 PUSH2 0x4697 JUMP JUMPDEST PUSH1 0x4 DUP1 SLOAD PUSH1 0x7 SLOAD PUSH1 0x40 MLOAD PUSH4 0x63DC4EF5 PUSH1 0xE0 SHL DUP2 MSTORE PUSH1 0x1 PUSH1 0x1 PUSH1 0xA0 SHL SUB SWAP2 DUP3 AND SWAP4 DUP2 ADD SWAP4 SWAP1 SWAP4 MSTORE AND SWAP1 PUSH4 0x63DC4EF5 SWAP1 PUSH1 0x24 ADD PUSH1 0x0 PUSH1 0x40 MLOAD DUP1 DUP4 SUB DUP2 PUSH1 0x0 DUP8 DUP1 EXTCODESIZE ISZERO DUP1 ISZERO PUSH2 0x386A JUMPI PUSH1 0x0 DUP1 REVERT JUMPDEST POP GAS CALL ISZERO DUP1 ISZERO PUSH2 0x2281 JUMPI RETURNDATASIZE PUSH1 0x0 DUP1 RETURNDATACOPY RETURNDATASIZE PUSH1 0x0 REVERT JUMPDEST PUSH1 0x0 DUP2 DUP2 MSTORE PUSH1 0x1 PUSH1 0x20 MSTORE PUSH1 0x40 DUP2 KECCAK256 PUSH2 0x6F6 SWAP1 PUSH2 0x4087 JUMP JUMPDEST PUSH1 0x5 SLOAD PUSH1 0x40 MLOAD PUSH4 0x1FCD2D5 PUSH1 0xE0 SHL DUP2 MSTORE PUSH1 0x1 PUSH1 0x1 PUSH1 0xA0 SHL SUB DUP4 DUP2 AND PUSH1 0x4 DUP4 ADD MSTORE PUSH1 0x0 SWAP3 AND SWAP1 PUSH4 0x1FCD2D5 SWAP1 PUSH1 0x24 ADD PUSH2 0x72B JUMP JUMPDEST PUSH1 0x4 DUP1 SLOAD PUSH1 0x40 MLOAD PUSH4 0xF8B2CB4F PUSH1 0xE0 SHL DUP2 MSTORE PUSH1 0x1 PUSH1 0x1 PUSH1 0xA0 SHL SUB DUP5 DUP2 AND SWAP4 DUP3 ADD SWAP4 SWAP1 SWAP4 MSTORE PUSH1 0x0 SWAP3 SWAP1 SWAP2 AND SWAP1 PUSH4 0xF8B2CB4F SWAP1 PUSH1 0x24 ADD PUSH2 0x72B JUMP JUMPDEST PUSH1 0x4 DUP1 SLOAD PUSH1 0x2 SLOAD PUSH1 0x40 MLOAD PUSH4 0x6448FD3 PUSH1 0xE5 SHL DUP2 MSTORE PUSH1 0x0 SWAP4 PUSH1 0x1 PUSH1 0x1 PUSH1 0xA0 SHL SUB SWAP1 SWAP4 AND SWAP3 PUSH4 0xC891FA60 SWAP3 PUSH2 0x72B SWAP3 DUP8 SWAP3 ADD PUSH1 0x1 PUSH1 0x1 PUSH1 0xA0 SHL SUB SWAP3 SWAP1 SWAP3 AND DUP3 MSTORE PUSH1 0x20 DUP3 ADD MSTORE PUSH1 0x40 ADD SWAP1 JUMP JUMPDEST PUSH1 0x5 SLOAD PUSH1 0x40 MLOAD PUSH4 0x28D1F893 PUSH1 0xE2 SHL DUP2 MSTORE PUSH1 0x1 PUSH1 0x1 PUSH1 0xA0 SHL SUB DUP4 DUP2 AND PUSH1 0x4 DUP4 ADD MSTORE PUSH1 0x0 SWAP3 AND SWAP1 PUSH4 0xA347E24C SWAP1 PUSH1 0x24 ADD PUSH2 0x72B JUMP JUMPDEST PUSH1 0x0 DUP3 DUP2 MSTORE PUSH1 0x20 DUP2 SWAP1 MSTORE PUSH1 0x40 SWAP1 KECCAK256 PUSH1 0x1 ADD SLOAD PUSH2 0x3998 DUP2 CALLER PUSH2 0x3FC7 JUMP JUMPDEST PUSH2 0x1568 DUP4 DUP4 PUSH2 0x404D JUMP JUMPDEST PUSH1 0x4 DUP1 SLOAD PUSH1 0x40 MLOAD PUSH4 0xDE30F97D PUSH1 0xE0 SHL DUP2 MSTORE PUSH1 0x1 PUSH1 0x1 PUSH1 0xA0 SHL SUB DUP5 DUP2 AND SWAP4 DUP3 ADD SWAP4 SWAP1 SWAP4 MSTORE PUSH1 0x0 SWAP3 SWAP1 SWAP2 AND SWAP1 PUSH4 0xDE30F97D SWAP1 PUSH1 0x24 ADD PUSH2 0x72B JUMP JUMPDEST PUSH1 0x9 SLOAD PUSH1 0x0 SWAP1 DUP2 SWAP1 DUP2 JUMPDEST DUP2 DUP2 PUSH2 0xFFFF AND LT ISZERO PUSH2 0x3AFE JUMPI PUSH1 0x0 PUSH1 0x9 DUP3 PUSH2 0xFFFF AND DUP2 SLOAD DUP2 LT PUSH2 0x3A09 JUMPI PUSH2 0x3A09 PUSH2 0x46C5 JUMP JUMPDEST PUSH1 0x0 SWAP2 DUP3 MSTORE PUSH1 0x20 DUP3 KECCAK256 ADD SLOAD PUSH1 0x3 SLOAD PUSH1 0x40 MLOAD PUSH4 0x41976E09 PUSH1 0xE0 SHL DUP2 MSTORE PUSH1 0x1 PUSH1 0x1 PUSH1 0xA0 SHL SUB SWAP3 DUP4 AND PUSH1 0x4 DUP3 ADD DUP2 SWAP1 MSTORE SWAP5 POP SWAP2 AND SWAP1 PUSH4 0x41976E09 SWAP1 PUSH1 0x24 ADD PUSH1 0x20 PUSH1 0x40 MLOAD DUP1 DUP4 SUB DUP2 DUP7 GAS STATICCALL ISZERO DUP1 ISZERO PUSH2 0x3A61 JUMPI RETURNDATASIZE PUSH1 0x0 DUP1 RETURNDATACOPY RETURNDATASIZE PUSH1 0x0 REVERT JUMPDEST POP POP POP POP PUSH1 0x40 MLOAD RETURNDATASIZE PUSH1 0x1F NOT PUSH1 0x1F DUP3 ADD AND DUP3 ADD DUP1 PUSH1 0x40 MSTORE POP DUP2 ADD SWAP1 PUSH2 0x3A85 SWAP2 SWAP1 PUSH2 0x462F JUMP JUMPDEST PUSH1 0x1 PUSH1 0x1 PUSH1 0xA0 SHL SUB DUP4 DUP2 AND PUSH1 0x0 SWAP1 DUP2 MSTORE PUSH1 0xB PUSH1 0x20 SWAP1 DUP2 MSTORE PUSH1 0x40 DUP1 DUP4 KECCAK256 SWAP4 DUP13 AND DUP4 MSTORE SWAP3 SWAP1 MSTORE KECCAK256 PUSH1 0x1 DUP2 ADD SLOAD SWAP1 SLOAD SWAP2 SWAP3 POP PUSH8 0xDE0B6B3A7640000 SWAP2 DUP4 SWAP2 PUSH2 0x3AC9 SWAP2 PUSH2 0x46DB JUMP JUMPDEST PUSH2 0x3AD3 SWAP2 SWAP1 PUSH2 0x46F3 JUMP JUMPDEST PUSH2 0x3ADD SWAP2 SWAP1 PUSH2 0x4675 JUMP JUMPDEST PUSH2 0x3AE7 SWAP1 DUP7 PUSH2 0x46DB JUMP JUMPDEST SWAP5 POP POP POP DUP1 DUP1 PUSH2 0x3AF6 SWAP1 PUSH2 0x4736 JUMP JUMPDEST SWAP2 POP POP PUSH2 0x39E4 JUMP JUMPDEST POP SWAP1 SWAP4 SWAP3 POP POP POP JUMP JUMPDEST PUSH1 0x4 DUP1 SLOAD PUSH1 0x40 MLOAD PUSH4 0x52045A7 PUSH1 0xE2 SHL DUP2 MSTORE PUSH1 0x1 PUSH1 0x1 PUSH1 0xA0 SHL SUB DUP5 DUP2 AND SWAP4 DUP3 ADD SWAP4 SWAP1 SWAP4 MSTORE PUSH1 0x0 SWAP3 SWAP1 SWAP2 AND SWAP1 PUSH4 0x1481169C SWAP1 PUSH1 0x24 ADD PUSH1 0x20 PUSH1 0x40 MLOAD DUP1 DUP4 SUB DUP2 DUP7 GAS STATICCALL ISZERO DUP1 ISZERO PUSH2 0x3B57 JUMPI RETURNDATASIZE PUSH1 0x0 DUP1 RETURNDATACOPY RETURNDATASIZE PUSH1 0x0 REVERT JUMPDEST POP POP POP POP PUSH1 0x40 MLOAD RETURNDATASIZE PUSH1 0x1F NOT PUSH1 0x1F DUP3 ADD AND DUP3 ADD DUP1 PUSH1 0x40 MSTORE POP DUP2 ADD SWAP1 PUSH2 0x3B7B SWAP2 SWAP1 PUSH2 0x462F JUMP JUMPDEST PUSH2 0x6F6 SWAP1 PUSH1 0x64 PUSH2 0x46F3 JUMP JUMPDEST PUSH2 0x3B90 DUP3 DUP3 PUSH2 0x2F82 JUMP JUMPDEST PUSH2 0x14A8 JUMPI PUSH1 0x0 DUP3 DUP2 MSTORE PUSH1 0x20 DUP2 DUP2 MSTORE PUSH1 0x40 DUP1 DUP4 KECCAK256 PUSH1 0x1 PUSH1 0x1 PUSH1 0xA0 SHL SUB DUP6 AND DUP5 MSTORE SWAP1 SWAP2 MSTORE SWAP1 KECCAK256 DUP1 SLOAD PUSH1 0xFF NOT AND PUSH1 0x1 OR SWAP1 SSTORE PUSH2 0x3BC6 CALLER SWAP1 JUMP JUMPDEST PUSH1 0x1 PUSH1 0x1 PUSH1 0xA0 SHL SUB AND DUP2 PUSH1 0x1 PUSH1 0x1 PUSH1 0xA0 SHL SUB AND DUP4 PUSH32 0x2F8788117E7EFF1D82E926EC794901D17C78024A50270940304540A733656F0D PUSH1 0x40 MLOAD PUSH1 0x40 MLOAD DUP1 SWAP2 SUB SWAP1 LOG4 POP POP JUMP JUMPDEST PUSH1 0x0 PUSH2 0x839 DUP4 PUSH1 0x1 PUSH1 0x1 PUSH1 0xA0 SHL SUB DUP5 AND PUSH2 0x4091 JUMP JUMPDEST PUSH1 0x0 PUSH1 0x1 PUSH1 0x1 PUSH1 0xE0 SHL SUB NOT DUP3 AND PUSH4 0x7965DB0B PUSH1 0xE0 SHL EQ DUP1 PUSH2 0x6F6 JUMPI POP PUSH4 0x1FFC9A7 PUSH1 0xE0 SHL PUSH1 0x1 PUSH1 0x1 PUSH1 0xE0 SHL SUB NOT DUP4 AND EQ PUSH2 0x6F6 JUMP JUMPDEST PUSH1 0x0 DUP1 PUSH8 0xDE0B6B3A7640000 DUP6 PUSH2 0x3C6B DUP3 DUP8 PUSH2 0x465E JUMP JUMPDEST PUSH2 0x3C75 SWAP2 SWAP1 PUSH2 0x46F3 JUMP JUMPDEST PUSH2 0x3C7F SWAP2 SWAP1 PUSH2 0x4675 JUMP JUMPDEST DUP4 PUSH8 0xDE0B6B3A7640000 PUSH2 0x3C93 DUP8 DUP10 PUSH2 0x46F3 JUMP JUMPDEST PUSH2 0x3C9D SWAP2 SWAP1 PUSH2 0x4675 JUMP JUMPDEST PUSH2 0x3CA7 SWAP2 SWAP1 PUSH2 0x465E JUMP JUMPDEST PUSH2 0x3CB9 SWAP1 PUSH8 0x16345785D8A00000 PUSH2 0x46F3 JUMP JUMPDEST PUSH2 0x3CC3 SWAP2 SWAP1 PUSH2 0x4675 JUMP JUMPDEST SWAP1 POP PUSH2 0x3CD7 DUP2 PUSH8 0xDE0B6B3A7640000 PUSH2 0x465E JUMP JUMPDEST SWAP6 SWAP5 POP POP POP POP POP JUMP JUMPDEST PUSH1 0x0 DUP1 PUSH8 0xDE0B6B3A7640000 DUP4 PUSH2 0x3CF7 DUP3 DUP8 PUSH2 0x465E JUMP JUMPDEST PUSH2 0x3D01 SWAP2 SWAP1 PUSH2 0x46F3 JUMP JUMPDEST PUSH2 0x3D0B SWAP2 SWAP1 PUSH2 0x4675 JUMP JUMPDEST DUP4 PUSH8 0xDE0B6B3A7640000 PUSH2 0x3D1F DUP8 DUP10 PUSH2 0x46F3 JUMP JUMPDEST PUSH2 0x3D29 SWAP2 SWAP1 PUSH2 0x4675 JUMP JUMPDEST PUSH2 0x3D33 SWAP2 SWAP1 PUSH2 0x465E JUMP JUMPDEST PUSH2 0x3D45 SWAP1 PUSH8 0x16345785D8A00000 PUSH2 0x46F3 JUMP JUMPDEST PUSH2 0x3CD7 SWAP2 SWAP1 PUSH2 0x4675 JUMP JUMPDEST PUSH1 0x9 SLOAD PUSH1 0x0 JUMPDEST DUP2 DUP2 PUSH2 0xFFFF AND LT ISZERO PUSH2 0x3F11 JUMPI PUSH1 0x0 PUSH1 0x9 DUP3 PUSH2 0xFFFF AND DUP2 SLOAD DUP2 LT PUSH2 0x3D7A JUMPI PUSH2 0x3D7A PUSH2 0x46C5 JUMP JUMPDEST PUSH1 0x0 SWAP2 DUP3 MSTORE PUSH1 0x20 DUP1 DUP4 KECCAK256 SWAP2 SWAP1 SWAP2 ADD SLOAD PUSH1 0x1 PUSH1 0x1 PUSH1 0xA0 SHL SUB SWAP1 DUP2 AND DUP1 DUP5 MSTORE PUSH1 0xD SWAP1 SWAP3 MSTORE PUSH1 0x40 DUP1 DUP5 KECCAK256 SLOAD PUSH1 0x4 DUP1 SLOAD PUSH1 0x2 SLOAD SWAP4 MLOAD PUSH4 0x6448FD3 PUSH1 0xE5 SHL DUP2 MSTORE SWAP2 DUP3 ADD DUP7 SWAP1 MSTORE PUSH1 0x24 DUP3 ADD SWAP4 SWAP1 SWAP4 MSTORE SWAP4 SWAP6 POP SWAP4 SWAP3 SWAP2 AND SWAP1 PUSH4 0xC891FA60 SWAP1 PUSH1 0x44 ADD PUSH1 0x20 PUSH1 0x40 MLOAD DUP1 DUP4 SUB DUP2 DUP7 GAS STATICCALL ISZERO DUP1 ISZERO PUSH2 0x3DF1 JUMPI RETURNDATASIZE PUSH1 0x0 DUP1 RETURNDATACOPY RETURNDATASIZE PUSH1 0x0 REVERT JUMPDEST POP POP POP POP PUSH1 0x40 MLOAD RETURNDATASIZE PUSH1 0x1F NOT PUSH1 0x1F DUP3 ADD AND DUP3 ADD DUP1 PUSH1 0x40 MSTORE POP DUP2 ADD SWAP1 PUSH2 0x3E15 SWAP2 SWAP1 PUSH2 0x462F JUMP JUMPDEST SWAP1 POP PUSH1 0x0 JUMPDEST DUP3 DUP2 PUSH2 0xFFFF AND LT ISZERO PUSH2 0x3EFA JUMPI PUSH1 0x1 PUSH1 0x1 PUSH1 0xA0 SHL SUB DUP5 AND PUSH1 0x0 SWAP1 DUP2 MSTORE PUSH1 0xD PUSH1 0x20 MSTORE PUSH1 0x40 DUP2 KECCAK256 DUP1 SLOAD PUSH2 0xFFFF DUP5 AND SWAP1 DUP2 LT PUSH2 0x3E54 JUMPI PUSH2 0x3E54 PUSH2 0x46C5 JUMP JUMPDEST PUSH1 0x0 SWAP2 DUP3 MSTORE PUSH1 0x20 DUP1 DUP4 KECCAK256 SWAP1 SWAP2 ADD SLOAD PUSH1 0x1 PUSH1 0x1 PUSH1 0xA0 SHL SUB DUP9 DUP2 AND DUP5 MSTORE PUSH1 0xB DUP4 MSTORE PUSH1 0x40 DUP1 DUP6 KECCAK256 SWAP2 SWAP1 SWAP3 AND DUP1 DUP6 MSTORE SWAP3 MSTORE SWAP1 SWAP2 KECCAK256 SLOAD SWAP1 SWAP2 POP PUSH8 0xDE0B6B3A7640000 SWAP1 PUSH2 0x3E9C SWAP1 DUP6 PUSH2 0x46F3 JUMP JUMPDEST PUSH2 0x3EA6 SWAP2 SWAP1 PUSH2 0x4675 JUMP JUMPDEST PUSH1 0x1 PUSH1 0x1 PUSH1 0xA0 SHL SUB DUP1 DUP8 AND PUSH1 0x0 SWAP1 DUP2 MSTORE PUSH1 0xB PUSH1 0x20 SWAP1 DUP2 MSTORE PUSH1 0x40 DUP1 DUP4 KECCAK256 SWAP4 DUP7 AND DUP4 MSTORE SWAP3 SWAP1 MSTORE SWAP1 DUP2 KECCAK256 PUSH1 0x1 ADD DUP1 SLOAD SWAP1 SWAP2 SWAP1 PUSH2 0x3EE0 SWAP1 DUP5 SWAP1 PUSH2 0x46DB JUMP JUMPDEST SWAP1 SWAP2 SSTORE POP DUP3 SWAP2 POP PUSH2 0x3EF2 SWAP1 POP DUP2 PUSH2 0x4736 JUMP JUMPDEST SWAP2 POP POP PUSH2 0x3E1A JUMP JUMPDEST POP POP POP POP DUP1 DUP1 PUSH2 0x3F09 SWAP1 PUSH2 0x4736 JUMP JUMPDEST SWAP2 POP POP PUSH2 0x3D55 JUMP JUMPDEST POP POP TIMESTAMP PUSH1 0x2 SSTORE JUMP JUMPDEST PUSH1 0x1 PUSH1 0x1 PUSH1 0xA0 SHL SUB DUP2 AND PUSH1 0x0 SWAP1 DUP2 MSTORE PUSH1 0x11 PUSH1 0x20 MSTORE PUSH1 0x40 DUP2 KECCAK256 SLOAD DUP2 DUP1 JUMPDEST DUP3 DUP2 PUSH2 0xFFFF AND LT ISZERO PUSH2 0x3FBF JUMPI PUSH1 0x1 PUSH1 0x1 PUSH1 0xA0 SHL SUB DUP6 AND PUSH1 0x0 SWAP1 DUP2 MSTORE PUSH1 0xC PUSH1 0x20 SWAP1 DUP2 MSTORE PUSH1 0x40 DUP1 DUP4 KECCAK256 PUSH1 0x11 SWAP1 SWAP3 MSTORE DUP3 KECCAK256 DUP1 SLOAD SWAP2 SWAP3 SWAP2 PUSH2 0xFFFF DUP6 AND SWAP1 DUP2 LT PUSH2 0x3F7C JUMPI PUSH2 0x3F7C PUSH2 0x46C5 JUMP JUMPDEST PUSH1 0x0 SWAP2 DUP3 MSTORE PUSH1 0x20 DUP1 DUP4 KECCAK256 SWAP1 SWAP2 ADD SLOAD PUSH1 0x1 PUSH1 0x1 PUSH1 0xA0 SHL SUB AND DUP4 MSTORE DUP3 ADD SWAP3 SWAP1 SWAP3 MSTORE PUSH1 0x40 ADD SWAP1 KECCAK256 SLOAD PUSH2 0x3FAB SWAP1 DUP4 PUSH2 0x46DB JUMP JUMPDEST SWAP2 POP DUP1 PUSH2 0x3FB7 DUP2 PUSH2 0x4736 JUMP JUMPDEST SWAP2 POP POP PUSH2 0x3F35 JUMP JUMPDEST POP SWAP4 SWAP3 POP POP POP JUMP JUMPDEST PUSH2 0x3FD1 DUP3 DUP3 PUSH2 0x2F82 JUMP JUMPDEST PUSH2 0x14A8 JUMPI PUSH2 0x3FE9 DUP2 PUSH1 0x1 PUSH1 0x1 PUSH1 0xA0 SHL SUB AND PUSH1 0x14 PUSH2 0x40E0 JUMP JUMPDEST PUSH2 0x3FF4 DUP4 PUSH1 0x20 PUSH2 0x40E0 JUMP JUMPDEST PUSH1 0x40 MLOAD PUSH1 0x20 ADD PUSH2 0x4005 SWAP3 SWAP2 SWAP1 PUSH2 0x4785 JUMP JUMPDEST PUSH1 0x40 DUP1 MLOAD PUSH1 0x1F NOT DUP2 DUP5 SUB ADD DUP2 MSTORE SWAP1 DUP3 SWAP1 MSTORE PUSH3 0x461BCD PUSH1 0xE5 SHL DUP3 MSTORE PUSH2 0x8F4 SWAP2 PUSH1 0x4 ADD PUSH2 0x44E9 JUMP JUMPDEST PUSH2 0x4035 DUP3 DUP3 PUSH2 0x3B86 JUMP JUMPDEST PUSH1 0x0 DUP3 DUP2 MSTORE PUSH1 0x1 PUSH1 0x20 MSTORE PUSH1 0x40 SWAP1 KECCAK256 PUSH2 0x1568 SWAP1 DUP3 PUSH2 0x3C0A JUMP JUMPDEST PUSH2 0x4057 DUP3 DUP3 PUSH2 0x427C JUMP JUMPDEST PUSH1 0x0 DUP3 DUP2 MSTORE PUSH1 0x1 PUSH1 0x20 MSTORE PUSH1 0x40 SWAP1 KECCAK256 PUSH2 0x1568 SWAP1 DUP3 PUSH2 0x42E1 JUMP JUMPDEST PUSH1 0x0 PUSH2 0x839 DUP4 DUP4 PUSH2 0x42F6 JUMP JUMPDEST PUSH1 0x0 PUSH2 0x839 DUP4 DUP4 PUSH2 0x430C JUMP JUMPDEST PUSH1 0x0 PUSH2 0x6F6 DUP3 SLOAD SWAP1 JUMP JUMPDEST PUSH1 0x0 DUP2 DUP2 MSTORE PUSH1 0x1 DUP4 ADD PUSH1 0x20 MSTORE PUSH1 0x40 DUP2 KECCAK256 SLOAD PUSH2 0x40D8 JUMPI POP DUP2 SLOAD PUSH1 0x1 DUP2 DUP2 ADD DUP5 SSTORE PUSH1 0x0 DUP5 DUP2 MSTORE PUSH1 0x20 DUP1 DUP3 KECCAK256 SWAP1 SWAP4 ADD DUP5 SWAP1 SSTORE DUP5 SLOAD DUP5 DUP3 MSTORE DUP3 DUP7 ADD SWAP1 SWAP4 MSTORE PUSH1 0x40 SWAP1 KECCAK256 SWAP2 SWAP1 SWAP2 SSTORE PUSH2 0x6F6 JUMP JUMPDEST POP PUSH1 0x0 PUSH2 0x6F6 JUMP JUMPDEST PUSH1 0x60 PUSH1 0x0 PUSH2 0x40EF DUP4 PUSH1 0x2 PUSH2 0x46F3 JUMP JUMPDEST PUSH2 0x40FA SWAP1 PUSH1 0x2 PUSH2 0x46DB JUMP JUMPDEST PUSH8 0xFFFFFFFFFFFFFFFF DUP2 GT ISZERO PUSH2 0x4112 JUMPI PUSH2 0x4112 PUSH2 0x47FA JUMP JUMPDEST PUSH1 0x40 MLOAD SWAP1 DUP1 DUP3 MSTORE DUP1 PUSH1 0x1F ADD PUSH1 0x1F NOT AND PUSH1 0x20 ADD DUP3 ADD PUSH1 0x40 MSTORE DUP1 ISZERO PUSH2 0x413C JUMPI PUSH1 0x20 DUP3 ADD DUP2 DUP1 CALLDATASIZE DUP4 CALLDATACOPY ADD SWAP1 POP JUMPDEST POP SWAP1 POP PUSH1 0x3 PUSH1 0xFC SHL DUP2 PUSH1 0x0 DUP2 MLOAD DUP2 LT PUSH2 0x4157 JUMPI PUSH2 0x4157 PUSH2 0x46C5 JUMP JUMPDEST PUSH1 0x20 ADD ADD SWAP1 PUSH1 0x1 PUSH1 0x1 PUSH1 0xF8 SHL SUB NOT AND SWAP1 DUP2 PUSH1 0x0 BYTE SWAP1 MSTORE8 POP PUSH1 0xF PUSH1 0xFB SHL DUP2 PUSH1 0x1 DUP2 MLOAD DUP2 LT PUSH2 0x4186 JUMPI PUSH2 0x4186 PUSH2 0x46C5 JUMP JUMPDEST PUSH1 0x20 ADD ADD SWAP1 PUSH1 0x1 PUSH1 0x1 PUSH1 0xF8 SHL SUB NOT AND SWAP1 DUP2 PUSH1 0x0 BYTE SWAP1 MSTORE8 POP PUSH1 0x0 PUSH2 0x41AA DUP5 PUSH1 0x2 PUSH2 0x46F3 JUMP JUMPDEST PUSH2 0x41B5 SWAP1 PUSH1 0x1 PUSH2 0x46DB JUMP JUMPDEST SWAP1 POP JUMPDEST PUSH1 0x1 DUP2 GT ISZERO PUSH2 0x422D JUMPI PUSH16 0x181899199A1A9B1B9C1CB0B131B232B3 PUSH1 0x81 SHL DUP6 PUSH1 0xF AND PUSH1 0x10 DUP2 LT PUSH2 0x41E9 JUMPI PUSH2 0x41E9 PUSH2 0x46C5 JUMP JUMPDEST BYTE PUSH1 0xF8 SHL DUP3 DUP3 DUP2 MLOAD DUP2 LT PUSH2 0x41FF JUMPI PUSH2 0x41FF PUSH2 0x46C5 JUMP JUMPDEST PUSH1 0x20 ADD ADD SWAP1 PUSH1 0x1 PUSH1 0x1 PUSH1 0xF8 SHL SUB NOT AND SWAP1 DUP2 PUSH1 0x0 BYTE SWAP1 MSTORE8 POP PUSH1 0x4 SWAP5 SWAP1 SWAP5 SHR SWAP4 PUSH2 0x4226 DUP2 PUSH2 0x4810 JUMP JUMPDEST SWAP1 POP PUSH2 0x41B8 JUMP JUMPDEST POP DUP4 ISZERO PUSH2 0x839 JUMPI PUSH1 0x40 MLOAD PUSH3 0x461BCD PUSH1 0xE5 SHL DUP2 MSTORE PUSH1 0x20 PUSH1 0x4 DUP3 ADD DUP2 SWAP1 MSTORE PUSH1 0x24 DUP3 ADD MSTORE PUSH32 0x537472696E67733A20686578206C656E67746820696E73756666696369656E74 PUSH1 0x44 DUP3 ADD MSTORE PUSH1 0x64 ADD PUSH2 0x8F4 JUMP JUMPDEST PUSH2 0x4286 DUP3 DUP3 PUSH2 0x2F82 JUMP JUMPDEST ISZERO PUSH2 0x14A8 JUMPI PUSH1 0x0 DUP3 DUP2 MSTORE PUSH1 0x20 DUP2 DUP2 MSTORE PUSH1 0x40 DUP1 DUP4 KECCAK256 PUSH1 0x1 PUSH1 0x1 PUSH1 0xA0 SHL SUB DUP6 AND DUP1 DUP6 MSTORE SWAP3 MSTORE DUP1 DUP4 KECCAK256 DUP1 SLOAD PUSH1 0xFF NOT AND SWAP1 SSTORE MLOAD CALLER SWAP3 DUP6 SWAP2 PUSH32 0xF6391F5C32D9C69D2A47EA670B442974B53935D1EDC7FD64EB21E047A839171B SWAP2 SWAP1 LOG4 POP POP JUMP JUMPDEST PUSH1 0x0 PUSH2 0x839 DUP4 PUSH1 0x1 PUSH1 0x1 PUSH1 0xA0 SHL SUB DUP5 AND PUSH2 0x4336 JUMP JUMPDEST PUSH1 0x0 DUP2 DUP4 LT PUSH2 0x4305 JUMPI DUP2 PUSH2 0x839 JUMP JUMPDEST POP SWAP1 SWAP2 SWAP1 POP JUMP JUMPDEST PUSH1 0x0 DUP3 PUSH1 0x0 ADD DUP3 DUP2 SLOAD DUP2 LT PUSH2 0x4323 JUMPI PUSH2 0x4323 PUSH2 0x46C5 JUMP JUMPDEST SWAP1 PUSH1 0x0 MSTORE PUSH1 0x20 PUSH1 0x0 KECCAK256 ADD SLOAD SWAP1 POP SWAP3 SWAP2 POP POP JUMP JUMPDEST PUSH1 0x0 DUP2 DUP2 MSTORE PUSH1 0x1 DUP4 ADD PUSH1 0x20 MSTORE PUSH1 0x40 DUP2 KECCAK256 SLOAD DUP1 ISZERO PUSH2 0x441F JUMPI PUSH1 0x0 PUSH2 0x435A PUSH1 0x1 DUP4 PUSH2 0x465E JUMP JUMPDEST DUP6 SLOAD SWAP1 SWAP2 POP PUSH1 0x0 SWAP1 PUSH2 0x436E SWAP1 PUSH1 0x1 SWAP1 PUSH2 0x465E JUMP JUMPDEST SWAP1 POP DUP2 DUP2 EQ PUSH2 0x43D3 JUMPI PUSH1 0x0 DUP7 PUSH1 0x0 ADD DUP3 DUP2 SLOAD DUP2 LT PUSH2 0x438E JUMPI PUSH2 0x438E PUSH2 0x46C5 JUMP JUMPDEST SWAP1 PUSH1 0x0 MSTORE PUSH1 0x20 PUSH1 0x0 KECCAK256 ADD SLOAD SWAP1 POP DUP1 DUP8 PUSH1 0x0 ADD DUP5 DUP2 SLOAD DUP2 LT PUSH2 0x43B1 JUMPI PUSH2 0x43B1 PUSH2 0x46C5 JUMP JUMPDEST PUSH1 0x0 SWAP2 DUP3 MSTORE PUSH1 0x20 DUP1 DUP4 KECCAK256 SWAP1 SWAP2 ADD SWAP3 SWAP1 SWAP3 SSTORE SWAP2 DUP3 MSTORE PUSH1 0x1 DUP9 ADD SWAP1 MSTORE PUSH1 0x40 SWAP1 KECCAK256 DUP4 SWAP1 SSTORE JUMPDEST DUP6 SLOAD DUP7 SWAP1 DUP1 PUSH2 0x43E4 JUMPI PUSH2 0x43E4 PUSH2 0x4827 JUMP JUMPDEST PUSH1 0x1 SWAP1 SUB DUP2 DUP2 SWAP1 PUSH1 0x0 MSTORE PUSH1 0x20 PUSH1 0x0 KECCAK256 ADD PUSH1 0x0 SWAP1 SSTORE SWAP1 SSTORE DUP6 PUSH1 0x1 ADD PUSH1 0x0 DUP7 DUP2 MSTORE PUSH1 0x20 ADD SWAP1 DUP2 MSTORE PUSH1 0x20 ADD PUSH1 0x0 KECCAK256 PUSH1 0x0 SWAP1 SSTORE PUSH1 0x1 SWAP4 POP POP POP POP PUSH2 0x6F6 JUMP JUMPDEST PUSH1 0x0 SWAP2 POP POP PUSH2 0x6F6 JUMP JUMPDEST PUSH1 0x0 PUSH1 0x20 DUP3 DUP5 SUB SLT ISZERO PUSH2 0x443B JUMPI PUSH1 0x0 DUP1 REVERT JUMPDEST DUP2 CALLDATALOAD PUSH1 0x1 PUSH1 0x1 PUSH1 0xE0 SHL SUB NOT DUP2 AND DUP2 EQ PUSH2 0x839 JUMPI PUSH1 0x0 DUP1 REVERT JUMPDEST DUP1 CALLDATALOAD PUSH1 0x1 PUSH1 0x1 PUSH1 0xA0 SHL SUB DUP2 AND DUP2 EQ PUSH2 0x446A JUMPI PUSH1 0x0 DUP1 REVERT JUMPDEST SWAP2 SWAP1 POP JUMP JUMPDEST PUSH1 0x0 PUSH1 0x20 DUP3 DUP5 SUB SLT ISZERO PUSH2 0x4481 JUMPI PUSH1 0x0 DUP1 REVERT JUMPDEST PUSH2 0x839 DUP3 PUSH2 0x4453 JUMP JUMPDEST PUSH1 0x0 DUP1 PUSH1 0x40 DUP4 DUP6 SUB SLT ISZERO PUSH2 0x449D JUMPI PUSH1 0x0 DUP1 REVERT JUMPDEST PUSH2 0x44A6 DUP4 PUSH2 0x4453 JUMP JUMPDEST SWAP2 POP PUSH2 0x44B4 PUSH1 0x20 DUP5 ADD PUSH2 0x4453 JUMP JUMPDEST SWAP1 POP SWAP3 POP SWAP3 SWAP1 POP JUMP JUMPDEST PUSH1 0x0 JUMPDEST DUP4 DUP2 LT ISZERO PUSH2 0x44D8 JUMPI DUP2 DUP2 ADD MLOAD DUP4 DUP3 ADD MSTORE PUSH1 0x20 ADD PUSH2 0x44C0 JUMP JUMPDEST DUP4 DUP2 GT ISZERO PUSH2 0x2281 JUMPI POP POP PUSH1 0x0 SWAP2 ADD MSTORE JUMP JUMPDEST PUSH1 0x20 DUP2 MSTORE PUSH1 0x0 DUP3 MLOAD DUP1 PUSH1 0x20 DUP5 ADD MSTORE PUSH2 0x4508 DUP2 PUSH1 0x40 DUP6 ADD PUSH1 0x20 DUP8 ADD PUSH2 0x44BD JUMP JUMPDEST PUSH1 0x1F ADD PUSH1 0x1F NOT AND SWAP2 SWAP1 SWAP2 ADD PUSH1 0x40 ADD SWAP3 SWAP2 POP POP JUMP JUMPDEST PUSH1 0x0 PUSH1 0x20 DUP3 DUP5 SUB SLT ISZERO PUSH2 0x452E JUMPI PUSH1 0x0 DUP1 REVERT JUMPDEST POP CALLDATALOAD SWAP2 SWAP1 POP JUMP JUMPDEST PUSH1 0x0 DUP1 PUSH1 0x40 DUP4 DUP6 SUB SLT ISZERO PUSH2 0x4548 JUMPI PUSH1 0x0 DUP1 REVERT JUMPDEST DUP3 CALLDATALOAD SWAP2 POP PUSH2 0x44B4 PUSH1 0x20 DUP5 ADD PUSH2 0x4453 JUMP JUMPDEST PUSH1 0x0 DUP1 PUSH1 0x0 DUP1 PUSH1 0x80 DUP6 DUP8 SUB SLT ISZERO PUSH2 0x456E JUMPI PUSH1 0x0 DUP1 REVERT JUMPDEST DUP5 CALLDATALOAD SWAP4 POP PUSH2 0x457E PUSH1 0x20 DUP7 ADD PUSH2 0x4453 JUMP JUMPDEST SWAP3 POP PUSH1 0x40 DUP6 ADD CALLDATALOAD SWAP2 POP PUSH2 0x4593 PUSH1 0x60 DUP7 ADD PUSH2 0x4453 JUMP JUMPDEST SWAP1 POP SWAP3 SWAP6 SWAP2 SWAP5 POP SWAP3 POP JUMP JUMPDEST PUSH1 0x0 DUP1 PUSH1 0x40 DUP4 DUP6 SUB SLT ISZERO PUSH2 0x45B1 JUMPI PUSH1 0x0 DUP1 REVERT JUMPDEST PUSH2 0x45BA DUP4 PUSH2 0x4453 JUMP JUMPDEST SWAP5 PUSH1 0x20 SWAP4 SWAP1 SWAP4 ADD CALLDATALOAD SWAP4 POP POP POP JUMP JUMPDEST PUSH1 0x0 DUP1 PUSH1 0x40 DUP4 DUP6 SUB SLT ISZERO PUSH2 0x45DB JUMPI PUSH1 0x0 DUP1 REVERT JUMPDEST POP POP DUP1 CALLDATALOAD SWAP3 PUSH1 0x20 SWAP1 SWAP2 ADD CALLDATALOAD SWAP2 POP JUMP JUMPDEST PUSH1 0x0 DUP1 PUSH1 0x0 PUSH1 0x60 DUP5 DUP7 SUB SLT ISZERO PUSH2 0x45FF JUMPI PUSH1 0x0 DUP1 REVERT JUMPDEST PUSH2 0x4608 DUP5 PUSH2 0x4453 JUMP JUMPDEST SWAP3 POP PUSH1 0x20 DUP5 ADD CALLDATALOAD SWAP2 POP PUSH1 0x40 DUP5 ADD CALLDATALOAD DUP1 ISZERO ISZERO DUP2 EQ PUSH2 0x4624 JUMPI PUSH1 0x0 DUP1 REVERT JUMPDEST DUP1 SWAP2 POP POP SWAP3 POP SWAP3 POP SWAP3 JUMP JUMPDEST PUSH1 0x0 PUSH1 0x20 DUP3 DUP5 SUB SLT ISZERO PUSH2 0x4641 JUMPI PUSH1 0x0 DUP1 REVERT JUMPDEST POP MLOAD SWAP2 SWAP1 POP JUMP JUMPDEST PUSH4 0x4E487B71 PUSH1 0xE0 SHL PUSH1 0x0 MSTORE PUSH1 0x11 PUSH1 0x4 MSTORE PUSH1 0x24 PUSH1 0x0 REVERT JUMPDEST PUSH1 0x0 DUP3 DUP3 LT ISZERO PUSH2 0x4670 JUMPI PUSH2 0x4670 PUSH2 0x4648 JUMP JUMPDEST POP SUB SWAP1 JUMP JUMPDEST PUSH1 0x0 DUP3 PUSH2 0x4692 JUMPI PUSH4 0x4E487B71 PUSH1 0xE0 SHL PUSH1 0x0 MSTORE PUSH1 0x12 PUSH1 0x4 MSTORE PUSH1 0x24 PUSH1 0x0 REVERT JUMPDEST POP DIV SWAP1 JUMP JUMPDEST PUSH1 0x20 DUP1 DUP3 MSTORE PUSH1 0x14 SWAP1 DUP3 ADD MSTORE PUSH20 0x6D75737420686176652061646D696E20726F6C65 PUSH1 0x60 SHL PUSH1 0x40 DUP3 ADD MSTORE PUSH1 0x60 ADD SWAP1 JUMP JUMPDEST PUSH4 0x4E487B71 PUSH1 0xE0 SHL PUSH1 0x0 MSTORE PUSH1 0x32 PUSH1 0x4 MSTORE PUSH1 0x24 PUSH1 0x0 REVERT JUMPDEST PUSH1 0x0 DUP3 NOT DUP3 GT ISZERO PUSH2 0x46EE JUMPI PUSH2 0x46EE PUSH2 0x4648 JUMP JUMPDEST POP ADD SWAP1 JUMP JUMPDEST PUSH1 0x0 DUP2 PUSH1 0x0 NOT DIV DUP4 GT DUP3 ISZERO ISZERO AND ISZERO PUSH2 0x470D JUMPI PUSH2 0x470D PUSH2 0x4648 JUMP JUMPDEST POP MUL SWAP1 JUMP JUMPDEST PUSH1 0x1 PUSH1 0x1 PUSH1 0xA0 SHL SUB SWAP4 DUP5 AND DUP2 MSTORE SWAP2 SWAP1 SWAP3 AND PUSH1 0x20 DUP3 ADD MSTORE PUSH1 0x40 DUP2 ADD SWAP2 SWAP1 SWAP2 MSTORE PUSH1 0x60 ADD SWAP1 JUMP JUMPDEST PUSH1 0x0 PUSH2 0xFFFF DUP1 DUP4 AND DUP2 DUP2 EQ ISZERO PUSH2 0x474E JUMPI PUSH2 0x474E PUSH2 0x4648 JUMP JUMPDEST PUSH1 0x1 ADD SWAP4 SWAP3 POP POP POP JUMP JUMPDEST PUSH1 0x20 DUP1 DUP3 MSTORE PUSH1 0x13 SWAP1 DUP3 ADD MSTORE PUSH19 0x185CDCD95D081B9BDD081CDD5C1C1BDC9D1959 PUSH1 0x6A SHL PUSH1 0x40 DUP3 ADD MSTORE PUSH1 0x60 ADD SWAP1 JUMP JUMPDEST PUSH32 0x416363657373436F6E74726F6C3A206163636F756E7420000000000000000000 DUP2 MSTORE PUSH1 0x0 DUP4 MLOAD PUSH2 0x47BD DUP2 PUSH1 0x17 DUP6 ADD PUSH1 0x20 DUP9 ADD PUSH2 0x44BD JUMP JUMPDEST PUSH17 0x1034B99036B4B9B9B4B733903937B6329 PUSH1 0x7D SHL PUSH1 0x17 SWAP2 DUP5 ADD SWAP2 DUP3 ADD MSTORE DUP4 MLOAD PUSH2 0x47EE DUP2 PUSH1 0x28 DUP5 ADD PUSH1 0x20 DUP9 ADD PUSH2 0x44BD JUMP JUMPDEST ADD PUSH1 0x28 ADD SWAP5 SWAP4 POP POP POP POP JUMP JUMPDEST PUSH4 0x4E487B71 PUSH1 0xE0 SHL PUSH1 0x0 MSTORE PUSH1 0x41 PUSH1 0x4 MSTORE PUSH1 0x24 PUSH1 0x0 REVERT JUMPDEST PUSH1 0x0 DUP2 PUSH2 0x481F JUMPI PUSH2 0x481F PUSH2 0x4648 JUMP JUMPDEST POP PUSH1 0x0 NOT ADD SWAP1 JUMP JUMPDEST PUSH4 0x4E487B71 PUSH1 0xE0 SHL PUSH1 0x0 MSTORE PUSH1 0x31 PUSH1 0x4 MSTORE PUSH1 0x24 PUSH1 0x0 REVERT INVALID 0x4C PUSH10 0x717569646174696F6E20 MSTORE PUSH10 0x736B3A20436F6C6C6174 PUSH6 0x72616C207661 PUSH13 0x756520617070726F616368696E PUSH8 0x204C545620726571 PUSH22 0x6972656D656E74A49807205CE4D355092EF5A8A18F56 0xE8 SWAP2 EXTCODECOPY DELEGATECALL LOG2 ADD 0xFB 0xE2 DUP8 DUP3 JUMPDEST MULMOD JUMP SWAP4 0xC2 OR PUSH22 0xA264697066735822122024536953740104A8491E7C97 0x4D PUSH8 0xC406100B6AA6142E 0xA9 DIFFICULTY 0x4D 0xC2 PUSH6 0xC033126F3F64 PUSH20 0x6F6C634300080B00330000000000000000000000 ","sha1":"e3e9ee3bb1c25f3fd3f70deecd9c6faddcd9998b","source":"// SPDX-License-Identifier: MIT\n\npragma solidity ^0.8.0;\n\nimport \"@openzeppelin/contracts/utils/math/SafeMath.sol\";\nimport \"@openzeppelin/contracts/token/ERC20/IERC20.sol\";\nimport \"@openzeppelin/contracts/access/AccessControlEnumerable.sol\";\nimport \"../interfaces/InterfaceLendingPool.sol\";\nimport \"./Math.sol\";\nimport \"./Pool.sol\";\nimport \"./Collateral.sol\";\nimport \"./LVRToken.sol\";\nimport \"./Conversion.sol\";\n\ncontract LendingPool is InterfaceLendingPool, AccessControlEnumerable {\n    //need InterfaceLendingPool?\n    //using SafeMath for uint256; dont need it 0.8.0\n    using Math for uint256;\n\n    event depositEvent(\n        address _user,\n        address _asset,\n        uint256 _quantity,\n        uint256 _tokensMinted\n    );\n    event borrowEvent(\n        address _user,\n        uint256 _borrowed,\n        address _borrowedAsset,\n        uint256 _collateral,\n        address _collateralAsset\n    );\n    event redeemEvent(address _user, address _asset, uint256 _tokensBurned);\n    event repayEvent(address _user, address _asset, uint256 _quantity);\n    event withdrawCollateralEvent(\n        address _user,\n        address _asset,\n        uint256 _quantity\n    );\n\n    //time to track last interest accruel\n    uint256 interestTime = block.timestamp;\n\n    //create other contracts\n    Conversion conversion;\n    Pool pool;\n    Collateral collateral;\n    LVRToken token;\n    address owner;\n\n    //mapps asset address to total asset lent\n    mapping(address => uint256) lenderTokenTracker;\n\n    address[] supportedAssets; //supported assets arra\n    // supported to bool - check if its supported\n    mapping(address => bool) supportedAssetTracker;\n\n    struct borrowAmountTracker {\n        uint256 principal;\n        uint256 interest;\n    }\n    //asset -> user -> amount borrowed\n    mapping(address => mapping(address => borrowAmountTracker))\n        public borrowTracker;\n\n    //asset -> user -> amount lent\n    mapping(address => mapping(address => uint256)) LentAmountTracker;\n\n    //asset -> list of borrowers\n    mapping(address => address[]) borrowersByAsset;\n\n    //mapping to make sure no double adding:\n    mapping(address => mapping(address => bool)) initializedBorrowerTracker;\n\n    //total list of borrowers\n    address[] borrowers;\n    //mapping to make sure no double adding:\n    mapping(address => bool) initializedBorrowers;\n\n    //asset -> list of borrowers\n    mapping(address => address[]) lendersByAsset;\n    //mapping to make sure no double adding:\n    mapping(address => mapping(address => bool)) initializedLenderTracker;\n\n    bytes32 public constant ADMIN_ROLE = keccak256(\"ADMIN_ROLE\");\n\n    constructor() {\n        pool = new Pool();\n        token = new LVRToken(\"LeverToken\", \"LVR\", address(pool));\n        collateral = new Collateral(address(pool));\n        conversion = new Conversion();\n\n        //set up supported currencies\n        /*\n         *rinkeby LINK contract location: 0x01BE23585060835E02B77ef475b0Cc51aA1e0709\n         *rinkeby DAI  contract location: 0x5592EC0cfb4dbc12D3aB100b257153436a1f0FEa\n         *rinkeby WETH contract location: 0xc778417E063141139Fce010982780140Aa0cD5Ab\n         */\n        address WETH = 0xc778417E063141139Fce010982780140Aa0cD5Ab;\n        address LINK = 0x01BE23585060835E02B77ef475b0Cc51aA1e0709;\n        address DAI = 0x5592EC0cfb4dbc12D3aB100b257153436a1f0FEa;\n\n        supportedAssets.push(LINK);\n        supportedAssetTracker[LINK] = true;\n        supportedAssets.push(DAI);\n        supportedAssetTracker[DAI] = true;\n        supportedAssets.push(WETH);\n        supportedAssetTracker[WETH] = true;\n\n        owner = msg.sender;\n        _setupRole(ADMIN_ROLE, msg.sender);\n        pool.addOwner(address(collateral));\n        _setupRole(ADMIN_ROLE, address(this));\n    }\n\n    modifier onlyOwner() {\n        require(hasRole(ADMIN_ROLE, msg.sender), \"must have admin role\");\n        _;\n    }\n\n    /// @notice function takes asset and quanity and mints user LVR tokens for equivalent USD value\n    /// @dev The calling address must approve this contract to spend at least _quantity worth of its _asset for this function to succeed.\n    /// @param _quantity The asset Quantity being deposited\n    /// @param _asset The asset address being deposited\n    function Deposit(uint256 _quantity, address _asset) public {\n        require(supportedAssetTracker[_asset] == true, \"asset not supported\");\n\n        accrueInterest();\n\n        require(_quantity > 0, \"deposit must be positive\");\n        uint256 tokenQuantity = token.mint(msg.sender, _quantity, _asset);\n        //track how many LVR tokens use got\n        lenderTokenTracker[msg.sender] += tokenQuantity;\n        //actually move the tokens to pool\n        pool.depositTransfer(msg.sender, _asset, _quantity); //possible issue- should we be minting before we get the money?\n\n        //adds user to lender list if not already in it\n        if (!initializedLenderTracker[_asset][msg.sender]) {\n            lendersByAsset[_asset].push(msg.sender);\n            initializedLenderTracker[_asset][msg.sender] = true;\n        }\n        //track how much asset lender gave\n        LentAmountTracker[_asset][msg.sender] += _quantity;\n\n        emit depositEvent(msg.sender, _asset, _quantity, tokenQuantity);\n    }\n\n    // //withdraw based on asset quantity desired\n    // function Withdraw(address _desiredAsset, uint256 _amountToRemove) public {\n    //     uint256 assetPriceUSD = conversion.getPrice(_desiredAsset);\n\n    //     //check if enough liquid to send\n    //     require(\n    //         _amountToRemove <= pool.getLiquidQuantity(_desiredAsset),\n    //         \"User cannot redeem more than the available balance\"\n    //     ); // future this will only check to see if we have any liquid - engine will swap currencies to allow user to withdraw anything they want.\n\n    //     // total value of currency redeemable by user\n    //     uint256 totalAssetValueFromOwnedTokens = ((token.balanceOf(msg.sender) *\n    //         token.tokenDollarValue()) / assetPriceUSD); // Units: N token * USD/token / USD/currency = N currency\n\n    //     // check that the user is allowed to redeem the amount\n    //     // seems to be some precision errors\n    //     require(\n    //         (totalAssetValueFromOwnedTokens >= _amountToRemove),\n    //         \"Cannot redeem more tokens than number owned\"\n    //     );\n\n    //     uint256 burnNumber = ((assetPriceUSD * _amountToRemove) /\n    //         token.tokenDollarValue()); // Units: USD/currecny * N currency / (USD/token) = N token\n\n    //     lenderTokenTracker[msg.sender] -= burnNumber;\n    //     if (lenderTokenTracker[msg.sender] == 0) {\n    //         delete lenderTokenTracker[msg.sender];\n    //     }\n    //     pool.withdrawTransfer(msg.sender, _desiredAsset, _amountToRemove);\n    //     token.burn(msg.sender, burnNumber);\n    // }\n\n    //////////////// function if we want to withdraw based on LVR token quanitity//////////////////\n\n    /// @notice function takes asset and LVR token quanity and returns the max amount of _asset redeemable with _tokenQuantity\n    /// @dev There are a bunch of checks to make sure there is enough liquidity and if not funds have to come from somewhere else\n    /// @param _tokenQuantity Amount of LVR tokens to redeem for _asset\n    /// @param _asset The desired asset to withdraw\n    function Withdraw(address _asset, uint256 _tokenQuantity) public {\n        //withdraw takes in desired asset and how much LVR you want to redeem\n\n        require(supportedAssetTracker[_asset], \"asset not supported\");\n        // check that the user is allowed to redeem the amount\n        require(\n            (token.balanceOf(msg.sender) >= _tokenQuantity),\n            \"Cannot redeem more tokens than number owned\"\n        );\n\n        //makre sure enough currency can be converted to desired currency\n        require(\n            pool.getWithdrawableUSD() >=\n                ((_tokenQuantity * token.tokenDollarValue()) / (10**18)),\n            \"Not enough free funds\"\n        );\n\n        accrueInterest();\n\n        uint256 assetPriceUSD = conversion.getPrice(_asset);\n\n        // total value of currency redeemable by user\n        uint256 totalAssetFromTokens = ((_tokenQuantity *\n            token.tokenDollarValue()) / assetPriceUSD); // Units: N token * USD/token / USD/currency = N currency\n\n        //burn LVR tokens\n        token.burn(msg.sender, _tokenQuantity);\n        //remove tokens from tracker\n        lenderTokenTracker[msg.sender] -= _tokenQuantity;\n        if (lenderTokenTracker[msg.sender] == 0) {\n            delete lenderTokenTracker[msg.sender]; // does delete work/make sense?\n        }\n\n        if (LentAmountTracker[_asset][msg.sender] == 0) {\n            //if they didnt lend the asset, withraw comes from reserve// make sure reserve has enough\n\n            //minumum(totalAssetFromTokens, pool.getReserveQuantity(_asset));\n            //min(amount in reserve, amount from tokens)\n            //remove from reserve only\n            //leftover request will not be withdrawn\n            // burn/subtract tokens from assetwithdrawn\n\n            pool.reserveWithdrawTransfer(\n                msg.sender,\n                _asset,\n                totalAssetFromTokens\n            );\n        } else if (\n            LentAmountTracker[_asset][msg.sender] < totalAssetFromTokens\n        ) {\n            uint256 quantityFromReserves = totalAssetFromTokens -\n                LentAmountTracker[_asset][msg.sender];\n\n            if (\n                LentAmountTracker[_asset][msg.sender] >\n                pool.getLiquidQuantity(_asset)\n            ) {\n                //transfer from reserve if pool doesnt have enough liquidity\n\n                uint256 residualQuantity = (totalAssetFromTokens -\n                    pool.getLiquidQuantity(_asset));\n\n                pool.withdrawTransfer(\n                    msg.sender,\n                    _asset,\n                    pool.getLiquidQuantity(_asset)\n                );\n\n                pool.reserveWithdrawTransfer(\n                    msg.sender,\n                    _asset,\n                    residualQuantity\n                );\n            } else {\n                pool.withdrawTransfer(\n                    msg.sender,\n                    _asset,\n                    LentAmountTracker[_asset][msg.sender]\n                );\n\n                pool.reserveWithdrawTransfer(\n                    msg.sender,\n                    _asset,\n                    quantityFromReserves\n                );\n            }\n            LentAmountTracker[_asset][msg.sender] = 0;\n            //pool.balanceReserves(_asset);\n        } else {\n            uint256 assetQuantity = minimum(\n                totalAssetFromTokens,\n                LentAmountTracker[_asset][msg.sender]\n            );\n            LentAmountTracker[_asset][msg.sender] -= assetQuantity;\n            if (assetQuantity > pool.getLiquidQuantity(_asset)) {\n                //transfer from reserve if pool doesnt have enough liquidity\n\n                uint256 residualReserve = (assetQuantity -\n                    pool.getLiquidQuantity(_asset));\n\n                pool.withdrawTransfer(\n                    msg.sender,\n                    _asset,\n                    pool.getLiquidQuantity(_asset)\n                );\n                pool.reserveWithdrawTransfer(\n                    msg.sender,\n                    _asset,\n                    residualReserve\n                );\n            } else {\n                pool.withdrawTransfer(msg.sender, _asset, totalAssetFromTokens);\n            }\n            //If they lent more than withdrawing, subtract total withdraw from amount lent\n            //pool.balanceReserves(_asset);\n        }\n        // here we should first replenish reserve using the reservs from other coins\n        //pool.balanceReserves(_asset); //balance here or onyl when asset is removed by same asset lender?// or only on  reserve wiyhdraw transfer in pool contract\n        emit redeemEvent(msg.sender, _asset, _tokenQuantity);\n    }\n\n    /// @notice function takes _asset / _borrowQuantity <- assets/amount to borrow, and _collateral / _collateralQuantity <- collateral asset/amount\n    /// @dev The calling address must approve this contract to pull _collateralQuantity amount of _collateral asset\n    /// @param _borrowQuantity Amount of _asset to borrow\n    /// @param _asset The desired asset to borrow\n    /// @param _collateralQuantity Amount of _collateral asset to use a collateral\n    /// @param _collateral The asset to be used as colalteral\n    function Borrow(\n        uint256 _borrowQuantity,\n        address _asset,\n        uint256 _collateralQuantity,\n        address _collateral\n    ) public {\n        //this function allows a user to deposit collateral, borrow, or both\n\n        require(supportedAssetTracker[_asset], \"asset not supported\");\n        require(supportedAssetTracker[_collateral], \"asset not supported\");\n\n        require( // check if pool has funds\n            ((_borrowQuantity <= pool.getLiquidQuantity(_asset))),\n            \"not enough liquidity to borrow\"\n        ); // can only borrow from liquid pool\n\n        accrueInterest();\n\n        // check if deposited collateral + outstanding collateral is enough to cover thier borrow request\n        uint256 usdCollateralValueScaled = ((conversion.getPrice(_collateral) *\n            _collateralQuantity) / collateral.collReqByAsset(_collateral)) +\n            collateral.scaledCollateralValue(msg.sender); //scaled value is adjusted for risk\n\n        uint256 usdBorrowValue = (conversion.getPrice(_asset) *\n            _borrowQuantity) /\n            (10**18) +\n            totalValueBorrowed(msg.sender);\n\n        require(\n            usdCollateralValueScaled >= usdBorrowValue,\n            \"not enough collateral to borrow\"\n        );\n\n        //transfer from thier wallet to collateral contract\n        collateral.depositCollateral(\n            msg.sender,\n            _collateral,\n            _collateralQuantity\n        );\n\n        //transfer loan from pool contract to user\n        if (_borrowQuantity > 0) {\n            pool.borrowTransfer(msg.sender, _asset, _borrowQuantity);\n\n            //add quantity to principal loan value\n            borrowTracker[_asset][msg.sender].principal += _borrowQuantity;\n\n            //only add to array if user doesnt exist already\n            if (!initializedBorrowerTracker[_asset][msg.sender]) {\n                borrowersByAsset[_asset].push(msg.sender);\n                initializedBorrowerTracker[_asset][msg.sender] = true;\n            }\n\n            //only add user if it doesnt exist in borrower list already\n            if (!initializedBorrowers[msg.sender]) {\n                borrowers.push(msg.sender);\n                initializedBorrowers[msg.sender] = true;\n            }\n            // rebalance reserve and pool\n            pool.balanceReserves(_asset);\n        }\n        emit borrowEvent(\n            msg.sender,\n            _borrowQuantity,\n            _asset,\n            _collateralQuantity,\n            _collateral\n        );\n    }\n\n    /// @notice function takes _asset and repayQuantity which are how much of _asset loan user wants to repay\n    /// @notice repaying loan involves returning borrowed asset quantity\n    /// @dev The calling address must approve this contract to pull _repayQuantity amount of _asset\n    /// @param _asset The desired asset loan to repay\n    /// @param _repayQuantity Amount of loan to repay\n    function Repay(address _asset, uint256 _repayQuantity) public {\n        require(supportedAssetTracker[_asset], \"asset not supported\");\n\n        accrueInterest();\n\n        if (_repayQuantity == 1) {\n            //repay all owed- dont need this?\n            _repayQuantity = getOutstandingLoan(msg.sender, _asset);\n        }\n\n        //cant return more than borrowed\n        require(\n            (borrowTracker[_asset][msg.sender].principal +\n                borrowTracker[_asset][msg.sender].interest) >= _repayQuantity,\n            \"Returned more than borrowed\"\n        );\n\n        //remove interest first, then principal balance upon repayment\n        uint256 interest_portion = minimum(\n            _repayQuantity,\n            borrowTracker[_asset][msg.sender].interest\n        ); //  sub1 = min(repayment, interest)\n        uint256 principal_portion = (_repayQuantity - interest_portion); //  principal_portion  = repayment - sub1\n        //this after interest_portion and principal_portion so we can subtract this from brwQty in Pool.sol\n\n        //transfer from wallet to pool cotract\n        pool.repayTransfer(\n            msg.sender,\n            _asset,\n            _repayQuantity,\n            principal_portion,\n            interest_portion\n        );\n\n        borrowTracker[_asset][msg.sender].principal -= principal_portion; //  subtract that from principal so that it goes to zero\n        borrowTracker[_asset][msg.sender].interest -= interest_portion; //  subtract interest_portion from interest\n\n        if (borrowTracker[_asset][msg.sender].principal == 0) {\n            delete borrowTracker[_asset][msg.sender].principal; // delete?\n        }\n        if (borrowTracker[_asset][msg.sender].interest == 0) {\n            delete borrowTracker[_asset][msg.sender].interest; //delete?\n        }\n\n        pool.balanceReserves(_asset);\n\n        emit repayEvent(msg.sender, _asset, _repayQuantity);\n\n        //interest is payed out everytime someone repays a loan\n        payoutInterest();\n    }\n\n    /// @notice function allows user to unlock thier collateral if they are not borrowing, or if they repay part of loan\n    /// @dev\n    /// @param _asset The desired asset to unlock\n    /// @param _quantity Amount of assset to unlock\n    /// @param _toPool Boolean to decide if user will receive asset directly or deposit it to pool\n    function unlockCollateral(\n        address _asset,\n        uint256 _quantity,\n        bool _toPool\n    ) public {\n        require(supportedAssetTracker[_asset], \"asset not supported\");\n        accrueInterest();\n        //check if they have loan value less than collat value/collatQtyReq\n        //all require checks must happen here first because we have to update our internal strcutures first before transfering\n        //so that means transfer of collateral must go through.\n\n        //make sure collateral covers loan value\n        require(\n            (collateral.scaledCollateralValue(msg.sender) -\n                ((conversion.getPrice(_asset) * _quantity) /\n                    collateral.collReqByAsset(_asset))) >=\n                totalValueBorrowed(msg.sender),\n            \"Cannot withdraw collateral before paying back loan\"\n        );\n\n        uint256 collateralDeposited = collateral.userCollateral(\n            _asset,\n            msg.sender\n        );\n\n        require(\n            _quantity <= collateralDeposited,\n            \"Redeeming more collateral than deposited\"\n        );\n\n        //tranfer to pool as a lender if True, else return to user\n        if (_toPool == true) {\n            uint256 tokenQuantity = token.mint(msg.sender, _quantity, _asset);\n            lenderTokenTracker[msg.sender] += tokenQuantity;\n\n            if (!initializedLenderTracker[_asset][msg.sender]) {\n                lendersByAsset[_asset].push(msg.sender);\n                initializedLenderTracker[_asset][msg.sender] = true;\n            }\n            LentAmountTracker[_asset][msg.sender] += _quantity;\n            emit depositEvent(msg.sender, _asset, _quantity, tokenQuantity);\n        } else {\n            emit withdrawCollateralEvent(msg.sender, _asset, _quantity);\n        }\n        collateral.removeCollateral(msg.sender, _asset, _quantity, _toPool);\n    }\n\n    //add interest to each borrower's balance\n    // loop through asset, user of each asset, multiply principal by interest rate, add to interest balance\n    function accrueInterest() internal {\n        uint256 numAssets = supportedAssets.length;\n        for (uint16 i = 0; i < numAssets; i++) {\n            address asset = supportedAssets[i];\n            uint256 numBorrowers = borrowersByAsset[asset].length;\n            uint256 assetInterestRate = pool.InterestRate(asset, interestTime);\n            for (uint16 j = 0; j < numBorrowers; j++) {\n                address user = borrowersByAsset[asset][j];\n                borrowTracker[asset][user].interest += ((assetInterestRate *\n                    borrowTracker[asset][user].principal) / (1 * 10**18));\n            }\n        }\n        interestTime = block.timestamp;\n    }\n\n    /// @notice function pays out interest to each lender\n    /// @dev\n    function payoutInterest() public onlyOwner {\n        //accrueInterest(); should this be here? no because this is called in repay which calls accrue\n        /*\n        Note:  when calculating pool value, liquidity should be used, not balance of contract itself. \n`       For each asset\n        1) need total amount of asset lent\n        2) need how much each person lent of that asset\n        3) ratio of those (call it r1) is how much of interest they get\n        For each person:\n        1) list of lenders\n        2) how much they lent in lVR\n        3) current number of LVR\n        4) ratio of those(call it r2) is what they get of thier cut\n        5) multiply r1*r2 to get total interest ratio recieved\n        6) mint LVR for the value of r1*r2*totalInterest to payout\n                if user withdraws, delete old lending stats, so if they re-deposit they start fresh\n         */\n        accrueInterest();\n        uint256 numAssets = supportedAssets.length;\n        for (uint16 i = 0; i < numAssets; i++) {\n            address asset = supportedAssets[i];\n            uint256 totalAsset = totalAssetLent(asset);\n            uint256 interest = pool.getInterestQuantity(asset);\n            uint256 numLenders = lendersByAsset[asset].length;\n            for (uint16 j = 0; j < numLenders; j++) {\n                address user = lendersByAsset[asset][j];\n                if (token.balanceOf(user) < 1 * 10**16) {\n                    //arbitrary cutoff^- should it be lower? this would be less than 1 cent\n                    lenderTokenTracker[user] = 0;\n                    LentAmountTracker[asset][user] = 0;\n                    totalAsset = totalAssetLent(asset); // recalculate total lent if their's is removed\n                } else {\n                    uint256 retainedTokenRatio = (token.balanceOf(user) *\n                        (10**18)) / lenderTokenTracker[user];\n                    uint256 percentOfPool = (LentAmountTracker[asset][user] *\n                        (10**18)) / totalAsset;\n                    uint256 userInterestQuantity = (retainedTokenRatio *\n                        percentOfPool *\n                        interest) / ((10**18)**2);\n                    uint256 tokenQuantity = token.mint(\n                        user,\n                        userInterestQuantity,\n                        asset\n                    ); //mint token since interest goes to pool, then\n                    lenderTokenTracker[user] += tokenQuantity; //update how much lvr user has, then\n                    LentAmountTracker[asset][user] += userInterestQuantity; //update how much they lent\n                }\n            }\n            pool.resetInterest(asset);\n        }\n    }\n\n    /// @notice function loops through users and ensures they are properly collateralized\n    /// @dev\n    function liquidationManager() public onlyOwner returns (string memory) {\n        /*\n        -loop maybe once per hour or day\n        1) loop through borrowers, make sure collat value > collreq*loanValue\n        2) if it is close, alert the user\n        3) if below, scale thier loan value, transfer part of collat to pool, dont mint tokens\n        */\n        uint256 numBorrowers = borrowers.length;\n        uint256 numAssets = supportedAssets.length;\n\n        for (uint16 i = 0; i < numBorrowers; i++) {\n            address user = borrowers[i];\n            uint256 usdCollateralValueScaled = collateral.scaledCollateralValue(\n                user\n            );\n            uint256 usdCollateralValue = collateral.collateralValue(user);\n            uint256 usdBorrowValue = totalValueBorrowed(user);\n\n            if (usdCollateralValueScaled < usdBorrowValue) {\n                for (uint16 j = 0; j < numAssets; j++) {\n                    address asset = supportedAssets[j];\n                    uint256 multiplier = collateral.collReqByAsset(asset);\n                    //set loan value lower\n                    //transfer to pool without minting tokens\n\n                    uint256 loanFactor = loanLiquidationFactor(\n                        usdBorrowValue,\n                        multiplier,\n                        usdCollateralValue\n                    ); // see function below\n\n                    uint256 collFactor = collateralLiquidationFactor(\n                        usdBorrowValue,\n                        multiplier,\n                        usdCollateralValue\n                    ); //see function below\n\n                    if (\n                        borrowTracker[asset][user].principal > 0 ||\n                        borrowTracker[asset][user].interest > 0\n                    ) {\n                        // amount of loan to move back into pool after siezing collateral\n                        uint256 amountToReplenish = ((1 * 10**18) -\n                            loanFactor) *\n                            (borrowTracker[asset][user].interest +\n                                borrowTracker[asset][user].principal);\n\n                        //reduce their interest amount by the scalar\n                        borrowTracker[asset][user].interest =\n                            (borrowTracker[asset][user].interest * loanFactor) /\n                            (10**18);\n\n                        //reduce thier principal amount by the scalar\n                        borrowTracker[asset][user].principal =\n                            (borrowTracker[asset][user].principal *\n                                loanFactor) /\n                            (10**18);\n\n                        //send equal amount from reserve to pool\n                        pool.replenishPoolOnDefault(asset, amountToReplenish);\n                    }\n\n                    //now take thier collateral\n                    if (collateral.userCollateral(user, asset) > 0) {\n                        //take a proportion of collateral to put them back in the overcollateralized state\n                        uint256 collatQuantity = (collateral.userCollateral(\n                            user,\n                            asset\n                        ) * collFactor) / (10**18);\n                        /*\n                         * collat to reserve\n                         * borrow asset to pool from reserve\n                         */\n                        //sends collat asset to pool\n                        collateral.defaultCollateralTransfer(\n                            user,\n                            asset,\n                            collatQuantity\n                        );\n\n                        //have pool account for this transfer\n                        pool.recieveDefaultCollateral(asset, collatQuantity);\n                    }\n                    pool.balanceReserves(asset);\n                }\n\n                return (\"Loan Partially Liquidated\");\n            } else if (\n                usdCollateralValueScaled < (105 * usdBorrowValue) / 100\n            ) {\n                return (\n                    \"Liquidation Risk: Collateral value approaching LTV requirement\"\n                );\n            }\n        }\n\n        //delete borrower if they repayed all- how?\n        // if (totalValueBorrowed(msg.sender) == 0) {\n        //     borrowers :remove (msg.sender);\n        //     initializedBorrowers[msg.sender] = false;\n        // }\n    }\n\n    //next 2 functoins: if undercollateralized, these are the factors to multiply loan or collat by to bring them back into correct proportions\n    //these functions determine how much collat/loan needs to be siezed without taking all of it\n    function loanLiquidationFactor(\n        uint256 _loan,\n        uint256 _multiplier,\n        uint256 _collateral\n    ) internal pure returns (uint256) {\n        uint256 scale = (16 *\n            10**17 *\n            (((_loan * _multiplier) / 10**18) - _collateral)) /\n            ((((_multiplier - 1 * 10**18) * _loan) / (1 * 10**18)));\n        return (1 * 10**18 - scale); //multiply loan value by this\n    }\n\n    function collateralLiquidationFactor(\n        uint256 _loan,\n        uint256 _multiplier,\n        uint256 _collateral\n    ) internal pure returns (uint256) {\n        uint256 scale = (16 *\n            10**17 *\n            (((_loan * _multiplier) / 10**18) - _collateral)) /\n            ((((_multiplier - 1 * 10**18) * _collateral) / (1 * 10**18)));\n        return (scale); //take this much from collat\n    }\n\n    // calculate USD value of loan- loops through assets for the specified user\n    function totalValueBorrowed(address _borrower)\n        public\n        view\n        returns (uint256)\n    {\n        uint256 totalBorrowValue = 0;\n\n        // make this less bits?\n        uint256 numAssets = supportedAssets.length;\n\n        //loop to calculate the value of the pool liquid + borrowed\n        for (uint16 i = 0; i < numAssets; i++) {\n            address asset = supportedAssets[i];\n            uint256 assetPrice = conversion.getPrice(asset);\n            totalBorrowValue += (((borrowTracker[asset][_borrower].principal +\n                borrowTracker[asset][_borrower].interest) * assetPrice) /\n                (1 * 10**18));\n        }\n        return totalBorrowValue;\n    }\n\n    function interestQuantity(address _user, address _asset)\n        public\n        view\n        returns (uint256)\n    {\n        return borrowTracker[_asset][_user].interest;\n    }\n\n    //total amount of a single asset lent\n    function totalAssetLent(address _asset) internal view returns (uint256) {\n        uint256 numLenders = lendersByAsset[_asset].length;\n        uint256 totalLent = 0;\n\n        for (uint16 i = 0; i < numLenders; i++) {\n            totalLent += LentAmountTracker[_asset][lendersByAsset[_asset][i]];\n        }\n        return totalLent;\n    }\n\n    function getInterestRate(address _asset) public view returns (uint256) {\n        return pool.InterestRate(_asset, interestTime);\n    }\n\n    function getAnnualBorrowInterestRate(address _asset)\n        public\n        view\n        returns (uint256)\n    {\n        return (pool.annualBorrowInterestRate(_asset) * 100);\n    }\n\n    function getAnnualLendInterestRate(address _asset)\n        public\n        view\n        returns (uint256)\n    {\n        return (pool.annualLendInterestRate(_asset, interestTime));\n    }\n\n    function minimum(uint256 a, uint256 b) internal pure returns (uint256) {\n        return a.min(b);\n    }\n\n    function getLiquidity(address _token) public view returns (uint256) {\n        return pool.getLiquidQuantity(_token);\n    }\n\n    function getTotalBorrow(address _token) public view returns (uint256) {\n        return pool.getBorrowQuantity(_token);\n    }\n\n    function getPoolBalance(address _token) public view returns (uint256) {\n        return pool.getBalance(_token);\n    }\n\n    function getLiquidPct(address _token) public view returns (uint256) {\n        return pool.getLiquidPct(_token);\n    }\n\n    function getLockedCollateral(address _token) public view returns (uint256) {\n        return collateral.getCollateralQuantity(_token);\n    }\n\n    function getCollBalance(address _token) public view returns (uint256) {\n        return collateral.getBalance(_token);\n    }\n\n    function getPoolAddr() public view returns (address) {\n        return address(pool);\n    }\n\n    function getCollAddr() public view returns (address) {\n        return address(collateral);\n    }\n\n    function getTokenAddr() public view returns (address) {\n        return address(token);\n    }\n\n    function getTokenDollarValue() public view returns (uint256) {\n        return token.tokenDollarValue();\n    }\n\n    function getPoolValue() public view returns (uint256) {\n        return pool.getTotalPool();\n    }\n\n    function getTotalSupply() public view returns (uint256) {\n        return token.totalSupply();\n    }\n\n    function getBalanceOf(address _user) public view returns (uint256) {\n        return token.balanceOf(_user);\n    }\n\n    function getCollateralValue(address _user) public view returns (uint256) {\n        return collateral.collateralValue(_user);\n    }\n\n    function getOutstandingLoan(address _user, address _asset)\n        public\n        view\n        returns (uint256)\n    {\n        return (borrowTracker[_asset][_user].principal +\n            borrowTracker[_asset][_user].interest);\n    }\n\n    function getUserCollateral(address _user, address _asset)\n        public\n        view\n        returns (uint256)\n    {\n        return collateral.userCollateral(_asset, _user);\n    }\n\n    function getTotalInterest(address _asset) public view returns (uint256) {\n        return pool.totalInterest(_asset);\n    }\n\n    function getLentAmount(address _user) public view returns (uint256) {\n        return lenderTokenTracker[_user];\n    }\n\n    function getTimeDelta() public view returns (uint256) {\n        return pool.getTimeDelta(interestTime);\n    }\n\n    function getInterestQuantity(address _asset) public view returns (uint256) {\n        return pool.getInterestQuantity(_asset);\n    }\n\n    function updateCollReqByAsset(address _asset, uint256 _updated_threshold)\n        public\n        onlyOwner\n    {\n        collateral.updateCollReqByAsset(_asset, _updated_threshold);\n    }\n\n    function updateSupportedAssets(address _asset) public onlyOwner {\n        supportedAssets.push(_asset);\n        pool.addSupportedAsset(_asset);\n        collateral.addSupportedAsset(_asset);\n    }\n\n    function maxLoanValue(address _user) public view returns (uint256) {\n        return collateral.scaledCollateralValue(_user);\n    }\n\n    function availableAssetLoan(address _asset, address _user)\n        public\n        view\n        returns (uint256)\n    {\n        return\n            (maxLoanValue(_user) - totalValueBorrowed(_user)) /\n            conversion.getPrice(_asset);\n    }\n\n    function getReserveBalance(address _asset) public view returns (uint256) {\n        return pool.getReserveQuantity(_asset);\n    }\n\n    function collectFees() public onlyOwner {\n        pool.transferFees(owner);\n    }\n}\n","sourcePath":"contracts/LendingPool.sol","type":"contract","deployment":{"address":"0x4073F7bAFE82538E46d6FC085d918c33b4703131","chainid":"4","blockHeight":10323567}}