{"abi":[{"inputs":[],"stateMutability":"nonpayable","type":"constructor","name":"constructor"},{"inputs":[{"internalType":"uint256","name":"","type":"uint256"}],"name":"addresses","outputs":[{"internalType":"address","name":"","type":"address"}],"stateMutability":"view","type":"function"},{"inputs":[{"internalType":"address","name":"_borrower","type":"address"},{"internalType":"address","name":"_token","type":"address"},{"internalType":"uint256","name":"_quantity","type":"uint256"}],"name":"borrowTransfer","outputs":[],"stateMutability":"nonpayable","type":"function"},{"inputs":[{"internalType":"address","name":"_owner","type":"address"},{"internalType":"address","name":"_token","type":"address"},{"internalType":"uint256","name":"_quantity","type":"uint256"}],"name":"depositTransfer","outputs":[],"stateMutability":"nonpayable","type":"function"},{"inputs":[{"internalType":"address","name":"_token","type":"address"}],"name":"getBalance","outputs":[{"internalType":"uint256","name":"","type":"uint256"}],"stateMutability":"view","type":"function"},{"inputs":[{"internalType":"address","name":"_token","type":"address"}],"name":"getLiquidPct","outputs":[{"internalType":"uint256","name":"","type":"uint256"}],"stateMutability":"view","type":"function"},{"inputs":[{"internalType":"address","name":"_token","type":"address"}],"name":"getLiquidQuantity","outputs":[{"internalType":"uint256","name":"","type":"uint256"}],"stateMutability":"view","type":"function"},{"inputs":[],"name":"getTotalPool","outputs":[{"internalType":"uint256","name":"","type":"uint256"}],"stateMutability":"view","type":"function"},{"inputs":[{"internalType":"address","name":"","type":"address"}],"name":"liquidity","outputs":[{"internalType":"uint256","name":"liqQty","type":"uint256"},{"internalType":"uint256","name":"borQty","type":"uint256"}],"stateMutability":"view","type":"function"},{"inputs":[],"name":"totalPoolValue","outputs":[{"internalType":"uint256","name":"","type":"uint256"}],"stateMutability":"view","type":"function"}],"bytecode":"608060405234801561001057600080fd5b50600260035560408051808201909152600080825260208083018281527301be23585060835e02b77ef475b0cc51aa1e07098084529183905292517f4e2753d238f0f4cb8962490717ab551b4c023808c7bc37aed6e8760bfc3a92d55591517f4e2753d238f0f4cb8962490717ab551b4c023808c7bc37aed6e8760bfc3a92d65560018054808201825591527fb10e2d527612073b26eecdfd717e6a320cf44b4afac2b0732d9fcbe2b7fa0cf60180546001600160a01b031916909117905561059d806100de6000396000f3fe608060405234801561001057600080fd5b50600436106100935760003560e01c8063de30f97d11610066578063de30f97d14610108578063edf26d9b1461011b578063f8b2cb4f14610146578063fc4f78b914610159578063fce3e8e71461016c57600080fd5b80632e81d95e1461009857806375f4d677146100ad5780638a02775b146100c3578063b8c876b1146100cc575b600080fd5b6100ab6100a636600461042f565b610195565b005b60005b6040519081526020015b60405180910390f35b6100b060025481565b6100f36100da36600461046b565b6000602081905290815260409020805460019091015482565b604080519283526020830191909152016100ba565b6100b061011636600461046b565b61024b565b61012e61012936600461048d565b6102a8565b6040516001600160a01b0390911681526020016100ba565b6100b061015436600461046b565b6102d2565b6100ab61016736600461042f565b61033d565b6100b061017a36600461046b565b6001600160a01b031660009081526020819052604090205490565b6001600160a01b0382166000908152602081905260409020546101b99082906104bc565b6001600160a01b03838116600081815260208190526040908190209390935591516323b872dd60e01b81529085166004820152306024820152604481018390526323b872dd906064016020604051808303816000875af1158015610221573d6000803e3d6000fd5b505050506040513d601f19601f8201168201806040525081019061024591906104d4565b50505050565b6001600160a01b03811660009081526020819052604081206001810154905461027491906104bc565b6001600160a01b0383166000908152602081905260409020546102989060016104f6565b6102a29190610515565b92915050565b600181815481106102b857600080fd5b6000918252602090912001546001600160a01b0316905081565b6040516370a0823160e01b81523060048201526000906001600160a01b038316906370a0823190602401602060405180830381865afa158015610319573d6000803e3d6000fd5b505050506040513d601f19601f820116820180604052508101906102a29190610537565b60405163a9059cbb60e01b81526001600160a01b0384811660048301526024820183905283169063a9059cbb906044016020604051808303816000875af115801561038c573d6000803e3d6000fd5b505050506040513d601f19601f820116820180604052508101906103b091906104d4565b506001600160a01b038216600090815260208190526040812080548392906103d9908490610550565b90915550506001600160a01b038216600090815260208190526040812060010180548392906104099084906104bc565b9091555050505050565b80356001600160a01b038116811461042a57600080fd5b919050565b60008060006060848603121561044457600080fd5b61044d84610413565b925061045b60208501610413565b9150604084013590509250925092565b60006020828403121561047d57600080fd5b61048682610413565b9392505050565b60006020828403121561049f57600080fd5b5035919050565b634e487b7160e01b600052601160045260246000fd5b600082198211156104cf576104cf6104a6565b500190565b6000602082840312156104e657600080fd5b8151801515811461048657600080fd5b6000816000190483118215151615610510576105106104a6565b500290565b60008261053257634e487b7160e01b600052601260045260246000fd5b500490565b60006020828403121561054957600080fd5b5051919050565b600082821015610562576105626104a6565b50039056fea2646970667358221220b005b50622b3389dfe1a6fbddfbbbf2f4ac8189a3db75b2a8e19ec649c8ea84764736f6c634300080b0033","bytecodeSha1":"0fc35f6eb4d0b017389935dcbd3a456cbeb23400","compiler":{"evm_version":"istanbul","optimizer":{"enabled":true,"runs":200},"version":"0.8.11+commit.d7f03943"},"contractName":"Pool","language":"Solidity","natspec":{"kind":"dev","methods":{},"version":1},"opcodes":"PUSH1 0x80 PUSH1 0x40 MSTORE CALLVALUE DUP1 ISZERO PUSH2 0x10 JUMPI PUSH1 0x0 DUP1 REVERT JUMPDEST POP PUSH1 0x4 CALLDATASIZE LT PUSH2 0x93 JUMPI PUSH1 0x0 CALLDATALOAD PUSH1 0xE0 SHR DUP1 PUSH4 0xDE30F97D GT PUSH2 0x66 JUMPI DUP1 PUSH4 0xDE30F97D EQ PUSH2 0x108 JUMPI DUP1 PUSH4 0xEDF26D9B EQ PUSH2 0x11B JUMPI DUP1 PUSH4 0xF8B2CB4F EQ PUSH2 0x146 JUMPI DUP1 PUSH4 0xFC4F78B9 EQ PUSH2 0x159 JUMPI DUP1 PUSH4 0xFCE3E8E7 EQ PUSH2 0x16C JUMPI PUSH1 0x0 DUP1 REVERT JUMPDEST DUP1 PUSH4 0x2E81D95E EQ PUSH2 0x98 JUMPI DUP1 PUSH4 0x75F4D677 EQ PUSH2 0xAD JUMPI DUP1 PUSH4 0x8A02775B EQ PUSH2 0xC3 JUMPI DUP1 PUSH4 0xB8C876B1 EQ PUSH2 0xCC JUMPI JUMPDEST PUSH1 0x0 DUP1 REVERT JUMPDEST PUSH2 0xAB PUSH2 0xA6 CALLDATASIZE PUSH1 0x4 PUSH2 0x42F JUMP JUMPDEST PUSH2 0x195 JUMP JUMPDEST STOP JUMPDEST PUSH1 0x0 JUMPDEST PUSH1 0x40 MLOAD SWAP1 DUP2 MSTORE PUSH1 0x20 ADD JUMPDEST PUSH1 0x40 MLOAD DUP1 SWAP2 SUB SWAP1 RETURN JUMPDEST PUSH2 0xB0 PUSH1 0x2 SLOAD DUP2 JUMP JUMPDEST PUSH2 0xF3 PUSH2 0xDA CALLDATASIZE PUSH1 0x4 PUSH2 0x46B JUMP JUMPDEST PUSH1 0x0 PUSH1 0x20 DUP2 SWAP1 MSTORE SWAP1 DUP2 MSTORE PUSH1 0x40 SWAP1 KECCAK256 DUP1 SLOAD PUSH1 0x1 SWAP1 SWAP2 ADD SLOAD DUP3 JUMP JUMPDEST PUSH1 0x40 DUP1 MLOAD SWAP3 DUP4 MSTORE PUSH1 0x20 DUP4 ADD SWAP2 SWAP1 SWAP2 MSTORE ADD PUSH2 0xBA JUMP JUMPDEST PUSH2 0xB0 PUSH2 0x116 CALLDATASIZE PUSH1 0x4 PUSH2 0x46B JUMP JUMPDEST PUSH2 0x24B JUMP JUMPDEST PUSH2 0x12E PUSH2 0x129 CALLDATASIZE PUSH1 0x4 PUSH2 0x48D JUMP JUMPDEST PUSH2 0x2A8 JUMP JUMPDEST PUSH1 0x40 MLOAD PUSH1 0x1 PUSH1 0x1 PUSH1 0xA0 SHL SUB SWAP1 SWAP2 AND DUP2 MSTORE PUSH1 0x20 ADD PUSH2 0xBA JUMP JUMPDEST PUSH2 0xB0 PUSH2 0x154 CALLDATASIZE PUSH1 0x4 PUSH2 0x46B JUMP JUMPDEST PUSH2 0x2D2 JUMP JUMPDEST PUSH2 0xAB PUSH2 0x167 CALLDATASIZE PUSH1 0x4 PUSH2 0x42F JUMP JUMPDEST PUSH2 0x33D JUMP JUMPDEST PUSH2 0xB0 PUSH2 0x17A CALLDATASIZE PUSH1 0x4 PUSH2 0x46B JUMP JUMPDEST PUSH1 0x1 PUSH1 0x1 PUSH1 0xA0 SHL SUB AND PUSH1 0x0 SWAP1 DUP2 MSTORE PUSH1 0x20 DUP2 SWAP1 MSTORE PUSH1 0x40 SWAP1 KECCAK256 SLOAD SWAP1 JUMP JUMPDEST PUSH1 0x1 PUSH1 0x1 PUSH1 0xA0 SHL SUB DUP3 AND PUSH1 0x0 SWAP1 DUP2 MSTORE PUSH1 0x20 DUP2 SWAP1 MSTORE PUSH1 0x40 SWAP1 KECCAK256 SLOAD PUSH2 0x1B9 SWAP1 DUP3 SWAP1 PUSH2 0x4BC JUMP JUMPDEST PUSH1 0x1 PUSH1 0x1 PUSH1 0xA0 SHL SUB DUP4 DUP2 AND PUSH1 0x0 DUP2 DUP2 MSTORE PUSH1 0x20 DUP2 SWAP1 MSTORE PUSH1 0x40 SWAP1 DUP2 SWAP1 KECCAK256 SWAP4 SWAP1 SWAP4 SSTORE SWAP2 MLOAD PUSH4 0x23B872DD PUSH1 0xE0 SHL DUP2 MSTORE SWAP1 DUP6 AND PUSH1 0x4 DUP3 ADD MSTORE ADDRESS PUSH1 0x24 DUP3 ADD MSTORE PUSH1 0x44 DUP2 ADD DUP4 SWAP1 MSTORE PUSH4 0x23B872DD SWAP1 PUSH1 0x64 ADD PUSH1 0x20 PUSH1 0x40 MLOAD DUP1 DUP4 SUB DUP2 PUSH1 0x0 DUP8 GAS CALL ISZERO DUP1 ISZERO PUSH2 0x221 JUMPI RETURNDATASIZE PUSH1 0x0 DUP1 RETURNDATACOPY RETURNDATASIZE PUSH1 0x0 REVERT JUMPDEST POP POP POP POP PUSH1 0x40 MLOAD RETURNDATASIZE PUSH1 0x1F NOT PUSH1 0x1F DUP3 ADD AND DUP3 ADD DUP1 PUSH1 0x40 MSTORE POP DUP2 ADD SWAP1 PUSH2 0x245 SWAP2 SWAP1 PUSH2 0x4D4 JUMP JUMPDEST POP POP POP POP JUMP JUMPDEST PUSH1 0x1 PUSH1 0x1 PUSH1 0xA0 SHL SUB DUP2 AND PUSH1 0x0 SWAP1 DUP2 MSTORE PUSH1 0x20 DUP2 SWAP1 MSTORE PUSH1 0x40 DUP2 KECCAK256 PUSH1 0x1 DUP2 ADD SLOAD SWAP1 SLOAD PUSH2 0x274 SWAP2 SWAP1 PUSH2 0x4BC JUMP JUMPDEST PUSH1 0x1 PUSH1 0x1 PUSH1 0xA0 SHL SUB DUP4 AND PUSH1 0x0 SWAP1 DUP2 MSTORE PUSH1 0x20 DUP2 SWAP1 MSTORE PUSH1 0x40 SWAP1 KECCAK256 SLOAD PUSH2 0x298 SWAP1 PUSH1 0x1 PUSH2 0x4F6 JUMP JUMPDEST PUSH2 0x2A2 SWAP2 SWAP1 PUSH2 0x515 JUMP JUMPDEST SWAP3 SWAP2 POP POP JUMP JUMPDEST PUSH1 0x1 DUP2 DUP2 SLOAD DUP2 LT PUSH2 0x2B8 JUMPI PUSH1 0x0 DUP1 REVERT JUMPDEST PUSH1 0x0 SWAP2 DUP3 MSTORE PUSH1 0x20 SWAP1 SWAP2 KECCAK256 ADD SLOAD PUSH1 0x1 PUSH1 0x1 PUSH1 0xA0 SHL SUB AND SWAP1 POP DUP2 JUMP JUMPDEST PUSH1 0x40 MLOAD PUSH4 0x70A08231 PUSH1 0xE0 SHL DUP2 MSTORE ADDRESS PUSH1 0x4 DUP3 ADD MSTORE PUSH1 0x0 SWAP1 PUSH1 0x1 PUSH1 0x1 PUSH1 0xA0 SHL SUB DUP4 AND SWAP1 PUSH4 0x70A08231 SWAP1 PUSH1 0x24 ADD PUSH1 0x20 PUSH1 0x40 MLOAD DUP1 DUP4 SUB DUP2 DUP7 GAS STATICCALL ISZERO DUP1 ISZERO PUSH2 0x319 JUMPI RETURNDATASIZE PUSH1 0x0 DUP1 RETURNDATACOPY RETURNDATASIZE PUSH1 0x0 REVERT JUMPDEST POP POP POP POP PUSH1 0x40 MLOAD RETURNDATASIZE PUSH1 0x1F NOT PUSH1 0x1F DUP3 ADD AND DUP3 ADD DUP1 PUSH1 0x40 MSTORE POP DUP2 ADD SWAP1 PUSH2 0x2A2 SWAP2 SWAP1 PUSH2 0x537 JUMP JUMPDEST PUSH1 0x40 MLOAD PUSH4 0xA9059CBB PUSH1 0xE0 SHL DUP2 MSTORE PUSH1 0x1 PUSH1 0x1 PUSH1 0xA0 SHL SUB DUP5 DUP2 AND PUSH1 0x4 DUP4 ADD MSTORE PUSH1 0x24 DUP3 ADD DUP4 SWAP1 MSTORE DUP4 AND SWAP1 PUSH4 0xA9059CBB SWAP1 PUSH1 0x44 ADD PUSH1 0x20 PUSH1 0x40 MLOAD DUP1 DUP4 SUB DUP2 PUSH1 0x0 DUP8 GAS CALL ISZERO DUP1 ISZERO PUSH2 0x38C JUMPI RETURNDATASIZE PUSH1 0x0 DUP1 RETURNDATACOPY RETURNDATASIZE PUSH1 0x0 REVERT JUMPDEST POP POP POP POP PUSH1 0x40 MLOAD RETURNDATASIZE PUSH1 0x1F NOT PUSH1 0x1F DUP3 ADD AND DUP3 ADD DUP1 PUSH1 0x40 MSTORE POP DUP2 ADD SWAP1 PUSH2 0x3B0 SWAP2 SWAP1 PUSH2 0x4D4 JUMP JUMPDEST POP PUSH1 0x1 PUSH1 0x1 PUSH1 0xA0 SHL SUB DUP3 AND PUSH1 0x0 SWAP1 DUP2 MSTORE PUSH1 0x20 DUP2 SWAP1 MSTORE PUSH1 0x40 DUP2 KECCAK256 DUP1 SLOAD DUP4 SWAP3 SWAP1 PUSH2 0x3D9 SWAP1 DUP5 SWAP1 PUSH2 0x550 JUMP JUMPDEST SWAP1 SWAP2 SSTORE POP POP PUSH1 0x1 PUSH1 0x1 PUSH1 0xA0 SHL SUB DUP3 AND PUSH1 0x0 SWAP1 DUP2 MSTORE PUSH1 0x20 DUP2 SWAP1 MSTORE PUSH1 0x40 DUP2 KECCAK256 PUSH1 0x1 ADD DUP1 SLOAD DUP4 SWAP3 SWAP1 PUSH2 0x409 SWAP1 DUP5 SWAP1 PUSH2 0x4BC JUMP JUMPDEST SWAP1 SWAP2 SSTORE POP POP POP POP POP JUMP JUMPDEST DUP1 CALLDATALOAD PUSH1 0x1 PUSH1 0x1 PUSH1 0xA0 SHL SUB DUP2 AND DUP2 EQ PUSH2 0x42A JUMPI PUSH1 0x0 DUP1 REVERT JUMPDEST SWAP2 SWAP1 POP JUMP JUMPDEST PUSH1 0x0 DUP1 PUSH1 0x0 PUSH1 0x60 DUP5 DUP7 SUB SLT ISZERO PUSH2 0x444 JUMPI PUSH1 0x0 DUP1 REVERT JUMPDEST PUSH2 0x44D DUP5 PUSH2 0x413 JUMP JUMPDEST SWAP3 POP PUSH2 0x45B PUSH1 0x20 DUP6 ADD PUSH2 0x413 JUMP JUMPDEST SWAP2 POP PUSH1 0x40 DUP5 ADD CALLDATALOAD SWAP1 POP SWAP3 POP SWAP3 POP SWAP3 JUMP JUMPDEST PUSH1 0x0 PUSH1 0x20 DUP3 DUP5 SUB SLT ISZERO PUSH2 0x47D JUMPI PUSH1 0x0 DUP1 REVERT JUMPDEST PUSH2 0x486 DUP3 PUSH2 0x413 JUMP JUMPDEST SWAP4 SWAP3 POP POP POP JUMP JUMPDEST PUSH1 0x0 PUSH1 0x20 DUP3 DUP5 SUB SLT ISZERO PUSH2 0x49F JUMPI PUSH1 0x0 DUP1 REVERT JUMPDEST POP CALLDATALOAD SWAP2 SWAP1 POP JUMP JUMPDEST PUSH4 0x4E487B71 PUSH1 0xE0 SHL PUSH1 0x0 MSTORE PUSH1 0x11 PUSH1 0x4 MSTORE PUSH1 0x24 PUSH1 0x0 REVERT JUMPDEST PUSH1 0x0 DUP3 NOT DUP3 GT ISZERO PUSH2 0x4CF JUMPI PUSH2 0x4CF PUSH2 0x4A6 JUMP JUMPDEST POP ADD SWAP1 JUMP JUMPDEST PUSH1 0x0 PUSH1 0x20 DUP3 DUP5 SUB SLT ISZERO PUSH2 0x4E6 JUMPI PUSH1 0x0 DUP1 REVERT JUMPDEST DUP2 MLOAD DUP1 ISZERO ISZERO DUP2 EQ PUSH2 0x486 JUMPI PUSH1 0x0 DUP1 REVERT JUMPDEST PUSH1 0x0 DUP2 PUSH1 0x0 NOT DIV DUP4 GT DUP3 ISZERO ISZERO AND ISZERO PUSH2 0x510 JUMPI PUSH2 0x510 PUSH2 0x4A6 JUMP JUMPDEST POP MUL SWAP1 JUMP JUMPDEST PUSH1 0x0 DUP3 PUSH2 0x532 JUMPI PUSH4 0x4E487B71 PUSH1 0xE0 SHL PUSH1 0x0 MSTORE PUSH1 0x12 PUSH1 0x4 MSTORE PUSH1 0x24 PUSH1 0x0 REVERT JUMPDEST POP DIV SWAP1 JUMP JUMPDEST PUSH1 0x0 PUSH1 0x20 DUP3 DUP5 SUB SLT ISZERO PUSH2 0x549 JUMPI PUSH1 0x0 DUP1 REVERT JUMPDEST POP MLOAD SWAP2 SWAP1 POP JUMP JUMPDEST PUSH1 0x0 DUP3 DUP3 LT ISZERO PUSH2 0x562 JUMPI PUSH2 0x562 PUSH2 0x4A6 JUMP JUMPDEST POP SUB SWAP1 JUMP INVALID LOG2 PUSH5 0x6970667358 0x22 SLT KECCAK256 0xB0 SDIV 0xB5 MOD 0x22 0xB3 CODESIZE SWAP14 INVALID BYTE PUSH16 0xBDDFBBBF2F4AC8189A3DB75B2A8E19EC PUSH5 0x9C8EA84764 PUSH20 0x6F6C634300080B00330000000000000000000000 ","sha1":"44768a04c844c7b0802d7efc1970318369e906a2","source":"// SPDX-License-Identifier: MIT\n\npragma solidity ^0.8.0;\n\n//import \"./ierc20token.sol\";\n//import \"@openzeppelin/contracts/utils/math/SafeMath.sol\";\nimport \"@openzeppelin/contracts/token/ERC20/IERC20.sol\";\n\n// derive this from OpenZeppelin's Ownable contract?\ncontract Pool {\n    //    using SafeMath for uint256;\n\n    struct Reserve {\n        // may need the USD price of these, which would have to update\n        // uint256 price;\n        // liquid quantity\n        uint256 liqQty;\n        // borrowed quantity\n        uint256 borQty;\n    }\n\n    mapping(address => Reserve) public liquidity;\n\n    address[] public addresses;\n\n    // public?\n    uint256 public totalPoolValue;\n    // obviously this will also need to be a decimal - visibility?\n    uint256 reserveReq;\n\n    constructor() {\n        // will need a function to update this\n        reserveReq = 2;\n        address LINK = 0x01BE23585060835E02B77ef475b0Cc51aA1e0709;\n        // need the USD price probably\n        liquidity[LINK] = Reserve(0, 0);\n        addresses.push(LINK);\n        // repeat this for all other tokens we support\n        // how to add support for new tokens after deployment?\n    }\n\n    function depositTransfer(\n        address _owner,\n        address _token,\n        uint256 _quantity\n    ) public {\n        // TODO: need to switch this to safemath? operations\n        liquidity[_token].liqQty = liquidity[_token].liqQty + _quantity;\n        IERC20(_token).transferFrom(_owner, address(this), _quantity);\n    }\n\n    // this should probably not be public\n    function borrowTransfer(\n        address _borrower,\n        address _token,\n        uint256 _quantity\n    ) public {\n        // can do transfer, not approve & transferFrom\n        IERC20(_token).transfer(_borrower, _quantity);\n        (liquidity[_token].liqQty -= _quantity);\n        (liquidity[_token].borQty += _quantity);\n    }\n\n    function getLiquidQuantity(address _token) public view returns (uint256) {\n        return liquidity[_token].liqQty;\n    }\n\n    function getTotalPool() public view returns (uint256) {\n        // make this less bits?\n        uint256 numberAddresses = addresses.length;\n        // loop to calculate the value of the pool - needs conversion contract\n        // for (uint16 i=0; i<numberAddresses; i++){\n        //     totalPoolValue = totalPoolValue + liquidity[addresses[i]].liqQty * ]\n        // }\n    }\n\n    // obviously will need to figure out the decimal situation here\n    function getLiquidPct(address _token) public view returns (uint256) {\n        // not working - returns the correct borrow quantity though\n        return\n            (1 * liquidity[_token].liqQty) /\n            (liquidity[_token].liqQty + liquidity[_token].borQty);\n        // return liquidity[_token].borQty;\n    }\n\n    function getBalance(address _token) public view returns (uint256) {\n        return IERC20(_token).balanceOf(address(this));\n    }\n}\n","sourcePath":"contracts/2_Pool.sol","type":"contract","deployment":{"address":"0xCA0E685d5451b57Bf82a74332F6Efec395D73D26","chainid":"4","blockHeight":10072934}}