{"bytecode":"608060405234801561001057600080fd5b5060405161001d90610148565b604051809103906000f080158015610039573d6000803e3d6000fd5b50600080546001600160a01b0319166001600160a01b039290921691909117905560405161006690610155565b604051809103906000f080158015610082573d6000803e3d6000fd5b50600180546001600160a01b0319166001600160a01b039283161790556000546040519116906100b190610162565b6060808252600990820152682a32b9ba2a37b5b2b760b91b608082015260a060208201819052600390820152621514d560ea1b60c08201526001600160a01b03909116604082015260e001604051809103906000f080158015610118573d6000803e3d6000fd5b50600380546001600160a01b03929092166001600160a01b0319928316179055600280549091163317905561016f565b610bbb80610a6883390190565b6103c68061162383390190565b611efe806119e983390190565b6108ea8061017e6000396000f3fe608060405234801561001057600080fd5b506004361061010b5760003560e01c80636db18093116100a2578063d49ab22c11610071578063d49ab22c146101e9578063d8dfeb45146101fc578063de2592421461020f578063de30f97d14610220578063fc0c546a1461023357600080fd5b80636db18093146101b3578063a747b93b146101bb578063c4e41b22146101ce578063d28682ea146101d657600080fd5b806346c928fc116100de57806346c928fc1461016b5780634bcc17091461017e578063582b27201461019157806363e36dac146101a257600080fd5b8063057393c01461011057806316f0115b146101365780631ba2f53114610161578063243d8e0514610169575b600080fd5b61012361011e3660046107da565b610246565b6040519081526020015b60405180910390f35b600054610149906001600160a01b031681565b6040516001600160a01b03909116815260200161012d565b6101236102bc565b005b6101696101793660046107fc565b61032f565b61016961018c366004610842565b610532565b6003546001600160a01b0316610149565b6001546001600160a01b0316610149565b61012361065e565b6101236101c93660046107da565b6106a8565b6101236106db565b6101236101e43660046107da565b610725565b6101236101f73660046107da565b610758565b600154610149906001600160a01b031681565b6000546001600160a01b0316610149565b61012361022e3660046107da565b61078b565b600354610149906001600160a01b031681565b60015460405163f8b2cb4f60e01b81526001600160a01b038381166004830152600092169063f8b2cb4f906024015b602060405180830381865afa158015610292573d6000803e3d6000fd5b505050506040513d601f19601f820116820180604052508101906102b6919061086e565b92915050565b60035460408051638a02775b60e01b815290516000926001600160a01b031691638a02775b9160048083019260209291908290030181865afa158015610306573d6000803e3d6000fd5b505050506040513d601f19601f8201168201806040525081019061032a919061086e565b905090565b600160009054906101000a90046001600160a01b03166001600160a01b031663094049546040518163ffffffff1660e01b8152600401602060405180830381865afa158015610382573d6000803e3d6000fd5b505050506040513d601f19601f820116820180604052508101906103a6919061086e565b6103b09085610887565b8210156103fc5760405162461bcd60e51b81526020600482015260156024820152741b9bdd08195b9bdd59da0818dbdb1b185d195c985b605a1b60448201526064015b60405180910390fd5b60015460405163f970c3b760e01b81523360048201526001600160a01b038381166024830152604482018590529091169063f970c3b790606401600060405180830381600087803b15801561045057600080fd5b505af1158015610464573d6000803e3d6000fd5b505060005460405163fc4f78b960e01b81523360048201526001600160a01b03878116602483015260448201899052909116925063fc4f78b99150606401600060405180830381600087803b1580156104bc57600080fd5b505af11580156104d0573d6000803e3d6000fd5b505060408051338152602081018890526001600160a01b0387811682840152606082018790528516608082015290517fea8631408d071cdc565dfa37dcb32450c4c85ee9a4142ed14df1387d7c2a432793509081900360a0019150a150505050565b600082116105825760405162461bcd60e51b815260206004820152601860248201527f6465706f736974206d75737420626520706f736974697665000000000000000060448201526064016103f3565b600054604051631740ecaf60e11b81523360048201526001600160a01b0383811660248301526044820185905290911690632e81d95e90606401600060405180830381600087803b1580156105d657600080fd5b505af11580156105ea573d6000803e3d6000fd5b5050600354604051630d4d151360e01b8152336004820152602481018690526001600160a01b0385811660448301529091169250630d4d15139150606401600060405180830381600087803b15801561064257600080fd5b505af1158015610656573d6000803e3d6000fd5b505050505050565b60035460408051630cf55f3760e21b815290516000926001600160a01b0316916333d57cdc9160048083019260209291908290030181865afa158015610306573d6000803e3d6000fd5b6000805460405163fce3e8e760e01b81526001600160a01b0384811660048301529091169063fce3e8e790602401610275565b600354604080516318160ddd60e01b815290516000926001600160a01b0316916318160ddd9160048083019260209291908290030181865afa158015610306573d6000803e3d6000fd5b6000805460405163f8b2cb4f60e01b81526001600160a01b0384811660048301529091169063f8b2cb4f90602401610275565b6001546040516328d1f89360e21b81526001600160a01b038381166004830152600092169063a347e24c90602401610275565b6000805460405163de30f97d60e01b81526001600160a01b0384811660048301529091169063de30f97d90602401610275565b80356001600160a01b03811681146107d557600080fd5b919050565b6000602082840312156107ec57600080fd5b6107f5826107be565b9392505050565b6000806000806080858703121561081257600080fd5b84359350610822602086016107be565b925060408501359150610837606086016107be565b905092959194509250565b6000806040838503121561085557600080fd5b82359150610865602084016107be565b90509250929050565b60006020828403121561088057600080fd5b5051919050565b60008160001904831182151516156108af57634e487b7160e01b600052601160045260246000fd5b50029056fea2646970667358221220c93e2e4d975e1293be09a733808357e2c529b19fd6faa7685387eda70bbcaa9f64736f6c634300080b0033608060405234801561001057600080fd5b5060026003819055604080518082018252600080825260208083018281527301be23585060835e02b77ef475b0cc51aa1e07098084529183905292517f4e2753d238f0f4cb8962490717ab551b4c023808c7bc37aed6e8760bfc3a92d55591517f4e2753d238f0f4cb8962490717ab551b4c023808c7bc37aed6e8760bfc3a92d65583546001810185559390527f405787fa12a823e0f2b7631cc41b3ba8828b3321ca811111fa75cd3aa3bb5ace90920180546001600160a01b03191683179055516100db9061011e565b604051809103906000f0801580156100f7573d6000803e3d6000fd5b50600180546001600160a01b0319166001600160a01b03929092169190911790555061012b565b6103768061084583390190565b61070b8061013a6000396000f3fe608060405234801561001057600080fd5b50600436106100935760003560e01c8063de30f97d11610066578063de30f97d1461012f578063edf26d9b14610142578063f8b2cb4f14610155578063fc4f78b914610168578063fce3e8e71461017b57600080fd5b80632e81d95e1461009857806375f4d677146100ad5780639311ca69146100c8578063b8c876b1146100f3575b600080fd5b6100ab6100a6366004610565565b6101a4565b005b6100b561025a565b6040519081526020015b60405180910390f35b6001546100db906001600160a01b031681565b6040516001600160a01b0390911681526020016100bf565b61011a6101013660046105a1565b6000602081905290815260409020805460019091015482565b604080519283526020830191909152016100bf565b6100b561013d3660046105a1565b610381565b6100db6101503660046105c3565b6103de565b6100b56101633660046105a1565b610408565b6100ab610176366004610565565b610473565b6100b56101893660046105a1565b6001600160a01b031660009081526020819052604090205490565b6001600160a01b0382166000908152602081905260409020546101c89082906105f2565b6001600160a01b03838116600081815260208190526040908190209390935591516323b872dd60e01b81529085166004820152306024820152604481018390526323b872dd906064016020604051808303816000875af1158015610230573d6000803e3d6000fd5b505050506040513d601f19601f82011682018060405250810190610254919061060a565b50505050565b6002546000908190815b818161ffff16101561037957600154600280546001600160a01b03909216916341976e09919061ffff851690811061029e5761029e61062c565b60009182526020909120015460405160e083901b6001600160e01b03191681526001600160a01b039091166004820152602401602060405180830381865afa1580156102ee573d6000803e3d6000fd5b505050506040513d601f19601f820116820180604052508101906103129190610642565b60008060028461ffff168154811061032c5761032c61062c565b60009182526020808320909101546001600160a01b0316835282019290925260400190205461035b919061065b565b61036590846105f2565b9250806103718161067a565b915050610264565b509092915050565b6001600160a01b0381166000908152602081905260408120600181015490546103aa91906105f2565b6001600160a01b0383166000908152602081905260409020546103ce90600161065b565b6103d8919061069c565b92915050565b600281815481106103ee57600080fd5b6000918252602090912001546001600160a01b0316905081565b6040516370a0823160e01b81523060048201526000906001600160a01b038316906370a0823190602401602060405180830381865afa15801561044f573d6000803e3d6000fd5b505050506040513d601f19601f820116820180604052508101906103d89190610642565b60405163a9059cbb60e01b81526001600160a01b0384811660048301526024820183905283169063a9059cbb906044016020604051808303816000875af11580156104c2573d6000803e3d6000fd5b505050506040513d601f19601f820116820180604052508101906104e6919061060a565b506001600160a01b0382166000908152602081905260408120805483929061050f9084906106be565b90915550506001600160a01b0382166000908152602081905260408120600101805483929061053f9084906105f2565b9091555050505050565b80356001600160a01b038116811461056057600080fd5b919050565b60008060006060848603121561057a57600080fd5b61058384610549565b925061059160208501610549565b9150604084013590509250925092565b6000602082840312156105b357600080fd5b6105bc82610549565b9392505050565b6000602082840312156105d557600080fd5b5035919050565b634e487b7160e01b600052601160045260246000fd5b60008219821115610605576106056105dc565b500190565b60006020828403121561061c57600080fd5b815180151581146105bc57600080fd5b634e487b7160e01b600052603260045260246000fd5b60006020828403121561065457600080fd5b5051919050565b6000816000190483118215151615610675576106756105dc565b500290565b600061ffff80831681811415610692576106926105dc565b6001019392505050565b6000826106b957634e487b7160e01b600052601260045260246000fd5b500490565b6000828210156106d0576106d06105dc565b50039056fea26469706673582212205dd9bcbf2427f8b4e0922daf30417b6f0ee4e02ee574ebf23b7ee30ecfd5ffa864736f6c634300080b0033608060405234801561001057600080fd5b50600060208190527f4e2753d238f0f4cb8962490717ab551b4c023808c7bc37aed6e8760bfc3a92d580546001600160a01b031990811673d8bd0a1cb028a31aa859a21a3758685a95de462317909155731680df1901c033306f161ea35425c1463d52b0c69091527f848a6226e7c9b8bbc828749523b8ef06b79a399244b200976dd9ab47adefb42b8054909116732ba49aaa16e6afd2a993473cfb70fa8559b523cf1790556102b1806100c56000396000f3fe608060405234801561001057600080fd5b50600436106100365760003560e01c806341976e091461003b5780634238dc4714610061575b600080fd5b61004e610049366004610141565b6100a2565b6040519081526020015b60405180910390f35b61008a61006f366004610141565b6000602081905290815260409020546001600160a01b031681565b6040516001600160a01b039091168152602001610058565b6001600160a01b03808216600090815260208190526040808220548151633fabe5a360e21b81529151929316918391839163feaf968c9160048082019260a0929091908290030181865afa1580156100fe573d6000803e3d6000fd5b505050506040513d601f19601f820116820180604052508101906101229190610190565b505050915050806402540be40061013991906101f6565b949350505050565b60006020828403121561015357600080fd5b81356001600160a01b038116811461016a57600080fd5b9392505050565b805169ffffffffffffffffffff8116811461018b57600080fd5b919050565b600080600080600060a086880312156101a857600080fd5b6101b186610171565b94506020860151935060408601519250606086015191506101d460808701610171565b90509295509295909350565b634e487b7160e01b600052601160045260246000fd5b60006001600160ff1b038184138284138082168684048611161561021c5761021c6101e0565b600160ff1b600087128281168783058912161561023b5761023b6101e0565b60008712925087820587128484161615610257576102576101e0565b8785058712818416161561026d5761026d6101e0565b50505092909302939250505056fea264697066735822122020183f6c59392decd429b5749e6246a0051a335c668342c52a91ab9b950c8fb764736f6c634300080b00336080604052600260005534801561001557600080fd5b50600260009081556040805160208082019092528281527301be23585060835e02b77ef475b0cc51aa1e070990925260019052517fe539f5536278cb22339893811e6a9f04c719f63cc90966a4f1b05b9f4ec17a6f5561034c8061007a6000396000f3fe608060405234801561001057600080fd5b506004361061004c5760003560e01c80630940495414610051578063a347e24c1461006c578063f8b2cb4f14610095578063f970c3b7146100a8575b600080fd5b61005a60005481565b60405190815260200160405180910390f35b61005a61007a366004610257565b6001600160a01b031660009081526001602052604090205490565b61005a6100a3366004610257565b6100bd565b6100bb6100b6366004610279565b61012e565b005b6040516370a0823160e01b81523060048201526000906001600160a01b038316906370a0823190602401602060405180830381865afa158015610104573d6000803e3d6000fd5b505050506040513d601f19601f8201168201806040525081019061012891906102b5565b92915050565b6040516323b872dd60e01b81526001600160a01b038481166004830152306024830152604482018390528316906323b872dd906064016020604051808303816000875af1158015610183573d6000803e3d6000fd5b505050506040513d601f19601f820116820180604052508101906101a791906102ce565b506001600160a01b0382166000908152600160205260409020546101cc9082906102f0565b6001600160a01b038084166000818152600160209081526040808320959095559287168152600283528381209181529152205461020a9082906102f0565b6001600160a01b03938416600090815260026020908152604080832095909616825293909352929091209190915550565b80356001600160a01b038116811461025257600080fd5b919050565b60006020828403121561026957600080fd5b6102728261023b565b9392505050565b60008060006060848603121561028e57600080fd5b6102978461023b565b92506102a56020850161023b565b9150604084013590509250925092565b6000602082840312156102c757600080fd5b5051919050565b6000602082840312156102e057600080fd5b8151801515811461027257600080fd5b6000821982111561031157634e487b7160e01b600052601160045260246000fd5b50019056fea26469706673582212209d21e3cd8e5a8191bc78da2f86667a812179fb7c0a8dd766fd697b5536ac011164736f6c634300080b003360806040523480156200001157600080fd5b5060405162001efe38038062001efe83398101604081905262000034916200024b565b8251839083906200004d906005906020850190620000ca565b50805162000063906006906020840190620000ca565b505050604051620000749062000159565b604051809103906000f08015801562000091573d6000803e3d6000fd5b50600780546001600160a01b039283166001600160a01b0319918216179091556008805493909216921691909117905550620003159050565b828054620000d890620002d8565b90600052602060002090601f016020900481019282620000fc576000855562000147565b82601f106200011757805160ff191683800117855562000147565b8280016001018555821562000147579182015b82811115620001475782518255916020019190600101906200012a565b506200015592915062000167565b5090565b6103768062001b8883390190565b5b8082111562000155576000815560010162000168565b634e487b7160e01b600052604160045260246000fd5b600082601f830112620001a657600080fd5b81516001600160401b0380821115620001c357620001c36200017e565b604051601f8301601f19908116603f01168101908282118183101715620001ee57620001ee6200017e565b816040528381526020925086838588010111156200020b57600080fd5b600091505b838210156200022f578582018301518183018401529082019062000210565b83821115620002415760008385830101525b9695505050505050565b6000806000606084860312156200026157600080fd5b83516001600160401b03808211156200027957600080fd5b620002878783880162000194565b945060208601519150808211156200029e57600080fd5b50620002ad8682870162000194565b604086015190935090506001600160a01b0381168114620002cd57600080fd5b809150509250925092565b600181811c90821680620002ed57607f821691505b602082108114156200030f57634e487b7160e01b600052602260045260246000fd5b50919050565b61186380620003256000396000f3fe608060405234801561001057600080fd5b50600436106101c45760003560e01c806342966c68116100f957806395d89b4111610097578063a9059cbb11610071578063a9059cbb146103b7578063ca15c873146103ca578063d547741f146103dd578063dd62ed3e146103f057600080fd5b806395d89b4114610394578063a217fddf1461039c578063a457c2d7146103a457600080fd5b80638a02775b116100d35780638a02775b146103535780639010d07c1461035b57806391d148541461036e5780639311ca691461038157600080fd5b806342966c68146103045780636b3e22fc1461031757806370a082311461032a57600080fd5b8063248a9ca3116101665780633287acee116101405780633287acee146102c357806333d57cdc146102d657806336568abe146102de57806339509351146102f157600080fd5b8063248a9ca31461027e5780632f2ff15d146102a1578063313ce567146102b457600080fd5b80630d4d1513116101a25780630d4d15131461021957806316f0115b1461022e57806318160ddd1461025957806323b872dd1461026b57600080fd5b806301ffc9a7146101c957806306fdde03146101f1578063095ea7b314610206575b600080fd5b6101dc6101d7366004611498565b610429565b60405190151581526020015b60405180910390f35b6101f9610454565b6040516101e891906114ee565b6101dc61021436600461153d565b6104e6565b61022c610227366004611567565b6104fc565b005b600854610241906001600160a01b031681565b6040516001600160a01b0390911681526020016101e8565b6004545b6040519081526020016101e8565b6101dc6102793660046115a3565b610528565b61025d61028c3660046115df565b60009081526020819052604090206001015490565b61022c6102af3660046115f8565b6105d7565b604051601281526020016101e8565b61025d6102d13660046115df565b610602565b61025d61064f565b61022c6102ec3660046115f8565b6106c5565b6101dc6102ff36600461153d565b610743565b61022c6103123660046115df565b61077f565b61025d61032536600461153d565b61082c565b61025d610338366004611624565b6001600160a01b031660009081526002602052604090205490565b61025d6108c8565b61024161036936600461163f565b610936565b6101dc61037c3660046115f8565b61094e565b600754610241906001600160a01b031681565b6101f9610977565b61025d600081565b6101dc6103b236600461153d565b610986565b6101dc6103c536600461153d565b610a1f565b61025d6103d83660046115df565b610a2c565b61022c6103eb3660046115f8565b610a43565b61025d6103fe366004611661565b6001600160a01b03918216600090815260036020908152604080832093909416825291909152205490565b60006001600160e01b03198216635a05180f60e01b148061044e575061044e82610a69565b92915050565b6060600580546104639061168b565b80601f016020809104026020016040519081016040528092919081815260200182805461048f9061168b565b80156104dc5780601f106104b1576101008083540402835291602001916104dc565b820191906000526020600020905b8154815290600101906020018083116104bf57829003601f168201915b5050505050905090565b60006104f3338484610a9e565b50600192915050565b6000610508828461082c565b9050600061051582610602565b90506105218582610bc2565b5050505050565b6000610535848484610ca1565b6001600160a01b0384166000908152600360209081526040808320338452909152902054828110156105bf5760405162461bcd60e51b815260206004820152602860248201527f45524332303a207472616e7366657220616d6f756e74206578636565647320616044820152676c6c6f77616e636560c01b60648201526084015b60405180910390fd5b6105cc8533858403610a9e565b506001949350505050565b6000828152602081905260409020600101546105f38133610e71565b6105fd8383610ed5565b505050565b60008061060d6108c8565b905061061860045490565b610623575090919050565b808361062e60045490565b61063891906116d6565b61064291906116f5565b9392505050565b50919050565b60008061065b60045490565b116106995760405162461bcd60e51b815260206004820152600e60248201526d737570706c79206973207a65726f60901b60448201526064016105b6565b6004546106a46108c8565b6106b690670de0b6b3a76400006116d6565b6106c091906116f5565b905090565b6001600160a01b03811633146107355760405162461bcd60e51b815260206004820152602f60248201527f416363657373436f6e74726f6c3a2063616e206f6e6c792072656e6f756e636560448201526e103937b632b9903337b91039b2b63360891b60648201526084016105b6565b61073f8282610ef7565b5050565b3360008181526003602090815260408083206001600160a01b038716845290915281205490916104f391859061077a908690611717565b610a9e565b600081116107cf5760405162461bcd60e51b815260206004820181905260248201527f416d6f756e7420746f2072656465656d206e6565647320746f206265203e203060448201526064016105b6565b336000908152600260205260409020548111156108215760405162461bcd60e51b815260206004820152601060248201526f696d70726f7065722062616c616e636560801b60448201526064016105b6565b8061073f3382610f19565b6007546040516341976e0960e01b81526001600160a01b03848116600483015260009283929116906341976e0990602401602060405180830381865afa15801561087a573d6000803e3d6000fd5b505050506040513d601f19601f8201168201806040525081019061089e919061172f565b90506000670de0b6b3a76400006108b585846116d6565b6108bf91906116f5565b95945050505050565b600854604080516375f4d67760e01b815290516000926001600160a01b0316916375f4d6779160048083019260209291908290030181865afa158015610912573d6000803e3d6000fd5b505050506040513d601f19601f820116820180604052508101906106c0919061172f565b60008281526001602052604081206106429083611067565b6000918252602082815260408084206001600160a01b0393909316845291905290205460ff1690565b6060600680546104639061168b565b3360009081526003602090815260408083206001600160a01b038616845290915281205482811015610a085760405162461bcd60e51b815260206004820152602560248201527f45524332303a2064656372656173656420616c6c6f77616e63652062656c6f77604482015264207a65726f60d81b60648201526084016105b6565b610a153385858403610a9e565b5060019392505050565b60006104f3338484610ca1565b600081815260016020526040812061044e90611073565b600082815260208190526040902060010154610a5f8133610e71565b6105fd8383610ef7565b60006001600160e01b03198216637965db0b60e01b148061044e57506301ffc9a760e01b6001600160e01b031983161461044e565b6001600160a01b038316610b005760405162461bcd60e51b8152602060048201526024808201527f45524332303a20617070726f76652066726f6d20746865207a65726f206164646044820152637265737360e01b60648201526084016105b6565b6001600160a01b038216610b615760405162461bcd60e51b815260206004820152602260248201527f45524332303a20617070726f766520746f20746865207a65726f206164647265604482015261737360f01b60648201526084016105b6565b6001600160a01b0383811660008181526003602090815260408083209487168084529482529182902085905590518481527f8c5be1e5ebec7d5bd14f71427d1e84f3dd0314c0f7b2291e5b200ac8c7c3b925910160405180910390a3505050565b6001600160a01b038216610c185760405162461bcd60e51b815260206004820152601f60248201527f45524332303a206d696e7420746f20746865207a65726f20616464726573730060448201526064016105b6565b8060046000828254610c2a9190611717565b90915550506001600160a01b03821660009081526002602052604081208054839290610c57908490611717565b90915550506040518181526001600160a01b038316906000907fddf252ad1be2c89b69c2b068fc378daa952ba7f163c4a11628f55a4df523b3ef9060200160405180910390a35050565b6001600160a01b038316610d055760405162461bcd60e51b815260206004820152602560248201527f45524332303a207472616e736665722066726f6d20746865207a65726f206164604482015264647265737360d81b60648201526084016105b6565b6001600160a01b038216610d675760405162461bcd60e51b815260206004820152602360248201527f45524332303a207472616e7366657220746f20746865207a65726f206164647260448201526265737360e81b60648201526084016105b6565b6001600160a01b03831660009081526002602052604090205481811015610ddf5760405162461bcd60e51b815260206004820152602660248201527f45524332303a207472616e7366657220616d6f756e7420657863656564732062604482015265616c616e636560d01b60648201526084016105b6565b6001600160a01b03808516600090815260026020526040808220858503905591851681529081208054849290610e16908490611717565b92505081905550826001600160a01b0316846001600160a01b03167fddf252ad1be2c89b69c2b068fc378daa952ba7f163c4a11628f55a4df523b3ef84604051610e6291815260200190565b60405180910390a35b50505050565b610e7b828261094e565b61073f57610e93816001600160a01b0316601461107d565b610e9e83602061107d565b604051602001610eaf929190611748565b60408051601f198184030181529082905262461bcd60e51b82526105b6916004016114ee565b610edf8282611219565b60008281526001602052604090206105fd908261129d565b610f0182826112b2565b60008281526001602052604090206105fd9082611317565b6001600160a01b038216610f795760405162461bcd60e51b815260206004820152602160248201527f45524332303a206275726e2066726f6d20746865207a65726f206164647265736044820152607360f81b60648201526084016105b6565b6001600160a01b03821660009081526002602052604090205481811015610fed5760405162461bcd60e51b815260206004820152602260248201527f45524332303a206275726e20616d6f756e7420657863656564732062616c616e604482015261636560f01b60648201526084016105b6565b6001600160a01b038316600090815260026020526040812083830390556004805484929061101c9084906117bd565b90915550506040518281526000906001600160a01b038516907fddf252ad1be2c89b69c2b068fc378daa952ba7f163c4a11628f55a4df523b3ef9060200160405180910390a3505050565b6000610642838361132c565b600061044e825490565b6060600061108c8360026116d6565b611097906002611717565b67ffffffffffffffff8111156110af576110af6117d4565b6040519080825280601f01601f1916602001820160405280156110d9576020820181803683370190505b509050600360fc1b816000815181106110f4576110f46117ea565b60200101906001600160f81b031916908160001a905350600f60fb1b81600181518110611123576111236117ea565b60200101906001600160f81b031916908160001a90535060006111478460026116d6565b611152906001611717565b90505b60018111156111ca576f181899199a1a9b1b9c1cb0b131b232b360811b85600f1660108110611186576111866117ea565b1a60f81b82828151811061119c5761119c6117ea565b60200101906001600160f81b031916908160001a90535060049490941c936111c381611800565b9050611155565b5083156106425760405162461bcd60e51b815260206004820181905260248201527f537472696e67733a20686578206c656e67746820696e73756666696369656e7460448201526064016105b6565b611223828261094e565b61073f576000828152602081815260408083206001600160a01b03851684529091529020805460ff191660011790556112593390565b6001600160a01b0316816001600160a01b0316837f2f8788117e7eff1d82e926ec794901d17c78024a50270940304540a733656f0d60405160405180910390a45050565b6000610642836001600160a01b038416611356565b6112bc828261094e565b1561073f576000828152602081815260408083206001600160a01b0385168085529252808320805460ff1916905551339285917ff6391f5c32d9c69d2a47ea670b442974b53935d1edc7fd64eb21e047a839171b9190a45050565b6000610642836001600160a01b0384166113a5565b6000826000018281548110611343576113436117ea565b9060005260206000200154905092915050565b600081815260018301602052604081205461139d5750815460018181018455600084815260208082209093018490558454848252828601909352604090209190915561044e565b50600061044e565b6000818152600183016020526040812054801561148e5760006113c96001836117bd565b85549091506000906113dd906001906117bd565b90508181146114425760008660000182815481106113fd576113fd6117ea565b9060005260206000200154905080876000018481548110611420576114206117ea565b6000918252602080832090910192909255918252600188019052604090208390555b855486908061145357611453611817565b60019003818190600052602060002001600090559055856001016000868152602001908152602001600020600090556001935050505061044e565b600091505061044e565b6000602082840312156114aa57600080fd5b81356001600160e01b03198116811461064257600080fd5b60005b838110156114dd5781810151838201526020016114c5565b83811115610e6b5750506000910152565b602081526000825180602084015261150d8160408501602087016114c2565b601f01601f19169190910160400192915050565b80356001600160a01b038116811461153857600080fd5b919050565b6000806040838503121561155057600080fd5b61155983611521565b946020939093013593505050565b60008060006060848603121561157c57600080fd5b61158584611521565b92506020840135915061159a60408501611521565b90509250925092565b6000806000606084860312156115b857600080fd5b6115c184611521565b92506115cf60208501611521565b9150604084013590509250925092565b6000602082840312156115f157600080fd5b5035919050565b6000806040838503121561160b57600080fd5b8235915061161b60208401611521565b90509250929050565b60006020828403121561163657600080fd5b61064282611521565b6000806040838503121561165257600080fd5b50508035926020909101359150565b6000806040838503121561167457600080fd5b61167d83611521565b915061161b60208401611521565b600181811c9082168061169f57607f821691505b6020821081141561064957634e487b7160e01b600052602260045260246000fd5b634e487b7160e01b600052601160045260246000fd5b60008160001904831182151516156116f0576116f06116c0565b500290565b60008261171257634e487b7160e01b600052601260045260246000fd5b500490565b6000821982111561172a5761172a6116c0565b500190565b60006020828403121561174157600080fd5b5051919050565b7f416363657373436f6e74726f6c3a206163636f756e74200000000000000000008152600083516117808160178501602088016114c2565b7001034b99036b4b9b9b4b733903937b6329607d1b60179184019182015283516117b18160288401602088016114c2565b01602801949350505050565b6000828210156117cf576117cf6116c0565b500390565b634e487b7160e01b600052604160045260246000fd5b634e487b7160e01b600052603260045260246000fd5b60008161180f5761180f6116c0565b506000190190565b634e487b7160e01b600052603160045260246000fdfea2646970667358221220e288814c5f22cc5e499b7db4b0fa51ae5316c9ae12434bc1d4dd86d15969738364736f6c634300080b0033608060405234801561001057600080fd5b50600060208190527f4e2753d238f0f4cb8962490717ab551b4c023808c7bc37aed6e8760bfc3a92d580546001600160a01b031990811673d8bd0a1cb028a31aa859a21a3758685a95de462317909155731680df1901c033306f161ea35425c1463d52b0c69091527f848a6226e7c9b8bbc828749523b8ef06b79a399244b200976dd9ab47adefb42b8054909116732ba49aaa16e6afd2a993473cfb70fa8559b523cf1790556102b1806100c56000396000f3fe608060405234801561001057600080fd5b50600436106100365760003560e01c806341976e091461003b5780634238dc4714610061575b600080fd5b61004e610049366004610141565b6100a2565b6040519081526020015b60405180910390f35b61008a61006f366004610141565b6000602081905290815260409020546001600160a01b031681565b6040516001600160a01b039091168152602001610058565b6001600160a01b03808216600090815260208190526040808220548151633fabe5a360e21b81529151929316918391839163feaf968c9160048082019260a0929091908290030181865afa1580156100fe573d6000803e3d6000fd5b505050506040513d601f19601f820116820180604052508101906101229190610190565b505050915050806402540be40061013991906101f6565b949350505050565b60006020828403121561015357600080fd5b81356001600160a01b038116811461016a57600080fd5b9392505050565b805169ffffffffffffffffffff8116811461018b57600080fd5b919050565b600080600080600060a086880312156101a857600080fd5b6101b186610171565b94506020860151935060408601519250606086015191506101d460808701610171565b90509295509295909350565b634e487b7160e01b600052601160045260246000fd5b60006001600160ff1b038184138284138082168684048611161561021c5761021c6101e0565b600160ff1b600087128281168783058912161561023b5761023b6101e0565b60008712925087820587128484161615610257576102576101e0565b8785058712818416161561026d5761026d6101e0565b50505092909302939250505056fea264697066735822122020183f6c59392decd429b5749e6246a0051a335c668342c52a91ab9b950c8fb764736f6c634300080b0033","bytecodeSha1":"e2d4c5e3efc84a61219444de71642dc5a60823ad","type":"contract","abi":[{"inputs":[],"stateMutability":"nonpayable","type":"constructor","name":"constructor"},{"anonymous":false,"inputs":[{"indexed":false,"internalType":"address","name":"_user","type":"address"},{"indexed":false,"internalType":"uint256","name":"_borrowed","type":"uint256"},{"indexed":false,"internalType":"address","name":"_borrowedAsset","type":"address"},{"indexed":false,"internalType":"uint256","name":"_collateral","type":"uint256"},{"indexed":false,"internalType":"address","name":"_collateralAsset","type":"address"}],"name":"borrowEvent","type":"event"},{"anonymous":false,"inputs":[{"indexed":false,"internalType":"address","name":"_user","type":"address"},{"indexed":false,"internalType":"uint256","name":"_quantity","type":"uint256"},{"indexed":false,"internalType":"address","name":"_asset","type":"address"}],"name":"depositEvent","type":"event"},{"inputs":[{"internalType":"uint256","name":"_borrowQuantity","type":"uint256"},{"internalType":"address","name":"_asset","type":"address"},{"internalType":"uint256","name":"_collateralQuantity","type":"uint256"},{"internalType":"address","name":"_collateral","type":"address"}],"name":"Borrow","outputs":[],"stateMutability":"nonpayable","type":"function"},{"inputs":[{"internalType":"uint256","name":"_quantity","type":"uint256"},{"internalType":"address","name":"_asset","type":"address"}],"name":"Deposit","outputs":[],"stateMutability":"nonpayable","type":"function"},{"inputs":[],"name":"collateral","outputs":[{"internalType":"contract Collateral","name":"","type":"address"}],"stateMutability":"view","type":"function"},{"inputs":[],"name":"getCollAddr","outputs":[{"internalType":"address","name":"","type":"address"}],"stateMutability":"view","type":"function"},{"inputs":[{"internalType":"address","name":"_token","type":"address"}],"name":"getCollBalance","outputs":[{"internalType":"uint256","name":"","type":"uint256"}],"stateMutability":"view","type":"function"},{"inputs":[{"internalType":"address","name":"_token","type":"address"}],"name":"getLiquidPct","outputs":[{"internalType":"uint256","name":"","type":"uint256"}],"stateMutability":"view","type":"function"},{"inputs":[{"internalType":"address","name":"_token","type":"address"}],"name":"getLiquidity","outputs":[{"internalType":"uint256","name":"","type":"uint256"}],"stateMutability":"view","type":"function"},{"inputs":[{"internalType":"address","name":"_token","type":"address"}],"name":"getLockedCollateral","outputs":[{"internalType":"uint256","name":"","type":"uint256"}],"stateMutability":"view","type":"function"},{"inputs":[],"name":"getPoolAddr","outputs":[{"internalType":"address","name":"","type":"address"}],"stateMutability":"view","type":"function"},{"inputs":[{"internalType":"address","name":"_token","type":"address"}],"name":"getPoolBalance","outputs":[{"internalType":"uint256","name":"","type":"uint256"}],"stateMutability":"view","type":"function"},{"inputs":[],"name":"getPoolValue","outputs":[{"internalType":"uint256","name":"","type":"uint256"}],"stateMutability":"view","type":"function"},{"inputs":[],"name":"getTokenAddr","outputs":[{"internalType":"address","name":"","type":"address"}],"stateMutability":"view","type":"function"},{"inputs":[],"name":"getTokenDollarValue","outputs":[{"internalType":"uint256","name":"","type":"uint256"}],"stateMutability":"view","type":"function"},{"inputs":[],"name":"getTotalSupply","outputs":[{"internalType":"uint256","name":"","type":"uint256"}],"stateMutability":"view","type":"function"},{"inputs":[],"name":"offerCollateralAssets","outputs":[],"stateMutability":"nonpayable","type":"function"},{"inputs":[],"name":"pool","outputs":[{"internalType":"contract Pool","name":"","type":"address"}],"stateMutability":"view","type":"function"},{"inputs":[],"name":"token","outputs":[{"internalType":"contract LVRToken","name":"","type":"address"}],"stateMutability":"view","type":"function"}],"compiler":{"version":"0.8.11+commit.d7f03943","evm_version":"istanbul","optimizer":{"enabled":true,"runs":200}},"contractName":"LendingPool","language":"Solidity","natspec":{"methods":{},"kind":"dev","version":1},"opcodes":"PUSH1 0x80 PUSH1 0x40 MSTORE CALLVALUE DUP1 ISZERO PUSH2 0x10 JUMPI PUSH1 0x0 DUP1 REVERT JUMPDEST POP PUSH1 0x4 CALLDATASIZE LT PUSH2 0x10B JUMPI PUSH1 0x0 CALLDATALOAD PUSH1 0xE0 SHR DUP1 PUSH4 0x6DB18093 GT PUSH2 0xA2 JUMPI DUP1 PUSH4 0xD49AB22C GT PUSH2 0x71 JUMPI DUP1 PUSH4 0xD49AB22C EQ PUSH2 0x1E9 JUMPI DUP1 PUSH4 0xD8DFEB45 EQ PUSH2 0x1FC JUMPI DUP1 PUSH4 0xDE259242 EQ PUSH2 0x20F JUMPI DUP1 PUSH4 0xDE30F97D EQ PUSH2 0x220 JUMPI DUP1 PUSH4 0xFC0C546A EQ PUSH2 0x233 JUMPI PUSH1 0x0 DUP1 REVERT JUMPDEST DUP1 PUSH4 0x6DB18093 EQ PUSH2 0x1B3 JUMPI DUP1 PUSH4 0xA747B93B EQ PUSH2 0x1BB JUMPI DUP1 PUSH4 0xC4E41B22 EQ PUSH2 0x1CE JUMPI DUP1 PUSH4 0xD28682EA EQ PUSH2 0x1D6 JUMPI PUSH1 0x0 DUP1 REVERT JUMPDEST DUP1 PUSH4 0x46C928FC GT PUSH2 0xDE JUMPI DUP1 PUSH4 0x46C928FC EQ PUSH2 0x16B JUMPI DUP1 PUSH4 0x4BCC1709 EQ PUSH2 0x17E JUMPI DUP1 PUSH4 0x582B2720 EQ PUSH2 0x191 JUMPI DUP1 PUSH4 0x63E36DAC EQ PUSH2 0x1A2 JUMPI PUSH1 0x0 DUP1 REVERT JUMPDEST DUP1 PUSH4 0x57393C0 EQ PUSH2 0x110 JUMPI DUP1 PUSH4 0x16F0115B EQ PUSH2 0x136 JUMPI DUP1 PUSH4 0x1BA2F531 EQ PUSH2 0x161 JUMPI DUP1 PUSH4 0x243D8E05 EQ PUSH2 0x169 JUMPI JUMPDEST PUSH1 0x0 DUP1 REVERT JUMPDEST PUSH2 0x123 PUSH2 0x11E CALLDATASIZE PUSH1 0x4 PUSH2 0x7DA JUMP JUMPDEST PUSH2 0x246 JUMP JUMPDEST PUSH1 0x40 MLOAD SWAP1 DUP2 MSTORE PUSH1 0x20 ADD JUMPDEST PUSH1 0x40 MLOAD DUP1 SWAP2 SUB SWAP1 RETURN JUMPDEST PUSH1 0x0 SLOAD PUSH2 0x149 SWAP1 PUSH1 0x1 PUSH1 0x1 PUSH1 0xA0 SHL SUB AND DUP2 JUMP JUMPDEST PUSH1 0x40 MLOAD PUSH1 0x1 PUSH1 0x1 PUSH1 0xA0 SHL SUB SWAP1 SWAP2 AND DUP2 MSTORE PUSH1 0x20 ADD PUSH2 0x12D JUMP JUMPDEST PUSH2 0x123 PUSH2 0x2BC JUMP JUMPDEST STOP JUMPDEST PUSH2 0x169 PUSH2 0x179 CALLDATASIZE PUSH1 0x4 PUSH2 0x7FC JUMP JUMPDEST PUSH2 0x32F JUMP JUMPDEST PUSH2 0x169 PUSH2 0x18C CALLDATASIZE PUSH1 0x4 PUSH2 0x842 JUMP JUMPDEST PUSH2 0x532 JUMP JUMPDEST PUSH1 0x3 SLOAD PUSH1 0x1 PUSH1 0x1 PUSH1 0xA0 SHL SUB AND PUSH2 0x149 JUMP JUMPDEST PUSH1 0x1 SLOAD PUSH1 0x1 PUSH1 0x1 PUSH1 0xA0 SHL SUB AND PUSH2 0x149 JUMP JUMPDEST PUSH2 0x123 PUSH2 0x65E JUMP JUMPDEST PUSH2 0x123 PUSH2 0x1C9 CALLDATASIZE PUSH1 0x4 PUSH2 0x7DA JUMP JUMPDEST PUSH2 0x6A8 JUMP JUMPDEST PUSH2 0x123 PUSH2 0x6DB JUMP JUMPDEST PUSH2 0x123 PUSH2 0x1E4 CALLDATASIZE PUSH1 0x4 PUSH2 0x7DA JUMP JUMPDEST PUSH2 0x725 JUMP JUMPDEST PUSH2 0x123 PUSH2 0x1F7 CALLDATASIZE PUSH1 0x4 PUSH2 0x7DA JUMP JUMPDEST PUSH2 0x758 JUMP JUMPDEST PUSH1 0x1 SLOAD PUSH2 0x149 SWAP1 PUSH1 0x1 PUSH1 0x1 PUSH1 0xA0 SHL SUB AND DUP2 JUMP JUMPDEST PUSH1 0x0 SLOAD PUSH1 0x1 PUSH1 0x1 PUSH1 0xA0 SHL SUB AND PUSH2 0x149 JUMP JUMPDEST PUSH2 0x123 PUSH2 0x22E CALLDATASIZE PUSH1 0x4 PUSH2 0x7DA JUMP JUMPDEST PUSH2 0x78B JUMP JUMPDEST PUSH1 0x3 SLOAD PUSH2 0x149 SWAP1 PUSH1 0x1 PUSH1 0x1 PUSH1 0xA0 SHL SUB AND DUP2 JUMP JUMPDEST PUSH1 0x1 SLOAD PUSH1 0x40 MLOAD PUSH4 0xF8B2CB4F PUSH1 0xE0 SHL DUP2 MSTORE PUSH1 0x1 PUSH1 0x1 PUSH1 0xA0 SHL SUB DUP4 DUP2 AND PUSH1 0x4 DUP4 ADD MSTORE PUSH1 0x0 SWAP3 AND SWAP1 PUSH4 0xF8B2CB4F SWAP1 PUSH1 0x24 ADD JUMPDEST PUSH1 0x20 PUSH1 0x40 MLOAD DUP1 DUP4 SUB DUP2 DUP7 GAS STATICCALL ISZERO DUP1 ISZERO PUSH2 0x292 JUMPI RETURNDATASIZE PUSH1 0x0 DUP1 RETURNDATACOPY RETURNDATASIZE PUSH1 0x0 REVERT JUMPDEST POP POP POP POP PUSH1 0x40 MLOAD RETURNDATASIZE PUSH1 0x1F NOT PUSH1 0x1F DUP3 ADD AND DUP3 ADD DUP1 PUSH1 0x40 MSTORE POP DUP2 ADD SWAP1 PUSH2 0x2B6 SWAP2 SWAP1 PUSH2 0x86E JUMP JUMPDEST SWAP3 SWAP2 POP POP JUMP JUMPDEST PUSH1 0x3 SLOAD PUSH1 0x40 DUP1 MLOAD PUSH4 0x8A02775B PUSH1 0xE0 SHL DUP2 MSTORE SWAP1 MLOAD PUSH1 0x0 SWAP3 PUSH1 0x1 PUSH1 0x1 PUSH1 0xA0 SHL SUB AND SWAP2 PUSH4 0x8A02775B SWAP2 PUSH1 0x4 DUP1 DUP4 ADD SWAP3 PUSH1 0x20 SWAP3 SWAP2 SWAP1 DUP3 SWAP1 SUB ADD DUP2 DUP7 GAS STATICCALL ISZERO DUP1 ISZERO PUSH2 0x306 JUMPI RETURNDATASIZE PUSH1 0x0 DUP1 RETURNDATACOPY RETURNDATASIZE PUSH1 0x0 REVERT JUMPDEST POP POP POP POP PUSH1 0x40 MLOAD RETURNDATASIZE PUSH1 0x1F NOT PUSH1 0x1F DUP3 ADD AND DUP3 ADD DUP1 PUSH1 0x40 MSTORE POP DUP2 ADD SWAP1 PUSH2 0x32A SWAP2 SWAP1 PUSH2 0x86E JUMP JUMPDEST SWAP1 POP SWAP1 JUMP JUMPDEST PUSH1 0x1 PUSH1 0x0 SWAP1 SLOAD SWAP1 PUSH2 0x100 EXP SWAP1 DIV PUSH1 0x1 PUSH1 0x1 PUSH1 0xA0 SHL SUB AND PUSH1 0x1 PUSH1 0x1 PUSH1 0xA0 SHL SUB AND PUSH4 0x9404954 PUSH1 0x40 MLOAD DUP2 PUSH4 0xFFFFFFFF AND PUSH1 0xE0 SHL DUP2 MSTORE PUSH1 0x4 ADD PUSH1 0x20 PUSH1 0x40 MLOAD DUP1 DUP4 SUB DUP2 DUP7 GAS STATICCALL ISZERO DUP1 ISZERO PUSH2 0x382 JUMPI RETURNDATASIZE PUSH1 0x0 DUP1 RETURNDATACOPY RETURNDATASIZE PUSH1 0x0 REVERT JUMPDEST POP POP POP POP PUSH1 0x40 MLOAD RETURNDATASIZE PUSH1 0x1F NOT PUSH1 0x1F DUP3 ADD AND DUP3 ADD DUP1 PUSH1 0x40 MSTORE POP DUP2 ADD SWAP1 PUSH2 0x3A6 SWAP2 SWAP1 PUSH2 0x86E JUMP JUMPDEST PUSH2 0x3B0 SWAP1 DUP6 PUSH2 0x887 JUMP JUMPDEST DUP3 LT ISZERO PUSH2 0x3FC JUMPI PUSH1 0x40 MLOAD PUSH3 0x461BCD PUSH1 0xE5 SHL DUP2 MSTORE PUSH1 0x20 PUSH1 0x4 DUP3 ADD MSTORE PUSH1 0x15 PUSH1 0x24 DUP3 ADD MSTORE PUSH21 0x1B9BDD08195B9BDD59DA0818DBDB1B185D195C985B PUSH1 0x5A SHL PUSH1 0x44 DUP3 ADD MSTORE PUSH1 0x64 ADD JUMPDEST PUSH1 0x40 MLOAD DUP1 SWAP2 SUB SWAP1 REVERT JUMPDEST PUSH1 0x1 SLOAD PUSH1 0x40 MLOAD PUSH4 0xF970C3B7 PUSH1 0xE0 SHL DUP2 MSTORE CALLER PUSH1 0x4 DUP3 ADD MSTORE PUSH1 0x1 PUSH1 0x1 PUSH1 0xA0 SHL SUB DUP4 DUP2 AND PUSH1 0x24 DUP4 ADD MSTORE PUSH1 0x44 DUP3 ADD DUP6 SWAP1 MSTORE SWAP1 SWAP2 AND SWAP1 PUSH4 0xF970C3B7 SWAP1 PUSH1 0x64 ADD PUSH1 0x0 PUSH1 0x40 MLOAD DUP1 DUP4 SUB DUP2 PUSH1 0x0 DUP8 DUP1 EXTCODESIZE ISZERO DUP1 ISZERO PUSH2 0x450 JUMPI PUSH1 0x0 DUP1 REVERT JUMPDEST POP GAS CALL ISZERO DUP1 ISZERO PUSH2 0x464 JUMPI RETURNDATASIZE PUSH1 0x0 DUP1 RETURNDATACOPY RETURNDATASIZE PUSH1 0x0 REVERT JUMPDEST POP POP PUSH1 0x0 SLOAD PUSH1 0x40 MLOAD PUSH4 0xFC4F78B9 PUSH1 0xE0 SHL DUP2 MSTORE CALLER PUSH1 0x4 DUP3 ADD MSTORE PUSH1 0x1 PUSH1 0x1 PUSH1 0xA0 SHL SUB DUP8 DUP2 AND PUSH1 0x24 DUP4 ADD MSTORE PUSH1 0x44 DUP3 ADD DUP10 SWAP1 MSTORE SWAP1 SWAP2 AND SWAP3 POP PUSH4 0xFC4F78B9 SWAP2 POP PUSH1 0x64 ADD PUSH1 0x0 PUSH1 0x40 MLOAD DUP1 DUP4 SUB DUP2 PUSH1 0x0 DUP8 DUP1 EXTCODESIZE ISZERO DUP1 ISZERO PUSH2 0x4BC JUMPI PUSH1 0x0 DUP1 REVERT JUMPDEST POP GAS CALL ISZERO DUP1 ISZERO PUSH2 0x4D0 JUMPI RETURNDATASIZE PUSH1 0x0 DUP1 RETURNDATACOPY RETURNDATASIZE PUSH1 0x0 REVERT JUMPDEST POP POP PUSH1 0x40 DUP1 MLOAD CALLER DUP2 MSTORE PUSH1 0x20 DUP2 ADD DUP9 SWAP1 MSTORE PUSH1 0x1 PUSH1 0x1 PUSH1 0xA0 SHL SUB DUP8 DUP2 AND DUP3 DUP5 ADD MSTORE PUSH1 0x60 DUP3 ADD DUP8 SWAP1 MSTORE DUP6 AND PUSH1 0x80 DUP3 ADD MSTORE SWAP1 MLOAD PUSH32 0xEA8631408D071CDC565DFA37DCB32450C4C85EE9A4142ED14DF1387D7C2A4327 SWAP4 POP SWAP1 DUP2 SWAP1 SUB PUSH1 0xA0 ADD SWAP2 POP LOG1 POP POP POP POP JUMP JUMPDEST PUSH1 0x0 DUP3 GT PUSH2 0x582 JUMPI PUSH1 0x40 MLOAD PUSH3 0x461BCD PUSH1 0xE5 SHL DUP2 MSTORE PUSH1 0x20 PUSH1 0x4 DUP3 ADD MSTORE PUSH1 0x18 PUSH1 0x24 DUP3 ADD MSTORE PUSH32 0x6465706F736974206D75737420626520706F7369746976650000000000000000 PUSH1 0x44 DUP3 ADD MSTORE PUSH1 0x64 ADD PUSH2 0x3F3 JUMP JUMPDEST PUSH1 0x0 SLOAD PUSH1 0x40 MLOAD PUSH4 0x1740ECAF PUSH1 0xE1 SHL DUP2 MSTORE CALLER PUSH1 0x4 DUP3 ADD MSTORE PUSH1 0x1 PUSH1 0x1 PUSH1 0xA0 SHL SUB DUP4 DUP2 AND PUSH1 0x24 DUP4 ADD MSTORE PUSH1 0x44 DUP3 ADD DUP6 SWAP1 MSTORE SWAP1 SWAP2 AND SWAP1 PUSH4 0x2E81D95E SWAP1 PUSH1 0x64 ADD PUSH1 0x0 PUSH1 0x40 MLOAD DUP1 DUP4 SUB DUP2 PUSH1 0x0 DUP8 DUP1 EXTCODESIZE ISZERO DUP1 ISZERO PUSH2 0x5D6 JUMPI PUSH1 0x0 DUP1 REVERT JUMPDEST POP GAS CALL ISZERO DUP1 ISZERO PUSH2 0x5EA JUMPI RETURNDATASIZE PUSH1 0x0 DUP1 RETURNDATACOPY RETURNDATASIZE PUSH1 0x0 REVERT JUMPDEST POP POP PUSH1 0x3 SLOAD PUSH1 0x40 MLOAD PUSH4 0xD4D1513 PUSH1 0xE0 SHL DUP2 MSTORE CALLER PUSH1 0x4 DUP3 ADD MSTORE PUSH1 0x24 DUP2 ADD DUP7 SWAP1 MSTORE PUSH1 0x1 PUSH1 0x1 PUSH1 0xA0 SHL SUB DUP6 DUP2 AND PUSH1 0x44 DUP4 ADD MSTORE SWAP1 SWAP2 AND SWAP3 POP PUSH4 0xD4D1513 SWAP2 POP PUSH1 0x64 ADD PUSH1 0x0 PUSH1 0x40 MLOAD DUP1 DUP4 SUB DUP2 PUSH1 0x0 DUP8 DUP1 EXTCODESIZE ISZERO DUP1 ISZERO PUSH2 0x642 JUMPI PUSH1 0x0 DUP1 REVERT JUMPDEST POP GAS CALL ISZERO DUP1 ISZERO PUSH2 0x656 JUMPI RETURNDATASIZE PUSH1 0x0 DUP1 RETURNDATACOPY RETURNDATASIZE PUSH1 0x0 REVERT JUMPDEST POP POP POP POP POP POP JUMP JUMPDEST PUSH1 0x3 SLOAD PUSH1 0x40 DUP1 MLOAD PUSH4 0xCF55F37 PUSH1 0xE2 SHL DUP2 MSTORE SWAP1 MLOAD PUSH1 0x0 SWAP3 PUSH1 0x1 PUSH1 0x1 PUSH1 0xA0 SHL SUB AND SWAP2 PUSH4 0x33D57CDC SWAP2 PUSH1 0x4 DUP1 DUP4 ADD SWAP3 PUSH1 0x20 SWAP3 SWAP2 SWAP1 DUP3 SWAP1 SUB ADD DUP2 DUP7 GAS STATICCALL ISZERO DUP1 ISZERO PUSH2 0x306 JUMPI RETURNDATASIZE PUSH1 0x0 DUP1 RETURNDATACOPY RETURNDATASIZE PUSH1 0x0 REVERT JUMPDEST PUSH1 0x0 DUP1 SLOAD PUSH1 0x40 MLOAD PUSH4 0xFCE3E8E7 PUSH1 0xE0 SHL DUP2 MSTORE PUSH1 0x1 PUSH1 0x1 PUSH1 0xA0 SHL SUB DUP5 DUP2 AND PUSH1 0x4 DUP4 ADD MSTORE SWAP1 SWAP2 AND SWAP1 PUSH4 0xFCE3E8E7 SWAP1 PUSH1 0x24 ADD PUSH2 0x275 JUMP JUMPDEST PUSH1 0x3 SLOAD PUSH1 0x40 DUP1 MLOAD PUSH4 0x18160DDD PUSH1 0xE0 SHL DUP2 MSTORE SWAP1 MLOAD PUSH1 0x0 SWAP3 PUSH1 0x1 PUSH1 0x1 PUSH1 0xA0 SHL SUB AND SWAP2 PUSH4 0x18160DDD SWAP2 PUSH1 0x4 DUP1 DUP4 ADD SWAP3 PUSH1 0x20 SWAP3 SWAP2 SWAP1 DUP3 SWAP1 SUB ADD DUP2 DUP7 GAS STATICCALL ISZERO DUP1 ISZERO PUSH2 0x306 JUMPI RETURNDATASIZE PUSH1 0x0 DUP1 RETURNDATACOPY RETURNDATASIZE PUSH1 0x0 REVERT JUMPDEST PUSH1 0x0 DUP1 SLOAD PUSH1 0x40 MLOAD PUSH4 0xF8B2CB4F PUSH1 0xE0 SHL DUP2 MSTORE PUSH1 0x1 PUSH1 0x1 PUSH1 0xA0 SHL SUB DUP5 DUP2 AND PUSH1 0x4 DUP4 ADD MSTORE SWAP1 SWAP2 AND SWAP1 PUSH4 0xF8B2CB4F SWAP1 PUSH1 0x24 ADD PUSH2 0x275 JUMP JUMPDEST PUSH1 0x1 SLOAD PUSH1 0x40 MLOAD PUSH4 0x28D1F893 PUSH1 0xE2 SHL DUP2 MSTORE PUSH1 0x1 PUSH1 0x1 PUSH1 0xA0 SHL SUB DUP4 DUP2 AND PUSH1 0x4 DUP4 ADD MSTORE PUSH1 0x0 SWAP3 AND SWAP1 PUSH4 0xA347E24C SWAP1 PUSH1 0x24 ADD PUSH2 0x275 JUMP JUMPDEST PUSH1 0x0 DUP1 SLOAD PUSH1 0x40 MLOAD PUSH4 0xDE30F97D PUSH1 0xE0 SHL DUP2 MSTORE PUSH1 0x1 PUSH1 0x1 PUSH1 0xA0 SHL SUB DUP5 DUP2 AND PUSH1 0x4 DUP4 ADD MSTORE SWAP1 SWAP2 AND SWAP1 PUSH4 0xDE30F97D SWAP1 PUSH1 0x24 ADD PUSH2 0x275 JUMP JUMPDEST DUP1 CALLDATALOAD PUSH1 0x1 PUSH1 0x1 PUSH1 0xA0 SHL SUB DUP2 AND DUP2 EQ PUSH2 0x7D5 JUMPI PUSH1 0x0 DUP1 REVERT JUMPDEST SWAP2 SWAP1 POP JUMP JUMPDEST PUSH1 0x0 PUSH1 0x20 DUP3 DUP5 SUB SLT ISZERO PUSH2 0x7EC JUMPI PUSH1 0x0 DUP1 REVERT JUMPDEST PUSH2 0x7F5 DUP3 PUSH2 0x7BE JUMP JUMPDEST SWAP4 SWAP3 POP POP POP JUMP JUMPDEST PUSH1 0x0 DUP1 PUSH1 0x0 DUP1 PUSH1 0x80 DUP6 DUP8 SUB SLT ISZERO PUSH2 0x812 JUMPI PUSH1 0x0 DUP1 REVERT JUMPDEST DUP5 CALLDATALOAD SWAP4 POP PUSH2 0x822 PUSH1 0x20 DUP7 ADD PUSH2 0x7BE JUMP JUMPDEST SWAP3 POP PUSH1 0x40 DUP6 ADD CALLDATALOAD SWAP2 POP PUSH2 0x837 PUSH1 0x60 DUP7 ADD PUSH2 0x7BE JUMP JUMPDEST SWAP1 POP SWAP3 SWAP6 SWAP2 SWAP5 POP SWAP3 POP JUMP JUMPDEST PUSH1 0x0 DUP1 PUSH1 0x40 DUP4 DUP6 SUB SLT ISZERO PUSH2 0x855 JUMPI PUSH1 0x0 DUP1 REVERT JUMPDEST DUP3 CALLDATALOAD SWAP2 POP PUSH2 0x865 PUSH1 0x20 DUP5 ADD PUSH2 0x7BE JUMP JUMPDEST SWAP1 POP SWAP3 POP SWAP3 SWAP1 POP JUMP JUMPDEST PUSH1 0x0 PUSH1 0x20 DUP3 DUP5 SUB SLT ISZERO PUSH2 0x880 JUMPI PUSH1 0x0 DUP1 REVERT JUMPDEST POP MLOAD SWAP2 SWAP1 POP JUMP JUMPDEST PUSH1 0x0 DUP2 PUSH1 0x0 NOT DIV DUP4 GT DUP3 ISZERO ISZERO AND ISZERO PUSH2 0x8AF JUMPI PUSH4 0x4E487B71 PUSH1 0xE0 SHL PUSH1 0x0 MSTORE PUSH1 0x11 PUSH1 0x4 MSTORE PUSH1 0x24 PUSH1 0x0 REVERT JUMPDEST POP MUL SWAP1 JUMP INVALID LOG2 PUSH5 0x6970667358 0x22 SLT KECCAK256 0xC9 RETURNDATACOPY 0x2E 0x4D SWAP8 0x5E SLT SWAP4 0xBE MULMOD 0xA7 CALLER DUP1 DUP4 JUMPI 0xE2 0xC5 0x29 0xB1 SWAP16 0xD6 STATICCALL 0xA7 PUSH9 0x5387EDA70BBCAA9F64 PUSH20 0x6F6C634300080B00330000000000000000000000 ","sha1":"80dbc8cd8153475294c7e0cf61220587880fd1e4","source":"// SPDX-License-Identifier: MIT\n\npragma solidity ^0.8.0;\n\n//import \"./ierc20token.sol\";\n//import \"@openzeppelin/contracts/utils/math/SafeMath.sol\";\nimport \"@openzeppelin/contracts/token/ERC20/IERC20.sol\";\nimport \"./2_Pool.sol\";\nimport \"./3_Collateral.sol\";\nimport \"./LVRToken.sol\";\n\n// derive this from OpenZeppelin's Ownable contract?\ncontract LendingPool {\n    //    using SafeMath for uint256;\n\n    event depositEvent(address _user, uint256 _quantity, address _asset);\n    event borrowEvent(\n        address _user,\n        uint256 _borrowed,\n        address _borrowedAsset,\n        uint256 _collateral,\n        address _collateralAsset\n    );\n\n    // not sure the public keyword should be used here\n    Pool public pool;\n    Collateral public collateral;\n    address owner;\n    LVRToken public token;\n\n    constructor() {\n        pool = new Pool();\n        collateral = new Collateral();\n        token = new LVRToken(\"TestToken\", \"TST\", address(pool));\n        //token = LVRToken(tokenAddress);\n\n        owner = msg.sender;\n    }\n\n    modifier onlyOwner() {\n        require(msg.sender == owner);\n        _;\n    }\n\n    function Deposit(uint256 _quantity, address _asset) public {\n        // uint256 _borrowNow?\n        require(_quantity > 0, \"deposit must be positive\");\n\n        pool.depositTransfer(msg.sender, _asset, _quantity);\n        // now need to mint LVR\n\n        token.mint(msg.sender, _quantity, _asset);\n\n        // // borrowNow should be amount borrowed\n        // if (_borrowNow > 0) {\n        //     uint256 usedCollateral = _quantity - collateral.collReq()*_borrowNow;\n        //     Borrow(_borrowNow, address)\n        // }\n\n        //emit depositEvent(msg.sender, _quantity, _asset);\n    }\n\n    function Borrow(\n        uint256 _borrowQuantity,\n        address _asset,\n        uint256 _collateralQuantity,\n        address _collateral\n    ) public {\n        require(\n            _collateralQuantity >= _borrowQuantity * collateral.collReq(),\n            \"not enough collateral\"\n        );\n        collateral.depositCollateral(\n            msg.sender,\n            _collateral,\n            _collateralQuantity\n        );\n        pool.borrowTransfer(msg.sender, _asset, _borrowQuantity);\n\n        emit borrowEvent(\n            msg.sender,\n            _borrowQuantity,\n            _asset,\n            _collateralQuantity,\n            _collateral\n        );\n    }\n\n    function offerCollateralAssets() public {\n        // just needs to check with the pool to see what assets we can offer\n        //users to use as collateral - called when borrowing (if they deposit\n        //LVR and want to use something else)\n        // to do this we probably need to come up with some reserve rules, etc\n    }\n\n    function getLiquidity(address _token) public view returns (uint256) {\n        return pool.getLiquidQuantity(_token);\n    }\n\n    function getPoolBalance(address _token) public view returns (uint256) {\n        return pool.getBalance(_token);\n    }\n\n    function getLiquidPct(address _token) public view returns (uint256) {\n        return pool.getLiquidPct(_token);\n    }\n\n    function getLockedCollateral(address _token) public view returns (uint256) {\n        return collateral.getCollateralQuantity(_token);\n    }\n\n    function getCollBalance(address _token) public view returns (uint256) {\n        return collateral.getBalance(_token);\n    }\n\n    function getPoolAddr() public view returns (address) {\n        return address(pool);\n    }\n\n    function getCollAddr() public view returns (address) {\n        return address(collateral);\n    }\n\n    function getTokenAddr() public view returns (address) {\n        return address(token);\n    }\n\n    function getTokenDollarValue() public view returns (uint256) {\n        return token.tokenDollarValue();\n    }\n\n    function getPoolValue() public view returns (uint256) {\n        return token.totalPoolValue();\n    }\n\n    function getTotalSupply() public view returns (uint256) {\n        return token.totalSupply();\n    }\n}\n","sourcePath":"contracts/1_LendingPool.sol","deployment":{"address":"0xEfE53A1c893aF9328A4A53b7CE848a0eAbE0cB0F","chainid":"4","blockHeight":10078124}}